{
	"AdminManger.sol": {
		"AdminManager": {
			"abi": [
				{
					"inputs": [
						{
							"internalType": "address",
							"name": "_broker",
							"type": "address"
						}
					],
					"payable": false,
					"stateMutability": "nonpayable",
					"type": "constructor"
				},
				{
					"anonymous": false,
					"inputs": [
						{
							"indexed": true,
							"internalType": "address",
							"name": "admin",
							"type": "address"
						},
						{
							"indexed": true,
							"internalType": "address",
							"name": "contractAddress",
							"type": "address"
						},
						{
							"indexed": true,
							"internalType": "string",
							"name": "functionName",
							"type": "string"
						},
						{
							"indexed": false,
							"internalType": "address",
							"name": "collectionAddress",
							"type": "address"
						},
						{
							"indexed": false,
							"internalType": "uint256",
							"name": "tokenId",
							"type": "uint256"
						}
					],
					"name": "AdminActionPerformed",
					"type": "event"
				},
				{
					"anonymous": false,
					"inputs": [
						{
							"indexed": false,
							"internalType": "address",
							"name": "admin",
							"type": "address"
						},
						{
							"indexed": false,
							"internalType": "uint256",
							"name": "time",
							"type": "uint256"
						}
					],
					"name": "AdminAdded",
					"type": "event"
				},
				{
					"anonymous": false,
					"inputs": [
						{
							"indexed": false,
							"internalType": "address",
							"name": "admin",
							"type": "address"
						},
						{
							"indexed": false,
							"internalType": "uint256",
							"name": "time",
							"type": "uint256"
						}
					],
					"name": "AdminRemoved",
					"type": "event"
				},
				{
					"anonymous": false,
					"inputs": [
						{
							"indexed": true,
							"internalType": "address",
							"name": "collection",
							"type": "address"
						},
						{
							"indexed": true,
							"internalType": "uint256",
							"name": "tokenId",
							"type": "uint256"
						},
						{
							"indexed": true,
							"internalType": "address",
							"name": "admin",
							"type": "address"
						},
						{
							"indexed": false,
							"internalType": "uint256",
							"name": "time",
							"type": "uint256"
						},
						{
							"indexed": false,
							"internalType": "string",
							"name": "tokenURI",
							"type": "string"
						}
					],
					"name": "NFTBurned",
					"type": "event"
				},
				{
					"anonymous": false,
					"inputs": [
						{
							"indexed": true,
							"internalType": "address",
							"name": "previousOwner",
							"type": "address"
						},
						{
							"indexed": true,
							"internalType": "address",
							"name": "newOwner",
							"type": "address"
						}
					],
					"name": "OwnershipTransferred",
					"type": "event"
				},
				{
					"payable": true,
					"stateMutability": "payable",
					"type": "fallback"
				},
				{
					"constant": false,
					"inputs": [
						{
							"internalType": "uint256",
							"name": "tokenID",
							"type": "uint256"
						},
						{
							"internalType": "address",
							"name": "_mintableToken",
							"type": "address"
						},
						{
							"internalType": "address",
							"name": "_erc20Token",
							"type": "address"
						},
						{
							"internalType": "bool",
							"name": "isNotClubare",
							"type": "bool"
						}
					],
					"name": "accpetOffer",
					"outputs": [],
					"payable": true,
					"stateMutability": "payable",
					"type": "function"
				},
				{
					"constant": false,
					"inputs": [
						{
							"internalType": "address",
							"name": "admin",
							"type": "address"
						}
					],
					"name": "addAdmin",
					"outputs": [],
					"payable": false,
					"stateMutability": "nonpayable",
					"type": "function"
				},
				{
					"constant": true,
					"inputs": [
						{
							"internalType": "address",
							"name": "_sender",
							"type": "address"
						}
					],
					"name": "adminExist",
					"outputs": [
						{
							"internalType": "bool",
							"name": "",
							"type": "bool"
						}
					],
					"payable": false,
					"stateMutability": "view",
					"type": "function"
				},
				{
					"constant": true,
					"inputs": [
						{
							"internalType": "uint256",
							"name": "",
							"type": "uint256"
						}
					],
					"name": "admins",
					"outputs": [
						{
							"internalType": "address",
							"name": "",
							"type": "address"
						}
					],
					"payable": false,
					"stateMutability": "view",
					"type": "function"
				},
				{
					"constant": false,
					"inputs": [
						{
							"internalType": "uint256",
							"name": "tokenID",
							"type": "uint256"
						},
						{
							"internalType": "address",
							"name": "_mintableToken",
							"type": "address"
						},
						{
							"internalType": "uint256",
							"name": "amount",
							"type": "uint256"
						}
					],
					"name": "bid",
					"outputs": [],
					"payable": true,
					"stateMutability": "payable",
					"type": "function"
				},
				{
					"constant": false,
					"inputs": [
						{
							"internalType": "address",
							"name": "collection",
							"type": "address"
						},
						{
							"internalType": "uint256",
							"name": "tokenId",
							"type": "uint256"
						}
					],
					"name": "burnNFT",
					"outputs": [],
					"payable": false,
					"stateMutability": "nonpayable",
					"type": "function"
				},
				{
					"constant": false,
					"inputs": [
						{
							"internalType": "uint256",
							"name": "tokenID",
							"type": "uint256"
						},
						{
							"internalType": "address",
							"name": "_mintableToken",
							"type": "address"
						},
						{
							"internalType": "bool",
							"name": "isNotClubare",
							"type": "bool"
						}
					],
					"name": "buy",
					"outputs": [],
					"payable": true,
					"stateMutability": "payable",
					"type": "function"
				},
				{
					"constant": false,
					"inputs": [
						{
							"internalType": "uint256",
							"name": "tokenID",
							"type": "uint256"
						},
						{
							"internalType": "address",
							"name": "_mintableToken",
							"type": "address"
						},
						{
							"internalType": "bool",
							"name": "isNotClubare",
							"type": "bool"
						}
					],
					"name": "collect",
					"outputs": [],
					"payable": false,
					"stateMutability": "nonpayable",
					"type": "function"
				},
				{
					"constant": false,
					"inputs": [
						{
							"internalType": "address",
							"name": "_erc20",
							"type": "address"
						},
						{
							"internalType": "address",
							"name": "spender",
							"type": "address"
						},
						{
							"internalType": "uint256",
							"name": "value",
							"type": "uint256"
						}
					],
					"name": "erc20Approve",
					"outputs": [],
					"payable": false,
					"stateMutability": "nonpayable",
					"type": "function"
				},
				{
					"constant": false,
					"inputs": [
						{
							"internalType": "address",
							"name": "_erc20",
							"type": "address"
						},
						{
							"internalType": "address",
							"name": "spender",
							"type": "address"
						},
						{
							"internalType": "uint256",
							"name": "subtractedValue",
							"type": "uint256"
						}
					],
					"name": "erc20DecreaseAllowance",
					"outputs": [],
					"payable": false,
					"stateMutability": "nonpayable",
					"type": "function"
				},
				{
					"constant": false,
					"inputs": [
						{
							"internalType": "address",
							"name": "_erc20",
							"type": "address"
						},
						{
							"internalType": "address",
							"name": "_spender",
							"type": "address"
						},
						{
							"internalType": "uint256",
							"name": "_subtractedValue",
							"type": "uint256"
						}
					],
					"name": "erc20DecreaseApproval",
					"outputs": [],
					"payable": false,
					"stateMutability": "nonpayable",
					"type": "function"
				},
				{
					"constant": false,
					"inputs": [
						{
							"internalType": "address",
							"name": "_erc20",
							"type": "address"
						},
						{
							"internalType": "address",
							"name": "spender",
							"type": "address"
						},
						{
							"internalType": "uint256",
							"name": "addedValue",
							"type": "uint256"
						}
					],
					"name": "erc20IncreaseAllowance",
					"outputs": [],
					"payable": false,
					"stateMutability": "nonpayable",
					"type": "function"
				},
				{
					"constant": false,
					"inputs": [
						{
							"internalType": "address",
							"name": "_erc20",
							"type": "address"
						},
						{
							"internalType": "address",
							"name": "spender",
							"type": "address"
						},
						{
							"internalType": "uint256",
							"name": "addedValue",
							"type": "uint256"
						}
					],
					"name": "erc20IncreaseApproval",
					"outputs": [],
					"payable": false,
					"stateMutability": "nonpayable",
					"type": "function"
				},
				{
					"constant": false,
					"inputs": [
						{
							"internalType": "address",
							"name": "_erc20",
							"type": "address"
						},
						{
							"internalType": "address",
							"name": "to",
							"type": "address"
						},
						{
							"internalType": "uint256",
							"name": "value",
							"type": "uint256"
						}
					],
					"name": "erc20Transfer",
					"outputs": [],
					"payable": false,
					"stateMutability": "nonpayable",
					"type": "function"
				},
				{
					"constant": false,
					"inputs": [
						{
							"internalType": "address",
							"name": "_erc20",
							"type": "address"
						},
						{
							"internalType": "address",
							"name": "from",
							"type": "address"
						},
						{
							"internalType": "address",
							"name": "to",
							"type": "address"
						},
						{
							"internalType": "uint256",
							"name": "value",
							"type": "uint256"
						}
					],
					"name": "erc20TransferFrom",
					"outputs": [],
					"payable": false,
					"stateMutability": "nonpayable",
					"type": "function"
				},
				{
					"constant": false,
					"inputs": [
						{
							"internalType": "address",
							"name": "_ERC721Address",
							"type": "address"
						},
						{
							"internalType": "address",
							"name": "_to",
							"type": "address"
						},
						{
							"internalType": "uint256",
							"name": "_tokenId",
							"type": "uint256"
						}
					],
					"name": "erc721Approve",
					"outputs": [],
					"payable": false,
					"stateMutability": "nonpayable",
					"type": "function"
				},
				{
					"constant": false,
					"inputs": [
						{
							"internalType": "address",
							"name": "_ERC721Address",
							"type": "address"
						},
						{
							"internalType": "uint256",
							"name": "tokenId",
							"type": "uint256"
						}
					],
					"name": "erc721Burn",
					"outputs": [],
					"payable": false,
					"stateMutability": "nonpayable",
					"type": "function"
				},
				{
					"constant": false,
					"inputs": [
						{
							"internalType": "address",
							"name": "_ERC721Address",
							"type": "address"
						},
						{
							"internalType": "string",
							"name": "tokenURI",
							"type": "string"
						},
						{
							"internalType": "uint256",
							"name": "_royality",
							"type": "uint256"
						}
					],
					"name": "erc721Mint",
					"outputs": [],
					"payable": false,
					"stateMutability": "nonpayable",
					"type": "function"
				},
				{
					"constant": false,
					"inputs": [
						{
							"internalType": "address",
							"name": "_ERC721Address",
							"type": "address"
						},
						{
							"internalType": "address",
							"name": "from",
							"type": "address"
						},
						{
							"internalType": "address",
							"name": "to",
							"type": "address"
						},
						{
							"internalType": "uint256",
							"name": "tokenId",
							"type": "uint256"
						},
						{
							"internalType": "bytes",
							"name": "_data",
							"type": "bytes"
						}
					],
					"name": "erc721SafeTransferFrom",
					"outputs": [],
					"payable": false,
					"stateMutability": "nonpayable",
					"type": "function"
				},
				{
					"constant": false,
					"inputs": [
						{
							"internalType": "address",
							"name": "_ERC721Address",
							"type": "address"
						},
						{
							"internalType": "address",
							"name": "from",
							"type": "address"
						},
						{
							"internalType": "address",
							"name": "to",
							"type": "address"
						},
						{
							"internalType": "uint256",
							"name": "tokenId",
							"type": "uint256"
						}
					],
					"name": "erc721SafeTransferFrom",
					"outputs": [],
					"payable": false,
					"stateMutability": "nonpayable",
					"type": "function"
				},
				{
					"constant": false,
					"inputs": [
						{
							"internalType": "address",
							"name": "_ERC721Address",
							"type": "address"
						},
						{
							"internalType": "address",
							"name": "_to",
							"type": "address"
						},
						{
							"internalType": "uint256",
							"name": "_tokenId",
							"type": "uint256"
						}
					],
					"name": "erc721Transfer",
					"outputs": [],
					"payable": false,
					"stateMutability": "nonpayable",
					"type": "function"
				},
				{
					"constant": false,
					"inputs": [
						{
							"internalType": "address",
							"name": "_ERC721Address",
							"type": "address"
						},
						{
							"internalType": "address",
							"name": "from",
							"type": "address"
						},
						{
							"internalType": "address",
							"name": "to",
							"type": "address"
						},
						{
							"internalType": "uint256",
							"name": "tokenId",
							"type": "uint256"
						}
					],
					"name": "erc721TransferFrom",
					"outputs": [],
					"payable": false,
					"stateMutability": "nonpayable",
					"type": "function"
				},
				{
					"constant": true,
					"inputs": [],
					"name": "getAdmins",
					"outputs": [
						{
							"internalType": "address[]",
							"name": "",
							"type": "address[]"
						}
					],
					"payable": false,
					"stateMutability": "view",
					"type": "function"
				},
				{
					"constant": true,
					"inputs": [],
					"name": "isOwner",
					"outputs": [
						{
							"internalType": "bool",
							"name": "",
							"type": "bool"
						}
					],
					"payable": false,
					"stateMutability": "view",
					"type": "function"
				},
				{
					"constant": false,
					"inputs": [
						{
							"internalType": "uint256",
							"name": "tokenID",
							"type": "uint256"
						},
						{
							"internalType": "address",
							"name": "_mintableToken",
							"type": "address"
						},
						{
							"internalType": "address",
							"name": "_erc20Token",
							"type": "address"
						},
						{
							"internalType": "uint256",
							"name": "amount",
							"type": "uint256"
						}
					],
					"name": "makeAnOffer",
					"outputs": [],
					"payable": true,
					"stateMutability": "payable",
					"type": "function"
				},
				{
					"constant": false,
					"inputs": [
						{
							"internalType": "address",
							"name": "",
							"type": "address"
						},
						{
							"internalType": "address",
							"name": "",
							"type": "address"
						},
						{
							"internalType": "uint256",
							"name": "",
							"type": "uint256"
						},
						{
							"internalType": "bytes",
							"name": "",
							"type": "bytes"
						}
					],
					"name": "onERC721Received",
					"outputs": [
						{
							"internalType": "bytes4",
							"name": "",
							"type": "bytes4"
						}
					],
					"payable": false,
					"stateMutability": "nonpayable",
					"type": "function"
				},
				{
					"constant": true,
					"inputs": [],
					"name": "owner",
					"outputs": [
						{
							"internalType": "address",
							"name": "",
							"type": "address"
						}
					],
					"payable": false,
					"stateMutability": "view",
					"type": "function"
				},
				{
					"constant": false,
					"inputs": [
						{
							"internalType": "uint256",
							"name": "_tokenID",
							"type": "uint256"
						},
						{
							"internalType": "uint256",
							"name": "_startingPrice",
							"type": "uint256"
						},
						{
							"internalType": "uint256",
							"name": "_auctionType",
							"type": "uint256"
						},
						{
							"internalType": "uint256",
							"name": "_buyPrice",
							"type": "uint256"
						},
						{
							"internalType": "uint256",
							"name": "_startingTime",
							"type": "uint256"
						},
						{
							"internalType": "uint256",
							"name": "_closingTime",
							"type": "uint256"
						},
						{
							"internalType": "address",
							"name": "_mintableToken",
							"type": "address"
						},
						{
							"internalType": "address",
							"name": "_erc20Token",
							"type": "address"
						}
					],
					"name": "putOnSale",
					"outputs": [],
					"payable": false,
					"stateMutability": "nonpayable",
					"type": "function"
				},
				{
					"constant": false,
					"inputs": [
						{
							"internalType": "uint256",
							"name": "tokenID",
							"type": "uint256"
						},
						{
							"internalType": "address",
							"name": "_mintableToken",
							"type": "address"
						}
					],
					"name": "putSaleOff",
					"outputs": [],
					"payable": false,
					"stateMutability": "nonpayable",
					"type": "function"
				},
				{
					"constant": false,
					"inputs": [
						{
							"internalType": "address",
							"name": "admin",
							"type": "address"
						}
					],
					"name": "removeAdmin",
					"outputs": [],
					"payable": false,
					"stateMutability": "nonpayable",
					"type": "function"
				},
				{
					"constant": false,
					"inputs": [],
					"name": "renounceOwnership",
					"outputs": [],
					"payable": false,
					"stateMutability": "nonpayable",
					"type": "function"
				},
				{
					"constant": false,
					"inputs": [
						{
							"internalType": "uint256",
							"name": "tokenID",
							"type": "uint256"
						},
						{
							"internalType": "address",
							"name": "_mintableToken",
							"type": "address"
						}
					],
					"name": "revertAll",
					"outputs": [],
					"payable": false,
					"stateMutability": "nonpayable",
					"type": "function"
				},
				{
					"constant": false,
					"inputs": [
						{
							"internalType": "uint256",
							"name": "tokenID",
							"type": "uint256"
						},
						{
							"internalType": "address",
							"name": "_mintableToken",
							"type": "address"
						},
						{
							"internalType": "address",
							"name": "_erc20Token",
							"type": "address"
						}
					],
					"name": "revertOffer",
					"outputs": [],
					"payable": true,
					"stateMutability": "payable",
					"type": "function"
				},
				{
					"constant": false,
					"inputs": [
						{
							"internalType": "address",
							"name": "newOwner",
							"type": "address"
						}
					],
					"name": "transferOwnership",
					"outputs": [],
					"payable": false,
					"stateMutability": "nonpayable",
					"type": "function"
				},
				{
					"constant": false,
					"inputs": [
						{
							"internalType": "uint256",
							"name": "tokenID",
							"type": "uint256"
						},
						{
							"internalType": "address",
							"name": "_mintableToken",
							"type": "address"
						},
						{
							"internalType": "uint256",
							"name": "_newPrice",
							"type": "uint256"
						},
						{
							"internalType": "address",
							"name": "_erc20Token",
							"type": "address"
						}
					],
					"name": "updatePrice",
					"outputs": [],
					"payable": false,
					"stateMutability": "nonpayable",
					"type": "function"
				},
				{
					"constant": false,
					"inputs": [],
					"name": "withdraw",
					"outputs": [],
					"payable": false,
					"stateMutability": "nonpayable",
					"type": "function"
				},
				{
					"constant": false,
					"inputs": [
						{
							"internalType": "address",
							"name": "_erc20Token",
							"type": "address"
						}
					],
					"name": "withdrawERC20",
					"outputs": [],
					"payable": false,
					"stateMutability": "nonpayable",
					"type": "function"
				}
			],
			"devdoc": {
				"author": "Clubrare",
				"details": "Mediator contract to allow muliple user to perform ERC721 action using contracts address only",
				"methods": {
					"addAdmin(address)": {
						"details": "Fuction take address type argument",
						"params": {
							"admin": "The account address of admin"
						}
					},
					"adminExist(address)": {
						"details": "Fuction take address type argument",
						"params": {
							"_sender": "The account address of _sender or admin"
						}
					},
					"burnNFT(address,uint256)": {
						"details": "This Fuction is take two arguments address of contract and tokenId of NFT",
						"params": {
							"collection": "tokenId The contract address of NFT contract and tokenId of NFT"
						}
					},
					"getAdmins()": {
						"details": "This Fuction is not take any argument",
						"return": "This Fuction return list of address[]"
					},
					"isOwner()": {
						"details": "Returns true if the caller is the current owner."
					},
					"owner()": {
						"details": "Returns the address of the current owner."
					},
					"removeAdmin(address)": {
						"details": "This Fuction is not take any argument",
						"params": {
							"admin": "The account address of admin"
						}
					},
					"renounceOwnership()": {
						"details": "Leaves the contract without owner. It will not be possible to call `onlyOwner` functions anymore. Can only be called by the current owner.     * NOTE: Renouncing ownership will leave the contract without an owner, thereby removing any functionality that is only available to the owner."
					},
					"transferOwnership(address)": {
						"details": "Transfers ownership of the contract to a new account (`newOwner`). Can only be called by the current owner."
					}
				},
				"title": "AdminManager"
			},
			"evm": {
				"assembly": "    /* \"AdminManger.sol\":7989:8868  FunctionNames(... */\n  0x0e\n  0x03c0\n  dup2\n  dup2\n  mstore\n  shl(0x90, 0x4552433732313a617070726f7665)\n  0x03e0\n  swap1\n  dup2\n  mstore\n    /* \"AdminManger.sol\":7092:23274  contract AdminManager is Ownable, ERC721Holder {... */\n  0x80\n    /* \"AdminManger.sol\":7989:8868  FunctionNames(... */\n  swap2\n  dup3\n  mstore\n  0x0f\n  0x0400\n  swap1\n  dup2\n  mstore\n  mstore(0x0420, shl(0x89, 0x22a9219b99189d3a3930b739b332b9))\n  0xa0\n  mstore\n  0x0b\n  0x0440\n  dup2\n  dup2\n  mstore\n  mstore(0x0460, shl(0xa9, 0x22a9219b99189d313ab937))\n  0xc0\n  mstore\n  0x0480\n  swap1\n  dup2\n  mstore\n  mstore(0x04a0, shl(0xaa, 0x115490cdcc8c4e9b5a5b9d))\n  0xe0\n  mstore\n  0x17\n  0x04c0\n  dup2\n  dup2\n  mstore\n  mstore(0x04e0, 0x4552433732313a736166655472616e7366657246726f6d000000000000000000)\n  0x0100\n  mstore\n  0x13\n  0x0500\n  dup2\n  dup2\n  mstore\n  mstore(0x0520, 0x4552433732313a7472616e7366657246726f6d00000000000000000000000000)\n  0x0120\n  mstore\n  0x10\n  0x0540\n  dup2\n  dup2\n  mstore\n  mstore(0x0560, shl(0x80, 0x42726f6b65723a7075744f6e53616c65))\n  0x0140\n  mstore\n  0x0a\n  0x0580\n  dup2\n  dup2\n  mstore\n  mstore(0x05a0, shl(0xb0, 0x42726f6b65723a627579))\n  0x0160\n  mstore\n  0x05c0\n  swap1\n  dup2\n  mstore\n  mstore(0x05e0, shl(0xb2, 0x109c9bdad95c8e989a59))\n  0x0180\n  mstore\n  0x0600\n  dup7\n  dup2\n  mstore\n  mstore(0x0620, shl(0x92, 0x109c9bdad95c8e98dbdb1b1958dd))\n  0x01a0\n  mstore\n  0x12\n  0x0640\n  dup2\n  dup2\n  mstore\n  mstore(0x0660, shl(0x70, 0x42726f6b65723a7570646174655072696365))\n  0x01c0\n  mstore\n  0x11\n  0x0680\n  dup2\n  dup2\n  mstore\n  mstore(0x06a0, shl(0x79, 0x213937b5b2b91d383aba29b0b632a7b333))\n  0x01e0\n  mstore\n  0x06c0\n  dup3\n  dup2\n  mstore\n  mstore(0x06e0, shl(0x71, 0x213937b5b2b91d36b0b5b2a0b727b33332b9))\n  0x0200\n  mstore\n  0x0700\n  dup3\n  dup2\n  mstore\n  mstore(0x0720, shl(0x71, 0x213937b5b2b91d30b1b1b832ba27b33332b9))\n  0x0220\n  mstore\n  0x0740\n  dup3\n  dup2\n  mstore\n  mstore(0x0760, shl(0x71, 0x213937b5b2b91d3932bb32b93a27b33332b9))\n  0x0240\n  mstore\n  0x0780\n  swap3\n  dup4\n  mstore\n  mstore(0x07a0, shl(0x82, 0x109c9bdad95c8e9c995d995c9d105b1b))\n  0x0260\n  swap3\n  swap1\n  swap3\n  mstore\n  0x07c0\n  swap3\n  dup4\n  mstore\n  mstore(0x07e0, 0x42726f6b65723a62617463684c697374696e6700000000000000000000000000)\n  0x0280\n  swap3\n  swap1\n  swap3\n  mstore\n  0x15\n  0x0800\n  swap1\n  dup2\n  mstore\n  mstore(0x0820, 0x42726f6b65723a626174636844656c697374696e670000000000000000000000)\n  0x02a0\n  mstore\n  0x0840\n  swap1\n  dup2\n  mstore\n  mstore(0x0860, shl(0x78, 0x42726f6b65723a73657441646472657373))\n  0x02c0\n  mstore\n  0x0d\n  0x0880\n  swap1\n  dup2\n  mstore\n  mstore(0x08a0, shl(0x98, 0x45524332303a617070726f7665))\n  0x02e0\n  mstore\n  0x16\n  0x08c0\n  dup2\n  dup2\n  mstore\n  mstore(0x08e0, 0x45524332303a6465637265617365417070726f76616c00000000000000000000)\n  0x0300\n  mstore\n  0x0900\n  swap1\n  dup2\n  mstore\n  mstore(0x0920, 0x45524332303a696e637265617365417070726f76616c00000000000000000000)\n  0x0320\n  mstore\n  0x0940\n  dup6\n  dup2\n  mstore\n  mstore(0x0960, shl(0x91, 0x22a92199181d3a3930b739b332b9))\n  0x0340\n  mstore\n  0x0980\n  swap1\n  dup2\n  mstore\n  mstore(0x09a0, shl(0x70, 0x45524332303a7472616e7366657246726f6d))\n  0x0360\n  mstore\n  0x09c0\n  dup2\n  dup2\n  mstore\n  mstore(0x09e0, 0x45524332303a696e637265617365416c6c6f77616e6365000000000000000000)\n  0x0380\n  mstore\n  0x0a40\n    /* \"AdminManger.sol\":7092:23274  contract AdminManager is Ownable, ERC721Holder {... */\n  0x40\n    /* \"AdminManger.sol\":7989:8868  FunctionNames(... */\n  mstore\n  0x0a00\n  swap1\n  dup2\n  mstore\n  mstore(0x0a20, 0x45524332303a6465637265617365416c6c6f77616e6365000000000000000000)\n  0x03a0\n  mstore\n    /* \"AdminManger.sol\":7092:23274  contract AdminManager is Ownable, ERC721Holder {... */\n  swap1\n  swap2\n    /* \"AdminManger.sol\":7951:8868  FunctionNames functionNames =... */\n  0x02\n  swap2\n  tag_1\n  swap2\n  dup4\n  swap2\n    /* \"AdminManger.sol\":7989:8868  FunctionNames(... */\n  swap1\n    /* \"AdminManger.sol\":7951:8868  FunctionNames functionNames =... */\n  tag_2\n  jump\t// in\ntag_1:\n  pop\n  0x20\n  dup3\n  dup2\n  add\n  mload\n  dup1\n  mload\n  tag_3\n  swap3\n  0x01\n  dup6\n  add\n  swap3\n  add\n  swap1\n  tag_2\n  jump\t// in\ntag_3:\n  pop\n  0x40\n  dup3\n  add\n  mload\n  dup1\n  mload\n  tag_4\n  swap2\n  0x02\n  dup5\n  add\n  swap2\n  0x20\n  swap1\n  swap2\n  add\n  swap1\n  tag_2\n  jump\t// in\ntag_4:\n  pop\n  0x60\n  dup3\n  add\n  mload\n  dup1\n  mload\n  tag_5\n  swap2\n  0x03\n  dup5\n  add\n  swap2\n  0x20\n  swap1\n  swap2\n  add\n  swap1\n  tag_2\n  jump\t// in\ntag_5:\n  pop\n  0x80\n  dup3\n  add\n  mload\n  dup1\n  mload\n  tag_6\n  swap2\n  0x04\n  dup5\n  add\n  swap2\n  0x20\n  swap1\n  swap2\n  add\n  swap1\n  tag_2\n  jump\t// in\ntag_6:\n  pop\n  0xa0\n  dup3\n  add\n  mload\n  dup1\n  mload\n  tag_7\n  swap2\n  0x05\n  dup5\n  add\n  swap2\n  0x20\n  swap1\n  swap2\n  add\n  swap1\n  tag_2\n  jump\t// in\ntag_7:\n  pop\n  0xc0\n  dup3\n  add\n  mload\n  dup1\n  mload\n  tag_8\n  swap2\n  0x06\n  dup5\n  add\n  swap2\n  0x20\n  swap1\n  swap2\n  add\n  swap1\n  tag_2\n  jump\t// in\ntag_8:\n  pop\n  0xe0\n  dup3\n  add\n  mload\n  dup1\n  mload\n  tag_9\n  swap2\n  0x07\n  dup5\n  add\n  swap2\n  0x20\n  swap1\n  swap2\n  add\n  swap1\n  tag_2\n  jump\t// in\ntag_9:\n  pop\n  0x0100\n  dup3\n  add\n  mload\n  dup1\n  mload\n  tag_10\n  swap2\n  0x08\n  dup5\n  add\n  swap2\n  0x20\n  swap1\n  swap2\n  add\n  swap1\n  tag_2\n  jump\t// in\ntag_10:\n  pop\n  0x0120\n  dup3\n  add\n  mload\n  dup1\n  mload\n  tag_11\n  swap2\n  0x09\n  dup5\n  add\n  swap2\n  0x20\n  swap1\n  swap2\n  add\n  swap1\n  tag_2\n  jump\t// in\ntag_11:\n  pop\n  0x0140\n  dup3\n  add\n  mload\n  dup1\n  mload\n  tag_12\n  swap2\n  0x0a\n  dup5\n  add\n  swap2\n  0x20\n  swap1\n  swap2\n  add\n  swap1\n  tag_2\n  jump\t// in\ntag_12:\n  pop\n  0x0160\n  dup3\n  add\n  mload\n  dup1\n  mload\n  tag_13\n  swap2\n  0x0b\n  dup5\n  add\n  swap2\n  0x20\n  swap1\n  swap2\n  add\n  swap1\n  tag_2\n  jump\t// in\ntag_13:\n  pop\n  0x0180\n  dup3\n  add\n  mload\n  dup1\n  mload\n  tag_14\n  swap2\n  0x0c\n  dup5\n  add\n  swap2\n  0x20\n  swap1\n  swap2\n  add\n  swap1\n  tag_2\n  jump\t// in\ntag_14:\n  pop\n  0x01a0\n  dup3\n  add\n  mload\n  dup1\n  mload\n  tag_15\n  swap2\n  0x0d\n  dup5\n  add\n  swap2\n  0x20\n  swap1\n  swap2\n  add\n  swap1\n  tag_2\n  jump\t// in\ntag_15:\n  pop\n  0x01c0\n  dup3\n  add\n  mload\n  dup1\n  mload\n  tag_16\n  swap2\n  0x0e\n  dup5\n  add\n  swap2\n  0x20\n  swap1\n  swap2\n  add\n  swap1\n  tag_2\n  jump\t// in\ntag_16:\n  pop\n  0x01e0\n  dup3\n  add\n  mload\n  dup1\n  mload\n  tag_17\n  swap2\n  0x0f\n  dup5\n  add\n  swap2\n  0x20\n  swap1\n  swap2\n  add\n  swap1\n  tag_2\n  jump\t// in\ntag_17:\n  pop\n  0x0200\n  dup3\n  add\n  mload\n  dup1\n  mload\n  tag_18\n  swap2\n  0x10\n  dup5\n  add\n  swap2\n  0x20\n  swap1\n  swap2\n  add\n  swap1\n  tag_2\n  jump\t// in\ntag_18:\n  pop\n  0x0220\n  dup3\n  add\n  mload\n  dup1\n  mload\n  tag_19\n  swap2\n  0x11\n  dup5\n  add\n  swap2\n  0x20\n  swap1\n  swap2\n  add\n  swap1\n  tag_2\n  jump\t// in\ntag_19:\n  pop\n  0x0240\n  dup3\n  add\n  mload\n  dup1\n  mload\n  tag_20\n  swap2\n  0x12\n  dup5\n  add\n  swap2\n  0x20\n  swap1\n  swap2\n  add\n  swap1\n  tag_2\n  jump\t// in\ntag_20:\n  pop\n  0x0260\n  dup3\n  add\n  mload\n  dup1\n  mload\n  tag_21\n  swap2\n  0x13\n  dup5\n  add\n  swap2\n  0x20\n  swap1\n  swap2\n  add\n  swap1\n  tag_2\n  jump\t// in\ntag_21:\n  pop\n  0x0280\n  dup3\n  add\n  mload\n  dup1\n  mload\n  tag_22\n  swap2\n  0x14\n  dup5\n  add\n  swap2\n  0x20\n  swap1\n  swap2\n  add\n  swap1\n  tag_2\n  jump\t// in\ntag_22:\n  pop\n  0x02a0\n  dup3\n  add\n  mload\n  dup1\n  mload\n  tag_23\n  swap2\n  0x15\n  dup5\n  add\n  swap2\n  0x20\n  swap1\n  swap2\n  add\n  swap1\n  tag_2\n  jump\t// in\ntag_23:\n  pop\n  0x02c0\n  dup3\n  add\n  mload\n  dup1\n  mload\n  tag_24\n  swap2\n  0x16\n  dup5\n  add\n  swap2\n  0x20\n  swap1\n  swap2\n  add\n  swap1\n  tag_2\n  jump\t// in\ntag_24:\n  pop\n  0x02e0\n  dup3\n  add\n  mload\n  dup1\n  mload\n  tag_25\n  swap2\n  0x17\n  dup5\n  add\n  swap2\n  0x20\n  swap1\n  swap2\n  add\n  swap1\n  tag_2\n  jump\t// in\ntag_25:\n  pop\n  0x0300\n  dup3\n  add\n  mload\n  dup1\n  mload\n  tag_26\n  swap2\n  0x18\n  dup5\n  add\n  swap2\n  0x20\n  swap1\n  swap2\n  add\n  swap1\n  tag_2\n  jump\t// in\ntag_26:\n  pop\n  0x0320\n  dup3\n  add\n  mload\n  dup1\n  mload\n  tag_27\n  swap2\n  0x19\n  dup5\n  add\n  swap2\n  0x20\n  swap1\n  swap2\n  add\n  swap1\n  tag_2\n  jump\t// in\ntag_27:\n  pop\n  pop\n  pop\n    /* \"AdminManger.sol\":9385:9504  constructor(address _broker) public {... */\n  callvalue\n    /* \"--CODEGEN--\":8:17   */\n  dup1\n    /* \"--CODEGEN--\":5:7   */\n  iszero\n  tag_28\n  jumpi\n    /* \"--CODEGEN--\":30:31   */\n  0x00\n    /* \"--CODEGEN--\":27:28   */\n  dup1\n    /* \"--CODEGEN--\":20:32   */\n  revert\n    /* \"--CODEGEN--\":5:7   */\ntag_28:\n    /* \"AdminManger.sol\":9385:9504  constructor(address _broker) public {... */\n  pop\n  mload(0x40)\n  sub(codesize, bytecodeSize)\n  dup1\n  bytecodeSize\n  dup4\n  codecopy\n  dup2\n  add\n  0x40\n  dup2\n  swap1\n  mstore\n  tag_29\n  swap2\n  jump(tag_30)\ntag_29:\n    /* \"AdminManger.sol\":1111:1128  address msgSender */\n  0x00\n    /* \"AdminManger.sol\":1131:1143  _msgSender() */\n  tag_36\n  sub(shl(0xe0, 0x01), 0x01)\n    /* \"AdminManger.sol\":1131:1141  _msgSender */\n  tag_37\n    /* \"AdminManger.sol\":1131:1143  _msgSender() */\n  and\n  jump\t// in\ntag_36:\n    /* \"AdminManger.sol\":1153:1159  _owner */\n  0x00\n    /* \"AdminManger.sol\":1153:1171  _owner = msgSender */\n  dup1\n  sload\n  not(sub(shl(0xa0, 0x01), 0x01))\n  and\n  sub(shl(0xa0, 0x01), 0x01)\n  dup4\n  and\n  swap1\n  dup2\n  or\n  dup3\n  sstore\n    /* \"AdminManger.sol\":1186:1229  OwnershipTransferred(address(0), msgSender) */\n  mload(0x40)\n    /* \"AdminManger.sol\":1153:1171  _owner = msgSender */\n  swap3\n  swap4\n  pop\n  swap2\n  0x00\n  dup1\n  mload\n  0x20\n  data_9c064737b570a74c2bac5d21056d93ac53115214216cd14d4a0fc9b60be81231\n  dup4\n  codecopy\n  dup2\n  mload\n  swap2\n  mstore\n    /* \"AdminManger.sol\":1186:1229  OwnershipTransferred(address(0), msgSender) */\n  swap1\n    /* \"AdminManger.sol\":1153:1159  _owner */\n  dup3\n  swap1\n    /* \"AdminManger.sol\":1186:1229  OwnershipTransferred(address(0), msgSender) */\n  log3\n  pop\n    /* \"AdminManger.sol\":9431:9460  transferOwnership(msg.sender) */\n  tag_39\n    /* \"AdminManger.sol\":9449:9459  msg.sender */\n  caller\n  sub(shl(0xe0, 0x01), 0x01)\n    /* \"AdminManger.sol\":9431:9448  transferOwnership */\n  tag_40\n    /* \"AdminManger.sol\":9431:9460  transferOwnership(msg.sender) */\n  and\n  jump\t// in\ntag_39:\n    /* \"AdminManger.sol\":9470:9476  broker */\n  0x1c\n    /* \"AdminManger.sol\":9470:9497  broker = IBrokerV2(_broker) */\n  dup1\n  sload\n  not(sub(shl(0xa0, 0x01), 0x01))\n  and\n  sub(shl(0xa0, 0x01), 0x01)\n  swap3\n  swap1\n  swap3\n  and\n  swap2\n  swap1\n  swap2\n  or\n  swap1\n  sstore\n    /* \"AdminManger.sol\":7092:23274  contract AdminManager is Ownable, ERC721Holder {... */\n  jump(tag_67)\n    /* \"AdminManger.sol\":479:575  function _msgSender() internal view returns (address payable) {... */\ntag_37:\n    /* \"AdminManger.sol\":558:568  msg.sender */\n  caller\n    /* \"AdminManger.sol\":479:575  function _msgSender() internal view returns (address payable) {... */\ntag_42:\n  swap1\n  jump\t// out\n    /* \"AdminManger.sol\":2383:2490  function transferOwnership(address newOwner) public onlyOwner {... */\ntag_40:\n    /* \"AdminManger.sol\":1516:1525  isOwner() */\n  tag_44\n  sub(shl(0xe0, 0x01), 0x01)\n    /* \"AdminManger.sol\":1516:1523  isOwner */\n  tag_45\n    /* \"AdminManger.sol\":1516:1525  isOwner() */\n  and\n  jump\t// in\ntag_44:\n    /* \"AdminManger.sol\":1508:1562  require(isOwner(), \"Ownable: caller is not the owner\") */\n  tag_46\n  jumpi\n  mload(0x40)\n  shl(0xe5, 0x461bcd)\n  dup2\n  mstore\n  0x04\n  add\n  tag_47\n  swap1\n  jump(tag_48)\ntag_47:\n  mload(0x40)\n  dup1\n  swap2\n  sub\n  swap1\n  revert\ntag_46:\n    /* \"AdminManger.sol\":2455:2483  _transferOwnership(newOwner) */\n  tag_50\n    /* \"AdminManger.sol\":2474:2482  newOwner */\n  dup2\n  sub(shl(0xe0, 0x01), 0x01)\n    /* \"AdminManger.sol\":2455:2473  _transferOwnership */\n  tag_51\n    /* \"AdminManger.sol\":2455:2483  _transferOwnership(newOwner) */\n  and\n  jump\t// in\ntag_50:\n    /* \"AdminManger.sol\":2383:2490  function transferOwnership(address newOwner) public onlyOwner {... */\n  pop\n  jump\t// out\n    /* \"AdminManger.sol\":1663:1755  function isOwner() public view returns (bool) {... */\ntag_45:\n    /* \"AdminManger.sol\":1703:1707  bool */\n  0x00\n    /* \"AdminManger.sol\":1742:1748  _owner */\n  dup1\n  sload\n  sub(shl(0xa0, 0x01), 0x01)\n  and\n    /* \"AdminManger.sol\":1726:1738  _msgSender() */\n  tag_53\n  sub(shl(0xe0, 0x01), 0x01)\n    /* \"AdminManger.sol\":1726:1736  _msgSender */\n  tag_37\n    /* \"AdminManger.sol\":1726:1738  _msgSender() */\n  and\n  jump\t// in\ntag_53:\n  sub(shl(0xa0, 0x01), 0x01)\n    /* \"AdminManger.sol\":1726:1748  _msgSender() == _owner */\n  and\n  eq\n    /* \"AdminManger.sol\":1719:1748  return _msgSender() == _owner */\n  swap1\n  pop\n    /* \"AdminManger.sol\":1663:1755  function isOwner() public view returns (bool) {... */\n  swap1\n  jump\t// out\n    /* \"AdminManger.sol\":2591:2850  function _transferOwnership(address newOwner) internal {... */\ntag_51:\n  sub(shl(0xa0, 0x01), 0x01)\n    /* \"AdminManger.sol\":2677:2699  newOwner != address(0) */\n  dup2\n  and\n    /* \"AdminManger.sol\":2656:2763  require(... */\n  tag_55\n  jumpi\n  mload(0x40)\n  shl(0xe5, 0x461bcd)\n  dup2\n  mstore\n  0x04\n  add\n  tag_47\n  swap1\n  jump(tag_57)\ntag_55:\n    /* \"AdminManger.sol\":2799:2805  _owner */\n  0x00\n  dup1\n  sload\n    /* \"AdminManger.sol\":2778:2816  OwnershipTransferred(_owner, newOwner) */\n  mload(0x40)\n  sub(shl(0xa0, 0x01), 0x01)\n  dup1\n  dup6\n  and\n  swap4\n    /* \"AdminManger.sol\":2799:2805  _owner */\n  swap3\n  and\n  swap2\n  0x00\n  dup1\n  mload\n  0x20\n  data_9c064737b570a74c2bac5d21056d93ac53115214216cd14d4a0fc9b60be81231\n  dup4\n  codecopy\n  dup2\n  mload\n  swap2\n  mstore\n    /* \"AdminManger.sol\":2778:2816  OwnershipTransferred(_owner, newOwner) */\n  swap2\n  log3\n    /* \"AdminManger.sol\":2826:2832  _owner */\n  0x00\n    /* \"AdminManger.sol\":2826:2843  _owner = newOwner */\n  dup1\n  sload\n  not(sub(shl(0xa0, 0x01), 0x01))\n  and\n  sub(shl(0xa0, 0x01), 0x01)\n  swap3\n  swap1\n  swap3\n  and\n  swap2\n  swap1\n  swap2\n  or\n  swap1\n  sstore\n    /* \"AdminManger.sol\":2591:2850  function _transferOwnership(address newOwner) internal {... */\n  jump\t// out\n    /* \"AdminManger.sol\":7092:23274  contract AdminManager is Ownable, ERC721Holder {... */\ntag_2:\n  dup3\n  dup1\n  sload\n  0x01\n  dup2\n  0x01\n  and\n  iszero\n  0x0100\n  mul\n  sub\n  and\n  0x02\n  swap1\n  div\n  swap1\n  0x00\n  mstore\n  keccak256(0x00, 0x20)\n  swap1\n  0x1f\n  add\n  0x20\n  swap1\n  div\n  dup2\n  add\n  swap3\n  dup3\n  0x1f\n  lt\n  tag_59\n  jumpi\n  dup1\n  mload\n  not(0xff)\n  and\n  dup4\n  dup1\n  add\n  or\n  dup6\n  sstore\n  jump(tag_61)\ntag_59:\n  dup3\n  dup1\n  add\n  0x01\n  add\n  dup6\n  sstore\n  dup3\n  iszero\n  tag_61\n  jumpi\n  swap2\n  dup3\n  add\ntag_60:\n  dup3\n  dup2\n  gt\n  iszero\n  tag_61\n  jumpi\n  dup3\n  mload\n  dup3\n  sstore\n  swap2\n  0x20\n  add\n  swap2\n  swap1\n  0x01\n  add\n  swap1\n  jump(tag_60)\ntag_61:\n  pop\n  tag_62\n  swap3\n  swap2\n  pop\n  tag_63\n  jump\t// in\ntag_62:\n  pop\n  swap1\n  jump\t// out\ntag_63:\n  tag_42\n  swap2\n  swap1\ntag_65:\n  dup1\n  dup3\n  gt\n  iszero\n  tag_62\n  jumpi\n  0x00\n  dup2\n  sstore\n  0x01\n  add\n  jump(tag_65)\n    /* \"--CODEGEN--\":5:139   */\ntag_68:\n    /* \"--CODEGEN--\":83:96   */\n  dup1\n  mload\n    /* \"--CODEGEN--\":101:134   */\n  tag_69\n    /* \"--CODEGEN--\":83:96   */\n  dup2\n    /* \"--CODEGEN--\":101:134   */\n  jump(tag_70)\ntag_69:\n    /* \"--CODEGEN--\":68:139   */\n  swap3\n  swap2\n  pop\n  pop\n  jump\n    /* \"--CODEGEN--\":146:409   */\ntag_30:\n  0x00\n    /* \"--CODEGEN--\":261:263   */\n  0x20\n    /* \"--CODEGEN--\":249:258   */\n  dup3\n    /* \"--CODEGEN--\":240:247   */\n  dup5\n    /* \"--CODEGEN--\":236:259   */\n  sub\n    /* \"--CODEGEN--\":232:264   */\n  slt\n    /* \"--CODEGEN--\":229:231   */\n  iszero\n  tag_71\n  jumpi\n    /* \"--CODEGEN--\":277:278   */\n  0x00\n    /* \"--CODEGEN--\":274:275   */\n  dup1\n    /* \"--CODEGEN--\":267:279   */\n  revert\n    /* \"--CODEGEN--\":229:231   */\ntag_71:\n    /* \"--CODEGEN--\":312:313   */\n  0x00\n    /* \"--CODEGEN--\":329:393   */\n  tag_72\n    /* \"--CODEGEN--\":385:392   */\n  dup5\n    /* \"--CODEGEN--\":365:374   */\n  dup5\n    /* \"--CODEGEN--\":329:393   */\n  jump(tag_68)\ntag_72:\n    /* \"--CODEGEN--\":319:393   */\n  swap5\n    /* \"--CODEGEN--\":223:409   */\n  swap4\n  pop\n  pop\n  pop\n  pop\n  jump\n    /* \"--CODEGEN--\":417:792   */\ntag_73:\n  0x00\n    /* \"--CODEGEN--\":577:644   */\n  tag_74\n    /* \"--CODEGEN--\":641:643   */\n  0x26\n    /* \"--CODEGEN--\":636:639   */\n  dup4\n    /* \"--CODEGEN--\":577:644   */\n  jump(tag_75)\ntag_74:\n    /* \"--CODEGEN--\":677:711   */\n  0x4f776e61626c653a206e6577206f776e657220697320746865207a65726f2061\n    /* \"--CODEGEN--\":657:712   */\n  dup2\n  mstore\n  shl(0xd0, 0x646472657373)\n    /* \"--CODEGEN--\":741:743   */\n  0x20\n    /* \"--CODEGEN--\":732:744   */\n  dup3\n  add\n    /* \"--CODEGEN--\":725:755   */\n  mstore\n    /* \"--CODEGEN--\":783:785   */\n  0x40\n    /* \"--CODEGEN--\":774:786   */\n  add\n  swap3\n    /* \"--CODEGEN--\":563:792   */\n  swap2\n  pop\n  pop\n  jump\n    /* \"--CODEGEN--\":801:1133   */\ntag_76:\n  0x00\n    /* \"--CODEGEN--\":961:1028   */\n  tag_77\n    /* \"--CODEGEN--\":1025:1027   */\n  0x20\n    /* \"--CODEGEN--\":1020:1023   */\n  dup4\n    /* \"--CODEGEN--\":961:1028   */\n  jump(tag_75)\ntag_77:\n    /* \"--CODEGEN--\":1061:1095   */\n  0x4f776e61626c653a2063616c6c6572206973206e6f7420746865206f776e6572\n    /* \"--CODEGEN--\":1041:1096   */\n  dup2\n  mstore\n    /* \"--CODEGEN--\":1124:1126   */\n  0x20\n    /* \"--CODEGEN--\":1115:1127   */\n  add\n  swap3\n    /* \"--CODEGEN--\":947:1133   */\n  swap2\n  pop\n  pop\n  jump\n    /* \"--CODEGEN--\":1141:1548   */\ntag_57:\n    /* \"--CODEGEN--\":1332:1334   */\n  0x20\n    /* \"--CODEGEN--\":1346:1393   */\n  dup1\n  dup3\n  mstore\n    /* \"--CODEGEN--\":1317:1335   */\n  dup2\n  add\n    /* \"--CODEGEN--\":1407:1538   */\n  tag_69\n    /* \"--CODEGEN--\":1317:1335   */\n  dup2\n    /* \"--CODEGEN--\":1407:1538   */\n  jump(tag_73)\n    /* \"--CODEGEN--\":1555:1962   */\ntag_48:\n    /* \"--CODEGEN--\":1746:1748   */\n  0x20\n    /* \"--CODEGEN--\":1760:1807   */\n  dup1\n  dup3\n  mstore\n    /* \"--CODEGEN--\":1731:1749   */\n  dup2\n  add\n    /* \"--CODEGEN--\":1821:1952   */\n  tag_69\n    /* \"--CODEGEN--\":1731:1749   */\n  dup2\n    /* \"--CODEGEN--\":1821:1952   */\n  jump(tag_76)\n    /* \"--CODEGEN--\":1970:2133   */\ntag_75:\n    /* \"--CODEGEN--\":2073:2092   */\n  swap1\n  dup2\n  mstore\n    /* \"--CODEGEN--\":2122:2126   */\n  0x20\n    /* \"--CODEGEN--\":2113:2127   */\n  add\n  swap1\n    /* \"--CODEGEN--\":2066:2133   */\n  jump\n    /* \"--CODEGEN--\":2141:2232   */\ntag_80:\n  0x00\n  sub(shl(0xa0, 0x01), 0x01)\n    /* \"--CODEGEN--\":2301:2355   */\n  dup3\n  and\n    /* \"--CODEGEN--\":2203:2227   */\n  tag_69\n    /* \"--CODEGEN--\":2284:2360   */\n  jump\n    /* \"--CODEGEN--\":2367:2484   */\ntag_70:\n    /* \"--CODEGEN--\":2436:2460   */\n  tag_83\n    /* \"--CODEGEN--\":2454:2459   */\n  dup2\n    /* \"--CODEGEN--\":2436:2460   */\n  jump(tag_80)\ntag_83:\n    /* \"--CODEGEN--\":2429:2434   */\n  dup2\n    /* \"--CODEGEN--\":2426:2461   */\n  eq\n    /* \"--CODEGEN--\":2416:2418   */\n  tag_50\n  jumpi\n    /* \"--CODEGEN--\":2475:2476   */\n  0x00\n    /* \"--CODEGEN--\":2472:2473   */\n  dup1\n    /* \"--CODEGEN--\":2465:2477   */\n  revert\n    /* \"--CODEGEN--\":2410:2484   */\ntag_67:\n    /* \"AdminManger.sol\":7092:23274  contract AdminManager is Ownable, ERC721Holder {... */\n  dataSize(sub_0)\n  dup1\n  dataOffset(sub_0)\n  0x00\n  codecopy\n  0x00\n  return\nstop\ndata_9c064737b570a74c2bac5d21056d93ac53115214216cd14d4a0fc9b60be81231 8be0079c531659141344cd1fd0a4f28419497f9722a3daafe3b4186f6b6457e0\n\nsub_0: assembly {\n        /* \"AdminManger.sol\":7092:23274  contract AdminManager is Ownable, ERC721Holder {... */\n      mstore(0x40, 0x80)\n      jumpi(tag_1, lt(calldatasize, 0x04))\n      shr(0xe0, calldataload(0x00))\n      dup1\n      0x640cf873\n      gt\n      tag_39\n      jumpi\n      dup1\n      0xace561a8\n      gt\n      tag_40\n      jumpi\n      dup1\n      0xf2fde38b\n      gt\n      tag_41\n      jumpi\n      dup1\n      0xf2fde38b\n      eq\n      tag_34\n      jumpi\n      dup1\n      0xf4f3b200\n      eq\n      tag_35\n      jumpi\n      dup1\n      0xfba08d45\n      eq\n      tag_36\n      jumpi\n      dup1\n      0xfddea900\n      eq\n      tag_37\n      jumpi\n      dup1\n      0xff8edbdb\n      eq\n      tag_38\n      jumpi\n      jump(tag_1)\n    tag_41:\n      dup1\n      0xace561a8\n      eq\n      tag_29\n      jumpi\n      dup1\n      0xb6011b4c\n      eq\n      tag_30\n      jumpi\n      dup1\n      0xc0f4ed31\n      eq\n      tag_31\n      jumpi\n      dup1\n      0xc347f69b\n      eq\n      tag_32\n      jumpi\n      dup1\n      0xe7ab44b4\n      eq\n      tag_33\n      jumpi\n      jump(tag_1)\n    tag_40:\n      dup1\n      0x8450ebe4\n      gt\n      tag_42\n      jumpi\n      dup1\n      0x8450ebe4\n      eq\n      tag_24\n      jumpi\n      dup1\n      0x8c6ab013\n      eq\n      tag_25\n      jumpi\n      dup1\n      0x8da5cb5b\n      eq\n      tag_26\n      jumpi\n      dup1\n      0x8f32d59b\n      eq\n      tag_27\n      jumpi\n      dup1\n      0x9dc6b78d\n      eq\n      tag_28\n      jumpi\n      jump(tag_1)\n    tag_42:\n      dup1\n      0x640cf873\n      eq\n      tag_20\n      jumpi\n      dup1\n      0x70480275\n      eq\n      tag_21\n      jumpi\n      dup1\n      0x715018a6\n      eq\n      tag_22\n      jumpi\n      dup1\n      0x7ad157b9\n      eq\n      tag_23\n      jumpi\n      jump(tag_1)\n    tag_39:\n      dup1\n      0x3169b515\n      gt\n      tag_43\n      jumpi\n      dup1\n      0x47fcf018\n      gt\n      tag_44\n      jumpi\n      dup1\n      0x47fcf018\n      eq\n      tag_15\n      jumpi\n      dup1\n      0x485f952e\n      eq\n      tag_16\n      jumpi\n      dup1\n      0x488b0f7d\n      eq\n      tag_17\n      jumpi\n      dup1\n      0x4a0aafda\n      eq\n      tag_18\n      jumpi\n      dup1\n      0x5aa8680a\n      eq\n      tag_19\n      jumpi\n      jump(tag_1)\n    tag_44:\n      dup1\n      0x3169b515\n      eq\n      tag_11\n      jumpi\n      dup1\n      0x31ae450b\n      eq\n      tag_12\n      jumpi\n      dup1\n      0x3790767d\n      eq\n      tag_13\n      jumpi\n      dup1\n      0x3ccfd60b\n      eq\n      tag_14\n      jumpi\n      jump(tag_1)\n    tag_43:\n      dup1\n      0x1785f53c\n      gt\n      tag_45\n      jumpi\n      dup1\n      0x1785f53c\n      eq\n      tag_6\n      jumpi\n      dup1\n      0x179443f3\n      eq\n      tag_7\n      jumpi\n      dup1\n      0x17c48a70\n      eq\n      tag_8\n      jumpi\n      dup1\n      0x18fa0653\n      eq\n      tag_9\n      jumpi\n      dup1\n      0x1afffec0\n      eq\n      tag_10\n      jumpi\n      jump(tag_1)\n    tag_45:\n      dup1\n      0x0a1b0b91\n      eq\n      tag_2\n      jumpi\n      dup1\n      0x0c82ea1a\n      eq\n      tag_3\n      jumpi\n      dup1\n      0x14bfd6d0\n      eq\n      tag_4\n      jumpi\n      dup1\n      0x150b7a02\n      eq\n      tag_5\n      jumpi\n    tag_1:\n      stop\n        /* \"AdminManger.sol\":21626:22033  function erc20TransferFrom(... */\n    tag_2:\n      callvalue\n        /* \"--CODEGEN--\":8:17   */\n      dup1\n        /* \"--CODEGEN--\":5:7   */\n      iszero\n      tag_48\n      jumpi\n        /* \"--CODEGEN--\":30:31   */\n      0x00\n        /* \"--CODEGEN--\":27:28   */\n      dup1\n        /* \"--CODEGEN--\":20:32   */\n      revert\n        /* \"--CODEGEN--\":5:7   */\n    tag_48:\n      pop\n        /* \"AdminManger.sol\":21626:22033  function erc20TransferFrom(... */\n      tag_1\n      tag_50\n      calldatasize\n      0x04\n      jump(tag_51)\n    tag_50:\n      tag_52\n      jump\t// in\n        /* \"AdminManger.sol\":22469:22908  function erc20DecreaseAllowance(... */\n    tag_3:\n      callvalue\n        /* \"--CODEGEN--\":8:17   */\n      dup1\n        /* \"--CODEGEN--\":5:7   */\n      iszero\n      tag_53\n      jumpi\n        /* \"--CODEGEN--\":30:31   */\n      0x00\n        /* \"--CODEGEN--\":27:28   */\n      dup1\n        /* \"--CODEGEN--\":20:32   */\n      revert\n        /* \"--CODEGEN--\":5:7   */\n    tag_53:\n      pop\n        /* \"AdminManger.sol\":22469:22908  function erc20DecreaseAllowance(... */\n      tag_1\n      tag_55\n      calldatasize\n      0x04\n      jump(tag_56)\n    tag_55:\n      tag_57\n      jump\t// in\n        /* \"AdminManger.sol\":7145:7168  address[] public admins */\n    tag_4:\n      callvalue\n        /* \"--CODEGEN--\":8:17   */\n      dup1\n        /* \"--CODEGEN--\":5:7   */\n      iszero\n      tag_58\n      jumpi\n        /* \"--CODEGEN--\":30:31   */\n      0x00\n        /* \"--CODEGEN--\":27:28   */\n      dup1\n        /* \"--CODEGEN--\":20:32   */\n      revert\n        /* \"--CODEGEN--\":5:7   */\n    tag_58:\n      pop\n        /* \"AdminManger.sol\":7145:7168  address[] public admins */\n      tag_59\n      tag_60\n      calldatasize\n      0x04\n      jump(tag_61)\n    tag_60:\n      tag_62\n      jump\t// in\n    tag_59:\n      mload(0x40)\n      tag_63\n      swap2\n      swap1\n      jump(tag_64)\n    tag_63:\n      mload(0x40)\n      dup1\n      swap2\n      sub\n      swap1\n      return\n        /* \"AdminManger.sol\":3092:3275  function onERC721Received(... */\n    tag_5:\n      callvalue\n        /* \"--CODEGEN--\":8:17   */\n      dup1\n        /* \"--CODEGEN--\":5:7   */\n      iszero\n      tag_65\n      jumpi\n        /* \"--CODEGEN--\":30:31   */\n      0x00\n        /* \"--CODEGEN--\":27:28   */\n      dup1\n        /* \"--CODEGEN--\":20:32   */\n      revert\n        /* \"--CODEGEN--\":5:7   */\n    tag_65:\n      pop\n        /* \"AdminManger.sol\":3092:3275  function onERC721Received(... */\n      tag_66\n      tag_67\n      calldatasize\n      0x04\n      jump(tag_68)\n    tag_67:\n      tag_69\n      jump\t// in\n    tag_66:\n      mload(0x40)\n      tag_63\n      swap2\n      swap1\n      jump(tag_71)\n        /* \"AdminManger.sol\":11172:11507  function removeAdmin(address admin) public onlyOwner {... */\n    tag_6:\n      callvalue\n        /* \"--CODEGEN--\":8:17   */\n      dup1\n        /* \"--CODEGEN--\":5:7   */\n      iszero\n      tag_72\n      jumpi\n        /* \"--CODEGEN--\":30:31   */\n      0x00\n        /* \"--CODEGEN--\":27:28   */\n      dup1\n        /* \"--CODEGEN--\":20:32   */\n      revert\n        /* \"--CODEGEN--\":5:7   */\n    tag_72:\n      pop\n        /* \"AdminManger.sol\":11172:11507  function removeAdmin(address admin) public onlyOwner {... */\n      tag_1\n      tag_74\n      calldatasize\n      0x04\n      jump(tag_75)\n    tag_74:\n      tag_76\n      jump\t// in\n        /* \"AdminManger.sol\":17958:18308  function putSaleOff(uint256 tokenID, address _mintableToken)... */\n    tag_7:\n      callvalue\n        /* \"--CODEGEN--\":8:17   */\n      dup1\n        /* \"--CODEGEN--\":5:7   */\n      iszero\n      tag_77\n      jumpi\n        /* \"--CODEGEN--\":30:31   */\n      0x00\n        /* \"--CODEGEN--\":27:28   */\n      dup1\n        /* \"--CODEGEN--\":20:32   */\n      revert\n        /* \"--CODEGEN--\":5:7   */\n    tag_77:\n      pop\n        /* \"AdminManger.sol\":17958:18308  function putSaleOff(uint256 tokenID, address _mintableToken)... */\n      tag_1\n      tag_79\n      calldatasize\n      0x04\n      jump(tag_80)\n    tag_79:\n      tag_81\n      jump\t// in\n        /* \"AdminManger.sol\":19209:19613  function revertOffer(... */\n    tag_8:\n      tag_1\n      tag_83\n      calldatasize\n      0x04\n      jump(tag_84)\n    tag_83:\n      tag_85\n      jump\t// in\n        /* \"AdminManger.sol\":12458:12880  function erc721Approve(... */\n    tag_9:\n      callvalue\n        /* \"--CODEGEN--\":8:17   */\n      dup1\n        /* \"--CODEGEN--\":5:7   */\n      iszero\n      tag_86\n      jumpi\n        /* \"--CODEGEN--\":30:31   */\n      0x00\n        /* \"--CODEGEN--\":27:28   */\n      dup1\n        /* \"--CODEGEN--\":20:32   */\n      revert\n        /* \"--CODEGEN--\":5:7   */\n    tag_86:\n      pop\n        /* \"AdminManger.sol\":12458:12880  function erc721Approve(... */\n      tag_1\n      tag_88\n      calldatasize\n      0x04\n      jump(tag_56)\n    tag_88:\n      tag_89\n      jump\t// in\n        /* \"AdminManger.sol\":20826:21247  function erc20IncreaseApproval(... */\n    tag_10:\n      callvalue\n        /* \"--CODEGEN--\":8:17   */\n      dup1\n        /* \"--CODEGEN--\":5:7   */\n      iszero\n      tag_90\n      jumpi\n        /* \"--CODEGEN--\":30:31   */\n      0x00\n        /* \"--CODEGEN--\":27:28   */\n      dup1\n        /* \"--CODEGEN--\":20:32   */\n      revert\n        /* \"--CODEGEN--\":5:7   */\n    tag_90:\n      pop\n        /* \"AdminManger.sol\":20826:21247  function erc20IncreaseApproval(... */\n      tag_1\n      tag_92\n      calldatasize\n      0x04\n      jump(tag_56)\n    tag_92:\n      tag_93\n      jump\t// in\n        /* \"AdminManger.sol\":18314:18751  function makeAnOffer(... */\n    tag_11:\n      tag_1\n      tag_95\n      calldatasize\n      0x04\n      jump(tag_96)\n    tag_95:\n      tag_97\n      jump\t// in\n        /* \"AdminManger.sol\":10887:10977  function getAdmins() public view returns (address[] memory) {... */\n    tag_12:\n      callvalue\n        /* \"--CODEGEN--\":8:17   */\n      dup1\n        /* \"--CODEGEN--\":5:7   */\n      iszero\n      tag_98\n      jumpi\n        /* \"--CODEGEN--\":30:31   */\n      0x00\n        /* \"--CODEGEN--\":27:28   */\n      dup1\n        /* \"--CODEGEN--\":20:32   */\n      revert\n        /* \"--CODEGEN--\":5:7   */\n    tag_98:\n        /* \"AdminManger.sol\":10887:10977  function getAdmins() public view returns (address[] memory) {... */\n      pop\n      tag_99\n      tag_100\n      jump\t// in\n    tag_99:\n      mload(0x40)\n      tag_63\n      swap2\n      swap1\n      jump(tag_102)\n        /* \"AdminManger.sol\":21253:21620  function erc20Transfer(... */\n    tag_13:\n      callvalue\n        /* \"--CODEGEN--\":8:17   */\n      dup1\n        /* \"--CODEGEN--\":5:7   */\n      iszero\n      tag_103\n      jumpi\n        /* \"--CODEGEN--\":30:31   */\n      0x00\n        /* \"--CODEGEN--\":27:28   */\n      dup1\n        /* \"--CODEGEN--\":20:32   */\n      revert\n        /* \"--CODEGEN--\":5:7   */\n    tag_103:\n      pop\n        /* \"AdminManger.sol\":21253:21620  function erc20Transfer(... */\n      tag_1\n      tag_105\n      calldatasize\n      0x04\n      jump(tag_56)\n    tag_105:\n      tag_106\n      jump\t// in\n        /* \"AdminManger.sol\":22975:23071  function withdraw() public onlyOwner {... */\n    tag_14:\n      callvalue\n        /* \"--CODEGEN--\":8:17   */\n      dup1\n        /* \"--CODEGEN--\":5:7   */\n      iszero\n      tag_107\n      jumpi\n        /* \"--CODEGEN--\":30:31   */\n      0x00\n        /* \"--CODEGEN--\":27:28   */\n      dup1\n        /* \"--CODEGEN--\":20:32   */\n      revert\n        /* \"--CODEGEN--\":5:7   */\n    tag_107:\n        /* \"AdminManger.sol\":22975:23071  function withdraw() public onlyOwner {... */\n      pop\n      tag_1\n      tag_109\n      jump\t// in\n        /* \"AdminManger.sol\":11856:12392  function burnNFT(address collection, uint256 tokenId)... */\n    tag_15:\n      callvalue\n        /* \"--CODEGEN--\":8:17   */\n      dup1\n        /* \"--CODEGEN--\":5:7   */\n      iszero\n      tag_110\n      jumpi\n        /* \"--CODEGEN--\":30:31   */\n      0x00\n        /* \"--CODEGEN--\":27:28   */\n      dup1\n        /* \"--CODEGEN--\":20:32   */\n      revert\n        /* \"--CODEGEN--\":5:7   */\n    tag_110:\n      pop\n        /* \"AdminManger.sol\":11856:12392  function burnNFT(address collection, uint256 tokenId)... */\n      tag_1\n      tag_112\n      calldatasize\n      0x04\n      jump(tag_113)\n    tag_112:\n      tag_114\n      jump\t// in\n        /* \"AdminManger.sol\":13317:13699  function erc721Burn(address _ERC721Address, uint256 tokenId)... */\n    tag_16:\n      callvalue\n        /* \"--CODEGEN--\":8:17   */\n      dup1\n        /* \"--CODEGEN--\":5:7   */\n      iszero\n      tag_115\n      jumpi\n        /* \"--CODEGEN--\":30:31   */\n      0x00\n        /* \"--CODEGEN--\":27:28   */\n      dup1\n        /* \"--CODEGEN--\":20:32   */\n      revert\n        /* \"--CODEGEN--\":5:7   */\n    tag_115:\n      pop\n        /* \"AdminManger.sol\":13317:13699  function erc721Burn(address _ERC721Address, uint256 tokenId)... */\n      tag_1\n      tag_117\n      calldatasize\n      0x04\n      jump(tag_113)\n    tag_117:\n      tag_118\n      jump\t// in\n        /* \"AdminManger.sol\":14613:15120  function erc721SafeTransferFrom(... */\n    tag_17:\n      callvalue\n        /* \"--CODEGEN--\":8:17   */\n      dup1\n        /* \"--CODEGEN--\":5:7   */\n      iszero\n      tag_119\n      jumpi\n        /* \"--CODEGEN--\":30:31   */\n      0x00\n        /* \"--CODEGEN--\":27:28   */\n      dup1\n        /* \"--CODEGEN--\":20:32   */\n      revert\n        /* \"--CODEGEN--\":5:7   */\n    tag_119:\n      pop\n        /* \"AdminManger.sol\":14613:15120  function erc721SafeTransferFrom(... */\n      tag_1\n      tag_121\n      calldatasize\n      0x04\n      jump(tag_122)\n    tag_121:\n      tag_123\n      jump\t// in\n        /* \"AdminManger.sol\":14135:14607  function erc721SafeTransferFrom(... */\n    tag_18:\n      callvalue\n        /* \"--CODEGEN--\":8:17   */\n      dup1\n        /* \"--CODEGEN--\":5:7   */\n      iszero\n      tag_124\n      jumpi\n        /* \"--CODEGEN--\":30:31   */\n      0x00\n        /* \"--CODEGEN--\":27:28   */\n      dup1\n        /* \"--CODEGEN--\":20:32   */\n      revert\n        /* \"--CODEGEN--\":5:7   */\n    tag_124:\n      pop\n        /* \"AdminManger.sol\":14135:14607  function erc721SafeTransferFrom(... */\n      tag_1\n      tag_126\n      calldatasize\n      0x04\n      jump(tag_51)\n    tag_126:\n      tag_127\n      jump\t// in\n        /* \"AdminManger.sol\":18757:19203  function accpetOffer(... */\n    tag_19:\n      tag_1\n      tag_129\n      calldatasize\n      0x04\n      jump(tag_130)\n    tag_129:\n      tag_131\n      jump\t// in\n        /* \"AdminManger.sol\":16791:17511  function putOnSale(... */\n    tag_20:\n      callvalue\n        /* \"--CODEGEN--\":8:17   */\n      dup1\n        /* \"--CODEGEN--\":5:7   */\n      iszero\n      tag_132\n      jumpi\n        /* \"--CODEGEN--\":30:31   */\n      0x00\n        /* \"--CODEGEN--\":27:28   */\n      dup1\n        /* \"--CODEGEN--\":20:32   */\n      revert\n        /* \"--CODEGEN--\":5:7   */\n    tag_132:\n      pop\n        /* \"AdminManger.sol\":16791:17511  function putOnSale(... */\n      tag_1\n      tag_134\n      calldatasize\n      0x04\n      jump(tag_135)\n    tag_134:\n      tag_136\n      jump\t// in\n        /* \"AdminManger.sol\":10443:10688  function addAdmin(address admin) public onlyOwner {... */\n    tag_21:\n      callvalue\n        /* \"--CODEGEN--\":8:17   */\n      dup1\n        /* \"--CODEGEN--\":5:7   */\n      iszero\n      tag_137\n      jumpi\n        /* \"--CODEGEN--\":30:31   */\n      0x00\n        /* \"--CODEGEN--\":27:28   */\n      dup1\n        /* \"--CODEGEN--\":20:32   */\n      revert\n        /* \"--CODEGEN--\":5:7   */\n    tag_137:\n      pop\n        /* \"AdminManger.sol\":10443:10688  function addAdmin(address admin) public onlyOwner {... */\n      tag_1\n      tag_139\n      calldatasize\n      0x04\n      jump(tag_75)\n    tag_139:\n      tag_140\n      jump\t// in\n        /* \"AdminManger.sol\":2097:2234  function renounceOwnership() public onlyOwner {... */\n    tag_22:\n      callvalue\n        /* \"--CODEGEN--\":8:17   */\n      dup1\n        /* \"--CODEGEN--\":5:7   */\n      iszero\n      tag_141\n      jumpi\n        /* \"--CODEGEN--\":30:31   */\n      0x00\n        /* \"--CODEGEN--\":27:28   */\n      dup1\n        /* \"--CODEGEN--\":20:32   */\n      revert\n        /* \"--CODEGEN--\":5:7   */\n    tag_141:\n        /* \"AdminManger.sol\":2097:2234  function renounceOwnership() public onlyOwner {... */\n      pop\n      tag_1\n      tag_143\n      jump\t// in\n        /* \"AdminManger.sol\":16390:16785  function buy(uint256 tokenID, address _mintableToken, bool isNotClubare)... */\n    tag_23:\n      tag_1\n      tag_145\n      calldatasize\n      0x04\n      jump(tag_146)\n    tag_145:\n      tag_147\n      jump\t// in\n        /* \"AdminManger.sol\":15126:15586  function erc721TransferFrom(... */\n    tag_24:\n      callvalue\n        /* \"--CODEGEN--\":8:17   */\n      dup1\n        /* \"--CODEGEN--\":5:7   */\n      iszero\n      tag_148\n      jumpi\n        /* \"--CODEGEN--\":30:31   */\n      0x00\n        /* \"--CODEGEN--\":27:28   */\n      dup1\n        /* \"--CODEGEN--\":20:32   */\n      revert\n        /* \"--CODEGEN--\":5:7   */\n    tag_148:\n      pop\n        /* \"AdminManger.sol\":15126:15586  function erc721TransferFrom(... */\n      tag_1\n      tag_150\n      calldatasize\n      0x04\n      jump(tag_51)\n    tag_150:\n      tag_151\n      jump\t// in\n        /* \"AdminManger.sol\":16010:16384  function collect(uint256 tokenID, address _mintableToken, bool isNotClubare)... */\n    tag_25:\n      callvalue\n        /* \"--CODEGEN--\":8:17   */\n      dup1\n        /* \"--CODEGEN--\":5:7   */\n      iszero\n      tag_152\n      jumpi\n        /* \"--CODEGEN--\":30:31   */\n      0x00\n        /* \"--CODEGEN--\":27:28   */\n      dup1\n        /* \"--CODEGEN--\":20:32   */\n      revert\n        /* \"--CODEGEN--\":5:7   */\n    tag_152:\n      pop\n        /* \"AdminManger.sol\":16010:16384  function collect(uint256 tokenID, address _mintableToken, bool isNotClubare)... */\n      tag_1\n      tag_154\n      calldatasize\n      0x04\n      jump(tag_146)\n    tag_154:\n      tag_155\n      jump\t// in\n        /* \"AdminManger.sol\":1312:1389  function owner() public view returns (address) {... */\n    tag_26:\n      callvalue\n        /* \"--CODEGEN--\":8:17   */\n      dup1\n        /* \"--CODEGEN--\":5:7   */\n      iszero\n      tag_156\n      jumpi\n        /* \"--CODEGEN--\":30:31   */\n      0x00\n        /* \"--CODEGEN--\":27:28   */\n      dup1\n        /* \"--CODEGEN--\":20:32   */\n      revert\n        /* \"--CODEGEN--\":5:7   */\n    tag_156:\n        /* \"AdminManger.sol\":1312:1389  function owner() public view returns (address) {... */\n      pop\n      tag_59\n      tag_158\n      jump\t// in\n        /* \"AdminManger.sol\":1663:1755  function isOwner() public view returns (bool) {... */\n    tag_27:\n      callvalue\n        /* \"--CODEGEN--\":8:17   */\n      dup1\n        /* \"--CODEGEN--\":5:7   */\n      iszero\n      tag_160\n      jumpi\n        /* \"--CODEGEN--\":30:31   */\n      0x00\n        /* \"--CODEGEN--\":27:28   */\n      dup1\n        /* \"--CODEGEN--\":20:32   */\n      revert\n        /* \"--CODEGEN--\":5:7   */\n    tag_160:\n        /* \"AdminManger.sol\":1663:1755  function isOwner() public view returns (bool) {... */\n      pop\n      tag_161\n      tag_162\n      jump\t// in\n    tag_161:\n      mload(0x40)\n      tag_63\n      swap2\n      swap1\n      jump(tag_164)\n        /* \"AdminManger.sol\":22039:22463  function erc20IncreaseAllowance(... */\n    tag_28:\n      callvalue\n        /* \"--CODEGEN--\":8:17   */\n      dup1\n        /* \"--CODEGEN--\":5:7   */\n      iszero\n      tag_165\n      jumpi\n        /* \"--CODEGEN--\":30:31   */\n      0x00\n        /* \"--CODEGEN--\":27:28   */\n      dup1\n        /* \"--CODEGEN--\":20:32   */\n      revert\n        /* \"--CODEGEN--\":5:7   */\n    tag_165:\n      pop\n        /* \"AdminManger.sol\":22039:22463  function erc20IncreaseAllowance(... */\n      tag_1\n      tag_167\n      calldatasize\n      0x04\n      jump(tag_56)\n    tag_167:\n      tag_168\n      jump\t// in\n        /* \"AdminManger.sol\":19992:20371  function erc20Approve(... */\n    tag_29:\n      callvalue\n        /* \"--CODEGEN--\":8:17   */\n      dup1\n        /* \"--CODEGEN--\":5:7   */\n      iszero\n      tag_169\n      jumpi\n        /* \"--CODEGEN--\":30:31   */\n      0x00\n        /* \"--CODEGEN--\":27:28   */\n      dup1\n        /* \"--CODEGEN--\":20:32   */\n      revert\n        /* \"--CODEGEN--\":5:7   */\n    tag_169:\n      pop\n        /* \"AdminManger.sol\":19992:20371  function erc20Approve(... */\n      tag_1\n      tag_171\n      calldatasize\n      0x04\n      jump(tag_56)\n    tag_171:\n      tag_172\n      jump\t// in\n        /* \"AdminManger.sol\":12886:13311  function erc721Transfer(... */\n    tag_30:\n      callvalue\n        /* \"--CODEGEN--\":8:17   */\n      dup1\n        /* \"--CODEGEN--\":5:7   */\n      iszero\n      tag_173\n      jumpi\n        /* \"--CODEGEN--\":30:31   */\n      0x00\n        /* \"--CODEGEN--\":27:28   */\n      dup1\n        /* \"--CODEGEN--\":20:32   */\n      revert\n        /* \"--CODEGEN--\":5:7   */\n    tag_173:\n      pop\n        /* \"AdminManger.sol\":12886:13311  function erc721Transfer(... */\n      tag_1\n      tag_175\n      calldatasize\n      0x04\n      jump(tag_56)\n    tag_175:\n      tag_176\n      jump\t// in\n        /* \"AdminManger.sol\":15616:16004  function bid(... */\n    tag_31:\n      tag_1\n      tag_178\n      calldatasize\n      0x04\n      jump(tag_179)\n    tag_178:\n      tag_180\n      jump\t// in\n        /* \"AdminManger.sol\":20377:20820  function erc20DecreaseApproval(... */\n    tag_32:\n      callvalue\n        /* \"--CODEGEN--\":8:17   */\n      dup1\n        /* \"--CODEGEN--\":5:7   */\n      iszero\n      tag_181\n      jumpi\n        /* \"--CODEGEN--\":30:31   */\n      0x00\n        /* \"--CODEGEN--\":27:28   */\n      dup1\n        /* \"--CODEGEN--\":20:32   */\n      revert\n        /* \"--CODEGEN--\":5:7   */\n    tag_181:\n      pop\n        /* \"AdminManger.sol\":20377:20820  function erc20DecreaseApproval(... */\n      tag_1\n      tag_183\n      calldatasize\n      0x04\n      jump(tag_56)\n    tag_183:\n      tag_184\n      jump\t// in\n        /* \"AdminManger.sol\":19619:19965  function revertAll(uint256 tokenID, address _mintableToken)... */\n    tag_33:\n      callvalue\n        /* \"--CODEGEN--\":8:17   */\n      dup1\n        /* \"--CODEGEN--\":5:7   */\n      iszero\n      tag_185\n      jumpi\n        /* \"--CODEGEN--\":30:31   */\n      0x00\n        /* \"--CODEGEN--\":27:28   */\n      dup1\n        /* \"--CODEGEN--\":20:32   */\n      revert\n        /* \"--CODEGEN--\":5:7   */\n    tag_185:\n      pop\n        /* \"AdminManger.sol\":19619:19965  function revertAll(uint256 tokenID, address _mintableToken)... */\n      tag_1\n      tag_187\n      calldatasize\n      0x04\n      jump(tag_80)\n    tag_187:\n      tag_188\n      jump\t// in\n        /* \"AdminManger.sol\":2383:2490  function transferOwnership(address newOwner) public onlyOwner {... */\n    tag_34:\n      callvalue\n        /* \"--CODEGEN--\":8:17   */\n      dup1\n        /* \"--CODEGEN--\":5:7   */\n      iszero\n      tag_189\n      jumpi\n        /* \"--CODEGEN--\":30:31   */\n      0x00\n        /* \"--CODEGEN--\":27:28   */\n      dup1\n        /* \"--CODEGEN--\":20:32   */\n      revert\n        /* \"--CODEGEN--\":5:7   */\n    tag_189:\n      pop\n        /* \"AdminManger.sol\":2383:2490  function transferOwnership(address newOwner) public onlyOwner {... */\n      tag_1\n      tag_191\n      calldatasize\n      0x04\n      jump(tag_75)\n    tag_191:\n      tag_192\n      jump\t// in\n        /* \"AdminManger.sol\":23077:23272  function withdrawERC20(address _erc20Token) public onlyOwner {... */\n    tag_35:\n      callvalue\n        /* \"--CODEGEN--\":8:17   */\n      dup1\n        /* \"--CODEGEN--\":5:7   */\n      iszero\n      tag_193\n      jumpi\n        /* \"--CODEGEN--\":30:31   */\n      0x00\n        /* \"--CODEGEN--\":27:28   */\n      dup1\n        /* \"--CODEGEN--\":20:32   */\n      revert\n        /* \"--CODEGEN--\":5:7   */\n    tag_193:\n      pop\n        /* \"AdminManger.sol\":23077:23272  function withdrawERC20(address _erc20Token) public onlyOwner {... */\n      tag_1\n      tag_195\n      calldatasize\n      0x04\n      jump(tag_75)\n    tag_195:\n      tag_196\n      jump\t// in\n        /* \"AdminManger.sol\":9728:9968  function adminExist(address _sender) public view returns (bool) {... */\n    tag_36:\n      callvalue\n        /* \"--CODEGEN--\":8:17   */\n      dup1\n        /* \"--CODEGEN--\":5:7   */\n      iszero\n      tag_197\n      jumpi\n        /* \"--CODEGEN--\":30:31   */\n      0x00\n        /* \"--CODEGEN--\":27:28   */\n      dup1\n        /* \"--CODEGEN--\":20:32   */\n      revert\n        /* \"--CODEGEN--\":5:7   */\n    tag_197:\n      pop\n        /* \"AdminManger.sol\":9728:9968  function adminExist(address _sender) public view returns (bool) {... */\n      tag_161\n      tag_199\n      calldatasize\n      0x04\n      jump(tag_75)\n    tag_199:\n      tag_200\n      jump\t// in\n        /* \"AdminManger.sol\":13705:14129  function erc721Mint(... */\n    tag_37:\n      callvalue\n        /* \"--CODEGEN--\":8:17   */\n      dup1\n        /* \"--CODEGEN--\":5:7   */\n      iszero\n      tag_202\n      jumpi\n        /* \"--CODEGEN--\":30:31   */\n      0x00\n        /* \"--CODEGEN--\":27:28   */\n      dup1\n        /* \"--CODEGEN--\":20:32   */\n      revert\n        /* \"--CODEGEN--\":5:7   */\n    tag_202:\n      pop\n        /* \"AdminManger.sol\":13705:14129  function erc721Mint(... */\n      tag_1\n      tag_204\n      calldatasize\n      0x04\n      jump(tag_205)\n    tag_204:\n      tag_206\n      jump\t// in\n        /* \"AdminManger.sol\":17517:17952  function updatePrice(... */\n    tag_38:\n      callvalue\n        /* \"--CODEGEN--\":8:17   */\n      dup1\n        /* \"--CODEGEN--\":5:7   */\n      iszero\n      tag_207\n      jumpi\n        /* \"--CODEGEN--\":30:31   */\n      0x00\n        /* \"--CODEGEN--\":27:28   */\n      dup1\n        /* \"--CODEGEN--\":20:32   */\n      revert\n        /* \"--CODEGEN--\":5:7   */\n    tag_207:\n      pop\n        /* \"AdminManger.sol\":17517:17952  function updatePrice(... */\n      tag_1\n      tag_209\n      calldatasize\n      0x04\n      jump(tag_210)\n    tag_209:\n      tag_211\n      jump\t// in\n        /* \"AdminManger.sol\":21626:22033  function erc20TransferFrom(... */\n    tag_52:\n        /* \"AdminManger.sol\":10149:10171  adminExist(msg.sender) */\n      tag_213\n        /* \"AdminManger.sol\":10160:10170  msg.sender */\n      caller\n        /* \"AdminManger.sol\":10149:10159  adminExist */\n      tag_200\n        /* \"AdminManger.sol\":10149:10171  adminExist(msg.sender) */\n      jump\t// in\n    tag_213:\n        /* \"AdminManger.sol\":10149:10184  adminExist(msg.sender) || isOwner() */\n      dup1\n      tag_215\n      jumpi\n      pop\n        /* \"AdminManger.sol\":10175:10184  isOwner() */\n      tag_215\n        /* \"AdminManger.sol\":10175:10182  isOwner */\n      tag_162\n        /* \"AdminManger.sol\":10175:10184  isOwner() */\n      jump\t// in\n    tag_215:\n        /* \"AdminManger.sol\":10128:10245  require(... */\n      tag_216\n      jumpi\n      mload(0x40)\n      shl(0xe5, 0x461bcd)\n      dup2\n      mstore\n      0x04\n      add\n      tag_217\n      swap1\n      jump(tag_218)\n    tag_217:\n      mload(0x40)\n      dup1\n      swap2\n      sub\n      swap1\n      revert\n    tag_216:\n        /* \"AdminManger.sol\":21822:21857  erc20.transferFrom(from, to, value) */\n      mload(0x40)\n      shl(0xe0, 0x23b872dd)\n      dup2\n      mstore\n        /* \"AdminManger.sol\":21805:21811  _erc20 */\n      dup5\n      swap1\n      sub(shl(0xa0, 0x01), 0x01)\n        /* \"AdminManger.sol\":21822:21840  erc20.transferFrom */\n      dup3\n      and\n      swap1\n      0x23b872dd\n      swap1\n        /* \"AdminManger.sol\":21822:21857  erc20.transferFrom(from, to, value) */\n      tag_220\n      swap1\n        /* \"AdminManger.sol\":21841:21845  from */\n      dup8\n      swap1\n        /* \"AdminManger.sol\":21847:21849  to */\n      dup8\n      swap1\n        /* \"AdminManger.sol\":21851:21856  value */\n      dup8\n      swap1\n        /* \"AdminManger.sol\":21822:21857  erc20.transferFrom(from, to, value) */\n      0x04\n      add\n      jump(tag_221)\n    tag_220:\n      0x00\n      mload(0x40)\n      dup1\n      dup4\n      sub\n      dup2\n      0x00\n      dup8\n      dup1\n      extcodesize\n      iszero\n        /* \"--CODEGEN--\":8:17   */\n      dup1\n        /* \"--CODEGEN--\":5:7   */\n      iszero\n      tag_222\n      jumpi\n        /* \"--CODEGEN--\":30:31   */\n      0x00\n        /* \"--CODEGEN--\":27:28   */\n      dup1\n        /* \"--CODEGEN--\":20:32   */\n      revert\n        /* \"--CODEGEN--\":5:7   */\n    tag_222:\n        /* \"AdminManger.sol\":21822:21857  erc20.transferFrom(from, to, value) */\n      pop\n      gas\n      call\n      iszero\n        /* \"--CODEGEN--\":8:17   */\n      dup1\n        /* \"--CODEGEN--\":5:7   */\n      iszero\n      tag_223\n      jumpi\n        /* \"--CODEGEN--\":45:61   */\n      returndatasize\n        /* \"--CODEGEN--\":42:43   */\n      0x00\n        /* \"--CODEGEN--\":39:40   */\n      dup1\n        /* \"--CODEGEN--\":24:62   */\n      returndatacopy\n        /* \"--CODEGEN--\":77:93   */\n      returndatasize\n        /* \"--CODEGEN--\":74:75   */\n      0x00\n        /* \"--CODEGEN--\":67:94   */\n      revert\n        /* \"--CODEGEN--\":5:7   */\n    tag_223:\n      pop\n      pop\n        /* \"AdminManger.sol\":21872:22026  AdminActionPerformed(... */\n      mload(0x40)\n      tag_224\n      swap3\n      pop\n        /* \"AdminManger.sol\":21950:21981  functionNames.erc20TransferFrom */\n      0x16\n      swap2\n      pop\n        /* \"AdminManger.sol\":21872:22026  AdminActionPerformed(... */\n      jump(tag_225)\n    tag_224:\n      mload(0x40)\n      dup1\n      swap2\n      sub\n      swap1\n      keccak256\n        /* \"AdminManger.sol\":21930:21936  _erc20 */\n      dup6\n      sub(shl(0xa0, 0x01), 0x01)\n        /* \"AdminManger.sol\":21872:22026  AdminActionPerformed(... */\n      and\n        /* \"AdminManger.sol\":21906:21916  msg.sender */\n      caller\n      sub(shl(0xa0, 0x01), 0x01)\n        /* \"AdminManger.sol\":21872:22026  AdminActionPerformed(... */\n      and\n      0x00\n      dup1\n      mload\n      0x20\n      data_dd45610e757c5493225a14df8d20081e772472041729f1452d392d031cca6d9d\n      dup4\n      codecopy\n      dup2\n      mload\n      swap2\n      mstore\n        /* \"AdminManger.sol\":21995:21997  to */\n      dup7\n        /* \"AdminManger.sol\":22011:22016  value */\n      dup7\n        /* \"AdminManger.sol\":21872:22026  AdminActionPerformed(... */\n      mload(0x40)\n      tag_226\n      swap3\n      swap2\n      swap1\n      jump(tag_227)\n    tag_226:\n      mload(0x40)\n      dup1\n      swap2\n      sub\n      swap1\n      log4\n        /* \"AdminManger.sol\":10255:10256  _ */\n      pop\n        /* \"AdminManger.sol\":21626:22033  function erc20TransferFrom(... */\n      pop\n      pop\n      pop\n      pop\n      jump\t// out\n        /* \"AdminManger.sol\":22469:22908  function erc20DecreaseAllowance(... */\n    tag_57:\n        /* \"AdminManger.sol\":10149:10171  adminExist(msg.sender) */\n      tag_229\n        /* \"AdminManger.sol\":10160:10170  msg.sender */\n      caller\n        /* \"AdminManger.sol\":10149:10159  adminExist */\n      tag_200\n        /* \"AdminManger.sol\":10149:10171  adminExist(msg.sender) */\n      jump\t// in\n    tag_229:\n        /* \"AdminManger.sol\":10149:10184  adminExist(msg.sender) || isOwner() */\n      dup1\n      tag_231\n      jumpi\n      pop\n        /* \"AdminManger.sol\":10175:10184  isOwner() */\n      tag_231\n        /* \"AdminManger.sol\":10175:10182  isOwner */\n      tag_162\n        /* \"AdminManger.sol\":10175:10184  isOwner() */\n      jump\t// in\n    tag_231:\n        /* \"AdminManger.sol\":10128:10245  require(... */\n      tag_232\n      jumpi\n      mload(0x40)\n      shl(0xe5, 0x461bcd)\n      dup2\n      mstore\n      0x04\n      add\n      tag_217\n      swap1\n      jump(tag_218)\n    tag_232:\n        /* \"AdminManger.sol\":22663:22712  erc20.decreaseAllowance(spender, subtractedValue) */\n      mload(0x40)\n      shl(0xe0, 0xa457c2d7)\n      dup2\n      mstore\n        /* \"AdminManger.sol\":22646:22652  _erc20 */\n      dup4\n      swap1\n      sub(shl(0xa0, 0x01), 0x01)\n        /* \"AdminManger.sol\":22663:22686  erc20.decreaseAllowance */\n      dup3\n      and\n      swap1\n      0xa457c2d7\n      swap1\n        /* \"AdminManger.sol\":22663:22712  erc20.decreaseAllowance(spender, subtractedValue) */\n      tag_235\n      swap1\n        /* \"AdminManger.sol\":22687:22694  spender */\n      dup7\n      swap1\n        /* \"AdminManger.sol\":22696:22711  subtractedValue */\n      dup7\n      swap1\n        /* \"AdminManger.sol\":22663:22712  erc20.decreaseAllowance(spender, subtractedValue) */\n      0x04\n      add\n      jump(tag_227)\n    tag_235:\n      0x00\n      mload(0x40)\n      dup1\n      dup4\n      sub\n      dup2\n      0x00\n      dup8\n      dup1\n      extcodesize\n      iszero\n        /* \"--CODEGEN--\":8:17   */\n      dup1\n        /* \"--CODEGEN--\":5:7   */\n      iszero\n      tag_236\n      jumpi\n        /* \"--CODEGEN--\":30:31   */\n      0x00\n        /* \"--CODEGEN--\":27:28   */\n      dup1\n        /* \"--CODEGEN--\":20:32   */\n      revert\n        /* \"--CODEGEN--\":5:7   */\n    tag_236:\n        /* \"AdminManger.sol\":22663:22712  erc20.decreaseAllowance(spender, subtractedValue) */\n      pop\n      gas\n      call\n      iszero\n        /* \"--CODEGEN--\":8:17   */\n      dup1\n        /* \"--CODEGEN--\":5:7   */\n      iszero\n      tag_237\n      jumpi\n        /* \"--CODEGEN--\":45:61   */\n      returndatasize\n        /* \"--CODEGEN--\":42:43   */\n      0x00\n        /* \"--CODEGEN--\":39:40   */\n      dup1\n        /* \"--CODEGEN--\":24:62   */\n      returndatacopy\n        /* \"--CODEGEN--\":77:93   */\n      returndatasize\n        /* \"--CODEGEN--\":74:75   */\n      0x00\n        /* \"--CODEGEN--\":67:94   */\n      revert\n        /* \"--CODEGEN--\":5:7   */\n    tag_237:\n      pop\n      pop\n        /* \"AdminManger.sol\":22727:22901  AdminActionPerformed(... */\n      mload(0x40)\n      tag_238\n      swap3\n      pop\n        /* \"AdminManger.sol\":22805:22841  functionNames.erc20DecreaseAllowance */\n      0x18\n      swap2\n      pop\n        /* \"AdminManger.sol\":22727:22901  AdminActionPerformed(... */\n      jump(tag_225)\n    tag_238:\n      mload(0x40)\n      dup1\n      swap2\n      sub\n      swap1\n      keccak256\n        /* \"AdminManger.sol\":22785:22791  _erc20 */\n      dup5\n      sub(shl(0xa0, 0x01), 0x01)\n        /* \"AdminManger.sol\":22727:22901  AdminActionPerformed(... */\n      and\n        /* \"AdminManger.sol\":22761:22771  msg.sender */\n      caller\n      sub(shl(0xa0, 0x01), 0x01)\n        /* \"AdminManger.sol\":22727:22901  AdminActionPerformed(... */\n      and\n      0x00\n      dup1\n      mload\n      0x20\n      data_dd45610e757c5493225a14df8d20081e772472041729f1452d392d031cca6d9d\n      dup4\n      codecopy\n      dup2\n      mload\n      swap2\n      mstore\n        /* \"AdminManger.sol\":22855:22862  spender */\n      dup7\n        /* \"AdminManger.sol\":22876:22891  subtractedValue */\n      dup7\n        /* \"AdminManger.sol\":22727:22901  AdminActionPerformed(... */\n      mload(0x40)\n      tag_239\n      swap3\n      swap2\n      swap1\n      jump(tag_227)\n    tag_239:\n      mload(0x40)\n      dup1\n      swap2\n      sub\n      swap1\n      log4\n        /* \"AdminManger.sol\":10255:10256  _ */\n      pop\n        /* \"AdminManger.sol\":22469:22908  function erc20DecreaseAllowance(... */\n      pop\n      pop\n      pop\n      jump\t// out\n        /* \"AdminManger.sol\":7145:7168  address[] public admins */\n    tag_62:\n      0x01\n      dup2\n      dup2\n      sload\n      dup2\n      lt\n      tag_240\n      jumpi\n      invalid\n    tag_240:\n      0x00\n      swap2\n      dup3\n      mstore\n      0x20\n      swap1\n      swap2\n      keccak256\n      add\n      sload\n      sub(shl(0xa0, 0x01), 0x01)\n      and\n      swap1\n      pop\n      dup2\n      jump\t// out\n        /* \"AdminManger.sol\":3092:3275  function onERC721Received(... */\n    tag_69:\n      shl(0xe1, 0x0a85bd01)\n    tag_242:\n      swap5\n      swap4\n      pop\n      pop\n      pop\n      pop\n      jump\t// out\n        /* \"AdminManger.sol\":11172:11507  function removeAdmin(address admin) public onlyOwner {... */\n    tag_76:\n        /* \"AdminManger.sol\":1516:1525  isOwner() */\n      tag_244\n        /* \"AdminManger.sol\":1516:1523  isOwner */\n      tag_162\n        /* \"AdminManger.sol\":1516:1525  isOwner() */\n      jump\t// in\n    tag_244:\n        /* \"AdminManger.sol\":1508:1562  require(isOwner(), \"Ownable: caller is not the owner\") */\n      tag_245\n      jumpi\n      mload(0x40)\n      shl(0xe5, 0x461bcd)\n      dup2\n      mstore\n      0x04\n      add\n      tag_217\n      swap1\n      jump(tag_247)\n    tag_245:\n        /* \"AdminManger.sol\":11240:11249  uint256 i */\n      0x00\n        /* \"AdminManger.sol\":11235:11450  for (uint256 i = 0; i < admins.length; i++) {... */\n    tag_249:\n        /* \"AdminManger.sol\":11259:11265  admins */\n      0x01\n        /* \"AdminManger.sol\":11259:11272  admins.length */\n      sload\n        /* \"AdminManger.sol\":11255:11272  i < admins.length */\n      dup2\n      lt\n        /* \"AdminManger.sol\":11235:11450  for (uint256 i = 0; i < admins.length; i++) {... */\n      iszero\n      tag_250\n      jumpi\n        /* \"AdminManger.sol\":11310:11315  admin */\n      dup2\n      sub(shl(0xa0, 0x01), 0x01)\n        /* \"AdminManger.sol\":11297:11315  admins[i] == admin */\n      and\n        /* \"AdminManger.sol\":11297:11303  admins */\n      0x01\n        /* \"AdminManger.sol\":11304:11305  i */\n      dup3\n        /* \"AdminManger.sol\":11297:11306  admins[i] */\n      dup2\n      sload\n      dup2\n      lt\n      tag_252\n      jumpi\n      invalid\n    tag_252:\n      0x00\n      swap2\n      dup3\n      mstore\n      0x20\n      swap1\n      swap2\n      keccak256\n      add\n      sload\n      sub(shl(0xa0, 0x01), 0x01)\n      and\n        /* \"AdminManger.sol\":11297:11315  admins[i] == admin */\n      eq\n        /* \"AdminManger.sol\":11293:11440  if (admins[i] == admin) {... */\n      iszero\n      tag_254\n      jumpi\n        /* \"AdminManger.sol\":11363:11369  admins */\n      0x01\n        /* \"AdminManger.sol\":11370:11371  i */\n      dup2\n        /* \"AdminManger.sol\":11363:11372  admins[i] */\n      dup2\n      sload\n      dup2\n      lt\n      tag_255\n      jumpi\n      invalid\n    tag_255:\n      0x00\n      swap2\n      dup3\n      mstore\n      0x20\n      swap1\n      swap2\n      keccak256\n      add\n      sload\n      0x01\n        /* \"AdminManger.sol\":11342:11355  admins.length */\n      dup1\n      sload\n      sub(shl(0xa0, 0x01), 0x01)\n        /* \"AdminManger.sol\":11363:11372  admins[i] */\n      swap1\n      swap3\n      and\n      swap2\n      not(0x00)\n        /* \"AdminManger.sol\":11342:11359  admins.length - 1 */\n      dup2\n      add\n      swap1\n        /* \"AdminManger.sol\":11335:11360  admins[admins.length - 1] */\n      dup2\n      lt\n      tag_257\n      jumpi\n      invalid\n    tag_257:\n      swap1\n      0x00\n      mstore\n      keccak256(0x00, 0x20)\n      add\n      0x00\n        /* \"AdminManger.sol\":11335:11372  admins[admins.length - 1] = admins[i] */\n      0x0100\n      exp\n      dup2\n      sload\n      dup2\n      sub(shl(0xa0, 0x01), 0x01)\n      mul\n      not\n      and\n      swap1\n      dup4\n      sub(shl(0xa0, 0x01), 0x01)\n      and\n      mul\n      or\n      swap1\n      sstore\n      pop\n        /* \"AdminManger.sol\":11390:11396  admins */\n      0x01\n        /* \"AdminManger.sol\":11390:11402  admins.pop() */\n      dup1\n      sload\n      dup1\n      tag_259\n      jumpi\n      invalid\n    tag_259:\n      0x00\n      dup3\n      dup2\n      mstore\n      0x20\n      swap1\n      keccak256\n      dup2\n      add\n      not(0x00)\n      swap1\n      dup2\n      add\n      dup1\n      sload\n      not(sub(shl(0xa0, 0x01), 0x01))\n      and\n      swap1\n      sstore\n      add\n      swap1\n      sstore\n        /* \"AdminManger.sol\":11420:11425  break */\n      jump(tag_250)\n        /* \"AdminManger.sol\":11293:11440  if (admins[i] == admin) {... */\n    tag_254:\n        /* \"AdminManger.sol\":11274:11277  i++ */\n      0x01\n      add\n        /* \"AdminManger.sol\":11235:11450  for (uint256 i = 0; i < admins.length; i++) {... */\n      jump(tag_249)\n    tag_250:\n      pop\n        /* \"AdminManger.sol\":11464:11500  AdminRemoved(admin, block.timestamp) */\n      0xa0726c73cf6ad18ddb855ba65d1ddd4d7fd37d320f4e52f6b154c13d386f5fd9\n        /* \"AdminManger.sol\":11477:11482  admin */\n      dup2\n        /* \"AdminManger.sol\":11484:11499  block.timestamp */\n      timestamp\n        /* \"AdminManger.sol\":11464:11500  AdminRemoved(admin, block.timestamp) */\n      mload(0x40)\n      tag_261\n      swap3\n      swap2\n      swap1\n      jump(tag_227)\n    tag_261:\n      mload(0x40)\n      dup1\n      swap2\n      sub\n      swap1\n      log1\n        /* \"AdminManger.sol\":11172:11507  function removeAdmin(address admin) public onlyOwner {... */\n      pop\n      jump\t// out\n        /* \"AdminManger.sol\":17958:18308  function putSaleOff(uint256 tokenID, address _mintableToken)... */\n    tag_81:\n        /* \"AdminManger.sol\":10149:10171  adminExist(msg.sender) */\n      tag_263\n        /* \"AdminManger.sol\":10160:10170  msg.sender */\n      caller\n        /* \"AdminManger.sol\":10149:10159  adminExist */\n      tag_200\n        /* \"AdminManger.sol\":10149:10171  adminExist(msg.sender) */\n      jump\t// in\n    tag_263:\n        /* \"AdminManger.sol\":10149:10184  adminExist(msg.sender) || isOwner() */\n      dup1\n      tag_265\n      jumpi\n      pop\n        /* \"AdminManger.sol\":10175:10184  isOwner() */\n      tag_265\n        /* \"AdminManger.sol\":10175:10182  isOwner */\n      tag_162\n        /* \"AdminManger.sol\":10175:10184  isOwner() */\n      jump\t// in\n    tag_265:\n        /* \"AdminManger.sol\":10128:10245  require(... */\n      tag_266\n      jumpi\n      mload(0x40)\n      shl(0xe5, 0x461bcd)\n      dup2\n      mstore\n      0x04\n      add\n      tag_217\n      swap1\n      jump(tag_218)\n    tag_266:\n        /* \"AdminManger.sol\":18074:18080  broker */\n      sload(0x1c)\n        /* \"AdminManger.sol\":18074:18116  broker.putSaleOff(tokenID, _mintableToken) */\n      mload(0x40)\n      shl(0xe0, 0x179443f3)\n      dup2\n      mstore\n      sub(shl(0xa0, 0x01), 0x01)\n        /* \"AdminManger.sol\":18074:18080  broker */\n      swap1\n      swap2\n      and\n      swap1\n        /* \"AdminManger.sol\":18074:18091  broker.putSaleOff */\n      0x179443f3\n      swap1\n        /* \"AdminManger.sol\":18074:18116  broker.putSaleOff(tokenID, _mintableToken) */\n      tag_269\n      swap1\n        /* \"AdminManger.sol\":18092:18099  tokenID */\n      dup6\n      swap1\n        /* \"AdminManger.sol\":18101:18115  _mintableToken */\n      dup6\n      swap1\n        /* \"AdminManger.sol\":18074:18116  broker.putSaleOff(tokenID, _mintableToken) */\n      0x04\n      add\n      jump(tag_270)\n    tag_269:\n      0x00\n      mload(0x40)\n      dup1\n      dup4\n      sub\n      dup2\n      0x00\n      dup8\n      dup1\n      extcodesize\n      iszero\n        /* \"--CODEGEN--\":8:17   */\n      dup1\n        /* \"--CODEGEN--\":5:7   */\n      iszero\n      tag_271\n      jumpi\n        /* \"--CODEGEN--\":30:31   */\n      0x00\n        /* \"--CODEGEN--\":27:28   */\n      dup1\n        /* \"--CODEGEN--\":20:32   */\n      revert\n        /* \"--CODEGEN--\":5:7   */\n    tag_271:\n        /* \"AdminManger.sol\":18074:18116  broker.putSaleOff(tokenID, _mintableToken) */\n      pop\n      gas\n      call\n      iszero\n        /* \"--CODEGEN--\":8:17   */\n      dup1\n        /* \"--CODEGEN--\":5:7   */\n      iszero\n      tag_272\n      jumpi\n        /* \"--CODEGEN--\":45:61   */\n      returndatasize\n        /* \"--CODEGEN--\":42:43   */\n      0x00\n        /* \"--CODEGEN--\":39:40   */\n      dup1\n        /* \"--CODEGEN--\":24:62   */\n      returndatacopy\n        /* \"--CODEGEN--\":77:93   */\n      returndatasize\n        /* \"--CODEGEN--\":74:75   */\n      0x00\n        /* \"--CODEGEN--\":67:94   */\n      revert\n        /* \"--CODEGEN--\":5:7   */\n    tag_272:\n      pop\n      pop\n        /* \"AdminManger.sol\":18131:18301  AdminActionPerformed(... */\n      mload(0x40)\n      tag_273\n      swap3\n      pop\n        /* \"AdminManger.sol\":18218:18242  functionNames.putSaleOff */\n      0x0d\n      swap2\n      pop\n        /* \"AdminManger.sol\":18131:18301  AdminActionPerformed(... */\n      jump(tag_225)\n    tag_273:\n      mload(0x40)\n      swap1\n      dup2\n      swap1\n      sub\n      dup2\n      keccak256\n        /* \"AdminManger.sol\":18197:18203  broker */\n      sload(0x1c)\n        /* \"AdminManger.sol\":18131:18301  AdminActionPerformed(... */\n      swap1\n      swap2\n      sub(shl(0xa0, 0x01), 0x01)\n        /* \"AdminManger.sol\":18197:18203  broker */\n      swap1\n      swap2\n      and\n      swap1\n        /* \"AdminManger.sol\":18165:18175  msg.sender */\n      caller\n      swap1\n      0x00\n      dup1\n      mload\n      0x20\n      data_dd45610e757c5493225a14df8d20081e772472041729f1452d392d031cca6d9d\n      dup4\n      codecopy\n      dup2\n      mload\n      swap2\n      mstore\n        /* \"AdminManger.sol\":18131:18301  AdminActionPerformed(... */\n      swap1\n      tag_274\n      swap1\n        /* \"AdminManger.sol\":18256:18270  _mintableToken */\n      dup7\n      swap1\n        /* \"AdminManger.sol\":18284:18291  tokenID */\n      dup9\n      swap1\n        /* \"AdminManger.sol\":18131:18301  AdminActionPerformed(... */\n      jump(tag_227)\n    tag_274:\n      mload(0x40)\n      dup1\n      swap2\n      sub\n      swap1\n      log4\n        /* \"AdminManger.sol\":17958:18308  function putSaleOff(uint256 tokenID, address _mintableToken)... */\n      pop\n      pop\n      jump\t// out\n        /* \"AdminManger.sol\":19209:19613  function revertOffer(... */\n    tag_85:\n        /* \"AdminManger.sol\":10149:10171  adminExist(msg.sender) */\n      tag_276\n        /* \"AdminManger.sol\":10160:10170  msg.sender */\n      caller\n        /* \"AdminManger.sol\":10149:10159  adminExist */\n      tag_200\n        /* \"AdminManger.sol\":10149:10171  adminExist(msg.sender) */\n      jump\t// in\n    tag_276:\n        /* \"AdminManger.sol\":10149:10184  adminExist(msg.sender) || isOwner() */\n      dup1\n      tag_278\n      jumpi\n      pop\n        /* \"AdminManger.sol\":10175:10184  isOwner() */\n      tag_278\n        /* \"AdminManger.sol\":10175:10182  isOwner */\n      tag_162\n        /* \"AdminManger.sol\":10175:10184  isOwner() */\n      jump\t// in\n    tag_278:\n        /* \"AdminManger.sol\":10128:10245  require(... */\n      tag_279\n      jumpi\n      mload(0x40)\n      shl(0xe5, 0x461bcd)\n      dup2\n      mstore\n      0x04\n      add\n      tag_217\n      swap1\n      jump(tag_218)\n    tag_279:\n        /* \"AdminManger.sol\":19365:19371  broker */\n      sload(0x1c)\n        /* \"AdminManger.sol\":19365:19420  broker.revertOffer(_mintableToken,tokenID, _erc20Token) */\n      mload(0x40)\n      shl(0xe2, 0x04da9a89)\n      dup2\n      mstore\n      sub(shl(0xa0, 0x01), 0x01)\n        /* \"AdminManger.sol\":19365:19371  broker */\n      swap1\n      swap2\n      and\n      swap1\n        /* \"AdminManger.sol\":19365:19383  broker.revertOffer */\n      0x136a6a24\n      swap1\n        /* \"AdminManger.sol\":19365:19420  broker.revertOffer(_mintableToken,tokenID, _erc20Token) */\n      tag_282\n      swap1\n        /* \"AdminManger.sol\":19384:19398  _mintableToken */\n      dup6\n      swap1\n        /* \"AdminManger.sol\":19399:19406  tokenID */\n      dup8\n      swap1\n        /* \"AdminManger.sol\":19408:19419  _erc20Token */\n      dup7\n      swap1\n        /* \"AdminManger.sol\":19365:19420  broker.revertOffer(_mintableToken,tokenID, _erc20Token) */\n      0x04\n      add\n      jump(tag_283)\n    tag_282:\n      0x00\n      mload(0x40)\n      dup1\n      dup4\n      sub\n      dup2\n      0x00\n      dup8\n      dup1\n      extcodesize\n      iszero\n        /* \"--CODEGEN--\":8:17   */\n      dup1\n        /* \"--CODEGEN--\":5:7   */\n      iszero\n      tag_284\n      jumpi\n        /* \"--CODEGEN--\":30:31   */\n      0x00\n        /* \"--CODEGEN--\":27:28   */\n      dup1\n        /* \"--CODEGEN--\":20:32   */\n      revert\n        /* \"--CODEGEN--\":5:7   */\n    tag_284:\n        /* \"AdminManger.sol\":19365:19420  broker.revertOffer(_mintableToken,tokenID, _erc20Token) */\n      pop\n      gas\n      call\n      iszero\n        /* \"--CODEGEN--\":8:17   */\n      dup1\n        /* \"--CODEGEN--\":5:7   */\n      iszero\n      tag_285\n      jumpi\n        /* \"--CODEGEN--\":45:61   */\n      returndatasize\n        /* \"--CODEGEN--\":42:43   */\n      0x00\n        /* \"--CODEGEN--\":39:40   */\n      dup1\n        /* \"--CODEGEN--\":24:62   */\n      returndatacopy\n        /* \"--CODEGEN--\":77:93   */\n      returndatasize\n        /* \"--CODEGEN--\":74:75   */\n      0x00\n        /* \"--CODEGEN--\":67:94   */\n      revert\n        /* \"--CODEGEN--\":5:7   */\n    tag_285:\n      pop\n      pop\n        /* \"AdminManger.sol\":19435:19606  AdminActionPerformed(... */\n      mload(0x40)\n      tag_286\n      swap3\n      pop\n        /* \"AdminManger.sol\":19522:19547  functionNames.revertOffer */\n      0x10\n      swap2\n      pop\n        /* \"AdminManger.sol\":19435:19606  AdminActionPerformed(... */\n      jump(tag_225)\n    tag_286:\n      mload(0x40)\n      swap1\n      dup2\n      swap1\n      sub\n      dup2\n      keccak256\n        /* \"AdminManger.sol\":19501:19507  broker */\n      sload(0x1c)\n        /* \"AdminManger.sol\":19435:19606  AdminActionPerformed(... */\n      swap1\n      swap2\n      sub(shl(0xa0, 0x01), 0x01)\n        /* \"AdminManger.sol\":19501:19507  broker */\n      swap1\n      swap2\n      and\n      swap1\n        /* \"AdminManger.sol\":19469:19479  msg.sender */\n      caller\n      swap1\n      0x00\n      dup1\n      mload\n      0x20\n      data_dd45610e757c5493225a14df8d20081e772472041729f1452d392d031cca6d9d\n      dup4\n      codecopy\n      dup2\n      mload\n      swap2\n      mstore\n        /* \"AdminManger.sol\":19435:19606  AdminActionPerformed(... */\n      swap1\n      tag_287\n      swap1\n        /* \"AdminManger.sol\":19561:19575  _mintableToken */\n      dup8\n      swap1\n        /* \"AdminManger.sol\":19589:19596  tokenID */\n      dup10\n      swap1\n        /* \"AdminManger.sol\":19435:19606  AdminActionPerformed(... */\n      jump(tag_227)\n    tag_287:\n      mload(0x40)\n      dup1\n      swap2\n      sub\n      swap1\n      log4\n        /* \"AdminManger.sol\":19209:19613  function revertOffer(... */\n      pop\n      pop\n      pop\n      jump\t// out\n        /* \"AdminManger.sol\":12458:12880  function erc721Approve(... */\n    tag_89:\n        /* \"AdminManger.sol\":10149:10171  adminExist(msg.sender) */\n      tag_289\n        /* \"AdminManger.sol\":10160:10170  msg.sender */\n      caller\n        /* \"AdminManger.sol\":10149:10159  adminExist */\n      tag_200\n        /* \"AdminManger.sol\":10149:10171  adminExist(msg.sender) */\n      jump\t// in\n    tag_289:\n        /* \"AdminManger.sol\":10149:10184  adminExist(msg.sender) || isOwner() */\n      dup1\n      tag_291\n      jumpi\n      pop\n        /* \"AdminManger.sol\":10175:10184  isOwner() */\n      tag_291\n        /* \"AdminManger.sol\":10175:10182  isOwner */\n      tag_162\n        /* \"AdminManger.sol\":10175:10184  isOwner() */\n      jump\t// in\n    tag_291:\n        /* \"AdminManger.sol\":10128:10245  require(... */\n      tag_292\n      jumpi\n      mload(0x40)\n      shl(0xe5, 0x461bcd)\n      dup2\n      mstore\n      0x04\n      add\n      tag_217\n      swap1\n      jump(tag_218)\n    tag_292:\n        /* \"AdminManger.sol\":12660:12827  AdminActionPerformed(... */\n      mload(0x40)\n        /* \"AdminManger.sol\":12630:12644  _ERC721Address */\n      dup4\n      swap1\n        /* \"AdminManger.sol\":12660:12827  AdminActionPerformed(... */\n      tag_295\n      swap1\n        /* \"AdminManger.sol\":12746:12759  functionNames */\n      0x02\n      swap1\n        /* \"AdminManger.sol\":12660:12827  AdminActionPerformed(... */\n      jump(tag_225)\n    tag_295:\n      mload(0x40)\n      dup1\n      swap2\n      sub\n      swap1\n      keccak256\n        /* \"AdminManger.sol\":12718:12732  _ERC721Address */\n      dup5\n      sub(shl(0xa0, 0x01), 0x01)\n        /* \"AdminManger.sol\":12660:12827  AdminActionPerformed(... */\n      and\n        /* \"AdminManger.sol\":12694:12704  msg.sender */\n      caller\n      sub(shl(0xa0, 0x01), 0x01)\n        /* \"AdminManger.sol\":12660:12827  AdminActionPerformed(... */\n      and\n      0x00\n      dup1\n      mload\n      0x20\n      data_dd45610e757c5493225a14df8d20081e772472041729f1452d392d031cca6d9d\n      dup4\n      codecopy\n      dup2\n      mload\n      swap2\n      mstore\n        /* \"AdminManger.sol\":12781:12795  _ERC721Address */\n      dup8\n        /* \"AdminManger.sol\":12809:12817  _tokenId */\n      dup7\n        /* \"AdminManger.sol\":12660:12827  AdminActionPerformed(... */\n      mload(0x40)\n      tag_296\n      swap3\n      swap2\n      swap1\n      jump(tag_227)\n    tag_296:\n      mload(0x40)\n      dup1\n      swap2\n      sub\n      swap1\n      log4\n        /* \"AdminManger.sol\":12844:12873  erc721.approve(_to, _tokenId) */\n      mload(0x40)\n      shl(0xe0, 0x095ea7b3)\n      dup2\n      mstore\n      sub(shl(0xa0, 0x01), 0x01)\n        /* \"AdminManger.sol\":12844:12858  erc721.approve */\n      dup3\n      and\n      swap1\n      0x095ea7b3\n      swap1\n        /* \"AdminManger.sol\":12844:12873  erc721.approve(_to, _tokenId) */\n      tag_297\n      swap1\n        /* \"AdminManger.sol\":12859:12862  _to */\n      dup7\n      swap1\n        /* \"AdminManger.sol\":12864:12872  _tokenId */\n      dup7\n      swap1\n        /* \"AdminManger.sol\":12844:12873  erc721.approve(_to, _tokenId) */\n      0x04\n      add\n      jump(tag_227)\n    tag_297:\n      0x00\n      mload(0x40)\n      dup1\n      dup4\n      sub\n      dup2\n      0x00\n      dup8\n      dup1\n      extcodesize\n      iszero\n        /* \"--CODEGEN--\":8:17   */\n      dup1\n        /* \"--CODEGEN--\":5:7   */\n      iszero\n      tag_298\n      jumpi\n        /* \"--CODEGEN--\":30:31   */\n      0x00\n        /* \"--CODEGEN--\":27:28   */\n      dup1\n        /* \"--CODEGEN--\":20:32   */\n      revert\n        /* \"--CODEGEN--\":5:7   */\n    tag_298:\n        /* \"AdminManger.sol\":12844:12873  erc721.approve(_to, _tokenId) */\n      pop\n      gas\n      call\n      iszero\n        /* \"--CODEGEN--\":8:17   */\n      dup1\n        /* \"--CODEGEN--\":5:7   */\n      iszero\n      tag_299\n      jumpi\n        /* \"--CODEGEN--\":45:61   */\n      returndatasize\n        /* \"--CODEGEN--\":42:43   */\n      0x00\n        /* \"--CODEGEN--\":39:40   */\n      dup1\n        /* \"--CODEGEN--\":24:62   */\n      returndatacopy\n        /* \"--CODEGEN--\":77:93   */\n      returndatasize\n        /* \"--CODEGEN--\":74:75   */\n      0x00\n        /* \"--CODEGEN--\":67:94   */\n      revert\n        /* \"--CODEGEN--\":5:7   */\n    tag_299:\n        /* \"AdminManger.sol\":12844:12873  erc721.approve(_to, _tokenId) */\n      pop\n      pop\n      pop\n      pop\n        /* \"AdminManger.sol\":12837:12873  return erc721.approve(_to, _tokenId) */\n      pop\n        /* \"AdminManger.sol\":12458:12880  function erc721Approve(... */\n      pop\n      pop\n      pop\n      jump\t// out\n        /* \"AdminManger.sol\":20826:21247  function erc20IncreaseApproval(... */\n    tag_93:\n        /* \"AdminManger.sol\":10149:10171  adminExist(msg.sender) */\n      tag_301\n        /* \"AdminManger.sol\":10160:10170  msg.sender */\n      caller\n        /* \"AdminManger.sol\":10149:10159  adminExist */\n      tag_200\n        /* \"AdminManger.sol\":10149:10171  adminExist(msg.sender) */\n      jump\t// in\n    tag_301:\n        /* \"AdminManger.sol\":10149:10184  adminExist(msg.sender) || isOwner() */\n      dup1\n      tag_303\n      jumpi\n      pop\n        /* \"AdminManger.sol\":10175:10184  isOwner() */\n      tag_303\n        /* \"AdminManger.sol\":10175:10182  isOwner */\n      tag_162\n        /* \"AdminManger.sol\":10175:10184  isOwner() */\n      jump\t// in\n    tag_303:\n        /* \"AdminManger.sol\":10128:10245  require(... */\n      tag_304\n      jumpi\n      mload(0x40)\n      shl(0xe5, 0x461bcd)\n      dup2\n      mstore\n      0x04\n      add\n      tag_217\n      swap1\n      jump(tag_218)\n    tag_304:\n        /* \"AdminManger.sol\":21014:21057  erc20.increaseApproval(spender, addedValue) */\n      mload(0x40)\n      shl(0xe0, 0xd73dd623)\n      dup2\n      mstore\n        /* \"AdminManger.sol\":20997:21003  _erc20 */\n      dup4\n      swap1\n      sub(shl(0xa0, 0x01), 0x01)\n        /* \"AdminManger.sol\":21014:21036  erc20.increaseApproval */\n      dup3\n      and\n      swap1\n      0xd73dd623\n      swap1\n        /* \"AdminManger.sol\":21014:21057  erc20.increaseApproval(spender, addedValue) */\n      tag_307\n      swap1\n        /* \"AdminManger.sol\":21037:21044  spender */\n      dup7\n      swap1\n        /* \"AdminManger.sol\":21046:21056  addedValue */\n      dup7\n      swap1\n        /* \"AdminManger.sol\":21014:21057  erc20.increaseApproval(spender, addedValue) */\n      0x04\n      add\n      jump(tag_227)\n    tag_307:\n      0x00\n      mload(0x40)\n      dup1\n      dup4\n      sub\n      dup2\n      0x00\n      dup8\n      dup1\n      extcodesize\n      iszero\n        /* \"--CODEGEN--\":8:17   */\n      dup1\n        /* \"--CODEGEN--\":5:7   */\n      iszero\n      tag_308\n      jumpi\n        /* \"--CODEGEN--\":30:31   */\n      0x00\n        /* \"--CODEGEN--\":27:28   */\n      dup1\n        /* \"--CODEGEN--\":20:32   */\n      revert\n        /* \"--CODEGEN--\":5:7   */\n    tag_308:\n        /* \"AdminManger.sol\":21014:21057  erc20.increaseApproval(spender, addedValue) */\n      pop\n      gas\n      call\n      iszero\n        /* \"--CODEGEN--\":8:17   */\n      dup1\n        /* \"--CODEGEN--\":5:7   */\n      iszero\n      tag_309\n      jumpi\n        /* \"--CODEGEN--\":45:61   */\n      returndatasize\n        /* \"--CODEGEN--\":42:43   */\n      0x00\n        /* \"--CODEGEN--\":39:40   */\n      dup1\n        /* \"--CODEGEN--\":24:62   */\n      returndatacopy\n        /* \"--CODEGEN--\":77:93   */\n      returndatasize\n        /* \"--CODEGEN--\":74:75   */\n      0x00\n        /* \"--CODEGEN--\":67:94   */\n      revert\n        /* \"--CODEGEN--\":5:7   */\n    tag_309:\n      pop\n      pop\n        /* \"AdminManger.sol\":21072:21240  AdminActionPerformed(... */\n      mload(0x40)\n      tag_238\n      swap3\n      pop\n        /* \"AdminManger.sol\":21150:21185  functionNames.erc20IncreaseApproval */\n      0x14\n      swap2\n      pop\n        /* \"AdminManger.sol\":21072:21240  AdminActionPerformed(... */\n      jump(tag_225)\n        /* \"AdminManger.sol\":18314:18751  function makeAnOffer(... */\n    tag_97:\n        /* \"AdminManger.sol\":10149:10171  adminExist(msg.sender) */\n      tag_313\n        /* \"AdminManger.sol\":10160:10170  msg.sender */\n      caller\n        /* \"AdminManger.sol\":10149:10159  adminExist */\n      tag_200\n        /* \"AdminManger.sol\":10149:10171  adminExist(msg.sender) */\n      jump\t// in\n    tag_313:\n        /* \"AdminManger.sol\":10149:10184  adminExist(msg.sender) || isOwner() */\n      dup1\n      tag_315\n      jumpi\n      pop\n        /* \"AdminManger.sol\":10175:10184  isOwner() */\n      tag_315\n        /* \"AdminManger.sol\":10175:10182  isOwner */\n      tag_162\n        /* \"AdminManger.sol\":10175:10184  isOwner() */\n      jump\t// in\n    tag_315:\n        /* \"AdminManger.sol\":10128:10245  require(... */\n      tag_316\n      jumpi\n      mload(0x40)\n      shl(0xe5, 0x461bcd)\n      dup2\n      mstore\n      0x04\n      add\n      tag_217\n      swap1\n      jump(tag_218)\n    tag_316:\n        /* \"AdminManger.sol\":18494:18500  broker */\n      sload(0x1c)\n        /* \"AdminManger.sol\":18494:18558  broker.makeAnOffer(tokenID, _mintableToken, _erc20Token, amount) */\n      mload(0x40)\n      shl(0xe0, 0x3169b515)\n      dup2\n      mstore\n      sub(shl(0xa0, 0x01), 0x01)\n        /* \"AdminManger.sol\":18494:18500  broker */\n      swap1\n      swap2\n      and\n      swap1\n        /* \"AdminManger.sol\":18494:18512  broker.makeAnOffer */\n      0x3169b515\n      swap1\n        /* \"AdminManger.sol\":18494:18558  broker.makeAnOffer(tokenID, _mintableToken, _erc20Token, amount) */\n      tag_319\n      swap1\n        /* \"AdminManger.sol\":18513:18520  tokenID */\n      dup8\n      swap1\n        /* \"AdminManger.sol\":18522:18536  _mintableToken */\n      dup8\n      swap1\n        /* \"AdminManger.sol\":18538:18549  _erc20Token */\n      dup8\n      swap1\n        /* \"AdminManger.sol\":18551:18557  amount */\n      dup8\n      swap1\n        /* \"AdminManger.sol\":18494:18558  broker.makeAnOffer(tokenID, _mintableToken, _erc20Token, amount) */\n      0x04\n      add\n      jump(tag_320)\n    tag_319:\n      0x00\n      mload(0x40)\n      dup1\n      dup4\n      sub\n      dup2\n      0x00\n      dup8\n      dup1\n      extcodesize\n      iszero\n        /* \"--CODEGEN--\":8:17   */\n      dup1\n        /* \"--CODEGEN--\":5:7   */\n      iszero\n      tag_321\n      jumpi\n        /* \"--CODEGEN--\":30:31   */\n      0x00\n        /* \"--CODEGEN--\":27:28   */\n      dup1\n        /* \"--CODEGEN--\":20:32   */\n      revert\n        /* \"--CODEGEN--\":5:7   */\n    tag_321:\n        /* \"AdminManger.sol\":18494:18558  broker.makeAnOffer(tokenID, _mintableToken, _erc20Token, amount) */\n      pop\n      gas\n      call\n      iszero\n        /* \"--CODEGEN--\":8:17   */\n      dup1\n        /* \"--CODEGEN--\":5:7   */\n      iszero\n      tag_322\n      jumpi\n        /* \"--CODEGEN--\":45:61   */\n      returndatasize\n        /* \"--CODEGEN--\":42:43   */\n      0x00\n        /* \"--CODEGEN--\":39:40   */\n      dup1\n        /* \"--CODEGEN--\":24:62   */\n      returndatacopy\n        /* \"--CODEGEN--\":77:93   */\n      returndatasize\n        /* \"--CODEGEN--\":74:75   */\n      0x00\n        /* \"--CODEGEN--\":67:94   */\n      revert\n        /* \"--CODEGEN--\":5:7   */\n    tag_322:\n      pop\n      pop\n        /* \"AdminManger.sol\":18573:18744  AdminActionPerformed(... */\n      mload(0x40)\n      tag_323\n      swap3\n      pop\n        /* \"AdminManger.sol\":18660:18685  functionNames.makeAnOffer */\n      0x0e\n      swap2\n      pop\n        /* \"AdminManger.sol\":18573:18744  AdminActionPerformed(... */\n      jump(tag_225)\n    tag_323:\n      mload(0x40)\n      swap1\n      dup2\n      swap1\n      sub\n      dup2\n      keccak256\n        /* \"AdminManger.sol\":18639:18645  broker */\n      sload(0x1c)\n        /* \"AdminManger.sol\":18573:18744  AdminActionPerformed(... */\n      swap1\n      swap2\n      sub(shl(0xa0, 0x01), 0x01)\n        /* \"AdminManger.sol\":18639:18645  broker */\n      swap1\n      swap2\n      and\n      swap1\n        /* \"AdminManger.sol\":18607:18617  msg.sender */\n      caller\n      swap1\n      0x00\n      dup1\n      mload\n      0x20\n      data_dd45610e757c5493225a14df8d20081e772472041729f1452d392d031cca6d9d\n      dup4\n      codecopy\n      dup2\n      mload\n      swap2\n      mstore\n        /* \"AdminManger.sol\":18573:18744  AdminActionPerformed(... */\n      swap1\n      tag_239\n      swap1\n        /* \"AdminManger.sol\":18699:18713  _mintableToken */\n      dup9\n      swap1\n        /* \"AdminManger.sol\":18727:18734  tokenID */\n      dup11\n      swap1\n        /* \"AdminManger.sol\":18573:18744  AdminActionPerformed(... */\n      jump(tag_227)\n        /* \"AdminManger.sol\":10887:10977  function getAdmins() public view returns (address[] memory) {... */\n    tag_100:\n        /* \"AdminManger.sol\":10929:10945  address[] memory */\n      0x60\n        /* \"AdminManger.sol\":10964:10970  admins */\n      0x01\n        /* \"AdminManger.sol\":10957:10970  return admins */\n      dup1\n      sload\n      dup1\n      0x20\n      mul\n      0x20\n      add\n      mload(0x40)\n      swap1\n      dup2\n      add\n      0x40\n      mstore\n      dup1\n      swap3\n      swap2\n      swap1\n      dup2\n      dup2\n      mstore\n      0x20\n      add\n      dup3\n      dup1\n      sload\n      dup1\n      iszero\n      tag_326\n      jumpi\n      0x20\n      mul\n      dup3\n      add\n      swap2\n      swap1\n      0x00\n      mstore\n      keccak256(0x00, 0x20)\n      swap1\n    tag_327:\n      dup2\n      sload\n      sub(shl(0xa0, 0x01), 0x01)\n      and\n      dup2\n      mstore\n      0x01\n      swap1\n      swap2\n      add\n      swap1\n      0x20\n      add\n      dup1\n      dup4\n      gt\n      tag_327\n      jumpi\n    tag_326:\n      pop\n      pop\n      pop\n      pop\n      pop\n      swap1\n      pop\n        /* \"AdminManger.sol\":10887:10977  function getAdmins() public view returns (address[] memory) {... */\n      swap1\n      jump\t// out\n        /* \"AdminManger.sol\":21253:21620  function erc20Transfer(... */\n    tag_106:\n        /* \"AdminManger.sol\":10149:10171  adminExist(msg.sender) */\n      tag_329\n        /* \"AdminManger.sol\":10160:10170  msg.sender */\n      caller\n        /* \"AdminManger.sol\":10149:10159  adminExist */\n      tag_200\n        /* \"AdminManger.sol\":10149:10171  adminExist(msg.sender) */\n      jump\t// in\n    tag_329:\n        /* \"AdminManger.sol\":10149:10184  adminExist(msg.sender) || isOwner() */\n      dup1\n      tag_331\n      jumpi\n      pop\n        /* \"AdminManger.sol\":10175:10184  isOwner() */\n      tag_331\n        /* \"AdminManger.sol\":10175:10182  isOwner */\n      tag_162\n        /* \"AdminManger.sol\":10175:10184  isOwner() */\n      jump\t// in\n    tag_331:\n        /* \"AdminManger.sol\":10128:10245  require(... */\n      tag_332\n      jumpi\n      mload(0x40)\n      shl(0xe5, 0x461bcd)\n      dup2\n      mstore\n      0x04\n      add\n      tag_217\n      swap1\n      jump(tag_218)\n    tag_332:\n        /* \"AdminManger.sol\":21423:21448  erc20.transfer(to, value) */\n      mload(0x40)\n      shl(0xe0, 0xa9059cbb)\n      dup2\n      mstore\n        /* \"AdminManger.sol\":21406:21412  _erc20 */\n      dup4\n      swap1\n      sub(shl(0xa0, 0x01), 0x01)\n        /* \"AdminManger.sol\":21423:21437  erc20.transfer */\n      dup3\n      and\n      swap1\n      0xa9059cbb\n      swap1\n        /* \"AdminManger.sol\":21423:21448  erc20.transfer(to, value) */\n      tag_335\n      swap1\n        /* \"AdminManger.sol\":21438:21440  to */\n      dup7\n      swap1\n        /* \"AdminManger.sol\":21442:21447  value */\n      dup7\n      swap1\n        /* \"AdminManger.sol\":21423:21448  erc20.transfer(to, value) */\n      0x04\n      add\n      jump(tag_227)\n    tag_335:\n      0x00\n      mload(0x40)\n      dup1\n      dup4\n      sub\n      dup2\n      0x00\n      dup8\n      dup1\n      extcodesize\n      iszero\n        /* \"--CODEGEN--\":8:17   */\n      dup1\n        /* \"--CODEGEN--\":5:7   */\n      iszero\n      tag_336\n      jumpi\n        /* \"--CODEGEN--\":30:31   */\n      0x00\n        /* \"--CODEGEN--\":27:28   */\n      dup1\n        /* \"--CODEGEN--\":20:32   */\n      revert\n        /* \"--CODEGEN--\":5:7   */\n    tag_336:\n        /* \"AdminManger.sol\":21423:21448  erc20.transfer(to, value) */\n      pop\n      gas\n      call\n      iszero\n        /* \"--CODEGEN--\":8:17   */\n      dup1\n        /* \"--CODEGEN--\":5:7   */\n      iszero\n      tag_337\n      jumpi\n        /* \"--CODEGEN--\":45:61   */\n      returndatasize\n        /* \"--CODEGEN--\":42:43   */\n      0x00\n        /* \"--CODEGEN--\":39:40   */\n      dup1\n        /* \"--CODEGEN--\":24:62   */\n      returndatacopy\n        /* \"--CODEGEN--\":77:93   */\n      returndatasize\n        /* \"--CODEGEN--\":74:75   */\n      0x00\n        /* \"--CODEGEN--\":67:94   */\n      revert\n        /* \"--CODEGEN--\":5:7   */\n    tag_337:\n      pop\n      pop\n        /* \"AdminManger.sol\":21463:21613  AdminActionPerformed(... */\n      mload(0x40)\n      tag_238\n      swap3\n      pop\n        /* \"AdminManger.sol\":21541:21568  functionNames.erc20Transfer */\n      0x15\n      swap2\n      pop\n        /* \"AdminManger.sol\":21463:21613  AdminActionPerformed(... */\n      jump(tag_225)\n        /* \"AdminManger.sol\":22975:23071  function withdraw() public onlyOwner {... */\n    tag_109:\n        /* \"AdminManger.sol\":1516:1525  isOwner() */\n      tag_341\n        /* \"AdminManger.sol\":1516:1523  isOwner */\n      tag_162\n        /* \"AdminManger.sol\":1516:1525  isOwner() */\n      jump\t// in\n    tag_341:\n        /* \"AdminManger.sol\":1508:1562  require(isOwner(), \"Ownable: caller is not the owner\") */\n      tag_342\n      jumpi\n      mload(0x40)\n      shl(0xe5, 0x461bcd)\n      dup2\n      mstore\n      0x04\n      add\n      tag_217\n      swap1\n      jump(tag_247)\n    tag_342:\n        /* \"AdminManger.sol\":23022:23064  msg.sender.transfer(address(this).balance) */\n      mload(0x40)\n        /* \"AdminManger.sol\":23022:23032  msg.sender */\n      caller\n      swap1\n        /* \"AdminManger.sol\":23042:23063  address(this).balance */\n      selfbalance\n        /* \"AdminManger.sol\":23022:23064  msg.sender.transfer(address(this).balance) */\n      dup1\n      iszero\n      0x08fc\n      mul\n      swap2\n      0x00\n      dup2\n      dup2\n      dup2\n        /* \"AdminManger.sol\":23042:23063  address(this).balance */\n      dup6\n        /* \"AdminManger.sol\":23022:23032  msg.sender */\n      dup9\n        /* \"AdminManger.sol\":23022:23064  msg.sender.transfer(address(this).balance) */\n      dup9\n      call\n      swap4\n      pop\n      pop\n      pop\n      pop\n      iszero\n        /* \"--CODEGEN--\":8:17   */\n      dup1\n        /* \"--CODEGEN--\":5:7   */\n      iszero\n      tag_345\n      jumpi\n        /* \"--CODEGEN--\":45:61   */\n      returndatasize\n        /* \"--CODEGEN--\":42:43   */\n      0x00\n        /* \"--CODEGEN--\":39:40   */\n      dup1\n        /* \"--CODEGEN--\":24:62   */\n      returndatacopy\n        /* \"--CODEGEN--\":77:93   */\n      returndatasize\n        /* \"--CODEGEN--\":74:75   */\n      0x00\n        /* \"--CODEGEN--\":67:94   */\n      revert\n        /* \"--CODEGEN--\":5:7   */\n    tag_345:\n        /* \"AdminManger.sol\":23022:23064  msg.sender.transfer(address(this).balance) */\n      pop\n        /* \"AdminManger.sol\":22975:23071  function withdraw() public onlyOwner {... */\n      jump\t// out\n        /* \"AdminManger.sol\":11856:12392  function burnNFT(address collection, uint256 tokenId)... */\n    tag_114:\n        /* \"AdminManger.sol\":10149:10171  adminExist(msg.sender) */\n      tag_347\n        /* \"AdminManger.sol\":10160:10170  msg.sender */\n      caller\n        /* \"AdminManger.sol\":10149:10159  adminExist */\n      tag_200\n        /* \"AdminManger.sol\":10149:10171  adminExist(msg.sender) */\n      jump\t// in\n    tag_347:\n        /* \"AdminManger.sol\":10149:10184  adminExist(msg.sender) || isOwner() */\n      dup1\n      tag_349\n      jumpi\n      pop\n        /* \"AdminManger.sol\":10175:10184  isOwner() */\n      tag_349\n        /* \"AdminManger.sol\":10175:10182  isOwner */\n      tag_162\n        /* \"AdminManger.sol\":10175:10184  isOwner() */\n      jump\t// in\n    tag_349:\n        /* \"AdminManger.sol\":10128:10245  require(... */\n      tag_350\n      jumpi\n      mload(0x40)\n      shl(0xe5, 0x461bcd)\n      dup2\n      mstore\n      0x04\n      add\n      tag_217\n      swap1\n      jump(tag_218)\n    tag_350:\n        /* \"AdminManger.sol\":12043:12069  NFTToken.tokenURI(tokenId) */\n      mload(0x40)\n      shl(0xe0, 0xc87b56dd)\n      dup2\n      mstore\n        /* \"AdminManger.sol\":11996:12006  collection */\n      dup3\n      swap1\n        /* \"AdminManger.sol\":12018:12040  string memory tokenURI */\n      0x60\n      swap1\n      sub(shl(0xa0, 0x01), 0x01)\n        /* \"AdminManger.sol\":12043:12060  NFTToken.tokenURI */\n      dup4\n      and\n      swap1\n      0xc87b56dd\n      swap1\n        /* \"AdminManger.sol\":12043:12069  NFTToken.tokenURI(tokenId) */\n      tag_353\n      swap1\n        /* \"AdminManger.sol\":12061:12068  tokenId */\n      dup7\n      swap1\n        /* \"AdminManger.sol\":12043:12069  NFTToken.tokenURI(tokenId) */\n      0x04\n      add\n      jump(tag_354)\n    tag_353:\n      0x00\n      mload(0x40)\n      dup1\n      dup4\n      sub\n      dup2\n      0x00\n      dup8\n      dup1\n      extcodesize\n      iszero\n        /* \"--CODEGEN--\":8:17   */\n      dup1\n        /* \"--CODEGEN--\":5:7   */\n      iszero\n      tag_355\n      jumpi\n        /* \"--CODEGEN--\":30:31   */\n      0x00\n        /* \"--CODEGEN--\":27:28   */\n      dup1\n        /* \"--CODEGEN--\":20:32   */\n      revert\n        /* \"--CODEGEN--\":5:7   */\n    tag_355:\n        /* \"AdminManger.sol\":12043:12069  NFTToken.tokenURI(tokenId) */\n      pop\n      gas\n      call\n      iszero\n        /* \"--CODEGEN--\":8:17   */\n      dup1\n        /* \"--CODEGEN--\":5:7   */\n      iszero\n      tag_356\n      jumpi\n        /* \"--CODEGEN--\":45:61   */\n      returndatasize\n        /* \"--CODEGEN--\":42:43   */\n      0x00\n        /* \"--CODEGEN--\":39:40   */\n      dup1\n        /* \"--CODEGEN--\":24:62   */\n      returndatacopy\n        /* \"--CODEGEN--\":77:93   */\n      returndatasize\n        /* \"--CODEGEN--\":74:75   */\n      0x00\n        /* \"--CODEGEN--\":67:94   */\n      revert\n        /* \"--CODEGEN--\":5:7   */\n    tag_356:\n        /* \"AdminManger.sol\":12043:12069  NFTToken.tokenURI(tokenId) */\n      pop\n      pop\n      pop\n      pop\n      mload(0x40)\n        /* \"--CODEGEN--\":39:55   */\n      returndatasize\n        /* \"--CODEGEN--\":36:37   */\n      0x00\n        /* \"--CODEGEN--\":17:34   */\n      dup3\n        /* \"--CODEGEN--\":2:56   */\n      returndatacopy\n        /* \"--CODEGEN--\":101:105   */\n      0x1f\n        /* \"AdminManger.sol\":12043:12069  NFTToken.tokenURI(tokenId) */\n      returndatasize\n        /* \"--CODEGEN--\":80:95   */\n      swap1\n      dup2\n      add\n      not(0x1f)\n        /* \"--CODEGEN--\":76:107   */\n      and\n        /* \"--CODEGEN--\":65:108   */\n      dup3\n      add\n        /* \"--CODEGEN--\":120:124   */\n      0x40\n        /* \"--CODEGEN--\":113:133   */\n      mstore\n        /* \"AdminManger.sol\":12043:12069  NFTToken.tokenURI(tokenId) */\n      tag_357\n      swap2\n      swap1\n      dup2\n      add\n      swap1\n      jump(tag_358)\n    tag_357:\n        /* \"AdminManger.sol\":12100:12129  NFTToken.getApproved(tokenId) */\n      mload(0x40)\n      shl(0xe2, 0x020604bf)\n      dup2\n      mstore\n        /* \"AdminManger.sol\":12018:12069  string memory tokenURI = NFTToken.tokenURI(tokenId) */\n      swap1\n      swap2\n      pop\n        /* \"AdminManger.sol\":12141:12145  this */\n      address\n      swap1\n      sub(shl(0xa0, 0x01), 0x01)\n        /* \"AdminManger.sol\":12100:12120  NFTToken.getApproved */\n      dup5\n      and\n      swap1\n      0x081812fc\n      swap1\n        /* \"AdminManger.sol\":12100:12129  NFTToken.getApproved(tokenId) */\n      tag_359\n      swap1\n        /* \"AdminManger.sol\":12121:12128  tokenId */\n      dup8\n      swap1\n        /* \"AdminManger.sol\":12100:12129  NFTToken.getApproved(tokenId) */\n      0x04\n      add\n      jump(tag_354)\n    tag_359:\n      0x20\n      mload(0x40)\n      dup1\n      dup4\n      sub\n      dup2\n      0x00\n      dup8\n      dup1\n      extcodesize\n      iszero\n        /* \"--CODEGEN--\":8:17   */\n      dup1\n        /* \"--CODEGEN--\":5:7   */\n      iszero\n      tag_360\n      jumpi\n        /* \"--CODEGEN--\":30:31   */\n      0x00\n        /* \"--CODEGEN--\":27:28   */\n      dup1\n        /* \"--CODEGEN--\":20:32   */\n      revert\n        /* \"--CODEGEN--\":5:7   */\n    tag_360:\n        /* \"AdminManger.sol\":12100:12129  NFTToken.getApproved(tokenId) */\n      pop\n      gas\n      call\n      iszero\n        /* \"--CODEGEN--\":8:17   */\n      dup1\n        /* \"--CODEGEN--\":5:7   */\n      iszero\n      tag_361\n      jumpi\n        /* \"--CODEGEN--\":45:61   */\n      returndatasize\n        /* \"--CODEGEN--\":42:43   */\n      0x00\n        /* \"--CODEGEN--\":39:40   */\n      dup1\n        /* \"--CODEGEN--\":24:62   */\n      returndatacopy\n        /* \"--CODEGEN--\":77:93   */\n      returndatasize\n        /* \"--CODEGEN--\":74:75   */\n      0x00\n        /* \"--CODEGEN--\":67:94   */\n      revert\n        /* \"--CODEGEN--\":5:7   */\n    tag_361:\n        /* \"AdminManger.sol\":12100:12129  NFTToken.getApproved(tokenId) */\n      pop\n      pop\n      pop\n      pop\n      mload(0x40)\n      returndatasize\n        /* \"--CODEGEN--\":101:105   */\n      0x1f\n        /* \"--CODEGEN--\":97:106   */\n      not\n        /* \"--CODEGEN--\":90:94   */\n      0x1f\n        /* \"--CODEGEN--\":84:88   */\n      dup3\n        /* \"--CODEGEN--\":80:95   */\n      add\n        /* \"--CODEGEN--\":76:107   */\n      and\n        /* \"--CODEGEN--\":69:74   */\n      dup3\n        /* \"--CODEGEN--\":65:108   */\n      add\n        /* \"--CODEGEN--\":126:132   */\n      dup1\n        /* \"--CODEGEN--\":120:124   */\n      0x40\n        /* \"--CODEGEN--\":113:133   */\n      mstore\n        /* \"--CODEGEN--\":0:138   */\n      pop\n        /* \"AdminManger.sol\":12100:12129  NFTToken.getApproved(tokenId) */\n      tag_362\n      swap2\n      swap1\n      dup2\n      add\n      swap1\n      jump(tag_363)\n    tag_362:\n      sub(shl(0xa0, 0x01), 0x01)\n        /* \"AdminManger.sol\":12100:12146  NFTToken.getApproved(tokenId) == address(this) */\n      and\n      eq\n        /* \"AdminManger.sol\":12079:12199  require(... */\n      tag_364\n      jumpi\n      mload(0x40)\n      shl(0xe5, 0x461bcd)\n      dup2\n      mstore\n      0x04\n      add\n      tag_217\n      swap1\n      jump(tag_366)\n    tag_364:\n        /* \"AdminManger.sol\":12209:12231  NFTToken.burn(tokenId) */\n      mload(0x40)\n      shl(0xe3, 0x0852cd8d)\n      dup2\n      mstore\n      sub(shl(0xa0, 0x01), 0x01)\n        /* \"AdminManger.sol\":12209:12222  NFTToken.burn */\n      dup4\n      and\n      swap1\n      0x42966c68\n      swap1\n        /* \"AdminManger.sol\":12209:12231  NFTToken.burn(tokenId) */\n      tag_367\n      swap1\n        /* \"AdminManger.sol\":12223:12230  tokenId */\n      dup7\n      swap1\n        /* \"AdminManger.sol\":12209:12231  NFTToken.burn(tokenId) */\n      0x04\n      add\n      jump(tag_354)\n    tag_367:\n      0x00\n      mload(0x40)\n      dup1\n      dup4\n      sub\n      dup2\n      0x00\n      dup8\n      dup1\n      extcodesize\n      iszero\n        /* \"--CODEGEN--\":8:17   */\n      dup1\n        /* \"--CODEGEN--\":5:7   */\n      iszero\n      tag_368\n      jumpi\n        /* \"--CODEGEN--\":30:31   */\n      0x00\n        /* \"--CODEGEN--\":27:28   */\n      dup1\n        /* \"--CODEGEN--\":20:32   */\n      revert\n        /* \"--CODEGEN--\":5:7   */\n    tag_368:\n        /* \"AdminManger.sol\":12209:12231  NFTToken.burn(tokenId) */\n      pop\n      gas\n      call\n      iszero\n        /* \"--CODEGEN--\":8:17   */\n      dup1\n        /* \"--CODEGEN--\":5:7   */\n      iszero\n      tag_369\n      jumpi\n        /* \"--CODEGEN--\":45:61   */\n      returndatasize\n        /* \"--CODEGEN--\":42:43   */\n      0x00\n        /* \"--CODEGEN--\":39:40   */\n      dup1\n        /* \"--CODEGEN--\":24:62   */\n      returndatacopy\n        /* \"--CODEGEN--\":77:93   */\n      returndatasize\n        /* \"--CODEGEN--\":74:75   */\n      0x00\n        /* \"--CODEGEN--\":67:94   */\n      revert\n        /* \"--CODEGEN--\":5:7   */\n    tag_369:\n        /* \"AdminManger.sol\":12209:12231  NFTToken.burn(tokenId) */\n      pop\n      pop\n      pop\n      pop\n        /* \"AdminManger.sol\":12314:12324  msg.sender */\n      caller\n      sub(shl(0xa0, 0x01), 0x01)\n        /* \"AdminManger.sol\":12246:12385  NFTBurned(... */\n      and\n        /* \"AdminManger.sol\":12293:12300  tokenId */\n      dup4\n        /* \"AdminManger.sol\":12269:12279  collection */\n      dup6\n      sub(shl(0xa0, 0x01), 0x01)\n        /* \"AdminManger.sol\":12246:12385  NFTBurned(... */\n      and\n      0x926b248e45dfdd4c4caec216e73ec503ce2522d3b5646c861d1b074210675d0e\n        /* \"AdminManger.sol\":12338:12353  block.timestamp */\n      timestamp\n        /* \"AdminManger.sol\":12367:12375  tokenURI */\n      dup6\n        /* \"AdminManger.sol\":12246:12385  NFTBurned(... */\n      mload(0x40)\n      tag_239\n      swap3\n      swap2\n      swap1\n      jump(tag_371)\n        /* \"AdminManger.sol\":13317:13699  function erc721Burn(address _ERC721Address, uint256 tokenId)... */\n    tag_118:\n        /* \"AdminManger.sol\":10149:10171  adminExist(msg.sender) */\n      tag_373\n        /* \"AdminManger.sol\":10160:10170  msg.sender */\n      caller\n        /* \"AdminManger.sol\":10149:10159  adminExist */\n      tag_200\n        /* \"AdminManger.sol\":10149:10171  adminExist(msg.sender) */\n      jump\t// in\n    tag_373:\n        /* \"AdminManger.sol\":10149:10184  adminExist(msg.sender) || isOwner() */\n      dup1\n      tag_375\n      jumpi\n      pop\n        /* \"AdminManger.sol\":10175:10184  isOwner() */\n      tag_375\n        /* \"AdminManger.sol\":10175:10182  isOwner */\n      tag_162\n        /* \"AdminManger.sol\":10175:10184  isOwner() */\n      jump\t// in\n    tag_375:\n        /* \"AdminManger.sol\":10128:10245  require(... */\n      tag_376\n      jumpi\n      mload(0x40)\n      shl(0xe5, 0x461bcd)\n      dup2\n      mstore\n      0x04\n      add\n      tag_217\n      swap1\n      jump(tag_218)\n    tag_376:\n        /* \"AdminManger.sol\":13492:13655  AdminActionPerformed(... */\n      mload(0x40)\n        /* \"AdminManger.sol\":13462:13476  _ERC721Address */\n      dup3\n      swap1\n        /* \"AdminManger.sol\":13492:13655  AdminActionPerformed(... */\n      tag_379\n      swap1\n        /* \"AdminManger.sol\":13578:13596  functionNames.burn */\n      0x04\n      swap1\n        /* \"AdminManger.sol\":13492:13655  AdminActionPerformed(... */\n      jump(tag_225)\n    tag_379:\n      mload(0x40)\n      dup1\n      swap2\n      sub\n      swap1\n      keccak256\n        /* \"AdminManger.sol\":13550:13564  _ERC721Address */\n      dup4\n      sub(shl(0xa0, 0x01), 0x01)\n        /* \"AdminManger.sol\":13492:13655  AdminActionPerformed(... */\n      and\n        /* \"AdminManger.sol\":13526:13536  msg.sender */\n      caller\n      sub(shl(0xa0, 0x01), 0x01)\n        /* \"AdminManger.sol\":13492:13655  AdminActionPerformed(... */\n      and\n      0x00\n      dup1\n      mload\n      0x20\n      data_dd45610e757c5493225a14df8d20081e772472041729f1452d392d031cca6d9d\n      dup4\n      codecopy\n      dup2\n      mload\n      swap2\n      mstore\n        /* \"AdminManger.sol\":13610:13624  _ERC721Address */\n      dup7\n        /* \"AdminManger.sol\":13638:13645  tokenId */\n      dup7\n        /* \"AdminManger.sol\":13492:13655  AdminActionPerformed(... */\n      mload(0x40)\n      tag_380\n      swap3\n      swap2\n      swap1\n      jump(tag_227)\n    tag_380:\n      mload(0x40)\n      dup1\n      swap2\n      sub\n      swap1\n      log4\n        /* \"AdminManger.sol\":13672:13692  erc721.burn(tokenId) */\n      mload(0x40)\n      shl(0xe3, 0x0852cd8d)\n      dup2\n      mstore\n      sub(shl(0xa0, 0x01), 0x01)\n        /* \"AdminManger.sol\":13672:13683  erc721.burn */\n      dup3\n      and\n      swap1\n      0x42966c68\n      swap1\n        /* \"AdminManger.sol\":13672:13692  erc721.burn(tokenId) */\n      tag_381\n      swap1\n        /* \"AdminManger.sol\":13684:13691  tokenId */\n      dup6\n      swap1\n        /* \"AdminManger.sol\":13672:13692  erc721.burn(tokenId) */\n      0x04\n      add\n      jump(tag_354)\n    tag_381:\n      0x00\n      mload(0x40)\n      dup1\n      dup4\n      sub\n      dup2\n      0x00\n      dup8\n      dup1\n      extcodesize\n      iszero\n        /* \"--CODEGEN--\":8:17   */\n      dup1\n        /* \"--CODEGEN--\":5:7   */\n      iszero\n      tag_382\n      jumpi\n        /* \"--CODEGEN--\":30:31   */\n      0x00\n        /* \"--CODEGEN--\":27:28   */\n      dup1\n        /* \"--CODEGEN--\":20:32   */\n      revert\n        /* \"--CODEGEN--\":5:7   */\n    tag_382:\n        /* \"AdminManger.sol\":13672:13692  erc721.burn(tokenId) */\n      pop\n      gas\n      call\n      iszero\n        /* \"--CODEGEN--\":8:17   */\n      dup1\n        /* \"--CODEGEN--\":5:7   */\n      iszero\n      tag_383\n      jumpi\n        /* \"--CODEGEN--\":45:61   */\n      returndatasize\n        /* \"--CODEGEN--\":42:43   */\n      0x00\n        /* \"--CODEGEN--\":39:40   */\n      dup1\n        /* \"--CODEGEN--\":24:62   */\n      returndatacopy\n        /* \"--CODEGEN--\":77:93   */\n      returndatasize\n        /* \"--CODEGEN--\":74:75   */\n      0x00\n        /* \"--CODEGEN--\":67:94   */\n      revert\n        /* \"--CODEGEN--\":5:7   */\n    tag_383:\n        /* \"AdminManger.sol\":13672:13692  erc721.burn(tokenId) */\n      pop\n      pop\n      pop\n      pop\n        /* \"AdminManger.sol\":13665:13692  return erc721.burn(tokenId) */\n      pop\n        /* \"AdminManger.sol\":13317:13699  function erc721Burn(address _ERC721Address, uint256 tokenId)... */\n      pop\n      pop\n      jump\t// out\n        /* \"AdminManger.sol\":14613:15120  function erc721SafeTransferFrom(... */\n    tag_123:\n        /* \"AdminManger.sol\":10149:10171  adminExist(msg.sender) */\n      tag_385\n        /* \"AdminManger.sol\":10160:10170  msg.sender */\n      caller\n        /* \"AdminManger.sol\":10149:10159  adminExist */\n      tag_200\n        /* \"AdminManger.sol\":10149:10171  adminExist(msg.sender) */\n      jump\t// in\n    tag_385:\n        /* \"AdminManger.sol\":10149:10184  adminExist(msg.sender) || isOwner() */\n      dup1\n      tag_387\n      jumpi\n      pop\n        /* \"AdminManger.sol\":10175:10184  isOwner() */\n      tag_387\n        /* \"AdminManger.sol\":10175:10182  isOwner */\n      tag_162\n        /* \"AdminManger.sol\":10175:10184  isOwner() */\n      jump\t// in\n    tag_387:\n        /* \"AdminManger.sol\":10128:10245  require(... */\n      tag_388\n      jumpi\n      mload(0x40)\n      shl(0xe5, 0x461bcd)\n      dup2\n      mstore\n      0x04\n      add\n      tag_217\n      swap1\n      jump(tag_218)\n    tag_388:\n        /* \"AdminManger.sol\":14872:15047  AdminActionPerformed(... */\n      mload(0x40)\n        /* \"AdminManger.sol\":14842:14856  _ERC721Address */\n      dup6\n      swap1\n        /* \"AdminManger.sol\":14872:15047  AdminActionPerformed(... */\n      tag_391\n      swap1\n        /* \"AdminManger.sol\":14958:14988  functionNames.safeTransferFrom */\n      0x06\n      swap1\n        /* \"AdminManger.sol\":14872:15047  AdminActionPerformed(... */\n      jump(tag_225)\n    tag_391:\n      mload(0x40)\n      dup1\n      swap2\n      sub\n      swap1\n      keccak256\n        /* \"AdminManger.sol\":14930:14944  _ERC721Address */\n      dup7\n      sub(shl(0xa0, 0x01), 0x01)\n        /* \"AdminManger.sol\":14872:15047  AdminActionPerformed(... */\n      and\n        /* \"AdminManger.sol\":14906:14916  msg.sender */\n      caller\n      sub(shl(0xa0, 0x01), 0x01)\n        /* \"AdminManger.sol\":14872:15047  AdminActionPerformed(... */\n      and\n      0x00\n      dup1\n      mload\n      0x20\n      data_dd45610e757c5493225a14df8d20081e772472041729f1452d392d031cca6d9d\n      dup4\n      codecopy\n      dup2\n      mload\n      swap2\n      mstore\n        /* \"AdminManger.sol\":15002:15016  _ERC721Address */\n      dup10\n        /* \"AdminManger.sol\":15030:15037  tokenId */\n      dup8\n        /* \"AdminManger.sol\":14872:15047  AdminActionPerformed(... */\n      mload(0x40)\n      tag_392\n      swap3\n      swap2\n      swap1\n      jump(tag_227)\n    tag_392:\n      mload(0x40)\n      dup1\n      swap2\n      sub\n      swap1\n      log4\n        /* \"AdminManger.sol\":15064:15113  erc721.safeTransferFrom(from, to, tokenId, _data) */\n      mload(0x40)\n      shl(0xe1, 0x5c46a7ef)\n      dup2\n      mstore\n      sub(shl(0xa0, 0x01), 0x01)\n        /* \"AdminManger.sol\":15064:15087  erc721.safeTransferFrom */\n      dup3\n      and\n      swap1\n      0xb88d4fde\n      swap1\n        /* \"AdminManger.sol\":15064:15113  erc721.safeTransferFrom(from, to, tokenId, _data) */\n      tag_393\n      swap1\n        /* \"AdminManger.sol\":15088:15092  from */\n      dup9\n      swap1\n        /* \"AdminManger.sol\":15094:15096  to */\n      dup9\n      swap1\n        /* \"AdminManger.sol\":15098:15105  tokenId */\n      dup9\n      swap1\n        /* \"AdminManger.sol\":15107:15112  _data */\n      dup9\n      swap1\n        /* \"AdminManger.sol\":15064:15113  erc721.safeTransferFrom(from, to, tokenId, _data) */\n      0x04\n      add\n      jump(tag_394)\n    tag_393:\n      0x00\n      mload(0x40)\n      dup1\n      dup4\n      sub\n      dup2\n      0x00\n      dup8\n      dup1\n      extcodesize\n      iszero\n        /* \"--CODEGEN--\":8:17   */\n      dup1\n        /* \"--CODEGEN--\":5:7   */\n      iszero\n      tag_395\n      jumpi\n        /* \"--CODEGEN--\":30:31   */\n      0x00\n        /* \"--CODEGEN--\":27:28   */\n      dup1\n        /* \"--CODEGEN--\":20:32   */\n      revert\n        /* \"--CODEGEN--\":5:7   */\n    tag_395:\n        /* \"AdminManger.sol\":15064:15113  erc721.safeTransferFrom(from, to, tokenId, _data) */\n      pop\n      gas\n      call\n      iszero\n        /* \"--CODEGEN--\":8:17   */\n      dup1\n        /* \"--CODEGEN--\":5:7   */\n      iszero\n      tag_396\n      jumpi\n        /* \"--CODEGEN--\":45:61   */\n      returndatasize\n        /* \"--CODEGEN--\":42:43   */\n      0x00\n        /* \"--CODEGEN--\":39:40   */\n      dup1\n        /* \"--CODEGEN--\":24:62   */\n      returndatacopy\n        /* \"--CODEGEN--\":77:93   */\n      returndatasize\n        /* \"--CODEGEN--\":74:75   */\n      0x00\n        /* \"--CODEGEN--\":67:94   */\n      revert\n        /* \"--CODEGEN--\":5:7   */\n    tag_396:\n        /* \"AdminManger.sol\":15064:15113  erc721.safeTransferFrom(from, to, tokenId, _data) */\n      pop\n      pop\n      pop\n      pop\n        /* \"AdminManger.sol\":15057:15113  return erc721.safeTransferFrom(from, to, tokenId, _data) */\n      pop\n        /* \"AdminManger.sol\":14613:15120  function erc721SafeTransferFrom(... */\n      pop\n      pop\n      pop\n      pop\n      pop\n      jump\t// out\n        /* \"AdminManger.sol\":14135:14607  function erc721SafeTransferFrom(... */\n    tag_127:\n        /* \"AdminManger.sol\":10149:10171  adminExist(msg.sender) */\n      tag_398\n        /* \"AdminManger.sol\":10160:10170  msg.sender */\n      caller\n        /* \"AdminManger.sol\":10149:10159  adminExist */\n      tag_200\n        /* \"AdminManger.sol\":10149:10171  adminExist(msg.sender) */\n      jump\t// in\n    tag_398:\n        /* \"AdminManger.sol\":10149:10184  adminExist(msg.sender) || isOwner() */\n      dup1\n      tag_400\n      jumpi\n      pop\n        /* \"AdminManger.sol\":10175:10184  isOwner() */\n      tag_400\n        /* \"AdminManger.sol\":10175:10182  isOwner */\n      tag_162\n        /* \"AdminManger.sol\":10175:10184  isOwner() */\n      jump\t// in\n    tag_400:\n        /* \"AdminManger.sol\":10128:10245  require(... */\n      tag_401\n      jumpi\n      mload(0x40)\n      shl(0xe5, 0x461bcd)\n      dup2\n      mstore\n      0x04\n      add\n      tag_217\n      swap1\n      jump(tag_218)\n    tag_401:\n        /* \"AdminManger.sol\":14366:14541  AdminActionPerformed(... */\n      mload(0x40)\n        /* \"AdminManger.sol\":14336:14350  _ERC721Address */\n      dup5\n      swap1\n        /* \"AdminManger.sol\":14366:14541  AdminActionPerformed(... */\n      tag_404\n      swap1\n        /* \"AdminManger.sol\":14452:14482  functionNames.safeTransferFrom */\n      0x06\n      swap1\n        /* \"AdminManger.sol\":14366:14541  AdminActionPerformed(... */\n      jump(tag_225)\n    tag_404:\n      mload(0x40)\n      dup1\n      swap2\n      sub\n      swap1\n      keccak256\n        /* \"AdminManger.sol\":14424:14438  _ERC721Address */\n      dup6\n      sub(shl(0xa0, 0x01), 0x01)\n        /* \"AdminManger.sol\":14366:14541  AdminActionPerformed(... */\n      and\n        /* \"AdminManger.sol\":14400:14410  msg.sender */\n      caller\n      sub(shl(0xa0, 0x01), 0x01)\n        /* \"AdminManger.sol\":14366:14541  AdminActionPerformed(... */\n      and\n      0x00\n      dup1\n      mload\n      0x20\n      data_dd45610e757c5493225a14df8d20081e772472041729f1452d392d031cca6d9d\n      dup4\n      codecopy\n      dup2\n      mload\n      swap2\n      mstore\n        /* \"AdminManger.sol\":14496:14510  _ERC721Address */\n      dup9\n        /* \"AdminManger.sol\":14524:14531  tokenId */\n      dup7\n        /* \"AdminManger.sol\":14366:14541  AdminActionPerformed(... */\n      mload(0x40)\n      tag_405\n      swap3\n      swap2\n      swap1\n      jump(tag_227)\n    tag_405:\n      mload(0x40)\n      dup1\n      swap2\n      sub\n      swap1\n      log4\n        /* \"AdminManger.sol\":14558:14600  erc721.safeTransferFrom(from, to, tokenId) */\n      mload(0x40)\n      shl(0xe1, 0x21421707)\n      dup2\n      mstore\n      sub(shl(0xa0, 0x01), 0x01)\n        /* \"AdminManger.sol\":14558:14581  erc721.safeTransferFrom */\n      dup3\n      and\n      swap1\n      0x42842e0e\n      swap1\n        /* \"AdminManger.sol\":14558:14600  erc721.safeTransferFrom(from, to, tokenId) */\n      tag_406\n      swap1\n        /* \"AdminManger.sol\":14582:14586  from */\n      dup8\n      swap1\n        /* \"AdminManger.sol\":14588:14590  to */\n      dup8\n      swap1\n        /* \"AdminManger.sol\":14592:14599  tokenId */\n      dup8\n      swap1\n        /* \"AdminManger.sol\":14558:14600  erc721.safeTransferFrom(from, to, tokenId) */\n      0x04\n      add\n      jump(tag_221)\n    tag_406:\n      0x00\n      mload(0x40)\n      dup1\n      dup4\n      sub\n      dup2\n      0x00\n      dup8\n      dup1\n      extcodesize\n      iszero\n        /* \"--CODEGEN--\":8:17   */\n      dup1\n        /* \"--CODEGEN--\":5:7   */\n      iszero\n      tag_407\n      jumpi\n        /* \"--CODEGEN--\":30:31   */\n      0x00\n        /* \"--CODEGEN--\":27:28   */\n      dup1\n        /* \"--CODEGEN--\":20:32   */\n      revert\n        /* \"--CODEGEN--\":5:7   */\n    tag_407:\n        /* \"AdminManger.sol\":14558:14600  erc721.safeTransferFrom(from, to, tokenId) */\n      pop\n      gas\n      call\n      iszero\n        /* \"--CODEGEN--\":8:17   */\n      dup1\n        /* \"--CODEGEN--\":5:7   */\n      iszero\n      tag_408\n      jumpi\n        /* \"--CODEGEN--\":45:61   */\n      returndatasize\n        /* \"--CODEGEN--\":42:43   */\n      0x00\n        /* \"--CODEGEN--\":39:40   */\n      dup1\n        /* \"--CODEGEN--\":24:62   */\n      returndatacopy\n        /* \"--CODEGEN--\":77:93   */\n      returndatasize\n        /* \"--CODEGEN--\":74:75   */\n      0x00\n        /* \"--CODEGEN--\":67:94   */\n      revert\n        /* \"--CODEGEN--\":5:7   */\n    tag_408:\n        /* \"AdminManger.sol\":14558:14600  erc721.safeTransferFrom(from, to, tokenId) */\n      pop\n      pop\n      pop\n      pop\n        /* \"AdminManger.sol\":14551:14600  return erc721.safeTransferFrom(from, to, tokenId) */\n      pop\n        /* \"AdminManger.sol\":10255:10256  _ */\n    tag_403:\n        /* \"AdminManger.sol\":14135:14607  function erc721SafeTransferFrom(... */\n      pop\n      pop\n      pop\n      pop\n      jump\t// out\n        /* \"AdminManger.sol\":18757:19203  function accpetOffer(... */\n    tag_131:\n        /* \"AdminManger.sol\":10149:10171  adminExist(msg.sender) */\n      tag_410\n        /* \"AdminManger.sol\":10160:10170  msg.sender */\n      caller\n        /* \"AdminManger.sol\":10149:10159  adminExist */\n      tag_200\n        /* \"AdminManger.sol\":10149:10171  adminExist(msg.sender) */\n      jump\t// in\n    tag_410:\n        /* \"AdminManger.sol\":10149:10184  adminExist(msg.sender) || isOwner() */\n      dup1\n      tag_412\n      jumpi\n      pop\n        /* \"AdminManger.sol\":10175:10184  isOwner() */\n      tag_412\n        /* \"AdminManger.sol\":10175:10182  isOwner */\n      tag_162\n        /* \"AdminManger.sol\":10175:10184  isOwner() */\n      jump\t// in\n    tag_412:\n        /* \"AdminManger.sol\":10128:10245  require(... */\n      tag_413\n      jumpi\n      mload(0x40)\n      shl(0xe5, 0x461bcd)\n      dup2\n      mstore\n      0x04\n      add\n      tag_217\n      swap1\n      jump(tag_218)\n    tag_413:\n        /* \"AdminManger.sol\":18940:18946  broker */\n      sload(0x1c)\n        /* \"AdminManger.sol\":18940:19010  broker.accpetOffer(tokenID, _mintableToken, _erc20Token, isNotClubare) */\n      mload(0x40)\n      shl(0xe1, 0x2d543405)\n      dup2\n      mstore\n      sub(shl(0xa0, 0x01), 0x01)\n        /* \"AdminManger.sol\":18940:18946  broker */\n      swap1\n      swap2\n      and\n      swap1\n        /* \"AdminManger.sol\":18940:18958  broker.accpetOffer */\n      0x5aa8680a\n      swap1\n        /* \"AdminManger.sol\":18940:19010  broker.accpetOffer(tokenID, _mintableToken, _erc20Token, isNotClubare) */\n      tag_416\n      swap1\n        /* \"AdminManger.sol\":18959:18966  tokenID */\n      dup8\n      swap1\n        /* \"AdminManger.sol\":18968:18982  _mintableToken */\n      dup8\n      swap1\n        /* \"AdminManger.sol\":18984:18995  _erc20Token */\n      dup8\n      swap1\n        /* \"AdminManger.sol\":18997:19009  isNotClubare */\n      dup8\n      swap1\n        /* \"AdminManger.sol\":18940:19010  broker.accpetOffer(tokenID, _mintableToken, _erc20Token, isNotClubare) */\n      0x04\n      add\n      jump(tag_417)\n    tag_416:\n      0x00\n      mload(0x40)\n      dup1\n      dup4\n      sub\n      dup2\n      0x00\n      dup8\n      dup1\n      extcodesize\n      iszero\n        /* \"--CODEGEN--\":8:17   */\n      dup1\n        /* \"--CODEGEN--\":5:7   */\n      iszero\n      tag_418\n      jumpi\n        /* \"--CODEGEN--\":30:31   */\n      0x00\n        /* \"--CODEGEN--\":27:28   */\n      dup1\n        /* \"--CODEGEN--\":20:32   */\n      revert\n        /* \"--CODEGEN--\":5:7   */\n    tag_418:\n        /* \"AdminManger.sol\":18940:19010  broker.accpetOffer(tokenID, _mintableToken, _erc20Token, isNotClubare) */\n      pop\n      gas\n      call\n      iszero\n        /* \"--CODEGEN--\":8:17   */\n      dup1\n        /* \"--CODEGEN--\":5:7   */\n      iszero\n      tag_419\n      jumpi\n        /* \"--CODEGEN--\":45:61   */\n      returndatasize\n        /* \"--CODEGEN--\":42:43   */\n      0x00\n        /* \"--CODEGEN--\":39:40   */\n      dup1\n        /* \"--CODEGEN--\":24:62   */\n      returndatacopy\n        /* \"--CODEGEN--\":77:93   */\n      returndatasize\n        /* \"--CODEGEN--\":74:75   */\n      0x00\n        /* \"--CODEGEN--\":67:94   */\n      revert\n        /* \"--CODEGEN--\":5:7   */\n    tag_419:\n      pop\n      pop\n        /* \"AdminManger.sol\":19025:19196  AdminActionPerformed(... */\n      mload(0x40)\n      tag_323\n      swap3\n      pop\n        /* \"AdminManger.sol\":19112:19137  functionNames.accpetOffer */\n      0x0f\n      swap2\n      pop\n        /* \"AdminManger.sol\":19025:19196  AdminActionPerformed(... */\n      jump(tag_225)\n        /* \"AdminManger.sol\":16791:17511  function putOnSale(... */\n    tag_136:\n        /* \"AdminManger.sol\":10149:10171  adminExist(msg.sender) */\n      tag_423\n        /* \"AdminManger.sol\":10160:10170  msg.sender */\n      caller\n        /* \"AdminManger.sol\":10149:10159  adminExist */\n      tag_200\n        /* \"AdminManger.sol\":10149:10171  adminExist(msg.sender) */\n      jump\t// in\n    tag_423:\n        /* \"AdminManger.sol\":10149:10184  adminExist(msg.sender) || isOwner() */\n      dup1\n      tag_425\n      jumpi\n      pop\n        /* \"AdminManger.sol\":10175:10184  isOwner() */\n      tag_425\n        /* \"AdminManger.sol\":10175:10182  isOwner */\n      tag_162\n        /* \"AdminManger.sol\":10175:10184  isOwner() */\n      jump\t// in\n    tag_425:\n        /* \"AdminManger.sol\":10128:10245  require(... */\n      tag_426\n      jumpi\n      mload(0x40)\n      shl(0xe5, 0x461bcd)\n      dup2\n      mstore\n      0x04\n      add\n      tag_217\n      swap1\n      jump(tag_218)\n    tag_426:\n        /* \"AdminManger.sol\":17088:17094  broker */\n      sload(0x1c)\n        /* \"AdminManger.sol\":17088:17319  broker.putOnSale(... */\n      mload(0x40)\n      shl(0xe0, 0x640cf873)\n      dup2\n      mstore\n      sub(shl(0xa0, 0x01), 0x01)\n        /* \"AdminManger.sol\":17088:17094  broker */\n      swap1\n      swap2\n      and\n      swap1\n        /* \"AdminManger.sol\":17088:17104  broker.putOnSale */\n      0x640cf873\n      swap1\n        /* \"AdminManger.sol\":17088:17319  broker.putOnSale(... */\n      tag_429\n      swap1\n        /* \"AdminManger.sol\":17118:17126  _tokenID */\n      dup12\n      swap1\n        /* \"AdminManger.sol\":17140:17154  _startingPrice */\n      dup12\n      swap1\n        /* \"AdminManger.sol\":17168:17180  _auctionType */\n      dup12\n      swap1\n        /* \"AdminManger.sol\":17194:17203  _buyPrice */\n      dup12\n      swap1\n        /* \"AdminManger.sol\":17217:17230  _startingTime */\n      dup12\n      swap1\n        /* \"AdminManger.sol\":17244:17256  _closingTime */\n      dup12\n      swap1\n        /* \"AdminManger.sol\":17270:17284  _mintableToken */\n      dup12\n      swap1\n        /* \"AdminManger.sol\":17298:17309  _erc20Token */\n      dup12\n      swap1\n        /* \"AdminManger.sol\":17088:17319  broker.putOnSale(... */\n      0x04\n      add\n      jump(tag_430)\n    tag_429:\n      0x00\n      mload(0x40)\n      dup1\n      dup4\n      sub\n      dup2\n      0x00\n      dup8\n      dup1\n      extcodesize\n      iszero\n        /* \"--CODEGEN--\":8:17   */\n      dup1\n        /* \"--CODEGEN--\":5:7   */\n      iszero\n      tag_431\n      jumpi\n        /* \"--CODEGEN--\":30:31   */\n      0x00\n        /* \"--CODEGEN--\":27:28   */\n      dup1\n        /* \"--CODEGEN--\":20:32   */\n      revert\n        /* \"--CODEGEN--\":5:7   */\n    tag_431:\n        /* \"AdminManger.sol\":17088:17319  broker.putOnSale(... */\n      pop\n      gas\n      call\n      iszero\n        /* \"--CODEGEN--\":8:17   */\n      dup1\n        /* \"--CODEGEN--\":5:7   */\n      iszero\n      tag_432\n      jumpi\n        /* \"--CODEGEN--\":45:61   */\n      returndatasize\n        /* \"--CODEGEN--\":42:43   */\n      0x00\n        /* \"--CODEGEN--\":39:40   */\n      dup1\n        /* \"--CODEGEN--\":24:62   */\n      returndatacopy\n        /* \"--CODEGEN--\":77:93   */\n      returndatasize\n        /* \"--CODEGEN--\":74:75   */\n      0x00\n        /* \"--CODEGEN--\":67:94   */\n      revert\n        /* \"--CODEGEN--\":5:7   */\n    tag_432:\n      pop\n      pop\n        /* \"AdminManger.sol\":17334:17504  AdminActionPerformed(... */\n      mload(0x40)\n      tag_433\n      swap3\n      pop\n        /* \"AdminManger.sol\":17421:17444  functionNames.putOnSale */\n      0x08\n      swap2\n      pop\n        /* \"AdminManger.sol\":17334:17504  AdminActionPerformed(... */\n      jump(tag_225)\n    tag_433:\n      mload(0x40)\n      swap1\n      dup2\n      swap1\n      sub\n      dup2\n      keccak256\n        /* \"AdminManger.sol\":17400:17406  broker */\n      sload(0x1c)\n        /* \"AdminManger.sol\":17334:17504  AdminActionPerformed(... */\n      swap1\n      swap2\n      sub(shl(0xa0, 0x01), 0x01)\n        /* \"AdminManger.sol\":17400:17406  broker */\n      swap1\n      swap2\n      and\n      swap1\n        /* \"AdminManger.sol\":17368:17378  msg.sender */\n      caller\n      swap1\n      0x00\n      dup1\n      mload\n      0x20\n      data_dd45610e757c5493225a14df8d20081e772472041729f1452d392d031cca6d9d\n      dup4\n      codecopy\n      dup2\n      mload\n      swap2\n      mstore\n        /* \"AdminManger.sol\":17334:17504  AdminActionPerformed(... */\n      swap1\n      tag_434\n      swap1\n        /* \"AdminManger.sol\":17458:17472  _mintableToken */\n      dup8\n      swap1\n        /* \"AdminManger.sol\":17486:17494  _tokenID */\n      dup15\n      swap1\n        /* \"AdminManger.sol\":17334:17504  AdminActionPerformed(... */\n      jump(tag_227)\n    tag_434:\n      mload(0x40)\n      dup1\n      swap2\n      sub\n      swap1\n      log4\n        /* \"AdminManger.sol\":16791:17511  function putOnSale(... */\n      pop\n      pop\n      pop\n      pop\n      pop\n      pop\n      pop\n      pop\n      jump\t// out\n        /* \"AdminManger.sol\":10443:10688  function addAdmin(address admin) public onlyOwner {... */\n    tag_140:\n        /* \"AdminManger.sol\":1516:1525  isOwner() */\n      tag_436\n        /* \"AdminManger.sol\":1516:1523  isOwner */\n      tag_162\n        /* \"AdminManger.sol\":1516:1525  isOwner() */\n      jump\t// in\n    tag_436:\n        /* \"AdminManger.sol\":1508:1562  require(isOwner(), \"Ownable: caller is not the owner\") */\n      tag_437\n      jumpi\n      mload(0x40)\n      shl(0xe5, 0x461bcd)\n      dup2\n      mstore\n      0x04\n      add\n      tag_217\n      swap1\n      jump(tag_247)\n    tag_437:\n        /* \"AdminManger.sol\":10508:10525  adminExist(admin) */\n      tag_440\n        /* \"AdminManger.sol\":10519:10524  admin */\n      dup2\n        /* \"AdminManger.sol\":10508:10518  adminExist */\n      tag_200\n        /* \"AdminManger.sol\":10508:10525  adminExist(admin) */\n      jump\t// in\n    tag_440:\n        /* \"AdminManger.sol\":10503:10632  if (!adminExist(admin)) {... */\n      tag_441\n      jumpi\n        /* \"AdminManger.sol\":10541:10547  admins */\n      0x01\n        /* \"--CODEGEN--\":27:37   */\n      dup1\n      sload\n        /* \"--CODEGEN--\":23:41   */\n      dup1\n      dup3\n      add\n        /* \"--CODEGEN--\":45:68   */\n      dup3\n      sstore\n      0x00\n        /* \"AdminManger.sol\":10541:10559  admins.push(admin) */\n      swap2\n      swap1\n      swap2\n      mstore\n      0xb10e2d527612073b26eecdfd717e6a320cf44b4afac2b0732d9fcbe2b7fa0cf6\n      add\n      dup1\n      sload\n      not(sub(shl(0xa0, 0x01), 0x01))\n      and\n      sub(shl(0xa0, 0x01), 0x01)\n      dup4\n      and\n      or\n      swap1\n      sstore\n        /* \"AdminManger.sol\":10503:10632  if (!adminExist(admin)) {... */\n      jump(tag_443)\n    tag_441:\n        /* \"AdminManger.sol\":10590:10621  revert(\"admin already in list\") */\n      mload(0x40)\n      shl(0xe5, 0x461bcd)\n      dup2\n      mstore\n      0x04\n      add\n      tag_217\n      swap1\n      jump(tag_445)\n        /* \"AdminManger.sol\":10503:10632  if (!adminExist(admin)) {... */\n    tag_443:\n        /* \"AdminManger.sol\":10647:10681  AdminAdded(admin, block.timestamp) */\n      0x723c2b747529ca7f5eb53a74808f4a8b9bf264f0fc450fd904900151da74548a\n        /* \"AdminManger.sol\":10658:10663  admin */\n      dup2\n        /* \"AdminManger.sol\":10665:10680  block.timestamp */\n      timestamp\n        /* \"AdminManger.sol\":10647:10681  AdminAdded(admin, block.timestamp) */\n      mload(0x40)\n      tag_261\n      swap3\n      swap2\n      swap1\n      jump(tag_227)\n        /* \"AdminManger.sol\":2097:2234  function renounceOwnership() public onlyOwner {... */\n    tag_143:\n        /* \"AdminManger.sol\":1516:1525  isOwner() */\n      tag_448\n        /* \"AdminManger.sol\":1516:1523  isOwner */\n      tag_162\n        /* \"AdminManger.sol\":1516:1525  isOwner() */\n      jump\t// in\n    tag_448:\n        /* \"AdminManger.sol\":1508:1562  require(isOwner(), \"Ownable: caller is not the owner\") */\n      tag_449\n      jumpi\n      mload(0x40)\n      shl(0xe5, 0x461bcd)\n      dup2\n      mstore\n      0x04\n      add\n      tag_217\n      swap1\n      jump(tag_247)\n    tag_449:\n        /* \"AdminManger.sol\":2195:2196  0 */\n      0x00\n        /* \"AdminManger.sol\":2179:2185  _owner */\n      dup1\n      sload\n        /* \"AdminManger.sol\":2158:2198  OwnershipTransferred(_owner, address(0)) */\n      mload(0x40)\n      sub(shl(0xa0, 0x01), 0x01)\n        /* \"AdminManger.sol\":2179:2185  _owner */\n      swap1\n      swap2\n      and\n      swap1\n        /* \"AdminManger.sol\":2158:2198  OwnershipTransferred(_owner, address(0)) */\n      0x8be0079c531659141344cd1fd0a4f28419497f9722a3daafe3b4186f6b6457e0\n      swap1\n        /* \"AdminManger.sol\":2195:2196  0 */\n      dup4\n      swap1\n        /* \"AdminManger.sol\":2158:2198  OwnershipTransferred(_owner, address(0)) */\n      log3\n        /* \"AdminManger.sol\":2225:2226  0 */\n      0x00\n        /* \"AdminManger.sol\":2208:2227  _owner = address(0) */\n      dup1\n      sload\n      not(sub(shl(0xa0, 0x01), 0x01))\n      and\n      swap1\n      sstore\n        /* \"AdminManger.sol\":2097:2234  function renounceOwnership() public onlyOwner {... */\n      jump\t// out\n        /* \"AdminManger.sol\":16390:16785  function buy(uint256 tokenID, address _mintableToken, bool isNotClubare)... */\n    tag_147:\n        /* \"AdminManger.sol\":10149:10171  adminExist(msg.sender) */\n      tag_453\n        /* \"AdminManger.sol\":10160:10170  msg.sender */\n      caller\n        /* \"AdminManger.sol\":10149:10159  adminExist */\n      tag_200\n        /* \"AdminManger.sol\":10149:10171  adminExist(msg.sender) */\n      jump\t// in\n    tag_453:\n        /* \"AdminManger.sol\":10149:10184  adminExist(msg.sender) || isOwner() */\n      dup1\n      tag_455\n      jumpi\n      pop\n        /* \"AdminManger.sol\":10175:10184  isOwner() */\n      tag_455\n        /* \"AdminManger.sol\":10175:10182  isOwner */\n      tag_162\n        /* \"AdminManger.sol\":10175:10184  isOwner() */\n      jump\t// in\n    tag_455:\n        /* \"AdminManger.sol\":10128:10245  require(... */\n      tag_456\n      jumpi\n      mload(0x40)\n      shl(0xe5, 0x461bcd)\n      dup2\n      mstore\n      0x04\n      add\n      tag_217\n      swap1\n      jump(tag_218)\n    tag_456:\n        /* \"AdminManger.sol\":16534:16540  broker */\n      sload(0x1c)\n        /* \"AdminManger.sol\":16534:16600  broker.buy.value(msg.value)(tokenID, _mintableToken, isNotClubare) */\n      mload(0x40)\n      shl(0xe0, 0x7ad157b9)\n      dup2\n      mstore\n      sub(shl(0xa0, 0x01), 0x01)\n        /* \"AdminManger.sol\":16534:16540  broker */\n      swap1\n      swap2\n      and\n      swap1\n        /* \"AdminManger.sol\":16534:16544  broker.buy */\n      0x7ad157b9\n      swap1\n        /* \"AdminManger.sol\":16551:16560  msg.value */\n      callvalue\n      swap1\n        /* \"AdminManger.sol\":16534:16600  broker.buy.value(msg.value)(tokenID, _mintableToken, isNotClubare) */\n      tag_459\n      swap1\n        /* \"AdminManger.sol\":16562:16569  tokenID */\n      dup8\n      swap1\n        /* \"AdminManger.sol\":16571:16585  _mintableToken */\n      dup8\n      swap1\n        /* \"AdminManger.sol\":16587:16599  isNotClubare */\n      dup8\n      swap1\n        /* \"AdminManger.sol\":16534:16600  broker.buy.value(msg.value)(tokenID, _mintableToken, isNotClubare) */\n      0x04\n      add\n      jump(tag_460)\n    tag_459:\n      0x00\n      mload(0x40)\n      dup1\n      dup4\n      sub\n      dup2\n      dup6\n      dup9\n      dup1\n      extcodesize\n      iszero\n        /* \"--CODEGEN--\":8:17   */\n      dup1\n        /* \"--CODEGEN--\":5:7   */\n      iszero\n      tag_461\n      jumpi\n        /* \"--CODEGEN--\":30:31   */\n      0x00\n        /* \"--CODEGEN--\":27:28   */\n      dup1\n        /* \"--CODEGEN--\":20:32   */\n      revert\n        /* \"--CODEGEN--\":5:7   */\n    tag_461:\n        /* \"AdminManger.sol\":16534:16600  broker.buy.value(msg.value)(tokenID, _mintableToken, isNotClubare) */\n      pop\n      gas\n      call\n      iszero\n        /* \"--CODEGEN--\":8:17   */\n      dup1\n        /* \"--CODEGEN--\":5:7   */\n      iszero\n      tag_462\n      jumpi\n        /* \"--CODEGEN--\":45:61   */\n      returndatasize\n        /* \"--CODEGEN--\":42:43   */\n      0x00\n        /* \"--CODEGEN--\":39:40   */\n      dup1\n        /* \"--CODEGEN--\":24:62   */\n      returndatacopy\n        /* \"--CODEGEN--\":77:93   */\n      returndatasize\n        /* \"--CODEGEN--\":74:75   */\n      0x00\n        /* \"--CODEGEN--\":67:94   */\n      revert\n        /* \"--CODEGEN--\":5:7   */\n    tag_462:\n      pop\n      pop\n        /* \"AdminManger.sol\":16615:16778  AdminActionPerformed(... */\n      mload(0x40)\n      tag_286\n      swap4\n      pop\n        /* \"AdminManger.sol\":16702:16719  functionNames.buy */\n      0x09\n      swap3\n      pop\n        /* \"AdminManger.sol\":16615:16778  AdminActionPerformed(... */\n      swap1\n      pop\n      jump(tag_225)\n        /* \"AdminManger.sol\":15126:15586  function erc721TransferFrom(... */\n    tag_151:\n        /* \"AdminManger.sol\":10149:10171  adminExist(msg.sender) */\n      tag_466\n        /* \"AdminManger.sol\":10160:10170  msg.sender */\n      caller\n        /* \"AdminManger.sol\":10149:10159  adminExist */\n      tag_200\n        /* \"AdminManger.sol\":10149:10171  adminExist(msg.sender) */\n      jump\t// in\n    tag_466:\n        /* \"AdminManger.sol\":10149:10184  adminExist(msg.sender) || isOwner() */\n      dup1\n      tag_468\n      jumpi\n      pop\n        /* \"AdminManger.sol\":10175:10184  isOwner() */\n      tag_468\n        /* \"AdminManger.sol\":10175:10182  isOwner */\n      tag_162\n        /* \"AdminManger.sol\":10175:10184  isOwner() */\n      jump\t// in\n    tag_468:\n        /* \"AdminManger.sol\":10128:10245  require(... */\n      tag_469\n      jumpi\n      mload(0x40)\n      shl(0xe5, 0x461bcd)\n      dup2\n      mstore\n      0x04\n      add\n      tag_217\n      swap1\n      jump(tag_218)\n    tag_469:\n        /* \"AdminManger.sol\":15353:15524  AdminActionPerformed(... */\n      mload(0x40)\n        /* \"AdminManger.sol\":15323:15337  _ERC721Address */\n      dup5\n      swap1\n        /* \"AdminManger.sol\":15353:15524  AdminActionPerformed(... */\n      tag_472\n      swap1\n        /* \"AdminManger.sol\":15439:15465  functionNames.transferFrom */\n      0x07\n      swap1\n        /* \"AdminManger.sol\":15353:15524  AdminActionPerformed(... */\n      jump(tag_225)\n    tag_472:\n      mload(0x40)\n      dup1\n      swap2\n      sub\n      swap1\n      keccak256\n        /* \"AdminManger.sol\":15411:15425  _ERC721Address */\n      dup6\n      sub(shl(0xa0, 0x01), 0x01)\n        /* \"AdminManger.sol\":15353:15524  AdminActionPerformed(... */\n      and\n        /* \"AdminManger.sol\":15387:15397  msg.sender */\n      caller\n      sub(shl(0xa0, 0x01), 0x01)\n        /* \"AdminManger.sol\":15353:15524  AdminActionPerformed(... */\n      and\n      0x00\n      dup1\n      mload\n      0x20\n      data_dd45610e757c5493225a14df8d20081e772472041729f1452d392d031cca6d9d\n      dup4\n      codecopy\n      dup2\n      mload\n      swap2\n      mstore\n        /* \"AdminManger.sol\":15479:15493  _ERC721Address */\n      dup9\n        /* \"AdminManger.sol\":15507:15514  tokenId */\n      dup7\n        /* \"AdminManger.sol\":15353:15524  AdminActionPerformed(... */\n      mload(0x40)\n      tag_473\n      swap3\n      swap2\n      swap1\n      jump(tag_227)\n    tag_473:\n      mload(0x40)\n      dup1\n      swap2\n      sub\n      swap1\n      log4\n        /* \"AdminManger.sol\":15541:15579  erc721.transferFrom(from, to, tokenId) */\n      mload(0x40)\n      shl(0xe0, 0x23b872dd)\n      dup2\n      mstore\n      sub(shl(0xa0, 0x01), 0x01)\n        /* \"AdminManger.sol\":15541:15560  erc721.transferFrom */\n      dup3\n      and\n      swap1\n      0x23b872dd\n      swap1\n        /* \"AdminManger.sol\":15541:15579  erc721.transferFrom(from, to, tokenId) */\n      tag_406\n      swap1\n        /* \"AdminManger.sol\":15561:15565  from */\n      dup8\n      swap1\n        /* \"AdminManger.sol\":15567:15569  to */\n      dup8\n      swap1\n        /* \"AdminManger.sol\":15571:15578  tokenId */\n      dup8\n      swap1\n        /* \"AdminManger.sol\":15541:15579  erc721.transferFrom(from, to, tokenId) */\n      0x04\n      add\n      jump(tag_221)\n        /* \"AdminManger.sol\":16010:16384  function collect(uint256 tokenID, address _mintableToken, bool isNotClubare)... */\n    tag_155:\n        /* \"AdminManger.sol\":10149:10171  adminExist(msg.sender) */\n      tag_478\n        /* \"AdminManger.sol\":10160:10170  msg.sender */\n      caller\n        /* \"AdminManger.sol\":10149:10159  adminExist */\n      tag_200\n        /* \"AdminManger.sol\":10149:10171  adminExist(msg.sender) */\n      jump\t// in\n    tag_478:\n        /* \"AdminManger.sol\":10149:10184  adminExist(msg.sender) || isOwner() */\n      dup1\n      tag_480\n      jumpi\n      pop\n        /* \"AdminManger.sol\":10175:10184  isOwner() */\n      tag_480\n        /* \"AdminManger.sol\":10175:10182  isOwner */\n      tag_162\n        /* \"AdminManger.sol\":10175:10184  isOwner() */\n      jump\t// in\n    tag_480:\n        /* \"AdminManger.sol\":10128:10245  require(... */\n      tag_481\n      jumpi\n      mload(0x40)\n      shl(0xe5, 0x461bcd)\n      dup2\n      mstore\n      0x04\n      add\n      tag_217\n      swap1\n      jump(tag_218)\n    tag_481:\n        /* \"AdminManger.sol\":16142:16148  broker */\n      sload(0x1c)\n        /* \"AdminManger.sol\":16142:16195  broker.collect(tokenID, _mintableToken, isNotClubare) */\n      mload(0x40)\n      shl(0xe0, 0x8c6ab013)\n      dup2\n      mstore\n      sub(shl(0xa0, 0x01), 0x01)\n        /* \"AdminManger.sol\":16142:16148  broker */\n      swap1\n      swap2\n      and\n      swap1\n        /* \"AdminManger.sol\":16142:16156  broker.collect */\n      0x8c6ab013\n      swap1\n        /* \"AdminManger.sol\":16142:16195  broker.collect(tokenID, _mintableToken, isNotClubare) */\n      tag_484\n      swap1\n        /* \"AdminManger.sol\":16157:16164  tokenID */\n      dup7\n      swap1\n        /* \"AdminManger.sol\":16166:16180  _mintableToken */\n      dup7\n      swap1\n        /* \"AdminManger.sol\":16182:16194  isNotClubare */\n      dup7\n      swap1\n        /* \"AdminManger.sol\":16142:16195  broker.collect(tokenID, _mintableToken, isNotClubare) */\n      0x04\n      add\n      jump(tag_460)\n    tag_484:\n      0x00\n      mload(0x40)\n      dup1\n      dup4\n      sub\n      dup2\n      0x00\n      dup8\n      dup1\n      extcodesize\n      iszero\n        /* \"--CODEGEN--\":8:17   */\n      dup1\n        /* \"--CODEGEN--\":5:7   */\n      iszero\n      tag_485\n      jumpi\n        /* \"--CODEGEN--\":30:31   */\n      0x00\n        /* \"--CODEGEN--\":27:28   */\n      dup1\n        /* \"--CODEGEN--\":20:32   */\n      revert\n        /* \"--CODEGEN--\":5:7   */\n    tag_485:\n        /* \"AdminManger.sol\":16142:16195  broker.collect(tokenID, _mintableToken, isNotClubare) */\n      pop\n      gas\n      call\n      iszero\n        /* \"--CODEGEN--\":8:17   */\n      dup1\n        /* \"--CODEGEN--\":5:7   */\n      iszero\n      tag_486\n      jumpi\n        /* \"--CODEGEN--\":45:61   */\n      returndatasize\n        /* \"--CODEGEN--\":42:43   */\n      0x00\n        /* \"--CODEGEN--\":39:40   */\n      dup1\n        /* \"--CODEGEN--\":24:62   */\n      returndatacopy\n        /* \"--CODEGEN--\":77:93   */\n      returndatasize\n        /* \"--CODEGEN--\":74:75   */\n      0x00\n        /* \"--CODEGEN--\":67:94   */\n      revert\n        /* \"--CODEGEN--\":5:7   */\n    tag_486:\n      pop\n      pop\n        /* \"AdminManger.sol\":16210:16377  AdminActionPerformed(... */\n      mload(0x40)\n      tag_286\n      swap3\n      pop\n        /* \"AdminManger.sol\":16297:16318  functionNames.collect */\n      0x0b\n      swap2\n      pop\n        /* \"AdminManger.sol\":16210:16377  AdminActionPerformed(... */\n      jump(tag_225)\n        /* \"AdminManger.sol\":1312:1389  function owner() public view returns (address) {... */\n    tag_158:\n        /* \"AdminManger.sol\":1350:1357  address */\n      0x00\n        /* \"AdminManger.sol\":1376:1382  _owner */\n      sload\n      sub(shl(0xa0, 0x01), 0x01)\n      and\n        /* \"AdminManger.sol\":1312:1389  function owner() public view returns (address) {... */\n      swap1\n      jump\t// out\n        /* \"AdminManger.sol\":1663:1755  function isOwner() public view returns (bool) {... */\n    tag_162:\n        /* \"AdminManger.sol\":1703:1707  bool */\n      0x00\n        /* \"AdminManger.sol\":1742:1748  _owner */\n      dup1\n      sload\n      sub(shl(0xa0, 0x01), 0x01)\n      and\n        /* \"AdminManger.sol\":1726:1738  _msgSender() */\n      tag_491\n        /* \"AdminManger.sol\":1726:1736  _msgSender */\n      tag_492\n        /* \"AdminManger.sol\":1726:1738  _msgSender() */\n      jump\t// in\n    tag_491:\n      sub(shl(0xa0, 0x01), 0x01)\n        /* \"AdminManger.sol\":1726:1748  _msgSender() == _owner */\n      and\n      eq\n        /* \"AdminManger.sol\":1719:1748  return _msgSender() == _owner */\n      swap1\n      pop\n        /* \"AdminManger.sol\":1663:1755  function isOwner() public view returns (bool) {... */\n      swap1\n      jump\t// out\n        /* \"AdminManger.sol\":22039:22463  function erc20IncreaseAllowance(... */\n    tag_168:\n        /* \"AdminManger.sol\":10149:10171  adminExist(msg.sender) */\n      tag_494\n        /* \"AdminManger.sol\":10160:10170  msg.sender */\n      caller\n        /* \"AdminManger.sol\":10149:10159  adminExist */\n      tag_200\n        /* \"AdminManger.sol\":10149:10171  adminExist(msg.sender) */\n      jump\t// in\n    tag_494:\n        /* \"AdminManger.sol\":10149:10184  adminExist(msg.sender) || isOwner() */\n      dup1\n      tag_496\n      jumpi\n      pop\n        /* \"AdminManger.sol\":10175:10184  isOwner() */\n      tag_496\n        /* \"AdminManger.sol\":10175:10182  isOwner */\n      tag_162\n        /* \"AdminManger.sol\":10175:10184  isOwner() */\n      jump\t// in\n    tag_496:\n        /* \"AdminManger.sol\":10128:10245  require(... */\n      tag_497\n      jumpi\n      mload(0x40)\n      shl(0xe5, 0x461bcd)\n      dup2\n      mstore\n      0x04\n      add\n      tag_217\n      swap1\n      jump(tag_218)\n    tag_497:\n        /* \"AdminManger.sol\":22228:22272  erc20.increaseAllowance(spender, addedValue) */\n      mload(0x40)\n      shl(0xe0, 0x39509351)\n      dup2\n      mstore\n        /* \"AdminManger.sol\":22211:22217  _erc20 */\n      dup4\n      swap1\n      sub(shl(0xa0, 0x01), 0x01)\n        /* \"AdminManger.sol\":22228:22251  erc20.increaseAllowance */\n      dup3\n      and\n      swap1\n      0x39509351\n      swap1\n        /* \"AdminManger.sol\":22228:22272  erc20.increaseAllowance(spender, addedValue) */\n      tag_500\n      swap1\n        /* \"AdminManger.sol\":22252:22259  spender */\n      dup7\n      swap1\n        /* \"AdminManger.sol\":22261:22271  addedValue */\n      dup7\n      swap1\n        /* \"AdminManger.sol\":22228:22272  erc20.increaseAllowance(spender, addedValue) */\n      0x04\n      add\n      jump(tag_227)\n    tag_500:\n      0x00\n      mload(0x40)\n      dup1\n      dup4\n      sub\n      dup2\n      0x00\n      dup8\n      dup1\n      extcodesize\n      iszero\n        /* \"--CODEGEN--\":8:17   */\n      dup1\n        /* \"--CODEGEN--\":5:7   */\n      iszero\n      tag_501\n      jumpi\n        /* \"--CODEGEN--\":30:31   */\n      0x00\n        /* \"--CODEGEN--\":27:28   */\n      dup1\n        /* \"--CODEGEN--\":20:32   */\n      revert\n        /* \"--CODEGEN--\":5:7   */\n    tag_501:\n        /* \"AdminManger.sol\":22228:22272  erc20.increaseAllowance(spender, addedValue) */\n      pop\n      gas\n      call\n      iszero\n        /* \"--CODEGEN--\":8:17   */\n      dup1\n        /* \"--CODEGEN--\":5:7   */\n      iszero\n      tag_502\n      jumpi\n        /* \"--CODEGEN--\":45:61   */\n      returndatasize\n        /* \"--CODEGEN--\":42:43   */\n      0x00\n        /* \"--CODEGEN--\":39:40   */\n      dup1\n        /* \"--CODEGEN--\":24:62   */\n      returndatacopy\n        /* \"--CODEGEN--\":77:93   */\n      returndatasize\n        /* \"--CODEGEN--\":74:75   */\n      0x00\n        /* \"--CODEGEN--\":67:94   */\n      revert\n        /* \"--CODEGEN--\":5:7   */\n    tag_502:\n      pop\n      pop\n        /* \"AdminManger.sol\":22287:22456  AdminActionPerformed(... */\n      mload(0x40)\n      tag_238\n      swap3\n      pop\n        /* \"AdminManger.sol\":22365:22401  functionNames.erc20IncreaseAllowance */\n      0x17\n      swap2\n      pop\n        /* \"AdminManger.sol\":22287:22456  AdminActionPerformed(... */\n      jump(tag_225)\n        /* \"AdminManger.sol\":19992:20371  function erc20Approve(... */\n    tag_172:\n        /* \"AdminManger.sol\":10149:10171  adminExist(msg.sender) */\n      tag_506\n        /* \"AdminManger.sol\":10160:10170  msg.sender */\n      caller\n        /* \"AdminManger.sol\":10149:10159  adminExist */\n      tag_200\n        /* \"AdminManger.sol\":10149:10171  adminExist(msg.sender) */\n      jump\t// in\n    tag_506:\n        /* \"AdminManger.sol\":10149:10184  adminExist(msg.sender) || isOwner() */\n      dup1\n      tag_508\n      jumpi\n      pop\n        /* \"AdminManger.sol\":10175:10184  isOwner() */\n      tag_508\n        /* \"AdminManger.sol\":10175:10182  isOwner */\n      tag_162\n        /* \"AdminManger.sol\":10175:10184  isOwner() */\n      jump\t// in\n    tag_508:\n        /* \"AdminManger.sol\":10128:10245  require(... */\n      tag_509\n      jumpi\n      mload(0x40)\n      shl(0xe5, 0x461bcd)\n      dup2\n      mstore\n      0x04\n      add\n      tag_217\n      swap1\n      jump(tag_218)\n    tag_509:\n        /* \"AdminManger.sol\":20166:20195  erc20.approve(spender, value) */\n      mload(0x40)\n      shl(0xe0, 0x095ea7b3)\n      dup2\n      mstore\n        /* \"AdminManger.sol\":20149:20155  _erc20 */\n      dup4\n      swap1\n      sub(shl(0xa0, 0x01), 0x01)\n        /* \"AdminManger.sol\":20166:20179  erc20.approve */\n      dup3\n      and\n      swap1\n      0x095ea7b3\n      swap1\n        /* \"AdminManger.sol\":20166:20195  erc20.approve(spender, value) */\n      tag_512\n      swap1\n        /* \"AdminManger.sol\":20180:20187  spender */\n      dup7\n      swap1\n        /* \"AdminManger.sol\":20189:20194  value */\n      dup7\n      swap1\n        /* \"AdminManger.sol\":20166:20195  erc20.approve(spender, value) */\n      0x04\n      add\n      jump(tag_227)\n    tag_512:\n      0x00\n      mload(0x40)\n      dup1\n      dup4\n      sub\n      dup2\n      0x00\n      dup8\n      dup1\n      extcodesize\n      iszero\n        /* \"--CODEGEN--\":8:17   */\n      dup1\n        /* \"--CODEGEN--\":5:7   */\n      iszero\n      tag_513\n      jumpi\n        /* \"--CODEGEN--\":30:31   */\n      0x00\n        /* \"--CODEGEN--\":27:28   */\n      dup1\n        /* \"--CODEGEN--\":20:32   */\n      revert\n        /* \"--CODEGEN--\":5:7   */\n    tag_513:\n        /* \"AdminManger.sol\":20166:20195  erc20.approve(spender, value) */\n      pop\n      gas\n      call\n      iszero\n        /* \"--CODEGEN--\":8:17   */\n      dup1\n        /* \"--CODEGEN--\":5:7   */\n      iszero\n      tag_514\n      jumpi\n        /* \"--CODEGEN--\":45:61   */\n      returndatasize\n        /* \"--CODEGEN--\":42:43   */\n      0x00\n        /* \"--CODEGEN--\":39:40   */\n      dup1\n        /* \"--CODEGEN--\":24:62   */\n      returndatacopy\n        /* \"--CODEGEN--\":77:93   */\n      returndatasize\n        /* \"--CODEGEN--\":74:75   */\n      0x00\n        /* \"--CODEGEN--\":67:94   */\n      revert\n        /* \"--CODEGEN--\":5:7   */\n    tag_514:\n      pop\n      pop\n        /* \"AdminManger.sol\":20210:20364  AdminActionPerformed(... */\n      mload(0x40)\n      tag_238\n      swap3\n      pop\n        /* \"AdminManger.sol\":20288:20314  functionNames.erc20Approve */\n      0x12\n      swap2\n      pop\n        /* \"AdminManger.sol\":20210:20364  AdminActionPerformed(... */\n      jump(tag_225)\n        /* \"AdminManger.sol\":12886:13311  function erc721Transfer(... */\n    tag_176:\n        /* \"AdminManger.sol\":10149:10171  adminExist(msg.sender) */\n      tag_518\n        /* \"AdminManger.sol\":10160:10170  msg.sender */\n      caller\n        /* \"AdminManger.sol\":10149:10159  adminExist */\n      tag_200\n        /* \"AdminManger.sol\":10149:10171  adminExist(msg.sender) */\n      jump\t// in\n    tag_518:\n        /* \"AdminManger.sol\":10149:10184  adminExist(msg.sender) || isOwner() */\n      dup1\n      tag_520\n      jumpi\n      pop\n        /* \"AdminManger.sol\":10175:10184  isOwner() */\n      tag_520\n        /* \"AdminManger.sol\":10175:10182  isOwner */\n      tag_162\n        /* \"AdminManger.sol\":10175:10184  isOwner() */\n      jump\t// in\n    tag_520:\n        /* \"AdminManger.sol\":10128:10245  require(... */\n      tag_521\n      jumpi\n      mload(0x40)\n      shl(0xe5, 0x461bcd)\n      dup2\n      mstore\n      0x04\n      add\n      tag_217\n      swap1\n      jump(tag_218)\n    tag_521:\n        /* \"AdminManger.sol\":13089:13257  AdminActionPerformed(... */\n      mload(0x40)\n        /* \"AdminManger.sol\":13059:13073  _ERC721Address */\n      dup4\n      swap1\n        /* \"AdminManger.sol\":13089:13257  AdminActionPerformed(... */\n      tag_524\n      swap1\n        /* \"AdminManger.sol\":13175:13197  functionNames.transfer */\n      0x03\n      swap1\n        /* \"AdminManger.sol\":13089:13257  AdminActionPerformed(... */\n      jump(tag_225)\n    tag_524:\n      mload(0x40)\n      dup1\n      swap2\n      sub\n      swap1\n      keccak256\n        /* \"AdminManger.sol\":13147:13161  _ERC721Address */\n      dup5\n      sub(shl(0xa0, 0x01), 0x01)\n        /* \"AdminManger.sol\":13089:13257  AdminActionPerformed(... */\n      and\n        /* \"AdminManger.sol\":13123:13133  msg.sender */\n      caller\n      sub(shl(0xa0, 0x01), 0x01)\n        /* \"AdminManger.sol\":13089:13257  AdminActionPerformed(... */\n      and\n      0x00\n      dup1\n      mload\n      0x20\n      data_dd45610e757c5493225a14df8d20081e772472041729f1452d392d031cca6d9d\n      dup4\n      codecopy\n      dup2\n      mload\n      swap2\n      mstore\n        /* \"AdminManger.sol\":13211:13225  _ERC721Address */\n      dup8\n        /* \"AdminManger.sol\":13239:13247  _tokenId */\n      dup7\n        /* \"AdminManger.sol\":13089:13257  AdminActionPerformed(... */\n      mload(0x40)\n      tag_525\n      swap3\n      swap2\n      swap1\n      jump(tag_227)\n    tag_525:\n      mload(0x40)\n      dup1\n      swap2\n      sub\n      swap1\n      log4\n        /* \"AdminManger.sol\":13274:13304  erc721.transfer(_to, _tokenId) */\n      mload(0x40)\n      shl(0xe0, 0xa9059cbb)\n      dup2\n      mstore\n      sub(shl(0xa0, 0x01), 0x01)\n        /* \"AdminManger.sol\":13274:13289  erc721.transfer */\n      dup3\n      and\n      swap1\n      0xa9059cbb\n      swap1\n        /* \"AdminManger.sol\":13274:13304  erc721.transfer(_to, _tokenId) */\n      tag_297\n      swap1\n        /* \"AdminManger.sol\":13290:13293  _to */\n      dup7\n      swap1\n        /* \"AdminManger.sol\":13295:13303  _tokenId */\n      dup7\n      swap1\n        /* \"AdminManger.sol\":13274:13304  erc721.transfer(_to, _tokenId) */\n      0x04\n      add\n      jump(tag_227)\n        /* \"AdminManger.sol\":15616:16004  function bid(... */\n    tag_180:\n        /* \"AdminManger.sol\":10149:10171  adminExist(msg.sender) */\n      tag_530\n        /* \"AdminManger.sol\":10160:10170  msg.sender */\n      caller\n        /* \"AdminManger.sol\":10149:10159  adminExist */\n      tag_200\n        /* \"AdminManger.sol\":10149:10171  adminExist(msg.sender) */\n      jump\t// in\n    tag_530:\n        /* \"AdminManger.sol\":10149:10184  adminExist(msg.sender) || isOwner() */\n      dup1\n      tag_532\n      jumpi\n      pop\n        /* \"AdminManger.sol\":10175:10184  isOwner() */\n      tag_532\n        /* \"AdminManger.sol\":10175:10182  isOwner */\n      tag_162\n        /* \"AdminManger.sol\":10175:10184  isOwner() */\n      jump\t// in\n    tag_532:\n        /* \"AdminManger.sol\":10128:10245  require(... */\n      tag_533\n      jumpi\n      mload(0x40)\n      shl(0xe5, 0x461bcd)\n      dup2\n      mstore\n      0x04\n      add\n      tag_217\n      swap1\n      jump(tag_218)\n    tag_533:\n        /* \"AdminManger.sol\":15759:15765  broker */\n      sload(0x1c)\n        /* \"AdminManger.sol\":15759:15819  broker.bid.value(msg.value)(tokenID, _mintableToken, amount) */\n      mload(0x40)\n      shl(0xe0, 0xc0f4ed31)\n      dup2\n      mstore\n      sub(shl(0xa0, 0x01), 0x01)\n        /* \"AdminManger.sol\":15759:15765  broker */\n      swap1\n      swap2\n      and\n      swap1\n        /* \"AdminManger.sol\":15759:15769  broker.bid */\n      0xc0f4ed31\n      swap1\n        /* \"AdminManger.sol\":15776:15785  msg.value */\n      callvalue\n      swap1\n        /* \"AdminManger.sol\":15759:15819  broker.bid.value(msg.value)(tokenID, _mintableToken, amount) */\n      tag_536\n      swap1\n        /* \"AdminManger.sol\":15787:15794  tokenID */\n      dup8\n      swap1\n        /* \"AdminManger.sol\":15796:15810  _mintableToken */\n      dup8\n      swap1\n        /* \"AdminManger.sol\":15812:15818  amount */\n      dup8\n      swap1\n        /* \"AdminManger.sol\":15759:15819  broker.bid.value(msg.value)(tokenID, _mintableToken, amount) */\n      0x04\n      add\n      jump(tag_537)\n    tag_536:\n      0x00\n      mload(0x40)\n      dup1\n      dup4\n      sub\n      dup2\n      dup6\n      dup9\n      dup1\n      extcodesize\n      iszero\n        /* \"--CODEGEN--\":8:17   */\n      dup1\n        /* \"--CODEGEN--\":5:7   */\n      iszero\n      tag_538\n      jumpi\n        /* \"--CODEGEN--\":30:31   */\n      0x00\n        /* \"--CODEGEN--\":27:28   */\n      dup1\n        /* \"--CODEGEN--\":20:32   */\n      revert\n        /* \"--CODEGEN--\":5:7   */\n    tag_538:\n        /* \"AdminManger.sol\":15759:15819  broker.bid.value(msg.value)(tokenID, _mintableToken, amount) */\n      pop\n      gas\n      call\n      iszero\n        /* \"--CODEGEN--\":8:17   */\n      dup1\n        /* \"--CODEGEN--\":5:7   */\n      iszero\n      tag_539\n      jumpi\n        /* \"--CODEGEN--\":45:61   */\n      returndatasize\n        /* \"--CODEGEN--\":42:43   */\n      0x00\n        /* \"--CODEGEN--\":39:40   */\n      dup1\n        /* \"--CODEGEN--\":24:62   */\n      returndatacopy\n        /* \"--CODEGEN--\":77:93   */\n      returndatasize\n        /* \"--CODEGEN--\":74:75   */\n      0x00\n        /* \"--CODEGEN--\":67:94   */\n      revert\n        /* \"--CODEGEN--\":5:7   */\n    tag_539:\n      pop\n      pop\n        /* \"AdminManger.sol\":15834:15997  AdminActionPerformed(... */\n      mload(0x40)\n      tag_286\n      swap4\n      pop\n        /* \"AdminManger.sol\":15921:15938  functionNames.bid */\n      0x0a\n      swap3\n      pop\n        /* \"AdminManger.sol\":15834:15997  AdminActionPerformed(... */\n      swap1\n      pop\n      jump(tag_225)\n        /* \"AdminManger.sol\":20377:20820  function erc20DecreaseApproval(... */\n    tag_184:\n        /* \"AdminManger.sol\":10149:10171  adminExist(msg.sender) */\n      tag_543\n        /* \"AdminManger.sol\":10160:10170  msg.sender */\n      caller\n        /* \"AdminManger.sol\":10149:10159  adminExist */\n      tag_200\n        /* \"AdminManger.sol\":10149:10171  adminExist(msg.sender) */\n      jump\t// in\n    tag_543:\n        /* \"AdminManger.sol\":10149:10184  adminExist(msg.sender) || isOwner() */\n      dup1\n      tag_545\n      jumpi\n      pop\n        /* \"AdminManger.sol\":10175:10184  isOwner() */\n      tag_545\n        /* \"AdminManger.sol\":10175:10182  isOwner */\n      tag_162\n        /* \"AdminManger.sol\":10175:10184  isOwner() */\n      jump\t// in\n    tag_545:\n        /* \"AdminManger.sol\":10128:10245  require(... */\n      tag_546\n      jumpi\n      mload(0x40)\n      shl(0xe5, 0x461bcd)\n      dup2\n      mstore\n      0x04\n      add\n      tag_217\n      swap1\n      jump(tag_218)\n    tag_546:\n        /* \"AdminManger.sol\":20572:20622  erc20.decreaseApproval(_spender, _subtractedValue) */\n      mload(0x40)\n      shl(0xe0, 0x66188463)\n      dup2\n      mstore\n        /* \"AdminManger.sol\":20555:20561  _erc20 */\n      dup4\n      swap1\n      sub(shl(0xa0, 0x01), 0x01)\n        /* \"AdminManger.sol\":20572:20594  erc20.decreaseApproval */\n      dup3\n      and\n      swap1\n      0x66188463\n      swap1\n        /* \"AdminManger.sol\":20572:20622  erc20.decreaseApproval(_spender, _subtractedValue) */\n      tag_235\n      swap1\n        /* \"AdminManger.sol\":20595:20603  _spender */\n      dup7\n      swap1\n        /* \"AdminManger.sol\":20605:20621  _subtractedValue */\n      dup7\n      swap1\n        /* \"AdminManger.sol\":20572:20622  erc20.decreaseApproval(_spender, _subtractedValue) */\n      0x04\n      add\n      jump(tag_227)\n        /* \"AdminManger.sol\":19619:19965  function revertAll(uint256 tokenID, address _mintableToken)... */\n    tag_188:\n        /* \"AdminManger.sol\":10149:10171  adminExist(msg.sender) */\n      tag_555\n        /* \"AdminManger.sol\":10160:10170  msg.sender */\n      caller\n        /* \"AdminManger.sol\":10149:10159  adminExist */\n      tag_200\n        /* \"AdminManger.sol\":10149:10171  adminExist(msg.sender) */\n      jump\t// in\n    tag_555:\n        /* \"AdminManger.sol\":10149:10184  adminExist(msg.sender) || isOwner() */\n      dup1\n      tag_557\n      jumpi\n      pop\n        /* \"AdminManger.sol\":10175:10184  isOwner() */\n      tag_557\n        /* \"AdminManger.sol\":10175:10182  isOwner */\n      tag_162\n        /* \"AdminManger.sol\":10175:10184  isOwner() */\n      jump\t// in\n    tag_557:\n        /* \"AdminManger.sol\":10128:10245  require(... */\n      tag_558\n      jumpi\n      mload(0x40)\n      shl(0xe5, 0x461bcd)\n      dup2\n      mstore\n      0x04\n      add\n      tag_217\n      swap1\n      jump(tag_218)\n    tag_558:\n        /* \"AdminManger.sol\":19734:19740  broker */\n      sload(0x1c)\n        /* \"AdminManger.sol\":19734:19774  broker.revertAll(_mintableToken,tokenID) */\n      mload(0x40)\n      shl(0xe1, 0x0fc8303d)\n      dup2\n      mstore\n      sub(shl(0xa0, 0x01), 0x01)\n        /* \"AdminManger.sol\":19734:19740  broker */\n      swap1\n      swap2\n      and\n      swap1\n        /* \"AdminManger.sol\":19734:19750  broker.revertAll */\n      0x1f90607a\n      swap1\n        /* \"AdminManger.sol\":19734:19774  broker.revertAll(_mintableToken,tokenID) */\n      tag_561\n      swap1\n        /* \"AdminManger.sol\":19751:19765  _mintableToken */\n      dup5\n      swap1\n        /* \"AdminManger.sol\":19766:19773  tokenID */\n      dup7\n      swap1\n        /* \"AdminManger.sol\":19734:19774  broker.revertAll(_mintableToken,tokenID) */\n      0x04\n      add\n      jump(tag_227)\n    tag_561:\n      0x00\n      mload(0x40)\n      dup1\n      dup4\n      sub\n      dup2\n      0x00\n      dup8\n      dup1\n      extcodesize\n      iszero\n        /* \"--CODEGEN--\":8:17   */\n      dup1\n        /* \"--CODEGEN--\":5:7   */\n      iszero\n      tag_562\n      jumpi\n        /* \"--CODEGEN--\":30:31   */\n      0x00\n        /* \"--CODEGEN--\":27:28   */\n      dup1\n        /* \"--CODEGEN--\":20:32   */\n      revert\n        /* \"--CODEGEN--\":5:7   */\n    tag_562:\n        /* \"AdminManger.sol\":19734:19774  broker.revertAll(_mintableToken,tokenID) */\n      pop\n      gas\n      call\n      iszero\n        /* \"--CODEGEN--\":8:17   */\n      dup1\n        /* \"--CODEGEN--\":5:7   */\n      iszero\n      tag_563\n      jumpi\n        /* \"--CODEGEN--\":45:61   */\n      returndatasize\n        /* \"--CODEGEN--\":42:43   */\n      0x00\n        /* \"--CODEGEN--\":39:40   */\n      dup1\n        /* \"--CODEGEN--\":24:62   */\n      returndatacopy\n        /* \"--CODEGEN--\":77:93   */\n      returndatasize\n        /* \"--CODEGEN--\":74:75   */\n      0x00\n        /* \"--CODEGEN--\":67:94   */\n      revert\n        /* \"--CODEGEN--\":5:7   */\n    tag_563:\n      pop\n      pop\n        /* \"AdminManger.sol\":19789:19958  AdminActionPerformed(... */\n      mload(0x40)\n      tag_273\n      swap3\n      pop\n        /* \"AdminManger.sol\":19876:19899  functionNames.revertAll */\n      0x11\n      swap2\n      pop\n        /* \"AdminManger.sol\":19789:19958  AdminActionPerformed(... */\n      jump(tag_225)\n        /* \"AdminManger.sol\":2383:2490  function transferOwnership(address newOwner) public onlyOwner {... */\n    tag_192:\n        /* \"AdminManger.sol\":1516:1525  isOwner() */\n      tag_567\n        /* \"AdminManger.sol\":1516:1523  isOwner */\n      tag_162\n        /* \"AdminManger.sol\":1516:1525  isOwner() */\n      jump\t// in\n    tag_567:\n        /* \"AdminManger.sol\":1508:1562  require(isOwner(), \"Ownable: caller is not the owner\") */\n      tag_568\n      jumpi\n      mload(0x40)\n      shl(0xe5, 0x461bcd)\n      dup2\n      mstore\n      0x04\n      add\n      tag_217\n      swap1\n      jump(tag_247)\n    tag_568:\n        /* \"AdminManger.sol\":2455:2483  _transferOwnership(newOwner) */\n      tag_345\n        /* \"AdminManger.sol\":2474:2482  newOwner */\n      dup2\n        /* \"AdminManger.sol\":2455:2473  _transferOwnership */\n      tag_572\n        /* \"AdminManger.sol\":2455:2483  _transferOwnership(newOwner) */\n      jump\t// in\n        /* \"AdminManger.sol\":23077:23272  function withdrawERC20(address _erc20Token) public onlyOwner {... */\n    tag_196:\n        /* \"AdminManger.sol\":1516:1525  isOwner() */\n      tag_574\n        /* \"AdminManger.sol\":1516:1523  isOwner */\n      tag_162\n        /* \"AdminManger.sol\":1516:1525  isOwner() */\n      jump\t// in\n    tag_574:\n        /* \"AdminManger.sol\":1508:1562  require(isOwner(), \"Ownable: caller is not the owner\") */\n      tag_575\n      jumpi\n      mload(0x40)\n      shl(0xe5, 0x461bcd)\n      dup2\n      mstore\n      0x04\n      add\n      tag_217\n      swap1\n      jump(tag_247)\n    tag_575:\n        /* \"AdminManger.sol\":23229:23264  erc20Token.balanceOf(address(this)) */\n      mload(0x40)\n      shl(0xe0, 0x70a08231)\n      dup2\n      mstore\n        /* \"AdminManger.sol\":23175:23186  _erc20Token */\n      dup2\n      swap1\n      sub(shl(0xa0, 0x01), 0x01)\n        /* \"AdminManger.sol\":23197:23216  erc20Token.transfer */\n      dup3\n      and\n      swap1\n      0xa9059cbb\n      swap1\n        /* \"AdminManger.sol\":23217:23227  msg.sender */\n      caller\n      swap1\n        /* \"AdminManger.sol\":23197:23216  erc20Token.transfer */\n      dup4\n      swap1\n        /* \"AdminManger.sol\":23229:23249  erc20Token.balanceOf */\n      0x70a08231\n      swap1\n        /* \"AdminManger.sol\":23229:23264  erc20Token.balanceOf(address(this)) */\n      tag_578\n      swap1\n        /* \"AdminManger.sol\":23258:23262  this */\n      address\n      swap1\n        /* \"AdminManger.sol\":23229:23264  erc20Token.balanceOf(address(this)) */\n      0x04\n      add\n      jump(tag_579)\n    tag_578:\n      0x20\n      mload(0x40)\n      dup1\n      dup4\n      sub\n      dup2\n      dup7\n      dup1\n      extcodesize\n      iszero\n        /* \"--CODEGEN--\":8:17   */\n      dup1\n        /* \"--CODEGEN--\":5:7   */\n      iszero\n      tag_580\n      jumpi\n        /* \"--CODEGEN--\":30:31   */\n      0x00\n        /* \"--CODEGEN--\":27:28   */\n      dup1\n        /* \"--CODEGEN--\":20:32   */\n      revert\n        /* \"--CODEGEN--\":5:7   */\n    tag_580:\n        /* \"AdminManger.sol\":23229:23264  erc20Token.balanceOf(address(this)) */\n      pop\n      gas\n      staticcall\n      iszero\n        /* \"--CODEGEN--\":8:17   */\n      dup1\n        /* \"--CODEGEN--\":5:7   */\n      iszero\n      tag_581\n      jumpi\n        /* \"--CODEGEN--\":45:61   */\n      returndatasize\n        /* \"--CODEGEN--\":42:43   */\n      0x00\n        /* \"--CODEGEN--\":39:40   */\n      dup1\n        /* \"--CODEGEN--\":24:62   */\n      returndatacopy\n        /* \"--CODEGEN--\":77:93   */\n      returndatasize\n        /* \"--CODEGEN--\":74:75   */\n      0x00\n        /* \"--CODEGEN--\":67:94   */\n      revert\n        /* \"--CODEGEN--\":5:7   */\n    tag_581:\n        /* \"AdminManger.sol\":23229:23264  erc20Token.balanceOf(address(this)) */\n      pop\n      pop\n      pop\n      pop\n      mload(0x40)\n      returndatasize\n        /* \"--CODEGEN--\":101:105   */\n      0x1f\n        /* \"--CODEGEN--\":97:106   */\n      not\n        /* \"--CODEGEN--\":90:94   */\n      0x1f\n        /* \"--CODEGEN--\":84:88   */\n      dup3\n        /* \"--CODEGEN--\":80:95   */\n      add\n        /* \"--CODEGEN--\":76:107   */\n      and\n        /* \"--CODEGEN--\":69:74   */\n      dup3\n        /* \"--CODEGEN--\":65:108   */\n      add\n        /* \"--CODEGEN--\":126:132   */\n      dup1\n        /* \"--CODEGEN--\":120:124   */\n      0x40\n        /* \"--CODEGEN--\":113:133   */\n      mstore\n        /* \"--CODEGEN--\":0:138   */\n      pop\n        /* \"AdminManger.sol\":23229:23264  erc20Token.balanceOf(address(this)) */\n      tag_582\n      swap2\n      swap1\n      dup2\n      add\n      swap1\n      jump(tag_583)\n    tag_582:\n        /* \"AdminManger.sol\":23197:23265  erc20Token.transfer(msg.sender, erc20Token.balanceOf(address(this))) */\n      mload(0x40)\n      dup4\n      0xffffffff\n      and\n      0xe0\n      shl\n      dup2\n      mstore\n      0x04\n      add\n      tag_584\n      swap3\n      swap2\n      swap1\n      jump(tag_585)\n    tag_584:\n      0x00\n      mload(0x40)\n      dup1\n      dup4\n      sub\n      dup2\n      0x00\n      dup8\n      dup1\n      extcodesize\n      iszero\n        /* \"--CODEGEN--\":8:17   */\n      dup1\n        /* \"--CODEGEN--\":5:7   */\n      iszero\n      tag_586\n      jumpi\n        /* \"--CODEGEN--\":30:31   */\n      0x00\n        /* \"--CODEGEN--\":27:28   */\n      dup1\n        /* \"--CODEGEN--\":20:32   */\n      revert\n        /* \"--CODEGEN--\":5:7   */\n    tag_586:\n        /* \"AdminManger.sol\":23197:23265  erc20Token.transfer(msg.sender, erc20Token.balanceOf(address(this))) */\n      pop\n      gas\n      call\n      iszero\n        /* \"--CODEGEN--\":8:17   */\n      dup1\n        /* \"--CODEGEN--\":5:7   */\n      iszero\n      tag_587\n      jumpi\n        /* \"--CODEGEN--\":45:61   */\n      returndatasize\n        /* \"--CODEGEN--\":42:43   */\n      0x00\n        /* \"--CODEGEN--\":39:40   */\n      dup1\n        /* \"--CODEGEN--\":24:62   */\n      returndatacopy\n        /* \"--CODEGEN--\":77:93   */\n      returndatasize\n        /* \"--CODEGEN--\":74:75   */\n      0x00\n        /* \"--CODEGEN--\":67:94   */\n      revert\n        /* \"--CODEGEN--\":5:7   */\n    tag_587:\n        /* \"AdminManger.sol\":23197:23265  erc20Token.transfer(msg.sender, erc20Token.balanceOf(address(this))) */\n      pop\n      pop\n      pop\n      pop\n        /* \"AdminManger.sol\":1572:1573  _ */\n      pop\n        /* \"AdminManger.sol\":23077:23272  function withdrawERC20(address _erc20Token) public onlyOwner {... */\n      pop\n      jump\t// out\n        /* \"AdminManger.sol\":9728:9968  function adminExist(address _sender) public view returns (bool) {... */\n    tag_200:\n        /* \"AdminManger.sol\":9786:9790  bool */\n      0x00\n      dup1\n        /* \"AdminManger.sol\":9802:9940  for (uint256 i = 0; i < admins.length; i++) {... */\n    tag_589:\n        /* \"AdminManger.sol\":9826:9832  admins */\n      0x01\n        /* \"AdminManger.sol\":9826:9839  admins.length */\n      sload\n        /* \"AdminManger.sol\":9822:9839  i < admins.length */\n      dup2\n      lt\n        /* \"AdminManger.sol\":9802:9940  for (uint256 i = 0; i < admins.length; i++) {... */\n      iszero\n      tag_590\n      jumpi\n        /* \"AdminManger.sol\":9875:9881  admins */\n      0x01\n        /* \"AdminManger.sol\":9882:9883  i */\n      dup2\n        /* \"AdminManger.sol\":9875:9884  admins[i] */\n      dup2\n      sload\n      dup2\n      lt\n      tag_592\n      jumpi\n      invalid\n    tag_592:\n      0x00\n      swap2\n      dup3\n      mstore\n      0x20\n      swap1\n      swap2\n      keccak256\n      add\n      sload\n      sub(shl(0xa0, 0x01), 0x01)\n        /* \"AdminManger.sol\":9864:9884  _sender == admins[i] */\n      dup5\n      dup2\n      and\n        /* \"AdminManger.sol\":9875:9884  admins[i] */\n      swap2\n      and\n        /* \"AdminManger.sol\":9864:9884  _sender == admins[i] */\n      eq\n        /* \"AdminManger.sol\":9860:9930  if (_sender == admins[i]) {... */\n      iszero\n      tag_594\n      jumpi\n        /* \"AdminManger.sol\":9911:9915  true */\n      0x01\n        /* \"AdminManger.sol\":9904:9915  return true */\n      swap2\n      pop\n      pop\n      jump(tag_588)\n        /* \"AdminManger.sol\":9860:9930  if (_sender == admins[i]) {... */\n    tag_594:\n        /* \"AdminManger.sol\":9841:9844  i++ */\n      0x01\n      add\n        /* \"AdminManger.sol\":9802:9940  for (uint256 i = 0; i < admins.length; i++) {... */\n      jump(tag_589)\n    tag_590:\n      pop\n        /* \"AdminManger.sol\":9956:9961  false */\n      0x00\n        /* \"AdminManger.sol\":9949:9961  return false */\n      swap1\n      pop\n        /* \"AdminManger.sol\":9728:9968  function adminExist(address _sender) public view returns (bool) {... */\n    tag_588:\n      swap2\n      swap1\n      pop\n      jump\t// out\n        /* \"AdminManger.sol\":13705:14129  function erc721Mint(... */\n    tag_206:\n        /* \"AdminManger.sol\":10149:10171  adminExist(msg.sender) */\n      tag_596\n        /* \"AdminManger.sol\":10160:10170  msg.sender */\n      caller\n        /* \"AdminManger.sol\":10149:10159  adminExist */\n      tag_200\n        /* \"AdminManger.sol\":10149:10171  adminExist(msg.sender) */\n      jump\t// in\n    tag_596:\n        /* \"AdminManger.sol\":10149:10184  adminExist(msg.sender) || isOwner() */\n      dup1\n      tag_598\n      jumpi\n      pop\n        /* \"AdminManger.sol\":10175:10184  isOwner() */\n      tag_598\n        /* \"AdminManger.sol\":10175:10182  isOwner */\n      tag_162\n        /* \"AdminManger.sol\":10175:10184  isOwner() */\n      jump\t// in\n    tag_598:\n        /* \"AdminManger.sol\":10128:10245  require(... */\n      tag_599\n      jumpi\n      mload(0x40)\n      shl(0xe5, 0x461bcd)\n      dup2\n      mstore\n      0x04\n      add\n      tag_217\n      swap1\n      jump(tag_218)\n    tag_599:\n        /* \"AdminManger.sol\":13916:14073  AdminActionPerformed(... */\n      mload(0x40)\n        /* \"AdminManger.sol\":13886:13900  _ERC721Address */\n      dup4\n      swap1\n        /* \"AdminManger.sol\":13916:14073  AdminActionPerformed(... */\n      tag_602\n      swap1\n        /* \"AdminManger.sol\":14002:14020  functionNames.mint */\n      0x05\n      swap1\n        /* \"AdminManger.sol\":13916:14073  AdminActionPerformed(... */\n      jump(tag_225)\n    tag_602:\n      mload(0x40)\n      dup1\n      swap2\n      sub\n      swap1\n      keccak256\n        /* \"AdminManger.sol\":13974:13988  _ERC721Address */\n      dup5\n      sub(shl(0xa0, 0x01), 0x01)\n        /* \"AdminManger.sol\":13916:14073  AdminActionPerformed(... */\n      and\n        /* \"AdminManger.sol\":13950:13960  msg.sender */\n      caller\n      sub(shl(0xa0, 0x01), 0x01)\n        /* \"AdminManger.sol\":13916:14073  AdminActionPerformed(... */\n      and\n      0x00\n      dup1\n      mload\n      0x20\n      data_dd45610e757c5493225a14df8d20081e772472041729f1452d392d031cca6d9d\n      dup4\n      codecopy\n      dup2\n      mload\n      swap2\n      mstore\n        /* \"AdminManger.sol\":14034:14048  _ERC721Address */\n      dup8\n        /* \"AdminManger.sol\":14062:14063  0 */\n      0x00\n        /* \"AdminManger.sol\":13916:14073  AdminActionPerformed(... */\n      mload(0x40)\n      tag_603\n      swap3\n      swap2\n      swap1\n      jump(tag_604)\n    tag_603:\n      mload(0x40)\n      dup1\n      swap2\n      sub\n      swap1\n      log4\n        /* \"AdminManger.sol\":14090:14122  erc721.mint(tokenURI, _royality) */\n      mload(0x40)\n      shl(0xe1, 0x02b580e7)\n      dup2\n      mstore\n      sub(shl(0xa0, 0x01), 0x01)\n        /* \"AdminManger.sol\":14090:14101  erc721.mint */\n      dup3\n      and\n      swap1\n      0x056b01ce\n      swap1\n        /* \"AdminManger.sol\":14090:14122  erc721.mint(tokenURI, _royality) */\n      tag_297\n      swap1\n        /* \"AdminManger.sol\":14102:14110  tokenURI */\n      dup7\n      swap1\n        /* \"AdminManger.sol\":14112:14121  _royality */\n      dup7\n      swap1\n        /* \"AdminManger.sol\":14090:14122  erc721.mint(tokenURI, _royality) */\n      0x04\n      add\n      jump(tag_606)\n        /* \"AdminManger.sol\":17517:17952  function updatePrice(... */\n    tag_211:\n        /* \"AdminManger.sol\":10149:10171  adminExist(msg.sender) */\n      tag_610\n        /* \"AdminManger.sol\":10160:10170  msg.sender */\n      caller\n        /* \"AdminManger.sol\":10149:10159  adminExist */\n      tag_200\n        /* \"AdminManger.sol\":10149:10171  adminExist(msg.sender) */\n      jump\t// in\n    tag_610:\n        /* \"AdminManger.sol\":10149:10184  adminExist(msg.sender) || isOwner() */\n      dup1\n      tag_612\n      jumpi\n      pop\n        /* \"AdminManger.sol\":10175:10184  isOwner() */\n      tag_612\n        /* \"AdminManger.sol\":10175:10182  isOwner */\n      tag_162\n        /* \"AdminManger.sol\":10175:10184  isOwner() */\n      jump\t// in\n    tag_612:\n        /* \"AdminManger.sol\":10128:10245  require(... */\n      tag_613\n      jumpi\n      mload(0x40)\n      shl(0xe5, 0x461bcd)\n      dup2\n      mstore\n      0x04\n      add\n      tag_217\n      swap1\n      jump(tag_218)\n    tag_613:\n        /* \"AdminManger.sol\":17692:17698  broker */\n      sload(0x1c)\n        /* \"AdminManger.sol\":17692:17759  broker.updatePrice(tokenID, _mintableToken, _newPrice, _erc20Token) */\n      mload(0x40)\n      not(sub(shl(0xe0, 0x712425), 0x01))\n      dup2\n      mstore\n      sub(shl(0xa0, 0x01), 0x01)\n        /* \"AdminManger.sol\":17692:17698  broker */\n      swap1\n      swap2\n      and\n      swap1\n        /* \"AdminManger.sol\":17692:17710  broker.updatePrice */\n      0xff8edbdb\n      swap1\n        /* \"AdminManger.sol\":17692:17759  broker.updatePrice(tokenID, _mintableToken, _newPrice, _erc20Token) */\n      tag_616\n      swap1\n        /* \"AdminManger.sol\":17711:17718  tokenID */\n      dup8\n      swap1\n        /* \"AdminManger.sol\":17720:17734  _mintableToken */\n      dup8\n      swap1\n        /* \"AdminManger.sol\":17736:17745  _newPrice */\n      dup8\n      swap1\n        /* \"AdminManger.sol\":17747:17758  _erc20Token */\n      dup8\n      swap1\n        /* \"AdminManger.sol\":17692:17759  broker.updatePrice(tokenID, _mintableToken, _newPrice, _erc20Token) */\n      0x04\n      add\n      jump(tag_617)\n    tag_616:\n      0x00\n      mload(0x40)\n      dup1\n      dup4\n      sub\n      dup2\n      0x00\n      dup8\n      dup1\n      extcodesize\n      iszero\n        /* \"--CODEGEN--\":8:17   */\n      dup1\n        /* \"--CODEGEN--\":5:7   */\n      iszero\n      tag_618\n      jumpi\n        /* \"--CODEGEN--\":30:31   */\n      0x00\n        /* \"--CODEGEN--\":27:28   */\n      dup1\n        /* \"--CODEGEN--\":20:32   */\n      revert\n        /* \"--CODEGEN--\":5:7   */\n    tag_618:\n        /* \"AdminManger.sol\":17692:17759  broker.updatePrice(tokenID, _mintableToken, _newPrice, _erc20Token) */\n      pop\n      gas\n      call\n      iszero\n        /* \"--CODEGEN--\":8:17   */\n      dup1\n        /* \"--CODEGEN--\":5:7   */\n      iszero\n      tag_619\n      jumpi\n        /* \"--CODEGEN--\":45:61   */\n      returndatasize\n        /* \"--CODEGEN--\":42:43   */\n      0x00\n        /* \"--CODEGEN--\":39:40   */\n      dup1\n        /* \"--CODEGEN--\":24:62   */\n      returndatacopy\n        /* \"--CODEGEN--\":77:93   */\n      returndatasize\n        /* \"--CODEGEN--\":74:75   */\n      0x00\n        /* \"--CODEGEN--\":67:94   */\n      revert\n        /* \"--CODEGEN--\":5:7   */\n    tag_619:\n      pop\n      pop\n        /* \"AdminManger.sol\":17774:17945  AdminActionPerformed(... */\n      mload(0x40)\n      tag_323\n      swap3\n      pop\n        /* \"AdminManger.sol\":17861:17886  functionNames.updatePrice */\n      0x0c\n      swap2\n      pop\n        /* \"AdminManger.sol\":17774:17945  AdminActionPerformed(... */\n      jump(tag_225)\n        /* \"AdminManger.sol\":479:575  function _msgSender() internal view returns (address payable) {... */\n    tag_492:\n        /* \"AdminManger.sol\":558:568  msg.sender */\n      caller\n        /* \"AdminManger.sol\":479:575  function _msgSender() internal view returns (address payable) {... */\n      swap1\n      jump\t// out\n        /* \"AdminManger.sol\":2591:2850  function _transferOwnership(address newOwner) internal {... */\n    tag_572:\n      sub(shl(0xa0, 0x01), 0x01)\n        /* \"AdminManger.sol\":2677:2699  newOwner != address(0) */\n      dup2\n      and\n        /* \"AdminManger.sol\":2656:2763  require(... */\n      tag_624\n      jumpi\n      mload(0x40)\n      shl(0xe5, 0x461bcd)\n      dup2\n      mstore\n      0x04\n      add\n      tag_217\n      swap1\n      jump(tag_626)\n    tag_624:\n        /* \"AdminManger.sol\":2799:2805  _owner */\n      0x00\n      dup1\n      sload\n        /* \"AdminManger.sol\":2778:2816  OwnershipTransferred(_owner, newOwner) */\n      mload(0x40)\n      sub(shl(0xa0, 0x01), 0x01)\n      dup1\n      dup6\n      and\n      swap4\n        /* \"AdminManger.sol\":2799:2805  _owner */\n      swap3\n      and\n      swap2\n        /* \"AdminManger.sol\":2778:2816  OwnershipTransferred(_owner, newOwner) */\n      0x8be0079c531659141344cd1fd0a4f28419497f9722a3daafe3b4186f6b6457e0\n      swap2\n      log3\n        /* \"AdminManger.sol\":2826:2832  _owner */\n      0x00\n        /* \"AdminManger.sol\":2826:2843  _owner = newOwner */\n      dup1\n      sload\n      not(sub(shl(0xa0, 0x01), 0x01))\n      and\n      sub(shl(0xa0, 0x01), 0x01)\n      swap3\n      swap1\n      swap3\n      and\n      swap2\n      swap1\n      swap2\n      or\n      swap1\n      sstore\n        /* \"AdminManger.sol\":2591:2850  function _transferOwnership(address newOwner) internal {... */\n      jump\t// out\n        /* \"--CODEGEN--\":5:135   */\n    tag_628:\n        /* \"--CODEGEN--\":72:92   */\n      dup1\n      calldataload\n        /* \"--CODEGEN--\":97:130   */\n      tag_629\n        /* \"--CODEGEN--\":72:92   */\n      dup2\n        /* \"--CODEGEN--\":97:130   */\n      jump(tag_630)\n    tag_629:\n        /* \"--CODEGEN--\":57:135   */\n      swap3\n      swap2\n      pop\n      pop\n      jump\n        /* \"--CODEGEN--\":142:276   */\n    tag_631:\n        /* \"--CODEGEN--\":220:233   */\n      dup1\n      mload\n        /* \"--CODEGEN--\":238:271   */\n      tag_629\n        /* \"--CODEGEN--\":220:233   */\n      dup2\n        /* \"--CODEGEN--\":238:271   */\n      jump(tag_630)\n        /* \"--CODEGEN--\":283:407   */\n    tag_633:\n        /* \"--CODEGEN--\":347:367   */\n      dup1\n      calldataload\n        /* \"--CODEGEN--\":372:402   */\n      tag_629\n        /* \"--CODEGEN--\":347:367   */\n      dup2\n        /* \"--CODEGEN--\":372:402   */\n      jump(tag_635)\n        /* \"--CODEGEN--\":415:855   */\n    tag_636:\n      0x00\n        /* \"--CODEGEN--\":516:519   */\n      dup3\n        /* \"--CODEGEN--\":509:513   */\n      0x1f\n        /* \"--CODEGEN--\":501:507   */\n      dup4\n        /* \"--CODEGEN--\":497:514   */\n      add\n        /* \"--CODEGEN--\":493:520   */\n      slt\n        /* \"--CODEGEN--\":483:485   */\n      tag_637\n      jumpi\n        /* \"--CODEGEN--\":534:535   */\n      0x00\n        /* \"--CODEGEN--\":531:532   */\n      dup1\n        /* \"--CODEGEN--\":524:536   */\n      revert\n        /* \"--CODEGEN--\":483:485   */\n    tag_637:\n        /* \"--CODEGEN--\":571:577   */\n      dup2\n        /* \"--CODEGEN--\":558:578   */\n      calldataload\n        /* \"--CODEGEN--\":593:657   */\n      tag_638\n        /* \"--CODEGEN--\":608:656   */\n      tag_639\n        /* \"--CODEGEN--\":649:655   */\n      dup3\n        /* \"--CODEGEN--\":608:656   */\n      jump(tag_640)\n    tag_639:\n        /* \"--CODEGEN--\":593:657   */\n      jump(tag_641)\n    tag_638:\n        /* \"--CODEGEN--\":584:657   */\n      swap2\n      pop\n        /* \"--CODEGEN--\":677:683   */\n      dup1\n        /* \"--CODEGEN--\":670:675   */\n      dup3\n        /* \"--CODEGEN--\":663:684   */\n      mstore\n        /* \"--CODEGEN--\":713:717   */\n      0x20\n        /* \"--CODEGEN--\":705:711   */\n      dup4\n        /* \"--CODEGEN--\":701:718   */\n      add\n        /* \"--CODEGEN--\":746:750   */\n      0x20\n        /* \"--CODEGEN--\":739:744   */\n      dup4\n        /* \"--CODEGEN--\":735:751   */\n      add\n        /* \"--CODEGEN--\":781:784   */\n      dup6\n        /* \"--CODEGEN--\":772:778   */\n      dup4\n        /* \"--CODEGEN--\":767:770   */\n      dup4\n        /* \"--CODEGEN--\":763:779   */\n      add\n        /* \"--CODEGEN--\":760:785   */\n      gt\n        /* \"--CODEGEN--\":757:759   */\n      iszero\n      tag_642\n      jumpi\n        /* \"--CODEGEN--\":798:799   */\n      0x00\n        /* \"--CODEGEN--\":795:796   */\n      dup1\n        /* \"--CODEGEN--\":788:800   */\n      revert\n        /* \"--CODEGEN--\":757:759   */\n    tag_642:\n        /* \"--CODEGEN--\":808:849   */\n      tag_643\n        /* \"--CODEGEN--\":842:848   */\n      dup4\n        /* \"--CODEGEN--\":837:840   */\n      dup3\n        /* \"--CODEGEN--\":832:835   */\n      dup5\n        /* \"--CODEGEN--\":808:849   */\n      jump(tag_644)\n    tag_643:\n        /* \"--CODEGEN--\":476:855   */\n      pop\n      pop\n      pop\n      swap3\n      swap2\n      pop\n      pop\n      jump\n        /* \"--CODEGEN--\":1315:1759   */\n    tag_652:\n      0x00\n        /* \"--CODEGEN--\":1428:1431   */\n      dup3\n        /* \"--CODEGEN--\":1421:1425   */\n      0x1f\n        /* \"--CODEGEN--\":1413:1419   */\n      dup4\n        /* \"--CODEGEN--\":1409:1426   */\n      add\n        /* \"--CODEGEN--\":1405:1432   */\n      slt\n        /* \"--CODEGEN--\":1395:1397   */\n      tag_653\n      jumpi\n        /* \"--CODEGEN--\":1446:1447   */\n      0x00\n        /* \"--CODEGEN--\":1443:1444   */\n      dup1\n        /* \"--CODEGEN--\":1436:1448   */\n      revert\n        /* \"--CODEGEN--\":1395:1397   */\n    tag_653:\n        /* \"--CODEGEN--\":1476:1482   */\n      dup2\n        /* \"--CODEGEN--\":1470:1483   */\n      mload\n        /* \"--CODEGEN--\":1498:1563   */\n      tag_654\n        /* \"--CODEGEN--\":1513:1562   */\n      tag_639\n        /* \"--CODEGEN--\":1555:1561   */\n      dup3\n        /* \"--CODEGEN--\":1513:1562   */\n      jump(tag_640)\n        /* \"--CODEGEN--\":1498:1563   */\n    tag_654:\n        /* \"--CODEGEN--\":1489:1563   */\n      swap2\n      pop\n        /* \"--CODEGEN--\":1583:1589   */\n      dup1\n        /* \"--CODEGEN--\":1576:1581   */\n      dup3\n        /* \"--CODEGEN--\":1569:1590   */\n      mstore\n        /* \"--CODEGEN--\":1619:1623   */\n      0x20\n        /* \"--CODEGEN--\":1611:1617   */\n      dup4\n        /* \"--CODEGEN--\":1607:1624   */\n      add\n        /* \"--CODEGEN--\":1652:1656   */\n      0x20\n        /* \"--CODEGEN--\":1645:1650   */\n      dup4\n        /* \"--CODEGEN--\":1641:1657   */\n      add\n        /* \"--CODEGEN--\":1687:1690   */\n      dup6\n        /* \"--CODEGEN--\":1678:1684   */\n      dup4\n        /* \"--CODEGEN--\":1673:1676   */\n      dup4\n        /* \"--CODEGEN--\":1669:1685   */\n      add\n        /* \"--CODEGEN--\":1666:1691   */\n      gt\n        /* \"--CODEGEN--\":1663:1665   */\n      iszero\n      tag_656\n      jumpi\n        /* \"--CODEGEN--\":1704:1705   */\n      0x00\n        /* \"--CODEGEN--\":1701:1702   */\n      dup1\n        /* \"--CODEGEN--\":1694:1706   */\n      revert\n        /* \"--CODEGEN--\":1663:1665   */\n    tag_656:\n        /* \"--CODEGEN--\":1714:1753   */\n      tag_643\n        /* \"--CODEGEN--\":1746:1752   */\n      dup4\n        /* \"--CODEGEN--\":1741:1744   */\n      dup3\n        /* \"--CODEGEN--\":1736:1739   */\n      dup5\n        /* \"--CODEGEN--\":1714:1753   */\n      jump(tag_658)\n        /* \"--CODEGEN--\":1767:1897   */\n    tag_659:\n        /* \"--CODEGEN--\":1834:1854   */\n      dup1\n      calldataload\n        /* \"--CODEGEN--\":1859:1892   */\n      tag_629\n        /* \"--CODEGEN--\":1834:1854   */\n      dup2\n        /* \"--CODEGEN--\":1859:1892   */\n      jump(tag_661)\n        /* \"--CODEGEN--\":1904:2038   */\n    tag_662:\n        /* \"--CODEGEN--\":1982:1995   */\n      dup1\n      mload\n        /* \"--CODEGEN--\":2000:2033   */\n      tag_629\n        /* \"--CODEGEN--\":1982:1995   */\n      dup2\n        /* \"--CODEGEN--\":2000:2033   */\n      jump(tag_661)\n        /* \"--CODEGEN--\":2045:2286   */\n    tag_75:\n      0x00\n        /* \"--CODEGEN--\":2149:2151   */\n      0x20\n        /* \"--CODEGEN--\":2137:2146   */\n      dup3\n        /* \"--CODEGEN--\":2128:2135   */\n      dup5\n        /* \"--CODEGEN--\":2124:2147   */\n      sub\n        /* \"--CODEGEN--\":2120:2152   */\n      slt\n        /* \"--CODEGEN--\":2117:2119   */\n      iszero\n      tag_664\n      jumpi\n        /* \"--CODEGEN--\":2165:2166   */\n      0x00\n        /* \"--CODEGEN--\":2162:2163   */\n      dup1\n        /* \"--CODEGEN--\":2155:2167   */\n      revert\n        /* \"--CODEGEN--\":2117:2119   */\n    tag_664:\n        /* \"--CODEGEN--\":2200:2201   */\n      0x00\n        /* \"--CODEGEN--\":2217:2270   */\n      tag_242\n        /* \"--CODEGEN--\":2262:2269   */\n      dup5\n        /* \"--CODEGEN--\":2242:2251   */\n      dup5\n        /* \"--CODEGEN--\":2217:2270   */\n      jump(tag_628)\n        /* \"--CODEGEN--\":2293:2556   */\n    tag_363:\n      0x00\n        /* \"--CODEGEN--\":2408:2410   */\n      0x20\n        /* \"--CODEGEN--\":2396:2405   */\n      dup3\n        /* \"--CODEGEN--\":2387:2394   */\n      dup5\n        /* \"--CODEGEN--\":2383:2406   */\n      sub\n        /* \"--CODEGEN--\":2379:2411   */\n      slt\n        /* \"--CODEGEN--\":2376:2378   */\n      iszero\n      tag_666\n      jumpi\n        /* \"--CODEGEN--\":2424:2425   */\n      0x00\n        /* \"--CODEGEN--\":2421:2422   */\n      dup1\n        /* \"--CODEGEN--\":2414:2426   */\n      revert\n        /* \"--CODEGEN--\":2376:2378   */\n    tag_666:\n        /* \"--CODEGEN--\":2459:2460   */\n      0x00\n        /* \"--CODEGEN--\":2476:2540   */\n      tag_242\n        /* \"--CODEGEN--\":2532:2539   */\n      dup5\n        /* \"--CODEGEN--\":2512:2521   */\n      dup5\n        /* \"--CODEGEN--\":2476:2540   */\n      jump(tag_631)\n        /* \"--CODEGEN--\":2563:3180   */\n    tag_51:\n      0x00\n      dup1\n      0x00\n      dup1\n        /* \"--CODEGEN--\":2718:2721   */\n      0x80\n        /* \"--CODEGEN--\":2706:2715   */\n      dup6\n        /* \"--CODEGEN--\":2697:2704   */\n      dup8\n        /* \"--CODEGEN--\":2693:2716   */\n      sub\n        /* \"--CODEGEN--\":2689:2722   */\n      slt\n        /* \"--CODEGEN--\":2686:2688   */\n      iszero\n      tag_668\n      jumpi\n        /* \"--CODEGEN--\":2735:2736   */\n      0x00\n        /* \"--CODEGEN--\":2732:2733   */\n      dup1\n        /* \"--CODEGEN--\":2725:2737   */\n      revert\n        /* \"--CODEGEN--\":2686:2688   */\n    tag_668:\n        /* \"--CODEGEN--\":2770:2771   */\n      0x00\n        /* \"--CODEGEN--\":2787:2840   */\n      tag_669\n        /* \"--CODEGEN--\":2832:2839   */\n      dup8\n        /* \"--CODEGEN--\":2812:2821   */\n      dup8\n        /* \"--CODEGEN--\":2787:2840   */\n      jump(tag_628)\n    tag_669:\n        /* \"--CODEGEN--\":2777:2840   */\n      swap5\n      pop\n        /* \"--CODEGEN--\":2749:2846   */\n      pop\n        /* \"--CODEGEN--\":2877:2879   */\n      0x20\n        /* \"--CODEGEN--\":2895:2948   */\n      tag_670\n        /* \"--CODEGEN--\":2940:2947   */\n      dup8\n        /* \"--CODEGEN--\":2931:2937   */\n      dup3\n        /* \"--CODEGEN--\":2920:2929   */\n      dup9\n        /* \"--CODEGEN--\":2916:2938   */\n      add\n        /* \"--CODEGEN--\":2895:2948   */\n      jump(tag_628)\n    tag_670:\n        /* \"--CODEGEN--\":2885:2948   */\n      swap4\n      pop\n        /* \"--CODEGEN--\":2856:2954   */\n      pop\n        /* \"--CODEGEN--\":2985:2987   */\n      0x40\n        /* \"--CODEGEN--\":3003:3056   */\n      tag_671\n        /* \"--CODEGEN--\":3048:3055   */\n      dup8\n        /* \"--CODEGEN--\":3039:3045   */\n      dup3\n        /* \"--CODEGEN--\":3028:3037   */\n      dup9\n        /* \"--CODEGEN--\":3024:3046   */\n      add\n        /* \"--CODEGEN--\":3003:3056   */\n      jump(tag_628)\n    tag_671:\n        /* \"--CODEGEN--\":2993:3056   */\n      swap3\n      pop\n        /* \"--CODEGEN--\":2964:3062   */\n      pop\n        /* \"--CODEGEN--\":3093:3095   */\n      0x60\n        /* \"--CODEGEN--\":3111:3164   */\n      tag_672\n        /* \"--CODEGEN--\":3156:3163   */\n      dup8\n        /* \"--CODEGEN--\":3147:3153   */\n      dup3\n        /* \"--CODEGEN--\":3136:3145   */\n      dup9\n        /* \"--CODEGEN--\":3132:3154   */\n      add\n        /* \"--CODEGEN--\":3111:3164   */\n      jump(tag_659)\n    tag_672:\n        /* \"--CODEGEN--\":3101:3164   */\n      swap2\n      pop\n        /* \"--CODEGEN--\":3072:3170   */\n      pop\n        /* \"--CODEGEN--\":2680:3180   */\n      swap3\n      swap6\n      swap2\n      swap5\n      pop\n      swap3\n      pop\n      jump\n        /* \"--CODEGEN--\":3187:4034   */\n    tag_122:\n      0x00\n      dup1\n      0x00\n      dup1\n      0x00\n        /* \"--CODEGEN--\":3368:3371   */\n      0xa0\n        /* \"--CODEGEN--\":3356:3365   */\n      dup7\n        /* \"--CODEGEN--\":3347:3354   */\n      dup9\n        /* \"--CODEGEN--\":3343:3366   */\n      sub\n        /* \"--CODEGEN--\":3339:3372   */\n      slt\n        /* \"--CODEGEN--\":3336:3338   */\n      iszero\n      tag_673\n      jumpi\n        /* \"--CODEGEN--\":3385:3386   */\n      0x00\n        /* \"--CODEGEN--\":3382:3383   */\n      dup1\n        /* \"--CODEGEN--\":3375:3387   */\n      revert\n        /* \"--CODEGEN--\":3336:3338   */\n    tag_673:\n        /* \"--CODEGEN--\":3420:3421   */\n      0x00\n        /* \"--CODEGEN--\":3437:3490   */\n      tag_674\n        /* \"--CODEGEN--\":3482:3489   */\n      dup9\n        /* \"--CODEGEN--\":3462:3471   */\n      dup9\n        /* \"--CODEGEN--\":3437:3490   */\n      jump(tag_628)\n    tag_674:\n        /* \"--CODEGEN--\":3427:3490   */\n      swap6\n      pop\n        /* \"--CODEGEN--\":3399:3496   */\n      pop\n        /* \"--CODEGEN--\":3527:3529   */\n      0x20\n        /* \"--CODEGEN--\":3545:3598   */\n      tag_675\n        /* \"--CODEGEN--\":3590:3597   */\n      dup9\n        /* \"--CODEGEN--\":3581:3587   */\n      dup3\n        /* \"--CODEGEN--\":3570:3579   */\n      dup10\n        /* \"--CODEGEN--\":3566:3588   */\n      add\n        /* \"--CODEGEN--\":3545:3598   */\n      jump(tag_628)\n    tag_675:\n        /* \"--CODEGEN--\":3535:3598   */\n      swap5\n      pop\n        /* \"--CODEGEN--\":3506:3604   */\n      pop\n        /* \"--CODEGEN--\":3635:3637   */\n      0x40\n        /* \"--CODEGEN--\":3653:3706   */\n      tag_676\n        /* \"--CODEGEN--\":3698:3705   */\n      dup9\n        /* \"--CODEGEN--\":3689:3695   */\n      dup3\n        /* \"--CODEGEN--\":3678:3687   */\n      dup10\n        /* \"--CODEGEN--\":3674:3696   */\n      add\n        /* \"--CODEGEN--\":3653:3706   */\n      jump(tag_628)\n    tag_676:\n        /* \"--CODEGEN--\":3643:3706   */\n      swap4\n      pop\n        /* \"--CODEGEN--\":3614:3712   */\n      pop\n        /* \"--CODEGEN--\":3743:3745   */\n      0x60\n        /* \"--CODEGEN--\":3761:3814   */\n      tag_677\n        /* \"--CODEGEN--\":3806:3813   */\n      dup9\n        /* \"--CODEGEN--\":3797:3803   */\n      dup3\n        /* \"--CODEGEN--\":3786:3795   */\n      dup10\n        /* \"--CODEGEN--\":3782:3804   */\n      add\n        /* \"--CODEGEN--\":3761:3814   */\n      jump(tag_659)\n    tag_677:\n        /* \"--CODEGEN--\":3751:3814   */\n      swap3\n      pop\n        /* \"--CODEGEN--\":3722:3820   */\n      pop\n        /* \"--CODEGEN--\":3879:3882   */\n      0x80\n        /* \"--CODEGEN--\":3868:3877   */\n      dup7\n        /* \"--CODEGEN--\":3864:3883   */\n      add\n        /* \"--CODEGEN--\":3851:3884   */\n      calldataload\n        /* \"--CODEGEN--\":3904:3922   */\n      0xffffffffffffffff\n        /* \"--CODEGEN--\":3896:3902   */\n      dup2\n        /* \"--CODEGEN--\":3893:3923   */\n      gt\n        /* \"--CODEGEN--\":3890:3892   */\n      iszero\n      tag_678\n      jumpi\n        /* \"--CODEGEN--\":3936:3937   */\n      0x00\n        /* \"--CODEGEN--\":3933:3934   */\n      dup1\n        /* \"--CODEGEN--\":3926:3938   */\n      revert\n        /* \"--CODEGEN--\":3890:3892   */\n    tag_678:\n        /* \"--CODEGEN--\":3956:4018   */\n      tag_679\n        /* \"--CODEGEN--\":4010:4017   */\n      dup9\n        /* \"--CODEGEN--\":4001:4007   */\n      dup3\n        /* \"--CODEGEN--\":3990:3999   */\n      dup10\n        /* \"--CODEGEN--\":3986:4008   */\n      add\n        /* \"--CODEGEN--\":3956:4018   */\n      jump(tag_636)\n    tag_679:\n        /* \"--CODEGEN--\":3946:4018   */\n      swap2\n      pop\n        /* \"--CODEGEN--\":3830:4024   */\n      pop\n        /* \"--CODEGEN--\":3330:4034   */\n      swap3\n      swap6\n      pop\n      swap3\n      swap6\n      swap1\n      swap4\n      pop\n      jump\n        /* \"--CODEGEN--\":4041:4532   */\n    tag_56:\n      0x00\n      dup1\n      0x00\n        /* \"--CODEGEN--\":4179:4181   */\n      0x60\n        /* \"--CODEGEN--\":4167:4176   */\n      dup5\n        /* \"--CODEGEN--\":4158:4165   */\n      dup7\n        /* \"--CODEGEN--\":4154:4177   */\n      sub\n        /* \"--CODEGEN--\":4150:4182   */\n      slt\n        /* \"--CODEGEN--\":4147:4149   */\n      iszero\n      tag_680\n      jumpi\n        /* \"--CODEGEN--\":4195:4196   */\n      0x00\n        /* \"--CODEGEN--\":4192:4193   */\n      dup1\n        /* \"--CODEGEN--\":4185:4197   */\n      revert\n        /* \"--CODEGEN--\":4147:4149   */\n    tag_680:\n        /* \"--CODEGEN--\":4230:4231   */\n      0x00\n        /* \"--CODEGEN--\":4247:4300   */\n      tag_681\n        /* \"--CODEGEN--\":4292:4299   */\n      dup7\n        /* \"--CODEGEN--\":4272:4281   */\n      dup7\n        /* \"--CODEGEN--\":4247:4300   */\n      jump(tag_628)\n    tag_681:\n        /* \"--CODEGEN--\":4237:4300   */\n      swap4\n      pop\n        /* \"--CODEGEN--\":4209:4306   */\n      pop\n        /* \"--CODEGEN--\":4337:4339   */\n      0x20\n        /* \"--CODEGEN--\":4355:4408   */\n      tag_682\n        /* \"--CODEGEN--\":4400:4407   */\n      dup7\n        /* \"--CODEGEN--\":4391:4397   */\n      dup3\n        /* \"--CODEGEN--\":4380:4389   */\n      dup8\n        /* \"--CODEGEN--\":4376:4398   */\n      add\n        /* \"--CODEGEN--\":4355:4408   */\n      jump(tag_628)\n    tag_682:\n        /* \"--CODEGEN--\":4345:4408   */\n      swap3\n      pop\n        /* \"--CODEGEN--\":4316:4414   */\n      pop\n        /* \"--CODEGEN--\":4445:4447   */\n      0x40\n        /* \"--CODEGEN--\":4463:4516   */\n      tag_683\n        /* \"--CODEGEN--\":4508:4515   */\n      dup7\n        /* \"--CODEGEN--\":4499:4505   */\n      dup3\n        /* \"--CODEGEN--\":4488:4497   */\n      dup8\n        /* \"--CODEGEN--\":4484:4506   */\n      add\n        /* \"--CODEGEN--\":4463:4516   */\n      jump(tag_659)\n    tag_683:\n        /* \"--CODEGEN--\":4453:4516   */\n      swap2\n      pop\n        /* \"--CODEGEN--\":4424:4522   */\n      pop\n        /* \"--CODEGEN--\":4141:4532   */\n      swap3\n      pop\n      swap3\n      pop\n      swap3\n      jump\n        /* \"--CODEGEN--\":4539:5260   */\n    tag_68:\n      0x00\n      dup1\n      0x00\n      dup1\n        /* \"--CODEGEN--\":4703:4706   */\n      0x80\n        /* \"--CODEGEN--\":4691:4700   */\n      dup6\n        /* \"--CODEGEN--\":4682:4689   */\n      dup8\n        /* \"--CODEGEN--\":4678:4701   */\n      sub\n        /* \"--CODEGEN--\":4674:4707   */\n      slt\n        /* \"--CODEGEN--\":4671:4673   */\n      iszero\n      tag_684\n      jumpi\n        /* \"--CODEGEN--\":4720:4721   */\n      0x00\n        /* \"--CODEGEN--\":4717:4718   */\n      dup1\n        /* \"--CODEGEN--\":4710:4722   */\n      revert\n        /* \"--CODEGEN--\":4671:4673   */\n    tag_684:\n        /* \"--CODEGEN--\":4755:4756   */\n      0x00\n        /* \"--CODEGEN--\":4772:4825   */\n      tag_685\n        /* \"--CODEGEN--\":4817:4824   */\n      dup8\n        /* \"--CODEGEN--\":4797:4806   */\n      dup8\n        /* \"--CODEGEN--\":4772:4825   */\n      jump(tag_628)\n    tag_685:\n        /* \"--CODEGEN--\":4762:4825   */\n      swap5\n      pop\n        /* \"--CODEGEN--\":4734:4831   */\n      pop\n        /* \"--CODEGEN--\":4862:4864   */\n      0x20\n        /* \"--CODEGEN--\":4880:4933   */\n      tag_686\n        /* \"--CODEGEN--\":4925:4932   */\n      dup8\n        /* \"--CODEGEN--\":4916:4922   */\n      dup3\n        /* \"--CODEGEN--\":4905:4914   */\n      dup9\n        /* \"--CODEGEN--\":4901:4923   */\n      add\n        /* \"--CODEGEN--\":4880:4933   */\n      jump(tag_628)\n    tag_686:\n        /* \"--CODEGEN--\":4870:4933   */\n      swap4\n      pop\n        /* \"--CODEGEN--\":4841:4939   */\n      pop\n        /* \"--CODEGEN--\":4970:4972   */\n      0x40\n        /* \"--CODEGEN--\":4988:5041   */\n      tag_687\n        /* \"--CODEGEN--\":5033:5040   */\n      dup8\n        /* \"--CODEGEN--\":5024:5030   */\n      dup3\n        /* \"--CODEGEN--\":5013:5022   */\n      dup9\n        /* \"--CODEGEN--\":5009:5031   */\n      add\n        /* \"--CODEGEN--\":4988:5041   */\n      jump(tag_659)\n    tag_687:\n        /* \"--CODEGEN--\":4978:5041   */\n      swap3\n      pop\n        /* \"--CODEGEN--\":4949:5047   */\n      pop\n        /* \"--CODEGEN--\":5106:5108   */\n      0x60\n        /* \"--CODEGEN--\":5095:5104   */\n      dup6\n        /* \"--CODEGEN--\":5091:5109   */\n      add\n        /* \"--CODEGEN--\":5078:5110   */\n      calldataload\n        /* \"--CODEGEN--\":5130:5148   */\n      0xffffffffffffffff\n        /* \"--CODEGEN--\":5122:5128   */\n      dup2\n        /* \"--CODEGEN--\":5119:5149   */\n      gt\n        /* \"--CODEGEN--\":5116:5118   */\n      iszero\n      tag_688\n      jumpi\n        /* \"--CODEGEN--\":5162:5163   */\n      0x00\n        /* \"--CODEGEN--\":5159:5160   */\n      dup1\n        /* \"--CODEGEN--\":5152:5164   */\n      revert\n        /* \"--CODEGEN--\":5116:5118   */\n    tag_688:\n        /* \"--CODEGEN--\":5182:5244   */\n      tag_672\n        /* \"--CODEGEN--\":5236:5243   */\n      dup8\n        /* \"--CODEGEN--\":5227:5233   */\n      dup3\n        /* \"--CODEGEN--\":5216:5225   */\n      dup9\n        /* \"--CODEGEN--\":5212:5234   */\n      add\n        /* \"--CODEGEN--\":5182:5244   */\n      jump(tag_636)\n        /* \"--CODEGEN--\":5267:5864   */\n    tag_205:\n      0x00\n      dup1\n      0x00\n        /* \"--CODEGEN--\":5415:5417   */\n      0x60\n        /* \"--CODEGEN--\":5403:5412   */\n      dup5\n        /* \"--CODEGEN--\":5394:5401   */\n      dup7\n        /* \"--CODEGEN--\":5390:5413   */\n      sub\n        /* \"--CODEGEN--\":5386:5418   */\n      slt\n        /* \"--CODEGEN--\":5383:5385   */\n      iszero\n      tag_690\n      jumpi\n        /* \"--CODEGEN--\":5431:5432   */\n      0x00\n        /* \"--CODEGEN--\":5428:5429   */\n      dup1\n        /* \"--CODEGEN--\":5421:5433   */\n      revert\n        /* \"--CODEGEN--\":5383:5385   */\n    tag_690:\n        /* \"--CODEGEN--\":5466:5467   */\n      0x00\n        /* \"--CODEGEN--\":5483:5536   */\n      tag_691\n        /* \"--CODEGEN--\":5528:5535   */\n      dup7\n        /* \"--CODEGEN--\":5508:5517   */\n      dup7\n        /* \"--CODEGEN--\":5483:5536   */\n      jump(tag_628)\n    tag_691:\n        /* \"--CODEGEN--\":5473:5536   */\n      swap4\n      pop\n        /* \"--CODEGEN--\":5445:5542   */\n      pop\n        /* \"--CODEGEN--\":5601:5603   */\n      0x20\n        /* \"--CODEGEN--\":5590:5599   */\n      dup5\n        /* \"--CODEGEN--\":5586:5604   */\n      add\n        /* \"--CODEGEN--\":5573:5605   */\n      calldataload\n        /* \"--CODEGEN--\":5625:5643   */\n      0xffffffffffffffff\n        /* \"--CODEGEN--\":5617:5623   */\n      dup2\n        /* \"--CODEGEN--\":5614:5644   */\n      gt\n        /* \"--CODEGEN--\":5611:5613   */\n      iszero\n      tag_692\n      jumpi\n        /* \"--CODEGEN--\":5657:5658   */\n      0x00\n        /* \"--CODEGEN--\":5654:5655   */\n      dup1\n        /* \"--CODEGEN--\":5647:5659   */\n      revert\n        /* \"--CODEGEN--\":5611:5613   */\n    tag_692:\n        /* \"--CODEGEN--\":5677:5740   */\n      tag_682\n        /* \"--CODEGEN--\":5732:5739   */\n      dup7\n        /* \"--CODEGEN--\":5723:5729   */\n      dup3\n        /* \"--CODEGEN--\":5712:5721   */\n      dup8\n        /* \"--CODEGEN--\":5708:5730   */\n      add\n        /* \"--CODEGEN--\":5677:5740   */\n      jump(tag_636)\n        /* \"--CODEGEN--\":5871:6237   */\n    tag_113:\n      0x00\n      dup1\n        /* \"--CODEGEN--\":5992:5994   */\n      0x40\n        /* \"--CODEGEN--\":5980:5989   */\n      dup4\n        /* \"--CODEGEN--\":5971:5978   */\n      dup6\n        /* \"--CODEGEN--\":5967:5990   */\n      sub\n        /* \"--CODEGEN--\":5963:5995   */\n      slt\n        /* \"--CODEGEN--\":5960:5962   */\n      iszero\n      tag_695\n      jumpi\n        /* \"--CODEGEN--\":6008:6009   */\n      0x00\n        /* \"--CODEGEN--\":6005:6006   */\n      dup1\n        /* \"--CODEGEN--\":5998:6010   */\n      revert\n        /* \"--CODEGEN--\":5960:5962   */\n    tag_695:\n        /* \"--CODEGEN--\":6043:6044   */\n      0x00\n        /* \"--CODEGEN--\":6060:6113   */\n      tag_696\n        /* \"--CODEGEN--\":6105:6112   */\n      dup6\n        /* \"--CODEGEN--\":6085:6094   */\n      dup6\n        /* \"--CODEGEN--\":6060:6113   */\n      jump(tag_628)\n    tag_696:\n        /* \"--CODEGEN--\":6050:6113   */\n      swap3\n      pop\n        /* \"--CODEGEN--\":6022:6119   */\n      pop\n        /* \"--CODEGEN--\":6150:6152   */\n      0x20\n        /* \"--CODEGEN--\":6168:6221   */\n      tag_697\n        /* \"--CODEGEN--\":6213:6220   */\n      dup6\n        /* \"--CODEGEN--\":6204:6210   */\n      dup3\n        /* \"--CODEGEN--\":6193:6202   */\n      dup7\n        /* \"--CODEGEN--\":6189:6211   */\n      add\n        /* \"--CODEGEN--\":6168:6221   */\n      jump(tag_659)\n    tag_697:\n        /* \"--CODEGEN--\":6158:6221   */\n      swap2\n      pop\n        /* \"--CODEGEN--\":6129:6227   */\n      pop\n        /* \"--CODEGEN--\":5954:6237   */\n      swap3\n      pop\n      swap3\n      swap1\n      pop\n      jump\n        /* \"--CODEGEN--\":6244:6606   */\n    tag_358:\n      0x00\n        /* \"--CODEGEN--\":6369:6371   */\n      0x20\n        /* \"--CODEGEN--\":6357:6366   */\n      dup3\n        /* \"--CODEGEN--\":6348:6355   */\n      dup5\n        /* \"--CODEGEN--\":6344:6367   */\n      sub\n        /* \"--CODEGEN--\":6340:6372   */\n      slt\n        /* \"--CODEGEN--\":6337:6339   */\n      iszero\n      tag_698\n      jumpi\n        /* \"--CODEGEN--\":6385:6386   */\n      0x00\n        /* \"--CODEGEN--\":6382:6383   */\n      dup1\n        /* \"--CODEGEN--\":6375:6387   */\n      revert\n        /* \"--CODEGEN--\":6337:6339   */\n    tag_698:\n        /* \"--CODEGEN--\":6420:6444   */\n      dup2\n      mload\n        /* \"--CODEGEN--\":6464:6482   */\n      0xffffffffffffffff\n        /* \"--CODEGEN--\":6453:6483   */\n      dup2\n      gt\n        /* \"--CODEGEN--\":6450:6452   */\n      iszero\n      tag_699\n      jumpi\n        /* \"--CODEGEN--\":6496:6497   */\n      0x00\n        /* \"--CODEGEN--\":6493:6494   */\n      dup1\n        /* \"--CODEGEN--\":6486:6498   */\n      revert\n        /* \"--CODEGEN--\":6450:6452   */\n    tag_699:\n        /* \"--CODEGEN--\":6516:6590   */\n      tag_242\n        /* \"--CODEGEN--\":6582:6589   */\n      dup5\n        /* \"--CODEGEN--\":6573:6579   */\n      dup3\n        /* \"--CODEGEN--\":6562:6571   */\n      dup6\n        /* \"--CODEGEN--\":6558:6580   */\n      add\n        /* \"--CODEGEN--\":6516:6590   */\n      jump(tag_652)\n        /* \"--CODEGEN--\":6613:6854   */\n    tag_61:\n      0x00\n        /* \"--CODEGEN--\":6717:6719   */\n      0x20\n        /* \"--CODEGEN--\":6705:6714   */\n      dup3\n        /* \"--CODEGEN--\":6696:6703   */\n      dup5\n        /* \"--CODEGEN--\":6692:6715   */\n      sub\n        /* \"--CODEGEN--\":6688:6720   */\n      slt\n        /* \"--CODEGEN--\":6685:6687   */\n      iszero\n      tag_701\n      jumpi\n        /* \"--CODEGEN--\":6733:6734   */\n      0x00\n        /* \"--CODEGEN--\":6730:6731   */\n      dup1\n        /* \"--CODEGEN--\":6723:6735   */\n      revert\n        /* \"--CODEGEN--\":6685:6687   */\n    tag_701:\n        /* \"--CODEGEN--\":6768:6769   */\n      0x00\n        /* \"--CODEGEN--\":6785:6838   */\n      tag_242\n        /* \"--CODEGEN--\":6830:6837   */\n      dup5\n        /* \"--CODEGEN--\":6810:6819   */\n      dup5\n        /* \"--CODEGEN--\":6785:6838   */\n      jump(tag_659)\n        /* \"--CODEGEN--\":6861:7124   */\n    tag_583:\n      0x00\n        /* \"--CODEGEN--\":6976:6978   */\n      0x20\n        /* \"--CODEGEN--\":6964:6973   */\n      dup3\n        /* \"--CODEGEN--\":6955:6962   */\n      dup5\n        /* \"--CODEGEN--\":6951:6974   */\n      sub\n        /* \"--CODEGEN--\":6947:6979   */\n      slt\n        /* \"--CODEGEN--\":6944:6946   */\n      iszero\n      tag_703\n      jumpi\n        /* \"--CODEGEN--\":6992:6993   */\n      0x00\n        /* \"--CODEGEN--\":6989:6990   */\n      dup1\n        /* \"--CODEGEN--\":6982:6994   */\n      revert\n        /* \"--CODEGEN--\":6944:6946   */\n    tag_703:\n        /* \"--CODEGEN--\":7027:7028   */\n      0x00\n        /* \"--CODEGEN--\":7044:7108   */\n      tag_242\n        /* \"--CODEGEN--\":7100:7107   */\n      dup5\n        /* \"--CODEGEN--\":7080:7089   */\n      dup5\n        /* \"--CODEGEN--\":7044:7108   */\n      jump(tag_662)\n        /* \"--CODEGEN--\":7131:7497   */\n    tag_80:\n      0x00\n      dup1\n        /* \"--CODEGEN--\":7252:7254   */\n      0x40\n        /* \"--CODEGEN--\":7240:7249   */\n      dup4\n        /* \"--CODEGEN--\":7231:7238   */\n      dup6\n        /* \"--CODEGEN--\":7227:7250   */\n      sub\n        /* \"--CODEGEN--\":7223:7255   */\n      slt\n        /* \"--CODEGEN--\":7220:7222   */\n      iszero\n      tag_705\n      jumpi\n        /* \"--CODEGEN--\":7268:7269   */\n      0x00\n        /* \"--CODEGEN--\":7265:7266   */\n      dup1\n        /* \"--CODEGEN--\":7258:7270   */\n      revert\n        /* \"--CODEGEN--\":7220:7222   */\n    tag_705:\n        /* \"--CODEGEN--\":7303:7304   */\n      0x00\n        /* \"--CODEGEN--\":7320:7373   */\n      tag_706\n        /* \"--CODEGEN--\":7365:7372   */\n      dup6\n        /* \"--CODEGEN--\":7345:7354   */\n      dup6\n        /* \"--CODEGEN--\":7320:7373   */\n      jump(tag_659)\n    tag_706:\n        /* \"--CODEGEN--\":7310:7373   */\n      swap3\n      pop\n        /* \"--CODEGEN--\":7282:7379   */\n      pop\n        /* \"--CODEGEN--\":7410:7412   */\n      0x20\n        /* \"--CODEGEN--\":7428:7481   */\n      tag_697\n        /* \"--CODEGEN--\":7473:7480   */\n      dup6\n        /* \"--CODEGEN--\":7464:7470   */\n      dup3\n        /* \"--CODEGEN--\":7453:7462   */\n      dup7\n        /* \"--CODEGEN--\":7449:7471   */\n      add\n        /* \"--CODEGEN--\":7428:7481   */\n      jump(tag_628)\n        /* \"--CODEGEN--\":7504:7995   */\n    tag_84:\n      0x00\n      dup1\n      0x00\n        /* \"--CODEGEN--\":7642:7644   */\n      0x60\n        /* \"--CODEGEN--\":7630:7639   */\n      dup5\n        /* \"--CODEGEN--\":7621:7628   */\n      dup7\n        /* \"--CODEGEN--\":7617:7640   */\n      sub\n        /* \"--CODEGEN--\":7613:7645   */\n      slt\n        /* \"--CODEGEN--\":7610:7612   */\n      iszero\n      tag_708\n      jumpi\n        /* \"--CODEGEN--\":7658:7659   */\n      0x00\n        /* \"--CODEGEN--\":7655:7656   */\n      dup1\n        /* \"--CODEGEN--\":7648:7660   */\n      revert\n        /* \"--CODEGEN--\":7610:7612   */\n    tag_708:\n        /* \"--CODEGEN--\":7693:7694   */\n      0x00\n        /* \"--CODEGEN--\":7710:7763   */\n      tag_709\n        /* \"--CODEGEN--\":7755:7762   */\n      dup7\n        /* \"--CODEGEN--\":7735:7744   */\n      dup7\n        /* \"--CODEGEN--\":7710:7763   */\n      jump(tag_659)\n    tag_709:\n        /* \"--CODEGEN--\":7700:7763   */\n      swap4\n      pop\n        /* \"--CODEGEN--\":7672:7769   */\n      pop\n        /* \"--CODEGEN--\":7800:7802   */\n      0x20\n        /* \"--CODEGEN--\":7818:7871   */\n      tag_710\n        /* \"--CODEGEN--\":7863:7870   */\n      dup7\n        /* \"--CODEGEN--\":7854:7860   */\n      dup3\n        /* \"--CODEGEN--\":7843:7852   */\n      dup8\n        /* \"--CODEGEN--\":7839:7861   */\n      add\n        /* \"--CODEGEN--\":7818:7871   */\n      jump(tag_628)\n    tag_710:\n        /* \"--CODEGEN--\":7808:7871   */\n      swap3\n      pop\n        /* \"--CODEGEN--\":7779:7877   */\n      pop\n        /* \"--CODEGEN--\":7908:7910   */\n      0x40\n        /* \"--CODEGEN--\":7926:7979   */\n      tag_683\n        /* \"--CODEGEN--\":7971:7978   */\n      dup7\n        /* \"--CODEGEN--\":7962:7968   */\n      dup3\n        /* \"--CODEGEN--\":7951:7960   */\n      dup8\n        /* \"--CODEGEN--\":7947:7969   */\n      add\n        /* \"--CODEGEN--\":7926:7979   */\n      jump(tag_628)\n        /* \"--CODEGEN--\":8002:8613   */\n    tag_130:\n      0x00\n      dup1\n      0x00\n      dup1\n        /* \"--CODEGEN--\":8154:8157   */\n      0x80\n        /* \"--CODEGEN--\":8142:8151   */\n      dup6\n        /* \"--CODEGEN--\":8133:8140   */\n      dup8\n        /* \"--CODEGEN--\":8129:8152   */\n      sub\n        /* \"--CODEGEN--\":8125:8158   */\n      slt\n        /* \"--CODEGEN--\":8122:8124   */\n      iszero\n      tag_712\n      jumpi\n        /* \"--CODEGEN--\":8171:8172   */\n      0x00\n        /* \"--CODEGEN--\":8168:8169   */\n      dup1\n        /* \"--CODEGEN--\":8161:8173   */\n      revert\n        /* \"--CODEGEN--\":8122:8124   */\n    tag_712:\n        /* \"--CODEGEN--\":8206:8207   */\n      0x00\n        /* \"--CODEGEN--\":8223:8276   */\n      tag_713\n        /* \"--CODEGEN--\":8268:8275   */\n      dup8\n        /* \"--CODEGEN--\":8248:8257   */\n      dup8\n        /* \"--CODEGEN--\":8223:8276   */\n      jump(tag_659)\n    tag_713:\n        /* \"--CODEGEN--\":8213:8276   */\n      swap5\n      pop\n        /* \"--CODEGEN--\":8185:8282   */\n      pop\n        /* \"--CODEGEN--\":8313:8315   */\n      0x20\n        /* \"--CODEGEN--\":8331:8384   */\n      tag_714\n        /* \"--CODEGEN--\":8376:8383   */\n      dup8\n        /* \"--CODEGEN--\":8367:8373   */\n      dup3\n        /* \"--CODEGEN--\":8356:8365   */\n      dup9\n        /* \"--CODEGEN--\":8352:8374   */\n      add\n        /* \"--CODEGEN--\":8331:8384   */\n      jump(tag_628)\n    tag_714:\n        /* \"--CODEGEN--\":8321:8384   */\n      swap4\n      pop\n        /* \"--CODEGEN--\":8292:8390   */\n      pop\n        /* \"--CODEGEN--\":8421:8423   */\n      0x40\n        /* \"--CODEGEN--\":8439:8492   */\n      tag_715\n        /* \"--CODEGEN--\":8484:8491   */\n      dup8\n        /* \"--CODEGEN--\":8475:8481   */\n      dup3\n        /* \"--CODEGEN--\":8464:8473   */\n      dup9\n        /* \"--CODEGEN--\":8460:8482   */\n      add\n        /* \"--CODEGEN--\":8439:8492   */\n      jump(tag_628)\n    tag_715:\n        /* \"--CODEGEN--\":8429:8492   */\n      swap3\n      pop\n        /* \"--CODEGEN--\":8400:8498   */\n      pop\n        /* \"--CODEGEN--\":8529:8531   */\n      0x60\n        /* \"--CODEGEN--\":8547:8597   */\n      tag_672\n        /* \"--CODEGEN--\":8589:8596   */\n      dup8\n        /* \"--CODEGEN--\":8580:8586   */\n      dup3\n        /* \"--CODEGEN--\":8569:8578   */\n      dup9\n        /* \"--CODEGEN--\":8565:8587   */\n      add\n        /* \"--CODEGEN--\":8547:8597   */\n      jump(tag_633)\n        /* \"--CODEGEN--\":8620:9237   */\n    tag_96:\n      0x00\n      dup1\n      0x00\n      dup1\n        /* \"--CODEGEN--\":8775:8778   */\n      0x80\n        /* \"--CODEGEN--\":8763:8772   */\n      dup6\n        /* \"--CODEGEN--\":8754:8761   */\n      dup8\n        /* \"--CODEGEN--\":8750:8773   */\n      sub\n        /* \"--CODEGEN--\":8746:8779   */\n      slt\n        /* \"--CODEGEN--\":8743:8745   */\n      iszero\n      tag_717\n      jumpi\n        /* \"--CODEGEN--\":8792:8793   */\n      0x00\n        /* \"--CODEGEN--\":8789:8790   */\n      dup1\n        /* \"--CODEGEN--\":8782:8794   */\n      revert\n        /* \"--CODEGEN--\":8743:8745   */\n    tag_717:\n        /* \"--CODEGEN--\":8827:8828   */\n      0x00\n        /* \"--CODEGEN--\":8844:8897   */\n      tag_669\n        /* \"--CODEGEN--\":8889:8896   */\n      dup8\n        /* \"--CODEGEN--\":8869:8878   */\n      dup8\n        /* \"--CODEGEN--\":8844:8897   */\n      jump(tag_659)\n        /* \"--CODEGEN--\":9244:9729   */\n    tag_146:\n      0x00\n      dup1\n      0x00\n        /* \"--CODEGEN--\":9379:9381   */\n      0x60\n        /* \"--CODEGEN--\":9367:9376   */\n      dup5\n        /* \"--CODEGEN--\":9358:9365   */\n      dup7\n        /* \"--CODEGEN--\":9354:9377   */\n      sub\n        /* \"--CODEGEN--\":9350:9382   */\n      slt\n        /* \"--CODEGEN--\":9347:9349   */\n      iszero\n      tag_722\n      jumpi\n        /* \"--CODEGEN--\":9395:9396   */\n      0x00\n        /* \"--CODEGEN--\":9392:9393   */\n      dup1\n        /* \"--CODEGEN--\":9385:9397   */\n      revert\n        /* \"--CODEGEN--\":9347:9349   */\n    tag_722:\n        /* \"--CODEGEN--\":9430:9431   */\n      0x00\n        /* \"--CODEGEN--\":9447:9500   */\n      tag_723\n        /* \"--CODEGEN--\":9492:9499   */\n      dup7\n        /* \"--CODEGEN--\":9472:9481   */\n      dup7\n        /* \"--CODEGEN--\":9447:9500   */\n      jump(tag_659)\n    tag_723:\n        /* \"--CODEGEN--\":9437:9500   */\n      swap4\n      pop\n        /* \"--CODEGEN--\":9409:9506   */\n      pop\n        /* \"--CODEGEN--\":9537:9539   */\n      0x20\n        /* \"--CODEGEN--\":9555:9608   */\n      tag_724\n        /* \"--CODEGEN--\":9600:9607   */\n      dup7\n        /* \"--CODEGEN--\":9591:9597   */\n      dup3\n        /* \"--CODEGEN--\":9580:9589   */\n      dup8\n        /* \"--CODEGEN--\":9576:9598   */\n      add\n        /* \"--CODEGEN--\":9555:9608   */\n      jump(tag_628)\n    tag_724:\n        /* \"--CODEGEN--\":9545:9608   */\n      swap3\n      pop\n        /* \"--CODEGEN--\":9516:9614   */\n      pop\n        /* \"--CODEGEN--\":9645:9647   */\n      0x40\n        /* \"--CODEGEN--\":9663:9713   */\n      tag_683\n        /* \"--CODEGEN--\":9705:9712   */\n      dup7\n        /* \"--CODEGEN--\":9696:9702   */\n      dup3\n        /* \"--CODEGEN--\":9685:9694   */\n      dup8\n        /* \"--CODEGEN--\":9681:9703   */\n      add\n        /* \"--CODEGEN--\":9663:9713   */\n      jump(tag_633)\n        /* \"--CODEGEN--\":9736:10227   */\n    tag_179:\n      0x00\n      dup1\n      0x00\n        /* \"--CODEGEN--\":9874:9876   */\n      0x60\n        /* \"--CODEGEN--\":9862:9871   */\n      dup5\n        /* \"--CODEGEN--\":9853:9860   */\n      dup7\n        /* \"--CODEGEN--\":9849:9872   */\n      sub\n        /* \"--CODEGEN--\":9845:9877   */\n      slt\n        /* \"--CODEGEN--\":9842:9844   */\n      iszero\n      tag_726\n      jumpi\n        /* \"--CODEGEN--\":9890:9891   */\n      0x00\n        /* \"--CODEGEN--\":9887:9888   */\n      dup1\n        /* \"--CODEGEN--\":9880:9892   */\n      revert\n        /* \"--CODEGEN--\":9842:9844   */\n    tag_726:\n        /* \"--CODEGEN--\":9925:9926   */\n      0x00\n        /* \"--CODEGEN--\":9942:9995   */\n      tag_681\n        /* \"--CODEGEN--\":9987:9994   */\n      dup7\n        /* \"--CODEGEN--\":9967:9976   */\n      dup7\n        /* \"--CODEGEN--\":9942:9995   */\n      jump(tag_659)\n        /* \"--CODEGEN--\":10234:10851   */\n    tag_210:\n      0x00\n      dup1\n      0x00\n      dup1\n        /* \"--CODEGEN--\":10389:10392   */\n      0x80\n        /* \"--CODEGEN--\":10377:10386   */\n      dup6\n        /* \"--CODEGEN--\":10368:10375   */\n      dup8\n        /* \"--CODEGEN--\":10364:10387   */\n      sub\n        /* \"--CODEGEN--\":10360:10393   */\n      slt\n        /* \"--CODEGEN--\":10357:10359   */\n      iszero\n      tag_730\n      jumpi\n        /* \"--CODEGEN--\":10406:10407   */\n      0x00\n        /* \"--CODEGEN--\":10403:10404   */\n      dup1\n        /* \"--CODEGEN--\":10396:10408   */\n      revert\n        /* \"--CODEGEN--\":10357:10359   */\n    tag_730:\n        /* \"--CODEGEN--\":10441:10442   */\n      0x00\n        /* \"--CODEGEN--\":10458:10511   */\n      tag_731\n        /* \"--CODEGEN--\":10503:10510   */\n      dup8\n        /* \"--CODEGEN--\":10483:10492   */\n      dup8\n        /* \"--CODEGEN--\":10458:10511   */\n      jump(tag_659)\n    tag_731:\n        /* \"--CODEGEN--\":10448:10511   */\n      swap5\n      pop\n        /* \"--CODEGEN--\":10420:10517   */\n      pop\n        /* \"--CODEGEN--\":10548:10550   */\n      0x20\n        /* \"--CODEGEN--\":10566:10619   */\n      tag_732\n        /* \"--CODEGEN--\":10611:10618   */\n      dup8\n        /* \"--CODEGEN--\":10602:10608   */\n      dup3\n        /* \"--CODEGEN--\":10591:10600   */\n      dup9\n        /* \"--CODEGEN--\":10587:10609   */\n      add\n        /* \"--CODEGEN--\":10566:10619   */\n      jump(tag_628)\n    tag_732:\n        /* \"--CODEGEN--\":10556:10619   */\n      swap4\n      pop\n        /* \"--CODEGEN--\":10527:10625   */\n      pop\n        /* \"--CODEGEN--\":10656:10658   */\n      0x40\n        /* \"--CODEGEN--\":10674:10727   */\n      tag_733\n        /* \"--CODEGEN--\":10719:10726   */\n      dup8\n        /* \"--CODEGEN--\":10710:10716   */\n      dup3\n        /* \"--CODEGEN--\":10699:10708   */\n      dup9\n        /* \"--CODEGEN--\":10695:10717   */\n      add\n        /* \"--CODEGEN--\":10674:10727   */\n      jump(tag_659)\n    tag_733:\n        /* \"--CODEGEN--\":10664:10727   */\n      swap3\n      pop\n        /* \"--CODEGEN--\":10635:10733   */\n      pop\n        /* \"--CODEGEN--\":10764:10766   */\n      0x60\n        /* \"--CODEGEN--\":10782:10835   */\n      tag_672\n        /* \"--CODEGEN--\":10827:10834   */\n      dup8\n        /* \"--CODEGEN--\":10818:10824   */\n      dup3\n        /* \"--CODEGEN--\":10807:10816   */\n      dup9\n        /* \"--CODEGEN--\":10803:10825   */\n      add\n        /* \"--CODEGEN--\":10782:10835   */\n      jump(tag_628)\n        /* \"--CODEGEN--\":10858:11979   */\n    tag_135:\n      0x00\n      dup1\n      0x00\n      dup1\n      0x00\n      dup1\n      0x00\n      dup1\n        /* \"--CODEGEN--\":11081:11084   */\n      0x0100\n        /* \"--CODEGEN--\":11069:11078   */\n      dup10\n        /* \"--CODEGEN--\":11060:11067   */\n      dup12\n        /* \"--CODEGEN--\":11056:11079   */\n      sub\n        /* \"--CODEGEN--\":11052:11085   */\n      slt\n        /* \"--CODEGEN--\":11049:11051   */\n      iszero\n      tag_735\n      jumpi\n        /* \"--CODEGEN--\":11098:11099   */\n      0x00\n        /* \"--CODEGEN--\":11095:11096   */\n      dup1\n        /* \"--CODEGEN--\":11088:11100   */\n      revert\n        /* \"--CODEGEN--\":11049:11051   */\n    tag_735:\n        /* \"--CODEGEN--\":11133:11134   */\n      0x00\n        /* \"--CODEGEN--\":11150:11203   */\n      tag_736\n        /* \"--CODEGEN--\":11195:11202   */\n      dup12\n        /* \"--CODEGEN--\":11175:11184   */\n      dup12\n        /* \"--CODEGEN--\":11150:11203   */\n      jump(tag_659)\n    tag_736:\n        /* \"--CODEGEN--\":11140:11203   */\n      swap9\n      pop\n        /* \"--CODEGEN--\":11112:11209   */\n      pop\n        /* \"--CODEGEN--\":11240:11242   */\n      0x20\n        /* \"--CODEGEN--\":11258:11311   */\n      tag_737\n        /* \"--CODEGEN--\":11303:11310   */\n      dup12\n        /* \"--CODEGEN--\":11294:11300   */\n      dup3\n        /* \"--CODEGEN--\":11283:11292   */\n      dup13\n        /* \"--CODEGEN--\":11279:11301   */\n      add\n        /* \"--CODEGEN--\":11258:11311   */\n      jump(tag_659)\n    tag_737:\n        /* \"--CODEGEN--\":11248:11311   */\n      swap8\n      pop\n        /* \"--CODEGEN--\":11219:11317   */\n      pop\n        /* \"--CODEGEN--\":11348:11350   */\n      0x40\n        /* \"--CODEGEN--\":11366:11419   */\n      tag_738\n        /* \"--CODEGEN--\":11411:11418   */\n      dup12\n        /* \"--CODEGEN--\":11402:11408   */\n      dup3\n        /* \"--CODEGEN--\":11391:11400   */\n      dup13\n        /* \"--CODEGEN--\":11387:11409   */\n      add\n        /* \"--CODEGEN--\":11366:11419   */\n      jump(tag_659)\n    tag_738:\n        /* \"--CODEGEN--\":11356:11419   */\n      swap7\n      pop\n        /* \"--CODEGEN--\":11327:11425   */\n      pop\n        /* \"--CODEGEN--\":11456:11458   */\n      0x60\n        /* \"--CODEGEN--\":11474:11527   */\n      tag_739\n        /* \"--CODEGEN--\":11519:11526   */\n      dup12\n        /* \"--CODEGEN--\":11510:11516   */\n      dup3\n        /* \"--CODEGEN--\":11499:11508   */\n      dup13\n        /* \"--CODEGEN--\":11495:11517   */\n      add\n        /* \"--CODEGEN--\":11474:11527   */\n      jump(tag_659)\n    tag_739:\n        /* \"--CODEGEN--\":11464:11527   */\n      swap6\n      pop\n        /* \"--CODEGEN--\":11435:11533   */\n      pop\n        /* \"--CODEGEN--\":11564:11567   */\n      0x80\n        /* \"--CODEGEN--\":11583:11636   */\n      tag_740\n        /* \"--CODEGEN--\":11628:11635   */\n      dup12\n        /* \"--CODEGEN--\":11619:11625   */\n      dup3\n        /* \"--CODEGEN--\":11608:11617   */\n      dup13\n        /* \"--CODEGEN--\":11604:11626   */\n      add\n        /* \"--CODEGEN--\":11583:11636   */\n      jump(tag_659)\n    tag_740:\n        /* \"--CODEGEN--\":11573:11636   */\n      swap5\n      pop\n        /* \"--CODEGEN--\":11543:11642   */\n      pop\n        /* \"--CODEGEN--\":11673:11676   */\n      0xa0\n        /* \"--CODEGEN--\":11692:11745   */\n      tag_741\n        /* \"--CODEGEN--\":11737:11744   */\n      dup12\n        /* \"--CODEGEN--\":11728:11734   */\n      dup3\n        /* \"--CODEGEN--\":11717:11726   */\n      dup13\n        /* \"--CODEGEN--\":11713:11735   */\n      add\n        /* \"--CODEGEN--\":11692:11745   */\n      jump(tag_659)\n    tag_741:\n        /* \"--CODEGEN--\":11682:11745   */\n      swap4\n      pop\n        /* \"--CODEGEN--\":11652:11751   */\n      pop\n        /* \"--CODEGEN--\":11782:11785   */\n      0xc0\n        /* \"--CODEGEN--\":11801:11854   */\n      tag_742\n        /* \"--CODEGEN--\":11846:11853   */\n      dup12\n        /* \"--CODEGEN--\":11837:11843   */\n      dup3\n        /* \"--CODEGEN--\":11826:11835   */\n      dup13\n        /* \"--CODEGEN--\":11822:11844   */\n      add\n        /* \"--CODEGEN--\":11801:11854   */\n      jump(tag_628)\n    tag_742:\n        /* \"--CODEGEN--\":11791:11854   */\n      swap3\n      pop\n        /* \"--CODEGEN--\":11761:11860   */\n      pop\n        /* \"--CODEGEN--\":11891:11894   */\n      0xe0\n        /* \"--CODEGEN--\":11910:11963   */\n      tag_743\n        /* \"--CODEGEN--\":11955:11962   */\n      dup12\n        /* \"--CODEGEN--\":11946:11952   */\n      dup3\n        /* \"--CODEGEN--\":11935:11944   */\n      dup13\n        /* \"--CODEGEN--\":11931:11953   */\n      add\n        /* \"--CODEGEN--\":11910:11963   */\n      jump(tag_628)\n    tag_743:\n        /* \"--CODEGEN--\":11900:11963   */\n      swap2\n      pop\n        /* \"--CODEGEN--\":11870:11969   */\n      pop\n        /* \"--CODEGEN--\":11043:11979   */\n      swap3\n      swap6\n      swap9\n      pop\n      swap3\n      swap6\n      swap9\n      swap1\n      swap4\n      swap7\n      pop\n      jump\n        /* \"--CODEGEN--\":11987:12160   */\n    tag_744:\n      0x00\n        /* \"--CODEGEN--\":12074:12120   */\n      tag_745\n        /* \"--CODEGEN--\":12116:12119   */\n      dup4\n        /* \"--CODEGEN--\":12108:12114   */\n      dup4\n        /* \"--CODEGEN--\":12074:12120   */\n      jump(tag_746)\n    tag_745:\n      pop\n      pop\n        /* \"--CODEGEN--\":12149:12153   */\n      0x20\n        /* \"--CODEGEN--\":12140:12154   */\n      add\n      swap1\n        /* \"--CODEGEN--\":12067:12160   */\n      jump\n        /* \"--CODEGEN--\":12168:12310   */\n    tag_747:\n        /* \"--CODEGEN--\":12259:12304   */\n      tag_748\n        /* \"--CODEGEN--\":12298:12303   */\n      dup2\n        /* \"--CODEGEN--\":12259:12304   */\n      jump(tag_749)\n    tag_748:\n        /* \"--CODEGEN--\":12254:12257   */\n      dup3\n        /* \"--CODEGEN--\":12247:12305   */\n      mstore\n        /* \"--CODEGEN--\":12241:12310   */\n      pop\n      pop\n      jump\n        /* \"--CODEGEN--\":12317:12420   */\n    tag_746:\n        /* \"--CODEGEN--\":12390:12414   */\n      tag_748\n        /* \"--CODEGEN--\":12408:12413   */\n      dup2\n        /* \"--CODEGEN--\":12390:12414   */\n      jump(tag_751)\n        /* \"--CODEGEN--\":12578:13268   */\n    tag_754:\n      0x00\n        /* \"--CODEGEN--\":12723:12777   */\n      tag_755\n        /* \"--CODEGEN--\":12771:12776   */\n      dup3\n        /* \"--CODEGEN--\":12723:12777   */\n      jump(tag_756)\n    tag_755:\n        /* \"--CODEGEN--\":12790:12876   */\n      tag_757\n        /* \"--CODEGEN--\":12869:12875   */\n      dup2\n        /* \"--CODEGEN--\":12864:12867   */\n      dup6\n        /* \"--CODEGEN--\":12790:12876   */\n      jump(tag_758)\n    tag_757:\n        /* \"--CODEGEN--\":12783:12876   */\n      swap4\n      pop\n        /* \"--CODEGEN--\":12897:12953   */\n      tag_759\n        /* \"--CODEGEN--\":12947:12952   */\n      dup4\n        /* \"--CODEGEN--\":12897:12953   */\n      jump(tag_760)\n    tag_759:\n        /* \"--CODEGEN--\":12973:12980   */\n      dup1\n        /* \"--CODEGEN--\":13001:13002   */\n      0x00\n        /* \"--CODEGEN--\":12986:13246   */\n    tag_761:\n        /* \"--CODEGEN--\":13011:13017   */\n      dup4\n        /* \"--CODEGEN--\":13008:13009   */\n      dup2\n        /* \"--CODEGEN--\":13005:13018   */\n      lt\n        /* \"--CODEGEN--\":12986:13246   */\n      iszero\n      tag_763\n      jumpi\n        /* \"--CODEGEN--\":13078:13084   */\n      dup2\n        /* \"--CODEGEN--\":13072:13085   */\n      mload\n        /* \"--CODEGEN--\":13099:13162   */\n      tag_764\n        /* \"--CODEGEN--\":13158:13161   */\n      dup9\n        /* \"--CODEGEN--\":13143:13156   */\n      dup3\n        /* \"--CODEGEN--\":13099:13162   */\n      jump(tag_744)\n    tag_764:\n        /* \"--CODEGEN--\":13092:13162   */\n      swap8\n      pop\n        /* \"--CODEGEN--\":13179:13239   */\n      tag_765\n        /* \"--CODEGEN--\":13232:13238   */\n      dup4\n        /* \"--CODEGEN--\":13179:13239   */\n      jump(tag_760)\n    tag_765:\n        /* \"--CODEGEN--\":13169:13239   */\n      swap3\n      pop\n      pop\n        /* \"--CODEGEN--\":13033:13034   */\n      0x01\n        /* \"--CODEGEN--\":13026:13035   */\n      add\n        /* \"--CODEGEN--\":12986:13246   */\n      jump(tag_761)\n    tag_763:\n      pop\n        /* \"--CODEGEN--\":13259:13262   */\n      swap5\n      swap6\n        /* \"--CODEGEN--\":12702:13268   */\n      swap5\n      pop\n      pop\n      pop\n      pop\n      pop\n      jump\n        /* \"--CODEGEN--\":13276:13380   */\n    tag_767:\n        /* \"--CODEGEN--\":13353:13374   */\n      tag_748\n        /* \"--CODEGEN--\":13368:13373   */\n      dup2\n        /* \"--CODEGEN--\":13353:13374   */\n      jump(tag_769)\n        /* \"--CODEGEN--\":13387:13497   */\n    tag_770:\n        /* \"--CODEGEN--\":13468:13491   */\n      tag_748\n        /* \"--CODEGEN--\":13485:13490   */\n      dup2\n        /* \"--CODEGEN--\":13468:13491   */\n      jump(tag_772)\n        /* \"--CODEGEN--\":13504:13847   */\n    tag_773:\n      0x00\n        /* \"--CODEGEN--\":13614:13652   */\n      tag_774\n        /* \"--CODEGEN--\":13646:13651   */\n      dup3\n        /* \"--CODEGEN--\":13614:13652   */\n      jump(tag_756)\n    tag_774:\n        /* \"--CODEGEN--\":13664:13734   */\n      tag_776\n        /* \"--CODEGEN--\":13727:13733   */\n      dup2\n        /* \"--CODEGEN--\":13722:13725   */\n      dup6\n        /* \"--CODEGEN--\":13664:13734   */\n      jump(tag_758)\n    tag_776:\n        /* \"--CODEGEN--\":13657:13734   */\n      swap4\n      pop\n        /* \"--CODEGEN--\":13739:13791   */\n      tag_778\n        /* \"--CODEGEN--\":13784:13790   */\n      dup2\n        /* \"--CODEGEN--\":13779:13782   */\n      dup6\n        /* \"--CODEGEN--\":13772:13776   */\n      0x20\n        /* \"--CODEGEN--\":13765:13770   */\n      dup7\n        /* \"--CODEGEN--\":13761:13777   */\n      add\n        /* \"--CODEGEN--\":13739:13791   */\n      jump(tag_658)\n    tag_778:\n        /* \"--CODEGEN--\":13812:13841   */\n      tag_779\n        /* \"--CODEGEN--\":13834:13840   */\n      dup2\n        /* \"--CODEGEN--\":13812:13841   */\n      jump(tag_780)\n    tag_779:\n        /* \"--CODEGEN--\":13803:13842   */\n      swap1\n      swap4\n      add\n      swap4\n        /* \"--CODEGEN--\":13594:13847   */\n      swap3\n      pop\n      pop\n      pop\n      jump\n        /* \"--CODEGEN--\":13854:13996   */\n    tag_781:\n        /* \"--CODEGEN--\":13945:13990   */\n      tag_748\n        /* \"--CODEGEN--\":13984:13989   */\n      dup2\n        /* \"--CODEGEN--\":13945:13990   */\n      jump(tag_783)\n        /* \"--CODEGEN--\":14382:15266   */\n    tag_791:\n      0x00\n        /* \"--CODEGEN--\":14519:14524   */\n      dup2\n        /* \"--CODEGEN--\":14513:14525   */\n      sload\n        /* \"--CODEGEN--\":14553:14554   */\n      0x01\n        /* \"--CODEGEN--\":14542:14551   */\n      dup2\n        /* \"--CODEGEN--\":14538:14555   */\n      and\n        /* \"--CODEGEN--\":14566:14567   */\n      0x00\n        /* \"--CODEGEN--\":14561:14829   */\n      dup2\n      eq\n      tag_793\n      jumpi\n        /* \"--CODEGEN--\":14840:14841   */\n      0x01\n        /* \"--CODEGEN--\":14835:15260   */\n      dup2\n      eq\n      tag_794\n      jumpi\n        /* \"--CODEGEN--\":14531:15260   */\n      jump(tag_792)\n        /* \"--CODEGEN--\":14561:14829   */\n    tag_793:\n        /* \"--CODEGEN--\":14639:14643   */\n      0x7f\n        /* \"--CODEGEN--\":14635:14636   */\n      0x02\n        /* \"--CODEGEN--\":14624:14633   */\n      dup4\n        /* \"--CODEGEN--\":14620:14637   */\n      div\n        /* \"--CODEGEN--\":14616:14644   */\n      and\n        /* \"--CODEGEN--\":14658:14747   */\n      tag_795\n        /* \"--CODEGEN--\":14740:14746   */\n      dup2\n        /* \"--CODEGEN--\":14735:14738   */\n      dup8\n        /* \"--CODEGEN--\":14658:14747   */\n      jump(tag_588)\n    tag_795:\n      not(0xff)\n        /* \"--CODEGEN--\":14766:14791   */\n      dup5\n      and\n        /* \"--CODEGEN--\":14754:14792   */\n      dup2\n      mstore\n        /* \"--CODEGEN--\":14651:14747   */\n      swap6\n      pop\n        /* \"--CODEGEN--\":14806:14822   */\n      dup6\n      add\n      swap3\n      pop\n        /* \"--CODEGEN--\":14561:14829   */\n      jump(tag_792)\n        /* \"--CODEGEN--\":14835:15260   */\n    tag_794:\n        /* \"--CODEGEN--\":14904:14905   */\n      0x02\n        /* \"--CODEGEN--\":14893:14902   */\n      dup3\n        /* \"--CODEGEN--\":14889:14906   */\n      div\n        /* \"--CODEGEN--\":14920:15009   */\n      tag_797\n        /* \"--CODEGEN--\":15002:15008   */\n      dup2\n        /* \"--CODEGEN--\":14997:15000   */\n      dup8\n        /* \"--CODEGEN--\":14920:15009   */\n      jump(tag_588)\n    tag_797:\n        /* \"--CODEGEN--\":14913:15009   */\n      swap6\n      pop\n        /* \"--CODEGEN--\":15031:15069   */\n      tag_798\n        /* \"--CODEGEN--\":15063:15068   */\n      dup6\n        /* \"--CODEGEN--\":15031:15069   */\n      jump(tag_799)\n    tag_798:\n        /* \"--CODEGEN--\":15085:15086   */\n      0x00\n        /* \"--CODEGEN--\":15093:15223   */\n    tag_800:\n        /* \"--CODEGEN--\":15107:15113   */\n      dup3\n        /* \"--CODEGEN--\":15104:15105   */\n      dup2\n        /* \"--CODEGEN--\":15101:15114   */\n      lt\n        /* \"--CODEGEN--\":15093:15223   */\n      iszero\n      tag_802\n      jumpi\n        /* \"--CODEGEN--\":15166:15180   */\n      dup2\n      sload\n        /* \"--CODEGEN--\":15153:15164   */\n      dup9\n      dup3\n      add\n        /* \"--CODEGEN--\":15146:15181   */\n      mstore\n        /* \"--CODEGEN--\":15213:15214   */\n      0x01\n        /* \"--CODEGEN--\":15200:15215   */\n      swap1\n      swap2\n      add\n      swap1\n        /* \"--CODEGEN--\":15129:15133   */\n      0x20\n        /* \"--CODEGEN--\":15122:15134   */\n      add\n        /* \"--CODEGEN--\":15093:15223   */\n      jump(tag_800)\n    tag_802:\n      pop\n      pop\n        /* \"--CODEGEN--\":15237:15253   */\n      dup6\n      add\n      swap3\n      pop\n        /* \"--CODEGEN--\":14531:15260   */\n    tag_792:\n      pop\n        /* \"--CODEGEN--\":14489:15266   */\n      pop\n      swap3\n      swap2\n      pop\n      pop\n      jump\n        /* \"--CODEGEN--\":15275:15650   */\n    tag_803:\n      0x00\n        /* \"--CODEGEN--\":15435:15502   */\n      tag_804\n        /* \"--CODEGEN--\":15499:15501   */\n      0x26\n        /* \"--CODEGEN--\":15494:15497   */\n      dup4\n        /* \"--CODEGEN--\":15435:15502   */\n      jump(tag_758)\n    tag_804:\n        /* \"--CODEGEN--\":15535:15569   */\n      0x4f776e61626c653a206e6577206f776e657220697320746865207a65726f2061\n        /* \"--CODEGEN--\":15515:15570   */\n      dup2\n      mstore\n      shl(0xd0, 0x646472657373)\n        /* \"--CODEGEN--\":15599:15601   */\n      0x20\n        /* \"--CODEGEN--\":15590:15602   */\n      dup3\n      add\n        /* \"--CODEGEN--\":15583:15613   */\n      mstore\n        /* \"--CODEGEN--\":15641:15643   */\n      0x40\n        /* \"--CODEGEN--\":15632:15644   */\n      add\n      swap3\n        /* \"--CODEGEN--\":15421:15650   */\n      swap2\n      pop\n      pop\n      jump\n        /* \"--CODEGEN--\":15659:16031   */\n    tag_805:\n      0x00\n        /* \"--CODEGEN--\":15819:15886   */\n      tag_806\n        /* \"--CODEGEN--\":15883:15885   */\n      0x23\n        /* \"--CODEGEN--\":15878:15881   */\n      dup4\n        /* \"--CODEGEN--\":15819:15886   */\n      jump(tag_758)\n    tag_806:\n        /* \"--CODEGEN--\":15919:15953   */\n      0x41646d696e4d616e616765723a2061646d696e20616e64206f776e6572206f6e\n        /* \"--CODEGEN--\":15899:15954   */\n      dup2\n      mstore\n      shl(0xe9, 0x363c97)\n        /* \"--CODEGEN--\":15983:15985   */\n      0x20\n        /* \"--CODEGEN--\":15974:15986   */\n      dup3\n      add\n        /* \"--CODEGEN--\":15967:15994   */\n      mstore\n        /* \"--CODEGEN--\":16022:16024   */\n      0x40\n        /* \"--CODEGEN--\":16013:16025   */\n      add\n      swap3\n        /* \"--CODEGEN--\":15805:16031   */\n      swap2\n      pop\n      pop\n      jump\n        /* \"--CODEGEN--\":16040:16367   */\n    tag_807:\n      0x00\n        /* \"--CODEGEN--\":16200:16267   */\n      tag_808\n        /* \"--CODEGEN--\":16264:16266   */\n      0x1b\n        /* \"--CODEGEN--\":16259:16262   */\n      dup4\n        /* \"--CODEGEN--\":16200:16267   */\n      jump(tag_758)\n    tag_808:\n        /* \"--CODEGEN--\":16300:16329   */\n      0x546f6b656e206e6f74206170706f726f766520666f72206275726e0000000000\n        /* \"--CODEGEN--\":16280:16330   */\n      dup2\n      mstore\n        /* \"--CODEGEN--\":16358:16360   */\n      0x20\n        /* \"--CODEGEN--\":16349:16361   */\n      add\n      swap3\n        /* \"--CODEGEN--\":16186:16367   */\n      swap2\n      pop\n      pop\n      jump\n        /* \"--CODEGEN--\":16376:16708   */\n    tag_809:\n      0x00\n        /* \"--CODEGEN--\":16536:16603   */\n      tag_810\n        /* \"--CODEGEN--\":16600:16602   */\n      0x20\n        /* \"--CODEGEN--\":16595:16598   */\n      dup4\n        /* \"--CODEGEN--\":16536:16603   */\n      jump(tag_758)\n    tag_810:\n        /* \"--CODEGEN--\":16636:16670   */\n      0x4f776e61626c653a2063616c6c6572206973206e6f7420746865206f776e6572\n        /* \"--CODEGEN--\":16616:16671   */\n      dup2\n      mstore\n        /* \"--CODEGEN--\":16699:16701   */\n      0x20\n        /* \"--CODEGEN--\":16690:16702   */\n      add\n      swap3\n        /* \"--CODEGEN--\":16522:16708   */\n      swap2\n      pop\n      pop\n      jump\n        /* \"--CODEGEN--\":16717:17038   */\n    tag_811:\n      0x00\n        /* \"--CODEGEN--\":16877:16944   */\n      tag_812\n        /* \"--CODEGEN--\":16941:16943   */\n      0x15\n        /* \"--CODEGEN--\":16936:16939   */\n      dup4\n        /* \"--CODEGEN--\":16877:16944   */\n      jump(tag_758)\n    tag_812:\n      shl(0x5a, 0x18591b5a5b88185b1c9958591e481a5b881b1a5cdd)\n        /* \"--CODEGEN--\":16957:17001   */\n      dup2\n      mstore\n        /* \"--CODEGEN--\":17029:17031   */\n      0x20\n        /* \"--CODEGEN--\":17020:17032   */\n      add\n      swap3\n        /* \"--CODEGEN--\":16863:17038   */\n      swap2\n      pop\n      pop\n      jump\n        /* \"--CODEGEN--\":17046:17159   */\n    tag_813:\n        /* \"--CODEGEN--\":17129:17153   */\n      tag_748\n        /* \"--CODEGEN--\":17147:17152   */\n      dup2\n        /* \"--CODEGEN--\":17129:17153   */\n      jump(tag_815)\n        /* \"--CODEGEN--\":17166:17426   */\n    tag_225:\n      0x00\n        /* \"--CODEGEN--\":17309:17401   */\n      tag_816\n        /* \"--CODEGEN--\":17397:17400   */\n      dup3\n        /* \"--CODEGEN--\":17388:17394   */\n      dup5\n        /* \"--CODEGEN--\":17309:17401   */\n      jump(tag_791)\n    tag_816:\n        /* \"--CODEGEN--\":17302:17401   */\n      swap4\n        /* \"--CODEGEN--\":17290:17426   */\n      swap3\n      pop\n      pop\n      pop\n      jump\n        /* \"--CODEGEN--\":17433:17646   */\n    tag_64:\n        /* \"--CODEGEN--\":17551:17553   */\n      0x20\n        /* \"--CODEGEN--\":17536:17554   */\n      dup2\n      add\n        /* \"--CODEGEN--\":17565:17636   */\n      tag_629\n        /* \"--CODEGEN--\":17540:17549   */\n      dup3\n        /* \"--CODEGEN--\":17609:17615   */\n      dup5\n        /* \"--CODEGEN--\":17565:17636   */\n      jump(tag_746)\n        /* \"--CODEGEN--\":17653:17882   */\n    tag_579:\n        /* \"--CODEGEN--\":17779:17781   */\n      0x20\n        /* \"--CODEGEN--\":17764:17782   */\n      dup2\n      add\n        /* \"--CODEGEN--\":17793:17872   */\n      tag_629\n        /* \"--CODEGEN--\":17768:17777   */\n      dup3\n        /* \"--CODEGEN--\":17845:17851   */\n      dup5\n        /* \"--CODEGEN--\":17793:17872   */\n      jump(tag_747)\n        /* \"--CODEGEN--\":17889:18229   */\n    tag_585:\n        /* \"--CODEGEN--\":18043:18045   */\n      0x40\n        /* \"--CODEGEN--\":18028:18046   */\n      dup2\n      add\n        /* \"--CODEGEN--\":18057:18136   */\n      tag_819\n        /* \"--CODEGEN--\":18032:18041   */\n      dup3\n        /* \"--CODEGEN--\":18109:18115   */\n      dup6\n        /* \"--CODEGEN--\":18057:18136   */\n      jump(tag_747)\n    tag_819:\n        /* \"--CODEGEN--\":18147:18219   */\n      tag_816\n        /* \"--CODEGEN--\":18215:18217   */\n      0x20\n        /* \"--CODEGEN--\":18204:18213   */\n      dup4\n        /* \"--CODEGEN--\":18200:18218   */\n      add\n        /* \"--CODEGEN--\":18191:18197   */\n      dup5\n        /* \"--CODEGEN--\":18147:18219   */\n      jump(tag_813)\n        /* \"--CODEGEN--\":18236:18671   */\n    tag_221:\n        /* \"--CODEGEN--\":18410:18412   */\n      0x60\n        /* \"--CODEGEN--\":18395:18413   */\n      dup2\n      add\n        /* \"--CODEGEN--\":18424:18495   */\n      tag_821\n        /* \"--CODEGEN--\":18399:18408   */\n      dup3\n        /* \"--CODEGEN--\":18468:18474   */\n      dup7\n        /* \"--CODEGEN--\":18424:18495   */\n      jump(tag_746)\n    tag_821:\n        /* \"--CODEGEN--\":18506:18578   */\n      tag_822\n        /* \"--CODEGEN--\":18574:18576   */\n      0x20\n        /* \"--CODEGEN--\":18563:18572   */\n      dup4\n        /* \"--CODEGEN--\":18559:18577   */\n      add\n        /* \"--CODEGEN--\":18550:18556   */\n      dup6\n        /* \"--CODEGEN--\":18506:18578   */\n      jump(tag_746)\n    tag_822:\n        /* \"--CODEGEN--\":18589:18661   */\n      tag_242\n        /* \"--CODEGEN--\":18657:18659   */\n      0x40\n        /* \"--CODEGEN--\":18646:18655   */\n      dup4\n        /* \"--CODEGEN--\":18642:18660   */\n      add\n        /* \"--CODEGEN--\":18633:18639   */\n      dup5\n        /* \"--CODEGEN--\":18589:18661   */\n      jump(tag_813)\n        /* \"--CODEGEN--\":18678:19309   */\n    tag_394:\n        /* \"--CODEGEN--\":18898:18901   */\n      0x80\n        /* \"--CODEGEN--\":18883:18902   */\n      dup2\n      add\n        /* \"--CODEGEN--\":18913:18984   */\n      tag_824\n        /* \"--CODEGEN--\":18887:18896   */\n      dup3\n        /* \"--CODEGEN--\":18957:18963   */\n      dup8\n        /* \"--CODEGEN--\":18913:18984   */\n      jump(tag_746)\n    tag_824:\n        /* \"--CODEGEN--\":18995:19067   */\n      tag_825\n        /* \"--CODEGEN--\":19063:19065   */\n      0x20\n        /* \"--CODEGEN--\":19052:19061   */\n      dup4\n        /* \"--CODEGEN--\":19048:19066   */\n      add\n        /* \"--CODEGEN--\":19039:19045   */\n      dup7\n        /* \"--CODEGEN--\":18995:19067   */\n      jump(tag_746)\n    tag_825:\n        /* \"--CODEGEN--\":19078:19150   */\n      tag_826\n        /* \"--CODEGEN--\":19146:19148   */\n      0x40\n        /* \"--CODEGEN--\":19135:19144   */\n      dup4\n        /* \"--CODEGEN--\":19131:19149   */\n      add\n        /* \"--CODEGEN--\":19122:19128   */\n      dup6\n        /* \"--CODEGEN--\":19078:19150   */\n      jump(tag_813)\n    tag_826:\n        /* \"--CODEGEN--\":19198:19207   */\n      dup2\n        /* \"--CODEGEN--\":19192:19196   */\n      dup2\n        /* \"--CODEGEN--\":19188:19208   */\n      sub\n        /* \"--CODEGEN--\":19183:19185   */\n      0x60\n        /* \"--CODEGEN--\":19172:19181   */\n      dup4\n        /* \"--CODEGEN--\":19168:19186   */\n      add\n        /* \"--CODEGEN--\":19161:19209   */\n      mstore\n        /* \"--CODEGEN--\":19223:19299   */\n      tag_827\n        /* \"--CODEGEN--\":19294:19298   */\n      dup2\n        /* \"--CODEGEN--\":19285:19291   */\n      dup5\n        /* \"--CODEGEN--\":19223:19299   */\n      jump(tag_773)\n    tag_827:\n        /* \"--CODEGEN--\":19215:19299   */\n      swap7\n        /* \"--CODEGEN--\":18869:19309   */\n      swap6\n      pop\n      pop\n      pop\n      pop\n      pop\n      pop\n      jump\n        /* \"--CODEGEN--\":19316:19656   */\n    tag_604:\n        /* \"--CODEGEN--\":19470:19472   */\n      0x40\n        /* \"--CODEGEN--\":19455:19473   */\n      dup2\n      add\n        /* \"--CODEGEN--\":19484:19555   */\n      tag_828\n        /* \"--CODEGEN--\":19459:19468   */\n      dup3\n        /* \"--CODEGEN--\":19528:19534   */\n      dup6\n        /* \"--CODEGEN--\":19484:19555   */\n      jump(tag_746)\n    tag_828:\n        /* \"--CODEGEN--\":19566:19646   */\n      tag_816\n        /* \"--CODEGEN--\":19642:19644   */\n      0x20\n        /* \"--CODEGEN--\":19631:19640   */\n      dup4\n        /* \"--CODEGEN--\":19627:19645   */\n      add\n        /* \"--CODEGEN--\":19618:19624   */\n      dup5\n        /* \"--CODEGEN--\":19566:19646   */\n      jump(tag_781)\n        /* \"--CODEGEN--\":19663:19987   */\n    tag_227:\n        /* \"--CODEGEN--\":19809:19811   */\n      0x40\n        /* \"--CODEGEN--\":19794:19812   */\n      dup2\n      add\n        /* \"--CODEGEN--\":19823:19894   */\n      tag_819\n        /* \"--CODEGEN--\":19798:19807   */\n      dup3\n        /* \"--CODEGEN--\":19867:19873   */\n      dup6\n        /* \"--CODEGEN--\":19823:19894   */\n      jump(tag_746)\n        /* \"--CODEGEN--\":19994:20429   */\n    tag_283:\n        /* \"--CODEGEN--\":20168:20170   */\n      0x60\n        /* \"--CODEGEN--\":20153:20171   */\n      dup2\n      add\n        /* \"--CODEGEN--\":20182:20253   */\n      tag_832\n        /* \"--CODEGEN--\":20157:20166   */\n      dup3\n        /* \"--CODEGEN--\":20226:20232   */\n      dup7\n        /* \"--CODEGEN--\":20182:20253   */\n      jump(tag_746)\n    tag_832:\n        /* \"--CODEGEN--\":20264:20336   */\n      tag_833\n        /* \"--CODEGEN--\":20332:20334   */\n      0x20\n        /* \"--CODEGEN--\":20321:20330   */\n      dup4\n        /* \"--CODEGEN--\":20317:20335   */\n      add\n        /* \"--CODEGEN--\":20308:20314   */\n      dup6\n        /* \"--CODEGEN--\":20264:20336   */\n      jump(tag_813)\n    tag_833:\n        /* \"--CODEGEN--\":20347:20419   */\n      tag_242\n        /* \"--CODEGEN--\":20415:20417   */\n      0x40\n        /* \"--CODEGEN--\":20404:20413   */\n      dup4\n        /* \"--CODEGEN--\":20400:20418   */\n      add\n        /* \"--CODEGEN--\":20391:20397   */\n      dup5\n        /* \"--CODEGEN--\":20347:20419   */\n      jump(tag_746)\n        /* \"--CODEGEN--\":20436:20797   */\n    tag_102:\n        /* \"--CODEGEN--\":20604:20606   */\n      0x20\n        /* \"--CODEGEN--\":20618:20665   */\n      dup1\n      dup3\n      mstore\n        /* \"--CODEGEN--\":20589:20607   */\n      dup2\n      add\n        /* \"--CODEGEN--\":20679:20787   */\n      tag_816\n        /* \"--CODEGEN--\":20589:20607   */\n      dup2\n        /* \"--CODEGEN--\":20773:20779   */\n      dup5\n        /* \"--CODEGEN--\":20679:20787   */\n      jump(tag_754)\n        /* \"--CODEGEN--\":20804:21005   */\n    tag_164:\n        /* \"--CODEGEN--\":20916:20918   */\n      0x20\n        /* \"--CODEGEN--\":20901:20919   */\n      dup2\n      add\n        /* \"--CODEGEN--\":20930:20995   */\n      tag_629\n        /* \"--CODEGEN--\":20905:20914   */\n      dup3\n        /* \"--CODEGEN--\":20968:20974   */\n      dup5\n        /* \"--CODEGEN--\":20930:20995   */\n      jump(tag_767)\n        /* \"--CODEGEN--\":21012:21221   */\n    tag_71:\n        /* \"--CODEGEN--\":21128:21130   */\n      0x20\n        /* \"--CODEGEN--\":21113:21131   */\n      dup2\n      add\n        /* \"--CODEGEN--\":21142:21211   */\n      tag_629\n        /* \"--CODEGEN--\":21117:21126   */\n      dup3\n        /* \"--CODEGEN--\":21184:21190   */\n      dup5\n        /* \"--CODEGEN--\":21142:21211   */\n      jump(tag_770)\n        /* \"--CODEGEN--\":21228:21640   */\n    tag_606:\n        /* \"--CODEGEN--\":21394:21396   */\n      0x40\n        /* \"--CODEGEN--\":21408:21455   */\n      dup1\n      dup3\n      mstore\n        /* \"--CODEGEN--\":21379:21397   */\n      dup2\n      add\n        /* \"--CODEGEN--\":21469:21547   */\n      tag_838\n        /* \"--CODEGEN--\":21379:21397   */\n      dup2\n        /* \"--CODEGEN--\":21533:21539   */\n      dup6\n        /* \"--CODEGEN--\":21469:21547   */\n      jump(tag_773)\n    tag_838:\n        /* \"--CODEGEN--\":21461:21547   */\n      swap1\n      pop\n        /* \"--CODEGEN--\":21558:21630   */\n      tag_816\n        /* \"--CODEGEN--\":21626:21628   */\n      0x20\n        /* \"--CODEGEN--\":21615:21624   */\n      dup4\n        /* \"--CODEGEN--\":21611:21629   */\n      add\n        /* \"--CODEGEN--\":21602:21608   */\n      dup5\n        /* \"--CODEGEN--\":21558:21630   */\n      jump(tag_813)\n        /* \"--CODEGEN--\":21647:22054   */\n    tag_626:\n        /* \"--CODEGEN--\":21838:21840   */\n      0x20\n        /* \"--CODEGEN--\":21852:21899   */\n      dup1\n      dup3\n      mstore\n        /* \"--CODEGEN--\":21823:21841   */\n      dup2\n      add\n        /* \"--CODEGEN--\":21913:22044   */\n      tag_629\n        /* \"--CODEGEN--\":21823:21841   */\n      dup2\n        /* \"--CODEGEN--\":21913:22044   */\n      jump(tag_803)\n        /* \"--CODEGEN--\":22061:22468   */\n    tag_218:\n        /* \"--CODEGEN--\":22252:22254   */\n      0x20\n        /* \"--CODEGEN--\":22266:22313   */\n      dup1\n      dup3\n      mstore\n        /* \"--CODEGEN--\":22237:22255   */\n      dup2\n      add\n        /* \"--CODEGEN--\":22327:22458   */\n      tag_629\n        /* \"--CODEGEN--\":22237:22255   */\n      dup2\n        /* \"--CODEGEN--\":22327:22458   */\n      jump(tag_805)\n        /* \"--CODEGEN--\":22475:22882   */\n    tag_366:\n        /* \"--CODEGEN--\":22666:22668   */\n      0x20\n        /* \"--CODEGEN--\":22680:22727   */\n      dup1\n      dup3\n      mstore\n        /* \"--CODEGEN--\":22651:22669   */\n      dup2\n      add\n        /* \"--CODEGEN--\":22741:22872   */\n      tag_629\n        /* \"--CODEGEN--\":22651:22669   */\n      dup2\n        /* \"--CODEGEN--\":22741:22872   */\n      jump(tag_807)\n        /* \"--CODEGEN--\":22889:23296   */\n    tag_247:\n        /* \"--CODEGEN--\":23080:23082   */\n      0x20\n        /* \"--CODEGEN--\":23094:23141   */\n      dup1\n      dup3\n      mstore\n        /* \"--CODEGEN--\":23065:23083   */\n      dup2\n      add\n        /* \"--CODEGEN--\":23155:23286   */\n      tag_629\n        /* \"--CODEGEN--\":23065:23083   */\n      dup2\n        /* \"--CODEGEN--\":23155:23286   */\n      jump(tag_809)\n        /* \"--CODEGEN--\":23303:23710   */\n    tag_445:\n        /* \"--CODEGEN--\":23494:23496   */\n      0x20\n        /* \"--CODEGEN--\":23508:23555   */\n      dup1\n      dup3\n      mstore\n        /* \"--CODEGEN--\":23479:23497   */\n      dup2\n      add\n        /* \"--CODEGEN--\":23569:23700   */\n      tag_629\n        /* \"--CODEGEN--\":23479:23497   */\n      dup2\n        /* \"--CODEGEN--\":23569:23700   */\n      jump(tag_811)\n        /* \"--CODEGEN--\":23717:23930   */\n    tag_354:\n        /* \"--CODEGEN--\":23835:23837   */\n      0x20\n        /* \"--CODEGEN--\":23820:23838   */\n      dup2\n      add\n        /* \"--CODEGEN--\":23849:23920   */\n      tag_629\n        /* \"--CODEGEN--\":23824:23833   */\n      dup3\n        /* \"--CODEGEN--\":23893:23899   */\n      dup5\n        /* \"--CODEGEN--\":23849:23920   */\n      jump(tag_813)\n        /* \"--CODEGEN--\":23937:24261   */\n    tag_270:\n        /* \"--CODEGEN--\":24083:24085   */\n      0x40\n        /* \"--CODEGEN--\":24068:24086   */\n      dup2\n      add\n        /* \"--CODEGEN--\":24097:24168   */\n      tag_846\n        /* \"--CODEGEN--\":24072:24081   */\n      dup3\n        /* \"--CODEGEN--\":24141:24147   */\n      dup6\n        /* \"--CODEGEN--\":24097:24168   */\n      jump(tag_813)\n    tag_846:\n        /* \"--CODEGEN--\":24179:24251   */\n      tag_816\n        /* \"--CODEGEN--\":24247:24249   */\n      0x20\n        /* \"--CODEGEN--\":24236:24245   */\n      dup4\n        /* \"--CODEGEN--\":24232:24250   */\n      add\n        /* \"--CODEGEN--\":24223:24229   */\n      dup5\n        /* \"--CODEGEN--\":24179:24251   */\n      jump(tag_746)\n        /* \"--CODEGEN--\":24268:24803   */\n    tag_417:\n        /* \"--CODEGEN--\":24464:24467   */\n      0x80\n        /* \"--CODEGEN--\":24449:24468   */\n      dup2\n      add\n        /* \"--CODEGEN--\":24479:24550   */\n      tag_848\n        /* \"--CODEGEN--\":24453:24462   */\n      dup3\n        /* \"--CODEGEN--\":24523:24529   */\n      dup8\n        /* \"--CODEGEN--\":24479:24550   */\n      jump(tag_813)\n    tag_848:\n        /* \"--CODEGEN--\":24561:24633   */\n      tag_849\n        /* \"--CODEGEN--\":24629:24631   */\n      0x20\n        /* \"--CODEGEN--\":24618:24627   */\n      dup4\n        /* \"--CODEGEN--\":24614:24632   */\n      add\n        /* \"--CODEGEN--\":24605:24611   */\n      dup7\n        /* \"--CODEGEN--\":24561:24633   */\n      jump(tag_746)\n    tag_849:\n        /* \"--CODEGEN--\":24644:24716   */\n      tag_850\n        /* \"--CODEGEN--\":24712:24714   */\n      0x40\n        /* \"--CODEGEN--\":24701:24710   */\n      dup4\n        /* \"--CODEGEN--\":24697:24715   */\n      add\n        /* \"--CODEGEN--\":24688:24694   */\n      dup6\n        /* \"--CODEGEN--\":24644:24716   */\n      jump(tag_746)\n    tag_850:\n        /* \"--CODEGEN--\":24727:24793   */\n      tag_851\n        /* \"--CODEGEN--\":24789:24791   */\n      0x60\n        /* \"--CODEGEN--\":24778:24787   */\n      dup4\n        /* \"--CODEGEN--\":24774:24792   */\n      add\n        /* \"--CODEGEN--\":24765:24771   */\n      dup5\n        /* \"--CODEGEN--\":24727:24793   */\n      jump(tag_767)\n    tag_851:\n        /* \"--CODEGEN--\":24435:24803   */\n      swap6\n      swap5\n      pop\n      pop\n      pop\n      pop\n      pop\n      jump\n        /* \"--CODEGEN--\":24810:25357   */\n    tag_320:\n        /* \"--CODEGEN--\":25012:25015   */\n      0x80\n        /* \"--CODEGEN--\":24997:25016   */\n      dup2\n      add\n        /* \"--CODEGEN--\":25027:25098   */\n      tag_852\n        /* \"--CODEGEN--\":25001:25010   */\n      dup3\n        /* \"--CODEGEN--\":25071:25077   */\n      dup8\n        /* \"--CODEGEN--\":25027:25098   */\n      jump(tag_813)\n    tag_852:\n        /* \"--CODEGEN--\":25109:25181   */\n      tag_853\n        /* \"--CODEGEN--\":25177:25179   */\n      0x20\n        /* \"--CODEGEN--\":25166:25175   */\n      dup4\n        /* \"--CODEGEN--\":25162:25180   */\n      add\n        /* \"--CODEGEN--\":25153:25159   */\n      dup7\n        /* \"--CODEGEN--\":25109:25181   */\n      jump(tag_746)\n    tag_853:\n        /* \"--CODEGEN--\":25192:25264   */\n      tag_854\n        /* \"--CODEGEN--\":25260:25262   */\n      0x40\n        /* \"--CODEGEN--\":25249:25258   */\n      dup4\n        /* \"--CODEGEN--\":25245:25263   */\n      add\n        /* \"--CODEGEN--\":25236:25242   */\n      dup6\n        /* \"--CODEGEN--\":25192:25264   */\n      jump(tag_746)\n    tag_854:\n        /* \"--CODEGEN--\":25275:25347   */\n      tag_851\n        /* \"--CODEGEN--\":25343:25345   */\n      0x60\n        /* \"--CODEGEN--\":25332:25341   */\n      dup4\n        /* \"--CODEGEN--\":25328:25346   */\n      add\n        /* \"--CODEGEN--\":25319:25325   */\n      dup5\n        /* \"--CODEGEN--\":25275:25347   */\n      jump(tag_813)\n        /* \"--CODEGEN--\":25364:25787   */\n    tag_460:\n        /* \"--CODEGEN--\":25532:25534   */\n      0x60\n        /* \"--CODEGEN--\":25517:25535   */\n      dup2\n      add\n        /* \"--CODEGEN--\":25546:25617   */\n      tag_856\n        /* \"--CODEGEN--\":25521:25530   */\n      dup3\n        /* \"--CODEGEN--\":25590:25596   */\n      dup7\n        /* \"--CODEGEN--\":25546:25617   */\n      jump(tag_813)\n    tag_856:\n        /* \"--CODEGEN--\":25628:25700   */\n      tag_857\n        /* \"--CODEGEN--\":25696:25698   */\n      0x20\n        /* \"--CODEGEN--\":25685:25694   */\n      dup4\n        /* \"--CODEGEN--\":25681:25699   */\n      add\n        /* \"--CODEGEN--\":25672:25678   */\n      dup6\n        /* \"--CODEGEN--\":25628:25700   */\n      jump(tag_746)\n    tag_857:\n        /* \"--CODEGEN--\":25711:25777   */\n      tag_242\n        /* \"--CODEGEN--\":25773:25775   */\n      0x40\n        /* \"--CODEGEN--\":25762:25771   */\n      dup4\n        /* \"--CODEGEN--\":25758:25776   */\n      add\n        /* \"--CODEGEN--\":25749:25755   */\n      dup5\n        /* \"--CODEGEN--\":25711:25777   */\n      jump(tag_767)\n        /* \"--CODEGEN--\":25794:26229   */\n    tag_537:\n        /* \"--CODEGEN--\":25968:25970   */\n      0x60\n        /* \"--CODEGEN--\":25953:25971   */\n      dup2\n      add\n        /* \"--CODEGEN--\":25982:26053   */\n      tag_821\n        /* \"--CODEGEN--\":25957:25966   */\n      dup3\n        /* \"--CODEGEN--\":26026:26032   */\n      dup7\n        /* \"--CODEGEN--\":25982:26053   */\n      jump(tag_813)\n        /* \"--CODEGEN--\":26236:26783   */\n    tag_617:\n        /* \"--CODEGEN--\":26438:26441   */\n      0x80\n        /* \"--CODEGEN--\":26423:26442   */\n      dup2\n      add\n        /* \"--CODEGEN--\":26453:26524   */\n      tag_862\n        /* \"--CODEGEN--\":26427:26436   */\n      dup3\n        /* \"--CODEGEN--\":26497:26503   */\n      dup8\n        /* \"--CODEGEN--\":26453:26524   */\n      jump(tag_813)\n    tag_862:\n        /* \"--CODEGEN--\":26535:26607   */\n      tag_863\n        /* \"--CODEGEN--\":26603:26605   */\n      0x20\n        /* \"--CODEGEN--\":26592:26601   */\n      dup4\n        /* \"--CODEGEN--\":26588:26606   */\n      add\n        /* \"--CODEGEN--\":26579:26585   */\n      dup7\n        /* \"--CODEGEN--\":26535:26607   */\n      jump(tag_746)\n    tag_863:\n        /* \"--CODEGEN--\":26618:26690   */\n      tag_864\n        /* \"--CODEGEN--\":26686:26688   */\n      0x40\n        /* \"--CODEGEN--\":26675:26684   */\n      dup4\n        /* \"--CODEGEN--\":26671:26689   */\n      add\n        /* \"--CODEGEN--\":26662:26668   */\n      dup6\n        /* \"--CODEGEN--\":26618:26690   */\n      jump(tag_813)\n    tag_864:\n        /* \"--CODEGEN--\":26701:26773   */\n      tag_851\n        /* \"--CODEGEN--\":26769:26771   */\n      0x60\n        /* \"--CODEGEN--\":26758:26767   */\n      dup4\n        /* \"--CODEGEN--\":26754:26772   */\n      add\n        /* \"--CODEGEN--\":26745:26751   */\n      dup5\n        /* \"--CODEGEN--\":26701:26773   */\n      jump(tag_746)\n        /* \"--CODEGEN--\":26790:27202   */\n    tag_371:\n        /* \"--CODEGEN--\":26956:26958   */\n      0x40\n        /* \"--CODEGEN--\":26941:26959   */\n      dup2\n      add\n        /* \"--CODEGEN--\":26970:27041   */\n      tag_866\n        /* \"--CODEGEN--\":26945:26954   */\n      dup3\n        /* \"--CODEGEN--\":27014:27020   */\n      dup6\n        /* \"--CODEGEN--\":26970:27041   */\n      jump(tag_813)\n    tag_866:\n        /* \"--CODEGEN--\":27089:27098   */\n      dup2\n        /* \"--CODEGEN--\":27083:27087   */\n      dup2\n        /* \"--CODEGEN--\":27079:27099   */\n      sub\n        /* \"--CODEGEN--\":27074:27076   */\n      0x20\n        /* \"--CODEGEN--\":27063:27072   */\n      dup4\n        /* \"--CODEGEN--\":27059:27077   */\n      add\n        /* \"--CODEGEN--\":27052:27100   */\n      mstore\n        /* \"--CODEGEN--\":27114:27192   */\n      tag_242\n        /* \"--CODEGEN--\":27187:27191   */\n      dup2\n        /* \"--CODEGEN--\":27178:27184   */\n      dup5\n        /* \"--CODEGEN--\":27114:27192   */\n      jump(tag_773)\n        /* \"--CODEGEN--\":27209:28204   */\n    tag_430:\n        /* \"--CODEGEN--\":27523:27526   */\n      0x0100\n        /* \"--CODEGEN--\":27508:27527   */\n      dup2\n      add\n        /* \"--CODEGEN--\":27538:27609   */\n      tag_868\n        /* \"--CODEGEN--\":27512:27521   */\n      dup3\n        /* \"--CODEGEN--\":27582:27588   */\n      dup12\n        /* \"--CODEGEN--\":27538:27609   */\n      jump(tag_813)\n    tag_868:\n        /* \"--CODEGEN--\":27620:27692   */\n      tag_869\n        /* \"--CODEGEN--\":27688:27690   */\n      0x20\n        /* \"--CODEGEN--\":27677:27686   */\n      dup4\n        /* \"--CODEGEN--\":27673:27691   */\n      add\n        /* \"--CODEGEN--\":27664:27670   */\n      dup11\n        /* \"--CODEGEN--\":27620:27692   */\n      jump(tag_813)\n    tag_869:\n        /* \"--CODEGEN--\":27703:27775   */\n      tag_870\n        /* \"--CODEGEN--\":27771:27773   */\n      0x40\n        /* \"--CODEGEN--\":27760:27769   */\n      dup4\n        /* \"--CODEGEN--\":27756:27774   */\n      add\n        /* \"--CODEGEN--\":27747:27753   */\n      dup10\n        /* \"--CODEGEN--\":27703:27775   */\n      jump(tag_813)\n    tag_870:\n        /* \"--CODEGEN--\":27786:27858   */\n      tag_871\n        /* \"--CODEGEN--\":27854:27856   */\n      0x60\n        /* \"--CODEGEN--\":27843:27852   */\n      dup4\n        /* \"--CODEGEN--\":27839:27857   */\n      add\n        /* \"--CODEGEN--\":27830:27836   */\n      dup9\n        /* \"--CODEGEN--\":27786:27858   */\n      jump(tag_813)\n    tag_871:\n        /* \"--CODEGEN--\":27869:27942   */\n      tag_872\n        /* \"--CODEGEN--\":27937:27940   */\n      0x80\n        /* \"--CODEGEN--\":27926:27935   */\n      dup4\n        /* \"--CODEGEN--\":27922:27941   */\n      add\n        /* \"--CODEGEN--\":27913:27919   */\n      dup8\n        /* \"--CODEGEN--\":27869:27942   */\n      jump(tag_813)\n    tag_872:\n        /* \"--CODEGEN--\":27953:28026   */\n      tag_873\n        /* \"--CODEGEN--\":28021:28024   */\n      0xa0\n        /* \"--CODEGEN--\":28010:28019   */\n      dup4\n        /* \"--CODEGEN--\":28006:28025   */\n      add\n        /* \"--CODEGEN--\":27997:28003   */\n      dup7\n        /* \"--CODEGEN--\":27953:28026   */\n      jump(tag_813)\n    tag_873:\n        /* \"--CODEGEN--\":28037:28110   */\n      tag_874\n        /* \"--CODEGEN--\":28105:28108   */\n      0xc0\n        /* \"--CODEGEN--\":28094:28103   */\n      dup4\n        /* \"--CODEGEN--\":28090:28109   */\n      add\n        /* \"--CODEGEN--\":28081:28087   */\n      dup6\n        /* \"--CODEGEN--\":28037:28110   */\n      jump(tag_746)\n    tag_874:\n        /* \"--CODEGEN--\":28121:28194   */\n      tag_875\n        /* \"--CODEGEN--\":28189:28192   */\n      0xe0\n        /* \"--CODEGEN--\":28178:28187   */\n      dup4\n        /* \"--CODEGEN--\":28174:28193   */\n      add\n        /* \"--CODEGEN--\":28165:28171   */\n      dup5\n        /* \"--CODEGEN--\":28121:28194   */\n      jump(tag_746)\n    tag_875:\n        /* \"--CODEGEN--\":27494:28204   */\n      swap10\n      swap9\n      pop\n      pop\n      pop\n      pop\n      pop\n      pop\n      pop\n      pop\n      pop\n      jump\n        /* \"--CODEGEN--\":28211:28467   */\n    tag_641:\n        /* \"--CODEGEN--\":28273:28275   */\n      0x40\n        /* \"--CODEGEN--\":28267:28276   */\n      mload\n        /* \"--CODEGEN--\":28299:28316   */\n      dup2\n      dup2\n      add\n        /* \"--CODEGEN--\":28374:28392   */\n      0xffffffffffffffff\n        /* \"--CODEGEN--\":28359:28393   */\n      dup2\n      gt\n        /* \"--CODEGEN--\":28395:28417   */\n      dup3\n      dup3\n      lt\n        /* \"--CODEGEN--\":28356:28418   */\n      or\n        /* \"--CODEGEN--\":28353:28355   */\n      iszero\n      tag_876\n      jumpi\n        /* \"--CODEGEN--\":28431:28432   */\n      0x00\n        /* \"--CODEGEN--\":28428:28429   */\n      dup1\n        /* \"--CODEGEN--\":28421:28433   */\n      revert\n        /* \"--CODEGEN--\":28353:28355   */\n    tag_876:\n        /* \"--CODEGEN--\":28447:28449   */\n      0x40\n        /* \"--CODEGEN--\":28440:28462   */\n      mstore\n        /* \"--CODEGEN--\":28251:28467   */\n      swap2\n      swap1\n      pop\n      jump\n        /* \"--CODEGEN--\":28474:28795   */\n    tag_640:\n      0x00\n        /* \"--CODEGEN--\":28617:28635   */\n      0xffffffffffffffff\n        /* \"--CODEGEN--\":28609:28615   */\n      dup3\n        /* \"--CODEGEN--\":28606:28636   */\n      gt\n        /* \"--CODEGEN--\":28603:28605   */\n      iszero\n      tag_877\n      jumpi\n        /* \"--CODEGEN--\":28649:28650   */\n      0x00\n        /* \"--CODEGEN--\":28646:28647   */\n      dup1\n        /* \"--CODEGEN--\":28639:28651   */\n      revert\n        /* \"--CODEGEN--\":28603:28605   */\n    tag_877:\n      pop\n        /* \"--CODEGEN--\":28780:28784   */\n      0x20\n        /* \"--CODEGEN--\":28716:28720   */\n      0x1f\n        /* \"--CODEGEN--\":28693:28710   */\n      swap2\n      swap1\n      swap2\n      add\n      not(0x1f)\n        /* \"--CODEGEN--\":28689:28722   */\n      and\n        /* \"--CODEGEN--\":28770:28785   */\n      add\n      swap1\n        /* \"--CODEGEN--\":28540:28795   */\n      jump\n        /* \"--CODEGEN--\":29131:29282   */\n    tag_760:\n        /* \"--CODEGEN--\":29255:29259   */\n      0x20\n        /* \"--CODEGEN--\":29246:29260   */\n      add\n      swap1\n        /* \"--CODEGEN--\":29203:29282   */\n      jump\n        /* \"--CODEGEN--\":29289:29447   */\n    tag_799:\n      0x00\n        /* \"--CODEGEN--\":29384:29398   */\n      swap1\n      dup2\n      mstore\n        /* \"--CODEGEN--\":29426:29430   */\n      0x20\n        /* \"--CODEGEN--\":29413:29431   */\n      swap1\n      keccak256\n      swap1\n        /* \"--CODEGEN--\":29343:29447   */\n      jump\n        /* \"--CODEGEN--\":29454:29591   */\n    tag_756:\n        /* \"--CODEGEN--\":29557:29569   */\n      mload\n      swap1\n        /* \"--CODEGEN--\":29528:29591   */\n      jump\n        /* \"--CODEGEN--\":29971:30149   */\n    tag_758:\n        /* \"--CODEGEN--\":30089:30108   */\n      swap1\n      dup2\n      mstore\n        /* \"--CODEGEN--\":30138:30142   */\n      0x20\n        /* \"--CODEGEN--\":30129:30143   */\n      add\n      swap1\n        /* \"--CODEGEN--\":30082:30149   */\n      jump\n        /* \"--CODEGEN--\":30654:30745   */\n    tag_751:\n      0x00\n        /* \"--CODEGEN--\":30716:30740   */\n      tag_629\n        /* \"--CODEGEN--\":30734:30739   */\n      dup3\n        /* \"--CODEGEN--\":30716:30740   */\n      jump(tag_880)\n        /* \"--CODEGEN--\":30752:30837   */\n    tag_769:\n        /* \"--CODEGEN--\":30818:30831   */\n      iszero\n        /* \"--CODEGEN--\":30811:30832   */\n      iszero\n      swap1\n        /* \"--CODEGEN--\":30794:30837   */\n      jump\n        /* \"--CODEGEN--\":30844:30988   */\n    tag_772:\n      not(sub(shl(0xe0, 0x01), 0x01))\n        /* \"--CODEGEN--\":30905:30983   */\n      and\n      swap1\n        /* \"--CODEGEN--\":30888:30988   */\n      jump\n        /* \"--CODEGEN--\":30995:31116   */\n    tag_880:\n      sub(shl(0xa0, 0x01), 0x01)\n        /* \"--CODEGEN--\":31057:31111   */\n      and\n      swap1\n        /* \"--CODEGEN--\":31040:31116   */\n      jump\n        /* \"--CODEGEN--\":31123:31195   */\n    tag_815:\n        /* \"--CODEGEN--\":31185:31190   */\n      swap1\n        /* \"--CODEGEN--\":31168:31195   */\n      jump\n        /* \"--CODEGEN--\":31202:31331   */\n    tag_749:\n      0x00\n        /* \"--CODEGEN--\":31289:31326   */\n      tag_629\n        /* \"--CODEGEN--\":31320:31325   */\n      dup3\n        /* \"--CODEGEN--\":31289:31326   */\n      jump(tag_882)\n        /* \"--CODEGEN--\":31338:31454   */\n    tag_783:\n      0x00\n        /* \"--CODEGEN--\":31425:31449   */\n      tag_629\n        /* \"--CODEGEN--\":31443:31448   */\n      dup3\n        /* \"--CODEGEN--\":31425:31449   */\n      jump(tag_815)\n        /* \"--CODEGEN--\":31461:31582   */\n    tag_882:\n      0x00\n        /* \"--CODEGEN--\":31540:31577   */\n      tag_629\n        /* \"--CODEGEN--\":31571:31576   */\n      dup3\n        /* \"--CODEGEN--\":31540:31577   */\n      jump(tag_751)\n        /* \"--CODEGEN--\":31705:31850   */\n    tag_644:\n        /* \"--CODEGEN--\":31786:31792   */\n      dup3\n        /* \"--CODEGEN--\":31781:31784   */\n      dup2\n        /* \"--CODEGEN--\":31776:31779   */\n      dup4\n        /* \"--CODEGEN--\":31763:31793   */\n      calldatacopy\n      pop\n        /* \"--CODEGEN--\":31842:31843   */\n      0x00\n        /* \"--CODEGEN--\":31824:31840   */\n      swap2\n      add\n        /* \"--CODEGEN--\":31817:31844   */\n      mstore\n        /* \"--CODEGEN--\":31756:31850   */\n      jump\n        /* \"--CODEGEN--\":31859:32127   */\n    tag_658:\n        /* \"--CODEGEN--\":31924:31925   */\n      0x00\n        /* \"--CODEGEN--\":31931:32032   */\n    tag_887:\n        /* \"--CODEGEN--\":31945:31951   */\n      dup4\n        /* \"--CODEGEN--\":31942:31943   */\n      dup2\n        /* \"--CODEGEN--\":31939:31952   */\n      lt\n        /* \"--CODEGEN--\":31931:32032   */\n      iszero\n      tag_889\n      jumpi\n        /* \"--CODEGEN--\":32012:32023   */\n      dup2\n      dup2\n      add\n        /* \"--CODEGEN--\":32006:32024   */\n      mload\n        /* \"--CODEGEN--\":31993:32004   */\n      dup4\n      dup3\n      add\n        /* \"--CODEGEN--\":31986:32025   */\n      mstore\n        /* \"--CODEGEN--\":31967:31969   */\n      0x20\n        /* \"--CODEGEN--\":31960:31970   */\n      add\n        /* \"--CODEGEN--\":31931:32032   */\n      jump(tag_887)\n    tag_889:\n        /* \"--CODEGEN--\":32047:32053   */\n      dup4\n        /* \"--CODEGEN--\":32044:32045   */\n      dup2\n        /* \"--CODEGEN--\":32041:32054   */\n      gt\n        /* \"--CODEGEN--\":32038:32040   */\n      iszero\n      tag_403\n      jumpi\n      pop\n      pop\n        /* \"--CODEGEN--\":32112:32113   */\n      0x00\n        /* \"--CODEGEN--\":32094:32110   */\n      swap2\n      add\n        /* \"--CODEGEN--\":32087:32114   */\n      mstore\n        /* \"--CODEGEN--\":31908:32127   */\n      jump\n        /* \"--CODEGEN--\":32135:32232   */\n    tag_780:\n        /* \"--CODEGEN--\":32223:32225   */\n      0x1f\n        /* \"--CODEGEN--\":32203:32217   */\n      add\n      not(0x1f)\n        /* \"--CODEGEN--\":32199:32227   */\n      and\n      swap1\n        /* \"--CODEGEN--\":32183:32232   */\n      jump\n        /* \"--CODEGEN--\":32240:32357   */\n    tag_630:\n        /* \"--CODEGEN--\":32309:32333   */\n      tag_891\n        /* \"--CODEGEN--\":32327:32332   */\n      dup2\n        /* \"--CODEGEN--\":32309:32333   */\n      jump(tag_751)\n    tag_891:\n        /* \"--CODEGEN--\":32302:32307   */\n      dup2\n        /* \"--CODEGEN--\":32299:32334   */\n      eq\n        /* \"--CODEGEN--\":32289:32291   */\n      tag_345\n      jumpi\n        /* \"--CODEGEN--\":32348:32349   */\n      0x00\n        /* \"--CODEGEN--\":32345:32346   */\n      dup1\n        /* \"--CODEGEN--\":32338:32350   */\n      revert\n        /* \"--CODEGEN--\":32364:32475   */\n    tag_635:\n        /* \"--CODEGEN--\":32430:32451   */\n      tag_891\n        /* \"--CODEGEN--\":32445:32450   */\n      dup2\n        /* \"--CODEGEN--\":32430:32451   */\n      jump(tag_769)\n        /* \"--CODEGEN--\":32482:32599   */\n    tag_661:\n        /* \"--CODEGEN--\":32551:32575   */\n      tag_891\n        /* \"--CODEGEN--\":32569:32574   */\n      dup2\n        /* \"--CODEGEN--\":32551:32575   */\n      jump(tag_815)\n    stop\n    data_dd45610e757c5493225a14df8d20081e772472041729f1452d392d031cca6d9d 32a9eeb55ea56eb60badfb6642d5b92be35b6da6f74892c12d0e14a50dfc2bac\n\n    auxdata: 0xa365627a7a723158207fb9b1b24e8e48a199997b67f2eafa3fc8891a3aab73e30057d60a2550e59c376c6578706572696d656e74616cf564736f6c63430005110040\n}\n",
				"bytecode": {
					"linkReferences": {},
					"object": "600e6103c08181526d4552433732313a617070726f766560901b6103e09081526080918252600f6104009081526e22a9219b99189d3a3930b739b332b960891b6104205260a052600b6104408181526a22a9219b99189d313ab93760a91b6104605260c0526104809081526a115490cdcc8c4e9b5a5b9d60aa1b6104a05260e05260176104c08181527f4552433732313a736166655472616e7366657246726f6d0000000000000000006104e0526101005260136105008181527f4552433732313a7472616e7366657246726f6d00000000000000000000000000610520526101205260106105408181526f42726f6b65723a7075744f6e53616c6560801b6105605261014052600a6105808181526942726f6b65723a62757960b01b6105a052610160526105c090815269109c9bdad95c8e989a5960b21b6105e052610180526106008681526d109c9bdad95c8e98dbdb1b1958dd60921b610620526101a05260126106408181527142726f6b65723a757064617465507269636560701b610660526101c052601161068081815270213937b5b2b91d383aba29b0b632a7b33360791b6106a0526101e0526106c082815271213937b5b2b91d36b0b5b2a0b727b33332b960711b6106e0526102005261070082815271213937b5b2b91d30b1b1b832ba27b33332b960711b610720526102205261074082815271213937b5b2b91d3932bb32b93a27b33332b960711b61076052610240526107809283526f109c9bdad95c8e9c995d995c9d105b1b60821b6107a052610260929092526107c09283527f42726f6b65723a62617463684c697374696e67000000000000000000000000006107e0526102809290925260156108009081527f42726f6b65723a626174636844656c697374696e670000000000000000000000610820526102a0526108409081527042726f6b65723a7365744164647265737360781b610860526102c052600d6108809081526c45524332303a617070726f766560981b6108a0526102e05260166108c08181527f45524332303a6465637265617365417070726f76616c000000000000000000006108e052610300526109009081527f45524332303a696e637265617365417070726f76616c0000000000000000000061092052610320526109408581526d22a92199181d3a3930b739b332b960911b61096052610340526109809081527145524332303a7472616e7366657246726f6d60701b6109a052610360526109c08181527f45524332303a696e637265617365416c6c6f77616e63650000000000000000006109e05261038052610a40604052610a009081527f45524332303a6465637265617365416c6c6f77616e6365000000000000000000610a20526103a0529091600291620003fe91839190620008af565b506020828101518051620004199260018501920190620008af565b506040820151805162000437916002840191602090910190620008af565b506060820151805162000455916003840191602090910190620008af565b506080820151805162000473916004840191602090910190620008af565b5060a0820151805162000491916005840191602090910190620008af565b5060c08201518051620004af916006840191602090910190620008af565b5060e08201518051620004cd916007840191602090910190620008af565b506101008201518051620004ec916008840191602090910190620008af565b5061012082015180516200050b916009840191602090910190620008af565b5061014082015180516200052a91600a840191602090910190620008af565b5061016082015180516200054991600b840191602090910190620008af565b5061018082015180516200056891600c840191602090910190620008af565b506101a082015180516200058791600d840191602090910190620008af565b506101c08201518051620005a691600e840191602090910190620008af565b506101e08201518051620005c591600f840191602090910190620008af565b506102008201518051620005e4916010840191602090910190620008af565b50610220820151805162000603916011840191602090910190620008af565b50610240820151805162000622916012840191602090910190620008af565b50610260820151805162000641916013840191602090910190620008af565b50610280820151805162000660916014840191602090910190620008af565b506102a082015180516200067f916015840191602090910190620008af565b506102c082015180516200069e916016840191602090910190620008af565b506102e08201518051620006bd916017840191602090910190620008af565b506103008201518051620006dc916018840191602090910190620008af565b506103208201518051620006fb916019840191602090910190620008af565b5050503480156200070b57600080fd5b506040516200388b3803806200388b8339810160408190526200072e9162000964565b6000620007436001600160e01b03620007b616565b600080546001600160a01b0319166001600160a01b0383169081178255604051929350916000805160206200386b833981519152908290a35062000790336001600160e01b03620007bb16565b601c80546001600160a01b0319166001600160a01b039290921691909117905562000a68565b335b90565b620007ce6001600160e01b036200080d16565b620007f65760405162461bcd60e51b8152600401620007ed9062000a24565b60405180910390fd5b6200080a816001600160e01b036200083c16565b50565b600080546001600160a01b03166200082d6001600160e01b03620007b616565b6001600160a01b031614905090565b6001600160a01b038116620008655760405162461bcd60e51b8152600401620007ed9062000a12565b600080546040516001600160a01b03808516939216916000805160206200386b83398151915291a3600080546001600160a01b0319166001600160a01b0392909216919091179055565b828054600181600116156101000203166002900490600052602060002090601f016020900481019282601f10620008f257805160ff191683800117855562000922565b8280016001018555821562000922579182015b828111156200092257825182559160200191906001019062000905565b506200093092915062000934565b5090565b620007b891905b808211156200093057600081556001016200093b565b80516200095e8162000a51565b92915050565b6000602082840312156200097757600080fd5b600062000985848462000951565b949350505050565b60006200099c60268362000a36565b7f4f776e61626c653a206e6577206f776e657220697320746865207a65726f206181526564647265737360d01b602082015260400192915050565b6000620009e660208362000a36565b7f4f776e61626c653a2063616c6c6572206973206e6f7420746865206f776e6572815260200192915050565b602080825281016200095e816200098d565b602080825281016200095e81620009d7565b90815260200190565b60006001600160a01b0382166200095e565b62000a5c8162000a3f565b81146200080a57600080fd5b612df38062000a786000396000f3fe60806040526004361061021a5760003560e01c8063640cf87311610123578063ace561a8116100ab578063f2fde38b1161006f578063f2fde38b146105e1578063f4f3b20014610601578063fba08d4514610621578063fddea90014610641578063ff8edbdb146106615761021a565b8063ace561a81461054e578063b6011b4c1461056e578063c0f4ed311461058e578063c347f69b146105a1578063e7ab44b4146105c15761021a565b80638450ebe4116100f25780638450ebe4146104b75780638c6ab013146104d75780638da5cb5b146104f75780638f32d59b1461050c5780639dc6b78d1461052e5761021a565b8063640cf8731461044f578063704802751461046f578063715018a61461048f5780637ad157b9146104a45761021a565b80633169b515116101a657806347fcf0181161017557806347fcf018146103bc578063485f952e146103dc578063488b0f7d146103fc5780634a0aafda1461041c5780635aa8680a1461043c5761021a565b80633169b5151461035257806331ae450b146103655780633790767d146103875780633ccfd60b146103a75761021a565b80631785f53c116101ed5780631785f53c146102bf578063179443f3146102df57806317c48a70146102ff57806318fa0653146103125780631afffec0146103325761021a565b80630a1b0b911461021c5780630c82ea1a1461023c57806314bfd6d01461025c578063150b7a0214610292575b005b34801561022857600080fd5b5061021a6102373660046121a3565b610681565b34801561024857600080fd5b5061021a610257366004612291565b61077a565b34801561026857600080fd5b5061027c610277366004612404565b610867565b604051610289919061293e565b60405180910390f35b34801561029e57600080fd5b506102b26102ad3660046122de565b61088e565b6040516102899190612a51565b3480156102cb57600080fd5b5061021a6102da366004612167565b61089f565b3480156102eb57600080fd5b5061021a6102fa366004612440565b6109de565b61021a61030d366004612470565b610ac9565b34801561031e57600080fd5b5061021a61032d366004612291565b610bb7565b34801561033e57600080fd5b5061021a61034d366004612291565b610ca4565b61021a610360366004612508565b610d48565b34801561037157600080fd5b5061037a610e2b565b6040516102899190612a32565b34801561039357600080fd5b5061021a6103a2366004612291565b610e8d565b3480156103b357600080fd5b5061021a610f31565b3480156103c857600080fd5b5061021a6103d7366004612395565b610f84565b3480156103e857600080fd5b5061021a6103f7366004612395565b61118b565b34801561040857600080fd5b5061021a610417366004612204565b611275565b34801561042857600080fd5b5061021a6104373660046121a3565b611368565b61021a61044a3660046124b3565b611459565b34801561045b57600080fd5b5061021a61046a3660046125e3565b611503565b34801561047b57600080fd5b5061021a61048a366004612167565b611600565b34801561049b57600080fd5b5061021a6116c9565b61021a6104b236600461252a565b611737565b3480156104c357600080fd5b5061021a6104d23660046121a3565b6117e2565b3480156104e357600080fd5b5061021a6104f236600461252a565b611899565b34801561050357600080fd5b5061027c611941565b34801561051857600080fd5b50610521611950565b6040516102899190612a43565b34801561053a57600080fd5b5061021a610549366004612291565b611974565b34801561055a57600080fd5b5061021a610569366004612291565b611a18565b34801561057a57600080fd5b5061021a610589366004612291565b611abc565b61021a61059c36600461256d565b611b71565b3480156105ad57600080fd5b5061021a6105bc366004612291565b611c1c565b3480156105cd57600080fd5b5061021a6105dc366004612440565b611c7f565b3480156105ed57600080fd5b5061021a6105fc366004612167565b611d25565b34801561060d57600080fd5b5061021a61061c366004612167565b611d52565b34801561062d57600080fd5b5061052161063c366004612167565b611e51565b34801561064d57600080fd5b5061021a61065c36600461234b565b611ea8565b34801561066d57600080fd5b5061021a61067c36600461258e565b611f5e565b61068a33611e51565b806106985750610698611950565b6106bd5760405162461bcd60e51b81526004016106b490612a8f565b60405180910390fd5b6040516323b872dd60e01b815284906001600160a01b038216906323b872dd906106ef90879087908790600401612975565b600060405180830381600087803b15801561070957600080fd5b505af115801561071d573d6000803e3d6000fd5b505060405161073092506016915061292b565b6040518091039020856001600160a01b0316336001600160a01b0316600080516020612d91833981519152868660405161076b9291906129fc565b60405180910390a45050505050565b61078333611e51565b806107915750610791611950565b6107ad5760405162461bcd60e51b81526004016106b490612a8f565b60405163a457c2d760e01b815283906001600160a01b0382169063a457c2d7906107dd90869086906004016129fc565b600060405180830381600087803b1580156107f757600080fd5b505af115801561080b573d6000803e3d6000fd5b505060405161081e92506018915061292b565b6040518091039020846001600160a01b0316336001600160a01b0316600080516020612d9183398151915286866040516108599291906129fc565b60405180910390a450505050565b6001818154811061087457fe5b6000918252602090912001546001600160a01b0316905081565b630a85bd0160e11b5b949350505050565b6108a7611950565b6108c35760405162461bcd60e51b81526004016106b490612aaf565b60005b6001548110156109a157816001600160a01b0316600182815481106108e757fe5b6000918252602090912001546001600160a01b03161415610999576001818154811061090f57fe5b600091825260209091200154600180546001600160a01b0390921691600019810190811061093957fe5b9060005260206000200160006101000a8154816001600160a01b0302191690836001600160a01b03160217905550600180548061097257fe5b600082815260209020810160001990810180546001600160a01b03191690550190556109a1565b6001016108c6565b507fa0726c73cf6ad18ddb855ba65d1ddd4d7fd37d320f4e52f6b154c13d386f5fd981426040516109d39291906129fc565b60405180910390a150565b6109e733611e51565b806109f557506109f5611950565b610a115760405162461bcd60e51b81526004016106b490612a8f565b601c5460405163179443f360e01b81526001600160a01b039091169063179443f390610a439085908590600401612add565b600060405180830381600087803b158015610a5d57600080fd5b505af1158015610a71573d6000803e3d6000fd5b5050604051610a849250600d915061292b565b604051908190038120601c5490916001600160a01b03909116903390600080516020612d9183398151915290610abd90869088906129fc565b60405180910390a45050565b610ad233611e51565b80610ae05750610ae0611950565b610afc5760405162461bcd60e51b81526004016106b490612a8f565b601c546040516304da9a8960e21b81526001600160a01b039091169063136a6a2490610b3090859087908690600401612a0a565b600060405180830381600087803b158015610b4a57600080fd5b505af1158015610b5e573d6000803e3d6000fd5b5050604051610b7192506010915061292b565b604051908190038120601c5490916001600160a01b03909116903390600080516020612d9183398151915290610baa90879089906129fc565b60405180910390a4505050565b610bc033611e51565b80610bce5750610bce611950565b610bea5760405162461bcd60e51b81526004016106b490612a8f565b6040518390610bfb9060029061292b565b6040518091039020846001600160a01b0316336001600160a01b0316600080516020612d918339815191528786604051610c369291906129fc565b60405180910390a460405163095ea7b360e01b81526001600160a01b0382169063095ea7b390610c6c90869086906004016129fc565b600060405180830381600087803b158015610c8657600080fd5b505af1158015610c9a573d6000803e3d6000fd5b5050505050505050565b610cad33611e51565b80610cbb5750610cbb611950565b610cd75760405162461bcd60e51b81526004016106b490612a8f565b60405163d73dd62360e01b815283906001600160a01b0382169063d73dd62390610d0790869086906004016129fc565b600060405180830381600087803b158015610d2157600080fd5b505af1158015610d35573d6000803e3d6000fd5b505060405161081e92506014915061292b565b610d5133611e51565b80610d5f5750610d5f611950565b610d7b5760405162461bcd60e51b81526004016106b490612a8f565b601c54604051633169b51560e01b81526001600160a01b0390911690633169b51590610db1908790879087908790600401612b36565b600060405180830381600087803b158015610dcb57600080fd5b505af1158015610ddf573d6000803e3d6000fd5b5050604051610df29250600e915061292b565b604051908190038120601c5490916001600160a01b03909116903390600080516020612d91833981519152906108599088908a906129fc565b60606001805480602002602001604051908101604052809291908181526020018280548015610e8357602002820191906000526020600020905b81546001600160a01b03168152600190910190602001808311610e65575b5050505050905090565b610e9633611e51565b80610ea45750610ea4611950565b610ec05760405162461bcd60e51b81526004016106b490612a8f565b60405163a9059cbb60e01b815283906001600160a01b0382169063a9059cbb90610ef090869086906004016129fc565b600060405180830381600087803b158015610f0a57600080fd5b505af1158015610f1e573d6000803e3d6000fd5b505060405161081e92506015915061292b565b610f39611950565b610f555760405162461bcd60e51b81526004016106b490612aaf565b60405133904780156108fc02916000818181858888f19350505050158015610f81573d6000803e3d6000fd5b50565b610f8d33611e51565b80610f9b5750610f9b611950565b610fb75760405162461bcd60e51b81526004016106b490612a8f565b60405163c87b56dd60e01b815282906060906001600160a01b0383169063c87b56dd90610fe8908690600401612acf565b600060405180830381600087803b15801561100257600080fd5b505af1158015611016573d6000803e3d6000fd5b505050506040513d6000823e601f3d908101601f1916820160405261103e91908101906123cf565b60405163020604bf60e21b815290915030906001600160a01b0384169063081812fc9061106f908790600401612acf565b602060405180830381600087803b15801561108957600080fd5b505af115801561109d573d6000803e3d6000fd5b505050506040513d601f19601f820116820180604052506110c19190810190612185565b6001600160a01b0316146110e75760405162461bcd60e51b81526004016106b490612a9f565b604051630852cd8d60e31b81526001600160a01b038316906342966c6890611113908690600401612acf565b600060405180830381600087803b15801561112d57600080fd5b505af1158015611141573d6000803e3d6000fd5b50505050336001600160a01b031683856001600160a01b03167f926b248e45dfdd4c4caec216e73ec503ce2522d3b5646c861d1b074210675d0e4285604051610859929190612bd6565b61119433611e51565b806111a257506111a2611950565b6111be5760405162461bcd60e51b81526004016106b490612a8f565b60405182906111cf9060049061292b565b6040518091039020836001600160a01b0316336001600160a01b0316600080516020612d91833981519152868660405161120a9291906129fc565b60405180910390a4604051630852cd8d60e31b81526001600160a01b038216906342966c689061123e908590600401612acf565b600060405180830381600087803b15801561125857600080fd5b505af115801561126c573d6000803e3d6000fd5b50505050505050565b61127e33611e51565b8061128c575061128c611950565b6112a85760405162461bcd60e51b81526004016106b490612a8f565b60405185906112b99060069061292b565b6040518091039020866001600160a01b0316336001600160a01b0316600080516020612d9183398151915289876040516112f49291906129fc565b60405180910390a4604051635c46a7ef60e11b81526001600160a01b0382169063b88d4fde9061132e90889088908890889060040161299d565b600060405180830381600087803b15801561134857600080fd5b505af115801561135c573d6000803e3d6000fd5b50505050505050505050565b61137133611e51565b8061137f575061137f611950565b61139b5760405162461bcd60e51b81526004016106b490612a8f565b60405184906113ac9060069061292b565b6040518091039020856001600160a01b0316336001600160a01b0316600080516020612d9183398151915288866040516113e79291906129fc565b60405180910390a4604051632142170760e11b81526001600160a01b038216906342842e0e9061141f90879087908790600401612975565b600060405180830381600087803b15801561143957600080fd5b505af115801561144d573d6000803e3d6000fd5b50505050505b50505050565b61146233611e51565b806114705750611470611950565b61148c5760405162461bcd60e51b81526004016106b490612a8f565b601c54604051632d54340560e11b81526001600160a01b0390911690635aa8680a906114c2908790879087908790600401612af8565b600060405180830381600087803b1580156114dc57600080fd5b505af11580156114f0573d6000803e3d6000fd5b5050604051610df29250600f915061292b565b61150c33611e51565b8061151a575061151a611950565b6115365760405162461bcd60e51b81526004016106b490612a8f565b601c5460405163640cf87360e01b81526001600160a01b039091169063640cf87390611574908b908b908b908b908b908b908b908b90600401612bf6565b600060405180830381600087803b15801561158e57600080fd5b505af11580156115a2573d6000803e3d6000fd5b50506040516115b592506008915061292b565b604051908190038120601c5490916001600160a01b03909116903390600080516020612d91833981519152906115ee9087908e906129fc565b60405180910390a45050505050505050565b611608611950565b6116245760405162461bcd60e51b81526004016106b490612aaf565b61162d81611e51565b611680576001805480820182556000919091527fb10e2d527612073b26eecdfd717e6a320cf44b4afac2b0732d9fcbe2b7fa0cf60180546001600160a01b0319166001600160a01b038316179055611698565b60405162461bcd60e51b81526004016106b490612abf565b7f723c2b747529ca7f5eb53a74808f4a8b9bf264f0fc450fd904900151da74548a81426040516109d39291906129fc565b6116d1611950565b6116ed5760405162461bcd60e51b81526004016106b490612aaf565b600080546040516001600160a01b03909116907f8be0079c531659141344cd1fd0a4f28419497f9722a3daafe3b4186f6b6457e0908390a3600080546001600160a01b0319169055565b61174033611e51565b8061174e575061174e611950565b61176a5760405162461bcd60e51b81526004016106b490612a8f565b601c54604051637ad157b960e01b81526001600160a01b0390911690637ad157b99034906117a090879087908790600401612b6b565b6000604051808303818588803b1580156117b957600080fd5b505af11580156117cd573d6000803e3d6000fd5b5050604051610b71935060099250905061292b565b6117eb33611e51565b806117f957506117f9611950565b6118155760405162461bcd60e51b81526004016106b490612a8f565b60405184906118269060079061292b565b6040518091039020856001600160a01b0316336001600160a01b0316600080516020612d9183398151915288866040516118619291906129fc565b60405180910390a46040516323b872dd60e01b81526001600160a01b038216906323b872dd9061141f90879087908790600401612975565b6118a233611e51565b806118b057506118b0611950565b6118cc5760405162461bcd60e51b81526004016106b490612a8f565b601c54604051638c6ab01360e01b81526001600160a01b0390911690638c6ab0139061190090869086908690600401612b6b565b600060405180830381600087803b15801561191a57600080fd5b505af115801561192e573d6000803e3d6000fd5b5050604051610b719250600b915061292b565b6000546001600160a01b031690565b600080546001600160a01b031661196561200b565b6001600160a01b031614905090565b61197d33611e51565b8061198b575061198b611950565b6119a75760405162461bcd60e51b81526004016106b490612a8f565b604051633950935160e01b815283906001600160a01b038216906339509351906119d790869086906004016129fc565b600060405180830381600087803b1580156119f157600080fd5b505af1158015611a05573d6000803e3d6000fd5b505060405161081e92506017915061292b565b611a2133611e51565b80611a2f5750611a2f611950565b611a4b5760405162461bcd60e51b81526004016106b490612a8f565b60405163095ea7b360e01b815283906001600160a01b0382169063095ea7b390611a7b90869086906004016129fc565b600060405180830381600087803b158015611a9557600080fd5b505af1158015611aa9573d6000803e3d6000fd5b505060405161081e92506012915061292b565b611ac533611e51565b80611ad35750611ad3611950565b611aef5760405162461bcd60e51b81526004016106b490612a8f565b6040518390611b009060039061292b565b6040518091039020846001600160a01b0316336001600160a01b0316600080516020612d918339815191528786604051611b3b9291906129fc565b60405180910390a460405163a9059cbb60e01b81526001600160a01b0382169063a9059cbb90610c6c90869086906004016129fc565b611b7a33611e51565b80611b885750611b88611950565b611ba45760405162461bcd60e51b81526004016106b490612a8f565b601c5460405163c0f4ed3160e01b81526001600160a01b039091169063c0f4ed31903490611bda90879087908790600401612b93565b6000604051808303818588803b158015611bf357600080fd5b505af1158015611c07573d6000803e3d6000fd5b5050604051610b719350600a9250905061292b565b611c2533611e51565b80611c335750611c33611950565b611c4f5760405162461bcd60e51b81526004016106b490612a8f565b604051636618846360e01b815283906001600160a01b038216906366188463906107dd90869086906004016129fc565b611c8833611e51565b80611c965750611c96611950565b611cb25760405162461bcd60e51b81526004016106b490612a8f565b601c54604051630fc8303d60e11b81526001600160a01b0390911690631f90607a90611ce490849086906004016129fc565b600060405180830381600087803b158015611cfe57600080fd5b505af1158015611d12573d6000803e3d6000fd5b5050604051610a8492506011915061292b565b611d2d611950565b611d495760405162461bcd60e51b81526004016106b490612aaf565b610f818161200f565b611d5a611950565b611d765760405162461bcd60e51b81526004016106b490612aaf565b6040516370a0823160e01b815281906001600160a01b0382169063a9059cbb90339083906370a0823190611dae90309060040161294c565b60206040518083038186803b158015611dc657600080fd5b505afa158015611dda573d6000803e3d6000fd5b505050506040513d601f19601f82011682018060405250611dfe9190810190612422565b6040518363ffffffff1660e01b8152600401611e1b92919061295a565b600060405180830381600087803b158015611e3557600080fd5b505af1158015611e49573d6000803e3d6000fd5b505050505050565b6000805b600154811015611e9d5760018181548110611e6c57fe5b6000918252602090912001546001600160a01b0384811691161415611e95576001915050611ea3565b600101611e55565b50600090505b919050565b611eb133611e51565b80611ebf5750611ebf611950565b611edb5760405162461bcd60e51b81526004016106b490612a8f565b6040518390611eec9060059061292b565b6040518091039020846001600160a01b0316336001600160a01b0316600080516020612d91833981519152876000604051611f289291906129e1565b60405180910390a46040516302b580e760e11b81526001600160a01b0382169063056b01ce90610c6c9086908690600401612a5f565b611f6733611e51565b80611f755750611f75611950565b611f915760405162461bcd60e51b81526004016106b490612a8f565b601c5460405160016271242560e01b031981526001600160a01b039091169063ff8edbdb90611fca908790879087908790600401612ba1565b600060405180830381600087803b158015611fe457600080fd5b505af1158015611ff8573d6000803e3d6000fd5b5050604051610df29250600c915061292b565b3390565b6001600160a01b0381166120355760405162461bcd60e51b81526004016106b490612a7f565b600080546040516001600160a01b03808516939216917f8be0079c531659141344cd1fd0a4f28419497f9722a3daafe3b4186f6b6457e091a3600080546001600160a01b0319166001600160a01b0392909216919091179055565b803561209b81612d6a565b92915050565b805161209b81612d6a565b803561209b81612d7e565b600082601f8301126120c857600080fd5b81356120db6120d682612c94565b612c6d565b915080825260208301602083018583830111156120f757600080fd5b612102838284612d28565b50505092915050565b600082601f83011261211c57600080fd5b815161212a6120d682612c94565b9150808252602083016020830185838301111561214657600080fd5b612102838284612d34565b803561209b81612d87565b805161209b81612d87565b60006020828403121561217957600080fd5b60006108978484612090565b60006020828403121561219757600080fd5b600061089784846120a1565b600080600080608085870312156121b957600080fd5b60006121c58787612090565b94505060206121d687828801612090565b93505060406121e787828801612090565b92505060606121f887828801612151565b91505092959194509250565b600080600080600060a0868803121561221c57600080fd5b60006122288888612090565b955050602061223988828901612090565b945050604061224a88828901612090565b935050606061225b88828901612151565b925050608086013567ffffffffffffffff81111561227857600080fd5b612284888289016120b7565b9150509295509295909350565b6000806000606084860312156122a657600080fd5b60006122b28686612090565b93505060206122c386828701612090565b92505060406122d486828701612151565b9150509250925092565b600080600080608085870312156122f457600080fd5b60006123008787612090565b945050602061231187828801612090565b935050604061232287828801612151565b925050606085013567ffffffffffffffff81111561233f57600080fd5b6121f8878288016120b7565b60008060006060848603121561236057600080fd5b600061236c8686612090565b935050602084013567ffffffffffffffff81111561238957600080fd5b6122c3868287016120b7565b600080604083850312156123a857600080fd5b60006123b48585612090565b92505060206123c585828601612151565b9150509250929050565b6000602082840312156123e157600080fd5b815167ffffffffffffffff8111156123f857600080fd5b6108978482850161210b565b60006020828403121561241657600080fd5b60006108978484612151565b60006020828403121561243457600080fd5b6000610897848461215c565b6000806040838503121561245357600080fd5b600061245f8585612151565b92505060206123c585828601612090565b60008060006060848603121561248557600080fd5b60006124918686612151565b93505060206124a286828701612090565b92505060406122d486828701612090565b600080600080608085870312156124c957600080fd5b60006124d58787612151565b94505060206124e687828801612090565b93505060406124f787828801612090565b92505060606121f8878288016120ac565b6000806000806080858703121561251e57600080fd5b60006121c58787612151565b60008060006060848603121561253f57600080fd5b600061254b8686612151565b935050602061255c86828701612090565b92505060406122d4868287016120ac565b60008060006060848603121561258257600080fd5b60006122b28686612151565b600080600080608085870312156125a457600080fd5b60006125b08787612151565b94505060206125c187828801612090565b93505060406125d287828801612151565b92505060606121f887828801612090565b600080600080600080600080610100898b03121561260057600080fd5b600061260c8b8b612151565b985050602061261d8b828c01612151565b975050604061262e8b828c01612151565b965050606061263f8b828c01612151565b95505060806126508b828c01612151565b94505060a06126618b828c01612151565b93505060c06126728b828c01612090565b92505060e06126838b828c01612090565b9150509295985092959890939650565b600061269f83836126b6565b505060200190565b6126b081612d07565b82525050565b6126b081612cdb565b60006126ca82612cce565b6126d48185612cd2565b93506126df83612cbc565b8060005b8381101561270d5781516126f78882612693565b975061270283612cbc565b9250506001016126e3565b509495945050505050565b6126b081612ce6565b6126b081612ceb565b600061273582612cce565b61273f8185612cd2565b935061274f818560208601612d34565b61275881612d60565b9093019392505050565b6126b081612d12565b60008154600181166000811461278857600181146127ab576127ea565b607f60028304166127998187611ea3565b60ff19841681529550850192506127ea565b600282046127b98187611ea3565b95506127c485612cc2565b60005b828110156127e3578154888201526001909101906020016127c7565b5050850192505b505092915050565b60006127ff602683612cd2565b7f4f776e61626c653a206e6577206f776e657220697320746865207a65726f206181526564647265737360d01b602082015260400192915050565b6000612847602383612cd2565b7f41646d696e4d616e616765723a2061646d696e20616e64206f776e6572206f6e815262363c9760e91b602082015260400192915050565b600061288c601b83612cd2565b7f546f6b656e206e6f74206170706f726f766520666f72206275726e0000000000815260200192915050565b60006128c5602083612cd2565b7f4f776e61626c653a2063616c6c6572206973206e6f7420746865206f776e6572815260200192915050565b60006128fe601583612cd2565b7418591b5a5b88185b1c9958591e481a5b881b1a5cdd605a1b815260200192915050565b6126b081612d04565b6000612937828461276b565b9392505050565b6020810161209b82846126b6565b6020810161209b82846126a7565b6040810161296882856126a7565b6129376020830184612922565b6060810161298382866126b6565b61299060208301856126b6565b6108976040830184612922565b608081016129ab82876126b6565b6129b860208301866126b6565b6129c56040830185612922565b81810360608301526129d7818461272a565b9695505050505050565b604081016129ef82856126b6565b6129376020830184612762565b6040810161296882856126b6565b60608101612a1882866126b6565b612a256020830185612922565b61089760408301846126b6565b6020808252810161293781846126bf565b6020810161209b8284612718565b6020810161209b8284612721565b60408082528101612a70818561272a565b90506129376020830184612922565b6020808252810161209b816127f2565b6020808252810161209b8161283a565b6020808252810161209b8161287f565b6020808252810161209b816128b8565b6020808252810161209b816128f1565b6020810161209b8284612922565b60408101612aeb8285612922565b61293760208301846126b6565b60808101612b068287612922565b612b1360208301866126b6565b612b2060408301856126b6565b612b2d6060830184612718565b95945050505050565b60808101612b448287612922565b612b5160208301866126b6565b612b5e60408301856126b6565b612b2d6060830184612922565b60608101612b798286612922565b612b8660208301856126b6565b6108976040830184612718565b606081016129838286612922565b60808101612baf8287612922565b612bbc60208301866126b6565b612bc96040830185612922565b612b2d60608301846126b6565b60408101612be48285612922565b8181036020830152610897818461272a565b6101008101612c05828b612922565b612c12602083018a612922565b612c1f6040830189612922565b612c2c6060830188612922565b612c396080830187612922565b612c4660a0830186612922565b612c5360c08301856126b6565b612c6060e08301846126b6565b9998505050505050505050565b60405181810167ffffffffffffffff81118282101715612c8c57600080fd5b604052919050565b600067ffffffffffffffff821115612cab57600080fd5b506020601f91909101601f19160190565b60200190565b60009081526020902090565b5190565b90815260200190565b600061209b82612cf8565b151590565b6001600160e01b03191690565b6001600160a01b031690565b90565b600061209b82612d1d565b600061209b82612d04565b600061209b82612cdb565b82818337506000910152565b60005b83811015612d4f578181015183820152602001612d37565b838111156114535750506000910152565b601f01601f191690565b612d7381612cdb565b8114610f8157600080fd5b612d7381612ce6565b612d7381612d0456fe32a9eeb55ea56eb60badfb6642d5b92be35b6da6f74892c12d0e14a50dfc2baca365627a7a723158207fb9b1b24e8e48a199997b67f2eafa3fc8891a3aab73e30057d60a2550e59c376c6578706572696d656e74616cf564736f6c634300051100408be0079c531659141344cd1fd0a4f28419497f9722a3daafe3b4186f6b6457e0",
					"opcodes": "PUSH1 0xE PUSH2 0x3C0 DUP2 DUP2 MSTORE PUSH14 0x4552433732313A617070726F7665 PUSH1 0x90 SHL PUSH2 0x3E0 SWAP1 DUP2 MSTORE PUSH1 0x80 SWAP2 DUP3 MSTORE PUSH1 0xF PUSH2 0x400 SWAP1 DUP2 MSTORE PUSH15 0x22A9219B99189D3A3930B739B332B9 PUSH1 0x89 SHL PUSH2 0x420 MSTORE PUSH1 0xA0 MSTORE PUSH1 0xB PUSH2 0x440 DUP2 DUP2 MSTORE PUSH11 0x22A9219B99189D313AB937 PUSH1 0xA9 SHL PUSH2 0x460 MSTORE PUSH1 0xC0 MSTORE PUSH2 0x480 SWAP1 DUP2 MSTORE PUSH11 0x115490CDCC8C4E9B5A5B9D PUSH1 0xAA SHL PUSH2 0x4A0 MSTORE PUSH1 0xE0 MSTORE PUSH1 0x17 PUSH2 0x4C0 DUP2 DUP2 MSTORE PUSH32 0x4552433732313A736166655472616E7366657246726F6D000000000000000000 PUSH2 0x4E0 MSTORE PUSH2 0x100 MSTORE PUSH1 0x13 PUSH2 0x500 DUP2 DUP2 MSTORE PUSH32 0x4552433732313A7472616E7366657246726F6D00000000000000000000000000 PUSH2 0x520 MSTORE PUSH2 0x120 MSTORE PUSH1 0x10 PUSH2 0x540 DUP2 DUP2 MSTORE PUSH16 0x42726F6B65723A7075744F6E53616C65 PUSH1 0x80 SHL PUSH2 0x560 MSTORE PUSH2 0x140 MSTORE PUSH1 0xA PUSH2 0x580 DUP2 DUP2 MSTORE PUSH10 0x42726F6B65723A627579 PUSH1 0xB0 SHL PUSH2 0x5A0 MSTORE PUSH2 0x160 MSTORE PUSH2 0x5C0 SWAP1 DUP2 MSTORE PUSH10 0x109C9BDAD95C8E989A59 PUSH1 0xB2 SHL PUSH2 0x5E0 MSTORE PUSH2 0x180 MSTORE PUSH2 0x600 DUP7 DUP2 MSTORE PUSH14 0x109C9BDAD95C8E98DBDB1B1958DD PUSH1 0x92 SHL PUSH2 0x620 MSTORE PUSH2 0x1A0 MSTORE PUSH1 0x12 PUSH2 0x640 DUP2 DUP2 MSTORE PUSH18 0x42726F6B65723A7570646174655072696365 PUSH1 0x70 SHL PUSH2 0x660 MSTORE PUSH2 0x1C0 MSTORE PUSH1 0x11 PUSH2 0x680 DUP2 DUP2 MSTORE PUSH17 0x213937B5B2B91D383ABA29B0B632A7B333 PUSH1 0x79 SHL PUSH2 0x6A0 MSTORE PUSH2 0x1E0 MSTORE PUSH2 0x6C0 DUP3 DUP2 MSTORE PUSH18 0x213937B5B2B91D36B0B5B2A0B727B33332B9 PUSH1 0x71 SHL PUSH2 0x6E0 MSTORE PUSH2 0x200 MSTORE PUSH2 0x700 DUP3 DUP2 MSTORE PUSH18 0x213937B5B2B91D30B1B1B832BA27B33332B9 PUSH1 0x71 SHL PUSH2 0x720 MSTORE PUSH2 0x220 MSTORE PUSH2 0x740 DUP3 DUP2 MSTORE PUSH18 0x213937B5B2B91D3932BB32B93A27B33332B9 PUSH1 0x71 SHL PUSH2 0x760 MSTORE PUSH2 0x240 MSTORE PUSH2 0x780 SWAP3 DUP4 MSTORE PUSH16 0x109C9BDAD95C8E9C995D995C9D105B1B PUSH1 0x82 SHL PUSH2 0x7A0 MSTORE PUSH2 0x260 SWAP3 SWAP1 SWAP3 MSTORE PUSH2 0x7C0 SWAP3 DUP4 MSTORE PUSH32 0x42726F6B65723A62617463684C697374696E6700000000000000000000000000 PUSH2 0x7E0 MSTORE PUSH2 0x280 SWAP3 SWAP1 SWAP3 MSTORE PUSH1 0x15 PUSH2 0x800 SWAP1 DUP2 MSTORE PUSH32 0x42726F6B65723A626174636844656C697374696E670000000000000000000000 PUSH2 0x820 MSTORE PUSH2 0x2A0 MSTORE PUSH2 0x840 SWAP1 DUP2 MSTORE PUSH17 0x42726F6B65723A73657441646472657373 PUSH1 0x78 SHL PUSH2 0x860 MSTORE PUSH2 0x2C0 MSTORE PUSH1 0xD PUSH2 0x880 SWAP1 DUP2 MSTORE PUSH13 0x45524332303A617070726F7665 PUSH1 0x98 SHL PUSH2 0x8A0 MSTORE PUSH2 0x2E0 MSTORE PUSH1 0x16 PUSH2 0x8C0 DUP2 DUP2 MSTORE PUSH32 0x45524332303A6465637265617365417070726F76616C00000000000000000000 PUSH2 0x8E0 MSTORE PUSH2 0x300 MSTORE PUSH2 0x900 SWAP1 DUP2 MSTORE PUSH32 0x45524332303A696E637265617365417070726F76616C00000000000000000000 PUSH2 0x920 MSTORE PUSH2 0x320 MSTORE PUSH2 0x940 DUP6 DUP2 MSTORE PUSH14 0x22A92199181D3A3930B739B332B9 PUSH1 0x91 SHL PUSH2 0x960 MSTORE PUSH2 0x340 MSTORE PUSH2 0x980 SWAP1 DUP2 MSTORE PUSH18 0x45524332303A7472616E7366657246726F6D PUSH1 0x70 SHL PUSH2 0x9A0 MSTORE PUSH2 0x360 MSTORE PUSH2 0x9C0 DUP2 DUP2 MSTORE PUSH32 0x45524332303A696E637265617365416C6C6F77616E6365000000000000000000 PUSH2 0x9E0 MSTORE PUSH2 0x380 MSTORE PUSH2 0xA40 PUSH1 0x40 MSTORE PUSH2 0xA00 SWAP1 DUP2 MSTORE PUSH32 0x45524332303A6465637265617365416C6C6F77616E6365000000000000000000 PUSH2 0xA20 MSTORE PUSH2 0x3A0 MSTORE SWAP1 SWAP2 PUSH1 0x2 SWAP2 PUSH3 0x3FE SWAP2 DUP4 SWAP2 SWAP1 PUSH3 0x8AF JUMP JUMPDEST POP PUSH1 0x20 DUP3 DUP2 ADD MLOAD DUP1 MLOAD PUSH3 0x419 SWAP3 PUSH1 0x1 DUP6 ADD SWAP3 ADD SWAP1 PUSH3 0x8AF JUMP JUMPDEST POP PUSH1 0x40 DUP3 ADD MLOAD DUP1 MLOAD PUSH3 0x437 SWAP2 PUSH1 0x2 DUP5 ADD SWAP2 PUSH1 0x20 SWAP1 SWAP2 ADD SWAP1 PUSH3 0x8AF JUMP JUMPDEST POP PUSH1 0x60 DUP3 ADD MLOAD DUP1 MLOAD PUSH3 0x455 SWAP2 PUSH1 0x3 DUP5 ADD SWAP2 PUSH1 0x20 SWAP1 SWAP2 ADD SWAP1 PUSH3 0x8AF JUMP JUMPDEST POP PUSH1 0x80 DUP3 ADD MLOAD DUP1 MLOAD PUSH3 0x473 SWAP2 PUSH1 0x4 DUP5 ADD SWAP2 PUSH1 0x20 SWAP1 SWAP2 ADD SWAP1 PUSH3 0x8AF JUMP JUMPDEST POP PUSH1 0xA0 DUP3 ADD MLOAD DUP1 MLOAD PUSH3 0x491 SWAP2 PUSH1 0x5 DUP5 ADD SWAP2 PUSH1 0x20 SWAP1 SWAP2 ADD SWAP1 PUSH3 0x8AF JUMP JUMPDEST POP PUSH1 0xC0 DUP3 ADD MLOAD DUP1 MLOAD PUSH3 0x4AF SWAP2 PUSH1 0x6 DUP5 ADD SWAP2 PUSH1 0x20 SWAP1 SWAP2 ADD SWAP1 PUSH3 0x8AF JUMP JUMPDEST POP PUSH1 0xE0 DUP3 ADD MLOAD DUP1 MLOAD PUSH3 0x4CD SWAP2 PUSH1 0x7 DUP5 ADD SWAP2 PUSH1 0x20 SWAP1 SWAP2 ADD SWAP1 PUSH3 0x8AF JUMP JUMPDEST POP PUSH2 0x100 DUP3 ADD MLOAD DUP1 MLOAD PUSH3 0x4EC SWAP2 PUSH1 0x8 DUP5 ADD SWAP2 PUSH1 0x20 SWAP1 SWAP2 ADD SWAP1 PUSH3 0x8AF JUMP JUMPDEST POP PUSH2 0x120 DUP3 ADD MLOAD DUP1 MLOAD PUSH3 0x50B SWAP2 PUSH1 0x9 DUP5 ADD SWAP2 PUSH1 0x20 SWAP1 SWAP2 ADD SWAP1 PUSH3 0x8AF JUMP JUMPDEST POP PUSH2 0x140 DUP3 ADD MLOAD DUP1 MLOAD PUSH3 0x52A SWAP2 PUSH1 0xA DUP5 ADD SWAP2 PUSH1 0x20 SWAP1 SWAP2 ADD SWAP1 PUSH3 0x8AF JUMP JUMPDEST POP PUSH2 0x160 DUP3 ADD MLOAD DUP1 MLOAD PUSH3 0x549 SWAP2 PUSH1 0xB DUP5 ADD SWAP2 PUSH1 0x20 SWAP1 SWAP2 ADD SWAP1 PUSH3 0x8AF JUMP JUMPDEST POP PUSH2 0x180 DUP3 ADD MLOAD DUP1 MLOAD PUSH3 0x568 SWAP2 PUSH1 0xC DUP5 ADD SWAP2 PUSH1 0x20 SWAP1 SWAP2 ADD SWAP1 PUSH3 0x8AF JUMP JUMPDEST POP PUSH2 0x1A0 DUP3 ADD MLOAD DUP1 MLOAD PUSH3 0x587 SWAP2 PUSH1 0xD DUP5 ADD SWAP2 PUSH1 0x20 SWAP1 SWAP2 ADD SWAP1 PUSH3 0x8AF JUMP JUMPDEST POP PUSH2 0x1C0 DUP3 ADD MLOAD DUP1 MLOAD PUSH3 0x5A6 SWAP2 PUSH1 0xE DUP5 ADD SWAP2 PUSH1 0x20 SWAP1 SWAP2 ADD SWAP1 PUSH3 0x8AF JUMP JUMPDEST POP PUSH2 0x1E0 DUP3 ADD MLOAD DUP1 MLOAD PUSH3 0x5C5 SWAP2 PUSH1 0xF DUP5 ADD SWAP2 PUSH1 0x20 SWAP1 SWAP2 ADD SWAP1 PUSH3 0x8AF JUMP JUMPDEST POP PUSH2 0x200 DUP3 ADD MLOAD DUP1 MLOAD PUSH3 0x5E4 SWAP2 PUSH1 0x10 DUP5 ADD SWAP2 PUSH1 0x20 SWAP1 SWAP2 ADD SWAP1 PUSH3 0x8AF JUMP JUMPDEST POP PUSH2 0x220 DUP3 ADD MLOAD DUP1 MLOAD PUSH3 0x603 SWAP2 PUSH1 0x11 DUP5 ADD SWAP2 PUSH1 0x20 SWAP1 SWAP2 ADD SWAP1 PUSH3 0x8AF JUMP JUMPDEST POP PUSH2 0x240 DUP3 ADD MLOAD DUP1 MLOAD PUSH3 0x622 SWAP2 PUSH1 0x12 DUP5 ADD SWAP2 PUSH1 0x20 SWAP1 SWAP2 ADD SWAP1 PUSH3 0x8AF JUMP JUMPDEST POP PUSH2 0x260 DUP3 ADD MLOAD DUP1 MLOAD PUSH3 0x641 SWAP2 PUSH1 0x13 DUP5 ADD SWAP2 PUSH1 0x20 SWAP1 SWAP2 ADD SWAP1 PUSH3 0x8AF JUMP JUMPDEST POP PUSH2 0x280 DUP3 ADD MLOAD DUP1 MLOAD PUSH3 0x660 SWAP2 PUSH1 0x14 DUP5 ADD SWAP2 PUSH1 0x20 SWAP1 SWAP2 ADD SWAP1 PUSH3 0x8AF JUMP JUMPDEST POP PUSH2 0x2A0 DUP3 ADD MLOAD DUP1 MLOAD PUSH3 0x67F SWAP2 PUSH1 0x15 DUP5 ADD SWAP2 PUSH1 0x20 SWAP1 SWAP2 ADD SWAP1 PUSH3 0x8AF JUMP JUMPDEST POP PUSH2 0x2C0 DUP3 ADD MLOAD DUP1 MLOAD PUSH3 0x69E SWAP2 PUSH1 0x16 DUP5 ADD SWAP2 PUSH1 0x20 SWAP1 SWAP2 ADD SWAP1 PUSH3 0x8AF JUMP JUMPDEST POP PUSH2 0x2E0 DUP3 ADD MLOAD DUP1 MLOAD PUSH3 0x6BD SWAP2 PUSH1 0x17 DUP5 ADD SWAP2 PUSH1 0x20 SWAP1 SWAP2 ADD SWAP1 PUSH3 0x8AF JUMP JUMPDEST POP PUSH2 0x300 DUP3 ADD MLOAD DUP1 MLOAD PUSH3 0x6DC SWAP2 PUSH1 0x18 DUP5 ADD SWAP2 PUSH1 0x20 SWAP1 SWAP2 ADD SWAP1 PUSH3 0x8AF JUMP JUMPDEST POP PUSH2 0x320 DUP3 ADD MLOAD DUP1 MLOAD PUSH3 0x6FB SWAP2 PUSH1 0x19 DUP5 ADD SWAP2 PUSH1 0x20 SWAP1 SWAP2 ADD SWAP1 PUSH3 0x8AF JUMP JUMPDEST POP POP POP CALLVALUE DUP1 ISZERO PUSH3 0x70B JUMPI PUSH1 0x0 DUP1 REVERT JUMPDEST POP PUSH1 0x40 MLOAD PUSH3 0x388B CODESIZE SUB DUP1 PUSH3 0x388B DUP4 CODECOPY DUP2 ADD PUSH1 0x40 DUP2 SWAP1 MSTORE PUSH3 0x72E SWAP2 PUSH3 0x964 JUMP JUMPDEST PUSH1 0x0 PUSH3 0x743 PUSH1 0x1 PUSH1 0x1 PUSH1 0xE0 SHL SUB PUSH3 0x7B6 AND JUMP JUMPDEST PUSH1 0x0 DUP1 SLOAD PUSH1 0x1 PUSH1 0x1 PUSH1 0xA0 SHL SUB NOT AND PUSH1 0x1 PUSH1 0x1 PUSH1 0xA0 SHL SUB DUP4 AND SWAP1 DUP2 OR DUP3 SSTORE PUSH1 0x40 MLOAD SWAP3 SWAP4 POP SWAP2 PUSH1 0x0 DUP1 MLOAD PUSH1 0x20 PUSH3 0x386B DUP4 CODECOPY DUP2 MLOAD SWAP2 MSTORE SWAP1 DUP3 SWAP1 LOG3 POP PUSH3 0x790 CALLER PUSH1 0x1 PUSH1 0x1 PUSH1 0xE0 SHL SUB PUSH3 0x7BB AND JUMP JUMPDEST PUSH1 0x1C DUP1 SLOAD PUSH1 0x1 PUSH1 0x1 PUSH1 0xA0 SHL SUB NOT AND PUSH1 0x1 PUSH1 0x1 PUSH1 0xA0 SHL SUB SWAP3 SWAP1 SWAP3 AND SWAP2 SWAP1 SWAP2 OR SWAP1 SSTORE PUSH3 0xA68 JUMP JUMPDEST CALLER JUMPDEST SWAP1 JUMP JUMPDEST PUSH3 0x7CE PUSH1 0x1 PUSH1 0x1 PUSH1 0xE0 SHL SUB PUSH3 0x80D AND JUMP JUMPDEST PUSH3 0x7F6 JUMPI PUSH1 0x40 MLOAD PUSH3 0x461BCD PUSH1 0xE5 SHL DUP2 MSTORE PUSH1 0x4 ADD PUSH3 0x7ED SWAP1 PUSH3 0xA24 JUMP JUMPDEST PUSH1 0x40 MLOAD DUP1 SWAP2 SUB SWAP1 REVERT JUMPDEST PUSH3 0x80A DUP2 PUSH1 0x1 PUSH1 0x1 PUSH1 0xE0 SHL SUB PUSH3 0x83C AND JUMP JUMPDEST POP JUMP JUMPDEST PUSH1 0x0 DUP1 SLOAD PUSH1 0x1 PUSH1 0x1 PUSH1 0xA0 SHL SUB AND PUSH3 0x82D PUSH1 0x1 PUSH1 0x1 PUSH1 0xE0 SHL SUB PUSH3 0x7B6 AND JUMP JUMPDEST PUSH1 0x1 PUSH1 0x1 PUSH1 0xA0 SHL SUB AND EQ SWAP1 POP SWAP1 JUMP JUMPDEST PUSH1 0x1 PUSH1 0x1 PUSH1 0xA0 SHL SUB DUP2 AND PUSH3 0x865 JUMPI PUSH1 0x40 MLOAD PUSH3 0x461BCD PUSH1 0xE5 SHL DUP2 MSTORE PUSH1 0x4 ADD PUSH3 0x7ED SWAP1 PUSH3 0xA12 JUMP JUMPDEST PUSH1 0x0 DUP1 SLOAD PUSH1 0x40 MLOAD PUSH1 0x1 PUSH1 0x1 PUSH1 0xA0 SHL SUB DUP1 DUP6 AND SWAP4 SWAP3 AND SWAP2 PUSH1 0x0 DUP1 MLOAD PUSH1 0x20 PUSH3 0x386B DUP4 CODECOPY DUP2 MLOAD SWAP2 MSTORE SWAP2 LOG3 PUSH1 0x0 DUP1 SLOAD PUSH1 0x1 PUSH1 0x1 PUSH1 0xA0 SHL SUB NOT AND PUSH1 0x1 PUSH1 0x1 PUSH1 0xA0 SHL SUB SWAP3 SWAP1 SWAP3 AND SWAP2 SWAP1 SWAP2 OR SWAP1 SSTORE JUMP JUMPDEST DUP3 DUP1 SLOAD PUSH1 0x1 DUP2 PUSH1 0x1 AND ISZERO PUSH2 0x100 MUL SUB AND PUSH1 0x2 SWAP1 DIV SWAP1 PUSH1 0x0 MSTORE PUSH1 0x20 PUSH1 0x0 KECCAK256 SWAP1 PUSH1 0x1F ADD PUSH1 0x20 SWAP1 DIV DUP2 ADD SWAP3 DUP3 PUSH1 0x1F LT PUSH3 0x8F2 JUMPI DUP1 MLOAD PUSH1 0xFF NOT AND DUP4 DUP1 ADD OR DUP6 SSTORE PUSH3 0x922 JUMP JUMPDEST DUP3 DUP1 ADD PUSH1 0x1 ADD DUP6 SSTORE DUP3 ISZERO PUSH3 0x922 JUMPI SWAP2 DUP3 ADD JUMPDEST DUP3 DUP2 GT ISZERO PUSH3 0x922 JUMPI DUP3 MLOAD DUP3 SSTORE SWAP2 PUSH1 0x20 ADD SWAP2 SWAP1 PUSH1 0x1 ADD SWAP1 PUSH3 0x905 JUMP JUMPDEST POP PUSH3 0x930 SWAP3 SWAP2 POP PUSH3 0x934 JUMP JUMPDEST POP SWAP1 JUMP JUMPDEST PUSH3 0x7B8 SWAP2 SWAP1 JUMPDEST DUP1 DUP3 GT ISZERO PUSH3 0x930 JUMPI PUSH1 0x0 DUP2 SSTORE PUSH1 0x1 ADD PUSH3 0x93B JUMP JUMPDEST DUP1 MLOAD PUSH3 0x95E DUP2 PUSH3 0xA51 JUMP JUMPDEST SWAP3 SWAP2 POP POP JUMP JUMPDEST PUSH1 0x0 PUSH1 0x20 DUP3 DUP5 SUB SLT ISZERO PUSH3 0x977 JUMPI PUSH1 0x0 DUP1 REVERT JUMPDEST PUSH1 0x0 PUSH3 0x985 DUP5 DUP5 PUSH3 0x951 JUMP JUMPDEST SWAP5 SWAP4 POP POP POP POP JUMP JUMPDEST PUSH1 0x0 PUSH3 0x99C PUSH1 0x26 DUP4 PUSH3 0xA36 JUMP JUMPDEST PUSH32 0x4F776E61626C653A206E6577206F776E657220697320746865207A65726F2061 DUP2 MSTORE PUSH6 0x646472657373 PUSH1 0xD0 SHL PUSH1 0x20 DUP3 ADD MSTORE PUSH1 0x40 ADD SWAP3 SWAP2 POP POP JUMP JUMPDEST PUSH1 0x0 PUSH3 0x9E6 PUSH1 0x20 DUP4 PUSH3 0xA36 JUMP JUMPDEST PUSH32 0x4F776E61626C653A2063616C6C6572206973206E6F7420746865206F776E6572 DUP2 MSTORE PUSH1 0x20 ADD SWAP3 SWAP2 POP POP JUMP JUMPDEST PUSH1 0x20 DUP1 DUP3 MSTORE DUP2 ADD PUSH3 0x95E DUP2 PUSH3 0x98D JUMP JUMPDEST PUSH1 0x20 DUP1 DUP3 MSTORE DUP2 ADD PUSH3 0x95E DUP2 PUSH3 0x9D7 JUMP JUMPDEST SWAP1 DUP2 MSTORE PUSH1 0x20 ADD SWAP1 JUMP JUMPDEST PUSH1 0x0 PUSH1 0x1 PUSH1 0x1 PUSH1 0xA0 SHL SUB DUP3 AND PUSH3 0x95E JUMP JUMPDEST PUSH3 0xA5C DUP2 PUSH3 0xA3F JUMP JUMPDEST DUP2 EQ PUSH3 0x80A JUMPI PUSH1 0x0 DUP1 REVERT JUMPDEST PUSH2 0x2DF3 DUP1 PUSH3 0xA78 PUSH1 0x0 CODECOPY PUSH1 0x0 RETURN INVALID PUSH1 0x80 PUSH1 0x40 MSTORE PUSH1 0x4 CALLDATASIZE LT PUSH2 0x21A JUMPI PUSH1 0x0 CALLDATALOAD PUSH1 0xE0 SHR DUP1 PUSH4 0x640CF873 GT PUSH2 0x123 JUMPI DUP1 PUSH4 0xACE561A8 GT PUSH2 0xAB JUMPI DUP1 PUSH4 0xF2FDE38B GT PUSH2 0x6F JUMPI DUP1 PUSH4 0xF2FDE38B EQ PUSH2 0x5E1 JUMPI DUP1 PUSH4 0xF4F3B200 EQ PUSH2 0x601 JUMPI DUP1 PUSH4 0xFBA08D45 EQ PUSH2 0x621 JUMPI DUP1 PUSH4 0xFDDEA900 EQ PUSH2 0x641 JUMPI DUP1 PUSH4 0xFF8EDBDB EQ PUSH2 0x661 JUMPI PUSH2 0x21A JUMP JUMPDEST DUP1 PUSH4 0xACE561A8 EQ PUSH2 0x54E JUMPI DUP1 PUSH4 0xB6011B4C EQ PUSH2 0x56E JUMPI DUP1 PUSH4 0xC0F4ED31 EQ PUSH2 0x58E JUMPI DUP1 PUSH4 0xC347F69B EQ PUSH2 0x5A1 JUMPI DUP1 PUSH4 0xE7AB44B4 EQ PUSH2 0x5C1 JUMPI PUSH2 0x21A JUMP JUMPDEST DUP1 PUSH4 0x8450EBE4 GT PUSH2 0xF2 JUMPI DUP1 PUSH4 0x8450EBE4 EQ PUSH2 0x4B7 JUMPI DUP1 PUSH4 0x8C6AB013 EQ PUSH2 0x4D7 JUMPI DUP1 PUSH4 0x8DA5CB5B EQ PUSH2 0x4F7 JUMPI DUP1 PUSH4 0x8F32D59B EQ PUSH2 0x50C JUMPI DUP1 PUSH4 0x9DC6B78D EQ PUSH2 0x52E JUMPI PUSH2 0x21A JUMP JUMPDEST DUP1 PUSH4 0x640CF873 EQ PUSH2 0x44F JUMPI DUP1 PUSH4 0x70480275 EQ PUSH2 0x46F JUMPI DUP1 PUSH4 0x715018A6 EQ PUSH2 0x48F JUMPI DUP1 PUSH4 0x7AD157B9 EQ PUSH2 0x4A4 JUMPI PUSH2 0x21A JUMP JUMPDEST DUP1 PUSH4 0x3169B515 GT PUSH2 0x1A6 JUMPI DUP1 PUSH4 0x47FCF018 GT PUSH2 0x175 JUMPI DUP1 PUSH4 0x47FCF018 EQ PUSH2 0x3BC JUMPI DUP1 PUSH4 0x485F952E EQ PUSH2 0x3DC JUMPI DUP1 PUSH4 0x488B0F7D EQ PUSH2 0x3FC JUMPI DUP1 PUSH4 0x4A0AAFDA EQ PUSH2 0x41C JUMPI DUP1 PUSH4 0x5AA8680A EQ PUSH2 0x43C JUMPI PUSH2 0x21A JUMP JUMPDEST DUP1 PUSH4 0x3169B515 EQ PUSH2 0x352 JUMPI DUP1 PUSH4 0x31AE450B EQ PUSH2 0x365 JUMPI DUP1 PUSH4 0x3790767D EQ PUSH2 0x387 JUMPI DUP1 PUSH4 0x3CCFD60B EQ PUSH2 0x3A7 JUMPI PUSH2 0x21A JUMP JUMPDEST DUP1 PUSH4 0x1785F53C GT PUSH2 0x1ED JUMPI DUP1 PUSH4 0x1785F53C EQ PUSH2 0x2BF JUMPI DUP1 PUSH4 0x179443F3 EQ PUSH2 0x2DF JUMPI DUP1 PUSH4 0x17C48A70 EQ PUSH2 0x2FF JUMPI DUP1 PUSH4 0x18FA0653 EQ PUSH2 0x312 JUMPI DUP1 PUSH4 0x1AFFFEC0 EQ PUSH2 0x332 JUMPI PUSH2 0x21A JUMP JUMPDEST DUP1 PUSH4 0xA1B0B91 EQ PUSH2 0x21C JUMPI DUP1 PUSH4 0xC82EA1A EQ PUSH2 0x23C JUMPI DUP1 PUSH4 0x14BFD6D0 EQ PUSH2 0x25C JUMPI DUP1 PUSH4 0x150B7A02 EQ PUSH2 0x292 JUMPI JUMPDEST STOP JUMPDEST CALLVALUE DUP1 ISZERO PUSH2 0x228 JUMPI PUSH1 0x0 DUP1 REVERT JUMPDEST POP PUSH2 0x21A PUSH2 0x237 CALLDATASIZE PUSH1 0x4 PUSH2 0x21A3 JUMP JUMPDEST PUSH2 0x681 JUMP JUMPDEST CALLVALUE DUP1 ISZERO PUSH2 0x248 JUMPI PUSH1 0x0 DUP1 REVERT JUMPDEST POP PUSH2 0x21A PUSH2 0x257 CALLDATASIZE PUSH1 0x4 PUSH2 0x2291 JUMP JUMPDEST PUSH2 0x77A JUMP JUMPDEST CALLVALUE DUP1 ISZERO PUSH2 0x268 JUMPI PUSH1 0x0 DUP1 REVERT JUMPDEST POP PUSH2 0x27C PUSH2 0x277 CALLDATASIZE PUSH1 0x4 PUSH2 0x2404 JUMP JUMPDEST PUSH2 0x867 JUMP JUMPDEST PUSH1 0x40 MLOAD PUSH2 0x289 SWAP2 SWAP1 PUSH2 0x293E JUMP JUMPDEST PUSH1 0x40 MLOAD DUP1 SWAP2 SUB SWAP1 RETURN JUMPDEST CALLVALUE DUP1 ISZERO PUSH2 0x29E JUMPI PUSH1 0x0 DUP1 REVERT JUMPDEST POP PUSH2 0x2B2 PUSH2 0x2AD CALLDATASIZE PUSH1 0x4 PUSH2 0x22DE JUMP JUMPDEST PUSH2 0x88E JUMP JUMPDEST PUSH1 0x40 MLOAD PUSH2 0x289 SWAP2 SWAP1 PUSH2 0x2A51 JUMP JUMPDEST CALLVALUE DUP1 ISZERO PUSH2 0x2CB JUMPI PUSH1 0x0 DUP1 REVERT JUMPDEST POP PUSH2 0x21A PUSH2 0x2DA CALLDATASIZE PUSH1 0x4 PUSH2 0x2167 JUMP JUMPDEST PUSH2 0x89F JUMP JUMPDEST CALLVALUE DUP1 ISZERO PUSH2 0x2EB JUMPI PUSH1 0x0 DUP1 REVERT JUMPDEST POP PUSH2 0x21A PUSH2 0x2FA CALLDATASIZE PUSH1 0x4 PUSH2 0x2440 JUMP JUMPDEST PUSH2 0x9DE JUMP JUMPDEST PUSH2 0x21A PUSH2 0x30D CALLDATASIZE PUSH1 0x4 PUSH2 0x2470 JUMP JUMPDEST PUSH2 0xAC9 JUMP JUMPDEST CALLVALUE DUP1 ISZERO PUSH2 0x31E JUMPI PUSH1 0x0 DUP1 REVERT JUMPDEST POP PUSH2 0x21A PUSH2 0x32D CALLDATASIZE PUSH1 0x4 PUSH2 0x2291 JUMP JUMPDEST PUSH2 0xBB7 JUMP JUMPDEST CALLVALUE DUP1 ISZERO PUSH2 0x33E JUMPI PUSH1 0x0 DUP1 REVERT JUMPDEST POP PUSH2 0x21A PUSH2 0x34D CALLDATASIZE PUSH1 0x4 PUSH2 0x2291 JUMP JUMPDEST PUSH2 0xCA4 JUMP JUMPDEST PUSH2 0x21A PUSH2 0x360 CALLDATASIZE PUSH1 0x4 PUSH2 0x2508 JUMP JUMPDEST PUSH2 0xD48 JUMP JUMPDEST CALLVALUE DUP1 ISZERO PUSH2 0x371 JUMPI PUSH1 0x0 DUP1 REVERT JUMPDEST POP PUSH2 0x37A PUSH2 0xE2B JUMP JUMPDEST PUSH1 0x40 MLOAD PUSH2 0x289 SWAP2 SWAP1 PUSH2 0x2A32 JUMP JUMPDEST CALLVALUE DUP1 ISZERO PUSH2 0x393 JUMPI PUSH1 0x0 DUP1 REVERT JUMPDEST POP PUSH2 0x21A PUSH2 0x3A2 CALLDATASIZE PUSH1 0x4 PUSH2 0x2291 JUMP JUMPDEST PUSH2 0xE8D JUMP JUMPDEST CALLVALUE DUP1 ISZERO PUSH2 0x3B3 JUMPI PUSH1 0x0 DUP1 REVERT JUMPDEST POP PUSH2 0x21A PUSH2 0xF31 JUMP JUMPDEST CALLVALUE DUP1 ISZERO PUSH2 0x3C8 JUMPI PUSH1 0x0 DUP1 REVERT JUMPDEST POP PUSH2 0x21A PUSH2 0x3D7 CALLDATASIZE PUSH1 0x4 PUSH2 0x2395 JUMP JUMPDEST PUSH2 0xF84 JUMP JUMPDEST CALLVALUE DUP1 ISZERO PUSH2 0x3E8 JUMPI PUSH1 0x0 DUP1 REVERT JUMPDEST POP PUSH2 0x21A PUSH2 0x3F7 CALLDATASIZE PUSH1 0x4 PUSH2 0x2395 JUMP JUMPDEST PUSH2 0x118B JUMP JUMPDEST CALLVALUE DUP1 ISZERO PUSH2 0x408 JUMPI PUSH1 0x0 DUP1 REVERT JUMPDEST POP PUSH2 0x21A PUSH2 0x417 CALLDATASIZE PUSH1 0x4 PUSH2 0x2204 JUMP JUMPDEST PUSH2 0x1275 JUMP JUMPDEST CALLVALUE DUP1 ISZERO PUSH2 0x428 JUMPI PUSH1 0x0 DUP1 REVERT JUMPDEST POP PUSH2 0x21A PUSH2 0x437 CALLDATASIZE PUSH1 0x4 PUSH2 0x21A3 JUMP JUMPDEST PUSH2 0x1368 JUMP JUMPDEST PUSH2 0x21A PUSH2 0x44A CALLDATASIZE PUSH1 0x4 PUSH2 0x24B3 JUMP JUMPDEST PUSH2 0x1459 JUMP JUMPDEST CALLVALUE DUP1 ISZERO PUSH2 0x45B JUMPI PUSH1 0x0 DUP1 REVERT JUMPDEST POP PUSH2 0x21A PUSH2 0x46A CALLDATASIZE PUSH1 0x4 PUSH2 0x25E3 JUMP JUMPDEST PUSH2 0x1503 JUMP JUMPDEST CALLVALUE DUP1 ISZERO PUSH2 0x47B JUMPI PUSH1 0x0 DUP1 REVERT JUMPDEST POP PUSH2 0x21A PUSH2 0x48A CALLDATASIZE PUSH1 0x4 PUSH2 0x2167 JUMP JUMPDEST PUSH2 0x1600 JUMP JUMPDEST CALLVALUE DUP1 ISZERO PUSH2 0x49B JUMPI PUSH1 0x0 DUP1 REVERT JUMPDEST POP PUSH2 0x21A PUSH2 0x16C9 JUMP JUMPDEST PUSH2 0x21A PUSH2 0x4B2 CALLDATASIZE PUSH1 0x4 PUSH2 0x252A JUMP JUMPDEST PUSH2 0x1737 JUMP JUMPDEST CALLVALUE DUP1 ISZERO PUSH2 0x4C3 JUMPI PUSH1 0x0 DUP1 REVERT JUMPDEST POP PUSH2 0x21A PUSH2 0x4D2 CALLDATASIZE PUSH1 0x4 PUSH2 0x21A3 JUMP JUMPDEST PUSH2 0x17E2 JUMP JUMPDEST CALLVALUE DUP1 ISZERO PUSH2 0x4E3 JUMPI PUSH1 0x0 DUP1 REVERT JUMPDEST POP PUSH2 0x21A PUSH2 0x4F2 CALLDATASIZE PUSH1 0x4 PUSH2 0x252A JUMP JUMPDEST PUSH2 0x1899 JUMP JUMPDEST CALLVALUE DUP1 ISZERO PUSH2 0x503 JUMPI PUSH1 0x0 DUP1 REVERT JUMPDEST POP PUSH2 0x27C PUSH2 0x1941 JUMP JUMPDEST CALLVALUE DUP1 ISZERO PUSH2 0x518 JUMPI PUSH1 0x0 DUP1 REVERT JUMPDEST POP PUSH2 0x521 PUSH2 0x1950 JUMP JUMPDEST PUSH1 0x40 MLOAD PUSH2 0x289 SWAP2 SWAP1 PUSH2 0x2A43 JUMP JUMPDEST CALLVALUE DUP1 ISZERO PUSH2 0x53A JUMPI PUSH1 0x0 DUP1 REVERT JUMPDEST POP PUSH2 0x21A PUSH2 0x549 CALLDATASIZE PUSH1 0x4 PUSH2 0x2291 JUMP JUMPDEST PUSH2 0x1974 JUMP JUMPDEST CALLVALUE DUP1 ISZERO PUSH2 0x55A JUMPI PUSH1 0x0 DUP1 REVERT JUMPDEST POP PUSH2 0x21A PUSH2 0x569 CALLDATASIZE PUSH1 0x4 PUSH2 0x2291 JUMP JUMPDEST PUSH2 0x1A18 JUMP JUMPDEST CALLVALUE DUP1 ISZERO PUSH2 0x57A JUMPI PUSH1 0x0 DUP1 REVERT JUMPDEST POP PUSH2 0x21A PUSH2 0x589 CALLDATASIZE PUSH1 0x4 PUSH2 0x2291 JUMP JUMPDEST PUSH2 0x1ABC JUMP JUMPDEST PUSH2 0x21A PUSH2 0x59C CALLDATASIZE PUSH1 0x4 PUSH2 0x256D JUMP JUMPDEST PUSH2 0x1B71 JUMP JUMPDEST CALLVALUE DUP1 ISZERO PUSH2 0x5AD JUMPI PUSH1 0x0 DUP1 REVERT JUMPDEST POP PUSH2 0x21A PUSH2 0x5BC CALLDATASIZE PUSH1 0x4 PUSH2 0x2291 JUMP JUMPDEST PUSH2 0x1C1C JUMP JUMPDEST CALLVALUE DUP1 ISZERO PUSH2 0x5CD JUMPI PUSH1 0x0 DUP1 REVERT JUMPDEST POP PUSH2 0x21A PUSH2 0x5DC CALLDATASIZE PUSH1 0x4 PUSH2 0x2440 JUMP JUMPDEST PUSH2 0x1C7F JUMP JUMPDEST CALLVALUE DUP1 ISZERO PUSH2 0x5ED JUMPI PUSH1 0x0 DUP1 REVERT JUMPDEST POP PUSH2 0x21A PUSH2 0x5FC CALLDATASIZE PUSH1 0x4 PUSH2 0x2167 JUMP JUMPDEST PUSH2 0x1D25 JUMP JUMPDEST CALLVALUE DUP1 ISZERO PUSH2 0x60D JUMPI PUSH1 0x0 DUP1 REVERT JUMPDEST POP PUSH2 0x21A PUSH2 0x61C CALLDATASIZE PUSH1 0x4 PUSH2 0x2167 JUMP JUMPDEST PUSH2 0x1D52 JUMP JUMPDEST CALLVALUE DUP1 ISZERO PUSH2 0x62D JUMPI PUSH1 0x0 DUP1 REVERT JUMPDEST POP PUSH2 0x521 PUSH2 0x63C CALLDATASIZE PUSH1 0x4 PUSH2 0x2167 JUMP JUMPDEST PUSH2 0x1E51 JUMP JUMPDEST CALLVALUE DUP1 ISZERO PUSH2 0x64D JUMPI PUSH1 0x0 DUP1 REVERT JUMPDEST POP PUSH2 0x21A PUSH2 0x65C CALLDATASIZE PUSH1 0x4 PUSH2 0x234B JUMP JUMPDEST PUSH2 0x1EA8 JUMP JUMPDEST CALLVALUE DUP1 ISZERO PUSH2 0x66D JUMPI PUSH1 0x0 DUP1 REVERT JUMPDEST POP PUSH2 0x21A PUSH2 0x67C CALLDATASIZE PUSH1 0x4 PUSH2 0x258E JUMP JUMPDEST PUSH2 0x1F5E JUMP JUMPDEST PUSH2 0x68A CALLER PUSH2 0x1E51 JUMP JUMPDEST DUP1 PUSH2 0x698 JUMPI POP PUSH2 0x698 PUSH2 0x1950 JUMP JUMPDEST PUSH2 0x6BD JUMPI PUSH1 0x40 MLOAD PUSH3 0x461BCD PUSH1 0xE5 SHL DUP2 MSTORE PUSH1 0x4 ADD PUSH2 0x6B4 SWAP1 PUSH2 0x2A8F JUMP JUMPDEST PUSH1 0x40 MLOAD DUP1 SWAP2 SUB SWAP1 REVERT JUMPDEST PUSH1 0x40 MLOAD PUSH4 0x23B872DD PUSH1 0xE0 SHL DUP2 MSTORE DUP5 SWAP1 PUSH1 0x1 PUSH1 0x1 PUSH1 0xA0 SHL SUB DUP3 AND SWAP1 PUSH4 0x23B872DD SWAP1 PUSH2 0x6EF SWAP1 DUP8 SWAP1 DUP8 SWAP1 DUP8 SWAP1 PUSH1 0x4 ADD PUSH2 0x2975 JUMP JUMPDEST PUSH1 0x0 PUSH1 0x40 MLOAD DUP1 DUP4 SUB DUP2 PUSH1 0x0 DUP8 DUP1 EXTCODESIZE ISZERO DUP1 ISZERO PUSH2 0x709 JUMPI PUSH1 0x0 DUP1 REVERT JUMPDEST POP GAS CALL ISZERO DUP1 ISZERO PUSH2 0x71D JUMPI RETURNDATASIZE PUSH1 0x0 DUP1 RETURNDATACOPY RETURNDATASIZE PUSH1 0x0 REVERT JUMPDEST POP POP PUSH1 0x40 MLOAD PUSH2 0x730 SWAP3 POP PUSH1 0x16 SWAP2 POP PUSH2 0x292B JUMP JUMPDEST PUSH1 0x40 MLOAD DUP1 SWAP2 SUB SWAP1 KECCAK256 DUP6 PUSH1 0x1 PUSH1 0x1 PUSH1 0xA0 SHL SUB AND CALLER PUSH1 0x1 PUSH1 0x1 PUSH1 0xA0 SHL SUB AND PUSH1 0x0 DUP1 MLOAD PUSH1 0x20 PUSH2 0x2D91 DUP4 CODECOPY DUP2 MLOAD SWAP2 MSTORE DUP7 DUP7 PUSH1 0x40 MLOAD PUSH2 0x76B SWAP3 SWAP2 SWAP1 PUSH2 0x29FC JUMP JUMPDEST PUSH1 0x40 MLOAD DUP1 SWAP2 SUB SWAP1 LOG4 POP POP POP POP POP JUMP JUMPDEST PUSH2 0x783 CALLER PUSH2 0x1E51 JUMP JUMPDEST DUP1 PUSH2 0x791 JUMPI POP PUSH2 0x791 PUSH2 0x1950 JUMP JUMPDEST PUSH2 0x7AD JUMPI PUSH1 0x40 MLOAD PUSH3 0x461BCD PUSH1 0xE5 SHL DUP2 MSTORE PUSH1 0x4 ADD PUSH2 0x6B4 SWAP1 PUSH2 0x2A8F JUMP JUMPDEST PUSH1 0x40 MLOAD PUSH4 0xA457C2D7 PUSH1 0xE0 SHL DUP2 MSTORE DUP4 SWAP1 PUSH1 0x1 PUSH1 0x1 PUSH1 0xA0 SHL SUB DUP3 AND SWAP1 PUSH4 0xA457C2D7 SWAP1 PUSH2 0x7DD SWAP1 DUP7 SWAP1 DUP7 SWAP1 PUSH1 0x4 ADD PUSH2 0x29FC JUMP JUMPDEST PUSH1 0x0 PUSH1 0x40 MLOAD DUP1 DUP4 SUB DUP2 PUSH1 0x0 DUP8 DUP1 EXTCODESIZE ISZERO DUP1 ISZERO PUSH2 0x7F7 JUMPI PUSH1 0x0 DUP1 REVERT JUMPDEST POP GAS CALL ISZERO DUP1 ISZERO PUSH2 0x80B JUMPI RETURNDATASIZE PUSH1 0x0 DUP1 RETURNDATACOPY RETURNDATASIZE PUSH1 0x0 REVERT JUMPDEST POP POP PUSH1 0x40 MLOAD PUSH2 0x81E SWAP3 POP PUSH1 0x18 SWAP2 POP PUSH2 0x292B JUMP JUMPDEST PUSH1 0x40 MLOAD DUP1 SWAP2 SUB SWAP1 KECCAK256 DUP5 PUSH1 0x1 PUSH1 0x1 PUSH1 0xA0 SHL SUB AND CALLER PUSH1 0x1 PUSH1 0x1 PUSH1 0xA0 SHL SUB AND PUSH1 0x0 DUP1 MLOAD PUSH1 0x20 PUSH2 0x2D91 DUP4 CODECOPY DUP2 MLOAD SWAP2 MSTORE DUP7 DUP7 PUSH1 0x40 MLOAD PUSH2 0x859 SWAP3 SWAP2 SWAP1 PUSH2 0x29FC JUMP JUMPDEST PUSH1 0x40 MLOAD DUP1 SWAP2 SUB SWAP1 LOG4 POP POP POP POP JUMP JUMPDEST PUSH1 0x1 DUP2 DUP2 SLOAD DUP2 LT PUSH2 0x874 JUMPI INVALID JUMPDEST PUSH1 0x0 SWAP2 DUP3 MSTORE PUSH1 0x20 SWAP1 SWAP2 KECCAK256 ADD SLOAD PUSH1 0x1 PUSH1 0x1 PUSH1 0xA0 SHL SUB AND SWAP1 POP DUP2 JUMP JUMPDEST PUSH4 0xA85BD01 PUSH1 0xE1 SHL JUMPDEST SWAP5 SWAP4 POP POP POP POP JUMP JUMPDEST PUSH2 0x8A7 PUSH2 0x1950 JUMP JUMPDEST PUSH2 0x8C3 JUMPI PUSH1 0x40 MLOAD PUSH3 0x461BCD PUSH1 0xE5 SHL DUP2 MSTORE PUSH1 0x4 ADD PUSH2 0x6B4 SWAP1 PUSH2 0x2AAF JUMP JUMPDEST PUSH1 0x0 JUMPDEST PUSH1 0x1 SLOAD DUP2 LT ISZERO PUSH2 0x9A1 JUMPI DUP2 PUSH1 0x1 PUSH1 0x1 PUSH1 0xA0 SHL SUB AND PUSH1 0x1 DUP3 DUP2 SLOAD DUP2 LT PUSH2 0x8E7 JUMPI INVALID JUMPDEST PUSH1 0x0 SWAP2 DUP3 MSTORE PUSH1 0x20 SWAP1 SWAP2 KECCAK256 ADD SLOAD PUSH1 0x1 PUSH1 0x1 PUSH1 0xA0 SHL SUB AND EQ ISZERO PUSH2 0x999 JUMPI PUSH1 0x1 DUP2 DUP2 SLOAD DUP2 LT PUSH2 0x90F JUMPI INVALID JUMPDEST PUSH1 0x0 SWAP2 DUP3 MSTORE PUSH1 0x20 SWAP1 SWAP2 KECCAK256 ADD SLOAD PUSH1 0x1 DUP1 SLOAD PUSH1 0x1 PUSH1 0x1 PUSH1 0xA0 SHL SUB SWAP1 SWAP3 AND SWAP2 PUSH1 0x0 NOT DUP2 ADD SWAP1 DUP2 LT PUSH2 0x939 JUMPI INVALID JUMPDEST SWAP1 PUSH1 0x0 MSTORE PUSH1 0x20 PUSH1 0x0 KECCAK256 ADD PUSH1 0x0 PUSH2 0x100 EXP DUP2 SLOAD DUP2 PUSH1 0x1 PUSH1 0x1 PUSH1 0xA0 SHL SUB MUL NOT AND SWAP1 DUP4 PUSH1 0x1 PUSH1 0x1 PUSH1 0xA0 SHL SUB AND MUL OR SWAP1 SSTORE POP PUSH1 0x1 DUP1 SLOAD DUP1 PUSH2 0x972 JUMPI INVALID JUMPDEST PUSH1 0x0 DUP3 DUP2 MSTORE PUSH1 0x20 SWAP1 KECCAK256 DUP2 ADD PUSH1 0x0 NOT SWAP1 DUP2 ADD DUP1 SLOAD PUSH1 0x1 PUSH1 0x1 PUSH1 0xA0 SHL SUB NOT AND SWAP1 SSTORE ADD SWAP1 SSTORE PUSH2 0x9A1 JUMP JUMPDEST PUSH1 0x1 ADD PUSH2 0x8C6 JUMP JUMPDEST POP PUSH32 0xA0726C73CF6AD18DDB855BA65D1DDD4D7FD37D320F4E52F6B154C13D386F5FD9 DUP2 TIMESTAMP PUSH1 0x40 MLOAD PUSH2 0x9D3 SWAP3 SWAP2 SWAP1 PUSH2 0x29FC JUMP JUMPDEST PUSH1 0x40 MLOAD DUP1 SWAP2 SUB SWAP1 LOG1 POP JUMP JUMPDEST PUSH2 0x9E7 CALLER PUSH2 0x1E51 JUMP JUMPDEST DUP1 PUSH2 0x9F5 JUMPI POP PUSH2 0x9F5 PUSH2 0x1950 JUMP JUMPDEST PUSH2 0xA11 JUMPI PUSH1 0x40 MLOAD PUSH3 0x461BCD PUSH1 0xE5 SHL DUP2 MSTORE PUSH1 0x4 ADD PUSH2 0x6B4 SWAP1 PUSH2 0x2A8F JUMP JUMPDEST PUSH1 0x1C SLOAD PUSH1 0x40 MLOAD PUSH4 0x179443F3 PUSH1 0xE0 SHL DUP2 MSTORE PUSH1 0x1 PUSH1 0x1 PUSH1 0xA0 SHL SUB SWAP1 SWAP2 AND SWAP1 PUSH4 0x179443F3 SWAP1 PUSH2 0xA43 SWAP1 DUP6 SWAP1 DUP6 SWAP1 PUSH1 0x4 ADD PUSH2 0x2ADD JUMP JUMPDEST PUSH1 0x0 PUSH1 0x40 MLOAD DUP1 DUP4 SUB DUP2 PUSH1 0x0 DUP8 DUP1 EXTCODESIZE ISZERO DUP1 ISZERO PUSH2 0xA5D JUMPI PUSH1 0x0 DUP1 REVERT JUMPDEST POP GAS CALL ISZERO DUP1 ISZERO PUSH2 0xA71 JUMPI RETURNDATASIZE PUSH1 0x0 DUP1 RETURNDATACOPY RETURNDATASIZE PUSH1 0x0 REVERT JUMPDEST POP POP PUSH1 0x40 MLOAD PUSH2 0xA84 SWAP3 POP PUSH1 0xD SWAP2 POP PUSH2 0x292B JUMP JUMPDEST PUSH1 0x40 MLOAD SWAP1 DUP2 SWAP1 SUB DUP2 KECCAK256 PUSH1 0x1C SLOAD SWAP1 SWAP2 PUSH1 0x1 PUSH1 0x1 PUSH1 0xA0 SHL SUB SWAP1 SWAP2 AND SWAP1 CALLER SWAP1 PUSH1 0x0 DUP1 MLOAD PUSH1 0x20 PUSH2 0x2D91 DUP4 CODECOPY DUP2 MLOAD SWAP2 MSTORE SWAP1 PUSH2 0xABD SWAP1 DUP7 SWAP1 DUP9 SWAP1 PUSH2 0x29FC JUMP JUMPDEST PUSH1 0x40 MLOAD DUP1 SWAP2 SUB SWAP1 LOG4 POP POP JUMP JUMPDEST PUSH2 0xAD2 CALLER PUSH2 0x1E51 JUMP JUMPDEST DUP1 PUSH2 0xAE0 JUMPI POP PUSH2 0xAE0 PUSH2 0x1950 JUMP JUMPDEST PUSH2 0xAFC JUMPI PUSH1 0x40 MLOAD PUSH3 0x461BCD PUSH1 0xE5 SHL DUP2 MSTORE PUSH1 0x4 ADD PUSH2 0x6B4 SWAP1 PUSH2 0x2A8F JUMP JUMPDEST PUSH1 0x1C SLOAD PUSH1 0x40 MLOAD PUSH4 0x4DA9A89 PUSH1 0xE2 SHL DUP2 MSTORE PUSH1 0x1 PUSH1 0x1 PUSH1 0xA0 SHL SUB SWAP1 SWAP2 AND SWAP1 PUSH4 0x136A6A24 SWAP1 PUSH2 0xB30 SWAP1 DUP6 SWAP1 DUP8 SWAP1 DUP7 SWAP1 PUSH1 0x4 ADD PUSH2 0x2A0A JUMP JUMPDEST PUSH1 0x0 PUSH1 0x40 MLOAD DUP1 DUP4 SUB DUP2 PUSH1 0x0 DUP8 DUP1 EXTCODESIZE ISZERO DUP1 ISZERO PUSH2 0xB4A JUMPI PUSH1 0x0 DUP1 REVERT JUMPDEST POP GAS CALL ISZERO DUP1 ISZERO PUSH2 0xB5E JUMPI RETURNDATASIZE PUSH1 0x0 DUP1 RETURNDATACOPY RETURNDATASIZE PUSH1 0x0 REVERT JUMPDEST POP POP PUSH1 0x40 MLOAD PUSH2 0xB71 SWAP3 POP PUSH1 0x10 SWAP2 POP PUSH2 0x292B JUMP JUMPDEST PUSH1 0x40 MLOAD SWAP1 DUP2 SWAP1 SUB DUP2 KECCAK256 PUSH1 0x1C SLOAD SWAP1 SWAP2 PUSH1 0x1 PUSH1 0x1 PUSH1 0xA0 SHL SUB SWAP1 SWAP2 AND SWAP1 CALLER SWAP1 PUSH1 0x0 DUP1 MLOAD PUSH1 0x20 PUSH2 0x2D91 DUP4 CODECOPY DUP2 MLOAD SWAP2 MSTORE SWAP1 PUSH2 0xBAA SWAP1 DUP8 SWAP1 DUP10 SWAP1 PUSH2 0x29FC JUMP JUMPDEST PUSH1 0x40 MLOAD DUP1 SWAP2 SUB SWAP1 LOG4 POP POP POP JUMP JUMPDEST PUSH2 0xBC0 CALLER PUSH2 0x1E51 JUMP JUMPDEST DUP1 PUSH2 0xBCE JUMPI POP PUSH2 0xBCE PUSH2 0x1950 JUMP JUMPDEST PUSH2 0xBEA JUMPI PUSH1 0x40 MLOAD PUSH3 0x461BCD PUSH1 0xE5 SHL DUP2 MSTORE PUSH1 0x4 ADD PUSH2 0x6B4 SWAP1 PUSH2 0x2A8F JUMP JUMPDEST PUSH1 0x40 MLOAD DUP4 SWAP1 PUSH2 0xBFB SWAP1 PUSH1 0x2 SWAP1 PUSH2 0x292B JUMP JUMPDEST PUSH1 0x40 MLOAD DUP1 SWAP2 SUB SWAP1 KECCAK256 DUP5 PUSH1 0x1 PUSH1 0x1 PUSH1 0xA0 SHL SUB AND CALLER PUSH1 0x1 PUSH1 0x1 PUSH1 0xA0 SHL SUB AND PUSH1 0x0 DUP1 MLOAD PUSH1 0x20 PUSH2 0x2D91 DUP4 CODECOPY DUP2 MLOAD SWAP2 MSTORE DUP8 DUP7 PUSH1 0x40 MLOAD PUSH2 0xC36 SWAP3 SWAP2 SWAP1 PUSH2 0x29FC JUMP JUMPDEST PUSH1 0x40 MLOAD DUP1 SWAP2 SUB SWAP1 LOG4 PUSH1 0x40 MLOAD PUSH4 0x95EA7B3 PUSH1 0xE0 SHL DUP2 MSTORE PUSH1 0x1 PUSH1 0x1 PUSH1 0xA0 SHL SUB DUP3 AND SWAP1 PUSH4 0x95EA7B3 SWAP1 PUSH2 0xC6C SWAP1 DUP7 SWAP1 DUP7 SWAP1 PUSH1 0x4 ADD PUSH2 0x29FC JUMP JUMPDEST PUSH1 0x0 PUSH1 0x40 MLOAD DUP1 DUP4 SUB DUP2 PUSH1 0x0 DUP8 DUP1 EXTCODESIZE ISZERO DUP1 ISZERO PUSH2 0xC86 JUMPI PUSH1 0x0 DUP1 REVERT JUMPDEST POP GAS CALL ISZERO DUP1 ISZERO PUSH2 0xC9A JUMPI RETURNDATASIZE PUSH1 0x0 DUP1 RETURNDATACOPY RETURNDATASIZE PUSH1 0x0 REVERT JUMPDEST POP POP POP POP POP POP POP POP JUMP JUMPDEST PUSH2 0xCAD CALLER PUSH2 0x1E51 JUMP JUMPDEST DUP1 PUSH2 0xCBB JUMPI POP PUSH2 0xCBB PUSH2 0x1950 JUMP JUMPDEST PUSH2 0xCD7 JUMPI PUSH1 0x40 MLOAD PUSH3 0x461BCD PUSH1 0xE5 SHL DUP2 MSTORE PUSH1 0x4 ADD PUSH2 0x6B4 SWAP1 PUSH2 0x2A8F JUMP JUMPDEST PUSH1 0x40 MLOAD PUSH4 0xD73DD623 PUSH1 0xE0 SHL DUP2 MSTORE DUP4 SWAP1 PUSH1 0x1 PUSH1 0x1 PUSH1 0xA0 SHL SUB DUP3 AND SWAP1 PUSH4 0xD73DD623 SWAP1 PUSH2 0xD07 SWAP1 DUP7 SWAP1 DUP7 SWAP1 PUSH1 0x4 ADD PUSH2 0x29FC JUMP JUMPDEST PUSH1 0x0 PUSH1 0x40 MLOAD DUP1 DUP4 SUB DUP2 PUSH1 0x0 DUP8 DUP1 EXTCODESIZE ISZERO DUP1 ISZERO PUSH2 0xD21 JUMPI PUSH1 0x0 DUP1 REVERT JUMPDEST POP GAS CALL ISZERO DUP1 ISZERO PUSH2 0xD35 JUMPI RETURNDATASIZE PUSH1 0x0 DUP1 RETURNDATACOPY RETURNDATASIZE PUSH1 0x0 REVERT JUMPDEST POP POP PUSH1 0x40 MLOAD PUSH2 0x81E SWAP3 POP PUSH1 0x14 SWAP2 POP PUSH2 0x292B JUMP JUMPDEST PUSH2 0xD51 CALLER PUSH2 0x1E51 JUMP JUMPDEST DUP1 PUSH2 0xD5F JUMPI POP PUSH2 0xD5F PUSH2 0x1950 JUMP JUMPDEST PUSH2 0xD7B JUMPI PUSH1 0x40 MLOAD PUSH3 0x461BCD PUSH1 0xE5 SHL DUP2 MSTORE PUSH1 0x4 ADD PUSH2 0x6B4 SWAP1 PUSH2 0x2A8F JUMP JUMPDEST PUSH1 0x1C SLOAD PUSH1 0x40 MLOAD PUSH4 0x3169B515 PUSH1 0xE0 SHL DUP2 MSTORE PUSH1 0x1 PUSH1 0x1 PUSH1 0xA0 SHL SUB SWAP1 SWAP2 AND SWAP1 PUSH4 0x3169B515 SWAP1 PUSH2 0xDB1 SWAP1 DUP8 SWAP1 DUP8 SWAP1 DUP8 SWAP1 DUP8 SWAP1 PUSH1 0x4 ADD PUSH2 0x2B36 JUMP JUMPDEST PUSH1 0x0 PUSH1 0x40 MLOAD DUP1 DUP4 SUB DUP2 PUSH1 0x0 DUP8 DUP1 EXTCODESIZE ISZERO DUP1 ISZERO PUSH2 0xDCB JUMPI PUSH1 0x0 DUP1 REVERT JUMPDEST POP GAS CALL ISZERO DUP1 ISZERO PUSH2 0xDDF JUMPI RETURNDATASIZE PUSH1 0x0 DUP1 RETURNDATACOPY RETURNDATASIZE PUSH1 0x0 REVERT JUMPDEST POP POP PUSH1 0x40 MLOAD PUSH2 0xDF2 SWAP3 POP PUSH1 0xE SWAP2 POP PUSH2 0x292B JUMP JUMPDEST PUSH1 0x40 MLOAD SWAP1 DUP2 SWAP1 SUB DUP2 KECCAK256 PUSH1 0x1C SLOAD SWAP1 SWAP2 PUSH1 0x1 PUSH1 0x1 PUSH1 0xA0 SHL SUB SWAP1 SWAP2 AND SWAP1 CALLER SWAP1 PUSH1 0x0 DUP1 MLOAD PUSH1 0x20 PUSH2 0x2D91 DUP4 CODECOPY DUP2 MLOAD SWAP2 MSTORE SWAP1 PUSH2 0x859 SWAP1 DUP9 SWAP1 DUP11 SWAP1 PUSH2 0x29FC JUMP JUMPDEST PUSH1 0x60 PUSH1 0x1 DUP1 SLOAD DUP1 PUSH1 0x20 MUL PUSH1 0x20 ADD PUSH1 0x40 MLOAD SWAP1 DUP2 ADD PUSH1 0x40 MSTORE DUP1 SWAP3 SWAP2 SWAP1 DUP2 DUP2 MSTORE PUSH1 0x20 ADD DUP3 DUP1 SLOAD DUP1 ISZERO PUSH2 0xE83 JUMPI PUSH1 0x20 MUL DUP3 ADD SWAP2 SWAP1 PUSH1 0x0 MSTORE PUSH1 0x20 PUSH1 0x0 KECCAK256 SWAP1 JUMPDEST DUP2 SLOAD PUSH1 0x1 PUSH1 0x1 PUSH1 0xA0 SHL SUB AND DUP2 MSTORE PUSH1 0x1 SWAP1 SWAP2 ADD SWAP1 PUSH1 0x20 ADD DUP1 DUP4 GT PUSH2 0xE65 JUMPI JUMPDEST POP POP POP POP POP SWAP1 POP SWAP1 JUMP JUMPDEST PUSH2 0xE96 CALLER PUSH2 0x1E51 JUMP JUMPDEST DUP1 PUSH2 0xEA4 JUMPI POP PUSH2 0xEA4 PUSH2 0x1950 JUMP JUMPDEST PUSH2 0xEC0 JUMPI PUSH1 0x40 MLOAD PUSH3 0x461BCD PUSH1 0xE5 SHL DUP2 MSTORE PUSH1 0x4 ADD PUSH2 0x6B4 SWAP1 PUSH2 0x2A8F JUMP JUMPDEST PUSH1 0x40 MLOAD PUSH4 0xA9059CBB PUSH1 0xE0 SHL DUP2 MSTORE DUP4 SWAP1 PUSH1 0x1 PUSH1 0x1 PUSH1 0xA0 SHL SUB DUP3 AND SWAP1 PUSH4 0xA9059CBB SWAP1 PUSH2 0xEF0 SWAP1 DUP7 SWAP1 DUP7 SWAP1 PUSH1 0x4 ADD PUSH2 0x29FC JUMP JUMPDEST PUSH1 0x0 PUSH1 0x40 MLOAD DUP1 DUP4 SUB DUP2 PUSH1 0x0 DUP8 DUP1 EXTCODESIZE ISZERO DUP1 ISZERO PUSH2 0xF0A JUMPI PUSH1 0x0 DUP1 REVERT JUMPDEST POP GAS CALL ISZERO DUP1 ISZERO PUSH2 0xF1E JUMPI RETURNDATASIZE PUSH1 0x0 DUP1 RETURNDATACOPY RETURNDATASIZE PUSH1 0x0 REVERT JUMPDEST POP POP PUSH1 0x40 MLOAD PUSH2 0x81E SWAP3 POP PUSH1 0x15 SWAP2 POP PUSH2 0x292B JUMP JUMPDEST PUSH2 0xF39 PUSH2 0x1950 JUMP JUMPDEST PUSH2 0xF55 JUMPI PUSH1 0x40 MLOAD PUSH3 0x461BCD PUSH1 0xE5 SHL DUP2 MSTORE PUSH1 0x4 ADD PUSH2 0x6B4 SWAP1 PUSH2 0x2AAF JUMP JUMPDEST PUSH1 0x40 MLOAD CALLER SWAP1 SELFBALANCE DUP1 ISZERO PUSH2 0x8FC MUL SWAP2 PUSH1 0x0 DUP2 DUP2 DUP2 DUP6 DUP9 DUP9 CALL SWAP4 POP POP POP POP ISZERO DUP1 ISZERO PUSH2 0xF81 JUMPI RETURNDATASIZE PUSH1 0x0 DUP1 RETURNDATACOPY RETURNDATASIZE PUSH1 0x0 REVERT JUMPDEST POP JUMP JUMPDEST PUSH2 0xF8D CALLER PUSH2 0x1E51 JUMP JUMPDEST DUP1 PUSH2 0xF9B JUMPI POP PUSH2 0xF9B PUSH2 0x1950 JUMP JUMPDEST PUSH2 0xFB7 JUMPI PUSH1 0x40 MLOAD PUSH3 0x461BCD PUSH1 0xE5 SHL DUP2 MSTORE PUSH1 0x4 ADD PUSH2 0x6B4 SWAP1 PUSH2 0x2A8F JUMP JUMPDEST PUSH1 0x40 MLOAD PUSH4 0xC87B56DD PUSH1 0xE0 SHL DUP2 MSTORE DUP3 SWAP1 PUSH1 0x60 SWAP1 PUSH1 0x1 PUSH1 0x1 PUSH1 0xA0 SHL SUB DUP4 AND SWAP1 PUSH4 0xC87B56DD SWAP1 PUSH2 0xFE8 SWAP1 DUP7 SWAP1 PUSH1 0x4 ADD PUSH2 0x2ACF JUMP JUMPDEST PUSH1 0x0 PUSH1 0x40 MLOAD DUP1 DUP4 SUB DUP2 PUSH1 0x0 DUP8 DUP1 EXTCODESIZE ISZERO DUP1 ISZERO PUSH2 0x1002 JUMPI PUSH1 0x0 DUP1 REVERT JUMPDEST POP GAS CALL ISZERO DUP1 ISZERO PUSH2 0x1016 JUMPI RETURNDATASIZE PUSH1 0x0 DUP1 RETURNDATACOPY RETURNDATASIZE PUSH1 0x0 REVERT JUMPDEST POP POP POP POP PUSH1 0x40 MLOAD RETURNDATASIZE PUSH1 0x0 DUP3 RETURNDATACOPY PUSH1 0x1F RETURNDATASIZE SWAP1 DUP2 ADD PUSH1 0x1F NOT AND DUP3 ADD PUSH1 0x40 MSTORE PUSH2 0x103E SWAP2 SWAP1 DUP2 ADD SWAP1 PUSH2 0x23CF JUMP JUMPDEST PUSH1 0x40 MLOAD PUSH4 0x20604BF PUSH1 0xE2 SHL DUP2 MSTORE SWAP1 SWAP2 POP ADDRESS SWAP1 PUSH1 0x1 PUSH1 0x1 PUSH1 0xA0 SHL SUB DUP5 AND SWAP1 PUSH4 0x81812FC SWAP1 PUSH2 0x106F SWAP1 DUP8 SWAP1 PUSH1 0x4 ADD PUSH2 0x2ACF JUMP JUMPDEST PUSH1 0x20 PUSH1 0x40 MLOAD DUP1 DUP4 SUB DUP2 PUSH1 0x0 DUP8 DUP1 EXTCODESIZE ISZERO DUP1 ISZERO PUSH2 0x1089 JUMPI PUSH1 0x0 DUP1 REVERT JUMPDEST POP GAS CALL ISZERO DUP1 ISZERO PUSH2 0x109D JUMPI RETURNDATASIZE PUSH1 0x0 DUP1 RETURNDATACOPY RETURNDATASIZE PUSH1 0x0 REVERT JUMPDEST POP POP POP POP PUSH1 0x40 MLOAD RETURNDATASIZE PUSH1 0x1F NOT PUSH1 0x1F DUP3 ADD AND DUP3 ADD DUP1 PUSH1 0x40 MSTORE POP PUSH2 0x10C1 SWAP2 SWAP1 DUP2 ADD SWAP1 PUSH2 0x2185 JUMP JUMPDEST PUSH1 0x1 PUSH1 0x1 PUSH1 0xA0 SHL SUB AND EQ PUSH2 0x10E7 JUMPI PUSH1 0x40 MLOAD PUSH3 0x461BCD PUSH1 0xE5 SHL DUP2 MSTORE PUSH1 0x4 ADD PUSH2 0x6B4 SWAP1 PUSH2 0x2A9F JUMP JUMPDEST PUSH1 0x40 MLOAD PUSH4 0x852CD8D PUSH1 0xE3 SHL DUP2 MSTORE PUSH1 0x1 PUSH1 0x1 PUSH1 0xA0 SHL SUB DUP4 AND SWAP1 PUSH4 0x42966C68 SWAP1 PUSH2 0x1113 SWAP1 DUP7 SWAP1 PUSH1 0x4 ADD PUSH2 0x2ACF JUMP JUMPDEST PUSH1 0x0 PUSH1 0x40 MLOAD DUP1 DUP4 SUB DUP2 PUSH1 0x0 DUP8 DUP1 EXTCODESIZE ISZERO DUP1 ISZERO PUSH2 0x112D JUMPI PUSH1 0x0 DUP1 REVERT JUMPDEST POP GAS CALL ISZERO DUP1 ISZERO PUSH2 0x1141 JUMPI RETURNDATASIZE PUSH1 0x0 DUP1 RETURNDATACOPY RETURNDATASIZE PUSH1 0x0 REVERT JUMPDEST POP POP POP POP CALLER PUSH1 0x1 PUSH1 0x1 PUSH1 0xA0 SHL SUB AND DUP4 DUP6 PUSH1 0x1 PUSH1 0x1 PUSH1 0xA0 SHL SUB AND PUSH32 0x926B248E45DFDD4C4CAEC216E73EC503CE2522D3B5646C861D1B074210675D0E TIMESTAMP DUP6 PUSH1 0x40 MLOAD PUSH2 0x859 SWAP3 SWAP2 SWAP1 PUSH2 0x2BD6 JUMP JUMPDEST PUSH2 0x1194 CALLER PUSH2 0x1E51 JUMP JUMPDEST DUP1 PUSH2 0x11A2 JUMPI POP PUSH2 0x11A2 PUSH2 0x1950 JUMP JUMPDEST PUSH2 0x11BE JUMPI PUSH1 0x40 MLOAD PUSH3 0x461BCD PUSH1 0xE5 SHL DUP2 MSTORE PUSH1 0x4 ADD PUSH2 0x6B4 SWAP1 PUSH2 0x2A8F JUMP JUMPDEST PUSH1 0x40 MLOAD DUP3 SWAP1 PUSH2 0x11CF SWAP1 PUSH1 0x4 SWAP1 PUSH2 0x292B JUMP JUMPDEST PUSH1 0x40 MLOAD DUP1 SWAP2 SUB SWAP1 KECCAK256 DUP4 PUSH1 0x1 PUSH1 0x1 PUSH1 0xA0 SHL SUB AND CALLER PUSH1 0x1 PUSH1 0x1 PUSH1 0xA0 SHL SUB AND PUSH1 0x0 DUP1 MLOAD PUSH1 0x20 PUSH2 0x2D91 DUP4 CODECOPY DUP2 MLOAD SWAP2 MSTORE DUP7 DUP7 PUSH1 0x40 MLOAD PUSH2 0x120A SWAP3 SWAP2 SWAP1 PUSH2 0x29FC JUMP JUMPDEST PUSH1 0x40 MLOAD DUP1 SWAP2 SUB SWAP1 LOG4 PUSH1 0x40 MLOAD PUSH4 0x852CD8D PUSH1 0xE3 SHL DUP2 MSTORE PUSH1 0x1 PUSH1 0x1 PUSH1 0xA0 SHL SUB DUP3 AND SWAP1 PUSH4 0x42966C68 SWAP1 PUSH2 0x123E SWAP1 DUP6 SWAP1 PUSH1 0x4 ADD PUSH2 0x2ACF JUMP JUMPDEST PUSH1 0x0 PUSH1 0x40 MLOAD DUP1 DUP4 SUB DUP2 PUSH1 0x0 DUP8 DUP1 EXTCODESIZE ISZERO DUP1 ISZERO PUSH2 0x1258 JUMPI PUSH1 0x0 DUP1 REVERT JUMPDEST POP GAS CALL ISZERO DUP1 ISZERO PUSH2 0x126C JUMPI RETURNDATASIZE PUSH1 0x0 DUP1 RETURNDATACOPY RETURNDATASIZE PUSH1 0x0 REVERT JUMPDEST POP POP POP POP POP POP POP JUMP JUMPDEST PUSH2 0x127E CALLER PUSH2 0x1E51 JUMP JUMPDEST DUP1 PUSH2 0x128C JUMPI POP PUSH2 0x128C PUSH2 0x1950 JUMP JUMPDEST PUSH2 0x12A8 JUMPI PUSH1 0x40 MLOAD PUSH3 0x461BCD PUSH1 0xE5 SHL DUP2 MSTORE PUSH1 0x4 ADD PUSH2 0x6B4 SWAP1 PUSH2 0x2A8F JUMP JUMPDEST PUSH1 0x40 MLOAD DUP6 SWAP1 PUSH2 0x12B9 SWAP1 PUSH1 0x6 SWAP1 PUSH2 0x292B JUMP JUMPDEST PUSH1 0x40 MLOAD DUP1 SWAP2 SUB SWAP1 KECCAK256 DUP7 PUSH1 0x1 PUSH1 0x1 PUSH1 0xA0 SHL SUB AND CALLER PUSH1 0x1 PUSH1 0x1 PUSH1 0xA0 SHL SUB AND PUSH1 0x0 DUP1 MLOAD PUSH1 0x20 PUSH2 0x2D91 DUP4 CODECOPY DUP2 MLOAD SWAP2 MSTORE DUP10 DUP8 PUSH1 0x40 MLOAD PUSH2 0x12F4 SWAP3 SWAP2 SWAP1 PUSH2 0x29FC JUMP JUMPDEST PUSH1 0x40 MLOAD DUP1 SWAP2 SUB SWAP1 LOG4 PUSH1 0x40 MLOAD PUSH4 0x5C46A7EF PUSH1 0xE1 SHL DUP2 MSTORE PUSH1 0x1 PUSH1 0x1 PUSH1 0xA0 SHL SUB DUP3 AND SWAP1 PUSH4 0xB88D4FDE SWAP1 PUSH2 0x132E SWAP1 DUP9 SWAP1 DUP9 SWAP1 DUP9 SWAP1 DUP9 SWAP1 PUSH1 0x4 ADD PUSH2 0x299D JUMP JUMPDEST PUSH1 0x0 PUSH1 0x40 MLOAD DUP1 DUP4 SUB DUP2 PUSH1 0x0 DUP8 DUP1 EXTCODESIZE ISZERO DUP1 ISZERO PUSH2 0x1348 JUMPI PUSH1 0x0 DUP1 REVERT JUMPDEST POP GAS CALL ISZERO DUP1 ISZERO PUSH2 0x135C JUMPI RETURNDATASIZE PUSH1 0x0 DUP1 RETURNDATACOPY RETURNDATASIZE PUSH1 0x0 REVERT JUMPDEST POP POP POP POP POP POP POP POP POP POP JUMP JUMPDEST PUSH2 0x1371 CALLER PUSH2 0x1E51 JUMP JUMPDEST DUP1 PUSH2 0x137F JUMPI POP PUSH2 0x137F PUSH2 0x1950 JUMP JUMPDEST PUSH2 0x139B JUMPI PUSH1 0x40 MLOAD PUSH3 0x461BCD PUSH1 0xE5 SHL DUP2 MSTORE PUSH1 0x4 ADD PUSH2 0x6B4 SWAP1 PUSH2 0x2A8F JUMP JUMPDEST PUSH1 0x40 MLOAD DUP5 SWAP1 PUSH2 0x13AC SWAP1 PUSH1 0x6 SWAP1 PUSH2 0x292B JUMP JUMPDEST PUSH1 0x40 MLOAD DUP1 SWAP2 SUB SWAP1 KECCAK256 DUP6 PUSH1 0x1 PUSH1 0x1 PUSH1 0xA0 SHL SUB AND CALLER PUSH1 0x1 PUSH1 0x1 PUSH1 0xA0 SHL SUB AND PUSH1 0x0 DUP1 MLOAD PUSH1 0x20 PUSH2 0x2D91 DUP4 CODECOPY DUP2 MLOAD SWAP2 MSTORE DUP9 DUP7 PUSH1 0x40 MLOAD PUSH2 0x13E7 SWAP3 SWAP2 SWAP1 PUSH2 0x29FC JUMP JUMPDEST PUSH1 0x40 MLOAD DUP1 SWAP2 SUB SWAP1 LOG4 PUSH1 0x40 MLOAD PUSH4 0x21421707 PUSH1 0xE1 SHL DUP2 MSTORE PUSH1 0x1 PUSH1 0x1 PUSH1 0xA0 SHL SUB DUP3 AND SWAP1 PUSH4 0x42842E0E SWAP1 PUSH2 0x141F SWAP1 DUP8 SWAP1 DUP8 SWAP1 DUP8 SWAP1 PUSH1 0x4 ADD PUSH2 0x2975 JUMP JUMPDEST PUSH1 0x0 PUSH1 0x40 MLOAD DUP1 DUP4 SUB DUP2 PUSH1 0x0 DUP8 DUP1 EXTCODESIZE ISZERO DUP1 ISZERO PUSH2 0x1439 JUMPI PUSH1 0x0 DUP1 REVERT JUMPDEST POP GAS CALL ISZERO DUP1 ISZERO PUSH2 0x144D JUMPI RETURNDATASIZE PUSH1 0x0 DUP1 RETURNDATACOPY RETURNDATASIZE PUSH1 0x0 REVERT JUMPDEST POP POP POP POP POP JUMPDEST POP POP POP POP JUMP JUMPDEST PUSH2 0x1462 CALLER PUSH2 0x1E51 JUMP JUMPDEST DUP1 PUSH2 0x1470 JUMPI POP PUSH2 0x1470 PUSH2 0x1950 JUMP JUMPDEST PUSH2 0x148C JUMPI PUSH1 0x40 MLOAD PUSH3 0x461BCD PUSH1 0xE5 SHL DUP2 MSTORE PUSH1 0x4 ADD PUSH2 0x6B4 SWAP1 PUSH2 0x2A8F JUMP JUMPDEST PUSH1 0x1C SLOAD PUSH1 0x40 MLOAD PUSH4 0x2D543405 PUSH1 0xE1 SHL DUP2 MSTORE PUSH1 0x1 PUSH1 0x1 PUSH1 0xA0 SHL SUB SWAP1 SWAP2 AND SWAP1 PUSH4 0x5AA8680A SWAP1 PUSH2 0x14C2 SWAP1 DUP8 SWAP1 DUP8 SWAP1 DUP8 SWAP1 DUP8 SWAP1 PUSH1 0x4 ADD PUSH2 0x2AF8 JUMP JUMPDEST PUSH1 0x0 PUSH1 0x40 MLOAD DUP1 DUP4 SUB DUP2 PUSH1 0x0 DUP8 DUP1 EXTCODESIZE ISZERO DUP1 ISZERO PUSH2 0x14DC JUMPI PUSH1 0x0 DUP1 REVERT JUMPDEST POP GAS CALL ISZERO DUP1 ISZERO PUSH2 0x14F0 JUMPI RETURNDATASIZE PUSH1 0x0 DUP1 RETURNDATACOPY RETURNDATASIZE PUSH1 0x0 REVERT JUMPDEST POP POP PUSH1 0x40 MLOAD PUSH2 0xDF2 SWAP3 POP PUSH1 0xF SWAP2 POP PUSH2 0x292B JUMP JUMPDEST PUSH2 0x150C CALLER PUSH2 0x1E51 JUMP JUMPDEST DUP1 PUSH2 0x151A JUMPI POP PUSH2 0x151A PUSH2 0x1950 JUMP JUMPDEST PUSH2 0x1536 JUMPI PUSH1 0x40 MLOAD PUSH3 0x461BCD PUSH1 0xE5 SHL DUP2 MSTORE PUSH1 0x4 ADD PUSH2 0x6B4 SWAP1 PUSH2 0x2A8F JUMP JUMPDEST PUSH1 0x1C SLOAD PUSH1 0x40 MLOAD PUSH4 0x640CF873 PUSH1 0xE0 SHL DUP2 MSTORE PUSH1 0x1 PUSH1 0x1 PUSH1 0xA0 SHL SUB SWAP1 SWAP2 AND SWAP1 PUSH4 0x640CF873 SWAP1 PUSH2 0x1574 SWAP1 DUP12 SWAP1 DUP12 SWAP1 DUP12 SWAP1 DUP12 SWAP1 DUP12 SWAP1 DUP12 SWAP1 DUP12 SWAP1 DUP12 SWAP1 PUSH1 0x4 ADD PUSH2 0x2BF6 JUMP JUMPDEST PUSH1 0x0 PUSH1 0x40 MLOAD DUP1 DUP4 SUB DUP2 PUSH1 0x0 DUP8 DUP1 EXTCODESIZE ISZERO DUP1 ISZERO PUSH2 0x158E JUMPI PUSH1 0x0 DUP1 REVERT JUMPDEST POP GAS CALL ISZERO DUP1 ISZERO PUSH2 0x15A2 JUMPI RETURNDATASIZE PUSH1 0x0 DUP1 RETURNDATACOPY RETURNDATASIZE PUSH1 0x0 REVERT JUMPDEST POP POP PUSH1 0x40 MLOAD PUSH2 0x15B5 SWAP3 POP PUSH1 0x8 SWAP2 POP PUSH2 0x292B JUMP JUMPDEST PUSH1 0x40 MLOAD SWAP1 DUP2 SWAP1 SUB DUP2 KECCAK256 PUSH1 0x1C SLOAD SWAP1 SWAP2 PUSH1 0x1 PUSH1 0x1 PUSH1 0xA0 SHL SUB SWAP1 SWAP2 AND SWAP1 CALLER SWAP1 PUSH1 0x0 DUP1 MLOAD PUSH1 0x20 PUSH2 0x2D91 DUP4 CODECOPY DUP2 MLOAD SWAP2 MSTORE SWAP1 PUSH2 0x15EE SWAP1 DUP8 SWAP1 DUP15 SWAP1 PUSH2 0x29FC JUMP JUMPDEST PUSH1 0x40 MLOAD DUP1 SWAP2 SUB SWAP1 LOG4 POP POP POP POP POP POP POP POP JUMP JUMPDEST PUSH2 0x1608 PUSH2 0x1950 JUMP JUMPDEST PUSH2 0x1624 JUMPI PUSH1 0x40 MLOAD PUSH3 0x461BCD PUSH1 0xE5 SHL DUP2 MSTORE PUSH1 0x4 ADD PUSH2 0x6B4 SWAP1 PUSH2 0x2AAF JUMP JUMPDEST PUSH2 0x162D DUP2 PUSH2 0x1E51 JUMP JUMPDEST PUSH2 0x1680 JUMPI PUSH1 0x1 DUP1 SLOAD DUP1 DUP3 ADD DUP3 SSTORE PUSH1 0x0 SWAP2 SWAP1 SWAP2 MSTORE PUSH32 0xB10E2D527612073B26EECDFD717E6A320CF44B4AFAC2B0732D9FCBE2B7FA0CF6 ADD DUP1 SLOAD PUSH1 0x1 PUSH1 0x1 PUSH1 0xA0 SHL SUB NOT AND PUSH1 0x1 PUSH1 0x1 PUSH1 0xA0 SHL SUB DUP4 AND OR SWAP1 SSTORE PUSH2 0x1698 JUMP JUMPDEST PUSH1 0x40 MLOAD PUSH3 0x461BCD PUSH1 0xE5 SHL DUP2 MSTORE PUSH1 0x4 ADD PUSH2 0x6B4 SWAP1 PUSH2 0x2ABF JUMP JUMPDEST PUSH32 0x723C2B747529CA7F5EB53A74808F4A8B9BF264F0FC450FD904900151DA74548A DUP2 TIMESTAMP PUSH1 0x40 MLOAD PUSH2 0x9D3 SWAP3 SWAP2 SWAP1 PUSH2 0x29FC JUMP JUMPDEST PUSH2 0x16D1 PUSH2 0x1950 JUMP JUMPDEST PUSH2 0x16ED JUMPI PUSH1 0x40 MLOAD PUSH3 0x461BCD PUSH1 0xE5 SHL DUP2 MSTORE PUSH1 0x4 ADD PUSH2 0x6B4 SWAP1 PUSH2 0x2AAF JUMP JUMPDEST PUSH1 0x0 DUP1 SLOAD PUSH1 0x40 MLOAD PUSH1 0x1 PUSH1 0x1 PUSH1 0xA0 SHL SUB SWAP1 SWAP2 AND SWAP1 PUSH32 0x8BE0079C531659141344CD1FD0A4F28419497F9722A3DAAFE3B4186F6B6457E0 SWAP1 DUP4 SWAP1 LOG3 PUSH1 0x0 DUP1 SLOAD PUSH1 0x1 PUSH1 0x1 PUSH1 0xA0 SHL SUB NOT AND SWAP1 SSTORE JUMP JUMPDEST PUSH2 0x1740 CALLER PUSH2 0x1E51 JUMP JUMPDEST DUP1 PUSH2 0x174E JUMPI POP PUSH2 0x174E PUSH2 0x1950 JUMP JUMPDEST PUSH2 0x176A JUMPI PUSH1 0x40 MLOAD PUSH3 0x461BCD PUSH1 0xE5 SHL DUP2 MSTORE PUSH1 0x4 ADD PUSH2 0x6B4 SWAP1 PUSH2 0x2A8F JUMP JUMPDEST PUSH1 0x1C SLOAD PUSH1 0x40 MLOAD PUSH4 0x7AD157B9 PUSH1 0xE0 SHL DUP2 MSTORE PUSH1 0x1 PUSH1 0x1 PUSH1 0xA0 SHL SUB SWAP1 SWAP2 AND SWAP1 PUSH4 0x7AD157B9 SWAP1 CALLVALUE SWAP1 PUSH2 0x17A0 SWAP1 DUP8 SWAP1 DUP8 SWAP1 DUP8 SWAP1 PUSH1 0x4 ADD PUSH2 0x2B6B JUMP JUMPDEST PUSH1 0x0 PUSH1 0x40 MLOAD DUP1 DUP4 SUB DUP2 DUP6 DUP9 DUP1 EXTCODESIZE ISZERO DUP1 ISZERO PUSH2 0x17B9 JUMPI PUSH1 0x0 DUP1 REVERT JUMPDEST POP GAS CALL ISZERO DUP1 ISZERO PUSH2 0x17CD JUMPI RETURNDATASIZE PUSH1 0x0 DUP1 RETURNDATACOPY RETURNDATASIZE PUSH1 0x0 REVERT JUMPDEST POP POP PUSH1 0x40 MLOAD PUSH2 0xB71 SWAP4 POP PUSH1 0x9 SWAP3 POP SWAP1 POP PUSH2 0x292B JUMP JUMPDEST PUSH2 0x17EB CALLER PUSH2 0x1E51 JUMP JUMPDEST DUP1 PUSH2 0x17F9 JUMPI POP PUSH2 0x17F9 PUSH2 0x1950 JUMP JUMPDEST PUSH2 0x1815 JUMPI PUSH1 0x40 MLOAD PUSH3 0x461BCD PUSH1 0xE5 SHL DUP2 MSTORE PUSH1 0x4 ADD PUSH2 0x6B4 SWAP1 PUSH2 0x2A8F JUMP JUMPDEST PUSH1 0x40 MLOAD DUP5 SWAP1 PUSH2 0x1826 SWAP1 PUSH1 0x7 SWAP1 PUSH2 0x292B JUMP JUMPDEST PUSH1 0x40 MLOAD DUP1 SWAP2 SUB SWAP1 KECCAK256 DUP6 PUSH1 0x1 PUSH1 0x1 PUSH1 0xA0 SHL SUB AND CALLER PUSH1 0x1 PUSH1 0x1 PUSH1 0xA0 SHL SUB AND PUSH1 0x0 DUP1 MLOAD PUSH1 0x20 PUSH2 0x2D91 DUP4 CODECOPY DUP2 MLOAD SWAP2 MSTORE DUP9 DUP7 PUSH1 0x40 MLOAD PUSH2 0x1861 SWAP3 SWAP2 SWAP1 PUSH2 0x29FC JUMP JUMPDEST PUSH1 0x40 MLOAD DUP1 SWAP2 SUB SWAP1 LOG4 PUSH1 0x40 MLOAD PUSH4 0x23B872DD PUSH1 0xE0 SHL DUP2 MSTORE PUSH1 0x1 PUSH1 0x1 PUSH1 0xA0 SHL SUB DUP3 AND SWAP1 PUSH4 0x23B872DD SWAP1 PUSH2 0x141F SWAP1 DUP8 SWAP1 DUP8 SWAP1 DUP8 SWAP1 PUSH1 0x4 ADD PUSH2 0x2975 JUMP JUMPDEST PUSH2 0x18A2 CALLER PUSH2 0x1E51 JUMP JUMPDEST DUP1 PUSH2 0x18B0 JUMPI POP PUSH2 0x18B0 PUSH2 0x1950 JUMP JUMPDEST PUSH2 0x18CC JUMPI PUSH1 0x40 MLOAD PUSH3 0x461BCD PUSH1 0xE5 SHL DUP2 MSTORE PUSH1 0x4 ADD PUSH2 0x6B4 SWAP1 PUSH2 0x2A8F JUMP JUMPDEST PUSH1 0x1C SLOAD PUSH1 0x40 MLOAD PUSH4 0x8C6AB013 PUSH1 0xE0 SHL DUP2 MSTORE PUSH1 0x1 PUSH1 0x1 PUSH1 0xA0 SHL SUB SWAP1 SWAP2 AND SWAP1 PUSH4 0x8C6AB013 SWAP1 PUSH2 0x1900 SWAP1 DUP7 SWAP1 DUP7 SWAP1 DUP7 SWAP1 PUSH1 0x4 ADD PUSH2 0x2B6B JUMP JUMPDEST PUSH1 0x0 PUSH1 0x40 MLOAD DUP1 DUP4 SUB DUP2 PUSH1 0x0 DUP8 DUP1 EXTCODESIZE ISZERO DUP1 ISZERO PUSH2 0x191A JUMPI PUSH1 0x0 DUP1 REVERT JUMPDEST POP GAS CALL ISZERO DUP1 ISZERO PUSH2 0x192E JUMPI RETURNDATASIZE PUSH1 0x0 DUP1 RETURNDATACOPY RETURNDATASIZE PUSH1 0x0 REVERT JUMPDEST POP POP PUSH1 0x40 MLOAD PUSH2 0xB71 SWAP3 POP PUSH1 0xB SWAP2 POP PUSH2 0x292B JUMP JUMPDEST PUSH1 0x0 SLOAD PUSH1 0x1 PUSH1 0x1 PUSH1 0xA0 SHL SUB AND SWAP1 JUMP JUMPDEST PUSH1 0x0 DUP1 SLOAD PUSH1 0x1 PUSH1 0x1 PUSH1 0xA0 SHL SUB AND PUSH2 0x1965 PUSH2 0x200B JUMP JUMPDEST PUSH1 0x1 PUSH1 0x1 PUSH1 0xA0 SHL SUB AND EQ SWAP1 POP SWAP1 JUMP JUMPDEST PUSH2 0x197D CALLER PUSH2 0x1E51 JUMP JUMPDEST DUP1 PUSH2 0x198B JUMPI POP PUSH2 0x198B PUSH2 0x1950 JUMP JUMPDEST PUSH2 0x19A7 JUMPI PUSH1 0x40 MLOAD PUSH3 0x461BCD PUSH1 0xE5 SHL DUP2 MSTORE PUSH1 0x4 ADD PUSH2 0x6B4 SWAP1 PUSH2 0x2A8F JUMP JUMPDEST PUSH1 0x40 MLOAD PUSH4 0x39509351 PUSH1 0xE0 SHL DUP2 MSTORE DUP4 SWAP1 PUSH1 0x1 PUSH1 0x1 PUSH1 0xA0 SHL SUB DUP3 AND SWAP1 PUSH4 0x39509351 SWAP1 PUSH2 0x19D7 SWAP1 DUP7 SWAP1 DUP7 SWAP1 PUSH1 0x4 ADD PUSH2 0x29FC JUMP JUMPDEST PUSH1 0x0 PUSH1 0x40 MLOAD DUP1 DUP4 SUB DUP2 PUSH1 0x0 DUP8 DUP1 EXTCODESIZE ISZERO DUP1 ISZERO PUSH2 0x19F1 JUMPI PUSH1 0x0 DUP1 REVERT JUMPDEST POP GAS CALL ISZERO DUP1 ISZERO PUSH2 0x1A05 JUMPI RETURNDATASIZE PUSH1 0x0 DUP1 RETURNDATACOPY RETURNDATASIZE PUSH1 0x0 REVERT JUMPDEST POP POP PUSH1 0x40 MLOAD PUSH2 0x81E SWAP3 POP PUSH1 0x17 SWAP2 POP PUSH2 0x292B JUMP JUMPDEST PUSH2 0x1A21 CALLER PUSH2 0x1E51 JUMP JUMPDEST DUP1 PUSH2 0x1A2F JUMPI POP PUSH2 0x1A2F PUSH2 0x1950 JUMP JUMPDEST PUSH2 0x1A4B JUMPI PUSH1 0x40 MLOAD PUSH3 0x461BCD PUSH1 0xE5 SHL DUP2 MSTORE PUSH1 0x4 ADD PUSH2 0x6B4 SWAP1 PUSH2 0x2A8F JUMP JUMPDEST PUSH1 0x40 MLOAD PUSH4 0x95EA7B3 PUSH1 0xE0 SHL DUP2 MSTORE DUP4 SWAP1 PUSH1 0x1 PUSH1 0x1 PUSH1 0xA0 SHL SUB DUP3 AND SWAP1 PUSH4 0x95EA7B3 SWAP1 PUSH2 0x1A7B SWAP1 DUP7 SWAP1 DUP7 SWAP1 PUSH1 0x4 ADD PUSH2 0x29FC JUMP JUMPDEST PUSH1 0x0 PUSH1 0x40 MLOAD DUP1 DUP4 SUB DUP2 PUSH1 0x0 DUP8 DUP1 EXTCODESIZE ISZERO DUP1 ISZERO PUSH2 0x1A95 JUMPI PUSH1 0x0 DUP1 REVERT JUMPDEST POP GAS CALL ISZERO DUP1 ISZERO PUSH2 0x1AA9 JUMPI RETURNDATASIZE PUSH1 0x0 DUP1 RETURNDATACOPY RETURNDATASIZE PUSH1 0x0 REVERT JUMPDEST POP POP PUSH1 0x40 MLOAD PUSH2 0x81E SWAP3 POP PUSH1 0x12 SWAP2 POP PUSH2 0x292B JUMP JUMPDEST PUSH2 0x1AC5 CALLER PUSH2 0x1E51 JUMP JUMPDEST DUP1 PUSH2 0x1AD3 JUMPI POP PUSH2 0x1AD3 PUSH2 0x1950 JUMP JUMPDEST PUSH2 0x1AEF JUMPI PUSH1 0x40 MLOAD PUSH3 0x461BCD PUSH1 0xE5 SHL DUP2 MSTORE PUSH1 0x4 ADD PUSH2 0x6B4 SWAP1 PUSH2 0x2A8F JUMP JUMPDEST PUSH1 0x40 MLOAD DUP4 SWAP1 PUSH2 0x1B00 SWAP1 PUSH1 0x3 SWAP1 PUSH2 0x292B JUMP JUMPDEST PUSH1 0x40 MLOAD DUP1 SWAP2 SUB SWAP1 KECCAK256 DUP5 PUSH1 0x1 PUSH1 0x1 PUSH1 0xA0 SHL SUB AND CALLER PUSH1 0x1 PUSH1 0x1 PUSH1 0xA0 SHL SUB AND PUSH1 0x0 DUP1 MLOAD PUSH1 0x20 PUSH2 0x2D91 DUP4 CODECOPY DUP2 MLOAD SWAP2 MSTORE DUP8 DUP7 PUSH1 0x40 MLOAD PUSH2 0x1B3B SWAP3 SWAP2 SWAP1 PUSH2 0x29FC JUMP JUMPDEST PUSH1 0x40 MLOAD DUP1 SWAP2 SUB SWAP1 LOG4 PUSH1 0x40 MLOAD PUSH4 0xA9059CBB PUSH1 0xE0 SHL DUP2 MSTORE PUSH1 0x1 PUSH1 0x1 PUSH1 0xA0 SHL SUB DUP3 AND SWAP1 PUSH4 0xA9059CBB SWAP1 PUSH2 0xC6C SWAP1 DUP7 SWAP1 DUP7 SWAP1 PUSH1 0x4 ADD PUSH2 0x29FC JUMP JUMPDEST PUSH2 0x1B7A CALLER PUSH2 0x1E51 JUMP JUMPDEST DUP1 PUSH2 0x1B88 JUMPI POP PUSH2 0x1B88 PUSH2 0x1950 JUMP JUMPDEST PUSH2 0x1BA4 JUMPI PUSH1 0x40 MLOAD PUSH3 0x461BCD PUSH1 0xE5 SHL DUP2 MSTORE PUSH1 0x4 ADD PUSH2 0x6B4 SWAP1 PUSH2 0x2A8F JUMP JUMPDEST PUSH1 0x1C SLOAD PUSH1 0x40 MLOAD PUSH4 0xC0F4ED31 PUSH1 0xE0 SHL DUP2 MSTORE PUSH1 0x1 PUSH1 0x1 PUSH1 0xA0 SHL SUB SWAP1 SWAP2 AND SWAP1 PUSH4 0xC0F4ED31 SWAP1 CALLVALUE SWAP1 PUSH2 0x1BDA SWAP1 DUP8 SWAP1 DUP8 SWAP1 DUP8 SWAP1 PUSH1 0x4 ADD PUSH2 0x2B93 JUMP JUMPDEST PUSH1 0x0 PUSH1 0x40 MLOAD DUP1 DUP4 SUB DUP2 DUP6 DUP9 DUP1 EXTCODESIZE ISZERO DUP1 ISZERO PUSH2 0x1BF3 JUMPI PUSH1 0x0 DUP1 REVERT JUMPDEST POP GAS CALL ISZERO DUP1 ISZERO PUSH2 0x1C07 JUMPI RETURNDATASIZE PUSH1 0x0 DUP1 RETURNDATACOPY RETURNDATASIZE PUSH1 0x0 REVERT JUMPDEST POP POP PUSH1 0x40 MLOAD PUSH2 0xB71 SWAP4 POP PUSH1 0xA SWAP3 POP SWAP1 POP PUSH2 0x292B JUMP JUMPDEST PUSH2 0x1C25 CALLER PUSH2 0x1E51 JUMP JUMPDEST DUP1 PUSH2 0x1C33 JUMPI POP PUSH2 0x1C33 PUSH2 0x1950 JUMP JUMPDEST PUSH2 0x1C4F JUMPI PUSH1 0x40 MLOAD PUSH3 0x461BCD PUSH1 0xE5 SHL DUP2 MSTORE PUSH1 0x4 ADD PUSH2 0x6B4 SWAP1 PUSH2 0x2A8F JUMP JUMPDEST PUSH1 0x40 MLOAD PUSH4 0x66188463 PUSH1 0xE0 SHL DUP2 MSTORE DUP4 SWAP1 PUSH1 0x1 PUSH1 0x1 PUSH1 0xA0 SHL SUB DUP3 AND SWAP1 PUSH4 0x66188463 SWAP1 PUSH2 0x7DD SWAP1 DUP7 SWAP1 DUP7 SWAP1 PUSH1 0x4 ADD PUSH2 0x29FC JUMP JUMPDEST PUSH2 0x1C88 CALLER PUSH2 0x1E51 JUMP JUMPDEST DUP1 PUSH2 0x1C96 JUMPI POP PUSH2 0x1C96 PUSH2 0x1950 JUMP JUMPDEST PUSH2 0x1CB2 JUMPI PUSH1 0x40 MLOAD PUSH3 0x461BCD PUSH1 0xE5 SHL DUP2 MSTORE PUSH1 0x4 ADD PUSH2 0x6B4 SWAP1 PUSH2 0x2A8F JUMP JUMPDEST PUSH1 0x1C SLOAD PUSH1 0x40 MLOAD PUSH4 0xFC8303D PUSH1 0xE1 SHL DUP2 MSTORE PUSH1 0x1 PUSH1 0x1 PUSH1 0xA0 SHL SUB SWAP1 SWAP2 AND SWAP1 PUSH4 0x1F90607A SWAP1 PUSH2 0x1CE4 SWAP1 DUP5 SWAP1 DUP7 SWAP1 PUSH1 0x4 ADD PUSH2 0x29FC JUMP JUMPDEST PUSH1 0x0 PUSH1 0x40 MLOAD DUP1 DUP4 SUB DUP2 PUSH1 0x0 DUP8 DUP1 EXTCODESIZE ISZERO DUP1 ISZERO PUSH2 0x1CFE JUMPI PUSH1 0x0 DUP1 REVERT JUMPDEST POP GAS CALL ISZERO DUP1 ISZERO PUSH2 0x1D12 JUMPI RETURNDATASIZE PUSH1 0x0 DUP1 RETURNDATACOPY RETURNDATASIZE PUSH1 0x0 REVERT JUMPDEST POP POP PUSH1 0x40 MLOAD PUSH2 0xA84 SWAP3 POP PUSH1 0x11 SWAP2 POP PUSH2 0x292B JUMP JUMPDEST PUSH2 0x1D2D PUSH2 0x1950 JUMP JUMPDEST PUSH2 0x1D49 JUMPI PUSH1 0x40 MLOAD PUSH3 0x461BCD PUSH1 0xE5 SHL DUP2 MSTORE PUSH1 0x4 ADD PUSH2 0x6B4 SWAP1 PUSH2 0x2AAF JUMP JUMPDEST PUSH2 0xF81 DUP2 PUSH2 0x200F JUMP JUMPDEST PUSH2 0x1D5A PUSH2 0x1950 JUMP JUMPDEST PUSH2 0x1D76 JUMPI PUSH1 0x40 MLOAD PUSH3 0x461BCD PUSH1 0xE5 SHL DUP2 MSTORE PUSH1 0x4 ADD PUSH2 0x6B4 SWAP1 PUSH2 0x2AAF JUMP JUMPDEST PUSH1 0x40 MLOAD PUSH4 0x70A08231 PUSH1 0xE0 SHL DUP2 MSTORE DUP2 SWAP1 PUSH1 0x1 PUSH1 0x1 PUSH1 0xA0 SHL SUB DUP3 AND SWAP1 PUSH4 0xA9059CBB SWAP1 CALLER SWAP1 DUP4 SWAP1 PUSH4 0x70A08231 SWAP1 PUSH2 0x1DAE SWAP1 ADDRESS SWAP1 PUSH1 0x4 ADD PUSH2 0x294C JUMP JUMPDEST PUSH1 0x20 PUSH1 0x40 MLOAD DUP1 DUP4 SUB DUP2 DUP7 DUP1 EXTCODESIZE ISZERO DUP1 ISZERO PUSH2 0x1DC6 JUMPI PUSH1 0x0 DUP1 REVERT JUMPDEST POP GAS STATICCALL ISZERO DUP1 ISZERO PUSH2 0x1DDA JUMPI RETURNDATASIZE PUSH1 0x0 DUP1 RETURNDATACOPY RETURNDATASIZE PUSH1 0x0 REVERT JUMPDEST POP POP POP POP PUSH1 0x40 MLOAD RETURNDATASIZE PUSH1 0x1F NOT PUSH1 0x1F DUP3 ADD AND DUP3 ADD DUP1 PUSH1 0x40 MSTORE POP PUSH2 0x1DFE SWAP2 SWAP1 DUP2 ADD SWAP1 PUSH2 0x2422 JUMP JUMPDEST PUSH1 0x40 MLOAD DUP4 PUSH4 0xFFFFFFFF AND PUSH1 0xE0 SHL DUP2 MSTORE PUSH1 0x4 ADD PUSH2 0x1E1B SWAP3 SWAP2 SWAP1 PUSH2 0x295A JUMP JUMPDEST PUSH1 0x0 PUSH1 0x40 MLOAD DUP1 DUP4 SUB DUP2 PUSH1 0x0 DUP8 DUP1 EXTCODESIZE ISZERO DUP1 ISZERO PUSH2 0x1E35 JUMPI PUSH1 0x0 DUP1 REVERT JUMPDEST POP GAS CALL ISZERO DUP1 ISZERO PUSH2 0x1E49 JUMPI RETURNDATASIZE PUSH1 0x0 DUP1 RETURNDATACOPY RETURNDATASIZE PUSH1 0x0 REVERT JUMPDEST POP POP POP POP POP POP JUMP JUMPDEST PUSH1 0x0 DUP1 JUMPDEST PUSH1 0x1 SLOAD DUP2 LT ISZERO PUSH2 0x1E9D JUMPI PUSH1 0x1 DUP2 DUP2 SLOAD DUP2 LT PUSH2 0x1E6C JUMPI INVALID JUMPDEST PUSH1 0x0 SWAP2 DUP3 MSTORE PUSH1 0x20 SWAP1 SWAP2 KECCAK256 ADD SLOAD PUSH1 0x1 PUSH1 0x1 PUSH1 0xA0 SHL SUB DUP5 DUP2 AND SWAP2 AND EQ ISZERO PUSH2 0x1E95 JUMPI PUSH1 0x1 SWAP2 POP POP PUSH2 0x1EA3 JUMP JUMPDEST PUSH1 0x1 ADD PUSH2 0x1E55 JUMP JUMPDEST POP PUSH1 0x0 SWAP1 POP JUMPDEST SWAP2 SWAP1 POP JUMP JUMPDEST PUSH2 0x1EB1 CALLER PUSH2 0x1E51 JUMP JUMPDEST DUP1 PUSH2 0x1EBF JUMPI POP PUSH2 0x1EBF PUSH2 0x1950 JUMP JUMPDEST PUSH2 0x1EDB JUMPI PUSH1 0x40 MLOAD PUSH3 0x461BCD PUSH1 0xE5 SHL DUP2 MSTORE PUSH1 0x4 ADD PUSH2 0x6B4 SWAP1 PUSH2 0x2A8F JUMP JUMPDEST PUSH1 0x40 MLOAD DUP4 SWAP1 PUSH2 0x1EEC SWAP1 PUSH1 0x5 SWAP1 PUSH2 0x292B JUMP JUMPDEST PUSH1 0x40 MLOAD DUP1 SWAP2 SUB SWAP1 KECCAK256 DUP5 PUSH1 0x1 PUSH1 0x1 PUSH1 0xA0 SHL SUB AND CALLER PUSH1 0x1 PUSH1 0x1 PUSH1 0xA0 SHL SUB AND PUSH1 0x0 DUP1 MLOAD PUSH1 0x20 PUSH2 0x2D91 DUP4 CODECOPY DUP2 MLOAD SWAP2 MSTORE DUP8 PUSH1 0x0 PUSH1 0x40 MLOAD PUSH2 0x1F28 SWAP3 SWAP2 SWAP1 PUSH2 0x29E1 JUMP JUMPDEST PUSH1 0x40 MLOAD DUP1 SWAP2 SUB SWAP1 LOG4 PUSH1 0x40 MLOAD PUSH4 0x2B580E7 PUSH1 0xE1 SHL DUP2 MSTORE PUSH1 0x1 PUSH1 0x1 PUSH1 0xA0 SHL SUB DUP3 AND SWAP1 PUSH4 0x56B01CE SWAP1 PUSH2 0xC6C SWAP1 DUP7 SWAP1 DUP7 SWAP1 PUSH1 0x4 ADD PUSH2 0x2A5F JUMP JUMPDEST PUSH2 0x1F67 CALLER PUSH2 0x1E51 JUMP JUMPDEST DUP1 PUSH2 0x1F75 JUMPI POP PUSH2 0x1F75 PUSH2 0x1950 JUMP JUMPDEST PUSH2 0x1F91 JUMPI PUSH1 0x40 MLOAD PUSH3 0x461BCD PUSH1 0xE5 SHL DUP2 MSTORE PUSH1 0x4 ADD PUSH2 0x6B4 SWAP1 PUSH2 0x2A8F JUMP JUMPDEST PUSH1 0x1C SLOAD PUSH1 0x40 MLOAD PUSH1 0x1 PUSH3 0x712425 PUSH1 0xE0 SHL SUB NOT DUP2 MSTORE PUSH1 0x1 PUSH1 0x1 PUSH1 0xA0 SHL SUB SWAP1 SWAP2 AND SWAP1 PUSH4 0xFF8EDBDB SWAP1 PUSH2 0x1FCA SWAP1 DUP8 SWAP1 DUP8 SWAP1 DUP8 SWAP1 DUP8 SWAP1 PUSH1 0x4 ADD PUSH2 0x2BA1 JUMP JUMPDEST PUSH1 0x0 PUSH1 0x40 MLOAD DUP1 DUP4 SUB DUP2 PUSH1 0x0 DUP8 DUP1 EXTCODESIZE ISZERO DUP1 ISZERO PUSH2 0x1FE4 JUMPI PUSH1 0x0 DUP1 REVERT JUMPDEST POP GAS CALL ISZERO DUP1 ISZERO PUSH2 0x1FF8 JUMPI RETURNDATASIZE PUSH1 0x0 DUP1 RETURNDATACOPY RETURNDATASIZE PUSH1 0x0 REVERT JUMPDEST POP POP PUSH1 0x40 MLOAD PUSH2 0xDF2 SWAP3 POP PUSH1 0xC SWAP2 POP PUSH2 0x292B JUMP JUMPDEST CALLER SWAP1 JUMP JUMPDEST PUSH1 0x1 PUSH1 0x1 PUSH1 0xA0 SHL SUB DUP2 AND PUSH2 0x2035 JUMPI PUSH1 0x40 MLOAD PUSH3 0x461BCD PUSH1 0xE5 SHL DUP2 MSTORE PUSH1 0x4 ADD PUSH2 0x6B4 SWAP1 PUSH2 0x2A7F JUMP JUMPDEST PUSH1 0x0 DUP1 SLOAD PUSH1 0x40 MLOAD PUSH1 0x1 PUSH1 0x1 PUSH1 0xA0 SHL SUB DUP1 DUP6 AND SWAP4 SWAP3 AND SWAP2 PUSH32 0x8BE0079C531659141344CD1FD0A4F28419497F9722A3DAAFE3B4186F6B6457E0 SWAP2 LOG3 PUSH1 0x0 DUP1 SLOAD PUSH1 0x1 PUSH1 0x1 PUSH1 0xA0 SHL SUB NOT AND PUSH1 0x1 PUSH1 0x1 PUSH1 0xA0 SHL SUB SWAP3 SWAP1 SWAP3 AND SWAP2 SWAP1 SWAP2 OR SWAP1 SSTORE JUMP JUMPDEST DUP1 CALLDATALOAD PUSH2 0x209B DUP2 PUSH2 0x2D6A JUMP JUMPDEST SWAP3 SWAP2 POP POP JUMP JUMPDEST DUP1 MLOAD PUSH2 0x209B DUP2 PUSH2 0x2D6A JUMP JUMPDEST DUP1 CALLDATALOAD PUSH2 0x209B DUP2 PUSH2 0x2D7E JUMP JUMPDEST PUSH1 0x0 DUP3 PUSH1 0x1F DUP4 ADD SLT PUSH2 0x20C8 JUMPI PUSH1 0x0 DUP1 REVERT JUMPDEST DUP2 CALLDATALOAD PUSH2 0x20DB PUSH2 0x20D6 DUP3 PUSH2 0x2C94 JUMP JUMPDEST PUSH2 0x2C6D JUMP JUMPDEST SWAP2 POP DUP1 DUP3 MSTORE PUSH1 0x20 DUP4 ADD PUSH1 0x20 DUP4 ADD DUP6 DUP4 DUP4 ADD GT ISZERO PUSH2 0x20F7 JUMPI PUSH1 0x0 DUP1 REVERT JUMPDEST PUSH2 0x2102 DUP4 DUP3 DUP5 PUSH2 0x2D28 JUMP JUMPDEST POP POP POP SWAP3 SWAP2 POP POP JUMP JUMPDEST PUSH1 0x0 DUP3 PUSH1 0x1F DUP4 ADD SLT PUSH2 0x211C JUMPI PUSH1 0x0 DUP1 REVERT JUMPDEST DUP2 MLOAD PUSH2 0x212A PUSH2 0x20D6 DUP3 PUSH2 0x2C94 JUMP JUMPDEST SWAP2 POP DUP1 DUP3 MSTORE PUSH1 0x20 DUP4 ADD PUSH1 0x20 DUP4 ADD DUP6 DUP4 DUP4 ADD GT ISZERO PUSH2 0x2146 JUMPI PUSH1 0x0 DUP1 REVERT JUMPDEST PUSH2 0x2102 DUP4 DUP3 DUP5 PUSH2 0x2D34 JUMP JUMPDEST DUP1 CALLDATALOAD PUSH2 0x209B DUP2 PUSH2 0x2D87 JUMP JUMPDEST DUP1 MLOAD PUSH2 0x209B DUP2 PUSH2 0x2D87 JUMP JUMPDEST PUSH1 0x0 PUSH1 0x20 DUP3 DUP5 SUB SLT ISZERO PUSH2 0x2179 JUMPI PUSH1 0x0 DUP1 REVERT JUMPDEST PUSH1 0x0 PUSH2 0x897 DUP5 DUP5 PUSH2 0x2090 JUMP JUMPDEST PUSH1 0x0 PUSH1 0x20 DUP3 DUP5 SUB SLT ISZERO PUSH2 0x2197 JUMPI PUSH1 0x0 DUP1 REVERT JUMPDEST PUSH1 0x0 PUSH2 0x897 DUP5 DUP5 PUSH2 0x20A1 JUMP JUMPDEST PUSH1 0x0 DUP1 PUSH1 0x0 DUP1 PUSH1 0x80 DUP6 DUP8 SUB SLT ISZERO PUSH2 0x21B9 JUMPI PUSH1 0x0 DUP1 REVERT JUMPDEST PUSH1 0x0 PUSH2 0x21C5 DUP8 DUP8 PUSH2 0x2090 JUMP JUMPDEST SWAP5 POP POP PUSH1 0x20 PUSH2 0x21D6 DUP8 DUP3 DUP9 ADD PUSH2 0x2090 JUMP JUMPDEST SWAP4 POP POP PUSH1 0x40 PUSH2 0x21E7 DUP8 DUP3 DUP9 ADD PUSH2 0x2090 JUMP JUMPDEST SWAP3 POP POP PUSH1 0x60 PUSH2 0x21F8 DUP8 DUP3 DUP9 ADD PUSH2 0x2151 JUMP JUMPDEST SWAP2 POP POP SWAP3 SWAP6 SWAP2 SWAP5 POP SWAP3 POP JUMP JUMPDEST PUSH1 0x0 DUP1 PUSH1 0x0 DUP1 PUSH1 0x0 PUSH1 0xA0 DUP7 DUP9 SUB SLT ISZERO PUSH2 0x221C JUMPI PUSH1 0x0 DUP1 REVERT JUMPDEST PUSH1 0x0 PUSH2 0x2228 DUP9 DUP9 PUSH2 0x2090 JUMP JUMPDEST SWAP6 POP POP PUSH1 0x20 PUSH2 0x2239 DUP9 DUP3 DUP10 ADD PUSH2 0x2090 JUMP JUMPDEST SWAP5 POP POP PUSH1 0x40 PUSH2 0x224A DUP9 DUP3 DUP10 ADD PUSH2 0x2090 JUMP JUMPDEST SWAP4 POP POP PUSH1 0x60 PUSH2 0x225B DUP9 DUP3 DUP10 ADD PUSH2 0x2151 JUMP JUMPDEST SWAP3 POP POP PUSH1 0x80 DUP7 ADD CALLDATALOAD PUSH8 0xFFFFFFFFFFFFFFFF DUP2 GT ISZERO PUSH2 0x2278 JUMPI PUSH1 0x0 DUP1 REVERT JUMPDEST PUSH2 0x2284 DUP9 DUP3 DUP10 ADD PUSH2 0x20B7 JUMP JUMPDEST SWAP2 POP POP SWAP3 SWAP6 POP SWAP3 SWAP6 SWAP1 SWAP4 POP JUMP JUMPDEST PUSH1 0x0 DUP1 PUSH1 0x0 PUSH1 0x60 DUP5 DUP7 SUB SLT ISZERO PUSH2 0x22A6 JUMPI PUSH1 0x0 DUP1 REVERT JUMPDEST PUSH1 0x0 PUSH2 0x22B2 DUP7 DUP7 PUSH2 0x2090 JUMP JUMPDEST SWAP4 POP POP PUSH1 0x20 PUSH2 0x22C3 DUP7 DUP3 DUP8 ADD PUSH2 0x2090 JUMP JUMPDEST SWAP3 POP POP PUSH1 0x40 PUSH2 0x22D4 DUP7 DUP3 DUP8 ADD PUSH2 0x2151 JUMP JUMPDEST SWAP2 POP POP SWAP3 POP SWAP3 POP SWAP3 JUMP JUMPDEST PUSH1 0x0 DUP1 PUSH1 0x0 DUP1 PUSH1 0x80 DUP6 DUP8 SUB SLT ISZERO PUSH2 0x22F4 JUMPI PUSH1 0x0 DUP1 REVERT JUMPDEST PUSH1 0x0 PUSH2 0x2300 DUP8 DUP8 PUSH2 0x2090 JUMP JUMPDEST SWAP5 POP POP PUSH1 0x20 PUSH2 0x2311 DUP8 DUP3 DUP9 ADD PUSH2 0x2090 JUMP JUMPDEST SWAP4 POP POP PUSH1 0x40 PUSH2 0x2322 DUP8 DUP3 DUP9 ADD PUSH2 0x2151 JUMP JUMPDEST SWAP3 POP POP PUSH1 0x60 DUP6 ADD CALLDATALOAD PUSH8 0xFFFFFFFFFFFFFFFF DUP2 GT ISZERO PUSH2 0x233F JUMPI PUSH1 0x0 DUP1 REVERT JUMPDEST PUSH2 0x21F8 DUP8 DUP3 DUP9 ADD PUSH2 0x20B7 JUMP JUMPDEST PUSH1 0x0 DUP1 PUSH1 0x0 PUSH1 0x60 DUP5 DUP7 SUB SLT ISZERO PUSH2 0x2360 JUMPI PUSH1 0x0 DUP1 REVERT JUMPDEST PUSH1 0x0 PUSH2 0x236C DUP7 DUP7 PUSH2 0x2090 JUMP JUMPDEST SWAP4 POP POP PUSH1 0x20 DUP5 ADD CALLDATALOAD PUSH8 0xFFFFFFFFFFFFFFFF DUP2 GT ISZERO PUSH2 0x2389 JUMPI PUSH1 0x0 DUP1 REVERT JUMPDEST PUSH2 0x22C3 DUP7 DUP3 DUP8 ADD PUSH2 0x20B7 JUMP JUMPDEST PUSH1 0x0 DUP1 PUSH1 0x40 DUP4 DUP6 SUB SLT ISZERO PUSH2 0x23A8 JUMPI PUSH1 0x0 DUP1 REVERT JUMPDEST PUSH1 0x0 PUSH2 0x23B4 DUP6 DUP6 PUSH2 0x2090 JUMP JUMPDEST SWAP3 POP POP PUSH1 0x20 PUSH2 0x23C5 DUP6 DUP3 DUP7 ADD PUSH2 0x2151 JUMP JUMPDEST SWAP2 POP POP SWAP3 POP SWAP3 SWAP1 POP JUMP JUMPDEST PUSH1 0x0 PUSH1 0x20 DUP3 DUP5 SUB SLT ISZERO PUSH2 0x23E1 JUMPI PUSH1 0x0 DUP1 REVERT JUMPDEST DUP2 MLOAD PUSH8 0xFFFFFFFFFFFFFFFF DUP2 GT ISZERO PUSH2 0x23F8 JUMPI PUSH1 0x0 DUP1 REVERT JUMPDEST PUSH2 0x897 DUP5 DUP3 DUP6 ADD PUSH2 0x210B JUMP JUMPDEST PUSH1 0x0 PUSH1 0x20 DUP3 DUP5 SUB SLT ISZERO PUSH2 0x2416 JUMPI PUSH1 0x0 DUP1 REVERT JUMPDEST PUSH1 0x0 PUSH2 0x897 DUP5 DUP5 PUSH2 0x2151 JUMP JUMPDEST PUSH1 0x0 PUSH1 0x20 DUP3 DUP5 SUB SLT ISZERO PUSH2 0x2434 JUMPI PUSH1 0x0 DUP1 REVERT JUMPDEST PUSH1 0x0 PUSH2 0x897 DUP5 DUP5 PUSH2 0x215C JUMP JUMPDEST PUSH1 0x0 DUP1 PUSH1 0x40 DUP4 DUP6 SUB SLT ISZERO PUSH2 0x2453 JUMPI PUSH1 0x0 DUP1 REVERT JUMPDEST PUSH1 0x0 PUSH2 0x245F DUP6 DUP6 PUSH2 0x2151 JUMP JUMPDEST SWAP3 POP POP PUSH1 0x20 PUSH2 0x23C5 DUP6 DUP3 DUP7 ADD PUSH2 0x2090 JUMP JUMPDEST PUSH1 0x0 DUP1 PUSH1 0x0 PUSH1 0x60 DUP5 DUP7 SUB SLT ISZERO PUSH2 0x2485 JUMPI PUSH1 0x0 DUP1 REVERT JUMPDEST PUSH1 0x0 PUSH2 0x2491 DUP7 DUP7 PUSH2 0x2151 JUMP JUMPDEST SWAP4 POP POP PUSH1 0x20 PUSH2 0x24A2 DUP7 DUP3 DUP8 ADD PUSH2 0x2090 JUMP JUMPDEST SWAP3 POP POP PUSH1 0x40 PUSH2 0x22D4 DUP7 DUP3 DUP8 ADD PUSH2 0x2090 JUMP JUMPDEST PUSH1 0x0 DUP1 PUSH1 0x0 DUP1 PUSH1 0x80 DUP6 DUP8 SUB SLT ISZERO PUSH2 0x24C9 JUMPI PUSH1 0x0 DUP1 REVERT JUMPDEST PUSH1 0x0 PUSH2 0x24D5 DUP8 DUP8 PUSH2 0x2151 JUMP JUMPDEST SWAP5 POP POP PUSH1 0x20 PUSH2 0x24E6 DUP8 DUP3 DUP9 ADD PUSH2 0x2090 JUMP JUMPDEST SWAP4 POP POP PUSH1 0x40 PUSH2 0x24F7 DUP8 DUP3 DUP9 ADD PUSH2 0x2090 JUMP JUMPDEST SWAP3 POP POP PUSH1 0x60 PUSH2 0x21F8 DUP8 DUP3 DUP9 ADD PUSH2 0x20AC JUMP JUMPDEST PUSH1 0x0 DUP1 PUSH1 0x0 DUP1 PUSH1 0x80 DUP6 DUP8 SUB SLT ISZERO PUSH2 0x251E JUMPI PUSH1 0x0 DUP1 REVERT JUMPDEST PUSH1 0x0 PUSH2 0x21C5 DUP8 DUP8 PUSH2 0x2151 JUMP JUMPDEST PUSH1 0x0 DUP1 PUSH1 0x0 PUSH1 0x60 DUP5 DUP7 SUB SLT ISZERO PUSH2 0x253F JUMPI PUSH1 0x0 DUP1 REVERT JUMPDEST PUSH1 0x0 PUSH2 0x254B DUP7 DUP7 PUSH2 0x2151 JUMP JUMPDEST SWAP4 POP POP PUSH1 0x20 PUSH2 0x255C DUP7 DUP3 DUP8 ADD PUSH2 0x2090 JUMP JUMPDEST SWAP3 POP POP PUSH1 0x40 PUSH2 0x22D4 DUP7 DUP3 DUP8 ADD PUSH2 0x20AC JUMP JUMPDEST PUSH1 0x0 DUP1 PUSH1 0x0 PUSH1 0x60 DUP5 DUP7 SUB SLT ISZERO PUSH2 0x2582 JUMPI PUSH1 0x0 DUP1 REVERT JUMPDEST PUSH1 0x0 PUSH2 0x22B2 DUP7 DUP7 PUSH2 0x2151 JUMP JUMPDEST PUSH1 0x0 DUP1 PUSH1 0x0 DUP1 PUSH1 0x80 DUP6 DUP8 SUB SLT ISZERO PUSH2 0x25A4 JUMPI PUSH1 0x0 DUP1 REVERT JUMPDEST PUSH1 0x0 PUSH2 0x25B0 DUP8 DUP8 PUSH2 0x2151 JUMP JUMPDEST SWAP5 POP POP PUSH1 0x20 PUSH2 0x25C1 DUP8 DUP3 DUP9 ADD PUSH2 0x2090 JUMP JUMPDEST SWAP4 POP POP PUSH1 0x40 PUSH2 0x25D2 DUP8 DUP3 DUP9 ADD PUSH2 0x2151 JUMP JUMPDEST SWAP3 POP POP PUSH1 0x60 PUSH2 0x21F8 DUP8 DUP3 DUP9 ADD PUSH2 0x2090 JUMP JUMPDEST PUSH1 0x0 DUP1 PUSH1 0x0 DUP1 PUSH1 0x0 DUP1 PUSH1 0x0 DUP1 PUSH2 0x100 DUP10 DUP12 SUB SLT ISZERO PUSH2 0x2600 JUMPI PUSH1 0x0 DUP1 REVERT JUMPDEST PUSH1 0x0 PUSH2 0x260C DUP12 DUP12 PUSH2 0x2151 JUMP JUMPDEST SWAP9 POP POP PUSH1 0x20 PUSH2 0x261D DUP12 DUP3 DUP13 ADD PUSH2 0x2151 JUMP JUMPDEST SWAP8 POP POP PUSH1 0x40 PUSH2 0x262E DUP12 DUP3 DUP13 ADD PUSH2 0x2151 JUMP JUMPDEST SWAP7 POP POP PUSH1 0x60 PUSH2 0x263F DUP12 DUP3 DUP13 ADD PUSH2 0x2151 JUMP JUMPDEST SWAP6 POP POP PUSH1 0x80 PUSH2 0x2650 DUP12 DUP3 DUP13 ADD PUSH2 0x2151 JUMP JUMPDEST SWAP5 POP POP PUSH1 0xA0 PUSH2 0x2661 DUP12 DUP3 DUP13 ADD PUSH2 0x2151 JUMP JUMPDEST SWAP4 POP POP PUSH1 0xC0 PUSH2 0x2672 DUP12 DUP3 DUP13 ADD PUSH2 0x2090 JUMP JUMPDEST SWAP3 POP POP PUSH1 0xE0 PUSH2 0x2683 DUP12 DUP3 DUP13 ADD PUSH2 0x2090 JUMP JUMPDEST SWAP2 POP POP SWAP3 SWAP6 SWAP9 POP SWAP3 SWAP6 SWAP9 SWAP1 SWAP4 SWAP7 POP JUMP JUMPDEST PUSH1 0x0 PUSH2 0x269F DUP4 DUP4 PUSH2 0x26B6 JUMP JUMPDEST POP POP PUSH1 0x20 ADD SWAP1 JUMP JUMPDEST PUSH2 0x26B0 DUP2 PUSH2 0x2D07 JUMP JUMPDEST DUP3 MSTORE POP POP JUMP JUMPDEST PUSH2 0x26B0 DUP2 PUSH2 0x2CDB JUMP JUMPDEST PUSH1 0x0 PUSH2 0x26CA DUP3 PUSH2 0x2CCE JUMP JUMPDEST PUSH2 0x26D4 DUP2 DUP6 PUSH2 0x2CD2 JUMP JUMPDEST SWAP4 POP PUSH2 0x26DF DUP4 PUSH2 0x2CBC JUMP JUMPDEST DUP1 PUSH1 0x0 JUMPDEST DUP4 DUP2 LT ISZERO PUSH2 0x270D JUMPI DUP2 MLOAD PUSH2 0x26F7 DUP9 DUP3 PUSH2 0x2693 JUMP JUMPDEST SWAP8 POP PUSH2 0x2702 DUP4 PUSH2 0x2CBC JUMP JUMPDEST SWAP3 POP POP PUSH1 0x1 ADD PUSH2 0x26E3 JUMP JUMPDEST POP SWAP5 SWAP6 SWAP5 POP POP POP POP POP JUMP JUMPDEST PUSH2 0x26B0 DUP2 PUSH2 0x2CE6 JUMP JUMPDEST PUSH2 0x26B0 DUP2 PUSH2 0x2CEB JUMP JUMPDEST PUSH1 0x0 PUSH2 0x2735 DUP3 PUSH2 0x2CCE JUMP JUMPDEST PUSH2 0x273F DUP2 DUP6 PUSH2 0x2CD2 JUMP JUMPDEST SWAP4 POP PUSH2 0x274F DUP2 DUP6 PUSH1 0x20 DUP7 ADD PUSH2 0x2D34 JUMP JUMPDEST PUSH2 0x2758 DUP2 PUSH2 0x2D60 JUMP JUMPDEST SWAP1 SWAP4 ADD SWAP4 SWAP3 POP POP POP JUMP JUMPDEST PUSH2 0x26B0 DUP2 PUSH2 0x2D12 JUMP JUMPDEST PUSH1 0x0 DUP2 SLOAD PUSH1 0x1 DUP2 AND PUSH1 0x0 DUP2 EQ PUSH2 0x2788 JUMPI PUSH1 0x1 DUP2 EQ PUSH2 0x27AB JUMPI PUSH2 0x27EA JUMP JUMPDEST PUSH1 0x7F PUSH1 0x2 DUP4 DIV AND PUSH2 0x2799 DUP2 DUP8 PUSH2 0x1EA3 JUMP JUMPDEST PUSH1 0xFF NOT DUP5 AND DUP2 MSTORE SWAP6 POP DUP6 ADD SWAP3 POP PUSH2 0x27EA JUMP JUMPDEST PUSH1 0x2 DUP3 DIV PUSH2 0x27B9 DUP2 DUP8 PUSH2 0x1EA3 JUMP JUMPDEST SWAP6 POP PUSH2 0x27C4 DUP6 PUSH2 0x2CC2 JUMP JUMPDEST PUSH1 0x0 JUMPDEST DUP3 DUP2 LT ISZERO PUSH2 0x27E3 JUMPI DUP2 SLOAD DUP9 DUP3 ADD MSTORE PUSH1 0x1 SWAP1 SWAP2 ADD SWAP1 PUSH1 0x20 ADD PUSH2 0x27C7 JUMP JUMPDEST POP POP DUP6 ADD SWAP3 POP JUMPDEST POP POP SWAP3 SWAP2 POP POP JUMP JUMPDEST PUSH1 0x0 PUSH2 0x27FF PUSH1 0x26 DUP4 PUSH2 0x2CD2 JUMP JUMPDEST PUSH32 0x4F776E61626C653A206E6577206F776E657220697320746865207A65726F2061 DUP2 MSTORE PUSH6 0x646472657373 PUSH1 0xD0 SHL PUSH1 0x20 DUP3 ADD MSTORE PUSH1 0x40 ADD SWAP3 SWAP2 POP POP JUMP JUMPDEST PUSH1 0x0 PUSH2 0x2847 PUSH1 0x23 DUP4 PUSH2 0x2CD2 JUMP JUMPDEST PUSH32 0x41646D696E4D616E616765723A2061646D696E20616E64206F776E6572206F6E DUP2 MSTORE PUSH3 0x363C97 PUSH1 0xE9 SHL PUSH1 0x20 DUP3 ADD MSTORE PUSH1 0x40 ADD SWAP3 SWAP2 POP POP JUMP JUMPDEST PUSH1 0x0 PUSH2 0x288C PUSH1 0x1B DUP4 PUSH2 0x2CD2 JUMP JUMPDEST PUSH32 0x546F6B656E206E6F74206170706F726F766520666F72206275726E0000000000 DUP2 MSTORE PUSH1 0x20 ADD SWAP3 SWAP2 POP POP JUMP JUMPDEST PUSH1 0x0 PUSH2 0x28C5 PUSH1 0x20 DUP4 PUSH2 0x2CD2 JUMP JUMPDEST PUSH32 0x4F776E61626C653A2063616C6C6572206973206E6F7420746865206F776E6572 DUP2 MSTORE PUSH1 0x20 ADD SWAP3 SWAP2 POP POP JUMP JUMPDEST PUSH1 0x0 PUSH2 0x28FE PUSH1 0x15 DUP4 PUSH2 0x2CD2 JUMP JUMPDEST PUSH21 0x18591B5A5B88185B1C9958591E481A5B881B1A5CDD PUSH1 0x5A SHL DUP2 MSTORE PUSH1 0x20 ADD SWAP3 SWAP2 POP POP JUMP JUMPDEST PUSH2 0x26B0 DUP2 PUSH2 0x2D04 JUMP JUMPDEST PUSH1 0x0 PUSH2 0x2937 DUP3 DUP5 PUSH2 0x276B JUMP JUMPDEST SWAP4 SWAP3 POP POP POP JUMP JUMPDEST PUSH1 0x20 DUP2 ADD PUSH2 0x209B DUP3 DUP5 PUSH2 0x26B6 JUMP JUMPDEST PUSH1 0x20 DUP2 ADD PUSH2 0x209B DUP3 DUP5 PUSH2 0x26A7 JUMP JUMPDEST PUSH1 0x40 DUP2 ADD PUSH2 0x2968 DUP3 DUP6 PUSH2 0x26A7 JUMP JUMPDEST PUSH2 0x2937 PUSH1 0x20 DUP4 ADD DUP5 PUSH2 0x2922 JUMP JUMPDEST PUSH1 0x60 DUP2 ADD PUSH2 0x2983 DUP3 DUP7 PUSH2 0x26B6 JUMP JUMPDEST PUSH2 0x2990 PUSH1 0x20 DUP4 ADD DUP6 PUSH2 0x26B6 JUMP JUMPDEST PUSH2 0x897 PUSH1 0x40 DUP4 ADD DUP5 PUSH2 0x2922 JUMP JUMPDEST PUSH1 0x80 DUP2 ADD PUSH2 0x29AB DUP3 DUP8 PUSH2 0x26B6 JUMP JUMPDEST PUSH2 0x29B8 PUSH1 0x20 DUP4 ADD DUP7 PUSH2 0x26B6 JUMP JUMPDEST PUSH2 0x29C5 PUSH1 0x40 DUP4 ADD DUP6 PUSH2 0x2922 JUMP JUMPDEST DUP2 DUP2 SUB PUSH1 0x60 DUP4 ADD MSTORE PUSH2 0x29D7 DUP2 DUP5 PUSH2 0x272A JUMP JUMPDEST SWAP7 SWAP6 POP POP POP POP POP POP JUMP JUMPDEST PUSH1 0x40 DUP2 ADD PUSH2 0x29EF DUP3 DUP6 PUSH2 0x26B6 JUMP JUMPDEST PUSH2 0x2937 PUSH1 0x20 DUP4 ADD DUP5 PUSH2 0x2762 JUMP JUMPDEST PUSH1 0x40 DUP2 ADD PUSH2 0x2968 DUP3 DUP6 PUSH2 0x26B6 JUMP JUMPDEST PUSH1 0x60 DUP2 ADD PUSH2 0x2A18 DUP3 DUP7 PUSH2 0x26B6 JUMP JUMPDEST PUSH2 0x2A25 PUSH1 0x20 DUP4 ADD DUP6 PUSH2 0x2922 JUMP JUMPDEST PUSH2 0x897 PUSH1 0x40 DUP4 ADD DUP5 PUSH2 0x26B6 JUMP JUMPDEST PUSH1 0x20 DUP1 DUP3 MSTORE DUP2 ADD PUSH2 0x2937 DUP2 DUP5 PUSH2 0x26BF JUMP JUMPDEST PUSH1 0x20 DUP2 ADD PUSH2 0x209B DUP3 DUP5 PUSH2 0x2718 JUMP JUMPDEST PUSH1 0x20 DUP2 ADD PUSH2 0x209B DUP3 DUP5 PUSH2 0x2721 JUMP JUMPDEST PUSH1 0x40 DUP1 DUP3 MSTORE DUP2 ADD PUSH2 0x2A70 DUP2 DUP6 PUSH2 0x272A JUMP JUMPDEST SWAP1 POP PUSH2 0x2937 PUSH1 0x20 DUP4 ADD DUP5 PUSH2 0x2922 JUMP JUMPDEST PUSH1 0x20 DUP1 DUP3 MSTORE DUP2 ADD PUSH2 0x209B DUP2 PUSH2 0x27F2 JUMP JUMPDEST PUSH1 0x20 DUP1 DUP3 MSTORE DUP2 ADD PUSH2 0x209B DUP2 PUSH2 0x283A JUMP JUMPDEST PUSH1 0x20 DUP1 DUP3 MSTORE DUP2 ADD PUSH2 0x209B DUP2 PUSH2 0x287F JUMP JUMPDEST PUSH1 0x20 DUP1 DUP3 MSTORE DUP2 ADD PUSH2 0x209B DUP2 PUSH2 0x28B8 JUMP JUMPDEST PUSH1 0x20 DUP1 DUP3 MSTORE DUP2 ADD PUSH2 0x209B DUP2 PUSH2 0x28F1 JUMP JUMPDEST PUSH1 0x20 DUP2 ADD PUSH2 0x209B DUP3 DUP5 PUSH2 0x2922 JUMP JUMPDEST PUSH1 0x40 DUP2 ADD PUSH2 0x2AEB DUP3 DUP6 PUSH2 0x2922 JUMP JUMPDEST PUSH2 0x2937 PUSH1 0x20 DUP4 ADD DUP5 PUSH2 0x26B6 JUMP JUMPDEST PUSH1 0x80 DUP2 ADD PUSH2 0x2B06 DUP3 DUP8 PUSH2 0x2922 JUMP JUMPDEST PUSH2 0x2B13 PUSH1 0x20 DUP4 ADD DUP7 PUSH2 0x26B6 JUMP JUMPDEST PUSH2 0x2B20 PUSH1 0x40 DUP4 ADD DUP6 PUSH2 0x26B6 JUMP JUMPDEST PUSH2 0x2B2D PUSH1 0x60 DUP4 ADD DUP5 PUSH2 0x2718 JUMP JUMPDEST SWAP6 SWAP5 POP POP POP POP POP JUMP JUMPDEST PUSH1 0x80 DUP2 ADD PUSH2 0x2B44 DUP3 DUP8 PUSH2 0x2922 JUMP JUMPDEST PUSH2 0x2B51 PUSH1 0x20 DUP4 ADD DUP7 PUSH2 0x26B6 JUMP JUMPDEST PUSH2 0x2B5E PUSH1 0x40 DUP4 ADD DUP6 PUSH2 0x26B6 JUMP JUMPDEST PUSH2 0x2B2D PUSH1 0x60 DUP4 ADD DUP5 PUSH2 0x2922 JUMP JUMPDEST PUSH1 0x60 DUP2 ADD PUSH2 0x2B79 DUP3 DUP7 PUSH2 0x2922 JUMP JUMPDEST PUSH2 0x2B86 PUSH1 0x20 DUP4 ADD DUP6 PUSH2 0x26B6 JUMP JUMPDEST PUSH2 0x897 PUSH1 0x40 DUP4 ADD DUP5 PUSH2 0x2718 JUMP JUMPDEST PUSH1 0x60 DUP2 ADD PUSH2 0x2983 DUP3 DUP7 PUSH2 0x2922 JUMP JUMPDEST PUSH1 0x80 DUP2 ADD PUSH2 0x2BAF DUP3 DUP8 PUSH2 0x2922 JUMP JUMPDEST PUSH2 0x2BBC PUSH1 0x20 DUP4 ADD DUP7 PUSH2 0x26B6 JUMP JUMPDEST PUSH2 0x2BC9 PUSH1 0x40 DUP4 ADD DUP6 PUSH2 0x2922 JUMP JUMPDEST PUSH2 0x2B2D PUSH1 0x60 DUP4 ADD DUP5 PUSH2 0x26B6 JUMP JUMPDEST PUSH1 0x40 DUP2 ADD PUSH2 0x2BE4 DUP3 DUP6 PUSH2 0x2922 JUMP JUMPDEST DUP2 DUP2 SUB PUSH1 0x20 DUP4 ADD MSTORE PUSH2 0x897 DUP2 DUP5 PUSH2 0x272A JUMP JUMPDEST PUSH2 0x100 DUP2 ADD PUSH2 0x2C05 DUP3 DUP12 PUSH2 0x2922 JUMP JUMPDEST PUSH2 0x2C12 PUSH1 0x20 DUP4 ADD DUP11 PUSH2 0x2922 JUMP JUMPDEST PUSH2 0x2C1F PUSH1 0x40 DUP4 ADD DUP10 PUSH2 0x2922 JUMP JUMPDEST PUSH2 0x2C2C PUSH1 0x60 DUP4 ADD DUP9 PUSH2 0x2922 JUMP JUMPDEST PUSH2 0x2C39 PUSH1 0x80 DUP4 ADD DUP8 PUSH2 0x2922 JUMP JUMPDEST PUSH2 0x2C46 PUSH1 0xA0 DUP4 ADD DUP7 PUSH2 0x2922 JUMP JUMPDEST PUSH2 0x2C53 PUSH1 0xC0 DUP4 ADD DUP6 PUSH2 0x26B6 JUMP JUMPDEST PUSH2 0x2C60 PUSH1 0xE0 DUP4 ADD DUP5 PUSH2 0x26B6 JUMP JUMPDEST SWAP10 SWAP9 POP POP POP POP POP POP POP POP POP JUMP JUMPDEST PUSH1 0x40 MLOAD DUP2 DUP2 ADD PUSH8 0xFFFFFFFFFFFFFFFF DUP2 GT DUP3 DUP3 LT OR ISZERO PUSH2 0x2C8C JUMPI PUSH1 0x0 DUP1 REVERT JUMPDEST PUSH1 0x40 MSTORE SWAP2 SWAP1 POP JUMP JUMPDEST PUSH1 0x0 PUSH8 0xFFFFFFFFFFFFFFFF DUP3 GT ISZERO PUSH2 0x2CAB JUMPI PUSH1 0x0 DUP1 REVERT JUMPDEST POP PUSH1 0x20 PUSH1 0x1F SWAP2 SWAP1 SWAP2 ADD PUSH1 0x1F NOT AND ADD SWAP1 JUMP JUMPDEST PUSH1 0x20 ADD SWAP1 JUMP JUMPDEST PUSH1 0x0 SWAP1 DUP2 MSTORE PUSH1 0x20 SWAP1 KECCAK256 SWAP1 JUMP JUMPDEST MLOAD SWAP1 JUMP JUMPDEST SWAP1 DUP2 MSTORE PUSH1 0x20 ADD SWAP1 JUMP JUMPDEST PUSH1 0x0 PUSH2 0x209B DUP3 PUSH2 0x2CF8 JUMP JUMPDEST ISZERO ISZERO SWAP1 JUMP JUMPDEST PUSH1 0x1 PUSH1 0x1 PUSH1 0xE0 SHL SUB NOT AND SWAP1 JUMP JUMPDEST PUSH1 0x1 PUSH1 0x1 PUSH1 0xA0 SHL SUB AND SWAP1 JUMP JUMPDEST SWAP1 JUMP JUMPDEST PUSH1 0x0 PUSH2 0x209B DUP3 PUSH2 0x2D1D JUMP JUMPDEST PUSH1 0x0 PUSH2 0x209B DUP3 PUSH2 0x2D04 JUMP JUMPDEST PUSH1 0x0 PUSH2 0x209B DUP3 PUSH2 0x2CDB JUMP JUMPDEST DUP3 DUP2 DUP4 CALLDATACOPY POP PUSH1 0x0 SWAP2 ADD MSTORE JUMP JUMPDEST PUSH1 0x0 JUMPDEST DUP4 DUP2 LT ISZERO PUSH2 0x2D4F JUMPI DUP2 DUP2 ADD MLOAD DUP4 DUP3 ADD MSTORE PUSH1 0x20 ADD PUSH2 0x2D37 JUMP JUMPDEST DUP4 DUP2 GT ISZERO PUSH2 0x1453 JUMPI POP POP PUSH1 0x0 SWAP2 ADD MSTORE JUMP JUMPDEST PUSH1 0x1F ADD PUSH1 0x1F NOT AND SWAP1 JUMP JUMPDEST PUSH2 0x2D73 DUP2 PUSH2 0x2CDB JUMP JUMPDEST DUP2 EQ PUSH2 0xF81 JUMPI PUSH1 0x0 DUP1 REVERT JUMPDEST PUSH2 0x2D73 DUP2 PUSH2 0x2CE6 JUMP JUMPDEST PUSH2 0x2D73 DUP2 PUSH2 0x2D04 JUMP INVALID ORIGIN 0xA9 0xEE 0xB5 0x5E 0xA5 PUSH15 0xB60BADFB6642D5B92BE35B6DA6F748 SWAP3 0xC1 0x2D 0xE EQ 0xA5 0xD 0xFC 0x2B 0xAC LOG3 PUSH6 0x627A7A723158 KECCAK256 PUSH32 0xB9B1B24E8E48A199997B67F2EAFA3FC8891A3AAB73E30057D60A2550E59C376C PUSH6 0x78706572696D PUSH6 0x6E74616CF564 PUSH20 0x6F6C634300051100408BE0079C531659141344CD 0x1F 0xD0 LOG4 CALLCODE DUP5 NOT 0x49 PUSH32 0x9722A3DAAFE3B4186F6B6457E000000000000000000000000000000000000000 "
				},
				"gasEstimates": {
					"creation": {
						"codeDepositCost": "2352600",
						"executionCost": "infinite",
						"totalCost": "infinite"
					},
					"external": {
						"": "209",
						"accpetOffer(uint256,address,address,bool)": "infinite",
						"addAdmin(address)": "infinite",
						"adminExist(address)": "infinite",
						"admins(uint256)": "infinite",
						"bid(uint256,address,uint256)": "infinite",
						"burnNFT(address,uint256)": "infinite",
						"buy(uint256,address,bool)": "infinite",
						"collect(uint256,address,bool)": "infinite",
						"erc20Approve(address,address,uint256)": "infinite",
						"erc20DecreaseAllowance(address,address,uint256)": "infinite",
						"erc20DecreaseApproval(address,address,uint256)": "infinite",
						"erc20IncreaseAllowance(address,address,uint256)": "infinite",
						"erc20IncreaseApproval(address,address,uint256)": "infinite",
						"erc20Transfer(address,address,uint256)": "infinite",
						"erc20TransferFrom(address,address,address,uint256)": "infinite",
						"erc721Approve(address,address,uint256)": "infinite",
						"erc721Burn(address,uint256)": "infinite",
						"erc721Mint(address,string,uint256)": "infinite",
						"erc721SafeTransferFrom(address,address,address,uint256)": "infinite",
						"erc721SafeTransferFrom(address,address,address,uint256,bytes)": "infinite",
						"erc721Transfer(address,address,uint256)": "infinite",
						"erc721TransferFrom(address,address,address,uint256)": "infinite",
						"getAdmins()": "infinite",
						"isOwner()": "1292",
						"makeAnOffer(uint256,address,address,uint256)": "infinite",
						"onERC721Received(address,address,uint256,bytes)": "infinite",
						"owner()": "infinite",
						"putOnSale(uint256,uint256,uint256,uint256,uint256,uint256,address,address)": "infinite",
						"putSaleOff(uint256,address)": "infinite",
						"removeAdmin(address)": "infinite",
						"renounceOwnership()": "24335",
						"revertAll(uint256,address)": "infinite",
						"revertOffer(uint256,address,address)": "infinite",
						"transferOwnership(address)": "infinite",
						"updatePrice(uint256,address,uint256,address)": "infinite",
						"withdraw()": "infinite",
						"withdrawERC20(address)": "infinite"
					}
				},
				"methodIdentifiers": {
					"accpetOffer(uint256,address,address,bool)": "5aa8680a",
					"addAdmin(address)": "70480275",
					"adminExist(address)": "fba08d45",
					"admins(uint256)": "14bfd6d0",
					"bid(uint256,address,uint256)": "c0f4ed31",
					"burnNFT(address,uint256)": "47fcf018",
					"buy(uint256,address,bool)": "7ad157b9",
					"collect(uint256,address,bool)": "8c6ab013",
					"erc20Approve(address,address,uint256)": "ace561a8",
					"erc20DecreaseAllowance(address,address,uint256)": "0c82ea1a",
					"erc20DecreaseApproval(address,address,uint256)": "c347f69b",
					"erc20IncreaseAllowance(address,address,uint256)": "9dc6b78d",
					"erc20IncreaseApproval(address,address,uint256)": "1afffec0",
					"erc20Transfer(address,address,uint256)": "3790767d",
					"erc20TransferFrom(address,address,address,uint256)": "0a1b0b91",
					"erc721Approve(address,address,uint256)": "18fa0653",
					"erc721Burn(address,uint256)": "485f952e",
					"erc721Mint(address,string,uint256)": "fddea900",
					"erc721SafeTransferFrom(address,address,address,uint256)": "4a0aafda",
					"erc721SafeTransferFrom(address,address,address,uint256,bytes)": "488b0f7d",
					"erc721Transfer(address,address,uint256)": "b6011b4c",
					"erc721TransferFrom(address,address,address,uint256)": "8450ebe4",
					"getAdmins()": "31ae450b",
					"isOwner()": "8f32d59b",
					"makeAnOffer(uint256,address,address,uint256)": "3169b515",
					"onERC721Received(address,address,uint256,bytes)": "150b7a02",
					"owner()": "8da5cb5b",
					"putOnSale(uint256,uint256,uint256,uint256,uint256,uint256,address,address)": "640cf873",
					"putSaleOff(uint256,address)": "179443f3",
					"removeAdmin(address)": "1785f53c",
					"renounceOwnership()": "715018a6",
					"revertAll(uint256,address)": "e7ab44b4",
					"revertOffer(uint256,address,address)": "17c48a70",
					"transferOwnership(address)": "f2fde38b",
					"updatePrice(uint256,address,uint256,address)": "ff8edbdb",
					"withdraw()": "3ccfd60b",
					"withdrawERC20(address)": "f4f3b200"
				}
			},
			"storageLayout": {
				"storage": [
					{
						"astId": 31,
						"contract": "AdminManger.sol:AdminManager",
						"label": "_owner",
						"offset": 0,
						"slot": "0",
						"type": "t_address"
					},
					{
						"astId": 466,
						"contract": "AdminManger.sol:AdminManager",
						"label": "admins",
						"offset": 0,
						"slot": "1",
						"type": "t_array(t_address)dyn_storage"
					},
					{
						"astId": 549,
						"contract": "AdminManger.sol:AdminManager",
						"label": "functionNames",
						"offset": 0,
						"slot": "2",
						"type": "t_struct(FunctionNames)519_storage"
					},
					{
						"astId": 551,
						"contract": "AdminManger.sol:AdminManager",
						"label": "broker",
						"offset": 0,
						"slot": "28",
						"type": "t_contract(IBrokerV2)400"
					}
				],
				"types": {
					"t_address": {
						"encoding": "inplace",
						"label": "address",
						"numberOfBytes": "20"
					},
					"t_array(t_address)dyn_storage": {
						"base": "t_address",
						"encoding": "dynamic_array",
						"label": "address[]",
						"numberOfBytes": "32"
					},
					"t_contract(IBrokerV2)400": {
						"encoding": "inplace",
						"label": "contract IBrokerV2",
						"numberOfBytes": "20"
					},
					"t_string_storage": {
						"encoding": "bytes",
						"label": "string",
						"numberOfBytes": "32"
					},
					"t_struct(FunctionNames)519_storage": {
						"encoding": "inplace",
						"label": "struct AdminManager.FunctionNames",
						"members": [
							{
								"astId": 468,
								"contract": "AdminManger.sol:AdminManager",
								"label": "approve",
								"offset": 0,
								"slot": "0",
								"type": "t_string_storage"
							},
							{
								"astId": 470,
								"contract": "AdminManger.sol:AdminManager",
								"label": "transfer",
								"offset": 0,
								"slot": "1",
								"type": "t_string_storage"
							},
							{
								"astId": 472,
								"contract": "AdminManger.sol:AdminManager",
								"label": "burn",
								"offset": 0,
								"slot": "2",
								"type": "t_string_storage"
							},
							{
								"astId": 474,
								"contract": "AdminManger.sol:AdminManager",
								"label": "mint",
								"offset": 0,
								"slot": "3",
								"type": "t_string_storage"
							},
							{
								"astId": 476,
								"contract": "AdminManger.sol:AdminManager",
								"label": "safeTransferFrom",
								"offset": 0,
								"slot": "4",
								"type": "t_string_storage"
							},
							{
								"astId": 478,
								"contract": "AdminManger.sol:AdminManager",
								"label": "transferFrom",
								"offset": 0,
								"slot": "5",
								"type": "t_string_storage"
							},
							{
								"astId": 480,
								"contract": "AdminManger.sol:AdminManager",
								"label": "putOnSale",
								"offset": 0,
								"slot": "6",
								"type": "t_string_storage"
							},
							{
								"astId": 482,
								"contract": "AdminManger.sol:AdminManager",
								"label": "buy",
								"offset": 0,
								"slot": "7",
								"type": "t_string_storage"
							},
							{
								"astId": 484,
								"contract": "AdminManger.sol:AdminManager",
								"label": "bid",
								"offset": 0,
								"slot": "8",
								"type": "t_string_storage"
							},
							{
								"astId": 486,
								"contract": "AdminManger.sol:AdminManager",
								"label": "collect",
								"offset": 0,
								"slot": "9",
								"type": "t_string_storage"
							},
							{
								"astId": 488,
								"contract": "AdminManger.sol:AdminManager",
								"label": "updatePrice",
								"offset": 0,
								"slot": "10",
								"type": "t_string_storage"
							},
							{
								"astId": 490,
								"contract": "AdminManger.sol:AdminManager",
								"label": "putSaleOff",
								"offset": 0,
								"slot": "11",
								"type": "t_string_storage"
							},
							{
								"astId": 492,
								"contract": "AdminManger.sol:AdminManager",
								"label": "makeAnOffer",
								"offset": 0,
								"slot": "12",
								"type": "t_string_storage"
							},
							{
								"astId": 494,
								"contract": "AdminManger.sol:AdminManager",
								"label": "accpetOffer",
								"offset": 0,
								"slot": "13",
								"type": "t_string_storage"
							},
							{
								"astId": 496,
								"contract": "AdminManger.sol:AdminManager",
								"label": "revertOffer",
								"offset": 0,
								"slot": "14",
								"type": "t_string_storage"
							},
							{
								"astId": 498,
								"contract": "AdminManger.sol:AdminManager",
								"label": "revertAll",
								"offset": 0,
								"slot": "15",
								"type": "t_string_storage"
							},
							{
								"astId": 500,
								"contract": "AdminManger.sol:AdminManager",
								"label": "erc20Approve",
								"offset": 0,
								"slot": "16",
								"type": "t_string_storage"
							},
							{
								"astId": 502,
								"contract": "AdminManger.sol:AdminManager",
								"label": "erc20DecreaseApproval",
								"offset": 0,
								"slot": "17",
								"type": "t_string_storage"
							},
							{
								"astId": 504,
								"contract": "AdminManger.sol:AdminManager",
								"label": "erc20IncreaseApproval",
								"offset": 0,
								"slot": "18",
								"type": "t_string_storage"
							},
							{
								"astId": 506,
								"contract": "AdminManger.sol:AdminManager",
								"label": "erc20Transfer",
								"offset": 0,
								"slot": "19",
								"type": "t_string_storage"
							},
							{
								"astId": 508,
								"contract": "AdminManger.sol:AdminManager",
								"label": "erc20TransferFrom",
								"offset": 0,
								"slot": "20",
								"type": "t_string_storage"
							},
							{
								"astId": 510,
								"contract": "AdminManger.sol:AdminManager",
								"label": "erc20IncreaseAllowance",
								"offset": 0,
								"slot": "21",
								"type": "t_string_storage"
							},
							{
								"astId": 512,
								"contract": "AdminManger.sol:AdminManager",
								"label": "erc20DecreaseAllowance",
								"offset": 0,
								"slot": "22",
								"type": "t_string_storage"
							},
							{
								"astId": 514,
								"contract": "AdminManger.sol:AdminManager",
								"label": "batchListing",
								"offset": 0,
								"slot": "23",
								"type": "t_string_storage"
							},
							{
								"astId": 516,
								"contract": "AdminManger.sol:AdminManager",
								"label": "batchDelisting",
								"offset": 0,
								"slot": "24",
								"type": "t_string_storage"
							},
							{
								"astId": 518,
								"contract": "AdminManger.sol:AdminManager",
								"label": "setAddress",
								"offset": 0,
								"slot": "25",
								"type": "t_string_storage"
							}
						],
						"numberOfBytes": "832"
					}
				}
			},
			"userdoc": {
				"methods": {
					"addAdmin(address)": {
						"notice": "This function is used to add address of admins"
					},
					"adminExist(address)": {
						"notice": "This function is used to check address of admin exist or not in list of admin"
					},
					"burnNFT(address,uint256)": {
						"notice": "This function is used to burn the apporved NFTToken to certain admin address which was allowed by super admin the owner of Admin Manager"
					},
					"getAdmins()": {
						"notice": "This function is used to get list of all address of admins"
					},
					"removeAdmin(address)": {
						"notice": "This function is used to get list of all address of admins"
					}
				},
				"notice": "You can use this contract to execute function on behalf of superUser"
			}
		}
	}
}