{
	"LPStaking.sol": {
		"LPStakingV3": {
			"abi": [
				{
					"anonymous": false,
					"inputs": [
						{
							"indexed": true,
							"internalType": "address",
							"name": "user",
							"type": "address"
						},
						{
							"indexed": false,
							"internalType": "uint256",
							"name": "feeReward",
							"type": "uint256"
						}
					],
					"name": "Harvest",
					"type": "event"
				},
				{
					"anonymous": false,
					"inputs": [
						{
							"indexed": false,
							"internalType": "uint8",
							"name": "version",
							"type": "uint8"
						}
					],
					"name": "Initialized",
					"type": "event"
				},
				{
					"anonymous": false,
					"inputs": [
						{
							"indexed": true,
							"internalType": "address",
							"name": "previousOwner",
							"type": "address"
						},
						{
							"indexed": true,
							"internalType": "address",
							"name": "newOwner",
							"type": "address"
						}
					],
					"name": "OwnershipTransferred",
					"type": "event"
				},
				{
					"anonymous": false,
					"inputs": [
						{
							"indexed": true,
							"internalType": "address",
							"name": "staker",
							"type": "address"
						},
						{
							"indexed": false,
							"internalType": "uint256",
							"name": "amount",
							"type": "uint256"
						},
						{
							"indexed": true,
							"internalType": "uint256",
							"name": "_poolId",
							"type": "uint256"
						},
						{
							"indexed": false,
							"internalType": "uint256",
							"name": "timestamp",
							"type": "uint256"
						}
					],
					"name": "RewardClaimed",
					"type": "event"
				},
				{
					"anonymous": false,
					"inputs": [
						{
							"indexed": true,
							"internalType": "address",
							"name": "staker",
							"type": "address"
						},
						{
							"indexed": false,
							"internalType": "uint256",
							"name": "amount",
							"type": "uint256"
						},
						{
							"indexed": true,
							"internalType": "uint256",
							"name": "_poolId",
							"type": "uint256"
						},
						{
							"indexed": false,
							"internalType": "uint256",
							"name": "timestamp",
							"type": "uint256"
						}
					],
					"name": "Staked",
					"type": "event"
				},
				{
					"anonymous": false,
					"inputs": [
						{
							"indexed": true,
							"internalType": "address",
							"name": "staker",
							"type": "address"
						},
						{
							"indexed": false,
							"internalType": "uint256",
							"name": "amount",
							"type": "uint256"
						},
						{
							"indexed": true,
							"internalType": "uint256",
							"name": "_poolId",
							"type": "uint256"
						},
						{
							"indexed": false,
							"internalType": "uint256",
							"name": "timestamp",
							"type": "uint256"
						}
					],
					"name": "Unstaked",
					"type": "event"
				},
				{
					"anonymous": false,
					"inputs": [
						{
							"indexed": true,
							"internalType": "address",
							"name": "user",
							"type": "address"
						},
						{
							"indexed": false,
							"internalType": "uint256",
							"name": "amount",
							"type": "uint256"
						}
					],
					"name": "WETHDeposit",
					"type": "event"
				},
				{
					"anonymous": false,
					"inputs": [
						{
							"indexed": true,
							"internalType": "address",
							"name": "user",
							"type": "address"
						},
						{
							"indexed": false,
							"internalType": "uint256",
							"name": "amount",
							"type": "uint256"
						}
					],
					"name": "WETHWithdraw",
					"type": "event"
				},
				{
					"inputs": [],
					"name": "AdminWETHWithdraw",
					"outputs": [],
					"stateMutability": "nonpayable",
					"type": "function"
				},
				{
					"inputs": [],
					"name": "PRECISION_FACTOR",
					"outputs": [
						{
							"internalType": "uint256",
							"name": "",
							"type": "uint256"
						}
					],
					"stateMutability": "view",
					"type": "function"
				},
				{
					"inputs": [],
					"name": "PauseStaking",
					"outputs": [],
					"stateMutability": "nonpayable",
					"type": "function"
				},
				{
					"inputs": [],
					"name": "ResumeStaking",
					"outputs": [],
					"stateMutability": "nonpayable",
					"type": "function"
				},
				{
					"inputs": [],
					"name": "WETH",
					"outputs": [
						{
							"internalType": "contract IERC20Upgradeable",
							"name": "",
							"type": "address"
						}
					],
					"stateMutability": "view",
					"type": "function"
				},
				{
					"inputs": [
						{
							"internalType": "address",
							"name": "_token",
							"type": "address"
						},
						{
							"internalType": "address",
							"name": "_reward",
							"type": "address"
						},
						{
							"components": [
								{
									"internalType": "uint256",
									"name": "period",
									"type": "uint256"
								},
								{
									"internalType": "uint256",
									"name": "APR",
									"type": "uint256"
								}
							],
							"internalType": "struct LPStakingV3.interestRate[]",
							"name": "_periodRates",
							"type": "tuple[]"
						}
					],
					"name": "addPool",
					"outputs": [],
					"stateMutability": "nonpayable",
					"type": "function"
				},
				{
					"inputs": [
						{
							"internalType": "uint256",
							"name": "_poolId",
							"type": "uint256"
						},
						{
							"internalType": "uint256",
							"name": "amount",
							"type": "uint256"
						}
					],
					"name": "addRewardToPool",
					"outputs": [],
					"stateMutability": "nonpayable",
					"type": "function"
				},
				{
					"inputs": [
						{
							"internalType": "address",
							"name": "_stakeHolder",
							"type": "address"
						},
						{
							"internalType": "uint256",
							"name": "_dId",
							"type": "uint256"
						},
						{
							"internalType": "bool",
							"name": "isProrata",
							"type": "bool"
						}
					],
					"name": "calculateReward",
					"outputs": [
						{
							"internalType": "uint256",
							"name": "reward",
							"type": "uint256"
						}
					],
					"stateMutability": "view",
					"type": "function"
				},
				{
					"inputs": [
						{
							"internalType": "uint256",
							"name": "",
							"type": "uint256"
						}
					],
					"name": "depositDetails",
					"outputs": [
						{
							"internalType": "uint256",
							"name": "depositId",
							"type": "uint256"
						},
						{
							"internalType": "uint256",
							"name": "stake",
							"type": "uint256"
						},
						{
							"internalType": "uint256",
							"name": "reward",
							"type": "uint256"
						},
						{
							"internalType": "uint256",
							"name": "APR",
							"type": "uint256"
						},
						{
							"internalType": "uint256",
							"name": "period",
							"type": "uint256"
						},
						{
							"internalType": "uint256",
							"name": "lastRewardCalculated",
							"type": "uint256"
						},
						{
							"internalType": "uint256",
							"name": "poolId",
							"type": "uint256"
						},
						{
							"internalType": "uint256",
							"name": "vestedFor",
							"type": "uint256"
						},
						{
							"internalType": "uint256",
							"name": "NFTId",
							"type": "uint256"
						}
					],
					"stateMutability": "view",
					"type": "function"
				},
				{
					"inputs": [
						{
							"internalType": "address",
							"name": "",
							"type": "address"
						},
						{
							"internalType": "uint256",
							"name": "",
							"type": "uint256"
						}
					],
					"name": "deposits",
					"outputs": [
						{
							"internalType": "uint256",
							"name": "depositId",
							"type": "uint256"
						},
						{
							"internalType": "uint256",
							"name": "stake",
							"type": "uint256"
						},
						{
							"internalType": "uint256",
							"name": "reward",
							"type": "uint256"
						},
						{
							"internalType": "uint256",
							"name": "APR",
							"type": "uint256"
						},
						{
							"internalType": "uint256",
							"name": "period",
							"type": "uint256"
						},
						{
							"internalType": "uint256",
							"name": "lastRewardCalculated",
							"type": "uint256"
						},
						{
							"internalType": "uint256",
							"name": "poolId",
							"type": "uint256"
						},
						{
							"internalType": "uint256",
							"name": "vestedFor",
							"type": "uint256"
						},
						{
							"internalType": "uint256",
							"name": "NFTId",
							"type": "uint256"
						}
					],
					"stateMutability": "view",
					"type": "function"
				},
				{
					"inputs": [
						{
							"internalType": "uint256",
							"name": "_poolId",
							"type": "uint256"
						},
						{
							"internalType": "uint256",
							"name": "_period",
							"type": "uint256"
						}
					],
					"name": "getAPR",
					"outputs": [
						{
							"internalType": "uint256",
							"name": "",
							"type": "uint256"
						}
					],
					"stateMutability": "view",
					"type": "function"
				},
				{
					"inputs": [],
					"name": "getAccMarketFee",
					"outputs": [
						{
							"internalType": "uint256",
							"name": "",
							"type": "uint256"
						}
					],
					"stateMutability": "view",
					"type": "function"
				},
				{
					"inputs": [
						{
							"internalType": "address",
							"name": "_user",
							"type": "address"
						}
					],
					"name": "getDeposits",
					"outputs": [
						{
							"components": [
								{
									"internalType": "uint256",
									"name": "depositId",
									"type": "uint256"
								},
								{
									"internalType": "uint256",
									"name": "stake",
									"type": "uint256"
								},
								{
									"internalType": "uint256",
									"name": "reward",
									"type": "uint256"
								},
								{
									"internalType": "uint256",
									"name": "APR",
									"type": "uint256"
								},
								{
									"internalType": "uint256",
									"name": "period",
									"type": "uint256"
								},
								{
									"internalType": "uint256",
									"name": "lastRewardCalculated",
									"type": "uint256"
								},
								{
									"internalType": "uint256",
									"name": "poolId",
									"type": "uint256"
								},
								{
									"internalType": "uint256",
									"name": "vestedFor",
									"type": "uint256"
								},
								{
									"internalType": "uint256",
									"name": "NFTId",
									"type": "uint256"
								}
							],
							"internalType": "struct LPStakingV3.stakeDetails[]",
							"name": "",
							"type": "tuple[]"
						}
					],
					"stateMutability": "view",
					"type": "function"
				},
				{
					"inputs": [
						{
							"internalType": "address",
							"name": "_user",
							"type": "address"
						},
						{
							"internalType": "uint256",
							"name": "_dId",
							"type": "uint256"
						}
					],
					"name": "getHavestAmount",
					"outputs": [
						{
							"internalType": "uint256",
							"name": "",
							"type": "uint256"
						}
					],
					"stateMutability": "view",
					"type": "function"
				},
				{
					"inputs": [
						{
							"internalType": "uint256",
							"name": "_poolId",
							"type": "uint256"
						}
					],
					"name": "haveSuffecientFundsForReward",
					"outputs": [
						{
							"internalType": "bool",
							"name": "",
							"type": "bool"
						}
					],
					"stateMutability": "view",
					"type": "function"
				},
				{
					"inputs": [
						{
							"internalType": "address",
							"name": "_feeToken",
							"type": "address"
						},
						{
							"internalType": "uint256[]",
							"name": "_periods",
							"type": "uint256[]"
						}
					],
					"name": "initialize",
					"outputs": [],
					"stateMutability": "nonpayable",
					"type": "function"
				},
				{
					"inputs": [],
					"name": "isPaused",
					"outputs": [
						{
							"internalType": "bool",
							"name": "",
							"type": "bool"
						}
					],
					"stateMutability": "view",
					"type": "function"
				},
				{
					"inputs": [],
					"name": "onlyaddress",
					"outputs": [
						{
							"internalType": "address",
							"name": "",
							"type": "address"
						}
					],
					"stateMutability": "view",
					"type": "function"
				},
				{
					"inputs": [],
					"name": "owner",
					"outputs": [
						{
							"internalType": "address",
							"name": "",
							"type": "address"
						}
					],
					"stateMutability": "view",
					"type": "function"
				},
				{
					"inputs": [],
					"name": "pausedTimestamp",
					"outputs": [
						{
							"internalType": "uint256",
							"name": "",
							"type": "uint256"
						}
					],
					"stateMutability": "view",
					"type": "function"
				},
				{
					"inputs": [
						{
							"internalType": "uint256",
							"name": "",
							"type": "uint256"
						}
					],
					"name": "periodPoolMap",
					"outputs": [
						{
							"internalType": "uint256",
							"name": "tvl",
							"type": "uint256"
						},
						{
							"internalType": "uint256",
							"name": "totalAllotedFeeReward",
							"type": "uint256"
						}
					],
					"stateMutability": "view",
					"type": "function"
				},
				{
					"inputs": [],
					"name": "periodSum",
					"outputs": [
						{
							"internalType": "uint256",
							"name": "",
							"type": "uint256"
						}
					],
					"stateMutability": "view",
					"type": "function"
				},
				{
					"inputs": [],
					"name": "poolLength",
					"outputs": [
						{
							"internalType": "uint256",
							"name": "",
							"type": "uint256"
						}
					],
					"stateMutability": "view",
					"type": "function"
				},
				{
					"inputs": [
						{
							"internalType": "uint256",
							"name": "",
							"type": "uint256"
						}
					],
					"name": "pools",
					"outputs": [
						{
							"internalType": "address",
							"name": "token",
							"type": "address"
						},
						{
							"internalType": "address",
							"name": "reward",
							"type": "address"
						},
						{
							"internalType": "uint256",
							"name": "tvl",
							"type": "uint256"
						},
						{
							"internalType": "uint256",
							"name": "totalAllotedReward",
							"type": "uint256"
						},
						{
							"internalType": "uint256",
							"name": "totalClaimedReward",
							"type": "uint256"
						}
					],
					"stateMutability": "view",
					"type": "function"
				},
				{
					"inputs": [
						{
							"internalType": "uint256",
							"name": "amount",
							"type": "uint256"
						}
					],
					"name": "receiveWETHFee",
					"outputs": [],
					"stateMutability": "nonpayable",
					"type": "function"
				},
				{
					"inputs": [],
					"name": "renounceOwnership",
					"outputs": [],
					"stateMutability": "nonpayable",
					"type": "function"
				},
				{
					"inputs": [
						{
							"internalType": "address",
							"name": "_only",
							"type": "address"
						}
					],
					"name": "setOnlyAddress",
					"outputs": [],
					"stateMutability": "nonpayable",
					"type": "function"
				},
				{
					"inputs": [
						{
							"internalType": "uint256",
							"name": "_poolId",
							"type": "uint256"
						},
						{
							"internalType": "uint256",
							"name": "tokenId",
							"type": "uint256"
						},
						{
							"internalType": "uint256",
							"name": "_period",
							"type": "uint256"
						}
					],
					"name": "stake",
					"outputs": [
						{
							"internalType": "uint256",
							"name": "",
							"type": "uint256"
						}
					],
					"stateMutability": "nonpayable",
					"type": "function"
				},
				{
					"inputs": [
						{
							"internalType": "address",
							"name": "",
							"type": "address"
						}
					],
					"name": "tokenPools",
					"outputs": [
						{
							"internalType": "bool",
							"name": "",
							"type": "bool"
						}
					],
					"stateMutability": "view",
					"type": "function"
				},
				{
					"inputs": [],
					"name": "totalReward",
					"outputs": [
						{
							"internalType": "uint256",
							"name": "_totalReward",
							"type": "uint256"
						}
					],
					"stateMutability": "view",
					"type": "function"
				},
				{
					"inputs": [
						{
							"internalType": "address",
							"name": "newOwner",
							"type": "address"
						}
					],
					"name": "transferOwnership",
					"outputs": [],
					"stateMutability": "nonpayable",
					"type": "function"
				},
				{
					"inputs": [
						{
							"internalType": "uint256",
							"name": "_poolId",
							"type": "uint256"
						},
						{
							"components": [
								{
									"internalType": "uint256",
									"name": "period",
									"type": "uint256"
								},
								{
									"internalType": "uint256",
									"name": "APR",
									"type": "uint256"
								}
							],
							"internalType": "struct LPStakingV3.interestRate[]",
							"name": "_periodRates",
							"type": "tuple[]"
						}
					],
					"name": "updateAPR",
					"outputs": [],
					"stateMutability": "nonpayable",
					"type": "function"
				},
				{
					"inputs": [
						{
							"internalType": "address",
							"name": "",
							"type": "address"
						},
						{
							"internalType": "uint256",
							"name": "",
							"type": "uint256"
						}
					],
					"name": "userDepositMap",
					"outputs": [
						{
							"internalType": "uint256",
							"name": "",
							"type": "uint256"
						}
					],
					"stateMutability": "view",
					"type": "function"
				},
				{
					"inputs": [
						{
							"internalType": "uint256",
							"name": "",
							"type": "uint256"
						},
						{
							"internalType": "uint256",
							"name": "",
							"type": "uint256"
						}
					],
					"name": "vestingAPRPerPool",
					"outputs": [
						{
							"internalType": "uint256",
							"name": "",
							"type": "uint256"
						}
					],
					"stateMutability": "view",
					"type": "function"
				},
				{
					"inputs": [
						{
							"internalType": "uint256",
							"name": "_poolId",
							"type": "uint256"
						},
						{
							"internalType": "uint256",
							"name": "_dId",
							"type": "uint256"
						},
						{
							"internalType": "bool",
							"name": "isForceWithdraw",
							"type": "bool"
						}
					],
					"name": "withdraw",
					"outputs": [],
					"stateMutability": "nonpayable",
					"type": "function"
				},
				{
					"inputs": [
						{
							"internalType": "uint256",
							"name": "_poolId",
							"type": "uint256"
						},
						{
							"internalType": "uint256",
							"name": "amount",
							"type": "uint256"
						}
					],
					"name": "withdrawRewardfromPool",
					"outputs": [],
					"stateMutability": "nonpayable",
					"type": "function"
				}
			],
			"devdoc": {
				"kind": "dev",
				"methods": {
					"AdminWETHWithdraw()": {
						"details": "This function is used to withdraw WETH from contract from Admin only"
					},
					"PauseStaking()": {
						"details": "This function allows owner to pause contract."
					},
					"ResumeStaking()": {
						"details": "This function allows owner to resume contract."
					},
					"addPool(address,address,(uint256,uint256)[])": {
						"details": "This function will create new pool, access type is onlyOwner",
						"params": {
							"_periodRates": "APR percentage * 1000 for this pool.",
							"_reward": "Staking reward token address for this pool",
							"_token": "Staking token address for this pool. "
						}
					},
					"addRewardToPool(uint256,uint256)": {
						"details": "This funciton allows owner to add more reward amount to  this contract.",
						"params": {
							"_poolId": "pool's Id in which you want to add this reward.",
							"amount": "amount to be transfered from owner's wallet to this contract."
						}
					},
					"calculateReward(address,uint256,bool)": {
						"details": "This function is used to calculate Total reward for stakeHolder for pool",
						"params": {
							"_dId": "deposit id for reward calculation",
							"_stakeHolder": "The address of stakeHolder to calculate Total reward",
							"isProrata": "to calculate on prorata basis"
						},
						"returns": {
							"reward": "total reward"
						}
					},
					"getAccMarketFee()": {
						"details": "Function to get balance of this contract WETH market fee",
						"returns": {
							"_0": "uint balance of weth in wei"
						}
					},
					"getHavestAmount(address,uint256)": {
						"details": "Calculates users deposits WETH market fee reward",
						"returns": {
							"_0": "reward Total unclaimed WETH reward till now for specific deposit Id"
						}
					},
					"haveSuffecientFundsForReward(uint256)": {
						"details": "Function to check if contract have suffecient reward allowance or not",
						"params": {
							"_poolId": "The pool for which you want to check reward availibility"
						},
						"returns": {
							"_0": "True if have sufficient allowance for paying all the rewards"
						}
					},
					"owner()": {
						"details": "Returns the address of the current owner."
					},
					"poolLength()": {
						"details": "This funtion will return the length of pools\\ which will be used to loop and get pool details.",
						"returns": {
							"_0": "Length of pool."
						}
					},
					"receiveWETHFee(uint256)": {
						"params": {
							"amount": "to deposit"
						}
					},
					"renounceOwnership()": {
						"details": "Leaves the contract without owner. It will not be possible to call `onlyOwner` functions anymore. Can only be called by the current owner. NOTE: Renouncing ownership will leave the contract without an owner, thereby removing any functionality that is only available to the owner."
					},
					"stake(uint256,uint256,uint256)": {
						"details": "Allows user to stake the amount the pool. Calculate the old reward\\ and updates the reward, staked amount and current APR.",
						"params": {
							"_poolId": "The pool in which user wants to stake.",
							"tokenId": "The amount user wants to add into his stake."
						}
					},
					"totalReward()": {
						"details": "Calculate and return total undelivered rewards till now.",
						"returns": {
							"_totalReward": "Total unclaimed reward till now."
						}
					},
					"transferOwnership(address)": {
						"details": "Transfers ownership of the contract to a new account (`newOwner`). Can only be called by the current owner."
					},
					"updateAPR(uint256,(uint256,uint256)[])": {
						"details": "This function allows owner to update APR for specific pool.",
						"params": {
							"_periodRates": "New APR percentage * 1000.",
							"_poolId": "pool's Id in which you want to update the APR."
						}
					},
					"withdraw(uint256,uint256,bool)": {
						"details": "Calculate the current reward and unstake the stake token, Transefer it to sender and update reward to 0",
						"params": {
							"_dId": "deposit id for getting reward fot deposit.",
							"_poolId": "Pool from which user want to claim the reward.",
							"isForceWithdraw": "bool flag for emergency withdraw."
						}
					},
					"withdrawRewardfromPool(uint256,uint256)": {
						"details": "This funciton allows owner to withdraw allotted reward amount from this contract.",
						"params": {
							"_poolId": "pool's Id in which you want to withdraw this reward.",
							"amount": "amount to be withdraw from contract to owner's wallet."
						}
					}
				},
				"version": 1
			},
			"evm": {
				"assembly": "    /* \"LPStaking.sol\":1433:22608  contract LPStakingV3 is Initializable, ReentrancyGuardUpgradeable, OwnableUpgradeable {... */\n  mstore(0x40, 0x80)\n  callvalue\n  dup1\n  iszero\n  tag_1\n  jumpi\n  0x00\n  dup1\n  revert\ntag_1:\n  pop\n  dataSize(sub_0)\n  dup1\n  dataOffset(sub_0)\n  0x00\n  codecopy\n  0x00\n  return\nstop\n\nsub_0: assembly {\n        /* \"LPStaking.sol\":1433:22608  contract LPStakingV3 is Initializable, ReentrancyGuardUpgradeable, OwnableUpgradeable {... */\n      mstore(0x40, 0x80)\n      callvalue\n      dup1\n      iszero\n      tag_1\n      jumpi\n      0x00\n      dup1\n      revert\n    tag_1:\n      pop\n      jumpi(tag_2, lt(calldatasize, 0x04))\n      shr(0xe0, calldataload(0x00))\n      dup1\n      0xa54c83f6\n      gt\n      tag_39\n      jumpi\n      dup1\n      0xccd34cd5\n      gt\n      tag_40\n      jumpi\n      dup1\n      0xe7272866\n      gt\n      tag_41\n      jumpi\n      dup1\n      0xe7272866\n      eq\n      tag_34\n      jumpi\n      dup1\n      0xe76ba191\n      eq\n      tag_35\n      jumpi\n      dup1\n      0xe7c928b1\n      eq\n      tag_36\n      jumpi\n      dup1\n      0xf2fde38b\n      eq\n      tag_37\n      jumpi\n      dup1\n      0xf8ce1f31\n      eq\n      tag_38\n      jumpi\n      0x00\n      dup1\n      revert\n    tag_41:\n      dup1\n      0xccd34cd5\n      eq\n      tag_30\n      jumpi\n      dup1\n      0xcf5badc6\n      eq\n      tag_31\n      jumpi\n      dup1\n      0xd6d68177\n      eq\n      tag_32\n      jumpi\n      dup1\n      0xe179b5c3\n      eq\n      tag_33\n      jumpi\n      0x00\n      dup1\n      revert\n    tag_40:\n      dup1\n      0xb0203a80\n      gt\n      tag_42\n      jumpi\n      dup1\n      0xb0203a80\n      eq\n      tag_25\n      jumpi\n      dup1\n      0xb187bd26\n      eq\n      tag_26\n      jumpi\n      dup1\n      0xba41795f\n      eq\n      tag_27\n      jumpi\n      dup1\n      0xc3d2c3c1\n      eq\n      tag_28\n      jumpi\n      dup1\n      0xc4b91c4d\n      eq\n      tag_29\n      jumpi\n      0x00\n      dup1\n      revert\n    tag_42:\n      dup1\n      0xa54c83f6\n      eq\n      tag_21\n      jumpi\n      dup1\n      0xa638f2e2\n      eq\n      tag_22\n      jumpi\n      dup1\n      0xac4afa38\n      eq\n      tag_23\n      jumpi\n      dup1\n      0xad5c4648\n      eq\n      tag_24\n      jumpi\n      0x00\n      dup1\n      revert\n    tag_39:\n      dup1\n      0x750142e6\n      gt\n      tag_43\n      jumpi\n      dup1\n      0x911ef508\n      gt\n      tag_44\n      jumpi\n      dup1\n      0x911ef508\n      eq\n      tag_16\n      jumpi\n      dup1\n      0x94f649dd\n      eq\n      tag_17\n      jumpi\n      dup1\n      0x9aaab954\n      eq\n      tag_18\n      jumpi\n      dup1\n      0xa2234080\n      eq\n      tag_19\n      jumpi\n      dup1\n      0xa32a66a7\n      eq\n      tag_20\n      jumpi\n      0x00\n      dup1\n      revert\n    tag_44:\n      dup1\n      0x750142e6\n      eq\n      tag_12\n      jumpi\n      dup1\n      0x82a14459\n      eq\n      tag_13\n      jumpi\n      dup1\n      0x88f67d77\n      eq\n      tag_14\n      jumpi\n      dup1\n      0x8da5cb5b\n      eq\n      tag_15\n      jumpi\n      0x00\n      dup1\n      revert\n    tag_43:\n      dup1\n      0x24a723d4\n      gt\n      tag_45\n      jumpi\n      dup1\n      0x24a723d4\n      eq\n      tag_7\n      jumpi\n      dup1\n      0x2c86714c\n      eq\n      tag_8\n      jumpi\n      dup1\n      0x33cfcd3b\n      eq\n      tag_9\n      jumpi\n      dup1\n      0x715018a6\n      eq\n      tag_10\n      jumpi\n      dup1\n      0x73f64499\n      eq\n      tag_11\n      jumpi\n      0x00\n      dup1\n      revert\n    tag_45:\n      dup1\n      0x081e3eda\n      eq\n      tag_3\n      jumpi\n      dup1\n      0x0c756997\n      eq\n      tag_4\n      jumpi\n      dup1\n      0x110d458e\n      eq\n      tag_5\n      jumpi\n      dup1\n      0x1ee7f3c4\n      eq\n      tag_6\n      jumpi\n    tag_2:\n      0x00\n      dup1\n      revert\n        /* \"LPStaking.sol\":7590:7678  function poolLength() public view returns (uint256) {... */\n    tag_3:\n        /* \"LPStaking.sol\":7659:7664  pools */\n      0xa1\n        /* \"LPStaking.sol\":7659:7671  pools.length */\n      sload\n        /* \"LPStaking.sol\":7590:7678  function poolLength() public view returns (uint256) {... */\n    tag_46:\n      mload(0x40)\n        /* \"#utility.yul\":160:185   */\n      swap1\n      dup2\n      mstore\n        /* \"#utility.yul\":148:150   */\n      0x20\n        /* \"#utility.yul\":133:151   */\n      add\n        /* \"LPStaking.sol\":7590:7678  function poolLength() public view returns (uint256) {... */\n    tag_48:\n      mload(0x40)\n      dup1\n      swap2\n      sub\n      swap1\n      return\n        /* \"LPStaking.sol\":7974:8242  function updateAPR(uint256 _poolId, interestRate[] memory _periodRates) public onlyOwner poolExists(_poolId) {... */\n    tag_4:\n      tag_50\n      tag_51\n      calldatasize\n      0x04\n      tag_52\n      jump\t// in\n    tag_51:\n      tag_53\n      jump\t// in\n    tag_50:\n      stop\n        /* \"LPStaking.sol\":1820:1846  address public onlyaddress */\n    tag_5:\n      sload(0x99)\n      tag_54\n      swap1\n      sub(shl(0xa0, 0x01), 0x01)\n      and\n      dup2\n      jump\n    tag_54:\n      mload(0x40)\n      sub(shl(0xa0, 0x01), 0x01)\n        /* \"#utility.yul\":2661:2693   */\n      swap1\n      swap2\n      and\n        /* \"#utility.yul\":2643:2694   */\n      dup2\n      mstore\n        /* \"#utility.yul\":2631:2633   */\n      0x20\n        /* \"#utility.yul\":2616:2634   */\n      add\n        /* \"LPStaking.sol\":1820:1846  address public onlyaddress */\n      tag_48\n        /* \"#utility.yul\":2497:2700   */\n      jump\n        /* \"LPStaking.sol\":8248:8387  function getAPR(uint256 _poolId, uint256 _period) public view returns (uint256) {... */\n    tag_6:\n      tag_46\n      tag_59\n      calldatasize\n      0x04\n      tag_60\n      jump\t// in\n    tag_59:\n        /* \"LPStaking.sol\":8319:8326  uint256 */\n      0x00\n        /* \"LPStaking.sol\":8345:8371  vestingAPRPerPool[_poolId] */\n      swap2\n      dup3\n      mstore\n        /* \"LPStaking.sol\":8345:8362  vestingAPRPerPool */\n      0x9c\n        /* \"LPStaking.sol\":8345:8371  vestingAPRPerPool[_poolId] */\n      0x20\n      swap1\n      dup2\n      mstore\n      0x40\n      dup1\n      dup5\n      keccak256\n        /* \"LPStaking.sol\":8345:8380  vestingAPRPerPool[_poolId][_period] */\n      swap3\n      dup5\n      mstore\n      swap2\n      swap1\n      mstore\n      swap1\n      keccak256\n      sload\n      swap1\n        /* \"LPStaking.sol\":8248:8387  function getAPR(uint256 _poolId, uint256 _period) public view returns (uint256) {... */\n      jump\n        /* \"LPStaking.sol\":19885:20765  function getHavestAmount(address _user, uint256 _dId) public view returns (uint256) {... */\n    tag_7:\n      tag_46\n      tag_64\n      calldatasize\n      0x04\n      tag_65\n      jump\t// in\n    tag_64:\n      tag_66\n      jump\t// in\n        /* \"LPStaking.sol\":11058:11313  function AdminWETHWithdraw() external onlyOwner nonReentrant {... */\n    tag_8:\n      tag_50\n      tag_69\n      jump\t// in\n        /* \"LPStaking.sol\":16537:18726  function withdraw(... */\n    tag_9:\n      tag_50\n      tag_71\n      calldatasize\n      0x04\n      tag_72\n      jump\t// in\n    tag_71:\n      tag_73\n      jump\t// in\n        /* \"@openzeppelin/contracts-upgradeable/access/OwnableUpgradeable.sol\":1908:2009  function renounceOwnership() public virtual onlyOwner {... */\n    tag_10:\n      tag_50\n      tag_75\n      jump\t// in\n        /* \"LPStaking.sol\":6942:7104  function PauseStaking() public onlyOwner {... */\n    tag_11:\n      tag_50\n      tag_77\n      jump\t// in\n        /* \"LPStaking.sol\":21459:21857  function totalReward() public view returns (uint256 _totalReward) {... */\n    tag_12:\n      tag_46\n      tag_79\n      jump\t// in\n        /* \"LPStaking.sol\":4474:4498  uint256 public periodSum */\n    tag_13:\n      tag_46\n      sload(0xa6)\n      dup2\n      jump\n        /* \"LPStaking.sol\":6307:6862  function addPool(... */\n    tag_14:\n      tag_50\n      tag_85\n      calldatasize\n      0x04\n      tag_86\n      jump\t// in\n    tag_85:\n      tag_87\n      jump\t// in\n        /* \"@openzeppelin/contracts-upgradeable/access/OwnableUpgradeable.sol\":1276:1361  function owner() public view virtual returns (address) {... */\n    tag_15:\n        /* \"@openzeppelin/contracts-upgradeable/access/OwnableUpgradeable.sol\":1348:1354  _owner */\n      and(sub(shl(0xa0, 0x01), 0x01), sload(0x65))\n        /* \"@openzeppelin/contracts-upgradeable/access/OwnableUpgradeable.sol\":1276:1361  function owner() public view virtual returns (address) {... */\n      jump(tag_54)\n        /* \"LPStaking.sol\":4438:4468  uint256 public pausedTimestamp */\n    tag_16:\n      tag_46\n      sload(0xa5)\n      dup2\n      jump\n        /* \"LPStaking.sol\":20771:21226  function getDeposits(address _user) public view returns (stakeDetails[] memory) {... */\n    tag_17:\n      tag_94\n      tag_95\n      calldatasize\n      0x04\n      tag_96\n      jump\t// in\n    tag_95:\n      tag_97\n      jump\t// in\n    tag_94:\n      mload(0x40)\n      tag_48\n      swap2\n      swap1\n      tag_99\n      jump\t// in\n        /* \"LPStaking.sol\":3033:3087  mapping(uint256 => stakeDetails) public depositDetails */\n    tag_18:\n      tag_100\n      tag_101\n      calldatasize\n      0x04\n      tag_102\n      jump\t// in\n    tag_101:\n      mstore(0x20, 0xa0)\n      dup1\n      0x00\n      mstore\n      keccak256(0x00, 0x40)\n      0x00\n      swap2\n      pop\n      swap1\n      pop\n      dup1\n      0x00\n      add\n      sload\n      swap1\n      dup1\n      0x01\n      add\n      sload\n      swap1\n      dup1\n      0x02\n      add\n      sload\n      swap1\n      dup1\n      0x03\n      add\n      sload\n      swap1\n      dup1\n      0x04\n      add\n      sload\n      swap1\n      dup1\n      0x05\n      add\n      sload\n      swap1\n      dup1\n      0x06\n      add\n      sload\n      swap1\n      dup1\n      0x07\n      add\n      sload\n      swap1\n      dup1\n      0x08\n      add\n      sload\n      swap1\n      pop\n      dup10\n      jump\n    tag_100:\n      0x40\n      dup1\n      mload\n        /* \"#utility.yul\":6740:6765   */\n      swap10\n      dup11\n      mstore\n        /* \"#utility.yul\":6796:6798   */\n      0x20\n        /* \"#utility.yul\":6781:6799   */\n      dup11\n      add\n        /* \"#utility.yul\":6774:6808   */\n      swap9\n      swap1\n      swap9\n      mstore\n        /* \"#utility.yul\":6824:6842   */\n      swap7\n      dup9\n      add\n        /* \"#utility.yul\":6817:6851   */\n      swap6\n      swap1\n      swap6\n      mstore\n        /* \"#utility.yul\":6882:6884   */\n      0x60\n        /* \"#utility.yul\":6867:6885   */\n      dup8\n      add\n        /* \"#utility.yul\":6860:6894   */\n      swap4\n      swap1\n      swap4\n      mstore\n        /* \"#utility.yul\":6925:6928   */\n      0x80\n        /* \"#utility.yul\":6910:6929   */\n      dup7\n      add\n        /* \"#utility.yul\":6903:6938   */\n      swap2\n      swap1\n      swap2\n      mstore\n        /* \"#utility.yul\":6969:6972   */\n      0xa0\n        /* \"#utility.yul\":6954:6973   */\n      dup6\n      add\n        /* \"#utility.yul\":6947:6982   */\n      mstore\n        /* \"#utility.yul\":7013:7016   */\n      0xc0\n        /* \"#utility.yul\":6998:7017   */\n      dup5\n      add\n        /* \"#utility.yul\":6991:7026   */\n      mstore\n        /* \"#utility.yul\":7057:7060   */\n      0xe0\n        /* \"#utility.yul\":7042:7061   */\n      dup4\n      add\n        /* \"#utility.yul\":7035:7070   */\n      mstore\n        /* \"#utility.yul\":7101:7104   */\n      0x0100\n        /* \"#utility.yul\":7086:7105   */\n      dup3\n      add\n        /* \"#utility.yul\":7079:7114   */\n      mstore\n        /* \"#utility.yul\":6727:6730   */\n      0x0120\n        /* \"#utility.yul\":6712:6731   */\n      add\n        /* \"LPStaking.sol\":3033:3087  mapping(uint256 => stakeDetails) public depositDetails */\n      tag_48\n        /* \"#utility.yul\":6369:7120   */\n      jump\n        /* \"LPStaking.sol\":5509:5603  function setOnlyAddress(address _only) external onlyOwner {... */\n    tag_19:\n      tag_50\n      tag_107\n      calldatasize\n      0x04\n      tag_96\n      jump\t// in\n    tag_107:\n      tag_108\n      jump\t// in\n        /* \"LPStaking.sol\":2595:2667  mapping(uint256 => mapping(uint256 => uint256)) public vestingAPRPerPool */\n    tag_20:\n      tag_46\n      tag_110\n      calldatasize\n      0x04\n      tag_60\n      jump\t// in\n    tag_110:\n      0x9c\n      0x20\n      swap1\n      dup2\n      mstore\n      0x00\n      swap3\n      dup4\n      mstore\n      0x40\n      dup1\n      dup5\n      keccak256\n      swap1\n      swap2\n      mstore\n      swap1\n      dup3\n      mstore\n      swap1\n      keccak256\n      sload\n      dup2\n      jump\n        /* \"LPStaking.sol\":8718:9347  function withdrawRewardfromPool(uint256 _poolId, uint256 amount) public onlyOwner poolExists(_poolId) {... */\n    tag_21:\n      tag_50\n      tag_114\n      calldatasize\n      0x04\n      tag_60\n      jump\t// in\n    tag_114:\n      tag_115\n      jump\t// in\n        /* \"LPStaking.sol\":13943:16005  function stake(... */\n    tag_22:\n      tag_46\n      tag_117\n      calldatasize\n      0x04\n      tag_118\n      jump\t// in\n    tag_117:\n      tag_119\n      jump\t// in\n        /* \"LPStaking.sol\":4160:4186  stakingPool[] public pools */\n    tag_23:\n      tag_121\n      tag_122\n      calldatasize\n      0x04\n      tag_102\n      jump\t// in\n    tag_122:\n      tag_123\n      jump\t// in\n    tag_121:\n      0x40\n      dup1\n      mload\n      sub(shl(0xa0, 0x01), 0x01)\n        /* \"#utility.yul\":7761:7776   */\n      swap7\n      dup8\n      and\n        /* \"#utility.yul\":7743:7777   */\n      dup2\n      mstore\n        /* \"#utility.yul\":7813:7828   */\n      swap6\n      swap1\n      swap5\n      and\n        /* \"#utility.yul\":7808:7810   */\n      0x20\n        /* \"#utility.yul\":7793:7811   */\n      dup7\n      add\n        /* \"#utility.yul\":7786:7829   */\n      mstore\n        /* \"#utility.yul\":7845:7863   */\n      swap3\n      dup5\n      add\n        /* \"#utility.yul\":7838:7872   */\n      swap2\n      swap1\n      swap2\n      mstore\n        /* \"#utility.yul\":7903:7905   */\n      0x60\n        /* \"#utility.yul\":7888:7906   */\n      dup4\n      add\n        /* \"#utility.yul\":7881:7915   */\n      mstore\n        /* \"#utility.yul\":7946:7949   */\n      0x80\n        /* \"#utility.yul\":7931:7950   */\n      dup3\n      add\n        /* \"#utility.yul\":7924:7959   */\n      mstore\n        /* \"#utility.yul\":7692:7695   */\n      0xa0\n        /* \"#utility.yul\":7677:7696   */\n      add\n        /* \"LPStaking.sol\":4160:4186  stakingPool[] public pools */\n      tag_48\n        /* \"#utility.yul\":7446:7965   */\n      jump\n        /* \"LPStaking.sol\":1852:1881  IERC20Upgradeable public WETH */\n    tag_24:\n      sload(0x9a)\n      tag_54\n      swap1\n      sub(shl(0xa0, 0x01), 0x01)\n      and\n      dup2\n      jump\n        /* \"LPStaking.sol\":22496:22606  function getAccMarketFee() public view returns (uint256) {... */\n    tag_25:\n      tag_46\n      tag_131\n      jump\t// in\n        /* \"LPStaking.sol\":4412:4432  bool public isPaused */\n    tag_26:\n      sload(0xa4)\n      tag_133\n      swap1\n      0xff\n      and\n      dup2\n      jump\n    tag_133:\n      mload(0x40)\n        /* \"#utility.yul\":8368:8382   */\n      swap1\n      iszero\n        /* \"#utility.yul\":8361:8383   */\n      iszero\n        /* \"#utility.yul\":8343:8384   */\n      dup2\n      mstore\n        /* \"#utility.yul\":8331:8333   */\n      0x20\n        /* \"#utility.yul\":8316:8334   */\n      add\n        /* \"LPStaking.sol\":4412:4432  bool public isPaused */\n      tag_48\n        /* \"#utility.yul\":8203:8390   */\n      jump\n        /* \"LPStaking.sol\":13280:13590  function calculateReward(... */\n    tag_27:\n      tag_46\n      tag_138\n      calldatasize\n      0x04\n      tag_139\n      jump\t// in\n    tag_138:\n      tag_140\n      jump\t// in\n        /* \"LPStaking.sol\":2854:2896  mapping(address => bool) public tokenPools */\n    tag_28:\n      tag_133\n      tag_143\n      calldatasize\n      0x04\n      tag_96\n      jump\t// in\n    tag_143:\n      mstore(0x20, 0x9d)\n      0x00\n      swap1\n      dup2\n      mstore\n      0x40\n      swap1\n      keccak256\n      sload\n      0xff\n      and\n      dup2\n      jump\n        /* \"LPStaking.sol\":4227:4278  mapping(uint256 => periodPool) public periodPoolMap */\n    tag_29:\n      tag_146\n      tag_147\n      calldatasize\n      0x04\n      tag_102\n      jump\t// in\n    tag_147:\n      mstore(0x20, 0xa2)\n      0x00\n      swap1\n      dup2\n      mstore\n      0x40\n      swap1\n      keccak256\n      dup1\n      sload\n      0x01\n      swap1\n      swap2\n      add\n      sload\n      dup3\n      jump\n    tag_146:\n      0x40\n      dup1\n      mload\n        /* \"#utility.yul\":9024:9049   */\n      swap3\n      dup4\n      mstore\n        /* \"#utility.yul\":9080:9082   */\n      0x20\n        /* \"#utility.yul\":9065:9083   */\n      dup4\n      add\n        /* \"#utility.yul\":9058:9092   */\n      swap2\n      swap1\n      swap2\n      mstore\n        /* \"#utility.yul\":8997:9015   */\n      add\n        /* \"LPStaking.sol\":4227:4278  mapping(uint256 => periodPool) public periodPoolMap */\n      tag_48\n        /* \"#utility.yul\":8850:9098   */\n      jump\n        /* \"LPStaking.sol\":4525:4574  uint256 public constant PRECISION_FACTOR = 10**18 */\n    tag_30:\n      tag_46\n        /* \"LPStaking.sol\":4568:4574  10**18 */\n      0x0de0b6b3a7640000\n        /* \"LPStaking.sol\":4525:4574  uint256 public constant PRECISION_FACTOR = 10**18 */\n      dup2\n      jump\n        /* \"LPStaking.sol\":22205:22361  function haveSuffecientFundsForReward(uint256 _poolId) public view returns (bool) {... */\n    tag_31:\n      tag_133\n      tag_155\n      calldatasize\n      0x04\n      tag_102\n      jump\t// in\n    tag_155:\n      tag_156\n      jump\t// in\n        /* \"LPStaking.sol\":2902:2970  mapping(address => mapping(uint256 => stakeDetails)) public deposits */\n    tag_32:\n      tag_100\n      tag_159\n      calldatasize\n      0x04\n      tag_65\n      jump\t// in\n    tag_159:\n      mstore(0x20, 0x9e)\n      dup2\n      0x00\n      mstore\n      mstore(0x20, keccak256(0x00, 0x40))\n      dup1\n      0x00\n      mstore\n      keccak256(0x00, 0x40)\n      0x00\n      swap2\n      pop\n      swap2\n      pop\n      pop\n      dup1\n      0x00\n      add\n      sload\n      swap1\n      dup1\n      0x01\n      add\n      sload\n      swap1\n      dup1\n      0x02\n      add\n      sload\n      swap1\n      dup1\n      0x03\n      add\n      sload\n      swap1\n      dup1\n      0x04\n      add\n      sload\n      swap1\n      dup1\n      0x05\n      add\n      sload\n      swap1\n      dup1\n      0x06\n      add\n      sload\n      swap1\n      dup1\n      0x07\n      add\n      sload\n      swap1\n      dup1\n      0x08\n      add\n      sload\n      swap1\n      pop\n      dup10\n      jump\n        /* \"LPStaking.sol\":7185:7353  function ResumeStaking() public onlyOwner {... */\n    tag_33:\n      tag_50\n      tag_163\n      jump\t// in\n        /* \"LPStaking.sol\":5014:5358  function initialize(... */\n    tag_34:\n      tag_50\n      tag_165\n      calldatasize\n      0x04\n      tag_166\n      jump\t// in\n    tag_165:\n      tag_167\n      jump\t// in\n        /* \"LPStaking.sol\":2976:3027  mapping(address => uint256[]) public userDepositMap */\n    tag_35:\n      tag_46\n      tag_169\n      calldatasize\n      0x04\n      tag_65\n      jump\t// in\n    tag_169:\n      tag_170\n      jump\t// in\n        /* \"LPStaking.sol\":10372:10954  function receiveWETHFee(uint256 amount) external onlyAddress nonReentrant {... */\n    tag_36:\n      tag_50\n      tag_173\n      calldatasize\n      0x04\n      tag_102\n      jump\t// in\n    tag_173:\n      tag_174\n      jump\t// in\n        /* \"@openzeppelin/contracts-upgradeable/access/OwnableUpgradeable.sol\":2158:2356  function transferOwnership(address newOwner) public virtual onlyOwner {... */\n    tag_37:\n      tag_50\n      tag_176\n      calldatasize\n      0x04\n      tag_96\n      jump\t// in\n    tag_176:\n      tag_177\n      jump\t// in\n        /* \"LPStaking.sol\":9672:10259  function addRewardToPool(uint256 _poolId, uint256 amount) public onlyOwner poolExists(_poolId) {... */\n    tag_38:\n      tag_50\n      tag_179\n      calldatasize\n      0x04\n      tag_60\n      jump\t// in\n    tag_179:\n      tag_180\n      jump\t// in\n        /* \"LPStaking.sol\":7974:8242  function updateAPR(uint256 _poolId, interestRate[] memory _periodRates) public onlyOwner poolExists(_poolId) {... */\n    tag_53:\n        /* \"@openzeppelin/contracts-upgradeable/access/OwnableUpgradeable.sol\":1348:1354  _owner */\n      and(sub(shl(0xa0, 0x01), 0x01), sload(0x65))\n        /* \"@openzeppelin/contracts-upgradeable/utils/ContextUpgradeable.sol\":929:939  msg.sender */\n      caller\n        /* \"@openzeppelin/contracts-upgradeable/access/OwnableUpgradeable.sol\":1488:1511  owner() == _msgSender() */\n      eq\n        /* \"@openzeppelin/contracts-upgradeable/access/OwnableUpgradeable.sol\":1480:1548  require(owner() == _msgSender(), \"Ownable: caller is not the owner\") */\n      tag_186\n      jumpi\n      mload(0x40)\n      shl(0xe5, 0x461bcd)\n      dup2\n      mstore\n      0x04\n      add\n      tag_187\n      swap1\n      tag_188\n      jump\t// in\n    tag_187:\n      mload(0x40)\n      dup1\n      swap2\n      sub\n      swap1\n      revert\n    tag_186:\n        /* \"LPStaking.sol\":4739:4744  pools */\n      0xa1\n        /* \"LPStaking.sol\":4739:4751  pools.length */\n      sload\n        /* \"LPStaking.sol\":8074:8081  _poolId */\n      dup3\n      swap1\n        /* \"LPStaking.sol\":4729:4751  _poolId < pools.length */\n      dup2\n      lt\n        /* \"LPStaking.sol\":4721:4784  require(_poolId < pools.length, \"Staking: Pool doesn't exists\") */\n      tag_190\n      jumpi\n      mload(0x40)\n      shl(0xe5, 0x461bcd)\n      dup2\n      mstore\n      0x04\n      add\n      tag_187\n      swap1\n      tag_192\n      jump\t// in\n    tag_190:\n        /* \"LPStaking.sol\":8098:8107  uint256 i */\n      0x00\n        /* \"LPStaking.sol\":8093:8236  for (uint256 i; i < _periodRates.length; i++) {... */\n    tag_194:\n        /* \"LPStaking.sol\":8113:8125  _periodRates */\n      dup3\n        /* \"LPStaking.sol\":8113:8132  _periodRates.length */\n      mload\n        /* \"LPStaking.sol\":8109:8110  i */\n      dup2\n        /* \"LPStaking.sol\":8109:8132  i < _periodRates.length */\n      lt\n        /* \"LPStaking.sol\":8093:8236  for (uint256 i; i < _periodRates.length; i++) {... */\n      iszero\n      tag_195\n      jumpi\n        /* \"LPStaking.sol\":8206:8218  _periodRates */\n      dup3\n        /* \"LPStaking.sol\":8219:8220  i */\n      dup2\n        /* \"LPStaking.sol\":8206:8221  _periodRates[i] */\n      dup2\n      mload\n      dup2\n      lt\n      tag_198\n      jumpi\n      tag_198\n      tag_199\n      jump\t// in\n    tag_198:\n      0x20\n      mul\n      0x20\n      add\n      add\n      mload\n        /* \"LPStaking.sol\":8206:8225  _periodRates[i].APR */\n      0x20\n      add\n      mload\n        /* \"LPStaking.sol\":8153:8170  vestingAPRPerPool */\n      0x9c\n        /* \"LPStaking.sol\":8153:8179  vestingAPRPerPool[_poolId] */\n      0x00\n        /* \"LPStaking.sol\":8171:8178  _poolId */\n      dup7\n        /* \"LPStaking.sol\":8153:8179  vestingAPRPerPool[_poolId] */\n      dup2\n      mstore\n      0x20\n      add\n      swap1\n      dup2\n      mstore\n      0x20\n      add\n      0x00\n      keccak256\n        /* \"LPStaking.sol\":8153:8203  vestingAPRPerPool[_poolId][_periodRates[i].period] */\n      0x00\n        /* \"LPStaking.sol\":8180:8192  _periodRates */\n      dup6\n        /* \"LPStaking.sol\":8193:8194  i */\n      dup5\n        /* \"LPStaking.sol\":8180:8195  _periodRates[i] */\n      dup2\n      mload\n      dup2\n      lt\n      tag_201\n      jumpi\n      tag_201\n      tag_199\n      jump\t// in\n    tag_201:\n      0x20\n      mul\n      0x20\n      add\n      add\n      mload\n        /* \"LPStaking.sol\":8180:8202  _periodRates[i].period */\n      0x00\n      add\n      mload\n        /* \"LPStaking.sol\":8153:8203  vestingAPRPerPool[_poolId][_periodRates[i].period] */\n      dup2\n      mstore\n      0x20\n      add\n      swap1\n      dup2\n      mstore\n      0x20\n      add\n      0x00\n      keccak256\n        /* \"LPStaking.sol\":8153:8225  vestingAPRPerPool[_poolId][_periodRates[i].period] = _periodRates[i].APR */\n      dup2\n      swap1\n      sstore\n      pop\n        /* \"LPStaking.sol\":8134:8137  i++ */\n      dup1\n      dup1\n      tag_202\n      swap1\n      tag_203\n      jump\t// in\n    tag_202:\n      swap2\n      pop\n      pop\n        /* \"LPStaking.sol\":8093:8236  for (uint256 i; i < _periodRates.length; i++) {... */\n      jump(tag_194)\n    tag_195:\n      pop\n        /* \"@openzeppelin/contracts-upgradeable/access/OwnableUpgradeable.sol\":1558:1559  _ */\n      pop\n        /* \"LPStaking.sol\":7974:8242  function updateAPR(uint256 _poolId, interestRate[] memory _periodRates) public onlyOwner poolExists(_poolId) {... */\n      pop\n      pop\n      jump\t// out\n        /* \"LPStaking.sol\":19885:20765  function getHavestAmount(address _user, uint256 _dId) public view returns (uint256) {... */\n    tag_66:\n      sub(shl(0xa0, 0x01), 0x01)\n        /* \"LPStaking.sol\":20009:20024  deposits[_user] */\n      dup3\n      and\n        /* \"LPStaking.sol\":19960:19967  uint256 */\n      0x00\n        /* \"LPStaking.sol\":20009:20024  deposits[_user] */\n      swap1\n      dup2\n      mstore\n        /* \"LPStaking.sol\":20009:20017  deposits */\n      0x9e\n        /* \"LPStaking.sol\":20009:20024  deposits[_user] */\n      0x20\n      swap1\n      dup2\n      mstore\n      0x40\n      dup1\n      dup4\n      keccak256\n        /* \"LPStaking.sol\":20009:20030  deposits[_user][_dId] */\n      dup5\n      dup5\n      mstore\n      dup3\n      mstore\n      dup1\n      dup4\n      keccak256\n        /* \"LPStaking.sol\":19979:20030  stakeDetails memory deposit = deposits[_user][_dId] */\n      dup2\n      mload\n      0x0120\n      dup2\n      add\n      dup4\n      mstore\n      dup2\n      sload\n      dup2\n      mstore\n      0x01\n      dup3\n      add\n      sload\n      dup2\n      dup6\n      add\n      mstore\n      0x02\n      dup3\n      add\n      sload\n      swap3\n      dup2\n      add\n      swap3\n      swap1\n      swap3\n      mstore\n      0x03\n      dup2\n      add\n      sload\n      0x60\n      dup4\n      add\n      mstore\n      0x04\n      dup2\n      add\n      sload\n      0x80\n      dup4\n      add\n      mstore\n      0x05\n      dup2\n      add\n      sload\n      0xa0\n      dup4\n      add\n      mstore\n      0x06\n      dup2\n      add\n      sload\n      0xc0\n      dup4\n      add\n      mstore\n      0x07\n      dup2\n      add\n      sload\n      0xe0\n      dup4\n      add\n      dup2\n      swap1\n      mstore\n      0x08\n      swap1\n      swap2\n      add\n      sload\n      0x0100\n      dup4\n      add\n      mstore\n        /* \"LPStaking.sol\":20111:20134  periodPoolMap[locktime] */\n      dup1\n      dup5\n      mstore\n        /* \"LPStaking.sol\":20111:20124  periodPoolMap */\n      0xa2\n        /* \"LPStaking.sol\":20111:20134  periodPoolMap[locktime] */\n      swap1\n      swap3\n      mstore\n        /* \"LPStaking.sol\":19979:20030  stakeDetails memory deposit = deposits[_user][_dId] */\n      swap1\n        /* \"LPStaking.sol\":20205:20231  uint256 feeRewardPerSecond */\n      0x00\n        /* \"LPStaking.sol\":20245:20253  locktime */\n      dup2\n        /* \"LPStaking.sol\":20257:20258  0 */\n      0x00\n        /* \"LPStaking.sol\":20245:20258  locktime == 0 */\n      sub\n        /* \"LPStaking.sol\":20241:20503  if (locktime == 0) {... */\n      tag_208\n      jumpi\n        /* \"LPStaking.sol\":20363:20364  1 */\n      0x01\n        /* \"LPStaking.sol\":20358:20360  30 */\n      0x1e\n        /* \"LPStaking.sol\":20353:20355  24 */\n      0x18\n        /* \"LPStaking.sol\":20348:20350  60 */\n      0x3c\n        /* \"LPStaking.sol\":20343:20345  60 */\n      dup1\n        /* \"LPStaking.sol\":20295:20308  periodPoolMap */\n      0xa2\n        /* \"LPStaking.sol\":20295:20318  periodPoolMap[locktime] */\n      0x00\n        /* \"LPStaking.sol\":20309:20317  locktime */\n      dup9\n        /* \"LPStaking.sol\":20295:20318  periodPoolMap[locktime] */\n      dup2\n      mstore\n      0x20\n      add\n      swap1\n      dup2\n      mstore\n      0x20\n      add\n      0x00\n      keccak256\n        /* \"LPStaking.sol\":20295:20340  periodPoolMap[locktime].totalAllotedFeeReward */\n      0x01\n      add\n      sload\n        /* \"LPStaking.sol\":20295:20345  periodPoolMap[locktime].totalAllotedFeeReward / 60 */\n      tag_209\n      swap2\n      swap1\n      tag_210\n      jump\t// in\n    tag_209:\n        /* \"LPStaking.sol\":20295:20350  periodPoolMap[locktime].totalAllotedFeeReward / 60 / 60 */\n      tag_211\n      swap2\n      swap1\n      tag_210\n      jump\t// in\n    tag_211:\n        /* \"LPStaking.sol\":20295:20355  periodPoolMap[locktime].totalAllotedFeeReward / 60 / 60 / 24 */\n      tag_212\n      swap2\n      swap1\n      tag_210\n      jump\t// in\n    tag_212:\n        /* \"LPStaking.sol\":20295:20360  periodPoolMap[locktime].totalAllotedFeeReward / 60 / 60 / 24 / 30 */\n      tag_213\n      swap2\n      swap1\n      tag_210\n      jump\t// in\n    tag_213:\n        /* \"LPStaking.sol\":20295:20364  periodPoolMap[locktime].totalAllotedFeeReward / 60 / 60 / 24 / 30 / 1 */\n      tag_214\n      swap2\n      swap1\n      tag_210\n      jump\t// in\n    tag_214:\n        /* \"LPStaking.sol\":20274:20364  feeRewardPerSecond = periodPoolMap[locktime].totalAllotedFeeReward / 60 / 60 / 24 / 30 / 1 */\n      swap1\n      pop\n        /* \"LPStaking.sol\":20241:20503  if (locktime == 0) {... */\n      jump(tag_215)\n    tag_208:\n        /* \"LPStaking.sol\":20484:20492  locktime */\n      dup2\n        /* \"LPStaking.sol\":20479:20481  30 */\n      0x1e\n        /* \"LPStaking.sol\":20474:20476  24 */\n      0x18\n        /* \"LPStaking.sol\":20469:20471  60 */\n      0x3c\n        /* \"LPStaking.sol\":20464:20466  60 */\n      dup1\n        /* \"LPStaking.sol\":20416:20429  periodPoolMap */\n      0xa2\n        /* \"LPStaking.sol\":20416:20439  periodPoolMap[locktime] */\n      0x00\n        /* \"LPStaking.sol\":20430:20438  locktime */\n      dup9\n        /* \"LPStaking.sol\":20416:20439  periodPoolMap[locktime] */\n      dup2\n      mstore\n      0x20\n      add\n      swap1\n      dup2\n      mstore\n      0x20\n      add\n      0x00\n      keccak256\n        /* \"LPStaking.sol\":20416:20461  periodPoolMap[locktime].totalAllotedFeeReward */\n      0x01\n      add\n      sload\n        /* \"LPStaking.sol\":20416:20466  periodPoolMap[locktime].totalAllotedFeeReward / 60 */\n      tag_216\n      swap2\n      swap1\n      tag_210\n      jump\t// in\n    tag_216:\n        /* \"LPStaking.sol\":20416:20471  periodPoolMap[locktime].totalAllotedFeeReward / 60 / 60 */\n      tag_217\n      swap2\n      swap1\n      tag_210\n      jump\t// in\n    tag_217:\n        /* \"LPStaking.sol\":20416:20476  periodPoolMap[locktime].totalAllotedFeeReward / 60 / 60 / 24 */\n      tag_218\n      swap2\n      swap1\n      tag_210\n      jump\t// in\n    tag_218:\n        /* \"LPStaking.sol\":20416:20481  periodPoolMap[locktime].totalAllotedFeeReward / 60 / 60 / 24 / 30 */\n      tag_219\n      swap2\n      swap1\n      tag_210\n      jump\t// in\n    tag_219:\n        /* \"LPStaking.sol\":20416:20492  periodPoolMap[locktime].totalAllotedFeeReward / 60 / 60 / 24 / 30 / locktime */\n      tag_220\n      swap2\n      swap1\n      tag_210\n      jump\t// in\n    tag_220:\n        /* \"LPStaking.sol\":20395:20492  feeRewardPerSecond = periodPoolMap[locktime].totalAllotedFeeReward / 60 / 60 / 24 / 30 / locktime */\n      swap1\n      pop\n        /* \"LPStaking.sol\":20241:20503  if (locktime == 0) {... */\n    tag_215:\n        /* \"LPStaking.sol\":20512:20533  uint256 pendingReward */\n      0x00\n        /* \"LPStaking.sol\":20587:20605  feeRewardPerSecond */\n      dup2\n        /* \"LPStaking.sol\":20555:20562  deposit */\n      dup5\n        /* \"LPStaking.sol\":20555:20583  deposit.lastRewardCalculated */\n      0xa0\n      add\n      mload\n        /* \"LPStaking.sol\":20537:20552  block.timestamp */\n      timestamp\n        /* \"LPStaking.sol\":20537:20583  block.timestamp - deposit.lastRewardCalculated */\n      tag_221\n      swap2\n      swap1\n      tag_222\n      jump\t// in\n    tag_221:\n        /* \"LPStaking.sol\":20536:20605  (block.timestamp - deposit.lastRewardCalculated) * feeRewardPerSecond */\n      tag_223\n      swap2\n      swap1\n      tag_224\n      jump\t// in\n    tag_223:\n        /* \"LPStaking.sol\":20512:20605  uint256 pendingReward = (block.timestamp - deposit.lastRewardCalculated) * feeRewardPerSecond */\n      swap1\n      pop\n        /* \"LPStaking.sol\":20616:20630  uint256 reward */\n      0x00\n        /* \"LPStaking.sol\":20702:20715  pendingReward */\n      dup2\n        /* \"LPStaking.sol\":20671:20684  periodPoolMap */\n      0xa2\n        /* \"LPStaking.sol\":20671:20694  periodPoolMap[locktime] */\n      0x00\n        /* \"LPStaking.sol\":20685:20693  locktime */\n      dup7\n        /* \"LPStaking.sol\":20671:20694  periodPoolMap[locktime] */\n      dup2\n      mstore\n      0x20\n      add\n      swap1\n      dup2\n      mstore\n      0x20\n      add\n      0x00\n      keccak256\n        /* \"LPStaking.sol\":20671:20698  periodPoolMap[locktime].tvl */\n      0x00\n      add\n      sload\n        /* \"LPStaking.sol\":4568:4574  10**18 */\n      0x0de0b6b3a7640000\n        /* \"LPStaking.sol\":20635:20642  deposit */\n      dup8\n        /* \"LPStaking.sol\":20635:20648  deposit.stake */\n      0x20\n      add\n      mload\n        /* \"LPStaking.sol\":20635:20667  deposit.stake * PRECISION_FACTOR */\n      tag_225\n      swap2\n      swap1\n      tag_224\n      jump\t// in\n    tag_225:\n        /* \"LPStaking.sol\":20634:20698  (deposit.stake * PRECISION_FACTOR) / periodPoolMap[locktime].tvl */\n      tag_226\n      swap2\n      swap1\n      tag_210\n      jump\t// in\n    tag_226:\n        /* \"LPStaking.sol\":20633:20715  ((deposit.stake * PRECISION_FACTOR) / periodPoolMap[locktime].tvl) * pendingReward */\n      tag_227\n      swap2\n      swap1\n      tag_224\n      jump\t// in\n    tag_227:\n        /* \"LPStaking.sol\":20616:20715  uint256 reward = ((deposit.stake * PRECISION_FACTOR) / periodPoolMap[locktime].tvl) * pendingReward */\n      swap1\n      pop\n        /* \"LPStaking.sol\":20733:20758  reward / PRECISION_FACTOR */\n      tag_228\n        /* \"LPStaking.sol\":4568:4574  10**18 */\n      0x0de0b6b3a7640000\n        /* \"LPStaking.sol\":20616:20715  uint256 reward = ((deposit.stake * PRECISION_FACTOR) / periodPoolMap[locktime].tvl) * pendingReward */\n      dup3\n        /* \"LPStaking.sol\":20733:20758  reward / PRECISION_FACTOR */\n      tag_210\n      jump\t// in\n    tag_228:\n        /* \"LPStaking.sol\":20726:20758  return reward / PRECISION_FACTOR */\n      swap9\n        /* \"LPStaking.sol\":19885:20765  function getHavestAmount(address _user, uint256 _dId) public view returns (uint256) {... */\n      swap8\n      pop\n      pop\n      pop\n      pop\n      pop\n      pop\n      pop\n      pop\n      jump\t// out\n        /* \"LPStaking.sol\":11058:11313  function AdminWETHWithdraw() external onlyOwner nonReentrant {... */\n    tag_69:\n        /* \"@openzeppelin/contracts-upgradeable/access/OwnableUpgradeable.sol\":1348:1354  _owner */\n      and(sub(shl(0xa0, 0x01), 0x01), sload(0x65))\n        /* \"@openzeppelin/contracts-upgradeable/utils/ContextUpgradeable.sol\":929:939  msg.sender */\n      caller\n        /* \"@openzeppelin/contracts-upgradeable/access/OwnableUpgradeable.sol\":1488:1511  owner() == _msgSender() */\n      eq\n        /* \"@openzeppelin/contracts-upgradeable/access/OwnableUpgradeable.sol\":1480:1548  require(owner() == _msgSender(), \"Ownable: caller is not the owner\") */\n      tag_232\n      jumpi\n      mload(0x40)\n      shl(0xe5, 0x461bcd)\n      dup2\n      mstore\n      0x04\n      add\n      tag_187\n      swap1\n      tag_188\n      jump\t// in\n    tag_232:\n        /* \"@openzeppelin/contracts-upgradeable/security/ReentrancyGuardUpgradeable.sol\":1815:1816  2 */\n      0x02\n        /* \"@openzeppelin/contracts-upgradeable/security/ReentrancyGuardUpgradeable.sol\":2569:2576  _status */\n      sload(0x01)\n        /* \"@openzeppelin/contracts-upgradeable/security/ReentrancyGuardUpgradeable.sol\":2569:2588  _status != _ENTERED */\n      sub\n        /* \"@openzeppelin/contracts-upgradeable/security/ReentrancyGuardUpgradeable.sol\":2561:2624  require(_status != _ENTERED, \"ReentrancyGuard: reentrant call\") */\n      tag_235\n      jumpi\n      mload(0x40)\n      shl(0xe5, 0x461bcd)\n      dup2\n      mstore\n      0x04\n      add\n      tag_187\n      swap1\n      tag_237\n      jump\t// in\n    tag_235:\n        /* \"@openzeppelin/contracts-upgradeable/security/ReentrancyGuardUpgradeable.sol\":1815:1816  2 */\n      0x02\n        /* \"@openzeppelin/contracts-upgradeable/security/ReentrancyGuardUpgradeable.sol\":2699:2706  _status */\n      0x01\n        /* \"@openzeppelin/contracts-upgradeable/security/ReentrancyGuardUpgradeable.sol\":2699:2717  _status = _ENTERED */\n      sstore\n        /* \"LPStaking.sol\":11152:11156  WETH */\n      sload(0x9a)\n        /* \"LPStaking.sol\":11152:11181  WETH.balanceOf(address(this)) */\n      mload(0x40)\n      shl(0xe0, 0x70a08231)\n      dup2\n      mstore\n        /* \"LPStaking.sol\":11175:11179  this */\n      address\n        /* \"LPStaking.sol\":11152:11181  WETH.balanceOf(address(this)) */\n      0x04\n      dup3\n      add\n        /* \"#utility.yul\":2643:2694   */\n      mstore\n        /* \"LPStaking.sol\":11129:11149  uint256 accMarketFee */\n      0x00\n      swap2\n      sub(shl(0xa0, 0x01), 0x01)\n        /* \"LPStaking.sol\":11152:11156  WETH */\n      and\n      swap1\n        /* \"LPStaking.sol\":11152:11166  WETH.balanceOf */\n      0x70a08231\n      swap1\n        /* \"#utility.yul\":2616:2634   */\n      0x24\n      add\n        /* \"LPStaking.sol\":11152:11181  WETH.balanceOf(address(this)) */\n      0x20\n      mload(0x40)\n      dup1\n      dup4\n      sub\n      dup2\n      dup7\n      gas\n      staticcall\n      iszero\n      dup1\n      iszero\n      tag_241\n      jumpi\n      returndatasize\n      0x00\n      dup1\n      returndatacopy\n      revert(0x00, returndatasize)\n    tag_241:\n      pop\n      pop\n      pop\n      pop\n      mload(0x40)\n      returndatasize\n      not(0x1f)\n      0x1f\n      dup3\n      add\n      and\n      dup3\n      add\n      dup1\n      0x40\n      mstore\n      pop\n      dup2\n      add\n      swap1\n      tag_242\n      swap2\n      swap1\n      tag_243\n      jump\t// in\n    tag_242:\n        /* \"LPStaking.sol\":11191:11195  WETH */\n      sload(0x9a)\n        /* \"LPStaking.sol\":11191:11251  WETH.transferFrom(address(this), _msgSender(), accMarketFee) */\n      mload(0x40)\n      shl(0xe0, 0x23b872dd)\n      dup2\n      mstore\n        /* \"LPStaking.sol\":11129:11181  uint256 accMarketFee = WETH.balanceOf(address(this)) */\n      swap2\n      swap3\n      pop\n      sub(shl(0xa0, 0x01), 0x01)\n        /* \"LPStaking.sol\":11191:11195  WETH */\n      and\n      swap1\n        /* \"LPStaking.sol\":11191:11208  WETH.transferFrom */\n      0x23b872dd\n      swap1\n        /* \"LPStaking.sol\":11191:11251  WETH.transferFrom(address(this), _msgSender(), accMarketFee) */\n      tag_245\n      swap1\n        /* \"LPStaking.sol\":11217:11221  this */\n      address\n      swap1\n        /* \"@openzeppelin/contracts-upgradeable/utils/ContextUpgradeable.sol\":929:939  msg.sender */\n      caller\n      swap1\n        /* \"LPStaking.sol\":11129:11181  uint256 accMarketFee = WETH.balanceOf(address(this)) */\n      dup7\n      swap1\n        /* \"LPStaking.sol\":11191:11251  WETH.transferFrom(address(this), _msgSender(), accMarketFee) */\n      0x04\n      add\n      tag_246\n      jump\t// in\n    tag_245:\n      0x20\n      mload(0x40)\n      dup1\n      dup4\n      sub\n      dup2\n      0x00\n      dup8\n      gas\n      call\n      iszero\n      dup1\n      iszero\n      tag_248\n      jumpi\n      returndatasize\n      0x00\n      dup1\n      returndatacopy\n      revert(0x00, returndatasize)\n    tag_248:\n      pop\n      pop\n      pop\n      pop\n      mload(0x40)\n      returndatasize\n      not(0x1f)\n      0x1f\n      dup3\n      add\n      and\n      dup3\n      add\n      dup1\n      0x40\n      mstore\n      pop\n      dup2\n      add\n      swap1\n      tag_249\n      swap2\n      swap1\n      tag_250\n      jump\t// in\n    tag_249:\n      pop\n        /* \"LPStaking.sol\":11266:11306  WETHWithdraw(_msgSender(), accMarketFee) */\n      mload(0x40)\n        /* \"#utility.yul\":160:185   */\n      dup2\n      dup2\n      mstore\n        /* \"@openzeppelin/contracts-upgradeable/utils/ContextUpgradeable.sol\":929:939  msg.sender */\n      caller\n      swap1\n        /* \"LPStaking.sol\":11266:11306  WETHWithdraw(_msgSender(), accMarketFee) */\n      0x34042597700906fd41b7ead5497c3bf88ef36150597ddd9193327a09f0604f66\n      swap1\n        /* \"#utility.yul\":148:150   */\n      0x20\n        /* \"#utility.yul\":133:151   */\n      add\n        /* \"LPStaking.sol\":11266:11306  WETHWithdraw(_msgSender(), accMarketFee) */\n    tag_252:\n      mload(0x40)\n      dup1\n      swap2\n      sub\n      swap1\n      log2\n      pop\n        /* \"@openzeppelin/contracts-upgradeable/security/ReentrancyGuardUpgradeable.sol\":1772:1773  1 */\n      0x01\n        /* \"@openzeppelin/contracts-upgradeable/security/ReentrancyGuardUpgradeable.sol\":2872:2894  _status = _NOT_ENTERED */\n      dup1\n      sstore\n        /* \"LPStaking.sol\":11058:11313  function AdminWETHWithdraw() external onlyOwner nonReentrant {... */\n      jump\t// out\n        /* \"LPStaking.sol\":16537:18726  function withdraw(... */\n    tag_73:\n        /* \"@openzeppelin/contracts-upgradeable/security/ReentrancyGuardUpgradeable.sol\":1815:1816  2 */\n      0x02\n        /* \"@openzeppelin/contracts-upgradeable/security/ReentrancyGuardUpgradeable.sol\":2569:2576  _status */\n      sload(0x01)\n        /* \"@openzeppelin/contracts-upgradeable/security/ReentrancyGuardUpgradeable.sol\":2569:2588  _status != _ENTERED */\n      sub\n        /* \"@openzeppelin/contracts-upgradeable/security/ReentrancyGuardUpgradeable.sol\":2561:2624  require(_status != _ENTERED, \"ReentrancyGuard: reentrant call\") */\n      tag_254\n      jumpi\n      mload(0x40)\n      shl(0xe5, 0x461bcd)\n      dup2\n      mstore\n      0x04\n      add\n      tag_187\n      swap1\n      tag_237\n      jump\t// in\n    tag_254:\n        /* \"@openzeppelin/contracts-upgradeable/security/ReentrancyGuardUpgradeable.sol\":1815:1816  2 */\n      0x02\n        /* \"@openzeppelin/contracts-upgradeable/security/ReentrancyGuardUpgradeable.sol\":2699:2706  _status */\n      0x01\n        /* \"@openzeppelin/contracts-upgradeable/security/ReentrancyGuardUpgradeable.sol\":2699:2717  _status = _ENTERED */\n      sstore\n        /* \"LPStaking.sol\":16055:16063  isPaused */\n      and(0xff, sload(0xa4))\n        /* \"LPStaking.sol\":16054:16063  !isPaused */\n      iszero\n        /* \"LPStaking.sol\":16046:16084  require(!isPaused, \"contract paused!\") */\n      tag_257\n      jumpi\n      mload(0x40)\n      shl(0xe5, 0x461bcd)\n      dup2\n      mstore\n        /* \"#utility.yul\":13174:13176   */\n      0x20\n        /* \"LPStaking.sol\":16046:16084  require(!isPaused, \"contract paused!\") */\n      0x04\n      dup3\n      add\n        /* \"#utility.yul\":13156:13177   */\n      mstore\n        /* \"#utility.yul\":13213:13215   */\n      0x10\n        /* \"#utility.yul\":13193:13211   */\n      0x24\n      dup3\n      add\n        /* \"#utility.yul\":13186:13216   */\n      mstore\n      shl(0x80, 0x636f6e74726163742070617573656421)\n        /* \"#utility.yul\":13232:13250   */\n      0x44\n      dup3\n      add\n        /* \"#utility.yul\":13225:13271   */\n      mstore\n        /* \"#utility.yul\":13288:13306   */\n      0x64\n      add\n        /* \"LPStaking.sol\":16046:16084  require(!isPaused, \"contract paused!\") */\n      tag_187\n        /* \"#utility.yul\":12972:13312   */\n      jump\n        /* \"LPStaking.sol\":16046:16084  require(!isPaused, \"contract paused!\") */\n    tag_257:\n        /* \"LPStaking.sol\":4739:4744  pools */\n      0xa1\n        /* \"LPStaking.sol\":4739:4751  pools.length */\n      sload\n        /* \"LPStaking.sol\":16685:16692  _poolId */\n      dup4\n      swap1\n        /* \"LPStaking.sol\":4729:4751  _poolId < pools.length */\n      dup2\n      lt\n        /* \"LPStaking.sol\":4721:4784  require(_poolId < pools.length, \"Staking: Pool doesn't exists\") */\n      tag_261\n      jumpi\n      mload(0x40)\n      shl(0xe5, 0x461bcd)\n      dup2\n      mstore\n      0x04\n      add\n      tag_187\n      swap1\n      tag_192\n      jump\t// in\n    tag_261:\n        /* \"LPStaking.sol\":16743:16753  msg.sender */\n      caller\n        /* \"LPStaking.sol\":16704:16731  stakeDetails memory details */\n      0x00\n        /* \"LPStaking.sol\":16734:16754  deposits[msg.sender] */\n      swap1\n      dup2\n      mstore\n        /* \"LPStaking.sol\":16734:16742  deposits */\n      0x9e\n        /* \"LPStaking.sol\":16734:16754  deposits[msg.sender] */\n      0x20\n      swap1\n      dup2\n      mstore\n      0x40\n      dup1\n      dup4\n      keccak256\n        /* \"LPStaking.sol\":16734:16760  deposits[msg.sender][_dId] */\n      dup7\n      dup5\n      mstore\n      dup3\n      mstore\n      dup1\n      dup4\n      keccak256\n        /* \"LPStaking.sol\":16704:16760  stakeDetails memory details = deposits[msg.sender][_dId] */\n      dup2\n      mload\n      0x0120\n      dup2\n      add\n      dup4\n      mstore\n      dup2\n      sload\n      dup2\n      mstore\n      0x01\n      dup3\n      add\n      sload\n      swap4\n      dup2\n      add\n      swap4\n      swap1\n      swap4\n      mstore\n      0x02\n      dup2\n      add\n      sload\n      swap2\n      dup4\n      add\n      swap2\n      swap1\n      swap2\n      mstore\n      0x03\n      dup2\n      add\n      sload\n      0x60\n      dup4\n      add\n      mstore\n      0x04\n      dup2\n      add\n      sload\n      0x80\n      dup4\n      add\n      mstore\n      0x05\n      dup2\n      add\n      sload\n      0xa0\n      dup4\n      add\n      mstore\n      0x06\n      dup2\n      add\n      sload\n      0xc0\n      dup4\n      add\n      mstore\n      0x07\n      dup2\n      add\n      sload\n      0xe0\n      dup4\n      add\n      mstore\n      0x08\n      add\n      sload\n      0x0100\n      dup3\n      add\n      mstore\n      swap1\n        /* \"LPStaking.sol\":16783:16798  isForceWithdraw */\n      dup4\n        /* \"LPStaking.sol\":16783:16840  isForceWithdraw ? true : block.timestamp > details.period */\n      tag_264\n      jumpi\n        /* \"LPStaking.sol\":16826:16833  details */\n      dup2\n        /* \"LPStaking.sol\":16826:16840  details.period */\n      0x80\n      add\n      mload\n        /* \"LPStaking.sol\":16808:16823  block.timestamp */\n      timestamp\n        /* \"LPStaking.sol\":16808:16840  block.timestamp > details.period */\n      gt\n        /* \"LPStaking.sol\":16783:16840  isForceWithdraw ? true : block.timestamp > details.period */\n      jump(tag_265)\n    tag_264:\n        /* \"LPStaking.sol\":16801:16805  true */\n      0x01\n        /* \"LPStaking.sol\":16783:16840  isForceWithdraw ? true : block.timestamp > details.period */\n    tag_265:\n        /* \"LPStaking.sol\":16770:16840  bool check = isForceWithdraw ? true : block.timestamp > details.period */\n      swap1\n      pop\n        /* \"LPStaking.sol\":16874:16875  0 */\n      0x00\n        /* \"LPStaking.sol\":16858:16865  details */\n      dup3\n        /* \"LPStaking.sol\":16858:16871  details.stake */\n      0x20\n      add\n      mload\n        /* \"LPStaking.sol\":16858:16875  details.stake > 0 */\n      gt\n        /* \"LPStaking.sol\":16850:16904  require(details.stake > 0, \"Claim : Nothing to claim\") */\n      tag_266\n      jumpi\n      mload(0x40)\n      shl(0xe5, 0x461bcd)\n      dup2\n      mstore\n        /* \"#utility.yul\":13519:13521   */\n      0x20\n        /* \"LPStaking.sol\":16850:16904  require(details.stake > 0, \"Claim : Nothing to claim\") */\n      0x04\n      dup3\n      add\n        /* \"#utility.yul\":13501:13522   */\n      mstore\n        /* \"#utility.yul\":13558:13560   */\n      0x18\n        /* \"#utility.yul\":13538:13556   */\n      0x24\n      dup3\n      add\n        /* \"#utility.yul\":13531:13561   */\n      mstore\n        /* \"#utility.yul\":13597:13623   */\n      0x436c61696d203a204e6f7468696e6720746f20636c61696d0000000000000000\n        /* \"#utility.yul\":13577:13595   */\n      0x44\n      dup3\n      add\n        /* \"#utility.yul\":13570:13624   */\n      mstore\n        /* \"#utility.yul\":13641:13659   */\n      0x64\n      add\n        /* \"LPStaking.sol\":16850:16904  require(details.stake > 0, \"Claim : Nothing to claim\") */\n      tag_187\n        /* \"#utility.yul\":13317:13665   */\n      jump\n        /* \"LPStaking.sol\":16850:16904  require(details.stake > 0, \"Claim : Nothing to claim\") */\n    tag_266:\n        /* \"LPStaking.sol\":16922:16927  check */\n      dup1\n        /* \"LPStaking.sol\":16914:16982  require(check, \"Claim : cannot withdraw before vesting period ends\") */\n      tag_269\n      jumpi\n      mload(0x40)\n      shl(0xe5, 0x461bcd)\n      dup2\n      mstore\n        /* \"#utility.yul\":13872:13874   */\n      0x20\n        /* \"LPStaking.sol\":16914:16982  require(check, \"Claim : cannot withdraw before vesting period ends\") */\n      0x04\n      dup3\n      add\n        /* \"#utility.yul\":13854:13875   */\n      mstore\n        /* \"#utility.yul\":13911:13913   */\n      0x32\n        /* \"#utility.yul\":13891:13909   */\n      0x24\n      dup3\n      add\n        /* \"#utility.yul\":13884:13914   */\n      mstore\n        /* \"#utility.yul\":13950:13984   */\n      0x436c61696d203a2063616e6e6f74207769746864726177206265666f72652076\n        /* \"#utility.yul\":13930:13948   */\n      0x44\n      dup3\n      add\n        /* \"#utility.yul\":13923:13985   */\n      mstore\n      shl(0x70, 0x657374696e6720706572696f6420656e6473)\n        /* \"#utility.yul\":14001:14019   */\n      0x64\n      dup3\n      add\n        /* \"#utility.yul\":13994:14042   */\n      mstore\n        /* \"#utility.yul\":14059:14078   */\n      0x84\n      add\n        /* \"LPStaking.sol\":16914:16982  require(check, \"Claim : cannot withdraw before vesting period ends\") */\n      tag_187\n        /* \"#utility.yul\":13670:14084   */\n      jump\n        /* \"LPStaking.sol\":16914:16982  require(check, \"Claim : cannot withdraw before vesting period ends\") */\n    tag_269:\n        /* \"LPStaking.sol\":17029:17055  uint256 uncalculatedReward */\n      0x00\n        /* \"LPStaking.sol\":17058:17109  _calculateReward(msg.sender, _dId, isForceWithdraw) */\n      tag_272\n        /* \"LPStaking.sol\":17075:17085  msg.sender */\n      caller\n        /* \"LPStaking.sol\":17087:17091  _dId */\n      dup8\n        /* \"LPStaking.sol\":17093:17108  isForceWithdraw */\n      dup8\n        /* \"LPStaking.sol\":17058:17074  _calculateReward */\n      tag_273\n        /* \"LPStaking.sol\":17058:17109  _calculateReward(msg.sender, _dId, isForceWithdraw) */\n      jump\t// in\n    tag_272:\n        /* \"LPStaking.sol\":17029:17109  uint256 uncalculatedReward = _calculateReward(msg.sender, _dId, isForceWithdraw) */\n      swap1\n      pop\n        /* \"LPStaking.sol\":17120:17134  uint256 reward */\n      0x00\n        /* \"LPStaking.sol\":17154:17172  uncalculatedReward */\n      dup2\n        /* \"LPStaking.sol\":17137:17144  details */\n      dup5\n        /* \"LPStaking.sol\":17137:17151  details.reward */\n      0x40\n      add\n      mload\n        /* \"LPStaking.sol\":17137:17172  details.reward + uncalculatedReward */\n      tag_274\n      swap2\n      swap1\n      tag_275\n      jump\t// in\n    tag_274:\n        /* \"LPStaking.sol\":17120:17172  uint256 reward = details.reward + uncalculatedReward */\n      swap1\n      pop\n        /* \"LPStaking.sol\":17182:17196  uint256 amount */\n      0x00\n        /* \"LPStaking.sol\":17199:17206  details */\n      dup5\n        /* \"LPStaking.sol\":17199:17212  details.stake */\n      0x20\n      add\n      mload\n        /* \"LPStaking.sol\":17182:17212  uint256 amount = details.stake */\n      swap1\n      pop\n        /* \"LPStaking.sol\":17358:17364  reward */\n      dup2\n        /* \"LPStaking.sol\":17315:17320  pools */\n      0xa1\n        /* \"LPStaking.sol\":17321:17328  details */\n      dup7\n        /* \"LPStaking.sol\":17321:17335  details.poolId */\n      0xc0\n      add\n      mload\n        /* \"LPStaking.sol\":17315:17336  pools[details.poolId] */\n      dup2\n      sload\n      dup2\n      lt\n      tag_277\n      jumpi\n      tag_277\n      tag_199\n      jump\t// in\n    tag_277:\n      swap1\n      0x00\n      mstore\n      keccak256(0x00, 0x20)\n      swap1\n      0x05\n      mul\n      add\n        /* \"LPStaking.sol\":17315:17355  pools[details.poolId].totalAllotedReward */\n      0x03\n      add\n      sload\n        /* \"LPStaking.sol\":17315:17364  pools[details.poolId].totalAllotedReward > reward */\n      gt\n        /* \"LPStaking.sol\":17294:17443  require(... */\n      tag_279\n      jumpi\n      mload(0x40)\n      shl(0xe5, 0x461bcd)\n      dup2\n      mstore\n        /* \"#utility.yul\":14424:14426   */\n      0x20\n        /* \"LPStaking.sol\":17294:17443  require(... */\n      0x04\n      dup3\n      add\n        /* \"#utility.yul\":14406:14427   */\n      mstore\n        /* \"#utility.yul\":14463:14465   */\n      0x35\n        /* \"#utility.yul\":14443:14461   */\n      0x24\n      dup3\n      add\n        /* \"#utility.yul\":14436:14466   */\n      mstore\n        /* \"#utility.yul\":14502:14536   */\n      0x5374616b696e673a20496e73756666696369656e742072657761726420616c6c\n        /* \"#utility.yul\":14482:14500   */\n      0x44\n      dup3\n      add\n        /* \"#utility.yul\":14475:14537   */\n      mstore\n      shl(0x59, 0x37bbb0b731b290333937b6903a34329020b236b4b7)\n        /* \"#utility.yul\":14553:14571   */\n      0x64\n      dup3\n      add\n        /* \"#utility.yul\":14546:14597   */\n      mstore\n        /* \"#utility.yul\":14614:14633   */\n      0x84\n      add\n        /* \"LPStaking.sol\":17294:17443  require(... */\n      tag_187\n        /* \"#utility.yul\":14222:14639   */\n      jump\n        /* \"LPStaking.sol\":17294:17443  require(... */\n    tag_279:\n        /* \"LPStaking.sol\":17486:17515  IERC20Upgradeable rewardtoken */\n      0x00\n        /* \"LPStaking.sol\":17536:17541  pools */\n      0xa1\n        /* \"LPStaking.sol\":17542:17549  details */\n      dup7\n        /* \"LPStaking.sol\":17542:17556  details.poolId */\n      0xc0\n      add\n      mload\n        /* \"LPStaking.sol\":17536:17557  pools[details.poolId] */\n      dup2\n      sload\n      dup2\n      lt\n      tag_283\n      jumpi\n      tag_283\n      tag_199\n      jump\t// in\n    tag_283:\n      0x00\n      swap2\n      dup3\n      mstore\n      0x20\n      swap1\n      swap2\n      keccak256\n      0x05\n      swap1\n      swap2\n      mul\n      add\n        /* \"LPStaking.sol\":17536:17564  pools[details.poolId].reward */\n      0x01\n      add\n      sload\n        /* \"LPStaking.sol\":17575:17615  rewardtoken.transfer(msg.sender, reward) */\n      mload(0x40)\n      shl(0xe0, 0xa9059cbb)\n      dup2\n      mstore\n        /* \"LPStaking.sol\":17596:17606  msg.sender */\n      caller\n        /* \"LPStaking.sol\":17575:17615  rewardtoken.transfer(msg.sender, reward) */\n      0x04\n      dup3\n      add\n        /* \"#utility.yul\":14818:14869   */\n      mstore\n        /* \"#utility.yul\":14885:14903   */\n      0x24\n      dup2\n      add\n        /* \"#utility.yul\":14878:14912   */\n      dup6\n      swap1\n      mstore\n      sub(shl(0xa0, 0x01), 0x01)\n        /* \"LPStaking.sol\":17536:17564  pools[details.poolId].reward */\n      swap1\n      swap2\n      and\n      swap2\n      pop\n      dup2\n      swap1\n        /* \"LPStaking.sol\":17575:17595  rewardtoken.transfer */\n      0xa9059cbb\n      swap1\n        /* \"#utility.yul\":14791:14809   */\n      0x44\n      add\n        /* \"LPStaking.sol\":17575:17615  rewardtoken.transfer(msg.sender, reward) */\n      0x20\n      mload(0x40)\n      dup1\n      dup4\n      sub\n      dup2\n      0x00\n      dup8\n      gas\n      call\n      iszero\n      dup1\n      iszero\n      tag_288\n      jumpi\n      returndatasize\n      0x00\n      dup1\n      returndatacopy\n      revert(0x00, returndatasize)\n    tag_288:\n      pop\n      pop\n      pop\n      pop\n      mload(0x40)\n      returndatasize\n      not(0x1f)\n      0x1f\n      dup3\n      add\n      and\n      dup3\n      add\n      dup1\n      0x40\n      mstore\n      pop\n      dup2\n      add\n      swap1\n      tag_289\n      swap2\n      swap1\n      tag_250\n      jump\t// in\n    tag_289:\n      pop\n        /* \"LPStaking.sol\":17676:17705  IERC721Upgradeable staketoken */\n      0x00\n        /* \"LPStaking.sol\":17727:17732  pools */\n      0xa1\n        /* \"LPStaking.sol\":17733:17740  details */\n      dup8\n        /* \"LPStaking.sol\":17733:17747  details.poolId */\n      0xc0\n      add\n      mload\n        /* \"LPStaking.sol\":17727:17748  pools[details.poolId] */\n      dup2\n      sload\n      dup2\n      lt\n      tag_291\n      jumpi\n      tag_291\n      tag_199\n      jump\t// in\n    tag_291:\n      0x00\n      swap2\n      dup3\n      mstore\n      0x20\n      swap1\n      swap2\n      keccak256\n      0x05\n      swap1\n      swap2\n      mul\n      add\n        /* \"LPStaking.sol\":17727:17754  pools[details.poolId].token */\n      sload\n      0x0100\n        /* \"LPStaking.sol\":17815:17828  details.NFTId */\n      dup9\n      add\n      mload\n        /* \"LPStaking.sol\":17765:17829  staketoken.transferFrom(address(this),msg.sender, details.NFTId) */\n      mload(0x40)\n      shl(0xe0, 0x23b872dd)\n      dup2\n      mstore\n      sub(shl(0xa0, 0x01), 0x01)\n        /* \"LPStaking.sol\":17727:17754  pools[details.poolId].token */\n      swap1\n      swap3\n      and\n      swap3\n      pop\n      dup3\n      swap2\n        /* \"LPStaking.sol\":17765:17788  staketoken.transferFrom */\n      0x23b872dd\n      swap2\n        /* \"LPStaking.sol\":17765:17829  staketoken.transferFrom(address(this),msg.sender, details.NFTId) */\n      tag_293\n      swap2\n        /* \"LPStaking.sol\":17797:17801  this */\n      address\n      swap2\n        /* \"LPStaking.sol\":17803:17813  msg.sender */\n      caller\n      swap2\n        /* \"LPStaking.sol\":17765:17829  staketoken.transferFrom(address(this),msg.sender, details.NFTId) */\n      0x04\n      add\n      tag_246\n      jump\t// in\n    tag_293:\n      0x00\n      mload(0x40)\n      dup1\n      dup4\n      sub\n      dup2\n      0x00\n      dup8\n      dup1\n      extcodesize\n      iszero\n      dup1\n      iszero\n      tag_294\n      jumpi\n      0x00\n      dup1\n      revert\n    tag_294:\n      pop\n      gas\n      call\n      iszero\n      dup1\n      iszero\n      tag_296\n      jumpi\n      returndatasize\n      0x00\n      dup1\n      returndatacopy\n      revert(0x00, returndatasize)\n    tag_296:\n      pop\n      pop\n      pop\n      pop\n        /* \"LPStaking.sol\":17845:17860  isForceWithdraw */\n      dup9\n        /* \"LPStaking.sol\":17844:17860  !isForceWithdraw */\n      iszero\n        /* \"LPStaking.sol\":17844:17922  !isForceWithdraw && periodPoolMap[details.vestedFor].totalAllotedFeeReward > 0 */\n      dup1\n      iszero\n      tag_297\n      jumpi\n      pop\n        /* \"LPStaking.sol\":17878:17895  details.vestedFor */\n      0xe0\n      dup8\n      add\n      mload\n        /* \"LPStaking.sol\":17921:17922  0 */\n      0x00\n        /* \"LPStaking.sol\":17864:17896  periodPoolMap[details.vestedFor] */\n      swap1\n      dup2\n      mstore\n        /* \"LPStaking.sol\":17864:17877  periodPoolMap */\n      0xa2\n        /* \"LPStaking.sol\":17864:17896  periodPoolMap[details.vestedFor] */\n      0x20\n      mstore\n      0x40\n      swap1\n      keccak256\n        /* \"LPStaking.sol\":17864:17918  periodPoolMap[details.vestedFor].totalAllotedFeeReward */\n      0x01\n      add\n      sload\n        /* \"LPStaking.sol\":17864:17922  periodPoolMap[details.vestedFor].totalAllotedFeeReward > 0 */\n      iszero\n      iszero\n        /* \"LPStaking.sol\":17844:17922  !isForceWithdraw && periodPoolMap[details.vestedFor].totalAllotedFeeReward > 0 */\n    tag_297:\n        /* \"LPStaking.sol\":17840:18017  if (!isForceWithdraw && periodPoolMap[details.vestedFor].totalAllotedFeeReward > 0) {... */\n      iszero\n      tag_299\n      jumpi\n        /* \"LPStaking.sol\":17978:18006  harvestFee(msg.sender, _dId) */\n      tag_299\n        /* \"LPStaking.sol\":17989:17999  msg.sender */\n      caller\n        /* \"LPStaking.sol\":18001:18005  _dId */\n      dup12\n        /* \"LPStaking.sol\":17978:17988  harvestFee */\n      tag_300\n        /* \"LPStaking.sol\":17978:18006  harvestFee(msg.sender, _dId) */\n      jump\t// in\n    tag_299:\n        /* \"LPStaking.sol\":18101:18107  reward */\n      dup4\n        /* \"LPStaking.sol\":18057:18062  pools */\n      0xa1\n        /* \"LPStaking.sol\":18063:18070  details */\n      dup9\n        /* \"LPStaking.sol\":18063:18077  details.poolId */\n      0xc0\n      add\n      mload\n        /* \"LPStaking.sol\":18057:18078  pools[details.poolId] */\n      dup2\n      sload\n      dup2\n      lt\n      tag_302\n      jumpi\n      tag_302\n      tag_199\n      jump\t// in\n    tag_302:\n      swap1\n      0x00\n      mstore\n      keccak256(0x00, 0x20)\n      swap1\n      0x05\n      mul\n      add\n        /* \"LPStaking.sol\":18057:18097  pools[details.poolId].totalAllotedReward */\n      0x03\n      add\n      0x00\n        /* \"LPStaking.sol\":18057:18107  pools[details.poolId].totalAllotedReward -= reward */\n      dup3\n      dup3\n      sload\n      tag_304\n      swap2\n      swap1\n      tag_222\n      jump\t// in\n    tag_304:\n      swap3\n      pop\n      pop\n      dup2\n      swap1\n      sstore\n      pop\n        /* \"LPStaking.sol\":18161:18167  reward */\n      dup4\n        /* \"LPStaking.sol\":18117:18122  pools */\n      0xa1\n        /* \"LPStaking.sol\":18123:18130  details */\n      dup9\n        /* \"LPStaking.sol\":18123:18137  details.poolId */\n      0xc0\n      add\n      mload\n        /* \"LPStaking.sol\":18117:18138  pools[details.poolId] */\n      dup2\n      sload\n      dup2\n      lt\n      tag_306\n      jumpi\n      tag_306\n      tag_199\n      jump\t// in\n    tag_306:\n      swap1\n      0x00\n      mstore\n      keccak256(0x00, 0x20)\n      swap1\n      0x05\n      mul\n      add\n        /* \"LPStaking.sol\":18117:18157  pools[details.poolId].totalClaimedReward */\n      0x04\n      add\n      0x00\n        /* \"LPStaking.sol\":18117:18167  pools[details.poolId].totalClaimedReward += reward */\n      dup3\n      dup3\n      sload\n      tag_308\n      swap2\n      swap1\n      tag_275\n      jump\t// in\n    tag_308:\n      swap3\n      pop\n      pop\n      dup2\n      swap1\n      sstore\n      pop\n        /* \"LPStaking.sol\":18206:18213  details */\n      dup7\n        /* \"LPStaking.sol\":18206:18219  details.stake */\n      0x20\n      add\n      mload\n        /* \"LPStaking.sol\":18177:18182  pools */\n      0xa1\n        /* \"LPStaking.sol\":18183:18190  details */\n      dup9\n        /* \"LPStaking.sol\":18183:18197  details.poolId */\n      0xc0\n      add\n      mload\n        /* \"LPStaking.sol\":18177:18198  pools[details.poolId] */\n      dup2\n      sload\n      dup2\n      lt\n      tag_310\n      jumpi\n      tag_310\n      tag_199\n      jump\t// in\n    tag_310:\n      swap1\n      0x00\n      mstore\n      keccak256(0x00, 0x20)\n      swap1\n      0x05\n      mul\n      add\n        /* \"LPStaking.sol\":18177:18202  pools[details.poolId].tvl */\n      0x02\n      add\n      0x00\n        /* \"LPStaking.sol\":18177:18219  pools[details.poolId].tvl -= details.stake */\n      dup3\n      dup3\n      sload\n      tag_312\n      swap2\n      swap1\n      tag_222\n      jump\t// in\n    tag_312:\n      swap1\n      swap2\n      sstore\n      pop\n      pop\n        /* \"LPStaking.sol\":18244:18261  details.vestedFor */\n      0xe0\n      dup8\n      add\n      mload\n        /* \"LPStaking.sol\":18230:18262  periodPoolMap[details.vestedFor] */\n      0x00\n      swap1\n      dup2\n      mstore\n        /* \"LPStaking.sol\":18230:18243  periodPoolMap */\n      0xa2\n        /* \"LPStaking.sol\":18230:18262  periodPoolMap[details.vestedFor] */\n      0x20\n      mstore\n      0x40\n      dup2\n      keccak256\n        /* \"LPStaking.sol\":18230:18276  periodPoolMap[details.vestedFor].tvl -= amount */\n      dup1\n      sload\n        /* \"LPStaking.sol\":18270:18276  amount */\n      dup6\n      swap3\n        /* \"LPStaking.sol\":18230:18262  periodPoolMap[details.vestedFor] */\n      swap1\n        /* \"LPStaking.sol\":18230:18276  periodPoolMap[details.vestedFor].tvl -= amount */\n      tag_313\n      swap1\n        /* \"LPStaking.sol\":18270:18276  amount */\n      dup5\n      swap1\n        /* \"LPStaking.sol\":18230:18276  periodPoolMap[details.vestedFor].tvl -= amount */\n      tag_222\n      jump\t// in\n    tag_313:\n      swap1\n      swap2\n      sstore\n      pop\n      pop\n        /* \"LPStaking.sol\":18332:18342  msg.sender */\n      caller\n        /* \"LPStaking.sol\":18359:18360  0 */\n      0x00\n        /* \"LPStaking.sol\":18323:18343  deposits[msg.sender] */\n      swap1\n      dup2\n      mstore\n        /* \"LPStaking.sol\":18323:18331  deposits */\n      0x9e\n        /* \"LPStaking.sol\":18323:18343  deposits[msg.sender] */\n      0x20\n      swap1\n      dup2\n      mstore\n      0x40\n      dup1\n      dup4\n      keccak256\n        /* \"LPStaking.sol\":18323:18349  deposits[msg.sender][_dId] */\n      dup14\n      dup5\n      mstore\n      swap1\n      swap2\n      mstore\n      dup2\n      keccak256\n        /* \"LPStaking.sol\":18323:18356  deposits[msg.sender][_dId].reward */\n      0x02\n      dup2\n      add\n        /* \"LPStaking.sol\":18323:18360  deposits[msg.sender][_dId].reward = 0 */\n      dup3\n      swap1\n      sstore\n        /* \"LPStaking.sol\":18370:18402  deposits[msg.sender][_dId].stake */\n      0x01\n      add\n        /* \"LPStaking.sol\":18370:18406  deposits[msg.sender][_dId].stake = 0 */\n      sstore\n        /* \"LPStaking.sol\":18420:18428  isPaused */\n      and(0xff, sload(0xa4))\n        /* \"LPStaking.sol\":18416:18616  if (isPaused) {... */\n      iszero\n      tag_314\n      jumpi\n        /* \"LPStaking.sol\":18494:18509  pausedTimestamp */\n      sload(0xa5)\n        /* \"LPStaking.sol\":18453:18463  msg.sender */\n      caller\n        /* \"LPStaking.sol\":18444:18464  deposits[msg.sender] */\n      0x00\n      swap1\n      dup2\n      mstore\n        /* \"LPStaking.sol\":18444:18452  deposits */\n      0x9e\n        /* \"LPStaking.sol\":18444:18464  deposits[msg.sender] */\n      0x20\n      swap1\n      dup2\n      mstore\n      0x40\n      dup1\n      dup4\n      keccak256\n        /* \"LPStaking.sol\":18444:18470  deposits[msg.sender][_dId] */\n      dup15\n      dup5\n      mstore\n      swap1\n      swap2\n      mstore\n      swap1\n      keccak256\n        /* \"LPStaking.sol\":18444:18491  deposits[msg.sender][_dId].lastRewardCalculated */\n      0x05\n      add\n        /* \"LPStaking.sol\":18444:18509  deposits[msg.sender][_dId].lastRewardCalculated = pausedTimestamp */\n      sstore\n        /* \"LPStaking.sol\":18416:18616  if (isPaused) {... */\n      jump(tag_315)\n    tag_314:\n        /* \"LPStaking.sol\":18549:18559  msg.sender */\n      caller\n        /* \"LPStaking.sol\":18540:18560  deposits[msg.sender] */\n      0x00\n      swap1\n      dup2\n      mstore\n        /* \"LPStaking.sol\":18540:18548  deposits */\n      0x9e\n        /* \"LPStaking.sol\":18540:18560  deposits[msg.sender] */\n      0x20\n      swap1\n      dup2\n      mstore\n      0x40\n      dup1\n      dup4\n      keccak256\n        /* \"LPStaking.sol\":18540:18566  deposits[msg.sender][_dId] */\n      dup14\n      dup5\n      mstore\n      swap1\n      swap2\n      mstore\n      swap1\n      keccak256\n        /* \"LPStaking.sol\":18590:18605  block.timestamp */\n      timestamp\n        /* \"LPStaking.sol\":18540:18587  deposits[msg.sender][_dId].lastRewardCalculated */\n      0x05\n      swap1\n      swap2\n      add\n        /* \"LPStaking.sol\":18540:18605  deposits[msg.sender][_dId].lastRewardCalculated = block.timestamp */\n      sstore\n        /* \"LPStaking.sol\":18416:18616  if (isPaused) {... */\n    tag_315:\n        /* \"LPStaking.sol\":18660:18719  RewardClaimed(msg.sender, reward, _poolId, block.timestamp) */\n      0x40\n      dup1\n      mload\n        /* \"#utility.yul\":9024:9049   */\n      dup6\n      dup2\n      mstore\n        /* \"LPStaking.sol\":18703:18718  block.timestamp */\n      timestamp\n        /* \"#utility.yul\":9080:9082   */\n      0x20\n        /* \"#utility.yul\":9065:9083   */\n      dup3\n      add\n        /* \"#utility.yul\":9058:9092   */\n      mstore\n        /* \"LPStaking.sol\":18694:18701  _poolId */\n      dup13\n      swap2\n        /* \"LPStaking.sol\":18674:18684  msg.sender */\n      caller\n      swap2\n        /* \"LPStaking.sol\":18660:18719  RewardClaimed(msg.sender, reward, _poolId, block.timestamp) */\n      0x812be816db82c66cd18ca8457005cd84689642d8ac4d38599cc6af444a2dc72a\n      swap2\n        /* \"#utility.yul\":8997:9015   */\n      add\n        /* \"LPStaking.sol\":18660:18719  RewardClaimed(msg.sender, reward, _poolId, block.timestamp) */\n      mload(0x40)\n      dup1\n      swap2\n      sub\n      swap1\n      log3\n      pop\n      pop\n        /* \"@openzeppelin/contracts-upgradeable/security/ReentrancyGuardUpgradeable.sol\":1772:1773  1 */\n      0x01\n        /* \"@openzeppelin/contracts-upgradeable/security/ReentrancyGuardUpgradeable.sol\":2872:2894  _status = _NOT_ENTERED */\n      dup1\n      sstore\n      pop\n      pop\n      pop\n      pop\n      pop\n      pop\n      pop\n      pop\n      pop\n        /* \"LPStaking.sol\":16537:18726  function withdraw(... */\n      jump\t// out\n        /* \"@openzeppelin/contracts-upgradeable/access/OwnableUpgradeable.sol\":1908:2009  function renounceOwnership() public virtual onlyOwner {... */\n    tag_75:\n        /* \"@openzeppelin/contracts-upgradeable/access/OwnableUpgradeable.sol\":1348:1354  _owner */\n      and(sub(shl(0xa0, 0x01), 0x01), sload(0x65))\n        /* \"@openzeppelin/contracts-upgradeable/utils/ContextUpgradeable.sol\":929:939  msg.sender */\n      caller\n        /* \"@openzeppelin/contracts-upgradeable/access/OwnableUpgradeable.sol\":1488:1511  owner() == _msgSender() */\n      eq\n        /* \"@openzeppelin/contracts-upgradeable/access/OwnableUpgradeable.sol\":1480:1548  require(owner() == _msgSender(), \"Ownable: caller is not the owner\") */\n      tag_320\n      jumpi\n      mload(0x40)\n      shl(0xe5, 0x461bcd)\n      dup2\n      mstore\n      0x04\n      add\n      tag_187\n      swap1\n      tag_188\n      jump\t// in\n    tag_320:\n        /* \"@openzeppelin/contracts-upgradeable/access/OwnableUpgradeable.sol\":1972:2002  _transferOwnership(address(0)) */\n      tag_323\n        /* \"@openzeppelin/contracts-upgradeable/access/OwnableUpgradeable.sol\":1999:2000  0 */\n      0x00\n        /* \"@openzeppelin/contracts-upgradeable/access/OwnableUpgradeable.sol\":1972:1990  _transferOwnership */\n      tag_324\n        /* \"@openzeppelin/contracts-upgradeable/access/OwnableUpgradeable.sol\":1972:2002  _transferOwnership(address(0)) */\n      jump\t// in\n    tag_323:\n        /* \"@openzeppelin/contracts-upgradeable/access/OwnableUpgradeable.sol\":1908:2009  function renounceOwnership() public virtual onlyOwner {... */\n      jump\t// out\n        /* \"LPStaking.sol\":6942:7104  function PauseStaking() public onlyOwner {... */\n    tag_77:\n        /* \"@openzeppelin/contracts-upgradeable/access/OwnableUpgradeable.sol\":1348:1354  _owner */\n      and(sub(shl(0xa0, 0x01), 0x01), sload(0x65))\n        /* \"@openzeppelin/contracts-upgradeable/utils/ContextUpgradeable.sol\":929:939  msg.sender */\n      caller\n        /* \"@openzeppelin/contracts-upgradeable/access/OwnableUpgradeable.sol\":1488:1511  owner() == _msgSender() */\n      eq\n        /* \"@openzeppelin/contracts-upgradeable/access/OwnableUpgradeable.sol\":1480:1548  require(owner() == _msgSender(), \"Ownable: caller is not the owner\") */\n      tag_328\n      jumpi\n      mload(0x40)\n      shl(0xe5, 0x461bcd)\n      dup2\n      mstore\n      0x04\n      add\n      tag_187\n      swap1\n      tag_188\n      jump\t// in\n    tag_328:\n        /* \"LPStaking.sol\":7002:7010  isPaused */\n      and(0xff, sload(0xa4))\n        /* \"LPStaking.sol\":7001:7010  !isPaused */\n      iszero\n        /* \"LPStaking.sol\":6993:7029  require(!isPaused, \"Already Paused\") */\n      tag_331\n      jumpi\n      mload(0x40)\n      shl(0xe5, 0x461bcd)\n      dup2\n      mstore\n        /* \"#utility.yul\":15125:15127   */\n      0x20\n        /* \"LPStaking.sol\":6993:7029  require(!isPaused, \"Already Paused\") */\n      0x04\n      dup3\n      add\n        /* \"#utility.yul\":15107:15128   */\n      mstore\n        /* \"#utility.yul\":15164:15166   */\n      0x0e\n        /* \"#utility.yul\":15144:15162   */\n      0x24\n      dup3\n      add\n        /* \"#utility.yul\":15137:15167   */\n      mstore\n      shl(0x92, 0x105b1c9958591e4814185d5cd959)\n        /* \"#utility.yul\":15183:15201   */\n      0x44\n      dup3\n      add\n        /* \"#utility.yul\":15176:15220   */\n      mstore\n        /* \"#utility.yul\":15237:15255   */\n      0x64\n      add\n        /* \"LPStaking.sol\":6993:7029  require(!isPaused, \"Already Paused\") */\n      tag_187\n        /* \"#utility.yul\":14923:15261   */\n      jump\n        /* \"LPStaking.sol\":6993:7029  require(!isPaused, \"Already Paused\") */\n    tag_331:\n        /* \"LPStaking.sol\":7039:7047  isPaused */\n      0xa4\n        /* \"LPStaking.sol\":7039:7054  isPaused = true */\n      dup1\n      sload\n      not(0xff)\n      and\n        /* \"LPStaking.sol\":7050:7054  true */\n      0x01\n        /* \"LPStaking.sol\":7039:7054  isPaused = true */\n      or\n      swap1\n      sstore\n        /* \"LPStaking.sol\":7082:7097  block.timestamp */\n      timestamp\n        /* \"LPStaking.sol\":7064:7079  pausedTimestamp */\n      0xa5\n        /* \"LPStaking.sol\":7064:7097  pausedTimestamp = block.timestamp */\n      sstore\n        /* \"LPStaking.sol\":6942:7104  function PauseStaking() public onlyOwner {... */\n      jump\t// out\n        /* \"LPStaking.sol\":21459:21857  function totalReward() public view returns (uint256 _totalReward) {... */\n    tag_79:\n        /* \"LPStaking.sol\":21503:21523  uint256 _totalReward */\n      0x00\n      dup1\n        /* \"LPStaking.sol\":21577:21578  1 */\n      0x01\n        /* \"LPStaking.sol\":21560:21823  for (uint256 i = 1; i <= _depositIds.current(); i++) {... */\n    tag_335:\n        /* \"LPStaking.sol\":21585:21596  _depositIds */\n      0x97\n        /* \"@openzeppelin/contracts-upgradeable/utils/CountersUpgradeable.sol\":929:943  counter._value */\n      sload\n        /* \"LPStaking.sol\":21580:21581  i */\n      dup2\n        /* \"LPStaking.sol\":21580:21606  i <= _depositIds.current() */\n      gt\n        /* \"LPStaking.sol\":21560:21823  for (uint256 i = 1; i <= _depositIds.current(); i++) {... */\n      tag_336\n      jumpi\n        /* \"LPStaking.sol\":21657:21658  0 */\n      0x00\n        /* \"LPStaking.sol\":21631:21648  depositDetails[i] */\n      dup2\n      dup2\n      mstore\n        /* \"LPStaking.sol\":21631:21645  depositDetails */\n      0xa0\n        /* \"LPStaking.sol\":21631:21648  depositDetails[i] */\n      0x20\n      mstore\n      0x40\n      swap1\n      keccak256\n        /* \"LPStaking.sol\":21631:21654  depositDetails[i].stake */\n      0x01\n      add\n      sload\n        /* \"LPStaking.sol\":21631:21658  depositDetails[i].stake > 0 */\n      iszero\n        /* \"LPStaking.sol\":21627:21813  if (depositDetails[i].stake > 0) {... */\n      tag_340\n      jumpi\n        /* \"LPStaking.sol\":21685:21702  depositDetails[i] */\n      0x00\n      dup2\n      dup2\n      mstore\n        /* \"LPStaking.sol\":21685:21699  depositDetails */\n      0xa0\n        /* \"LPStaking.sol\":21685:21702  depositDetails[i] */\n      0x20\n      mstore\n      0x40\n      swap1\n      keccak256\n        /* \"LPStaking.sol\":21685:21709  depositDetails[i].reward */\n      0x02\n      add\n      sload\n        /* \"LPStaking.sol\":21678:21709  sum += depositDetails[i].reward */\n      tag_341\n      swap1\n      dup4\n      tag_275\n      jump\t// in\n    tag_341:\n        /* \"LPStaking.sol\":21759:21760  0 */\n      0x00\n        /* \"LPStaking.sol\":21763:21780  depositDetails[i] */\n      dup3\n      dup2\n      mstore\n        /* \"LPStaking.sol\":21763:21777  depositDetails */\n      0xa0\n        /* \"LPStaking.sol\":21763:21780  depositDetails[i] */\n      0x20\n      mstore\n      0x40\n      dup2\n      keccak256\n        /* \"LPStaking.sol\":21763:21790  depositDetails[i].depositId */\n      sload\n        /* \"LPStaking.sol\":21678:21709  sum += depositDetails[i].reward */\n      swap2\n      swap4\n      pop\n        /* \"LPStaking.sol\":21734:21798  _calculateReward(address(0), depositDetails[i].depositId, false) */\n      tag_342\n      swap2\n        /* \"LPStaking.sol\":21759:21760  0 */\n      dup2\n        /* \"LPStaking.sol\":21734:21750  _calculateReward */\n      tag_273\n        /* \"LPStaking.sol\":21734:21798  _calculateReward(address(0), depositDetails[i].depositId, false) */\n      jump\t// in\n    tag_342:\n        /* \"LPStaking.sol\":21727:21798  sum += _calculateReward(address(0), depositDetails[i].depositId, false) */\n      tag_343\n      swap1\n      dup4\n      tag_275\n      jump\t// in\n    tag_343:\n      swap2\n      pop\n        /* \"LPStaking.sol\":21627:21813  if (depositDetails[i].stake > 0) {... */\n    tag_340:\n        /* \"LPStaking.sol\":21608:21611  i++ */\n      dup1\n      tag_344\n      dup2\n      tag_203\n      jump\t// in\n    tag_344:\n      swap2\n      pop\n      pop\n        /* \"LPStaking.sol\":21560:21823  for (uint256 i = 1; i <= _depositIds.current(); i++) {... */\n      jump(tag_335)\n    tag_336:\n      pop\n        /* \"LPStaking.sol\":21847:21850  sum */\n      swap2\n        /* \"LPStaking.sol\":21459:21857  function totalReward() public view returns (uint256 _totalReward) {... */\n      swap1\n      pop\n      jump\t// out\n        /* \"LPStaking.sol\":6307:6862  function addPool(... */\n    tag_87:\n        /* \"@openzeppelin/contracts-upgradeable/access/OwnableUpgradeable.sol\":1348:1354  _owner */\n      and(sub(shl(0xa0, 0x01), 0x01), sload(0x65))\n        /* \"@openzeppelin/contracts-upgradeable/utils/ContextUpgradeable.sol\":929:939  msg.sender */\n      caller\n        /* \"@openzeppelin/contracts-upgradeable/access/OwnableUpgradeable.sol\":1488:1511  owner() == _msgSender() */\n      eq\n        /* \"@openzeppelin/contracts-upgradeable/access/OwnableUpgradeable.sol\":1480:1548  require(owner() == _msgSender(), \"Ownable: caller is not the owner\") */\n      tag_348\n      jumpi\n      mload(0x40)\n      shl(0xe5, 0x461bcd)\n      dup2\n      mstore\n      0x04\n      add\n      tag_187\n      swap1\n      tag_188\n      jump\t// in\n    tag_348:\n      sub(shl(0xa0, 0x01), 0x01)\n        /* \"LPStaking.sol\":5432:5450  tokenPools[_token] */\n      dup4\n      and\n      0x00\n      swap1\n      dup2\n      mstore\n        /* \"LPStaking.sol\":5432:5442  tokenPools */\n      0x9d\n        /* \"LPStaking.sol\":5432:5450  tokenPools[_token] */\n      0x20\n      mstore\n      0x40\n      swap1\n      keccak256\n      sload\n        /* \"LPStaking.sol\":6458:6464  _token */\n      dup4\n      swap1\n        /* \"LPStaking.sol\":5432:5450  tokenPools[_token] */\n      0xff\n      and\n        /* \"LPStaking.sol\":5431:5450  !tokenPools[_token] */\n      iszero\n        /* \"LPStaking.sol\":5423:5485  require(!tokenPools[_token], \"Add : token pool already exits\") */\n      tag_351\n      jumpi\n      mload(0x40)\n      shl(0xe5, 0x461bcd)\n      dup2\n      mstore\n        /* \"#utility.yul\":15468:15470   */\n      0x20\n        /* \"LPStaking.sol\":5423:5485  require(!tokenPools[_token], \"Add : token pool already exits\") */\n      0x04\n      dup3\n      add\n        /* \"#utility.yul\":15450:15471   */\n      mstore\n        /* \"#utility.yul\":15507:15509   */\n      0x1e\n        /* \"#utility.yul\":15487:15505   */\n      0x24\n      dup3\n      add\n        /* \"#utility.yul\":15480:15510   */\n      mstore\n        /* \"#utility.yul\":15546:15578   */\n      0x416464203a20746f6b656e20706f6f6c20616c72656164792065786974730000\n        /* \"#utility.yul\":15526:15544   */\n      0x44\n      dup3\n      add\n        /* \"#utility.yul\":15519:15579   */\n      mstore\n        /* \"#utility.yul\":15596:15614   */\n      0x64\n      add\n        /* \"LPStaking.sol\":5423:5485  require(!tokenPools[_token], \"Add : token pool already exits\") */\n      tag_187\n        /* \"#utility.yul\":15266:15620   */\n      jump\n        /* \"LPStaking.sol\":5423:5485  require(!tokenPools[_token], \"Add : token pool already exits\") */\n    tag_351:\n      sub(shl(0xa0, 0x01), 0x01)\n        /* \"LPStaking.sol\":6476:6494  tokenPools[_token] */\n      dup5\n      and\n      0x00\n      swap1\n      dup2\n      mstore\n        /* \"LPStaking.sol\":6476:6486  tokenPools */\n      0x9d\n        /* \"LPStaking.sol\":6476:6494  tokenPools[_token] */\n      0x20\n      mstore\n      0x40\n      dup2\n      keccak256\n        /* \"LPStaking.sol\":6476:6501  tokenPools[_token] = true */\n      dup1\n      sload\n      not(0xff)\n      and\n        /* \"LPStaking.sol\":6497:6501  true */\n      0x01\n        /* \"LPStaking.sol\":6476:6501  tokenPools[_token] = true */\n      or\n      swap1\n      sstore\n        /* \"LPStaking.sol\":6527:6532  pools */\n      0xa1\n        /* \"LPStaking.sol\":6527:6539  pools.length */\n      sload\n        /* \"LPStaking.sol\":6527:6577  pools.length > 0 ? pools.length - 1 : pools.length */\n      tag_355\n      jumpi\n        /* \"LPStaking.sol\":6565:6570  pools */\n      0xa1\n        /* \"LPStaking.sol\":6565:6577  pools.length */\n      sload\n        /* \"LPStaking.sol\":6527:6577  pools.length > 0 ? pools.length - 1 : pools.length */\n      jump(tag_357)\n    tag_355:\n        /* \"LPStaking.sol\":6546:6551  pools */\n      0xa1\n        /* \"LPStaking.sol\":6546:6558  pools.length */\n      sload\n        /* \"LPStaking.sol\":6546:6562  pools.length - 1 */\n      tag_357\n      swap1\n        /* \"LPStaking.sol\":6561:6562  1 */\n      0x01\n      swap1\n        /* \"LPStaking.sol\":6546:6562  pools.length - 1 */\n      tag_222\n      jump\t// in\n    tag_357:\n        /* \"LPStaking.sol\":6511:6577  uint256 index = pools.length > 0 ? pools.length - 1 : pools.length */\n      swap1\n      pop\n        /* \"LPStaking.sol\":6625:6634  uint256 i */\n      0x00\n        /* \"LPStaking.sol\":6620:6761  for (uint256 i; i < _periodRates.length; i++) {... */\n    tag_358:\n        /* \"LPStaking.sol\":6640:6652  _periodRates */\n      dup4\n        /* \"LPStaking.sol\":6640:6659  _periodRates.length */\n      mload\n        /* \"LPStaking.sol\":6636:6637  i */\n      dup2\n        /* \"LPStaking.sol\":6636:6659  i < _periodRates.length */\n      lt\n        /* \"LPStaking.sol\":6620:6761  for (uint256 i; i < _periodRates.length; i++) {... */\n      iszero\n      tag_359\n      jumpi\n        /* \"LPStaking.sol\":6731:6743  _periodRates */\n      dup4\n        /* \"LPStaking.sol\":6744:6745  i */\n      dup2\n        /* \"LPStaking.sol\":6731:6746  _periodRates[i] */\n      dup2\n      mload\n      dup2\n      lt\n      tag_362\n      jumpi\n      tag_362\n      tag_199\n      jump\t// in\n    tag_362:\n      0x20\n      mul\n      0x20\n      add\n      add\n      mload\n        /* \"LPStaking.sol\":6731:6750  _periodRates[i].APR */\n      0x20\n      add\n      mload\n        /* \"LPStaking.sol\":6680:6697  vestingAPRPerPool */\n      0x9c\n        /* \"LPStaking.sol\":6680:6704  vestingAPRPerPool[index] */\n      0x00\n        /* \"LPStaking.sol\":6698:6703  index */\n      dup5\n        /* \"LPStaking.sol\":6680:6704  vestingAPRPerPool[index] */\n      dup2\n      mstore\n      0x20\n      add\n      swap1\n      dup2\n      mstore\n      0x20\n      add\n      0x00\n      keccak256\n        /* \"LPStaking.sol\":6680:6728  vestingAPRPerPool[index][_periodRates[i].period] */\n      0x00\n        /* \"LPStaking.sol\":6705:6717  _periodRates */\n      dup7\n        /* \"LPStaking.sol\":6718:6719  i */\n      dup5\n        /* \"LPStaking.sol\":6705:6720  _periodRates[i] */\n      dup2\n      mload\n      dup2\n      lt\n      tag_364\n      jumpi\n      tag_364\n      tag_199\n      jump\t// in\n    tag_364:\n      0x20\n      mul\n      0x20\n      add\n      add\n      mload\n        /* \"LPStaking.sol\":6705:6727  _periodRates[i].period */\n      0x00\n      add\n      mload\n        /* \"LPStaking.sol\":6680:6728  vestingAPRPerPool[index][_periodRates[i].period] */\n      dup2\n      mstore\n      0x20\n      add\n      swap1\n      dup2\n      mstore\n      0x20\n      add\n      0x00\n      keccak256\n        /* \"LPStaking.sol\":6680:6750  vestingAPRPerPool[index][_periodRates[i].period] = _periodRates[i].APR */\n      dup2\n      swap1\n      sstore\n      pop\n        /* \"LPStaking.sol\":6661:6664  i++ */\n      dup1\n      dup1\n      tag_365\n      swap1\n      tag_203\n      jump\t// in\n    tag_365:\n      swap2\n      pop\n      pop\n        /* \"LPStaking.sol\":6620:6761  for (uint256 i; i < _periodRates.length; i++) {... */\n      jump(tag_358)\n    tag_359:\n      pop\n      pop\n        /* \"LPStaking.sol\":6771:6776  uniV3 */\n      0x9b\n        /* \"LPStaking.sol\":6771:6796  uniV3 = IUNIV3POS(_token) */\n      dup1\n      sload\n      sub(shl(0xa0, 0x01), 0x01)\n      swap6\n      dup7\n      and\n      not(sub(shl(0xa0, 0x01), 0x01))\n      swap2\n      dup3\n      and\n      dup2\n      or\n      swap1\n      swap3\n      sstore\n        /* \"LPStaking.sol\":6817:6854  stakingPool(_token, _reward, 0, 0, 0) */\n      0x40\n      dup1\n      mload\n      0xa0\n      dup2\n      add\n      dup3\n      mstore\n      swap3\n      dup4\n      mstore\n      swap5\n      dup7\n      and\n      0x20\n      dup4\n      add\n      swap1\n      dup2\n      mstore\n        /* \"LPStaking.sol\":6771:6776  uniV3 */\n      0x00\n        /* \"LPStaking.sol\":6817:6854  stakingPool(_token, _reward, 0, 0, 0) */\n      swap6\n      dup4\n      add\n      dup7\n      dup2\n      mstore\n      0x60\n      dup5\n      add\n      dup8\n      dup2\n      mstore\n      0x80\n      dup6\n      add\n      dup9\n      dup2\n      mstore\n        /* \"LPStaking.sol\":6806:6811  pools */\n      0xa1\n        /* \"LPStaking.sol\":6806:6855  pools.push(stakingPool(_token, _reward, 0, 0, 0)) */\n      dup1\n      sload\n        /* \"LPStaking.sol\":6771:6796  uniV3 = IUNIV3POS(_token) */\n      0x01\n        /* \"LPStaking.sol\":6806:6855  pools.push(stakingPool(_token, _reward, 0, 0, 0)) */\n      dup2\n      add\n      dup3\n      sstore\n      swap10\n      mstore\n      swap5\n      mload\n      0x05\n      swap1\n      swap9\n      mul\n      0xaadc37b8ba5645e62f4546802db221593a94729ccbfc5a97d01365a88f649878\n      dup2\n      add\n      dup1\n      sload\n      swap10\n      dup12\n      and\n      swap10\n      dup7\n      and\n      swap10\n      swap1\n      swap10\n      or\n      swap1\n      swap9\n      sstore\n      swap2\n      mload\n      0xaadc37b8ba5645e62f4546802db221593a94729ccbfc5a97d01365a88f649879\n      dup9\n      add\n      dup1\n      sload\n      swap2\n      swap1\n      swap10\n      and\n      swap4\n      and\n      swap3\n      swap1\n      swap3\n      or\n      swap1\n      swap7\n      sstore\n      mload\n      0xaadc37b8ba5645e62f4546802db221593a94729ccbfc5a97d01365a88f64987a\n      dup6\n      add\n      sstore\n      swap4\n      mload\n      0xaadc37b8ba5645e62f4546802db221593a94729ccbfc5a97d01365a88f64987b\n      dup5\n      add\n      sstore\n      pop\n      pop\n      swap1\n      mload\n      0xaadc37b8ba5645e62f4546802db221593a94729ccbfc5a97d01365a88f64987c\n      swap1\n      swap2\n      add\n      sstore\n        /* \"LPStaking.sol\":6307:6862  function addPool(... */\n      jump\t// out\n        /* \"LPStaking.sol\":20771:21226  function getDeposits(address _user) public view returns (stakeDetails[] memory) {... */\n    tag_97:\n      sub(shl(0xa0, 0x01), 0x01)\n        /* \"LPStaking.sol\":20913:20934  userDepositMap[_user] */\n      dup2\n      and\n        /* \"LPStaking.sol\":20862:20891  stakeDetails[] memory details */\n      0x00\n        /* \"LPStaking.sol\":20913:20934  userDepositMap[_user] */\n      swap1\n      dup2\n      mstore\n        /* \"LPStaking.sol\":20913:20927  userDepositMap */\n      0x9f\n        /* \"LPStaking.sol\":20913:20934  userDepositMap[_user] */\n      0x20\n      mstore\n      0x40\n      dup2\n      keccak256\n        /* \"LPStaking.sol\":20913:20941  userDepositMap[_user].length */\n      sload\n        /* \"LPStaking.sol\":20828:20849  stakeDetails[] memory */\n      0x60\n      swap2\n        /* \"LPStaking.sol\":20862:20891  stakeDetails[] memory details */\n      swap1\n        /* \"LPStaking.sol\":20894:20942  new stakeDetails[](userDepositMap[_user].length) */\n      0xffffffffffffffff\n      dup2\n      gt\n      iszero\n      tag_370\n      jumpi\n      tag_370\n      tag_371\n      jump\t// in\n    tag_370:\n      mload(0x40)\n      swap1\n      dup1\n      dup3\n      mstore\n      dup1\n      0x20\n      mul\n      0x20\n      add\n      dup3\n      add\n      0x40\n      mstore\n      dup1\n      iszero\n      tag_372\n      jumpi\n      dup2\n      0x20\n      add\n    tag_373:\n      tag_374\n      mload(0x40)\n      dup1\n      0x0120\n      add\n      0x40\n      mstore\n      dup1\n      0x00\n      dup2\n      mstore\n      0x20\n      add\n      0x00\n      dup2\n      mstore\n      0x20\n      add\n      0x00\n      dup2\n      mstore\n      0x20\n      add\n      0x00\n      dup2\n      mstore\n      0x20\n      add\n      0x00\n      dup2\n      mstore\n      0x20\n      add\n      0x00\n      dup2\n      mstore\n      0x20\n      add\n      0x00\n      dup2\n      mstore\n      0x20\n      add\n      0x00\n      dup2\n      mstore\n      0x20\n      add\n      0x00\n      dup2\n      mstore\n      pop\n      swap1\n      jump\n    tag_374:\n      dup2\n      mstore\n      0x20\n      add\n      swap1\n      0x01\n      swap1\n      sub\n      swap1\n      dup2\n      tag_373\n      jumpi\n      swap1\n      pop\n    tag_372:\n      pop\n        /* \"LPStaking.sol\":20862:20942  stakeDetails[] memory details = new stakeDetails[](userDepositMap[_user].length) */\n      swap1\n      pop\n        /* \"LPStaking.sol\":20957:20966  uint256 i */\n      0x00\n        /* \"LPStaking.sol\":20952:21196  for (uint256 i = 0; i < userDepositMap[_user].length; i++) {... */\n    tag_376:\n      sub(shl(0xa0, 0x01), 0x01)\n        /* \"LPStaking.sol\":20976:20997  userDepositMap[_user] */\n      dup5\n      and\n      0x00\n      swap1\n      dup2\n      mstore\n        /* \"LPStaking.sol\":20976:20990  userDepositMap */\n      0x9f\n        /* \"LPStaking.sol\":20976:20997  userDepositMap[_user] */\n      0x20\n      mstore\n      0x40\n      swap1\n      keccak256\n        /* \"LPStaking.sol\":20976:21004  userDepositMap[_user].length */\n      sload\n        /* \"LPStaking.sol\":20972:21004  i < userDepositMap[_user].length */\n      dup2\n      lt\n        /* \"LPStaking.sol\":20952:21196  for (uint256 i = 0; i < userDepositMap[_user].length; i++) {... */\n      iszero\n      tag_377\n      jumpi\n      sub(shl(0xa0, 0x01), 0x01)\n        /* \"LPStaking.sol\":21055:21070  deposits[_user] */\n      dup5\n      and\n        /* \"LPStaking.sol\":21025:21052  stakeDetails memory deposit */\n      0x00\n        /* \"LPStaking.sol\":21055:21070  deposits[_user] */\n      swap1\n      dup2\n      mstore\n        /* \"LPStaking.sol\":21055:21063  deposits */\n      0x9e\n        /* \"LPStaking.sol\":21055:21070  deposits[_user] */\n      0x20\n      swap1\n      dup2\n      mstore\n      0x40\n      dup1\n      dup4\n      keccak256\n        /* \"LPStaking.sol\":21071:21085  userDepositMap */\n      0x9f\n        /* \"LPStaking.sol\":21071:21092  userDepositMap[_user] */\n      swap1\n      swap3\n      mstore\n      dup3\n      keccak256\n        /* \"LPStaking.sol\":21071:21095  userDepositMap[_user][i] */\n      dup1\n      sload\n        /* \"LPStaking.sol\":21025:21052  stakeDetails memory deposit */\n      dup4\n      swap2\n        /* \"LPStaking.sol\":21071:21092  userDepositMap[_user] */\n      swap1\n        /* \"LPStaking.sol\":21093:21094  i */\n      dup6\n      swap1\n        /* \"LPStaking.sol\":21071:21095  userDepositMap[_user][i] */\n      dup2\n      lt\n      tag_380\n      jumpi\n      tag_380\n      tag_199\n      jump\t// in\n    tag_380:\n      swap1\n      0x00\n      mstore\n      keccak256(0x00, 0x20)\n      add\n      sload\n        /* \"LPStaking.sol\":21055:21096  deposits[_user][userDepositMap[_user][i]] */\n      dup2\n      mstore\n      0x20\n      add\n      swap1\n      dup2\n      mstore\n      0x20\n      add\n      0x00\n      keccak256\n        /* \"LPStaking.sol\":21025:21096  stakeDetails memory deposit = deposits[_user][userDepositMap[_user][i]] */\n      mload(0x40)\n      dup1\n      0x0120\n      add\n      0x40\n      mstore\n      swap1\n      dup2\n      0x00\n      dup3\n      add\n      sload\n      dup2\n      mstore\n      0x20\n      add\n      0x01\n      dup3\n      add\n      sload\n      dup2\n      mstore\n      0x20\n      add\n      0x02\n      dup3\n      add\n      sload\n      dup2\n      mstore\n      0x20\n      add\n      0x03\n      dup3\n      add\n      sload\n      dup2\n      mstore\n      0x20\n      add\n      0x04\n      dup3\n      add\n      sload\n      dup2\n      mstore\n      0x20\n      add\n      0x05\n      dup3\n      add\n      sload\n      dup2\n      mstore\n      0x20\n      add\n      0x06\n      dup3\n      add\n      sload\n      dup2\n      mstore\n      0x20\n      add\n      0x07\n      dup3\n      add\n      sload\n      dup2\n      mstore\n      0x20\n      add\n      0x08\n      dup3\n      add\n      sload\n      dup2\n      mstore\n      pop\n      pop\n      swap1\n      pop\n        /* \"LPStaking.sol\":21130:21131  0 */\n      0x00\n        /* \"LPStaking.sol\":21114:21121  deposit */\n      dup2\n        /* \"LPStaking.sol\":21114:21127  deposit.stake */\n      0x20\n      add\n      mload\n        /* \"LPStaking.sol\":21114:21131  deposit.stake > 0 */\n      gt\n        /* \"LPStaking.sol\":21110:21186  if (deposit.stake > 0) {... */\n      iszero\n      tag_382\n      jumpi\n        /* \"LPStaking.sol\":21164:21171  deposit */\n      dup1\n        /* \"LPStaking.sol\":21151:21158  details */\n      dup4\n        /* \"LPStaking.sol\":21159:21160  i */\n      dup4\n        /* \"LPStaking.sol\":21151:21161  details[i] */\n      dup2\n      mload\n      dup2\n      lt\n      tag_384\n      jumpi\n      tag_384\n      tag_199\n      jump\t// in\n    tag_384:\n      0x20\n      mul\n      0x20\n      add\n      add\n        /* \"LPStaking.sol\":21151:21171  details[i] = deposit */\n      dup2\n      swap1\n      mstore\n      pop\n        /* \"LPStaking.sol\":21110:21186  if (deposit.stake > 0) {... */\n    tag_382:\n      pop\n        /* \"LPStaking.sol\":21006:21009  i++ */\n      dup1\n      tag_385\n      dup2\n      tag_203\n      jump\t// in\n    tag_385:\n      swap2\n      pop\n      pop\n        /* \"LPStaking.sol\":20952:21196  for (uint256 i = 0; i < userDepositMap[_user].length; i++) {... */\n      jump(tag_376)\n    tag_377:\n      pop\n        /* \"LPStaking.sol\":21212:21219  details */\n      swap3\n        /* \"LPStaking.sol\":20771:21226  function getDeposits(address _user) public view returns (stakeDetails[] memory) {... */\n      swap2\n      pop\n      pop\n      jump\t// out\n        /* \"LPStaking.sol\":5509:5603  function setOnlyAddress(address _only) external onlyOwner {... */\n    tag_108:\n        /* \"@openzeppelin/contracts-upgradeable/access/OwnableUpgradeable.sol\":1348:1354  _owner */\n      and(sub(shl(0xa0, 0x01), 0x01), sload(0x65))\n        /* \"@openzeppelin/contracts-upgradeable/utils/ContextUpgradeable.sol\":929:939  msg.sender */\n      caller\n        /* \"@openzeppelin/contracts-upgradeable/access/OwnableUpgradeable.sol\":1488:1511  owner() == _msgSender() */\n      eq\n        /* \"@openzeppelin/contracts-upgradeable/access/OwnableUpgradeable.sol\":1480:1548  require(owner() == _msgSender(), \"Ownable: caller is not the owner\") */\n      tag_389\n      jumpi\n      mload(0x40)\n      shl(0xe5, 0x461bcd)\n      dup2\n      mstore\n      0x04\n      add\n      tag_187\n      swap1\n      tag_188\n      jump\t// in\n    tag_389:\n        /* \"LPStaking.sol\":5577:5588  onlyaddress */\n      0x99\n        /* \"LPStaking.sol\":5577:5596  onlyaddress = _only */\n      dup1\n      sload\n      not(sub(shl(0xa0, 0x01), 0x01))\n      and\n      sub(shl(0xa0, 0x01), 0x01)\n      swap3\n      swap1\n      swap3\n      and\n      swap2\n      swap1\n      swap2\n      or\n      swap1\n      sstore\n        /* \"LPStaking.sol\":5509:5603  function setOnlyAddress(address _only) external onlyOwner {... */\n      jump\t// out\n        /* \"LPStaking.sol\":8718:9347  function withdrawRewardfromPool(uint256 _poolId, uint256 amount) public onlyOwner poolExists(_poolId) {... */\n    tag_115:\n        /* \"@openzeppelin/contracts-upgradeable/access/OwnableUpgradeable.sol\":1348:1354  _owner */\n      and(sub(shl(0xa0, 0x01), 0x01), sload(0x65))\n        /* \"@openzeppelin/contracts-upgradeable/utils/ContextUpgradeable.sol\":929:939  msg.sender */\n      caller\n        /* \"@openzeppelin/contracts-upgradeable/access/OwnableUpgradeable.sol\":1488:1511  owner() == _msgSender() */\n      eq\n        /* \"@openzeppelin/contracts-upgradeable/access/OwnableUpgradeable.sol\":1480:1548  require(owner() == _msgSender(), \"Ownable: caller is not the owner\") */\n      tag_395\n      jumpi\n      mload(0x40)\n      shl(0xe5, 0x461bcd)\n      dup2\n      mstore\n      0x04\n      add\n      tag_187\n      swap1\n      tag_188\n      jump\t// in\n    tag_395:\n        /* \"LPStaking.sol\":4739:4744  pools */\n      0xa1\n        /* \"LPStaking.sol\":4739:4751  pools.length */\n      sload\n        /* \"LPStaking.sol\":8811:8818  _poolId */\n      dup3\n      swap1\n        /* \"LPStaking.sol\":4729:4751  _poolId < pools.length */\n      dup2\n      lt\n        /* \"LPStaking.sol\":4721:4784  require(_poolId < pools.length, \"Staking: Pool doesn't exists\") */\n      tag_398\n      jumpi\n      mload(0x40)\n      shl(0xe5, 0x461bcd)\n      dup2\n      mstore\n      0x04\n      add\n      tag_187\n      swap1\n      tag_192\n      jump\t// in\n    tag_398:\n        /* \"LPStaking.sol\":8865:8894  IERC20Upgradeable rewardToken */\n      0x00\n        /* \"LPStaking.sol\":8915:8920  pools */\n      0xa1\n        /* \"LPStaking.sol\":8921:8928  _poolId */\n      dup5\n        /* \"LPStaking.sol\":8915:8929  pools[_poolId] */\n      dup2\n      sload\n      dup2\n      lt\n      tag_402\n      jumpi\n      tag_402\n      tag_199\n      jump\t// in\n    tag_402:\n      swap1\n      0x00\n      mstore\n      keccak256(0x00, 0x20)\n      swap1\n      0x05\n      mul\n      add\n        /* \"LPStaking.sol\":8915:8936  pools[_poolId].reward */\n      0x01\n      add\n      0x00\n      swap1\n      sload\n      swap1\n      0x0100\n      exp\n      swap1\n      div\n      sub(shl(0xa0, 0x01), 0x01)\n      and\n        /* \"LPStaking.sol\":8865:8937  IERC20Upgradeable rewardToken = IERC20Upgradeable(pools[_poolId].reward) */\n      swap1\n      pop\n        /* \"LPStaking.sol\":9063:9069  amount */\n      dup3\n        /* \"LPStaking.sol\":9026:9031  pools */\n      0xa1\n        /* \"LPStaking.sol\":9032:9039  _poolId */\n      dup6\n        /* \"LPStaking.sol\":9026:9040  pools[_poolId] */\n      dup2\n      sload\n      dup2\n      lt\n      tag_405\n      jumpi\n      tag_405\n      tag_199\n      jump\t// in\n    tag_405:\n      swap1\n      0x00\n      mstore\n      keccak256(0x00, 0x20)\n      swap1\n      0x05\n      mul\n      add\n        /* \"LPStaking.sol\":9026:9059  pools[_poolId].totalAllotedReward */\n      0x03\n      add\n      sload\n        /* \"LPStaking.sol\":9026:9069  pools[_poolId].totalAllotedReward >= amount */\n      lt\n      iszero\n        /* \"LPStaking.sol\":9005:9158  require(... */\n      tag_407\n      jumpi\n      mload(0x40)\n      shl(0xe5, 0x461bcd)\n      dup2\n      mstore\n        /* \"#utility.yul\":15827:15829   */\n      0x20\n        /* \"LPStaking.sol\":9005:9158  require(... */\n      0x04\n      dup3\n      add\n        /* \"#utility.yul\":15809:15830   */\n      mstore\n        /* \"#utility.yul\":15866:15868   */\n      0x3f\n        /* \"#utility.yul\":15846:15864   */\n      0x24\n      dup3\n      add\n        /* \"#utility.yul\":15839:15869   */\n      mstore\n        /* \"#utility.yul\":15905:15939   */\n      0x5374616b696e673a20616d6f756e74204d757374206265206c65737320746861\n        /* \"#utility.yul\":15885:15903   */\n      0x44\n      dup3\n      add\n        /* \"#utility.yul\":15878:15940   */\n      mstore\n        /* \"#utility.yul\":15976:16009   */\n      0x6e206f7220657175616c20746f20617661696c61626c65207265776172647300\n        /* \"#utility.yul\":15956:15974   */\n      0x64\n      dup3\n      add\n        /* \"#utility.yul\":15949:16010   */\n      mstore\n        /* \"#utility.yul\":16027:16046   */\n      0x84\n      add\n        /* \"LPStaking.sol\":9005:9158  require(... */\n      tag_187\n        /* \"#utility.yul\":15625:16052   */\n      jump\n        /* \"LPStaking.sol\":9005:9158  require(... */\n    tag_407:\n        /* \"LPStaking.sol\":9211:9251  rewardToken.transfer(msg.sender, amount) */\n      mload(0x40)\n      shl(0xe0, 0xa9059cbb)\n      dup2\n      mstore\n        /* \"LPStaking.sol\":9232:9242  msg.sender */\n      caller\n        /* \"LPStaking.sol\":9211:9251  rewardToken.transfer(msg.sender, amount) */\n      0x04\n      dup3\n      add\n        /* \"#utility.yul\":14818:14869   */\n      mstore\n        /* \"#utility.yul\":14885:14903   */\n      0x24\n      dup2\n      add\n        /* \"#utility.yul\":14878:14912   */\n      dup5\n      swap1\n      mstore\n      sub(shl(0xa0, 0x01), 0x01)\n        /* \"LPStaking.sol\":9211:9231  rewardToken.transfer */\n      dup3\n      and\n      swap1\n      0xa9059cbb\n      swap1\n        /* \"#utility.yul\":14791:14809   */\n      0x44\n      add\n        /* \"LPStaking.sol\":9211:9251  rewardToken.transfer(msg.sender, amount) */\n      0x20\n      mload(0x40)\n      dup1\n      dup4\n      sub\n      dup2\n      0x00\n      dup8\n      gas\n      call\n      iszero\n      dup1\n      iszero\n      tag_412\n      jumpi\n      returndatasize\n      0x00\n      dup1\n      returndatacopy\n      revert(0x00, returndatasize)\n    tag_412:\n      pop\n      pop\n      pop\n      pop\n      mload(0x40)\n      returndatasize\n      not(0x1f)\n      0x1f\n      dup3\n      add\n      and\n      dup3\n      add\n      dup1\n      0x40\n      mstore\n      pop\n      dup2\n      add\n      swap1\n      tag_413\n      swap2\n      swap1\n      tag_250\n      jump\t// in\n    tag_413:\n      pop\n        /* \"LPStaking.sol\":9334:9340  amount */\n      dup3\n        /* \"LPStaking.sol\":9297:9302  pools */\n      0xa1\n        /* \"LPStaking.sol\":9303:9310  _poolId */\n      dup6\n        /* \"LPStaking.sol\":9297:9311  pools[_poolId] */\n      dup2\n      sload\n      dup2\n      lt\n      tag_415\n      jumpi\n      tag_415\n      tag_199\n      jump\t// in\n    tag_415:\n      swap1\n      0x00\n      mstore\n      keccak256(0x00, 0x20)\n      swap1\n      0x05\n      mul\n      add\n        /* \"LPStaking.sol\":9297:9330  pools[_poolId].totalAllotedReward */\n      0x03\n      add\n      0x00\n        /* \"LPStaking.sol\":9297:9340  pools[_poolId].totalAllotedReward -= amount */\n      dup3\n      dup3\n      sload\n      tag_417\n      swap2\n      swap1\n      tag_222\n      jump\t// in\n    tag_417:\n      swap1\n      swap2\n      sstore\n      pop\n      pop\n      pop\n      pop\n      pop\n      pop\n        /* \"LPStaking.sol\":8718:9347  function withdrawRewardfromPool(uint256 _poolId, uint256 amount) public onlyOwner poolExists(_poolId) {... */\n      jump\t// out\n        /* \"LPStaking.sol\":13943:16005  function stake(... */\n    tag_119:\n        /* \"LPStaking.sol\":14104:14111  uint256 */\n      0x00\n        /* \"@openzeppelin/contracts-upgradeable/security/ReentrancyGuardUpgradeable.sol\":1815:1816  2 */\n      0x02\n        /* \"@openzeppelin/contracts-upgradeable/security/ReentrancyGuardUpgradeable.sol\":2569:2576  _status */\n      sload(0x01)\n        /* \"@openzeppelin/contracts-upgradeable/security/ReentrancyGuardUpgradeable.sol\":2569:2588  _status != _ENTERED */\n      sub\n        /* \"@openzeppelin/contracts-upgradeable/security/ReentrancyGuardUpgradeable.sol\":2561:2624  require(_status != _ENTERED, \"ReentrancyGuard: reentrant call\") */\n      tag_419\n      jumpi\n      mload(0x40)\n      shl(0xe5, 0x461bcd)\n      dup2\n      mstore\n      0x04\n      add\n      tag_187\n      swap1\n      tag_237\n      jump\t// in\n    tag_419:\n        /* \"@openzeppelin/contracts-upgradeable/security/ReentrancyGuardUpgradeable.sol\":1815:1816  2 */\n      0x02\n        /* \"@openzeppelin/contracts-upgradeable/security/ReentrancyGuardUpgradeable.sol\":2699:2706  _status */\n      0x01\n        /* \"@openzeppelin/contracts-upgradeable/security/ReentrancyGuardUpgradeable.sol\":2699:2717  _status = _ENTERED */\n      sstore\n        /* \"LPStaking.sol\":16055:16063  isPaused */\n      and(0xff, sload(0xa4))\n        /* \"LPStaking.sol\":16054:16063  !isPaused */\n      iszero\n        /* \"LPStaking.sol\":16046:16084  require(!isPaused, \"contract paused!\") */\n      tag_422\n      jumpi\n      mload(0x40)\n      shl(0xe5, 0x461bcd)\n      dup2\n      mstore\n        /* \"#utility.yul\":13174:13176   */\n      0x20\n        /* \"LPStaking.sol\":16046:16084  require(!isPaused, \"contract paused!\") */\n      0x04\n      dup3\n      add\n        /* \"#utility.yul\":13156:13177   */\n      mstore\n        /* \"#utility.yul\":13213:13215   */\n      0x10\n        /* \"#utility.yul\":13193:13211   */\n      0x24\n      dup3\n      add\n        /* \"#utility.yul\":13186:13216   */\n      mstore\n      shl(0x80, 0x636f6e74726163742070617573656421)\n        /* \"#utility.yul\":13232:13250   */\n      0x44\n      dup3\n      add\n        /* \"#utility.yul\":13225:13271   */\n      mstore\n        /* \"#utility.yul\":13288:13306   */\n      0x64\n      add\n        /* \"LPStaking.sol\":16046:16084  require(!isPaused, \"contract paused!\") */\n      tag_187\n        /* \"#utility.yul\":12972:13312   */\n      jump\n        /* \"LPStaking.sol\":16046:16084  require(!isPaused, \"contract paused!\") */\n    tag_422:\n        /* \"LPStaking.sol\":4739:4744  pools */\n      0xa1\n        /* \"LPStaking.sol\":4739:4751  pools.length */\n      sload\n        /* \"LPStaking.sol\":14086:14093  _poolId */\n      dup5\n      swap1\n        /* \"LPStaking.sol\":4729:4751  _poolId < pools.length */\n      dup2\n      lt\n        /* \"LPStaking.sol\":4721:4784  require(_poolId < pools.length, \"Staking: Pool doesn't exists\") */\n      tag_425\n      jumpi\n      mload(0x40)\n      shl(0xe5, 0x461bcd)\n      dup2\n      mstore\n      0x04\n      add\n      tag_187\n      swap1\n      tag_192\n      jump\t// in\n    tag_425:\n        /* \"LPStaking.sol\":14132:14140  isPaused */\n      and(0xff, sload(0xa4))\n        /* \"LPStaking.sol\":14131:14140  !isPaused */\n      iszero\n        /* \"LPStaking.sol\":14123:14162  require(!isPaused, \"Staking is paused\") */\n      tag_428\n      jumpi\n      mload(0x40)\n      shl(0xe5, 0x461bcd)\n      dup2\n      mstore\n        /* \"#utility.yul\":16259:16261   */\n      0x20\n        /* \"LPStaking.sol\":14123:14162  require(!isPaused, \"Staking is paused\") */\n      0x04\n      dup3\n      add\n        /* \"#utility.yul\":16241:16262   */\n      mstore\n        /* \"#utility.yul\":16298:16300   */\n      0x11\n        /* \"#utility.yul\":16278:16296   */\n      0x24\n      dup3\n      add\n        /* \"#utility.yul\":16271:16301   */\n      mstore\n      shl(0x7a, 0x14dd185ada5b99c81a5cc81c185d5cd959)\n        /* \"#utility.yul\":16317:16335   */\n      0x44\n      dup3\n      add\n        /* \"#utility.yul\":16310:16357   */\n      mstore\n        /* \"#utility.yul\":16374:16392   */\n      0x64\n      add\n        /* \"LPStaking.sol\":14123:14162  require(!isPaused, \"Staking is paused\") */\n      tag_187\n        /* \"#utility.yul\":16057:16398   */\n      jump\n        /* \"LPStaking.sol\":14123:14162  require(!isPaused, \"Staking is paused\") */\n    tag_428:\n        /* \"LPStaking.sol\":8319:8326  uint256 */\n      0x00\n        /* \"LPStaking.sol\":8345:8371  vestingAPRPerPool[_poolId] */\n      dup6\n      dup2\n      mstore\n        /* \"LPStaking.sol\":8345:8362  vestingAPRPerPool */\n      0x9c\n        /* \"LPStaking.sol\":8345:8371  vestingAPRPerPool[_poolId] */\n      0x20\n      swap1\n      dup2\n      mstore\n      0x40\n      dup1\n      dup4\n      keccak256\n        /* \"LPStaking.sol\":8345:8380  vestingAPRPerPool[_poolId][_period] */\n      dup7\n      dup5\n      mstore\n      swap1\n      swap2\n      mstore\n      swap1\n      keccak256\n      sload\n        /* \"LPStaking.sol\":14257:14258  0 */\n      0x00\n        /* \"LPStaking.sol\":14229:14258  getAPR(_poolId, _period) != 0 */\n      sub\n        /* \"LPStaking.sol\":14221:14285  require(getAPR(_poolId, _period) != 0, \"Invalid staking period\") */\n      tag_432\n      jumpi\n      mload(0x40)\n      shl(0xe5, 0x461bcd)\n      dup2\n      mstore\n        /* \"#utility.yul\":16605:16607   */\n      0x20\n        /* \"LPStaking.sol\":14221:14285  require(getAPR(_poolId, _period) != 0, \"Invalid staking period\") */\n      0x04\n      dup3\n      add\n        /* \"#utility.yul\":16587:16608   */\n      mstore\n        /* \"#utility.yul\":16644:16646   */\n      0x16\n        /* \"#utility.yul\":16624:16642   */\n      0x24\n      dup3\n      add\n        /* \"#utility.yul\":16617:16647   */\n      mstore\n      shl(0x52, 0x125b9d985b1a59081cdd185ada5b99c81c195c9a5bd9)\n        /* \"#utility.yul\":16663:16681   */\n      0x44\n      dup3\n      add\n        /* \"#utility.yul\":16656:16708   */\n      mstore\n        /* \"#utility.yul\":16725:16743   */\n      0x64\n      add\n        /* \"LPStaking.sol\":14221:14285  require(getAPR(_poolId, _period) != 0, \"Invalid staking period\") */\n      tag_187\n        /* \"#utility.yul\":16403:16749   */\n      jump\n        /* \"LPStaking.sol\":14221:14285  require(getAPR(_poolId, _period) != 0, \"Invalid staking period\") */\n    tag_432:\n        /* \"LPStaking.sol\":14392:14397  uniV3 */\n      sload(0x9b)\n        /* \"LPStaking.sol\":14392:14416  uniV3.positions(tokenId) */\n      mload(0x40)\n      shl(0xe3, 0x133f7571)\n      dup2\n      mstore\n      0x04\n      dup2\n      add\n        /* \"#utility.yul\":160:185   */\n      dup7\n      swap1\n      mstore\n        /* \"LPStaking.sol\":14331:14343  address weth */\n      0x00\n      swap2\n      dup3\n      swap2\n      dup3\n      swap2\n      sub(shl(0xa0, 0x01), 0x01)\n        /* \"LPStaking.sol\":14392:14397  uniV3 */\n      and\n      swap1\n        /* \"LPStaking.sol\":14392:14407  uniV3.positions */\n      0x99fbab88\n      swap1\n        /* \"#utility.yul\":133:151   */\n      0x24\n      add\n        /* \"LPStaking.sol\":14392:14416  uniV3.positions(tokenId) */\n      0x0180\n      mload(0x40)\n      dup1\n      dup4\n      sub\n      dup2\n      dup7\n      gas\n      staticcall\n      iszero\n      dup1\n      iszero\n      tag_437\n      jumpi\n      returndatasize\n      0x00\n      dup1\n      returndatacopy\n      revert(0x00, returndatasize)\n    tag_437:\n      pop\n      pop\n      pop\n      pop\n      mload(0x40)\n      returndatasize\n      not(0x1f)\n      0x1f\n      dup3\n      add\n      and\n      dup3\n      add\n      dup1\n      0x40\n      mstore\n      pop\n      dup2\n      add\n      swap1\n      tag_438\n      swap2\n      swap1\n      tag_439\n      jump\t// in\n    tag_438:\n        /* \"LPStaking.sol\":14327:14416  (, ,address weth , address mprw , , , ,uint128 amount , , , , ) =uniV3.positions(tokenId) */\n      pop\n      pop\n      pop\n      pop\n      swap8\n      pop\n      pop\n      pop\n      pop\n      swap5\n      pop\n      swap5\n      pop\n      pop\n      pop\n        /* \"LPStaking.sol\":14488:14492  weth */\n      dup3\n      sub(shl(0xa0, 0x01), 0x01)\n        /* \"LPStaking.sol\":14473:14492  address(WETH)==weth */\n      and\n        /* \"LPStaking.sol\":14481:14485  WETH */\n      0x9a\n      0x00\n      swap1\n      sload\n      swap1\n      0x0100\n      exp\n      swap1\n      div\n      sub(shl(0xa0, 0x01), 0x01)\n      and\n      sub(shl(0xa0, 0x01), 0x01)\n        /* \"LPStaking.sol\":14473:14492  address(WETH)==weth */\n      and\n      eq\n        /* \"LPStaking.sol\":14473:14524  address(WETH)==weth && pools[_poolId].reward ==mprw */\n      dup1\n      iszero\n      tag_440\n      jumpi\n      pop\n        /* \"LPStaking.sol\":14520:14524  mprw */\n      dup2\n      sub(shl(0xa0, 0x01), 0x01)\n        /* \"LPStaking.sol\":14496:14524  pools[_poolId].reward ==mprw */\n      and\n        /* \"LPStaking.sol\":14496:14501  pools */\n      0xa1\n        /* \"LPStaking.sol\":14502:14509  _poolId */\n      dup10\n        /* \"LPStaking.sol\":14496:14510  pools[_poolId] */\n      dup2\n      sload\n      dup2\n      lt\n      tag_442\n      jumpi\n      tag_442\n      tag_199\n      jump\t// in\n    tag_442:\n      0x00\n      swap2\n      dup3\n      mstore\n      0x20\n      swap1\n      swap2\n      keccak256\n        /* \"LPStaking.sol\":14496:14517  pools[_poolId].reward */\n      0x01\n        /* \"LPStaking.sol\":14496:14510  pools[_poolId] */\n      0x05\n      swap1\n      swap3\n      mul\n      add\n        /* \"LPStaking.sol\":14496:14517  pools[_poolId].reward */\n      add\n      sload\n      sub(shl(0xa0, 0x01), 0x01)\n      and\n        /* \"LPStaking.sol\":14496:14524  pools[_poolId].reward ==mprw */\n      eq\n        /* \"LPStaking.sol\":14473:14524  address(WETH)==weth && pools[_poolId].reward ==mprw */\n    tag_440:\n        /* \"LPStaking.sol\":14465:14543  require(address(WETH)==weth && pools[_poolId].reward ==mprw,\"Invalid LP pool\") */\n      tag_444\n      jumpi\n      mload(0x40)\n      shl(0xe5, 0x461bcd)\n      dup2\n      mstore\n        /* \"#utility.yul\":18826:18828   */\n      0x20\n        /* \"LPStaking.sol\":14465:14543  require(address(WETH)==weth && pools[_poolId].reward ==mprw,\"Invalid LP pool\") */\n      0x04\n      dup3\n      add\n        /* \"#utility.yul\":18808:18829   */\n      mstore\n        /* \"#utility.yul\":18865:18867   */\n      0x0f\n        /* \"#utility.yul\":18845:18863   */\n      0x24\n      dup3\n      add\n        /* \"#utility.yul\":18838:18868   */\n      mstore\n      shl(0x8a, 0x125b9d985b1a59081314081c1bdbdb)\n        /* \"#utility.yul\":18884:18902   */\n      0x44\n      dup3\n      add\n        /* \"#utility.yul\":18877:18922   */\n      mstore\n        /* \"#utility.yul\":18939:18957   */\n      0x64\n      add\n        /* \"LPStaking.sol\":14465:14543  require(address(WETH)==weth && pools[_poolId].reward ==mprw,\"Invalid LP pool\") */\n      tag_187\n        /* \"#utility.yul\":18624:18963   */\n      jump\n        /* \"LPStaking.sol\":14465:14543  require(address(WETH)==weth && pools[_poolId].reward ==mprw,\"Invalid LP pool\") */\n    tag_444:\n        /* \"LPStaking.sol\":14553:14577  IERC721Upgradeable token */\n      0x00\n        /* \"LPStaking.sol\":14599:14604  pools */\n      0xa1\n        /* \"LPStaking.sol\":14605:14612  _poolId */\n      dup10\n        /* \"LPStaking.sol\":14599:14613  pools[_poolId] */\n      dup2\n      sload\n      dup2\n      lt\n      tag_448\n      jumpi\n      tag_448\n      tag_199\n      jump\t// in\n    tag_448:\n      0x00\n      swap2\n      dup3\n      mstore\n      0x20\n      swap1\n      swap2\n      keccak256\n      0x05\n      swap1\n      swap2\n      mul\n      add\n        /* \"LPStaking.sol\":14599:14619  pools[_poolId].token */\n      sload\n        /* \"LPStaking.sol\":14704:14753  token.isApprovedForAll(msg.sender, address(this)) */\n      mload(0x40)\n      shl(0xe0, 0xe985e9c5)\n      dup2\n      mstore\n        /* \"LPStaking.sol\":14727:14737  msg.sender */\n      caller\n        /* \"LPStaking.sol\":14704:14753  token.isApprovedForAll(msg.sender, address(this)) */\n      0x04\n      dup3\n      add\n        /* \"#utility.yul\":19180:19214   */\n      mstore\n        /* \"LPStaking.sol\":14747:14751  this */\n      address\n        /* \"#utility.yul\":19230:19248   */\n      0x24\n      dup3\n      add\n        /* \"#utility.yul\":19223:19266   */\n      mstore\n      sub(shl(0xa0, 0x01), 0x01)\n        /* \"LPStaking.sol\":14599:14619  pools[_poolId].token */\n      swap1\n      swap2\n      and\n      swap2\n      pop\n      dup2\n      swap1\n        /* \"LPStaking.sol\":14704:14726  token.isApprovedForAll */\n      0xe985e9c5\n      swap1\n        /* \"#utility.yul\":19115:19133   */\n      0x44\n      add\n        /* \"LPStaking.sol\":14704:14753  token.isApprovedForAll(msg.sender, address(this)) */\n      0x20\n      mload(0x40)\n      dup1\n      dup4\n      sub\n      dup2\n      dup7\n      gas\n      staticcall\n      iszero\n      dup1\n      iszero\n      tag_453\n      jumpi\n      returndatasize\n      0x00\n      dup1\n      returndatacopy\n      revert(0x00, returndatasize)\n    tag_453:\n      pop\n      pop\n      pop\n      pop\n      mload(0x40)\n      returndatasize\n      not(0x1f)\n      0x1f\n      dup3\n      add\n      and\n      dup3\n      add\n      dup1\n      0x40\n      mstore\n      pop\n      dup2\n      add\n      swap1\n      tag_454\n      swap2\n      swap1\n      tag_250\n      jump\t// in\n    tag_454:\n        /* \"LPStaking.sol\":14704:14798  token.isApprovedForAll(msg.sender, address(this)) || token.getApproved(tokenId)==address(this) */\n      dup1\n      tag_455\n      jumpi\n      pop\n        /* \"LPStaking.sol\":14757:14783  token.getApproved(tokenId) */\n      mload(0x40)\n      shl(0xe2, 0x020604bf)\n      dup2\n      mstore\n      0x04\n      dup2\n      add\n        /* \"#utility.yul\":160:185   */\n      dup10\n      swap1\n      mstore\n        /* \"LPStaking.sol\":14793:14797  this */\n      address\n      swap1\n      sub(shl(0xa0, 0x01), 0x01)\n        /* \"LPStaking.sol\":14757:14774  token.getApproved */\n      dup4\n      and\n      swap1\n      0x081812fc\n      swap1\n        /* \"#utility.yul\":133:151   */\n      0x24\n      add\n        /* \"LPStaking.sol\":14757:14783  token.getApproved(tokenId) */\n      0x20\n      mload(0x40)\n      dup1\n      dup4\n      sub\n      dup2\n      dup7\n      gas\n      staticcall\n      iszero\n      dup1\n      iszero\n      tag_458\n      jumpi\n      returndatasize\n      0x00\n      dup1\n      returndatacopy\n      revert(0x00, returndatasize)\n    tag_458:\n      pop\n      pop\n      pop\n      pop\n      mload(0x40)\n      returndatasize\n      not(0x1f)\n      0x1f\n      dup3\n      add\n      and\n      dup3\n      add\n      dup1\n      0x40\n      mstore\n      pop\n      dup2\n      add\n      swap1\n      tag_459\n      swap2\n      swap1\n      tag_460\n      jump\t// in\n    tag_459:\n      sub(shl(0xa0, 0x01), 0x01)\n        /* \"LPStaking.sol\":14757:14798  token.getApproved(tokenId)==address(this) */\n      and\n      eq\n        /* \"LPStaking.sol\":14704:14798  token.isApprovedForAll(msg.sender, address(this)) || token.getApproved(tokenId)==address(this) */\n    tag_455:\n        /* \"LPStaking.sol\":14696:14824  require(token.isApprovedForAll(msg.sender, address(this)) || token.getApproved(tokenId)==address(this), \"Staking: Not approved\") */\n      tag_461\n      jumpi\n      mload(0x40)\n      shl(0xe5, 0x461bcd)\n      dup2\n      mstore\n        /* \"#utility.yul\":19735:19737   */\n      0x20\n        /* \"LPStaking.sol\":14696:14824  require(token.isApprovedForAll(msg.sender, address(this)) || token.getApproved(tokenId)==address(this), \"Staking: Not approved\") */\n      0x04\n      dup3\n      add\n        /* \"#utility.yul\":19717:19738   */\n      mstore\n        /* \"#utility.yul\":19774:19776   */\n      0x15\n        /* \"#utility.yul\":19754:19772   */\n      0x24\n      dup3\n      add\n        /* \"#utility.yul\":19747:19777   */\n      mstore\n      shl(0x5a, 0x14dd185ada5b99ce88139bdd08185c1c1c9bdd9959)\n        /* \"#utility.yul\":19793:19811   */\n      0x44\n      dup3\n      add\n        /* \"#utility.yul\":19786:19837   */\n      mstore\n        /* \"#utility.yul\":19854:19872   */\n      0x64\n      add\n        /* \"LPStaking.sol\":14696:14824  require(token.isApprovedForAll(msg.sender, address(this)) || token.getApproved(tokenId)==address(this), \"Staking: Not approved\") */\n      tag_187\n        /* \"#utility.yul\":19533:19878   */\n      jump\n        /* \"LPStaking.sol\":14696:14824  require(token.isApprovedForAll(msg.sender, address(this)) || token.getApproved(tokenId)==address(this), \"Staking: Not approved\") */\n    tag_461:\n        /* \"LPStaking.sol\":14885:14939  token.transferFrom(msg.sender, address(this), tokenId) */\n      mload(0x40)\n      shl(0xe0, 0x23b872dd)\n      dup2\n      mstore\n      sub(shl(0xa0, 0x01), 0x01)\n        /* \"LPStaking.sol\":14885:14903  token.transferFrom */\n      dup3\n      and\n      swap1\n      0x23b872dd\n      swap1\n        /* \"LPStaking.sol\":14885:14939  token.transferFrom(msg.sender, address(this), tokenId) */\n      tag_464\n      swap1\n        /* \"LPStaking.sol\":14904:14914  msg.sender */\n      caller\n      swap1\n        /* \"LPStaking.sol\":14924:14928  this */\n      address\n      swap1\n        /* \"LPStaking.sol\":14931:14938  tokenId */\n      dup14\n      swap1\n        /* \"LPStaking.sol\":14885:14939  token.transferFrom(msg.sender, address(this), tokenId) */\n      0x04\n      add\n      tag_246\n      jump\t// in\n    tag_464:\n      0x00\n      mload(0x40)\n      dup1\n      dup4\n      sub\n      dup2\n      0x00\n      dup8\n      dup1\n      extcodesize\n      iszero\n      dup1\n      iszero\n      tag_465\n      jumpi\n      0x00\n      dup1\n      revert\n    tag_465:\n      pop\n      gas\n      call\n      iszero\n      dup1\n      iszero\n      tag_467\n      jumpi\n      returndatasize\n      0x00\n      dup1\n      returndatacopy\n      revert(0x00, returndatasize)\n    tag_467:\n      pop\n      pop\n      pop\n      pop\n        /* \"LPStaking.sol\":14950:14973  _depositIds.increment() */\n      tag_468\n        /* \"LPStaking.sol\":14950:14961  _depositIds */\n      0x97\n        /* \"@openzeppelin/contracts-upgradeable/utils/CountersUpgradeable.sol\":1043:1062  counter._value += 1 */\n      dup1\n      sload\n        /* \"@openzeppelin/contracts-upgradeable/utils/CountersUpgradeable.sol\":1061:1062  1 */\n      0x01\n        /* \"@openzeppelin/contracts-upgradeable/utils/CountersUpgradeable.sol\":1043:1062  counter._value += 1 */\n      add\n      swap1\n      sstore\n        /* \"@openzeppelin/contracts-upgradeable/utils/CountersUpgradeable.sol\":956:1079  function increment(Counter storage counter) internal {... */\n      jump\n        /* \"LPStaking.sol\":14950:14973  _depositIds.increment() */\n    tag_468:\n        /* \"LPStaking.sol\":14983:14993  uint256 id */\n      0x00\n        /* \"LPStaking.sol\":14996:15017  _depositIds.current() */\n      tag_470\n        /* \"LPStaking.sol\":14996:15007  _depositIds */\n      0x97\n        /* \"@openzeppelin/contracts-upgradeable/utils/CountersUpgradeable.sol\":929:943  counter._value */\n      sload\n      swap1\n        /* \"@openzeppelin/contracts-upgradeable/utils/CountersUpgradeable.sol\":838:950  function current(Counter storage counter) internal view returns (uint256) {... */\n      jump\n        /* \"LPStaking.sol\":14996:15017  _depositIds.current() */\n    tag_470:\n        /* \"LPStaking.sol\":14983:15017  uint256 id = _depositIds.current() */\n      swap1\n      pop\n        /* \"LPStaking.sol\":15064:15090  uint256 uncalculatedReward */\n      0x00\n        /* \"LPStaking.sol\":15093:15131  _calculateReward(msg.sender, id, true) */\n      tag_471\n        /* \"LPStaking.sol\":15110:15120  msg.sender */\n      caller\n        /* \"LPStaking.sol\":15122:15124  id */\n      dup4\n        /* \"LPStaking.sol\":15126:15130  true */\n      0x01\n        /* \"LPStaking.sol\":15093:15109  _calculateReward */\n      tag_273\n        /* \"LPStaking.sol\":15093:15131  _calculateReward(msg.sender, id, true) */\n      jump\t// in\n    tag_471:\n        /* \"LPStaking.sol\":15187:15197  msg.sender */\n      caller\n        /* \"LPStaking.sol\":15178:15198  deposits[msg.sender] */\n      0x00\n      swap1\n      dup2\n      mstore\n        /* \"LPStaking.sol\":15178:15186  deposits */\n      0x9e\n        /* \"LPStaking.sol\":15178:15198  deposits[msg.sender] */\n      0x20\n      swap1\n      dup2\n      mstore\n      0x40\n      dup1\n      dup4\n      keccak256\n        /* \"LPStaking.sol\":15178:15202  deposits[msg.sender][id] */\n      dup7\n      dup5\n      mstore\n      swap1\n      swap2\n      mstore\n      dup2\n      keccak256\n        /* \"LPStaking.sol\":15178:15217  deposits[msg.sender][id].depositId = id */\n      dup5\n      dup2\n      sstore\n        /* \"LPStaking.sol\":15227:15257  deposits[msg.sender][id].stake */\n      0x01\n      add\n        /* \"LPStaking.sol\":15227:15267  deposits[msg.sender][id].stake += amount */\n      dup1\n      sload\n        /* \"LPStaking.sol\":15064:15131  uint256 uncalculatedReward = _calculateReward(msg.sender, id, true) */\n      swap3\n      swap4\n      pop\n      sub(shl(0x80, 0x01), 0x01)\n        /* \"LPStaking.sol\":15227:15267  deposits[msg.sender][id].stake += amount */\n      dup8\n      and\n      swap3\n        /* \"LPStaking.sol\":15227:15257  deposits[msg.sender][id].stake */\n      swap1\n      swap2\n        /* \"LPStaking.sol\":15178:15198  deposits[msg.sender] */\n      swap1\n        /* \"LPStaking.sol\":15227:15267  deposits[msg.sender][id].stake += amount */\n      tag_472\n      swap1\n      dup5\n      swap1\n      tag_275\n      jump\t// in\n    tag_472:\n      swap1\n      swap2\n      sstore\n      pop\n      pop\n        /* \"LPStaking.sol\":15286:15296  msg.sender */\n      caller\n        /* \"LPStaking.sol\":15277:15297  deposits[msg.sender] */\n      0x00\n      swap1\n      dup2\n      mstore\n        /* \"LPStaking.sol\":15277:15285  deposits */\n      0x9e\n        /* \"LPStaking.sol\":15277:15297  deposits[msg.sender] */\n      0x20\n      swap1\n      dup2\n      mstore\n      0x40\n      dup1\n      dup4\n      keccak256\n        /* \"LPStaking.sol\":15277:15301  deposits[msg.sender][id] */\n      dup6\n      dup5\n      mstore\n      swap1\n      swap2\n      mstore\n      dup2\n      keccak256\n        /* \"LPStaking.sol\":15277:15308  deposits[msg.sender][id].reward */\n      0x02\n      add\n        /* \"LPStaking.sol\":15277:15330  deposits[msg.sender][id].reward += uncalculatedReward */\n      dup1\n      sload\n        /* \"LPStaking.sol\":15312:15330  uncalculatedReward */\n      dup4\n      swap3\n        /* \"LPStaking.sol\":15277:15297  deposits[msg.sender] */\n      swap1\n        /* \"LPStaking.sol\":15277:15330  deposits[msg.sender][id].reward += uncalculatedReward */\n      tag_473\n      swap1\n        /* \"LPStaking.sol\":15312:15330  uncalculatedReward */\n      dup5\n      swap1\n        /* \"LPStaking.sol\":15277:15330  deposits[msg.sender][id].reward += uncalculatedReward */\n      tag_275\n      jump\t// in\n    tag_473:\n      swap1\n      swap2\n      sstore\n      pop\n      pop\n        /* \"LPStaking.sol\":15349:15359  msg.sender */\n      caller\n        /* \"LPStaking.sol\":15340:15360  deposits[msg.sender] */\n      0x00\n      swap1\n      dup2\n      mstore\n        /* \"LPStaking.sol\":15340:15348  deposits */\n      0x9e\n        /* \"LPStaking.sol\":15340:15360  deposits[msg.sender] */\n      0x20\n      swap1\n      dup2\n      mstore\n      0x40\n      dup1\n      dup4\n      keccak256\n        /* \"LPStaking.sol\":15340:15364  deposits[msg.sender][id] */\n      dup6\n      dup5\n      mstore\n      dup1\n      dup4\n      mstore\n      dup2\n      dup5\n      keccak256\n        /* \"LPStaking.sol\":15388:15403  block.timestamp */\n      timestamp\n        /* \"LPStaking.sol\":15340:15385  deposits[msg.sender][id].lastRewardCalculated */\n      0x05\n      dup3\n      add\n        /* \"LPStaking.sol\":15340:15403  deposits[msg.sender][id].lastRewardCalculated = block.timestamp */\n      sstore\n        /* \"LPStaking.sol\":8345:8371  vestingAPRPerPool[_poolId] */\n      dup16\n      dup6\n      mstore\n        /* \"LPStaking.sol\":8345:8362  vestingAPRPerPool */\n      0x9c\n        /* \"LPStaking.sol\":8345:8371  vestingAPRPerPool[_poolId] */\n      dup5\n      mstore\n      dup3\n      dup6\n      keccak256\n        /* \"LPStaking.sol\":8345:8380  vestingAPRPerPool[_poolId][_period] */\n      dup15\n      dup7\n      mstore\n      dup5\n      mstore\n      swap2\n      dup5\n      keccak256\n      sload\n        /* \"LPStaking.sol\":15413:15437  deposits[msg.sender][id] */\n      swap4\n      dup7\n      swap1\n      mstore\n      swap1\n      swap2\n      mstore\n        /* \"LPStaking.sol\":15413:15441  deposits[msg.sender][id].APR */\n      0x03\n      add\n        /* \"LPStaking.sol\":15413:15468  deposits[msg.sender][id].APR = getAPR(_poolId, _period) */\n      sstore\n        /* \"LPStaking.sol\":15531:15548  _period * 30 days */\n      tag_475\n        /* \"LPStaking.sol\":8345:8380  vestingAPRPerPool[_poolId][_period] */\n      dup10\n        /* \"LPStaking.sol\":15541:15548  30 days */\n      0x278d00\n        /* \"LPStaking.sol\":15531:15548  _period * 30 days */\n      tag_224\n      jump\t// in\n    tag_475:\n        /* \"LPStaking.sol\":15512:15549  block.timestamp + (_period * 30 days) */\n      tag_476\n      swap1\n        /* \"LPStaking.sol\":15512:15527  block.timestamp */\n      timestamp\n        /* \"LPStaking.sol\":15512:15549  block.timestamp + (_period * 30 days) */\n      tag_275\n      jump\t// in\n    tag_476:\n        /* \"LPStaking.sol\":15478:15486  deposits */\n      0x9e\n        /* \"LPStaking.sol\":15478:15498  deposits[msg.sender] */\n      0x00\n        /* \"LPStaking.sol\":15487:15497  msg.sender */\n      caller\n      sub(shl(0xa0, 0x01), 0x01)\n        /* \"LPStaking.sol\":15478:15498  deposits[msg.sender] */\n      and\n      sub(shl(0xa0, 0x01), 0x01)\n      and\n      dup2\n      mstore\n      0x20\n      add\n      swap1\n      dup2\n      mstore\n      0x20\n      add\n      0x00\n      keccak256\n        /* \"LPStaking.sol\":15478:15502  deposits[msg.sender][id] */\n      0x00\n        /* \"LPStaking.sol\":15499:15501  id */\n      dup5\n        /* \"LPStaking.sol\":15478:15502  deposits[msg.sender][id] */\n      dup2\n      mstore\n      0x20\n      add\n      swap1\n      dup2\n      mstore\n      0x20\n      add\n      0x00\n      keccak256\n        /* \"LPStaking.sol\":15478:15509  deposits[msg.sender][id].period */\n      0x04\n      add\n        /* \"LPStaking.sol\":15478:15549  deposits[msg.sender][id].period = block.timestamp + (_period * 30 days) */\n      dup2\n      swap1\n      sstore\n      pop\n        /* \"LPStaking.sol\":15593:15600  _poolId */\n      dup11\n        /* \"LPStaking.sol\":15559:15567  deposits */\n      0x9e\n        /* \"LPStaking.sol\":15559:15579  deposits[msg.sender] */\n      0x00\n        /* \"LPStaking.sol\":15568:15578  msg.sender */\n      caller\n      sub(shl(0xa0, 0x01), 0x01)\n        /* \"LPStaking.sol\":15559:15579  deposits[msg.sender] */\n      and\n      sub(shl(0xa0, 0x01), 0x01)\n      and\n      dup2\n      mstore\n      0x20\n      add\n      swap1\n      dup2\n      mstore\n      0x20\n      add\n      0x00\n      keccak256\n        /* \"LPStaking.sol\":15559:15583  deposits[msg.sender][id] */\n      0x00\n        /* \"LPStaking.sol\":15580:15582  id */\n      dup5\n        /* \"LPStaking.sol\":15559:15583  deposits[msg.sender][id] */\n      dup2\n      mstore\n      0x20\n      add\n      swap1\n      dup2\n      mstore\n      0x20\n      add\n      0x00\n      keccak256\n        /* \"LPStaking.sol\":15559:15590  deposits[msg.sender][id].poolId */\n      0x06\n      add\n        /* \"LPStaking.sol\":15559:15600  deposits[msg.sender][id].poolId = _poolId */\n      dup2\n      swap1\n      sstore\n      pop\n        /* \"LPStaking.sol\":15647:15654  _period */\n      dup9\n        /* \"LPStaking.sol\":15610:15618  deposits */\n      0x9e\n        /* \"LPStaking.sol\":15610:15630  deposits[msg.sender] */\n      0x00\n        /* \"LPStaking.sol\":15619:15629  msg.sender */\n      caller\n      sub(shl(0xa0, 0x01), 0x01)\n        /* \"LPStaking.sol\":15610:15630  deposits[msg.sender] */\n      and\n      sub(shl(0xa0, 0x01), 0x01)\n      and\n      dup2\n      mstore\n      0x20\n      add\n      swap1\n      dup2\n      mstore\n      0x20\n      add\n      0x00\n      keccak256\n        /* \"LPStaking.sol\":15610:15634  deposits[msg.sender][id] */\n      0x00\n        /* \"LPStaking.sol\":15631:15633  id */\n      dup5\n        /* \"LPStaking.sol\":15610:15634  deposits[msg.sender][id] */\n      dup2\n      mstore\n      0x20\n      add\n      swap1\n      dup2\n      mstore\n      0x20\n      add\n      0x00\n      keccak256\n        /* \"LPStaking.sol\":15610:15644  deposits[msg.sender][id].vestedFor */\n      0x07\n      add\n        /* \"LPStaking.sol\":15610:15654  deposits[msg.sender][id].vestedFor = _period */\n      dup2\n      swap1\n      sstore\n      pop\n        /* \"LPStaking.sol\":15697:15704  tokenId */\n      dup10\n        /* \"LPStaking.sol\":15664:15672  deposits */\n      0x9e\n        /* \"LPStaking.sol\":15664:15684  deposits[msg.sender] */\n      0x00\n        /* \"LPStaking.sol\":15673:15683  msg.sender */\n      caller\n      sub(shl(0xa0, 0x01), 0x01)\n        /* \"LPStaking.sol\":15664:15684  deposits[msg.sender] */\n      and\n      sub(shl(0xa0, 0x01), 0x01)\n      and\n      dup2\n      mstore\n      0x20\n      add\n      swap1\n      dup2\n      mstore\n      0x20\n      add\n      0x00\n      keccak256\n        /* \"LPStaking.sol\":15664:15688  deposits[msg.sender][id] */\n      0x00\n        /* \"LPStaking.sol\":15685:15687  id */\n      dup5\n        /* \"LPStaking.sol\":15664:15688  deposits[msg.sender][id] */\n      dup2\n      mstore\n      0x20\n      add\n      swap1\n      dup2\n      mstore\n      0x20\n      add\n      0x00\n      keccak256\n        /* \"LPStaking.sol\":15664:15694  deposits[msg.sender][id].NFTId */\n      0x08\n      add\n        /* \"LPStaking.sol\":15664:15704  deposits[msg.sender][id].NFTId = tokenId */\n      dup2\n      swap1\n      sstore\n      pop\n        /* \"LPStaking.sol\":15715:15729  userDepositMap */\n      0x9f\n        /* \"LPStaking.sol\":15715:15741  userDepositMap[msg.sender] */\n      0x00\n        /* \"LPStaking.sol\":15730:15740  msg.sender */\n      caller\n      sub(shl(0xa0, 0x01), 0x01)\n        /* \"LPStaking.sol\":15715:15741  userDepositMap[msg.sender] */\n      and\n      sub(shl(0xa0, 0x01), 0x01)\n      and\n      dup2\n      mstore\n      0x20\n      add\n      swap1\n      dup2\n      mstore\n      0x20\n      add\n      0x00\n      keccak256\n        /* \"LPStaking.sol\":15747:15749  id */\n      dup3\n        /* \"LPStaking.sol\":15715:15750  userDepositMap[msg.sender].push(id) */\n      swap1\n      dup1\n      0x01\n      dup2\n      sload\n      add\n      dup1\n      dup3\n      sstore\n      dup1\n      swap2\n      pop\n      pop\n      0x01\n      swap1\n      sub\n      swap1\n      0x00\n      mstore\n      keccak256(0x00, 0x20)\n      add\n      0x00\n      swap1\n      swap2\n      swap1\n      swap2\n      swap1\n      swap2\n      pop\n      sstore\n        /* \"LPStaking.sol\":15781:15789  deposits */\n      0x9e\n        /* \"LPStaking.sol\":15781:15801  deposits[msg.sender] */\n      0x00\n        /* \"LPStaking.sol\":15790:15800  msg.sender */\n      caller\n      sub(shl(0xa0, 0x01), 0x01)\n        /* \"LPStaking.sol\":15781:15801  deposits[msg.sender] */\n      and\n      sub(shl(0xa0, 0x01), 0x01)\n      and\n      dup2\n      mstore\n      0x20\n      add\n      swap1\n      dup2\n      mstore\n      0x20\n      add\n      0x00\n      keccak256\n        /* \"LPStaking.sol\":15781:15805  deposits[msg.sender][id] */\n      0x00\n        /* \"LPStaking.sol\":15802:15804  id */\n      dup4\n        /* \"LPStaking.sol\":15781:15805  deposits[msg.sender][id] */\n      dup2\n      mstore\n      0x20\n      add\n      swap1\n      dup2\n      mstore\n      0x20\n      add\n      0x00\n      keccak256\n        /* \"LPStaking.sol\":15760:15774  depositDetails */\n      0xa0\n        /* \"LPStaking.sol\":15760:15778  depositDetails[id] */\n      0x00\n        /* \"LPStaking.sol\":15775:15777  id */\n      dup5\n        /* \"LPStaking.sol\":15760:15778  depositDetails[id] */\n      dup2\n      mstore\n      0x20\n      add\n      swap1\n      dup2\n      mstore\n      0x20\n      add\n      0x00\n      keccak256\n        /* \"LPStaking.sol\":15760:15805  depositDetails[id] = deposits[msg.sender][id] */\n      0x00\n      dup3\n      add\n      sload\n      dup2\n      0x00\n      add\n      sstore\n      0x01\n      dup3\n      add\n      sload\n      dup2\n      0x01\n      add\n      sstore\n      0x02\n      dup3\n      add\n      sload\n      dup2\n      0x02\n      add\n      sstore\n      0x03\n      dup3\n      add\n      sload\n      dup2\n      0x03\n      add\n      sstore\n      0x04\n      dup3\n      add\n      sload\n      dup2\n      0x04\n      add\n      sstore\n      0x05\n      dup3\n      add\n      sload\n      dup2\n      0x05\n      add\n      sstore\n      0x06\n      dup3\n      add\n      sload\n      dup2\n      0x06\n      add\n      sstore\n      0x07\n      dup3\n      add\n      sload\n      dup2\n      0x07\n      add\n      sstore\n      0x08\n      dup3\n      add\n      sload\n      dup2\n      0x08\n      add\n      sstore\n      swap1\n      pop\n      pop\n        /* \"LPStaking.sol\":15859:15865  amount */\n      dup4\n      sub(shl(0x80, 0x01), 0x01)\n        /* \"LPStaking.sol\":15837:15865  pools[_poolId].tvl += amount */\n      and\n        /* \"LPStaking.sol\":15837:15842  pools */\n      0xa1\n        /* \"LPStaking.sol\":15843:15850  _poolId */\n      dup13\n        /* \"LPStaking.sol\":15837:15851  pools[_poolId] */\n      dup2\n      sload\n      dup2\n      lt\n      tag_479\n      jumpi\n      tag_479\n      tag_199\n      jump\t// in\n    tag_479:\n      swap1\n      0x00\n      mstore\n      keccak256(0x00, 0x20)\n      swap1\n      0x05\n      mul\n      add\n        /* \"LPStaking.sol\":15837:15855  pools[_poolId].tvl */\n      0x02\n      add\n      0x00\n        /* \"LPStaking.sol\":15837:15865  pools[_poolId].tvl += amount */\n      dup3\n      dup3\n      sload\n      tag_481\n      swap2\n      swap1\n      tag_275\n      jump\t// in\n    tag_481:\n      swap1\n      swap2\n      sstore\n      pop\n      pop\n        /* \"LPStaking.sol\":15875:15897  periodPoolMap[_period] */\n      0x00\n      dup10\n      dup2\n      mstore\n        /* \"LPStaking.sol\":15875:15888  periodPoolMap */\n      0xa2\n        /* \"LPStaking.sol\":15875:15897  periodPoolMap[_period] */\n      0x20\n      mstore\n      0x40\n      dup2\n      keccak256\n        /* \"LPStaking.sol\":15875:15911  periodPoolMap[_period].tvl += amount */\n      dup1\n      sload\n      sub(shl(0x80, 0x01), 0x01)\n      dup8\n      and\n      swap3\n        /* \"LPStaking.sol\":15875:15897  periodPoolMap[_period] */\n      swap1\n        /* \"LPStaking.sol\":15875:15911  periodPoolMap[_period].tvl += amount */\n      tag_482\n      swap1\n      dup5\n      swap1\n      tag_275\n      jump\t// in\n    tag_482:\n      swap1\n      swap2\n      sstore\n      pop\n      pop\n        /* \"LPStaking.sol\":15927:15979  Staked(msg.sender, amount, _poolId, block.timestamp) */\n      0x40\n      dup1\n      mload\n      sub(shl(0x80, 0x01), 0x01)\n        /* \"#utility.yul\":20075:20122   */\n      dup7\n      and\n        /* \"#utility.yul\":20057:20123   */\n      dup2\n      mstore\n        /* \"LPStaking.sol\":15963:15978  block.timestamp */\n      timestamp\n        /* \"#utility.yul\":20154:20156   */\n      0x20\n        /* \"#utility.yul\":20139:20157   */\n      dup3\n      add\n        /* \"#utility.yul\":20132:20166   */\n      mstore\n        /* \"LPStaking.sol\":15954:15961  _poolId */\n      dup13\n      swap2\n        /* \"LPStaking.sol\":15934:15944  msg.sender */\n      caller\n      swap2\n        /* \"LPStaking.sol\":15927:15979  Staked(msg.sender, amount, _poolId, block.timestamp) */\n      0xb4caaf29adda3eefee3ad552a8e85058589bf834c7466cae4ee58787f70589ed\n      swap2\n        /* \"#utility.yul\":20030:20048   */\n      add\n        /* \"LPStaking.sol\":15927:15979  Staked(msg.sender, amount, _poolId, block.timestamp) */\n      mload(0x40)\n      dup1\n      swap2\n      sub\n      swap1\n      log3\n      pop\n        /* \"@openzeppelin/contracts-upgradeable/security/ReentrancyGuardUpgradeable.sol\":1772:1773  1 */\n      0x01\n        /* \"@openzeppelin/contracts-upgradeable/security/ReentrancyGuardUpgradeable.sol\":2872:2894  _status = _NOT_ENTERED */\n      dup1\n      sstore\n        /* \"LPStaking.sol\":15996:15998  id */\n      swap10\n        /* \"LPStaking.sol\":13943:16005  function stake(... */\n      swap9\n      pop\n      pop\n      pop\n      pop\n      pop\n      pop\n      pop\n      pop\n      pop\n      jump\t// out\n        /* \"LPStaking.sol\":4160:4186  stakingPool[] public pools */\n    tag_123:\n      0xa1\n      dup2\n      dup2\n      sload\n      dup2\n      lt\n      tag_485\n      jumpi\n      0x00\n      dup1\n      revert\n    tag_485:\n      0x00\n      swap2\n      dup3\n      mstore\n      0x20\n      swap1\n      swap2\n      keccak256\n      0x05\n      swap1\n      swap2\n      mul\n      add\n      dup1\n      sload\n      0x01\n      dup3\n      add\n      sload\n      0x02\n      dup4\n      add\n      sload\n      0x03\n      dup5\n      add\n      sload\n      0x04\n      swap1\n      swap5\n      add\n      sload\n      sub(shl(0xa0, 0x01), 0x01)\n      swap4\n      dup5\n      and\n      swap6\n      pop\n      swap2\n      swap1\n      swap3\n      and\n      swap3\n      swap1\n      dup6\n      jump\t// out\n        /* \"LPStaking.sol\":22496:22606  function getAccMarketFee() public view returns (uint256) {... */\n    tag_131:\n        /* \"LPStaking.sol\":22570:22574  WETH */\n      sload(0x9a)\n        /* \"LPStaking.sol\":22570:22599  WETH.balanceOf(address(this)) */\n      mload(0x40)\n      shl(0xe0, 0x70a08231)\n      dup2\n      mstore\n        /* \"LPStaking.sol\":22593:22597  this */\n      address\n        /* \"LPStaking.sol\":22570:22599  WETH.balanceOf(address(this)) */\n      0x04\n      dup3\n      add\n        /* \"#utility.yul\":2643:2694   */\n      mstore\n        /* \"LPStaking.sol\":22544:22551  uint256 */\n      0x00\n      swap2\n      sub(shl(0xa0, 0x01), 0x01)\n        /* \"LPStaking.sol\":22570:22574  WETH */\n      and\n      swap1\n        /* \"LPStaking.sol\":22570:22584  WETH.balanceOf */\n      0x70a08231\n      swap1\n        /* \"#utility.yul\":2616:2634   */\n      0x24\n      add\n        /* \"LPStaking.sol\":22570:22599  WETH.balanceOf(address(this)) */\n      0x20\n      mload(0x40)\n      dup1\n      dup4\n      sub\n      dup2\n      dup7\n      gas\n      staticcall\n      iszero\n      dup1\n      iszero\n      tag_490\n      jumpi\n      returndatasize\n      0x00\n      dup1\n      returndatacopy\n      revert(0x00, returndatasize)\n    tag_490:\n      pop\n      pop\n      pop\n      pop\n      mload(0x40)\n      returndatasize\n      not(0x1f)\n      0x1f\n      dup3\n      add\n      and\n      dup3\n      add\n      dup1\n      0x40\n      mstore\n      pop\n      dup2\n      add\n      swap1\n      tag_491\n      swap2\n      swap1\n      tag_243\n      jump\t// in\n    tag_491:\n        /* \"LPStaking.sol\":22563:22599  return WETH.balanceOf(address(this)) */\n      swap1\n      pop\n        /* \"LPStaking.sol\":22496:22606  function getAccMarketFee() public view returns (uint256) {... */\n      swap1\n      jump\t// out\n        /* \"LPStaking.sol\":13280:13590  function calculateReward(... */\n    tag_140:\n      sub(shl(0xa0, 0x01), 0x01)\n        /* \"LPStaking.sol\":13468:13490  deposits[_stakeHolder] */\n      dup4\n      and\n        /* \"LPStaking.sol\":13408:13422  uint256 reward */\n      0x00\n        /* \"LPStaking.sol\":13468:13490  deposits[_stakeHolder] */\n      swap1\n      dup2\n      mstore\n        /* \"LPStaking.sol\":13468:13476  deposits */\n      0x9e\n        /* \"LPStaking.sol\":13468:13490  deposits[_stakeHolder] */\n      0x20\n      swap1\n      dup2\n      mstore\n      0x40\n      dup1\n      dup4\n      keccak256\n        /* \"LPStaking.sol\":13468:13496  deposits[_stakeHolder][_dId] */\n      dup6\n      dup5\n      mstore\n      dup3\n      mstore\n      dup1\n      dup4\n      keccak256\n        /* \"LPStaking.sol\":13434:13496  stakeDetails memory stakeDetail = deposits[_stakeHolder][_dId] */\n      dup2\n      mload\n      0x0120\n      dup2\n      add\n      dup4\n      mstore\n      dup2\n      sload\n      dup2\n      mstore\n      0x01\n      dup3\n      add\n      sload\n      swap4\n      dup2\n      add\n      swap4\n      swap1\n      swap4\n      mstore\n      0x02\n      dup2\n      add\n      sload\n      swap2\n      dup4\n      add\n      swap2\n      swap1\n      swap2\n      mstore\n      0x03\n      dup2\n      add\n      sload\n      0x60\n      dup4\n      add\n      mstore\n      0x04\n      dup2\n      add\n      sload\n      0x80\n      dup4\n      add\n      mstore\n      0x05\n      dup2\n      add\n      sload\n      0xa0\n      dup4\n      add\n      mstore\n      0x06\n      dup2\n      add\n      sload\n      0xc0\n      dup4\n      add\n      mstore\n      0x07\n      dup2\n      add\n      sload\n      0xe0\n      dup4\n      add\n      mstore\n      0x08\n      add\n      sload\n      0x0100\n      dup3\n      add\n      mstore\n        /* \"LPStaking.sol\":13536:13583  _calculateReward(_stakeHolder, _dId, isProrata) */\n      tag_493\n        /* \"LPStaking.sol\":13477:13489  _stakeHolder */\n      dup6\n        /* \"LPStaking.sol\":13491:13495  _dId */\n      dup6\n        /* \"LPStaking.sol\":13573:13582  isProrata */\n      dup6\n        /* \"LPStaking.sol\":13536:13552  _calculateReward */\n      tag_273\n        /* \"LPStaking.sol\":13536:13583  _calculateReward(_stakeHolder, _dId, isProrata) */\n      jump\t// in\n    tag_493:\n        /* \"LPStaking.sol\":13515:13526  stakeDetail */\n      dup2\n        /* \"LPStaking.sol\":13515:13533  stakeDetail.reward */\n      0x40\n      add\n      mload\n        /* \"LPStaking.sol\":13515:13583  stakeDetail.reward + _calculateReward(_stakeHolder, _dId, isProrata) */\n      tag_494\n      swap2\n      swap1\n      tag_275\n      jump\t// in\n    tag_494:\n        /* \"LPStaking.sol\":13506:13583  reward = stakeDetail.reward + _calculateReward(_stakeHolder, _dId, isProrata) */\n      swap6\n        /* \"LPStaking.sol\":13280:13590  function calculateReward(... */\n      swap5\n      pop\n      pop\n      pop\n      pop\n      pop\n      jump\t// out\n        /* \"LPStaking.sol\":22205:22361  function haveSuffecientFundsForReward(uint256 _poolId) public view returns (bool) {... */\n    tag_156:\n        /* \"LPStaking.sol\":22281:22285  bool */\n      0x00\n        /* \"LPStaking.sol\":22341:22354  totalReward() */\n      tag_496\n        /* \"LPStaking.sol\":22341:22352  totalReward */\n      tag_79\n        /* \"LPStaking.sol\":22341:22354  totalReward() */\n      jump\t// in\n    tag_496:\n        /* \"LPStaking.sol\":22304:22309  pools */\n      0xa1\n        /* \"LPStaking.sol\":22310:22317  _poolId */\n      dup4\n        /* \"LPStaking.sol\":22304:22318  pools[_poolId] */\n      dup2\n      sload\n      dup2\n      lt\n      tag_498\n      jumpi\n      tag_498\n      tag_199\n      jump\t// in\n    tag_498:\n      swap1\n      0x00\n      mstore\n      keccak256(0x00, 0x20)\n      swap1\n      0x05\n      mul\n      add\n        /* \"LPStaking.sol\":22304:22337  pools[_poolId].totalAllotedReward */\n      0x03\n      add\n      sload\n        /* \"LPStaking.sol\":22304:22354  pools[_poolId].totalAllotedReward >= totalReward() */\n      lt\n      iszero\n        /* \"LPStaking.sol\":22297:22354  return pools[_poolId].totalAllotedReward >= totalReward() */\n      swap1\n      pop\n        /* \"LPStaking.sol\":22205:22361  function haveSuffecientFundsForReward(uint256 _poolId) public view returns (bool) {... */\n      swap2\n      swap1\n      pop\n      jump\t// out\n        /* \"LPStaking.sol\":7185:7353  function ResumeStaking() public onlyOwner {... */\n    tag_163:\n        /* \"@openzeppelin/contracts-upgradeable/access/OwnableUpgradeable.sol\":1348:1354  _owner */\n      and(sub(shl(0xa0, 0x01), 0x01), sload(0x65))\n        /* \"@openzeppelin/contracts-upgradeable/utils/ContextUpgradeable.sol\":929:939  msg.sender */\n      caller\n        /* \"@openzeppelin/contracts-upgradeable/access/OwnableUpgradeable.sol\":1488:1511  owner() == _msgSender() */\n      eq\n        /* \"@openzeppelin/contracts-upgradeable/access/OwnableUpgradeable.sol\":1480:1548  require(owner() == _msgSender(), \"Ownable: caller is not the owner\") */\n      tag_503\n      jumpi\n      mload(0x40)\n      shl(0xe5, 0x461bcd)\n      dup2\n      mstore\n      0x04\n      add\n      tag_187\n      swap1\n      tag_188\n      jump\t// in\n    tag_503:\n        /* \"LPStaking.sol\":7245:7253  isPaused */\n      and(0xff, sload(0xa4))\n        /* \"LPStaking.sol\":7237:7277  require(isPaused, \"Already Operational\") */\n      tag_506\n      jumpi\n      mload(0x40)\n      shl(0xe5, 0x461bcd)\n      dup2\n      mstore\n        /* \"#utility.yul\":20379:20381   */\n      0x20\n        /* \"LPStaking.sol\":7237:7277  require(isPaused, \"Already Operational\") */\n      0x04\n      dup3\n      add\n        /* \"#utility.yul\":20361:20382   */\n      mstore\n        /* \"#utility.yul\":20418:20420   */\n      0x13\n        /* \"#utility.yul\":20398:20416   */\n      0x24\n      dup3\n      add\n        /* \"#utility.yul\":20391:20421   */\n      mstore\n      shl(0x6a, 0x105b1c9958591e4813dc195c985d1a5bdb985b)\n        /* \"#utility.yul\":20437:20455   */\n      0x44\n      dup3\n      add\n        /* \"#utility.yul\":20430:20479   */\n      mstore\n        /* \"#utility.yul\":20496:20514   */\n      0x64\n      add\n        /* \"LPStaking.sol\":7237:7277  require(isPaused, \"Already Operational\") */\n      tag_187\n        /* \"#utility.yul\":20177:20520   */\n      jump\n        /* \"LPStaking.sol\":7237:7277  require(isPaused, \"Already Operational\") */\n    tag_506:\n        /* \"LPStaking.sol\":7287:7295  isPaused */\n      0xa4\n        /* \"LPStaking.sol\":7287:7303  isPaused = false */\n      dup1\n      sload\n      not(0xff)\n      and\n      swap1\n      sstore\n        /* \"LPStaking.sol\":7331:7346  block.timestamp */\n      timestamp\n        /* \"LPStaking.sol\":7313:7328  pausedTimestamp */\n      0xa5\n        /* \"LPStaking.sol\":7313:7346  pausedTimestamp = block.timestamp */\n      sstore\n        /* \"LPStaking.sol\":7185:7353  function ResumeStaking() public onlyOwner {... */\n      jump\t// out\n        /* \"LPStaking.sol\":5014:5358  function initialize(... */\n    tag_167:\n        /* \"@openzeppelin/contracts-upgradeable/proxy/utils/Initializable.sol\":3111:3130  bool isTopLevelCall */\n      0x00\n        /* \"@openzeppelin/contracts-upgradeable/proxy/utils/Initializable.sol\":3133:3158  _setInitializedVersion(1) */\n      tag_510\n        /* \"@openzeppelin/contracts-upgradeable/proxy/utils/Initializable.sol\":3156:3157  1 */\n      0x01\n        /* \"@openzeppelin/contracts-upgradeable/proxy/utils/Initializable.sol\":3133:3155  _setInitializedVersion */\n      tag_511\n        /* \"@openzeppelin/contracts-upgradeable/proxy/utils/Initializable.sol\":3133:3158  _setInitializedVersion(1) */\n      jump\t// in\n    tag_510:\n        /* \"@openzeppelin/contracts-upgradeable/proxy/utils/Initializable.sol\":3111:3158  bool isTopLevelCall = _setInitializedVersion(1) */\n      swap1\n      pop\n        /* \"@openzeppelin/contracts-upgradeable/proxy/utils/Initializable.sol\":3172:3186  isTopLevelCall */\n      dup1\n        /* \"@openzeppelin/contracts-upgradeable/proxy/utils/Initializable.sol\":3168:3233  if (isTopLevelCall) {... */\n      iszero\n      tag_512\n      jumpi\n        /* \"@openzeppelin/contracts-upgradeable/proxy/utils/Initializable.sol\":3202:3215  _initializing */\n      0x00\n        /* \"@openzeppelin/contracts-upgradeable/proxy/utils/Initializable.sol\":3202:3222  _initializing = true */\n      dup1\n      sload\n      not(0xff00)\n      and\n      0x0100\n      or\n      swap1\n      sstore\n        /* \"@openzeppelin/contracts-upgradeable/proxy/utils/Initializable.sol\":3168:3233  if (isTopLevelCall) {... */\n    tag_512:\n        /* \"LPStaking.sol\":5133:5149  __Context_init() */\n      tag_514\n        /* \"LPStaking.sol\":5133:5147  __Context_init */\n      tag_515\n        /* \"LPStaking.sol\":5133:5149  __Context_init() */\n      jump\t// in\n    tag_514:\n        /* \"LPStaking.sol\":5159:5175  __Ownable_init() */\n      tag_516\n        /* \"LPStaking.sol\":5159:5173  __Ownable_init */\n      tag_517\n        /* \"LPStaking.sol\":5159:5175  __Ownable_init() */\n      jump\t// in\n    tag_516:\n        /* \"LPStaking.sol\":5185:5209  __ReentrancyGuard_init() */\n      tag_518\n        /* \"LPStaking.sol\":5185:5207  __ReentrancyGuard_init */\n      tag_519\n        /* \"LPStaking.sol\":5185:5209  __ReentrancyGuard_init() */\n      jump\t// in\n    tag_518:\n        /* \"LPStaking.sol\":5228:5246  periods = _periods */\n      dup2\n      mload\n      tag_520\n      swap1\n        /* \"LPStaking.sol\":5228:5235  periods */\n      0xa3\n      swap1\n        /* \"LPStaking.sol\":5228:5246  periods = _periods */\n      0x20\n      dup6\n      add\n      swap1\n      tag_521\n      jump\t// in\n    tag_520:\n      pop\n        /* \"LPStaking.sol\":5256:5260  WETH */\n      0x9a\n        /* \"LPStaking.sol\":5256:5291  WETH = IERC20Upgradeable(_feeToken) */\n      dup1\n      sload\n      not(sub(shl(0xa0, 0x01), 0x01))\n      and\n      sub(shl(0xa0, 0x01), 0x01)\n      dup6\n      and\n      or\n      swap1\n      sstore\n        /* \"LPStaking.sol\":5311:5319  365 days */\n      0x01e13380\n        /* \"LPStaking.sol\":5301:5308  APRTime */\n      0x98\n        /* \"LPStaking.sol\":5301:5319  APRTime = 365 days */\n      sstore\n        /* \"LPStaking.sol\":5329:5351  setPeriodSum(_periods) */\n      tag_522\n        /* \"LPStaking.sol\":5342:5350  _periods */\n      dup3\n        /* \"LPStaking.sol\":5329:5341  setPeriodSum */\n      tag_523\n        /* \"LPStaking.sol\":5329:5351  setPeriodSum(_periods) */\n      jump\t// in\n    tag_522:\n        /* \"@openzeppelin/contracts-upgradeable/proxy/utils/Initializable.sol\":3257:3271  isTopLevelCall */\n      dup1\n        /* \"@openzeppelin/contracts-upgradeable/proxy/utils/Initializable.sol\":3253:3352  if (isTopLevelCall) {... */\n      iszero\n      tag_524\n      jumpi\n        /* \"@openzeppelin/contracts-upgradeable/proxy/utils/Initializable.sol\":3303:3308  false */\n      0x00\n        /* \"@openzeppelin/contracts-upgradeable/proxy/utils/Initializable.sol\":3287:3308  _initializing = false */\n      dup1\n      sload\n      not(0xff00)\n      and\n      swap1\n      sstore\n        /* \"@openzeppelin/contracts-upgradeable/proxy/utils/Initializable.sol\":3327:3341  Initialized(1) */\n      mload(0x40)\n      0x01\n        /* \"#utility.yul\":20677:20713   */\n      dup2\n      mstore\n        /* \"@openzeppelin/contracts-upgradeable/proxy/utils/Initializable.sol\":3327:3341  Initialized(1) */\n      0x7f26b83ff96e1f2b6a682f133852f6798a09c465da95921460cefb3847402498\n      swap1\n        /* \"#utility.yul\":20665:20667   */\n      0x20\n        /* \"#utility.yul\":20650:20668   */\n      add\n        /* \"@openzeppelin/contracts-upgradeable/proxy/utils/Initializable.sol\":3327:3341  Initialized(1) */\n      mload(0x40)\n      dup1\n      swap2\n      sub\n      swap1\n      log1\n        /* \"@openzeppelin/contracts-upgradeable/proxy/utils/Initializable.sol\":3253:3352  if (isTopLevelCall) {... */\n    tag_524:\n        /* \"@openzeppelin/contracts-upgradeable/proxy/utils/Initializable.sol\":3101:3358  {... */\n      pop\n        /* \"LPStaking.sol\":5014:5358  function initialize(... */\n      pop\n      pop\n      jump\t// out\n        /* \"LPStaking.sol\":2976:3027  mapping(address => uint256[]) public userDepositMap */\n    tag_170:\n      mstore(0x20, 0x9f)\n      dup2\n      0x00\n      mstore\n      keccak256(0x00, 0x40)\n      dup2\n      dup2\n      sload\n      dup2\n      lt\n      tag_527\n      jumpi\n      0x00\n      dup1\n      revert\n    tag_527:\n      swap1\n      0x00\n      mstore\n      keccak256(0x00, 0x20)\n      add\n      0x00\n      swap2\n      pop\n      swap2\n      pop\n      pop\n      sload\n      dup2\n      jump\t// out\n        /* \"LPStaking.sol\":10372:10954  function receiveWETHFee(uint256 amount) external onlyAddress nonReentrant {... */\n    tag_174:\n        /* \"LPStaking.sol\":4865:4876  onlyaddress */\n      and(sub(shl(0xa0, 0x01), 0x01), sload(0x99))\n        /* \"@openzeppelin/contracts-upgradeable/utils/ContextUpgradeable.sol\":929:939  msg.sender */\n      caller\n      sub(shl(0xa0, 0x01), 0x01)\n        /* \"LPStaking.sol\":4849:4876  _msgSender() == onlyaddress */\n      and\n      eq\n        /* \"LPStaking.sol\":4841:4895  require(_msgSender() == onlyaddress, \"invalid access\") */\n      tag_531\n      jumpi\n      mload(0x40)\n      shl(0xe5, 0x461bcd)\n      dup2\n      mstore\n        /* \"#utility.yul\":20926:20928   */\n      0x20\n        /* \"LPStaking.sol\":4841:4895  require(_msgSender() == onlyaddress, \"invalid access\") */\n      0x04\n      dup3\n      add\n        /* \"#utility.yul\":20908:20929   */\n      mstore\n        /* \"#utility.yul\":20965:20967   */\n      0x0e\n        /* \"#utility.yul\":20945:20963   */\n      0x24\n      dup3\n      add\n        /* \"#utility.yul\":20938:20968   */\n      mstore\n      shl(0x90, 0x696e76616c696420616363657373)\n        /* \"#utility.yul\":20984:21002   */\n      0x44\n      dup3\n      add\n        /* \"#utility.yul\":20977:21021   */\n      mstore\n        /* \"#utility.yul\":21038:21056   */\n      0x64\n      add\n        /* \"LPStaking.sol\":4841:4895  require(_msgSender() == onlyaddress, \"invalid access\") */\n      tag_187\n        /* \"#utility.yul\":20724:21062   */\n      jump\n        /* \"LPStaking.sol\":4841:4895  require(_msgSender() == onlyaddress, \"invalid access\") */\n    tag_531:\n        /* \"@openzeppelin/contracts-upgradeable/security/ReentrancyGuardUpgradeable.sol\":1815:1816  2 */\n      0x02\n        /* \"@openzeppelin/contracts-upgradeable/security/ReentrancyGuardUpgradeable.sol\":2569:2576  _status */\n      sload(0x01)\n        /* \"@openzeppelin/contracts-upgradeable/security/ReentrancyGuardUpgradeable.sol\":2569:2588  _status != _ENTERED */\n      sub\n        /* \"@openzeppelin/contracts-upgradeable/security/ReentrancyGuardUpgradeable.sol\":2561:2624  require(_status != _ENTERED, \"ReentrancyGuard: reentrant call\") */\n      tag_535\n      jumpi\n      mload(0x40)\n      shl(0xe5, 0x461bcd)\n      dup2\n      mstore\n      0x04\n      add\n      tag_187\n      swap1\n      tag_237\n      jump\t// in\n    tag_535:\n        /* \"@openzeppelin/contracts-upgradeable/security/ReentrancyGuardUpgradeable.sol\":1815:1816  2 */\n      0x02\n        /* \"@openzeppelin/contracts-upgradeable/security/ReentrancyGuardUpgradeable.sol\":2699:2706  _status */\n      0x01\n        /* \"@openzeppelin/contracts-upgradeable/security/ReentrancyGuardUpgradeable.sol\":2699:2717  _status = _ENTERED */\n      sstore\n        /* \"LPStaking.sol\":10464:10474  amount > 0 */\n      dup1\n        /* \"LPStaking.sol\":10456:10510  require(amount > 0, \"Collect Fee: Amount must be > 0\") */\n      tag_538\n      jumpi\n      mload(0x40)\n      shl(0xe5, 0x461bcd)\n      dup2\n      mstore\n        /* \"#utility.yul\":21269:21271   */\n      0x20\n        /* \"LPStaking.sol\":10456:10510  require(amount > 0, \"Collect Fee: Amount must be > 0\") */\n      0x04\n      dup3\n      add\n        /* \"#utility.yul\":21251:21272   */\n      mstore\n        /* \"#utility.yul\":21308:21310   */\n      0x1f\n        /* \"#utility.yul\":21288:21306   */\n      0x24\n      dup3\n      add\n        /* \"#utility.yul\":21281:21311   */\n      mstore\n        /* \"#utility.yul\":21347:21380   */\n      0x436f6c6c656374204665653a20416d6f756e74206d757374206265203e203000\n        /* \"#utility.yul\":21327:21345   */\n      0x44\n      dup3\n      add\n        /* \"#utility.yul\":21320:21381   */\n      mstore\n        /* \"#utility.yul\":21398:21416   */\n      0x64\n      add\n        /* \"LPStaking.sol\":10456:10510  require(amount > 0, \"Collect Fee: Amount must be > 0\") */\n      tag_187\n        /* \"#utility.yul\":21067:21422   */\n      jump\n        /* \"LPStaking.sol\":10456:10510  require(amount > 0, \"Collect Fee: Amount must be > 0\") */\n    tag_538:\n        /* \"LPStaking.sol\":10520:10524  WETH */\n      and(sub(shl(0xa0, 0x01), 0x01), sload(0x9a))\n        /* \"LPStaking.sol\":10520:10537  WETH.transferFrom */\n      0x23b872dd\n        /* \"@openzeppelin/contracts-upgradeable/utils/ContextUpgradeable.sol\":929:939  msg.sender */\n      caller\n        /* \"LPStaking.sol\":10560:10564  this */\n      address\n        /* \"LPStaking.sol\":10567:10573  amount */\n      dup5\n        /* \"LPStaking.sol\":10520:10574  WETH.transferFrom(_msgSender(), address(this), amount) */\n      mload(0x40)\n      dup5\n      0xffffffff\n      and\n      0xe0\n      shl\n      dup2\n      mstore\n      0x04\n      add\n      tag_542\n      swap4\n      swap3\n      swap2\n      swap1\n      tag_246\n      jump\t// in\n    tag_542:\n      0x20\n      mload(0x40)\n      dup1\n      dup4\n      sub\n      dup2\n      0x00\n      dup8\n      gas\n      call\n      iszero\n      dup1\n      iszero\n      tag_544\n      jumpi\n      returndatasize\n      0x00\n      dup1\n      returndatacopy\n      revert(0x00, returndatasize)\n    tag_544:\n      pop\n      pop\n      pop\n      pop\n      mload(0x40)\n      returndatasize\n      not(0x1f)\n      0x1f\n      dup3\n      add\n      and\n      dup3\n      add\n      dup1\n      0x40\n      mstore\n      pop\n      dup2\n      add\n      swap1\n      tag_545\n      swap2\n      swap1\n      tag_250\n      jump\t// in\n    tag_545:\n      pop\n        /* \"LPStaking.sol\":10590:10599  uint256 i */\n      0x00\n        /* \"LPStaking.sol\":10585:10900  for (uint256 i = 0; i < periods.length; i++) {... */\n    tag_546:\n        /* \"LPStaking.sol\":10609:10616  periods */\n      0xa3\n        /* \"LPStaking.sol\":10609:10623  periods.length */\n      sload\n        /* \"LPStaking.sol\":10605:10623  i < periods.length */\n      dup2\n      lt\n        /* \"LPStaking.sol\":10585:10900  for (uint256 i = 0; i < periods.length; i++) {... */\n      iszero\n      tag_547\n      jumpi\n        /* \"LPStaking.sol\":10695:10702  periods */\n      0xa3\n        /* \"LPStaking.sol\":10703:10704  i */\n      dup2\n        /* \"LPStaking.sol\":10695:10705  periods[i] */\n      dup2\n      sload\n      dup2\n      lt\n      tag_550\n      jumpi\n      tag_550\n      tag_199\n      jump\t// in\n    tag_550:\n      swap1\n      0x00\n      mstore\n      keccak256(0x00, 0x20)\n      add\n      sload\n        /* \"LPStaking.sol\":10709:10710  0 */\n      0x00\n        /* \"LPStaking.sol\":10695:10710  periods[i] == 0 */\n      eq\n        /* \"LPStaking.sol\":10695:10889  periods[i] == 0... */\n      tag_552\n      jumpi\n        /* \"LPStaking.sol\":4568:4574  10**18 */\n      0x0de0b6b3a7640000\n        /* \"LPStaking.sol\":10863:10869  amount */\n      dup3\n        /* \"LPStaking.sol\":10850:10859  periodSum */\n      sload(0xa6)\n        /* \"LPStaking.sol\":4568:4574  10**18 */\n      0x0de0b6b3a7640000\n        /* \"LPStaking.sol\":10817:10824  periods */\n      0xa3\n        /* \"LPStaking.sol\":10825:10826  i */\n      dup6\n        /* \"LPStaking.sol\":10817:10827  periods[i] */\n      dup2\n      sload\n      dup2\n      lt\n      tag_554\n      jumpi\n      tag_554\n      tag_199\n      jump\t// in\n    tag_554:\n      swap1\n      0x00\n      mstore\n      keccak256(0x00, 0x20)\n      add\n      sload\n        /* \"LPStaking.sol\":10817:10846  periods[i] * PRECISION_FACTOR */\n      tag_556\n      swap2\n      swap1\n      tag_224\n      jump\t// in\n    tag_556:\n        /* \"LPStaking.sol\":10816:10859  (periods[i] * PRECISION_FACTOR) / periodSum */\n      tag_557\n      swap2\n      swap1\n      tag_210\n      jump\t// in\n    tag_557:\n        /* \"LPStaking.sol\":10815:10869  ((periods[i] * PRECISION_FACTOR) / periodSum) * amount */\n      tag_558\n      swap2\n      swap1\n      tag_224\n      jump\t// in\n    tag_558:\n        /* \"LPStaking.sol\":10814:10889  (((periods[i] * PRECISION_FACTOR) / periodSum) * amount) / PRECISION_FACTOR */\n      tag_559\n      swap2\n      swap1\n      tag_210\n      jump\t// in\n    tag_559:\n        /* \"LPStaking.sol\":10695:10889  periods[i] == 0... */\n      jump(tag_564)\n    tag_552:\n        /* \"LPStaking.sol\":4568:4574  10**18 */\n      0x0de0b6b3a7640000\n        /* \"LPStaking.sol\":10769:10775  amount */\n      dup3\n        /* \"LPStaking.sol\":10756:10765  periodSum */\n      sload(0xa6)\n        /* \"LPStaking.sol\":4568:4574  10**18 */\n      0x0de0b6b3a7640000\n        /* \"LPStaking.sol\":10732:10733  1 */\n      0x01\n        /* \"LPStaking.sol\":10732:10752  1 * PRECISION_FACTOR */\n      tag_561\n      swap2\n      swap1\n      tag_224\n      jump\t// in\n    tag_561:\n        /* \"LPStaking.sol\":10731:10765  (1 * PRECISION_FACTOR) / periodSum */\n      tag_562\n      swap2\n      swap1\n      tag_210\n      jump\t// in\n    tag_562:\n        /* \"LPStaking.sol\":10730:10775  ((1 * PRECISION_FACTOR) / periodSum) * amount */\n      tag_563\n      swap2\n      swap1\n      tag_224\n      jump\t// in\n    tag_563:\n        /* \"LPStaking.sol\":10729:10795  (((1 * PRECISION_FACTOR) / periodSum) * amount) / PRECISION_FACTOR */\n      tag_564\n      swap2\n      swap1\n      tag_210\n      jump\t// in\n    tag_564:\n        /* \"LPStaking.sol\":10644:10657  periodPoolMap */\n      0xa2\n        /* \"LPStaking.sol\":10644:10669  periodPoolMap[periods[i]] */\n      0x00\n        /* \"LPStaking.sol\":10658:10665  periods */\n      0xa3\n        /* \"LPStaking.sol\":10666:10667  i */\n      dup5\n        /* \"LPStaking.sol\":10658:10668  periods[i] */\n      dup2\n      sload\n      dup2\n      lt\n      tag_566\n      jumpi\n      tag_566\n      tag_199\n      jump\t// in\n    tag_566:\n      swap1\n      0x00\n      mstore\n      keccak256(0x00, 0x20)\n      add\n      sload\n        /* \"LPStaking.sol\":10644:10669  periodPoolMap[periods[i]] */\n      dup2\n      mstore\n      0x20\n      add\n      swap1\n      dup2\n      mstore\n      0x20\n      add\n      0x00\n      keccak256\n        /* \"LPStaking.sol\":10644:10691  periodPoolMap[periods[i]].totalAllotedFeeReward */\n      0x01\n      add\n      0x00\n        /* \"LPStaking.sol\":10644:10889  periodPoolMap[periods[i]].totalAllotedFeeReward += periods[i] == 0... */\n      dup3\n      dup3\n      sload\n      tag_568\n      swap2\n      swap1\n      tag_275\n      jump\t// in\n    tag_568:\n      swap1\n      swap2\n      sstore\n      pop\n        /* \"LPStaking.sol\":10625:10628  i++ */\n      dup2\n      swap1\n      pop\n      tag_569\n      dup2\n      tag_203\n      jump\t// in\n    tag_569:\n      swap2\n      pop\n      pop\n        /* \"LPStaking.sol\":10585:10900  for (uint256 i = 0; i < periods.length; i++) {... */\n      jump(tag_546)\n    tag_547:\n      pop\n        /* \"LPStaking.sol\":10914:10947  WETHDeposit(_msgSender(), amount) */\n      mload(0x40)\n        /* \"#utility.yul\":160:185   */\n      dup2\n      dup2\n      mstore\n        /* \"@openzeppelin/contracts-upgradeable/utils/ContextUpgradeable.sol\":929:939  msg.sender */\n      caller\n      swap1\n        /* \"LPStaking.sol\":10914:10947  WETHDeposit(_msgSender(), amount) */\n      0x386d896e9bd972181cfb744681a2de8d2daab22884986fdc60c3947be36ca01b\n      swap1\n        /* \"#utility.yul\":148:150   */\n      0x20\n        /* \"#utility.yul\":133:151   */\n      add\n        /* \"LPStaking.sol\":10914:10947  WETHDeposit(_msgSender(), amount) */\n      tag_252\n        /* \"#utility.yul\":14:191   */\n      jump\n        /* \"@openzeppelin/contracts-upgradeable/access/OwnableUpgradeable.sol\":2158:2356  function transferOwnership(address newOwner) public virtual onlyOwner {... */\n    tag_177:\n        /* \"@openzeppelin/contracts-upgradeable/access/OwnableUpgradeable.sol\":1348:1354  _owner */\n      and(sub(shl(0xa0, 0x01), 0x01), sload(0x65))\n        /* \"@openzeppelin/contracts-upgradeable/utils/ContextUpgradeable.sol\":929:939  msg.sender */\n      caller\n        /* \"@openzeppelin/contracts-upgradeable/access/OwnableUpgradeable.sol\":1488:1511  owner() == _msgSender() */\n      eq\n        /* \"@openzeppelin/contracts-upgradeable/access/OwnableUpgradeable.sol\":1480:1548  require(owner() == _msgSender(), \"Ownable: caller is not the owner\") */\n      tag_575\n      jumpi\n      mload(0x40)\n      shl(0xe5, 0x461bcd)\n      dup2\n      mstore\n      0x04\n      add\n      tag_187\n      swap1\n      tag_188\n      jump\t// in\n    tag_575:\n      sub(shl(0xa0, 0x01), 0x01)\n        /* \"@openzeppelin/contracts-upgradeable/access/OwnableUpgradeable.sol\":2246:2268  newOwner != address(0) */\n      dup2\n      and\n        /* \"@openzeppelin/contracts-upgradeable/access/OwnableUpgradeable.sol\":2238:2311  require(newOwner != address(0), \"Ownable: new owner is the zero address\") */\n      tag_578\n      jumpi\n      mload(0x40)\n      shl(0xe5, 0x461bcd)\n      dup2\n      mstore\n        /* \"#utility.yul\":21629:21631   */\n      0x20\n        /* \"@openzeppelin/contracts-upgradeable/access/OwnableUpgradeable.sol\":2238:2311  require(newOwner != address(0), \"Ownable: new owner is the zero address\") */\n      0x04\n      dup3\n      add\n        /* \"#utility.yul\":21611:21632   */\n      mstore\n        /* \"#utility.yul\":21668:21670   */\n      0x26\n        /* \"#utility.yul\":21648:21666   */\n      0x24\n      dup3\n      add\n        /* \"#utility.yul\":21641:21671   */\n      mstore\n        /* \"#utility.yul\":21707:21741   */\n      0x4f776e61626c653a206e6577206f776e657220697320746865207a65726f2061\n        /* \"#utility.yul\":21687:21705   */\n      0x44\n      dup3\n      add\n        /* \"#utility.yul\":21680:21742   */\n      mstore\n      shl(0xd0, 0x646472657373)\n        /* \"#utility.yul\":21758:21776   */\n      0x64\n      dup3\n      add\n        /* \"#utility.yul\":21751:21787   */\n      mstore\n        /* \"#utility.yul\":21804:21823   */\n      0x84\n      add\n        /* \"@openzeppelin/contracts-upgradeable/access/OwnableUpgradeable.sol\":2238:2311  require(newOwner != address(0), \"Ownable: new owner is the zero address\") */\n      tag_187\n        /* \"#utility.yul\":21427:21829   */\n      jump\n        /* \"@openzeppelin/contracts-upgradeable/access/OwnableUpgradeable.sol\":2238:2311  require(newOwner != address(0), \"Ownable: new owner is the zero address\") */\n    tag_578:\n        /* \"@openzeppelin/contracts-upgradeable/access/OwnableUpgradeable.sol\":2321:2349  _transferOwnership(newOwner) */\n      tag_581\n        /* \"@openzeppelin/contracts-upgradeable/access/OwnableUpgradeable.sol\":2340:2348  newOwner */\n      dup2\n        /* \"@openzeppelin/contracts-upgradeable/access/OwnableUpgradeable.sol\":2321:2339  _transferOwnership */\n      tag_324\n        /* \"@openzeppelin/contracts-upgradeable/access/OwnableUpgradeable.sol\":2321:2349  _transferOwnership(newOwner) */\n      jump\t// in\n    tag_581:\n        /* \"@openzeppelin/contracts-upgradeable/access/OwnableUpgradeable.sol\":2158:2356  function transferOwnership(address newOwner) public virtual onlyOwner {... */\n      pop\n      jump\t// out\n        /* \"LPStaking.sol\":9672:10259  function addRewardToPool(uint256 _poolId, uint256 amount) public onlyOwner poolExists(_poolId) {... */\n    tag_180:\n        /* \"@openzeppelin/contracts-upgradeable/access/OwnableUpgradeable.sol\":1348:1354  _owner */\n      and(sub(shl(0xa0, 0x01), 0x01), sload(0x65))\n        /* \"@openzeppelin/contracts-upgradeable/utils/ContextUpgradeable.sol\":929:939  msg.sender */\n      caller\n        /* \"@openzeppelin/contracts-upgradeable/access/OwnableUpgradeable.sol\":1488:1511  owner() == _msgSender() */\n      eq\n        /* \"@openzeppelin/contracts-upgradeable/access/OwnableUpgradeable.sol\":1480:1548  require(owner() == _msgSender(), \"Ownable: caller is not the owner\") */\n      tag_585\n      jumpi\n      mload(0x40)\n      shl(0xe5, 0x461bcd)\n      dup2\n      mstore\n      0x04\n      add\n      tag_187\n      swap1\n      tag_188\n      jump\t// in\n    tag_585:\n        /* \"LPStaking.sol\":4739:4744  pools */\n      0xa1\n        /* \"LPStaking.sol\":4739:4751  pools.length */\n      sload\n        /* \"LPStaking.sol\":9758:9765  _poolId */\n      dup3\n      swap1\n        /* \"LPStaking.sol\":4729:4751  _poolId < pools.length */\n      dup2\n      lt\n        /* \"LPStaking.sol\":4721:4784  require(_poolId < pools.length, \"Staking: Pool doesn't exists\") */\n      tag_588\n      jumpi\n      mload(0x40)\n      shl(0xe5, 0x461bcd)\n      dup2\n      mstore\n      0x04\n      add\n      tag_187\n      swap1\n      tag_192\n      jump\t// in\n    tag_588:\n        /* \"LPStaking.sol\":9812:9841  IERC20Upgradeable rewardToken */\n      0x00\n        /* \"LPStaking.sol\":9862:9867  pools */\n      0xa1\n        /* \"LPStaking.sol\":9868:9875  _poolId */\n      dup5\n        /* \"LPStaking.sol\":9862:9876  pools[_poolId] */\n      dup2\n      sload\n      dup2\n      lt\n      tag_592\n      jumpi\n      tag_592\n      tag_199\n      jump\t// in\n    tag_592:\n      0x00\n      swap2\n      dup3\n      mstore\n      0x20\n      swap1\n      swap2\n      keccak256\n      0x05\n      swap1\n      swap2\n      mul\n      add\n        /* \"LPStaking.sol\":9862:9883  pools[_poolId].reward */\n      0x01\n      add\n      sload\n        /* \"LPStaking.sol\":9960:10008  rewardToken.allowance(msg.sender, address(this)) */\n      mload(0x40)\n      shl(0xe1, 0x6eb1769f)\n      dup2\n      mstore\n        /* \"LPStaking.sol\":9982:9992  msg.sender */\n      caller\n        /* \"LPStaking.sol\":9960:10008  rewardToken.allowance(msg.sender, address(this)) */\n      0x04\n      dup3\n      add\n        /* \"#utility.yul\":19180:19214   */\n      mstore\n        /* \"LPStaking.sol\":10002:10006  this */\n      address\n        /* \"#utility.yul\":19230:19248   */\n      0x24\n      dup3\n      add\n        /* \"#utility.yul\":19223:19266   */\n      mstore\n      sub(shl(0xa0, 0x01), 0x01)\n        /* \"LPStaking.sol\":9862:9883  pools[_poolId].reward */\n      swap1\n      swap2\n      and\n      swap2\n      pop\n        /* \"LPStaking.sol\":10012:10018  amount */\n      dup4\n      swap1\n        /* \"LPStaking.sol\":9862:9883  pools[_poolId].reward */\n      dup3\n      swap1\n        /* \"LPStaking.sol\":9960:9981  rewardToken.allowance */\n      0xdd62ed3e\n      swap1\n        /* \"#utility.yul\":19115:19133   */\n      0x44\n      add\n        /* \"LPStaking.sol\":9960:10008  rewardToken.allowance(msg.sender, address(this)) */\n      0x20\n      mload(0x40)\n      dup1\n      dup4\n      sub\n      dup2\n      dup7\n      gas\n      staticcall\n      iszero\n      dup1\n      iszero\n      tag_596\n      jumpi\n      returndatasize\n      0x00\n      dup1\n      returndatacopy\n      revert(0x00, returndatasize)\n    tag_596:\n      pop\n      pop\n      pop\n      pop\n      mload(0x40)\n      returndatasize\n      not(0x1f)\n      0x1f\n      dup3\n      add\n      and\n      dup3\n      add\n      dup1\n      0x40\n      mstore\n      pop\n      dup2\n      add\n      swap1\n      tag_597\n      swap2\n      swap1\n      tag_243\n      jump\t// in\n    tag_597:\n        /* \"LPStaking.sol\":9960:10018  rewardToken.allowance(msg.sender, address(this)) >= amount */\n      lt\n      iszero\n        /* \"LPStaking.sol\":9952:10051  require(rewardToken.allowance(msg.sender, address(this)) >= amount, \"Staking: Must allow Spending\") */\n      tag_598\n      jumpi\n      mload(0x40)\n      shl(0xe5, 0x461bcd)\n      dup2\n      mstore\n        /* \"#utility.yul\":22036:22038   */\n      0x20\n        /* \"LPStaking.sol\":9952:10051  require(rewardToken.allowance(msg.sender, address(this)) >= amount, \"Staking: Must allow Spending\") */\n      0x04\n      dup3\n      add\n        /* \"#utility.yul\":22018:22039   */\n      mstore\n        /* \"#utility.yul\":22075:22077   */\n      0x1c\n        /* \"#utility.yul\":22055:22073   */\n      0x24\n      dup3\n      add\n        /* \"#utility.yul\":22048:22078   */\n      mstore\n        /* \"#utility.yul\":22114:22144   */\n      0x5374616b696e673a204d75737420616c6c6f77205370656e64696e6700000000\n        /* \"#utility.yul\":22094:22112   */\n      0x44\n      dup3\n      add\n        /* \"#utility.yul\":22087:22145   */\n      mstore\n        /* \"#utility.yul\":22162:22180   */\n      0x64\n      add\n        /* \"LPStaking.sol\":9952:10051  require(rewardToken.allowance(msg.sender, address(this)) >= amount, \"Staking: Must allow Spending\") */\n      tag_187\n        /* \"#utility.yul\":21834:22186   */\n      jump\n        /* \"LPStaking.sol\":9952:10051  require(rewardToken.allowance(msg.sender, address(this)) >= amount, \"Staking: Must allow Spending\") */\n    tag_598:\n        /* \"LPStaking.sol\":10104:10163  rewardToken.transferFrom(msg.sender, address(this), amount) */\n      mload(0x40)\n      shl(0xe0, 0x23b872dd)\n      dup2\n      mstore\n      sub(shl(0xa0, 0x01), 0x01)\n        /* \"LPStaking.sol\":10104:10128  rewardToken.transferFrom */\n      dup3\n      and\n      swap1\n      0x23b872dd\n      swap1\n        /* \"LPStaking.sol\":10104:10163  rewardToken.transferFrom(msg.sender, address(this), amount) */\n      tag_601\n      swap1\n        /* \"LPStaking.sol\":10129:10139  msg.sender */\n      caller\n      swap1\n        /* \"LPStaking.sol\":10149:10153  this */\n      address\n      swap1\n        /* \"LPStaking.sol\":10156:10162  amount */\n      dup9\n      swap1\n        /* \"LPStaking.sol\":10104:10163  rewardToken.transferFrom(msg.sender, address(this), amount) */\n      0x04\n      add\n      tag_246\n      jump\t// in\n    tag_601:\n      0x20\n      mload(0x40)\n      dup1\n      dup4\n      sub\n      dup2\n      0x00\n      dup8\n      gas\n      call\n      iszero\n      dup1\n      iszero\n      tag_603\n      jumpi\n      returndatasize\n      0x00\n      dup1\n      returndatacopy\n      revert(0x00, returndatasize)\n    tag_603:\n      pop\n      pop\n      pop\n      pop\n      mload(0x40)\n      returndatasize\n      not(0x1f)\n      0x1f\n      dup3\n      add\n      and\n      dup3\n      add\n      dup1\n      0x40\n      mstore\n      pop\n      dup2\n      add\n      swap1\n      tag_604\n      swap2\n      swap1\n      tag_250\n      jump\t// in\n    tag_604:\n      pop\n        /* \"LPStaking.sol\":10246:10252  amount */\n      dup3\n        /* \"LPStaking.sol\":10209:10214  pools */\n      0xa1\n        /* \"LPStaking.sol\":10215:10222  _poolId */\n      dup6\n        /* \"LPStaking.sol\":10209:10223  pools[_poolId] */\n      dup2\n      sload\n      dup2\n      lt\n      tag_606\n      jumpi\n      tag_606\n      tag_199\n      jump\t// in\n    tag_606:\n      swap1\n      0x00\n      mstore\n      keccak256(0x00, 0x20)\n      swap1\n      0x05\n      mul\n      add\n        /* \"LPStaking.sol\":10209:10242  pools[_poolId].totalAllotedReward */\n      0x03\n      add\n      0x00\n        /* \"LPStaking.sol\":10209:10252  pools[_poolId].totalAllotedReward += amount */\n      dup3\n      dup3\n      sload\n      tag_417\n      swap2\n      swap1\n      tag_275\n      jump\t// in\n        /* \"LPStaking.sol\":11558:12951  function _calculateReward(... */\n    tag_273:\n        /* \"LPStaking.sol\":11689:11703  uint256 reward */\n      0x00\n      dup1\n      sub(shl(0xa0, 0x01), 0x01)\n        /* \"LPStaking.sol\":11749:11775  _stakeHolder != address(0) */\n      dup6\n      and\n        /* \"LPStaking.sol\":11749:11853  _stakeHolder != address(0)... */\n      tag_611\n      jumpi\n        /* \"LPStaking.sol\":11833:11853  depositDetails[_dId] */\n      0x00\n      dup5\n      dup2\n      mstore\n        /* \"LPStaking.sol\":11833:11847  depositDetails */\n      0xa0\n        /* \"LPStaking.sol\":11833:11853  depositDetails[_dId] */\n      0x20\n      mstore\n      0x40\n      swap1\n      keccak256\n        /* \"LPStaking.sol\":11749:11853  _stakeHolder != address(0)... */\n      jump(tag_612)\n    tag_611:\n      sub(shl(0xa0, 0x01), 0x01)\n        /* \"LPStaking.sol\":11790:11812  deposits[_stakeHolder] */\n      dup6\n      and\n      0x00\n      swap1\n      dup2\n      mstore\n        /* \"LPStaking.sol\":11790:11798  deposits */\n      0x9e\n        /* \"LPStaking.sol\":11790:11812  deposits[_stakeHolder] */\n      0x20\n      swap1\n      dup2\n      mstore\n      0x40\n      dup1\n      dup4\n      keccak256\n        /* \"LPStaking.sol\":11790:11818  deposits[_stakeHolder][_dId] */\n      dup8\n      dup5\n      mstore\n      swap1\n      swap2\n      mstore\n      swap1\n      keccak256\n        /* \"LPStaking.sol\":11749:11853  _stakeHolder != address(0)... */\n    tag_612:\n        /* \"LPStaking.sol\":11715:11853  stakeDetails memory stakeDetail = _stakeHolder != address(0)... */\n      0x40\n      dup1\n      mload\n      0x0120\n      dup2\n      add\n      dup3\n      mstore\n      dup3\n      sload\n      dup2\n      mstore\n      0x01\n      dup4\n      add\n      sload\n      0x20\n      dup3\n      add\n      dup2\n      swap1\n      mstore\n      0x02\n      dup5\n      add\n      sload\n      swap3\n      dup3\n      add\n      swap3\n      swap1\n      swap3\n      mstore\n      0x03\n      dup4\n      add\n      sload\n      0x60\n      dup3\n      add\n      mstore\n      0x04\n      dup4\n      add\n      sload\n      0x80\n      dup3\n      add\n      mstore\n      0x05\n      dup4\n      add\n      sload\n      0xa0\n      dup3\n      add\n      mstore\n      0x06\n      dup4\n      add\n      sload\n      0xc0\n      dup3\n      add\n      mstore\n      0x07\n      dup4\n      add\n      sload\n      0xe0\n      dup3\n      add\n      mstore\n      0x08\n      swap1\n      swap3\n      add\n      sload\n      0x0100\n      dup4\n      add\n      mstore\n      swap1\n      swap2\n      pop\n        /* \"LPStaking.sol\":11868:11889  stakeDetail.stake > 0 */\n      iszero\n        /* \"LPStaking.sol\":11864:12945  if (stakeDetail.stake > 0) {... */\n      tag_613\n      jumpi\n        /* \"LPStaking.sol\":12166:12174  isPaused */\n      and(0xff, sload(0xa4))\n        /* \"LPStaking.sol\":12162:12894  if (isPaused) {... */\n      iszero\n      tag_614\n      jumpi\n        /* \"LPStaking.sol\":12233:12248  pausedTimestamp */\n      sload(0xa5)\n        /* \"LPStaking.sol\":12198:12209  stakeDetail */\n      dup2\n        /* \"LPStaking.sol\":12198:12230  stakeDetail.lastRewardCalculated */\n      0xa0\n      add\n      mload\n        /* \"LPStaking.sol\":12198:12248  stakeDetail.lastRewardCalculated > pausedTimestamp */\n      gt\n        /* \"LPStaking.sol\":12194:12586  if (stakeDetail.lastRewardCalculated > pausedTimestamp) {... */\n      iszero\n      tag_615\n      jumpi\n        /* \"LPStaking.sol\":12281:12282  0 */\n      0x00\n        /* \"LPStaking.sol\":12272:12282  reward = 0 */\n      swap2\n      pop\n        /* \"LPStaking.sol\":11864:12945  if (stakeDetail.stake > 0) {... */\n      jump(tag_636)\n        /* \"LPStaking.sol\":12194:12586  if (stakeDetail.lastRewardCalculated > pausedTimestamp) {... */\n    tag_615:\n        /* \"LPStaking.sol\":12338:12567  stakeDetail... */\n      tag_617\n        /* \"LPStaking.sol\":12540:12566  APRTime.mul(100).mul(1000) */\n      tag_618\n        /* \"LPStaking.sol\":12561:12565  1000 */\n      0x03e8\n        /* \"LPStaking.sol\":12540:12556  APRTime.mul(100) */\n      tag_619\n        /* \"LPStaking.sol\":12552:12555  100 */\n      0x64\n        /* \"LPStaking.sol\":12540:12547  APRTime */\n      sload(0x98)\n        /* \"LPStaking.sol\":12540:12551  APRTime.mul */\n      tag_620\n      swap1\n        /* \"LPStaking.sol\":12540:12556  APRTime.mul(100) */\n      swap2\n      swap1\n      0xffffffff\n      and\n      jump\t// in\n    tag_619:\n        /* \"LPStaking.sol\":12540:12560  APRTime.mul(100).mul */\n      swap1\n      tag_620\n        /* \"LPStaking.sol\":12540:12566  APRTime.mul(100).mul(1000) */\n      jump\t// in\n    tag_618:\n        /* \"LPStaking.sol\":12338:12510  stakeDetail... */\n      tag_621\n        /* \"LPStaking.sol\":12456:12509  pausedTimestamp.sub(stakeDetail.lastRewardCalculated) */\n      tag_622\n        /* \"LPStaking.sol\":12476:12487  stakeDetail */\n      dup5\n        /* \"LPStaking.sol\":12476:12508  stakeDetail.lastRewardCalculated */\n      0xa0\n      add\n      mload\n        /* \"LPStaking.sol\":12456:12471  pausedTimestamp */\n      sload(0xa5)\n        /* \"LPStaking.sol\":12456:12475  pausedTimestamp.sub */\n      tag_623\n      swap1\n        /* \"LPStaking.sol\":12456:12509  pausedTimestamp.sub(stakeDetail.lastRewardCalculated) */\n      swap2\n      swap1\n      0xffffffff\n      and\n      jump\t// in\n    tag_622:\n        /* \"LPStaking.sol\":12410:12425  stakeDetail.APR */\n      0x60\n      dup6\n      add\n      mload\n        /* \"LPStaking.sol\":12338:12380  stakeDetail... */\n      0x20\n      dup7\n      add\n      mload\n        /* \"LPStaking.sol\":12338:12426  stakeDetail... */\n      tag_619\n      swap2\n        /* \"LPStaking.sol\":12338:12409  stakeDetail... */\n      tag_620\n        /* \"LPStaking.sol\":12338:12426  stakeDetail... */\n      jump\t// in\n        /* \"LPStaking.sol\":12338:12510  stakeDetail... */\n    tag_621:\n        /* \"LPStaking.sol\":12338:12539  stakeDetail... */\n      swap1\n      tag_625\n        /* \"LPStaking.sol\":12338:12567  stakeDetail... */\n      jump\t// in\n    tag_617:\n        /* \"LPStaking.sol\":12329:12567  reward = stakeDetail... */\n      swap2\n      pop\n        /* \"LPStaking.sol\":11864:12945  if (stakeDetail.stake > 0) {... */\n      jump(tag_636)\n        /* \"LPStaking.sol\":12162:12894  if (isPaused) {... */\n    tag_614:\n        /* \"LPStaking.sol\":12624:12635  uint256 APR */\n      0x00\n        /* \"LPStaking.sol\":12638:12647  isProrata */\n      dup4\n        /* \"LPStaking.sol\":12638:12697  isProrata ? getAPR(stakeDetail.poolId, 0) : stakeDetail.APR */\n      tag_627\n      jumpi\n        /* \"LPStaking.sol\":12682:12693  stakeDetail */\n      dup2\n        /* \"LPStaking.sol\":12682:12697  stakeDetail.APR */\n      0x60\n      add\n      mload\n        /* \"LPStaking.sol\":12638:12697  isProrata ? getAPR(stakeDetail.poolId, 0) : stakeDetail.APR */\n      jump(tag_629)\n    tag_627:\n        /* \"LPStaking.sol\":12657:12675  stakeDetail.poolId */\n      0xc0\n      dup3\n      add\n      mload\n        /* \"LPStaking.sol\":12677:12678  0 */\n      0x00\n        /* \"LPStaking.sol\":8345:8371  vestingAPRPerPool[_poolId] */\n      swap1\n      dup2\n      mstore\n        /* \"LPStaking.sol\":8345:8362  vestingAPRPerPool */\n      0x9c\n        /* \"LPStaking.sol\":8345:8371  vestingAPRPerPool[_poolId] */\n      0x20\n      swap1\n      dup2\n      mstore\n      0x40\n      dup1\n      dup4\n      keccak256\n        /* \"LPStaking.sol\":8345:8380  vestingAPRPerPool[_poolId][_period] */\n      dup4\n      dup1\n      mstore\n      swap1\n      swap2\n      mstore\n      swap1\n      keccak256\n      sload\n        /* \"LPStaking.sol\":12650:12679  getAPR(stakeDetail.poolId, 0) */\n    tag_629:\n        /* \"LPStaking.sol\":12624:12697  uint256 APR = isProrata ? getAPR(stakeDetail.poolId, 0) : stakeDetail.APR */\n      swap1\n      pop\n        /* \"LPStaking.sol\":12724:12879  stakeDetail.stake.mul(APR).mul(block.timestamp.sub(stakeDetail.lastRewardCalculated)).div(... */\n      tag_630\n        /* \"LPStaking.sol\":12835:12861  APRTime.mul(100).mul(1000) */\n      tag_631\n        /* \"LPStaking.sol\":12856:12860  1000 */\n      0x03e8\n        /* \"LPStaking.sol\":12835:12851  APRTime.mul(100) */\n      tag_619\n        /* \"LPStaking.sol\":12847:12850  100 */\n      0x64\n        /* \"LPStaking.sol\":12835:12842  APRTime */\n      sload(0x98)\n        /* \"LPStaking.sol\":12835:12846  APRTime.mul */\n      tag_620\n      swap1\n        /* \"LPStaking.sol\":12835:12851  APRTime.mul(100) */\n      swap2\n      swap1\n      0xffffffff\n      and\n      jump\t// in\n        /* \"LPStaking.sol\":12835:12861  APRTime.mul(100).mul(1000) */\n    tag_631:\n        /* \"LPStaking.sol\":12724:12809  stakeDetail.stake.mul(APR).mul(block.timestamp.sub(stakeDetail.lastRewardCalculated)) */\n      tag_621\n        /* \"LPStaking.sol\":12755:12808  block.timestamp.sub(stakeDetail.lastRewardCalculated) */\n      tag_634\n        /* \"LPStaking.sol\":12775:12786  stakeDetail */\n      dup6\n        /* \"LPStaking.sol\":12775:12807  stakeDetail.lastRewardCalculated */\n      0xa0\n      add\n      mload\n        /* \"LPStaking.sol\":12755:12770  block.timestamp */\n      timestamp\n        /* \"LPStaking.sol\":12755:12774  block.timestamp.sub */\n      tag_623\n      swap1\n        /* \"LPStaking.sol\":12755:12808  block.timestamp.sub(stakeDetail.lastRewardCalculated) */\n      swap2\n      swap1\n      0xffffffff\n      and\n      jump\t// in\n    tag_634:\n        /* \"LPStaking.sol\":12724:12741  stakeDetail.stake */\n      0x20\n      dup7\n      add\n      mload\n        /* \"LPStaking.sol\":12724:12750  stakeDetail.stake.mul(APR) */\n      tag_619\n      swap1\n        /* \"LPStaking.sol\":12746:12749  APR */\n      dup7\n        /* \"LPStaking.sol\":12724:12745  stakeDetail.stake.mul */\n      tag_620\n        /* \"LPStaking.sol\":12724:12750  stakeDetail.stake.mul(APR) */\n      jump\t// in\n        /* \"LPStaking.sol\":12724:12879  stakeDetail.stake.mul(APR).mul(block.timestamp.sub(stakeDetail.lastRewardCalculated)).div(... */\n    tag_630:\n        /* \"LPStaking.sol\":12715:12879  reward = stakeDetail.stake.mul(APR).mul(block.timestamp.sub(stakeDetail.lastRewardCalculated)).div(... */\n      swap3\n      pop\n        /* \"LPStaking.sol\":12606:12894  {... */\n      pop\n        /* \"LPStaking.sol\":11864:12945  if (stakeDetail.stake > 0) {... */\n      jump(tag_636)\n    tag_613:\n        /* \"LPStaking.sol\":12933:12934  0 */\n      0x00\n        /* \"LPStaking.sol\":12924:12934  reward = 0 */\n      swap2\n      pop\n        /* \"LPStaking.sol\":11864:12945  if (stakeDetail.stake > 0) {... */\n    tag_636:\n        /* \"LPStaking.sol\":11705:12951  {... */\n      pop\n        /* \"LPStaking.sol\":11558:12951  function _calculateReward(... */\n      swap4\n      swap3\n      pop\n      pop\n      pop\n      jump\t// out\n        /* \"LPStaking.sol\":18977:19639  function harvestFee(address _user, uint256 _dId) internal {... */\n    tag_300:\n      sub(shl(0xa0, 0x01), 0x01)\n        /* \"LPStaking.sol\":19075:19090  deposits[_user] */\n      dup3\n      and\n        /* \"LPStaking.sol\":19045:19072  stakeDetails memory deposit */\n      0x00\n        /* \"LPStaking.sol\":19075:19090  deposits[_user] */\n      swap1\n      dup2\n      mstore\n        /* \"LPStaking.sol\":19075:19083  deposits */\n      0x9e\n        /* \"LPStaking.sol\":19075:19090  deposits[_user] */\n      0x20\n      swap1\n      dup2\n      mstore\n      0x40\n      dup1\n      dup4\n      keccak256\n        /* \"LPStaking.sol\":19075:19096  deposits[_user][_dId] */\n      dup5\n      dup5\n      mstore\n      dup3\n      mstore\n      swap2\n      dup3\n      swap1\n      keccak256\n        /* \"LPStaking.sol\":19045:19096  stakeDetails memory deposit = deposits[_user][_dId] */\n      dup3\n      mload\n      0x0120\n      dup2\n      add\n      dup5\n      mstore\n      dup2\n      sload\n      dup2\n      mstore\n      0x01\n      dup3\n      add\n      sload\n      swap3\n      dup2\n      add\n      dup4\n      swap1\n      mstore\n      0x02\n      dup3\n      add\n      sload\n      swap4\n      dup2\n      add\n      swap4\n      swap1\n      swap4\n      mstore\n      0x03\n      dup2\n      add\n      sload\n      0x60\n      dup5\n      add\n      mstore\n      0x04\n      dup2\n      add\n      sload\n      0x80\n      dup5\n      add\n      mstore\n      0x05\n      dup2\n      add\n      sload\n      0xa0\n      dup5\n      add\n      mstore\n      0x06\n      dup2\n      add\n      sload\n      0xc0\n      dup5\n      add\n      mstore\n      0x07\n      dup2\n      add\n      sload\n      0xe0\n      dup5\n      add\n      mstore\n      0x08\n      add\n      sload\n      0x0100\n      dup4\n      add\n      mstore\n        /* \"LPStaking.sol\":19106:19157  require(deposit.stake > 0, \"Harvest: Not a staker\") */\n      tag_638\n      jumpi\n      mload(0x40)\n      shl(0xe5, 0x461bcd)\n      dup2\n      mstore\n        /* \"#utility.yul\":22393:22395   */\n      0x20\n        /* \"LPStaking.sol\":19106:19157  require(deposit.stake > 0, \"Harvest: Not a staker\") */\n      0x04\n      dup3\n      add\n        /* \"#utility.yul\":22375:22396   */\n      mstore\n        /* \"#utility.yul\":22432:22434   */\n      0x15\n        /* \"#utility.yul\":22412:22430   */\n      0x24\n      dup3\n      add\n        /* \"#utility.yul\":22405:22435   */\n      mstore\n      shl(0x59, 0x2430b93b32b9ba1d102737ba10309039ba30b5b2b9)\n        /* \"#utility.yul\":22451:22469   */\n      0x44\n      dup3\n      add\n        /* \"#utility.yul\":22444:22495   */\n      mstore\n        /* \"#utility.yul\":22512:22530   */\n      0x64\n      add\n        /* \"LPStaking.sol\":19106:19157  require(deposit.stake > 0, \"Harvest: Not a staker\") */\n      tag_187\n        /* \"#utility.yul\":22191:22536   */\n      jump\n        /* \"LPStaking.sol\":19106:19157  require(deposit.stake > 0, \"Harvest: Not a staker\") */\n    tag_638:\n        /* \"LPStaking.sol\":19168:19185  uint256 rewardFee */\n      0x00\n        /* \"LPStaking.sol\":19188:19216  getHavestAmount(_user, _dId) */\n      tag_641\n        /* \"LPStaking.sol\":19204:19209  _user */\n      dup5\n        /* \"LPStaking.sol\":19211:19215  _dId */\n      dup5\n        /* \"LPStaking.sol\":19188:19203  getHavestAmount */\n      tag_66\n        /* \"LPStaking.sol\":19188:19216  getHavestAmount(_user, _dId) */\n      jump\t// in\n    tag_641:\n        /* \"LPStaking.sol\":19168:19216  uint256 rewardFee = getHavestAmount(_user, _dId) */\n      swap1\n      pop\n        /* \"LPStaking.sol\":19230:19244  rewardFee == 0 */\n      dup1\n      iszero\n      dup1\n        /* \"LPStaking.sol\":19230:19307  rewardFee == 0 || periodPoolMap[deposit.vestedFor].totalAllotedFeeReward <= 0 */\n      tag_642\n      jumpi\n      pop\n        /* \"LPStaking.sol\":19262:19279  deposit.vestedFor */\n      0xe0\n      dup3\n      add\n      mload\n        /* \"LPStaking.sol\":19306:19307  0 */\n      0x00\n        /* \"LPStaking.sol\":19248:19280  periodPoolMap[deposit.vestedFor] */\n      swap1\n      dup2\n      mstore\n        /* \"LPStaking.sol\":19248:19261  periodPoolMap */\n      0xa2\n        /* \"LPStaking.sol\":19248:19280  periodPoolMap[deposit.vestedFor] */\n      0x20\n      mstore\n      0x40\n      swap1\n      keccak256\n        /* \"LPStaking.sol\":19248:19302  periodPoolMap[deposit.vestedFor].totalAllotedFeeReward */\n      0x01\n      add\n      sload\n        /* \"LPStaking.sol\":19248:19307  periodPoolMap[deposit.vestedFor].totalAllotedFeeReward <= 0 */\n      iszero\n        /* \"LPStaking.sol\":19230:19307  rewardFee == 0 || periodPoolMap[deposit.vestedFor].totalAllotedFeeReward <= 0 */\n    tag_642:\n        /* \"LPStaking.sol\":19226:19340  if (rewardFee == 0 || periodPoolMap[deposit.vestedFor].totalAllotedFeeReward <= 0) {... */\n      iszero\n      tag_643\n      jumpi\n        /* \"LPStaking.sol\":19323:19330  return; */\n      pop\n      pop\n        /* \"LPStaking.sol\":18977:19639  function harvestFee(address _user, uint256 _dId) internal {... */\n      pop\n      pop\n      jump\t// out\n        /* \"LPStaking.sol\":19226:19340  if (rewardFee == 0 || periodPoolMap[deposit.vestedFor].totalAllotedFeeReward <= 0) {... */\n    tag_643:\n        /* \"LPStaking.sol\":19368:19372  WETH */\n      sload(0x9a)\n        /* \"LPStaking.sol\":19368:19397  WETH.balanceOf(address(this)) */\n      mload(0x40)\n      shl(0xe0, 0x70a08231)\n      dup2\n      mstore\n        /* \"LPStaking.sol\":19391:19395  this */\n      address\n        /* \"LPStaking.sol\":19368:19397  WETH.balanceOf(address(this)) */\n      0x04\n      dup3\n      add\n        /* \"#utility.yul\":2643:2694   */\n      mstore\n        /* \"LPStaking.sol\":19350:19365  uint256 balance */\n      0x00\n      swap2\n      sub(shl(0xa0, 0x01), 0x01)\n        /* \"LPStaking.sol\":19368:19372  WETH */\n      and\n      swap1\n        /* \"LPStaking.sol\":19368:19382  WETH.balanceOf */\n      0x70a08231\n      swap1\n        /* \"#utility.yul\":2616:2634   */\n      0x24\n      add\n        /* \"LPStaking.sol\":19368:19397  WETH.balanceOf(address(this)) */\n      0x20\n      mload(0x40)\n      dup1\n      dup4\n      sub\n      dup2\n      dup7\n      gas\n      staticcall\n      iszero\n      dup1\n      iszero\n      tag_646\n      jumpi\n      returndatasize\n      0x00\n      dup1\n      returndatacopy\n      revert(0x00, returndatasize)\n    tag_646:\n      pop\n      pop\n      pop\n      pop\n      mload(0x40)\n      returndatasize\n      not(0x1f)\n      0x1f\n      dup3\n      add\n      and\n      dup3\n      add\n      dup1\n      0x40\n      mstore\n      pop\n      dup2\n      add\n      swap1\n      tag_647\n      swap2\n      swap1\n      tag_243\n      jump\t// in\n    tag_647:\n        /* \"LPStaking.sol\":19350:19397  uint256 balance = WETH.balanceOf(address(this)) */\n      swap1\n      pop\n        /* \"LPStaking.sol\":19412:19419  balance */\n      dup1\n        /* \"LPStaking.sol\":19423:19424  0 */\n      0x00\n        /* \"LPStaking.sol\":19412:19424  balance == 0 */\n      sub\n        /* \"LPStaking.sol\":19408:19457  if (balance == 0) {... */\n      tag_648\n      jumpi\n        /* \"LPStaking.sol\":19440:19447  return; */\n      pop\n      pop\n      pop\n        /* \"LPStaking.sol\":18977:19639  function harvestFee(address _user, uint256 _dId) internal {... */\n      pop\n      pop\n      jump\t// out\n        /* \"LPStaking.sol\":19408:19457  if (balance == 0) {... */\n    tag_648:\n        /* \"LPStaking.sol\":19480:19497  deposit.vestedFor */\n      0xe0\n      dup4\n      add\n      mload\n        /* \"LPStaking.sol\":19466:19498  periodPoolMap[deposit.vestedFor] */\n      0x00\n      swap1\n      dup2\n      mstore\n        /* \"LPStaking.sol\":19466:19479  periodPoolMap */\n      0xa2\n        /* \"LPStaking.sol\":19466:19498  periodPoolMap[deposit.vestedFor] */\n      0x20\n      mstore\n      0x40\n      dup2\n      keccak256\n        /* \"LPStaking.sol\":19466:19520  periodPoolMap[deposit.vestedFor].totalAllotedFeeReward */\n      0x01\n      add\n        /* \"LPStaking.sol\":19466:19533  periodPoolMap[deposit.vestedFor].totalAllotedFeeReward -= rewardFee */\n      dup1\n      sload\n        /* \"LPStaking.sol\":19524:19533  rewardFee */\n      dup5\n      swap3\n        /* \"LPStaking.sol\":19466:19498  periodPoolMap[deposit.vestedFor] */\n      swap1\n        /* \"LPStaking.sol\":19466:19533  periodPoolMap[deposit.vestedFor].totalAllotedFeeReward -= rewardFee */\n      tag_649\n      swap1\n        /* \"LPStaking.sol\":19524:19533  rewardFee */\n      dup5\n      swap1\n        /* \"LPStaking.sol\":19466:19533  periodPoolMap[deposit.vestedFor].totalAllotedFeeReward -= rewardFee */\n      tag_222\n      jump\t// in\n    tag_649:\n      swap1\n      swap2\n      sstore\n      pop\n      pop\n        /* \"LPStaking.sol\":19543:19547  WETH */\n      sload(0x9a)\n        /* \"LPStaking.sol\":19543:19592  WETH.transferFrom(address(this),_user, rewardFee) */\n      mload(0x40)\n      shl(0xe0, 0x23b872dd)\n      dup2\n      mstore\n      sub(shl(0xa0, 0x01), 0x01)\n        /* \"LPStaking.sol\":19543:19547  WETH */\n      swap1\n      swap2\n      and\n      swap1\n        /* \"LPStaking.sol\":19543:19560  WETH.transferFrom */\n      0x23b872dd\n      swap1\n        /* \"LPStaking.sol\":19543:19592  WETH.transferFrom(address(this),_user, rewardFee) */\n      tag_650\n      swap1\n        /* \"LPStaking.sol\":19569:19573  this */\n      address\n      swap1\n        /* \"LPStaking.sol\":19575:19580  _user */\n      dup10\n      swap1\n        /* \"LPStaking.sol\":19582:19591  rewardFee */\n      dup8\n      swap1\n        /* \"LPStaking.sol\":19543:19592  WETH.transferFrom(address(this),_user, rewardFee) */\n      0x04\n      add\n      tag_246\n      jump\t// in\n    tag_650:\n      0x20\n      mload(0x40)\n      dup1\n      dup4\n      sub\n      dup2\n      0x00\n      dup8\n      gas\n      call\n      iszero\n      dup1\n      iszero\n      tag_652\n      jumpi\n      returndatasize\n      0x00\n      dup1\n      returndatacopy\n      revert(0x00, returndatasize)\n    tag_652:\n      pop\n      pop\n      pop\n      pop\n      mload(0x40)\n      returndatasize\n      not(0x1f)\n      0x1f\n      dup3\n      add\n      and\n      dup3\n      add\n      dup1\n      0x40\n      mstore\n      pop\n      dup2\n      add\n      swap1\n      tag_653\n      swap2\n      swap1\n      tag_250\n      jump\t// in\n    tag_653:\n      pop\n        /* \"LPStaking.sol\":19615:19620  _user */\n      dup5\n      sub(shl(0xa0, 0x01), 0x01)\n        /* \"LPStaking.sol\":19607:19632  Harvest(_user, rewardFee) */\n      and\n      0xc9695243a805adb74c91f28311176c65b417e842d5699893cef56d18bfa48cba\n        /* \"LPStaking.sol\":19622:19631  rewardFee */\n      dup4\n        /* \"LPStaking.sol\":19607:19632  Harvest(_user, rewardFee) */\n      mload(0x40)\n      tag_654\n      swap2\n        /* \"#utility.yul\":160:185   */\n      dup2\n      mstore\n        /* \"#utility.yul\":148:150   */\n      0x20\n        /* \"#utility.yul\":133:151   */\n      add\n      swap1\n        /* \"#utility.yul\":14:191   */\n      jump\n        /* \"LPStaking.sol\":19607:19632  Harvest(_user, rewardFee) */\n    tag_654:\n      mload(0x40)\n      dup1\n      swap2\n      sub\n      swap1\n      log2\n        /* \"LPStaking.sol\":19035:19639  {... */\n      pop\n      pop\n      pop\n        /* \"LPStaking.sol\":18977:19639  function harvestFee(address _user, uint256 _dId) internal {... */\n      pop\n      pop\n      jump\t// out\n        /* \"@openzeppelin/contracts-upgradeable/access/OwnableUpgradeable.sol\":2510:2697  function _transferOwnership(address newOwner) internal virtual {... */\n    tag_324:\n        /* \"@openzeppelin/contracts-upgradeable/access/OwnableUpgradeable.sol\":2602:2608  _owner */\n      0x65\n      dup1\n      sload\n      sub(shl(0xa0, 0x01), 0x01)\n        /* \"@openzeppelin/contracts-upgradeable/access/OwnableUpgradeable.sol\":2618:2635  _owner = newOwner */\n      dup4\n      dup2\n      and\n      not(sub(shl(0xa0, 0x01), 0x01))\n      dup4\n      and\n      dup2\n      or\n      swap1\n      swap4\n      sstore\n        /* \"@openzeppelin/contracts-upgradeable/access/OwnableUpgradeable.sol\":2650:2690  OwnershipTransferred(oldOwner, newOwner) */\n      mload(0x40)\n        /* \"@openzeppelin/contracts-upgradeable/access/OwnableUpgradeable.sol\":2602:2608  _owner */\n      swap2\n      and\n      swap2\n        /* \"@openzeppelin/contracts-upgradeable/access/OwnableUpgradeable.sol\":2618:2635  _owner = newOwner */\n      swap1\n        /* \"@openzeppelin/contracts-upgradeable/access/OwnableUpgradeable.sol\":2602:2608  _owner */\n      dup3\n      swap1\n        /* \"@openzeppelin/contracts-upgradeable/access/OwnableUpgradeable.sol\":2650:2690  OwnershipTransferred(oldOwner, newOwner) */\n      0x8be0079c531659141344cd1fd0a4f28419497f9722a3daafe3b4186f6b6457e0\n      swap1\n        /* \"@openzeppelin/contracts-upgradeable/access/OwnableUpgradeable.sol\":2583:2599  address oldOwner */\n      0x00\n      swap1\n        /* \"@openzeppelin/contracts-upgradeable/access/OwnableUpgradeable.sol\":2650:2690  OwnershipTransferred(oldOwner, newOwner) */\n      log3\n        /* \"@openzeppelin/contracts-upgradeable/access/OwnableUpgradeable.sol\":2573:2697  {... */\n      pop\n        /* \"@openzeppelin/contracts-upgradeable/access/OwnableUpgradeable.sol\":2510:2697  function _transferOwnership(address newOwner) internal virtual {... */\n      pop\n      jump\t// out\n        /* \"@openzeppelin/contracts-upgradeable/proxy/utils/Initializable.sol\":5287:6095  function _setInitializedVersion(uint8 version) private returns (bool) {... */\n    tag_511:\n        /* \"@openzeppelin/contracts-upgradeable/proxy/utils/Initializable.sol\":5351:5355  bool */\n      0x00\n        /* \"@openzeppelin/contracts-upgradeable/proxy/utils/Initializable.sol\":5684:5697  _initializing */\n      dup1\n      sload\n      0x0100\n      swap1\n      div\n      0xff\n      and\n        /* \"@openzeppelin/contracts-upgradeable/proxy/utils/Initializable.sol\":5680:6089  if (_initializing) {... */\n      iszero\n      tag_659\n      jumpi\n        /* \"@openzeppelin/contracts-upgradeable/proxy/utils/Initializable.sol\":5738:5745  version */\n      dup2\n        /* \"@openzeppelin/contracts-upgradeable/proxy/utils/Initializable.sol\":5738:5750  version == 1 */\n      0xff\n      and\n        /* \"@openzeppelin/contracts-upgradeable/proxy/utils/Initializable.sol\":5749:5750  1 */\n      0x01\n        /* \"@openzeppelin/contracts-upgradeable/proxy/utils/Initializable.sol\":5738:5750  version == 1 */\n      eq\n        /* \"@openzeppelin/contracts-upgradeable/proxy/utils/Initializable.sol\":5738:5799  version == 1 && !AddressUpgradeable.isContract(address(this)) */\n      dup1\n      iszero\n      tag_660\n      jumpi\n      pop\n        /* \"@openzeppelin/contracts-upgradeable/proxy/utils/Initializable.sol\":5793:5797  this */\n      address\n        /* \"@openzeppelin/contracts-upgradeable/utils/AddressUpgradeable.sol\":1476:1495  account.code.length */\n      extcodesize\n        /* \"@openzeppelin/contracts-upgradeable/utils/AddressUpgradeable.sol\":1476:1499  account.code.length > 0 */\n      iszero\n        /* \"@openzeppelin/contracts-upgradeable/proxy/utils/Initializable.sol\":5738:5799  version == 1 && !AddressUpgradeable.isContract(address(this)) */\n    tag_660:\n        /* \"@openzeppelin/contracts-upgradeable/proxy/utils/Initializable.sol\":5713:5879  require(... */\n      tag_663\n      jumpi\n      mload(0x40)\n      shl(0xe5, 0x461bcd)\n      dup2\n      mstore\n      0x04\n      add\n      tag_187\n      swap1\n      tag_665\n      jump\t// in\n    tag_663:\n      pop\n        /* \"@openzeppelin/contracts-upgradeable/proxy/utils/Initializable.sol\":5900:5905  false */\n      0x00\n      swap2\n        /* \"@openzeppelin/contracts-upgradeable/proxy/utils/Initializable.sol\":5287:6095  function _setInitializedVersion(uint8 version) private returns (bool) {... */\n      swap1\n      pop\n      jump\t// out\n        /* \"@openzeppelin/contracts-upgradeable/proxy/utils/Initializable.sol\":5680:6089  if (_initializing) {... */\n    tag_659:\n        /* \"@openzeppelin/contracts-upgradeable/proxy/utils/Initializable.sol\":5944:5956  _initialized */\n      sload(0x00)\n        /* \"@openzeppelin/contracts-upgradeable/proxy/utils/Initializable.sol\":5944:5966  _initialized < version */\n      0xff\n      dup1\n      dup5\n      and\n        /* \"@openzeppelin/contracts-upgradeable/proxy/utils/Initializable.sol\":5944:5956  _initialized */\n      swap2\n      and\n        /* \"@openzeppelin/contracts-upgradeable/proxy/utils/Initializable.sol\":5944:5966  _initialized < version */\n      lt\n        /* \"@openzeppelin/contracts-upgradeable/proxy/utils/Initializable.sol\":5936:6017  require(_initialized < version, \"Initializable: contract is already initialized\") */\n      tag_667\n      jumpi\n      mload(0x40)\n      shl(0xe5, 0x461bcd)\n      dup2\n      mstore\n      0x04\n      add\n      tag_187\n      swap1\n      tag_665\n      jump\t// in\n    tag_667:\n      pop\n        /* \"@openzeppelin/contracts-upgradeable/proxy/utils/Initializable.sol\":6031:6043  _initialized */\n      0x00\n        /* \"@openzeppelin/contracts-upgradeable/proxy/utils/Initializable.sol\":6031:6053  _initialized = version */\n      dup1\n      sload\n      not(0xff)\n      and\n      0xff\n      swap3\n      swap1\n      swap3\n      and\n      swap2\n      swap1\n      swap2\n      or\n      swap1\n      sstore\n      0x01\n      swap1\n        /* \"@openzeppelin/contracts-upgradeable/proxy/utils/Initializable.sol\":5287:6095  function _setInitializedVersion(uint8 version) private returns (bool) {... */\n      jump\t// out\n        /* \"@openzeppelin/contracts-upgradeable/proxy/utils/Initializable.sol\":5680:6089  if (_initializing) {... */\n    tag_666:\n        /* \"@openzeppelin/contracts-upgradeable/proxy/utils/Initializable.sol\":5287:6095  function _setInitializedVersion(uint8 version) private returns (bool) {... */\n      swap2\n      swap1\n      pop\n      jump\t// out\n        /* \"@openzeppelin/contracts-upgradeable/utils/ContextUpgradeable.sol\":711:770  function __Context_init() internal onlyInitializing {... */\n    tag_515:\n        /* \"@openzeppelin/contracts-upgradeable/proxy/utils/Initializable.sol\":4698:4711  _initializing */\n      sload(0x00)\n      0x0100\n      swap1\n      div\n      0xff\n      and\n        /* \"@openzeppelin/contracts-upgradeable/proxy/utils/Initializable.sol\":4690:4759  require(_initializing, \"Initializable: contract is not initializing\") */\n      tag_323\n      jumpi\n      mload(0x40)\n      shl(0xe5, 0x461bcd)\n      dup2\n      mstore\n      0x04\n      add\n      tag_187\n      swap1\n      tag_672\n      jump\t// in\n        /* \"@openzeppelin/contracts-upgradeable/access/OwnableUpgradeable.sol\":988:1083  function __Ownable_init() internal onlyInitializing {... */\n    tag_517:\n        /* \"@openzeppelin/contracts-upgradeable/proxy/utils/Initializable.sol\":4698:4711  _initializing */\n      sload(0x00)\n      0x0100\n      swap1\n      div\n      0xff\n      and\n        /* \"@openzeppelin/contracts-upgradeable/proxy/utils/Initializable.sol\":4690:4759  require(_initializing, \"Initializable: contract is not initializing\") */\n      tag_675\n      jumpi\n      mload(0x40)\n      shl(0xe5, 0x461bcd)\n      dup2\n      mstore\n      0x04\n      add\n      tag_187\n      swap1\n      tag_672\n      jump\t// in\n    tag_675:\n        /* \"@openzeppelin/contracts-upgradeable/access/OwnableUpgradeable.sol\":1050:1076  __Ownable_init_unchained() */\n      tag_323\n        /* \"@openzeppelin/contracts-upgradeable/access/OwnableUpgradeable.sol\":1050:1074  __Ownable_init_unchained */\n      tag_679\n        /* \"@openzeppelin/contracts-upgradeable/access/OwnableUpgradeable.sol\":1050:1076  __Ownable_init_unchained() */\n      jump\t// in\n        /* \"@openzeppelin/contracts-upgradeable/security/ReentrancyGuardUpgradeable.sol\":1853:1964  function __ReentrancyGuard_init() internal onlyInitializing {... */\n    tag_519:\n        /* \"@openzeppelin/contracts-upgradeable/proxy/utils/Initializable.sol\":4698:4711  _initializing */\n      sload(0x00)\n      0x0100\n      swap1\n      div\n      0xff\n      and\n        /* \"@openzeppelin/contracts-upgradeable/proxy/utils/Initializable.sol\":4690:4759  require(_initializing, \"Initializable: contract is not initializing\") */\n      tag_681\n      jumpi\n      mload(0x40)\n      shl(0xe5, 0x461bcd)\n      dup2\n      mstore\n      0x04\n      add\n      tag_187\n      swap1\n      tag_672\n      jump\t// in\n    tag_681:\n        /* \"@openzeppelin/contracts-upgradeable/security/ReentrancyGuardUpgradeable.sol\":1923:1957  __ReentrancyGuard_init_unchained() */\n      tag_323\n        /* \"@openzeppelin/contracts-upgradeable/security/ReentrancyGuardUpgradeable.sol\":1923:1955  __ReentrancyGuard_init_unchained */\n      tag_685\n        /* \"@openzeppelin/contracts-upgradeable/security/ReentrancyGuardUpgradeable.sol\":1923:1957  __ReentrancyGuard_init_unchained() */\n      jump\t// in\n        /* \"LPStaking.sol\":5688:5903  function setPeriodSum(uint256[] memory _periods) internal {... */\n    tag_523:\n        /* \"LPStaking.sol\":5768:5769  0 */\n      0x00\n        /* \"LPStaking.sol\":5756:5765  periodSum */\n      0xa6\n        /* \"LPStaking.sol\":5756:5769  periodSum = 0 */\n      dup2\n      swap1\n      sstore\n        /* \"LPStaking.sol\":5779:5897  for (uint256 i = 0; i < _periods.length; i++) {... */\n    tag_687:\n        /* \"LPStaking.sol\":5803:5811  _periods */\n      dup2\n        /* \"LPStaking.sol\":5803:5818  _periods.length */\n      mload\n        /* \"LPStaking.sol\":5799:5800  i */\n      dup2\n        /* \"LPStaking.sol\":5799:5818  i < _periods.length */\n      lt\n        /* \"LPStaking.sol\":5779:5897  for (uint256 i = 0; i < _periods.length; i++) {... */\n      iszero\n      tag_688\n      jumpi\n        /* \"LPStaking.sol\":5852:5860  _periods */\n      dup2\n        /* \"LPStaking.sol\":5861:5862  i */\n      dup2\n        /* \"LPStaking.sol\":5852:5863  _periods[i] */\n      dup2\n      mload\n      dup2\n      lt\n      tag_691\n      jumpi\n      tag_691\n      tag_199\n      jump\t// in\n    tag_691:\n      0x20\n      mul\n      0x20\n      add\n      add\n      mload\n        /* \"LPStaking.sol\":5867:5868  0 */\n      0x00\n        /* \"LPStaking.sol\":5852:5868  _periods[i] == 0 */\n      eq\n        /* \"LPStaking.sol\":5852:5886  _periods[i] == 0 ? 1 : _periods[i] */\n      tag_692\n      jumpi\n        /* \"LPStaking.sol\":5875:5883  _periods */\n      dup2\n        /* \"LPStaking.sol\":5884:5885  i */\n      dup2\n        /* \"LPStaking.sol\":5875:5886  _periods[i] */\n      dup2\n      mload\n      dup2\n      lt\n      tag_694\n      jumpi\n      tag_694\n      tag_199\n      jump\t// in\n    tag_694:\n      0x20\n      mul\n      0x20\n      add\n      add\n      mload\n        /* \"LPStaking.sol\":5852:5886  _periods[i] == 0 ? 1 : _periods[i] */\n      jump(tag_695)\n    tag_692:\n        /* \"LPStaking.sol\":5871:5872  1 */\n      0x01\n        /* \"LPStaking.sol\":5852:5886  _periods[i] == 0 ? 1 : _periods[i] */\n    tag_695:\n        /* \"LPStaking.sol\":5839:5848  periodSum */\n      0xa6\n      0x00\n        /* \"LPStaking.sol\":5839:5886  periodSum += _periods[i] == 0 ? 1 : _periods[i] */\n      dup3\n      dup3\n      sload\n      tag_696\n      swap2\n      swap1\n      tag_275\n      jump\t// in\n    tag_696:\n      swap1\n      swap2\n      sstore\n      pop\n        /* \"LPStaking.sol\":5820:5823  i++ */\n      dup2\n      swap1\n      pop\n      tag_697\n      dup2\n      tag_203\n      jump\t// in\n    tag_697:\n      swap2\n      pop\n      pop\n        /* \"LPStaking.sol\":5779:5897  for (uint256 i = 0; i < _periods.length; i++) {... */\n      jump(tag_687)\n    tag_688:\n      pop\n        /* \"LPStaking.sol\":5688:5903  function setPeriodSum(uint256[] memory _periods) internal {... */\n      pop\n      jump\t// out\n        /* \"@openzeppelin/contracts-upgradeable/utils/math/SafeMathUpgradeable.sol\":3476:3572  function mul(uint256 a, uint256 b) internal pure returns (uint256) {... */\n    tag_620:\n        /* \"@openzeppelin/contracts-upgradeable/utils/math/SafeMathUpgradeable.sol\":3534:3541  uint256 */\n      0x00\n        /* \"@openzeppelin/contracts-upgradeable/utils/math/SafeMathUpgradeable.sol\":3560:3565  a * b */\n      tag_699\n        /* \"@openzeppelin/contracts-upgradeable/utils/math/SafeMathUpgradeable.sol\":3564:3565  b */\n      dup3\n        /* \"@openzeppelin/contracts-upgradeable/utils/math/SafeMathUpgradeable.sol\":3560:3561  a */\n      dup5\n        /* \"@openzeppelin/contracts-upgradeable/utils/math/SafeMathUpgradeable.sol\":3560:3565  a * b */\n      tag_224\n      jump\t// in\n    tag_699:\n        /* \"@openzeppelin/contracts-upgradeable/utils/math/SafeMathUpgradeable.sol\":3553:3565  return a * b */\n      swap4\n        /* \"@openzeppelin/contracts-upgradeable/utils/math/SafeMathUpgradeable.sol\":3476:3572  function mul(uint256 a, uint256 b) internal pure returns (uint256) {... */\n      swap3\n      pop\n      pop\n      pop\n      jump\t// out\n        /* \"@openzeppelin/contracts-upgradeable/utils/math/SafeMathUpgradeable.sol\":3133:3229  function sub(uint256 a, uint256 b) internal pure returns (uint256) {... */\n    tag_623:\n        /* \"@openzeppelin/contracts-upgradeable/utils/math/SafeMathUpgradeable.sol\":3191:3198  uint256 */\n      0x00\n        /* \"@openzeppelin/contracts-upgradeable/utils/math/SafeMathUpgradeable.sol\":3217:3222  a - b */\n      tag_699\n        /* \"@openzeppelin/contracts-upgradeable/utils/math/SafeMathUpgradeable.sol\":3221:3222  b */\n      dup3\n        /* \"@openzeppelin/contracts-upgradeable/utils/math/SafeMathUpgradeable.sol\":3217:3218  a */\n      dup5\n        /* \"@openzeppelin/contracts-upgradeable/utils/math/SafeMathUpgradeable.sol\":3217:3222  a - b */\n      tag_222\n      jump\t// in\n        /* \"@openzeppelin/contracts-upgradeable/utils/math/SafeMathUpgradeable.sol\":3861:3957  function div(uint256 a, uint256 b) internal pure returns (uint256) {... */\n    tag_625:\n        /* \"@openzeppelin/contracts-upgradeable/utils/math/SafeMathUpgradeable.sol\":3919:3926  uint256 */\n      0x00\n        /* \"@openzeppelin/contracts-upgradeable/utils/math/SafeMathUpgradeable.sol\":3945:3950  a / b */\n      tag_699\n        /* \"@openzeppelin/contracts-upgradeable/utils/math/SafeMathUpgradeable.sol\":3949:3950  b */\n      dup3\n        /* \"@openzeppelin/contracts-upgradeable/utils/math/SafeMathUpgradeable.sol\":3945:3946  a */\n      dup5\n        /* \"@openzeppelin/contracts-upgradeable/utils/math/SafeMathUpgradeable.sol\":3945:3950  a / b */\n      tag_210\n      jump\t// in\n        /* \"@openzeppelin/contracts-upgradeable/access/OwnableUpgradeable.sol\":1089:1200  function __Ownable_init_unchained() internal onlyInitializing {... */\n    tag_679:\n        /* \"@openzeppelin/contracts-upgradeable/proxy/utils/Initializable.sol\":4698:4711  _initializing */\n      sload(0x00)\n      0x0100\n      swap1\n      div\n      0xff\n      and\n        /* \"@openzeppelin/contracts-upgradeable/proxy/utils/Initializable.sol\":4690:4759  require(_initializing, \"Initializable: contract is not initializing\") */\n      tag_706\n      jumpi\n      mload(0x40)\n      shl(0xe5, 0x461bcd)\n      dup2\n      mstore\n      0x04\n      add\n      tag_187\n      swap1\n      tag_672\n      jump\t// in\n    tag_706:\n        /* \"@openzeppelin/contracts-upgradeable/access/OwnableUpgradeable.sol\":1161:1193  _transferOwnership(_msgSender()) */\n      tag_323\n        /* \"@openzeppelin/contracts-upgradeable/utils/ContextUpgradeable.sol\":929:939  msg.sender */\n      caller\n        /* \"@openzeppelin/contracts-upgradeable/access/OwnableUpgradeable.sol\":1161:1179  _transferOwnership */\n      tag_324\n        /* \"@openzeppelin/contracts-upgradeable/access/OwnableUpgradeable.sol\":1161:1193  _transferOwnership(_msgSender()) */\n      jump\t// in\n        /* \"@openzeppelin/contracts-upgradeable/security/ReentrancyGuardUpgradeable.sol\":1970:2079  function __ReentrancyGuard_init_unchained() internal onlyInitializing {... */\n    tag_685:\n        /* \"@openzeppelin/contracts-upgradeable/proxy/utils/Initializable.sol\":4698:4711  _initializing */\n      sload(0x00)\n      0x0100\n      swap1\n      div\n      0xff\n      and\n        /* \"@openzeppelin/contracts-upgradeable/proxy/utils/Initializable.sol\":4690:4759  require(_initializing, \"Initializable: contract is not initializing\") */\n      tag_712\n      jumpi\n      mload(0x40)\n      shl(0xe5, 0x461bcd)\n      dup2\n      mstore\n      0x04\n      add\n      tag_187\n      swap1\n      tag_672\n      jump\t// in\n    tag_712:\n        /* \"@openzeppelin/contracts-upgradeable/security/ReentrancyGuardUpgradeable.sol\":1772:1773  1 */\n      0x01\n        /* \"@openzeppelin/contracts-upgradeable/security/ReentrancyGuardUpgradeable.sol\":2050:2072  _status = _NOT_ENTERED */\n      dup1\n      sstore\n        /* \"@openzeppelin/contracts-upgradeable/security/ReentrancyGuardUpgradeable.sol\":1970:2079  function __ReentrancyGuard_init_unchained() internal onlyInitializing {... */\n      jump\t// out\n    tag_521:\n      dup3\n      dup1\n      sload\n      dup3\n      dup3\n      sstore\n      swap1\n      0x00\n      mstore\n      keccak256(0x00, 0x20)\n      swap1\n      dup2\n      add\n      swap3\n      dup3\n      iszero\n      tag_717\n      jumpi\n      swap2\n      0x20\n      mul\n      dup3\n      add\n    tag_716:\n      dup3\n      dup2\n      gt\n      iszero\n      tag_717\n      jumpi\n      dup3\n      mload\n      dup3\n      sstore\n      swap2\n      0x20\n      add\n      swap2\n      swap1\n      0x01\n      add\n      swap1\n      jump(tag_716)\n    tag_717:\n      pop\n      tag_718\n      swap3\n      swap2\n      pop\n      tag_719\n      jump\t// in\n    tag_718:\n      pop\n      swap1\n      jump\t// out\n    tag_719:\n    tag_720:\n      dup1\n      dup3\n      gt\n      iszero\n      tag_718\n      jumpi\n      0x00\n      dup2\n      sstore\n      0x01\n      add\n      jump(tag_720)\n        /* \"#utility.yul\":196:323   */\n    tag_371:\n        /* \"#utility.yul\":257:267   */\n      0x4e487b71\n        /* \"#utility.yul\":252:255   */\n      0xe0\n        /* \"#utility.yul\":248:268   */\n      shl\n        /* \"#utility.yul\":245:246   */\n      0x00\n        /* \"#utility.yul\":238:269   */\n      mstore\n        /* \"#utility.yul\":288:292   */\n      0x41\n        /* \"#utility.yul\":285:286   */\n      0x04\n        /* \"#utility.yul\":278:293   */\n      mstore\n        /* \"#utility.yul\":312:316   */\n      0x24\n        /* \"#utility.yul\":309:310   */\n      0x00\n        /* \"#utility.yul\":302:317   */\n      revert\n        /* \"#utility.yul\":328:585   */\n    tag_722:\n        /* \"#utility.yul\":400:404   */\n      0x40\n        /* \"#utility.yul\":394:405   */\n      dup1\n      mload\n      swap1\n        /* \"#utility.yul\":432:449   */\n      dup2\n      add\n        /* \"#utility.yul\":479:497   */\n      0xffffffffffffffff\n        /* \"#utility.yul\":464:498   */\n      dup2\n      gt\n        /* \"#utility.yul\":500:522   */\n      dup3\n      dup3\n      lt\n        /* \"#utility.yul\":461:523   */\n      or\n        /* \"#utility.yul\":458:546   */\n      iszero\n      tag_738\n      jumpi\n        /* \"#utility.yul\":526:544   */\n      tag_738\n      tag_371\n      jump\t// in\n    tag_738:\n        /* \"#utility.yul\":562:566   */\n      0x40\n        /* \"#utility.yul\":555:579   */\n      mstore\n        /* \"#utility.yul\":328:585   */\n      swap1\n      jump\t// out\n        /* \"#utility.yul\":590:865   */\n    tag_723:\n        /* \"#utility.yul\":661:663   */\n      0x40\n        /* \"#utility.yul\":655:664   */\n      mload\n        /* \"#utility.yul\":726:728   */\n      0x1f\n        /* \"#utility.yul\":707:720   */\n      dup3\n      add\n      not(0x1f)\n        /* \"#utility.yul\":703:730   */\n      and\n        /* \"#utility.yul\":691:731   */\n      dup2\n      add\n        /* \"#utility.yul\":761:779   */\n      0xffffffffffffffff\n        /* \"#utility.yul\":746:780   */\n      dup2\n      gt\n        /* \"#utility.yul\":782:804   */\n      dup3\n      dup3\n      lt\n        /* \"#utility.yul\":743:805   */\n      or\n        /* \"#utility.yul\":740:828   */\n      iszero\n      tag_741\n      jumpi\n        /* \"#utility.yul\":808:826   */\n      tag_741\n      tag_371\n      jump\t// in\n    tag_741:\n        /* \"#utility.yul\":844:846   */\n      0x40\n        /* \"#utility.yul\":837:859   */\n      mstore\n        /* \"#utility.yul\":590:865   */\n      swap2\n      swap1\n      pop\n      jump\t// out\n        /* \"#utility.yul\":870:1065   */\n    tag_724:\n        /* \"#utility.yul\":942:946   */\n      0x00\n        /* \"#utility.yul\":975:993   */\n      0xffffffffffffffff\n        /* \"#utility.yul\":967:973   */\n      dup3\n        /* \"#utility.yul\":964:994   */\n      gt\n        /* \"#utility.yul\":961:1017   */\n      iszero\n      tag_744\n      jumpi\n        /* \"#utility.yul\":997:1015   */\n      tag_744\n      tag_371\n      jump\t// in\n    tag_744:\n      pop\n        /* \"#utility.yul\":1042:1043   */\n      0x05\n        /* \"#utility.yul\":1038:1052   */\n      shl\n        /* \"#utility.yul\":1054:1058   */\n      0x20\n        /* \"#utility.yul\":1034:1059   */\n      add\n      swap1\n        /* \"#utility.yul\":870:1065   */\n      jump\t// out\n        /* \"#utility.yul\":1070:2029   */\n    tag_725:\n        /* \"#utility.yul\":1136:1141   */\n      0x00\n        /* \"#utility.yul\":1189:1192   */\n      dup3\n        /* \"#utility.yul\":1182:1186   */\n      0x1f\n        /* \"#utility.yul\":1174:1180   */\n      dup4\n        /* \"#utility.yul\":1170:1187   */\n      add\n        /* \"#utility.yul\":1166:1193   */\n      slt\n        /* \"#utility.yul\":1156:1211   */\n      tag_746\n      jumpi\n        /* \"#utility.yul\":1207:1208   */\n      0x00\n        /* \"#utility.yul\":1204:1205   */\n      dup1\n        /* \"#utility.yul\":1197:1209   */\n      revert\n        /* \"#utility.yul\":1156:1211   */\n    tag_746:\n        /* \"#utility.yul\":1243:1249   */\n      dup2\n        /* \"#utility.yul\":1230:1250   */\n      calldataload\n        /* \"#utility.yul\":1269:1273   */\n      0x20\n        /* \"#utility.yul\":1293:1365   */\n      tag_747\n        /* \"#utility.yul\":1309:1364   */\n      tag_748\n        /* \"#utility.yul\":1361:1363   */\n      dup4\n        /* \"#utility.yul\":1309:1364   */\n      tag_724\n      jump\t// in\n    tag_748:\n        /* \"#utility.yul\":1293:1365   */\n      tag_723\n      jump\t// in\n    tag_747:\n        /* \"#utility.yul\":1399:1414   */\n      dup3\n      dup2\n      mstore\n        /* \"#utility.yul\":1485:1486   */\n      0x06\n        /* \"#utility.yul\":1481:1491   */\n      swap3\n      swap1\n      swap3\n      shl\n        /* \"#utility.yul\":1469:1492   */\n      dup5\n      add\n        /* \"#utility.yul\":1465:1497   */\n      dup2\n      add\n      swap2\n        /* \"#utility.yul\":1430:1442   */\n      dup2\n      dup2\n      add\n      swap1\n        /* \"#utility.yul\":1509:1524   */\n      dup7\n      dup5\n      gt\n        /* \"#utility.yul\":1506:1541   */\n      iszero\n      tag_749\n      jumpi\n        /* \"#utility.yul\":1537:1538   */\n      0x00\n        /* \"#utility.yul\":1534:1535   */\n      dup1\n        /* \"#utility.yul\":1527:1539   */\n      revert\n        /* \"#utility.yul\":1506:1541   */\n    tag_749:\n        /* \"#utility.yul\":1573:1575   */\n      dup3\n        /* \"#utility.yul\":1565:1571   */\n      dup7\n        /* \"#utility.yul\":1561:1576   */\n      add\n        /* \"#utility.yul\":1585:2000   */\n    tag_750:\n        /* \"#utility.yul\":1601:1607   */\n      dup5\n        /* \"#utility.yul\":1596:1599   */\n      dup2\n        /* \"#utility.yul\":1593:1608   */\n      lt\n        /* \"#utility.yul\":1585:2000   */\n      iszero\n      tag_752\n      jumpi\n        /* \"#utility.yul\":1679:1683   */\n      0x40\n        /* \"#utility.yul\":1673:1676   */\n      dup2\n        /* \"#utility.yul\":1668:1671   */\n      dup10\n        /* \"#utility.yul\":1664:1677   */\n      sub\n        /* \"#utility.yul\":1660:1684   */\n      slt\n        /* \"#utility.yul\":1657:1771   */\n      iszero\n      tag_753\n      jumpi\n        /* \"#utility.yul\":1725:1726   */\n      0x00\n        /* \"#utility.yul\":1754:1756   */\n      dup1\n        /* \"#utility.yul\":1750:1752   */\n      dup2\n        /* \"#utility.yul\":1743:1757   */\n      revert\n        /* \"#utility.yul\":1657:1771   */\n    tag_753:\n        /* \"#utility.yul\":1797:1819   */\n      tag_754\n      tag_722\n      jump\t// in\n    tag_754:\n        /* \"#utility.yul\":1846:1863   */\n      dup2\n      calldataload\n        /* \"#utility.yul\":1832:1864   */\n      dup2\n      mstore\n        /* \"#utility.yul\":1913:1925   */\n      dup5\n      dup3\n      add\n        /* \"#utility.yul\":1900:1926   */\n      calldataload\n        /* \"#utility.yul\":1884:1898   */\n      dup6\n      dup3\n      add\n        /* \"#utility.yul\":1877:1927   */\n      mstore\n        /* \"#utility.yul\":1940:1958   */\n      dup4\n      mstore\n        /* \"#utility.yul\":1978:1990   */\n      swap2\n      dup4\n      add\n      swap2\n        /* \"#utility.yul\":1627:1631   */\n      0x40\n        /* \"#utility.yul\":1618:1632   */\n      add\n        /* \"#utility.yul\":1585:2000   */\n      jump(tag_750)\n    tag_752:\n      pop\n        /* \"#utility.yul\":2018:2023   */\n      swap7\n        /* \"#utility.yul\":1070:2029   */\n      swap6\n      pop\n      pop\n      pop\n      pop\n      pop\n      pop\n      jump\t// out\n        /* \"#utility.yul\":2034:2492   */\n    tag_52:\n        /* \"#utility.yul\":2157:2163   */\n      0x00\n        /* \"#utility.yul\":2165:2171   */\n      dup1\n        /* \"#utility.yul\":2218:2220   */\n      0x40\n        /* \"#utility.yul\":2206:2215   */\n      dup4\n        /* \"#utility.yul\":2197:2204   */\n      dup6\n        /* \"#utility.yul\":2193:2216   */\n      sub\n        /* \"#utility.yul\":2189:2221   */\n      slt\n        /* \"#utility.yul\":2186:2238   */\n      iszero\n      tag_756\n      jumpi\n        /* \"#utility.yul\":2234:2235   */\n      0x00\n        /* \"#utility.yul\":2231:2232   */\n      dup1\n        /* \"#utility.yul\":2224:2236   */\n      revert\n        /* \"#utility.yul\":2186:2238   */\n    tag_756:\n        /* \"#utility.yul\":2270:2279   */\n      dup3\n        /* \"#utility.yul\":2257:2280   */\n      calldataload\n        /* \"#utility.yul\":2247:2280   */\n      swap2\n      pop\n        /* \"#utility.yul\":2331:2333   */\n      0x20\n        /* \"#utility.yul\":2320:2329   */\n      dup4\n        /* \"#utility.yul\":2316:2334   */\n      add\n        /* \"#utility.yul\":2303:2335   */\n      calldataload\n        /* \"#utility.yul\":2358:2376   */\n      0xffffffffffffffff\n        /* \"#utility.yul\":2350:2356   */\n      dup2\n        /* \"#utility.yul\":2347:2377   */\n      gt\n        /* \"#utility.yul\":2344:2394   */\n      iszero\n      tag_757\n      jumpi\n        /* \"#utility.yul\":2390:2391   */\n      0x00\n        /* \"#utility.yul\":2387:2388   */\n      dup1\n        /* \"#utility.yul\":2380:2392   */\n      revert\n        /* \"#utility.yul\":2344:2394   */\n    tag_757:\n        /* \"#utility.yul\":2413:2486   */\n      tag_758\n        /* \"#utility.yul\":2478:2485   */\n      dup6\n        /* \"#utility.yul\":2469:2475   */\n      dup3\n        /* \"#utility.yul\":2458:2467   */\n      dup7\n        /* \"#utility.yul\":2454:2476   */\n      add\n        /* \"#utility.yul\":2413:2486   */\n      tag_725\n      jump\t// in\n    tag_758:\n        /* \"#utility.yul\":2403:2486   */\n      swap2\n      pop\n      pop\n        /* \"#utility.yul\":2034:2492   */\n      swap3\n      pop\n      swap3\n      swap1\n      pop\n      jump\t// out\n        /* \"#utility.yul\":2705:2953   */\n    tag_60:\n        /* \"#utility.yul\":2773:2779   */\n      0x00\n        /* \"#utility.yul\":2781:2787   */\n      dup1\n        /* \"#utility.yul\":2834:2836   */\n      0x40\n        /* \"#utility.yul\":2822:2831   */\n      dup4\n        /* \"#utility.yul\":2813:2820   */\n      dup6\n        /* \"#utility.yul\":2809:2832   */\n      sub\n        /* \"#utility.yul\":2805:2837   */\n      slt\n        /* \"#utility.yul\":2802:2854   */\n      iszero\n      tag_761\n      jumpi\n        /* \"#utility.yul\":2850:2851   */\n      0x00\n        /* \"#utility.yul\":2847:2848   */\n      dup1\n        /* \"#utility.yul\":2840:2852   */\n      revert\n        /* \"#utility.yul\":2802:2854   */\n    tag_761:\n      pop\n      pop\n        /* \"#utility.yul\":2873:2896   */\n      dup1\n      calldataload\n      swap3\n        /* \"#utility.yul\":2943:2945   */\n      0x20\n        /* \"#utility.yul\":2928:2946   */\n      swap1\n      swap2\n      add\n        /* \"#utility.yul\":2915:2947   */\n      calldataload\n      swap2\n      pop\n        /* \"#utility.yul\":2705:2953   */\n      jump\t// out\n        /* \"#utility.yul\":2958:3089   */\n    tag_726:\n      sub(shl(0xa0, 0x01), 0x01)\n        /* \"#utility.yul\":3033:3064   */\n      dup2\n      and\n        /* \"#utility.yul\":3023:3065   */\n      dup2\n      eq\n        /* \"#utility.yul\":3013:3083   */\n      tag_581\n      jumpi\n        /* \"#utility.yul\":3079:3080   */\n      0x00\n        /* \"#utility.yul\":3076:3077   */\n      dup1\n        /* \"#utility.yul\":3069:3081   */\n      revert\n        /* \"#utility.yul\":3094:3409   */\n    tag_65:\n        /* \"#utility.yul\":3162:3168   */\n      0x00\n        /* \"#utility.yul\":3170:3176   */\n      dup1\n        /* \"#utility.yul\":3223:3225   */\n      0x40\n        /* \"#utility.yul\":3211:3220   */\n      dup4\n        /* \"#utility.yul\":3202:3209   */\n      dup6\n        /* \"#utility.yul\":3198:3221   */\n      sub\n        /* \"#utility.yul\":3194:3226   */\n      slt\n        /* \"#utility.yul\":3191:3243   */\n      iszero\n      tag_765\n      jumpi\n        /* \"#utility.yul\":3239:3240   */\n      0x00\n        /* \"#utility.yul\":3236:3237   */\n      dup1\n        /* \"#utility.yul\":3229:3241   */\n      revert\n        /* \"#utility.yul\":3191:3243   */\n    tag_765:\n        /* \"#utility.yul\":3278:3287   */\n      dup3\n        /* \"#utility.yul\":3265:3288   */\n      calldataload\n        /* \"#utility.yul\":3297:3328   */\n      tag_766\n        /* \"#utility.yul\":3322:3327   */\n      dup2\n        /* \"#utility.yul\":3297:3328   */\n      tag_726\n      jump\t// in\n    tag_766:\n        /* \"#utility.yul\":3347:3352   */\n      swap5\n        /* \"#utility.yul\":3399:3401   */\n      0x20\n        /* \"#utility.yul\":3384:3402   */\n      swap4\n      swap1\n      swap4\n      add\n        /* \"#utility.yul\":3371:3403   */\n      calldataload\n      swap4\n      pop\n      pop\n      pop\n        /* \"#utility.yul\":3094:3409   */\n      jump\t// out\n        /* \"#utility.yul\":3414:3532   */\n    tag_727:\n        /* \"#utility.yul\":3500:3505   */\n      dup1\n        /* \"#utility.yul\":3493:3506   */\n      iszero\n        /* \"#utility.yul\":3486:3507   */\n      iszero\n        /* \"#utility.yul\":3479:3484   */\n      dup2\n        /* \"#utility.yul\":3476:3508   */\n      eq\n        /* \"#utility.yul\":3466:3526   */\n      tag_581\n      jumpi\n        /* \"#utility.yul\":3522:3523   */\n      0x00\n        /* \"#utility.yul\":3519:3520   */\n      dup1\n        /* \"#utility.yul\":3512:3524   */\n      revert\n        /* \"#utility.yul\":3537:3914   */\n    tag_72:\n        /* \"#utility.yul\":3611:3617   */\n      0x00\n        /* \"#utility.yul\":3619:3625   */\n      dup1\n        /* \"#utility.yul\":3627:3633   */\n      0x00\n        /* \"#utility.yul\":3680:3682   */\n      0x60\n        /* \"#utility.yul\":3668:3677   */\n      dup5\n        /* \"#utility.yul\":3659:3666   */\n      dup7\n        /* \"#utility.yul\":3655:3678   */\n      sub\n        /* \"#utility.yul\":3651:3683   */\n      slt\n        /* \"#utility.yul\":3648:3700   */\n      iszero\n      tag_770\n      jumpi\n        /* \"#utility.yul\":3696:3697   */\n      0x00\n        /* \"#utility.yul\":3693:3694   */\n      dup1\n        /* \"#utility.yul\":3686:3698   */\n      revert\n        /* \"#utility.yul\":3648:3700   */\n    tag_770:\n        /* \"#utility.yul\":3732:3741   */\n      dup4\n        /* \"#utility.yul\":3719:3742   */\n      calldataload\n        /* \"#utility.yul\":3709:3742   */\n      swap3\n      pop\n        /* \"#utility.yul\":3789:3791   */\n      0x20\n        /* \"#utility.yul\":3778:3787   */\n      dup5\n        /* \"#utility.yul\":3774:3792   */\n      add\n        /* \"#utility.yul\":3761:3793   */\n      calldataload\n        /* \"#utility.yul\":3751:3793   */\n      swap2\n      pop\n        /* \"#utility.yul\":3843:3845   */\n      0x40\n        /* \"#utility.yul\":3832:3841   */\n      dup5\n        /* \"#utility.yul\":3828:3846   */\n      add\n        /* \"#utility.yul\":3815:3847   */\n      calldataload\n        /* \"#utility.yul\":3856:3884   */\n      tag_771\n        /* \"#utility.yul\":3878:3883   */\n      dup2\n        /* \"#utility.yul\":3856:3884   */\n      tag_727\n      jump\t// in\n    tag_771:\n        /* \"#utility.yul\":3903:3908   */\n      dup1\n        /* \"#utility.yul\":3893:3908   */\n      swap2\n      pop\n      pop\n        /* \"#utility.yul\":3537:3914   */\n      swap3\n      pop\n      swap3\n      pop\n      swap3\n      jump\t// out\n        /* \"#utility.yul\":3919:4585   */\n    tag_86:\n        /* \"#utility.yul\":4051:4057   */\n      0x00\n        /* \"#utility.yul\":4059:4065   */\n      dup1\n        /* \"#utility.yul\":4067:4073   */\n      0x00\n        /* \"#utility.yul\":4120:4122   */\n      0x60\n        /* \"#utility.yul\":4108:4117   */\n      dup5\n        /* \"#utility.yul\":4099:4106   */\n      dup7\n        /* \"#utility.yul\":4095:4118   */\n      sub\n        /* \"#utility.yul\":4091:4123   */\n      slt\n        /* \"#utility.yul\":4088:4140   */\n      iszero\n      tag_773\n      jumpi\n        /* \"#utility.yul\":4136:4137   */\n      0x00\n        /* \"#utility.yul\":4133:4134   */\n      dup1\n        /* \"#utility.yul\":4126:4138   */\n      revert\n        /* \"#utility.yul\":4088:4140   */\n    tag_773:\n        /* \"#utility.yul\":4175:4184   */\n      dup4\n        /* \"#utility.yul\":4162:4185   */\n      calldataload\n        /* \"#utility.yul\":4194:4225   */\n      tag_774\n        /* \"#utility.yul\":4219:4224   */\n      dup2\n        /* \"#utility.yul\":4194:4225   */\n      tag_726\n      jump\t// in\n    tag_774:\n        /* \"#utility.yul\":4244:4249   */\n      swap3\n      pop\n        /* \"#utility.yul\":4301:4303   */\n      0x20\n        /* \"#utility.yul\":4286:4304   */\n      dup5\n      add\n        /* \"#utility.yul\":4273:4305   */\n      calldataload\n        /* \"#utility.yul\":4314:4347   */\n      tag_775\n        /* \"#utility.yul\":4273:4305   */\n      dup2\n        /* \"#utility.yul\":4314:4347   */\n      tag_726\n      jump\t// in\n    tag_775:\n        /* \"#utility.yul\":4366:4373   */\n      swap2\n      pop\n        /* \"#utility.yul\":4424:4426   */\n      0x40\n        /* \"#utility.yul\":4409:4427   */\n      dup5\n      add\n        /* \"#utility.yul\":4396:4428   */\n      calldataload\n        /* \"#utility.yul\":4451:4469   */\n      0xffffffffffffffff\n        /* \"#utility.yul\":4440:4470   */\n      dup2\n      gt\n        /* \"#utility.yul\":4437:4487   */\n      iszero\n      tag_776\n      jumpi\n        /* \"#utility.yul\":4483:4484   */\n      0x00\n        /* \"#utility.yul\":4480:4481   */\n      dup1\n        /* \"#utility.yul\":4473:4485   */\n      revert\n        /* \"#utility.yul\":4437:4487   */\n    tag_776:\n        /* \"#utility.yul\":4506:4579   */\n      tag_777\n        /* \"#utility.yul\":4571:4578   */\n      dup7\n        /* \"#utility.yul\":4562:4568   */\n      dup3\n        /* \"#utility.yul\":4551:4560   */\n      dup8\n        /* \"#utility.yul\":4547:4569   */\n      add\n        /* \"#utility.yul\":4506:4579   */\n      tag_725\n      jump\t// in\n    tag_777:\n        /* \"#utility.yul\":4496:4579   */\n      swap2\n      pop\n      pop\n        /* \"#utility.yul\":3919:4585   */\n      swap3\n      pop\n      swap3\n      pop\n      swap3\n      jump\t// out\n        /* \"#utility.yul\":4590:4837   */\n    tag_96:\n        /* \"#utility.yul\":4649:4655   */\n      0x00\n        /* \"#utility.yul\":4702:4704   */\n      0x20\n        /* \"#utility.yul\":4690:4699   */\n      dup3\n        /* \"#utility.yul\":4681:4688   */\n      dup5\n        /* \"#utility.yul\":4677:4700   */\n      sub\n        /* \"#utility.yul\":4673:4705   */\n      slt\n        /* \"#utility.yul\":4670:4722   */\n      iszero\n      tag_779\n      jumpi\n        /* \"#utility.yul\":4718:4719   */\n      0x00\n        /* \"#utility.yul\":4715:4716   */\n      dup1\n        /* \"#utility.yul\":4708:4720   */\n      revert\n        /* \"#utility.yul\":4670:4722   */\n    tag_779:\n        /* \"#utility.yul\":4757:4766   */\n      dup2\n        /* \"#utility.yul\":4744:4767   */\n      calldataload\n        /* \"#utility.yul\":4776:4807   */\n      tag_699\n        /* \"#utility.yul\":4801:4806   */\n      dup2\n        /* \"#utility.yul\":4776:4807   */\n      tag_726\n      jump\t// in\n        /* \"#utility.yul\":4842:6179   */\n    tag_99:\n        /* \"#utility.yul\":5073:5075   */\n      0x20\n        /* \"#utility.yul\":5125:5146   */\n      dup1\n      dup3\n      mstore\n        /* \"#utility.yul\":5195:5208   */\n      dup3\n      mload\n        /* \"#utility.yul\":5098:5116   */\n      dup3\n      dup3\n      add\n        /* \"#utility.yul\":5217:5239   */\n      dup2\n      swap1\n      mstore\n        /* \"#utility.yul\":5044:5048   */\n      0x00\n      swap2\n        /* \"#utility.yul\":5073:5075   */\n      swap1\n        /* \"#utility.yul\":5258:5260   */\n      0x40\n      swap1\n        /* \"#utility.yul\":5276:5294   */\n      dup2\n      dup6\n      add\n      swap1\n        /* \"#utility.yul\":5317:5332   */\n      dup7\n      dup5\n      add\n        /* \"#utility.yul\":5044:5048   */\n      dup6\n        /* \"#utility.yul\":5360:6153   */\n    tag_782:\n        /* \"#utility.yul\":5374:5380   */\n      dup3\n        /* \"#utility.yul\":5371:5372   */\n      dup2\n        /* \"#utility.yul\":5368:5381   */\n      lt\n        /* \"#utility.yul\":5360:6153   */\n      iszero\n      tag_784\n      jumpi\n        /* \"#utility.yul\":5433:5446   */\n      dup2\n      mload\n        /* \"#utility.yul\":5471:5480   */\n      dup1\n      mload\n        /* \"#utility.yul\":5459:5481   */\n      dup6\n      mstore\n        /* \"#utility.yul\":5521:5532   */\n      dup7\n      dup2\n      add\n        /* \"#utility.yul\":5515:5533   */\n      mload\n        /* \"#utility.yul\":5501:5513   */\n      dup8\n      dup7\n      add\n        /* \"#utility.yul\":5494:5534   */\n      mstore\n        /* \"#utility.yul\":5574:5585   */\n      dup6\n      dup2\n      add\n        /* \"#utility.yul\":5568:5586   */\n      mload\n        /* \"#utility.yul\":5554:5566   */\n      dup7\n      dup7\n      add\n        /* \"#utility.yul\":5547:5587   */\n      mstore\n        /* \"#utility.yul\":5610:5614   */\n      0x60\n        /* \"#utility.yul\":5654:5665   */\n      dup1\n      dup3\n      add\n        /* \"#utility.yul\":5648:5666   */\n      mload\n        /* \"#utility.yul\":5634:5646   */\n      swap1\n      dup7\n      add\n        /* \"#utility.yul\":5627:5667   */\n      mstore\n        /* \"#utility.yul\":5690:5694   */\n      0x80\n        /* \"#utility.yul\":5734:5745   */\n      dup1\n      dup3\n      add\n        /* \"#utility.yul\":5728:5746   */\n      mload\n        /* \"#utility.yul\":5714:5726   */\n      swap1\n      dup7\n      add\n        /* \"#utility.yul\":5707:5747   */\n      mstore\n        /* \"#utility.yul\":5770:5774   */\n      0xa0\n        /* \"#utility.yul\":5814:5825   */\n      dup1\n      dup3\n      add\n        /* \"#utility.yul\":5808:5826   */\n      mload\n        /* \"#utility.yul\":5794:5806   */\n      swap1\n      dup7\n      add\n        /* \"#utility.yul\":5787:5827   */\n      mstore\n        /* \"#utility.yul\":5850:5854   */\n      0xc0\n        /* \"#utility.yul\":5894:5905   */\n      dup1\n      dup3\n      add\n        /* \"#utility.yul\":5888:5906   */\n      mload\n        /* \"#utility.yul\":5874:5886   */\n      swap1\n      dup7\n      add\n        /* \"#utility.yul\":5867:5907   */\n      mstore\n        /* \"#utility.yul\":5930:5934   */\n      0xe0\n        /* \"#utility.yul\":5974:5985   */\n      dup1\n      dup3\n      add\n        /* \"#utility.yul\":5968:5986   */\n      mload\n        /* \"#utility.yul\":5954:5966   */\n      swap1\n      dup7\n      add\n        /* \"#utility.yul\":5947:5987   */\n      mstore\n        /* \"#utility.yul\":6010:6016   */\n      0x0100\n        /* \"#utility.yul\":6056:6067   */\n      swap1\n      dup2\n      add\n        /* \"#utility.yul\":6050:6068   */\n      mload\n        /* \"#utility.yul\":6036:6048   */\n      swap1\n      dup6\n      add\n        /* \"#utility.yul\":6029:6069   */\n      mstore\n        /* \"#utility.yul\":6098:6104   */\n      0x0120\n        /* \"#utility.yul\":6089:6105   */\n      swap1\n      swap4\n      add\n      swap3\n        /* \"#utility.yul\":6128:6143   */\n      swap1\n      dup6\n      add\n      swap1\n        /* \"#utility.yul\":5396:5397   */\n      0x01\n        /* \"#utility.yul\":5389:5398   */\n      add\n        /* \"#utility.yul\":5360:6153   */\n      jump(tag_782)\n    tag_784:\n      pop\n        /* \"#utility.yul\":6170:6173   */\n      swap2\n      swap8\n        /* \"#utility.yul\":4842:6179   */\n      swap7\n      pop\n      pop\n      pop\n      pop\n      pop\n      pop\n      pop\n      jump\t// out\n        /* \"#utility.yul\":6184:6364   */\n    tag_102:\n        /* \"#utility.yul\":6243:6249   */\n      0x00\n        /* \"#utility.yul\":6296:6298   */\n      0x20\n        /* \"#utility.yul\":6284:6293   */\n      dup3\n        /* \"#utility.yul\":6275:6282   */\n      dup5\n        /* \"#utility.yul\":6271:6294   */\n      sub\n        /* \"#utility.yul\":6267:6299   */\n      slt\n        /* \"#utility.yul\":6264:6316   */\n      iszero\n      tag_786\n      jumpi\n        /* \"#utility.yul\":6312:6313   */\n      0x00\n        /* \"#utility.yul\":6309:6310   */\n      dup1\n        /* \"#utility.yul\":6302:6314   */\n      revert\n        /* \"#utility.yul\":6264:6316   */\n    tag_786:\n      pop\n        /* \"#utility.yul\":6335:6358   */\n      calldataload\n      swap2\n        /* \"#utility.yul\":6184:6364   */\n      swap1\n      pop\n      jump\t// out\n        /* \"#utility.yul\":7125:7441   */\n    tag_118:\n        /* \"#utility.yul\":7202:7208   */\n      0x00\n        /* \"#utility.yul\":7210:7216   */\n      dup1\n        /* \"#utility.yul\":7218:7224   */\n      0x00\n        /* \"#utility.yul\":7271:7273   */\n      0x60\n        /* \"#utility.yul\":7259:7268   */\n      dup5\n        /* \"#utility.yul\":7250:7257   */\n      dup7\n        /* \"#utility.yul\":7246:7269   */\n      sub\n        /* \"#utility.yul\":7242:7274   */\n      slt\n        /* \"#utility.yul\":7239:7291   */\n      iszero\n      tag_789\n      jumpi\n        /* \"#utility.yul\":7287:7288   */\n      0x00\n        /* \"#utility.yul\":7284:7285   */\n      dup1\n        /* \"#utility.yul\":7277:7289   */\n      revert\n        /* \"#utility.yul\":7239:7291   */\n    tag_789:\n      pop\n      pop\n        /* \"#utility.yul\":7310:7333   */\n      dup2\n      calldataload\n      swap4\n        /* \"#utility.yul\":7380:7382   */\n      0x20\n        /* \"#utility.yul\":7365:7383   */\n      dup4\n      add\n        /* \"#utility.yul\":7352:7384   */\n      calldataload\n      swap4\n      pop\n        /* \"#utility.yul\":7431:7433   */\n      0x40\n        /* \"#utility.yul\":7416:7434   */\n      swap1\n      swap3\n      add\n        /* \"#utility.yul\":7403:7435   */\n      calldataload\n      swap2\n        /* \"#utility.yul\":7125:7441   */\n      swap1\n      pop\n      jump\t// out\n        /* \"#utility.yul\":8395:8845   */\n    tag_139:\n        /* \"#utility.yul\":8469:8475   */\n      0x00\n        /* \"#utility.yul\":8477:8483   */\n      dup1\n        /* \"#utility.yul\":8485:8491   */\n      0x00\n        /* \"#utility.yul\":8538:8540   */\n      0x60\n        /* \"#utility.yul\":8526:8535   */\n      dup5\n        /* \"#utility.yul\":8517:8524   */\n      dup7\n        /* \"#utility.yul\":8513:8536   */\n      sub\n        /* \"#utility.yul\":8509:8541   */\n      slt\n        /* \"#utility.yul\":8506:8558   */\n      iszero\n      tag_794\n      jumpi\n        /* \"#utility.yul\":8554:8555   */\n      0x00\n        /* \"#utility.yul\":8551:8552   */\n      dup1\n        /* \"#utility.yul\":8544:8556   */\n      revert\n        /* \"#utility.yul\":8506:8558   */\n    tag_794:\n        /* \"#utility.yul\":8593:8602   */\n      dup4\n        /* \"#utility.yul\":8580:8603   */\n      calldataload\n        /* \"#utility.yul\":8612:8643   */\n      tag_795\n        /* \"#utility.yul\":8637:8642   */\n      dup2\n        /* \"#utility.yul\":8612:8643   */\n      tag_726\n      jump\t// in\n    tag_795:\n        /* \"#utility.yul\":8662:8667   */\n      swap3\n      pop\n        /* \"#utility.yul\":8714:8716   */\n      0x20\n        /* \"#utility.yul\":8699:8717   */\n      dup5\n      add\n        /* \"#utility.yul\":8686:8718   */\n      calldataload\n      swap2\n      pop\n        /* \"#utility.yul\":8770:8772   */\n      0x40\n        /* \"#utility.yul\":8755:8773   */\n      dup5\n      add\n        /* \"#utility.yul\":8742:8774   */\n      calldataload\n        /* \"#utility.yul\":8783:8813   */\n      tag_771\n        /* \"#utility.yul\":8742:8774   */\n      dup2\n        /* \"#utility.yul\":8783:8813   */\n      tag_727\n      jump\t// in\n        /* \"#utility.yul\":9103:10141   */\n    tag_166:\n        /* \"#utility.yul\":9196:9202   */\n      0x00\n        /* \"#utility.yul\":9204:9210   */\n      dup1\n        /* \"#utility.yul\":9257:9259   */\n      0x40\n        /* \"#utility.yul\":9245:9254   */\n      dup4\n        /* \"#utility.yul\":9236:9243   */\n      dup6\n        /* \"#utility.yul\":9232:9255   */\n      sub\n        /* \"#utility.yul\":9228:9260   */\n      slt\n        /* \"#utility.yul\":9225:9277   */\n      iszero\n      tag_799\n      jumpi\n        /* \"#utility.yul\":9273:9274   */\n      0x00\n        /* \"#utility.yul\":9270:9271   */\n      dup1\n        /* \"#utility.yul\":9263:9275   */\n      revert\n        /* \"#utility.yul\":9225:9277   */\n    tag_799:\n        /* \"#utility.yul\":9312:9321   */\n      dup3\n        /* \"#utility.yul\":9299:9322   */\n      calldataload\n        /* \"#utility.yul\":9331:9362   */\n      tag_800\n        /* \"#utility.yul\":9356:9361   */\n      dup2\n        /* \"#utility.yul\":9331:9362   */\n      tag_726\n      jump\t// in\n    tag_800:\n        /* \"#utility.yul\":9381:9386   */\n      swap2\n      pop\n        /* \"#utility.yul\":9405:9407   */\n      0x20\n        /* \"#utility.yul\":9443:9461   */\n      dup4\n      dup2\n      add\n        /* \"#utility.yul\":9430:9462   */\n      calldataload\n        /* \"#utility.yul\":9485:9503   */\n      0xffffffffffffffff\n        /* \"#utility.yul\":9474:9504   */\n      dup2\n      gt\n        /* \"#utility.yul\":9471:9521   */\n      iszero\n      tag_801\n      jumpi\n        /* \"#utility.yul\":9517:9518   */\n      0x00\n        /* \"#utility.yul\":9514:9515   */\n      dup1\n        /* \"#utility.yul\":9507:9519   */\n      revert\n        /* \"#utility.yul\":9471:9521   */\n    tag_801:\n        /* \"#utility.yul\":9540:9562   */\n      dup5\n      add\n        /* \"#utility.yul\":9593:9597   */\n      0x1f\n        /* \"#utility.yul\":9585:9598   */\n      dup2\n      add\n        /* \"#utility.yul\":9581:9608   */\n      dup7\n      sgt\n        /* \"#utility.yul\":9571:9626   */\n      tag_802\n      jumpi\n        /* \"#utility.yul\":9622:9623   */\n      0x00\n        /* \"#utility.yul\":9619:9620   */\n      dup1\n        /* \"#utility.yul\":9612:9624   */\n      revert\n        /* \"#utility.yul\":9571:9626   */\n    tag_802:\n        /* \"#utility.yul\":9658:9660   */\n      dup1\n        /* \"#utility.yul\":9645:9661   */\n      calldataload\n        /* \"#utility.yul\":9681:9753   */\n      tag_803\n        /* \"#utility.yul\":9697:9752   */\n      tag_748\n        /* \"#utility.yul\":9749:9751   */\n      dup3\n        /* \"#utility.yul\":9697:9752   */\n      tag_724\n      jump\t// in\n        /* \"#utility.yul\":9681:9753   */\n    tag_803:\n        /* \"#utility.yul\":9787:9802   */\n      dup2\n      dup2\n      mstore\n        /* \"#utility.yul\":9869:9870   */\n      0x05\n        /* \"#utility.yul\":9865:9875   */\n      swap2\n      swap1\n      swap2\n      shl\n        /* \"#utility.yul\":9857:9876   */\n      dup3\n      add\n        /* \"#utility.yul\":9853:9881   */\n      dup4\n      add\n      swap1\n        /* \"#utility.yul\":9818:9830   */\n      dup4\n      dup2\n      add\n      swap1\n        /* \"#utility.yul\":9893:9912   */\n      dup9\n      dup4\n      gt\n        /* \"#utility.yul\":9890:9929   */\n      iszero\n      tag_805\n      jumpi\n        /* \"#utility.yul\":9925:9926   */\n      0x00\n        /* \"#utility.yul\":9922:9923   */\n      dup1\n        /* \"#utility.yul\":9915:9927   */\n      revert\n        /* \"#utility.yul\":9890:9929   */\n    tag_805:\n        /* \"#utility.yul\":9949:9960   */\n      swap3\n      dup5\n      add\n      swap3\n        /* \"#utility.yul\":9969:10111   */\n    tag_806:\n        /* \"#utility.yul\":9985:9991   */\n      dup3\n        /* \"#utility.yul\":9980:9983   */\n      dup5\n        /* \"#utility.yul\":9977:9992   */\n      lt\n        /* \"#utility.yul\":9969:10111   */\n      iszero\n      tag_808\n      jumpi\n        /* \"#utility.yul\":10051:10068   */\n      dup4\n      calldataload\n        /* \"#utility.yul\":10039:10069   */\n      dup3\n      mstore\n        /* \"#utility.yul\":10002:10014   */\n      swap3\n      dup5\n      add\n      swap3\n        /* \"#utility.yul\":10089:10101   */\n      swap1\n      dup5\n      add\n      swap1\n        /* \"#utility.yul\":9969:10111   */\n      jump(tag_806)\n    tag_808:\n        /* \"#utility.yul\":10130:10135   */\n      dup1\n        /* \"#utility.yul\":10120:10135   */\n      swap6\n      pop\n      pop\n      pop\n      pop\n      pop\n      pop\n        /* \"#utility.yul\":9103:10141   */\n      swap3\n      pop\n      swap3\n      swap1\n      pop\n      jump\t// out\n        /* \"#utility.yul\":10146:10502   */\n    tag_188:\n        /* \"#utility.yul\":10348:10350   */\n      0x20\n        /* \"#utility.yul\":10330:10351   */\n      dup1\n      dup3\n      mstore\n        /* \"#utility.yul\":10367:10385   */\n      dup2\n      dup2\n      add\n        /* \"#utility.yul\":10360:10390   */\n      mstore\n        /* \"#utility.yul\":10426:10460   */\n      0x4f776e61626c653a2063616c6c6572206973206e6f7420746865206f776e6572\n        /* \"#utility.yul\":10421:10423   */\n      0x40\n        /* \"#utility.yul\":10406:10424   */\n      dup3\n      add\n        /* \"#utility.yul\":10399:10461   */\n      mstore\n        /* \"#utility.yul\":10493:10495   */\n      0x60\n        /* \"#utility.yul\":10478:10496   */\n      add\n      swap1\n        /* \"#utility.yul\":10146:10502   */\n      jump\t// out\n        /* \"#utility.yul\":10507:10859   */\n    tag_192:\n        /* \"#utility.yul\":10709:10711   */\n      0x20\n        /* \"#utility.yul\":10691:10712   */\n      dup1\n      dup3\n      mstore\n        /* \"#utility.yul\":10748:10750   */\n      0x1c\n        /* \"#utility.yul\":10728:10746   */\n      swap1\n      dup3\n      add\n        /* \"#utility.yul\":10721:10751   */\n      mstore\n        /* \"#utility.yul\":10787:10817   */\n      0x5374616b696e673a20506f6f6c20646f65736e27742065786973747300000000\n        /* \"#utility.yul\":10782:10784   */\n      0x40\n        /* \"#utility.yul\":10767:10785   */\n      dup3\n      add\n        /* \"#utility.yul\":10760:10818   */\n      mstore\n        /* \"#utility.yul\":10850:10852   */\n      0x60\n        /* \"#utility.yul\":10835:10853   */\n      add\n      swap1\n        /* \"#utility.yul\":10507:10859   */\n      jump\t// out\n        /* \"#utility.yul\":10864:10991   */\n    tag_199:\n        /* \"#utility.yul\":10925:10935   */\n      0x4e487b71\n        /* \"#utility.yul\":10920:10923   */\n      0xe0\n        /* \"#utility.yul\":10916:10936   */\n      shl\n        /* \"#utility.yul\":10913:10914   */\n      0x00\n        /* \"#utility.yul\":10906:10937   */\n      mstore\n        /* \"#utility.yul\":10956:10960   */\n      0x32\n        /* \"#utility.yul\":10953:10954   */\n      0x04\n        /* \"#utility.yul\":10946:10961   */\n      mstore\n        /* \"#utility.yul\":10980:10984   */\n      0x24\n        /* \"#utility.yul\":10977:10978   */\n      0x00\n        /* \"#utility.yul\":10970:10985   */\n      revert\n        /* \"#utility.yul\":10996:11123   */\n    tag_728:\n        /* \"#utility.yul\":11057:11067   */\n      0x4e487b71\n        /* \"#utility.yul\":11052:11055   */\n      0xe0\n        /* \"#utility.yul\":11048:11068   */\n      shl\n        /* \"#utility.yul\":11045:11046   */\n      0x00\n        /* \"#utility.yul\":11038:11069   */\n      mstore\n        /* \"#utility.yul\":11088:11092   */\n      0x11\n        /* \"#utility.yul\":11085:11086   */\n      0x04\n        /* \"#utility.yul\":11078:11093   */\n      mstore\n        /* \"#utility.yul\":11112:11116   */\n      0x24\n        /* \"#utility.yul\":11109:11110   */\n      0x00\n        /* \"#utility.yul\":11102:11117   */\n      revert\n        /* \"#utility.yul\":11128:11263   */\n    tag_203:\n        /* \"#utility.yul\":11167:11170   */\n      0x00\n        /* \"#utility.yul\":11188:11205   */\n      0x01\n      dup3\n      add\n        /* \"#utility.yul\":11185:11228   */\n      tag_815\n      jumpi\n        /* \"#utility.yul\":11208:11226   */\n      tag_815\n      tag_728\n      jump\t// in\n    tag_815:\n      pop\n        /* \"#utility.yul\":11255:11256   */\n      0x01\n        /* \"#utility.yul\":11244:11257   */\n      add\n      swap1\n        /* \"#utility.yul\":11128:11263   */\n      jump\t// out\n        /* \"#utility.yul\":11268:11485   */\n    tag_210:\n        /* \"#utility.yul\":11308:11309   */\n      0x00\n        /* \"#utility.yul\":11334:11335   */\n      dup3\n        /* \"#utility.yul\":11324:11456   */\n      tag_817\n      jumpi\n        /* \"#utility.yul\":11378:11388   */\n      0x4e487b71\n        /* \"#utility.yul\":11373:11376   */\n      0xe0\n        /* \"#utility.yul\":11369:11389   */\n      shl\n        /* \"#utility.yul\":11366:11367   */\n      0x00\n        /* \"#utility.yul\":11359:11390   */\n      mstore\n        /* \"#utility.yul\":11413:11417   */\n      0x12\n        /* \"#utility.yul\":11410:11411   */\n      0x04\n        /* \"#utility.yul\":11403:11418   */\n      mstore\n        /* \"#utility.yul\":11441:11445   */\n      0x24\n        /* \"#utility.yul\":11438:11439   */\n      0x00\n        /* \"#utility.yul\":11431:11446   */\n      revert\n        /* \"#utility.yul\":11324:11456   */\n    tag_817:\n      pop\n        /* \"#utility.yul\":11470:11479   */\n      div\n      swap1\n        /* \"#utility.yul\":11268:11485   */\n      jump\t// out\n        /* \"#utility.yul\":11490:11615   */\n    tag_222:\n        /* \"#utility.yul\":11530:11534   */\n      0x00\n        /* \"#utility.yul\":11558:11559   */\n      dup3\n        /* \"#utility.yul\":11555:11556   */\n      dup3\n        /* \"#utility.yul\":11552:11560   */\n      lt\n        /* \"#utility.yul\":11549:11583   */\n      iszero\n      tag_820\n      jumpi\n        /* \"#utility.yul\":11563:11581   */\n      tag_820\n      tag_728\n      jump\t// in\n    tag_820:\n      pop\n        /* \"#utility.yul\":11600:11609   */\n      sub\n      swap1\n        /* \"#utility.yul\":11490:11615   */\n      jump\t// out\n        /* \"#utility.yul\":11620:11788   */\n    tag_224:\n        /* \"#utility.yul\":11660:11667   */\n      0x00\n        /* \"#utility.yul\":11726:11727   */\n      dup2\n        /* \"#utility.yul\":11722:11723   */\n      0x00\n        /* \"#utility.yul\":11718:11724   */\n      not\n        /* \"#utility.yul\":11714:11728   */\n      div\n        /* \"#utility.yul\":11711:11712   */\n      dup4\n        /* \"#utility.yul\":11708:11729   */\n      gt\n        /* \"#utility.yul\":11703:11704   */\n      dup3\n        /* \"#utility.yul\":11696:11705   */\n      iszero\n        /* \"#utility.yul\":11689:11706   */\n      iszero\n        /* \"#utility.yul\":11685:11730   */\n      and\n        /* \"#utility.yul\":11682:11753   */\n      iszero\n      tag_823\n      jumpi\n        /* \"#utility.yul\":11733:11751   */\n      tag_823\n      tag_728\n      jump\t// in\n    tag_823:\n      pop\n        /* \"#utility.yul\":11773:11782   */\n      mul\n      swap1\n        /* \"#utility.yul\":11620:11788   */\n      jump\t// out\n        /* \"#utility.yul\":11793:12148   */\n    tag_237:\n        /* \"#utility.yul\":11995:11997   */\n      0x20\n        /* \"#utility.yul\":11977:11998   */\n      dup1\n      dup3\n      mstore\n        /* \"#utility.yul\":12034:12036   */\n      0x1f\n        /* \"#utility.yul\":12014:12032   */\n      swap1\n      dup3\n      add\n        /* \"#utility.yul\":12007:12037   */\n      mstore\n        /* \"#utility.yul\":12073:12106   */\n      0x5265656e7472616e637947756172643a207265656e7472616e742063616c6c00\n        /* \"#utility.yul\":12068:12070   */\n      0x40\n        /* \"#utility.yul\":12053:12071   */\n      dup3\n      add\n        /* \"#utility.yul\":12046:12107   */\n      mstore\n        /* \"#utility.yul\":12139:12141   */\n      0x60\n        /* \"#utility.yul\":12124:12142   */\n      add\n      swap1\n        /* \"#utility.yul\":11793:12148   */\n      jump\t// out\n        /* \"#utility.yul\":12153:12337   */\n    tag_243:\n        /* \"#utility.yul\":12223:12229   */\n      0x00\n        /* \"#utility.yul\":12276:12278   */\n      0x20\n        /* \"#utility.yul\":12264:12273   */\n      dup3\n        /* \"#utility.yul\":12255:12262   */\n      dup5\n        /* \"#utility.yul\":12251:12274   */\n      sub\n        /* \"#utility.yul\":12247:12279   */\n      slt\n        /* \"#utility.yul\":12244:12296   */\n      iszero\n      tag_826\n      jumpi\n        /* \"#utility.yul\":12292:12293   */\n      0x00\n        /* \"#utility.yul\":12289:12290   */\n      dup1\n        /* \"#utility.yul\":12282:12294   */\n      revert\n        /* \"#utility.yul\":12244:12296   */\n    tag_826:\n      pop\n        /* \"#utility.yul\":12315:12331   */\n      mload\n      swap2\n        /* \"#utility.yul\":12153:12337   */\n      swap1\n      pop\n      jump\t// out\n        /* \"#utility.yul\":12342:12717   */\n    tag_246:\n      sub(shl(0xa0, 0x01), 0x01)\n        /* \"#utility.yul\":12600:12615   */\n      swap4\n      dup5\n      and\n        /* \"#utility.yul\":12582:12616   */\n      dup2\n      mstore\n        /* \"#utility.yul\":12652:12667   */\n      swap2\n      swap1\n      swap3\n      and\n        /* \"#utility.yul\":12647:12649   */\n      0x20\n        /* \"#utility.yul\":12632:12650   */\n      dup3\n      add\n        /* \"#utility.yul\":12625:12668   */\n      mstore\n        /* \"#utility.yul\":12699:12701   */\n      0x40\n        /* \"#utility.yul\":12684:12702   */\n      dup2\n      add\n        /* \"#utility.yul\":12677:12711   */\n      swap2\n      swap1\n      swap2\n      mstore\n        /* \"#utility.yul\":12532:12534   */\n      0x60\n        /* \"#utility.yul\":12517:12535   */\n      add\n      swap1\n        /* \"#utility.yul\":12342:12717   */\n      jump\t// out\n        /* \"#utility.yul\":12722:12967   */\n    tag_250:\n        /* \"#utility.yul\":12789:12795   */\n      0x00\n        /* \"#utility.yul\":12842:12844   */\n      0x20\n        /* \"#utility.yul\":12830:12839   */\n      dup3\n        /* \"#utility.yul\":12821:12828   */\n      dup5\n        /* \"#utility.yul\":12817:12840   */\n      sub\n        /* \"#utility.yul\":12813:12845   */\n      slt\n        /* \"#utility.yul\":12810:12862   */\n      iszero\n      tag_829\n      jumpi\n        /* \"#utility.yul\":12858:12859   */\n      0x00\n        /* \"#utility.yul\":12855:12856   */\n      dup1\n        /* \"#utility.yul\":12848:12860   */\n      revert\n        /* \"#utility.yul\":12810:12862   */\n    tag_829:\n        /* \"#utility.yul\":12890:12899   */\n      dup2\n        /* \"#utility.yul\":12884:12900   */\n      mload\n        /* \"#utility.yul\":12909:12937   */\n      tag_699\n        /* \"#utility.yul\":12931:12936   */\n      dup2\n        /* \"#utility.yul\":12909:12937   */\n      tag_727\n      jump\t// in\n        /* \"#utility.yul\":14089:14217   */\n    tag_275:\n        /* \"#utility.yul\":14129:14132   */\n      0x00\n        /* \"#utility.yul\":14160:14161   */\n      dup3\n        /* \"#utility.yul\":14156:14162   */\n      not\n        /* \"#utility.yul\":14153:14154   */\n      dup3\n        /* \"#utility.yul\":14150:14163   */\n      gt\n        /* \"#utility.yul\":14147:14186   */\n      iszero\n      tag_836\n      jumpi\n        /* \"#utility.yul\":14166:14184   */\n      tag_836\n      tag_728\n      jump\t// in\n    tag_836:\n      pop\n        /* \"#utility.yul\":14202:14211   */\n      add\n      swap1\n        /* \"#utility.yul\":14089:14217   */\n      jump\t// out\n        /* \"#utility.yul\":16754:16892   */\n    tag_729:\n        /* \"#utility.yul\":16833:16846   */\n      dup1\n      mload\n        /* \"#utility.yul\":16855:16886   */\n      tag_666\n        /* \"#utility.yul\":16833:16846   */\n      dup2\n        /* \"#utility.yul\":16855:16886   */\n      tag_726\n      jump\t// in\n        /* \"#utility.yul\":16897:17062   */\n    tag_730:\n        /* \"#utility.yul\":16975:16988   */\n      dup1\n      mload\n        /* \"#utility.yul\":17028:17036   */\n      0xffffff\n        /* \"#utility.yul\":17017:17037   */\n      dup2\n      and\n        /* \"#utility.yul\":17007:17038   */\n      dup2\n      eq\n        /* \"#utility.yul\":16997:17056   */\n      tag_666\n      jumpi\n        /* \"#utility.yul\":17052:17053   */\n      0x00\n        /* \"#utility.yul\":17049:17050   */\n      dup1\n        /* \"#utility.yul\":17042:17054   */\n      revert\n        /* \"#utility.yul\":17067:17231   */\n    tag_731:\n        /* \"#utility.yul\":17144:17157   */\n      dup1\n      mload\n        /* \"#utility.yul\":17197:17198   */\n      0x02\n        /* \"#utility.yul\":17186:17206   */\n      dup2\n      swap1\n      signextend\n        /* \"#utility.yul\":17176:17207   */\n      dup2\n      eq\n        /* \"#utility.yul\":17166:17225   */\n      tag_666\n      jumpi\n        /* \"#utility.yul\":17221:17222   */\n      0x00\n        /* \"#utility.yul\":17218:17219   */\n      dup1\n        /* \"#utility.yul\":17211:17223   */\n      revert\n        /* \"#utility.yul\":17236:17428   */\n    tag_732:\n        /* \"#utility.yul\":17315:17328   */\n      dup1\n      mload\n      sub(shl(0x80, 0x01), 0x01)\n        /* \"#utility.yul\":17357:17403   */\n      dup2\n      and\n        /* \"#utility.yul\":17347:17404   */\n      dup2\n      eq\n        /* \"#utility.yul\":17337:17422   */\n      tag_666\n      jumpi\n        /* \"#utility.yul\":17418:17419   */\n      0x00\n        /* \"#utility.yul\":17415:17416   */\n      dup1\n        /* \"#utility.yul\":17408:17420   */\n      revert\n        /* \"#utility.yul\":17433:18619   */\n    tag_439:\n        /* \"#utility.yul\":17596:17602   */\n      0x00\n        /* \"#utility.yul\":17604:17610   */\n      dup1\n        /* \"#utility.yul\":17612:17618   */\n      0x00\n        /* \"#utility.yul\":17620:17626   */\n      dup1\n        /* \"#utility.yul\":17628:17634   */\n      0x00\n        /* \"#utility.yul\":17636:17642   */\n      dup1\n        /* \"#utility.yul\":17644:17650   */\n      0x00\n        /* \"#utility.yul\":17652:17658   */\n      dup1\n        /* \"#utility.yul\":17660:17666   */\n      0x00\n        /* \"#utility.yul\":17668:17674   */\n      dup1\n        /* \"#utility.yul\":17676:17683   */\n      0x00\n        /* \"#utility.yul\":17685:17692   */\n      dup1\n        /* \"#utility.yul\":17739:17742   */\n      0x0180\n        /* \"#utility.yul\":17727:17736   */\n      dup14\n        /* \"#utility.yul\":17718:17725   */\n      dup16\n        /* \"#utility.yul\":17714:17737   */\n      sub\n        /* \"#utility.yul\":17710:17743   */\n      slt\n        /* \"#utility.yul\":17707:17760   */\n      iszero\n      tag_853\n      jumpi\n        /* \"#utility.yul\":17756:17757   */\n      0x00\n        /* \"#utility.yul\":17753:17754   */\n      dup1\n        /* \"#utility.yul\":17746:17758   */\n      revert\n        /* \"#utility.yul\":17707:17760   */\n    tag_853:\n        /* \"#utility.yul\":17788:17797   */\n      dup13\n        /* \"#utility.yul\":17782:17798   */\n      mload\n        /* \"#utility.yul\":17838:17864   */\n      0xffffffffffffffffffffffff\n        /* \"#utility.yul\":17831:17836   */\n      dup2\n        /* \"#utility.yul\":17827:17865   */\n      and\n        /* \"#utility.yul\":17820:17825   */\n      dup2\n        /* \"#utility.yul\":17817:17866   */\n      eq\n        /* \"#utility.yul\":17807:17884   */\n      tag_854\n      jumpi\n        /* \"#utility.yul\":17880:17881   */\n      0x00\n        /* \"#utility.yul\":17877:17878   */\n      dup1\n        /* \"#utility.yul\":17870:17882   */\n      revert\n        /* \"#utility.yul\":17807:17884   */\n    tag_854:\n        /* \"#utility.yul\":17903:17908   */\n      swap12\n      pop\n        /* \"#utility.yul\":17927:17976   */\n      tag_855\n        /* \"#utility.yul\":17972:17974   */\n      0x20\n        /* \"#utility.yul\":17957:17975   */\n      dup15\n      add\n        /* \"#utility.yul\":17927:17976   */\n      tag_729\n      jump\t// in\n    tag_855:\n        /* \"#utility.yul\":17917:17976   */\n      swap11\n      pop\n        /* \"#utility.yul\":17995:18044   */\n      tag_856\n        /* \"#utility.yul\":18040:18042   */\n      0x40\n        /* \"#utility.yul\":18029:18038   */\n      dup15\n        /* \"#utility.yul\":18025:18043   */\n      add\n        /* \"#utility.yul\":17995:18044   */\n      tag_729\n      jump\t// in\n    tag_856:\n        /* \"#utility.yul\":17985:18044   */\n      swap10\n      pop\n        /* \"#utility.yul\":18063:18112   */\n      tag_857\n        /* \"#utility.yul\":18108:18110   */\n      0x60\n        /* \"#utility.yul\":18097:18106   */\n      dup15\n        /* \"#utility.yul\":18093:18111   */\n      add\n        /* \"#utility.yul\":18063:18112   */\n      tag_729\n      jump\t// in\n    tag_857:\n        /* \"#utility.yul\":18053:18112   */\n      swap9\n      pop\n        /* \"#utility.yul\":18131:18180   */\n      tag_858\n        /* \"#utility.yul\":18175:18178   */\n      0x80\n        /* \"#utility.yul\":18164:18173   */\n      dup15\n        /* \"#utility.yul\":18160:18179   */\n      add\n        /* \"#utility.yul\":18131:18180   */\n      tag_730\n      jump\t// in\n    tag_858:\n        /* \"#utility.yul\":18121:18180   */\n      swap8\n      pop\n        /* \"#utility.yul\":18199:18247   */\n      tag_859\n        /* \"#utility.yul\":18242:18245   */\n      0xa0\n        /* \"#utility.yul\":18231:18240   */\n      dup15\n        /* \"#utility.yul\":18227:18246   */\n      add\n        /* \"#utility.yul\":18199:18247   */\n      tag_731\n      jump\t// in\n    tag_859:\n        /* \"#utility.yul\":18189:18247   */\n      swap7\n      pop\n        /* \"#utility.yul\":18266:18314   */\n      tag_860\n        /* \"#utility.yul\":18309:18312   */\n      0xc0\n        /* \"#utility.yul\":18298:18307   */\n      dup15\n        /* \"#utility.yul\":18294:18313   */\n      add\n        /* \"#utility.yul\":18266:18314   */\n      tag_731\n      jump\t// in\n    tag_860:\n        /* \"#utility.yul\":18256:18314   */\n      swap6\n      pop\n        /* \"#utility.yul\":18333:18383   */\n      tag_861\n        /* \"#utility.yul\":18378:18381   */\n      0xe0\n        /* \"#utility.yul\":18367:18376   */\n      dup15\n        /* \"#utility.yul\":18363:18382   */\n      add\n        /* \"#utility.yul\":18333:18383   */\n      tag_732\n      jump\t// in\n    tag_861:\n        /* \"#utility.yul\":18323:18383   */\n      swap5\n      pop\n        /* \"#utility.yul\":18423:18426   */\n      0x0100\n        /* \"#utility.yul\":18412:18421   */\n      dup14\n        /* \"#utility.yul\":18408:18427   */\n      add\n        /* \"#utility.yul\":18402:18428   */\n      mload\n        /* \"#utility.yul\":18392:18428   */\n      swap4\n      pop\n        /* \"#utility.yul\":18468:18471   */\n      0x0120\n        /* \"#utility.yul\":18457:18466   */\n      dup14\n        /* \"#utility.yul\":18453:18472   */\n      add\n        /* \"#utility.yul\":18447:18473   */\n      mload\n        /* \"#utility.yul\":18437:18473   */\n      swap3\n      pop\n        /* \"#utility.yul\":18493:18543   */\n      tag_862\n        /* \"#utility.yul\":18538:18541   */\n      0x0140\n        /* \"#utility.yul\":18527:18536   */\n      dup15\n        /* \"#utility.yul\":18523:18542   */\n      add\n        /* \"#utility.yul\":18493:18543   */\n      tag_732\n      jump\t// in\n    tag_862:\n        /* \"#utility.yul\":18482:18543   */\n      swap2\n      pop\n        /* \"#utility.yul\":18563:18613   */\n      tag_863\n        /* \"#utility.yul\":18608:18611   */\n      0x0160\n        /* \"#utility.yul\":18597:18606   */\n      dup15\n        /* \"#utility.yul\":18593:18612   */\n      add\n        /* \"#utility.yul\":18563:18613   */\n      tag_732\n      jump\t// in\n    tag_863:\n        /* \"#utility.yul\":18552:18613   */\n      swap1\n      pop\n        /* \"#utility.yul\":17433:18619   */\n      swap3\n      swap6\n      swap9\n      swap12\n      pop\n      swap3\n      swap6\n      swap9\n      swap12\n      pop\n      swap3\n      swap6\n      swap9\n      swap12\n      jump\t// out\n        /* \"#utility.yul\":19277:19528   */\n    tag_460:\n        /* \"#utility.yul\":19347:19353   */\n      0x00\n        /* \"#utility.yul\":19400:19402   */\n      0x20\n        /* \"#utility.yul\":19388:19397   */\n      dup3\n        /* \"#utility.yul\":19379:19386   */\n      dup5\n        /* \"#utility.yul\":19375:19398   */\n      sub\n        /* \"#utility.yul\":19371:19403   */\n      slt\n        /* \"#utility.yul\":19368:19420   */\n      iszero\n      tag_867\n      jumpi\n        /* \"#utility.yul\":19416:19417   */\n      0x00\n        /* \"#utility.yul\":19413:19414   */\n      dup1\n        /* \"#utility.yul\":19406:19418   */\n      revert\n        /* \"#utility.yul\":19368:19420   */\n    tag_867:\n        /* \"#utility.yul\":19448:19457   */\n      dup2\n        /* \"#utility.yul\":19442:19458   */\n      mload\n        /* \"#utility.yul\":19467:19498   */\n      tag_699\n        /* \"#utility.yul\":19492:19497   */\n      dup2\n        /* \"#utility.yul\":19467:19498   */\n      tag_726\n      jump\t// in\n        /* \"#utility.yul\":22541:22951   */\n    tag_665:\n        /* \"#utility.yul\":22743:22745   */\n      0x20\n        /* \"#utility.yul\":22725:22746   */\n      dup1\n      dup3\n      mstore\n        /* \"#utility.yul\":22782:22784   */\n      0x2e\n        /* \"#utility.yul\":22762:22780   */\n      swap1\n      dup3\n      add\n        /* \"#utility.yul\":22755:22785   */\n      mstore\n        /* \"#utility.yul\":22821:22855   */\n      0x496e697469616c697a61626c653a20636f6e747261637420697320616c726561\n        /* \"#utility.yul\":22816:22818   */\n      0x40\n        /* \"#utility.yul\":22801:22819   */\n      dup3\n      add\n        /* \"#utility.yul\":22794:22856   */\n      mstore\n      shl(0x92, 0x191e481a5b9a5d1a585b1a5e9959)\n        /* \"#utility.yul\":22887:22889   */\n      0x60\n        /* \"#utility.yul\":22872:22890   */\n      dup3\n      add\n        /* \"#utility.yul\":22865:22909   */\n      mstore\n        /* \"#utility.yul\":22941:22944   */\n      0x80\n        /* \"#utility.yul\":22926:22945   */\n      add\n      swap1\n        /* \"#utility.yul\":22541:22951   */\n      jump\t// out\n        /* \"#utility.yul\":22956:23363   */\n    tag_672:\n        /* \"#utility.yul\":23158:23160   */\n      0x20\n        /* \"#utility.yul\":23140:23161   */\n      dup1\n      dup3\n      mstore\n        /* \"#utility.yul\":23197:23199   */\n      0x2b\n        /* \"#utility.yul\":23177:23195   */\n      swap1\n      dup3\n      add\n        /* \"#utility.yul\":23170:23200   */\n      mstore\n        /* \"#utility.yul\":23236:23270   */\n      0x496e697469616c697a61626c653a20636f6e7472616374206973206e6f742069\n        /* \"#utility.yul\":23231:23233   */\n      0x40\n        /* \"#utility.yul\":23216:23234   */\n      dup3\n      add\n        /* \"#utility.yul\":23209:23271   */\n      mstore\n      shl(0xa8, 0x6e697469616c697a696e67)\n        /* \"#utility.yul\":23302:23304   */\n      0x60\n        /* \"#utility.yul\":23287:23305   */\n      dup3\n      add\n        /* \"#utility.yul\":23280:23321   */\n      mstore\n        /* \"#utility.yul\":23353:23356   */\n      0x80\n        /* \"#utility.yul\":23338:23357   */\n      add\n      swap1\n        /* \"#utility.yul\":22956:23363   */\n      jump\t// out\n\n    auxdata: 0xa2646970667358221220cf18c2c42341a3019dee66749b9858bbe1dd1cdd44978a1c860723097bcb042864736f6c634300080d0033\n}\n",
				"bytecode": {
					"linkReferences": {},
					"object": "608060405234801561001057600080fd5b506136ca806100206000396000f3fe608060405234801561001057600080fd5b506004361061021c5760003560e01c8063a54c83f611610125578063ccd34cd5116100ad578063e72728661161007c578063e7272866146105c6578063e76ba191146105d9578063e7c928b1146105ec578063f2fde38b146105ff578063f8ce1f311461061257600080fd5b8063ccd34cd514610533578063cf5badc614610542578063d6d6817714610555578063e179b5c3146105be57600080fd5b8063b0203a80116100f4578063b0203a801461049c578063b187bd26146104a4578063ba41795f146104c1578063c3d2c3c1146104d4578063c4b91c4d146104f757600080fd5b8063a54c83f61461041d578063a638f2e214610430578063ac4afa3814610443578063ad5c46481461048957600080fd5b8063750142e6116101a8578063911ef50811610177578063911ef5081461031657806394f649dd1461031f5780639aaab9541461033f578063a2234080146103df578063a32a66a7146103f257600080fd5b8063750142e6146102e157806382a14459146102e957806388f67d77146102f25780638da5cb5b1461030557600080fd5b806324a723d4116101ef57806324a723d4146102a35780632c86714c146102b657806333cfcd3b146102be578063715018a6146102d157806373f64499146102d957600080fd5b8063081e3eda146102215780630c75699714610238578063110d458e1461024d5780631ee7f3c414610278575b600080fd5b60a1545b6040519081526020015b60405180910390f35b61024b610246366004612fda565b610625565b005b609954610260906001600160a01b031681565b6040516001600160a01b03909116815260200161022f565b610225610286366004613021565b6000918252609c6020908152604080842092845291905290205490565b6102256102b1366004613058565b610703565b61024b6108cd565b61024b6102cc366004613092565b610a41565b61024b610ff5565b61024b61102b565b6102256110ac565b61022560a65481565b61024b6103003660046130cb565b61112f565b6065546001600160a01b0316610260565b61022560a55481565b61033261032d36600461312d565b6113c7565b60405161022f919061314a565b61039b61034d3660046131e2565b60a06020528060005260406000206000915090508060000154908060010154908060020154908060030154908060040154908060050154908060060154908060070154908060080154905089565b60408051998a5260208a0198909852968801959095526060870193909352608086019190915260a085015260c084015260e08301526101008201526101200161022f565b61024b6103ed36600461312d565b6115a0565b610225610400366004613021565b609c60209081526000928352604080842090915290825290205481565b61024b61042b366004613021565b6115ec565b61022561043e3660046131fb565b6117c0565b6104566104513660046131e2565b611f84565b604080516001600160a01b039687168152959094166020860152928401919091526060830152608082015260a00161022f565b609a54610260906001600160a01b031681565b610225611fd1565b60a4546104b19060ff1681565b604051901515815260200161022f565b6102256104cf366004613227565b612043565b6104b16104e236600461312d565b609d6020526000908152604090205460ff1681565b61051e6105053660046131e2565b60a2602052600090815260409020805460019091015482565b6040805192835260208301919091520161022f565b610225670de0b6b3a764000081565b6104b16105503660046131e2565b6120ea565b61039b610563366004613058565b609e602052816000526040600020602052806000526040600020600091509150508060000154908060010154908060020154908060030154908060040154908060050154908060060154908060070154908060080154905089565b61024b612122565b61024b6105d436600461325e565b6121a4565b6102256105e7366004613058565b61226b565b61024b6105fa3660046131e2565b61229c565b61024b61060d36600461312d565b61253a565b61024b610620366004613021565b6125d5565b6065546001600160a01b031633146106585760405162461bcd60e51b815260040161064f90613304565b60405180910390fd5b60a1548290811061067b5760405162461bcd60e51b815260040161064f90613339565b60005b82518110156106fd5782818151811061069957610699613370565b602002602001015160200151609c600086815260200190815260200160002060008584815181106106cc576106cc613370565b60200260200101516000015181526020019081526020016000208190555080806106f59061339c565b91505061067e565b50505050565b6001600160a01b0382166000908152609e602090815260408083208484528252808320815161012081018352815481526001820154818501526002820154928101929092526003810154606083015260048101546080830152600581015460a0830152600681015460c0830152600781015460e0830181905260089091015461010083015280845260a2909252906000816000036107f4576001601e6018603c8060a26000888152602001908152602001600020600101546107c591906133b5565b6107cf91906133b5565b6107d991906133b5565b6107e391906133b5565b6107ed91906133b5565b9050610848565b81601e6018603c8060a260008881526020019081526020016000206001015461081d91906133b5565b61082791906133b5565b61083191906133b5565b61083b91906133b5565b61084591906133b5565b90505b6000818460a001514261085b91906133d7565b61086591906133ee565b905060008160a2600086815260200190815260200160002060000154670de0b6b3a7640000876020015161089991906133ee565b6108a391906133b5565b6108ad91906133ee565b90506108c1670de0b6b3a7640000826133b5565b98975050505050505050565b6065546001600160a01b031633146108f75760405162461bcd60e51b815260040161064f90613304565b6002600154036109195760405162461bcd60e51b815260040161064f9061340d565b6002600155609a546040516370a0823160e01b81523060048201526000916001600160a01b0316906370a0823190602401602060405180830381865afa158015610967573d6000803e3d6000fd5b505050506040513d601f19601f8201168201806040525081019061098b9190613444565b609a546040516323b872dd60e01b81529192506001600160a01b0316906323b872dd906109c09030903390869060040161345d565b6020604051808303816000875af11580156109df573d6000803e3d6000fd5b505050506040513d601f19601f82011682018060405250810190610a039190613481565b5060405181815233907f34042597700906fd41b7ead5497c3bf88ef36150597ddd9193327a09f0604f66906020015b60405180910390a25060018055565b600260015403610a635760405162461bcd60e51b815260040161064f9061340d565b600260015560a45460ff1615610aae5760405162461bcd60e51b815260206004820152601060248201526f636f6e7472616374207061757365642160801b604482015260640161064f565b60a15483908110610ad15760405162461bcd60e51b815260040161064f90613339565b336000908152609e602090815260408083208684528252808320815161012081018352815481526001820154938101939093526002810154918301919091526003810154606083015260048101546080830152600581015460a0830152600681015460c0830152600781015460e0830152600801546101008201529083610b5e5781608001514211610b61565b60015b90506000826020015111610bb75760405162461bcd60e51b815260206004820152601860248201527f436c61696d203a204e6f7468696e6720746f20636c61696d0000000000000000604482015260640161064f565b80610c1f5760405162461bcd60e51b815260206004820152603260248201527f436c61696d203a2063616e6e6f74207769746864726177206265666f72652076604482015271657374696e6720706572696f6420656e647360701b606482015260840161064f565b6000610c2c3387876127b5565b90506000818460400151610c40919061349e565b90506000846020015190508160a18660c0015181548110610c6357610c63613370565b90600052602060002090600502016003015411610ce05760405162461bcd60e51b815260206004820152603560248201527f5374616b696e673a20496e73756666696369656e742072657761726420616c6c60448201527437bbb0b731b290333937b6903a34329020b236b4b760591b606482015260840161064f565b600060a18660c0015181548110610cf957610cf9613370565b600091825260209091206005909102016001015460405163a9059cbb60e01b8152336004820152602481018590526001600160a01b039091169150819063a9059cbb906044016020604051808303816000875af1158015610d5e573d6000803e3d6000fd5b505050506040513d601f19601f82011682018060405250810190610d829190613481565b50600060a18760c0015181548110610d9c57610d9c613370565b60009182526020909120600590910201546101008801516040516323b872dd60e01b81526001600160a01b03909216925082916323b872dd91610de5913091339160040161345d565b600060405180830381600087803b158015610dff57600080fd5b505af1158015610e13573d6000803e3d6000fd5b5050505088158015610e3a575060e0870151600090815260a2602052604090206001015415155b15610e4957610e49338b61297d565b8360a18860c0015181548110610e6157610e61613370565b90600052602060002090600502016003016000828254610e8191906133d7565b925050819055508360a18860c0015181548110610ea057610ea0613370565b90600052602060002090600502016004016000828254610ec0919061349e565b92505081905550866020015160a18860c0015181548110610ee357610ee3613370565b90600052602060002090600502016002016000828254610f0391906133d7565b909155505060e0870151600090815260a2602052604081208054859290610f2b9084906133d7565b9091555050336000908152609e602090815260408083208d84529091528120600281018290556001015560a45460ff1615610f865760a554336000908152609e602090815260408083208e8452909152902060050155610fa8565b336000908152609e602090815260408083208d84529091529020426005909101555b604080518581524260208201528c9133917f812be816db82c66cd18ca8457005cd84689642d8ac4d38599cc6af444a2dc72a910160405180910390a3505060018055505050505050505050565b6065546001600160a01b0316331461101f5760405162461bcd60e51b815260040161064f90613304565b6110296000612bea565b565b6065546001600160a01b031633146110555760405162461bcd60e51b815260040161064f90613304565b60a45460ff16156110995760405162461bcd60e51b815260206004820152600e60248201526d105b1c9958591e4814185d5cd95960921b604482015260640161064f565b60a4805460ff191660011790554260a555565b60008060015b609754811161112957600081815260a060205260409020600101541561111757600081815260a060205260409020600201546110ee908361349e565b600082815260a0602052604081205491935061110a91816127b5565b611114908361349e565b91505b806111218161339c565b9150506110b2565b50919050565b6065546001600160a01b031633146111595760405162461bcd60e51b815260040161064f90613304565b6001600160a01b0383166000908152609d6020526040902054839060ff16156111c45760405162461bcd60e51b815260206004820152601e60248201527f416464203a20746f6b656e20706f6f6c20616c72656164792065786974730000604482015260640161064f565b6001600160a01b0384166000908152609d60205260408120805460ff1916600117905560a1546111f65760a154611205565b60a154611205906001906133d7565b905060005b83518110156112895783818151811061122557611225613370565b602002602001015160200151609c6000848152602001908152602001600020600086848151811061125857611258613370565b60200260200101516000015181526020019081526020016000208190555080806112819061339c565b91505061120a565b5050609b80546001600160a01b039586166001600160a01b031991821681179092556040805160a081018252928352948616602083019081526000958301868152606084018781526080850188815260a180546001810182559952945160059098027faadc37b8ba5645e62f4546802db221593a94729ccbfc5a97d01365a88f64987881018054998b169986169990991790985591517faadc37b8ba5645e62f4546802db221593a94729ccbfc5a97d01365a88f6498798801805491909916931692909217909655517faadc37b8ba5645e62f4546802db221593a94729ccbfc5a97d01365a88f64987a85015593517faadc37b8ba5645e62f4546802db221593a94729ccbfc5a97d01365a88f64987b840155505090517faadc37b8ba5645e62f4546802db221593a94729ccbfc5a97d01365a88f64987c90910155565b6001600160a01b0381166000908152609f60205260408120546060919067ffffffffffffffff8111156113fc576113fc612eb7565b60405190808252806020026020018201604052801561147c57816020015b6114696040518061012001604052806000815260200160008152602001600081526020016000815260200160008152602001600081526020016000815260200160008152602001600081525090565b81526020019060019003908161141a5790505b50905060005b6001600160a01b0384166000908152609f6020526040902054811015611599576001600160a01b0384166000908152609e60209081526040808320609f90925282208054839190859081106114d9576114d9613370565b906000526020600020015481526020019081526020016000206040518061012001604052908160008201548152602001600182015481526020016002820154815260200160038201548152602001600482015481526020016005820154815260200160068201548152602001600782015481526020016008820154815250509050600081602001511115611586578083838151811061157a5761157a613370565b60200260200101819052505b50806115918161339c565b915050611482565b5092915050565b6065546001600160a01b031633146115ca5760405162461bcd60e51b815260040161064f90613304565b609980546001600160a01b0319166001600160a01b0392909216919091179055565b6065546001600160a01b031633146116165760405162461bcd60e51b815260040161064f90613304565b60a154829081106116395760405162461bcd60e51b815260040161064f90613339565b600060a1848154811061164e5761164e613370565b906000526020600020906005020160010160009054906101000a90046001600160a01b031690508260a1858154811061168957611689613370565b906000526020600020906005020160030154101561170f5760405162461bcd60e51b815260206004820152603f60248201527f5374616b696e673a20616d6f756e74204d757374206265206c6573732074686160448201527f6e206f7220657175616c20746f20617661696c61626c65207265776172647300606482015260840161064f565b60405163a9059cbb60e01b8152336004820152602481018490526001600160a01b0382169063a9059cbb906044016020604051808303816000875af115801561175c573d6000803e3d6000fd5b505050506040513d601f19601f820116820180604052508101906117809190613481565b508260a1858154811061179557611795613370565b906000526020600020906005020160030160008282546117b591906133d7565b909155505050505050565b60006002600154036117e45760405162461bcd60e51b815260040161064f9061340d565b600260015560a45460ff161561182f5760405162461bcd60e51b815260206004820152601060248201526f636f6e7472616374207061757365642160801b604482015260640161064f565b60a154849081106118525760405162461bcd60e51b815260040161064f90613339565b60a45460ff16156118995760405162461bcd60e51b815260206004820152601160248201527014dd185ada5b99c81a5cc81c185d5cd959607a1b604482015260640161064f565b6000858152609c602090815260408083208684529091529020546000036118fb5760405162461bcd60e51b8152602060048201526016602482015275125b9d985b1a59081cdd185ada5b99c81c195c9a5bd960521b604482015260640161064f565b609b5460405163133f757160e31b815260048101869052600091829182916001600160a01b0316906399fbab889060240161018060405180830381865afa15801561194a573d6000803e3d6000fd5b505050506040513d601f19601f8201168201806040525081019061196e91906134fd565b505050509750505050945094505050826001600160a01b0316609a60009054906101000a90046001600160a01b03166001600160a01b03161480156119ea5750816001600160a01b031660a189815481106119cb576119cb613370565b60009182526020909120600160059092020101546001600160a01b0316145b611a285760405162461bcd60e51b815260206004820152600f60248201526e125b9d985b1a59081314081c1bdbdb608a1b604482015260640161064f565b600060a18981548110611a3d57611a3d613370565b600091825260209091206005909102015460405163e985e9c560e01b81523360048201523060248201526001600160a01b039091169150819063e985e9c590604401602060405180830381865afa158015611a9c573d6000803e3d6000fd5b505050506040513d601f19601f82011682018060405250810190611ac09190613481565b80611b3c575060405163020604bf60e21b81526004810189905230906001600160a01b0383169063081812fc90602401602060405180830381865afa158015611b0d573d6000803e3d6000fd5b505050506040513d601f19601f82011682018060405250810190611b3191906135de565b6001600160a01b0316145b611b805760405162461bcd60e51b815260206004820152601560248201527414dd185ada5b99ce88139bdd08185c1c1c9bdd9959605a1b604482015260640161064f565b6040516323b872dd60e01b81526001600160a01b038216906323b872dd90611bb090339030908d9060040161345d565b600060405180830381600087803b158015611bca57600080fd5b505af1158015611bde573d6000803e3d6000fd5b50505050611bf0609780546001019055565b6000611bfb60975490565b90506000611c0b338360016127b5565b336000908152609e60209081526040808320868452909152812084815560010180549293506001600160801b03871692909190611c4990849061349e565b9091555050336000908152609e6020908152604080832085845290915281206002018054839290611c7b90849061349e565b9091555050336000908152609e602090815260408083208584528083528184204260058201558f8552609c84528285208e86528452918420549386905290915260030155611ccc8962278d006133ee565b611cd6904261349e565b609e6000336001600160a01b03166001600160a01b031681526020019081526020016000206000848152602001908152602001600020600401819055508a609e6000336001600160a01b03166001600160a01b0316815260200190815260200160002060008481526020019081526020016000206006018190555088609e6000336001600160a01b03166001600160a01b0316815260200190815260200160002060008481526020019081526020016000206007018190555089609e6000336001600160a01b03166001600160a01b03168152602001908152602001600020600084815260200190815260200160002060080181905550609f6000336001600160a01b03166001600160a01b03168152602001908152602001600020829080600181540180825580915050600190039060005260206000200160009091909190915055609e6000336001600160a01b03166001600160a01b03168152602001908152602001600020600083815260200190815260200160002060a06000848152602001908152602001600020600082015481600001556001820154816001015560028201548160020155600382015481600301556004820154816004015560058201548160050155600682015481600601556007820154816007015560088201548160080155905050836001600160801b031660a18c81548110611edc57611edc613370565b90600052602060002090600502016002016000828254611efc919061349e565b9091555050600089815260a26020526040812080546001600160801b0387169290611f2890849061349e565b9091555050604080516001600160801b03861681524260208201528c9133917fb4caaf29adda3eefee3ad552a8e85058589bf834c7466cae4ee58787f70589ed910160405180910390a350600180559998505050505050505050565b60a18181548110611f9457600080fd5b6000918252602090912060059091020180546001820154600283015460038401546004909401546001600160a01b03938416955091909216929085565b609a546040516370a0823160e01b81523060048201526000916001600160a01b0316906370a0823190602401602060405180830381865afa15801561201a573d6000803e3d6000fd5b505050506040513d601f19601f8201168201806040525081019061203e9190613444565b905090565b6001600160a01b0383166000908152609e602090815260408083208584528252808320815161012081018352815481526001820154938101939093526002810154918301919091526003810154606083015260048101546080830152600581015460a0830152600681015460c0830152600781015460e0830152600801546101008201526120d28585856127b5565b81604001516120e1919061349e565b95945050505050565b60006120f46110ac565b60a1838154811061210757612107613370565b90600052602060002090600502016003015410159050919050565b6065546001600160a01b0316331461214c5760405162461bcd60e51b815260040161064f90613304565b60a45460ff166121945760405162461bcd60e51b8152602060048201526013602482015272105b1c9958591e4813dc195c985d1a5bdb985b606a1b604482015260640161064f565b60a4805460ff191690554260a555565b60006121b06001612c3c565b905080156121c8576000805461ff0019166101001790555b6121d0612cc9565b6121d8612cf0565b6121e0612d1f565b81516121f39060a3906020850190612e57565b50609a80546001600160a01b0319166001600160a01b0385161790556301e1338060985561222082612d4e565b8015612266576000805461ff0019169055604051600181527f7f26b83ff96e1f2b6a682f133852f6798a09c465da95921460cefb38474024989060200160405180910390a15b505050565b609f602052816000526040600020818154811061228757600080fd5b90600052602060002001600091509150505481565b6099546001600160a01b0316336001600160a01b0316146122f05760405162461bcd60e51b815260206004820152600e60248201526d696e76616c69642061636365737360901b604482015260640161064f565b6002600154036123125760405162461bcd60e51b815260040161064f9061340d565b6002600155806123645760405162461bcd60e51b815260206004820152601f60248201527f436f6c6c656374204665653a20416d6f756e74206d757374206265203e203000604482015260640161064f565b609a546001600160a01b03166323b872dd3330846040518463ffffffff1660e01b81526004016123969392919061345d565b6020604051808303816000875af11580156123b5573d6000803e3d6000fd5b505050506040513d601f19601f820116820180604052508101906123d99190613481565b5060005b60a3548110156125075760a381815481106123fa576123fa613370565b906000526020600020015460001461246d57670de0b6b3a76400008260a654670de0b6b3a764000060a3858154811061243557612435613370565b906000526020600020015461244a91906133ee565b61245491906133b5565b61245e91906133ee565b61246891906133b5565b6124ad565b670de0b6b3a76400008260a654670de0b6b3a7640000600161248f91906133ee565b61249991906133b5565b6124a391906133ee565b6124ad91906133b5565b60a2600060a384815481106124c4576124c4613370565b9060005260206000200154815260200190815260200160002060010160008282546124ef919061349e565b909155508190506124ff8161339c565b9150506123dd565b5060405181815233907f386d896e9bd972181cfb744681a2de8d2daab22884986fdc60c3947be36ca01b90602001610a32565b6065546001600160a01b031633146125645760405162461bcd60e51b815260040161064f90613304565b6001600160a01b0381166125c95760405162461bcd60e51b815260206004820152602660248201527f4f776e61626c653a206e6577206f776e657220697320746865207a65726f206160448201526564647265737360d01b606482015260840161064f565b6125d281612bea565b50565b6065546001600160a01b031633146125ff5760405162461bcd60e51b815260040161064f90613304565b60a154829081106126225760405162461bcd60e51b815260040161064f90613339565b600060a1848154811061263757612637613370565b6000918252602090912060059091020160010154604051636eb1769f60e11b81523360048201523060248201526001600160a01b0390911691508390829063dd62ed3e90604401602060405180830381865afa15801561269b573d6000803e3d6000fd5b505050506040513d601f19601f820116820180604052508101906126bf9190613444565b101561270d5760405162461bcd60e51b815260206004820152601c60248201527f5374616b696e673a204d75737420616c6c6f77205370656e64696e6700000000604482015260640161064f565b6040516323b872dd60e01b81526001600160a01b038216906323b872dd9061273d9033903090889060040161345d565b6020604051808303816000875af115801561275c573d6000803e3d6000fd5b505050506040513d601f19601f820116820180604052508101906127809190613481565b508260a1858154811061279557612795613370565b906000526020600020906005020160030160008282546117b5919061349e565b6000806001600160a01b0385166127d957600084815260a0602052604090206127fd565b6001600160a01b0385166000908152609e6020908152604080832087845290915290205b6040805161012081018252825481526001830154602082018190526002840154928201929092526003830154606082015260048301546080820152600583015460a0820152600683015460c0820152600783015460e0820152600890920154610100830152909150156129705760a45460ff16156128ed5760a5548160a00151111561288c5760009150612975565b6128e66128b16103e86128ab6064609854612dcf90919063ffffffff16565b90612dcf565b6128e06128cd8460a0015160a554612de290919063ffffffff16565b606085015160208601516128ab91612dcf565b90612dee565b9150612975565b6000836128fe57816060015161291e565b60c08201516000908152609c602090815260408083208380529091529020545b905061296861293f6103e86128ab6064609854612dcf90919063ffffffff16565b6128e06129598560a0015142612de290919063ffffffff16565b60208601516128ab9086612dcf565b925050612975565b600091505b509392505050565b6001600160a01b0382166000908152609e602090815260408083208484528252918290208251610120810184528154815260018201549281018390526002820154938101939093526003810154606084015260048101546080840152600581015460a0840152600681015460c0840152600781015460e084015260080154610100830152612a455760405162461bcd60e51b81526020600482015260156024820152742430b93b32b9ba1d102737ba10309039ba30b5b2b960591b604482015260640161064f565b6000612a518484610703565b9050801580612a74575060e0820151600090815260a26020526040902060010154155b15612a7f5750505050565b609a546040516370a0823160e01b81523060048201526000916001600160a01b0316906370a0823190602401602060405180830381865afa158015612ac8573d6000803e3d6000fd5b505050506040513d601f19601f82011682018060405250810190612aec9190613444565b905080600003612afd575050505050565b60e0830151600090815260a2602052604081206001018054849290612b239084906133d7565b9091555050609a546040516323b872dd60e01b81526001600160a01b03909116906323b872dd90612b5c9030908990879060040161345d565b6020604051808303816000875af1158015612b7b573d6000803e3d6000fd5b505050506040513d601f19601f82011682018060405250810190612b9f9190613481565b50846001600160a01b03167fc9695243a805adb74c91f28311176c65b417e842d5699893cef56d18bfa48cba83604051612bdb91815260200190565b60405180910390a25050505050565b606580546001600160a01b038381166001600160a01b0319831681179093556040519116919082907f8be0079c531659141344cd1fd0a4f28419497f9722a3daafe3b4186f6b6457e090600090a35050565b60008054610100900460ff1615612c83578160ff166001148015612c5f5750303b155b612c7b5760405162461bcd60e51b815260040161064f906135fb565b506000919050565b60005460ff808416911610612caa5760405162461bcd60e51b815260040161064f906135fb565b506000805460ff191660ff92909216919091179055600190565b919050565b600054610100900460ff166110295760405162461bcd60e51b815260040161064f90613649565b600054610100900460ff16612d175760405162461bcd60e51b815260040161064f90613649565b611029612dfa565b600054610100900460ff16612d465760405162461bcd60e51b815260040161064f90613649565b611029612e2a565b600060a68190555b8151811015612dcb57818181518110612d7157612d71613370565b6020026020010151600014612d9f57818181518110612d9257612d92613370565b6020026020010151612da2565b60015b60a66000828254612db3919061349e565b90915550819050612dc38161339c565b915050612d56565b5050565b6000612ddb82846133ee565b9392505050565b6000612ddb82846133d7565b6000612ddb82846133b5565b600054610100900460ff16612e215760405162461bcd60e51b815260040161064f90613649565b61102933612bea565b600054610100900460ff16612e515760405162461bcd60e51b815260040161064f90613649565b60018055565b828054828255906000526020600020908101928215612e92579160200282015b82811115612e92578251825591602001919060010190612e77565b50612e9e929150612ea2565b5090565b5b80821115612e9e5760008155600101612ea3565b634e487b7160e01b600052604160045260246000fd5b6040805190810167ffffffffffffffff81118282101715612ef057612ef0612eb7565b60405290565b604051601f8201601f1916810167ffffffffffffffff81118282101715612f1f57612f1f612eb7565b604052919050565b600067ffffffffffffffff821115612f4157612f41612eb7565b5060051b60200190565b600082601f830112612f5c57600080fd5b81356020612f71612f6c83612f27565b612ef6565b82815260069290921b84018101918181019086841115612f9057600080fd5b8286015b84811015612fcf5760408189031215612fad5760008081fd5b612fb5612ecd565b813581528482013585820152835291830191604001612f94565b509695505050505050565b60008060408385031215612fed57600080fd5b82359150602083013567ffffffffffffffff81111561300b57600080fd5b61301785828601612f4b565b9150509250929050565b6000806040838503121561303457600080fd5b50508035926020909101359150565b6001600160a01b03811681146125d257600080fd5b6000806040838503121561306b57600080fd5b823561307681613043565b946020939093013593505050565b80151581146125d257600080fd5b6000806000606084860312156130a757600080fd5b833592506020840135915060408401356130c081613084565b809150509250925092565b6000806000606084860312156130e057600080fd5b83356130eb81613043565b925060208401356130fb81613043565b9150604084013567ffffffffffffffff81111561311757600080fd5b61312386828701612f4b565b9150509250925092565b60006020828403121561313f57600080fd5b8135612ddb81613043565b602080825282518282018190526000919060409081850190868401855b828110156131d55781518051855286810151878601528581015186860152606080820151908601526080808201519086015260a0808201519086015260c0808201519086015260e0808201519086015261010090810151908501526101209093019290850190600101613167565b5091979650505050505050565b6000602082840312156131f457600080fd5b5035919050565b60008060006060848603121561321057600080fd5b505081359360208301359350604090920135919050565b60008060006060848603121561323c57600080fd5b833561324781613043565b92506020840135915060408401356130c081613084565b6000806040838503121561327157600080fd5b823561327c81613043565b915060208381013567ffffffffffffffff81111561329957600080fd5b8401601f810186136132aa57600080fd5b80356132b8612f6c82612f27565b81815260059190911b820183019083810190888311156132d757600080fd5b928401925b828410156132f5578335825292840192908401906132dc565b80955050505050509250929050565b6020808252818101527f4f776e61626c653a2063616c6c6572206973206e6f7420746865206f776e6572604082015260600190565b6020808252601c908201527f5374616b696e673a20506f6f6c20646f65736e27742065786973747300000000604082015260600190565b634e487b7160e01b600052603260045260246000fd5b634e487b7160e01b600052601160045260246000fd5b6000600182016133ae576133ae613386565b5060010190565b6000826133d257634e487b7160e01b600052601260045260246000fd5b500490565b6000828210156133e9576133e9613386565b500390565b600081600019048311821515161561340857613408613386565b500290565b6020808252601f908201527f5265656e7472616e637947756172643a207265656e7472616e742063616c6c00604082015260600190565b60006020828403121561345657600080fd5b5051919050565b6001600160a01b039384168152919092166020820152604081019190915260600190565b60006020828403121561349357600080fd5b8151612ddb81613084565b600082198211156134b1576134b1613386565b500190565b8051612cc481613043565b805162ffffff81168114612cc457600080fd5b8051600281900b8114612cc457600080fd5b80516001600160801b0381168114612cc457600080fd5b6000806000806000806000806000806000806101808d8f03121561352057600080fd5b8c516bffffffffffffffffffffffff8116811461353c57600080fd5b9b5061354a60208e016134b6565b9a5061355860408e016134b6565b995061356660608e016134b6565b985061357460808e016134c1565b975061358260a08e016134d4565b965061359060c08e016134d4565b955061359e60e08e016134e6565b94506101008d015193506101208d015192506135bd6101408e016134e6565b91506135cc6101608e016134e6565b90509295989b509295989b509295989b565b6000602082840312156135f057600080fd5b8151612ddb81613043565b6020808252602e908201527f496e697469616c697a61626c653a20636f6e747261637420697320616c72656160408201526d191e481a5b9a5d1a585b1a5e995960921b606082015260800190565b6020808252602b908201527f496e697469616c697a61626c653a20636f6e7472616374206973206e6f74206960408201526a6e697469616c697a696e6760a81b60608201526080019056fea2646970667358221220cf18c2c42341a3019dee66749b9858bbe1dd1cdd44978a1c860723097bcb042864736f6c634300080d0033",
					"opcodes": "PUSH1 0x80 PUSH1 0x40 MSTORE CALLVALUE DUP1 ISZERO PUSH2 0x10 JUMPI PUSH1 0x0 DUP1 REVERT JUMPDEST POP PUSH2 0x36CA DUP1 PUSH2 0x20 PUSH1 0x0 CODECOPY PUSH1 0x0 RETURN INVALID PUSH1 0x80 PUSH1 0x40 MSTORE CALLVALUE DUP1 ISZERO PUSH2 0x10 JUMPI PUSH1 0x0 DUP1 REVERT JUMPDEST POP PUSH1 0x4 CALLDATASIZE LT PUSH2 0x21C JUMPI PUSH1 0x0 CALLDATALOAD PUSH1 0xE0 SHR DUP1 PUSH4 0xA54C83F6 GT PUSH2 0x125 JUMPI DUP1 PUSH4 0xCCD34CD5 GT PUSH2 0xAD JUMPI DUP1 PUSH4 0xE7272866 GT PUSH2 0x7C JUMPI DUP1 PUSH4 0xE7272866 EQ PUSH2 0x5C6 JUMPI DUP1 PUSH4 0xE76BA191 EQ PUSH2 0x5D9 JUMPI DUP1 PUSH4 0xE7C928B1 EQ PUSH2 0x5EC JUMPI DUP1 PUSH4 0xF2FDE38B EQ PUSH2 0x5FF JUMPI DUP1 PUSH4 0xF8CE1F31 EQ PUSH2 0x612 JUMPI PUSH1 0x0 DUP1 REVERT JUMPDEST DUP1 PUSH4 0xCCD34CD5 EQ PUSH2 0x533 JUMPI DUP1 PUSH4 0xCF5BADC6 EQ PUSH2 0x542 JUMPI DUP1 PUSH4 0xD6D68177 EQ PUSH2 0x555 JUMPI DUP1 PUSH4 0xE179B5C3 EQ PUSH2 0x5BE JUMPI PUSH1 0x0 DUP1 REVERT JUMPDEST DUP1 PUSH4 0xB0203A80 GT PUSH2 0xF4 JUMPI DUP1 PUSH4 0xB0203A80 EQ PUSH2 0x49C JUMPI DUP1 PUSH4 0xB187BD26 EQ PUSH2 0x4A4 JUMPI DUP1 PUSH4 0xBA41795F EQ PUSH2 0x4C1 JUMPI DUP1 PUSH4 0xC3D2C3C1 EQ PUSH2 0x4D4 JUMPI DUP1 PUSH4 0xC4B91C4D EQ PUSH2 0x4F7 JUMPI PUSH1 0x0 DUP1 REVERT JUMPDEST DUP1 PUSH4 0xA54C83F6 EQ PUSH2 0x41D JUMPI DUP1 PUSH4 0xA638F2E2 EQ PUSH2 0x430 JUMPI DUP1 PUSH4 0xAC4AFA38 EQ PUSH2 0x443 JUMPI DUP1 PUSH4 0xAD5C4648 EQ PUSH2 0x489 JUMPI PUSH1 0x0 DUP1 REVERT JUMPDEST DUP1 PUSH4 0x750142E6 GT PUSH2 0x1A8 JUMPI DUP1 PUSH4 0x911EF508 GT PUSH2 0x177 JUMPI DUP1 PUSH4 0x911EF508 EQ PUSH2 0x316 JUMPI DUP1 PUSH4 0x94F649DD EQ PUSH2 0x31F JUMPI DUP1 PUSH4 0x9AAAB954 EQ PUSH2 0x33F JUMPI DUP1 PUSH4 0xA2234080 EQ PUSH2 0x3DF JUMPI DUP1 PUSH4 0xA32A66A7 EQ PUSH2 0x3F2 JUMPI PUSH1 0x0 DUP1 REVERT JUMPDEST DUP1 PUSH4 0x750142E6 EQ PUSH2 0x2E1 JUMPI DUP1 PUSH4 0x82A14459 EQ PUSH2 0x2E9 JUMPI DUP1 PUSH4 0x88F67D77 EQ PUSH2 0x2F2 JUMPI DUP1 PUSH4 0x8DA5CB5B EQ PUSH2 0x305 JUMPI PUSH1 0x0 DUP1 REVERT JUMPDEST DUP1 PUSH4 0x24A723D4 GT PUSH2 0x1EF JUMPI DUP1 PUSH4 0x24A723D4 EQ PUSH2 0x2A3 JUMPI DUP1 PUSH4 0x2C86714C EQ PUSH2 0x2B6 JUMPI DUP1 PUSH4 0x33CFCD3B EQ PUSH2 0x2BE JUMPI DUP1 PUSH4 0x715018A6 EQ PUSH2 0x2D1 JUMPI DUP1 PUSH4 0x73F64499 EQ PUSH2 0x2D9 JUMPI PUSH1 0x0 DUP1 REVERT JUMPDEST DUP1 PUSH4 0x81E3EDA EQ PUSH2 0x221 JUMPI DUP1 PUSH4 0xC756997 EQ PUSH2 0x238 JUMPI DUP1 PUSH4 0x110D458E EQ PUSH2 0x24D JUMPI DUP1 PUSH4 0x1EE7F3C4 EQ PUSH2 0x278 JUMPI JUMPDEST PUSH1 0x0 DUP1 REVERT JUMPDEST PUSH1 0xA1 SLOAD JUMPDEST PUSH1 0x40 MLOAD SWAP1 DUP2 MSTORE PUSH1 0x20 ADD JUMPDEST PUSH1 0x40 MLOAD DUP1 SWAP2 SUB SWAP1 RETURN JUMPDEST PUSH2 0x24B PUSH2 0x246 CALLDATASIZE PUSH1 0x4 PUSH2 0x2FDA JUMP JUMPDEST PUSH2 0x625 JUMP JUMPDEST STOP JUMPDEST PUSH1 0x99 SLOAD PUSH2 0x260 SWAP1 PUSH1 0x1 PUSH1 0x1 PUSH1 0xA0 SHL SUB AND DUP2 JUMP JUMPDEST PUSH1 0x40 MLOAD PUSH1 0x1 PUSH1 0x1 PUSH1 0xA0 SHL SUB SWAP1 SWAP2 AND DUP2 MSTORE PUSH1 0x20 ADD PUSH2 0x22F JUMP JUMPDEST PUSH2 0x225 PUSH2 0x286 CALLDATASIZE PUSH1 0x4 PUSH2 0x3021 JUMP JUMPDEST PUSH1 0x0 SWAP2 DUP3 MSTORE PUSH1 0x9C PUSH1 0x20 SWAP1 DUP2 MSTORE PUSH1 0x40 DUP1 DUP5 KECCAK256 SWAP3 DUP5 MSTORE SWAP2 SWAP1 MSTORE SWAP1 KECCAK256 SLOAD SWAP1 JUMP JUMPDEST PUSH2 0x225 PUSH2 0x2B1 CALLDATASIZE PUSH1 0x4 PUSH2 0x3058 JUMP JUMPDEST PUSH2 0x703 JUMP JUMPDEST PUSH2 0x24B PUSH2 0x8CD JUMP JUMPDEST PUSH2 0x24B PUSH2 0x2CC CALLDATASIZE PUSH1 0x4 PUSH2 0x3092 JUMP JUMPDEST PUSH2 0xA41 JUMP JUMPDEST PUSH2 0x24B PUSH2 0xFF5 JUMP JUMPDEST PUSH2 0x24B PUSH2 0x102B JUMP JUMPDEST PUSH2 0x225 PUSH2 0x10AC JUMP JUMPDEST PUSH2 0x225 PUSH1 0xA6 SLOAD DUP2 JUMP JUMPDEST PUSH2 0x24B PUSH2 0x300 CALLDATASIZE PUSH1 0x4 PUSH2 0x30CB JUMP JUMPDEST PUSH2 0x112F JUMP JUMPDEST PUSH1 0x65 SLOAD PUSH1 0x1 PUSH1 0x1 PUSH1 0xA0 SHL SUB AND PUSH2 0x260 JUMP JUMPDEST PUSH2 0x225 PUSH1 0xA5 SLOAD DUP2 JUMP JUMPDEST PUSH2 0x332 PUSH2 0x32D CALLDATASIZE PUSH1 0x4 PUSH2 0x312D JUMP JUMPDEST PUSH2 0x13C7 JUMP JUMPDEST PUSH1 0x40 MLOAD PUSH2 0x22F SWAP2 SWAP1 PUSH2 0x314A JUMP JUMPDEST PUSH2 0x39B PUSH2 0x34D CALLDATASIZE PUSH1 0x4 PUSH2 0x31E2 JUMP JUMPDEST PUSH1 0xA0 PUSH1 0x20 MSTORE DUP1 PUSH1 0x0 MSTORE PUSH1 0x40 PUSH1 0x0 KECCAK256 PUSH1 0x0 SWAP2 POP SWAP1 POP DUP1 PUSH1 0x0 ADD SLOAD SWAP1 DUP1 PUSH1 0x1 ADD SLOAD SWAP1 DUP1 PUSH1 0x2 ADD SLOAD SWAP1 DUP1 PUSH1 0x3 ADD SLOAD SWAP1 DUP1 PUSH1 0x4 ADD SLOAD SWAP1 DUP1 PUSH1 0x5 ADD SLOAD SWAP1 DUP1 PUSH1 0x6 ADD SLOAD SWAP1 DUP1 PUSH1 0x7 ADD SLOAD SWAP1 DUP1 PUSH1 0x8 ADD SLOAD SWAP1 POP DUP10 JUMP JUMPDEST PUSH1 0x40 DUP1 MLOAD SWAP10 DUP11 MSTORE PUSH1 0x20 DUP11 ADD SWAP9 SWAP1 SWAP9 MSTORE SWAP7 DUP9 ADD SWAP6 SWAP1 SWAP6 MSTORE PUSH1 0x60 DUP8 ADD SWAP4 SWAP1 SWAP4 MSTORE PUSH1 0x80 DUP7 ADD SWAP2 SWAP1 SWAP2 MSTORE PUSH1 0xA0 DUP6 ADD MSTORE PUSH1 0xC0 DUP5 ADD MSTORE PUSH1 0xE0 DUP4 ADD MSTORE PUSH2 0x100 DUP3 ADD MSTORE PUSH2 0x120 ADD PUSH2 0x22F JUMP JUMPDEST PUSH2 0x24B PUSH2 0x3ED CALLDATASIZE PUSH1 0x4 PUSH2 0x312D JUMP JUMPDEST PUSH2 0x15A0 JUMP JUMPDEST PUSH2 0x225 PUSH2 0x400 CALLDATASIZE PUSH1 0x4 PUSH2 0x3021 JUMP JUMPDEST PUSH1 0x9C PUSH1 0x20 SWAP1 DUP2 MSTORE PUSH1 0x0 SWAP3 DUP4 MSTORE PUSH1 0x40 DUP1 DUP5 KECCAK256 SWAP1 SWAP2 MSTORE SWAP1 DUP3 MSTORE SWAP1 KECCAK256 SLOAD DUP2 JUMP JUMPDEST PUSH2 0x24B PUSH2 0x42B CALLDATASIZE PUSH1 0x4 PUSH2 0x3021 JUMP JUMPDEST PUSH2 0x15EC JUMP JUMPDEST PUSH2 0x225 PUSH2 0x43E CALLDATASIZE PUSH1 0x4 PUSH2 0x31FB JUMP JUMPDEST PUSH2 0x17C0 JUMP JUMPDEST PUSH2 0x456 PUSH2 0x451 CALLDATASIZE PUSH1 0x4 PUSH2 0x31E2 JUMP JUMPDEST PUSH2 0x1F84 JUMP JUMPDEST PUSH1 0x40 DUP1 MLOAD PUSH1 0x1 PUSH1 0x1 PUSH1 0xA0 SHL SUB SWAP7 DUP8 AND DUP2 MSTORE SWAP6 SWAP1 SWAP5 AND PUSH1 0x20 DUP7 ADD MSTORE SWAP3 DUP5 ADD SWAP2 SWAP1 SWAP2 MSTORE PUSH1 0x60 DUP4 ADD MSTORE PUSH1 0x80 DUP3 ADD MSTORE PUSH1 0xA0 ADD PUSH2 0x22F JUMP JUMPDEST PUSH1 0x9A SLOAD PUSH2 0x260 SWAP1 PUSH1 0x1 PUSH1 0x1 PUSH1 0xA0 SHL SUB AND DUP2 JUMP JUMPDEST PUSH2 0x225 PUSH2 0x1FD1 JUMP JUMPDEST PUSH1 0xA4 SLOAD PUSH2 0x4B1 SWAP1 PUSH1 0xFF AND DUP2 JUMP JUMPDEST PUSH1 0x40 MLOAD SWAP1 ISZERO ISZERO DUP2 MSTORE PUSH1 0x20 ADD PUSH2 0x22F JUMP JUMPDEST PUSH2 0x225 PUSH2 0x4CF CALLDATASIZE PUSH1 0x4 PUSH2 0x3227 JUMP JUMPDEST PUSH2 0x2043 JUMP JUMPDEST PUSH2 0x4B1 PUSH2 0x4E2 CALLDATASIZE PUSH1 0x4 PUSH2 0x312D JUMP JUMPDEST PUSH1 0x9D PUSH1 0x20 MSTORE PUSH1 0x0 SWAP1 DUP2 MSTORE PUSH1 0x40 SWAP1 KECCAK256 SLOAD PUSH1 0xFF AND DUP2 JUMP JUMPDEST PUSH2 0x51E PUSH2 0x505 CALLDATASIZE PUSH1 0x4 PUSH2 0x31E2 JUMP JUMPDEST PUSH1 0xA2 PUSH1 0x20 MSTORE PUSH1 0x0 SWAP1 DUP2 MSTORE PUSH1 0x40 SWAP1 KECCAK256 DUP1 SLOAD PUSH1 0x1 SWAP1 SWAP2 ADD SLOAD DUP3 JUMP JUMPDEST PUSH1 0x40 DUP1 MLOAD SWAP3 DUP4 MSTORE PUSH1 0x20 DUP4 ADD SWAP2 SWAP1 SWAP2 MSTORE ADD PUSH2 0x22F JUMP JUMPDEST PUSH2 0x225 PUSH8 0xDE0B6B3A7640000 DUP2 JUMP JUMPDEST PUSH2 0x4B1 PUSH2 0x550 CALLDATASIZE PUSH1 0x4 PUSH2 0x31E2 JUMP JUMPDEST PUSH2 0x20EA JUMP JUMPDEST PUSH2 0x39B PUSH2 0x563 CALLDATASIZE PUSH1 0x4 PUSH2 0x3058 JUMP JUMPDEST PUSH1 0x9E PUSH1 0x20 MSTORE DUP2 PUSH1 0x0 MSTORE PUSH1 0x40 PUSH1 0x0 KECCAK256 PUSH1 0x20 MSTORE DUP1 PUSH1 0x0 MSTORE PUSH1 0x40 PUSH1 0x0 KECCAK256 PUSH1 0x0 SWAP2 POP SWAP2 POP POP DUP1 PUSH1 0x0 ADD SLOAD SWAP1 DUP1 PUSH1 0x1 ADD SLOAD SWAP1 DUP1 PUSH1 0x2 ADD SLOAD SWAP1 DUP1 PUSH1 0x3 ADD SLOAD SWAP1 DUP1 PUSH1 0x4 ADD SLOAD SWAP1 DUP1 PUSH1 0x5 ADD SLOAD SWAP1 DUP1 PUSH1 0x6 ADD SLOAD SWAP1 DUP1 PUSH1 0x7 ADD SLOAD SWAP1 DUP1 PUSH1 0x8 ADD SLOAD SWAP1 POP DUP10 JUMP JUMPDEST PUSH2 0x24B PUSH2 0x2122 JUMP JUMPDEST PUSH2 0x24B PUSH2 0x5D4 CALLDATASIZE PUSH1 0x4 PUSH2 0x325E JUMP JUMPDEST PUSH2 0x21A4 JUMP JUMPDEST PUSH2 0x225 PUSH2 0x5E7 CALLDATASIZE PUSH1 0x4 PUSH2 0x3058 JUMP JUMPDEST PUSH2 0x226B JUMP JUMPDEST PUSH2 0x24B PUSH2 0x5FA CALLDATASIZE PUSH1 0x4 PUSH2 0x31E2 JUMP JUMPDEST PUSH2 0x229C JUMP JUMPDEST PUSH2 0x24B PUSH2 0x60D CALLDATASIZE PUSH1 0x4 PUSH2 0x312D JUMP JUMPDEST PUSH2 0x253A JUMP JUMPDEST PUSH2 0x24B PUSH2 0x620 CALLDATASIZE PUSH1 0x4 PUSH2 0x3021 JUMP JUMPDEST PUSH2 0x25D5 JUMP JUMPDEST PUSH1 0x65 SLOAD PUSH1 0x1 PUSH1 0x1 PUSH1 0xA0 SHL SUB AND CALLER EQ PUSH2 0x658 JUMPI PUSH1 0x40 MLOAD PUSH3 0x461BCD PUSH1 0xE5 SHL DUP2 MSTORE PUSH1 0x4 ADD PUSH2 0x64F SWAP1 PUSH2 0x3304 JUMP JUMPDEST PUSH1 0x40 MLOAD DUP1 SWAP2 SUB SWAP1 REVERT JUMPDEST PUSH1 0xA1 SLOAD DUP3 SWAP1 DUP2 LT PUSH2 0x67B JUMPI PUSH1 0x40 MLOAD PUSH3 0x461BCD PUSH1 0xE5 SHL DUP2 MSTORE PUSH1 0x4 ADD PUSH2 0x64F SWAP1 PUSH2 0x3339 JUMP JUMPDEST PUSH1 0x0 JUMPDEST DUP3 MLOAD DUP2 LT ISZERO PUSH2 0x6FD JUMPI DUP3 DUP2 DUP2 MLOAD DUP2 LT PUSH2 0x699 JUMPI PUSH2 0x699 PUSH2 0x3370 JUMP JUMPDEST PUSH1 0x20 MUL PUSH1 0x20 ADD ADD MLOAD PUSH1 0x20 ADD MLOAD PUSH1 0x9C PUSH1 0x0 DUP7 DUP2 MSTORE PUSH1 0x20 ADD SWAP1 DUP2 MSTORE PUSH1 0x20 ADD PUSH1 0x0 KECCAK256 PUSH1 0x0 DUP6 DUP5 DUP2 MLOAD DUP2 LT PUSH2 0x6CC JUMPI PUSH2 0x6CC PUSH2 0x3370 JUMP JUMPDEST PUSH1 0x20 MUL PUSH1 0x20 ADD ADD MLOAD PUSH1 0x0 ADD MLOAD DUP2 MSTORE PUSH1 0x20 ADD SWAP1 DUP2 MSTORE PUSH1 0x20 ADD PUSH1 0x0 KECCAK256 DUP2 SWAP1 SSTORE POP DUP1 DUP1 PUSH2 0x6F5 SWAP1 PUSH2 0x339C JUMP JUMPDEST SWAP2 POP POP PUSH2 0x67E JUMP JUMPDEST POP POP POP POP JUMP JUMPDEST PUSH1 0x1 PUSH1 0x1 PUSH1 0xA0 SHL SUB DUP3 AND PUSH1 0x0 SWAP1 DUP2 MSTORE PUSH1 0x9E PUSH1 0x20 SWAP1 DUP2 MSTORE PUSH1 0x40 DUP1 DUP4 KECCAK256 DUP5 DUP5 MSTORE DUP3 MSTORE DUP1 DUP4 KECCAK256 DUP2 MLOAD PUSH2 0x120 DUP2 ADD DUP4 MSTORE DUP2 SLOAD DUP2 MSTORE PUSH1 0x1 DUP3 ADD SLOAD DUP2 DUP6 ADD MSTORE PUSH1 0x2 DUP3 ADD SLOAD SWAP3 DUP2 ADD SWAP3 SWAP1 SWAP3 MSTORE PUSH1 0x3 DUP2 ADD SLOAD PUSH1 0x60 DUP4 ADD MSTORE PUSH1 0x4 DUP2 ADD SLOAD PUSH1 0x80 DUP4 ADD MSTORE PUSH1 0x5 DUP2 ADD SLOAD PUSH1 0xA0 DUP4 ADD MSTORE PUSH1 0x6 DUP2 ADD SLOAD PUSH1 0xC0 DUP4 ADD MSTORE PUSH1 0x7 DUP2 ADD SLOAD PUSH1 0xE0 DUP4 ADD DUP2 SWAP1 MSTORE PUSH1 0x8 SWAP1 SWAP2 ADD SLOAD PUSH2 0x100 DUP4 ADD MSTORE DUP1 DUP5 MSTORE PUSH1 0xA2 SWAP1 SWAP3 MSTORE SWAP1 PUSH1 0x0 DUP2 PUSH1 0x0 SUB PUSH2 0x7F4 JUMPI PUSH1 0x1 PUSH1 0x1E PUSH1 0x18 PUSH1 0x3C DUP1 PUSH1 0xA2 PUSH1 0x0 DUP9 DUP2 MSTORE PUSH1 0x20 ADD SWAP1 DUP2 MSTORE PUSH1 0x20 ADD PUSH1 0x0 KECCAK256 PUSH1 0x1 ADD SLOAD PUSH2 0x7C5 SWAP2 SWAP1 PUSH2 0x33B5 JUMP JUMPDEST PUSH2 0x7CF SWAP2 SWAP1 PUSH2 0x33B5 JUMP JUMPDEST PUSH2 0x7D9 SWAP2 SWAP1 PUSH2 0x33B5 JUMP JUMPDEST PUSH2 0x7E3 SWAP2 SWAP1 PUSH2 0x33B5 JUMP JUMPDEST PUSH2 0x7ED SWAP2 SWAP1 PUSH2 0x33B5 JUMP JUMPDEST SWAP1 POP PUSH2 0x848 JUMP JUMPDEST DUP2 PUSH1 0x1E PUSH1 0x18 PUSH1 0x3C DUP1 PUSH1 0xA2 PUSH1 0x0 DUP9 DUP2 MSTORE PUSH1 0x20 ADD SWAP1 DUP2 MSTORE PUSH1 0x20 ADD PUSH1 0x0 KECCAK256 PUSH1 0x1 ADD SLOAD PUSH2 0x81D SWAP2 SWAP1 PUSH2 0x33B5 JUMP JUMPDEST PUSH2 0x827 SWAP2 SWAP1 PUSH2 0x33B5 JUMP JUMPDEST PUSH2 0x831 SWAP2 SWAP1 PUSH2 0x33B5 JUMP JUMPDEST PUSH2 0x83B SWAP2 SWAP1 PUSH2 0x33B5 JUMP JUMPDEST PUSH2 0x845 SWAP2 SWAP1 PUSH2 0x33B5 JUMP JUMPDEST SWAP1 POP JUMPDEST PUSH1 0x0 DUP2 DUP5 PUSH1 0xA0 ADD MLOAD TIMESTAMP PUSH2 0x85B SWAP2 SWAP1 PUSH2 0x33D7 JUMP JUMPDEST PUSH2 0x865 SWAP2 SWAP1 PUSH2 0x33EE JUMP JUMPDEST SWAP1 POP PUSH1 0x0 DUP2 PUSH1 0xA2 PUSH1 0x0 DUP7 DUP2 MSTORE PUSH1 0x20 ADD SWAP1 DUP2 MSTORE PUSH1 0x20 ADD PUSH1 0x0 KECCAK256 PUSH1 0x0 ADD SLOAD PUSH8 0xDE0B6B3A7640000 DUP8 PUSH1 0x20 ADD MLOAD PUSH2 0x899 SWAP2 SWAP1 PUSH2 0x33EE JUMP JUMPDEST PUSH2 0x8A3 SWAP2 SWAP1 PUSH2 0x33B5 JUMP JUMPDEST PUSH2 0x8AD SWAP2 SWAP1 PUSH2 0x33EE JUMP JUMPDEST SWAP1 POP PUSH2 0x8C1 PUSH8 0xDE0B6B3A7640000 DUP3 PUSH2 0x33B5 JUMP JUMPDEST SWAP9 SWAP8 POP POP POP POP POP POP POP POP JUMP JUMPDEST PUSH1 0x65 SLOAD PUSH1 0x1 PUSH1 0x1 PUSH1 0xA0 SHL SUB AND CALLER EQ PUSH2 0x8F7 JUMPI PUSH1 0x40 MLOAD PUSH3 0x461BCD PUSH1 0xE5 SHL DUP2 MSTORE PUSH1 0x4 ADD PUSH2 0x64F SWAP1 PUSH2 0x3304 JUMP JUMPDEST PUSH1 0x2 PUSH1 0x1 SLOAD SUB PUSH2 0x919 JUMPI PUSH1 0x40 MLOAD PUSH3 0x461BCD PUSH1 0xE5 SHL DUP2 MSTORE PUSH1 0x4 ADD PUSH2 0x64F SWAP1 PUSH2 0x340D JUMP JUMPDEST PUSH1 0x2 PUSH1 0x1 SSTORE PUSH1 0x9A SLOAD PUSH1 0x40 MLOAD PUSH4 0x70A08231 PUSH1 0xE0 SHL DUP2 MSTORE ADDRESS PUSH1 0x4 DUP3 ADD MSTORE PUSH1 0x0 SWAP2 PUSH1 0x1 PUSH1 0x1 PUSH1 0xA0 SHL SUB AND SWAP1 PUSH4 0x70A08231 SWAP1 PUSH1 0x24 ADD PUSH1 0x20 PUSH1 0x40 MLOAD DUP1 DUP4 SUB DUP2 DUP7 GAS STATICCALL ISZERO DUP1 ISZERO PUSH2 0x967 JUMPI RETURNDATASIZE PUSH1 0x0 DUP1 RETURNDATACOPY RETURNDATASIZE PUSH1 0x0 REVERT JUMPDEST POP POP POP POP PUSH1 0x40 MLOAD RETURNDATASIZE PUSH1 0x1F NOT PUSH1 0x1F DUP3 ADD AND DUP3 ADD DUP1 PUSH1 0x40 MSTORE POP DUP2 ADD SWAP1 PUSH2 0x98B SWAP2 SWAP1 PUSH2 0x3444 JUMP JUMPDEST PUSH1 0x9A SLOAD PUSH1 0x40 MLOAD PUSH4 0x23B872DD PUSH1 0xE0 SHL DUP2 MSTORE SWAP2 SWAP3 POP PUSH1 0x1 PUSH1 0x1 PUSH1 0xA0 SHL SUB AND SWAP1 PUSH4 0x23B872DD SWAP1 PUSH2 0x9C0 SWAP1 ADDRESS SWAP1 CALLER SWAP1 DUP7 SWAP1 PUSH1 0x4 ADD PUSH2 0x345D JUMP JUMPDEST PUSH1 0x20 PUSH1 0x40 MLOAD DUP1 DUP4 SUB DUP2 PUSH1 0x0 DUP8 GAS CALL ISZERO DUP1 ISZERO PUSH2 0x9DF JUMPI RETURNDATASIZE PUSH1 0x0 DUP1 RETURNDATACOPY RETURNDATASIZE PUSH1 0x0 REVERT JUMPDEST POP POP POP POP PUSH1 0x40 MLOAD RETURNDATASIZE PUSH1 0x1F NOT PUSH1 0x1F DUP3 ADD AND DUP3 ADD DUP1 PUSH1 0x40 MSTORE POP DUP2 ADD SWAP1 PUSH2 0xA03 SWAP2 SWAP1 PUSH2 0x3481 JUMP JUMPDEST POP PUSH1 0x40 MLOAD DUP2 DUP2 MSTORE CALLER SWAP1 PUSH32 0x34042597700906FD41B7EAD5497C3BF88EF36150597DDD9193327A09F0604F66 SWAP1 PUSH1 0x20 ADD JUMPDEST PUSH1 0x40 MLOAD DUP1 SWAP2 SUB SWAP1 LOG2 POP PUSH1 0x1 DUP1 SSTORE JUMP JUMPDEST PUSH1 0x2 PUSH1 0x1 SLOAD SUB PUSH2 0xA63 JUMPI PUSH1 0x40 MLOAD PUSH3 0x461BCD PUSH1 0xE5 SHL DUP2 MSTORE PUSH1 0x4 ADD PUSH2 0x64F SWAP1 PUSH2 0x340D JUMP JUMPDEST PUSH1 0x2 PUSH1 0x1 SSTORE PUSH1 0xA4 SLOAD PUSH1 0xFF AND ISZERO PUSH2 0xAAE JUMPI PUSH1 0x40 MLOAD PUSH3 0x461BCD PUSH1 0xE5 SHL DUP2 MSTORE PUSH1 0x20 PUSH1 0x4 DUP3 ADD MSTORE PUSH1 0x10 PUSH1 0x24 DUP3 ADD MSTORE PUSH16 0x636F6E74726163742070617573656421 PUSH1 0x80 SHL PUSH1 0x44 DUP3 ADD MSTORE PUSH1 0x64 ADD PUSH2 0x64F JUMP JUMPDEST PUSH1 0xA1 SLOAD DUP4 SWAP1 DUP2 LT PUSH2 0xAD1 JUMPI PUSH1 0x40 MLOAD PUSH3 0x461BCD PUSH1 0xE5 SHL DUP2 MSTORE PUSH1 0x4 ADD PUSH2 0x64F SWAP1 PUSH2 0x3339 JUMP JUMPDEST CALLER PUSH1 0x0 SWAP1 DUP2 MSTORE PUSH1 0x9E PUSH1 0x20 SWAP1 DUP2 MSTORE PUSH1 0x40 DUP1 DUP4 KECCAK256 DUP7 DUP5 MSTORE DUP3 MSTORE DUP1 DUP4 KECCAK256 DUP2 MLOAD PUSH2 0x120 DUP2 ADD DUP4 MSTORE DUP2 SLOAD DUP2 MSTORE PUSH1 0x1 DUP3 ADD SLOAD SWAP4 DUP2 ADD SWAP4 SWAP1 SWAP4 MSTORE PUSH1 0x2 DUP2 ADD SLOAD SWAP2 DUP4 ADD SWAP2 SWAP1 SWAP2 MSTORE PUSH1 0x3 DUP2 ADD SLOAD PUSH1 0x60 DUP4 ADD MSTORE PUSH1 0x4 DUP2 ADD SLOAD PUSH1 0x80 DUP4 ADD MSTORE PUSH1 0x5 DUP2 ADD SLOAD PUSH1 0xA0 DUP4 ADD MSTORE PUSH1 0x6 DUP2 ADD SLOAD PUSH1 0xC0 DUP4 ADD MSTORE PUSH1 0x7 DUP2 ADD SLOAD PUSH1 0xE0 DUP4 ADD MSTORE PUSH1 0x8 ADD SLOAD PUSH2 0x100 DUP3 ADD MSTORE SWAP1 DUP4 PUSH2 0xB5E JUMPI DUP2 PUSH1 0x80 ADD MLOAD TIMESTAMP GT PUSH2 0xB61 JUMP JUMPDEST PUSH1 0x1 JUMPDEST SWAP1 POP PUSH1 0x0 DUP3 PUSH1 0x20 ADD MLOAD GT PUSH2 0xBB7 JUMPI PUSH1 0x40 MLOAD PUSH3 0x461BCD PUSH1 0xE5 SHL DUP2 MSTORE PUSH1 0x20 PUSH1 0x4 DUP3 ADD MSTORE PUSH1 0x18 PUSH1 0x24 DUP3 ADD MSTORE PUSH32 0x436C61696D203A204E6F7468696E6720746F20636C61696D0000000000000000 PUSH1 0x44 DUP3 ADD MSTORE PUSH1 0x64 ADD PUSH2 0x64F JUMP JUMPDEST DUP1 PUSH2 0xC1F JUMPI PUSH1 0x40 MLOAD PUSH3 0x461BCD PUSH1 0xE5 SHL DUP2 MSTORE PUSH1 0x20 PUSH1 0x4 DUP3 ADD MSTORE PUSH1 0x32 PUSH1 0x24 DUP3 ADD MSTORE PUSH32 0x436C61696D203A2063616E6E6F74207769746864726177206265666F72652076 PUSH1 0x44 DUP3 ADD MSTORE PUSH18 0x657374696E6720706572696F6420656E6473 PUSH1 0x70 SHL PUSH1 0x64 DUP3 ADD MSTORE PUSH1 0x84 ADD PUSH2 0x64F JUMP JUMPDEST PUSH1 0x0 PUSH2 0xC2C CALLER DUP8 DUP8 PUSH2 0x27B5 JUMP JUMPDEST SWAP1 POP PUSH1 0x0 DUP2 DUP5 PUSH1 0x40 ADD MLOAD PUSH2 0xC40 SWAP2 SWAP1 PUSH2 0x349E JUMP JUMPDEST SWAP1 POP PUSH1 0x0 DUP5 PUSH1 0x20 ADD MLOAD SWAP1 POP DUP2 PUSH1 0xA1 DUP7 PUSH1 0xC0 ADD MLOAD DUP2 SLOAD DUP2 LT PUSH2 0xC63 JUMPI PUSH2 0xC63 PUSH2 0x3370 JUMP JUMPDEST SWAP1 PUSH1 0x0 MSTORE PUSH1 0x20 PUSH1 0x0 KECCAK256 SWAP1 PUSH1 0x5 MUL ADD PUSH1 0x3 ADD SLOAD GT PUSH2 0xCE0 JUMPI PUSH1 0x40 MLOAD PUSH3 0x461BCD PUSH1 0xE5 SHL DUP2 MSTORE PUSH1 0x20 PUSH1 0x4 DUP3 ADD MSTORE PUSH1 0x35 PUSH1 0x24 DUP3 ADD MSTORE PUSH32 0x5374616B696E673A20496E73756666696369656E742072657761726420616C6C PUSH1 0x44 DUP3 ADD MSTORE PUSH21 0x37BBB0B731B290333937B6903A34329020B236B4B7 PUSH1 0x59 SHL PUSH1 0x64 DUP3 ADD MSTORE PUSH1 0x84 ADD PUSH2 0x64F JUMP JUMPDEST PUSH1 0x0 PUSH1 0xA1 DUP7 PUSH1 0xC0 ADD MLOAD DUP2 SLOAD DUP2 LT PUSH2 0xCF9 JUMPI PUSH2 0xCF9 PUSH2 0x3370 JUMP JUMPDEST PUSH1 0x0 SWAP2 DUP3 MSTORE PUSH1 0x20 SWAP1 SWAP2 KECCAK256 PUSH1 0x5 SWAP1 SWAP2 MUL ADD PUSH1 0x1 ADD SLOAD PUSH1 0x40 MLOAD PUSH4 0xA9059CBB PUSH1 0xE0 SHL DUP2 MSTORE CALLER PUSH1 0x4 DUP3 ADD MSTORE PUSH1 0x24 DUP2 ADD DUP6 SWAP1 MSTORE PUSH1 0x1 PUSH1 0x1 PUSH1 0xA0 SHL SUB SWAP1 SWAP2 AND SWAP2 POP DUP2 SWAP1 PUSH4 0xA9059CBB SWAP1 PUSH1 0x44 ADD PUSH1 0x20 PUSH1 0x40 MLOAD DUP1 DUP4 SUB DUP2 PUSH1 0x0 DUP8 GAS CALL ISZERO DUP1 ISZERO PUSH2 0xD5E JUMPI RETURNDATASIZE PUSH1 0x0 DUP1 RETURNDATACOPY RETURNDATASIZE PUSH1 0x0 REVERT JUMPDEST POP POP POP POP PUSH1 0x40 MLOAD RETURNDATASIZE PUSH1 0x1F NOT PUSH1 0x1F DUP3 ADD AND DUP3 ADD DUP1 PUSH1 0x40 MSTORE POP DUP2 ADD SWAP1 PUSH2 0xD82 SWAP2 SWAP1 PUSH2 0x3481 JUMP JUMPDEST POP PUSH1 0x0 PUSH1 0xA1 DUP8 PUSH1 0xC0 ADD MLOAD DUP2 SLOAD DUP2 LT PUSH2 0xD9C JUMPI PUSH2 0xD9C PUSH2 0x3370 JUMP JUMPDEST PUSH1 0x0 SWAP2 DUP3 MSTORE PUSH1 0x20 SWAP1 SWAP2 KECCAK256 PUSH1 0x5 SWAP1 SWAP2 MUL ADD SLOAD PUSH2 0x100 DUP9 ADD MLOAD PUSH1 0x40 MLOAD PUSH4 0x23B872DD PUSH1 0xE0 SHL DUP2 MSTORE PUSH1 0x1 PUSH1 0x1 PUSH1 0xA0 SHL SUB SWAP1 SWAP3 AND SWAP3 POP DUP3 SWAP2 PUSH4 0x23B872DD SWAP2 PUSH2 0xDE5 SWAP2 ADDRESS SWAP2 CALLER SWAP2 PUSH1 0x4 ADD PUSH2 0x345D JUMP JUMPDEST PUSH1 0x0 PUSH1 0x40 MLOAD DUP1 DUP4 SUB DUP2 PUSH1 0x0 DUP8 DUP1 EXTCODESIZE ISZERO DUP1 ISZERO PUSH2 0xDFF JUMPI PUSH1 0x0 DUP1 REVERT JUMPDEST POP GAS CALL ISZERO DUP1 ISZERO PUSH2 0xE13 JUMPI RETURNDATASIZE PUSH1 0x0 DUP1 RETURNDATACOPY RETURNDATASIZE PUSH1 0x0 REVERT JUMPDEST POP POP POP POP DUP9 ISZERO DUP1 ISZERO PUSH2 0xE3A JUMPI POP PUSH1 0xE0 DUP8 ADD MLOAD PUSH1 0x0 SWAP1 DUP2 MSTORE PUSH1 0xA2 PUSH1 0x20 MSTORE PUSH1 0x40 SWAP1 KECCAK256 PUSH1 0x1 ADD SLOAD ISZERO ISZERO JUMPDEST ISZERO PUSH2 0xE49 JUMPI PUSH2 0xE49 CALLER DUP12 PUSH2 0x297D JUMP JUMPDEST DUP4 PUSH1 0xA1 DUP9 PUSH1 0xC0 ADD MLOAD DUP2 SLOAD DUP2 LT PUSH2 0xE61 JUMPI PUSH2 0xE61 PUSH2 0x3370 JUMP JUMPDEST SWAP1 PUSH1 0x0 MSTORE PUSH1 0x20 PUSH1 0x0 KECCAK256 SWAP1 PUSH1 0x5 MUL ADD PUSH1 0x3 ADD PUSH1 0x0 DUP3 DUP3 SLOAD PUSH2 0xE81 SWAP2 SWAP1 PUSH2 0x33D7 JUMP JUMPDEST SWAP3 POP POP DUP2 SWAP1 SSTORE POP DUP4 PUSH1 0xA1 DUP9 PUSH1 0xC0 ADD MLOAD DUP2 SLOAD DUP2 LT PUSH2 0xEA0 JUMPI PUSH2 0xEA0 PUSH2 0x3370 JUMP JUMPDEST SWAP1 PUSH1 0x0 MSTORE PUSH1 0x20 PUSH1 0x0 KECCAK256 SWAP1 PUSH1 0x5 MUL ADD PUSH1 0x4 ADD PUSH1 0x0 DUP3 DUP3 SLOAD PUSH2 0xEC0 SWAP2 SWAP1 PUSH2 0x349E JUMP JUMPDEST SWAP3 POP POP DUP2 SWAP1 SSTORE POP DUP7 PUSH1 0x20 ADD MLOAD PUSH1 0xA1 DUP9 PUSH1 0xC0 ADD MLOAD DUP2 SLOAD DUP2 LT PUSH2 0xEE3 JUMPI PUSH2 0xEE3 PUSH2 0x3370 JUMP JUMPDEST SWAP1 PUSH1 0x0 MSTORE PUSH1 0x20 PUSH1 0x0 KECCAK256 SWAP1 PUSH1 0x5 MUL ADD PUSH1 0x2 ADD PUSH1 0x0 DUP3 DUP3 SLOAD PUSH2 0xF03 SWAP2 SWAP1 PUSH2 0x33D7 JUMP JUMPDEST SWAP1 SWAP2 SSTORE POP POP PUSH1 0xE0 DUP8 ADD MLOAD PUSH1 0x0 SWAP1 DUP2 MSTORE PUSH1 0xA2 PUSH1 0x20 MSTORE PUSH1 0x40 DUP2 KECCAK256 DUP1 SLOAD DUP6 SWAP3 SWAP1 PUSH2 0xF2B SWAP1 DUP5 SWAP1 PUSH2 0x33D7 JUMP JUMPDEST SWAP1 SWAP2 SSTORE POP POP CALLER PUSH1 0x0 SWAP1 DUP2 MSTORE PUSH1 0x9E PUSH1 0x20 SWAP1 DUP2 MSTORE PUSH1 0x40 DUP1 DUP4 KECCAK256 DUP14 DUP5 MSTORE SWAP1 SWAP2 MSTORE DUP2 KECCAK256 PUSH1 0x2 DUP2 ADD DUP3 SWAP1 SSTORE PUSH1 0x1 ADD SSTORE PUSH1 0xA4 SLOAD PUSH1 0xFF AND ISZERO PUSH2 0xF86 JUMPI PUSH1 0xA5 SLOAD CALLER PUSH1 0x0 SWAP1 DUP2 MSTORE PUSH1 0x9E PUSH1 0x20 SWAP1 DUP2 MSTORE PUSH1 0x40 DUP1 DUP4 KECCAK256 DUP15 DUP5 MSTORE SWAP1 SWAP2 MSTORE SWAP1 KECCAK256 PUSH1 0x5 ADD SSTORE PUSH2 0xFA8 JUMP JUMPDEST CALLER PUSH1 0x0 SWAP1 DUP2 MSTORE PUSH1 0x9E PUSH1 0x20 SWAP1 DUP2 MSTORE PUSH1 0x40 DUP1 DUP4 KECCAK256 DUP14 DUP5 MSTORE SWAP1 SWAP2 MSTORE SWAP1 KECCAK256 TIMESTAMP PUSH1 0x5 SWAP1 SWAP2 ADD SSTORE JUMPDEST PUSH1 0x40 DUP1 MLOAD DUP6 DUP2 MSTORE TIMESTAMP PUSH1 0x20 DUP3 ADD MSTORE DUP13 SWAP2 CALLER SWAP2 PUSH32 0x812BE816DB82C66CD18CA8457005CD84689642D8AC4D38599CC6AF444A2DC72A SWAP2 ADD PUSH1 0x40 MLOAD DUP1 SWAP2 SUB SWAP1 LOG3 POP POP PUSH1 0x1 DUP1 SSTORE POP POP POP POP POP POP POP POP POP JUMP JUMPDEST PUSH1 0x65 SLOAD PUSH1 0x1 PUSH1 0x1 PUSH1 0xA0 SHL SUB AND CALLER EQ PUSH2 0x101F JUMPI PUSH1 0x40 MLOAD PUSH3 0x461BCD PUSH1 0xE5 SHL DUP2 MSTORE PUSH1 0x4 ADD PUSH2 0x64F SWAP1 PUSH2 0x3304 JUMP JUMPDEST PUSH2 0x1029 PUSH1 0x0 PUSH2 0x2BEA JUMP JUMPDEST JUMP JUMPDEST PUSH1 0x65 SLOAD PUSH1 0x1 PUSH1 0x1 PUSH1 0xA0 SHL SUB AND CALLER EQ PUSH2 0x1055 JUMPI PUSH1 0x40 MLOAD PUSH3 0x461BCD PUSH1 0xE5 SHL DUP2 MSTORE PUSH1 0x4 ADD PUSH2 0x64F SWAP1 PUSH2 0x3304 JUMP JUMPDEST PUSH1 0xA4 SLOAD PUSH1 0xFF AND ISZERO PUSH2 0x1099 JUMPI PUSH1 0x40 MLOAD PUSH3 0x461BCD PUSH1 0xE5 SHL DUP2 MSTORE PUSH1 0x20 PUSH1 0x4 DUP3 ADD MSTORE PUSH1 0xE PUSH1 0x24 DUP3 ADD MSTORE PUSH14 0x105B1C9958591E4814185D5CD959 PUSH1 0x92 SHL PUSH1 0x44 DUP3 ADD MSTORE PUSH1 0x64 ADD PUSH2 0x64F JUMP JUMPDEST PUSH1 0xA4 DUP1 SLOAD PUSH1 0xFF NOT AND PUSH1 0x1 OR SWAP1 SSTORE TIMESTAMP PUSH1 0xA5 SSTORE JUMP JUMPDEST PUSH1 0x0 DUP1 PUSH1 0x1 JUMPDEST PUSH1 0x97 SLOAD DUP2 GT PUSH2 0x1129 JUMPI PUSH1 0x0 DUP2 DUP2 MSTORE PUSH1 0xA0 PUSH1 0x20 MSTORE PUSH1 0x40 SWAP1 KECCAK256 PUSH1 0x1 ADD SLOAD ISZERO PUSH2 0x1117 JUMPI PUSH1 0x0 DUP2 DUP2 MSTORE PUSH1 0xA0 PUSH1 0x20 MSTORE PUSH1 0x40 SWAP1 KECCAK256 PUSH1 0x2 ADD SLOAD PUSH2 0x10EE SWAP1 DUP4 PUSH2 0x349E JUMP JUMPDEST PUSH1 0x0 DUP3 DUP2 MSTORE PUSH1 0xA0 PUSH1 0x20 MSTORE PUSH1 0x40 DUP2 KECCAK256 SLOAD SWAP2 SWAP4 POP PUSH2 0x110A SWAP2 DUP2 PUSH2 0x27B5 JUMP JUMPDEST PUSH2 0x1114 SWAP1 DUP4 PUSH2 0x349E JUMP JUMPDEST SWAP2 POP JUMPDEST DUP1 PUSH2 0x1121 DUP2 PUSH2 0x339C JUMP JUMPDEST SWAP2 POP POP PUSH2 0x10B2 JUMP JUMPDEST POP SWAP2 SWAP1 POP JUMP JUMPDEST PUSH1 0x65 SLOAD PUSH1 0x1 PUSH1 0x1 PUSH1 0xA0 SHL SUB AND CALLER EQ PUSH2 0x1159 JUMPI PUSH1 0x40 MLOAD PUSH3 0x461BCD PUSH1 0xE5 SHL DUP2 MSTORE PUSH1 0x4 ADD PUSH2 0x64F SWAP1 PUSH2 0x3304 JUMP JUMPDEST PUSH1 0x1 PUSH1 0x1 PUSH1 0xA0 SHL SUB DUP4 AND PUSH1 0x0 SWAP1 DUP2 MSTORE PUSH1 0x9D PUSH1 0x20 MSTORE PUSH1 0x40 SWAP1 KECCAK256 SLOAD DUP4 SWAP1 PUSH1 0xFF AND ISZERO PUSH2 0x11C4 JUMPI PUSH1 0x40 MLOAD PUSH3 0x461BCD PUSH1 0xE5 SHL DUP2 MSTORE PUSH1 0x20 PUSH1 0x4 DUP3 ADD MSTORE PUSH1 0x1E PUSH1 0x24 DUP3 ADD MSTORE PUSH32 0x416464203A20746F6B656E20706F6F6C20616C72656164792065786974730000 PUSH1 0x44 DUP3 ADD MSTORE PUSH1 0x64 ADD PUSH2 0x64F JUMP JUMPDEST PUSH1 0x1 PUSH1 0x1 PUSH1 0xA0 SHL SUB DUP5 AND PUSH1 0x0 SWAP1 DUP2 MSTORE PUSH1 0x9D PUSH1 0x20 MSTORE PUSH1 0x40 DUP2 KECCAK256 DUP1 SLOAD PUSH1 0xFF NOT AND PUSH1 0x1 OR SWAP1 SSTORE PUSH1 0xA1 SLOAD PUSH2 0x11F6 JUMPI PUSH1 0xA1 SLOAD PUSH2 0x1205 JUMP JUMPDEST PUSH1 0xA1 SLOAD PUSH2 0x1205 SWAP1 PUSH1 0x1 SWAP1 PUSH2 0x33D7 JUMP JUMPDEST SWAP1 POP PUSH1 0x0 JUMPDEST DUP4 MLOAD DUP2 LT ISZERO PUSH2 0x1289 JUMPI DUP4 DUP2 DUP2 MLOAD DUP2 LT PUSH2 0x1225 JUMPI PUSH2 0x1225 PUSH2 0x3370 JUMP JUMPDEST PUSH1 0x20 MUL PUSH1 0x20 ADD ADD MLOAD PUSH1 0x20 ADD MLOAD PUSH1 0x9C PUSH1 0x0 DUP5 DUP2 MSTORE PUSH1 0x20 ADD SWAP1 DUP2 MSTORE PUSH1 0x20 ADD PUSH1 0x0 KECCAK256 PUSH1 0x0 DUP7 DUP5 DUP2 MLOAD DUP2 LT PUSH2 0x1258 JUMPI PUSH2 0x1258 PUSH2 0x3370 JUMP JUMPDEST PUSH1 0x20 MUL PUSH1 0x20 ADD ADD MLOAD PUSH1 0x0 ADD MLOAD DUP2 MSTORE PUSH1 0x20 ADD SWAP1 DUP2 MSTORE PUSH1 0x20 ADD PUSH1 0x0 KECCAK256 DUP2 SWAP1 SSTORE POP DUP1 DUP1 PUSH2 0x1281 SWAP1 PUSH2 0x339C JUMP JUMPDEST SWAP2 POP POP PUSH2 0x120A JUMP JUMPDEST POP POP PUSH1 0x9B DUP1 SLOAD PUSH1 0x1 PUSH1 0x1 PUSH1 0xA0 SHL SUB SWAP6 DUP7 AND PUSH1 0x1 PUSH1 0x1 PUSH1 0xA0 SHL SUB NOT SWAP2 DUP3 AND DUP2 OR SWAP1 SWAP3 SSTORE PUSH1 0x40 DUP1 MLOAD PUSH1 0xA0 DUP2 ADD DUP3 MSTORE SWAP3 DUP4 MSTORE SWAP5 DUP7 AND PUSH1 0x20 DUP4 ADD SWAP1 DUP2 MSTORE PUSH1 0x0 SWAP6 DUP4 ADD DUP7 DUP2 MSTORE PUSH1 0x60 DUP5 ADD DUP8 DUP2 MSTORE PUSH1 0x80 DUP6 ADD DUP9 DUP2 MSTORE PUSH1 0xA1 DUP1 SLOAD PUSH1 0x1 DUP2 ADD DUP3 SSTORE SWAP10 MSTORE SWAP5 MLOAD PUSH1 0x5 SWAP1 SWAP9 MUL PUSH32 0xAADC37B8BA5645E62F4546802DB221593A94729CCBFC5A97D01365A88F649878 DUP2 ADD DUP1 SLOAD SWAP10 DUP12 AND SWAP10 DUP7 AND SWAP10 SWAP1 SWAP10 OR SWAP1 SWAP9 SSTORE SWAP2 MLOAD PUSH32 0xAADC37B8BA5645E62F4546802DB221593A94729CCBFC5A97D01365A88F649879 DUP9 ADD DUP1 SLOAD SWAP2 SWAP1 SWAP10 AND SWAP4 AND SWAP3 SWAP1 SWAP3 OR SWAP1 SWAP7 SSTORE MLOAD PUSH32 0xAADC37B8BA5645E62F4546802DB221593A94729CCBFC5A97D01365A88F64987A DUP6 ADD SSTORE SWAP4 MLOAD PUSH32 0xAADC37B8BA5645E62F4546802DB221593A94729CCBFC5A97D01365A88F64987B DUP5 ADD SSTORE POP POP SWAP1 MLOAD PUSH32 0xAADC37B8BA5645E62F4546802DB221593A94729CCBFC5A97D01365A88F64987C SWAP1 SWAP2 ADD SSTORE JUMP JUMPDEST PUSH1 0x1 PUSH1 0x1 PUSH1 0xA0 SHL SUB DUP2 AND PUSH1 0x0 SWAP1 DUP2 MSTORE PUSH1 0x9F PUSH1 0x20 MSTORE PUSH1 0x40 DUP2 KECCAK256 SLOAD PUSH1 0x60 SWAP2 SWAP1 PUSH8 0xFFFFFFFFFFFFFFFF DUP2 GT ISZERO PUSH2 0x13FC JUMPI PUSH2 0x13FC PUSH2 0x2EB7 JUMP JUMPDEST PUSH1 0x40 MLOAD SWAP1 DUP1 DUP3 MSTORE DUP1 PUSH1 0x20 MUL PUSH1 0x20 ADD DUP3 ADD PUSH1 0x40 MSTORE DUP1 ISZERO PUSH2 0x147C JUMPI DUP2 PUSH1 0x20 ADD JUMPDEST PUSH2 0x1469 PUSH1 0x40 MLOAD DUP1 PUSH2 0x120 ADD PUSH1 0x40 MSTORE DUP1 PUSH1 0x0 DUP2 MSTORE PUSH1 0x20 ADD PUSH1 0x0 DUP2 MSTORE PUSH1 0x20 ADD PUSH1 0x0 DUP2 MSTORE PUSH1 0x20 ADD PUSH1 0x0 DUP2 MSTORE PUSH1 0x20 ADD PUSH1 0x0 DUP2 MSTORE PUSH1 0x20 ADD PUSH1 0x0 DUP2 MSTORE PUSH1 0x20 ADD PUSH1 0x0 DUP2 MSTORE PUSH1 0x20 ADD PUSH1 0x0 DUP2 MSTORE PUSH1 0x20 ADD PUSH1 0x0 DUP2 MSTORE POP SWAP1 JUMP JUMPDEST DUP2 MSTORE PUSH1 0x20 ADD SWAP1 PUSH1 0x1 SWAP1 SUB SWAP1 DUP2 PUSH2 0x141A JUMPI SWAP1 POP JUMPDEST POP SWAP1 POP PUSH1 0x0 JUMPDEST PUSH1 0x1 PUSH1 0x1 PUSH1 0xA0 SHL SUB DUP5 AND PUSH1 0x0 SWAP1 DUP2 MSTORE PUSH1 0x9F PUSH1 0x20 MSTORE PUSH1 0x40 SWAP1 KECCAK256 SLOAD DUP2 LT ISZERO PUSH2 0x1599 JUMPI PUSH1 0x1 PUSH1 0x1 PUSH1 0xA0 SHL SUB DUP5 AND PUSH1 0x0 SWAP1 DUP2 MSTORE PUSH1 0x9E PUSH1 0x20 SWAP1 DUP2 MSTORE PUSH1 0x40 DUP1 DUP4 KECCAK256 PUSH1 0x9F SWAP1 SWAP3 MSTORE DUP3 KECCAK256 DUP1 SLOAD DUP4 SWAP2 SWAP1 DUP6 SWAP1 DUP2 LT PUSH2 0x14D9 JUMPI PUSH2 0x14D9 PUSH2 0x3370 JUMP JUMPDEST SWAP1 PUSH1 0x0 MSTORE PUSH1 0x20 PUSH1 0x0 KECCAK256 ADD SLOAD DUP2 MSTORE PUSH1 0x20 ADD SWAP1 DUP2 MSTORE PUSH1 0x20 ADD PUSH1 0x0 KECCAK256 PUSH1 0x40 MLOAD DUP1 PUSH2 0x120 ADD PUSH1 0x40 MSTORE SWAP1 DUP2 PUSH1 0x0 DUP3 ADD SLOAD DUP2 MSTORE PUSH1 0x20 ADD PUSH1 0x1 DUP3 ADD SLOAD DUP2 MSTORE PUSH1 0x20 ADD PUSH1 0x2 DUP3 ADD SLOAD DUP2 MSTORE PUSH1 0x20 ADD PUSH1 0x3 DUP3 ADD SLOAD DUP2 MSTORE PUSH1 0x20 ADD PUSH1 0x4 DUP3 ADD SLOAD DUP2 MSTORE PUSH1 0x20 ADD PUSH1 0x5 DUP3 ADD SLOAD DUP2 MSTORE PUSH1 0x20 ADD PUSH1 0x6 DUP3 ADD SLOAD DUP2 MSTORE PUSH1 0x20 ADD PUSH1 0x7 DUP3 ADD SLOAD DUP2 MSTORE PUSH1 0x20 ADD PUSH1 0x8 DUP3 ADD SLOAD DUP2 MSTORE POP POP SWAP1 POP PUSH1 0x0 DUP2 PUSH1 0x20 ADD MLOAD GT ISZERO PUSH2 0x1586 JUMPI DUP1 DUP4 DUP4 DUP2 MLOAD DUP2 LT PUSH2 0x157A JUMPI PUSH2 0x157A PUSH2 0x3370 JUMP JUMPDEST PUSH1 0x20 MUL PUSH1 0x20 ADD ADD DUP2 SWAP1 MSTORE POP JUMPDEST POP DUP1 PUSH2 0x1591 DUP2 PUSH2 0x339C JUMP JUMPDEST SWAP2 POP POP PUSH2 0x1482 JUMP JUMPDEST POP SWAP3 SWAP2 POP POP JUMP JUMPDEST PUSH1 0x65 SLOAD PUSH1 0x1 PUSH1 0x1 PUSH1 0xA0 SHL SUB AND CALLER EQ PUSH2 0x15CA JUMPI PUSH1 0x40 MLOAD PUSH3 0x461BCD PUSH1 0xE5 SHL DUP2 MSTORE PUSH1 0x4 ADD PUSH2 0x64F SWAP1 PUSH2 0x3304 JUMP JUMPDEST PUSH1 0x99 DUP1 SLOAD PUSH1 0x1 PUSH1 0x1 PUSH1 0xA0 SHL SUB NOT AND PUSH1 0x1 PUSH1 0x1 PUSH1 0xA0 SHL SUB SWAP3 SWAP1 SWAP3 AND SWAP2 SWAP1 SWAP2 OR SWAP1 SSTORE JUMP JUMPDEST PUSH1 0x65 SLOAD PUSH1 0x1 PUSH1 0x1 PUSH1 0xA0 SHL SUB AND CALLER EQ PUSH2 0x1616 JUMPI PUSH1 0x40 MLOAD PUSH3 0x461BCD PUSH1 0xE5 SHL DUP2 MSTORE PUSH1 0x4 ADD PUSH2 0x64F SWAP1 PUSH2 0x3304 JUMP JUMPDEST PUSH1 0xA1 SLOAD DUP3 SWAP1 DUP2 LT PUSH2 0x1639 JUMPI PUSH1 0x40 MLOAD PUSH3 0x461BCD PUSH1 0xE5 SHL DUP2 MSTORE PUSH1 0x4 ADD PUSH2 0x64F SWAP1 PUSH2 0x3339 JUMP JUMPDEST PUSH1 0x0 PUSH1 0xA1 DUP5 DUP2 SLOAD DUP2 LT PUSH2 0x164E JUMPI PUSH2 0x164E PUSH2 0x3370 JUMP JUMPDEST SWAP1 PUSH1 0x0 MSTORE PUSH1 0x20 PUSH1 0x0 KECCAK256 SWAP1 PUSH1 0x5 MUL ADD PUSH1 0x1 ADD PUSH1 0x0 SWAP1 SLOAD SWAP1 PUSH2 0x100 EXP SWAP1 DIV PUSH1 0x1 PUSH1 0x1 PUSH1 0xA0 SHL SUB AND SWAP1 POP DUP3 PUSH1 0xA1 DUP6 DUP2 SLOAD DUP2 LT PUSH2 0x1689 JUMPI PUSH2 0x1689 PUSH2 0x3370 JUMP JUMPDEST SWAP1 PUSH1 0x0 MSTORE PUSH1 0x20 PUSH1 0x0 KECCAK256 SWAP1 PUSH1 0x5 MUL ADD PUSH1 0x3 ADD SLOAD LT ISZERO PUSH2 0x170F JUMPI PUSH1 0x40 MLOAD PUSH3 0x461BCD PUSH1 0xE5 SHL DUP2 MSTORE PUSH1 0x20 PUSH1 0x4 DUP3 ADD MSTORE PUSH1 0x3F PUSH1 0x24 DUP3 ADD MSTORE PUSH32 0x5374616B696E673A20616D6F756E74204D757374206265206C65737320746861 PUSH1 0x44 DUP3 ADD MSTORE PUSH32 0x6E206F7220657175616C20746F20617661696C61626C65207265776172647300 PUSH1 0x64 DUP3 ADD MSTORE PUSH1 0x84 ADD PUSH2 0x64F JUMP JUMPDEST PUSH1 0x40 MLOAD PUSH4 0xA9059CBB PUSH1 0xE0 SHL DUP2 MSTORE CALLER PUSH1 0x4 DUP3 ADD MSTORE PUSH1 0x24 DUP2 ADD DUP5 SWAP1 MSTORE PUSH1 0x1 PUSH1 0x1 PUSH1 0xA0 SHL SUB DUP3 AND SWAP1 PUSH4 0xA9059CBB SWAP1 PUSH1 0x44 ADD PUSH1 0x20 PUSH1 0x40 MLOAD DUP1 DUP4 SUB DUP2 PUSH1 0x0 DUP8 GAS CALL ISZERO DUP1 ISZERO PUSH2 0x175C JUMPI RETURNDATASIZE PUSH1 0x0 DUP1 RETURNDATACOPY RETURNDATASIZE PUSH1 0x0 REVERT JUMPDEST POP POP POP POP PUSH1 0x40 MLOAD RETURNDATASIZE PUSH1 0x1F NOT PUSH1 0x1F DUP3 ADD AND DUP3 ADD DUP1 PUSH1 0x40 MSTORE POP DUP2 ADD SWAP1 PUSH2 0x1780 SWAP2 SWAP1 PUSH2 0x3481 JUMP JUMPDEST POP DUP3 PUSH1 0xA1 DUP6 DUP2 SLOAD DUP2 LT PUSH2 0x1795 JUMPI PUSH2 0x1795 PUSH2 0x3370 JUMP JUMPDEST SWAP1 PUSH1 0x0 MSTORE PUSH1 0x20 PUSH1 0x0 KECCAK256 SWAP1 PUSH1 0x5 MUL ADD PUSH1 0x3 ADD PUSH1 0x0 DUP3 DUP3 SLOAD PUSH2 0x17B5 SWAP2 SWAP1 PUSH2 0x33D7 JUMP JUMPDEST SWAP1 SWAP2 SSTORE POP POP POP POP POP POP JUMP JUMPDEST PUSH1 0x0 PUSH1 0x2 PUSH1 0x1 SLOAD SUB PUSH2 0x17E4 JUMPI PUSH1 0x40 MLOAD PUSH3 0x461BCD PUSH1 0xE5 SHL DUP2 MSTORE PUSH1 0x4 ADD PUSH2 0x64F SWAP1 PUSH2 0x340D JUMP JUMPDEST PUSH1 0x2 PUSH1 0x1 SSTORE PUSH1 0xA4 SLOAD PUSH1 0xFF AND ISZERO PUSH2 0x182F JUMPI PUSH1 0x40 MLOAD PUSH3 0x461BCD PUSH1 0xE5 SHL DUP2 MSTORE PUSH1 0x20 PUSH1 0x4 DUP3 ADD MSTORE PUSH1 0x10 PUSH1 0x24 DUP3 ADD MSTORE PUSH16 0x636F6E74726163742070617573656421 PUSH1 0x80 SHL PUSH1 0x44 DUP3 ADD MSTORE PUSH1 0x64 ADD PUSH2 0x64F JUMP JUMPDEST PUSH1 0xA1 SLOAD DUP5 SWAP1 DUP2 LT PUSH2 0x1852 JUMPI PUSH1 0x40 MLOAD PUSH3 0x461BCD PUSH1 0xE5 SHL DUP2 MSTORE PUSH1 0x4 ADD PUSH2 0x64F SWAP1 PUSH2 0x3339 JUMP JUMPDEST PUSH1 0xA4 SLOAD PUSH1 0xFF AND ISZERO PUSH2 0x1899 JUMPI PUSH1 0x40 MLOAD PUSH3 0x461BCD PUSH1 0xE5 SHL DUP2 MSTORE PUSH1 0x20 PUSH1 0x4 DUP3 ADD MSTORE PUSH1 0x11 PUSH1 0x24 DUP3 ADD MSTORE PUSH17 0x14DD185ADA5B99C81A5CC81C185D5CD959 PUSH1 0x7A SHL PUSH1 0x44 DUP3 ADD MSTORE PUSH1 0x64 ADD PUSH2 0x64F JUMP JUMPDEST PUSH1 0x0 DUP6 DUP2 MSTORE PUSH1 0x9C PUSH1 0x20 SWAP1 DUP2 MSTORE PUSH1 0x40 DUP1 DUP4 KECCAK256 DUP7 DUP5 MSTORE SWAP1 SWAP2 MSTORE SWAP1 KECCAK256 SLOAD PUSH1 0x0 SUB PUSH2 0x18FB JUMPI PUSH1 0x40 MLOAD PUSH3 0x461BCD PUSH1 0xE5 SHL DUP2 MSTORE PUSH1 0x20 PUSH1 0x4 DUP3 ADD MSTORE PUSH1 0x16 PUSH1 0x24 DUP3 ADD MSTORE PUSH22 0x125B9D985B1A59081CDD185ADA5B99C81C195C9A5BD9 PUSH1 0x52 SHL PUSH1 0x44 DUP3 ADD MSTORE PUSH1 0x64 ADD PUSH2 0x64F JUMP JUMPDEST PUSH1 0x9B SLOAD PUSH1 0x40 MLOAD PUSH4 0x133F7571 PUSH1 0xE3 SHL DUP2 MSTORE PUSH1 0x4 DUP2 ADD DUP7 SWAP1 MSTORE PUSH1 0x0 SWAP2 DUP3 SWAP2 DUP3 SWAP2 PUSH1 0x1 PUSH1 0x1 PUSH1 0xA0 SHL SUB AND SWAP1 PUSH4 0x99FBAB88 SWAP1 PUSH1 0x24 ADD PUSH2 0x180 PUSH1 0x40 MLOAD DUP1 DUP4 SUB DUP2 DUP7 GAS STATICCALL ISZERO DUP1 ISZERO PUSH2 0x194A JUMPI RETURNDATASIZE PUSH1 0x0 DUP1 RETURNDATACOPY RETURNDATASIZE PUSH1 0x0 REVERT JUMPDEST POP POP POP POP PUSH1 0x40 MLOAD RETURNDATASIZE PUSH1 0x1F NOT PUSH1 0x1F DUP3 ADD AND DUP3 ADD DUP1 PUSH1 0x40 MSTORE POP DUP2 ADD SWAP1 PUSH2 0x196E SWAP2 SWAP1 PUSH2 0x34FD JUMP JUMPDEST POP POP POP POP SWAP8 POP POP POP POP SWAP5 POP SWAP5 POP POP POP DUP3 PUSH1 0x1 PUSH1 0x1 PUSH1 0xA0 SHL SUB AND PUSH1 0x9A PUSH1 0x0 SWAP1 SLOAD SWAP1 PUSH2 0x100 EXP SWAP1 DIV PUSH1 0x1 PUSH1 0x1 PUSH1 0xA0 SHL SUB AND PUSH1 0x1 PUSH1 0x1 PUSH1 0xA0 SHL SUB AND EQ DUP1 ISZERO PUSH2 0x19EA JUMPI POP DUP2 PUSH1 0x1 PUSH1 0x1 PUSH1 0xA0 SHL SUB AND PUSH1 0xA1 DUP10 DUP2 SLOAD DUP2 LT PUSH2 0x19CB JUMPI PUSH2 0x19CB PUSH2 0x3370 JUMP JUMPDEST PUSH1 0x0 SWAP2 DUP3 MSTORE PUSH1 0x20 SWAP1 SWAP2 KECCAK256 PUSH1 0x1 PUSH1 0x5 SWAP1 SWAP3 MUL ADD ADD SLOAD PUSH1 0x1 PUSH1 0x1 PUSH1 0xA0 SHL SUB AND EQ JUMPDEST PUSH2 0x1A28 JUMPI PUSH1 0x40 MLOAD PUSH3 0x461BCD PUSH1 0xE5 SHL DUP2 MSTORE PUSH1 0x20 PUSH1 0x4 DUP3 ADD MSTORE PUSH1 0xF PUSH1 0x24 DUP3 ADD MSTORE PUSH15 0x125B9D985B1A59081314081C1BDBDB PUSH1 0x8A SHL PUSH1 0x44 DUP3 ADD MSTORE PUSH1 0x64 ADD PUSH2 0x64F JUMP JUMPDEST PUSH1 0x0 PUSH1 0xA1 DUP10 DUP2 SLOAD DUP2 LT PUSH2 0x1A3D JUMPI PUSH2 0x1A3D PUSH2 0x3370 JUMP JUMPDEST PUSH1 0x0 SWAP2 DUP3 MSTORE PUSH1 0x20 SWAP1 SWAP2 KECCAK256 PUSH1 0x5 SWAP1 SWAP2 MUL ADD SLOAD PUSH1 0x40 MLOAD PUSH4 0xE985E9C5 PUSH1 0xE0 SHL DUP2 MSTORE CALLER PUSH1 0x4 DUP3 ADD MSTORE ADDRESS PUSH1 0x24 DUP3 ADD MSTORE PUSH1 0x1 PUSH1 0x1 PUSH1 0xA0 SHL SUB SWAP1 SWAP2 AND SWAP2 POP DUP2 SWAP1 PUSH4 0xE985E9C5 SWAP1 PUSH1 0x44 ADD PUSH1 0x20 PUSH1 0x40 MLOAD DUP1 DUP4 SUB DUP2 DUP7 GAS STATICCALL ISZERO DUP1 ISZERO PUSH2 0x1A9C JUMPI RETURNDATASIZE PUSH1 0x0 DUP1 RETURNDATACOPY RETURNDATASIZE PUSH1 0x0 REVERT JUMPDEST POP POP POP POP PUSH1 0x40 MLOAD RETURNDATASIZE PUSH1 0x1F NOT PUSH1 0x1F DUP3 ADD AND DUP3 ADD DUP1 PUSH1 0x40 MSTORE POP DUP2 ADD SWAP1 PUSH2 0x1AC0 SWAP2 SWAP1 PUSH2 0x3481 JUMP JUMPDEST DUP1 PUSH2 0x1B3C JUMPI POP PUSH1 0x40 MLOAD PUSH4 0x20604BF PUSH1 0xE2 SHL DUP2 MSTORE PUSH1 0x4 DUP2 ADD DUP10 SWAP1 MSTORE ADDRESS SWAP1 PUSH1 0x1 PUSH1 0x1 PUSH1 0xA0 SHL SUB DUP4 AND SWAP1 PUSH4 0x81812FC SWAP1 PUSH1 0x24 ADD PUSH1 0x20 PUSH1 0x40 MLOAD DUP1 DUP4 SUB DUP2 DUP7 GAS STATICCALL ISZERO DUP1 ISZERO PUSH2 0x1B0D JUMPI RETURNDATASIZE PUSH1 0x0 DUP1 RETURNDATACOPY RETURNDATASIZE PUSH1 0x0 REVERT JUMPDEST POP POP POP POP PUSH1 0x40 MLOAD RETURNDATASIZE PUSH1 0x1F NOT PUSH1 0x1F DUP3 ADD AND DUP3 ADD DUP1 PUSH1 0x40 MSTORE POP DUP2 ADD SWAP1 PUSH2 0x1B31 SWAP2 SWAP1 PUSH2 0x35DE JUMP JUMPDEST PUSH1 0x1 PUSH1 0x1 PUSH1 0xA0 SHL SUB AND EQ JUMPDEST PUSH2 0x1B80 JUMPI PUSH1 0x40 MLOAD PUSH3 0x461BCD PUSH1 0xE5 SHL DUP2 MSTORE PUSH1 0x20 PUSH1 0x4 DUP3 ADD MSTORE PUSH1 0x15 PUSH1 0x24 DUP3 ADD MSTORE PUSH21 0x14DD185ADA5B99CE88139BDD08185C1C1C9BDD9959 PUSH1 0x5A SHL PUSH1 0x44 DUP3 ADD MSTORE PUSH1 0x64 ADD PUSH2 0x64F JUMP JUMPDEST PUSH1 0x40 MLOAD PUSH4 0x23B872DD PUSH1 0xE0 SHL DUP2 MSTORE PUSH1 0x1 PUSH1 0x1 PUSH1 0xA0 SHL SUB DUP3 AND SWAP1 PUSH4 0x23B872DD SWAP1 PUSH2 0x1BB0 SWAP1 CALLER SWAP1 ADDRESS SWAP1 DUP14 SWAP1 PUSH1 0x4 ADD PUSH2 0x345D JUMP JUMPDEST PUSH1 0x0 PUSH1 0x40 MLOAD DUP1 DUP4 SUB DUP2 PUSH1 0x0 DUP8 DUP1 EXTCODESIZE ISZERO DUP1 ISZERO PUSH2 0x1BCA JUMPI PUSH1 0x0 DUP1 REVERT JUMPDEST POP GAS CALL ISZERO DUP1 ISZERO PUSH2 0x1BDE JUMPI RETURNDATASIZE PUSH1 0x0 DUP1 RETURNDATACOPY RETURNDATASIZE PUSH1 0x0 REVERT JUMPDEST POP POP POP POP PUSH2 0x1BF0 PUSH1 0x97 DUP1 SLOAD PUSH1 0x1 ADD SWAP1 SSTORE JUMP JUMPDEST PUSH1 0x0 PUSH2 0x1BFB PUSH1 0x97 SLOAD SWAP1 JUMP JUMPDEST SWAP1 POP PUSH1 0x0 PUSH2 0x1C0B CALLER DUP4 PUSH1 0x1 PUSH2 0x27B5 JUMP JUMPDEST CALLER PUSH1 0x0 SWAP1 DUP2 MSTORE PUSH1 0x9E PUSH1 0x20 SWAP1 DUP2 MSTORE PUSH1 0x40 DUP1 DUP4 KECCAK256 DUP7 DUP5 MSTORE SWAP1 SWAP2 MSTORE DUP2 KECCAK256 DUP5 DUP2 SSTORE PUSH1 0x1 ADD DUP1 SLOAD SWAP3 SWAP4 POP PUSH1 0x1 PUSH1 0x1 PUSH1 0x80 SHL SUB DUP8 AND SWAP3 SWAP1 SWAP2 SWAP1 PUSH2 0x1C49 SWAP1 DUP5 SWAP1 PUSH2 0x349E JUMP JUMPDEST SWAP1 SWAP2 SSTORE POP POP CALLER PUSH1 0x0 SWAP1 DUP2 MSTORE PUSH1 0x9E PUSH1 0x20 SWAP1 DUP2 MSTORE PUSH1 0x40 DUP1 DUP4 KECCAK256 DUP6 DUP5 MSTORE SWAP1 SWAP2 MSTORE DUP2 KECCAK256 PUSH1 0x2 ADD DUP1 SLOAD DUP4 SWAP3 SWAP1 PUSH2 0x1C7B SWAP1 DUP5 SWAP1 PUSH2 0x349E JUMP JUMPDEST SWAP1 SWAP2 SSTORE POP POP CALLER PUSH1 0x0 SWAP1 DUP2 MSTORE PUSH1 0x9E PUSH1 0x20 SWAP1 DUP2 MSTORE PUSH1 0x40 DUP1 DUP4 KECCAK256 DUP6 DUP5 MSTORE DUP1 DUP4 MSTORE DUP2 DUP5 KECCAK256 TIMESTAMP PUSH1 0x5 DUP3 ADD SSTORE DUP16 DUP6 MSTORE PUSH1 0x9C DUP5 MSTORE DUP3 DUP6 KECCAK256 DUP15 DUP7 MSTORE DUP5 MSTORE SWAP2 DUP5 KECCAK256 SLOAD SWAP4 DUP7 SWAP1 MSTORE SWAP1 SWAP2 MSTORE PUSH1 0x3 ADD SSTORE PUSH2 0x1CCC DUP10 PUSH3 0x278D00 PUSH2 0x33EE JUMP JUMPDEST PUSH2 0x1CD6 SWAP1 TIMESTAMP PUSH2 0x349E JUMP JUMPDEST PUSH1 0x9E PUSH1 0x0 CALLER PUSH1 0x1 PUSH1 0x1 PUSH1 0xA0 SHL SUB AND PUSH1 0x1 PUSH1 0x1 PUSH1 0xA0 SHL SUB AND DUP2 MSTORE PUSH1 0x20 ADD SWAP1 DUP2 MSTORE PUSH1 0x20 ADD PUSH1 0x0 KECCAK256 PUSH1 0x0 DUP5 DUP2 MSTORE PUSH1 0x20 ADD SWAP1 DUP2 MSTORE PUSH1 0x20 ADD PUSH1 0x0 KECCAK256 PUSH1 0x4 ADD DUP2 SWAP1 SSTORE POP DUP11 PUSH1 0x9E PUSH1 0x0 CALLER PUSH1 0x1 PUSH1 0x1 PUSH1 0xA0 SHL SUB AND PUSH1 0x1 PUSH1 0x1 PUSH1 0xA0 SHL SUB AND DUP2 MSTORE PUSH1 0x20 ADD SWAP1 DUP2 MSTORE PUSH1 0x20 ADD PUSH1 0x0 KECCAK256 PUSH1 0x0 DUP5 DUP2 MSTORE PUSH1 0x20 ADD SWAP1 DUP2 MSTORE PUSH1 0x20 ADD PUSH1 0x0 KECCAK256 PUSH1 0x6 ADD DUP2 SWAP1 SSTORE POP DUP9 PUSH1 0x9E PUSH1 0x0 CALLER PUSH1 0x1 PUSH1 0x1 PUSH1 0xA0 SHL SUB AND PUSH1 0x1 PUSH1 0x1 PUSH1 0xA0 SHL SUB AND DUP2 MSTORE PUSH1 0x20 ADD SWAP1 DUP2 MSTORE PUSH1 0x20 ADD PUSH1 0x0 KECCAK256 PUSH1 0x0 DUP5 DUP2 MSTORE PUSH1 0x20 ADD SWAP1 DUP2 MSTORE PUSH1 0x20 ADD PUSH1 0x0 KECCAK256 PUSH1 0x7 ADD DUP2 SWAP1 SSTORE POP DUP10 PUSH1 0x9E PUSH1 0x0 CALLER PUSH1 0x1 PUSH1 0x1 PUSH1 0xA0 SHL SUB AND PUSH1 0x1 PUSH1 0x1 PUSH1 0xA0 SHL SUB AND DUP2 MSTORE PUSH1 0x20 ADD SWAP1 DUP2 MSTORE PUSH1 0x20 ADD PUSH1 0x0 KECCAK256 PUSH1 0x0 DUP5 DUP2 MSTORE PUSH1 0x20 ADD SWAP1 DUP2 MSTORE PUSH1 0x20 ADD PUSH1 0x0 KECCAK256 PUSH1 0x8 ADD DUP2 SWAP1 SSTORE POP PUSH1 0x9F PUSH1 0x0 CALLER PUSH1 0x1 PUSH1 0x1 PUSH1 0xA0 SHL SUB AND PUSH1 0x1 PUSH1 0x1 PUSH1 0xA0 SHL SUB AND DUP2 MSTORE PUSH1 0x20 ADD SWAP1 DUP2 MSTORE PUSH1 0x20 ADD PUSH1 0x0 KECCAK256 DUP3 SWAP1 DUP1 PUSH1 0x1 DUP2 SLOAD ADD DUP1 DUP3 SSTORE DUP1 SWAP2 POP POP PUSH1 0x1 SWAP1 SUB SWAP1 PUSH1 0x0 MSTORE PUSH1 0x20 PUSH1 0x0 KECCAK256 ADD PUSH1 0x0 SWAP1 SWAP2 SWAP1 SWAP2 SWAP1 SWAP2 POP SSTORE PUSH1 0x9E PUSH1 0x0 CALLER PUSH1 0x1 PUSH1 0x1 PUSH1 0xA0 SHL SUB AND PUSH1 0x1 PUSH1 0x1 PUSH1 0xA0 SHL SUB AND DUP2 MSTORE PUSH1 0x20 ADD SWAP1 DUP2 MSTORE PUSH1 0x20 ADD PUSH1 0x0 KECCAK256 PUSH1 0x0 DUP4 DUP2 MSTORE PUSH1 0x20 ADD SWAP1 DUP2 MSTORE PUSH1 0x20 ADD PUSH1 0x0 KECCAK256 PUSH1 0xA0 PUSH1 0x0 DUP5 DUP2 MSTORE PUSH1 0x20 ADD SWAP1 DUP2 MSTORE PUSH1 0x20 ADD PUSH1 0x0 KECCAK256 PUSH1 0x0 DUP3 ADD SLOAD DUP2 PUSH1 0x0 ADD SSTORE PUSH1 0x1 DUP3 ADD SLOAD DUP2 PUSH1 0x1 ADD SSTORE PUSH1 0x2 DUP3 ADD SLOAD DUP2 PUSH1 0x2 ADD SSTORE PUSH1 0x3 DUP3 ADD SLOAD DUP2 PUSH1 0x3 ADD SSTORE PUSH1 0x4 DUP3 ADD SLOAD DUP2 PUSH1 0x4 ADD SSTORE PUSH1 0x5 DUP3 ADD SLOAD DUP2 PUSH1 0x5 ADD SSTORE PUSH1 0x6 DUP3 ADD SLOAD DUP2 PUSH1 0x6 ADD SSTORE PUSH1 0x7 DUP3 ADD SLOAD DUP2 PUSH1 0x7 ADD SSTORE PUSH1 0x8 DUP3 ADD SLOAD DUP2 PUSH1 0x8 ADD SSTORE SWAP1 POP POP DUP4 PUSH1 0x1 PUSH1 0x1 PUSH1 0x80 SHL SUB AND PUSH1 0xA1 DUP13 DUP2 SLOAD DUP2 LT PUSH2 0x1EDC JUMPI PUSH2 0x1EDC PUSH2 0x3370 JUMP JUMPDEST SWAP1 PUSH1 0x0 MSTORE PUSH1 0x20 PUSH1 0x0 KECCAK256 SWAP1 PUSH1 0x5 MUL ADD PUSH1 0x2 ADD PUSH1 0x0 DUP3 DUP3 SLOAD PUSH2 0x1EFC SWAP2 SWAP1 PUSH2 0x349E JUMP JUMPDEST SWAP1 SWAP2 SSTORE POP POP PUSH1 0x0 DUP10 DUP2 MSTORE PUSH1 0xA2 PUSH1 0x20 MSTORE PUSH1 0x40 DUP2 KECCAK256 DUP1 SLOAD PUSH1 0x1 PUSH1 0x1 PUSH1 0x80 SHL SUB DUP8 AND SWAP3 SWAP1 PUSH2 0x1F28 SWAP1 DUP5 SWAP1 PUSH2 0x349E JUMP JUMPDEST SWAP1 SWAP2 SSTORE POP POP PUSH1 0x40 DUP1 MLOAD PUSH1 0x1 PUSH1 0x1 PUSH1 0x80 SHL SUB DUP7 AND DUP2 MSTORE TIMESTAMP PUSH1 0x20 DUP3 ADD MSTORE DUP13 SWAP2 CALLER SWAP2 PUSH32 0xB4CAAF29ADDA3EEFEE3AD552A8E85058589BF834C7466CAE4EE58787F70589ED SWAP2 ADD PUSH1 0x40 MLOAD DUP1 SWAP2 SUB SWAP1 LOG3 POP PUSH1 0x1 DUP1 SSTORE SWAP10 SWAP9 POP POP POP POP POP POP POP POP POP JUMP JUMPDEST PUSH1 0xA1 DUP2 DUP2 SLOAD DUP2 LT PUSH2 0x1F94 JUMPI PUSH1 0x0 DUP1 REVERT JUMPDEST PUSH1 0x0 SWAP2 DUP3 MSTORE PUSH1 0x20 SWAP1 SWAP2 KECCAK256 PUSH1 0x5 SWAP1 SWAP2 MUL ADD DUP1 SLOAD PUSH1 0x1 DUP3 ADD SLOAD PUSH1 0x2 DUP4 ADD SLOAD PUSH1 0x3 DUP5 ADD SLOAD PUSH1 0x4 SWAP1 SWAP5 ADD SLOAD PUSH1 0x1 PUSH1 0x1 PUSH1 0xA0 SHL SUB SWAP4 DUP5 AND SWAP6 POP SWAP2 SWAP1 SWAP3 AND SWAP3 SWAP1 DUP6 JUMP JUMPDEST PUSH1 0x9A SLOAD PUSH1 0x40 MLOAD PUSH4 0x70A08231 PUSH1 0xE0 SHL DUP2 MSTORE ADDRESS PUSH1 0x4 DUP3 ADD MSTORE PUSH1 0x0 SWAP2 PUSH1 0x1 PUSH1 0x1 PUSH1 0xA0 SHL SUB AND SWAP1 PUSH4 0x70A08231 SWAP1 PUSH1 0x24 ADD PUSH1 0x20 PUSH1 0x40 MLOAD DUP1 DUP4 SUB DUP2 DUP7 GAS STATICCALL ISZERO DUP1 ISZERO PUSH2 0x201A JUMPI RETURNDATASIZE PUSH1 0x0 DUP1 RETURNDATACOPY RETURNDATASIZE PUSH1 0x0 REVERT JUMPDEST POP POP POP POP PUSH1 0x40 MLOAD RETURNDATASIZE PUSH1 0x1F NOT PUSH1 0x1F DUP3 ADD AND DUP3 ADD DUP1 PUSH1 0x40 MSTORE POP DUP2 ADD SWAP1 PUSH2 0x203E SWAP2 SWAP1 PUSH2 0x3444 JUMP JUMPDEST SWAP1 POP SWAP1 JUMP JUMPDEST PUSH1 0x1 PUSH1 0x1 PUSH1 0xA0 SHL SUB DUP4 AND PUSH1 0x0 SWAP1 DUP2 MSTORE PUSH1 0x9E PUSH1 0x20 SWAP1 DUP2 MSTORE PUSH1 0x40 DUP1 DUP4 KECCAK256 DUP6 DUP5 MSTORE DUP3 MSTORE DUP1 DUP4 KECCAK256 DUP2 MLOAD PUSH2 0x120 DUP2 ADD DUP4 MSTORE DUP2 SLOAD DUP2 MSTORE PUSH1 0x1 DUP3 ADD SLOAD SWAP4 DUP2 ADD SWAP4 SWAP1 SWAP4 MSTORE PUSH1 0x2 DUP2 ADD SLOAD SWAP2 DUP4 ADD SWAP2 SWAP1 SWAP2 MSTORE PUSH1 0x3 DUP2 ADD SLOAD PUSH1 0x60 DUP4 ADD MSTORE PUSH1 0x4 DUP2 ADD SLOAD PUSH1 0x80 DUP4 ADD MSTORE PUSH1 0x5 DUP2 ADD SLOAD PUSH1 0xA0 DUP4 ADD MSTORE PUSH1 0x6 DUP2 ADD SLOAD PUSH1 0xC0 DUP4 ADD MSTORE PUSH1 0x7 DUP2 ADD SLOAD PUSH1 0xE0 DUP4 ADD MSTORE PUSH1 0x8 ADD SLOAD PUSH2 0x100 DUP3 ADD MSTORE PUSH2 0x20D2 DUP6 DUP6 DUP6 PUSH2 0x27B5 JUMP JUMPDEST DUP2 PUSH1 0x40 ADD MLOAD PUSH2 0x20E1 SWAP2 SWAP1 PUSH2 0x349E JUMP JUMPDEST SWAP6 SWAP5 POP POP POP POP POP JUMP JUMPDEST PUSH1 0x0 PUSH2 0x20F4 PUSH2 0x10AC JUMP JUMPDEST PUSH1 0xA1 DUP4 DUP2 SLOAD DUP2 LT PUSH2 0x2107 JUMPI PUSH2 0x2107 PUSH2 0x3370 JUMP JUMPDEST SWAP1 PUSH1 0x0 MSTORE PUSH1 0x20 PUSH1 0x0 KECCAK256 SWAP1 PUSH1 0x5 MUL ADD PUSH1 0x3 ADD SLOAD LT ISZERO SWAP1 POP SWAP2 SWAP1 POP JUMP JUMPDEST PUSH1 0x65 SLOAD PUSH1 0x1 PUSH1 0x1 PUSH1 0xA0 SHL SUB AND CALLER EQ PUSH2 0x214C JUMPI PUSH1 0x40 MLOAD PUSH3 0x461BCD PUSH1 0xE5 SHL DUP2 MSTORE PUSH1 0x4 ADD PUSH2 0x64F SWAP1 PUSH2 0x3304 JUMP JUMPDEST PUSH1 0xA4 SLOAD PUSH1 0xFF AND PUSH2 0x2194 JUMPI PUSH1 0x40 MLOAD PUSH3 0x461BCD PUSH1 0xE5 SHL DUP2 MSTORE PUSH1 0x20 PUSH1 0x4 DUP3 ADD MSTORE PUSH1 0x13 PUSH1 0x24 DUP3 ADD MSTORE PUSH19 0x105B1C9958591E4813DC195C985D1A5BDB985B PUSH1 0x6A SHL PUSH1 0x44 DUP3 ADD MSTORE PUSH1 0x64 ADD PUSH2 0x64F JUMP JUMPDEST PUSH1 0xA4 DUP1 SLOAD PUSH1 0xFF NOT AND SWAP1 SSTORE TIMESTAMP PUSH1 0xA5 SSTORE JUMP JUMPDEST PUSH1 0x0 PUSH2 0x21B0 PUSH1 0x1 PUSH2 0x2C3C JUMP JUMPDEST SWAP1 POP DUP1 ISZERO PUSH2 0x21C8 JUMPI PUSH1 0x0 DUP1 SLOAD PUSH2 0xFF00 NOT AND PUSH2 0x100 OR SWAP1 SSTORE JUMPDEST PUSH2 0x21D0 PUSH2 0x2CC9 JUMP JUMPDEST PUSH2 0x21D8 PUSH2 0x2CF0 JUMP JUMPDEST PUSH2 0x21E0 PUSH2 0x2D1F JUMP JUMPDEST DUP2 MLOAD PUSH2 0x21F3 SWAP1 PUSH1 0xA3 SWAP1 PUSH1 0x20 DUP6 ADD SWAP1 PUSH2 0x2E57 JUMP JUMPDEST POP PUSH1 0x9A DUP1 SLOAD PUSH1 0x1 PUSH1 0x1 PUSH1 0xA0 SHL SUB NOT AND PUSH1 0x1 PUSH1 0x1 PUSH1 0xA0 SHL SUB DUP6 AND OR SWAP1 SSTORE PUSH4 0x1E13380 PUSH1 0x98 SSTORE PUSH2 0x2220 DUP3 PUSH2 0x2D4E JUMP JUMPDEST DUP1 ISZERO PUSH2 0x2266 JUMPI PUSH1 0x0 DUP1 SLOAD PUSH2 0xFF00 NOT AND SWAP1 SSTORE PUSH1 0x40 MLOAD PUSH1 0x1 DUP2 MSTORE PUSH32 0x7F26B83FF96E1F2B6A682F133852F6798A09C465DA95921460CEFB3847402498 SWAP1 PUSH1 0x20 ADD PUSH1 0x40 MLOAD DUP1 SWAP2 SUB SWAP1 LOG1 JUMPDEST POP POP POP JUMP JUMPDEST PUSH1 0x9F PUSH1 0x20 MSTORE DUP2 PUSH1 0x0 MSTORE PUSH1 0x40 PUSH1 0x0 KECCAK256 DUP2 DUP2 SLOAD DUP2 LT PUSH2 0x2287 JUMPI PUSH1 0x0 DUP1 REVERT JUMPDEST SWAP1 PUSH1 0x0 MSTORE PUSH1 0x20 PUSH1 0x0 KECCAK256 ADD PUSH1 0x0 SWAP2 POP SWAP2 POP POP SLOAD DUP2 JUMP JUMPDEST PUSH1 0x99 SLOAD PUSH1 0x1 PUSH1 0x1 PUSH1 0xA0 SHL SUB AND CALLER PUSH1 0x1 PUSH1 0x1 PUSH1 0xA0 SHL SUB AND EQ PUSH2 0x22F0 JUMPI PUSH1 0x40 MLOAD PUSH3 0x461BCD PUSH1 0xE5 SHL DUP2 MSTORE PUSH1 0x20 PUSH1 0x4 DUP3 ADD MSTORE PUSH1 0xE PUSH1 0x24 DUP3 ADD MSTORE PUSH14 0x696E76616C696420616363657373 PUSH1 0x90 SHL PUSH1 0x44 DUP3 ADD MSTORE PUSH1 0x64 ADD PUSH2 0x64F JUMP JUMPDEST PUSH1 0x2 PUSH1 0x1 SLOAD SUB PUSH2 0x2312 JUMPI PUSH1 0x40 MLOAD PUSH3 0x461BCD PUSH1 0xE5 SHL DUP2 MSTORE PUSH1 0x4 ADD PUSH2 0x64F SWAP1 PUSH2 0x340D JUMP JUMPDEST PUSH1 0x2 PUSH1 0x1 SSTORE DUP1 PUSH2 0x2364 JUMPI PUSH1 0x40 MLOAD PUSH3 0x461BCD PUSH1 0xE5 SHL DUP2 MSTORE PUSH1 0x20 PUSH1 0x4 DUP3 ADD MSTORE PUSH1 0x1F PUSH1 0x24 DUP3 ADD MSTORE PUSH32 0x436F6C6C656374204665653A20416D6F756E74206D757374206265203E203000 PUSH1 0x44 DUP3 ADD MSTORE PUSH1 0x64 ADD PUSH2 0x64F JUMP JUMPDEST PUSH1 0x9A SLOAD PUSH1 0x1 PUSH1 0x1 PUSH1 0xA0 SHL SUB AND PUSH4 0x23B872DD CALLER ADDRESS DUP5 PUSH1 0x40 MLOAD DUP5 PUSH4 0xFFFFFFFF AND PUSH1 0xE0 SHL DUP2 MSTORE PUSH1 0x4 ADD PUSH2 0x2396 SWAP4 SWAP3 SWAP2 SWAP1 PUSH2 0x345D JUMP JUMPDEST PUSH1 0x20 PUSH1 0x40 MLOAD DUP1 DUP4 SUB DUP2 PUSH1 0x0 DUP8 GAS CALL ISZERO DUP1 ISZERO PUSH2 0x23B5 JUMPI RETURNDATASIZE PUSH1 0x0 DUP1 RETURNDATACOPY RETURNDATASIZE PUSH1 0x0 REVERT JUMPDEST POP POP POP POP PUSH1 0x40 MLOAD RETURNDATASIZE PUSH1 0x1F NOT PUSH1 0x1F DUP3 ADD AND DUP3 ADD DUP1 PUSH1 0x40 MSTORE POP DUP2 ADD SWAP1 PUSH2 0x23D9 SWAP2 SWAP1 PUSH2 0x3481 JUMP JUMPDEST POP PUSH1 0x0 JUMPDEST PUSH1 0xA3 SLOAD DUP2 LT ISZERO PUSH2 0x2507 JUMPI PUSH1 0xA3 DUP2 DUP2 SLOAD DUP2 LT PUSH2 0x23FA JUMPI PUSH2 0x23FA PUSH2 0x3370 JUMP JUMPDEST SWAP1 PUSH1 0x0 MSTORE PUSH1 0x20 PUSH1 0x0 KECCAK256 ADD SLOAD PUSH1 0x0 EQ PUSH2 0x246D JUMPI PUSH8 0xDE0B6B3A7640000 DUP3 PUSH1 0xA6 SLOAD PUSH8 0xDE0B6B3A7640000 PUSH1 0xA3 DUP6 DUP2 SLOAD DUP2 LT PUSH2 0x2435 JUMPI PUSH2 0x2435 PUSH2 0x3370 JUMP JUMPDEST SWAP1 PUSH1 0x0 MSTORE PUSH1 0x20 PUSH1 0x0 KECCAK256 ADD SLOAD PUSH2 0x244A SWAP2 SWAP1 PUSH2 0x33EE JUMP JUMPDEST PUSH2 0x2454 SWAP2 SWAP1 PUSH2 0x33B5 JUMP JUMPDEST PUSH2 0x245E SWAP2 SWAP1 PUSH2 0x33EE JUMP JUMPDEST PUSH2 0x2468 SWAP2 SWAP1 PUSH2 0x33B5 JUMP JUMPDEST PUSH2 0x24AD JUMP JUMPDEST PUSH8 0xDE0B6B3A7640000 DUP3 PUSH1 0xA6 SLOAD PUSH8 0xDE0B6B3A7640000 PUSH1 0x1 PUSH2 0x248F SWAP2 SWAP1 PUSH2 0x33EE JUMP JUMPDEST PUSH2 0x2499 SWAP2 SWAP1 PUSH2 0x33B5 JUMP JUMPDEST PUSH2 0x24A3 SWAP2 SWAP1 PUSH2 0x33EE JUMP JUMPDEST PUSH2 0x24AD SWAP2 SWAP1 PUSH2 0x33B5 JUMP JUMPDEST PUSH1 0xA2 PUSH1 0x0 PUSH1 0xA3 DUP5 DUP2 SLOAD DUP2 LT PUSH2 0x24C4 JUMPI PUSH2 0x24C4 PUSH2 0x3370 JUMP JUMPDEST SWAP1 PUSH1 0x0 MSTORE PUSH1 0x20 PUSH1 0x0 KECCAK256 ADD SLOAD DUP2 MSTORE PUSH1 0x20 ADD SWAP1 DUP2 MSTORE PUSH1 0x20 ADD PUSH1 0x0 KECCAK256 PUSH1 0x1 ADD PUSH1 0x0 DUP3 DUP3 SLOAD PUSH2 0x24EF SWAP2 SWAP1 PUSH2 0x349E JUMP JUMPDEST SWAP1 SWAP2 SSTORE POP DUP2 SWAP1 POP PUSH2 0x24FF DUP2 PUSH2 0x339C JUMP JUMPDEST SWAP2 POP POP PUSH2 0x23DD JUMP JUMPDEST POP PUSH1 0x40 MLOAD DUP2 DUP2 MSTORE CALLER SWAP1 PUSH32 0x386D896E9BD972181CFB744681A2DE8D2DAAB22884986FDC60C3947BE36CA01B SWAP1 PUSH1 0x20 ADD PUSH2 0xA32 JUMP JUMPDEST PUSH1 0x65 SLOAD PUSH1 0x1 PUSH1 0x1 PUSH1 0xA0 SHL SUB AND CALLER EQ PUSH2 0x2564 JUMPI PUSH1 0x40 MLOAD PUSH3 0x461BCD PUSH1 0xE5 SHL DUP2 MSTORE PUSH1 0x4 ADD PUSH2 0x64F SWAP1 PUSH2 0x3304 JUMP JUMPDEST PUSH1 0x1 PUSH1 0x1 PUSH1 0xA0 SHL SUB DUP2 AND PUSH2 0x25C9 JUMPI PUSH1 0x40 MLOAD PUSH3 0x461BCD PUSH1 0xE5 SHL DUP2 MSTORE PUSH1 0x20 PUSH1 0x4 DUP3 ADD MSTORE PUSH1 0x26 PUSH1 0x24 DUP3 ADD MSTORE PUSH32 0x4F776E61626C653A206E6577206F776E657220697320746865207A65726F2061 PUSH1 0x44 DUP3 ADD MSTORE PUSH6 0x646472657373 PUSH1 0xD0 SHL PUSH1 0x64 DUP3 ADD MSTORE PUSH1 0x84 ADD PUSH2 0x64F JUMP JUMPDEST PUSH2 0x25D2 DUP2 PUSH2 0x2BEA JUMP JUMPDEST POP JUMP JUMPDEST PUSH1 0x65 SLOAD PUSH1 0x1 PUSH1 0x1 PUSH1 0xA0 SHL SUB AND CALLER EQ PUSH2 0x25FF JUMPI PUSH1 0x40 MLOAD PUSH3 0x461BCD PUSH1 0xE5 SHL DUP2 MSTORE PUSH1 0x4 ADD PUSH2 0x64F SWAP1 PUSH2 0x3304 JUMP JUMPDEST PUSH1 0xA1 SLOAD DUP3 SWAP1 DUP2 LT PUSH2 0x2622 JUMPI PUSH1 0x40 MLOAD PUSH3 0x461BCD PUSH1 0xE5 SHL DUP2 MSTORE PUSH1 0x4 ADD PUSH2 0x64F SWAP1 PUSH2 0x3339 JUMP JUMPDEST PUSH1 0x0 PUSH1 0xA1 DUP5 DUP2 SLOAD DUP2 LT PUSH2 0x2637 JUMPI PUSH2 0x2637 PUSH2 0x3370 JUMP JUMPDEST PUSH1 0x0 SWAP2 DUP3 MSTORE PUSH1 0x20 SWAP1 SWAP2 KECCAK256 PUSH1 0x5 SWAP1 SWAP2 MUL ADD PUSH1 0x1 ADD SLOAD PUSH1 0x40 MLOAD PUSH4 0x6EB1769F PUSH1 0xE1 SHL DUP2 MSTORE CALLER PUSH1 0x4 DUP3 ADD MSTORE ADDRESS PUSH1 0x24 DUP3 ADD MSTORE PUSH1 0x1 PUSH1 0x1 PUSH1 0xA0 SHL SUB SWAP1 SWAP2 AND SWAP2 POP DUP4 SWAP1 DUP3 SWAP1 PUSH4 0xDD62ED3E SWAP1 PUSH1 0x44 ADD PUSH1 0x20 PUSH1 0x40 MLOAD DUP1 DUP4 SUB DUP2 DUP7 GAS STATICCALL ISZERO DUP1 ISZERO PUSH2 0x269B JUMPI RETURNDATASIZE PUSH1 0x0 DUP1 RETURNDATACOPY RETURNDATASIZE PUSH1 0x0 REVERT JUMPDEST POP POP POP POP PUSH1 0x40 MLOAD RETURNDATASIZE PUSH1 0x1F NOT PUSH1 0x1F DUP3 ADD AND DUP3 ADD DUP1 PUSH1 0x40 MSTORE POP DUP2 ADD SWAP1 PUSH2 0x26BF SWAP2 SWAP1 PUSH2 0x3444 JUMP JUMPDEST LT ISZERO PUSH2 0x270D JUMPI PUSH1 0x40 MLOAD PUSH3 0x461BCD PUSH1 0xE5 SHL DUP2 MSTORE PUSH1 0x20 PUSH1 0x4 DUP3 ADD MSTORE PUSH1 0x1C PUSH1 0x24 DUP3 ADD MSTORE PUSH32 0x5374616B696E673A204D75737420616C6C6F77205370656E64696E6700000000 PUSH1 0x44 DUP3 ADD MSTORE PUSH1 0x64 ADD PUSH2 0x64F JUMP JUMPDEST PUSH1 0x40 MLOAD PUSH4 0x23B872DD PUSH1 0xE0 SHL DUP2 MSTORE PUSH1 0x1 PUSH1 0x1 PUSH1 0xA0 SHL SUB DUP3 AND SWAP1 PUSH4 0x23B872DD SWAP1 PUSH2 0x273D SWAP1 CALLER SWAP1 ADDRESS SWAP1 DUP9 SWAP1 PUSH1 0x4 ADD PUSH2 0x345D JUMP JUMPDEST PUSH1 0x20 PUSH1 0x40 MLOAD DUP1 DUP4 SUB DUP2 PUSH1 0x0 DUP8 GAS CALL ISZERO DUP1 ISZERO PUSH2 0x275C JUMPI RETURNDATASIZE PUSH1 0x0 DUP1 RETURNDATACOPY RETURNDATASIZE PUSH1 0x0 REVERT JUMPDEST POP POP POP POP PUSH1 0x40 MLOAD RETURNDATASIZE PUSH1 0x1F NOT PUSH1 0x1F DUP3 ADD AND DUP3 ADD DUP1 PUSH1 0x40 MSTORE POP DUP2 ADD SWAP1 PUSH2 0x2780 SWAP2 SWAP1 PUSH2 0x3481 JUMP JUMPDEST POP DUP3 PUSH1 0xA1 DUP6 DUP2 SLOAD DUP2 LT PUSH2 0x2795 JUMPI PUSH2 0x2795 PUSH2 0x3370 JUMP JUMPDEST SWAP1 PUSH1 0x0 MSTORE PUSH1 0x20 PUSH1 0x0 KECCAK256 SWAP1 PUSH1 0x5 MUL ADD PUSH1 0x3 ADD PUSH1 0x0 DUP3 DUP3 SLOAD PUSH2 0x17B5 SWAP2 SWAP1 PUSH2 0x349E JUMP JUMPDEST PUSH1 0x0 DUP1 PUSH1 0x1 PUSH1 0x1 PUSH1 0xA0 SHL SUB DUP6 AND PUSH2 0x27D9 JUMPI PUSH1 0x0 DUP5 DUP2 MSTORE PUSH1 0xA0 PUSH1 0x20 MSTORE PUSH1 0x40 SWAP1 KECCAK256 PUSH2 0x27FD JUMP JUMPDEST PUSH1 0x1 PUSH1 0x1 PUSH1 0xA0 SHL SUB DUP6 AND PUSH1 0x0 SWAP1 DUP2 MSTORE PUSH1 0x9E PUSH1 0x20 SWAP1 DUP2 MSTORE PUSH1 0x40 DUP1 DUP4 KECCAK256 DUP8 DUP5 MSTORE SWAP1 SWAP2 MSTORE SWAP1 KECCAK256 JUMPDEST PUSH1 0x40 DUP1 MLOAD PUSH2 0x120 DUP2 ADD DUP3 MSTORE DUP3 SLOAD DUP2 MSTORE PUSH1 0x1 DUP4 ADD SLOAD PUSH1 0x20 DUP3 ADD DUP2 SWAP1 MSTORE PUSH1 0x2 DUP5 ADD SLOAD SWAP3 DUP3 ADD SWAP3 SWAP1 SWAP3 MSTORE PUSH1 0x3 DUP4 ADD SLOAD PUSH1 0x60 DUP3 ADD MSTORE PUSH1 0x4 DUP4 ADD SLOAD PUSH1 0x80 DUP3 ADD MSTORE PUSH1 0x5 DUP4 ADD SLOAD PUSH1 0xA0 DUP3 ADD MSTORE PUSH1 0x6 DUP4 ADD SLOAD PUSH1 0xC0 DUP3 ADD MSTORE PUSH1 0x7 DUP4 ADD SLOAD PUSH1 0xE0 DUP3 ADD MSTORE PUSH1 0x8 SWAP1 SWAP3 ADD SLOAD PUSH2 0x100 DUP4 ADD MSTORE SWAP1 SWAP2 POP ISZERO PUSH2 0x2970 JUMPI PUSH1 0xA4 SLOAD PUSH1 0xFF AND ISZERO PUSH2 0x28ED JUMPI PUSH1 0xA5 SLOAD DUP2 PUSH1 0xA0 ADD MLOAD GT ISZERO PUSH2 0x288C JUMPI PUSH1 0x0 SWAP2 POP PUSH2 0x2975 JUMP JUMPDEST PUSH2 0x28E6 PUSH2 0x28B1 PUSH2 0x3E8 PUSH2 0x28AB PUSH1 0x64 PUSH1 0x98 SLOAD PUSH2 0x2DCF SWAP1 SWAP2 SWAP1 PUSH4 0xFFFFFFFF AND JUMP JUMPDEST SWAP1 PUSH2 0x2DCF JUMP JUMPDEST PUSH2 0x28E0 PUSH2 0x28CD DUP5 PUSH1 0xA0 ADD MLOAD PUSH1 0xA5 SLOAD PUSH2 0x2DE2 SWAP1 SWAP2 SWAP1 PUSH4 0xFFFFFFFF AND JUMP JUMPDEST PUSH1 0x60 DUP6 ADD MLOAD PUSH1 0x20 DUP7 ADD MLOAD PUSH2 0x28AB SWAP2 PUSH2 0x2DCF JUMP JUMPDEST SWAP1 PUSH2 0x2DEE JUMP JUMPDEST SWAP2 POP PUSH2 0x2975 JUMP JUMPDEST PUSH1 0x0 DUP4 PUSH2 0x28FE JUMPI DUP2 PUSH1 0x60 ADD MLOAD PUSH2 0x291E JUMP JUMPDEST PUSH1 0xC0 DUP3 ADD MLOAD PUSH1 0x0 SWAP1 DUP2 MSTORE PUSH1 0x9C PUSH1 0x20 SWAP1 DUP2 MSTORE PUSH1 0x40 DUP1 DUP4 KECCAK256 DUP4 DUP1 MSTORE SWAP1 SWAP2 MSTORE SWAP1 KECCAK256 SLOAD JUMPDEST SWAP1 POP PUSH2 0x2968 PUSH2 0x293F PUSH2 0x3E8 PUSH2 0x28AB PUSH1 0x64 PUSH1 0x98 SLOAD PUSH2 0x2DCF SWAP1 SWAP2 SWAP1 PUSH4 0xFFFFFFFF AND JUMP JUMPDEST PUSH2 0x28E0 PUSH2 0x2959 DUP6 PUSH1 0xA0 ADD MLOAD TIMESTAMP PUSH2 0x2DE2 SWAP1 SWAP2 SWAP1 PUSH4 0xFFFFFFFF AND JUMP JUMPDEST PUSH1 0x20 DUP7 ADD MLOAD PUSH2 0x28AB SWAP1 DUP7 PUSH2 0x2DCF JUMP JUMPDEST SWAP3 POP POP PUSH2 0x2975 JUMP JUMPDEST PUSH1 0x0 SWAP2 POP JUMPDEST POP SWAP4 SWAP3 POP POP POP JUMP JUMPDEST PUSH1 0x1 PUSH1 0x1 PUSH1 0xA0 SHL SUB DUP3 AND PUSH1 0x0 SWAP1 DUP2 MSTORE PUSH1 0x9E PUSH1 0x20 SWAP1 DUP2 MSTORE PUSH1 0x40 DUP1 DUP4 KECCAK256 DUP5 DUP5 MSTORE DUP3 MSTORE SWAP2 DUP3 SWAP1 KECCAK256 DUP3 MLOAD PUSH2 0x120 DUP2 ADD DUP5 MSTORE DUP2 SLOAD DUP2 MSTORE PUSH1 0x1 DUP3 ADD SLOAD SWAP3 DUP2 ADD DUP4 SWAP1 MSTORE PUSH1 0x2 DUP3 ADD SLOAD SWAP4 DUP2 ADD SWAP4 SWAP1 SWAP4 MSTORE PUSH1 0x3 DUP2 ADD SLOAD PUSH1 0x60 DUP5 ADD MSTORE PUSH1 0x4 DUP2 ADD SLOAD PUSH1 0x80 DUP5 ADD MSTORE PUSH1 0x5 DUP2 ADD SLOAD PUSH1 0xA0 DUP5 ADD MSTORE PUSH1 0x6 DUP2 ADD SLOAD PUSH1 0xC0 DUP5 ADD MSTORE PUSH1 0x7 DUP2 ADD SLOAD PUSH1 0xE0 DUP5 ADD MSTORE PUSH1 0x8 ADD SLOAD PUSH2 0x100 DUP4 ADD MSTORE PUSH2 0x2A45 JUMPI PUSH1 0x40 MLOAD PUSH3 0x461BCD PUSH1 0xE5 SHL DUP2 MSTORE PUSH1 0x20 PUSH1 0x4 DUP3 ADD MSTORE PUSH1 0x15 PUSH1 0x24 DUP3 ADD MSTORE PUSH21 0x2430B93B32B9BA1D102737BA10309039BA30B5B2B9 PUSH1 0x59 SHL PUSH1 0x44 DUP3 ADD MSTORE PUSH1 0x64 ADD PUSH2 0x64F JUMP JUMPDEST PUSH1 0x0 PUSH2 0x2A51 DUP5 DUP5 PUSH2 0x703 JUMP JUMPDEST SWAP1 POP DUP1 ISZERO DUP1 PUSH2 0x2A74 JUMPI POP PUSH1 0xE0 DUP3 ADD MLOAD PUSH1 0x0 SWAP1 DUP2 MSTORE PUSH1 0xA2 PUSH1 0x20 MSTORE PUSH1 0x40 SWAP1 KECCAK256 PUSH1 0x1 ADD SLOAD ISZERO JUMPDEST ISZERO PUSH2 0x2A7F JUMPI POP POP POP POP JUMP JUMPDEST PUSH1 0x9A SLOAD PUSH1 0x40 MLOAD PUSH4 0x70A08231 PUSH1 0xE0 SHL DUP2 MSTORE ADDRESS PUSH1 0x4 DUP3 ADD MSTORE PUSH1 0x0 SWAP2 PUSH1 0x1 PUSH1 0x1 PUSH1 0xA0 SHL SUB AND SWAP1 PUSH4 0x70A08231 SWAP1 PUSH1 0x24 ADD PUSH1 0x20 PUSH1 0x40 MLOAD DUP1 DUP4 SUB DUP2 DUP7 GAS STATICCALL ISZERO DUP1 ISZERO PUSH2 0x2AC8 JUMPI RETURNDATASIZE PUSH1 0x0 DUP1 RETURNDATACOPY RETURNDATASIZE PUSH1 0x0 REVERT JUMPDEST POP POP POP POP PUSH1 0x40 MLOAD RETURNDATASIZE PUSH1 0x1F NOT PUSH1 0x1F DUP3 ADD AND DUP3 ADD DUP1 PUSH1 0x40 MSTORE POP DUP2 ADD SWAP1 PUSH2 0x2AEC SWAP2 SWAP1 PUSH2 0x3444 JUMP JUMPDEST SWAP1 POP DUP1 PUSH1 0x0 SUB PUSH2 0x2AFD JUMPI POP POP POP POP POP JUMP JUMPDEST PUSH1 0xE0 DUP4 ADD MLOAD PUSH1 0x0 SWAP1 DUP2 MSTORE PUSH1 0xA2 PUSH1 0x20 MSTORE PUSH1 0x40 DUP2 KECCAK256 PUSH1 0x1 ADD DUP1 SLOAD DUP5 SWAP3 SWAP1 PUSH2 0x2B23 SWAP1 DUP5 SWAP1 PUSH2 0x33D7 JUMP JUMPDEST SWAP1 SWAP2 SSTORE POP POP PUSH1 0x9A SLOAD PUSH1 0x40 MLOAD PUSH4 0x23B872DD PUSH1 0xE0 SHL DUP2 MSTORE PUSH1 0x1 PUSH1 0x1 PUSH1 0xA0 SHL SUB SWAP1 SWAP2 AND SWAP1 PUSH4 0x23B872DD SWAP1 PUSH2 0x2B5C SWAP1 ADDRESS SWAP1 DUP10 SWAP1 DUP8 SWAP1 PUSH1 0x4 ADD PUSH2 0x345D JUMP JUMPDEST PUSH1 0x20 PUSH1 0x40 MLOAD DUP1 DUP4 SUB DUP2 PUSH1 0x0 DUP8 GAS CALL ISZERO DUP1 ISZERO PUSH2 0x2B7B JUMPI RETURNDATASIZE PUSH1 0x0 DUP1 RETURNDATACOPY RETURNDATASIZE PUSH1 0x0 REVERT JUMPDEST POP POP POP POP PUSH1 0x40 MLOAD RETURNDATASIZE PUSH1 0x1F NOT PUSH1 0x1F DUP3 ADD AND DUP3 ADD DUP1 PUSH1 0x40 MSTORE POP DUP2 ADD SWAP1 PUSH2 0x2B9F SWAP2 SWAP1 PUSH2 0x3481 JUMP JUMPDEST POP DUP5 PUSH1 0x1 PUSH1 0x1 PUSH1 0xA0 SHL SUB AND PUSH32 0xC9695243A805ADB74C91F28311176C65B417E842D5699893CEF56D18BFA48CBA DUP4 PUSH1 0x40 MLOAD PUSH2 0x2BDB SWAP2 DUP2 MSTORE PUSH1 0x20 ADD SWAP1 JUMP JUMPDEST PUSH1 0x40 MLOAD DUP1 SWAP2 SUB SWAP1 LOG2 POP POP POP POP POP JUMP JUMPDEST PUSH1 0x65 DUP1 SLOAD PUSH1 0x1 PUSH1 0x1 PUSH1 0xA0 SHL SUB DUP4 DUP2 AND PUSH1 0x1 PUSH1 0x1 PUSH1 0xA0 SHL SUB NOT DUP4 AND DUP2 OR SWAP1 SWAP4 SSTORE PUSH1 0x40 MLOAD SWAP2 AND SWAP2 SWAP1 DUP3 SWAP1 PUSH32 0x8BE0079C531659141344CD1FD0A4F28419497F9722A3DAAFE3B4186F6B6457E0 SWAP1 PUSH1 0x0 SWAP1 LOG3 POP POP JUMP JUMPDEST PUSH1 0x0 DUP1 SLOAD PUSH2 0x100 SWAP1 DIV PUSH1 0xFF AND ISZERO PUSH2 0x2C83 JUMPI DUP2 PUSH1 0xFF AND PUSH1 0x1 EQ DUP1 ISZERO PUSH2 0x2C5F JUMPI POP ADDRESS EXTCODESIZE ISZERO JUMPDEST PUSH2 0x2C7B JUMPI PUSH1 0x40 MLOAD PUSH3 0x461BCD PUSH1 0xE5 SHL DUP2 MSTORE PUSH1 0x4 ADD PUSH2 0x64F SWAP1 PUSH2 0x35FB JUMP JUMPDEST POP PUSH1 0x0 SWAP2 SWAP1 POP JUMP JUMPDEST PUSH1 0x0 SLOAD PUSH1 0xFF DUP1 DUP5 AND SWAP2 AND LT PUSH2 0x2CAA JUMPI PUSH1 0x40 MLOAD PUSH3 0x461BCD PUSH1 0xE5 SHL DUP2 MSTORE PUSH1 0x4 ADD PUSH2 0x64F SWAP1 PUSH2 0x35FB JUMP JUMPDEST POP PUSH1 0x0 DUP1 SLOAD PUSH1 0xFF NOT AND PUSH1 0xFF SWAP3 SWAP1 SWAP3 AND SWAP2 SWAP1 SWAP2 OR SWAP1 SSTORE PUSH1 0x1 SWAP1 JUMP JUMPDEST SWAP2 SWAP1 POP JUMP JUMPDEST PUSH1 0x0 SLOAD PUSH2 0x100 SWAP1 DIV PUSH1 0xFF AND PUSH2 0x1029 JUMPI PUSH1 0x40 MLOAD PUSH3 0x461BCD PUSH1 0xE5 SHL DUP2 MSTORE PUSH1 0x4 ADD PUSH2 0x64F SWAP1 PUSH2 0x3649 JUMP JUMPDEST PUSH1 0x0 SLOAD PUSH2 0x100 SWAP1 DIV PUSH1 0xFF AND PUSH2 0x2D17 JUMPI PUSH1 0x40 MLOAD PUSH3 0x461BCD PUSH1 0xE5 SHL DUP2 MSTORE PUSH1 0x4 ADD PUSH2 0x64F SWAP1 PUSH2 0x3649 JUMP JUMPDEST PUSH2 0x1029 PUSH2 0x2DFA JUMP JUMPDEST PUSH1 0x0 SLOAD PUSH2 0x100 SWAP1 DIV PUSH1 0xFF AND PUSH2 0x2D46 JUMPI PUSH1 0x40 MLOAD PUSH3 0x461BCD PUSH1 0xE5 SHL DUP2 MSTORE PUSH1 0x4 ADD PUSH2 0x64F SWAP1 PUSH2 0x3649 JUMP JUMPDEST PUSH2 0x1029 PUSH2 0x2E2A JUMP JUMPDEST PUSH1 0x0 PUSH1 0xA6 DUP2 SWAP1 SSTORE JUMPDEST DUP2 MLOAD DUP2 LT ISZERO PUSH2 0x2DCB JUMPI DUP2 DUP2 DUP2 MLOAD DUP2 LT PUSH2 0x2D71 JUMPI PUSH2 0x2D71 PUSH2 0x3370 JUMP JUMPDEST PUSH1 0x20 MUL PUSH1 0x20 ADD ADD MLOAD PUSH1 0x0 EQ PUSH2 0x2D9F JUMPI DUP2 DUP2 DUP2 MLOAD DUP2 LT PUSH2 0x2D92 JUMPI PUSH2 0x2D92 PUSH2 0x3370 JUMP JUMPDEST PUSH1 0x20 MUL PUSH1 0x20 ADD ADD MLOAD PUSH2 0x2DA2 JUMP JUMPDEST PUSH1 0x1 JUMPDEST PUSH1 0xA6 PUSH1 0x0 DUP3 DUP3 SLOAD PUSH2 0x2DB3 SWAP2 SWAP1 PUSH2 0x349E JUMP JUMPDEST SWAP1 SWAP2 SSTORE POP DUP2 SWAP1 POP PUSH2 0x2DC3 DUP2 PUSH2 0x339C JUMP JUMPDEST SWAP2 POP POP PUSH2 0x2D56 JUMP JUMPDEST POP POP JUMP JUMPDEST PUSH1 0x0 PUSH2 0x2DDB DUP3 DUP5 PUSH2 0x33EE JUMP JUMPDEST SWAP4 SWAP3 POP POP POP JUMP JUMPDEST PUSH1 0x0 PUSH2 0x2DDB DUP3 DUP5 PUSH2 0x33D7 JUMP JUMPDEST PUSH1 0x0 PUSH2 0x2DDB DUP3 DUP5 PUSH2 0x33B5 JUMP JUMPDEST PUSH1 0x0 SLOAD PUSH2 0x100 SWAP1 DIV PUSH1 0xFF AND PUSH2 0x2E21 JUMPI PUSH1 0x40 MLOAD PUSH3 0x461BCD PUSH1 0xE5 SHL DUP2 MSTORE PUSH1 0x4 ADD PUSH2 0x64F SWAP1 PUSH2 0x3649 JUMP JUMPDEST PUSH2 0x1029 CALLER PUSH2 0x2BEA JUMP JUMPDEST PUSH1 0x0 SLOAD PUSH2 0x100 SWAP1 DIV PUSH1 0xFF AND PUSH2 0x2E51 JUMPI PUSH1 0x40 MLOAD PUSH3 0x461BCD PUSH1 0xE5 SHL DUP2 MSTORE PUSH1 0x4 ADD PUSH2 0x64F SWAP1 PUSH2 0x3649 JUMP JUMPDEST PUSH1 0x1 DUP1 SSTORE JUMP JUMPDEST DUP3 DUP1 SLOAD DUP3 DUP3 SSTORE SWAP1 PUSH1 0x0 MSTORE PUSH1 0x20 PUSH1 0x0 KECCAK256 SWAP1 DUP2 ADD SWAP3 DUP3 ISZERO PUSH2 0x2E92 JUMPI SWAP2 PUSH1 0x20 MUL DUP3 ADD JUMPDEST DUP3 DUP2 GT ISZERO PUSH2 0x2E92 JUMPI DUP3 MLOAD DUP3 SSTORE SWAP2 PUSH1 0x20 ADD SWAP2 SWAP1 PUSH1 0x1 ADD SWAP1 PUSH2 0x2E77 JUMP JUMPDEST POP PUSH2 0x2E9E SWAP3 SWAP2 POP PUSH2 0x2EA2 JUMP JUMPDEST POP SWAP1 JUMP JUMPDEST JUMPDEST DUP1 DUP3 GT ISZERO PUSH2 0x2E9E JUMPI PUSH1 0x0 DUP2 SSTORE PUSH1 0x1 ADD PUSH2 0x2EA3 JUMP JUMPDEST PUSH4 0x4E487B71 PUSH1 0xE0 SHL PUSH1 0x0 MSTORE PUSH1 0x41 PUSH1 0x4 MSTORE PUSH1 0x24 PUSH1 0x0 REVERT JUMPDEST PUSH1 0x40 DUP1 MLOAD SWAP1 DUP2 ADD PUSH8 0xFFFFFFFFFFFFFFFF DUP2 GT DUP3 DUP3 LT OR ISZERO PUSH2 0x2EF0 JUMPI PUSH2 0x2EF0 PUSH2 0x2EB7 JUMP JUMPDEST PUSH1 0x40 MSTORE SWAP1 JUMP JUMPDEST PUSH1 0x40 MLOAD PUSH1 0x1F DUP3 ADD PUSH1 0x1F NOT AND DUP2 ADD PUSH8 0xFFFFFFFFFFFFFFFF DUP2 GT DUP3 DUP3 LT OR ISZERO PUSH2 0x2F1F JUMPI PUSH2 0x2F1F PUSH2 0x2EB7 JUMP JUMPDEST PUSH1 0x40 MSTORE SWAP2 SWAP1 POP JUMP JUMPDEST PUSH1 0x0 PUSH8 0xFFFFFFFFFFFFFFFF DUP3 GT ISZERO PUSH2 0x2F41 JUMPI PUSH2 0x2F41 PUSH2 0x2EB7 JUMP JUMPDEST POP PUSH1 0x5 SHL PUSH1 0x20 ADD SWAP1 JUMP JUMPDEST PUSH1 0x0 DUP3 PUSH1 0x1F DUP4 ADD SLT PUSH2 0x2F5C JUMPI PUSH1 0x0 DUP1 REVERT JUMPDEST DUP2 CALLDATALOAD PUSH1 0x20 PUSH2 0x2F71 PUSH2 0x2F6C DUP4 PUSH2 0x2F27 JUMP JUMPDEST PUSH2 0x2EF6 JUMP JUMPDEST DUP3 DUP2 MSTORE PUSH1 0x6 SWAP3 SWAP1 SWAP3 SHL DUP5 ADD DUP2 ADD SWAP2 DUP2 DUP2 ADD SWAP1 DUP7 DUP5 GT ISZERO PUSH2 0x2F90 JUMPI PUSH1 0x0 DUP1 REVERT JUMPDEST DUP3 DUP7 ADD JUMPDEST DUP5 DUP2 LT ISZERO PUSH2 0x2FCF JUMPI PUSH1 0x40 DUP2 DUP10 SUB SLT ISZERO PUSH2 0x2FAD JUMPI PUSH1 0x0 DUP1 DUP2 REVERT JUMPDEST PUSH2 0x2FB5 PUSH2 0x2ECD JUMP JUMPDEST DUP2 CALLDATALOAD DUP2 MSTORE DUP5 DUP3 ADD CALLDATALOAD DUP6 DUP3 ADD MSTORE DUP4 MSTORE SWAP2 DUP4 ADD SWAP2 PUSH1 0x40 ADD PUSH2 0x2F94 JUMP JUMPDEST POP SWAP7 SWAP6 POP POP POP POP POP POP JUMP JUMPDEST PUSH1 0x0 DUP1 PUSH1 0x40 DUP4 DUP6 SUB SLT ISZERO PUSH2 0x2FED JUMPI PUSH1 0x0 DUP1 REVERT JUMPDEST DUP3 CALLDATALOAD SWAP2 POP PUSH1 0x20 DUP4 ADD CALLDATALOAD PUSH8 0xFFFFFFFFFFFFFFFF DUP2 GT ISZERO PUSH2 0x300B JUMPI PUSH1 0x0 DUP1 REVERT JUMPDEST PUSH2 0x3017 DUP6 DUP3 DUP7 ADD PUSH2 0x2F4B JUMP JUMPDEST SWAP2 POP POP SWAP3 POP SWAP3 SWAP1 POP JUMP JUMPDEST PUSH1 0x0 DUP1 PUSH1 0x40 DUP4 DUP6 SUB SLT ISZERO PUSH2 0x3034 JUMPI PUSH1 0x0 DUP1 REVERT JUMPDEST POP POP DUP1 CALLDATALOAD SWAP3 PUSH1 0x20 SWAP1 SWAP2 ADD CALLDATALOAD SWAP2 POP JUMP JUMPDEST PUSH1 0x1 PUSH1 0x1 PUSH1 0xA0 SHL SUB DUP2 AND DUP2 EQ PUSH2 0x25D2 JUMPI PUSH1 0x0 DUP1 REVERT JUMPDEST PUSH1 0x0 DUP1 PUSH1 0x40 DUP4 DUP6 SUB SLT ISZERO PUSH2 0x306B JUMPI PUSH1 0x0 DUP1 REVERT JUMPDEST DUP3 CALLDATALOAD PUSH2 0x3076 DUP2 PUSH2 0x3043 JUMP JUMPDEST SWAP5 PUSH1 0x20 SWAP4 SWAP1 SWAP4 ADD CALLDATALOAD SWAP4 POP POP POP JUMP JUMPDEST DUP1 ISZERO ISZERO DUP2 EQ PUSH2 0x25D2 JUMPI PUSH1 0x0 DUP1 REVERT JUMPDEST PUSH1 0x0 DUP1 PUSH1 0x0 PUSH1 0x60 DUP5 DUP7 SUB SLT ISZERO PUSH2 0x30A7 JUMPI PUSH1 0x0 DUP1 REVERT JUMPDEST DUP4 CALLDATALOAD SWAP3 POP PUSH1 0x20 DUP5 ADD CALLDATALOAD SWAP2 POP PUSH1 0x40 DUP5 ADD CALLDATALOAD PUSH2 0x30C0 DUP2 PUSH2 0x3084 JUMP JUMPDEST DUP1 SWAP2 POP POP SWAP3 POP SWAP3 POP SWAP3 JUMP JUMPDEST PUSH1 0x0 DUP1 PUSH1 0x0 PUSH1 0x60 DUP5 DUP7 SUB SLT ISZERO PUSH2 0x30E0 JUMPI PUSH1 0x0 DUP1 REVERT JUMPDEST DUP4 CALLDATALOAD PUSH2 0x30EB DUP2 PUSH2 0x3043 JUMP JUMPDEST SWAP3 POP PUSH1 0x20 DUP5 ADD CALLDATALOAD PUSH2 0x30FB DUP2 PUSH2 0x3043 JUMP JUMPDEST SWAP2 POP PUSH1 0x40 DUP5 ADD CALLDATALOAD PUSH8 0xFFFFFFFFFFFFFFFF DUP2 GT ISZERO PUSH2 0x3117 JUMPI PUSH1 0x0 DUP1 REVERT JUMPDEST PUSH2 0x3123 DUP7 DUP3 DUP8 ADD PUSH2 0x2F4B JUMP JUMPDEST SWAP2 POP POP SWAP3 POP SWAP3 POP SWAP3 JUMP JUMPDEST PUSH1 0x0 PUSH1 0x20 DUP3 DUP5 SUB SLT ISZERO PUSH2 0x313F JUMPI PUSH1 0x0 DUP1 REVERT JUMPDEST DUP2 CALLDATALOAD PUSH2 0x2DDB DUP2 PUSH2 0x3043 JUMP JUMPDEST PUSH1 0x20 DUP1 DUP3 MSTORE DUP3 MLOAD DUP3 DUP3 ADD DUP2 SWAP1 MSTORE PUSH1 0x0 SWAP2 SWAP1 PUSH1 0x40 SWAP1 DUP2 DUP6 ADD SWAP1 DUP7 DUP5 ADD DUP6 JUMPDEST DUP3 DUP2 LT ISZERO PUSH2 0x31D5 JUMPI DUP2 MLOAD DUP1 MLOAD DUP6 MSTORE DUP7 DUP2 ADD MLOAD DUP8 DUP7 ADD MSTORE DUP6 DUP2 ADD MLOAD DUP7 DUP7 ADD MSTORE PUSH1 0x60 DUP1 DUP3 ADD MLOAD SWAP1 DUP7 ADD MSTORE PUSH1 0x80 DUP1 DUP3 ADD MLOAD SWAP1 DUP7 ADD MSTORE PUSH1 0xA0 DUP1 DUP3 ADD MLOAD SWAP1 DUP7 ADD MSTORE PUSH1 0xC0 DUP1 DUP3 ADD MLOAD SWAP1 DUP7 ADD MSTORE PUSH1 0xE0 DUP1 DUP3 ADD MLOAD SWAP1 DUP7 ADD MSTORE PUSH2 0x100 SWAP1 DUP2 ADD MLOAD SWAP1 DUP6 ADD MSTORE PUSH2 0x120 SWAP1 SWAP4 ADD SWAP3 SWAP1 DUP6 ADD SWAP1 PUSH1 0x1 ADD PUSH2 0x3167 JUMP JUMPDEST POP SWAP2 SWAP8 SWAP7 POP POP POP POP POP POP POP JUMP JUMPDEST PUSH1 0x0 PUSH1 0x20 DUP3 DUP5 SUB SLT ISZERO PUSH2 0x31F4 JUMPI PUSH1 0x0 DUP1 REVERT JUMPDEST POP CALLDATALOAD SWAP2 SWAP1 POP JUMP JUMPDEST PUSH1 0x0 DUP1 PUSH1 0x0 PUSH1 0x60 DUP5 DUP7 SUB SLT ISZERO PUSH2 0x3210 JUMPI PUSH1 0x0 DUP1 REVERT JUMPDEST POP POP DUP2 CALLDATALOAD SWAP4 PUSH1 0x20 DUP4 ADD CALLDATALOAD SWAP4 POP PUSH1 0x40 SWAP1 SWAP3 ADD CALLDATALOAD SWAP2 SWAP1 POP JUMP JUMPDEST PUSH1 0x0 DUP1 PUSH1 0x0 PUSH1 0x60 DUP5 DUP7 SUB SLT ISZERO PUSH2 0x323C JUMPI PUSH1 0x0 DUP1 REVERT JUMPDEST DUP4 CALLDATALOAD PUSH2 0x3247 DUP2 PUSH2 0x3043 JUMP JUMPDEST SWAP3 POP PUSH1 0x20 DUP5 ADD CALLDATALOAD SWAP2 POP PUSH1 0x40 DUP5 ADD CALLDATALOAD PUSH2 0x30C0 DUP2 PUSH2 0x3084 JUMP JUMPDEST PUSH1 0x0 DUP1 PUSH1 0x40 DUP4 DUP6 SUB SLT ISZERO PUSH2 0x3271 JUMPI PUSH1 0x0 DUP1 REVERT JUMPDEST DUP3 CALLDATALOAD PUSH2 0x327C DUP2 PUSH2 0x3043 JUMP JUMPDEST SWAP2 POP PUSH1 0x20 DUP4 DUP2 ADD CALLDATALOAD PUSH8 0xFFFFFFFFFFFFFFFF DUP2 GT ISZERO PUSH2 0x3299 JUMPI PUSH1 0x0 DUP1 REVERT JUMPDEST DUP5 ADD PUSH1 0x1F DUP2 ADD DUP7 SGT PUSH2 0x32AA JUMPI PUSH1 0x0 DUP1 REVERT JUMPDEST DUP1 CALLDATALOAD PUSH2 0x32B8 PUSH2 0x2F6C DUP3 PUSH2 0x2F27 JUMP JUMPDEST DUP2 DUP2 MSTORE PUSH1 0x5 SWAP2 SWAP1 SWAP2 SHL DUP3 ADD DUP4 ADD SWAP1 DUP4 DUP2 ADD SWAP1 DUP9 DUP4 GT ISZERO PUSH2 0x32D7 JUMPI PUSH1 0x0 DUP1 REVERT JUMPDEST SWAP3 DUP5 ADD SWAP3 JUMPDEST DUP3 DUP5 LT ISZERO PUSH2 0x32F5 JUMPI DUP4 CALLDATALOAD DUP3 MSTORE SWAP3 DUP5 ADD SWAP3 SWAP1 DUP5 ADD SWAP1 PUSH2 0x32DC JUMP JUMPDEST DUP1 SWAP6 POP POP POP POP POP POP SWAP3 POP SWAP3 SWAP1 POP JUMP JUMPDEST PUSH1 0x20 DUP1 DUP3 MSTORE DUP2 DUP2 ADD MSTORE PUSH32 0x4F776E61626C653A2063616C6C6572206973206E6F7420746865206F776E6572 PUSH1 0x40 DUP3 ADD MSTORE PUSH1 0x60 ADD SWAP1 JUMP JUMPDEST PUSH1 0x20 DUP1 DUP3 MSTORE PUSH1 0x1C SWAP1 DUP3 ADD MSTORE PUSH32 0x5374616B696E673A20506F6F6C20646F65736E27742065786973747300000000 PUSH1 0x40 DUP3 ADD MSTORE PUSH1 0x60 ADD SWAP1 JUMP JUMPDEST PUSH4 0x4E487B71 PUSH1 0xE0 SHL PUSH1 0x0 MSTORE PUSH1 0x32 PUSH1 0x4 MSTORE PUSH1 0x24 PUSH1 0x0 REVERT JUMPDEST PUSH4 0x4E487B71 PUSH1 0xE0 SHL PUSH1 0x0 MSTORE PUSH1 0x11 PUSH1 0x4 MSTORE PUSH1 0x24 PUSH1 0x0 REVERT JUMPDEST PUSH1 0x0 PUSH1 0x1 DUP3 ADD PUSH2 0x33AE JUMPI PUSH2 0x33AE PUSH2 0x3386 JUMP JUMPDEST POP PUSH1 0x1 ADD SWAP1 JUMP JUMPDEST PUSH1 0x0 DUP3 PUSH2 0x33D2 JUMPI PUSH4 0x4E487B71 PUSH1 0xE0 SHL PUSH1 0x0 MSTORE PUSH1 0x12 PUSH1 0x4 MSTORE PUSH1 0x24 PUSH1 0x0 REVERT JUMPDEST POP DIV SWAP1 JUMP JUMPDEST PUSH1 0x0 DUP3 DUP3 LT ISZERO PUSH2 0x33E9 JUMPI PUSH2 0x33E9 PUSH2 0x3386 JUMP JUMPDEST POP SUB SWAP1 JUMP JUMPDEST PUSH1 0x0 DUP2 PUSH1 0x0 NOT DIV DUP4 GT DUP3 ISZERO ISZERO AND ISZERO PUSH2 0x3408 JUMPI PUSH2 0x3408 PUSH2 0x3386 JUMP JUMPDEST POP MUL SWAP1 JUMP JUMPDEST PUSH1 0x20 DUP1 DUP3 MSTORE PUSH1 0x1F SWAP1 DUP3 ADD MSTORE PUSH32 0x5265656E7472616E637947756172643A207265656E7472616E742063616C6C00 PUSH1 0x40 DUP3 ADD MSTORE PUSH1 0x60 ADD SWAP1 JUMP JUMPDEST PUSH1 0x0 PUSH1 0x20 DUP3 DUP5 SUB SLT ISZERO PUSH2 0x3456 JUMPI PUSH1 0x0 DUP1 REVERT JUMPDEST POP MLOAD SWAP2 SWAP1 POP JUMP JUMPDEST PUSH1 0x1 PUSH1 0x1 PUSH1 0xA0 SHL SUB SWAP4 DUP5 AND DUP2 MSTORE SWAP2 SWAP1 SWAP3 AND PUSH1 0x20 DUP3 ADD MSTORE PUSH1 0x40 DUP2 ADD SWAP2 SWAP1 SWAP2 MSTORE PUSH1 0x60 ADD SWAP1 JUMP JUMPDEST PUSH1 0x0 PUSH1 0x20 DUP3 DUP5 SUB SLT ISZERO PUSH2 0x3493 JUMPI PUSH1 0x0 DUP1 REVERT JUMPDEST DUP2 MLOAD PUSH2 0x2DDB DUP2 PUSH2 0x3084 JUMP JUMPDEST PUSH1 0x0 DUP3 NOT DUP3 GT ISZERO PUSH2 0x34B1 JUMPI PUSH2 0x34B1 PUSH2 0x3386 JUMP JUMPDEST POP ADD SWAP1 JUMP JUMPDEST DUP1 MLOAD PUSH2 0x2CC4 DUP2 PUSH2 0x3043 JUMP JUMPDEST DUP1 MLOAD PUSH3 0xFFFFFF DUP2 AND DUP2 EQ PUSH2 0x2CC4 JUMPI PUSH1 0x0 DUP1 REVERT JUMPDEST DUP1 MLOAD PUSH1 0x2 DUP2 SWAP1 SIGNEXTEND DUP2 EQ PUSH2 0x2CC4 JUMPI PUSH1 0x0 DUP1 REVERT JUMPDEST DUP1 MLOAD PUSH1 0x1 PUSH1 0x1 PUSH1 0x80 SHL SUB DUP2 AND DUP2 EQ PUSH2 0x2CC4 JUMPI PUSH1 0x0 DUP1 REVERT JUMPDEST PUSH1 0x0 DUP1 PUSH1 0x0 DUP1 PUSH1 0x0 DUP1 PUSH1 0x0 DUP1 PUSH1 0x0 DUP1 PUSH1 0x0 DUP1 PUSH2 0x180 DUP14 DUP16 SUB SLT ISZERO PUSH2 0x3520 JUMPI PUSH1 0x0 DUP1 REVERT JUMPDEST DUP13 MLOAD PUSH12 0xFFFFFFFFFFFFFFFFFFFFFFFF DUP2 AND DUP2 EQ PUSH2 0x353C JUMPI PUSH1 0x0 DUP1 REVERT JUMPDEST SWAP12 POP PUSH2 0x354A PUSH1 0x20 DUP15 ADD PUSH2 0x34B6 JUMP JUMPDEST SWAP11 POP PUSH2 0x3558 PUSH1 0x40 DUP15 ADD PUSH2 0x34B6 JUMP JUMPDEST SWAP10 POP PUSH2 0x3566 PUSH1 0x60 DUP15 ADD PUSH2 0x34B6 JUMP JUMPDEST SWAP9 POP PUSH2 0x3574 PUSH1 0x80 DUP15 ADD PUSH2 0x34C1 JUMP JUMPDEST SWAP8 POP PUSH2 0x3582 PUSH1 0xA0 DUP15 ADD PUSH2 0x34D4 JUMP JUMPDEST SWAP7 POP PUSH2 0x3590 PUSH1 0xC0 DUP15 ADD PUSH2 0x34D4 JUMP JUMPDEST SWAP6 POP PUSH2 0x359E PUSH1 0xE0 DUP15 ADD PUSH2 0x34E6 JUMP JUMPDEST SWAP5 POP PUSH2 0x100 DUP14 ADD MLOAD SWAP4 POP PUSH2 0x120 DUP14 ADD MLOAD SWAP3 POP PUSH2 0x35BD PUSH2 0x140 DUP15 ADD PUSH2 0x34E6 JUMP JUMPDEST SWAP2 POP PUSH2 0x35CC PUSH2 0x160 DUP15 ADD PUSH2 0x34E6 JUMP JUMPDEST SWAP1 POP SWAP3 SWAP6 SWAP9 SWAP12 POP SWAP3 SWAP6 SWAP9 SWAP12 POP SWAP3 SWAP6 SWAP9 SWAP12 JUMP JUMPDEST PUSH1 0x0 PUSH1 0x20 DUP3 DUP5 SUB SLT ISZERO PUSH2 0x35F0 JUMPI PUSH1 0x0 DUP1 REVERT JUMPDEST DUP2 MLOAD PUSH2 0x2DDB DUP2 PUSH2 0x3043 JUMP JUMPDEST PUSH1 0x20 DUP1 DUP3 MSTORE PUSH1 0x2E SWAP1 DUP3 ADD MSTORE PUSH32 0x496E697469616C697A61626C653A20636F6E747261637420697320616C726561 PUSH1 0x40 DUP3 ADD MSTORE PUSH14 0x191E481A5B9A5D1A585B1A5E9959 PUSH1 0x92 SHL PUSH1 0x60 DUP3 ADD MSTORE PUSH1 0x80 ADD SWAP1 JUMP JUMPDEST PUSH1 0x20 DUP1 DUP3 MSTORE PUSH1 0x2B SWAP1 DUP3 ADD MSTORE PUSH32 0x496E697469616C697A61626C653A20636F6E7472616374206973206E6F742069 PUSH1 0x40 DUP3 ADD MSTORE PUSH11 0x6E697469616C697A696E67 PUSH1 0xA8 SHL PUSH1 0x60 DUP3 ADD MSTORE PUSH1 0x80 ADD SWAP1 JUMP INVALID LOG2 PUSH5 0x6970667358 0x22 SLT KECCAK256 0xCF XOR 0xC2 0xC4 0x23 COINBASE LOG3 ADD SWAP14 0xEE PUSH7 0x749B9858BBE1DD SHR 0xDD DIFFICULTY SWAP8 DUP11 SHR DUP7 SMOD 0x23 MULMOD PUSH28 0xCB042864736F6C634300080D00330000000000000000000000000000 "
				},
				"gasEstimates": {
					"creation": {
						"codeDepositCost": "2805200",
						"executionCost": "3061",
						"totalCost": "2808261"
					},
					"external": {
						"AdminWETHWithdraw()": "infinite",
						"PRECISION_FACTOR()": "229",
						"PauseStaking()": "50873",
						"ResumeStaking()": "50841",
						"WETH()": "2449",
						"addPool(address,address,(uint256,uint256)[])": "infinite",
						"addRewardToPool(uint256,uint256)": "infinite",
						"calculateReward(address,uint256,bool)": "infinite",
						"depositDetails(uint256)": "19606",
						"deposits(address,uint256)": "19767",
						"getAPR(uint256,uint256)": "2635",
						"getAccMarketFee()": "infinite",
						"getDeposits(address)": "infinite",
						"getHavestAmount(address,uint256)": "infinite",
						"haveSuffecientFundsForReward(uint256)": "infinite",
						"initialize(address,uint256[])": "infinite",
						"isPaused()": "2377",
						"onlyaddress()": "2428",
						"owner()": "2443",
						"pausedTimestamp()": "2329",
						"periodPoolMap(uint256)": "4710",
						"periodSum()": "2352",
						"poolLength()": "2317",
						"pools(uint256)": "13268",
						"receiveWETHFee(uint256)": "infinite",
						"renounceOwnership()": "28229",
						"setOnlyAddress(address)": "26816",
						"stake(uint256,uint256,uint256)": "infinite",
						"tokenPools(address)": "2636",
						"totalReward()": "infinite",
						"transferOwnership(address)": "infinite",
						"updateAPR(uint256,(uint256,uint256)[])": "infinite",
						"userDepositMap(address,uint256)": "4793",
						"vestingAPRPerPool(uint256,uint256)": "2655",
						"withdraw(uint256,uint256,bool)": "infinite",
						"withdrawRewardfromPool(uint256,uint256)": "infinite"
					},
					"internal": {
						"_calculateReward(address,uint256,bool)": "infinite",
						"harvestFee(address,uint256)": "infinite",
						"setPeriodSum(uint256[] memory)": "infinite"
					}
				},
				"methodIdentifiers": {
					"AdminWETHWithdraw()": "2c86714c",
					"PRECISION_FACTOR()": "ccd34cd5",
					"PauseStaking()": "73f64499",
					"ResumeStaking()": "e179b5c3",
					"WETH()": "ad5c4648",
					"addPool(address,address,(uint256,uint256)[])": "88f67d77",
					"addRewardToPool(uint256,uint256)": "f8ce1f31",
					"calculateReward(address,uint256,bool)": "ba41795f",
					"depositDetails(uint256)": "9aaab954",
					"deposits(address,uint256)": "d6d68177",
					"getAPR(uint256,uint256)": "1ee7f3c4",
					"getAccMarketFee()": "b0203a80",
					"getDeposits(address)": "94f649dd",
					"getHavestAmount(address,uint256)": "24a723d4",
					"haveSuffecientFundsForReward(uint256)": "cf5badc6",
					"initialize(address,uint256[])": "e7272866",
					"isPaused()": "b187bd26",
					"onlyaddress()": "110d458e",
					"owner()": "8da5cb5b",
					"pausedTimestamp()": "911ef508",
					"periodPoolMap(uint256)": "c4b91c4d",
					"periodSum()": "82a14459",
					"poolLength()": "081e3eda",
					"pools(uint256)": "ac4afa38",
					"receiveWETHFee(uint256)": "e7c928b1",
					"renounceOwnership()": "715018a6",
					"setOnlyAddress(address)": "a2234080",
					"stake(uint256,uint256,uint256)": "a638f2e2",
					"tokenPools(address)": "c3d2c3c1",
					"totalReward()": "750142e6",
					"transferOwnership(address)": "f2fde38b",
					"updateAPR(uint256,(uint256,uint256)[])": "0c756997",
					"userDepositMap(address,uint256)": "e76ba191",
					"vestingAPRPerPool(uint256,uint256)": "a32a66a7",
					"withdraw(uint256,uint256,bool)": "33cfcd3b",
					"withdrawRewardfromPool(uint256,uint256)": "a54c83f6"
				}
			},
			"storageLayout": {
				"storage": [
					{
						"astId": 130,
						"contract": "LPStaking.sol:LPStakingV3",
						"label": "_initialized",
						"offset": 0,
						"slot": "0",
						"type": "t_uint8"
					},
					{
						"astId": 133,
						"contract": "LPStaking.sol:LPStakingV3",
						"label": "_initializing",
						"offset": 1,
						"slot": "0",
						"type": "t_bool"
					},
					{
						"astId": 279,
						"contract": "LPStaking.sol:LPStakingV3",
						"label": "_status",
						"offset": 0,
						"slot": "1",
						"type": "t_uint256"
					},
					{
						"astId": 323,
						"contract": "LPStaking.sol:LPStakingV3",
						"label": "__gap",
						"offset": 0,
						"slot": "2",
						"type": "t_array(t_uint256)49_storage"
					},
					{
						"astId": 1026,
						"contract": "LPStaking.sol:LPStakingV3",
						"label": "__gap",
						"offset": 0,
						"slot": "51",
						"type": "t_array(t_uint256)50_storage"
					},
					{
						"astId": 10,
						"contract": "LPStaking.sol:LPStakingV3",
						"label": "_owner",
						"offset": 0,
						"slot": "101",
						"type": "t_address"
					},
					{
						"astId": 122,
						"contract": "LPStaking.sol:LPStakingV3",
						"label": "__gap",
						"offset": 0,
						"slot": "102",
						"type": "t_array(t_uint256)49_storage"
					},
					{
						"astId": 1482,
						"contract": "LPStaking.sol:LPStakingV3",
						"label": "_depositIds",
						"offset": 0,
						"slot": "151",
						"type": "t_struct(Counter)1033_storage"
					},
					{
						"astId": 1484,
						"contract": "LPStaking.sol:LPStakingV3",
						"label": "APRTime",
						"offset": 0,
						"slot": "152",
						"type": "t_uint256"
					},
					{
						"astId": 1486,
						"contract": "LPStaking.sol:LPStakingV3",
						"label": "onlyaddress",
						"offset": 0,
						"slot": "153",
						"type": "t_address"
					},
					{
						"astId": 1489,
						"contract": "LPStaking.sol:LPStakingV3",
						"label": "WETH",
						"offset": 0,
						"slot": "154",
						"type": "t_contract(IERC20Upgradeable)402"
					},
					{
						"astId": 1511,
						"contract": "LPStaking.sol:LPStakingV3",
						"label": "uniV3",
						"offset": 0,
						"slot": "155",
						"type": "t_contract(IUNIV3POS)1466"
					},
					{
						"astId": 1522,
						"contract": "LPStaking.sol:LPStakingV3",
						"label": "vestingAPRPerPool",
						"offset": 0,
						"slot": "156",
						"type": "t_mapping(t_uint256,t_mapping(t_uint256,t_uint256))"
					},
					{
						"astId": 1527,
						"contract": "LPStaking.sol:LPStakingV3",
						"label": "tokenPools",
						"offset": 0,
						"slot": "157",
						"type": "t_mapping(t_address,t_bool)"
					},
					{
						"astId": 1534,
						"contract": "LPStaking.sol:LPStakingV3",
						"label": "deposits",
						"offset": 0,
						"slot": "158",
						"type": "t_mapping(t_address,t_mapping(t_uint256,t_struct(stakeDetails)1508_storage))"
					},
					{
						"astId": 1539,
						"contract": "LPStaking.sol:LPStakingV3",
						"label": "userDepositMap",
						"offset": 0,
						"slot": "159",
						"type": "t_mapping(t_address,t_array(t_uint256)dyn_storage)"
					},
					{
						"astId": 1544,
						"contract": "LPStaking.sol:LPStakingV3",
						"label": "depositDetails",
						"offset": 0,
						"slot": "160",
						"type": "t_mapping(t_uint256,t_struct(stakeDetails)1508_storage)"
					},
					{
						"astId": 1612,
						"contract": "LPStaking.sol:LPStakingV3",
						"label": "pools",
						"offset": 0,
						"slot": "161",
						"type": "t_array(t_struct(stakingPool)1603_storage)dyn_storage"
					},
					{
						"astId": 1617,
						"contract": "LPStaking.sol:LPStakingV3",
						"label": "periodPoolMap",
						"offset": 0,
						"slot": "162",
						"type": "t_mapping(t_uint256,t_struct(periodPool)1608_storage)"
					},
					{
						"astId": 1620,
						"contract": "LPStaking.sol:LPStakingV3",
						"label": "periods",
						"offset": 0,
						"slot": "163",
						"type": "t_array(t_uint256)dyn_storage"
					},
					{
						"astId": 1622,
						"contract": "LPStaking.sol:LPStakingV3",
						"label": "isPaused",
						"offset": 0,
						"slot": "164",
						"type": "t_bool"
					},
					{
						"astId": 1624,
						"contract": "LPStaking.sol:LPStakingV3",
						"label": "pausedTimestamp",
						"offset": 0,
						"slot": "165",
						"type": "t_uint256"
					},
					{
						"astId": 1626,
						"contract": "LPStaking.sol:LPStakingV3",
						"label": "periodSum",
						"offset": 0,
						"slot": "166",
						"type": "t_uint256"
					}
				],
				"types": {
					"t_address": {
						"encoding": "inplace",
						"label": "address",
						"numberOfBytes": "20"
					},
					"t_array(t_struct(stakingPool)1603_storage)dyn_storage": {
						"base": "t_struct(stakingPool)1603_storage",
						"encoding": "dynamic_array",
						"label": "struct LPStakingV3.stakingPool[]",
						"numberOfBytes": "32"
					},
					"t_array(t_uint256)49_storage": {
						"base": "t_uint256",
						"encoding": "inplace",
						"label": "uint256[49]",
						"numberOfBytes": "1568"
					},
					"t_array(t_uint256)50_storage": {
						"base": "t_uint256",
						"encoding": "inplace",
						"label": "uint256[50]",
						"numberOfBytes": "1600"
					},
					"t_array(t_uint256)dyn_storage": {
						"base": "t_uint256",
						"encoding": "dynamic_array",
						"label": "uint256[]",
						"numberOfBytes": "32"
					},
					"t_bool": {
						"encoding": "inplace",
						"label": "bool",
						"numberOfBytes": "1"
					},
					"t_contract(IERC20Upgradeable)402": {
						"encoding": "inplace",
						"label": "contract IERC20Upgradeable",
						"numberOfBytes": "20"
					},
					"t_contract(IUNIV3POS)1466": {
						"encoding": "inplace",
						"label": "contract IUNIV3POS",
						"numberOfBytes": "20"
					},
					"t_mapping(t_address,t_array(t_uint256)dyn_storage)": {
						"encoding": "mapping",
						"key": "t_address",
						"label": "mapping(address => uint256[])",
						"numberOfBytes": "32",
						"value": "t_array(t_uint256)dyn_storage"
					},
					"t_mapping(t_address,t_bool)": {
						"encoding": "mapping",
						"key": "t_address",
						"label": "mapping(address => bool)",
						"numberOfBytes": "32",
						"value": "t_bool"
					},
					"t_mapping(t_address,t_mapping(t_uint256,t_struct(stakeDetails)1508_storage))": {
						"encoding": "mapping",
						"key": "t_address",
						"label": "mapping(address => mapping(uint256 => struct LPStakingV3.stakeDetails))",
						"numberOfBytes": "32",
						"value": "t_mapping(t_uint256,t_struct(stakeDetails)1508_storage)"
					},
					"t_mapping(t_uint256,t_mapping(t_uint256,t_uint256))": {
						"encoding": "mapping",
						"key": "t_uint256",
						"label": "mapping(uint256 => mapping(uint256 => uint256))",
						"numberOfBytes": "32",
						"value": "t_mapping(t_uint256,t_uint256)"
					},
					"t_mapping(t_uint256,t_struct(periodPool)1608_storage)": {
						"encoding": "mapping",
						"key": "t_uint256",
						"label": "mapping(uint256 => struct LPStakingV3.periodPool)",
						"numberOfBytes": "32",
						"value": "t_struct(periodPool)1608_storage"
					},
					"t_mapping(t_uint256,t_struct(stakeDetails)1508_storage)": {
						"encoding": "mapping",
						"key": "t_uint256",
						"label": "mapping(uint256 => struct LPStakingV3.stakeDetails)",
						"numberOfBytes": "32",
						"value": "t_struct(stakeDetails)1508_storage"
					},
					"t_mapping(t_uint256,t_uint256)": {
						"encoding": "mapping",
						"key": "t_uint256",
						"label": "mapping(uint256 => uint256)",
						"numberOfBytes": "32",
						"value": "t_uint256"
					},
					"t_struct(Counter)1033_storage": {
						"encoding": "inplace",
						"label": "struct CountersUpgradeable.Counter",
						"members": [
							{
								"astId": 1032,
								"contract": "LPStaking.sol:LPStakingV3",
								"label": "_value",
								"offset": 0,
								"slot": "0",
								"type": "t_uint256"
							}
						],
						"numberOfBytes": "32"
					},
					"t_struct(periodPool)1608_storage": {
						"encoding": "inplace",
						"label": "struct LPStakingV3.periodPool",
						"members": [
							{
								"astId": 1605,
								"contract": "LPStaking.sol:LPStakingV3",
								"label": "tvl",
								"offset": 0,
								"slot": "0",
								"type": "t_uint256"
							},
							{
								"astId": 1607,
								"contract": "LPStaking.sol:LPStakingV3",
								"label": "totalAllotedFeeReward",
								"offset": 0,
								"slot": "1",
								"type": "t_uint256"
							}
						],
						"numberOfBytes": "64"
					},
					"t_struct(stakeDetails)1508_storage": {
						"encoding": "inplace",
						"label": "struct LPStakingV3.stakeDetails",
						"members": [
							{
								"astId": 1491,
								"contract": "LPStaking.sol:LPStakingV3",
								"label": "depositId",
								"offset": 0,
								"slot": "0",
								"type": "t_uint256"
							},
							{
								"astId": 1493,
								"contract": "LPStaking.sol:LPStakingV3",
								"label": "stake",
								"offset": 0,
								"slot": "1",
								"type": "t_uint256"
							},
							{
								"astId": 1495,
								"contract": "LPStaking.sol:LPStakingV3",
								"label": "reward",
								"offset": 0,
								"slot": "2",
								"type": "t_uint256"
							},
							{
								"astId": 1497,
								"contract": "LPStaking.sol:LPStakingV3",
								"label": "APR",
								"offset": 0,
								"slot": "3",
								"type": "t_uint256"
							},
							{
								"astId": 1499,
								"contract": "LPStaking.sol:LPStakingV3",
								"label": "period",
								"offset": 0,
								"slot": "4",
								"type": "t_uint256"
							},
							{
								"astId": 1501,
								"contract": "LPStaking.sol:LPStakingV3",
								"label": "lastRewardCalculated",
								"offset": 0,
								"slot": "5",
								"type": "t_uint256"
							},
							{
								"astId": 1503,
								"contract": "LPStaking.sol:LPStakingV3",
								"label": "poolId",
								"offset": 0,
								"slot": "6",
								"type": "t_uint256"
							},
							{
								"astId": 1505,
								"contract": "LPStaking.sol:LPStakingV3",
								"label": "vestedFor",
								"offset": 0,
								"slot": "7",
								"type": "t_uint256"
							},
							{
								"astId": 1507,
								"contract": "LPStaking.sol:LPStakingV3",
								"label": "NFTId",
								"offset": 0,
								"slot": "8",
								"type": "t_uint256"
							}
						],
						"numberOfBytes": "288"
					},
					"t_struct(stakingPool)1603_storage": {
						"encoding": "inplace",
						"label": "struct LPStakingV3.stakingPool",
						"members": [
							{
								"astId": 1594,
								"contract": "LPStaking.sol:LPStakingV3",
								"label": "token",
								"offset": 0,
								"slot": "0",
								"type": "t_address"
							},
							{
								"astId": 1596,
								"contract": "LPStaking.sol:LPStakingV3",
								"label": "reward",
								"offset": 0,
								"slot": "1",
								"type": "t_address"
							},
							{
								"astId": 1598,
								"contract": "LPStaking.sol:LPStakingV3",
								"label": "tvl",
								"offset": 0,
								"slot": "2",
								"type": "t_uint256"
							},
							{
								"astId": 1600,
								"contract": "LPStaking.sol:LPStakingV3",
								"label": "totalAllotedReward",
								"offset": 0,
								"slot": "3",
								"type": "t_uint256"
							},
							{
								"astId": 1602,
								"contract": "LPStaking.sol:LPStakingV3",
								"label": "totalClaimedReward",
								"offset": 0,
								"slot": "4",
								"type": "t_uint256"
							}
						],
						"numberOfBytes": "160"
					},
					"t_uint256": {
						"encoding": "inplace",
						"label": "uint256",
						"numberOfBytes": "32"
					},
					"t_uint8": {
						"encoding": "inplace",
						"label": "uint8",
						"numberOfBytes": "1"
					}
				}
			},
			"userdoc": {
				"kind": "user",
				"methods": {
					"addPool(address,address,(uint256,uint256)[])": {
						"notice": "This Function will create new pool with the token address,\\ reward address and the APR percentage."
					},
					"addRewardToPool(uint256,uint256)": {
						"notice": "Let's you allot more reward fund in this contract."
					},
					"getHavestAmount(address,uint256)": {
						"notice": "This function will give you total of unclaimed rewards till now."
					},
					"haveSuffecientFundsForReward(uint256)": {
						"notice": "This function will return if it has sufficient fund for paying the reward"
					},
					"initialize(address,uint256[])": {
						"notice": "This method will be called once only by proxy contract to init."
					},
					"poolLength()": {
						"notice": "Get the length of pools and use it to loop for index."
					},
					"receiveWETHFee(uint256)": {
						"notice": "Receive WETH Fee Deposit only admin"
					},
					"stake(uint256,uint256,uint256)": {
						"notice": "This function will update your staked amount."
					},
					"tokenPools(address)": {
						"notice": "mapping to store current status for stakeHolder Explaination:  {      Staker: {           Pool: staking details      }  }"
					},
					"totalReward()": {
						"notice": "This function will give you total of unclaimed rewards till now."
					},
					"updateAPR(uint256,(uint256,uint256)[])": {
						"notice": "Let's you update the APR for this pool if you're current owner."
					},
					"withdraw(uint256,uint256,bool)": {
						"notice": "This function will transfer the reward earned till now and staked token amount."
					},
					"withdrawRewardfromPool(uint256,uint256)": {
						"notice": "Let's you withdraw reward fund in this contract."
					}
				},
				"version": 1
			}
		}
	}
}