{
	"demo.sol": {
		"demoArr": {
			"abi": [
				{
					"inputs": [],
					"name": "WithoutCache",
					"outputs": [],
					"stateMutability": "view",
					"type": "function"
				}
			],
			"devdoc": {
				"kind": "dev",
				"methods": {},
				"version": 1
			},
			"evm": {
				"assembly": "    /* \"demo.sol\":51:74  uint[] arr1=[1,2,3,4,5] */\n  0x0120\n    /* \"demo.sol\":27:223  contract demoArr {... */\n  0x40\n    /* \"demo.sol\":51:74  uint[] arr1=[1,2,3,4,5] */\n  mstore\n    /* \"demo.sol\":64:65  1 */\n  0x01\n    /* \"demo.sol\":27:223  contract demoArr {... */\n  0x80\n    /* \"demo.sol\":51:74  uint[] arr1=[1,2,3,4,5] */\n  swap1\n  dup2\n  mstore\n    /* \"demo.sol\":66:67  2 */\n  0x02\n    /* \"demo.sol\":51:74  uint[] arr1=[1,2,3,4,5] */\n  0xa0\n  mstore\n    /* \"demo.sol\":68:69  3 */\n  0x03\n    /* \"demo.sol\":51:74  uint[] arr1=[1,2,3,4,5] */\n  0xc0\n  mstore\n    /* \"demo.sol\":70:71  4 */\n  0x04\n    /* \"demo.sol\":51:74  uint[] arr1=[1,2,3,4,5] */\n  0xe0\n  mstore\n    /* \"demo.sol\":72:73  5 */\n  0x05\n    /* \"demo.sol\":51:74  uint[] arr1=[1,2,3,4,5] */\n  0x0100\n  dup2\n  swap1\n  mstore\n  tag_1\n  swap2\n  0x00\n  swap2\n  tag_2\n  jump\t// in\ntag_1:\n  pop\n    /* \"demo.sol\":27:223  contract demoArr {... */\n  callvalue\n  dup1\n  iszero\n  tag_3\n  jumpi\n  0x00\n  dup1\n  revert\ntag_3:\n  pop\n  jump(tag_4)\ntag_2:\n  dup3\n  dup1\n  sload\n  dup3\n  dup3\n  sstore\n  swap1\n  0x00\n  mstore\n  keccak256(0x00, 0x20)\n  swap1\n  dup2\n  add\n  swap3\n  dup3\n  iszero\n  tag_7\n  jumpi\n  swap2\n  0x20\n  mul\n  dup3\n  add\ntag_6:\n  dup3\n  dup2\n  gt\n  iszero\n  tag_7\n  jumpi\n  dup3\n  mload\n  dup3\n  swap1\n  0xff\n  and\n  swap1\n  sstore\n  swap2\n  0x20\n  add\n  swap2\n  swap1\n  0x01\n  add\n  swap1\n  jump(tag_6)\ntag_7:\n  pop\n  tag_8\n  swap3\n  swap2\n  pop\n  tag_9\n  jump\t// in\ntag_8:\n  pop\n  swap1\n  jump\t// out\ntag_9:\ntag_10:\n  dup1\n  dup3\n  gt\n  iszero\n  tag_8\n  jumpi\n  0x00\n  dup2\n  sstore\n  0x01\n  add\n  jump(tag_10)\ntag_4:\n  dataSize(sub_0)\n  dup1\n  dataOffset(sub_0)\n  0x00\n  codecopy\n  0x00\n  return\nstop\n\nsub_0: assembly {\n        /* \"demo.sol\":27:223  contract demoArr {... */\n      mstore(0x40, 0x80)\n      callvalue\n      dup1\n      iszero\n      tag_1\n      jumpi\n      0x00\n      dup1\n      revert\n    tag_1:\n      pop\n      jumpi(tag_2, lt(calldatasize, 0x04))\n      shr(0xe0, calldataload(0x00))\n      dup1\n      0x800188cd\n      eq\n      tag_3\n      jumpi\n    tag_2:\n      0x00\n      dup1\n      revert\n        /* \"demo.sol\":81:221  function WithoutCache() public view {... */\n    tag_3:\n      tag_4\n      tag_5\n      jump\t// in\n    tag_4:\n      stop\n    tag_5:\n        /* \"demo.sol\":128:136  uint num */\n      0x00\n      dup1\n        /* \"demo.sol\":147:214  for(uint i=0;i< arr1.length;i++) {... */\n    tag_7:\n        /* \"demo.sol\":163:167  arr1 */\n      0x00\n        /* \"demo.sol\":163:174  arr1.length */\n      sload\n        /* \"demo.sol\":160:174  i< arr1.length */\n      dup2\n      lt\n        /* \"demo.sol\":147:214  for(uint i=0;i< arr1.length;i++) {... */\n      iszero\n      tag_8\n      jumpi\n        /* \"demo.sol\":195:201  num+=i */\n      tag_10\n        /* \"demo.sol\":200:201  i */\n      dup2\n        /* \"demo.sol\":195:201  num+=i */\n      dup4\n      tag_11\n      jump\t// in\n    tag_10:\n      swap2\n      pop\n        /* \"demo.sol\":175:178  i++ */\n      dup1\n      tag_12\n      dup2\n      tag_13\n      jump\t// in\n    tag_12:\n      swap2\n      pop\n      pop\n        /* \"demo.sol\":147:214  for(uint i=0;i< arr1.length;i++) {... */\n      jump(tag_7)\n    tag_8:\n      pop\n        /* \"demo.sol\":117:221  {... */\n      pop\n        /* \"demo.sol\":81:221  function WithoutCache() public view {... */\n      jump\t// out\n        /* \"#utility.yul\":14:141   */\n    tag_14:\n        /* \"#utility.yul\":75:85   */\n      0x4e487b71\n        /* \"#utility.yul\":70:73   */\n      0xe0\n        /* \"#utility.yul\":66:86   */\n      shl\n        /* \"#utility.yul\":63:64   */\n      0x00\n        /* \"#utility.yul\":56:87   */\n      mstore\n        /* \"#utility.yul\":106:110   */\n      0x11\n        /* \"#utility.yul\":103:104   */\n      0x04\n        /* \"#utility.yul\":96:111   */\n      mstore\n        /* \"#utility.yul\":130:134   */\n      0x24\n        /* \"#utility.yul\":127:128   */\n      0x00\n        /* \"#utility.yul\":120:135   */\n      revert\n        /* \"#utility.yul\":146:274   */\n    tag_11:\n        /* \"#utility.yul\":186:189   */\n      0x00\n        /* \"#utility.yul\":217:218   */\n      dup3\n        /* \"#utility.yul\":213:219   */\n      not\n        /* \"#utility.yul\":210:211   */\n      dup3\n        /* \"#utility.yul\":207:220   */\n      gt\n        /* \"#utility.yul\":204:243   */\n      iszero\n      tag_19\n      jumpi\n        /* \"#utility.yul\":223:241   */\n      tag_19\n      tag_14\n      jump\t// in\n    tag_19:\n      pop\n        /* \"#utility.yul\":259:268   */\n      add\n      swap1\n        /* \"#utility.yul\":146:274   */\n      jump\t// out\n        /* \"#utility.yul\":279:414   */\n    tag_13:\n        /* \"#utility.yul\":318:321   */\n      0x00\n        /* \"#utility.yul\":339:356   */\n      0x01\n      dup3\n      add\n        /* \"#utility.yul\":336:379   */\n      tag_22\n      jumpi\n        /* \"#utility.yul\":359:377   */\n      tag_22\n      tag_14\n      jump\t// in\n    tag_22:\n      pop\n        /* \"#utility.yul\":406:407   */\n      0x01\n        /* \"#utility.yul\":395:408   */\n      add\n      swap1\n        /* \"#utility.yul\":279:414   */\n      jump\t// out\n\n    auxdata: 0xa264697066735822122085a7099a9d2b51a619d7cff5a890bcf63ad04c43393e4895c412a4d67a3fe85b64736f6c634300080e0033\n}\n",
				"bytecode": {
					"linkReferences": {},
					"object": "61012060405260016080908152600260a052600360c052600460e052600561010081905261002f91600091610042565b5034801561003c57600080fd5b506100a7565b828054828255906000526020600020908101928215610082579160200282015b82811115610082578251829060ff16905591602001919060010190610062565b5061008e929150610092565b5090565b5b8082111561008e5760008155600101610093565b60d6806100b56000396000f3fe6080604052348015600f57600080fd5b506004361060285760003560e01c8063800188cd14602d575b600080fd5b60336035565b005b6000805b600054811015605b57604a81836075565b915080605481608a565b9150506039565b5050565b634e487b7160e01b600052601160045260246000fd5b600082198211156085576085605f565b500190565b6000600182016099576099605f565b506001019056fea264697066735822122085a7099a9d2b51a619d7cff5a890bcf63ad04c43393e4895c412a4d67a3fe85b64736f6c634300080e0033",
					"opcodes": "PUSH2 0x120 PUSH1 0x40 MSTORE PUSH1 0x1 PUSH1 0x80 SWAP1 DUP2 MSTORE PUSH1 0x2 PUSH1 0xA0 MSTORE PUSH1 0x3 PUSH1 0xC0 MSTORE PUSH1 0x4 PUSH1 0xE0 MSTORE PUSH1 0x5 PUSH2 0x100 DUP2 SWAP1 MSTORE PUSH2 0x2F SWAP2 PUSH1 0x0 SWAP2 PUSH2 0x42 JUMP JUMPDEST POP CALLVALUE DUP1 ISZERO PUSH2 0x3C JUMPI PUSH1 0x0 DUP1 REVERT JUMPDEST POP PUSH2 0xA7 JUMP JUMPDEST DUP3 DUP1 SLOAD DUP3 DUP3 SSTORE SWAP1 PUSH1 0x0 MSTORE PUSH1 0x20 PUSH1 0x0 KECCAK256 SWAP1 DUP2 ADD SWAP3 DUP3 ISZERO PUSH2 0x82 JUMPI SWAP2 PUSH1 0x20 MUL DUP3 ADD JUMPDEST DUP3 DUP2 GT ISZERO PUSH2 0x82 JUMPI DUP3 MLOAD DUP3 SWAP1 PUSH1 0xFF AND SWAP1 SSTORE SWAP2 PUSH1 0x20 ADD SWAP2 SWAP1 PUSH1 0x1 ADD SWAP1 PUSH2 0x62 JUMP JUMPDEST POP PUSH2 0x8E SWAP3 SWAP2 POP PUSH2 0x92 JUMP JUMPDEST POP SWAP1 JUMP JUMPDEST JUMPDEST DUP1 DUP3 GT ISZERO PUSH2 0x8E JUMPI PUSH1 0x0 DUP2 SSTORE PUSH1 0x1 ADD PUSH2 0x93 JUMP JUMPDEST PUSH1 0xD6 DUP1 PUSH2 0xB5 PUSH1 0x0 CODECOPY PUSH1 0x0 RETURN INVALID PUSH1 0x80 PUSH1 0x40 MSTORE CALLVALUE DUP1 ISZERO PUSH1 0xF JUMPI PUSH1 0x0 DUP1 REVERT JUMPDEST POP PUSH1 0x4 CALLDATASIZE LT PUSH1 0x28 JUMPI PUSH1 0x0 CALLDATALOAD PUSH1 0xE0 SHR DUP1 PUSH4 0x800188CD EQ PUSH1 0x2D JUMPI JUMPDEST PUSH1 0x0 DUP1 REVERT JUMPDEST PUSH1 0x33 PUSH1 0x35 JUMP JUMPDEST STOP JUMPDEST PUSH1 0x0 DUP1 JUMPDEST PUSH1 0x0 SLOAD DUP2 LT ISZERO PUSH1 0x5B JUMPI PUSH1 0x4A DUP2 DUP4 PUSH1 0x75 JUMP JUMPDEST SWAP2 POP DUP1 PUSH1 0x54 DUP2 PUSH1 0x8A JUMP JUMPDEST SWAP2 POP POP PUSH1 0x39 JUMP JUMPDEST POP POP JUMP JUMPDEST PUSH4 0x4E487B71 PUSH1 0xE0 SHL PUSH1 0x0 MSTORE PUSH1 0x11 PUSH1 0x4 MSTORE PUSH1 0x24 PUSH1 0x0 REVERT JUMPDEST PUSH1 0x0 DUP3 NOT DUP3 GT ISZERO PUSH1 0x85 JUMPI PUSH1 0x85 PUSH1 0x5F JUMP JUMPDEST POP ADD SWAP1 JUMP JUMPDEST PUSH1 0x0 PUSH1 0x1 DUP3 ADD PUSH1 0x99 JUMPI PUSH1 0x99 PUSH1 0x5F JUMP JUMPDEST POP PUSH1 0x1 ADD SWAP1 JUMP INVALID LOG2 PUSH5 0x6970667358 0x22 SLT KECCAK256 DUP6 0xA7 MULMOD SWAP11 SWAP14 0x2B MLOAD 0xA6 NOT 0xD7 0xCF CREATE2 0xA8 SWAP1 0xBC 0xF6 GASPRICE 0xD0 0x4C NUMBER CODECOPY RETURNDATACOPY BASEFEE SWAP6 0xC4 SLT LOG4 0xD6 PUSH27 0x3FE85B64736F6C634300080E003300000000000000000000000000 "
				},
				"gasEstimates": {
					"creation": {
						"codeDepositCost": "42800",
						"executionCost": "infinite",
						"totalCost": "infinite"
					},
					"external": {
						"WithoutCache()": "infinite"
					}
				},
				"methodIdentifiers": {
					"WithoutCache()": "800188cd"
				}
			},
			"storageLayout": {
				"storage": [
					{
						"astId": 10,
						"contract": "demo.sol:demoArr",
						"label": "arr1",
						"offset": 0,
						"slot": "0",
						"type": "t_array(t_uint256)dyn_storage"
					}
				],
				"types": {
					"t_array(t_uint256)dyn_storage": {
						"base": "t_uint256",
						"encoding": "dynamic_array",
						"label": "uint256[]",
						"numberOfBytes": "32"
					},
					"t_uint256": {
						"encoding": "inplace",
						"label": "uint256",
						"numberOfBytes": "32"
					}
				}
			},
			"userdoc": {
				"kind": "user",
				"methods": {},
				"version": 1
			}
		}
	}
}