{
	"AdminManger.sol": {
		"AdminManager": {
			"abi": [
				{
					"inputs": [
						{
							"internalType": "address",
							"name": "_broker",
							"type": "address"
						}
					],
					"payable": false,
					"stateMutability": "nonpayable",
					"type": "constructor"
				},
				{
					"anonymous": false,
					"inputs": [
						{
							"indexed": true,
							"internalType": "address",
							"name": "admin",
							"type": "address"
						},
						{
							"indexed": true,
							"internalType": "address",
							"name": "contractAddress",
							"type": "address"
						},
						{
							"indexed": true,
							"internalType": "string",
							"name": "functionName",
							"type": "string"
						},
						{
							"indexed": false,
							"internalType": "address",
							"name": "collectionAddress",
							"type": "address"
						},
						{
							"indexed": false,
							"internalType": "uint256",
							"name": "tokenId",
							"type": "uint256"
						}
					],
					"name": "AdminActionPerformed",
					"type": "event"
				},
				{
					"anonymous": false,
					"inputs": [
						{
							"indexed": false,
							"internalType": "address",
							"name": "admin",
							"type": "address"
						},
						{
							"indexed": false,
							"internalType": "uint256",
							"name": "time",
							"type": "uint256"
						}
					],
					"name": "AdminAdded",
					"type": "event"
				},
				{
					"anonymous": false,
					"inputs": [
						{
							"indexed": false,
							"internalType": "address",
							"name": "admin",
							"type": "address"
						},
						{
							"indexed": false,
							"internalType": "uint256",
							"name": "time",
							"type": "uint256"
						}
					],
					"name": "AdminRemoved",
					"type": "event"
				},
				{
					"anonymous": false,
					"inputs": [
						{
							"indexed": true,
							"internalType": "address",
							"name": "collection",
							"type": "address"
						},
						{
							"indexed": true,
							"internalType": "uint256",
							"name": "tokenId",
							"type": "uint256"
						},
						{
							"indexed": true,
							"internalType": "address",
							"name": "admin",
							"type": "address"
						},
						{
							"indexed": false,
							"internalType": "uint256",
							"name": "time",
							"type": "uint256"
						},
						{
							"indexed": false,
							"internalType": "string",
							"name": "tokenURI",
							"type": "string"
						}
					],
					"name": "NFTBurned",
					"type": "event"
				},
				{
					"anonymous": false,
					"inputs": [
						{
							"indexed": true,
							"internalType": "address",
							"name": "previousOwner",
							"type": "address"
						},
						{
							"indexed": true,
							"internalType": "address",
							"name": "newOwner",
							"type": "address"
						}
					],
					"name": "OwnershipTransferred",
					"type": "event"
				},
				{
					"payable": true,
					"stateMutability": "payable",
					"type": "fallback"
				},
				{
					"constant": false,
					"inputs": [
						{
							"internalType": "uint256",
							"name": "tokenID",
							"type": "uint256"
						},
						{
							"internalType": "address",
							"name": "_mintableToken",
							"type": "address"
						},
						{
							"internalType": "address",
							"name": "_erc20Token",
							"type": "address"
						},
						{
							"internalType": "bool",
							"name": "isNotClubare",
							"type": "bool"
						}
					],
					"name": "accpetOffer",
					"outputs": [],
					"payable": true,
					"stateMutability": "payable",
					"type": "function"
				},
				{
					"constant": false,
					"inputs": [
						{
							"internalType": "address",
							"name": "admin",
							"type": "address"
						}
					],
					"name": "addAdmin",
					"outputs": [],
					"payable": false,
					"stateMutability": "nonpayable",
					"type": "function"
				},
				{
					"constant": true,
					"inputs": [
						{
							"internalType": "address",
							"name": "_sender",
							"type": "address"
						}
					],
					"name": "adminExist",
					"outputs": [
						{
							"internalType": "bool",
							"name": "",
							"type": "bool"
						}
					],
					"payable": false,
					"stateMutability": "view",
					"type": "function"
				},
				{
					"constant": true,
					"inputs": [
						{
							"internalType": "uint256",
							"name": "",
							"type": "uint256"
						}
					],
					"name": "admins",
					"outputs": [
						{
							"internalType": "address",
							"name": "",
							"type": "address"
						}
					],
					"payable": false,
					"stateMutability": "view",
					"type": "function"
				},
				{
					"constant": false,
					"inputs": [
						{
							"internalType": "uint256",
							"name": "tokenID",
							"type": "uint256"
						},
						{
							"internalType": "address",
							"name": "_mintableToken",
							"type": "address"
						},
						{
							"internalType": "uint256",
							"name": "amount",
							"type": "uint256"
						}
					],
					"name": "bid",
					"outputs": [],
					"payable": true,
					"stateMutability": "payable",
					"type": "function"
				},
				{
					"constant": false,
					"inputs": [
						{
							"internalType": "address",
							"name": "collection",
							"type": "address"
						},
						{
							"internalType": "uint256",
							"name": "tokenId",
							"type": "uint256"
						}
					],
					"name": "burnNFT",
					"outputs": [],
					"payable": false,
					"stateMutability": "nonpayable",
					"type": "function"
				},
				{
					"constant": false,
					"inputs": [
						{
							"internalType": "uint256",
							"name": "tokenID",
							"type": "uint256"
						},
						{
							"internalType": "address",
							"name": "_mintableToken",
							"type": "address"
						},
						{
							"internalType": "bool",
							"name": "isNotClubare",
							"type": "bool"
						}
					],
					"name": "buy",
					"outputs": [],
					"payable": true,
					"stateMutability": "payable",
					"type": "function"
				},
				{
					"constant": false,
					"inputs": [
						{
							"internalType": "uint256",
							"name": "tokenID",
							"type": "uint256"
						},
						{
							"internalType": "address",
							"name": "_mintableToken",
							"type": "address"
						},
						{
							"internalType": "bool",
							"name": "isNotClubare",
							"type": "bool"
						}
					],
					"name": "collect",
					"outputs": [],
					"payable": false,
					"stateMutability": "nonpayable",
					"type": "function"
				},
				{
					"constant": false,
					"inputs": [
						{
							"internalType": "address",
							"name": "_erc20",
							"type": "address"
						},
						{
							"internalType": "address",
							"name": "spender",
							"type": "address"
						},
						{
							"internalType": "uint256",
							"name": "value",
							"type": "uint256"
						}
					],
					"name": "erc20Approve",
					"outputs": [],
					"payable": false,
					"stateMutability": "nonpayable",
					"type": "function"
				},
				{
					"constant": false,
					"inputs": [
						{
							"internalType": "address",
							"name": "_erc20",
							"type": "address"
						},
						{
							"internalType": "address",
							"name": "spender",
							"type": "address"
						},
						{
							"internalType": "uint256",
							"name": "subtractedValue",
							"type": "uint256"
						}
					],
					"name": "erc20DecreaseAllowance",
					"outputs": [],
					"payable": false,
					"stateMutability": "nonpayable",
					"type": "function"
				},
				{
					"constant": false,
					"inputs": [
						{
							"internalType": "address",
							"name": "_erc20",
							"type": "address"
						},
						{
							"internalType": "address",
							"name": "_spender",
							"type": "address"
						},
						{
							"internalType": "uint256",
							"name": "_subtractedValue",
							"type": "uint256"
						}
					],
					"name": "erc20DecreaseApproval",
					"outputs": [],
					"payable": false,
					"stateMutability": "nonpayable",
					"type": "function"
				},
				{
					"constant": false,
					"inputs": [
						{
							"internalType": "address",
							"name": "_erc20",
							"type": "address"
						},
						{
							"internalType": "address",
							"name": "spender",
							"type": "address"
						},
						{
							"internalType": "uint256",
							"name": "addedValue",
							"type": "uint256"
						}
					],
					"name": "erc20IncreaseAllowance",
					"outputs": [],
					"payable": false,
					"stateMutability": "nonpayable",
					"type": "function"
				},
				{
					"constant": false,
					"inputs": [
						{
							"internalType": "address",
							"name": "_erc20",
							"type": "address"
						},
						{
							"internalType": "address",
							"name": "spender",
							"type": "address"
						},
						{
							"internalType": "uint256",
							"name": "addedValue",
							"type": "uint256"
						}
					],
					"name": "erc20IncreaseApproval",
					"outputs": [],
					"payable": false,
					"stateMutability": "nonpayable",
					"type": "function"
				},
				{
					"constant": false,
					"inputs": [
						{
							"internalType": "address",
							"name": "_erc20",
							"type": "address"
						},
						{
							"internalType": "address",
							"name": "to",
							"type": "address"
						},
						{
							"internalType": "uint256",
							"name": "value",
							"type": "uint256"
						}
					],
					"name": "erc20Transfer",
					"outputs": [],
					"payable": false,
					"stateMutability": "nonpayable",
					"type": "function"
				},
				{
					"constant": false,
					"inputs": [
						{
							"internalType": "address",
							"name": "_erc20",
							"type": "address"
						},
						{
							"internalType": "address",
							"name": "from",
							"type": "address"
						},
						{
							"internalType": "address",
							"name": "to",
							"type": "address"
						},
						{
							"internalType": "uint256",
							"name": "value",
							"type": "uint256"
						}
					],
					"name": "erc20TransferFrom",
					"outputs": [],
					"payable": false,
					"stateMutability": "nonpayable",
					"type": "function"
				},
				{
					"constant": false,
					"inputs": [
						{
							"internalType": "address",
							"name": "_ERC721Address",
							"type": "address"
						},
						{
							"internalType": "address",
							"name": "_to",
							"type": "address"
						},
						{
							"internalType": "uint256",
							"name": "_tokenId",
							"type": "uint256"
						}
					],
					"name": "erc721Approve",
					"outputs": [],
					"payable": false,
					"stateMutability": "nonpayable",
					"type": "function"
				},
				{
					"constant": false,
					"inputs": [
						{
							"internalType": "address",
							"name": "_ERC721Address",
							"type": "address"
						},
						{
							"internalType": "uint256",
							"name": "tokenId",
							"type": "uint256"
						}
					],
					"name": "erc721Burn",
					"outputs": [],
					"payable": false,
					"stateMutability": "nonpayable",
					"type": "function"
				},
				{
					"constant": false,
					"inputs": [
						{
							"internalType": "address",
							"name": "_ERC721Address",
							"type": "address"
						},
						{
							"internalType": "string",
							"name": "tokenURI",
							"type": "string"
						},
						{
							"internalType": "uint256",
							"name": "_royality",
							"type": "uint256"
						}
					],
					"name": "erc721Mint",
					"outputs": [],
					"payable": false,
					"stateMutability": "nonpayable",
					"type": "function"
				},
				{
					"constant": false,
					"inputs": [
						{
							"internalType": "address",
							"name": "_ERC721Address",
							"type": "address"
						},
						{
							"internalType": "address",
							"name": "from",
							"type": "address"
						},
						{
							"internalType": "address",
							"name": "to",
							"type": "address"
						},
						{
							"internalType": "uint256",
							"name": "tokenId",
							"type": "uint256"
						},
						{
							"internalType": "bytes",
							"name": "_data",
							"type": "bytes"
						}
					],
					"name": "erc721SafeTransferFrom",
					"outputs": [],
					"payable": false,
					"stateMutability": "nonpayable",
					"type": "function"
				},
				{
					"constant": false,
					"inputs": [
						{
							"internalType": "address",
							"name": "_ERC721Address",
							"type": "address"
						},
						{
							"internalType": "address",
							"name": "from",
							"type": "address"
						},
						{
							"internalType": "address",
							"name": "to",
							"type": "address"
						},
						{
							"internalType": "uint256",
							"name": "tokenId",
							"type": "uint256"
						}
					],
					"name": "erc721SafeTransferFrom",
					"outputs": [],
					"payable": false,
					"stateMutability": "nonpayable",
					"type": "function"
				},
				{
					"constant": false,
					"inputs": [
						{
							"internalType": "address",
							"name": "_ERC721Address",
							"type": "address"
						},
						{
							"internalType": "address",
							"name": "_to",
							"type": "address"
						},
						{
							"internalType": "uint256",
							"name": "_tokenId",
							"type": "uint256"
						}
					],
					"name": "erc721Transfer",
					"outputs": [],
					"payable": false,
					"stateMutability": "nonpayable",
					"type": "function"
				},
				{
					"constant": false,
					"inputs": [
						{
							"internalType": "address",
							"name": "_ERC721Address",
							"type": "address"
						},
						{
							"internalType": "address",
							"name": "from",
							"type": "address"
						},
						{
							"internalType": "address",
							"name": "to",
							"type": "address"
						},
						{
							"internalType": "uint256",
							"name": "tokenId",
							"type": "uint256"
						}
					],
					"name": "erc721TransferFrom",
					"outputs": [],
					"payable": false,
					"stateMutability": "nonpayable",
					"type": "function"
				},
				{
					"constant": true,
					"inputs": [],
					"name": "getAdmins",
					"outputs": [
						{
							"internalType": "address[]",
							"name": "",
							"type": "address[]"
						}
					],
					"payable": false,
					"stateMutability": "view",
					"type": "function"
				},
				{
					"constant": true,
					"inputs": [],
					"name": "isOwner",
					"outputs": [
						{
							"internalType": "bool",
							"name": "",
							"type": "bool"
						}
					],
					"payable": false,
					"stateMutability": "view",
					"type": "function"
				},
				{
					"constant": false,
					"inputs": [
						{
							"internalType": "uint256",
							"name": "tokenID",
							"type": "uint256"
						},
						{
							"internalType": "address",
							"name": "_mintableToken",
							"type": "address"
						},
						{
							"internalType": "address",
							"name": "_erc20Token",
							"type": "address"
						},
						{
							"internalType": "uint256",
							"name": "amount",
							"type": "uint256"
						}
					],
					"name": "makeAnOffer",
					"outputs": [],
					"payable": true,
					"stateMutability": "payable",
					"type": "function"
				},
				{
					"constant": false,
					"inputs": [
						{
							"internalType": "address",
							"name": "",
							"type": "address"
						},
						{
							"internalType": "address",
							"name": "",
							"type": "address"
						},
						{
							"internalType": "uint256",
							"name": "",
							"type": "uint256"
						},
						{
							"internalType": "bytes",
							"name": "",
							"type": "bytes"
						}
					],
					"name": "onERC721Received",
					"outputs": [
						{
							"internalType": "bytes4",
							"name": "",
							"type": "bytes4"
						}
					],
					"payable": false,
					"stateMutability": "nonpayable",
					"type": "function"
				},
				{
					"constant": true,
					"inputs": [],
					"name": "owner",
					"outputs": [
						{
							"internalType": "address",
							"name": "",
							"type": "address"
						}
					],
					"payable": false,
					"stateMutability": "view",
					"type": "function"
				},
				{
					"constant": false,
					"inputs": [
						{
							"internalType": "uint256",
							"name": "_tokenID",
							"type": "uint256"
						},
						{
							"internalType": "uint256",
							"name": "_startingPrice",
							"type": "uint256"
						},
						{
							"internalType": "uint256",
							"name": "_auctionType",
							"type": "uint256"
						},
						{
							"internalType": "uint256",
							"name": "_buyPrice",
							"type": "uint256"
						},
						{
							"internalType": "uint256",
							"name": "_startingTime",
							"type": "uint256"
						},
						{
							"internalType": "uint256",
							"name": "_closingTime",
							"type": "uint256"
						},
						{
							"internalType": "address",
							"name": "_mintableToken",
							"type": "address"
						},
						{
							"internalType": "address",
							"name": "_erc20Token",
							"type": "address"
						}
					],
					"name": "putOnSale",
					"outputs": [],
					"payable": false,
					"stateMutability": "nonpayable",
					"type": "function"
				},
				{
					"constant": false,
					"inputs": [
						{
							"internalType": "uint256",
							"name": "tokenID",
							"type": "uint256"
						},
						{
							"internalType": "address",
							"name": "_mintableToken",
							"type": "address"
						}
					],
					"name": "putSaleOff",
					"outputs": [],
					"payable": false,
					"stateMutability": "nonpayable",
					"type": "function"
				},
				{
					"constant": false,
					"inputs": [
						{
							"internalType": "address",
							"name": "admin",
							"type": "address"
						}
					],
					"name": "removeAdmin",
					"outputs": [],
					"payable": false,
					"stateMutability": "nonpayable",
					"type": "function"
				},
				{
					"constant": false,
					"inputs": [],
					"name": "renounceOwnership",
					"outputs": [],
					"payable": false,
					"stateMutability": "nonpayable",
					"type": "function"
				},
				{
					"constant": false,
					"inputs": [
						{
							"internalType": "uint256",
							"name": "tokenID",
							"type": "uint256"
						},
						{
							"internalType": "address",
							"name": "_mintableToken",
							"type": "address"
						}
					],
					"name": "revertAll",
					"outputs": [],
					"payable": false,
					"stateMutability": "nonpayable",
					"type": "function"
				},
				{
					"constant": false,
					"inputs": [
						{
							"internalType": "uint256",
							"name": "tokenID",
							"type": "uint256"
						},
						{
							"internalType": "address",
							"name": "_mintableToken",
							"type": "address"
						},
						{
							"internalType": "address",
							"name": "_erc20Token",
							"type": "address"
						}
					],
					"name": "revertOffer",
					"outputs": [],
					"payable": true,
					"stateMutability": "payable",
					"type": "function"
				},
				{
					"constant": false,
					"inputs": [
						{
							"internalType": "address",
							"name": "newOwner",
							"type": "address"
						}
					],
					"name": "transferOwnership",
					"outputs": [],
					"payable": false,
					"stateMutability": "nonpayable",
					"type": "function"
				},
				{
					"constant": false,
					"inputs": [
						{
							"internalType": "uint256",
							"name": "tokenID",
							"type": "uint256"
						},
						{
							"internalType": "address",
							"name": "_mintableToken",
							"type": "address"
						},
						{
							"internalType": "uint256",
							"name": "_newPrice",
							"type": "uint256"
						},
						{
							"internalType": "address",
							"name": "_erc20Token",
							"type": "address"
						}
					],
					"name": "updatePrice",
					"outputs": [],
					"payable": false,
					"stateMutability": "nonpayable",
					"type": "function"
				},
				{
					"constant": false,
					"inputs": [],
					"name": "withdraw",
					"outputs": [],
					"payable": false,
					"stateMutability": "nonpayable",
					"type": "function"
				},
				{
					"constant": false,
					"inputs": [
						{
							"internalType": "address",
							"name": "_erc20Token",
							"type": "address"
						}
					],
					"name": "withdrawERC20",
					"outputs": [],
					"payable": false,
					"stateMutability": "nonpayable",
					"type": "function"
				}
			],
			"devdoc": {
				"author": "Clubrare",
				"details": "Mediator contract to allow muliple user to perform ERC721 action using contracts address only",
				"methods": {
					"addAdmin(address)": {
						"details": "Fuction take address type argument",
						"params": {
							"admin": "The account address of admin"
						}
					},
					"adminExist(address)": {
						"details": "Fuction take address type argument",
						"params": {
							"_sender": "The account address of _sender or admin"
						}
					},
					"burnNFT(address,uint256)": {
						"details": "This Fuction is take two arguments address of contract and tokenId of NFT",
						"params": {
							"collection": "tokenId The contract address of NFT contract and tokenId of NFT"
						}
					},
					"getAdmins()": {
						"details": "This Fuction is not take any argument",
						"return": "This Fuction return list of address[]"
					},
					"isOwner()": {
						"details": "Returns true if the caller is the current owner."
					},
					"owner()": {
						"details": "Returns the address of the current owner."
					},
					"removeAdmin(address)": {
						"details": "This Fuction is not take any argument",
						"params": {
							"admin": "The account address of admin"
						}
					},
					"renounceOwnership()": {
						"details": "Leaves the contract without owner. It will not be possible to call `onlyOwner` functions anymore. Can only be called by the current owner.     * NOTE: Renouncing ownership will leave the contract without an owner, thereby removing any functionality that is only available to the owner."
					},
					"transferOwnership(address)": {
						"details": "Transfers ownership of the contract to a new account (`newOwner`). Can only be called by the current owner."
					}
				},
				"title": "AdminManager"
			},
			"evm": {
				"assembly": "    /* \"AdminManger.sol\":7093:23275  contract AdminManager is Ownable, ERC721Holder {... */\n  mstore(0x40, 0x80)\n    /* \"AdminManger.sol\":7990:8869  FunctionNames(... */\n  mload(0x40)\n  dup1\n  0x0340\n  add\n  0x40\n  mstore\n  dup1\n  mload(0x40)\n  dup1\n  0x40\n  add\n  0x40\n  mstore\n  dup1\n  0x0e\n  dup2\n  mstore\n  0x20\n  add\n  0x4552433732313a617070726f7665000000000000000000000000000000000000\n  dup2\n  mstore\n  pop\n  dup2\n  mstore\n  0x20\n  add\n  mload(0x40)\n  dup1\n  0x40\n  add\n  0x40\n  mstore\n  dup1\n  0x0f\n  dup2\n  mstore\n  0x20\n  add\n  0x4552433732313a7472616e736665720000000000000000000000000000000000\n  dup2\n  mstore\n  pop\n  dup2\n  mstore\n  0x20\n  add\n  mload(0x40)\n  dup1\n  0x40\n  add\n  0x40\n  mstore\n  dup1\n  0x0b\n  dup2\n  mstore\n  0x20\n  add\n  0x4552433732313a6275726e000000000000000000000000000000000000000000\n  dup2\n  mstore\n  pop\n  dup2\n  mstore\n  0x20\n  add\n  mload(0x40)\n  dup1\n  0x40\n  add\n  0x40\n  mstore\n  dup1\n  0x0b\n  dup2\n  mstore\n  0x20\n  add\n  0x4552433732313a6d696e74000000000000000000000000000000000000000000\n  dup2\n  mstore\n  pop\n  dup2\n  mstore\n  0x20\n  add\n  mload(0x40)\n  dup1\n  0x40\n  add\n  0x40\n  mstore\n  dup1\n  0x17\n  dup2\n  mstore\n  0x20\n  add\n  0x4552433732313a736166655472616e7366657246726f6d000000000000000000\n  dup2\n  mstore\n  pop\n  dup2\n  mstore\n  0x20\n  add\n  mload(0x40)\n  dup1\n  0x40\n  add\n  0x40\n  mstore\n  dup1\n  0x13\n  dup2\n  mstore\n  0x20\n  add\n  0x4552433732313a7472616e7366657246726f6d00000000000000000000000000\n  dup2\n  mstore\n  pop\n  dup2\n  mstore\n  0x20\n  add\n  mload(0x40)\n  dup1\n  0x40\n  add\n  0x40\n  mstore\n  dup1\n  0x10\n  dup2\n  mstore\n  0x20\n  add\n  0x42726f6b65723a7075744f6e53616c6500000000000000000000000000000000\n  dup2\n  mstore\n  pop\n  dup2\n  mstore\n  0x20\n  add\n  mload(0x40)\n  dup1\n  0x40\n  add\n  0x40\n  mstore\n  dup1\n  0x0a\n  dup2\n  mstore\n  0x20\n  add\n  0x42726f6b65723a62757900000000000000000000000000000000000000000000\n  dup2\n  mstore\n  pop\n  dup2\n  mstore\n  0x20\n  add\n  mload(0x40)\n  dup1\n  0x40\n  add\n  0x40\n  mstore\n  dup1\n  0x0a\n  dup2\n  mstore\n  0x20\n  add\n  0x42726f6b65723a62696400000000000000000000000000000000000000000000\n  dup2\n  mstore\n  pop\n  dup2\n  mstore\n  0x20\n  add\n  mload(0x40)\n  dup1\n  0x40\n  add\n  0x40\n  mstore\n  dup1\n  0x0e\n  dup2\n  mstore\n  0x20\n  add\n  0x42726f6b65723a636f6c6c656374000000000000000000000000000000000000\n  dup2\n  mstore\n  pop\n  dup2\n  mstore\n  0x20\n  add\n  mload(0x40)\n  dup1\n  0x40\n  add\n  0x40\n  mstore\n  dup1\n  0x12\n  dup2\n  mstore\n  0x20\n  add\n  0x42726f6b65723a75706461746550726963650000000000000000000000000000\n  dup2\n  mstore\n  pop\n  dup2\n  mstore\n  0x20\n  add\n  mload(0x40)\n  dup1\n  0x40\n  add\n  0x40\n  mstore\n  dup1\n  0x11\n  dup2\n  mstore\n  0x20\n  add\n  0x42726f6b65723a70757453616c654f6666000000000000000000000000000000\n  dup2\n  mstore\n  pop\n  dup2\n  mstore\n  0x20\n  add\n  mload(0x40)\n  dup1\n  0x40\n  add\n  0x40\n  mstore\n  dup1\n  0x12\n  dup2\n  mstore\n  0x20\n  add\n  0x42726f6b65723a6d616b65416e4f666665720000000000000000000000000000\n  dup2\n  mstore\n  pop\n  dup2\n  mstore\n  0x20\n  add\n  mload(0x40)\n  dup1\n  0x40\n  add\n  0x40\n  mstore\n  dup1\n  0x12\n  dup2\n  mstore\n  0x20\n  add\n  0x42726f6b65723a6163637065744f666665720000000000000000000000000000\n  dup2\n  mstore\n  pop\n  dup2\n  mstore\n  0x20\n  add\n  mload(0x40)\n  dup1\n  0x40\n  add\n  0x40\n  mstore\n  dup1\n  0x12\n  dup2\n  mstore\n  0x20\n  add\n  0x42726f6b65723a7265766572744f666665720000000000000000000000000000\n  dup2\n  mstore\n  pop\n  dup2\n  mstore\n  0x20\n  add\n  mload(0x40)\n  dup1\n  0x40\n  add\n  0x40\n  mstore\n  dup1\n  0x10\n  dup2\n  mstore\n  0x20\n  add\n  0x42726f6b65723a726576657274416c6c00000000000000000000000000000000\n  dup2\n  mstore\n  pop\n  dup2\n  mstore\n  0x20\n  add\n  mload(0x40)\n  dup1\n  0x40\n  add\n  0x40\n  mstore\n  dup1\n  0x13\n  dup2\n  mstore\n  0x20\n  add\n  0x42726f6b65723a62617463684c697374696e6700000000000000000000000000\n  dup2\n  mstore\n  pop\n  dup2\n  mstore\n  0x20\n  add\n  mload(0x40)\n  dup1\n  0x40\n  add\n  0x40\n  mstore\n  dup1\n  0x15\n  dup2\n  mstore\n  0x20\n  add\n  0x42726f6b65723a626174636844656c697374696e670000000000000000000000\n  dup2\n  mstore\n  pop\n  dup2\n  mstore\n  0x20\n  add\n  mload(0x40)\n  dup1\n  0x40\n  add\n  0x40\n  mstore\n  dup1\n  0x11\n  dup2\n  mstore\n  0x20\n  add\n  0x42726f6b65723a73657441646472657373000000000000000000000000000000\n  dup2\n  mstore\n  pop\n  dup2\n  mstore\n  0x20\n  add\n  mload(0x40)\n  dup1\n  0x40\n  add\n  0x40\n  mstore\n  dup1\n  0x0d\n  dup2\n  mstore\n  0x20\n  add\n  0x45524332303a617070726f766500000000000000000000000000000000000000\n  dup2\n  mstore\n  pop\n  dup2\n  mstore\n  0x20\n  add\n  mload(0x40)\n  dup1\n  0x40\n  add\n  0x40\n  mstore\n  dup1\n  0x16\n  dup2\n  mstore\n  0x20\n  add\n  0x45524332303a6465637265617365417070726f76616c00000000000000000000\n  dup2\n  mstore\n  pop\n  dup2\n  mstore\n  0x20\n  add\n  mload(0x40)\n  dup1\n  0x40\n  add\n  0x40\n  mstore\n  dup1\n  0x16\n  dup2\n  mstore\n  0x20\n  add\n  0x45524332303a696e637265617365417070726f76616c00000000000000000000\n  dup2\n  mstore\n  pop\n  dup2\n  mstore\n  0x20\n  add\n  mload(0x40)\n  dup1\n  0x40\n  add\n  0x40\n  mstore\n  dup1\n  0x0e\n  dup2\n  mstore\n  0x20\n  add\n  0x45524332303a7472616e73666572000000000000000000000000000000000000\n  dup2\n  mstore\n  pop\n  dup2\n  mstore\n  0x20\n  add\n  mload(0x40)\n  dup1\n  0x40\n  add\n  0x40\n  mstore\n  dup1\n  0x12\n  dup2\n  mstore\n  0x20\n  add\n  0x45524332303a7472616e7366657246726f6d0000000000000000000000000000\n  dup2\n  mstore\n  pop\n  dup2\n  mstore\n  0x20\n  add\n  mload(0x40)\n  dup1\n  0x40\n  add\n  0x40\n  mstore\n  dup1\n  0x17\n  dup2\n  mstore\n  0x20\n  add\n  0x45524332303a696e637265617365416c6c6f77616e6365000000000000000000\n  dup2\n  mstore\n  pop\n  dup2\n  mstore\n  0x20\n  add\n  mload(0x40)\n  dup1\n  0x40\n  add\n  0x40\n  mstore\n  dup1\n  0x17\n  dup2\n  mstore\n  0x20\n  add\n  0x45524332303a6465637265617365416c6c6f77616e6365000000000000000000\n  dup2\n  mstore\n  pop\n  dup2\n  mstore\n  pop\n    /* \"AdminManger.sol\":7952:8869  FunctionNames functionNames =... */\n  0x02\n  0x00\n  dup3\n  add\n  mload\n  dup2\n  0x00\n  add\n  swap1\n  dup1\n  mload\n  swap1\n  0x20\n  add\n  swap1\n  tag_1\n  swap3\n  swap2\n  swap1\n  tag_2\n  jump\t// in\ntag_1:\n  pop\n  0x20\n  dup3\n  add\n  mload\n  dup2\n  0x01\n  add\n  swap1\n  dup1\n  mload\n  swap1\n  0x20\n  add\n  swap1\n  tag_3\n  swap3\n  swap2\n  swap1\n  tag_2\n  jump\t// in\ntag_3:\n  pop\n  0x40\n  dup3\n  add\n  mload\n  dup2\n  0x02\n  add\n  swap1\n  dup1\n  mload\n  swap1\n  0x20\n  add\n  swap1\n  tag_4\n  swap3\n  swap2\n  swap1\n  tag_2\n  jump\t// in\ntag_4:\n  pop\n  0x60\n  dup3\n  add\n  mload\n  dup2\n  0x03\n  add\n  swap1\n  dup1\n  mload\n  swap1\n  0x20\n  add\n  swap1\n  tag_5\n  swap3\n  swap2\n  swap1\n  tag_2\n  jump\t// in\ntag_5:\n  pop\n  0x80\n  dup3\n  add\n  mload\n  dup2\n  0x04\n  add\n  swap1\n  dup1\n  mload\n  swap1\n  0x20\n  add\n  swap1\n  tag_6\n  swap3\n  swap2\n  swap1\n  tag_2\n  jump\t// in\ntag_6:\n  pop\n  0xa0\n  dup3\n  add\n  mload\n  dup2\n  0x05\n  add\n  swap1\n  dup1\n  mload\n  swap1\n  0x20\n  add\n  swap1\n  tag_7\n  swap3\n  swap2\n  swap1\n  tag_2\n  jump\t// in\ntag_7:\n  pop\n  0xc0\n  dup3\n  add\n  mload\n  dup2\n  0x06\n  add\n  swap1\n  dup1\n  mload\n  swap1\n  0x20\n  add\n  swap1\n  tag_8\n  swap3\n  swap2\n  swap1\n  tag_2\n  jump\t// in\ntag_8:\n  pop\n  0xe0\n  dup3\n  add\n  mload\n  dup2\n  0x07\n  add\n  swap1\n  dup1\n  mload\n  swap1\n  0x20\n  add\n  swap1\n  tag_9\n  swap3\n  swap2\n  swap1\n  tag_2\n  jump\t// in\ntag_9:\n  pop\n  0x0100\n  dup3\n  add\n  mload\n  dup2\n  0x08\n  add\n  swap1\n  dup1\n  mload\n  swap1\n  0x20\n  add\n  swap1\n  tag_10\n  swap3\n  swap2\n  swap1\n  tag_2\n  jump\t// in\ntag_10:\n  pop\n  0x0120\n  dup3\n  add\n  mload\n  dup2\n  0x09\n  add\n  swap1\n  dup1\n  mload\n  swap1\n  0x20\n  add\n  swap1\n  tag_11\n  swap3\n  swap2\n  swap1\n  tag_2\n  jump\t// in\ntag_11:\n  pop\n  0x0140\n  dup3\n  add\n  mload\n  dup2\n  0x0a\n  add\n  swap1\n  dup1\n  mload\n  swap1\n  0x20\n  add\n  swap1\n  tag_12\n  swap3\n  swap2\n  swap1\n  tag_2\n  jump\t// in\ntag_12:\n  pop\n  0x0160\n  dup3\n  add\n  mload\n  dup2\n  0x0b\n  add\n  swap1\n  dup1\n  mload\n  swap1\n  0x20\n  add\n  swap1\n  tag_13\n  swap3\n  swap2\n  swap1\n  tag_2\n  jump\t// in\ntag_13:\n  pop\n  0x0180\n  dup3\n  add\n  mload\n  dup2\n  0x0c\n  add\n  swap1\n  dup1\n  mload\n  swap1\n  0x20\n  add\n  swap1\n  tag_14\n  swap3\n  swap2\n  swap1\n  tag_2\n  jump\t// in\ntag_14:\n  pop\n  0x01a0\n  dup3\n  add\n  mload\n  dup2\n  0x0d\n  add\n  swap1\n  dup1\n  mload\n  swap1\n  0x20\n  add\n  swap1\n  tag_15\n  swap3\n  swap2\n  swap1\n  tag_2\n  jump\t// in\ntag_15:\n  pop\n  0x01c0\n  dup3\n  add\n  mload\n  dup2\n  0x0e\n  add\n  swap1\n  dup1\n  mload\n  swap1\n  0x20\n  add\n  swap1\n  tag_16\n  swap3\n  swap2\n  swap1\n  tag_2\n  jump\t// in\ntag_16:\n  pop\n  0x01e0\n  dup3\n  add\n  mload\n  dup2\n  0x0f\n  add\n  swap1\n  dup1\n  mload\n  swap1\n  0x20\n  add\n  swap1\n  tag_17\n  swap3\n  swap2\n  swap1\n  tag_2\n  jump\t// in\ntag_17:\n  pop\n  0x0200\n  dup3\n  add\n  mload\n  dup2\n  0x10\n  add\n  swap1\n  dup1\n  mload\n  swap1\n  0x20\n  add\n  swap1\n  tag_18\n  swap3\n  swap2\n  swap1\n  tag_2\n  jump\t// in\ntag_18:\n  pop\n  0x0220\n  dup3\n  add\n  mload\n  dup2\n  0x11\n  add\n  swap1\n  dup1\n  mload\n  swap1\n  0x20\n  add\n  swap1\n  tag_19\n  swap3\n  swap2\n  swap1\n  tag_2\n  jump\t// in\ntag_19:\n  pop\n  0x0240\n  dup3\n  add\n  mload\n  dup2\n  0x12\n  add\n  swap1\n  dup1\n  mload\n  swap1\n  0x20\n  add\n  swap1\n  tag_20\n  swap3\n  swap2\n  swap1\n  tag_2\n  jump\t// in\ntag_20:\n  pop\n  0x0260\n  dup3\n  add\n  mload\n  dup2\n  0x13\n  add\n  swap1\n  dup1\n  mload\n  swap1\n  0x20\n  add\n  swap1\n  tag_21\n  swap3\n  swap2\n  swap1\n  tag_2\n  jump\t// in\ntag_21:\n  pop\n  0x0280\n  dup3\n  add\n  mload\n  dup2\n  0x14\n  add\n  swap1\n  dup1\n  mload\n  swap1\n  0x20\n  add\n  swap1\n  tag_22\n  swap3\n  swap2\n  swap1\n  tag_2\n  jump\t// in\ntag_22:\n  pop\n  0x02a0\n  dup3\n  add\n  mload\n  dup2\n  0x15\n  add\n  swap1\n  dup1\n  mload\n  swap1\n  0x20\n  add\n  swap1\n  tag_23\n  swap3\n  swap2\n  swap1\n  tag_2\n  jump\t// in\ntag_23:\n  pop\n  0x02c0\n  dup3\n  add\n  mload\n  dup2\n  0x16\n  add\n  swap1\n  dup1\n  mload\n  swap1\n  0x20\n  add\n  swap1\n  tag_24\n  swap3\n  swap2\n  swap1\n  tag_2\n  jump\t// in\ntag_24:\n  pop\n  0x02e0\n  dup3\n  add\n  mload\n  dup2\n  0x17\n  add\n  swap1\n  dup1\n  mload\n  swap1\n  0x20\n  add\n  swap1\n  tag_25\n  swap3\n  swap2\n  swap1\n  tag_2\n  jump\t// in\ntag_25:\n  pop\n  0x0300\n  dup3\n  add\n  mload\n  dup2\n  0x18\n  add\n  swap1\n  dup1\n  mload\n  swap1\n  0x20\n  add\n  swap1\n  tag_26\n  swap3\n  swap2\n  swap1\n  tag_2\n  jump\t// in\ntag_26:\n  pop\n  0x0320\n  dup3\n  add\n  mload\n  dup2\n  0x19\n  add\n  swap1\n  dup1\n  mload\n  swap1\n  0x20\n  add\n  swap1\n  tag_27\n  swap3\n  swap2\n  swap1\n  tag_2\n  jump\t// in\ntag_27:\n  pop\n  pop\n  pop\n    /* \"AdminManger.sol\":9386:9505  constructor(address _broker) public {... */\n  callvalue\n    /* \"--CODEGEN--\":8:17   */\n  dup1\n    /* \"--CODEGEN--\":5:7   */\n  iszero\n  tag_28\n  jumpi\n    /* \"--CODEGEN--\":30:31   */\n  0x00\n    /* \"--CODEGEN--\":27:28   */\n  dup1\n    /* \"--CODEGEN--\":20:32   */\n  revert\n    /* \"--CODEGEN--\":5:7   */\ntag_28:\n    /* \"AdminManger.sol\":9386:9505  constructor(address _broker) public {... */\n  pop\n  mload(0x40)\n  sub(codesize, bytecodeSize)\n  dup1\n  bytecodeSize\n  dup4\n  codecopy\n  dup2\n  dup2\n  add\n  0x40\n  mstore\n  tag_29\n  swap2\n  swap1\n  dup2\n  add\n  swap1\n  jump(tag_30)\ntag_29:\n    /* \"AdminManger.sol\":1111:1128  address msgSender */\n  0x00\n    /* \"AdminManger.sol\":1131:1143  _msgSender() */\n  tag_36\n    /* \"AdminManger.sol\":1131:1141  _msgSender */\n  shl(0x20, tag_37)\n    /* \"AdminManger.sol\":1131:1143  _msgSender() */\n  0x20\n  shr\n  jump\t// in\ntag_36:\n    /* \"AdminManger.sol\":1111:1143  address msgSender = _msgSender() */\n  swap1\n  pop\n    /* \"AdminManger.sol\":1162:1171  msgSender */\n  dup1\n    /* \"AdminManger.sol\":1153:1159  _owner */\n  0x00\n  dup1\n    /* \"AdminManger.sol\":1153:1171  _owner = msgSender */\n  0x0100\n  exp\n  dup2\n  sload\n  dup2\n  0xffffffffffffffffffffffffffffffffffffffff\n  mul\n  not\n  and\n  swap1\n  dup4\n  0xffffffffffffffffffffffffffffffffffffffff\n  and\n  mul\n  or\n  swap1\n  sstore\n  pop\n    /* \"AdminManger.sol\":1219:1228  msgSender */\n  dup1\n    /* \"AdminManger.sol\":1186:1229  OwnershipTransferred(address(0), msgSender) */\n  0xffffffffffffffffffffffffffffffffffffffff\n  and\n    /* \"AdminManger.sol\":1215:1216  0 */\n  0x00\n    /* \"AdminManger.sol\":1186:1229  OwnershipTransferred(address(0), msgSender) */\n  0xffffffffffffffffffffffffffffffffffffffff\n  and\n  0x8be0079c531659141344cd1fd0a4f28419497f9722a3daafe3b4186f6b6457e0\n  mload(0x40)\n  mload(0x40)\n  dup1\n  swap2\n  sub\n  swap1\n  log3\n    /* \"AdminManger.sol\":1078:1236  constructor() internal {... */\n  pop\n    /* \"AdminManger.sol\":9432:9461  transferOwnership(msg.sender) */\n  tag_39\n    /* \"AdminManger.sol\":9450:9460  msg.sender */\n  caller\n    /* \"AdminManger.sol\":9432:9449  transferOwnership */\n  shl(0x20, tag_40)\n    /* \"AdminManger.sol\":9432:9461  transferOwnership(msg.sender) */\n  0x20\n  shr\n  jump\t// in\ntag_39:\n    /* \"AdminManger.sol\":9490:9497  _broker */\n  dup1\n    /* \"AdminManger.sol\":9471:9477  broker */\n  0x1c\n  0x00\n    /* \"AdminManger.sol\":9471:9498  broker = IBrokerV2(_broker) */\n  0x0100\n  exp\n  dup2\n  sload\n  dup2\n  0xffffffffffffffffffffffffffffffffffffffff\n  mul\n  not\n  and\n  swap1\n  dup4\n  0xffffffffffffffffffffffffffffffffffffffff\n  and\n  mul\n  or\n  swap1\n  sstore\n  pop\n    /* \"AdminManger.sol\":9386:9505  constructor(address _broker) public {... */\n  pop\n    /* \"AdminManger.sol\":7093:23275  contract AdminManager is Ownable, ERC721Holder {... */\n  jump(tag_41)\n    /* \"AdminManger.sol\":479:575  function _msgSender() internal view returns (address payable) {... */\ntag_37:\n    /* \"AdminManger.sol\":524:539  address payable */\n  0x00\n    /* \"AdminManger.sol\":558:568  msg.sender */\n  caller\n    /* \"AdminManger.sol\":551:568  return msg.sender */\n  swap1\n  pop\n    /* \"AdminManger.sol\":479:575  function _msgSender() internal view returns (address payable) {... */\n  swap1\n  jump\t// out\n    /* \"AdminManger.sol\":2383:2490  function transferOwnership(address newOwner) public onlyOwner {... */\ntag_40:\n    /* \"AdminManger.sol\":1516:1525  isOwner() */\n  tag_44\n    /* \"AdminManger.sol\":1516:1523  isOwner */\n  shl(0x20, tag_45)\n    /* \"AdminManger.sol\":1516:1525  isOwner() */\n  0x20\n  shr\n  jump\t// in\ntag_44:\n    /* \"AdminManger.sol\":1508:1562  require(isOwner(), \"Ownable: caller is not the owner\") */\n  tag_46\n  jumpi\n  mload(0x40)\n  0x08c379a000000000000000000000000000000000000000000000000000000000\n  dup2\n  mstore\n  0x04\n  add\n  tag_47\n  swap1\n  jump(tag_48)\ntag_47:\n  mload(0x40)\n  dup1\n  swap2\n  sub\n  swap1\n  revert\ntag_46:\n    /* \"AdminManger.sol\":2455:2483  _transferOwnership(newOwner) */\n  tag_50\n    /* \"AdminManger.sol\":2474:2482  newOwner */\n  dup2\n    /* \"AdminManger.sol\":2455:2473  _transferOwnership */\n  shl(0x20, tag_51)\n    /* \"AdminManger.sol\":2455:2483  _transferOwnership(newOwner) */\n  0x20\n  shr\n  jump\t// in\ntag_50:\n    /* \"AdminManger.sol\":2383:2490  function transferOwnership(address newOwner) public onlyOwner {... */\n  pop\n  jump\t// out\n    /* \"AdminManger.sol\":1663:1755  function isOwner() public view returns (bool) {... */\ntag_45:\n    /* \"AdminManger.sol\":1703:1707  bool */\n  0x00\n    /* \"AdminManger.sol\":1742:1748  _owner */\n  dup1\n  0x00\n  swap1\n  sload\n  swap1\n  0x0100\n  exp\n  swap1\n  div\n  0xffffffffffffffffffffffffffffffffffffffff\n  and\n    /* \"AdminManger.sol\":1726:1748  _msgSender() == _owner */\n  0xffffffffffffffffffffffffffffffffffffffff\n  and\n    /* \"AdminManger.sol\":1726:1738  _msgSender() */\n  tag_53\n    /* \"AdminManger.sol\":1726:1736  _msgSender */\n  shl(0x20, tag_37)\n    /* \"AdminManger.sol\":1726:1738  _msgSender() */\n  0x20\n  shr\n  jump\t// in\ntag_53:\n    /* \"AdminManger.sol\":1726:1748  _msgSender() == _owner */\n  0xffffffffffffffffffffffffffffffffffffffff\n  and\n  eq\n    /* \"AdminManger.sol\":1719:1748  return _msgSender() == _owner */\n  swap1\n  pop\n    /* \"AdminManger.sol\":1663:1755  function isOwner() public view returns (bool) {... */\n  swap1\n  jump\t// out\n    /* \"AdminManger.sol\":2591:2850  function _transferOwnership(address newOwner) internal {... */\ntag_51:\n    /* \"AdminManger.sol\":2697:2698  0 */\n  0x00\n    /* \"AdminManger.sol\":2677:2699  newOwner != address(0) */\n  0xffffffffffffffffffffffffffffffffffffffff\n  and\n    /* \"AdminManger.sol\":2677:2685  newOwner */\n  dup2\n    /* \"AdminManger.sol\":2677:2699  newOwner != address(0) */\n  0xffffffffffffffffffffffffffffffffffffffff\n  and\n  eq\n  iszero\n    /* \"AdminManger.sol\":2656:2763  require(... */\n  tag_55\n  jumpi\n  mload(0x40)\n  0x08c379a000000000000000000000000000000000000000000000000000000000\n  dup2\n  mstore\n  0x04\n  add\n  tag_56\n  swap1\n  jump(tag_57)\ntag_56:\n  mload(0x40)\n  dup1\n  swap2\n  sub\n  swap1\n  revert\ntag_55:\n    /* \"AdminManger.sol\":2807:2815  newOwner */\n  dup1\n    /* \"AdminManger.sol\":2778:2816  OwnershipTransferred(_owner, newOwner) */\n  0xffffffffffffffffffffffffffffffffffffffff\n  and\n    /* \"AdminManger.sol\":2799:2805  _owner */\n  0x00\n  dup1\n  swap1\n  sload\n  swap1\n  0x0100\n  exp\n  swap1\n  div\n  0xffffffffffffffffffffffffffffffffffffffff\n  and\n    /* \"AdminManger.sol\":2778:2816  OwnershipTransferred(_owner, newOwner) */\n  0xffffffffffffffffffffffffffffffffffffffff\n  and\n  0x8be0079c531659141344cd1fd0a4f28419497f9722a3daafe3b4186f6b6457e0\n  mload(0x40)\n  mload(0x40)\n  dup1\n  swap2\n  sub\n  swap1\n  log3\n    /* \"AdminManger.sol\":2835:2843  newOwner */\n  dup1\n    /* \"AdminManger.sol\":2826:2832  _owner */\n  0x00\n  dup1\n    /* \"AdminManger.sol\":2826:2843  _owner = newOwner */\n  0x0100\n  exp\n  dup2\n  sload\n  dup2\n  0xffffffffffffffffffffffffffffffffffffffff\n  mul\n  not\n  and\n  swap1\n  dup4\n  0xffffffffffffffffffffffffffffffffffffffff\n  and\n  mul\n  or\n  swap1\n  sstore\n  pop\n    /* \"AdminManger.sol\":2591:2850  function _transferOwnership(address newOwner) internal {... */\n  pop\n  jump\t// out\n    /* \"AdminManger.sol\":7093:23275  contract AdminManager is Ownable, ERC721Holder {... */\ntag_2:\n  dup3\n  dup1\n  sload\n  0x01\n  dup2\n  0x01\n  and\n  iszero\n  0x0100\n  mul\n  sub\n  and\n  0x02\n  swap1\n  div\n  swap1\n  0x00\n  mstore\n  keccak256(0x00, 0x20)\n  swap1\n  0x1f\n  add\n  0x20\n  swap1\n  div\n  dup2\n  add\n  swap3\n  dup3\n  0x1f\n  lt\n  tag_59\n  jumpi\n  dup1\n  mload\n  not(0xff)\n  and\n  dup4\n  dup1\n  add\n  or\n  dup6\n  sstore\n  jump(tag_58)\ntag_59:\n  dup3\n  dup1\n  add\n  0x01\n  add\n  dup6\n  sstore\n  dup3\n  iszero\n  tag_58\n  jumpi\n  swap2\n  dup3\n  add\ntag_60:\n  dup3\n  dup2\n  gt\n  iszero\n  tag_61\n  jumpi\n  dup3\n  mload\n  dup3\n  sstore\n  swap2\n  0x20\n  add\n  swap2\n  swap1\n  0x01\n  add\n  swap1\n  jump(tag_60)\ntag_61:\ntag_58:\n  pop\n  swap1\n  pop\n  tag_62\n  swap2\n  swap1\n  tag_63\n  jump\t// in\ntag_62:\n  pop\n  swap1\n  jump\t// out\ntag_63:\n  tag_64\n  swap2\n  swap1\ntag_65:\n  dup1\n  dup3\n  gt\n  iszero\n  tag_66\n  jumpi\n  0x00\n  dup2\n  0x00\n  swap1\n  sstore\n  pop\n  0x01\n  add\n  jump(tag_65)\ntag_66:\n  pop\n  swap1\n  jump\ntag_64:\n  swap1\n  jump\t// out\n    /* \"--CODEGEN--\":5:139   */\ntag_68:\n  0x00\n    /* \"--CODEGEN--\":89:95   */\n  dup2\n    /* \"--CODEGEN--\":83:96   */\n  mload\n    /* \"--CODEGEN--\":74:96   */\n  swap1\n  pop\n    /* \"--CODEGEN--\":101:134   */\n  tag_69\n    /* \"--CODEGEN--\":128:133   */\n  dup2\n    /* \"--CODEGEN--\":101:134   */\n  jump(tag_70)\ntag_69:\n    /* \"--CODEGEN--\":68:139   */\n  swap3\n  swap2\n  pop\n  pop\n  jump\n    /* \"--CODEGEN--\":146:409   */\ntag_30:\n  0x00\n    /* \"--CODEGEN--\":261:263   */\n  0x20\n    /* \"--CODEGEN--\":249:258   */\n  dup3\n    /* \"--CODEGEN--\":240:247   */\n  dup5\n    /* \"--CODEGEN--\":236:259   */\n  sub\n    /* \"--CODEGEN--\":232:264   */\n  slt\n    /* \"--CODEGEN--\":229:231   */\n  iszero\n  tag_71\n  jumpi\n    /* \"--CODEGEN--\":277:278   */\n  0x00\n    /* \"--CODEGEN--\":274:275   */\n  dup1\n    /* \"--CODEGEN--\":267:279   */\n  revert\n    /* \"--CODEGEN--\":229:231   */\ntag_71:\n    /* \"--CODEGEN--\":312:313   */\n  0x00\n    /* \"--CODEGEN--\":329:393   */\n  tag_72\n    /* \"--CODEGEN--\":385:392   */\n  dup5\n    /* \"--CODEGEN--\":376:382   */\n  dup3\n    /* \"--CODEGEN--\":365:374   */\n  dup6\n    /* \"--CODEGEN--\":361:383   */\n  add\n    /* \"--CODEGEN--\":329:393   */\n  jump(tag_68)\ntag_72:\n    /* \"--CODEGEN--\":319:393   */\n  swap2\n  pop\n    /* \"--CODEGEN--\":291:399   */\n  pop\n    /* \"--CODEGEN--\":223:409   */\n  swap3\n  swap2\n  pop\n  pop\n  jump\n    /* \"--CODEGEN--\":417:792   */\ntag_73:\n  0x00\n    /* \"--CODEGEN--\":577:644   */\n  tag_74\n    /* \"--CODEGEN--\":641:643   */\n  0x26\n    /* \"--CODEGEN--\":636:639   */\n  dup4\n    /* \"--CODEGEN--\":577:644   */\n  jump(tag_75)\ntag_74:\n    /* \"--CODEGEN--\":570:644   */\n  swap2\n  pop\n    /* \"--CODEGEN--\":677:711   */\n  0x4f776e61626c653a206e6577206f776e657220697320746865207a65726f2061\n    /* \"--CODEGEN--\":673:674   */\n  0x00\n    /* \"--CODEGEN--\":668:671   */\n  dup4\n    /* \"--CODEGEN--\":664:675   */\n  add\n    /* \"--CODEGEN--\":657:712   */\n  mstore\n    /* \"--CODEGEN--\":746:754   */\n  0x6464726573730000000000000000000000000000000000000000000000000000\n    /* \"--CODEGEN--\":741:743   */\n  0x20\n    /* \"--CODEGEN--\":736:739   */\n  dup4\n    /* \"--CODEGEN--\":732:744   */\n  add\n    /* \"--CODEGEN--\":725:755   */\n  mstore\n    /* \"--CODEGEN--\":783:785   */\n  0x40\n    /* \"--CODEGEN--\":778:781   */\n  dup3\n    /* \"--CODEGEN--\":774:786   */\n  add\n    /* \"--CODEGEN--\":767:786   */\n  swap1\n  pop\n    /* \"--CODEGEN--\":563:792   */\n  swap2\n  swap1\n  pop\n  jump\n    /* \"--CODEGEN--\":801:1133   */\ntag_76:\n  0x00\n    /* \"--CODEGEN--\":961:1028   */\n  tag_77\n    /* \"--CODEGEN--\":1025:1027   */\n  0x20\n    /* \"--CODEGEN--\":1020:1023   */\n  dup4\n    /* \"--CODEGEN--\":961:1028   */\n  jump(tag_75)\ntag_77:\n    /* \"--CODEGEN--\":954:1028   */\n  swap2\n  pop\n    /* \"--CODEGEN--\":1061:1095   */\n  0x4f776e61626c653a2063616c6c6572206973206e6f7420746865206f776e6572\n    /* \"--CODEGEN--\":1057:1058   */\n  0x00\n    /* \"--CODEGEN--\":1052:1055   */\n  dup4\n    /* \"--CODEGEN--\":1048:1059   */\n  add\n    /* \"--CODEGEN--\":1041:1096   */\n  mstore\n    /* \"--CODEGEN--\":1124:1126   */\n  0x20\n    /* \"--CODEGEN--\":1119:1122   */\n  dup3\n    /* \"--CODEGEN--\":1115:1127   */\n  add\n    /* \"--CODEGEN--\":1108:1127   */\n  swap1\n  pop\n    /* \"--CODEGEN--\":947:1133   */\n  swap2\n  swap1\n  pop\n  jump\n    /* \"--CODEGEN--\":1141:1548   */\ntag_57:\n  0x00\n    /* \"--CODEGEN--\":1332:1334   */\n  0x20\n    /* \"--CODEGEN--\":1321:1330   */\n  dup3\n    /* \"--CODEGEN--\":1317:1335   */\n  add\n    /* \"--CODEGEN--\":1309:1335   */\n  swap1\n  pop\n    /* \"--CODEGEN--\":1382:1391   */\n  dup2\n    /* \"--CODEGEN--\":1376:1380   */\n  dup2\n    /* \"--CODEGEN--\":1372:1392   */\n  sub\n    /* \"--CODEGEN--\":1368:1369   */\n  0x00\n    /* \"--CODEGEN--\":1357:1366   */\n  dup4\n    /* \"--CODEGEN--\":1353:1370   */\n  add\n    /* \"--CODEGEN--\":1346:1393   */\n  mstore\n    /* \"--CODEGEN--\":1407:1538   */\n  tag_78\n    /* \"--CODEGEN--\":1533:1537   */\n  dup2\n    /* \"--CODEGEN--\":1407:1538   */\n  jump(tag_73)\ntag_78:\n    /* \"--CODEGEN--\":1399:1538   */\n  swap1\n  pop\n    /* \"--CODEGEN--\":1303:1548   */\n  swap2\n  swap1\n  pop\n  jump\n    /* \"--CODEGEN--\":1555:1962   */\ntag_48:\n  0x00\n    /* \"--CODEGEN--\":1746:1748   */\n  0x20\n    /* \"--CODEGEN--\":1735:1744   */\n  dup3\n    /* \"--CODEGEN--\":1731:1749   */\n  add\n    /* \"--CODEGEN--\":1723:1749   */\n  swap1\n  pop\n    /* \"--CODEGEN--\":1796:1805   */\n  dup2\n    /* \"--CODEGEN--\":1790:1794   */\n  dup2\n    /* \"--CODEGEN--\":1786:1806   */\n  sub\n    /* \"--CODEGEN--\":1782:1783   */\n  0x00\n    /* \"--CODEGEN--\":1771:1780   */\n  dup4\n    /* \"--CODEGEN--\":1767:1784   */\n  add\n    /* \"--CODEGEN--\":1760:1807   */\n  mstore\n    /* \"--CODEGEN--\":1821:1952   */\n  tag_79\n    /* \"--CODEGEN--\":1947:1951   */\n  dup2\n    /* \"--CODEGEN--\":1821:1952   */\n  jump(tag_76)\ntag_79:\n    /* \"--CODEGEN--\":1813:1952   */\n  swap1\n  pop\n    /* \"--CODEGEN--\":1717:1962   */\n  swap2\n  swap1\n  pop\n  jump\n    /* \"--CODEGEN--\":1970:2133   */\ntag_75:\n  0x00\n    /* \"--CODEGEN--\":2085:2091   */\n  dup3\n    /* \"--CODEGEN--\":2080:2083   */\n  dup3\n    /* \"--CODEGEN--\":2073:2092   */\n  mstore\n    /* \"--CODEGEN--\":2122:2126   */\n  0x20\n    /* \"--CODEGEN--\":2117:2120   */\n  dup3\n    /* \"--CODEGEN--\":2113:2127   */\n  add\n    /* \"--CODEGEN--\":2098:2127   */\n  swap1\n  pop\n    /* \"--CODEGEN--\":2066:2133   */\n  swap3\n  swap2\n  pop\n  pop\n  jump\n    /* \"--CODEGEN--\":2141:2232   */\ntag_80:\n  0x00\n    /* \"--CODEGEN--\":2203:2227   */\n  tag_81\n    /* \"--CODEGEN--\":2221:2226   */\n  dup3\n    /* \"--CODEGEN--\":2203:2227   */\n  jump(tag_82)\ntag_81:\n    /* \"--CODEGEN--\":2192:2227   */\n  swap1\n  pop\n    /* \"--CODEGEN--\":2186:2232   */\n  swap2\n  swap1\n  pop\n  jump\n    /* \"--CODEGEN--\":2239:2360   */\ntag_82:\n  0x00\n    /* \"--CODEGEN--\":2312:2354   */\n  0xffffffffffffffffffffffffffffffffffffffff\n    /* \"--CODEGEN--\":2305:2310   */\n  dup3\n    /* \"--CODEGEN--\":2301:2355   */\n  and\n    /* \"--CODEGEN--\":2290:2355   */\n  swap1\n  pop\n    /* \"--CODEGEN--\":2284:2360   */\n  swap2\n  swap1\n  pop\n  jump\n    /* \"--CODEGEN--\":2367:2484   */\ntag_70:\n    /* \"--CODEGEN--\":2436:2460   */\n  tag_83\n    /* \"--CODEGEN--\":2454:2459   */\n  dup2\n    /* \"--CODEGEN--\":2436:2460   */\n  jump(tag_80)\ntag_83:\n    /* \"--CODEGEN--\":2429:2434   */\n  dup2\n    /* \"--CODEGEN--\":2426:2461   */\n  eq\n    /* \"--CODEGEN--\":2416:2418   */\n  tag_84\n  jumpi\n    /* \"--CODEGEN--\":2475:2476   */\n  0x00\n    /* \"--CODEGEN--\":2472:2473   */\n  dup1\n    /* \"--CODEGEN--\":2465:2477   */\n  revert\n    /* \"--CODEGEN--\":2416:2418   */\ntag_84:\n    /* \"--CODEGEN--\":2410:2484   */\n  pop\n  jump\n    /* \"AdminManger.sol\":7093:23275  contract AdminManager is Ownable, ERC721Holder {... */\ntag_41:\n  dataSize(sub_0)\n  dup1\n  dataOffset(sub_0)\n  0x00\n  codecopy\n  0x00\n  return\nstop\n\nsub_0: assembly {\n        /* \"AdminManger.sol\":7093:23275  contract AdminManager is Ownable, ERC721Holder {... */\n      mstore(0x40, 0x80)\n      jumpi(tag_1, lt(calldatasize, 0x04))\n      shr(0xe0, calldataload(0x00))\n      dup1\n      0x640cf873\n      gt\n      tag_39\n      jumpi\n      dup1\n      0xace561a8\n      gt\n      tag_40\n      jumpi\n      dup1\n      0xf2fde38b\n      gt\n      tag_41\n      jumpi\n      dup1\n      0xf2fde38b\n      eq\n      tag_34\n      jumpi\n      dup1\n      0xf4f3b200\n      eq\n      tag_35\n      jumpi\n      dup1\n      0xfba08d45\n      eq\n      tag_36\n      jumpi\n      dup1\n      0xfddea900\n      eq\n      tag_37\n      jumpi\n      dup1\n      0xff8edbdb\n      eq\n      tag_38\n      jumpi\n      jump(tag_1)\n    tag_41:\n      dup1\n      0xace561a8\n      eq\n      tag_29\n      jumpi\n      dup1\n      0xb6011b4c\n      eq\n      tag_30\n      jumpi\n      dup1\n      0xc0f4ed31\n      eq\n      tag_31\n      jumpi\n      dup1\n      0xc347f69b\n      eq\n      tag_32\n      jumpi\n      dup1\n      0xe7ab44b4\n      eq\n      tag_33\n      jumpi\n      jump(tag_1)\n    tag_40:\n      dup1\n      0x8450ebe4\n      gt\n      tag_42\n      jumpi\n      dup1\n      0x8450ebe4\n      eq\n      tag_24\n      jumpi\n      dup1\n      0x8c6ab013\n      eq\n      tag_25\n      jumpi\n      dup1\n      0x8da5cb5b\n      eq\n      tag_26\n      jumpi\n      dup1\n      0x8f32d59b\n      eq\n      tag_27\n      jumpi\n      dup1\n      0x9dc6b78d\n      eq\n      tag_28\n      jumpi\n      jump(tag_1)\n    tag_42:\n      dup1\n      0x640cf873\n      eq\n      tag_20\n      jumpi\n      dup1\n      0x70480275\n      eq\n      tag_21\n      jumpi\n      dup1\n      0x715018a6\n      eq\n      tag_22\n      jumpi\n      dup1\n      0x7ad157b9\n      eq\n      tag_23\n      jumpi\n      jump(tag_1)\n    tag_39:\n      dup1\n      0x3169b515\n      gt\n      tag_43\n      jumpi\n      dup1\n      0x47fcf018\n      gt\n      tag_44\n      jumpi\n      dup1\n      0x47fcf018\n      eq\n      tag_15\n      jumpi\n      dup1\n      0x485f952e\n      eq\n      tag_16\n      jumpi\n      dup1\n      0x488b0f7d\n      eq\n      tag_17\n      jumpi\n      dup1\n      0x4a0aafda\n      eq\n      tag_18\n      jumpi\n      dup1\n      0x5aa8680a\n      eq\n      tag_19\n      jumpi\n      jump(tag_1)\n    tag_44:\n      dup1\n      0x3169b515\n      eq\n      tag_11\n      jumpi\n      dup1\n      0x31ae450b\n      eq\n      tag_12\n      jumpi\n      dup1\n      0x3790767d\n      eq\n      tag_13\n      jumpi\n      dup1\n      0x3ccfd60b\n      eq\n      tag_14\n      jumpi\n      jump(tag_1)\n    tag_43:\n      dup1\n      0x1785f53c\n      gt\n      tag_45\n      jumpi\n      dup1\n      0x1785f53c\n      eq\n      tag_6\n      jumpi\n      dup1\n      0x179443f3\n      eq\n      tag_7\n      jumpi\n      dup1\n      0x17c48a70\n      eq\n      tag_8\n      jumpi\n      dup1\n      0x18fa0653\n      eq\n      tag_9\n      jumpi\n      dup1\n      0x1afffec0\n      eq\n      tag_10\n      jumpi\n      jump(tag_1)\n    tag_45:\n      dup1\n      0x0a1b0b91\n      eq\n      tag_2\n      jumpi\n      dup1\n      0x0c82ea1a\n      eq\n      tag_3\n      jumpi\n      dup1\n      0x14bfd6d0\n      eq\n      tag_4\n      jumpi\n      dup1\n      0x150b7a02\n      eq\n      tag_5\n      jumpi\n    tag_1:\n      stop\n        /* \"AdminManger.sol\":21627:22034  function erc20TransferFrom(... */\n    tag_2:\n      callvalue\n        /* \"--CODEGEN--\":8:17   */\n      dup1\n        /* \"--CODEGEN--\":5:7   */\n      iszero\n      tag_48\n      jumpi\n        /* \"--CODEGEN--\":30:31   */\n      0x00\n        /* \"--CODEGEN--\":27:28   */\n      dup1\n        /* \"--CODEGEN--\":20:32   */\n      revert\n        /* \"--CODEGEN--\":5:7   */\n    tag_48:\n        /* \"AdminManger.sol\":21627:22034  function erc20TransferFrom(... */\n      pop\n      tag_49\n      0x04\n      dup1\n      calldatasize\n      sub\n      tag_50\n      swap2\n      swap1\n      dup2\n      add\n      swap1\n      jump(tag_51)\n    tag_50:\n      tag_52\n      jump\t// in\n    tag_49:\n      stop\n        /* \"AdminManger.sol\":22470:22909  function erc20DecreaseAllowance(... */\n    tag_3:\n      callvalue\n        /* \"--CODEGEN--\":8:17   */\n      dup1\n        /* \"--CODEGEN--\":5:7   */\n      iszero\n      tag_53\n      jumpi\n        /* \"--CODEGEN--\":30:31   */\n      0x00\n        /* \"--CODEGEN--\":27:28   */\n      dup1\n        /* \"--CODEGEN--\":20:32   */\n      revert\n        /* \"--CODEGEN--\":5:7   */\n    tag_53:\n        /* \"AdminManger.sol\":22470:22909  function erc20DecreaseAllowance(... */\n      pop\n      tag_54\n      0x04\n      dup1\n      calldatasize\n      sub\n      tag_55\n      swap2\n      swap1\n      dup2\n      add\n      swap1\n      jump(tag_56)\n    tag_55:\n      tag_57\n      jump\t// in\n    tag_54:\n      stop\n        /* \"AdminManger.sol\":7146:7169  address[] public admins */\n    tag_4:\n      callvalue\n        /* \"--CODEGEN--\":8:17   */\n      dup1\n        /* \"--CODEGEN--\":5:7   */\n      iszero\n      tag_58\n      jumpi\n        /* \"--CODEGEN--\":30:31   */\n      0x00\n        /* \"--CODEGEN--\":27:28   */\n      dup1\n        /* \"--CODEGEN--\":20:32   */\n      revert\n        /* \"--CODEGEN--\":5:7   */\n    tag_58:\n        /* \"AdminManger.sol\":7146:7169  address[] public admins */\n      pop\n      tag_59\n      0x04\n      dup1\n      calldatasize\n      sub\n      tag_60\n      swap2\n      swap1\n      dup2\n      add\n      swap1\n      jump(tag_61)\n    tag_60:\n      tag_62\n      jump\t// in\n    tag_59:\n      mload(0x40)\n      tag_63\n      swap2\n      swap1\n      jump(tag_64)\n    tag_63:\n      mload(0x40)\n      dup1\n      swap2\n      sub\n      swap1\n      return\n        /* \"AdminManger.sol\":3092:3275  function onERC721Received(... */\n    tag_5:\n      callvalue\n        /* \"--CODEGEN--\":8:17   */\n      dup1\n        /* \"--CODEGEN--\":5:7   */\n      iszero\n      tag_65\n      jumpi\n        /* \"--CODEGEN--\":30:31   */\n      0x00\n        /* \"--CODEGEN--\":27:28   */\n      dup1\n        /* \"--CODEGEN--\":20:32   */\n      revert\n        /* \"--CODEGEN--\":5:7   */\n    tag_65:\n        /* \"AdminManger.sol\":3092:3275  function onERC721Received(... */\n      pop\n      tag_66\n      0x04\n      dup1\n      calldatasize\n      sub\n      tag_67\n      swap2\n      swap1\n      dup2\n      add\n      swap1\n      jump(tag_68)\n    tag_67:\n      tag_69\n      jump\t// in\n    tag_66:\n      mload(0x40)\n      tag_70\n      swap2\n      swap1\n      jump(tag_71)\n    tag_70:\n      mload(0x40)\n      dup1\n      swap2\n      sub\n      swap1\n      return\n        /* \"AdminManger.sol\":11173:11508  function removeAdmin(address admin) public onlyOwner {... */\n    tag_6:\n      callvalue\n        /* \"--CODEGEN--\":8:17   */\n      dup1\n        /* \"--CODEGEN--\":5:7   */\n      iszero\n      tag_72\n      jumpi\n        /* \"--CODEGEN--\":30:31   */\n      0x00\n        /* \"--CODEGEN--\":27:28   */\n      dup1\n        /* \"--CODEGEN--\":20:32   */\n      revert\n        /* \"--CODEGEN--\":5:7   */\n    tag_72:\n        /* \"AdminManger.sol\":11173:11508  function removeAdmin(address admin) public onlyOwner {... */\n      pop\n      tag_73\n      0x04\n      dup1\n      calldatasize\n      sub\n      tag_74\n      swap2\n      swap1\n      dup2\n      add\n      swap1\n      jump(tag_75)\n    tag_74:\n      tag_76\n      jump\t// in\n    tag_73:\n      stop\n        /* \"AdminManger.sol\":17959:18309  function putSaleOff(uint256 tokenID, address _mintableToken)... */\n    tag_7:\n      callvalue\n        /* \"--CODEGEN--\":8:17   */\n      dup1\n        /* \"--CODEGEN--\":5:7   */\n      iszero\n      tag_77\n      jumpi\n        /* \"--CODEGEN--\":30:31   */\n      0x00\n        /* \"--CODEGEN--\":27:28   */\n      dup1\n        /* \"--CODEGEN--\":20:32   */\n      revert\n        /* \"--CODEGEN--\":5:7   */\n    tag_77:\n        /* \"AdminManger.sol\":17959:18309  function putSaleOff(uint256 tokenID, address _mintableToken)... */\n      pop\n      tag_78\n      0x04\n      dup1\n      calldatasize\n      sub\n      tag_79\n      swap2\n      swap1\n      dup2\n      add\n      swap1\n      jump(tag_80)\n    tag_79:\n      tag_81\n      jump\t// in\n    tag_78:\n      stop\n        /* \"AdminManger.sol\":19210:19614  function revertOffer(... */\n    tag_8:\n      tag_82\n      0x04\n      dup1\n      calldatasize\n      sub\n      tag_83\n      swap2\n      swap1\n      dup2\n      add\n      swap1\n      jump(tag_84)\n    tag_83:\n      tag_85\n      jump\t// in\n    tag_82:\n      stop\n        /* \"AdminManger.sol\":12459:12881  function erc721Approve(... */\n    tag_9:\n      callvalue\n        /* \"--CODEGEN--\":8:17   */\n      dup1\n        /* \"--CODEGEN--\":5:7   */\n      iszero\n      tag_86\n      jumpi\n        /* \"--CODEGEN--\":30:31   */\n      0x00\n        /* \"--CODEGEN--\":27:28   */\n      dup1\n        /* \"--CODEGEN--\":20:32   */\n      revert\n        /* \"--CODEGEN--\":5:7   */\n    tag_86:\n        /* \"AdminManger.sol\":12459:12881  function erc721Approve(... */\n      pop\n      tag_87\n      0x04\n      dup1\n      calldatasize\n      sub\n      tag_88\n      swap2\n      swap1\n      dup2\n      add\n      swap1\n      jump(tag_56)\n    tag_88:\n      tag_89\n      jump\t// in\n    tag_87:\n      stop\n        /* \"AdminManger.sol\":20827:21248  function erc20IncreaseApproval(... */\n    tag_10:\n      callvalue\n        /* \"--CODEGEN--\":8:17   */\n      dup1\n        /* \"--CODEGEN--\":5:7   */\n      iszero\n      tag_90\n      jumpi\n        /* \"--CODEGEN--\":30:31   */\n      0x00\n        /* \"--CODEGEN--\":27:28   */\n      dup1\n        /* \"--CODEGEN--\":20:32   */\n      revert\n        /* \"--CODEGEN--\":5:7   */\n    tag_90:\n        /* \"AdminManger.sol\":20827:21248  function erc20IncreaseApproval(... */\n      pop\n      tag_91\n      0x04\n      dup1\n      calldatasize\n      sub\n      tag_92\n      swap2\n      swap1\n      dup2\n      add\n      swap1\n      jump(tag_56)\n    tag_92:\n      tag_93\n      jump\t// in\n    tag_91:\n      stop\n        /* \"AdminManger.sol\":18315:18752  function makeAnOffer(... */\n    tag_11:\n      tag_94\n      0x04\n      dup1\n      calldatasize\n      sub\n      tag_95\n      swap2\n      swap1\n      dup2\n      add\n      swap1\n      jump(tag_96)\n    tag_95:\n      tag_97\n      jump\t// in\n    tag_94:\n      stop\n        /* \"AdminManger.sol\":10888:10978  function getAdmins() public view returns (address[] memory) {... */\n    tag_12:\n      callvalue\n        /* \"--CODEGEN--\":8:17   */\n      dup1\n        /* \"--CODEGEN--\":5:7   */\n      iszero\n      tag_98\n      jumpi\n        /* \"--CODEGEN--\":30:31   */\n      0x00\n        /* \"--CODEGEN--\":27:28   */\n      dup1\n        /* \"--CODEGEN--\":20:32   */\n      revert\n        /* \"--CODEGEN--\":5:7   */\n    tag_98:\n        /* \"AdminManger.sol\":10888:10978  function getAdmins() public view returns (address[] memory) {... */\n      pop\n      tag_99\n      tag_100\n      jump\t// in\n    tag_99:\n      mload(0x40)\n      tag_101\n      swap2\n      swap1\n      jump(tag_102)\n    tag_101:\n      mload(0x40)\n      dup1\n      swap2\n      sub\n      swap1\n      return\n        /* \"AdminManger.sol\":21254:21621  function erc20Transfer(... */\n    tag_13:\n      callvalue\n        /* \"--CODEGEN--\":8:17   */\n      dup1\n        /* \"--CODEGEN--\":5:7   */\n      iszero\n      tag_103\n      jumpi\n        /* \"--CODEGEN--\":30:31   */\n      0x00\n        /* \"--CODEGEN--\":27:28   */\n      dup1\n        /* \"--CODEGEN--\":20:32   */\n      revert\n        /* \"--CODEGEN--\":5:7   */\n    tag_103:\n        /* \"AdminManger.sol\":21254:21621  function erc20Transfer(... */\n      pop\n      tag_104\n      0x04\n      dup1\n      calldatasize\n      sub\n      tag_105\n      swap2\n      swap1\n      dup2\n      add\n      swap1\n      jump(tag_56)\n    tag_105:\n      tag_106\n      jump\t// in\n    tag_104:\n      stop\n        /* \"AdminManger.sol\":22976:23072  function withdraw() public onlyOwner {... */\n    tag_14:\n      callvalue\n        /* \"--CODEGEN--\":8:17   */\n      dup1\n        /* \"--CODEGEN--\":5:7   */\n      iszero\n      tag_107\n      jumpi\n        /* \"--CODEGEN--\":30:31   */\n      0x00\n        /* \"--CODEGEN--\":27:28   */\n      dup1\n        /* \"--CODEGEN--\":20:32   */\n      revert\n        /* \"--CODEGEN--\":5:7   */\n    tag_107:\n        /* \"AdminManger.sol\":22976:23072  function withdraw() public onlyOwner {... */\n      pop\n      tag_108\n      tag_109\n      jump\t// in\n    tag_108:\n      stop\n        /* \"AdminManger.sol\":11857:12393  function burnNFT(address collection, uint256 tokenId)... */\n    tag_15:\n      callvalue\n        /* \"--CODEGEN--\":8:17   */\n      dup1\n        /* \"--CODEGEN--\":5:7   */\n      iszero\n      tag_110\n      jumpi\n        /* \"--CODEGEN--\":30:31   */\n      0x00\n        /* \"--CODEGEN--\":27:28   */\n      dup1\n        /* \"--CODEGEN--\":20:32   */\n      revert\n        /* \"--CODEGEN--\":5:7   */\n    tag_110:\n        /* \"AdminManger.sol\":11857:12393  function burnNFT(address collection, uint256 tokenId)... */\n      pop\n      tag_111\n      0x04\n      dup1\n      calldatasize\n      sub\n      tag_112\n      swap2\n      swap1\n      dup2\n      add\n      swap1\n      jump(tag_113)\n    tag_112:\n      tag_114\n      jump\t// in\n    tag_111:\n      stop\n        /* \"AdminManger.sol\":13318:13700  function erc721Burn(address _ERC721Address, uint256 tokenId)... */\n    tag_16:\n      callvalue\n        /* \"--CODEGEN--\":8:17   */\n      dup1\n        /* \"--CODEGEN--\":5:7   */\n      iszero\n      tag_115\n      jumpi\n        /* \"--CODEGEN--\":30:31   */\n      0x00\n        /* \"--CODEGEN--\":27:28   */\n      dup1\n        /* \"--CODEGEN--\":20:32   */\n      revert\n        /* \"--CODEGEN--\":5:7   */\n    tag_115:\n        /* \"AdminManger.sol\":13318:13700  function erc721Burn(address _ERC721Address, uint256 tokenId)... */\n      pop\n      tag_116\n      0x04\n      dup1\n      calldatasize\n      sub\n      tag_117\n      swap2\n      swap1\n      dup2\n      add\n      swap1\n      jump(tag_113)\n    tag_117:\n      tag_118\n      jump\t// in\n    tag_116:\n      stop\n        /* \"AdminManger.sol\":14614:15121  function erc721SafeTransferFrom(... */\n    tag_17:\n      callvalue\n        /* \"--CODEGEN--\":8:17   */\n      dup1\n        /* \"--CODEGEN--\":5:7   */\n      iszero\n      tag_119\n      jumpi\n        /* \"--CODEGEN--\":30:31   */\n      0x00\n        /* \"--CODEGEN--\":27:28   */\n      dup1\n        /* \"--CODEGEN--\":20:32   */\n      revert\n        /* \"--CODEGEN--\":5:7   */\n    tag_119:\n        /* \"AdminManger.sol\":14614:15121  function erc721SafeTransferFrom(... */\n      pop\n      tag_120\n      0x04\n      dup1\n      calldatasize\n      sub\n      tag_121\n      swap2\n      swap1\n      dup2\n      add\n      swap1\n      jump(tag_122)\n    tag_121:\n      tag_123\n      jump\t// in\n    tag_120:\n      stop\n        /* \"AdminManger.sol\":14136:14608  function erc721SafeTransferFrom(... */\n    tag_18:\n      callvalue\n        /* \"--CODEGEN--\":8:17   */\n      dup1\n        /* \"--CODEGEN--\":5:7   */\n      iszero\n      tag_124\n      jumpi\n        /* \"--CODEGEN--\":30:31   */\n      0x00\n        /* \"--CODEGEN--\":27:28   */\n      dup1\n        /* \"--CODEGEN--\":20:32   */\n      revert\n        /* \"--CODEGEN--\":5:7   */\n    tag_124:\n        /* \"AdminManger.sol\":14136:14608  function erc721SafeTransferFrom(... */\n      pop\n      tag_125\n      0x04\n      dup1\n      calldatasize\n      sub\n      tag_126\n      swap2\n      swap1\n      dup2\n      add\n      swap1\n      jump(tag_51)\n    tag_126:\n      tag_127\n      jump\t// in\n    tag_125:\n      stop\n        /* \"AdminManger.sol\":18758:19204  function accpetOffer(... */\n    tag_19:\n      tag_128\n      0x04\n      dup1\n      calldatasize\n      sub\n      tag_129\n      swap2\n      swap1\n      dup2\n      add\n      swap1\n      jump(tag_130)\n    tag_129:\n      tag_131\n      jump\t// in\n    tag_128:\n      stop\n        /* \"AdminManger.sol\":16792:17512  function putOnSale(... */\n    tag_20:\n      callvalue\n        /* \"--CODEGEN--\":8:17   */\n      dup1\n        /* \"--CODEGEN--\":5:7   */\n      iszero\n      tag_132\n      jumpi\n        /* \"--CODEGEN--\":30:31   */\n      0x00\n        /* \"--CODEGEN--\":27:28   */\n      dup1\n        /* \"--CODEGEN--\":20:32   */\n      revert\n        /* \"--CODEGEN--\":5:7   */\n    tag_132:\n        /* \"AdminManger.sol\":16792:17512  function putOnSale(... */\n      pop\n      tag_133\n      0x04\n      dup1\n      calldatasize\n      sub\n      tag_134\n      swap2\n      swap1\n      dup2\n      add\n      swap1\n      jump(tag_135)\n    tag_134:\n      tag_136\n      jump\t// in\n    tag_133:\n      stop\n        /* \"AdminManger.sol\":10444:10689  function addAdmin(address admin) public onlyOwner {... */\n    tag_21:\n      callvalue\n        /* \"--CODEGEN--\":8:17   */\n      dup1\n        /* \"--CODEGEN--\":5:7   */\n      iszero\n      tag_137\n      jumpi\n        /* \"--CODEGEN--\":30:31   */\n      0x00\n        /* \"--CODEGEN--\":27:28   */\n      dup1\n        /* \"--CODEGEN--\":20:32   */\n      revert\n        /* \"--CODEGEN--\":5:7   */\n    tag_137:\n        /* \"AdminManger.sol\":10444:10689  function addAdmin(address admin) public onlyOwner {... */\n      pop\n      tag_138\n      0x04\n      dup1\n      calldatasize\n      sub\n      tag_139\n      swap2\n      swap1\n      dup2\n      add\n      swap1\n      jump(tag_75)\n    tag_139:\n      tag_140\n      jump\t// in\n    tag_138:\n      stop\n        /* \"AdminManger.sol\":2097:2234  function renounceOwnership() public onlyOwner {... */\n    tag_22:\n      callvalue\n        /* \"--CODEGEN--\":8:17   */\n      dup1\n        /* \"--CODEGEN--\":5:7   */\n      iszero\n      tag_141\n      jumpi\n        /* \"--CODEGEN--\":30:31   */\n      0x00\n        /* \"--CODEGEN--\":27:28   */\n      dup1\n        /* \"--CODEGEN--\":20:32   */\n      revert\n        /* \"--CODEGEN--\":5:7   */\n    tag_141:\n        /* \"AdminManger.sol\":2097:2234  function renounceOwnership() public onlyOwner {... */\n      pop\n      tag_142\n      tag_143\n      jump\t// in\n    tag_142:\n      stop\n        /* \"AdminManger.sol\":16391:16786  function buy(uint256 tokenID, address _mintableToken, bool isNotClubare)... */\n    tag_23:\n      tag_144\n      0x04\n      dup1\n      calldatasize\n      sub\n      tag_145\n      swap2\n      swap1\n      dup2\n      add\n      swap1\n      jump(tag_146)\n    tag_145:\n      tag_147\n      jump\t// in\n    tag_144:\n      stop\n        /* \"AdminManger.sol\":15127:15587  function erc721TransferFrom(... */\n    tag_24:\n      callvalue\n        /* \"--CODEGEN--\":8:17   */\n      dup1\n        /* \"--CODEGEN--\":5:7   */\n      iszero\n      tag_148\n      jumpi\n        /* \"--CODEGEN--\":30:31   */\n      0x00\n        /* \"--CODEGEN--\":27:28   */\n      dup1\n        /* \"--CODEGEN--\":20:32   */\n      revert\n        /* \"--CODEGEN--\":5:7   */\n    tag_148:\n        /* \"AdminManger.sol\":15127:15587  function erc721TransferFrom(... */\n      pop\n      tag_149\n      0x04\n      dup1\n      calldatasize\n      sub\n      tag_150\n      swap2\n      swap1\n      dup2\n      add\n      swap1\n      jump(tag_51)\n    tag_150:\n      tag_151\n      jump\t// in\n    tag_149:\n      stop\n        /* \"AdminManger.sol\":16011:16385  function collect(uint256 tokenID, address _mintableToken, bool isNotClubare)... */\n    tag_25:\n      callvalue\n        /* \"--CODEGEN--\":8:17   */\n      dup1\n        /* \"--CODEGEN--\":5:7   */\n      iszero\n      tag_152\n      jumpi\n        /* \"--CODEGEN--\":30:31   */\n      0x00\n        /* \"--CODEGEN--\":27:28   */\n      dup1\n        /* \"--CODEGEN--\":20:32   */\n      revert\n        /* \"--CODEGEN--\":5:7   */\n    tag_152:\n        /* \"AdminManger.sol\":16011:16385  function collect(uint256 tokenID, address _mintableToken, bool isNotClubare)... */\n      pop\n      tag_153\n      0x04\n      dup1\n      calldatasize\n      sub\n      tag_154\n      swap2\n      swap1\n      dup2\n      add\n      swap1\n      jump(tag_146)\n    tag_154:\n      tag_155\n      jump\t// in\n    tag_153:\n      stop\n        /* \"AdminManger.sol\":1312:1389  function owner() public view returns (address) {... */\n    tag_26:\n      callvalue\n        /* \"--CODEGEN--\":8:17   */\n      dup1\n        /* \"--CODEGEN--\":5:7   */\n      iszero\n      tag_156\n      jumpi\n        /* \"--CODEGEN--\":30:31   */\n      0x00\n        /* \"--CODEGEN--\":27:28   */\n      dup1\n        /* \"--CODEGEN--\":20:32   */\n      revert\n        /* \"--CODEGEN--\":5:7   */\n    tag_156:\n        /* \"AdminManger.sol\":1312:1389  function owner() public view returns (address) {... */\n      pop\n      tag_157\n      tag_158\n      jump\t// in\n    tag_157:\n      mload(0x40)\n      tag_159\n      swap2\n      swap1\n      jump(tag_64)\n    tag_159:\n      mload(0x40)\n      dup1\n      swap2\n      sub\n      swap1\n      return\n        /* \"AdminManger.sol\":1663:1755  function isOwner() public view returns (bool) {... */\n    tag_27:\n      callvalue\n        /* \"--CODEGEN--\":8:17   */\n      dup1\n        /* \"--CODEGEN--\":5:7   */\n      iszero\n      tag_160\n      jumpi\n        /* \"--CODEGEN--\":30:31   */\n      0x00\n        /* \"--CODEGEN--\":27:28   */\n      dup1\n        /* \"--CODEGEN--\":20:32   */\n      revert\n        /* \"--CODEGEN--\":5:7   */\n    tag_160:\n        /* \"AdminManger.sol\":1663:1755  function isOwner() public view returns (bool) {... */\n      pop\n      tag_161\n      tag_162\n      jump\t// in\n    tag_161:\n      mload(0x40)\n      tag_163\n      swap2\n      swap1\n      jump(tag_164)\n    tag_163:\n      mload(0x40)\n      dup1\n      swap2\n      sub\n      swap1\n      return\n        /* \"AdminManger.sol\":22040:22464  function erc20IncreaseAllowance(... */\n    tag_28:\n      callvalue\n        /* \"--CODEGEN--\":8:17   */\n      dup1\n        /* \"--CODEGEN--\":5:7   */\n      iszero\n      tag_165\n      jumpi\n        /* \"--CODEGEN--\":30:31   */\n      0x00\n        /* \"--CODEGEN--\":27:28   */\n      dup1\n        /* \"--CODEGEN--\":20:32   */\n      revert\n        /* \"--CODEGEN--\":5:7   */\n    tag_165:\n        /* \"AdminManger.sol\":22040:22464  function erc20IncreaseAllowance(... */\n      pop\n      tag_166\n      0x04\n      dup1\n      calldatasize\n      sub\n      tag_167\n      swap2\n      swap1\n      dup2\n      add\n      swap1\n      jump(tag_56)\n    tag_167:\n      tag_168\n      jump\t// in\n    tag_166:\n      stop\n        /* \"AdminManger.sol\":19993:20372  function erc20Approve(... */\n    tag_29:\n      callvalue\n        /* \"--CODEGEN--\":8:17   */\n      dup1\n        /* \"--CODEGEN--\":5:7   */\n      iszero\n      tag_169\n      jumpi\n        /* \"--CODEGEN--\":30:31   */\n      0x00\n        /* \"--CODEGEN--\":27:28   */\n      dup1\n        /* \"--CODEGEN--\":20:32   */\n      revert\n        /* \"--CODEGEN--\":5:7   */\n    tag_169:\n        /* \"AdminManger.sol\":19993:20372  function erc20Approve(... */\n      pop\n      tag_170\n      0x04\n      dup1\n      calldatasize\n      sub\n      tag_171\n      swap2\n      swap1\n      dup2\n      add\n      swap1\n      jump(tag_56)\n    tag_171:\n      tag_172\n      jump\t// in\n    tag_170:\n      stop\n        /* \"AdminManger.sol\":12887:13312  function erc721Transfer(... */\n    tag_30:\n      callvalue\n        /* \"--CODEGEN--\":8:17   */\n      dup1\n        /* \"--CODEGEN--\":5:7   */\n      iszero\n      tag_173\n      jumpi\n        /* \"--CODEGEN--\":30:31   */\n      0x00\n        /* \"--CODEGEN--\":27:28   */\n      dup1\n        /* \"--CODEGEN--\":20:32   */\n      revert\n        /* \"--CODEGEN--\":5:7   */\n    tag_173:\n        /* \"AdminManger.sol\":12887:13312  function erc721Transfer(... */\n      pop\n      tag_174\n      0x04\n      dup1\n      calldatasize\n      sub\n      tag_175\n      swap2\n      swap1\n      dup2\n      add\n      swap1\n      jump(tag_56)\n    tag_175:\n      tag_176\n      jump\t// in\n    tag_174:\n      stop\n        /* \"AdminManger.sol\":15617:16005  function bid(... */\n    tag_31:\n      tag_177\n      0x04\n      dup1\n      calldatasize\n      sub\n      tag_178\n      swap2\n      swap1\n      dup2\n      add\n      swap1\n      jump(tag_179)\n    tag_178:\n      tag_180\n      jump\t// in\n    tag_177:\n      stop\n        /* \"AdminManger.sol\":20378:20821  function erc20DecreaseApproval(... */\n    tag_32:\n      callvalue\n        /* \"--CODEGEN--\":8:17   */\n      dup1\n        /* \"--CODEGEN--\":5:7   */\n      iszero\n      tag_181\n      jumpi\n        /* \"--CODEGEN--\":30:31   */\n      0x00\n        /* \"--CODEGEN--\":27:28   */\n      dup1\n        /* \"--CODEGEN--\":20:32   */\n      revert\n        /* \"--CODEGEN--\":5:7   */\n    tag_181:\n        /* \"AdminManger.sol\":20378:20821  function erc20DecreaseApproval(... */\n      pop\n      tag_182\n      0x04\n      dup1\n      calldatasize\n      sub\n      tag_183\n      swap2\n      swap1\n      dup2\n      add\n      swap1\n      jump(tag_56)\n    tag_183:\n      tag_184\n      jump\t// in\n    tag_182:\n      stop\n        /* \"AdminManger.sol\":19620:19966  function revertAll(uint256 tokenID, address _mintableToken)... */\n    tag_33:\n      callvalue\n        /* \"--CODEGEN--\":8:17   */\n      dup1\n        /* \"--CODEGEN--\":5:7   */\n      iszero\n      tag_185\n      jumpi\n        /* \"--CODEGEN--\":30:31   */\n      0x00\n        /* \"--CODEGEN--\":27:28   */\n      dup1\n        /* \"--CODEGEN--\":20:32   */\n      revert\n        /* \"--CODEGEN--\":5:7   */\n    tag_185:\n        /* \"AdminManger.sol\":19620:19966  function revertAll(uint256 tokenID, address _mintableToken)... */\n      pop\n      tag_186\n      0x04\n      dup1\n      calldatasize\n      sub\n      tag_187\n      swap2\n      swap1\n      dup2\n      add\n      swap1\n      jump(tag_80)\n    tag_187:\n      tag_188\n      jump\t// in\n    tag_186:\n      stop\n        /* \"AdminManger.sol\":2383:2490  function transferOwnership(address newOwner) public onlyOwner {... */\n    tag_34:\n      callvalue\n        /* \"--CODEGEN--\":8:17   */\n      dup1\n        /* \"--CODEGEN--\":5:7   */\n      iszero\n      tag_189\n      jumpi\n        /* \"--CODEGEN--\":30:31   */\n      0x00\n        /* \"--CODEGEN--\":27:28   */\n      dup1\n        /* \"--CODEGEN--\":20:32   */\n      revert\n        /* \"--CODEGEN--\":5:7   */\n    tag_189:\n        /* \"AdminManger.sol\":2383:2490  function transferOwnership(address newOwner) public onlyOwner {... */\n      pop\n      tag_190\n      0x04\n      dup1\n      calldatasize\n      sub\n      tag_191\n      swap2\n      swap1\n      dup2\n      add\n      swap1\n      jump(tag_75)\n    tag_191:\n      tag_192\n      jump\t// in\n    tag_190:\n      stop\n        /* \"AdminManger.sol\":23078:23273  function withdrawERC20(address _erc20Token) public onlyOwner {... */\n    tag_35:\n      callvalue\n        /* \"--CODEGEN--\":8:17   */\n      dup1\n        /* \"--CODEGEN--\":5:7   */\n      iszero\n      tag_193\n      jumpi\n        /* \"--CODEGEN--\":30:31   */\n      0x00\n        /* \"--CODEGEN--\":27:28   */\n      dup1\n        /* \"--CODEGEN--\":20:32   */\n      revert\n        /* \"--CODEGEN--\":5:7   */\n    tag_193:\n        /* \"AdminManger.sol\":23078:23273  function withdrawERC20(address _erc20Token) public onlyOwner {... */\n      pop\n      tag_194\n      0x04\n      dup1\n      calldatasize\n      sub\n      tag_195\n      swap2\n      swap1\n      dup2\n      add\n      swap1\n      jump(tag_75)\n    tag_195:\n      tag_196\n      jump\t// in\n    tag_194:\n      stop\n        /* \"AdminManger.sol\":9729:9969  function adminExist(address _sender) public view returns (bool) {... */\n    tag_36:\n      callvalue\n        /* \"--CODEGEN--\":8:17   */\n      dup1\n        /* \"--CODEGEN--\":5:7   */\n      iszero\n      tag_197\n      jumpi\n        /* \"--CODEGEN--\":30:31   */\n      0x00\n        /* \"--CODEGEN--\":27:28   */\n      dup1\n        /* \"--CODEGEN--\":20:32   */\n      revert\n        /* \"--CODEGEN--\":5:7   */\n    tag_197:\n        /* \"AdminManger.sol\":9729:9969  function adminExist(address _sender) public view returns (bool) {... */\n      pop\n      tag_198\n      0x04\n      dup1\n      calldatasize\n      sub\n      tag_199\n      swap2\n      swap1\n      dup2\n      add\n      swap1\n      jump(tag_75)\n    tag_199:\n      tag_200\n      jump\t// in\n    tag_198:\n      mload(0x40)\n      tag_201\n      swap2\n      swap1\n      jump(tag_164)\n    tag_201:\n      mload(0x40)\n      dup1\n      swap2\n      sub\n      swap1\n      return\n        /* \"AdminManger.sol\":13706:14130  function erc721Mint(... */\n    tag_37:\n      callvalue\n        /* \"--CODEGEN--\":8:17   */\n      dup1\n        /* \"--CODEGEN--\":5:7   */\n      iszero\n      tag_202\n      jumpi\n        /* \"--CODEGEN--\":30:31   */\n      0x00\n        /* \"--CODEGEN--\":27:28   */\n      dup1\n        /* \"--CODEGEN--\":20:32   */\n      revert\n        /* \"--CODEGEN--\":5:7   */\n    tag_202:\n        /* \"AdminManger.sol\":13706:14130  function erc721Mint(... */\n      pop\n      tag_203\n      0x04\n      dup1\n      calldatasize\n      sub\n      tag_204\n      swap2\n      swap1\n      dup2\n      add\n      swap1\n      jump(tag_205)\n    tag_204:\n      tag_206\n      jump\t// in\n    tag_203:\n      stop\n        /* \"AdminManger.sol\":17518:17953  function updatePrice(... */\n    tag_38:\n      callvalue\n        /* \"--CODEGEN--\":8:17   */\n      dup1\n        /* \"--CODEGEN--\":5:7   */\n      iszero\n      tag_207\n      jumpi\n        /* \"--CODEGEN--\":30:31   */\n      0x00\n        /* \"--CODEGEN--\":27:28   */\n      dup1\n        /* \"--CODEGEN--\":20:32   */\n      revert\n        /* \"--CODEGEN--\":5:7   */\n    tag_207:\n        /* \"AdminManger.sol\":17518:17953  function updatePrice(... */\n      pop\n      tag_208\n      0x04\n      dup1\n      calldatasize\n      sub\n      tag_209\n      swap2\n      swap1\n      dup2\n      add\n      swap1\n      jump(tag_210)\n    tag_209:\n      tag_211\n      jump\t// in\n    tag_208:\n      stop\n        /* \"AdminManger.sol\":21627:22034  function erc20TransferFrom(... */\n    tag_52:\n        /* \"AdminManger.sol\":10150:10172  adminExist(msg.sender) */\n      tag_213\n        /* \"AdminManger.sol\":10161:10171  msg.sender */\n      caller\n        /* \"AdminManger.sol\":10150:10160  adminExist */\n      tag_200\n        /* \"AdminManger.sol\":10150:10172  adminExist(msg.sender) */\n      jump\t// in\n    tag_213:\n        /* \"AdminManger.sol\":10150:10185  adminExist(msg.sender) || isOwner() */\n      dup1\n      tag_214\n      jumpi\n      pop\n        /* \"AdminManger.sol\":10176:10185  isOwner() */\n      tag_215\n        /* \"AdminManger.sol\":10176:10183  isOwner */\n      tag_162\n        /* \"AdminManger.sol\":10176:10185  isOwner() */\n      jump\t// in\n    tag_215:\n        /* \"AdminManger.sol\":10150:10185  adminExist(msg.sender) || isOwner() */\n    tag_214:\n        /* \"AdminManger.sol\":10129:10246  require(... */\n      tag_216\n      jumpi\n      mload(0x40)\n      0x08c379a000000000000000000000000000000000000000000000000000000000\n      dup2\n      mstore\n      0x04\n      add\n      tag_217\n      swap1\n      jump(tag_218)\n    tag_217:\n      mload(0x40)\n      dup1\n      swap2\n      sub\n      swap1\n      revert\n    tag_216:\n        /* \"AdminManger.sol\":21784:21796  IERC20 erc20 */\n      0x00\n        /* \"AdminManger.sol\":21806:21812  _erc20 */\n      dup5\n        /* \"AdminManger.sol\":21784:21813  IERC20 erc20 = IERC20(_erc20) */\n      swap1\n      pop\n        /* \"AdminManger.sol\":21823:21828  erc20 */\n      dup1\n        /* \"AdminManger.sol\":21823:21841  erc20.transferFrom */\n      0xffffffffffffffffffffffffffffffffffffffff\n      and\n      0x23b872dd\n        /* \"AdminManger.sol\":21842:21846  from */\n      dup6\n        /* \"AdminManger.sol\":21848:21850  to */\n      dup6\n        /* \"AdminManger.sol\":21852:21857  value */\n      dup6\n        /* \"AdminManger.sol\":21823:21858  erc20.transferFrom(from, to, value) */\n      mload(0x40)\n      dup5\n      0xffffffff\n      and\n      0xe0\n      shl\n      dup2\n      mstore\n      0x04\n      add\n      tag_220\n      swap4\n      swap3\n      swap2\n      swap1\n      jump(tag_221)\n    tag_220:\n      0x00\n      mload(0x40)\n      dup1\n      dup4\n      sub\n      dup2\n      0x00\n      dup8\n      dup1\n      extcodesize\n      iszero\n        /* \"--CODEGEN--\":8:17   */\n      dup1\n        /* \"--CODEGEN--\":5:7   */\n      iszero\n      tag_222\n      jumpi\n        /* \"--CODEGEN--\":30:31   */\n      0x00\n        /* \"--CODEGEN--\":27:28   */\n      dup1\n        /* \"--CODEGEN--\":20:32   */\n      revert\n        /* \"--CODEGEN--\":5:7   */\n    tag_222:\n        /* \"AdminManger.sol\":21823:21858  erc20.transferFrom(from, to, value) */\n      pop\n      gas\n      call\n      iszero\n        /* \"--CODEGEN--\":8:17   */\n      dup1\n        /* \"--CODEGEN--\":5:7   */\n      iszero\n      tag_223\n      jumpi\n        /* \"--CODEGEN--\":45:61   */\n      returndatasize\n        /* \"--CODEGEN--\":42:43   */\n      0x00\n        /* \"--CODEGEN--\":39:40   */\n      dup1\n        /* \"--CODEGEN--\":24:62   */\n      returndatacopy\n        /* \"--CODEGEN--\":77:93   */\n      returndatasize\n        /* \"--CODEGEN--\":74:75   */\n      0x00\n        /* \"--CODEGEN--\":67:94   */\n      revert\n        /* \"--CODEGEN--\":5:7   */\n    tag_223:\n        /* \"AdminManger.sol\":21823:21858  erc20.transferFrom(from, to, value) */\n      pop\n      pop\n      pop\n      pop\n        /* \"AdminManger.sol\":21951:21964  functionNames */\n      0x02\n        /* \"AdminManger.sol\":21951:21982  functionNames.erc20TransferFrom */\n      0x14\n      add\n        /* \"AdminManger.sol\":21873:22027  AdminActionPerformed(... */\n      mload(0x40)\n      tag_224\n      swap2\n      swap1\n      jump(tag_225)\n    tag_224:\n      mload(0x40)\n      dup1\n      swap2\n      sub\n      swap1\n      keccak256\n        /* \"AdminManger.sol\":21931:21937  _erc20 */\n      dup6\n        /* \"AdminManger.sol\":21873:22027  AdminActionPerformed(... */\n      0xffffffffffffffffffffffffffffffffffffffff\n      and\n        /* \"AdminManger.sol\":21907:21917  msg.sender */\n      caller\n        /* \"AdminManger.sol\":21873:22027  AdminActionPerformed(... */\n      0xffffffffffffffffffffffffffffffffffffffff\n      and\n      0x32a9eeb55ea56eb60badfb6642d5b92be35b6da6f74892c12d0e14a50dfc2bac\n        /* \"AdminManger.sol\":21996:21998  to */\n      dup7\n        /* \"AdminManger.sol\":22012:22017  value */\n      dup7\n        /* \"AdminManger.sol\":21873:22027  AdminActionPerformed(... */\n      mload(0x40)\n      tag_226\n      swap3\n      swap2\n      swap1\n      jump(tag_227)\n    tag_226:\n      mload(0x40)\n      dup1\n      swap2\n      sub\n      swap1\n      log4\n        /* \"AdminManger.sol\":10256:10257  _ */\n      pop\n        /* \"AdminManger.sol\":21627:22034  function erc20TransferFrom(... */\n      pop\n      pop\n      pop\n      pop\n      jump\t// out\n        /* \"AdminManger.sol\":22470:22909  function erc20DecreaseAllowance(... */\n    tag_57:\n        /* \"AdminManger.sol\":10150:10172  adminExist(msg.sender) */\n      tag_229\n        /* \"AdminManger.sol\":10161:10171  msg.sender */\n      caller\n        /* \"AdminManger.sol\":10150:10160  adminExist */\n      tag_200\n        /* \"AdminManger.sol\":10150:10172  adminExist(msg.sender) */\n      jump\t// in\n    tag_229:\n        /* \"AdminManger.sol\":10150:10185  adminExist(msg.sender) || isOwner() */\n      dup1\n      tag_230\n      jumpi\n      pop\n        /* \"AdminManger.sol\":10176:10185  isOwner() */\n      tag_231\n        /* \"AdminManger.sol\":10176:10183  isOwner */\n      tag_162\n        /* \"AdminManger.sol\":10176:10185  isOwner() */\n      jump\t// in\n    tag_231:\n        /* \"AdminManger.sol\":10150:10185  adminExist(msg.sender) || isOwner() */\n    tag_230:\n        /* \"AdminManger.sol\":10129:10246  require(... */\n      tag_232\n      jumpi\n      mload(0x40)\n      0x08c379a000000000000000000000000000000000000000000000000000000000\n      dup2\n      mstore\n      0x04\n      add\n      tag_233\n      swap1\n      jump(tag_218)\n    tag_233:\n      mload(0x40)\n      dup1\n      swap2\n      sub\n      swap1\n      revert\n    tag_232:\n        /* \"AdminManger.sol\":22625:22637  IERC20 erc20 */\n      0x00\n        /* \"AdminManger.sol\":22647:22653  _erc20 */\n      dup4\n        /* \"AdminManger.sol\":22625:22654  IERC20 erc20 = IERC20(_erc20) */\n      swap1\n      pop\n        /* \"AdminManger.sol\":22664:22669  erc20 */\n      dup1\n        /* \"AdminManger.sol\":22664:22687  erc20.decreaseAllowance */\n      0xffffffffffffffffffffffffffffffffffffffff\n      and\n      0xa457c2d7\n        /* \"AdminManger.sol\":22688:22695  spender */\n      dup5\n        /* \"AdminManger.sol\":22697:22712  subtractedValue */\n      dup5\n        /* \"AdminManger.sol\":22664:22713  erc20.decreaseAllowance(spender, subtractedValue) */\n      mload(0x40)\n      dup4\n      0xffffffff\n      and\n      0xe0\n      shl\n      dup2\n      mstore\n      0x04\n      add\n      tag_235\n      swap3\n      swap2\n      swap1\n      jump(tag_227)\n    tag_235:\n      0x00\n      mload(0x40)\n      dup1\n      dup4\n      sub\n      dup2\n      0x00\n      dup8\n      dup1\n      extcodesize\n      iszero\n        /* \"--CODEGEN--\":8:17   */\n      dup1\n        /* \"--CODEGEN--\":5:7   */\n      iszero\n      tag_236\n      jumpi\n        /* \"--CODEGEN--\":30:31   */\n      0x00\n        /* \"--CODEGEN--\":27:28   */\n      dup1\n        /* \"--CODEGEN--\":20:32   */\n      revert\n        /* \"--CODEGEN--\":5:7   */\n    tag_236:\n        /* \"AdminManger.sol\":22664:22713  erc20.decreaseAllowance(spender, subtractedValue) */\n      pop\n      gas\n      call\n      iszero\n        /* \"--CODEGEN--\":8:17   */\n      dup1\n        /* \"--CODEGEN--\":5:7   */\n      iszero\n      tag_237\n      jumpi\n        /* \"--CODEGEN--\":45:61   */\n      returndatasize\n        /* \"--CODEGEN--\":42:43   */\n      0x00\n        /* \"--CODEGEN--\":39:40   */\n      dup1\n        /* \"--CODEGEN--\":24:62   */\n      returndatacopy\n        /* \"--CODEGEN--\":77:93   */\n      returndatasize\n        /* \"--CODEGEN--\":74:75   */\n      0x00\n        /* \"--CODEGEN--\":67:94   */\n      revert\n        /* \"--CODEGEN--\":5:7   */\n    tag_237:\n        /* \"AdminManger.sol\":22664:22713  erc20.decreaseAllowance(spender, subtractedValue) */\n      pop\n      pop\n      pop\n      pop\n        /* \"AdminManger.sol\":22806:22819  functionNames */\n      0x02\n        /* \"AdminManger.sol\":22806:22842  functionNames.erc20DecreaseAllowance */\n      0x16\n      add\n        /* \"AdminManger.sol\":22728:22902  AdminActionPerformed(... */\n      mload(0x40)\n      tag_238\n      swap2\n      swap1\n      jump(tag_225)\n    tag_238:\n      mload(0x40)\n      dup1\n      swap2\n      sub\n      swap1\n      keccak256\n        /* \"AdminManger.sol\":22786:22792  _erc20 */\n      dup5\n        /* \"AdminManger.sol\":22728:22902  AdminActionPerformed(... */\n      0xffffffffffffffffffffffffffffffffffffffff\n      and\n        /* \"AdminManger.sol\":22762:22772  msg.sender */\n      caller\n        /* \"AdminManger.sol\":22728:22902  AdminActionPerformed(... */\n      0xffffffffffffffffffffffffffffffffffffffff\n      and\n      0x32a9eeb55ea56eb60badfb6642d5b92be35b6da6f74892c12d0e14a50dfc2bac\n        /* \"AdminManger.sol\":22856:22863  spender */\n      dup7\n        /* \"AdminManger.sol\":22877:22892  subtractedValue */\n      dup7\n        /* \"AdminManger.sol\":22728:22902  AdminActionPerformed(... */\n      mload(0x40)\n      tag_239\n      swap3\n      swap2\n      swap1\n      jump(tag_227)\n    tag_239:\n      mload(0x40)\n      dup1\n      swap2\n      sub\n      swap1\n      log4\n        /* \"AdminManger.sol\":10256:10257  _ */\n      pop\n        /* \"AdminManger.sol\":22470:22909  function erc20DecreaseAllowance(... */\n      pop\n      pop\n      pop\n      jump\t// out\n        /* \"AdminManger.sol\":7146:7169  address[] public admins */\n    tag_62:\n      0x01\n      dup2\n      dup2\n      sload\n      dup2\n      lt\n      tag_240\n      jumpi\n      invalid\n    tag_240:\n      swap1\n      0x00\n      mstore\n      keccak256(0x00, 0x20)\n      add\n      0x00\n      swap2\n      pop\n      sload\n      swap1\n      0x0100\n      exp\n      swap1\n      div\n      0xffffffffffffffffffffffffffffffffffffffff\n      and\n      dup2\n      jump\t// out\n        /* \"AdminManger.sol\":3092:3275  function onERC721Received(... */\n    tag_69:\n        /* \"AdminManger.sol\":3213:3219  bytes4 */\n      0x00\n        /* \"AdminManger.sol\":3238:3268  this.onERC721Received.selector */\n      shl(0xe0, 0x150b7a02)\n        /* \"AdminManger.sol\":3231:3268  return this.onERC721Received.selector */\n      swap1\n      pop\n        /* \"AdminManger.sol\":3092:3275  function onERC721Received(... */\n      swap5\n      swap4\n      pop\n      pop\n      pop\n      pop\n      jump\t// out\n        /* \"AdminManger.sol\":11173:11508  function removeAdmin(address admin) public onlyOwner {... */\n    tag_76:\n        /* \"AdminManger.sol\":1516:1525  isOwner() */\n      tag_244\n        /* \"AdminManger.sol\":1516:1523  isOwner */\n      tag_162\n        /* \"AdminManger.sol\":1516:1525  isOwner() */\n      jump\t// in\n    tag_244:\n        /* \"AdminManger.sol\":1508:1562  require(isOwner(), \"Ownable: caller is not the owner\") */\n      tag_245\n      jumpi\n      mload(0x40)\n      0x08c379a000000000000000000000000000000000000000000000000000000000\n      dup2\n      mstore\n      0x04\n      add\n      tag_246\n      swap1\n      jump(tag_247)\n    tag_246:\n      mload(0x40)\n      dup1\n      swap2\n      sub\n      swap1\n      revert\n    tag_245:\n        /* \"AdminManger.sol\":11241:11250  uint256 i */\n      0x00\n        /* \"AdminManger.sol\":11253:11254  0 */\n      dup1\n        /* \"AdminManger.sol\":11241:11254  uint256 i = 0 */\n      swap1\n      pop\n        /* \"AdminManger.sol\":11236:11451  for (uint256 i = 0; i < admins.length; i++) {... */\n    tag_249:\n        /* \"AdminManger.sol\":11260:11266  admins */\n      0x01\n        /* \"AdminManger.sol\":11260:11273  admins.length */\n      dup1\n      sload\n      swap1\n      pop\n        /* \"AdminManger.sol\":11256:11257  i */\n      dup2\n        /* \"AdminManger.sol\":11256:11273  i < admins.length */\n      lt\n        /* \"AdminManger.sol\":11236:11451  for (uint256 i = 0; i < admins.length; i++) {... */\n      iszero\n      tag_250\n      jumpi\n        /* \"AdminManger.sol\":11311:11316  admin */\n      dup2\n        /* \"AdminManger.sol\":11298:11316  admins[i] == admin */\n      0xffffffffffffffffffffffffffffffffffffffff\n      and\n        /* \"AdminManger.sol\":11298:11304  admins */\n      0x01\n        /* \"AdminManger.sol\":11305:11306  i */\n      dup3\n        /* \"AdminManger.sol\":11298:11307  admins[i] */\n      dup2\n      sload\n      dup2\n      lt\n      tag_252\n      jumpi\n      invalid\n    tag_252:\n      swap1\n      0x00\n      mstore\n      keccak256(0x00, 0x20)\n      add\n      0x00\n      swap1\n      sload\n      swap1\n      0x0100\n      exp\n      swap1\n      div\n      0xffffffffffffffffffffffffffffffffffffffff\n      and\n        /* \"AdminManger.sol\":11298:11316  admins[i] == admin */\n      0xffffffffffffffffffffffffffffffffffffffff\n      and\n      eq\n        /* \"AdminManger.sol\":11294:11441  if (admins[i] == admin) {... */\n      iszero\n      tag_254\n      jumpi\n        /* \"AdminManger.sol\":11364:11370  admins */\n      0x01\n        /* \"AdminManger.sol\":11371:11372  i */\n      dup2\n        /* \"AdminManger.sol\":11364:11373  admins[i] */\n      dup2\n      sload\n      dup2\n      lt\n      tag_255\n      jumpi\n      invalid\n    tag_255:\n      swap1\n      0x00\n      mstore\n      keccak256(0x00, 0x20)\n      add\n      0x00\n      swap1\n      sload\n      swap1\n      0x0100\n      exp\n      swap1\n      div\n      0xffffffffffffffffffffffffffffffffffffffff\n      and\n        /* \"AdminManger.sol\":11336:11342  admins */\n      0x01\n        /* \"AdminManger.sol\":11359:11360  1 */\n      dup1\n        /* \"AdminManger.sol\":11343:11349  admins */\n      dup1\n        /* \"AdminManger.sol\":11343:11356  admins.length */\n      dup1\n      sload\n      swap1\n      pop\n        /* \"AdminManger.sol\":11343:11360  admins.length - 1 */\n      sub\n        /* \"AdminManger.sol\":11336:11361  admins[admins.length - 1] */\n      dup2\n      sload\n      dup2\n      lt\n      tag_257\n      jumpi\n      invalid\n    tag_257:\n      swap1\n      0x00\n      mstore\n      keccak256(0x00, 0x20)\n      add\n      0x00\n        /* \"AdminManger.sol\":11336:11373  admins[admins.length - 1] = admins[i] */\n      0x0100\n      exp\n      dup2\n      sload\n      dup2\n      0xffffffffffffffffffffffffffffffffffffffff\n      mul\n      not\n      and\n      swap1\n      dup4\n      0xffffffffffffffffffffffffffffffffffffffff\n      and\n      mul\n      or\n      swap1\n      sstore\n      pop\n        /* \"AdminManger.sol\":11391:11397  admins */\n      0x01\n        /* \"AdminManger.sol\":11391:11403  admins.pop() */\n      dup1\n      sload\n      dup1\n      tag_259\n      jumpi\n      invalid\n    tag_259:\n      0x01\n      swap1\n      sub\n      dup2\n      dup2\n      swap1\n      0x00\n      mstore\n      keccak256(0x00, 0x20)\n      add\n      exp(0x0100, 0x00)\n      dup2\n      sload\n      swap1\n      0xffffffffffffffffffffffffffffffffffffffff\n      mul\n      not\n      and\n      swap1\n      sstore\n      swap1\n      sstore\n        /* \"AdminManger.sol\":11421:11426  break */\n      jump(tag_250)\n        /* \"AdminManger.sol\":11294:11441  if (admins[i] == admin) {... */\n    tag_254:\n        /* \"AdminManger.sol\":11275:11278  i++ */\n      dup1\n      dup1\n      0x01\n      add\n      swap2\n      pop\n      pop\n        /* \"AdminManger.sol\":11236:11451  for (uint256 i = 0; i < admins.length; i++) {... */\n      jump(tag_249)\n    tag_250:\n      pop\n        /* \"AdminManger.sol\":11465:11501  AdminRemoved(admin, block.timestamp) */\n      0xa0726c73cf6ad18ddb855ba65d1ddd4d7fd37d320f4e52f6b154c13d386f5fd9\n        /* \"AdminManger.sol\":11478:11483  admin */\n      dup2\n        /* \"AdminManger.sol\":11485:11500  block.timestamp */\n      timestamp\n        /* \"AdminManger.sol\":11465:11501  AdminRemoved(admin, block.timestamp) */\n      mload(0x40)\n      tag_261\n      swap3\n      swap2\n      swap1\n      jump(tag_227)\n    tag_261:\n      mload(0x40)\n      dup1\n      swap2\n      sub\n      swap1\n      log1\n        /* \"AdminManger.sol\":11173:11508  function removeAdmin(address admin) public onlyOwner {... */\n      pop\n      jump\t// out\n        /* \"AdminManger.sol\":17959:18309  function putSaleOff(uint256 tokenID, address _mintableToken)... */\n    tag_81:\n        /* \"AdminManger.sol\":10150:10172  adminExist(msg.sender) */\n      tag_263\n        /* \"AdminManger.sol\":10161:10171  msg.sender */\n      caller\n        /* \"AdminManger.sol\":10150:10160  adminExist */\n      tag_200\n        /* \"AdminManger.sol\":10150:10172  adminExist(msg.sender) */\n      jump\t// in\n    tag_263:\n        /* \"AdminManger.sol\":10150:10185  adminExist(msg.sender) || isOwner() */\n      dup1\n      tag_264\n      jumpi\n      pop\n        /* \"AdminManger.sol\":10176:10185  isOwner() */\n      tag_265\n        /* \"AdminManger.sol\":10176:10183  isOwner */\n      tag_162\n        /* \"AdminManger.sol\":10176:10185  isOwner() */\n      jump\t// in\n    tag_265:\n        /* \"AdminManger.sol\":10150:10185  adminExist(msg.sender) || isOwner() */\n    tag_264:\n        /* \"AdminManger.sol\":10129:10246  require(... */\n      tag_266\n      jumpi\n      mload(0x40)\n      0x08c379a000000000000000000000000000000000000000000000000000000000\n      dup2\n      mstore\n      0x04\n      add\n      tag_267\n      swap1\n      jump(tag_218)\n    tag_267:\n      mload(0x40)\n      dup1\n      swap2\n      sub\n      swap1\n      revert\n    tag_266:\n        /* \"AdminManger.sol\":18075:18081  broker */\n      0x1c\n      0x00\n      swap1\n      sload\n      swap1\n      0x0100\n      exp\n      swap1\n      div\n      0xffffffffffffffffffffffffffffffffffffffff\n      and\n        /* \"AdminManger.sol\":18075:18092  broker.putSaleOff */\n      0xffffffffffffffffffffffffffffffffffffffff\n      and\n      0x179443f3\n        /* \"AdminManger.sol\":18093:18100  tokenID */\n      dup4\n        /* \"AdminManger.sol\":18102:18116  _mintableToken */\n      dup4\n        /* \"AdminManger.sol\":18075:18117  broker.putSaleOff(tokenID, _mintableToken) */\n      mload(0x40)\n      dup4\n      0xffffffff\n      and\n      0xe0\n      shl\n      dup2\n      mstore\n      0x04\n      add\n      tag_269\n      swap3\n      swap2\n      swap1\n      jump(tag_270)\n    tag_269:\n      0x00\n      mload(0x40)\n      dup1\n      dup4\n      sub\n      dup2\n      0x00\n      dup8\n      dup1\n      extcodesize\n      iszero\n        /* \"--CODEGEN--\":8:17   */\n      dup1\n        /* \"--CODEGEN--\":5:7   */\n      iszero\n      tag_271\n      jumpi\n        /* \"--CODEGEN--\":30:31   */\n      0x00\n        /* \"--CODEGEN--\":27:28   */\n      dup1\n        /* \"--CODEGEN--\":20:32   */\n      revert\n        /* \"--CODEGEN--\":5:7   */\n    tag_271:\n        /* \"AdminManger.sol\":18075:18117  broker.putSaleOff(tokenID, _mintableToken) */\n      pop\n      gas\n      call\n      iszero\n        /* \"--CODEGEN--\":8:17   */\n      dup1\n        /* \"--CODEGEN--\":5:7   */\n      iszero\n      tag_272\n      jumpi\n        /* \"--CODEGEN--\":45:61   */\n      returndatasize\n        /* \"--CODEGEN--\":42:43   */\n      0x00\n        /* \"--CODEGEN--\":39:40   */\n      dup1\n        /* \"--CODEGEN--\":24:62   */\n      returndatacopy\n        /* \"--CODEGEN--\":77:93   */\n      returndatasize\n        /* \"--CODEGEN--\":74:75   */\n      0x00\n        /* \"--CODEGEN--\":67:94   */\n      revert\n        /* \"--CODEGEN--\":5:7   */\n    tag_272:\n        /* \"AdminManger.sol\":18075:18117  broker.putSaleOff(tokenID, _mintableToken) */\n      pop\n      pop\n      pop\n      pop\n        /* \"AdminManger.sol\":18219:18232  functionNames */\n      0x02\n        /* \"AdminManger.sol\":18219:18243  functionNames.putSaleOff */\n      0x0b\n      add\n        /* \"AdminManger.sol\":18132:18302  AdminActionPerformed(... */\n      mload(0x40)\n      tag_273\n      swap2\n      swap1\n      jump(tag_225)\n    tag_273:\n      mload(0x40)\n      dup1\n      swap2\n      sub\n      swap1\n      keccak256\n        /* \"AdminManger.sol\":18198:18204  broker */\n      0x1c\n      0x00\n      swap1\n      sload\n      swap1\n      0x0100\n      exp\n      swap1\n      div\n      0xffffffffffffffffffffffffffffffffffffffff\n      and\n        /* \"AdminManger.sol\":18132:18302  AdminActionPerformed(... */\n      0xffffffffffffffffffffffffffffffffffffffff\n      and\n        /* \"AdminManger.sol\":18166:18176  msg.sender */\n      caller\n        /* \"AdminManger.sol\":18132:18302  AdminActionPerformed(... */\n      0xffffffffffffffffffffffffffffffffffffffff\n      and\n      0x32a9eeb55ea56eb60badfb6642d5b92be35b6da6f74892c12d0e14a50dfc2bac\n        /* \"AdminManger.sol\":18257:18271  _mintableToken */\n      dup5\n        /* \"AdminManger.sol\":18285:18292  tokenID */\n      dup7\n        /* \"AdminManger.sol\":18132:18302  AdminActionPerformed(... */\n      mload(0x40)\n      tag_274\n      swap3\n      swap2\n      swap1\n      jump(tag_227)\n    tag_274:\n      mload(0x40)\n      dup1\n      swap2\n      sub\n      swap1\n      log4\n        /* \"AdminManger.sol\":17959:18309  function putSaleOff(uint256 tokenID, address _mintableToken)... */\n      pop\n      pop\n      jump\t// out\n        /* \"AdminManger.sol\":19210:19614  function revertOffer(... */\n    tag_85:\n        /* \"AdminManger.sol\":10150:10172  adminExist(msg.sender) */\n      tag_276\n        /* \"AdminManger.sol\":10161:10171  msg.sender */\n      caller\n        /* \"AdminManger.sol\":10150:10160  adminExist */\n      tag_200\n        /* \"AdminManger.sol\":10150:10172  adminExist(msg.sender) */\n      jump\t// in\n    tag_276:\n        /* \"AdminManger.sol\":10150:10185  adminExist(msg.sender) || isOwner() */\n      dup1\n      tag_277\n      jumpi\n      pop\n        /* \"AdminManger.sol\":10176:10185  isOwner() */\n      tag_278\n        /* \"AdminManger.sol\":10176:10183  isOwner */\n      tag_162\n        /* \"AdminManger.sol\":10176:10185  isOwner() */\n      jump\t// in\n    tag_278:\n        /* \"AdminManger.sol\":10150:10185  adminExist(msg.sender) || isOwner() */\n    tag_277:\n        /* \"AdminManger.sol\":10129:10246  require(... */\n      tag_279\n      jumpi\n      mload(0x40)\n      0x08c379a000000000000000000000000000000000000000000000000000000000\n      dup2\n      mstore\n      0x04\n      add\n      tag_280\n      swap1\n      jump(tag_218)\n    tag_280:\n      mload(0x40)\n      dup1\n      swap2\n      sub\n      swap1\n      revert\n    tag_279:\n        /* \"AdminManger.sol\":19366:19372  broker */\n      0x1c\n      0x00\n      swap1\n      sload\n      swap1\n      0x0100\n      exp\n      swap1\n      div\n      0xffffffffffffffffffffffffffffffffffffffff\n      and\n        /* \"AdminManger.sol\":19366:19384  broker.revertOffer */\n      0xffffffffffffffffffffffffffffffffffffffff\n      and\n      0x136a6a24\n        /* \"AdminManger.sol\":19385:19399  _mintableToken */\n      dup4\n        /* \"AdminManger.sol\":19400:19407  tokenID */\n      dup6\n        /* \"AdminManger.sol\":19409:19420  _erc20Token */\n      dup5\n        /* \"AdminManger.sol\":19366:19421  broker.revertOffer(_mintableToken,tokenID, _erc20Token) */\n      mload(0x40)\n      dup5\n      0xffffffff\n      and\n      0xe0\n      shl\n      dup2\n      mstore\n      0x04\n      add\n      tag_282\n      swap4\n      swap3\n      swap2\n      swap1\n      jump(tag_283)\n    tag_282:\n      0x00\n      mload(0x40)\n      dup1\n      dup4\n      sub\n      dup2\n      0x00\n      dup8\n      dup1\n      extcodesize\n      iszero\n        /* \"--CODEGEN--\":8:17   */\n      dup1\n        /* \"--CODEGEN--\":5:7   */\n      iszero\n      tag_284\n      jumpi\n        /* \"--CODEGEN--\":30:31   */\n      0x00\n        /* \"--CODEGEN--\":27:28   */\n      dup1\n        /* \"--CODEGEN--\":20:32   */\n      revert\n        /* \"--CODEGEN--\":5:7   */\n    tag_284:\n        /* \"AdminManger.sol\":19366:19421  broker.revertOffer(_mintableToken,tokenID, _erc20Token) */\n      pop\n      gas\n      call\n      iszero\n        /* \"--CODEGEN--\":8:17   */\n      dup1\n        /* \"--CODEGEN--\":5:7   */\n      iszero\n      tag_285\n      jumpi\n        /* \"--CODEGEN--\":45:61   */\n      returndatasize\n        /* \"--CODEGEN--\":42:43   */\n      0x00\n        /* \"--CODEGEN--\":39:40   */\n      dup1\n        /* \"--CODEGEN--\":24:62   */\n      returndatacopy\n        /* \"--CODEGEN--\":77:93   */\n      returndatasize\n        /* \"--CODEGEN--\":74:75   */\n      0x00\n        /* \"--CODEGEN--\":67:94   */\n      revert\n        /* \"--CODEGEN--\":5:7   */\n    tag_285:\n        /* \"AdminManger.sol\":19366:19421  broker.revertOffer(_mintableToken,tokenID, _erc20Token) */\n      pop\n      pop\n      pop\n      pop\n        /* \"AdminManger.sol\":19523:19536  functionNames */\n      0x02\n        /* \"AdminManger.sol\":19523:19548  functionNames.revertOffer */\n      0x0e\n      add\n        /* \"AdminManger.sol\":19436:19607  AdminActionPerformed(... */\n      mload(0x40)\n      tag_286\n      swap2\n      swap1\n      jump(tag_225)\n    tag_286:\n      mload(0x40)\n      dup1\n      swap2\n      sub\n      swap1\n      keccak256\n        /* \"AdminManger.sol\":19502:19508  broker */\n      0x1c\n      0x00\n      swap1\n      sload\n      swap1\n      0x0100\n      exp\n      swap1\n      div\n      0xffffffffffffffffffffffffffffffffffffffff\n      and\n        /* \"AdminManger.sol\":19436:19607  AdminActionPerformed(... */\n      0xffffffffffffffffffffffffffffffffffffffff\n      and\n        /* \"AdminManger.sol\":19470:19480  msg.sender */\n      caller\n        /* \"AdminManger.sol\":19436:19607  AdminActionPerformed(... */\n      0xffffffffffffffffffffffffffffffffffffffff\n      and\n      0x32a9eeb55ea56eb60badfb6642d5b92be35b6da6f74892c12d0e14a50dfc2bac\n        /* \"AdminManger.sol\":19562:19576  _mintableToken */\n      dup6\n        /* \"AdminManger.sol\":19590:19597  tokenID */\n      dup8\n        /* \"AdminManger.sol\":19436:19607  AdminActionPerformed(... */\n      mload(0x40)\n      tag_287\n      swap3\n      swap2\n      swap1\n      jump(tag_227)\n    tag_287:\n      mload(0x40)\n      dup1\n      swap2\n      sub\n      swap1\n      log4\n        /* \"AdminManger.sol\":19210:19614  function revertOffer(... */\n      pop\n      pop\n      pop\n      jump\t// out\n        /* \"AdminManger.sol\":12459:12881  function erc721Approve(... */\n    tag_89:\n        /* \"AdminManger.sol\":10150:10172  adminExist(msg.sender) */\n      tag_289\n        /* \"AdminManger.sol\":10161:10171  msg.sender */\n      caller\n        /* \"AdminManger.sol\":10150:10160  adminExist */\n      tag_200\n        /* \"AdminManger.sol\":10150:10172  adminExist(msg.sender) */\n      jump\t// in\n    tag_289:\n        /* \"AdminManger.sol\":10150:10185  adminExist(msg.sender) || isOwner() */\n      dup1\n      tag_290\n      jumpi\n      pop\n        /* \"AdminManger.sol\":10176:10185  isOwner() */\n      tag_291\n        /* \"AdminManger.sol\":10176:10183  isOwner */\n      tag_162\n        /* \"AdminManger.sol\":10176:10185  isOwner() */\n      jump\t// in\n    tag_291:\n        /* \"AdminManger.sol\":10150:10185  adminExist(msg.sender) || isOwner() */\n    tag_290:\n        /* \"AdminManger.sol\":10129:10246  require(... */\n      tag_292\n      jumpi\n      mload(0x40)\n      0x08c379a000000000000000000000000000000000000000000000000000000000\n      dup2\n      mstore\n      0x04\n      add\n      tag_293\n      swap1\n      jump(tag_218)\n    tag_293:\n      mload(0x40)\n      dup1\n      swap2\n      sub\n      swap1\n      revert\n    tag_292:\n        /* \"AdminManger.sol\":12602:12618  IMintable erc721 */\n      0x00\n        /* \"AdminManger.sol\":12631:12645  _ERC721Address */\n      dup4\n        /* \"AdminManger.sol\":12602:12646  IMintable erc721 = IMintable(_ERC721Address) */\n      swap1\n      pop\n        /* \"AdminManger.sol\":12747:12760  functionNames */\n      0x02\n        /* \"AdminManger.sol\":12747:12768  functionNames.approve */\n      0x00\n      add\n        /* \"AdminManger.sol\":12661:12828  AdminActionPerformed(... */\n      mload(0x40)\n      tag_295\n      swap2\n      swap1\n      jump(tag_225)\n    tag_295:\n      mload(0x40)\n      dup1\n      swap2\n      sub\n      swap1\n      keccak256\n        /* \"AdminManger.sol\":12719:12733  _ERC721Address */\n      dup5\n        /* \"AdminManger.sol\":12661:12828  AdminActionPerformed(... */\n      0xffffffffffffffffffffffffffffffffffffffff\n      and\n        /* \"AdminManger.sol\":12695:12705  msg.sender */\n      caller\n        /* \"AdminManger.sol\":12661:12828  AdminActionPerformed(... */\n      0xffffffffffffffffffffffffffffffffffffffff\n      and\n      0x32a9eeb55ea56eb60badfb6642d5b92be35b6da6f74892c12d0e14a50dfc2bac\n        /* \"AdminManger.sol\":12782:12796  _ERC721Address */\n      dup8\n        /* \"AdminManger.sol\":12810:12818  _tokenId */\n      dup7\n        /* \"AdminManger.sol\":12661:12828  AdminActionPerformed(... */\n      mload(0x40)\n      tag_296\n      swap3\n      swap2\n      swap1\n      jump(tag_227)\n    tag_296:\n      mload(0x40)\n      dup1\n      swap2\n      sub\n      swap1\n      log4\n        /* \"AdminManger.sol\":12845:12851  erc721 */\n      dup1\n        /* \"AdminManger.sol\":12845:12859  erc721.approve */\n      0xffffffffffffffffffffffffffffffffffffffff\n      and\n      0x095ea7b3\n        /* \"AdminManger.sol\":12860:12863  _to */\n      dup5\n        /* \"AdminManger.sol\":12865:12873  _tokenId */\n      dup5\n        /* \"AdminManger.sol\":12845:12874  erc721.approve(_to, _tokenId) */\n      mload(0x40)\n      dup4\n      0xffffffff\n      and\n      0xe0\n      shl\n      dup2\n      mstore\n      0x04\n      add\n      tag_297\n      swap3\n      swap2\n      swap1\n      jump(tag_227)\n    tag_297:\n      0x00\n      mload(0x40)\n      dup1\n      dup4\n      sub\n      dup2\n      0x00\n      dup8\n      dup1\n      extcodesize\n      iszero\n        /* \"--CODEGEN--\":8:17   */\n      dup1\n        /* \"--CODEGEN--\":5:7   */\n      iszero\n      tag_298\n      jumpi\n        /* \"--CODEGEN--\":30:31   */\n      0x00\n        /* \"--CODEGEN--\":27:28   */\n      dup1\n        /* \"--CODEGEN--\":20:32   */\n      revert\n        /* \"--CODEGEN--\":5:7   */\n    tag_298:\n        /* \"AdminManger.sol\":12845:12874  erc721.approve(_to, _tokenId) */\n      pop\n      gas\n      call\n      iszero\n        /* \"--CODEGEN--\":8:17   */\n      dup1\n        /* \"--CODEGEN--\":5:7   */\n      iszero\n      tag_299\n      jumpi\n        /* \"--CODEGEN--\":45:61   */\n      returndatasize\n        /* \"--CODEGEN--\":42:43   */\n      0x00\n        /* \"--CODEGEN--\":39:40   */\n      dup1\n        /* \"--CODEGEN--\":24:62   */\n      returndatacopy\n        /* \"--CODEGEN--\":77:93   */\n      returndatasize\n        /* \"--CODEGEN--\":74:75   */\n      0x00\n        /* \"--CODEGEN--\":67:94   */\n      revert\n        /* \"--CODEGEN--\":5:7   */\n    tag_299:\n        /* \"AdminManger.sol\":12845:12874  erc721.approve(_to, _tokenId) */\n      pop\n      pop\n      pop\n      pop\n        /* \"AdminManger.sol\":12838:12874  return erc721.approve(_to, _tokenId) */\n      pop\n        /* \"AdminManger.sol\":12459:12881  function erc721Approve(... */\n      pop\n      pop\n      pop\n      jump\t// out\n        /* \"AdminManger.sol\":20827:21248  function erc20IncreaseApproval(... */\n    tag_93:\n        /* \"AdminManger.sol\":10150:10172  adminExist(msg.sender) */\n      tag_301\n        /* \"AdminManger.sol\":10161:10171  msg.sender */\n      caller\n        /* \"AdminManger.sol\":10150:10160  adminExist */\n      tag_200\n        /* \"AdminManger.sol\":10150:10172  adminExist(msg.sender) */\n      jump\t// in\n    tag_301:\n        /* \"AdminManger.sol\":10150:10185  adminExist(msg.sender) || isOwner() */\n      dup1\n      tag_302\n      jumpi\n      pop\n        /* \"AdminManger.sol\":10176:10185  isOwner() */\n      tag_303\n        /* \"AdminManger.sol\":10176:10183  isOwner */\n      tag_162\n        /* \"AdminManger.sol\":10176:10185  isOwner() */\n      jump\t// in\n    tag_303:\n        /* \"AdminManger.sol\":10150:10185  adminExist(msg.sender) || isOwner() */\n    tag_302:\n        /* \"AdminManger.sol\":10129:10246  require(... */\n      tag_304\n      jumpi\n      mload(0x40)\n      0x08c379a000000000000000000000000000000000000000000000000000000000\n      dup2\n      mstore\n      0x04\n      add\n      tag_305\n      swap1\n      jump(tag_218)\n    tag_305:\n      mload(0x40)\n      dup1\n      swap2\n      sub\n      swap1\n      revert\n    tag_304:\n        /* \"AdminManger.sol\":20976:20988  IERC20 erc20 */\n      0x00\n        /* \"AdminManger.sol\":20998:21004  _erc20 */\n      dup4\n        /* \"AdminManger.sol\":20976:21005  IERC20 erc20 = IERC20(_erc20) */\n      swap1\n      pop\n        /* \"AdminManger.sol\":21015:21020  erc20 */\n      dup1\n        /* \"AdminManger.sol\":21015:21037  erc20.increaseApproval */\n      0xffffffffffffffffffffffffffffffffffffffff\n      and\n      0xd73dd623\n        /* \"AdminManger.sol\":21038:21045  spender */\n      dup5\n        /* \"AdminManger.sol\":21047:21057  addedValue */\n      dup5\n        /* \"AdminManger.sol\":21015:21058  erc20.increaseApproval(spender, addedValue) */\n      mload(0x40)\n      dup4\n      0xffffffff\n      and\n      0xe0\n      shl\n      dup2\n      mstore\n      0x04\n      add\n      tag_307\n      swap3\n      swap2\n      swap1\n      jump(tag_227)\n    tag_307:\n      0x00\n      mload(0x40)\n      dup1\n      dup4\n      sub\n      dup2\n      0x00\n      dup8\n      dup1\n      extcodesize\n      iszero\n        /* \"--CODEGEN--\":8:17   */\n      dup1\n        /* \"--CODEGEN--\":5:7   */\n      iszero\n      tag_308\n      jumpi\n        /* \"--CODEGEN--\":30:31   */\n      0x00\n        /* \"--CODEGEN--\":27:28   */\n      dup1\n        /* \"--CODEGEN--\":20:32   */\n      revert\n        /* \"--CODEGEN--\":5:7   */\n    tag_308:\n        /* \"AdminManger.sol\":21015:21058  erc20.increaseApproval(spender, addedValue) */\n      pop\n      gas\n      call\n      iszero\n        /* \"--CODEGEN--\":8:17   */\n      dup1\n        /* \"--CODEGEN--\":5:7   */\n      iszero\n      tag_309\n      jumpi\n        /* \"--CODEGEN--\":45:61   */\n      returndatasize\n        /* \"--CODEGEN--\":42:43   */\n      0x00\n        /* \"--CODEGEN--\":39:40   */\n      dup1\n        /* \"--CODEGEN--\":24:62   */\n      returndatacopy\n        /* \"--CODEGEN--\":77:93   */\n      returndatasize\n        /* \"--CODEGEN--\":74:75   */\n      0x00\n        /* \"--CODEGEN--\":67:94   */\n      revert\n        /* \"--CODEGEN--\":5:7   */\n    tag_309:\n        /* \"AdminManger.sol\":21015:21058  erc20.increaseApproval(spender, addedValue) */\n      pop\n      pop\n      pop\n      pop\n        /* \"AdminManger.sol\":21151:21164  functionNames */\n      0x02\n        /* \"AdminManger.sol\":21151:21186  functionNames.erc20IncreaseApproval */\n      0x12\n      add\n        /* \"AdminManger.sol\":21073:21241  AdminActionPerformed(... */\n      mload(0x40)\n      tag_310\n      swap2\n      swap1\n      jump(tag_225)\n    tag_310:\n      mload(0x40)\n      dup1\n      swap2\n      sub\n      swap1\n      keccak256\n        /* \"AdminManger.sol\":21131:21137  _erc20 */\n      dup5\n        /* \"AdminManger.sol\":21073:21241  AdminActionPerformed(... */\n      0xffffffffffffffffffffffffffffffffffffffff\n      and\n        /* \"AdminManger.sol\":21107:21117  msg.sender */\n      caller\n        /* \"AdminManger.sol\":21073:21241  AdminActionPerformed(... */\n      0xffffffffffffffffffffffffffffffffffffffff\n      and\n      0x32a9eeb55ea56eb60badfb6642d5b92be35b6da6f74892c12d0e14a50dfc2bac\n        /* \"AdminManger.sol\":21200:21207  spender */\n      dup7\n        /* \"AdminManger.sol\":21221:21231  addedValue */\n      dup7\n        /* \"AdminManger.sol\":21073:21241  AdminActionPerformed(... */\n      mload(0x40)\n      tag_311\n      swap3\n      swap2\n      swap1\n      jump(tag_227)\n    tag_311:\n      mload(0x40)\n      dup1\n      swap2\n      sub\n      swap1\n      log4\n        /* \"AdminManger.sol\":10256:10257  _ */\n      pop\n        /* \"AdminManger.sol\":20827:21248  function erc20IncreaseApproval(... */\n      pop\n      pop\n      pop\n      jump\t// out\n        /* \"AdminManger.sol\":18315:18752  function makeAnOffer(... */\n    tag_97:\n        /* \"AdminManger.sol\":10150:10172  adminExist(msg.sender) */\n      tag_313\n        /* \"AdminManger.sol\":10161:10171  msg.sender */\n      caller\n        /* \"AdminManger.sol\":10150:10160  adminExist */\n      tag_200\n        /* \"AdminManger.sol\":10150:10172  adminExist(msg.sender) */\n      jump\t// in\n    tag_313:\n        /* \"AdminManger.sol\":10150:10185  adminExist(msg.sender) || isOwner() */\n      dup1\n      tag_314\n      jumpi\n      pop\n        /* \"AdminManger.sol\":10176:10185  isOwner() */\n      tag_315\n        /* \"AdminManger.sol\":10176:10183  isOwner */\n      tag_162\n        /* \"AdminManger.sol\":10176:10185  isOwner() */\n      jump\t// in\n    tag_315:\n        /* \"AdminManger.sol\":10150:10185  adminExist(msg.sender) || isOwner() */\n    tag_314:\n        /* \"AdminManger.sol\":10129:10246  require(... */\n      tag_316\n      jumpi\n      mload(0x40)\n      0x08c379a000000000000000000000000000000000000000000000000000000000\n      dup2\n      mstore\n      0x04\n      add\n      tag_317\n      swap1\n      jump(tag_218)\n    tag_317:\n      mload(0x40)\n      dup1\n      swap2\n      sub\n      swap1\n      revert\n    tag_316:\n        /* \"AdminManger.sol\":18495:18501  broker */\n      0x1c\n      0x00\n      swap1\n      sload\n      swap1\n      0x0100\n      exp\n      swap1\n      div\n      0xffffffffffffffffffffffffffffffffffffffff\n      and\n        /* \"AdminManger.sol\":18495:18513  broker.makeAnOffer */\n      0xffffffffffffffffffffffffffffffffffffffff\n      and\n      0x3169b515\n        /* \"AdminManger.sol\":18514:18521  tokenID */\n      dup6\n        /* \"AdminManger.sol\":18523:18537  _mintableToken */\n      dup6\n        /* \"AdminManger.sol\":18539:18550  _erc20Token */\n      dup6\n        /* \"AdminManger.sol\":18552:18558  amount */\n      dup6\n        /* \"AdminManger.sol\":18495:18559  broker.makeAnOffer(tokenID, _mintableToken, _erc20Token, amount) */\n      mload(0x40)\n      dup6\n      0xffffffff\n      and\n      0xe0\n      shl\n      dup2\n      mstore\n      0x04\n      add\n      tag_319\n      swap5\n      swap4\n      swap3\n      swap2\n      swap1\n      jump(tag_320)\n    tag_319:\n      0x00\n      mload(0x40)\n      dup1\n      dup4\n      sub\n      dup2\n      0x00\n      dup8\n      dup1\n      extcodesize\n      iszero\n        /* \"--CODEGEN--\":8:17   */\n      dup1\n        /* \"--CODEGEN--\":5:7   */\n      iszero\n      tag_321\n      jumpi\n        /* \"--CODEGEN--\":30:31   */\n      0x00\n        /* \"--CODEGEN--\":27:28   */\n      dup1\n        /* \"--CODEGEN--\":20:32   */\n      revert\n        /* \"--CODEGEN--\":5:7   */\n    tag_321:\n        /* \"AdminManger.sol\":18495:18559  broker.makeAnOffer(tokenID, _mintableToken, _erc20Token, amount) */\n      pop\n      gas\n      call\n      iszero\n        /* \"--CODEGEN--\":8:17   */\n      dup1\n        /* \"--CODEGEN--\":5:7   */\n      iszero\n      tag_322\n      jumpi\n        /* \"--CODEGEN--\":45:61   */\n      returndatasize\n        /* \"--CODEGEN--\":42:43   */\n      0x00\n        /* \"--CODEGEN--\":39:40   */\n      dup1\n        /* \"--CODEGEN--\":24:62   */\n      returndatacopy\n        /* \"--CODEGEN--\":77:93   */\n      returndatasize\n        /* \"--CODEGEN--\":74:75   */\n      0x00\n        /* \"--CODEGEN--\":67:94   */\n      revert\n        /* \"--CODEGEN--\":5:7   */\n    tag_322:\n        /* \"AdminManger.sol\":18495:18559  broker.makeAnOffer(tokenID, _mintableToken, _erc20Token, amount) */\n      pop\n      pop\n      pop\n      pop\n        /* \"AdminManger.sol\":18661:18674  functionNames */\n      0x02\n        /* \"AdminManger.sol\":18661:18686  functionNames.makeAnOffer */\n      0x0c\n      add\n        /* \"AdminManger.sol\":18574:18745  AdminActionPerformed(... */\n      mload(0x40)\n      tag_323\n      swap2\n      swap1\n      jump(tag_225)\n    tag_323:\n      mload(0x40)\n      dup1\n      swap2\n      sub\n      swap1\n      keccak256\n        /* \"AdminManger.sol\":18640:18646  broker */\n      0x1c\n      0x00\n      swap1\n      sload\n      swap1\n      0x0100\n      exp\n      swap1\n      div\n      0xffffffffffffffffffffffffffffffffffffffff\n      and\n        /* \"AdminManger.sol\":18574:18745  AdminActionPerformed(... */\n      0xffffffffffffffffffffffffffffffffffffffff\n      and\n        /* \"AdminManger.sol\":18608:18618  msg.sender */\n      caller\n        /* \"AdminManger.sol\":18574:18745  AdminActionPerformed(... */\n      0xffffffffffffffffffffffffffffffffffffffff\n      and\n      0x32a9eeb55ea56eb60badfb6642d5b92be35b6da6f74892c12d0e14a50dfc2bac\n        /* \"AdminManger.sol\":18700:18714  _mintableToken */\n      dup7\n        /* \"AdminManger.sol\":18728:18735  tokenID */\n      dup9\n        /* \"AdminManger.sol\":18574:18745  AdminActionPerformed(... */\n      mload(0x40)\n      tag_324\n      swap3\n      swap2\n      swap1\n      jump(tag_227)\n    tag_324:\n      mload(0x40)\n      dup1\n      swap2\n      sub\n      swap1\n      log4\n        /* \"AdminManger.sol\":18315:18752  function makeAnOffer(... */\n      pop\n      pop\n      pop\n      pop\n      jump\t// out\n        /* \"AdminManger.sol\":10888:10978  function getAdmins() public view returns (address[] memory) {... */\n    tag_100:\n        /* \"AdminManger.sol\":10930:10946  address[] memory */\n      0x60\n        /* \"AdminManger.sol\":10965:10971  admins */\n      0x01\n        /* \"AdminManger.sol\":10958:10971  return admins */\n      dup1\n      sload\n      dup1\n      0x20\n      mul\n      0x20\n      add\n      mload(0x40)\n      swap1\n      dup2\n      add\n      0x40\n      mstore\n      dup1\n      swap3\n      swap2\n      swap1\n      dup2\n      dup2\n      mstore\n      0x20\n      add\n      dup3\n      dup1\n      sload\n      dup1\n      iszero\n      tag_326\n      jumpi\n      0x20\n      mul\n      dup3\n      add\n      swap2\n      swap1\n      0x00\n      mstore\n      keccak256(0x00, 0x20)\n      swap1\n    tag_327:\n      dup2\n      0x00\n      swap1\n      sload\n      swap1\n      0x0100\n      exp\n      swap1\n      div\n      0xffffffffffffffffffffffffffffffffffffffff\n      and\n      0xffffffffffffffffffffffffffffffffffffffff\n      and\n      dup2\n      mstore\n      0x20\n      add\n      swap1\n      0x01\n      add\n      swap1\n      dup1\n      dup4\n      gt\n      tag_327\n      jumpi\n    tag_326:\n      pop\n      pop\n      pop\n      pop\n      pop\n      swap1\n      pop\n        /* \"AdminManger.sol\":10888:10978  function getAdmins() public view returns (address[] memory) {... */\n      swap1\n      jump\t// out\n        /* \"AdminManger.sol\":21254:21621  function erc20Transfer(... */\n    tag_106:\n        /* \"AdminManger.sol\":10150:10172  adminExist(msg.sender) */\n      tag_329\n        /* \"AdminManger.sol\":10161:10171  msg.sender */\n      caller\n        /* \"AdminManger.sol\":10150:10160  adminExist */\n      tag_200\n        /* \"AdminManger.sol\":10150:10172  adminExist(msg.sender) */\n      jump\t// in\n    tag_329:\n        /* \"AdminManger.sol\":10150:10185  adminExist(msg.sender) || isOwner() */\n      dup1\n      tag_330\n      jumpi\n      pop\n        /* \"AdminManger.sol\":10176:10185  isOwner() */\n      tag_331\n        /* \"AdminManger.sol\":10176:10183  isOwner */\n      tag_162\n        /* \"AdminManger.sol\":10176:10185  isOwner() */\n      jump\t// in\n    tag_331:\n        /* \"AdminManger.sol\":10150:10185  adminExist(msg.sender) || isOwner() */\n    tag_330:\n        /* \"AdminManger.sol\":10129:10246  require(... */\n      tag_332\n      jumpi\n      mload(0x40)\n      0x08c379a000000000000000000000000000000000000000000000000000000000\n      dup2\n      mstore\n      0x04\n      add\n      tag_333\n      swap1\n      jump(tag_218)\n    tag_333:\n      mload(0x40)\n      dup1\n      swap2\n      sub\n      swap1\n      revert\n    tag_332:\n        /* \"AdminManger.sol\":21385:21397  IERC20 erc20 */\n      0x00\n        /* \"AdminManger.sol\":21407:21413  _erc20 */\n      dup4\n        /* \"AdminManger.sol\":21385:21414  IERC20 erc20 = IERC20(_erc20) */\n      swap1\n      pop\n        /* \"AdminManger.sol\":21424:21429  erc20 */\n      dup1\n        /* \"AdminManger.sol\":21424:21438  erc20.transfer */\n      0xffffffffffffffffffffffffffffffffffffffff\n      and\n      0xa9059cbb\n        /* \"AdminManger.sol\":21439:21441  to */\n      dup5\n        /* \"AdminManger.sol\":21443:21448  value */\n      dup5\n        /* \"AdminManger.sol\":21424:21449  erc20.transfer(to, value) */\n      mload(0x40)\n      dup4\n      0xffffffff\n      and\n      0xe0\n      shl\n      dup2\n      mstore\n      0x04\n      add\n      tag_335\n      swap3\n      swap2\n      swap1\n      jump(tag_227)\n    tag_335:\n      0x00\n      mload(0x40)\n      dup1\n      dup4\n      sub\n      dup2\n      0x00\n      dup8\n      dup1\n      extcodesize\n      iszero\n        /* \"--CODEGEN--\":8:17   */\n      dup1\n        /* \"--CODEGEN--\":5:7   */\n      iszero\n      tag_336\n      jumpi\n        /* \"--CODEGEN--\":30:31   */\n      0x00\n        /* \"--CODEGEN--\":27:28   */\n      dup1\n        /* \"--CODEGEN--\":20:32   */\n      revert\n        /* \"--CODEGEN--\":5:7   */\n    tag_336:\n        /* \"AdminManger.sol\":21424:21449  erc20.transfer(to, value) */\n      pop\n      gas\n      call\n      iszero\n        /* \"--CODEGEN--\":8:17   */\n      dup1\n        /* \"--CODEGEN--\":5:7   */\n      iszero\n      tag_337\n      jumpi\n        /* \"--CODEGEN--\":45:61   */\n      returndatasize\n        /* \"--CODEGEN--\":42:43   */\n      0x00\n        /* \"--CODEGEN--\":39:40   */\n      dup1\n        /* \"--CODEGEN--\":24:62   */\n      returndatacopy\n        /* \"--CODEGEN--\":77:93   */\n      returndatasize\n        /* \"--CODEGEN--\":74:75   */\n      0x00\n        /* \"--CODEGEN--\":67:94   */\n      revert\n        /* \"--CODEGEN--\":5:7   */\n    tag_337:\n        /* \"AdminManger.sol\":21424:21449  erc20.transfer(to, value) */\n      pop\n      pop\n      pop\n      pop\n        /* \"AdminManger.sol\":21542:21555  functionNames */\n      0x02\n        /* \"AdminManger.sol\":21542:21569  functionNames.erc20Transfer */\n      0x13\n      add\n        /* \"AdminManger.sol\":21464:21614  AdminActionPerformed(... */\n      mload(0x40)\n      tag_338\n      swap2\n      swap1\n      jump(tag_225)\n    tag_338:\n      mload(0x40)\n      dup1\n      swap2\n      sub\n      swap1\n      keccak256\n        /* \"AdminManger.sol\":21522:21528  _erc20 */\n      dup5\n        /* \"AdminManger.sol\":21464:21614  AdminActionPerformed(... */\n      0xffffffffffffffffffffffffffffffffffffffff\n      and\n        /* \"AdminManger.sol\":21498:21508  msg.sender */\n      caller\n        /* \"AdminManger.sol\":21464:21614  AdminActionPerformed(... */\n      0xffffffffffffffffffffffffffffffffffffffff\n      and\n      0x32a9eeb55ea56eb60badfb6642d5b92be35b6da6f74892c12d0e14a50dfc2bac\n        /* \"AdminManger.sol\":21583:21585  to */\n      dup7\n        /* \"AdminManger.sol\":21599:21604  value */\n      dup7\n        /* \"AdminManger.sol\":21464:21614  AdminActionPerformed(... */\n      mload(0x40)\n      tag_339\n      swap3\n      swap2\n      swap1\n      jump(tag_227)\n    tag_339:\n      mload(0x40)\n      dup1\n      swap2\n      sub\n      swap1\n      log4\n        /* \"AdminManger.sol\":10256:10257  _ */\n      pop\n        /* \"AdminManger.sol\":21254:21621  function erc20Transfer(... */\n      pop\n      pop\n      pop\n      jump\t// out\n        /* \"AdminManger.sol\":22976:23072  function withdraw() public onlyOwner {... */\n    tag_109:\n        /* \"AdminManger.sol\":1516:1525  isOwner() */\n      tag_341\n        /* \"AdminManger.sol\":1516:1523  isOwner */\n      tag_162\n        /* \"AdminManger.sol\":1516:1525  isOwner() */\n      jump\t// in\n    tag_341:\n        /* \"AdminManger.sol\":1508:1562  require(isOwner(), \"Ownable: caller is not the owner\") */\n      tag_342\n      jumpi\n      mload(0x40)\n      0x08c379a000000000000000000000000000000000000000000000000000000000\n      dup2\n      mstore\n      0x04\n      add\n      tag_343\n      swap1\n      jump(tag_247)\n    tag_343:\n      mload(0x40)\n      dup1\n      swap2\n      sub\n      swap1\n      revert\n    tag_342:\n        /* \"AdminManger.sol\":23023:23033  msg.sender */\n      caller\n        /* \"AdminManger.sol\":23023:23042  msg.sender.transfer */\n      0xffffffffffffffffffffffffffffffffffffffff\n      and\n        /* \"AdminManger.sol\":23023:23065  msg.sender.transfer(address(this).balance) */\n      0x08fc\n        /* \"AdminManger.sol\":23043:23064  address(this).balance */\n      selfbalance\n        /* \"AdminManger.sol\":23023:23065  msg.sender.transfer(address(this).balance) */\n      swap1\n      dup2\n      iszero\n      mul\n      swap1\n      mload(0x40)\n      0x00\n      mload(0x40)\n      dup1\n      dup4\n      sub\n      dup2\n      dup6\n      dup9\n      dup9\n      call\n      swap4\n      pop\n      pop\n      pop\n      pop\n      iszero\n        /* \"--CODEGEN--\":8:17   */\n      dup1\n        /* \"--CODEGEN--\":5:7   */\n      iszero\n      tag_345\n      jumpi\n        /* \"--CODEGEN--\":45:61   */\n      returndatasize\n        /* \"--CODEGEN--\":42:43   */\n      0x00\n        /* \"--CODEGEN--\":39:40   */\n      dup1\n        /* \"--CODEGEN--\":24:62   */\n      returndatacopy\n        /* \"--CODEGEN--\":77:93   */\n      returndatasize\n        /* \"--CODEGEN--\":74:75   */\n      0x00\n        /* \"--CODEGEN--\":67:94   */\n      revert\n        /* \"--CODEGEN--\":5:7   */\n    tag_345:\n        /* \"AdminManger.sol\":23023:23065  msg.sender.transfer(address(this).balance) */\n      pop\n        /* \"AdminManger.sol\":22976:23072  function withdraw() public onlyOwner {... */\n      jump\t// out\n        /* \"AdminManger.sol\":11857:12393  function burnNFT(address collection, uint256 tokenId)... */\n    tag_114:\n        /* \"AdminManger.sol\":10150:10172  adminExist(msg.sender) */\n      tag_347\n        /* \"AdminManger.sol\":10161:10171  msg.sender */\n      caller\n        /* \"AdminManger.sol\":10150:10160  adminExist */\n      tag_200\n        /* \"AdminManger.sol\":10150:10172  adminExist(msg.sender) */\n      jump\t// in\n    tag_347:\n        /* \"AdminManger.sol\":10150:10185  adminExist(msg.sender) || isOwner() */\n      dup1\n      tag_348\n      jumpi\n      pop\n        /* \"AdminManger.sol\":10176:10185  isOwner() */\n      tag_349\n        /* \"AdminManger.sol\":10176:10183  isOwner */\n      tag_162\n        /* \"AdminManger.sol\":10176:10185  isOwner() */\n      jump\t// in\n    tag_349:\n        /* \"AdminManger.sol\":10150:10185  adminExist(msg.sender) || isOwner() */\n    tag_348:\n        /* \"AdminManger.sol\":10129:10246  require(... */\n      tag_350\n      jumpi\n      mload(0x40)\n      0x08c379a000000000000000000000000000000000000000000000000000000000\n      dup2\n      mstore\n      0x04\n      add\n      tag_351\n      swap1\n      jump(tag_218)\n    tag_351:\n      mload(0x40)\n      dup1\n      swap2\n      sub\n      swap1\n      revert\n    tag_350:\n        /* \"AdminManger.sol\":11966:11984  IMintable NFTToken */\n      0x00\n        /* \"AdminManger.sol\":11997:12007  collection */\n      dup3\n        /* \"AdminManger.sol\":11966:12008  IMintable NFTToken = IMintable(collection) */\n      swap1\n      pop\n        /* \"AdminManger.sol\":12019:12041  string memory tokenURI */\n      0x60\n        /* \"AdminManger.sol\":12044:12052  NFTToken */\n      dup2\n        /* \"AdminManger.sol\":12044:12061  NFTToken.tokenURI */\n      0xffffffffffffffffffffffffffffffffffffffff\n      and\n      0xc87b56dd\n        /* \"AdminManger.sol\":12062:12069  tokenId */\n      dup5\n        /* \"AdminManger.sol\":12044:12070  NFTToken.tokenURI(tokenId) */\n      mload(0x40)\n      dup3\n      0xffffffff\n      and\n      0xe0\n      shl\n      dup2\n      mstore\n      0x04\n      add\n      tag_353\n      swap2\n      swap1\n      jump(tag_354)\n    tag_353:\n      0x00\n      mload(0x40)\n      dup1\n      dup4\n      sub\n      dup2\n      0x00\n      dup8\n      dup1\n      extcodesize\n      iszero\n        /* \"--CODEGEN--\":8:17   */\n      dup1\n        /* \"--CODEGEN--\":5:7   */\n      iszero\n      tag_355\n      jumpi\n        /* \"--CODEGEN--\":30:31   */\n      0x00\n        /* \"--CODEGEN--\":27:28   */\n      dup1\n        /* \"--CODEGEN--\":20:32   */\n      revert\n        /* \"--CODEGEN--\":5:7   */\n    tag_355:\n        /* \"AdminManger.sol\":12044:12070  NFTToken.tokenURI(tokenId) */\n      pop\n      gas\n      call\n      iszero\n        /* \"--CODEGEN--\":8:17   */\n      dup1\n        /* \"--CODEGEN--\":5:7   */\n      iszero\n      tag_356\n      jumpi\n        /* \"--CODEGEN--\":45:61   */\n      returndatasize\n        /* \"--CODEGEN--\":42:43   */\n      0x00\n        /* \"--CODEGEN--\":39:40   */\n      dup1\n        /* \"--CODEGEN--\":24:62   */\n      returndatacopy\n        /* \"--CODEGEN--\":77:93   */\n      returndatasize\n        /* \"--CODEGEN--\":74:75   */\n      0x00\n        /* \"--CODEGEN--\":67:94   */\n      revert\n        /* \"--CODEGEN--\":5:7   */\n    tag_356:\n        /* \"AdminManger.sol\":12044:12070  NFTToken.tokenURI(tokenId) */\n      pop\n      pop\n      pop\n      pop\n      mload(0x40)\n        /* \"--CODEGEN--\":39:55   */\n      returndatasize\n        /* \"--CODEGEN--\":36:37   */\n      0x00\n        /* \"--CODEGEN--\":17:34   */\n      dup3\n        /* \"--CODEGEN--\":2:56   */\n      returndatacopy\n        /* \"AdminManger.sol\":12044:12070  NFTToken.tokenURI(tokenId) */\n      returndatasize\n        /* \"--CODEGEN--\":101:105   */\n      0x1f\n        /* \"--CODEGEN--\":97:106   */\n      not\n        /* \"--CODEGEN--\":90:94   */\n      0x1f\n        /* \"--CODEGEN--\":84:88   */\n      dup3\n        /* \"--CODEGEN--\":80:95   */\n      add\n        /* \"--CODEGEN--\":76:107   */\n      and\n        /* \"--CODEGEN--\":69:74   */\n      dup3\n        /* \"--CODEGEN--\":65:108   */\n      add\n        /* \"--CODEGEN--\":126:132   */\n      dup1\n        /* \"--CODEGEN--\":120:124   */\n      0x40\n        /* \"--CODEGEN--\":113:133   */\n      mstore\n        /* \"--CODEGEN--\":0:138   */\n      pop\n        /* \"AdminManger.sol\":12044:12070  NFTToken.tokenURI(tokenId) */\n      tag_357\n      swap2\n      swap1\n      dup2\n      add\n      swap1\n      jump(tag_358)\n    tag_357:\n        /* \"AdminManger.sol\":12019:12070  string memory tokenURI = NFTToken.tokenURI(tokenId) */\n      swap1\n      pop\n        /* \"AdminManger.sol\":12142:12146  this */\n      address\n        /* \"AdminManger.sol\":12101:12147  NFTToken.getApproved(tokenId) == address(this) */\n      0xffffffffffffffffffffffffffffffffffffffff\n      and\n        /* \"AdminManger.sol\":12101:12109  NFTToken */\n      dup3\n        /* \"AdminManger.sol\":12101:12121  NFTToken.getApproved */\n      0xffffffffffffffffffffffffffffffffffffffff\n      and\n      0x081812fc\n        /* \"AdminManger.sol\":12122:12129  tokenId */\n      dup6\n        /* \"AdminManger.sol\":12101:12130  NFTToken.getApproved(tokenId) */\n      mload(0x40)\n      dup3\n      0xffffffff\n      and\n      0xe0\n      shl\n      dup2\n      mstore\n      0x04\n      add\n      tag_359\n      swap2\n      swap1\n      jump(tag_354)\n    tag_359:\n      0x20\n      mload(0x40)\n      dup1\n      dup4\n      sub\n      dup2\n      0x00\n      dup8\n      dup1\n      extcodesize\n      iszero\n        /* \"--CODEGEN--\":8:17   */\n      dup1\n        /* \"--CODEGEN--\":5:7   */\n      iszero\n      tag_360\n      jumpi\n        /* \"--CODEGEN--\":30:31   */\n      0x00\n        /* \"--CODEGEN--\":27:28   */\n      dup1\n        /* \"--CODEGEN--\":20:32   */\n      revert\n        /* \"--CODEGEN--\":5:7   */\n    tag_360:\n        /* \"AdminManger.sol\":12101:12130  NFTToken.getApproved(tokenId) */\n      pop\n      gas\n      call\n      iszero\n        /* \"--CODEGEN--\":8:17   */\n      dup1\n        /* \"--CODEGEN--\":5:7   */\n      iszero\n      tag_361\n      jumpi\n        /* \"--CODEGEN--\":45:61   */\n      returndatasize\n        /* \"--CODEGEN--\":42:43   */\n      0x00\n        /* \"--CODEGEN--\":39:40   */\n      dup1\n        /* \"--CODEGEN--\":24:62   */\n      returndatacopy\n        /* \"--CODEGEN--\":77:93   */\n      returndatasize\n        /* \"--CODEGEN--\":74:75   */\n      0x00\n        /* \"--CODEGEN--\":67:94   */\n      revert\n        /* \"--CODEGEN--\":5:7   */\n    tag_361:\n        /* \"AdminManger.sol\":12101:12130  NFTToken.getApproved(tokenId) */\n      pop\n      pop\n      pop\n      pop\n      mload(0x40)\n      returndatasize\n        /* \"--CODEGEN--\":101:105   */\n      0x1f\n        /* \"--CODEGEN--\":97:106   */\n      not\n        /* \"--CODEGEN--\":90:94   */\n      0x1f\n        /* \"--CODEGEN--\":84:88   */\n      dup3\n        /* \"--CODEGEN--\":80:95   */\n      add\n        /* \"--CODEGEN--\":76:107   */\n      and\n        /* \"--CODEGEN--\":69:74   */\n      dup3\n        /* \"--CODEGEN--\":65:108   */\n      add\n        /* \"--CODEGEN--\":126:132   */\n      dup1\n        /* \"--CODEGEN--\":120:124   */\n      0x40\n        /* \"--CODEGEN--\":113:133   */\n      mstore\n        /* \"--CODEGEN--\":0:138   */\n      pop\n        /* \"AdminManger.sol\":12101:12130  NFTToken.getApproved(tokenId) */\n      tag_362\n      swap2\n      swap1\n      dup2\n      add\n      swap1\n      jump(tag_363)\n    tag_362:\n        /* \"AdminManger.sol\":12101:12147  NFTToken.getApproved(tokenId) == address(this) */\n      0xffffffffffffffffffffffffffffffffffffffff\n      and\n      eq\n        /* \"AdminManger.sol\":12080:12200  require(... */\n      tag_364\n      jumpi\n      mload(0x40)\n      0x08c379a000000000000000000000000000000000000000000000000000000000\n      dup2\n      mstore\n      0x04\n      add\n      tag_365\n      swap1\n      jump(tag_366)\n    tag_365:\n      mload(0x40)\n      dup1\n      swap2\n      sub\n      swap1\n      revert\n    tag_364:\n        /* \"AdminManger.sol\":12210:12218  NFTToken */\n      dup2\n        /* \"AdminManger.sol\":12210:12223  NFTToken.burn */\n      0xffffffffffffffffffffffffffffffffffffffff\n      and\n      0x42966c68\n        /* \"AdminManger.sol\":12224:12231  tokenId */\n      dup5\n        /* \"AdminManger.sol\":12210:12232  NFTToken.burn(tokenId) */\n      mload(0x40)\n      dup3\n      0xffffffff\n      and\n      0xe0\n      shl\n      dup2\n      mstore\n      0x04\n      add\n      tag_367\n      swap2\n      swap1\n      jump(tag_354)\n    tag_367:\n      0x00\n      mload(0x40)\n      dup1\n      dup4\n      sub\n      dup2\n      0x00\n      dup8\n      dup1\n      extcodesize\n      iszero\n        /* \"--CODEGEN--\":8:17   */\n      dup1\n        /* \"--CODEGEN--\":5:7   */\n      iszero\n      tag_368\n      jumpi\n        /* \"--CODEGEN--\":30:31   */\n      0x00\n        /* \"--CODEGEN--\":27:28   */\n      dup1\n        /* \"--CODEGEN--\":20:32   */\n      revert\n        /* \"--CODEGEN--\":5:7   */\n    tag_368:\n        /* \"AdminManger.sol\":12210:12232  NFTToken.burn(tokenId) */\n      pop\n      gas\n      call\n      iszero\n        /* \"--CODEGEN--\":8:17   */\n      dup1\n        /* \"--CODEGEN--\":5:7   */\n      iszero\n      tag_369\n      jumpi\n        /* \"--CODEGEN--\":45:61   */\n      returndatasize\n        /* \"--CODEGEN--\":42:43   */\n      0x00\n        /* \"--CODEGEN--\":39:40   */\n      dup1\n        /* \"--CODEGEN--\":24:62   */\n      returndatacopy\n        /* \"--CODEGEN--\":77:93   */\n      returndatasize\n        /* \"--CODEGEN--\":74:75   */\n      0x00\n        /* \"--CODEGEN--\":67:94   */\n      revert\n        /* \"--CODEGEN--\":5:7   */\n    tag_369:\n        /* \"AdminManger.sol\":12210:12232  NFTToken.burn(tokenId) */\n      pop\n      pop\n      pop\n      pop\n        /* \"AdminManger.sol\":12315:12325  msg.sender */\n      caller\n        /* \"AdminManger.sol\":12247:12386  NFTBurned(... */\n      0xffffffffffffffffffffffffffffffffffffffff\n      and\n        /* \"AdminManger.sol\":12294:12301  tokenId */\n      dup4\n        /* \"AdminManger.sol\":12270:12280  collection */\n      dup6\n        /* \"AdminManger.sol\":12247:12386  NFTBurned(... */\n      0xffffffffffffffffffffffffffffffffffffffff\n      and\n      0x926b248e45dfdd4c4caec216e73ec503ce2522d3b5646c861d1b074210675d0e\n        /* \"AdminManger.sol\":12339:12354  block.timestamp */\n      timestamp\n        /* \"AdminManger.sol\":12368:12376  tokenURI */\n      dup6\n        /* \"AdminManger.sol\":12247:12386  NFTBurned(... */\n      mload(0x40)\n      tag_370\n      swap3\n      swap2\n      swap1\n      jump(tag_371)\n    tag_370:\n      mload(0x40)\n      dup1\n      swap2\n      sub\n      swap1\n      log4\n        /* \"AdminManger.sol\":10256:10257  _ */\n      pop\n      pop\n        /* \"AdminManger.sol\":11857:12393  function burnNFT(address collection, uint256 tokenId)... */\n      pop\n      pop\n      jump\t// out\n        /* \"AdminManger.sol\":13318:13700  function erc721Burn(address _ERC721Address, uint256 tokenId)... */\n    tag_118:\n        /* \"AdminManger.sol\":10150:10172  adminExist(msg.sender) */\n      tag_373\n        /* \"AdminManger.sol\":10161:10171  msg.sender */\n      caller\n        /* \"AdminManger.sol\":10150:10160  adminExist */\n      tag_200\n        /* \"AdminManger.sol\":10150:10172  adminExist(msg.sender) */\n      jump\t// in\n    tag_373:\n        /* \"AdminManger.sol\":10150:10185  adminExist(msg.sender) || isOwner() */\n      dup1\n      tag_374\n      jumpi\n      pop\n        /* \"AdminManger.sol\":10176:10185  isOwner() */\n      tag_375\n        /* \"AdminManger.sol\":10176:10183  isOwner */\n      tag_162\n        /* \"AdminManger.sol\":10176:10185  isOwner() */\n      jump\t// in\n    tag_375:\n        /* \"AdminManger.sol\":10150:10185  adminExist(msg.sender) || isOwner() */\n    tag_374:\n        /* \"AdminManger.sol\":10129:10246  require(... */\n      tag_376\n      jumpi\n      mload(0x40)\n      0x08c379a000000000000000000000000000000000000000000000000000000000\n      dup2\n      mstore\n      0x04\n      add\n      tag_377\n      swap1\n      jump(tag_218)\n    tag_377:\n      mload(0x40)\n      dup1\n      swap2\n      sub\n      swap1\n      revert\n    tag_376:\n        /* \"AdminManger.sol\":13434:13450  IMintable erc721 */\n      0x00\n        /* \"AdminManger.sol\":13463:13477  _ERC721Address */\n      dup3\n        /* \"AdminManger.sol\":13434:13478  IMintable erc721 = IMintable(_ERC721Address) */\n      swap1\n      pop\n        /* \"AdminManger.sol\":13579:13592  functionNames */\n      0x02\n        /* \"AdminManger.sol\":13579:13597  functionNames.burn */\n      dup1\n      add\n        /* \"AdminManger.sol\":13493:13656  AdminActionPerformed(... */\n      mload(0x40)\n      tag_379\n      swap2\n      swap1\n      jump(tag_225)\n    tag_379:\n      mload(0x40)\n      dup1\n      swap2\n      sub\n      swap1\n      keccak256\n        /* \"AdminManger.sol\":13551:13565  _ERC721Address */\n      dup4\n        /* \"AdminManger.sol\":13493:13656  AdminActionPerformed(... */\n      0xffffffffffffffffffffffffffffffffffffffff\n      and\n        /* \"AdminManger.sol\":13527:13537  msg.sender */\n      caller\n        /* \"AdminManger.sol\":13493:13656  AdminActionPerformed(... */\n      0xffffffffffffffffffffffffffffffffffffffff\n      and\n      0x32a9eeb55ea56eb60badfb6642d5b92be35b6da6f74892c12d0e14a50dfc2bac\n        /* \"AdminManger.sol\":13611:13625  _ERC721Address */\n      dup7\n        /* \"AdminManger.sol\":13639:13646  tokenId */\n      dup7\n        /* \"AdminManger.sol\":13493:13656  AdminActionPerformed(... */\n      mload(0x40)\n      tag_380\n      swap3\n      swap2\n      swap1\n      jump(tag_227)\n    tag_380:\n      mload(0x40)\n      dup1\n      swap2\n      sub\n      swap1\n      log4\n        /* \"AdminManger.sol\":13673:13679  erc721 */\n      dup1\n        /* \"AdminManger.sol\":13673:13684  erc721.burn */\n      0xffffffffffffffffffffffffffffffffffffffff\n      and\n      0x42966c68\n        /* \"AdminManger.sol\":13685:13692  tokenId */\n      dup4\n        /* \"AdminManger.sol\":13673:13693  erc721.burn(tokenId) */\n      mload(0x40)\n      dup3\n      0xffffffff\n      and\n      0xe0\n      shl\n      dup2\n      mstore\n      0x04\n      add\n      tag_381\n      swap2\n      swap1\n      jump(tag_354)\n    tag_381:\n      0x00\n      mload(0x40)\n      dup1\n      dup4\n      sub\n      dup2\n      0x00\n      dup8\n      dup1\n      extcodesize\n      iszero\n        /* \"--CODEGEN--\":8:17   */\n      dup1\n        /* \"--CODEGEN--\":5:7   */\n      iszero\n      tag_382\n      jumpi\n        /* \"--CODEGEN--\":30:31   */\n      0x00\n        /* \"--CODEGEN--\":27:28   */\n      dup1\n        /* \"--CODEGEN--\":20:32   */\n      revert\n        /* \"--CODEGEN--\":5:7   */\n    tag_382:\n        /* \"AdminManger.sol\":13673:13693  erc721.burn(tokenId) */\n      pop\n      gas\n      call\n      iszero\n        /* \"--CODEGEN--\":8:17   */\n      dup1\n        /* \"--CODEGEN--\":5:7   */\n      iszero\n      tag_383\n      jumpi\n        /* \"--CODEGEN--\":45:61   */\n      returndatasize\n        /* \"--CODEGEN--\":42:43   */\n      0x00\n        /* \"--CODEGEN--\":39:40   */\n      dup1\n        /* \"--CODEGEN--\":24:62   */\n      returndatacopy\n        /* \"--CODEGEN--\":77:93   */\n      returndatasize\n        /* \"--CODEGEN--\":74:75   */\n      0x00\n        /* \"--CODEGEN--\":67:94   */\n      revert\n        /* \"--CODEGEN--\":5:7   */\n    tag_383:\n        /* \"AdminManger.sol\":13673:13693  erc721.burn(tokenId) */\n      pop\n      pop\n      pop\n      pop\n        /* \"AdminManger.sol\":13666:13693  return erc721.burn(tokenId) */\n      pop\n        /* \"AdminManger.sol\":13318:13700  function erc721Burn(address _ERC721Address, uint256 tokenId)... */\n      pop\n      pop\n      jump\t// out\n        /* \"AdminManger.sol\":14614:15121  function erc721SafeTransferFrom(... */\n    tag_123:\n        /* \"AdminManger.sol\":10150:10172  adminExist(msg.sender) */\n      tag_385\n        /* \"AdminManger.sol\":10161:10171  msg.sender */\n      caller\n        /* \"AdminManger.sol\":10150:10160  adminExist */\n      tag_200\n        /* \"AdminManger.sol\":10150:10172  adminExist(msg.sender) */\n      jump\t// in\n    tag_385:\n        /* \"AdminManger.sol\":10150:10185  adminExist(msg.sender) || isOwner() */\n      dup1\n      tag_386\n      jumpi\n      pop\n        /* \"AdminManger.sol\":10176:10185  isOwner() */\n      tag_387\n        /* \"AdminManger.sol\":10176:10183  isOwner */\n      tag_162\n        /* \"AdminManger.sol\":10176:10185  isOwner() */\n      jump\t// in\n    tag_387:\n        /* \"AdminManger.sol\":10150:10185  adminExist(msg.sender) || isOwner() */\n    tag_386:\n        /* \"AdminManger.sol\":10129:10246  require(... */\n      tag_388\n      jumpi\n      mload(0x40)\n      0x08c379a000000000000000000000000000000000000000000000000000000000\n      dup2\n      mstore\n      0x04\n      add\n      tag_389\n      swap1\n      jump(tag_218)\n    tag_389:\n      mload(0x40)\n      dup1\n      swap2\n      sub\n      swap1\n      revert\n    tag_388:\n        /* \"AdminManger.sol\":14814:14830  IMintable erc721 */\n      0x00\n        /* \"AdminManger.sol\":14843:14857  _ERC721Address */\n      dup6\n        /* \"AdminManger.sol\":14814:14858  IMintable erc721 = IMintable(_ERC721Address) */\n      swap1\n      pop\n        /* \"AdminManger.sol\":14959:14972  functionNames */\n      0x02\n        /* \"AdminManger.sol\":14959:14989  functionNames.safeTransferFrom */\n      0x04\n      add\n        /* \"AdminManger.sol\":14873:15048  AdminActionPerformed(... */\n      mload(0x40)\n      tag_391\n      swap2\n      swap1\n      jump(tag_225)\n    tag_391:\n      mload(0x40)\n      dup1\n      swap2\n      sub\n      swap1\n      keccak256\n        /* \"AdminManger.sol\":14931:14945  _ERC721Address */\n      dup7\n        /* \"AdminManger.sol\":14873:15048  AdminActionPerformed(... */\n      0xffffffffffffffffffffffffffffffffffffffff\n      and\n        /* \"AdminManger.sol\":14907:14917  msg.sender */\n      caller\n        /* \"AdminManger.sol\":14873:15048  AdminActionPerformed(... */\n      0xffffffffffffffffffffffffffffffffffffffff\n      and\n      0x32a9eeb55ea56eb60badfb6642d5b92be35b6da6f74892c12d0e14a50dfc2bac\n        /* \"AdminManger.sol\":15003:15017  _ERC721Address */\n      dup10\n        /* \"AdminManger.sol\":15031:15038  tokenId */\n      dup8\n        /* \"AdminManger.sol\":14873:15048  AdminActionPerformed(... */\n      mload(0x40)\n      tag_392\n      swap3\n      swap2\n      swap1\n      jump(tag_227)\n    tag_392:\n      mload(0x40)\n      dup1\n      swap2\n      sub\n      swap1\n      log4\n        /* \"AdminManger.sol\":15065:15071  erc721 */\n      dup1\n        /* \"AdminManger.sol\":15065:15088  erc721.safeTransferFrom */\n      0xffffffffffffffffffffffffffffffffffffffff\n      and\n      0xb88d4fde\n        /* \"AdminManger.sol\":15089:15093  from */\n      dup7\n        /* \"AdminManger.sol\":15095:15097  to */\n      dup7\n        /* \"AdminManger.sol\":15099:15106  tokenId */\n      dup7\n        /* \"AdminManger.sol\":15108:15113  _data */\n      dup7\n        /* \"AdminManger.sol\":15065:15114  erc721.safeTransferFrom(from, to, tokenId, _data) */\n      mload(0x40)\n      dup6\n      0xffffffff\n      and\n      0xe0\n      shl\n      dup2\n      mstore\n      0x04\n      add\n      tag_393\n      swap5\n      swap4\n      swap3\n      swap2\n      swap1\n      jump(tag_394)\n    tag_393:\n      0x00\n      mload(0x40)\n      dup1\n      dup4\n      sub\n      dup2\n      0x00\n      dup8\n      dup1\n      extcodesize\n      iszero\n        /* \"--CODEGEN--\":8:17   */\n      dup1\n        /* \"--CODEGEN--\":5:7   */\n      iszero\n      tag_395\n      jumpi\n        /* \"--CODEGEN--\":30:31   */\n      0x00\n        /* \"--CODEGEN--\":27:28   */\n      dup1\n        /* \"--CODEGEN--\":20:32   */\n      revert\n        /* \"--CODEGEN--\":5:7   */\n    tag_395:\n        /* \"AdminManger.sol\":15065:15114  erc721.safeTransferFrom(from, to, tokenId, _data) */\n      pop\n      gas\n      call\n      iszero\n        /* \"--CODEGEN--\":8:17   */\n      dup1\n        /* \"--CODEGEN--\":5:7   */\n      iszero\n      tag_396\n      jumpi\n        /* \"--CODEGEN--\":45:61   */\n      returndatasize\n        /* \"--CODEGEN--\":42:43   */\n      0x00\n        /* \"--CODEGEN--\":39:40   */\n      dup1\n        /* \"--CODEGEN--\":24:62   */\n      returndatacopy\n        /* \"--CODEGEN--\":77:93   */\n      returndatasize\n        /* \"--CODEGEN--\":74:75   */\n      0x00\n        /* \"--CODEGEN--\":67:94   */\n      revert\n        /* \"--CODEGEN--\":5:7   */\n    tag_396:\n        /* \"AdminManger.sol\":15065:15114  erc721.safeTransferFrom(from, to, tokenId, _data) */\n      pop\n      pop\n      pop\n      pop\n        /* \"AdminManger.sol\":15058:15114  return erc721.safeTransferFrom(from, to, tokenId, _data) */\n      pop\n        /* \"AdminManger.sol\":14614:15121  function erc721SafeTransferFrom(... */\n      pop\n      pop\n      pop\n      pop\n      pop\n      jump\t// out\n        /* \"AdminManger.sol\":14136:14608  function erc721SafeTransferFrom(... */\n    tag_127:\n        /* \"AdminManger.sol\":10150:10172  adminExist(msg.sender) */\n      tag_398\n        /* \"AdminManger.sol\":10161:10171  msg.sender */\n      caller\n        /* \"AdminManger.sol\":10150:10160  adminExist */\n      tag_200\n        /* \"AdminManger.sol\":10150:10172  adminExist(msg.sender) */\n      jump\t// in\n    tag_398:\n        /* \"AdminManger.sol\":10150:10185  adminExist(msg.sender) || isOwner() */\n      dup1\n      tag_399\n      jumpi\n      pop\n        /* \"AdminManger.sol\":10176:10185  isOwner() */\n      tag_400\n        /* \"AdminManger.sol\":10176:10183  isOwner */\n      tag_162\n        /* \"AdminManger.sol\":10176:10185  isOwner() */\n      jump\t// in\n    tag_400:\n        /* \"AdminManger.sol\":10150:10185  adminExist(msg.sender) || isOwner() */\n    tag_399:\n        /* \"AdminManger.sol\":10129:10246  require(... */\n      tag_401\n      jumpi\n      mload(0x40)\n      0x08c379a000000000000000000000000000000000000000000000000000000000\n      dup2\n      mstore\n      0x04\n      add\n      tag_402\n      swap1\n      jump(tag_218)\n    tag_402:\n      mload(0x40)\n      dup1\n      swap2\n      sub\n      swap1\n      revert\n    tag_401:\n        /* \"AdminManger.sol\":14308:14324  IMintable erc721 */\n      0x00\n        /* \"AdminManger.sol\":14337:14351  _ERC721Address */\n      dup5\n        /* \"AdminManger.sol\":14308:14352  IMintable erc721 = IMintable(_ERC721Address) */\n      swap1\n      pop\n        /* \"AdminManger.sol\":14453:14466  functionNames */\n      0x02\n        /* \"AdminManger.sol\":14453:14483  functionNames.safeTransferFrom */\n      0x04\n      add\n        /* \"AdminManger.sol\":14367:14542  AdminActionPerformed(... */\n      mload(0x40)\n      tag_404\n      swap2\n      swap1\n      jump(tag_225)\n    tag_404:\n      mload(0x40)\n      dup1\n      swap2\n      sub\n      swap1\n      keccak256\n        /* \"AdminManger.sol\":14425:14439  _ERC721Address */\n      dup6\n        /* \"AdminManger.sol\":14367:14542  AdminActionPerformed(... */\n      0xffffffffffffffffffffffffffffffffffffffff\n      and\n        /* \"AdminManger.sol\":14401:14411  msg.sender */\n      caller\n        /* \"AdminManger.sol\":14367:14542  AdminActionPerformed(... */\n      0xffffffffffffffffffffffffffffffffffffffff\n      and\n      0x32a9eeb55ea56eb60badfb6642d5b92be35b6da6f74892c12d0e14a50dfc2bac\n        /* \"AdminManger.sol\":14497:14511  _ERC721Address */\n      dup9\n        /* \"AdminManger.sol\":14525:14532  tokenId */\n      dup7\n        /* \"AdminManger.sol\":14367:14542  AdminActionPerformed(... */\n      mload(0x40)\n      tag_405\n      swap3\n      swap2\n      swap1\n      jump(tag_227)\n    tag_405:\n      mload(0x40)\n      dup1\n      swap2\n      sub\n      swap1\n      log4\n        /* \"AdminManger.sol\":14559:14565  erc721 */\n      dup1\n        /* \"AdminManger.sol\":14559:14582  erc721.safeTransferFrom */\n      0xffffffffffffffffffffffffffffffffffffffff\n      and\n      0x42842e0e\n        /* \"AdminManger.sol\":14583:14587  from */\n      dup6\n        /* \"AdminManger.sol\":14589:14591  to */\n      dup6\n        /* \"AdminManger.sol\":14593:14600  tokenId */\n      dup6\n        /* \"AdminManger.sol\":14559:14601  erc721.safeTransferFrom(from, to, tokenId) */\n      mload(0x40)\n      dup5\n      0xffffffff\n      and\n      0xe0\n      shl\n      dup2\n      mstore\n      0x04\n      add\n      tag_406\n      swap4\n      swap3\n      swap2\n      swap1\n      jump(tag_221)\n    tag_406:\n      0x00\n      mload(0x40)\n      dup1\n      dup4\n      sub\n      dup2\n      0x00\n      dup8\n      dup1\n      extcodesize\n      iszero\n        /* \"--CODEGEN--\":8:17   */\n      dup1\n        /* \"--CODEGEN--\":5:7   */\n      iszero\n      tag_407\n      jumpi\n        /* \"--CODEGEN--\":30:31   */\n      0x00\n        /* \"--CODEGEN--\":27:28   */\n      dup1\n        /* \"--CODEGEN--\":20:32   */\n      revert\n        /* \"--CODEGEN--\":5:7   */\n    tag_407:\n        /* \"AdminManger.sol\":14559:14601  erc721.safeTransferFrom(from, to, tokenId) */\n      pop\n      gas\n      call\n      iszero\n        /* \"--CODEGEN--\":8:17   */\n      dup1\n        /* \"--CODEGEN--\":5:7   */\n      iszero\n      tag_408\n      jumpi\n        /* \"--CODEGEN--\":45:61   */\n      returndatasize\n        /* \"--CODEGEN--\":42:43   */\n      0x00\n        /* \"--CODEGEN--\":39:40   */\n      dup1\n        /* \"--CODEGEN--\":24:62   */\n      returndatacopy\n        /* \"--CODEGEN--\":77:93   */\n      returndatasize\n        /* \"--CODEGEN--\":74:75   */\n      0x00\n        /* \"--CODEGEN--\":67:94   */\n      revert\n        /* \"--CODEGEN--\":5:7   */\n    tag_408:\n        /* \"AdminManger.sol\":14559:14601  erc721.safeTransferFrom(from, to, tokenId) */\n      pop\n      pop\n      pop\n      pop\n        /* \"AdminManger.sol\":14552:14601  return erc721.safeTransferFrom(from, to, tokenId) */\n      pop\n        /* \"AdminManger.sol\":14136:14608  function erc721SafeTransferFrom(... */\n      pop\n      pop\n      pop\n      pop\n      jump\t// out\n        /* \"AdminManger.sol\":18758:19204  function accpetOffer(... */\n    tag_131:\n        /* \"AdminManger.sol\":10150:10172  adminExist(msg.sender) */\n      tag_410\n        /* \"AdminManger.sol\":10161:10171  msg.sender */\n      caller\n        /* \"AdminManger.sol\":10150:10160  adminExist */\n      tag_200\n        /* \"AdminManger.sol\":10150:10172  adminExist(msg.sender) */\n      jump\t// in\n    tag_410:\n        /* \"AdminManger.sol\":10150:10185  adminExist(msg.sender) || isOwner() */\n      dup1\n      tag_411\n      jumpi\n      pop\n        /* \"AdminManger.sol\":10176:10185  isOwner() */\n      tag_412\n        /* \"AdminManger.sol\":10176:10183  isOwner */\n      tag_162\n        /* \"AdminManger.sol\":10176:10185  isOwner() */\n      jump\t// in\n    tag_412:\n        /* \"AdminManger.sol\":10150:10185  adminExist(msg.sender) || isOwner() */\n    tag_411:\n        /* \"AdminManger.sol\":10129:10246  require(... */\n      tag_413\n      jumpi\n      mload(0x40)\n      0x08c379a000000000000000000000000000000000000000000000000000000000\n      dup2\n      mstore\n      0x04\n      add\n      tag_414\n      swap1\n      jump(tag_218)\n    tag_414:\n      mload(0x40)\n      dup1\n      swap2\n      sub\n      swap1\n      revert\n    tag_413:\n        /* \"AdminManger.sol\":18941:18947  broker */\n      0x1c\n      0x00\n      swap1\n      sload\n      swap1\n      0x0100\n      exp\n      swap1\n      div\n      0xffffffffffffffffffffffffffffffffffffffff\n      and\n        /* \"AdminManger.sol\":18941:18959  broker.accpetOffer */\n      0xffffffffffffffffffffffffffffffffffffffff\n      and\n      0x5aa8680a\n        /* \"AdminManger.sol\":18960:18967  tokenID */\n      dup6\n        /* \"AdminManger.sol\":18969:18983  _mintableToken */\n      dup6\n        /* \"AdminManger.sol\":18985:18996  _erc20Token */\n      dup6\n        /* \"AdminManger.sol\":18998:19010  isNotClubare */\n      dup6\n        /* \"AdminManger.sol\":18941:19011  broker.accpetOffer(tokenID, _mintableToken, _erc20Token, isNotClubare) */\n      mload(0x40)\n      dup6\n      0xffffffff\n      and\n      0xe0\n      shl\n      dup2\n      mstore\n      0x04\n      add\n      tag_416\n      swap5\n      swap4\n      swap3\n      swap2\n      swap1\n      jump(tag_417)\n    tag_416:\n      0x00\n      mload(0x40)\n      dup1\n      dup4\n      sub\n      dup2\n      0x00\n      dup8\n      dup1\n      extcodesize\n      iszero\n        /* \"--CODEGEN--\":8:17   */\n      dup1\n        /* \"--CODEGEN--\":5:7   */\n      iszero\n      tag_418\n      jumpi\n        /* \"--CODEGEN--\":30:31   */\n      0x00\n        /* \"--CODEGEN--\":27:28   */\n      dup1\n        /* \"--CODEGEN--\":20:32   */\n      revert\n        /* \"--CODEGEN--\":5:7   */\n    tag_418:\n        /* \"AdminManger.sol\":18941:19011  broker.accpetOffer(tokenID, _mintableToken, _erc20Token, isNotClubare) */\n      pop\n      gas\n      call\n      iszero\n        /* \"--CODEGEN--\":8:17   */\n      dup1\n        /* \"--CODEGEN--\":5:7   */\n      iszero\n      tag_419\n      jumpi\n        /* \"--CODEGEN--\":45:61   */\n      returndatasize\n        /* \"--CODEGEN--\":42:43   */\n      0x00\n        /* \"--CODEGEN--\":39:40   */\n      dup1\n        /* \"--CODEGEN--\":24:62   */\n      returndatacopy\n        /* \"--CODEGEN--\":77:93   */\n      returndatasize\n        /* \"--CODEGEN--\":74:75   */\n      0x00\n        /* \"--CODEGEN--\":67:94   */\n      revert\n        /* \"--CODEGEN--\":5:7   */\n    tag_419:\n        /* \"AdminManger.sol\":18941:19011  broker.accpetOffer(tokenID, _mintableToken, _erc20Token, isNotClubare) */\n      pop\n      pop\n      pop\n      pop\n        /* \"AdminManger.sol\":19113:19126  functionNames */\n      0x02\n        /* \"AdminManger.sol\":19113:19138  functionNames.accpetOffer */\n      0x0d\n      add\n        /* \"AdminManger.sol\":19026:19197  AdminActionPerformed(... */\n      mload(0x40)\n      tag_420\n      swap2\n      swap1\n      jump(tag_225)\n    tag_420:\n      mload(0x40)\n      dup1\n      swap2\n      sub\n      swap1\n      keccak256\n        /* \"AdminManger.sol\":19092:19098  broker */\n      0x1c\n      0x00\n      swap1\n      sload\n      swap1\n      0x0100\n      exp\n      swap1\n      div\n      0xffffffffffffffffffffffffffffffffffffffff\n      and\n        /* \"AdminManger.sol\":19026:19197  AdminActionPerformed(... */\n      0xffffffffffffffffffffffffffffffffffffffff\n      and\n        /* \"AdminManger.sol\":19060:19070  msg.sender */\n      caller\n        /* \"AdminManger.sol\":19026:19197  AdminActionPerformed(... */\n      0xffffffffffffffffffffffffffffffffffffffff\n      and\n      0x32a9eeb55ea56eb60badfb6642d5b92be35b6da6f74892c12d0e14a50dfc2bac\n        /* \"AdminManger.sol\":19152:19166  _mintableToken */\n      dup7\n        /* \"AdminManger.sol\":19180:19187  tokenID */\n      dup9\n        /* \"AdminManger.sol\":19026:19197  AdminActionPerformed(... */\n      mload(0x40)\n      tag_421\n      swap3\n      swap2\n      swap1\n      jump(tag_227)\n    tag_421:\n      mload(0x40)\n      dup1\n      swap2\n      sub\n      swap1\n      log4\n        /* \"AdminManger.sol\":18758:19204  function accpetOffer(... */\n      pop\n      pop\n      pop\n      pop\n      jump\t// out\n        /* \"AdminManger.sol\":16792:17512  function putOnSale(... */\n    tag_136:\n        /* \"AdminManger.sol\":10150:10172  adminExist(msg.sender) */\n      tag_423\n        /* \"AdminManger.sol\":10161:10171  msg.sender */\n      caller\n        /* \"AdminManger.sol\":10150:10160  adminExist */\n      tag_200\n        /* \"AdminManger.sol\":10150:10172  adminExist(msg.sender) */\n      jump\t// in\n    tag_423:\n        /* \"AdminManger.sol\":10150:10185  adminExist(msg.sender) || isOwner() */\n      dup1\n      tag_424\n      jumpi\n      pop\n        /* \"AdminManger.sol\":10176:10185  isOwner() */\n      tag_425\n        /* \"AdminManger.sol\":10176:10183  isOwner */\n      tag_162\n        /* \"AdminManger.sol\":10176:10185  isOwner() */\n      jump\t// in\n    tag_425:\n        /* \"AdminManger.sol\":10150:10185  adminExist(msg.sender) || isOwner() */\n    tag_424:\n        /* \"AdminManger.sol\":10129:10246  require(... */\n      tag_426\n      jumpi\n      mload(0x40)\n      0x08c379a000000000000000000000000000000000000000000000000000000000\n      dup2\n      mstore\n      0x04\n      add\n      tag_427\n      swap1\n      jump(tag_218)\n    tag_427:\n      mload(0x40)\n      dup1\n      swap2\n      sub\n      swap1\n      revert\n    tag_426:\n        /* \"AdminManger.sol\":17089:17095  broker */\n      0x1c\n      0x00\n      swap1\n      sload\n      swap1\n      0x0100\n      exp\n      swap1\n      div\n      0xffffffffffffffffffffffffffffffffffffffff\n      and\n        /* \"AdminManger.sol\":17089:17105  broker.putOnSale */\n      0xffffffffffffffffffffffffffffffffffffffff\n      and\n      0x640cf873\n        /* \"AdminManger.sol\":17119:17127  _tokenID */\n      dup10\n        /* \"AdminManger.sol\":17141:17155  _startingPrice */\n      dup10\n        /* \"AdminManger.sol\":17169:17181  _auctionType */\n      dup10\n        /* \"AdminManger.sol\":17195:17204  _buyPrice */\n      dup10\n        /* \"AdminManger.sol\":17218:17231  _startingTime */\n      dup10\n        /* \"AdminManger.sol\":17245:17257  _closingTime */\n      dup10\n        /* \"AdminManger.sol\":17271:17285  _mintableToken */\n      dup10\n        /* \"AdminManger.sol\":17299:17310  _erc20Token */\n      dup10\n        /* \"AdminManger.sol\":17089:17320  broker.putOnSale(... */\n      mload(0x40)\n      dup10\n      0xffffffff\n      and\n      0xe0\n      shl\n      dup2\n      mstore\n      0x04\n      add\n      tag_429\n      swap9\n      swap8\n      swap7\n      swap6\n      swap5\n      swap4\n      swap3\n      swap2\n      swap1\n      jump(tag_430)\n    tag_429:\n      0x00\n      mload(0x40)\n      dup1\n      dup4\n      sub\n      dup2\n      0x00\n      dup8\n      dup1\n      extcodesize\n      iszero\n        /* \"--CODEGEN--\":8:17   */\n      dup1\n        /* \"--CODEGEN--\":5:7   */\n      iszero\n      tag_431\n      jumpi\n        /* \"--CODEGEN--\":30:31   */\n      0x00\n        /* \"--CODEGEN--\":27:28   */\n      dup1\n        /* \"--CODEGEN--\":20:32   */\n      revert\n        /* \"--CODEGEN--\":5:7   */\n    tag_431:\n        /* \"AdminManger.sol\":17089:17320  broker.putOnSale(... */\n      pop\n      gas\n      call\n      iszero\n        /* \"--CODEGEN--\":8:17   */\n      dup1\n        /* \"--CODEGEN--\":5:7   */\n      iszero\n      tag_432\n      jumpi\n        /* \"--CODEGEN--\":45:61   */\n      returndatasize\n        /* \"--CODEGEN--\":42:43   */\n      0x00\n        /* \"--CODEGEN--\":39:40   */\n      dup1\n        /* \"--CODEGEN--\":24:62   */\n      returndatacopy\n        /* \"--CODEGEN--\":77:93   */\n      returndatasize\n        /* \"--CODEGEN--\":74:75   */\n      0x00\n        /* \"--CODEGEN--\":67:94   */\n      revert\n        /* \"--CODEGEN--\":5:7   */\n    tag_432:\n        /* \"AdminManger.sol\":17089:17320  broker.putOnSale(... */\n      pop\n      pop\n      pop\n      pop\n        /* \"AdminManger.sol\":17422:17435  functionNames */\n      0x02\n        /* \"AdminManger.sol\":17422:17445  functionNames.putOnSale */\n      0x06\n      add\n        /* \"AdminManger.sol\":17335:17505  AdminActionPerformed(... */\n      mload(0x40)\n      tag_433\n      swap2\n      swap1\n      jump(tag_225)\n    tag_433:\n      mload(0x40)\n      dup1\n      swap2\n      sub\n      swap1\n      keccak256\n        /* \"AdminManger.sol\":17401:17407  broker */\n      0x1c\n      0x00\n      swap1\n      sload\n      swap1\n      0x0100\n      exp\n      swap1\n      div\n      0xffffffffffffffffffffffffffffffffffffffff\n      and\n        /* \"AdminManger.sol\":17335:17505  AdminActionPerformed(... */\n      0xffffffffffffffffffffffffffffffffffffffff\n      and\n        /* \"AdminManger.sol\":17369:17379  msg.sender */\n      caller\n        /* \"AdminManger.sol\":17335:17505  AdminActionPerformed(... */\n      0xffffffffffffffffffffffffffffffffffffffff\n      and\n      0x32a9eeb55ea56eb60badfb6642d5b92be35b6da6f74892c12d0e14a50dfc2bac\n        /* \"AdminManger.sol\":17459:17473  _mintableToken */\n      dup6\n        /* \"AdminManger.sol\":17487:17495  _tokenID */\n      dup13\n        /* \"AdminManger.sol\":17335:17505  AdminActionPerformed(... */\n      mload(0x40)\n      tag_434\n      swap3\n      swap2\n      swap1\n      jump(tag_227)\n    tag_434:\n      mload(0x40)\n      dup1\n      swap2\n      sub\n      swap1\n      log4\n        /* \"AdminManger.sol\":16792:17512  function putOnSale(... */\n      pop\n      pop\n      pop\n      pop\n      pop\n      pop\n      pop\n      pop\n      jump\t// out\n        /* \"AdminManger.sol\":10444:10689  function addAdmin(address admin) public onlyOwner {... */\n    tag_140:\n        /* \"AdminManger.sol\":1516:1525  isOwner() */\n      tag_436\n        /* \"AdminManger.sol\":1516:1523  isOwner */\n      tag_162\n        /* \"AdminManger.sol\":1516:1525  isOwner() */\n      jump\t// in\n    tag_436:\n        /* \"AdminManger.sol\":1508:1562  require(isOwner(), \"Ownable: caller is not the owner\") */\n      tag_437\n      jumpi\n      mload(0x40)\n      0x08c379a000000000000000000000000000000000000000000000000000000000\n      dup2\n      mstore\n      0x04\n      add\n      tag_438\n      swap1\n      jump(tag_247)\n    tag_438:\n      mload(0x40)\n      dup1\n      swap2\n      sub\n      swap1\n      revert\n    tag_437:\n        /* \"AdminManger.sol\":10509:10526  adminExist(admin) */\n      tag_440\n        /* \"AdminManger.sol\":10520:10525  admin */\n      dup2\n        /* \"AdminManger.sol\":10509:10519  adminExist */\n      tag_200\n        /* \"AdminManger.sol\":10509:10526  adminExist(admin) */\n      jump\t// in\n    tag_440:\n        /* \"AdminManger.sol\":10504:10633  if (!adminExist(admin)) {... */\n      tag_441\n      jumpi\n        /* \"AdminManger.sol\":10542:10548  admins */\n      0x01\n        /* \"AdminManger.sol\":10554:10559  admin */\n      dup2\n        /* \"AdminManger.sol\":10542:10560  admins.push(admin) */\n      swap1\n      dup1\n        /* \"--CODEGEN--\":39:40   */\n      0x01\n        /* \"--CODEGEN--\":33:36   */\n      dup2\n        /* \"--CODEGEN--\":27:37   */\n      sload\n        /* \"--CODEGEN--\":23:41   */\n      add\n        /* \"--CODEGEN--\":57:67   */\n      dup1\n        /* \"--CODEGEN--\":52:55   */\n      dup3\n        /* \"--CODEGEN--\":45:68   */\n      sstore\n        /* \"--CODEGEN--\":79:89   */\n      dup1\n        /* \"--CODEGEN--\":72:89   */\n      swap2\n      pop\n        /* \"--CODEGEN--\":0:93   */\n      pop\n        /* \"AdminManger.sol\":10542:10560  admins.push(admin) */\n      swap1\n      0x01\n      dup3\n      sub\n      swap1\n      0x00\n      mstore\n      keccak256(0x00, 0x20)\n      add\n      0x00\n      swap1\n      swap2\n      swap3\n      swap1\n      swap2\n      swap1\n      swap2\n      0x0100\n      exp\n      dup2\n      sload\n      dup2\n      0xffffffffffffffffffffffffffffffffffffffff\n      mul\n      not\n      and\n      swap1\n      dup4\n      0xffffffffffffffffffffffffffffffffffffffff\n      and\n      mul\n      or\n      swap1\n      sstore\n      pop\n      pop\n        /* \"AdminManger.sol\":10504:10633  if (!adminExist(admin)) {... */\n      jump(tag_443)\n    tag_441:\n        /* \"AdminManger.sol\":10591:10622  revert(\"admin already in list\") */\n      mload(0x40)\n      0x08c379a000000000000000000000000000000000000000000000000000000000\n      dup2\n      mstore\n      0x04\n      add\n      tag_444\n      swap1\n      jump(tag_445)\n    tag_444:\n      mload(0x40)\n      dup1\n      swap2\n      sub\n      swap1\n      revert\n        /* \"AdminManger.sol\":10504:10633  if (!adminExist(admin)) {... */\n    tag_443:\n        /* \"AdminManger.sol\":10648:10682  AdminAdded(admin, block.timestamp) */\n      0x723c2b747529ca7f5eb53a74808f4a8b9bf264f0fc450fd904900151da74548a\n        /* \"AdminManger.sol\":10659:10664  admin */\n      dup2\n        /* \"AdminManger.sol\":10666:10681  block.timestamp */\n      timestamp\n        /* \"AdminManger.sol\":10648:10682  AdminAdded(admin, block.timestamp) */\n      mload(0x40)\n      tag_446\n      swap3\n      swap2\n      swap1\n      jump(tag_227)\n    tag_446:\n      mload(0x40)\n      dup1\n      swap2\n      sub\n      swap1\n      log1\n        /* \"AdminManger.sol\":10444:10689  function addAdmin(address admin) public onlyOwner {... */\n      pop\n      jump\t// out\n        /* \"AdminManger.sol\":2097:2234  function renounceOwnership() public onlyOwner {... */\n    tag_143:\n        /* \"AdminManger.sol\":1516:1525  isOwner() */\n      tag_448\n        /* \"AdminManger.sol\":1516:1523  isOwner */\n      tag_162\n        /* \"AdminManger.sol\":1516:1525  isOwner() */\n      jump\t// in\n    tag_448:\n        /* \"AdminManger.sol\":1508:1562  require(isOwner(), \"Ownable: caller is not the owner\") */\n      tag_449\n      jumpi\n      mload(0x40)\n      0x08c379a000000000000000000000000000000000000000000000000000000000\n      dup2\n      mstore\n      0x04\n      add\n      tag_450\n      swap1\n      jump(tag_247)\n    tag_450:\n      mload(0x40)\n      dup1\n      swap2\n      sub\n      swap1\n      revert\n    tag_449:\n        /* \"AdminManger.sol\":2195:2196  0 */\n      0x00\n        /* \"AdminManger.sol\":2158:2198  OwnershipTransferred(_owner, address(0)) */\n      0xffffffffffffffffffffffffffffffffffffffff\n      and\n        /* \"AdminManger.sol\":2179:2185  _owner */\n      0x00\n      dup1\n      swap1\n      sload\n      swap1\n      0x0100\n      exp\n      swap1\n      div\n      0xffffffffffffffffffffffffffffffffffffffff\n      and\n        /* \"AdminManger.sol\":2158:2198  OwnershipTransferred(_owner, address(0)) */\n      0xffffffffffffffffffffffffffffffffffffffff\n      and\n      0x8be0079c531659141344cd1fd0a4f28419497f9722a3daafe3b4186f6b6457e0\n      mload(0x40)\n      mload(0x40)\n      dup1\n      swap2\n      sub\n      swap1\n      log3\n        /* \"AdminManger.sol\":2225:2226  0 */\n      0x00\n        /* \"AdminManger.sol\":2208:2214  _owner */\n      dup1\n      0x00\n        /* \"AdminManger.sol\":2208:2227  _owner = address(0) */\n      0x0100\n      exp\n      dup2\n      sload\n      dup2\n      0xffffffffffffffffffffffffffffffffffffffff\n      mul\n      not\n      and\n      swap1\n      dup4\n      0xffffffffffffffffffffffffffffffffffffffff\n      and\n      mul\n      or\n      swap1\n      sstore\n      pop\n        /* \"AdminManger.sol\":2097:2234  function renounceOwnership() public onlyOwner {... */\n      jump\t// out\n        /* \"AdminManger.sol\":16391:16786  function buy(uint256 tokenID, address _mintableToken, bool isNotClubare)... */\n    tag_147:\n        /* \"AdminManger.sol\":10150:10172  adminExist(msg.sender) */\n      tag_453\n        /* \"AdminManger.sol\":10161:10171  msg.sender */\n      caller\n        /* \"AdminManger.sol\":10150:10160  adminExist */\n      tag_200\n        /* \"AdminManger.sol\":10150:10172  adminExist(msg.sender) */\n      jump\t// in\n    tag_453:\n        /* \"AdminManger.sol\":10150:10185  adminExist(msg.sender) || isOwner() */\n      dup1\n      tag_454\n      jumpi\n      pop\n        /* \"AdminManger.sol\":10176:10185  isOwner() */\n      tag_455\n        /* \"AdminManger.sol\":10176:10183  isOwner */\n      tag_162\n        /* \"AdminManger.sol\":10176:10185  isOwner() */\n      jump\t// in\n    tag_455:\n        /* \"AdminManger.sol\":10150:10185  adminExist(msg.sender) || isOwner() */\n    tag_454:\n        /* \"AdminManger.sol\":10129:10246  require(... */\n      tag_456\n      jumpi\n      mload(0x40)\n      0x08c379a000000000000000000000000000000000000000000000000000000000\n      dup2\n      mstore\n      0x04\n      add\n      tag_457\n      swap1\n      jump(tag_218)\n    tag_457:\n      mload(0x40)\n      dup1\n      swap2\n      sub\n      swap1\n      revert\n    tag_456:\n        /* \"AdminManger.sol\":16535:16541  broker */\n      0x1c\n      0x00\n      swap1\n      sload\n      swap1\n      0x0100\n      exp\n      swap1\n      div\n      0xffffffffffffffffffffffffffffffffffffffff\n      and\n        /* \"AdminManger.sol\":16535:16545  broker.buy */\n      0xffffffffffffffffffffffffffffffffffffffff\n      and\n      0x7ad157b9\n        /* \"AdminManger.sol\":16552:16561  msg.value */\n      callvalue\n        /* \"AdminManger.sol\":16563:16570  tokenID */\n      dup6\n        /* \"AdminManger.sol\":16572:16586  _mintableToken */\n      dup6\n        /* \"AdminManger.sol\":16588:16600  isNotClubare */\n      dup6\n        /* \"AdminManger.sol\":16535:16601  broker.buy.value(msg.value)(tokenID, _mintableToken, isNotClubare) */\n      mload(0x40)\n      dup6\n      0xffffffff\n      and\n      0xe0\n      shl\n      dup2\n      mstore\n      0x04\n      add\n      tag_459\n      swap4\n      swap3\n      swap2\n      swap1\n      jump(tag_460)\n    tag_459:\n      0x00\n      mload(0x40)\n      dup1\n      dup4\n      sub\n      dup2\n      dup6\n      dup9\n      dup1\n      extcodesize\n      iszero\n        /* \"--CODEGEN--\":8:17   */\n      dup1\n        /* \"--CODEGEN--\":5:7   */\n      iszero\n      tag_461\n      jumpi\n        /* \"--CODEGEN--\":30:31   */\n      0x00\n        /* \"--CODEGEN--\":27:28   */\n      dup1\n        /* \"--CODEGEN--\":20:32   */\n      revert\n        /* \"--CODEGEN--\":5:7   */\n    tag_461:\n        /* \"AdminManger.sol\":16535:16601  broker.buy.value(msg.value)(tokenID, _mintableToken, isNotClubare) */\n      pop\n      gas\n      call\n      iszero\n        /* \"--CODEGEN--\":8:17   */\n      dup1\n        /* \"--CODEGEN--\":5:7   */\n      iszero\n      tag_462\n      jumpi\n        /* \"--CODEGEN--\":45:61   */\n      returndatasize\n        /* \"--CODEGEN--\":42:43   */\n      0x00\n        /* \"--CODEGEN--\":39:40   */\n      dup1\n        /* \"--CODEGEN--\":24:62   */\n      returndatacopy\n        /* \"--CODEGEN--\":77:93   */\n      returndatasize\n        /* \"--CODEGEN--\":74:75   */\n      0x00\n        /* \"--CODEGEN--\":67:94   */\n      revert\n        /* \"--CODEGEN--\":5:7   */\n    tag_462:\n        /* \"AdminManger.sol\":16535:16601  broker.buy.value(msg.value)(tokenID, _mintableToken, isNotClubare) */\n      pop\n      pop\n      pop\n      pop\n      pop\n        /* \"AdminManger.sol\":16703:16716  functionNames */\n      0x02\n        /* \"AdminManger.sol\":16703:16720  functionNames.buy */\n      0x07\n      add\n        /* \"AdminManger.sol\":16616:16779  AdminActionPerformed(... */\n      mload(0x40)\n      tag_463\n      swap2\n      swap1\n      jump(tag_225)\n    tag_463:\n      mload(0x40)\n      dup1\n      swap2\n      sub\n      swap1\n      keccak256\n        /* \"AdminManger.sol\":16682:16688  broker */\n      0x1c\n      0x00\n      swap1\n      sload\n      swap1\n      0x0100\n      exp\n      swap1\n      div\n      0xffffffffffffffffffffffffffffffffffffffff\n      and\n        /* \"AdminManger.sol\":16616:16779  AdminActionPerformed(... */\n      0xffffffffffffffffffffffffffffffffffffffff\n      and\n        /* \"AdminManger.sol\":16650:16660  msg.sender */\n      caller\n        /* \"AdminManger.sol\":16616:16779  AdminActionPerformed(... */\n      0xffffffffffffffffffffffffffffffffffffffff\n      and\n      0x32a9eeb55ea56eb60badfb6642d5b92be35b6da6f74892c12d0e14a50dfc2bac\n        /* \"AdminManger.sol\":16734:16748  _mintableToken */\n      dup6\n        /* \"AdminManger.sol\":16762:16769  tokenID */\n      dup8\n        /* \"AdminManger.sol\":16616:16779  AdminActionPerformed(... */\n      mload(0x40)\n      tag_464\n      swap3\n      swap2\n      swap1\n      jump(tag_227)\n    tag_464:\n      mload(0x40)\n      dup1\n      swap2\n      sub\n      swap1\n      log4\n        /* \"AdminManger.sol\":16391:16786  function buy(uint256 tokenID, address _mintableToken, bool isNotClubare)... */\n      pop\n      pop\n      pop\n      jump\t// out\n        /* \"AdminManger.sol\":15127:15587  function erc721TransferFrom(... */\n    tag_151:\n        /* \"AdminManger.sol\":10150:10172  adminExist(msg.sender) */\n      tag_466\n        /* \"AdminManger.sol\":10161:10171  msg.sender */\n      caller\n        /* \"AdminManger.sol\":10150:10160  adminExist */\n      tag_200\n        /* \"AdminManger.sol\":10150:10172  adminExist(msg.sender) */\n      jump\t// in\n    tag_466:\n        /* \"AdminManger.sol\":10150:10185  adminExist(msg.sender) || isOwner() */\n      dup1\n      tag_467\n      jumpi\n      pop\n        /* \"AdminManger.sol\":10176:10185  isOwner() */\n      tag_468\n        /* \"AdminManger.sol\":10176:10183  isOwner */\n      tag_162\n        /* \"AdminManger.sol\":10176:10185  isOwner() */\n      jump\t// in\n    tag_468:\n        /* \"AdminManger.sol\":10150:10185  adminExist(msg.sender) || isOwner() */\n    tag_467:\n        /* \"AdminManger.sol\":10129:10246  require(... */\n      tag_469\n      jumpi\n      mload(0x40)\n      0x08c379a000000000000000000000000000000000000000000000000000000000\n      dup2\n      mstore\n      0x04\n      add\n      tag_470\n      swap1\n      jump(tag_218)\n    tag_470:\n      mload(0x40)\n      dup1\n      swap2\n      sub\n      swap1\n      revert\n    tag_469:\n        /* \"AdminManger.sol\":15295:15311  IMintable erc721 */\n      0x00\n        /* \"AdminManger.sol\":15324:15338  _ERC721Address */\n      dup5\n        /* \"AdminManger.sol\":15295:15339  IMintable erc721 = IMintable(_ERC721Address) */\n      swap1\n      pop\n        /* \"AdminManger.sol\":15440:15453  functionNames */\n      0x02\n        /* \"AdminManger.sol\":15440:15466  functionNames.transferFrom */\n      0x05\n      add\n        /* \"AdminManger.sol\":15354:15525  AdminActionPerformed(... */\n      mload(0x40)\n      tag_472\n      swap2\n      swap1\n      jump(tag_225)\n    tag_472:\n      mload(0x40)\n      dup1\n      swap2\n      sub\n      swap1\n      keccak256\n        /* \"AdminManger.sol\":15412:15426  _ERC721Address */\n      dup6\n        /* \"AdminManger.sol\":15354:15525  AdminActionPerformed(... */\n      0xffffffffffffffffffffffffffffffffffffffff\n      and\n        /* \"AdminManger.sol\":15388:15398  msg.sender */\n      caller\n        /* \"AdminManger.sol\":15354:15525  AdminActionPerformed(... */\n      0xffffffffffffffffffffffffffffffffffffffff\n      and\n      0x32a9eeb55ea56eb60badfb6642d5b92be35b6da6f74892c12d0e14a50dfc2bac\n        /* \"AdminManger.sol\":15480:15494  _ERC721Address */\n      dup9\n        /* \"AdminManger.sol\":15508:15515  tokenId */\n      dup7\n        /* \"AdminManger.sol\":15354:15525  AdminActionPerformed(... */\n      mload(0x40)\n      tag_473\n      swap3\n      swap2\n      swap1\n      jump(tag_227)\n    tag_473:\n      mload(0x40)\n      dup1\n      swap2\n      sub\n      swap1\n      log4\n        /* \"AdminManger.sol\":15542:15548  erc721 */\n      dup1\n        /* \"AdminManger.sol\":15542:15561  erc721.transferFrom */\n      0xffffffffffffffffffffffffffffffffffffffff\n      and\n      0x23b872dd\n        /* \"AdminManger.sol\":15562:15566  from */\n      dup6\n        /* \"AdminManger.sol\":15568:15570  to */\n      dup6\n        /* \"AdminManger.sol\":15572:15579  tokenId */\n      dup6\n        /* \"AdminManger.sol\":15542:15580  erc721.transferFrom(from, to, tokenId) */\n      mload(0x40)\n      dup5\n      0xffffffff\n      and\n      0xe0\n      shl\n      dup2\n      mstore\n      0x04\n      add\n      tag_474\n      swap4\n      swap3\n      swap2\n      swap1\n      jump(tag_221)\n    tag_474:\n      0x00\n      mload(0x40)\n      dup1\n      dup4\n      sub\n      dup2\n      0x00\n      dup8\n      dup1\n      extcodesize\n      iszero\n        /* \"--CODEGEN--\":8:17   */\n      dup1\n        /* \"--CODEGEN--\":5:7   */\n      iszero\n      tag_475\n      jumpi\n        /* \"--CODEGEN--\":30:31   */\n      0x00\n        /* \"--CODEGEN--\":27:28   */\n      dup1\n        /* \"--CODEGEN--\":20:32   */\n      revert\n        /* \"--CODEGEN--\":5:7   */\n    tag_475:\n        /* \"AdminManger.sol\":15542:15580  erc721.transferFrom(from, to, tokenId) */\n      pop\n      gas\n      call\n      iszero\n        /* \"--CODEGEN--\":8:17   */\n      dup1\n        /* \"--CODEGEN--\":5:7   */\n      iszero\n      tag_476\n      jumpi\n        /* \"--CODEGEN--\":45:61   */\n      returndatasize\n        /* \"--CODEGEN--\":42:43   */\n      0x00\n        /* \"--CODEGEN--\":39:40   */\n      dup1\n        /* \"--CODEGEN--\":24:62   */\n      returndatacopy\n        /* \"--CODEGEN--\":77:93   */\n      returndatasize\n        /* \"--CODEGEN--\":74:75   */\n      0x00\n        /* \"--CODEGEN--\":67:94   */\n      revert\n        /* \"--CODEGEN--\":5:7   */\n    tag_476:\n        /* \"AdminManger.sol\":15542:15580  erc721.transferFrom(from, to, tokenId) */\n      pop\n      pop\n      pop\n      pop\n        /* \"AdminManger.sol\":15535:15580  return erc721.transferFrom(from, to, tokenId) */\n      pop\n        /* \"AdminManger.sol\":15127:15587  function erc721TransferFrom(... */\n      pop\n      pop\n      pop\n      pop\n      jump\t// out\n        /* \"AdminManger.sol\":16011:16385  function collect(uint256 tokenID, address _mintableToken, bool isNotClubare)... */\n    tag_155:\n        /* \"AdminManger.sol\":10150:10172  adminExist(msg.sender) */\n      tag_478\n        /* \"AdminManger.sol\":10161:10171  msg.sender */\n      caller\n        /* \"AdminManger.sol\":10150:10160  adminExist */\n      tag_200\n        /* \"AdminManger.sol\":10150:10172  adminExist(msg.sender) */\n      jump\t// in\n    tag_478:\n        /* \"AdminManger.sol\":10150:10185  adminExist(msg.sender) || isOwner() */\n      dup1\n      tag_479\n      jumpi\n      pop\n        /* \"AdminManger.sol\":10176:10185  isOwner() */\n      tag_480\n        /* \"AdminManger.sol\":10176:10183  isOwner */\n      tag_162\n        /* \"AdminManger.sol\":10176:10185  isOwner() */\n      jump\t// in\n    tag_480:\n        /* \"AdminManger.sol\":10150:10185  adminExist(msg.sender) || isOwner() */\n    tag_479:\n        /* \"AdminManger.sol\":10129:10246  require(... */\n      tag_481\n      jumpi\n      mload(0x40)\n      0x08c379a000000000000000000000000000000000000000000000000000000000\n      dup2\n      mstore\n      0x04\n      add\n      tag_482\n      swap1\n      jump(tag_218)\n    tag_482:\n      mload(0x40)\n      dup1\n      swap2\n      sub\n      swap1\n      revert\n    tag_481:\n        /* \"AdminManger.sol\":16143:16149  broker */\n      0x1c\n      0x00\n      swap1\n      sload\n      swap1\n      0x0100\n      exp\n      swap1\n      div\n      0xffffffffffffffffffffffffffffffffffffffff\n      and\n        /* \"AdminManger.sol\":16143:16157  broker.collect */\n      0xffffffffffffffffffffffffffffffffffffffff\n      and\n      0x8c6ab013\n        /* \"AdminManger.sol\":16158:16165  tokenID */\n      dup5\n        /* \"AdminManger.sol\":16167:16181  _mintableToken */\n      dup5\n        /* \"AdminManger.sol\":16183:16195  isNotClubare */\n      dup5\n        /* \"AdminManger.sol\":16143:16196  broker.collect(tokenID, _mintableToken, isNotClubare) */\n      mload(0x40)\n      dup5\n      0xffffffff\n      and\n      0xe0\n      shl\n      dup2\n      mstore\n      0x04\n      add\n      tag_484\n      swap4\n      swap3\n      swap2\n      swap1\n      jump(tag_460)\n    tag_484:\n      0x00\n      mload(0x40)\n      dup1\n      dup4\n      sub\n      dup2\n      0x00\n      dup8\n      dup1\n      extcodesize\n      iszero\n        /* \"--CODEGEN--\":8:17   */\n      dup1\n        /* \"--CODEGEN--\":5:7   */\n      iszero\n      tag_485\n      jumpi\n        /* \"--CODEGEN--\":30:31   */\n      0x00\n        /* \"--CODEGEN--\":27:28   */\n      dup1\n        /* \"--CODEGEN--\":20:32   */\n      revert\n        /* \"--CODEGEN--\":5:7   */\n    tag_485:\n        /* \"AdminManger.sol\":16143:16196  broker.collect(tokenID, _mintableToken, isNotClubare) */\n      pop\n      gas\n      call\n      iszero\n        /* \"--CODEGEN--\":8:17   */\n      dup1\n        /* \"--CODEGEN--\":5:7   */\n      iszero\n      tag_486\n      jumpi\n        /* \"--CODEGEN--\":45:61   */\n      returndatasize\n        /* \"--CODEGEN--\":42:43   */\n      0x00\n        /* \"--CODEGEN--\":39:40   */\n      dup1\n        /* \"--CODEGEN--\":24:62   */\n      returndatacopy\n        /* \"--CODEGEN--\":77:93   */\n      returndatasize\n        /* \"--CODEGEN--\":74:75   */\n      0x00\n        /* \"--CODEGEN--\":67:94   */\n      revert\n        /* \"--CODEGEN--\":5:7   */\n    tag_486:\n        /* \"AdminManger.sol\":16143:16196  broker.collect(tokenID, _mintableToken, isNotClubare) */\n      pop\n      pop\n      pop\n      pop\n        /* \"AdminManger.sol\":16298:16311  functionNames */\n      0x02\n        /* \"AdminManger.sol\":16298:16319  functionNames.collect */\n      0x09\n      add\n        /* \"AdminManger.sol\":16211:16378  AdminActionPerformed(... */\n      mload(0x40)\n      tag_487\n      swap2\n      swap1\n      jump(tag_225)\n    tag_487:\n      mload(0x40)\n      dup1\n      swap2\n      sub\n      swap1\n      keccak256\n        /* \"AdminManger.sol\":16277:16283  broker */\n      0x1c\n      0x00\n      swap1\n      sload\n      swap1\n      0x0100\n      exp\n      swap1\n      div\n      0xffffffffffffffffffffffffffffffffffffffff\n      and\n        /* \"AdminManger.sol\":16211:16378  AdminActionPerformed(... */\n      0xffffffffffffffffffffffffffffffffffffffff\n      and\n        /* \"AdminManger.sol\":16245:16255  msg.sender */\n      caller\n        /* \"AdminManger.sol\":16211:16378  AdminActionPerformed(... */\n      0xffffffffffffffffffffffffffffffffffffffff\n      and\n      0x32a9eeb55ea56eb60badfb6642d5b92be35b6da6f74892c12d0e14a50dfc2bac\n        /* \"AdminManger.sol\":16333:16347  _mintableToken */\n      dup6\n        /* \"AdminManger.sol\":16361:16368  tokenID */\n      dup8\n        /* \"AdminManger.sol\":16211:16378  AdminActionPerformed(... */\n      mload(0x40)\n      tag_488\n      swap3\n      swap2\n      swap1\n      jump(tag_227)\n    tag_488:\n      mload(0x40)\n      dup1\n      swap2\n      sub\n      swap1\n      log4\n        /* \"AdminManger.sol\":16011:16385  function collect(uint256 tokenID, address _mintableToken, bool isNotClubare)... */\n      pop\n      pop\n      pop\n      jump\t// out\n        /* \"AdminManger.sol\":1312:1389  function owner() public view returns (address) {... */\n    tag_158:\n        /* \"AdminManger.sol\":1350:1357  address */\n      0x00\n        /* \"AdminManger.sol\":1376:1382  _owner */\n      dup1\n      0x00\n      swap1\n      sload\n      swap1\n      0x0100\n      exp\n      swap1\n      div\n      0xffffffffffffffffffffffffffffffffffffffff\n      and\n        /* \"AdminManger.sol\":1369:1382  return _owner */\n      swap1\n      pop\n        /* \"AdminManger.sol\":1312:1389  function owner() public view returns (address) {... */\n      swap1\n      jump\t// out\n        /* \"AdminManger.sol\":1663:1755  function isOwner() public view returns (bool) {... */\n    tag_162:\n        /* \"AdminManger.sol\":1703:1707  bool */\n      0x00\n        /* \"AdminManger.sol\":1742:1748  _owner */\n      dup1\n      0x00\n      swap1\n      sload\n      swap1\n      0x0100\n      exp\n      swap1\n      div\n      0xffffffffffffffffffffffffffffffffffffffff\n      and\n        /* \"AdminManger.sol\":1726:1748  _msgSender() == _owner */\n      0xffffffffffffffffffffffffffffffffffffffff\n      and\n        /* \"AdminManger.sol\":1726:1738  _msgSender() */\n      tag_491\n        /* \"AdminManger.sol\":1726:1736  _msgSender */\n      tag_492\n        /* \"AdminManger.sol\":1726:1738  _msgSender() */\n      jump\t// in\n    tag_491:\n        /* \"AdminManger.sol\":1726:1748  _msgSender() == _owner */\n      0xffffffffffffffffffffffffffffffffffffffff\n      and\n      eq\n        /* \"AdminManger.sol\":1719:1748  return _msgSender() == _owner */\n      swap1\n      pop\n        /* \"AdminManger.sol\":1663:1755  function isOwner() public view returns (bool) {... */\n      swap1\n      jump\t// out\n        /* \"AdminManger.sol\":22040:22464  function erc20IncreaseAllowance(... */\n    tag_168:\n        /* \"AdminManger.sol\":10150:10172  adminExist(msg.sender) */\n      tag_494\n        /* \"AdminManger.sol\":10161:10171  msg.sender */\n      caller\n        /* \"AdminManger.sol\":10150:10160  adminExist */\n      tag_200\n        /* \"AdminManger.sol\":10150:10172  adminExist(msg.sender) */\n      jump\t// in\n    tag_494:\n        /* \"AdminManger.sol\":10150:10185  adminExist(msg.sender) || isOwner() */\n      dup1\n      tag_495\n      jumpi\n      pop\n        /* \"AdminManger.sol\":10176:10185  isOwner() */\n      tag_496\n        /* \"AdminManger.sol\":10176:10183  isOwner */\n      tag_162\n        /* \"AdminManger.sol\":10176:10185  isOwner() */\n      jump\t// in\n    tag_496:\n        /* \"AdminManger.sol\":10150:10185  adminExist(msg.sender) || isOwner() */\n    tag_495:\n        /* \"AdminManger.sol\":10129:10246  require(... */\n      tag_497\n      jumpi\n      mload(0x40)\n      0x08c379a000000000000000000000000000000000000000000000000000000000\n      dup2\n      mstore\n      0x04\n      add\n      tag_498\n      swap1\n      jump(tag_218)\n    tag_498:\n      mload(0x40)\n      dup1\n      swap2\n      sub\n      swap1\n      revert\n    tag_497:\n        /* \"AdminManger.sol\":22190:22202  IERC20 erc20 */\n      0x00\n        /* \"AdminManger.sol\":22212:22218  _erc20 */\n      dup4\n        /* \"AdminManger.sol\":22190:22219  IERC20 erc20 = IERC20(_erc20) */\n      swap1\n      pop\n        /* \"AdminManger.sol\":22229:22234  erc20 */\n      dup1\n        /* \"AdminManger.sol\":22229:22252  erc20.increaseAllowance */\n      0xffffffffffffffffffffffffffffffffffffffff\n      and\n      0x39509351\n        /* \"AdminManger.sol\":22253:22260  spender */\n      dup5\n        /* \"AdminManger.sol\":22262:22272  addedValue */\n      dup5\n        /* \"AdminManger.sol\":22229:22273  erc20.increaseAllowance(spender, addedValue) */\n      mload(0x40)\n      dup4\n      0xffffffff\n      and\n      0xe0\n      shl\n      dup2\n      mstore\n      0x04\n      add\n      tag_500\n      swap3\n      swap2\n      swap1\n      jump(tag_227)\n    tag_500:\n      0x00\n      mload(0x40)\n      dup1\n      dup4\n      sub\n      dup2\n      0x00\n      dup8\n      dup1\n      extcodesize\n      iszero\n        /* \"--CODEGEN--\":8:17   */\n      dup1\n        /* \"--CODEGEN--\":5:7   */\n      iszero\n      tag_501\n      jumpi\n        /* \"--CODEGEN--\":30:31   */\n      0x00\n        /* \"--CODEGEN--\":27:28   */\n      dup1\n        /* \"--CODEGEN--\":20:32   */\n      revert\n        /* \"--CODEGEN--\":5:7   */\n    tag_501:\n        /* \"AdminManger.sol\":22229:22273  erc20.increaseAllowance(spender, addedValue) */\n      pop\n      gas\n      call\n      iszero\n        /* \"--CODEGEN--\":8:17   */\n      dup1\n        /* \"--CODEGEN--\":5:7   */\n      iszero\n      tag_502\n      jumpi\n        /* \"--CODEGEN--\":45:61   */\n      returndatasize\n        /* \"--CODEGEN--\":42:43   */\n      0x00\n        /* \"--CODEGEN--\":39:40   */\n      dup1\n        /* \"--CODEGEN--\":24:62   */\n      returndatacopy\n        /* \"--CODEGEN--\":77:93   */\n      returndatasize\n        /* \"--CODEGEN--\":74:75   */\n      0x00\n        /* \"--CODEGEN--\":67:94   */\n      revert\n        /* \"--CODEGEN--\":5:7   */\n    tag_502:\n        /* \"AdminManger.sol\":22229:22273  erc20.increaseAllowance(spender, addedValue) */\n      pop\n      pop\n      pop\n      pop\n        /* \"AdminManger.sol\":22366:22379  functionNames */\n      0x02\n        /* \"AdminManger.sol\":22366:22402  functionNames.erc20IncreaseAllowance */\n      0x15\n      add\n        /* \"AdminManger.sol\":22288:22457  AdminActionPerformed(... */\n      mload(0x40)\n      tag_503\n      swap2\n      swap1\n      jump(tag_225)\n    tag_503:\n      mload(0x40)\n      dup1\n      swap2\n      sub\n      swap1\n      keccak256\n        /* \"AdminManger.sol\":22346:22352  _erc20 */\n      dup5\n        /* \"AdminManger.sol\":22288:22457  AdminActionPerformed(... */\n      0xffffffffffffffffffffffffffffffffffffffff\n      and\n        /* \"AdminManger.sol\":22322:22332  msg.sender */\n      caller\n        /* \"AdminManger.sol\":22288:22457  AdminActionPerformed(... */\n      0xffffffffffffffffffffffffffffffffffffffff\n      and\n      0x32a9eeb55ea56eb60badfb6642d5b92be35b6da6f74892c12d0e14a50dfc2bac\n        /* \"AdminManger.sol\":22416:22423  spender */\n      dup7\n        /* \"AdminManger.sol\":22437:22447  addedValue */\n      dup7\n        /* \"AdminManger.sol\":22288:22457  AdminActionPerformed(... */\n      mload(0x40)\n      tag_504\n      swap3\n      swap2\n      swap1\n      jump(tag_227)\n    tag_504:\n      mload(0x40)\n      dup1\n      swap2\n      sub\n      swap1\n      log4\n        /* \"AdminManger.sol\":10256:10257  _ */\n      pop\n        /* \"AdminManger.sol\":22040:22464  function erc20IncreaseAllowance(... */\n      pop\n      pop\n      pop\n      jump\t// out\n        /* \"AdminManger.sol\":19993:20372  function erc20Approve(... */\n    tag_172:\n        /* \"AdminManger.sol\":10150:10172  adminExist(msg.sender) */\n      tag_506\n        /* \"AdminManger.sol\":10161:10171  msg.sender */\n      caller\n        /* \"AdminManger.sol\":10150:10160  adminExist */\n      tag_200\n        /* \"AdminManger.sol\":10150:10172  adminExist(msg.sender) */\n      jump\t// in\n    tag_506:\n        /* \"AdminManger.sol\":10150:10185  adminExist(msg.sender) || isOwner() */\n      dup1\n      tag_507\n      jumpi\n      pop\n        /* \"AdminManger.sol\":10176:10185  isOwner() */\n      tag_508\n        /* \"AdminManger.sol\":10176:10183  isOwner */\n      tag_162\n        /* \"AdminManger.sol\":10176:10185  isOwner() */\n      jump\t// in\n    tag_508:\n        /* \"AdminManger.sol\":10150:10185  adminExist(msg.sender) || isOwner() */\n    tag_507:\n        /* \"AdminManger.sol\":10129:10246  require(... */\n      tag_509\n      jumpi\n      mload(0x40)\n      0x08c379a000000000000000000000000000000000000000000000000000000000\n      dup2\n      mstore\n      0x04\n      add\n      tag_510\n      swap1\n      jump(tag_218)\n    tag_510:\n      mload(0x40)\n      dup1\n      swap2\n      sub\n      swap1\n      revert\n    tag_509:\n        /* \"AdminManger.sol\":20128:20140  IERC20 erc20 */\n      0x00\n        /* \"AdminManger.sol\":20150:20156  _erc20 */\n      dup4\n        /* \"AdminManger.sol\":20128:20157  IERC20 erc20 = IERC20(_erc20) */\n      swap1\n      pop\n        /* \"AdminManger.sol\":20167:20172  erc20 */\n      dup1\n        /* \"AdminManger.sol\":20167:20180  erc20.approve */\n      0xffffffffffffffffffffffffffffffffffffffff\n      and\n      0x095ea7b3\n        /* \"AdminManger.sol\":20181:20188  spender */\n      dup5\n        /* \"AdminManger.sol\":20190:20195  value */\n      dup5\n        /* \"AdminManger.sol\":20167:20196  erc20.approve(spender, value) */\n      mload(0x40)\n      dup4\n      0xffffffff\n      and\n      0xe0\n      shl\n      dup2\n      mstore\n      0x04\n      add\n      tag_512\n      swap3\n      swap2\n      swap1\n      jump(tag_227)\n    tag_512:\n      0x00\n      mload(0x40)\n      dup1\n      dup4\n      sub\n      dup2\n      0x00\n      dup8\n      dup1\n      extcodesize\n      iszero\n        /* \"--CODEGEN--\":8:17   */\n      dup1\n        /* \"--CODEGEN--\":5:7   */\n      iszero\n      tag_513\n      jumpi\n        /* \"--CODEGEN--\":30:31   */\n      0x00\n        /* \"--CODEGEN--\":27:28   */\n      dup1\n        /* \"--CODEGEN--\":20:32   */\n      revert\n        /* \"--CODEGEN--\":5:7   */\n    tag_513:\n        /* \"AdminManger.sol\":20167:20196  erc20.approve(spender, value) */\n      pop\n      gas\n      call\n      iszero\n        /* \"--CODEGEN--\":8:17   */\n      dup1\n        /* \"--CODEGEN--\":5:7   */\n      iszero\n      tag_514\n      jumpi\n        /* \"--CODEGEN--\":45:61   */\n      returndatasize\n        /* \"--CODEGEN--\":42:43   */\n      0x00\n        /* \"--CODEGEN--\":39:40   */\n      dup1\n        /* \"--CODEGEN--\":24:62   */\n      returndatacopy\n        /* \"--CODEGEN--\":77:93   */\n      returndatasize\n        /* \"--CODEGEN--\":74:75   */\n      0x00\n        /* \"--CODEGEN--\":67:94   */\n      revert\n        /* \"--CODEGEN--\":5:7   */\n    tag_514:\n        /* \"AdminManger.sol\":20167:20196  erc20.approve(spender, value) */\n      pop\n      pop\n      pop\n      pop\n        /* \"AdminManger.sol\":20289:20302  functionNames */\n      0x02\n        /* \"AdminManger.sol\":20289:20315  functionNames.erc20Approve */\n      0x10\n      add\n        /* \"AdminManger.sol\":20211:20365  AdminActionPerformed(... */\n      mload(0x40)\n      tag_515\n      swap2\n      swap1\n      jump(tag_225)\n    tag_515:\n      mload(0x40)\n      dup1\n      swap2\n      sub\n      swap1\n      keccak256\n        /* \"AdminManger.sol\":20269:20275  _erc20 */\n      dup5\n        /* \"AdminManger.sol\":20211:20365  AdminActionPerformed(... */\n      0xffffffffffffffffffffffffffffffffffffffff\n      and\n        /* \"AdminManger.sol\":20245:20255  msg.sender */\n      caller\n        /* \"AdminManger.sol\":20211:20365  AdminActionPerformed(... */\n      0xffffffffffffffffffffffffffffffffffffffff\n      and\n      0x32a9eeb55ea56eb60badfb6642d5b92be35b6da6f74892c12d0e14a50dfc2bac\n        /* \"AdminManger.sol\":20329:20336  spender */\n      dup7\n        /* \"AdminManger.sol\":20350:20355  value */\n      dup7\n        /* \"AdminManger.sol\":20211:20365  AdminActionPerformed(... */\n      mload(0x40)\n      tag_516\n      swap3\n      swap2\n      swap1\n      jump(tag_227)\n    tag_516:\n      mload(0x40)\n      dup1\n      swap2\n      sub\n      swap1\n      log4\n        /* \"AdminManger.sol\":10256:10257  _ */\n      pop\n        /* \"AdminManger.sol\":19993:20372  function erc20Approve(... */\n      pop\n      pop\n      pop\n      jump\t// out\n        /* \"AdminManger.sol\":12887:13312  function erc721Transfer(... */\n    tag_176:\n        /* \"AdminManger.sol\":10150:10172  adminExist(msg.sender) */\n      tag_518\n        /* \"AdminManger.sol\":10161:10171  msg.sender */\n      caller\n        /* \"AdminManger.sol\":10150:10160  adminExist */\n      tag_200\n        /* \"AdminManger.sol\":10150:10172  adminExist(msg.sender) */\n      jump\t// in\n    tag_518:\n        /* \"AdminManger.sol\":10150:10185  adminExist(msg.sender) || isOwner() */\n      dup1\n      tag_519\n      jumpi\n      pop\n        /* \"AdminManger.sol\":10176:10185  isOwner() */\n      tag_520\n        /* \"AdminManger.sol\":10176:10183  isOwner */\n      tag_162\n        /* \"AdminManger.sol\":10176:10185  isOwner() */\n      jump\t// in\n    tag_520:\n        /* \"AdminManger.sol\":10150:10185  adminExist(msg.sender) || isOwner() */\n    tag_519:\n        /* \"AdminManger.sol\":10129:10246  require(... */\n      tag_521\n      jumpi\n      mload(0x40)\n      0x08c379a000000000000000000000000000000000000000000000000000000000\n      dup2\n      mstore\n      0x04\n      add\n      tag_522\n      swap1\n      jump(tag_218)\n    tag_522:\n      mload(0x40)\n      dup1\n      swap2\n      sub\n      swap1\n      revert\n    tag_521:\n        /* \"AdminManger.sol\":13031:13047  IMintable erc721 */\n      0x00\n        /* \"AdminManger.sol\":13060:13074  _ERC721Address */\n      dup4\n        /* \"AdminManger.sol\":13031:13075  IMintable erc721 = IMintable(_ERC721Address) */\n      swap1\n      pop\n        /* \"AdminManger.sol\":13176:13189  functionNames */\n      0x02\n        /* \"AdminManger.sol\":13176:13198  functionNames.transfer */\n      0x01\n      add\n        /* \"AdminManger.sol\":13090:13258  AdminActionPerformed(... */\n      mload(0x40)\n      tag_524\n      swap2\n      swap1\n      jump(tag_225)\n    tag_524:\n      mload(0x40)\n      dup1\n      swap2\n      sub\n      swap1\n      keccak256\n        /* \"AdminManger.sol\":13148:13162  _ERC721Address */\n      dup5\n        /* \"AdminManger.sol\":13090:13258  AdminActionPerformed(... */\n      0xffffffffffffffffffffffffffffffffffffffff\n      and\n        /* \"AdminManger.sol\":13124:13134  msg.sender */\n      caller\n        /* \"AdminManger.sol\":13090:13258  AdminActionPerformed(... */\n      0xffffffffffffffffffffffffffffffffffffffff\n      and\n      0x32a9eeb55ea56eb60badfb6642d5b92be35b6da6f74892c12d0e14a50dfc2bac\n        /* \"AdminManger.sol\":13212:13226  _ERC721Address */\n      dup8\n        /* \"AdminManger.sol\":13240:13248  _tokenId */\n      dup7\n        /* \"AdminManger.sol\":13090:13258  AdminActionPerformed(... */\n      mload(0x40)\n      tag_525\n      swap3\n      swap2\n      swap1\n      jump(tag_227)\n    tag_525:\n      mload(0x40)\n      dup1\n      swap2\n      sub\n      swap1\n      log4\n        /* \"AdminManger.sol\":13275:13281  erc721 */\n      dup1\n        /* \"AdminManger.sol\":13275:13290  erc721.transfer */\n      0xffffffffffffffffffffffffffffffffffffffff\n      and\n      0xa9059cbb\n        /* \"AdminManger.sol\":13291:13294  _to */\n      dup5\n        /* \"AdminManger.sol\":13296:13304  _tokenId */\n      dup5\n        /* \"AdminManger.sol\":13275:13305  erc721.transfer(_to, _tokenId) */\n      mload(0x40)\n      dup4\n      0xffffffff\n      and\n      0xe0\n      shl\n      dup2\n      mstore\n      0x04\n      add\n      tag_526\n      swap3\n      swap2\n      swap1\n      jump(tag_227)\n    tag_526:\n      0x00\n      mload(0x40)\n      dup1\n      dup4\n      sub\n      dup2\n      0x00\n      dup8\n      dup1\n      extcodesize\n      iszero\n        /* \"--CODEGEN--\":8:17   */\n      dup1\n        /* \"--CODEGEN--\":5:7   */\n      iszero\n      tag_527\n      jumpi\n        /* \"--CODEGEN--\":30:31   */\n      0x00\n        /* \"--CODEGEN--\":27:28   */\n      dup1\n        /* \"--CODEGEN--\":20:32   */\n      revert\n        /* \"--CODEGEN--\":5:7   */\n    tag_527:\n        /* \"AdminManger.sol\":13275:13305  erc721.transfer(_to, _tokenId) */\n      pop\n      gas\n      call\n      iszero\n        /* \"--CODEGEN--\":8:17   */\n      dup1\n        /* \"--CODEGEN--\":5:7   */\n      iszero\n      tag_528\n      jumpi\n        /* \"--CODEGEN--\":45:61   */\n      returndatasize\n        /* \"--CODEGEN--\":42:43   */\n      0x00\n        /* \"--CODEGEN--\":39:40   */\n      dup1\n        /* \"--CODEGEN--\":24:62   */\n      returndatacopy\n        /* \"--CODEGEN--\":77:93   */\n      returndatasize\n        /* \"--CODEGEN--\":74:75   */\n      0x00\n        /* \"--CODEGEN--\":67:94   */\n      revert\n        /* \"--CODEGEN--\":5:7   */\n    tag_528:\n        /* \"AdminManger.sol\":13275:13305  erc721.transfer(_to, _tokenId) */\n      pop\n      pop\n      pop\n      pop\n        /* \"AdminManger.sol\":13268:13305  return erc721.transfer(_to, _tokenId) */\n      pop\n        /* \"AdminManger.sol\":12887:13312  function erc721Transfer(... */\n      pop\n      pop\n      pop\n      jump\t// out\n        /* \"AdminManger.sol\":15617:16005  function bid(... */\n    tag_180:\n        /* \"AdminManger.sol\":10150:10172  adminExist(msg.sender) */\n      tag_530\n        /* \"AdminManger.sol\":10161:10171  msg.sender */\n      caller\n        /* \"AdminManger.sol\":10150:10160  adminExist */\n      tag_200\n        /* \"AdminManger.sol\":10150:10172  adminExist(msg.sender) */\n      jump\t// in\n    tag_530:\n        /* \"AdminManger.sol\":10150:10185  adminExist(msg.sender) || isOwner() */\n      dup1\n      tag_531\n      jumpi\n      pop\n        /* \"AdminManger.sol\":10176:10185  isOwner() */\n      tag_532\n        /* \"AdminManger.sol\":10176:10183  isOwner */\n      tag_162\n        /* \"AdminManger.sol\":10176:10185  isOwner() */\n      jump\t// in\n    tag_532:\n        /* \"AdminManger.sol\":10150:10185  adminExist(msg.sender) || isOwner() */\n    tag_531:\n        /* \"AdminManger.sol\":10129:10246  require(... */\n      tag_533\n      jumpi\n      mload(0x40)\n      0x08c379a000000000000000000000000000000000000000000000000000000000\n      dup2\n      mstore\n      0x04\n      add\n      tag_534\n      swap1\n      jump(tag_218)\n    tag_534:\n      mload(0x40)\n      dup1\n      swap2\n      sub\n      swap1\n      revert\n    tag_533:\n        /* \"AdminManger.sol\":15760:15766  broker */\n      0x1c\n      0x00\n      swap1\n      sload\n      swap1\n      0x0100\n      exp\n      swap1\n      div\n      0xffffffffffffffffffffffffffffffffffffffff\n      and\n        /* \"AdminManger.sol\":15760:15770  broker.bid */\n      0xffffffffffffffffffffffffffffffffffffffff\n      and\n      0xc0f4ed31\n        /* \"AdminManger.sol\":15777:15786  msg.value */\n      callvalue\n        /* \"AdminManger.sol\":15788:15795  tokenID */\n      dup6\n        /* \"AdminManger.sol\":15797:15811  _mintableToken */\n      dup6\n        /* \"AdminManger.sol\":15813:15819  amount */\n      dup6\n        /* \"AdminManger.sol\":15760:15820  broker.bid.value(msg.value)(tokenID, _mintableToken, amount) */\n      mload(0x40)\n      dup6\n      0xffffffff\n      and\n      0xe0\n      shl\n      dup2\n      mstore\n      0x04\n      add\n      tag_536\n      swap4\n      swap3\n      swap2\n      swap1\n      jump(tag_537)\n    tag_536:\n      0x00\n      mload(0x40)\n      dup1\n      dup4\n      sub\n      dup2\n      dup6\n      dup9\n      dup1\n      extcodesize\n      iszero\n        /* \"--CODEGEN--\":8:17   */\n      dup1\n        /* \"--CODEGEN--\":5:7   */\n      iszero\n      tag_538\n      jumpi\n        /* \"--CODEGEN--\":30:31   */\n      0x00\n        /* \"--CODEGEN--\":27:28   */\n      dup1\n        /* \"--CODEGEN--\":20:32   */\n      revert\n        /* \"--CODEGEN--\":5:7   */\n    tag_538:\n        /* \"AdminManger.sol\":15760:15820  broker.bid.value(msg.value)(tokenID, _mintableToken, amount) */\n      pop\n      gas\n      call\n      iszero\n        /* \"--CODEGEN--\":8:17   */\n      dup1\n        /* \"--CODEGEN--\":5:7   */\n      iszero\n      tag_539\n      jumpi\n        /* \"--CODEGEN--\":45:61   */\n      returndatasize\n        /* \"--CODEGEN--\":42:43   */\n      0x00\n        /* \"--CODEGEN--\":39:40   */\n      dup1\n        /* \"--CODEGEN--\":24:62   */\n      returndatacopy\n        /* \"--CODEGEN--\":77:93   */\n      returndatasize\n        /* \"--CODEGEN--\":74:75   */\n      0x00\n        /* \"--CODEGEN--\":67:94   */\n      revert\n        /* \"--CODEGEN--\":5:7   */\n    tag_539:\n        /* \"AdminManger.sol\":15760:15820  broker.bid.value(msg.value)(tokenID, _mintableToken, amount) */\n      pop\n      pop\n      pop\n      pop\n      pop\n        /* \"AdminManger.sol\":15922:15935  functionNames */\n      0x02\n        /* \"AdminManger.sol\":15922:15939  functionNames.bid */\n      0x08\n      add\n        /* \"AdminManger.sol\":15835:15998  AdminActionPerformed(... */\n      mload(0x40)\n      tag_540\n      swap2\n      swap1\n      jump(tag_225)\n    tag_540:\n      mload(0x40)\n      dup1\n      swap2\n      sub\n      swap1\n      keccak256\n        /* \"AdminManger.sol\":15901:15907  broker */\n      0x1c\n      0x00\n      swap1\n      sload\n      swap1\n      0x0100\n      exp\n      swap1\n      div\n      0xffffffffffffffffffffffffffffffffffffffff\n      and\n        /* \"AdminManger.sol\":15835:15998  AdminActionPerformed(... */\n      0xffffffffffffffffffffffffffffffffffffffff\n      and\n        /* \"AdminManger.sol\":15869:15879  msg.sender */\n      caller\n        /* \"AdminManger.sol\":15835:15998  AdminActionPerformed(... */\n      0xffffffffffffffffffffffffffffffffffffffff\n      and\n      0x32a9eeb55ea56eb60badfb6642d5b92be35b6da6f74892c12d0e14a50dfc2bac\n        /* \"AdminManger.sol\":15953:15967  _mintableToken */\n      dup6\n        /* \"AdminManger.sol\":15981:15988  tokenID */\n      dup8\n        /* \"AdminManger.sol\":15835:15998  AdminActionPerformed(... */\n      mload(0x40)\n      tag_541\n      swap3\n      swap2\n      swap1\n      jump(tag_227)\n    tag_541:\n      mload(0x40)\n      dup1\n      swap2\n      sub\n      swap1\n      log4\n        /* \"AdminManger.sol\":15617:16005  function bid(... */\n      pop\n      pop\n      pop\n      jump\t// out\n        /* \"AdminManger.sol\":20378:20821  function erc20DecreaseApproval(... */\n    tag_184:\n        /* \"AdminManger.sol\":10150:10172  adminExist(msg.sender) */\n      tag_543\n        /* \"AdminManger.sol\":10161:10171  msg.sender */\n      caller\n        /* \"AdminManger.sol\":10150:10160  adminExist */\n      tag_200\n        /* \"AdminManger.sol\":10150:10172  adminExist(msg.sender) */\n      jump\t// in\n    tag_543:\n        /* \"AdminManger.sol\":10150:10185  adminExist(msg.sender) || isOwner() */\n      dup1\n      tag_544\n      jumpi\n      pop\n        /* \"AdminManger.sol\":10176:10185  isOwner() */\n      tag_545\n        /* \"AdminManger.sol\":10176:10183  isOwner */\n      tag_162\n        /* \"AdminManger.sol\":10176:10185  isOwner() */\n      jump\t// in\n    tag_545:\n        /* \"AdminManger.sol\":10150:10185  adminExist(msg.sender) || isOwner() */\n    tag_544:\n        /* \"AdminManger.sol\":10129:10246  require(... */\n      tag_546\n      jumpi\n      mload(0x40)\n      0x08c379a000000000000000000000000000000000000000000000000000000000\n      dup2\n      mstore\n      0x04\n      add\n      tag_547\n      swap1\n      jump(tag_218)\n    tag_547:\n      mload(0x40)\n      dup1\n      swap2\n      sub\n      swap1\n      revert\n    tag_546:\n        /* \"AdminManger.sol\":20534:20546  IERC20 erc20 */\n      0x00\n        /* \"AdminManger.sol\":20556:20562  _erc20 */\n      dup4\n        /* \"AdminManger.sol\":20534:20563  IERC20 erc20 = IERC20(_erc20) */\n      swap1\n      pop\n        /* \"AdminManger.sol\":20573:20578  erc20 */\n      dup1\n        /* \"AdminManger.sol\":20573:20595  erc20.decreaseApproval */\n      0xffffffffffffffffffffffffffffffffffffffff\n      and\n      0x66188463\n        /* \"AdminManger.sol\":20596:20604  _spender */\n      dup5\n        /* \"AdminManger.sol\":20606:20622  _subtractedValue */\n      dup5\n        /* \"AdminManger.sol\":20573:20623  erc20.decreaseApproval(_spender, _subtractedValue) */\n      mload(0x40)\n      dup4\n      0xffffffff\n      and\n      0xe0\n      shl\n      dup2\n      mstore\n      0x04\n      add\n      tag_549\n      swap3\n      swap2\n      swap1\n      jump(tag_227)\n    tag_549:\n      0x00\n      mload(0x40)\n      dup1\n      dup4\n      sub\n      dup2\n      0x00\n      dup8\n      dup1\n      extcodesize\n      iszero\n        /* \"--CODEGEN--\":8:17   */\n      dup1\n        /* \"--CODEGEN--\":5:7   */\n      iszero\n      tag_550\n      jumpi\n        /* \"--CODEGEN--\":30:31   */\n      0x00\n        /* \"--CODEGEN--\":27:28   */\n      dup1\n        /* \"--CODEGEN--\":20:32   */\n      revert\n        /* \"--CODEGEN--\":5:7   */\n    tag_550:\n        /* \"AdminManger.sol\":20573:20623  erc20.decreaseApproval(_spender, _subtractedValue) */\n      pop\n      gas\n      call\n      iszero\n        /* \"--CODEGEN--\":8:17   */\n      dup1\n        /* \"--CODEGEN--\":5:7   */\n      iszero\n      tag_551\n      jumpi\n        /* \"--CODEGEN--\":45:61   */\n      returndatasize\n        /* \"--CODEGEN--\":42:43   */\n      0x00\n        /* \"--CODEGEN--\":39:40   */\n      dup1\n        /* \"--CODEGEN--\":24:62   */\n      returndatacopy\n        /* \"--CODEGEN--\":77:93   */\n      returndatasize\n        /* \"--CODEGEN--\":74:75   */\n      0x00\n        /* \"--CODEGEN--\":67:94   */\n      revert\n        /* \"--CODEGEN--\":5:7   */\n    tag_551:\n        /* \"AdminManger.sol\":20573:20623  erc20.decreaseApproval(_spender, _subtractedValue) */\n      pop\n      pop\n      pop\n      pop\n        /* \"AdminManger.sol\":20716:20729  functionNames */\n      0x02\n        /* \"AdminManger.sol\":20716:20752  functionNames.erc20DecreaseAllowance */\n      0x16\n      add\n        /* \"AdminManger.sol\":20638:20814  AdminActionPerformed(... */\n      mload(0x40)\n      tag_552\n      swap2\n      swap1\n      jump(tag_225)\n    tag_552:\n      mload(0x40)\n      dup1\n      swap2\n      sub\n      swap1\n      keccak256\n        /* \"AdminManger.sol\":20696:20702  _erc20 */\n      dup5\n        /* \"AdminManger.sol\":20638:20814  AdminActionPerformed(... */\n      0xffffffffffffffffffffffffffffffffffffffff\n      and\n        /* \"AdminManger.sol\":20672:20682  msg.sender */\n      caller\n        /* \"AdminManger.sol\":20638:20814  AdminActionPerformed(... */\n      0xffffffffffffffffffffffffffffffffffffffff\n      and\n      0x32a9eeb55ea56eb60badfb6642d5b92be35b6da6f74892c12d0e14a50dfc2bac\n        /* \"AdminManger.sol\":20766:20774  _spender */\n      dup7\n        /* \"AdminManger.sol\":20788:20804  _subtractedValue */\n      dup7\n        /* \"AdminManger.sol\":20638:20814  AdminActionPerformed(... */\n      mload(0x40)\n      tag_553\n      swap3\n      swap2\n      swap1\n      jump(tag_227)\n    tag_553:\n      mload(0x40)\n      dup1\n      swap2\n      sub\n      swap1\n      log4\n        /* \"AdminManger.sol\":10256:10257  _ */\n      pop\n        /* \"AdminManger.sol\":20378:20821  function erc20DecreaseApproval(... */\n      pop\n      pop\n      pop\n      jump\t// out\n        /* \"AdminManger.sol\":19620:19966  function revertAll(uint256 tokenID, address _mintableToken)... */\n    tag_188:\n        /* \"AdminManger.sol\":10150:10172  adminExist(msg.sender) */\n      tag_555\n        /* \"AdminManger.sol\":10161:10171  msg.sender */\n      caller\n        /* \"AdminManger.sol\":10150:10160  adminExist */\n      tag_200\n        /* \"AdminManger.sol\":10150:10172  adminExist(msg.sender) */\n      jump\t// in\n    tag_555:\n        /* \"AdminManger.sol\":10150:10185  adminExist(msg.sender) || isOwner() */\n      dup1\n      tag_556\n      jumpi\n      pop\n        /* \"AdminManger.sol\":10176:10185  isOwner() */\n      tag_557\n        /* \"AdminManger.sol\":10176:10183  isOwner */\n      tag_162\n        /* \"AdminManger.sol\":10176:10185  isOwner() */\n      jump\t// in\n    tag_557:\n        /* \"AdminManger.sol\":10150:10185  adminExist(msg.sender) || isOwner() */\n    tag_556:\n        /* \"AdminManger.sol\":10129:10246  require(... */\n      tag_558\n      jumpi\n      mload(0x40)\n      0x08c379a000000000000000000000000000000000000000000000000000000000\n      dup2\n      mstore\n      0x04\n      add\n      tag_559\n      swap1\n      jump(tag_218)\n    tag_559:\n      mload(0x40)\n      dup1\n      swap2\n      sub\n      swap1\n      revert\n    tag_558:\n        /* \"AdminManger.sol\":19735:19741  broker */\n      0x1c\n      0x00\n      swap1\n      sload\n      swap1\n      0x0100\n      exp\n      swap1\n      div\n      0xffffffffffffffffffffffffffffffffffffffff\n      and\n        /* \"AdminManger.sol\":19735:19751  broker.revertAll */\n      0xffffffffffffffffffffffffffffffffffffffff\n      and\n      0x1f90607a\n        /* \"AdminManger.sol\":19752:19766  _mintableToken */\n      dup3\n        /* \"AdminManger.sol\":19767:19774  tokenID */\n      dup5\n        /* \"AdminManger.sol\":19735:19775  broker.revertAll(_mintableToken,tokenID) */\n      mload(0x40)\n      dup4\n      0xffffffff\n      and\n      0xe0\n      shl\n      dup2\n      mstore\n      0x04\n      add\n      tag_561\n      swap3\n      swap2\n      swap1\n      jump(tag_227)\n    tag_561:\n      0x00\n      mload(0x40)\n      dup1\n      dup4\n      sub\n      dup2\n      0x00\n      dup8\n      dup1\n      extcodesize\n      iszero\n        /* \"--CODEGEN--\":8:17   */\n      dup1\n        /* \"--CODEGEN--\":5:7   */\n      iszero\n      tag_562\n      jumpi\n        /* \"--CODEGEN--\":30:31   */\n      0x00\n        /* \"--CODEGEN--\":27:28   */\n      dup1\n        /* \"--CODEGEN--\":20:32   */\n      revert\n        /* \"--CODEGEN--\":5:7   */\n    tag_562:\n        /* \"AdminManger.sol\":19735:19775  broker.revertAll(_mintableToken,tokenID) */\n      pop\n      gas\n      call\n      iszero\n        /* \"--CODEGEN--\":8:17   */\n      dup1\n        /* \"--CODEGEN--\":5:7   */\n      iszero\n      tag_563\n      jumpi\n        /* \"--CODEGEN--\":45:61   */\n      returndatasize\n        /* \"--CODEGEN--\":42:43   */\n      0x00\n        /* \"--CODEGEN--\":39:40   */\n      dup1\n        /* \"--CODEGEN--\":24:62   */\n      returndatacopy\n        /* \"--CODEGEN--\":77:93   */\n      returndatasize\n        /* \"--CODEGEN--\":74:75   */\n      0x00\n        /* \"--CODEGEN--\":67:94   */\n      revert\n        /* \"--CODEGEN--\":5:7   */\n    tag_563:\n        /* \"AdminManger.sol\":19735:19775  broker.revertAll(_mintableToken,tokenID) */\n      pop\n      pop\n      pop\n      pop\n        /* \"AdminManger.sol\":19877:19890  functionNames */\n      0x02\n        /* \"AdminManger.sol\":19877:19900  functionNames.revertAll */\n      0x0f\n      add\n        /* \"AdminManger.sol\":19790:19959  AdminActionPerformed(... */\n      mload(0x40)\n      tag_564\n      swap2\n      swap1\n      jump(tag_225)\n    tag_564:\n      mload(0x40)\n      dup1\n      swap2\n      sub\n      swap1\n      keccak256\n        /* \"AdminManger.sol\":19856:19862  broker */\n      0x1c\n      0x00\n      swap1\n      sload\n      swap1\n      0x0100\n      exp\n      swap1\n      div\n      0xffffffffffffffffffffffffffffffffffffffff\n      and\n        /* \"AdminManger.sol\":19790:19959  AdminActionPerformed(... */\n      0xffffffffffffffffffffffffffffffffffffffff\n      and\n        /* \"AdminManger.sol\":19824:19834  msg.sender */\n      caller\n        /* \"AdminManger.sol\":19790:19959  AdminActionPerformed(... */\n      0xffffffffffffffffffffffffffffffffffffffff\n      and\n      0x32a9eeb55ea56eb60badfb6642d5b92be35b6da6f74892c12d0e14a50dfc2bac\n        /* \"AdminManger.sol\":19914:19928  _mintableToken */\n      dup5\n        /* \"AdminManger.sol\":19942:19949  tokenID */\n      dup7\n        /* \"AdminManger.sol\":19790:19959  AdminActionPerformed(... */\n      mload(0x40)\n      tag_565\n      swap3\n      swap2\n      swap1\n      jump(tag_227)\n    tag_565:\n      mload(0x40)\n      dup1\n      swap2\n      sub\n      swap1\n      log4\n        /* \"AdminManger.sol\":19620:19966  function revertAll(uint256 tokenID, address _mintableToken)... */\n      pop\n      pop\n      jump\t// out\n        /* \"AdminManger.sol\":2383:2490  function transferOwnership(address newOwner) public onlyOwner {... */\n    tag_192:\n        /* \"AdminManger.sol\":1516:1525  isOwner() */\n      tag_567\n        /* \"AdminManger.sol\":1516:1523  isOwner */\n      tag_162\n        /* \"AdminManger.sol\":1516:1525  isOwner() */\n      jump\t// in\n    tag_567:\n        /* \"AdminManger.sol\":1508:1562  require(isOwner(), \"Ownable: caller is not the owner\") */\n      tag_568\n      jumpi\n      mload(0x40)\n      0x08c379a000000000000000000000000000000000000000000000000000000000\n      dup2\n      mstore\n      0x04\n      add\n      tag_569\n      swap1\n      jump(tag_247)\n    tag_569:\n      mload(0x40)\n      dup1\n      swap2\n      sub\n      swap1\n      revert\n    tag_568:\n        /* \"AdminManger.sol\":2455:2483  _transferOwnership(newOwner) */\n      tag_571\n        /* \"AdminManger.sol\":2474:2482  newOwner */\n      dup2\n        /* \"AdminManger.sol\":2455:2473  _transferOwnership */\n      tag_572\n        /* \"AdminManger.sol\":2455:2483  _transferOwnership(newOwner) */\n      jump\t// in\n    tag_571:\n        /* \"AdminManger.sol\":2383:2490  function transferOwnership(address newOwner) public onlyOwner {... */\n      pop\n      jump\t// out\n        /* \"AdminManger.sol\":23078:23273  function withdrawERC20(address _erc20Token) public onlyOwner {... */\n    tag_196:\n        /* \"AdminManger.sol\":1516:1525  isOwner() */\n      tag_574\n        /* \"AdminManger.sol\":1516:1523  isOwner */\n      tag_162\n        /* \"AdminManger.sol\":1516:1525  isOwner() */\n      jump\t// in\n    tag_574:\n        /* \"AdminManger.sol\":1508:1562  require(isOwner(), \"Ownable: caller is not the owner\") */\n      tag_575\n      jumpi\n      mload(0x40)\n      0x08c379a000000000000000000000000000000000000000000000000000000000\n      dup2\n      mstore\n      0x04\n      add\n      tag_576\n      swap1\n      jump(tag_247)\n    tag_576:\n      mload(0x40)\n      dup1\n      swap2\n      sub\n      swap1\n      revert\n    tag_575:\n        /* \"AdminManger.sol\":23149:23166  IERC20 erc20Token */\n      0x00\n        /* \"AdminManger.sol\":23176:23187  _erc20Token */\n      dup2\n        /* \"AdminManger.sol\":23149:23188  IERC20 erc20Token = IERC20(_erc20Token) */\n      swap1\n      pop\n        /* \"AdminManger.sol\":23198:23208  erc20Token */\n      dup1\n        /* \"AdminManger.sol\":23198:23217  erc20Token.transfer */\n      0xffffffffffffffffffffffffffffffffffffffff\n      and\n      0xa9059cbb\n        /* \"AdminManger.sol\":23218:23228  msg.sender */\n      caller\n        /* \"AdminManger.sol\":23230:23240  erc20Token */\n      dup4\n        /* \"AdminManger.sol\":23230:23250  erc20Token.balanceOf */\n      0xffffffffffffffffffffffffffffffffffffffff\n      and\n      0x70a08231\n        /* \"AdminManger.sol\":23259:23263  this */\n      address\n        /* \"AdminManger.sol\":23230:23265  erc20Token.balanceOf(address(this)) */\n      mload(0x40)\n      dup3\n      0xffffffff\n      and\n      0xe0\n      shl\n      dup2\n      mstore\n      0x04\n      add\n      tag_578\n      swap2\n      swap1\n      jump(tag_579)\n    tag_578:\n      0x20\n      mload(0x40)\n      dup1\n      dup4\n      sub\n      dup2\n      dup7\n      dup1\n      extcodesize\n      iszero\n        /* \"--CODEGEN--\":8:17   */\n      dup1\n        /* \"--CODEGEN--\":5:7   */\n      iszero\n      tag_580\n      jumpi\n        /* \"--CODEGEN--\":30:31   */\n      0x00\n        /* \"--CODEGEN--\":27:28   */\n      dup1\n        /* \"--CODEGEN--\":20:32   */\n      revert\n        /* \"--CODEGEN--\":5:7   */\n    tag_580:\n        /* \"AdminManger.sol\":23230:23265  erc20Token.balanceOf(address(this)) */\n      pop\n      gas\n      staticcall\n      iszero\n        /* \"--CODEGEN--\":8:17   */\n      dup1\n        /* \"--CODEGEN--\":5:7   */\n      iszero\n      tag_581\n      jumpi\n        /* \"--CODEGEN--\":45:61   */\n      returndatasize\n        /* \"--CODEGEN--\":42:43   */\n      0x00\n        /* \"--CODEGEN--\":39:40   */\n      dup1\n        /* \"--CODEGEN--\":24:62   */\n      returndatacopy\n        /* \"--CODEGEN--\":77:93   */\n      returndatasize\n        /* \"--CODEGEN--\":74:75   */\n      0x00\n        /* \"--CODEGEN--\":67:94   */\n      revert\n        /* \"--CODEGEN--\":5:7   */\n    tag_581:\n        /* \"AdminManger.sol\":23230:23265  erc20Token.balanceOf(address(this)) */\n      pop\n      pop\n      pop\n      pop\n      mload(0x40)\n      returndatasize\n        /* \"--CODEGEN--\":101:105   */\n      0x1f\n        /* \"--CODEGEN--\":97:106   */\n      not\n        /* \"--CODEGEN--\":90:94   */\n      0x1f\n        /* \"--CODEGEN--\":84:88   */\n      dup3\n        /* \"--CODEGEN--\":80:95   */\n      add\n        /* \"--CODEGEN--\":76:107   */\n      and\n        /* \"--CODEGEN--\":69:74   */\n      dup3\n        /* \"--CODEGEN--\":65:108   */\n      add\n        /* \"--CODEGEN--\":126:132   */\n      dup1\n        /* \"--CODEGEN--\":120:124   */\n      0x40\n        /* \"--CODEGEN--\":113:133   */\n      mstore\n        /* \"--CODEGEN--\":0:138   */\n      pop\n        /* \"AdminManger.sol\":23230:23265  erc20Token.balanceOf(address(this)) */\n      tag_582\n      swap2\n      swap1\n      dup2\n      add\n      swap1\n      jump(tag_583)\n    tag_582:\n        /* \"AdminManger.sol\":23198:23266  erc20Token.transfer(msg.sender, erc20Token.balanceOf(address(this))) */\n      mload(0x40)\n      dup4\n      0xffffffff\n      and\n      0xe0\n      shl\n      dup2\n      mstore\n      0x04\n      add\n      tag_584\n      swap3\n      swap2\n      swap1\n      jump(tag_585)\n    tag_584:\n      0x00\n      mload(0x40)\n      dup1\n      dup4\n      sub\n      dup2\n      0x00\n      dup8\n      dup1\n      extcodesize\n      iszero\n        /* \"--CODEGEN--\":8:17   */\n      dup1\n        /* \"--CODEGEN--\":5:7   */\n      iszero\n      tag_586\n      jumpi\n        /* \"--CODEGEN--\":30:31   */\n      0x00\n        /* \"--CODEGEN--\":27:28   */\n      dup1\n        /* \"--CODEGEN--\":20:32   */\n      revert\n        /* \"--CODEGEN--\":5:7   */\n    tag_586:\n        /* \"AdminManger.sol\":23198:23266  erc20Token.transfer(msg.sender, erc20Token.balanceOf(address(this))) */\n      pop\n      gas\n      call\n      iszero\n        /* \"--CODEGEN--\":8:17   */\n      dup1\n        /* \"--CODEGEN--\":5:7   */\n      iszero\n      tag_587\n      jumpi\n        /* \"--CODEGEN--\":45:61   */\n      returndatasize\n        /* \"--CODEGEN--\":42:43   */\n      0x00\n        /* \"--CODEGEN--\":39:40   */\n      dup1\n        /* \"--CODEGEN--\":24:62   */\n      returndatacopy\n        /* \"--CODEGEN--\":77:93   */\n      returndatasize\n        /* \"--CODEGEN--\":74:75   */\n      0x00\n        /* \"--CODEGEN--\":67:94   */\n      revert\n        /* \"--CODEGEN--\":5:7   */\n    tag_587:\n        /* \"AdminManger.sol\":23198:23266  erc20Token.transfer(msg.sender, erc20Token.balanceOf(address(this))) */\n      pop\n      pop\n      pop\n      pop\n        /* \"AdminManger.sol\":1572:1573  _ */\n      pop\n        /* \"AdminManger.sol\":23078:23273  function withdrawERC20(address _erc20Token) public onlyOwner {... */\n      pop\n      jump\t// out\n        /* \"AdminManger.sol\":9729:9969  function adminExist(address _sender) public view returns (bool) {... */\n    tag_200:\n        /* \"AdminManger.sol\":9787:9791  bool */\n      0x00\n        /* \"AdminManger.sol\":9808:9817  uint256 i */\n      dup1\n        /* \"AdminManger.sol\":9820:9821  0 */\n      0x00\n        /* \"AdminManger.sol\":9808:9821  uint256 i = 0 */\n      swap1\n      pop\n        /* \"AdminManger.sol\":9803:9941  for (uint256 i = 0; i < admins.length; i++) {... */\n    tag_589:\n        /* \"AdminManger.sol\":9827:9833  admins */\n      0x01\n        /* \"AdminManger.sol\":9827:9840  admins.length */\n      dup1\n      sload\n      swap1\n      pop\n        /* \"AdminManger.sol\":9823:9824  i */\n      dup2\n        /* \"AdminManger.sol\":9823:9840  i < admins.length */\n      lt\n        /* \"AdminManger.sol\":9803:9941  for (uint256 i = 0; i < admins.length; i++) {... */\n      iszero\n      tag_590\n      jumpi\n        /* \"AdminManger.sol\":9876:9882  admins */\n      0x01\n        /* \"AdminManger.sol\":9883:9884  i */\n      dup2\n        /* \"AdminManger.sol\":9876:9885  admins[i] */\n      dup2\n      sload\n      dup2\n      lt\n      tag_592\n      jumpi\n      invalid\n    tag_592:\n      swap1\n      0x00\n      mstore\n      keccak256(0x00, 0x20)\n      add\n      0x00\n      swap1\n      sload\n      swap1\n      0x0100\n      exp\n      swap1\n      div\n      0xffffffffffffffffffffffffffffffffffffffff\n      and\n        /* \"AdminManger.sol\":9865:9885  _sender == admins[i] */\n      0xffffffffffffffffffffffffffffffffffffffff\n      and\n        /* \"AdminManger.sol\":9865:9872  _sender */\n      dup4\n        /* \"AdminManger.sol\":9865:9885  _sender == admins[i] */\n      0xffffffffffffffffffffffffffffffffffffffff\n      and\n      eq\n        /* \"AdminManger.sol\":9861:9931  if (_sender == admins[i]) {... */\n      iszero\n      tag_594\n      jumpi\n        /* \"AdminManger.sol\":9912:9916  true */\n      0x01\n        /* \"AdminManger.sol\":9905:9916  return true */\n      swap2\n      pop\n      pop\n      jump(tag_588)\n        /* \"AdminManger.sol\":9861:9931  if (_sender == admins[i]) {... */\n    tag_594:\n        /* \"AdminManger.sol\":9842:9845  i++ */\n      dup1\n      dup1\n      0x01\n      add\n      swap2\n      pop\n      pop\n        /* \"AdminManger.sol\":9803:9941  for (uint256 i = 0; i < admins.length; i++) {... */\n      jump(tag_589)\n    tag_590:\n      pop\n        /* \"AdminManger.sol\":9957:9962  false */\n      0x00\n        /* \"AdminManger.sol\":9950:9962  return false */\n      swap1\n      pop\n        /* \"AdminManger.sol\":9729:9969  function adminExist(address _sender) public view returns (bool) {... */\n    tag_588:\n      swap2\n      swap1\n      pop\n      jump\t// out\n        /* \"AdminManger.sol\":13706:14130  function erc721Mint(... */\n    tag_206:\n        /* \"AdminManger.sol\":10150:10172  adminExist(msg.sender) */\n      tag_596\n        /* \"AdminManger.sol\":10161:10171  msg.sender */\n      caller\n        /* \"AdminManger.sol\":10150:10160  adminExist */\n      tag_200\n        /* \"AdminManger.sol\":10150:10172  adminExist(msg.sender) */\n      jump\t// in\n    tag_596:\n        /* \"AdminManger.sol\":10150:10185  adminExist(msg.sender) || isOwner() */\n      dup1\n      tag_597\n      jumpi\n      pop\n        /* \"AdminManger.sol\":10176:10185  isOwner() */\n      tag_598\n        /* \"AdminManger.sol\":10176:10183  isOwner */\n      tag_162\n        /* \"AdminManger.sol\":10176:10185  isOwner() */\n      jump\t// in\n    tag_598:\n        /* \"AdminManger.sol\":10150:10185  adminExist(msg.sender) || isOwner() */\n    tag_597:\n        /* \"AdminManger.sol\":10129:10246  require(... */\n      tag_599\n      jumpi\n      mload(0x40)\n      0x08c379a000000000000000000000000000000000000000000000000000000000\n      dup2\n      mstore\n      0x04\n      add\n      tag_600\n      swap1\n      jump(tag_218)\n    tag_600:\n      mload(0x40)\n      dup1\n      swap2\n      sub\n      swap1\n      revert\n    tag_599:\n        /* \"AdminManger.sol\":13858:13874  IMintable erc721 */\n      0x00\n        /* \"AdminManger.sol\":13887:13901  _ERC721Address */\n      dup4\n        /* \"AdminManger.sol\":13858:13902  IMintable erc721 = IMintable(_ERC721Address) */\n      swap1\n      pop\n        /* \"AdminManger.sol\":14003:14016  functionNames */\n      0x02\n        /* \"AdminManger.sol\":14003:14021  functionNames.mint */\n      0x03\n      add\n        /* \"AdminManger.sol\":13917:14074  AdminActionPerformed(... */\n      mload(0x40)\n      tag_602\n      swap2\n      swap1\n      jump(tag_225)\n    tag_602:\n      mload(0x40)\n      dup1\n      swap2\n      sub\n      swap1\n      keccak256\n        /* \"AdminManger.sol\":13975:13989  _ERC721Address */\n      dup5\n        /* \"AdminManger.sol\":13917:14074  AdminActionPerformed(... */\n      0xffffffffffffffffffffffffffffffffffffffff\n      and\n        /* \"AdminManger.sol\":13951:13961  msg.sender */\n      caller\n        /* \"AdminManger.sol\":13917:14074  AdminActionPerformed(... */\n      0xffffffffffffffffffffffffffffffffffffffff\n      and\n      0x32a9eeb55ea56eb60badfb6642d5b92be35b6da6f74892c12d0e14a50dfc2bac\n        /* \"AdminManger.sol\":14035:14049  _ERC721Address */\n      dup8\n        /* \"AdminManger.sol\":14063:14064  0 */\n      0x00\n        /* \"AdminManger.sol\":13917:14074  AdminActionPerformed(... */\n      mload(0x40)\n      tag_603\n      swap3\n      swap2\n      swap1\n      jump(tag_604)\n    tag_603:\n      mload(0x40)\n      dup1\n      swap2\n      sub\n      swap1\n      log4\n        /* \"AdminManger.sol\":14091:14097  erc721 */\n      dup1\n        /* \"AdminManger.sol\":14091:14102  erc721.mint */\n      0xffffffffffffffffffffffffffffffffffffffff\n      and\n      0x056b01ce\n        /* \"AdminManger.sol\":14103:14111  tokenURI */\n      dup5\n        /* \"AdminManger.sol\":14113:14122  _royality */\n      dup5\n        /* \"AdminManger.sol\":14091:14123  erc721.mint(tokenURI, _royality) */\n      mload(0x40)\n      dup4\n      0xffffffff\n      and\n      0xe0\n      shl\n      dup2\n      mstore\n      0x04\n      add\n      tag_605\n      swap3\n      swap2\n      swap1\n      jump(tag_606)\n    tag_605:\n      0x00\n      mload(0x40)\n      dup1\n      dup4\n      sub\n      dup2\n      0x00\n      dup8\n      dup1\n      extcodesize\n      iszero\n        /* \"--CODEGEN--\":8:17   */\n      dup1\n        /* \"--CODEGEN--\":5:7   */\n      iszero\n      tag_607\n      jumpi\n        /* \"--CODEGEN--\":30:31   */\n      0x00\n        /* \"--CODEGEN--\":27:28   */\n      dup1\n        /* \"--CODEGEN--\":20:32   */\n      revert\n        /* \"--CODEGEN--\":5:7   */\n    tag_607:\n        /* \"AdminManger.sol\":14091:14123  erc721.mint(tokenURI, _royality) */\n      pop\n      gas\n      call\n      iszero\n        /* \"--CODEGEN--\":8:17   */\n      dup1\n        /* \"--CODEGEN--\":5:7   */\n      iszero\n      tag_608\n      jumpi\n        /* \"--CODEGEN--\":45:61   */\n      returndatasize\n        /* \"--CODEGEN--\":42:43   */\n      0x00\n        /* \"--CODEGEN--\":39:40   */\n      dup1\n        /* \"--CODEGEN--\":24:62   */\n      returndatacopy\n        /* \"--CODEGEN--\":77:93   */\n      returndatasize\n        /* \"--CODEGEN--\":74:75   */\n      0x00\n        /* \"--CODEGEN--\":67:94   */\n      revert\n        /* \"--CODEGEN--\":5:7   */\n    tag_608:\n        /* \"AdminManger.sol\":14091:14123  erc721.mint(tokenURI, _royality) */\n      pop\n      pop\n      pop\n      pop\n        /* \"AdminManger.sol\":14084:14123  return erc721.mint(tokenURI, _royality) */\n      pop\n        /* \"AdminManger.sol\":13706:14130  function erc721Mint(... */\n      pop\n      pop\n      pop\n      jump\t// out\n        /* \"AdminManger.sol\":17518:17953  function updatePrice(... */\n    tag_211:\n        /* \"AdminManger.sol\":10150:10172  adminExist(msg.sender) */\n      tag_610\n        /* \"AdminManger.sol\":10161:10171  msg.sender */\n      caller\n        /* \"AdminManger.sol\":10150:10160  adminExist */\n      tag_200\n        /* \"AdminManger.sol\":10150:10172  adminExist(msg.sender) */\n      jump\t// in\n    tag_610:\n        /* \"AdminManger.sol\":10150:10185  adminExist(msg.sender) || isOwner() */\n      dup1\n      tag_611\n      jumpi\n      pop\n        /* \"AdminManger.sol\":10176:10185  isOwner() */\n      tag_612\n        /* \"AdminManger.sol\":10176:10183  isOwner */\n      tag_162\n        /* \"AdminManger.sol\":10176:10185  isOwner() */\n      jump\t// in\n    tag_612:\n        /* \"AdminManger.sol\":10150:10185  adminExist(msg.sender) || isOwner() */\n    tag_611:\n        /* \"AdminManger.sol\":10129:10246  require(... */\n      tag_613\n      jumpi\n      mload(0x40)\n      0x08c379a000000000000000000000000000000000000000000000000000000000\n      dup2\n      mstore\n      0x04\n      add\n      tag_614\n      swap1\n      jump(tag_218)\n    tag_614:\n      mload(0x40)\n      dup1\n      swap2\n      sub\n      swap1\n      revert\n    tag_613:\n        /* \"AdminManger.sol\":17693:17699  broker */\n      0x1c\n      0x00\n      swap1\n      sload\n      swap1\n      0x0100\n      exp\n      swap1\n      div\n      0xffffffffffffffffffffffffffffffffffffffff\n      and\n        /* \"AdminManger.sol\":17693:17711  broker.updatePrice */\n      0xffffffffffffffffffffffffffffffffffffffff\n      and\n      0xff8edbdb\n        /* \"AdminManger.sol\":17712:17719  tokenID */\n      dup6\n        /* \"AdminManger.sol\":17721:17735  _mintableToken */\n      dup6\n        /* \"AdminManger.sol\":17737:17746  _newPrice */\n      dup6\n        /* \"AdminManger.sol\":17748:17759  _erc20Token */\n      dup6\n        /* \"AdminManger.sol\":17693:17760  broker.updatePrice(tokenID, _mintableToken, _newPrice, _erc20Token) */\n      mload(0x40)\n      dup6\n      0xffffffff\n      and\n      0xe0\n      shl\n      dup2\n      mstore\n      0x04\n      add\n      tag_616\n      swap5\n      swap4\n      swap3\n      swap2\n      swap1\n      jump(tag_617)\n    tag_616:\n      0x00\n      mload(0x40)\n      dup1\n      dup4\n      sub\n      dup2\n      0x00\n      dup8\n      dup1\n      extcodesize\n      iszero\n        /* \"--CODEGEN--\":8:17   */\n      dup1\n        /* \"--CODEGEN--\":5:7   */\n      iszero\n      tag_618\n      jumpi\n        /* \"--CODEGEN--\":30:31   */\n      0x00\n        /* \"--CODEGEN--\":27:28   */\n      dup1\n        /* \"--CODEGEN--\":20:32   */\n      revert\n        /* \"--CODEGEN--\":5:7   */\n    tag_618:\n        /* \"AdminManger.sol\":17693:17760  broker.updatePrice(tokenID, _mintableToken, _newPrice, _erc20Token) */\n      pop\n      gas\n      call\n      iszero\n        /* \"--CODEGEN--\":8:17   */\n      dup1\n        /* \"--CODEGEN--\":5:7   */\n      iszero\n      tag_619\n      jumpi\n        /* \"--CODEGEN--\":45:61   */\n      returndatasize\n        /* \"--CODEGEN--\":42:43   */\n      0x00\n        /* \"--CODEGEN--\":39:40   */\n      dup1\n        /* \"--CODEGEN--\":24:62   */\n      returndatacopy\n        /* \"--CODEGEN--\":77:93   */\n      returndatasize\n        /* \"--CODEGEN--\":74:75   */\n      0x00\n        /* \"--CODEGEN--\":67:94   */\n      revert\n        /* \"--CODEGEN--\":5:7   */\n    tag_619:\n        /* \"AdminManger.sol\":17693:17760  broker.updatePrice(tokenID, _mintableToken, _newPrice, _erc20Token) */\n      pop\n      pop\n      pop\n      pop\n        /* \"AdminManger.sol\":17862:17875  functionNames */\n      0x02\n        /* \"AdminManger.sol\":17862:17887  functionNames.updatePrice */\n      0x0a\n      add\n        /* \"AdminManger.sol\":17775:17946  AdminActionPerformed(... */\n      mload(0x40)\n      tag_620\n      swap2\n      swap1\n      jump(tag_225)\n    tag_620:\n      mload(0x40)\n      dup1\n      swap2\n      sub\n      swap1\n      keccak256\n        /* \"AdminManger.sol\":17841:17847  broker */\n      0x1c\n      0x00\n      swap1\n      sload\n      swap1\n      0x0100\n      exp\n      swap1\n      div\n      0xffffffffffffffffffffffffffffffffffffffff\n      and\n        /* \"AdminManger.sol\":17775:17946  AdminActionPerformed(... */\n      0xffffffffffffffffffffffffffffffffffffffff\n      and\n        /* \"AdminManger.sol\":17809:17819  msg.sender */\n      caller\n        /* \"AdminManger.sol\":17775:17946  AdminActionPerformed(... */\n      0xffffffffffffffffffffffffffffffffffffffff\n      and\n      0x32a9eeb55ea56eb60badfb6642d5b92be35b6da6f74892c12d0e14a50dfc2bac\n        /* \"AdminManger.sol\":17901:17915  _mintableToken */\n      dup7\n        /* \"AdminManger.sol\":17929:17936  tokenID */\n      dup9\n        /* \"AdminManger.sol\":17775:17946  AdminActionPerformed(... */\n      mload(0x40)\n      tag_621\n      swap3\n      swap2\n      swap1\n      jump(tag_227)\n    tag_621:\n      mload(0x40)\n      dup1\n      swap2\n      sub\n      swap1\n      log4\n        /* \"AdminManger.sol\":17518:17953  function updatePrice(... */\n      pop\n      pop\n      pop\n      pop\n      jump\t// out\n        /* \"AdminManger.sol\":479:575  function _msgSender() internal view returns (address payable) {... */\n    tag_492:\n        /* \"AdminManger.sol\":524:539  address payable */\n      0x00\n        /* \"AdminManger.sol\":558:568  msg.sender */\n      caller\n        /* \"AdminManger.sol\":551:568  return msg.sender */\n      swap1\n      pop\n        /* \"AdminManger.sol\":479:575  function _msgSender() internal view returns (address payable) {... */\n      swap1\n      jump\t// out\n        /* \"AdminManger.sol\":2591:2850  function _transferOwnership(address newOwner) internal {... */\n    tag_572:\n        /* \"AdminManger.sol\":2697:2698  0 */\n      0x00\n        /* \"AdminManger.sol\":2677:2699  newOwner != address(0) */\n      0xffffffffffffffffffffffffffffffffffffffff\n      and\n        /* \"AdminManger.sol\":2677:2685  newOwner */\n      dup2\n        /* \"AdminManger.sol\":2677:2699  newOwner != address(0) */\n      0xffffffffffffffffffffffffffffffffffffffff\n      and\n      eq\n      iszero\n        /* \"AdminManger.sol\":2656:2763  require(... */\n      tag_624\n      jumpi\n      mload(0x40)\n      0x08c379a000000000000000000000000000000000000000000000000000000000\n      dup2\n      mstore\n      0x04\n      add\n      tag_625\n      swap1\n      jump(tag_626)\n    tag_625:\n      mload(0x40)\n      dup1\n      swap2\n      sub\n      swap1\n      revert\n    tag_624:\n        /* \"AdminManger.sol\":2807:2815  newOwner */\n      dup1\n        /* \"AdminManger.sol\":2778:2816  OwnershipTransferred(_owner, newOwner) */\n      0xffffffffffffffffffffffffffffffffffffffff\n      and\n        /* \"AdminManger.sol\":2799:2805  _owner */\n      0x00\n      dup1\n      swap1\n      sload\n      swap1\n      0x0100\n      exp\n      swap1\n      div\n      0xffffffffffffffffffffffffffffffffffffffff\n      and\n        /* \"AdminManger.sol\":2778:2816  OwnershipTransferred(_owner, newOwner) */\n      0xffffffffffffffffffffffffffffffffffffffff\n      and\n      0x8be0079c531659141344cd1fd0a4f28419497f9722a3daafe3b4186f6b6457e0\n      mload(0x40)\n      mload(0x40)\n      dup1\n      swap2\n      sub\n      swap1\n      log3\n        /* \"AdminManger.sol\":2835:2843  newOwner */\n      dup1\n        /* \"AdminManger.sol\":2826:2832  _owner */\n      0x00\n      dup1\n        /* \"AdminManger.sol\":2826:2843  _owner = newOwner */\n      0x0100\n      exp\n      dup2\n      sload\n      dup2\n      0xffffffffffffffffffffffffffffffffffffffff\n      mul\n      not\n      and\n      swap1\n      dup4\n      0xffffffffffffffffffffffffffffffffffffffff\n      and\n      mul\n      or\n      swap1\n      sstore\n      pop\n        /* \"AdminManger.sol\":2591:2850  function _transferOwnership(address newOwner) internal {... */\n      pop\n      jump\t// out\n        /* \"--CODEGEN--\":5:135   */\n    tag_628:\n      0x00\n        /* \"--CODEGEN--\":85:91   */\n      dup2\n        /* \"--CODEGEN--\":72:92   */\n      calldataload\n        /* \"--CODEGEN--\":63:92   */\n      swap1\n      pop\n        /* \"--CODEGEN--\":97:130   */\n      tag_629\n        /* \"--CODEGEN--\":124:129   */\n      dup2\n        /* \"--CODEGEN--\":97:130   */\n      jump(tag_630)\n    tag_629:\n        /* \"--CODEGEN--\":57:135   */\n      swap3\n      swap2\n      pop\n      pop\n      jump\n        /* \"--CODEGEN--\":142:276   */\n    tag_631:\n      0x00\n        /* \"--CODEGEN--\":226:232   */\n      dup2\n        /* \"--CODEGEN--\":220:233   */\n      mload\n        /* \"--CODEGEN--\":211:233   */\n      swap1\n      pop\n        /* \"--CODEGEN--\":238:271   */\n      tag_632\n        /* \"--CODEGEN--\":265:270   */\n      dup2\n        /* \"--CODEGEN--\":238:271   */\n      jump(tag_630)\n    tag_632:\n        /* \"--CODEGEN--\":205:276   */\n      swap3\n      swap2\n      pop\n      pop\n      jump\n        /* \"--CODEGEN--\":283:407   */\n    tag_633:\n      0x00\n        /* \"--CODEGEN--\":360:366   */\n      dup2\n        /* \"--CODEGEN--\":347:367   */\n      calldataload\n        /* \"--CODEGEN--\":338:367   */\n      swap1\n      pop\n        /* \"--CODEGEN--\":372:402   */\n      tag_634\n        /* \"--CODEGEN--\":396:401   */\n      dup2\n        /* \"--CODEGEN--\":372:402   */\n      jump(tag_635)\n    tag_634:\n        /* \"--CODEGEN--\":332:407   */\n      swap3\n      swap2\n      pop\n      pop\n      jump\n        /* \"--CODEGEN--\":415:855   */\n    tag_636:\n      0x00\n        /* \"--CODEGEN--\":516:519   */\n      dup3\n        /* \"--CODEGEN--\":509:513   */\n      0x1f\n        /* \"--CODEGEN--\":501:507   */\n      dup4\n        /* \"--CODEGEN--\":497:514   */\n      add\n        /* \"--CODEGEN--\":493:520   */\n      slt\n        /* \"--CODEGEN--\":483:485   */\n      tag_637\n      jumpi\n        /* \"--CODEGEN--\":534:535   */\n      0x00\n        /* \"--CODEGEN--\":531:532   */\n      dup1\n        /* \"--CODEGEN--\":524:536   */\n      revert\n        /* \"--CODEGEN--\":483:485   */\n    tag_637:\n        /* \"--CODEGEN--\":571:577   */\n      dup2\n        /* \"--CODEGEN--\":558:578   */\n      calldataload\n        /* \"--CODEGEN--\":593:657   */\n      tag_638\n        /* \"--CODEGEN--\":608:656   */\n      tag_639\n        /* \"--CODEGEN--\":649:655   */\n      dup3\n        /* \"--CODEGEN--\":608:656   */\n      jump(tag_640)\n    tag_639:\n        /* \"--CODEGEN--\":593:657   */\n      jump(tag_641)\n    tag_638:\n        /* \"--CODEGEN--\":584:657   */\n      swap2\n      pop\n        /* \"--CODEGEN--\":677:683   */\n      dup1\n        /* \"--CODEGEN--\":670:675   */\n      dup3\n        /* \"--CODEGEN--\":663:684   */\n      mstore\n        /* \"--CODEGEN--\":713:717   */\n      0x20\n        /* \"--CODEGEN--\":705:711   */\n      dup4\n        /* \"--CODEGEN--\":701:718   */\n      add\n        /* \"--CODEGEN--\":746:750   */\n      0x20\n        /* \"--CODEGEN--\":739:744   */\n      dup4\n        /* \"--CODEGEN--\":735:751   */\n      add\n        /* \"--CODEGEN--\":781:784   */\n      dup6\n        /* \"--CODEGEN--\":772:778   */\n      dup4\n        /* \"--CODEGEN--\":767:770   */\n      dup4\n        /* \"--CODEGEN--\":763:779   */\n      add\n        /* \"--CODEGEN--\":760:785   */\n      gt\n        /* \"--CODEGEN--\":757:759   */\n      iszero\n      tag_642\n      jumpi\n        /* \"--CODEGEN--\":798:799   */\n      0x00\n        /* \"--CODEGEN--\":795:796   */\n      dup1\n        /* \"--CODEGEN--\":788:800   */\n      revert\n        /* \"--CODEGEN--\":757:759   */\n    tag_642:\n        /* \"--CODEGEN--\":808:849   */\n      tag_643\n        /* \"--CODEGEN--\":842:848   */\n      dup4\n        /* \"--CODEGEN--\":837:840   */\n      dup3\n        /* \"--CODEGEN--\":832:835   */\n      dup5\n        /* \"--CODEGEN--\":808:849   */\n      jump(tag_644)\n    tag_643:\n        /* \"--CODEGEN--\":476:855   */\n      pop\n      pop\n      pop\n      swap3\n      swap2\n      pop\n      pop\n      jump\n        /* \"--CODEGEN--\":864:1306   */\n    tag_645:\n      0x00\n        /* \"--CODEGEN--\":966:969   */\n      dup3\n        /* \"--CODEGEN--\":959:963   */\n      0x1f\n        /* \"--CODEGEN--\":951:957   */\n      dup4\n        /* \"--CODEGEN--\":947:964   */\n      add\n        /* \"--CODEGEN--\":943:970   */\n      slt\n        /* \"--CODEGEN--\":933:935   */\n      tag_646\n      jumpi\n        /* \"--CODEGEN--\":984:985   */\n      0x00\n        /* \"--CODEGEN--\":981:982   */\n      dup1\n        /* \"--CODEGEN--\":974:986   */\n      revert\n        /* \"--CODEGEN--\":933:935   */\n    tag_646:\n        /* \"--CODEGEN--\":1021:1027   */\n      dup2\n        /* \"--CODEGEN--\":1008:1028   */\n      calldataload\n        /* \"--CODEGEN--\":1043:1108   */\n      tag_647\n        /* \"--CODEGEN--\":1058:1107   */\n      tag_648\n        /* \"--CODEGEN--\":1100:1106   */\n      dup3\n        /* \"--CODEGEN--\":1058:1107   */\n      jump(tag_649)\n    tag_648:\n        /* \"--CODEGEN--\":1043:1108   */\n      jump(tag_641)\n    tag_647:\n        /* \"--CODEGEN--\":1034:1108   */\n      swap2\n      pop\n        /* \"--CODEGEN--\":1128:1134   */\n      dup1\n        /* \"--CODEGEN--\":1121:1126   */\n      dup3\n        /* \"--CODEGEN--\":1114:1135   */\n      mstore\n        /* \"--CODEGEN--\":1164:1168   */\n      0x20\n        /* \"--CODEGEN--\":1156:1162   */\n      dup4\n        /* \"--CODEGEN--\":1152:1169   */\n      add\n        /* \"--CODEGEN--\":1197:1201   */\n      0x20\n        /* \"--CODEGEN--\":1190:1195   */\n      dup4\n        /* \"--CODEGEN--\":1186:1202   */\n      add\n        /* \"--CODEGEN--\":1232:1235   */\n      dup6\n        /* \"--CODEGEN--\":1223:1229   */\n      dup4\n        /* \"--CODEGEN--\":1218:1221   */\n      dup4\n        /* \"--CODEGEN--\":1214:1230   */\n      add\n        /* \"--CODEGEN--\":1211:1236   */\n      gt\n        /* \"--CODEGEN--\":1208:1210   */\n      iszero\n      tag_650\n      jumpi\n        /* \"--CODEGEN--\":1249:1250   */\n      0x00\n        /* \"--CODEGEN--\":1246:1247   */\n      dup1\n        /* \"--CODEGEN--\":1239:1251   */\n      revert\n        /* \"--CODEGEN--\":1208:1210   */\n    tag_650:\n        /* \"--CODEGEN--\":1259:1300   */\n      tag_651\n        /* \"--CODEGEN--\":1293:1299   */\n      dup4\n        /* \"--CODEGEN--\":1288:1291   */\n      dup3\n        /* \"--CODEGEN--\":1283:1286   */\n      dup5\n        /* \"--CODEGEN--\":1259:1300   */\n      jump(tag_644)\n    tag_651:\n        /* \"--CODEGEN--\":926:1306   */\n      pop\n      pop\n      pop\n      swap3\n      swap2\n      pop\n      pop\n      jump\n        /* \"--CODEGEN--\":1315:1759   */\n    tag_652:\n      0x00\n        /* \"--CODEGEN--\":1428:1431   */\n      dup3\n        /* \"--CODEGEN--\":1421:1425   */\n      0x1f\n        /* \"--CODEGEN--\":1413:1419   */\n      dup4\n        /* \"--CODEGEN--\":1409:1426   */\n      add\n        /* \"--CODEGEN--\":1405:1432   */\n      slt\n        /* \"--CODEGEN--\":1395:1397   */\n      tag_653\n      jumpi\n        /* \"--CODEGEN--\":1446:1447   */\n      0x00\n        /* \"--CODEGEN--\":1443:1444   */\n      dup1\n        /* \"--CODEGEN--\":1436:1448   */\n      revert\n        /* \"--CODEGEN--\":1395:1397   */\n    tag_653:\n        /* \"--CODEGEN--\":1476:1482   */\n      dup2\n        /* \"--CODEGEN--\":1470:1483   */\n      mload\n        /* \"--CODEGEN--\":1498:1563   */\n      tag_654\n        /* \"--CODEGEN--\":1513:1562   */\n      tag_655\n        /* \"--CODEGEN--\":1555:1561   */\n      dup3\n        /* \"--CODEGEN--\":1513:1562   */\n      jump(tag_649)\n    tag_655:\n        /* \"--CODEGEN--\":1498:1563   */\n      jump(tag_641)\n    tag_654:\n        /* \"--CODEGEN--\":1489:1563   */\n      swap2\n      pop\n        /* \"--CODEGEN--\":1583:1589   */\n      dup1\n        /* \"--CODEGEN--\":1576:1581   */\n      dup3\n        /* \"--CODEGEN--\":1569:1590   */\n      mstore\n        /* \"--CODEGEN--\":1619:1623   */\n      0x20\n        /* \"--CODEGEN--\":1611:1617   */\n      dup4\n        /* \"--CODEGEN--\":1607:1624   */\n      add\n        /* \"--CODEGEN--\":1652:1656   */\n      0x20\n        /* \"--CODEGEN--\":1645:1650   */\n      dup4\n        /* \"--CODEGEN--\":1641:1657   */\n      add\n        /* \"--CODEGEN--\":1687:1690   */\n      dup6\n        /* \"--CODEGEN--\":1678:1684   */\n      dup4\n        /* \"--CODEGEN--\":1673:1676   */\n      dup4\n        /* \"--CODEGEN--\":1669:1685   */\n      add\n        /* \"--CODEGEN--\":1666:1691   */\n      gt\n        /* \"--CODEGEN--\":1663:1665   */\n      iszero\n      tag_656\n      jumpi\n        /* \"--CODEGEN--\":1704:1705   */\n      0x00\n        /* \"--CODEGEN--\":1701:1702   */\n      dup1\n        /* \"--CODEGEN--\":1694:1706   */\n      revert\n        /* \"--CODEGEN--\":1663:1665   */\n    tag_656:\n        /* \"--CODEGEN--\":1714:1753   */\n      tag_657\n        /* \"--CODEGEN--\":1746:1752   */\n      dup4\n        /* \"--CODEGEN--\":1741:1744   */\n      dup3\n        /* \"--CODEGEN--\":1736:1739   */\n      dup5\n        /* \"--CODEGEN--\":1714:1753   */\n      jump(tag_658)\n    tag_657:\n        /* \"--CODEGEN--\":1388:1759   */\n      pop\n      pop\n      pop\n      swap3\n      swap2\n      pop\n      pop\n      jump\n        /* \"--CODEGEN--\":1767:1897   */\n    tag_659:\n      0x00\n        /* \"--CODEGEN--\":1847:1853   */\n      dup2\n        /* \"--CODEGEN--\":1834:1854   */\n      calldataload\n        /* \"--CODEGEN--\":1825:1854   */\n      swap1\n      pop\n        /* \"--CODEGEN--\":1859:1892   */\n      tag_660\n        /* \"--CODEGEN--\":1886:1891   */\n      dup2\n        /* \"--CODEGEN--\":1859:1892   */\n      jump(tag_661)\n    tag_660:\n        /* \"--CODEGEN--\":1819:1897   */\n      swap3\n      swap2\n      pop\n      pop\n      jump\n        /* \"--CODEGEN--\":1904:2038   */\n    tag_662:\n      0x00\n        /* \"--CODEGEN--\":1988:1994   */\n      dup2\n        /* \"--CODEGEN--\":1982:1995   */\n      mload\n        /* \"--CODEGEN--\":1973:1995   */\n      swap1\n      pop\n        /* \"--CODEGEN--\":2000:2033   */\n      tag_663\n        /* \"--CODEGEN--\":2027:2032   */\n      dup2\n        /* \"--CODEGEN--\":2000:2033   */\n      jump(tag_661)\n    tag_663:\n        /* \"--CODEGEN--\":1967:2038   */\n      swap3\n      swap2\n      pop\n      pop\n      jump\n        /* \"--CODEGEN--\":2045:2286   */\n    tag_75:\n      0x00\n        /* \"--CODEGEN--\":2149:2151   */\n      0x20\n        /* \"--CODEGEN--\":2137:2146   */\n      dup3\n        /* \"--CODEGEN--\":2128:2135   */\n      dup5\n        /* \"--CODEGEN--\":2124:2147   */\n      sub\n        /* \"--CODEGEN--\":2120:2152   */\n      slt\n        /* \"--CODEGEN--\":2117:2119   */\n      iszero\n      tag_664\n      jumpi\n        /* \"--CODEGEN--\":2165:2166   */\n      0x00\n        /* \"--CODEGEN--\":2162:2163   */\n      dup1\n        /* \"--CODEGEN--\":2155:2167   */\n      revert\n        /* \"--CODEGEN--\":2117:2119   */\n    tag_664:\n        /* \"--CODEGEN--\":2200:2201   */\n      0x00\n        /* \"--CODEGEN--\":2217:2270   */\n      tag_665\n        /* \"--CODEGEN--\":2262:2269   */\n      dup5\n        /* \"--CODEGEN--\":2253:2259   */\n      dup3\n        /* \"--CODEGEN--\":2242:2251   */\n      dup6\n        /* \"--CODEGEN--\":2238:2260   */\n      add\n        /* \"--CODEGEN--\":2217:2270   */\n      jump(tag_628)\n    tag_665:\n        /* \"--CODEGEN--\":2207:2270   */\n      swap2\n      pop\n        /* \"--CODEGEN--\":2179:2276   */\n      pop\n        /* \"--CODEGEN--\":2111:2286   */\n      swap3\n      swap2\n      pop\n      pop\n      jump\n        /* \"--CODEGEN--\":2293:2556   */\n    tag_363:\n      0x00\n        /* \"--CODEGEN--\":2408:2410   */\n      0x20\n        /* \"--CODEGEN--\":2396:2405   */\n      dup3\n        /* \"--CODEGEN--\":2387:2394   */\n      dup5\n        /* \"--CODEGEN--\":2383:2406   */\n      sub\n        /* \"--CODEGEN--\":2379:2411   */\n      slt\n        /* \"--CODEGEN--\":2376:2378   */\n      iszero\n      tag_666\n      jumpi\n        /* \"--CODEGEN--\":2424:2425   */\n      0x00\n        /* \"--CODEGEN--\":2421:2422   */\n      dup1\n        /* \"--CODEGEN--\":2414:2426   */\n      revert\n        /* \"--CODEGEN--\":2376:2378   */\n    tag_666:\n        /* \"--CODEGEN--\":2459:2460   */\n      0x00\n        /* \"--CODEGEN--\":2476:2540   */\n      tag_667\n        /* \"--CODEGEN--\":2532:2539   */\n      dup5\n        /* \"--CODEGEN--\":2523:2529   */\n      dup3\n        /* \"--CODEGEN--\":2512:2521   */\n      dup6\n        /* \"--CODEGEN--\":2508:2530   */\n      add\n        /* \"--CODEGEN--\":2476:2540   */\n      jump(tag_631)\n    tag_667:\n        /* \"--CODEGEN--\":2466:2540   */\n      swap2\n      pop\n        /* \"--CODEGEN--\":2438:2546   */\n      pop\n        /* \"--CODEGEN--\":2370:2556   */\n      swap3\n      swap2\n      pop\n      pop\n      jump\n        /* \"--CODEGEN--\":2563:3180   */\n    tag_51:\n      0x00\n      dup1\n      0x00\n      dup1\n        /* \"--CODEGEN--\":2718:2721   */\n      0x80\n        /* \"--CODEGEN--\":2706:2715   */\n      dup6\n        /* \"--CODEGEN--\":2697:2704   */\n      dup8\n        /* \"--CODEGEN--\":2693:2716   */\n      sub\n        /* \"--CODEGEN--\":2689:2722   */\n      slt\n        /* \"--CODEGEN--\":2686:2688   */\n      iszero\n      tag_668\n      jumpi\n        /* \"--CODEGEN--\":2735:2736   */\n      0x00\n        /* \"--CODEGEN--\":2732:2733   */\n      dup1\n        /* \"--CODEGEN--\":2725:2737   */\n      revert\n        /* \"--CODEGEN--\":2686:2688   */\n    tag_668:\n        /* \"--CODEGEN--\":2770:2771   */\n      0x00\n        /* \"--CODEGEN--\":2787:2840   */\n      tag_669\n        /* \"--CODEGEN--\":2832:2839   */\n      dup8\n        /* \"--CODEGEN--\":2823:2829   */\n      dup3\n        /* \"--CODEGEN--\":2812:2821   */\n      dup9\n        /* \"--CODEGEN--\":2808:2830   */\n      add\n        /* \"--CODEGEN--\":2787:2840   */\n      jump(tag_628)\n    tag_669:\n        /* \"--CODEGEN--\":2777:2840   */\n      swap5\n      pop\n        /* \"--CODEGEN--\":2749:2846   */\n      pop\n        /* \"--CODEGEN--\":2877:2879   */\n      0x20\n        /* \"--CODEGEN--\":2895:2948   */\n      tag_670\n        /* \"--CODEGEN--\":2940:2947   */\n      dup8\n        /* \"--CODEGEN--\":2931:2937   */\n      dup3\n        /* \"--CODEGEN--\":2920:2929   */\n      dup9\n        /* \"--CODEGEN--\":2916:2938   */\n      add\n        /* \"--CODEGEN--\":2895:2948   */\n      jump(tag_628)\n    tag_670:\n        /* \"--CODEGEN--\":2885:2948   */\n      swap4\n      pop\n        /* \"--CODEGEN--\":2856:2954   */\n      pop\n        /* \"--CODEGEN--\":2985:2987   */\n      0x40\n        /* \"--CODEGEN--\":3003:3056   */\n      tag_671\n        /* \"--CODEGEN--\":3048:3055   */\n      dup8\n        /* \"--CODEGEN--\":3039:3045   */\n      dup3\n        /* \"--CODEGEN--\":3028:3037   */\n      dup9\n        /* \"--CODEGEN--\":3024:3046   */\n      add\n        /* \"--CODEGEN--\":3003:3056   */\n      jump(tag_628)\n    tag_671:\n        /* \"--CODEGEN--\":2993:3056   */\n      swap3\n      pop\n        /* \"--CODEGEN--\":2964:3062   */\n      pop\n        /* \"--CODEGEN--\":3093:3095   */\n      0x60\n        /* \"--CODEGEN--\":3111:3164   */\n      tag_672\n        /* \"--CODEGEN--\":3156:3163   */\n      dup8\n        /* \"--CODEGEN--\":3147:3153   */\n      dup3\n        /* \"--CODEGEN--\":3136:3145   */\n      dup9\n        /* \"--CODEGEN--\":3132:3154   */\n      add\n        /* \"--CODEGEN--\":3111:3164   */\n      jump(tag_659)\n    tag_672:\n        /* \"--CODEGEN--\":3101:3164   */\n      swap2\n      pop\n        /* \"--CODEGEN--\":3072:3170   */\n      pop\n        /* \"--CODEGEN--\":2680:3180   */\n      swap3\n      swap6\n      swap2\n      swap5\n      pop\n      swap3\n      pop\n      jump\n        /* \"--CODEGEN--\":3187:4034   */\n    tag_122:\n      0x00\n      dup1\n      0x00\n      dup1\n      0x00\n        /* \"--CODEGEN--\":3368:3371   */\n      0xa0\n        /* \"--CODEGEN--\":3356:3365   */\n      dup7\n        /* \"--CODEGEN--\":3347:3354   */\n      dup9\n        /* \"--CODEGEN--\":3343:3366   */\n      sub\n        /* \"--CODEGEN--\":3339:3372   */\n      slt\n        /* \"--CODEGEN--\":3336:3338   */\n      iszero\n      tag_673\n      jumpi\n        /* \"--CODEGEN--\":3385:3386   */\n      0x00\n        /* \"--CODEGEN--\":3382:3383   */\n      dup1\n        /* \"--CODEGEN--\":3375:3387   */\n      revert\n        /* \"--CODEGEN--\":3336:3338   */\n    tag_673:\n        /* \"--CODEGEN--\":3420:3421   */\n      0x00\n        /* \"--CODEGEN--\":3437:3490   */\n      tag_674\n        /* \"--CODEGEN--\":3482:3489   */\n      dup9\n        /* \"--CODEGEN--\":3473:3479   */\n      dup3\n        /* \"--CODEGEN--\":3462:3471   */\n      dup10\n        /* \"--CODEGEN--\":3458:3480   */\n      add\n        /* \"--CODEGEN--\":3437:3490   */\n      jump(tag_628)\n    tag_674:\n        /* \"--CODEGEN--\":3427:3490   */\n      swap6\n      pop\n        /* \"--CODEGEN--\":3399:3496   */\n      pop\n        /* \"--CODEGEN--\":3527:3529   */\n      0x20\n        /* \"--CODEGEN--\":3545:3598   */\n      tag_675\n        /* \"--CODEGEN--\":3590:3597   */\n      dup9\n        /* \"--CODEGEN--\":3581:3587   */\n      dup3\n        /* \"--CODEGEN--\":3570:3579   */\n      dup10\n        /* \"--CODEGEN--\":3566:3588   */\n      add\n        /* \"--CODEGEN--\":3545:3598   */\n      jump(tag_628)\n    tag_675:\n        /* \"--CODEGEN--\":3535:3598   */\n      swap5\n      pop\n        /* \"--CODEGEN--\":3506:3604   */\n      pop\n        /* \"--CODEGEN--\":3635:3637   */\n      0x40\n        /* \"--CODEGEN--\":3653:3706   */\n      tag_676\n        /* \"--CODEGEN--\":3698:3705   */\n      dup9\n        /* \"--CODEGEN--\":3689:3695   */\n      dup3\n        /* \"--CODEGEN--\":3678:3687   */\n      dup10\n        /* \"--CODEGEN--\":3674:3696   */\n      add\n        /* \"--CODEGEN--\":3653:3706   */\n      jump(tag_628)\n    tag_676:\n        /* \"--CODEGEN--\":3643:3706   */\n      swap4\n      pop\n        /* \"--CODEGEN--\":3614:3712   */\n      pop\n        /* \"--CODEGEN--\":3743:3745   */\n      0x60\n        /* \"--CODEGEN--\":3761:3814   */\n      tag_677\n        /* \"--CODEGEN--\":3806:3813   */\n      dup9\n        /* \"--CODEGEN--\":3797:3803   */\n      dup3\n        /* \"--CODEGEN--\":3786:3795   */\n      dup10\n        /* \"--CODEGEN--\":3782:3804   */\n      add\n        /* \"--CODEGEN--\":3761:3814   */\n      jump(tag_659)\n    tag_677:\n        /* \"--CODEGEN--\":3751:3814   */\n      swap3\n      pop\n        /* \"--CODEGEN--\":3722:3820   */\n      pop\n        /* \"--CODEGEN--\":3879:3882   */\n      0x80\n        /* \"--CODEGEN--\":3868:3877   */\n      dup7\n        /* \"--CODEGEN--\":3864:3883   */\n      add\n        /* \"--CODEGEN--\":3851:3884   */\n      calldataload\n        /* \"--CODEGEN--\":3904:3922   */\n      0xffffffffffffffff\n        /* \"--CODEGEN--\":3896:3902   */\n      dup2\n        /* \"--CODEGEN--\":3893:3923   */\n      gt\n        /* \"--CODEGEN--\":3890:3892   */\n      iszero\n      tag_678\n      jumpi\n        /* \"--CODEGEN--\":3936:3937   */\n      0x00\n        /* \"--CODEGEN--\":3933:3934   */\n      dup1\n        /* \"--CODEGEN--\":3926:3938   */\n      revert\n        /* \"--CODEGEN--\":3890:3892   */\n    tag_678:\n        /* \"--CODEGEN--\":3956:4018   */\n      tag_679\n        /* \"--CODEGEN--\":4010:4017   */\n      dup9\n        /* \"--CODEGEN--\":4001:4007   */\n      dup3\n        /* \"--CODEGEN--\":3990:3999   */\n      dup10\n        /* \"--CODEGEN--\":3986:4008   */\n      add\n        /* \"--CODEGEN--\":3956:4018   */\n      jump(tag_636)\n    tag_679:\n        /* \"--CODEGEN--\":3946:4018   */\n      swap2\n      pop\n        /* \"--CODEGEN--\":3830:4024   */\n      pop\n        /* \"--CODEGEN--\":3330:4034   */\n      swap3\n      swap6\n      pop\n      swap3\n      swap6\n      swap1\n      swap4\n      pop\n      jump\n        /* \"--CODEGEN--\":4041:4532   */\n    tag_56:\n      0x00\n      dup1\n      0x00\n        /* \"--CODEGEN--\":4179:4181   */\n      0x60\n        /* \"--CODEGEN--\":4167:4176   */\n      dup5\n        /* \"--CODEGEN--\":4158:4165   */\n      dup7\n        /* \"--CODEGEN--\":4154:4177   */\n      sub\n        /* \"--CODEGEN--\":4150:4182   */\n      slt\n        /* \"--CODEGEN--\":4147:4149   */\n      iszero\n      tag_680\n      jumpi\n        /* \"--CODEGEN--\":4195:4196   */\n      0x00\n        /* \"--CODEGEN--\":4192:4193   */\n      dup1\n        /* \"--CODEGEN--\":4185:4197   */\n      revert\n        /* \"--CODEGEN--\":4147:4149   */\n    tag_680:\n        /* \"--CODEGEN--\":4230:4231   */\n      0x00\n        /* \"--CODEGEN--\":4247:4300   */\n      tag_681\n        /* \"--CODEGEN--\":4292:4299   */\n      dup7\n        /* \"--CODEGEN--\":4283:4289   */\n      dup3\n        /* \"--CODEGEN--\":4272:4281   */\n      dup8\n        /* \"--CODEGEN--\":4268:4290   */\n      add\n        /* \"--CODEGEN--\":4247:4300   */\n      jump(tag_628)\n    tag_681:\n        /* \"--CODEGEN--\":4237:4300   */\n      swap4\n      pop\n        /* \"--CODEGEN--\":4209:4306   */\n      pop\n        /* \"--CODEGEN--\":4337:4339   */\n      0x20\n        /* \"--CODEGEN--\":4355:4408   */\n      tag_682\n        /* \"--CODEGEN--\":4400:4407   */\n      dup7\n        /* \"--CODEGEN--\":4391:4397   */\n      dup3\n        /* \"--CODEGEN--\":4380:4389   */\n      dup8\n        /* \"--CODEGEN--\":4376:4398   */\n      add\n        /* \"--CODEGEN--\":4355:4408   */\n      jump(tag_628)\n    tag_682:\n        /* \"--CODEGEN--\":4345:4408   */\n      swap3\n      pop\n        /* \"--CODEGEN--\":4316:4414   */\n      pop\n        /* \"--CODEGEN--\":4445:4447   */\n      0x40\n        /* \"--CODEGEN--\":4463:4516   */\n      tag_683\n        /* \"--CODEGEN--\":4508:4515   */\n      dup7\n        /* \"--CODEGEN--\":4499:4505   */\n      dup3\n        /* \"--CODEGEN--\":4488:4497   */\n      dup8\n        /* \"--CODEGEN--\":4484:4506   */\n      add\n        /* \"--CODEGEN--\":4463:4516   */\n      jump(tag_659)\n    tag_683:\n        /* \"--CODEGEN--\":4453:4516   */\n      swap2\n      pop\n        /* \"--CODEGEN--\":4424:4522   */\n      pop\n        /* \"--CODEGEN--\":4141:4532   */\n      swap3\n      pop\n      swap3\n      pop\n      swap3\n      jump\n        /* \"--CODEGEN--\":4539:5260   */\n    tag_68:\n      0x00\n      dup1\n      0x00\n      dup1\n        /* \"--CODEGEN--\":4703:4706   */\n      0x80\n        /* \"--CODEGEN--\":4691:4700   */\n      dup6\n        /* \"--CODEGEN--\":4682:4689   */\n      dup8\n        /* \"--CODEGEN--\":4678:4701   */\n      sub\n        /* \"--CODEGEN--\":4674:4707   */\n      slt\n        /* \"--CODEGEN--\":4671:4673   */\n      iszero\n      tag_684\n      jumpi\n        /* \"--CODEGEN--\":4720:4721   */\n      0x00\n        /* \"--CODEGEN--\":4717:4718   */\n      dup1\n        /* \"--CODEGEN--\":4710:4722   */\n      revert\n        /* \"--CODEGEN--\":4671:4673   */\n    tag_684:\n        /* \"--CODEGEN--\":4755:4756   */\n      0x00\n        /* \"--CODEGEN--\":4772:4825   */\n      tag_685\n        /* \"--CODEGEN--\":4817:4824   */\n      dup8\n        /* \"--CODEGEN--\":4808:4814   */\n      dup3\n        /* \"--CODEGEN--\":4797:4806   */\n      dup9\n        /* \"--CODEGEN--\":4793:4815   */\n      add\n        /* \"--CODEGEN--\":4772:4825   */\n      jump(tag_628)\n    tag_685:\n        /* \"--CODEGEN--\":4762:4825   */\n      swap5\n      pop\n        /* \"--CODEGEN--\":4734:4831   */\n      pop\n        /* \"--CODEGEN--\":4862:4864   */\n      0x20\n        /* \"--CODEGEN--\":4880:4933   */\n      tag_686\n        /* \"--CODEGEN--\":4925:4932   */\n      dup8\n        /* \"--CODEGEN--\":4916:4922   */\n      dup3\n        /* \"--CODEGEN--\":4905:4914   */\n      dup9\n        /* \"--CODEGEN--\":4901:4923   */\n      add\n        /* \"--CODEGEN--\":4880:4933   */\n      jump(tag_628)\n    tag_686:\n        /* \"--CODEGEN--\":4870:4933   */\n      swap4\n      pop\n        /* \"--CODEGEN--\":4841:4939   */\n      pop\n        /* \"--CODEGEN--\":4970:4972   */\n      0x40\n        /* \"--CODEGEN--\":4988:5041   */\n      tag_687\n        /* \"--CODEGEN--\":5033:5040   */\n      dup8\n        /* \"--CODEGEN--\":5024:5030   */\n      dup3\n        /* \"--CODEGEN--\":5013:5022   */\n      dup9\n        /* \"--CODEGEN--\":5009:5031   */\n      add\n        /* \"--CODEGEN--\":4988:5041   */\n      jump(tag_659)\n    tag_687:\n        /* \"--CODEGEN--\":4978:5041   */\n      swap3\n      pop\n        /* \"--CODEGEN--\":4949:5047   */\n      pop\n        /* \"--CODEGEN--\":5106:5108   */\n      0x60\n        /* \"--CODEGEN--\":5095:5104   */\n      dup6\n        /* \"--CODEGEN--\":5091:5109   */\n      add\n        /* \"--CODEGEN--\":5078:5110   */\n      calldataload\n        /* \"--CODEGEN--\":5130:5148   */\n      0xffffffffffffffff\n        /* \"--CODEGEN--\":5122:5128   */\n      dup2\n        /* \"--CODEGEN--\":5119:5149   */\n      gt\n        /* \"--CODEGEN--\":5116:5118   */\n      iszero\n      tag_688\n      jumpi\n        /* \"--CODEGEN--\":5162:5163   */\n      0x00\n        /* \"--CODEGEN--\":5159:5160   */\n      dup1\n        /* \"--CODEGEN--\":5152:5164   */\n      revert\n        /* \"--CODEGEN--\":5116:5118   */\n    tag_688:\n        /* \"--CODEGEN--\":5182:5244   */\n      tag_689\n        /* \"--CODEGEN--\":5236:5243   */\n      dup8\n        /* \"--CODEGEN--\":5227:5233   */\n      dup3\n        /* \"--CODEGEN--\":5216:5225   */\n      dup9\n        /* \"--CODEGEN--\":5212:5234   */\n      add\n        /* \"--CODEGEN--\":5182:5244   */\n      jump(tag_636)\n    tag_689:\n        /* \"--CODEGEN--\":5172:5244   */\n      swap2\n      pop\n        /* \"--CODEGEN--\":5057:5250   */\n      pop\n        /* \"--CODEGEN--\":4665:5260   */\n      swap3\n      swap6\n      swap2\n      swap5\n      pop\n      swap3\n      pop\n      jump\n        /* \"--CODEGEN--\":5267:5864   */\n    tag_205:\n      0x00\n      dup1\n      0x00\n        /* \"--CODEGEN--\":5415:5417   */\n      0x60\n        /* \"--CODEGEN--\":5403:5412   */\n      dup5\n        /* \"--CODEGEN--\":5394:5401   */\n      dup7\n        /* \"--CODEGEN--\":5390:5413   */\n      sub\n        /* \"--CODEGEN--\":5386:5418   */\n      slt\n        /* \"--CODEGEN--\":5383:5385   */\n      iszero\n      tag_690\n      jumpi\n        /* \"--CODEGEN--\":5431:5432   */\n      0x00\n        /* \"--CODEGEN--\":5428:5429   */\n      dup1\n        /* \"--CODEGEN--\":5421:5433   */\n      revert\n        /* \"--CODEGEN--\":5383:5385   */\n    tag_690:\n        /* \"--CODEGEN--\":5466:5467   */\n      0x00\n        /* \"--CODEGEN--\":5483:5536   */\n      tag_691\n        /* \"--CODEGEN--\":5528:5535   */\n      dup7\n        /* \"--CODEGEN--\":5519:5525   */\n      dup3\n        /* \"--CODEGEN--\":5508:5517   */\n      dup8\n        /* \"--CODEGEN--\":5504:5526   */\n      add\n        /* \"--CODEGEN--\":5483:5536   */\n      jump(tag_628)\n    tag_691:\n        /* \"--CODEGEN--\":5473:5536   */\n      swap4\n      pop\n        /* \"--CODEGEN--\":5445:5542   */\n      pop\n        /* \"--CODEGEN--\":5601:5603   */\n      0x20\n        /* \"--CODEGEN--\":5590:5599   */\n      dup5\n        /* \"--CODEGEN--\":5586:5604   */\n      add\n        /* \"--CODEGEN--\":5573:5605   */\n      calldataload\n        /* \"--CODEGEN--\":5625:5643   */\n      0xffffffffffffffff\n        /* \"--CODEGEN--\":5617:5623   */\n      dup2\n        /* \"--CODEGEN--\":5614:5644   */\n      gt\n        /* \"--CODEGEN--\":5611:5613   */\n      iszero\n      tag_692\n      jumpi\n        /* \"--CODEGEN--\":5657:5658   */\n      0x00\n        /* \"--CODEGEN--\":5654:5655   */\n      dup1\n        /* \"--CODEGEN--\":5647:5659   */\n      revert\n        /* \"--CODEGEN--\":5611:5613   */\n    tag_692:\n        /* \"--CODEGEN--\":5677:5740   */\n      tag_693\n        /* \"--CODEGEN--\":5732:5739   */\n      dup7\n        /* \"--CODEGEN--\":5723:5729   */\n      dup3\n        /* \"--CODEGEN--\":5712:5721   */\n      dup8\n        /* \"--CODEGEN--\":5708:5730   */\n      add\n        /* \"--CODEGEN--\":5677:5740   */\n      jump(tag_645)\n    tag_693:\n        /* \"--CODEGEN--\":5667:5740   */\n      swap3\n      pop\n        /* \"--CODEGEN--\":5552:5746   */\n      pop\n        /* \"--CODEGEN--\":5777:5779   */\n      0x40\n        /* \"--CODEGEN--\":5795:5848   */\n      tag_694\n        /* \"--CODEGEN--\":5840:5847   */\n      dup7\n        /* \"--CODEGEN--\":5831:5837   */\n      dup3\n        /* \"--CODEGEN--\":5820:5829   */\n      dup8\n        /* \"--CODEGEN--\":5816:5838   */\n      add\n        /* \"--CODEGEN--\":5795:5848   */\n      jump(tag_659)\n    tag_694:\n        /* \"--CODEGEN--\":5785:5848   */\n      swap2\n      pop\n        /* \"--CODEGEN--\":5756:5854   */\n      pop\n        /* \"--CODEGEN--\":5377:5864   */\n      swap3\n      pop\n      swap3\n      pop\n      swap3\n      jump\n        /* \"--CODEGEN--\":5871:6237   */\n    tag_113:\n      0x00\n      dup1\n        /* \"--CODEGEN--\":5992:5994   */\n      0x40\n        /* \"--CODEGEN--\":5980:5989   */\n      dup4\n        /* \"--CODEGEN--\":5971:5978   */\n      dup6\n        /* \"--CODEGEN--\":5967:5990   */\n      sub\n        /* \"--CODEGEN--\":5963:5995   */\n      slt\n        /* \"--CODEGEN--\":5960:5962   */\n      iszero\n      tag_695\n      jumpi\n        /* \"--CODEGEN--\":6008:6009   */\n      0x00\n        /* \"--CODEGEN--\":6005:6006   */\n      dup1\n        /* \"--CODEGEN--\":5998:6010   */\n      revert\n        /* \"--CODEGEN--\":5960:5962   */\n    tag_695:\n        /* \"--CODEGEN--\":6043:6044   */\n      0x00\n        /* \"--CODEGEN--\":6060:6113   */\n      tag_696\n        /* \"--CODEGEN--\":6105:6112   */\n      dup6\n        /* \"--CODEGEN--\":6096:6102   */\n      dup3\n        /* \"--CODEGEN--\":6085:6094   */\n      dup7\n        /* \"--CODEGEN--\":6081:6103   */\n      add\n        /* \"--CODEGEN--\":6060:6113   */\n      jump(tag_628)\n    tag_696:\n        /* \"--CODEGEN--\":6050:6113   */\n      swap3\n      pop\n        /* \"--CODEGEN--\":6022:6119   */\n      pop\n        /* \"--CODEGEN--\":6150:6152   */\n      0x20\n        /* \"--CODEGEN--\":6168:6221   */\n      tag_697\n        /* \"--CODEGEN--\":6213:6220   */\n      dup6\n        /* \"--CODEGEN--\":6204:6210   */\n      dup3\n        /* \"--CODEGEN--\":6193:6202   */\n      dup7\n        /* \"--CODEGEN--\":6189:6211   */\n      add\n        /* \"--CODEGEN--\":6168:6221   */\n      jump(tag_659)\n    tag_697:\n        /* \"--CODEGEN--\":6158:6221   */\n      swap2\n      pop\n        /* \"--CODEGEN--\":6129:6227   */\n      pop\n        /* \"--CODEGEN--\":5954:6237   */\n      swap3\n      pop\n      swap3\n      swap1\n      pop\n      jump\n        /* \"--CODEGEN--\":6244:6606   */\n    tag_358:\n      0x00\n        /* \"--CODEGEN--\":6369:6371   */\n      0x20\n        /* \"--CODEGEN--\":6357:6366   */\n      dup3\n        /* \"--CODEGEN--\":6348:6355   */\n      dup5\n        /* \"--CODEGEN--\":6344:6367   */\n      sub\n        /* \"--CODEGEN--\":6340:6372   */\n      slt\n        /* \"--CODEGEN--\":6337:6339   */\n      iszero\n      tag_698\n      jumpi\n        /* \"--CODEGEN--\":6385:6386   */\n      0x00\n        /* \"--CODEGEN--\":6382:6383   */\n      dup1\n        /* \"--CODEGEN--\":6375:6387   */\n      revert\n        /* \"--CODEGEN--\":6337:6339   */\n    tag_698:\n        /* \"--CODEGEN--\":6441:6442   */\n      0x00\n        /* \"--CODEGEN--\":6430:6439   */\n      dup3\n        /* \"--CODEGEN--\":6426:6443   */\n      add\n        /* \"--CODEGEN--\":6420:6444   */\n      mload\n        /* \"--CODEGEN--\":6464:6482   */\n      0xffffffffffffffff\n        /* \"--CODEGEN--\":6456:6462   */\n      dup2\n        /* \"--CODEGEN--\":6453:6483   */\n      gt\n        /* \"--CODEGEN--\":6450:6452   */\n      iszero\n      tag_699\n      jumpi\n        /* \"--CODEGEN--\":6496:6497   */\n      0x00\n        /* \"--CODEGEN--\":6493:6494   */\n      dup1\n        /* \"--CODEGEN--\":6486:6498   */\n      revert\n        /* \"--CODEGEN--\":6450:6452   */\n    tag_699:\n        /* \"--CODEGEN--\":6516:6590   */\n      tag_700\n        /* \"--CODEGEN--\":6582:6589   */\n      dup5\n        /* \"--CODEGEN--\":6573:6579   */\n      dup3\n        /* \"--CODEGEN--\":6562:6571   */\n      dup6\n        /* \"--CODEGEN--\":6558:6580   */\n      add\n        /* \"--CODEGEN--\":6516:6590   */\n      jump(tag_652)\n    tag_700:\n        /* \"--CODEGEN--\":6506:6590   */\n      swap2\n      pop\n        /* \"--CODEGEN--\":6399:6596   */\n      pop\n        /* \"--CODEGEN--\":6331:6606   */\n      swap3\n      swap2\n      pop\n      pop\n      jump\n        /* \"--CODEGEN--\":6613:6854   */\n    tag_61:\n      0x00\n        /* \"--CODEGEN--\":6717:6719   */\n      0x20\n        /* \"--CODEGEN--\":6705:6714   */\n      dup3\n        /* \"--CODEGEN--\":6696:6703   */\n      dup5\n        /* \"--CODEGEN--\":6692:6715   */\n      sub\n        /* \"--CODEGEN--\":6688:6720   */\n      slt\n        /* \"--CODEGEN--\":6685:6687   */\n      iszero\n      tag_701\n      jumpi\n        /* \"--CODEGEN--\":6733:6734   */\n      0x00\n        /* \"--CODEGEN--\":6730:6731   */\n      dup1\n        /* \"--CODEGEN--\":6723:6735   */\n      revert\n        /* \"--CODEGEN--\":6685:6687   */\n    tag_701:\n        /* \"--CODEGEN--\":6768:6769   */\n      0x00\n        /* \"--CODEGEN--\":6785:6838   */\n      tag_702\n        /* \"--CODEGEN--\":6830:6837   */\n      dup5\n        /* \"--CODEGEN--\":6821:6827   */\n      dup3\n        /* \"--CODEGEN--\":6810:6819   */\n      dup6\n        /* \"--CODEGEN--\":6806:6828   */\n      add\n        /* \"--CODEGEN--\":6785:6838   */\n      jump(tag_659)\n    tag_702:\n        /* \"--CODEGEN--\":6775:6838   */\n      swap2\n      pop\n        /* \"--CODEGEN--\":6747:6844   */\n      pop\n        /* \"--CODEGEN--\":6679:6854   */\n      swap3\n      swap2\n      pop\n      pop\n      jump\n        /* \"--CODEGEN--\":6861:7124   */\n    tag_583:\n      0x00\n        /* \"--CODEGEN--\":6976:6978   */\n      0x20\n        /* \"--CODEGEN--\":6964:6973   */\n      dup3\n        /* \"--CODEGEN--\":6955:6962   */\n      dup5\n        /* \"--CODEGEN--\":6951:6974   */\n      sub\n        /* \"--CODEGEN--\":6947:6979   */\n      slt\n        /* \"--CODEGEN--\":6944:6946   */\n      iszero\n      tag_703\n      jumpi\n        /* \"--CODEGEN--\":6992:6993   */\n      0x00\n        /* \"--CODEGEN--\":6989:6990   */\n      dup1\n        /* \"--CODEGEN--\":6982:6994   */\n      revert\n        /* \"--CODEGEN--\":6944:6946   */\n    tag_703:\n        /* \"--CODEGEN--\":7027:7028   */\n      0x00\n        /* \"--CODEGEN--\":7044:7108   */\n      tag_704\n        /* \"--CODEGEN--\":7100:7107   */\n      dup5\n        /* \"--CODEGEN--\":7091:7097   */\n      dup3\n        /* \"--CODEGEN--\":7080:7089   */\n      dup6\n        /* \"--CODEGEN--\":7076:7098   */\n      add\n        /* \"--CODEGEN--\":7044:7108   */\n      jump(tag_662)\n    tag_704:\n        /* \"--CODEGEN--\":7034:7108   */\n      swap2\n      pop\n        /* \"--CODEGEN--\":7006:7114   */\n      pop\n        /* \"--CODEGEN--\":6938:7124   */\n      swap3\n      swap2\n      pop\n      pop\n      jump\n        /* \"--CODEGEN--\":7131:7497   */\n    tag_80:\n      0x00\n      dup1\n        /* \"--CODEGEN--\":7252:7254   */\n      0x40\n        /* \"--CODEGEN--\":7240:7249   */\n      dup4\n        /* \"--CODEGEN--\":7231:7238   */\n      dup6\n        /* \"--CODEGEN--\":7227:7250   */\n      sub\n        /* \"--CODEGEN--\":7223:7255   */\n      slt\n        /* \"--CODEGEN--\":7220:7222   */\n      iszero\n      tag_705\n      jumpi\n        /* \"--CODEGEN--\":7268:7269   */\n      0x00\n        /* \"--CODEGEN--\":7265:7266   */\n      dup1\n        /* \"--CODEGEN--\":7258:7270   */\n      revert\n        /* \"--CODEGEN--\":7220:7222   */\n    tag_705:\n        /* \"--CODEGEN--\":7303:7304   */\n      0x00\n        /* \"--CODEGEN--\":7320:7373   */\n      tag_706\n        /* \"--CODEGEN--\":7365:7372   */\n      dup6\n        /* \"--CODEGEN--\":7356:7362   */\n      dup3\n        /* \"--CODEGEN--\":7345:7354   */\n      dup7\n        /* \"--CODEGEN--\":7341:7363   */\n      add\n        /* \"--CODEGEN--\":7320:7373   */\n      jump(tag_659)\n    tag_706:\n        /* \"--CODEGEN--\":7310:7373   */\n      swap3\n      pop\n        /* \"--CODEGEN--\":7282:7379   */\n      pop\n        /* \"--CODEGEN--\":7410:7412   */\n      0x20\n        /* \"--CODEGEN--\":7428:7481   */\n      tag_707\n        /* \"--CODEGEN--\":7473:7480   */\n      dup6\n        /* \"--CODEGEN--\":7464:7470   */\n      dup3\n        /* \"--CODEGEN--\":7453:7462   */\n      dup7\n        /* \"--CODEGEN--\":7449:7471   */\n      add\n        /* \"--CODEGEN--\":7428:7481   */\n      jump(tag_628)\n    tag_707:\n        /* \"--CODEGEN--\":7418:7481   */\n      swap2\n      pop\n        /* \"--CODEGEN--\":7389:7487   */\n      pop\n        /* \"--CODEGEN--\":7214:7497   */\n      swap3\n      pop\n      swap3\n      swap1\n      pop\n      jump\n        /* \"--CODEGEN--\":7504:7995   */\n    tag_84:\n      0x00\n      dup1\n      0x00\n        /* \"--CODEGEN--\":7642:7644   */\n      0x60\n        /* \"--CODEGEN--\":7630:7639   */\n      dup5\n        /* \"--CODEGEN--\":7621:7628   */\n      dup7\n        /* \"--CODEGEN--\":7617:7640   */\n      sub\n        /* \"--CODEGEN--\":7613:7645   */\n      slt\n        /* \"--CODEGEN--\":7610:7612   */\n      iszero\n      tag_708\n      jumpi\n        /* \"--CODEGEN--\":7658:7659   */\n      0x00\n        /* \"--CODEGEN--\":7655:7656   */\n      dup1\n        /* \"--CODEGEN--\":7648:7660   */\n      revert\n        /* \"--CODEGEN--\":7610:7612   */\n    tag_708:\n        /* \"--CODEGEN--\":7693:7694   */\n      0x00\n        /* \"--CODEGEN--\":7710:7763   */\n      tag_709\n        /* \"--CODEGEN--\":7755:7762   */\n      dup7\n        /* \"--CODEGEN--\":7746:7752   */\n      dup3\n        /* \"--CODEGEN--\":7735:7744   */\n      dup8\n        /* \"--CODEGEN--\":7731:7753   */\n      add\n        /* \"--CODEGEN--\":7710:7763   */\n      jump(tag_659)\n    tag_709:\n        /* \"--CODEGEN--\":7700:7763   */\n      swap4\n      pop\n        /* \"--CODEGEN--\":7672:7769   */\n      pop\n        /* \"--CODEGEN--\":7800:7802   */\n      0x20\n        /* \"--CODEGEN--\":7818:7871   */\n      tag_710\n        /* \"--CODEGEN--\":7863:7870   */\n      dup7\n        /* \"--CODEGEN--\":7854:7860   */\n      dup3\n        /* \"--CODEGEN--\":7843:7852   */\n      dup8\n        /* \"--CODEGEN--\":7839:7861   */\n      add\n        /* \"--CODEGEN--\":7818:7871   */\n      jump(tag_628)\n    tag_710:\n        /* \"--CODEGEN--\":7808:7871   */\n      swap3\n      pop\n        /* \"--CODEGEN--\":7779:7877   */\n      pop\n        /* \"--CODEGEN--\":7908:7910   */\n      0x40\n        /* \"--CODEGEN--\":7926:7979   */\n      tag_711\n        /* \"--CODEGEN--\":7971:7978   */\n      dup7\n        /* \"--CODEGEN--\":7962:7968   */\n      dup3\n        /* \"--CODEGEN--\":7951:7960   */\n      dup8\n        /* \"--CODEGEN--\":7947:7969   */\n      add\n        /* \"--CODEGEN--\":7926:7979   */\n      jump(tag_628)\n    tag_711:\n        /* \"--CODEGEN--\":7916:7979   */\n      swap2\n      pop\n        /* \"--CODEGEN--\":7887:7985   */\n      pop\n        /* \"--CODEGEN--\":7604:7995   */\n      swap3\n      pop\n      swap3\n      pop\n      swap3\n      jump\n        /* \"--CODEGEN--\":8002:8613   */\n    tag_130:\n      0x00\n      dup1\n      0x00\n      dup1\n        /* \"--CODEGEN--\":8154:8157   */\n      0x80\n        /* \"--CODEGEN--\":8142:8151   */\n      dup6\n        /* \"--CODEGEN--\":8133:8140   */\n      dup8\n        /* \"--CODEGEN--\":8129:8152   */\n      sub\n        /* \"--CODEGEN--\":8125:8158   */\n      slt\n        /* \"--CODEGEN--\":8122:8124   */\n      iszero\n      tag_712\n      jumpi\n        /* \"--CODEGEN--\":8171:8172   */\n      0x00\n        /* \"--CODEGEN--\":8168:8169   */\n      dup1\n        /* \"--CODEGEN--\":8161:8173   */\n      revert\n        /* \"--CODEGEN--\":8122:8124   */\n    tag_712:\n        /* \"--CODEGEN--\":8206:8207   */\n      0x00\n        /* \"--CODEGEN--\":8223:8276   */\n      tag_713\n        /* \"--CODEGEN--\":8268:8275   */\n      dup8\n        /* \"--CODEGEN--\":8259:8265   */\n      dup3\n        /* \"--CODEGEN--\":8248:8257   */\n      dup9\n        /* \"--CODEGEN--\":8244:8266   */\n      add\n        /* \"--CODEGEN--\":8223:8276   */\n      jump(tag_659)\n    tag_713:\n        /* \"--CODEGEN--\":8213:8276   */\n      swap5\n      pop\n        /* \"--CODEGEN--\":8185:8282   */\n      pop\n        /* \"--CODEGEN--\":8313:8315   */\n      0x20\n        /* \"--CODEGEN--\":8331:8384   */\n      tag_714\n        /* \"--CODEGEN--\":8376:8383   */\n      dup8\n        /* \"--CODEGEN--\":8367:8373   */\n      dup3\n        /* \"--CODEGEN--\":8356:8365   */\n      dup9\n        /* \"--CODEGEN--\":8352:8374   */\n      add\n        /* \"--CODEGEN--\":8331:8384   */\n      jump(tag_628)\n    tag_714:\n        /* \"--CODEGEN--\":8321:8384   */\n      swap4\n      pop\n        /* \"--CODEGEN--\":8292:8390   */\n      pop\n        /* \"--CODEGEN--\":8421:8423   */\n      0x40\n        /* \"--CODEGEN--\":8439:8492   */\n      tag_715\n        /* \"--CODEGEN--\":8484:8491   */\n      dup8\n        /* \"--CODEGEN--\":8475:8481   */\n      dup3\n        /* \"--CODEGEN--\":8464:8473   */\n      dup9\n        /* \"--CODEGEN--\":8460:8482   */\n      add\n        /* \"--CODEGEN--\":8439:8492   */\n      jump(tag_628)\n    tag_715:\n        /* \"--CODEGEN--\":8429:8492   */\n      swap3\n      pop\n        /* \"--CODEGEN--\":8400:8498   */\n      pop\n        /* \"--CODEGEN--\":8529:8531   */\n      0x60\n        /* \"--CODEGEN--\":8547:8597   */\n      tag_716\n        /* \"--CODEGEN--\":8589:8596   */\n      dup8\n        /* \"--CODEGEN--\":8580:8586   */\n      dup3\n        /* \"--CODEGEN--\":8569:8578   */\n      dup9\n        /* \"--CODEGEN--\":8565:8587   */\n      add\n        /* \"--CODEGEN--\":8547:8597   */\n      jump(tag_633)\n    tag_716:\n        /* \"--CODEGEN--\":8537:8597   */\n      swap2\n      pop\n        /* \"--CODEGEN--\":8508:8603   */\n      pop\n        /* \"--CODEGEN--\":8116:8613   */\n      swap3\n      swap6\n      swap2\n      swap5\n      pop\n      swap3\n      pop\n      jump\n        /* \"--CODEGEN--\":8620:9237   */\n    tag_96:\n      0x00\n      dup1\n      0x00\n      dup1\n        /* \"--CODEGEN--\":8775:8778   */\n      0x80\n        /* \"--CODEGEN--\":8763:8772   */\n      dup6\n        /* \"--CODEGEN--\":8754:8761   */\n      dup8\n        /* \"--CODEGEN--\":8750:8773   */\n      sub\n        /* \"--CODEGEN--\":8746:8779   */\n      slt\n        /* \"--CODEGEN--\":8743:8745   */\n      iszero\n      tag_717\n      jumpi\n        /* \"--CODEGEN--\":8792:8793   */\n      0x00\n        /* \"--CODEGEN--\":8789:8790   */\n      dup1\n        /* \"--CODEGEN--\":8782:8794   */\n      revert\n        /* \"--CODEGEN--\":8743:8745   */\n    tag_717:\n        /* \"--CODEGEN--\":8827:8828   */\n      0x00\n        /* \"--CODEGEN--\":8844:8897   */\n      tag_718\n        /* \"--CODEGEN--\":8889:8896   */\n      dup8\n        /* \"--CODEGEN--\":8880:8886   */\n      dup3\n        /* \"--CODEGEN--\":8869:8878   */\n      dup9\n        /* \"--CODEGEN--\":8865:8887   */\n      add\n        /* \"--CODEGEN--\":8844:8897   */\n      jump(tag_659)\n    tag_718:\n        /* \"--CODEGEN--\":8834:8897   */\n      swap5\n      pop\n        /* \"--CODEGEN--\":8806:8903   */\n      pop\n        /* \"--CODEGEN--\":8934:8936   */\n      0x20\n        /* \"--CODEGEN--\":8952:9005   */\n      tag_719\n        /* \"--CODEGEN--\":8997:9004   */\n      dup8\n        /* \"--CODEGEN--\":8988:8994   */\n      dup3\n        /* \"--CODEGEN--\":8977:8986   */\n      dup9\n        /* \"--CODEGEN--\":8973:8995   */\n      add\n        /* \"--CODEGEN--\":8952:9005   */\n      jump(tag_628)\n    tag_719:\n        /* \"--CODEGEN--\":8942:9005   */\n      swap4\n      pop\n        /* \"--CODEGEN--\":8913:9011   */\n      pop\n        /* \"--CODEGEN--\":9042:9044   */\n      0x40\n        /* \"--CODEGEN--\":9060:9113   */\n      tag_720\n        /* \"--CODEGEN--\":9105:9112   */\n      dup8\n        /* \"--CODEGEN--\":9096:9102   */\n      dup3\n        /* \"--CODEGEN--\":9085:9094   */\n      dup9\n        /* \"--CODEGEN--\":9081:9103   */\n      add\n        /* \"--CODEGEN--\":9060:9113   */\n      jump(tag_628)\n    tag_720:\n        /* \"--CODEGEN--\":9050:9113   */\n      swap3\n      pop\n        /* \"--CODEGEN--\":9021:9119   */\n      pop\n        /* \"--CODEGEN--\":9150:9152   */\n      0x60\n        /* \"--CODEGEN--\":9168:9221   */\n      tag_721\n        /* \"--CODEGEN--\":9213:9220   */\n      dup8\n        /* \"--CODEGEN--\":9204:9210   */\n      dup3\n        /* \"--CODEGEN--\":9193:9202   */\n      dup9\n        /* \"--CODEGEN--\":9189:9211   */\n      add\n        /* \"--CODEGEN--\":9168:9221   */\n      jump(tag_659)\n    tag_721:\n        /* \"--CODEGEN--\":9158:9221   */\n      swap2\n      pop\n        /* \"--CODEGEN--\":9129:9227   */\n      pop\n        /* \"--CODEGEN--\":8737:9237   */\n      swap3\n      swap6\n      swap2\n      swap5\n      pop\n      swap3\n      pop\n      jump\n        /* \"--CODEGEN--\":9244:9729   */\n    tag_146:\n      0x00\n      dup1\n      0x00\n        /* \"--CODEGEN--\":9379:9381   */\n      0x60\n        /* \"--CODEGEN--\":9367:9376   */\n      dup5\n        /* \"--CODEGEN--\":9358:9365   */\n      dup7\n        /* \"--CODEGEN--\":9354:9377   */\n      sub\n        /* \"--CODEGEN--\":9350:9382   */\n      slt\n        /* \"--CODEGEN--\":9347:9349   */\n      iszero\n      tag_722\n      jumpi\n        /* \"--CODEGEN--\":9395:9396   */\n      0x00\n        /* \"--CODEGEN--\":9392:9393   */\n      dup1\n        /* \"--CODEGEN--\":9385:9397   */\n      revert\n        /* \"--CODEGEN--\":9347:9349   */\n    tag_722:\n        /* \"--CODEGEN--\":9430:9431   */\n      0x00\n        /* \"--CODEGEN--\":9447:9500   */\n      tag_723\n        /* \"--CODEGEN--\":9492:9499   */\n      dup7\n        /* \"--CODEGEN--\":9483:9489   */\n      dup3\n        /* \"--CODEGEN--\":9472:9481   */\n      dup8\n        /* \"--CODEGEN--\":9468:9490   */\n      add\n        /* \"--CODEGEN--\":9447:9500   */\n      jump(tag_659)\n    tag_723:\n        /* \"--CODEGEN--\":9437:9500   */\n      swap4\n      pop\n        /* \"--CODEGEN--\":9409:9506   */\n      pop\n        /* \"--CODEGEN--\":9537:9539   */\n      0x20\n        /* \"--CODEGEN--\":9555:9608   */\n      tag_724\n        /* \"--CODEGEN--\":9600:9607   */\n      dup7\n        /* \"--CODEGEN--\":9591:9597   */\n      dup3\n        /* \"--CODEGEN--\":9580:9589   */\n      dup8\n        /* \"--CODEGEN--\":9576:9598   */\n      add\n        /* \"--CODEGEN--\":9555:9608   */\n      jump(tag_628)\n    tag_724:\n        /* \"--CODEGEN--\":9545:9608   */\n      swap3\n      pop\n        /* \"--CODEGEN--\":9516:9614   */\n      pop\n        /* \"--CODEGEN--\":9645:9647   */\n      0x40\n        /* \"--CODEGEN--\":9663:9713   */\n      tag_725\n        /* \"--CODEGEN--\":9705:9712   */\n      dup7\n        /* \"--CODEGEN--\":9696:9702   */\n      dup3\n        /* \"--CODEGEN--\":9685:9694   */\n      dup8\n        /* \"--CODEGEN--\":9681:9703   */\n      add\n        /* \"--CODEGEN--\":9663:9713   */\n      jump(tag_633)\n    tag_725:\n        /* \"--CODEGEN--\":9653:9713   */\n      swap2\n      pop\n        /* \"--CODEGEN--\":9624:9719   */\n      pop\n        /* \"--CODEGEN--\":9341:9729   */\n      swap3\n      pop\n      swap3\n      pop\n      swap3\n      jump\n        /* \"--CODEGEN--\":9736:10227   */\n    tag_179:\n      0x00\n      dup1\n      0x00\n        /* \"--CODEGEN--\":9874:9876   */\n      0x60\n        /* \"--CODEGEN--\":9862:9871   */\n      dup5\n        /* \"--CODEGEN--\":9853:9860   */\n      dup7\n        /* \"--CODEGEN--\":9849:9872   */\n      sub\n        /* \"--CODEGEN--\":9845:9877   */\n      slt\n        /* \"--CODEGEN--\":9842:9844   */\n      iszero\n      tag_726\n      jumpi\n        /* \"--CODEGEN--\":9890:9891   */\n      0x00\n        /* \"--CODEGEN--\":9887:9888   */\n      dup1\n        /* \"--CODEGEN--\":9880:9892   */\n      revert\n        /* \"--CODEGEN--\":9842:9844   */\n    tag_726:\n        /* \"--CODEGEN--\":9925:9926   */\n      0x00\n        /* \"--CODEGEN--\":9942:9995   */\n      tag_727\n        /* \"--CODEGEN--\":9987:9994   */\n      dup7\n        /* \"--CODEGEN--\":9978:9984   */\n      dup3\n        /* \"--CODEGEN--\":9967:9976   */\n      dup8\n        /* \"--CODEGEN--\":9963:9985   */\n      add\n        /* \"--CODEGEN--\":9942:9995   */\n      jump(tag_659)\n    tag_727:\n        /* \"--CODEGEN--\":9932:9995   */\n      swap4\n      pop\n        /* \"--CODEGEN--\":9904:10001   */\n      pop\n        /* \"--CODEGEN--\":10032:10034   */\n      0x20\n        /* \"--CODEGEN--\":10050:10103   */\n      tag_728\n        /* \"--CODEGEN--\":10095:10102   */\n      dup7\n        /* \"--CODEGEN--\":10086:10092   */\n      dup3\n        /* \"--CODEGEN--\":10075:10084   */\n      dup8\n        /* \"--CODEGEN--\":10071:10093   */\n      add\n        /* \"--CODEGEN--\":10050:10103   */\n      jump(tag_628)\n    tag_728:\n        /* \"--CODEGEN--\":10040:10103   */\n      swap3\n      pop\n        /* \"--CODEGEN--\":10011:10109   */\n      pop\n        /* \"--CODEGEN--\":10140:10142   */\n      0x40\n        /* \"--CODEGEN--\":10158:10211   */\n      tag_729\n        /* \"--CODEGEN--\":10203:10210   */\n      dup7\n        /* \"--CODEGEN--\":10194:10200   */\n      dup3\n        /* \"--CODEGEN--\":10183:10192   */\n      dup8\n        /* \"--CODEGEN--\":10179:10201   */\n      add\n        /* \"--CODEGEN--\":10158:10211   */\n      jump(tag_659)\n    tag_729:\n        /* \"--CODEGEN--\":10148:10211   */\n      swap2\n      pop\n        /* \"--CODEGEN--\":10119:10217   */\n      pop\n        /* \"--CODEGEN--\":9836:10227   */\n      swap3\n      pop\n      swap3\n      pop\n      swap3\n      jump\n        /* \"--CODEGEN--\":10234:10851   */\n    tag_210:\n      0x00\n      dup1\n      0x00\n      dup1\n        /* \"--CODEGEN--\":10389:10392   */\n      0x80\n        /* \"--CODEGEN--\":10377:10386   */\n      dup6\n        /* \"--CODEGEN--\":10368:10375   */\n      dup8\n        /* \"--CODEGEN--\":10364:10387   */\n      sub\n        /* \"--CODEGEN--\":10360:10393   */\n      slt\n        /* \"--CODEGEN--\":10357:10359   */\n      iszero\n      tag_730\n      jumpi\n        /* \"--CODEGEN--\":10406:10407   */\n      0x00\n        /* \"--CODEGEN--\":10403:10404   */\n      dup1\n        /* \"--CODEGEN--\":10396:10408   */\n      revert\n        /* \"--CODEGEN--\":10357:10359   */\n    tag_730:\n        /* \"--CODEGEN--\":10441:10442   */\n      0x00\n        /* \"--CODEGEN--\":10458:10511   */\n      tag_731\n        /* \"--CODEGEN--\":10503:10510   */\n      dup8\n        /* \"--CODEGEN--\":10494:10500   */\n      dup3\n        /* \"--CODEGEN--\":10483:10492   */\n      dup9\n        /* \"--CODEGEN--\":10479:10501   */\n      add\n        /* \"--CODEGEN--\":10458:10511   */\n      jump(tag_659)\n    tag_731:\n        /* \"--CODEGEN--\":10448:10511   */\n      swap5\n      pop\n        /* \"--CODEGEN--\":10420:10517   */\n      pop\n        /* \"--CODEGEN--\":10548:10550   */\n      0x20\n        /* \"--CODEGEN--\":10566:10619   */\n      tag_732\n        /* \"--CODEGEN--\":10611:10618   */\n      dup8\n        /* \"--CODEGEN--\":10602:10608   */\n      dup3\n        /* \"--CODEGEN--\":10591:10600   */\n      dup9\n        /* \"--CODEGEN--\":10587:10609   */\n      add\n        /* \"--CODEGEN--\":10566:10619   */\n      jump(tag_628)\n    tag_732:\n        /* \"--CODEGEN--\":10556:10619   */\n      swap4\n      pop\n        /* \"--CODEGEN--\":10527:10625   */\n      pop\n        /* \"--CODEGEN--\":10656:10658   */\n      0x40\n        /* \"--CODEGEN--\":10674:10727   */\n      tag_733\n        /* \"--CODEGEN--\":10719:10726   */\n      dup8\n        /* \"--CODEGEN--\":10710:10716   */\n      dup3\n        /* \"--CODEGEN--\":10699:10708   */\n      dup9\n        /* \"--CODEGEN--\":10695:10717   */\n      add\n        /* \"--CODEGEN--\":10674:10727   */\n      jump(tag_659)\n    tag_733:\n        /* \"--CODEGEN--\":10664:10727   */\n      swap3\n      pop\n        /* \"--CODEGEN--\":10635:10733   */\n      pop\n        /* \"--CODEGEN--\":10764:10766   */\n      0x60\n        /* \"--CODEGEN--\":10782:10835   */\n      tag_734\n        /* \"--CODEGEN--\":10827:10834   */\n      dup8\n        /* \"--CODEGEN--\":10818:10824   */\n      dup3\n        /* \"--CODEGEN--\":10807:10816   */\n      dup9\n        /* \"--CODEGEN--\":10803:10825   */\n      add\n        /* \"--CODEGEN--\":10782:10835   */\n      jump(tag_628)\n    tag_734:\n        /* \"--CODEGEN--\":10772:10835   */\n      swap2\n      pop\n        /* \"--CODEGEN--\":10743:10841   */\n      pop\n        /* \"--CODEGEN--\":10351:10851   */\n      swap3\n      swap6\n      swap2\n      swap5\n      pop\n      swap3\n      pop\n      jump\n        /* \"--CODEGEN--\":10858:11979   */\n    tag_135:\n      0x00\n      dup1\n      0x00\n      dup1\n      0x00\n      dup1\n      0x00\n      dup1\n        /* \"--CODEGEN--\":11081:11084   */\n      0x0100\n        /* \"--CODEGEN--\":11069:11078   */\n      dup10\n        /* \"--CODEGEN--\":11060:11067   */\n      dup12\n        /* \"--CODEGEN--\":11056:11079   */\n      sub\n        /* \"--CODEGEN--\":11052:11085   */\n      slt\n        /* \"--CODEGEN--\":11049:11051   */\n      iszero\n      tag_735\n      jumpi\n        /* \"--CODEGEN--\":11098:11099   */\n      0x00\n        /* \"--CODEGEN--\":11095:11096   */\n      dup1\n        /* \"--CODEGEN--\":11088:11100   */\n      revert\n        /* \"--CODEGEN--\":11049:11051   */\n    tag_735:\n        /* \"--CODEGEN--\":11133:11134   */\n      0x00\n        /* \"--CODEGEN--\":11150:11203   */\n      tag_736\n        /* \"--CODEGEN--\":11195:11202   */\n      dup12\n        /* \"--CODEGEN--\":11186:11192   */\n      dup3\n        /* \"--CODEGEN--\":11175:11184   */\n      dup13\n        /* \"--CODEGEN--\":11171:11193   */\n      add\n        /* \"--CODEGEN--\":11150:11203   */\n      jump(tag_659)\n    tag_736:\n        /* \"--CODEGEN--\":11140:11203   */\n      swap9\n      pop\n        /* \"--CODEGEN--\":11112:11209   */\n      pop\n        /* \"--CODEGEN--\":11240:11242   */\n      0x20\n        /* \"--CODEGEN--\":11258:11311   */\n      tag_737\n        /* \"--CODEGEN--\":11303:11310   */\n      dup12\n        /* \"--CODEGEN--\":11294:11300   */\n      dup3\n        /* \"--CODEGEN--\":11283:11292   */\n      dup13\n        /* \"--CODEGEN--\":11279:11301   */\n      add\n        /* \"--CODEGEN--\":11258:11311   */\n      jump(tag_659)\n    tag_737:\n        /* \"--CODEGEN--\":11248:11311   */\n      swap8\n      pop\n        /* \"--CODEGEN--\":11219:11317   */\n      pop\n        /* \"--CODEGEN--\":11348:11350   */\n      0x40\n        /* \"--CODEGEN--\":11366:11419   */\n      tag_738\n        /* \"--CODEGEN--\":11411:11418   */\n      dup12\n        /* \"--CODEGEN--\":11402:11408   */\n      dup3\n        /* \"--CODEGEN--\":11391:11400   */\n      dup13\n        /* \"--CODEGEN--\":11387:11409   */\n      add\n        /* \"--CODEGEN--\":11366:11419   */\n      jump(tag_659)\n    tag_738:\n        /* \"--CODEGEN--\":11356:11419   */\n      swap7\n      pop\n        /* \"--CODEGEN--\":11327:11425   */\n      pop\n        /* \"--CODEGEN--\":11456:11458   */\n      0x60\n        /* \"--CODEGEN--\":11474:11527   */\n      tag_739\n        /* \"--CODEGEN--\":11519:11526   */\n      dup12\n        /* \"--CODEGEN--\":11510:11516   */\n      dup3\n        /* \"--CODEGEN--\":11499:11508   */\n      dup13\n        /* \"--CODEGEN--\":11495:11517   */\n      add\n        /* \"--CODEGEN--\":11474:11527   */\n      jump(tag_659)\n    tag_739:\n        /* \"--CODEGEN--\":11464:11527   */\n      swap6\n      pop\n        /* \"--CODEGEN--\":11435:11533   */\n      pop\n        /* \"--CODEGEN--\":11564:11567   */\n      0x80\n        /* \"--CODEGEN--\":11583:11636   */\n      tag_740\n        /* \"--CODEGEN--\":11628:11635   */\n      dup12\n        /* \"--CODEGEN--\":11619:11625   */\n      dup3\n        /* \"--CODEGEN--\":11608:11617   */\n      dup13\n        /* \"--CODEGEN--\":11604:11626   */\n      add\n        /* \"--CODEGEN--\":11583:11636   */\n      jump(tag_659)\n    tag_740:\n        /* \"--CODEGEN--\":11573:11636   */\n      swap5\n      pop\n        /* \"--CODEGEN--\":11543:11642   */\n      pop\n        /* \"--CODEGEN--\":11673:11676   */\n      0xa0\n        /* \"--CODEGEN--\":11692:11745   */\n      tag_741\n        /* \"--CODEGEN--\":11737:11744   */\n      dup12\n        /* \"--CODEGEN--\":11728:11734   */\n      dup3\n        /* \"--CODEGEN--\":11717:11726   */\n      dup13\n        /* \"--CODEGEN--\":11713:11735   */\n      add\n        /* \"--CODEGEN--\":11692:11745   */\n      jump(tag_659)\n    tag_741:\n        /* \"--CODEGEN--\":11682:11745   */\n      swap4\n      pop\n        /* \"--CODEGEN--\":11652:11751   */\n      pop\n        /* \"--CODEGEN--\":11782:11785   */\n      0xc0\n        /* \"--CODEGEN--\":11801:11854   */\n      tag_742\n        /* \"--CODEGEN--\":11846:11853   */\n      dup12\n        /* \"--CODEGEN--\":11837:11843   */\n      dup3\n        /* \"--CODEGEN--\":11826:11835   */\n      dup13\n        /* \"--CODEGEN--\":11822:11844   */\n      add\n        /* \"--CODEGEN--\":11801:11854   */\n      jump(tag_628)\n    tag_742:\n        /* \"--CODEGEN--\":11791:11854   */\n      swap3\n      pop\n        /* \"--CODEGEN--\":11761:11860   */\n      pop\n        /* \"--CODEGEN--\":11891:11894   */\n      0xe0\n        /* \"--CODEGEN--\":11910:11963   */\n      tag_743\n        /* \"--CODEGEN--\":11955:11962   */\n      dup12\n        /* \"--CODEGEN--\":11946:11952   */\n      dup3\n        /* \"--CODEGEN--\":11935:11944   */\n      dup13\n        /* \"--CODEGEN--\":11931:11953   */\n      add\n        /* \"--CODEGEN--\":11910:11963   */\n      jump(tag_628)\n    tag_743:\n        /* \"--CODEGEN--\":11900:11963   */\n      swap2\n      pop\n        /* \"--CODEGEN--\":11870:11969   */\n      pop\n        /* \"--CODEGEN--\":11043:11979   */\n      swap3\n      swap6\n      swap9\n      pop\n      swap3\n      swap6\n      swap9\n      swap1\n      swap4\n      swap7\n      pop\n      jump\n        /* \"--CODEGEN--\":11987:12160   */\n    tag_744:\n      0x00\n        /* \"--CODEGEN--\":12074:12120   */\n      tag_745\n        /* \"--CODEGEN--\":12116:12119   */\n      dup4\n        /* \"--CODEGEN--\":12108:12114   */\n      dup4\n        /* \"--CODEGEN--\":12074:12120   */\n      jump(tag_746)\n    tag_745:\n        /* \"--CODEGEN--\":12149:12153   */\n      0x20\n        /* \"--CODEGEN--\":12144:12147   */\n      dup4\n        /* \"--CODEGEN--\":12140:12154   */\n      add\n        /* \"--CODEGEN--\":12126:12154   */\n      swap1\n      pop\n        /* \"--CODEGEN--\":12067:12160   */\n      swap3\n      swap2\n      pop\n      pop\n      jump\n        /* \"--CODEGEN--\":12168:12310   */\n    tag_747:\n        /* \"--CODEGEN--\":12259:12304   */\n      tag_748\n        /* \"--CODEGEN--\":12298:12303   */\n      dup2\n        /* \"--CODEGEN--\":12259:12304   */\n      jump(tag_749)\n    tag_748:\n        /* \"--CODEGEN--\":12254:12257   */\n      dup3\n        /* \"--CODEGEN--\":12247:12305   */\n      mstore\n        /* \"--CODEGEN--\":12241:12310   */\n      pop\n      pop\n      jump\n        /* \"--CODEGEN--\":12317:12420   */\n    tag_746:\n        /* \"--CODEGEN--\":12390:12414   */\n      tag_750\n        /* \"--CODEGEN--\":12408:12413   */\n      dup2\n        /* \"--CODEGEN--\":12390:12414   */\n      jump(tag_751)\n    tag_750:\n        /* \"--CODEGEN--\":12385:12388   */\n      dup3\n        /* \"--CODEGEN--\":12378:12415   */\n      mstore\n        /* \"--CODEGEN--\":12372:12420   */\n      pop\n      pop\n      jump\n        /* \"--CODEGEN--\":12427:12540   */\n    tag_752:\n        /* \"--CODEGEN--\":12510:12534   */\n      tag_753\n        /* \"--CODEGEN--\":12528:12533   */\n      dup2\n        /* \"--CODEGEN--\":12510:12534   */\n      jump(tag_751)\n    tag_753:\n        /* \"--CODEGEN--\":12505:12508   */\n      dup3\n        /* \"--CODEGEN--\":12498:12535   */\n      mstore\n        /* \"--CODEGEN--\":12492:12540   */\n      pop\n      pop\n      jump\n        /* \"--CODEGEN--\":12578:13268   */\n    tag_754:\n      0x00\n        /* \"--CODEGEN--\":12723:12777   */\n      tag_755\n        /* \"--CODEGEN--\":12771:12776   */\n      dup3\n        /* \"--CODEGEN--\":12723:12777   */\n      jump(tag_756)\n    tag_755:\n        /* \"--CODEGEN--\":12790:12876   */\n      tag_757\n        /* \"--CODEGEN--\":12869:12875   */\n      dup2\n        /* \"--CODEGEN--\":12864:12867   */\n      dup6\n        /* \"--CODEGEN--\":12790:12876   */\n      jump(tag_758)\n    tag_757:\n        /* \"--CODEGEN--\":12783:12876   */\n      swap4\n      pop\n        /* \"--CODEGEN--\":12897:12953   */\n      tag_759\n        /* \"--CODEGEN--\":12947:12952   */\n      dup4\n        /* \"--CODEGEN--\":12897:12953   */\n      jump(tag_760)\n    tag_759:\n        /* \"--CODEGEN--\":12973:12980   */\n      dup1\n        /* \"--CODEGEN--\":13001:13002   */\n      0x00\n        /* \"--CODEGEN--\":12986:13246   */\n    tag_761:\n        /* \"--CODEGEN--\":13011:13017   */\n      dup4\n        /* \"--CODEGEN--\":13008:13009   */\n      dup2\n        /* \"--CODEGEN--\":13005:13018   */\n      lt\n        /* \"--CODEGEN--\":12986:13246   */\n      iszero\n      tag_763\n      jumpi\n        /* \"--CODEGEN--\":13078:13084   */\n      dup2\n        /* \"--CODEGEN--\":13072:13085   */\n      mload\n        /* \"--CODEGEN--\":13099:13162   */\n      tag_764\n        /* \"--CODEGEN--\":13158:13161   */\n      dup9\n        /* \"--CODEGEN--\":13143:13156   */\n      dup3\n        /* \"--CODEGEN--\":13099:13162   */\n      jump(tag_744)\n    tag_764:\n        /* \"--CODEGEN--\":13092:13162   */\n      swap8\n      pop\n        /* \"--CODEGEN--\":13179:13239   */\n      tag_765\n        /* \"--CODEGEN--\":13232:13238   */\n      dup4\n        /* \"--CODEGEN--\":13179:13239   */\n      jump(tag_766)\n    tag_765:\n        /* \"--CODEGEN--\":13169:13239   */\n      swap3\n      pop\n        /* \"--CODEGEN--\":13043:13246   */\n      pop\n        /* \"--CODEGEN--\":13033:13034   */\n      0x01\n        /* \"--CODEGEN--\":13030:13031   */\n      dup2\n        /* \"--CODEGEN--\":13026:13035   */\n      add\n        /* \"--CODEGEN--\":13021:13035   */\n      swap1\n      pop\n        /* \"--CODEGEN--\":12986:13246   */\n      jump(tag_761)\n    tag_763:\n        /* \"--CODEGEN--\":12990:13004   */\n      pop\n        /* \"--CODEGEN--\":13259:13262   */\n      dup6\n        /* \"--CODEGEN--\":13252:13262   */\n      swap4\n      pop\n        /* \"--CODEGEN--\":12702:13268   */\n      pop\n      pop\n      pop\n      swap3\n      swap2\n      pop\n      pop\n      jump\n        /* \"--CODEGEN--\":13276:13380   */\n    tag_767:\n        /* \"--CODEGEN--\":13353:13374   */\n      tag_768\n        /* \"--CODEGEN--\":13368:13373   */\n      dup2\n        /* \"--CODEGEN--\":13353:13374   */\n      jump(tag_769)\n    tag_768:\n        /* \"--CODEGEN--\":13348:13351   */\n      dup3\n        /* \"--CODEGEN--\":13341:13375   */\n      mstore\n        /* \"--CODEGEN--\":13335:13380   */\n      pop\n      pop\n      jump\n        /* \"--CODEGEN--\":13387:13497   */\n    tag_770:\n        /* \"--CODEGEN--\":13468:13491   */\n      tag_771\n        /* \"--CODEGEN--\":13485:13490   */\n      dup2\n        /* \"--CODEGEN--\":13468:13491   */\n      jump(tag_772)\n    tag_771:\n        /* \"--CODEGEN--\":13463:13466   */\n      dup3\n        /* \"--CODEGEN--\":13456:13492   */\n      mstore\n        /* \"--CODEGEN--\":13450:13497   */\n      pop\n      pop\n      jump\n        /* \"--CODEGEN--\":13504:13847   */\n    tag_773:\n      0x00\n        /* \"--CODEGEN--\":13614:13652   */\n      tag_774\n        /* \"--CODEGEN--\":13646:13651   */\n      dup3\n        /* \"--CODEGEN--\":13614:13652   */\n      jump(tag_775)\n    tag_774:\n        /* \"--CODEGEN--\":13664:13734   */\n      tag_776\n        /* \"--CODEGEN--\":13727:13733   */\n      dup2\n        /* \"--CODEGEN--\":13722:13725   */\n      dup6\n        /* \"--CODEGEN--\":13664:13734   */\n      jump(tag_777)\n    tag_776:\n        /* \"--CODEGEN--\":13657:13734   */\n      swap4\n      pop\n        /* \"--CODEGEN--\":13739:13791   */\n      tag_778\n        /* \"--CODEGEN--\":13784:13790   */\n      dup2\n        /* \"--CODEGEN--\":13779:13782   */\n      dup6\n        /* \"--CODEGEN--\":13772:13776   */\n      0x20\n        /* \"--CODEGEN--\":13765:13770   */\n      dup7\n        /* \"--CODEGEN--\":13761:13777   */\n      add\n        /* \"--CODEGEN--\":13739:13791   */\n      jump(tag_658)\n    tag_778:\n        /* \"--CODEGEN--\":13812:13841   */\n      tag_779\n        /* \"--CODEGEN--\":13834:13840   */\n      dup2\n        /* \"--CODEGEN--\":13812:13841   */\n      jump(tag_780)\n    tag_779:\n        /* \"--CODEGEN--\":13807:13810   */\n      dup5\n        /* \"--CODEGEN--\":13803:13842   */\n      add\n        /* \"--CODEGEN--\":13796:13842   */\n      swap2\n      pop\n        /* \"--CODEGEN--\":13594:13847   */\n      pop\n      swap3\n      swap2\n      pop\n      pop\n      jump\n        /* \"--CODEGEN--\":13854:13996   */\n    tag_781:\n        /* \"--CODEGEN--\":13945:13990   */\n      tag_782\n        /* \"--CODEGEN--\":13984:13989   */\n      dup2\n        /* \"--CODEGEN--\":13945:13990   */\n      jump(tag_783)\n    tag_782:\n        /* \"--CODEGEN--\":13940:13943   */\n      dup3\n        /* \"--CODEGEN--\":13933:13991   */\n      mstore\n        /* \"--CODEGEN--\":13927:13996   */\n      pop\n      pop\n      jump\n        /* \"--CODEGEN--\":14003:14350   */\n    tag_784:\n      0x00\n        /* \"--CODEGEN--\":14115:14154   */\n      tag_785\n        /* \"--CODEGEN--\":14148:14153   */\n      dup3\n        /* \"--CODEGEN--\":14115:14154   */\n      jump(tag_786)\n    tag_785:\n        /* \"--CODEGEN--\":14166:14237   */\n      tag_787\n        /* \"--CODEGEN--\":14230:14236   */\n      dup2\n        /* \"--CODEGEN--\":14225:14228   */\n      dup6\n        /* \"--CODEGEN--\":14166:14237   */\n      jump(tag_788)\n    tag_787:\n        /* \"--CODEGEN--\":14159:14237   */\n      swap4\n      pop\n        /* \"--CODEGEN--\":14242:14294   */\n      tag_789\n        /* \"--CODEGEN--\":14287:14293   */\n      dup2\n        /* \"--CODEGEN--\":14282:14285   */\n      dup6\n        /* \"--CODEGEN--\":14275:14279   */\n      0x20\n        /* \"--CODEGEN--\":14268:14273   */\n      dup7\n        /* \"--CODEGEN--\":14264:14280   */\n      add\n        /* \"--CODEGEN--\":14242:14294   */\n      jump(tag_658)\n    tag_789:\n        /* \"--CODEGEN--\":14315:14344   */\n      tag_790\n        /* \"--CODEGEN--\":14337:14343   */\n      dup2\n        /* \"--CODEGEN--\":14315:14344   */\n      jump(tag_780)\n    tag_790:\n        /* \"--CODEGEN--\":14310:14313   */\n      dup5\n        /* \"--CODEGEN--\":14306:14345   */\n      add\n        /* \"--CODEGEN--\":14299:14345   */\n      swap2\n      pop\n        /* \"--CODEGEN--\":14095:14350   */\n      pop\n      swap3\n      swap2\n      pop\n      pop\n      jump\n        /* \"--CODEGEN--\":14382:15266   */\n    tag_791:\n      0x00\n        /* \"--CODEGEN--\":14519:14524   */\n      dup2\n        /* \"--CODEGEN--\":14513:14525   */\n      sload\n        /* \"--CODEGEN--\":14553:14554   */\n      0x01\n        /* \"--CODEGEN--\":14542:14551   */\n      dup2\n        /* \"--CODEGEN--\":14538:14555   */\n      and\n        /* \"--CODEGEN--\":14566:14567   */\n      0x00\n        /* \"--CODEGEN--\":14561:14829   */\n      dup2\n      eq\n      tag_793\n      jumpi\n        /* \"--CODEGEN--\":14840:14841   */\n      0x01\n        /* \"--CODEGEN--\":14835:15260   */\n      dup2\n      eq\n      tag_794\n      jumpi\n        /* \"--CODEGEN--\":14531:15260   */\n      jump(tag_792)\n        /* \"--CODEGEN--\":14561:14829   */\n    tag_793:\n        /* \"--CODEGEN--\":14639:14643   */\n      0x7f\n        /* \"--CODEGEN--\":14635:14636   */\n      0x02\n        /* \"--CODEGEN--\":14624:14633   */\n      dup4\n        /* \"--CODEGEN--\":14620:14637   */\n      div\n        /* \"--CODEGEN--\":14616:14644   */\n      and\n        /* \"--CODEGEN--\":14658:14747   */\n      tag_795\n        /* \"--CODEGEN--\":14740:14746   */\n      dup2\n        /* \"--CODEGEN--\":14735:14738   */\n      dup8\n        /* \"--CODEGEN--\":14658:14747   */\n      jump(tag_796)\n    tag_795:\n        /* \"--CODEGEN--\":14651:14747   */\n      swap6\n      pop\n        /* \"--CODEGEN--\":14785:14789   */\n      0xff\n        /* \"--CODEGEN--\":14781:14790   */\n      not\n        /* \"--CODEGEN--\":14770:14779   */\n      dup4\n        /* \"--CODEGEN--\":14766:14791   */\n      and\n        /* \"--CODEGEN--\":14761:14764   */\n      dup7\n        /* \"--CODEGEN--\":14754:14792   */\n      mstore\n        /* \"--CODEGEN--\":14815:14821   */\n      dup1\n        /* \"--CODEGEN--\":14810:14813   */\n      dup7\n        /* \"--CODEGEN--\":14806:14822   */\n      add\n        /* \"--CODEGEN--\":14799:14822   */\n      swap4\n      pop\n        /* \"--CODEGEN--\":14568:14829   */\n      pop\n        /* \"--CODEGEN--\":14561:14829   */\n      jump(tag_792)\n        /* \"--CODEGEN--\":14835:15260   */\n    tag_794:\n        /* \"--CODEGEN--\":14904:14905   */\n      0x02\n        /* \"--CODEGEN--\":14893:14902   */\n      dup3\n        /* \"--CODEGEN--\":14889:14906   */\n      div\n        /* \"--CODEGEN--\":14920:15009   */\n      tag_797\n        /* \"--CODEGEN--\":15002:15008   */\n      dup2\n        /* \"--CODEGEN--\":14997:15000   */\n      dup8\n        /* \"--CODEGEN--\":14920:15009   */\n      jump(tag_796)\n    tag_797:\n        /* \"--CODEGEN--\":14913:15009   */\n      swap6\n      pop\n        /* \"--CODEGEN--\":15031:15069   */\n      tag_798\n        /* \"--CODEGEN--\":15063:15068   */\n      dup6\n        /* \"--CODEGEN--\":15031:15069   */\n      jump(tag_799)\n    tag_798:\n        /* \"--CODEGEN--\":15085:15086   */\n      0x00\n        /* \"--CODEGEN--\":15093:15223   */\n    tag_800:\n        /* \"--CODEGEN--\":15107:15113   */\n      dup3\n        /* \"--CODEGEN--\":15104:15105   */\n      dup2\n        /* \"--CODEGEN--\":15101:15114   */\n      lt\n        /* \"--CODEGEN--\":15093:15223   */\n      iszero\n      tag_802\n      jumpi\n        /* \"--CODEGEN--\":15172:15179   */\n      dup2\n        /* \"--CODEGEN--\":15166:15180   */\n      sload\n        /* \"--CODEGEN--\":15162:15163   */\n      dup2\n        /* \"--CODEGEN--\":15157:15160   */\n      dup10\n        /* \"--CODEGEN--\":15153:15164   */\n      add\n        /* \"--CODEGEN--\":15146:15181   */\n      mstore\n        /* \"--CODEGEN--\":15213:15214   */\n      0x01\n        /* \"--CODEGEN--\":15204:15211   */\n      dup3\n        /* \"--CODEGEN--\":15200:15215   */\n      add\n        /* \"--CODEGEN--\":15189:15215   */\n      swap2\n      pop\n        /* \"--CODEGEN--\":15129:15133   */\n      0x20\n        /* \"--CODEGEN--\":15126:15127   */\n      dup2\n        /* \"--CODEGEN--\":15122:15134   */\n      add\n        /* \"--CODEGEN--\":15117:15134   */\n      swap1\n      pop\n        /* \"--CODEGEN--\":15093:15223   */\n      jump(tag_800)\n    tag_802:\n        /* \"--CODEGEN--\":15246:15252   */\n      dup3\n        /* \"--CODEGEN--\":15241:15244   */\n      dup9\n        /* \"--CODEGEN--\":15237:15253   */\n      add\n        /* \"--CODEGEN--\":15230:15253   */\n      swap6\n      pop\n        /* \"--CODEGEN--\":14842:15260   */\n      pop\n      pop\n      pop\n        /* \"--CODEGEN--\":14531:15260   */\n    tag_792:\n      pop\n        /* \"--CODEGEN--\":14489:15266   */\n      pop\n      swap3\n      swap2\n      pop\n      pop\n      jump\n        /* \"--CODEGEN--\":15275:15650   */\n    tag_803:\n      0x00\n        /* \"--CODEGEN--\":15435:15502   */\n      tag_804\n        /* \"--CODEGEN--\":15499:15501   */\n      0x26\n        /* \"--CODEGEN--\":15494:15497   */\n      dup4\n        /* \"--CODEGEN--\":15435:15502   */\n      jump(tag_788)\n    tag_804:\n        /* \"--CODEGEN--\":15428:15502   */\n      swap2\n      pop\n        /* \"--CODEGEN--\":15535:15569   */\n      0x4f776e61626c653a206e6577206f776e657220697320746865207a65726f2061\n        /* \"--CODEGEN--\":15531:15532   */\n      0x00\n        /* \"--CODEGEN--\":15526:15529   */\n      dup4\n        /* \"--CODEGEN--\":15522:15533   */\n      add\n        /* \"--CODEGEN--\":15515:15570   */\n      mstore\n        /* \"--CODEGEN--\":15604:15612   */\n      0x6464726573730000000000000000000000000000000000000000000000000000\n        /* \"--CODEGEN--\":15599:15601   */\n      0x20\n        /* \"--CODEGEN--\":15594:15597   */\n      dup4\n        /* \"--CODEGEN--\":15590:15602   */\n      add\n        /* \"--CODEGEN--\":15583:15613   */\n      mstore\n        /* \"--CODEGEN--\":15641:15643   */\n      0x40\n        /* \"--CODEGEN--\":15636:15639   */\n      dup3\n        /* \"--CODEGEN--\":15632:15644   */\n      add\n        /* \"--CODEGEN--\":15625:15644   */\n      swap1\n      pop\n        /* \"--CODEGEN--\":15421:15650   */\n      swap2\n      swap1\n      pop\n      jump\n        /* \"--CODEGEN--\":15659:16031   */\n    tag_805:\n      0x00\n        /* \"--CODEGEN--\":15819:15886   */\n      tag_806\n        /* \"--CODEGEN--\":15883:15885   */\n      0x23\n        /* \"--CODEGEN--\":15878:15881   */\n      dup4\n        /* \"--CODEGEN--\":15819:15886   */\n      jump(tag_788)\n    tag_806:\n        /* \"--CODEGEN--\":15812:15886   */\n      swap2\n      pop\n        /* \"--CODEGEN--\":15919:15953   */\n      0x41646d696e4d616e616765723a2061646d696e20616e64206f776e6572206f6e\n        /* \"--CODEGEN--\":15915:15916   */\n      0x00\n        /* \"--CODEGEN--\":15910:15913   */\n      dup4\n        /* \"--CODEGEN--\":15906:15917   */\n      add\n        /* \"--CODEGEN--\":15899:15954   */\n      mstore\n        /* \"--CODEGEN--\":15988:15993   */\n      0x6c792e0000000000000000000000000000000000000000000000000000000000\n        /* \"--CODEGEN--\":15983:15985   */\n      0x20\n        /* \"--CODEGEN--\":15978:15981   */\n      dup4\n        /* \"--CODEGEN--\":15974:15986   */\n      add\n        /* \"--CODEGEN--\":15967:15994   */\n      mstore\n        /* \"--CODEGEN--\":16022:16024   */\n      0x40\n        /* \"--CODEGEN--\":16017:16020   */\n      dup3\n        /* \"--CODEGEN--\":16013:16025   */\n      add\n        /* \"--CODEGEN--\":16006:16025   */\n      swap1\n      pop\n        /* \"--CODEGEN--\":15805:16031   */\n      swap2\n      swap1\n      pop\n      jump\n        /* \"--CODEGEN--\":16040:16367   */\n    tag_807:\n      0x00\n        /* \"--CODEGEN--\":16200:16267   */\n      tag_808\n        /* \"--CODEGEN--\":16264:16266   */\n      0x1b\n        /* \"--CODEGEN--\":16259:16262   */\n      dup4\n        /* \"--CODEGEN--\":16200:16267   */\n      jump(tag_788)\n    tag_808:\n        /* \"--CODEGEN--\":16193:16267   */\n      swap2\n      pop\n        /* \"--CODEGEN--\":16300:16329   */\n      0x546f6b656e206e6f74206170706f726f766520666f72206275726e0000000000\n        /* \"--CODEGEN--\":16296:16297   */\n      0x00\n        /* \"--CODEGEN--\":16291:16294   */\n      dup4\n        /* \"--CODEGEN--\":16287:16298   */\n      add\n        /* \"--CODEGEN--\":16280:16330   */\n      mstore\n        /* \"--CODEGEN--\":16358:16360   */\n      0x20\n        /* \"--CODEGEN--\":16353:16356   */\n      dup3\n        /* \"--CODEGEN--\":16349:16361   */\n      add\n        /* \"--CODEGEN--\":16342:16361   */\n      swap1\n      pop\n        /* \"--CODEGEN--\":16186:16367   */\n      swap2\n      swap1\n      pop\n      jump\n        /* \"--CODEGEN--\":16376:16708   */\n    tag_809:\n      0x00\n        /* \"--CODEGEN--\":16536:16603   */\n      tag_810\n        /* \"--CODEGEN--\":16600:16602   */\n      0x20\n        /* \"--CODEGEN--\":16595:16598   */\n      dup4\n        /* \"--CODEGEN--\":16536:16603   */\n      jump(tag_788)\n    tag_810:\n        /* \"--CODEGEN--\":16529:16603   */\n      swap2\n      pop\n        /* \"--CODEGEN--\":16636:16670   */\n      0x4f776e61626c653a2063616c6c6572206973206e6f7420746865206f776e6572\n        /* \"--CODEGEN--\":16632:16633   */\n      0x00\n        /* \"--CODEGEN--\":16627:16630   */\n      dup4\n        /* \"--CODEGEN--\":16623:16634   */\n      add\n        /* \"--CODEGEN--\":16616:16671   */\n      mstore\n        /* \"--CODEGEN--\":16699:16701   */\n      0x20\n        /* \"--CODEGEN--\":16694:16697   */\n      dup3\n        /* \"--CODEGEN--\":16690:16702   */\n      add\n        /* \"--CODEGEN--\":16683:16702   */\n      swap1\n      pop\n        /* \"--CODEGEN--\":16522:16708   */\n      swap2\n      swap1\n      pop\n      jump\n        /* \"--CODEGEN--\":16717:17038   */\n    tag_811:\n      0x00\n        /* \"--CODEGEN--\":16877:16944   */\n      tag_812\n        /* \"--CODEGEN--\":16941:16943   */\n      0x15\n        /* \"--CODEGEN--\":16936:16939   */\n      dup4\n        /* \"--CODEGEN--\":16877:16944   */\n      jump(tag_788)\n    tag_812:\n        /* \"--CODEGEN--\":16870:16944   */\n      swap2\n      pop\n        /* \"--CODEGEN--\":16977:17000   */\n      0x61646d696e20616c726561647920696e206c6973740000000000000000000000\n        /* \"--CODEGEN--\":16973:16974   */\n      0x00\n        /* \"--CODEGEN--\":16968:16971   */\n      dup4\n        /* \"--CODEGEN--\":16964:16975   */\n      add\n        /* \"--CODEGEN--\":16957:17001   */\n      mstore\n        /* \"--CODEGEN--\":17029:17031   */\n      0x20\n        /* \"--CODEGEN--\":17024:17027   */\n      dup3\n        /* \"--CODEGEN--\":17020:17032   */\n      add\n        /* \"--CODEGEN--\":17013:17032   */\n      swap1\n      pop\n        /* \"--CODEGEN--\":16863:17038   */\n      swap2\n      swap1\n      pop\n      jump\n        /* \"--CODEGEN--\":17046:17159   */\n    tag_813:\n        /* \"--CODEGEN--\":17129:17153   */\n      tag_814\n        /* \"--CODEGEN--\":17147:17152   */\n      dup2\n        /* \"--CODEGEN--\":17129:17153   */\n      jump(tag_815)\n    tag_814:\n        /* \"--CODEGEN--\":17124:17127   */\n      dup3\n        /* \"--CODEGEN--\":17117:17154   */\n      mstore\n        /* \"--CODEGEN--\":17111:17159   */\n      pop\n      pop\n      jump\n        /* \"--CODEGEN--\":17166:17426   */\n    tag_225:\n      0x00\n        /* \"--CODEGEN--\":17309:17401   */\n      tag_816\n        /* \"--CODEGEN--\":17397:17400   */\n      dup3\n        /* \"--CODEGEN--\":17388:17394   */\n      dup5\n        /* \"--CODEGEN--\":17309:17401   */\n      jump(tag_791)\n    tag_816:\n        /* \"--CODEGEN--\":17302:17401   */\n      swap2\n      pop\n        /* \"--CODEGEN--\":17418:17421   */\n      dup2\n        /* \"--CODEGEN--\":17411:17421   */\n      swap1\n      pop\n        /* \"--CODEGEN--\":17290:17426   */\n      swap3\n      swap2\n      pop\n      pop\n      jump\n        /* \"--CODEGEN--\":17433:17646   */\n    tag_64:\n      0x00\n        /* \"--CODEGEN--\":17551:17553   */\n      0x20\n        /* \"--CODEGEN--\":17540:17549   */\n      dup3\n        /* \"--CODEGEN--\":17536:17554   */\n      add\n        /* \"--CODEGEN--\":17528:17554   */\n      swap1\n      pop\n        /* \"--CODEGEN--\":17565:17636   */\n      tag_817\n        /* \"--CODEGEN--\":17633:17634   */\n      0x00\n        /* \"--CODEGEN--\":17622:17631   */\n      dup4\n        /* \"--CODEGEN--\":17618:17635   */\n      add\n        /* \"--CODEGEN--\":17609:17615   */\n      dup5\n        /* \"--CODEGEN--\":17565:17636   */\n      jump(tag_752)\n    tag_817:\n        /* \"--CODEGEN--\":17522:17646   */\n      swap3\n      swap2\n      pop\n      pop\n      jump\n        /* \"--CODEGEN--\":17653:17882   */\n    tag_579:\n      0x00\n        /* \"--CODEGEN--\":17779:17781   */\n      0x20\n        /* \"--CODEGEN--\":17768:17777   */\n      dup3\n        /* \"--CODEGEN--\":17764:17782   */\n      add\n        /* \"--CODEGEN--\":17756:17782   */\n      swap1\n      pop\n        /* \"--CODEGEN--\":17793:17872   */\n      tag_818\n        /* \"--CODEGEN--\":17869:17870   */\n      0x00\n        /* \"--CODEGEN--\":17858:17867   */\n      dup4\n        /* \"--CODEGEN--\":17854:17871   */\n      add\n        /* \"--CODEGEN--\":17845:17851   */\n      dup5\n        /* \"--CODEGEN--\":17793:17872   */\n      jump(tag_747)\n    tag_818:\n        /* \"--CODEGEN--\":17750:17882   */\n      swap3\n      swap2\n      pop\n      pop\n      jump\n        /* \"--CODEGEN--\":17889:18229   */\n    tag_585:\n      0x00\n        /* \"--CODEGEN--\":18043:18045   */\n      0x40\n        /* \"--CODEGEN--\":18032:18041   */\n      dup3\n        /* \"--CODEGEN--\":18028:18046   */\n      add\n        /* \"--CODEGEN--\":18020:18046   */\n      swap1\n      pop\n        /* \"--CODEGEN--\":18057:18136   */\n      tag_819\n        /* \"--CODEGEN--\":18133:18134   */\n      0x00\n        /* \"--CODEGEN--\":18122:18131   */\n      dup4\n        /* \"--CODEGEN--\":18118:18135   */\n      add\n        /* \"--CODEGEN--\":18109:18115   */\n      dup6\n        /* \"--CODEGEN--\":18057:18136   */\n      jump(tag_747)\n    tag_819:\n        /* \"--CODEGEN--\":18147:18219   */\n      tag_820\n        /* \"--CODEGEN--\":18215:18217   */\n      0x20\n        /* \"--CODEGEN--\":18204:18213   */\n      dup4\n        /* \"--CODEGEN--\":18200:18218   */\n      add\n        /* \"--CODEGEN--\":18191:18197   */\n      dup5\n        /* \"--CODEGEN--\":18147:18219   */\n      jump(tag_813)\n    tag_820:\n        /* \"--CODEGEN--\":18014:18229   */\n      swap4\n      swap3\n      pop\n      pop\n      pop\n      jump\n        /* \"--CODEGEN--\":18236:18671   */\n    tag_221:\n      0x00\n        /* \"--CODEGEN--\":18410:18412   */\n      0x60\n        /* \"--CODEGEN--\":18399:18408   */\n      dup3\n        /* \"--CODEGEN--\":18395:18413   */\n      add\n        /* \"--CODEGEN--\":18387:18413   */\n      swap1\n      pop\n        /* \"--CODEGEN--\":18424:18495   */\n      tag_821\n        /* \"--CODEGEN--\":18492:18493   */\n      0x00\n        /* \"--CODEGEN--\":18481:18490   */\n      dup4\n        /* \"--CODEGEN--\":18477:18494   */\n      add\n        /* \"--CODEGEN--\":18468:18474   */\n      dup7\n        /* \"--CODEGEN--\":18424:18495   */\n      jump(tag_752)\n    tag_821:\n        /* \"--CODEGEN--\":18506:18578   */\n      tag_822\n        /* \"--CODEGEN--\":18574:18576   */\n      0x20\n        /* \"--CODEGEN--\":18563:18572   */\n      dup4\n        /* \"--CODEGEN--\":18559:18577   */\n      add\n        /* \"--CODEGEN--\":18550:18556   */\n      dup6\n        /* \"--CODEGEN--\":18506:18578   */\n      jump(tag_752)\n    tag_822:\n        /* \"--CODEGEN--\":18589:18661   */\n      tag_823\n        /* \"--CODEGEN--\":18657:18659   */\n      0x40\n        /* \"--CODEGEN--\":18646:18655   */\n      dup4\n        /* \"--CODEGEN--\":18642:18660   */\n      add\n        /* \"--CODEGEN--\":18633:18639   */\n      dup5\n        /* \"--CODEGEN--\":18589:18661   */\n      jump(tag_813)\n    tag_823:\n        /* \"--CODEGEN--\":18381:18671   */\n      swap5\n      swap4\n      pop\n      pop\n      pop\n      pop\n      jump\n        /* \"--CODEGEN--\":18678:19309   */\n    tag_394:\n      0x00\n        /* \"--CODEGEN--\":18898:18901   */\n      0x80\n        /* \"--CODEGEN--\":18887:18896   */\n      dup3\n        /* \"--CODEGEN--\":18883:18902   */\n      add\n        /* \"--CODEGEN--\":18875:18902   */\n      swap1\n      pop\n        /* \"--CODEGEN--\":18913:18984   */\n      tag_824\n        /* \"--CODEGEN--\":18981:18982   */\n      0x00\n        /* \"--CODEGEN--\":18970:18979   */\n      dup4\n        /* \"--CODEGEN--\":18966:18983   */\n      add\n        /* \"--CODEGEN--\":18957:18963   */\n      dup8\n        /* \"--CODEGEN--\":18913:18984   */\n      jump(tag_752)\n    tag_824:\n        /* \"--CODEGEN--\":18995:19067   */\n      tag_825\n        /* \"--CODEGEN--\":19063:19065   */\n      0x20\n        /* \"--CODEGEN--\":19052:19061   */\n      dup4\n        /* \"--CODEGEN--\":19048:19066   */\n      add\n        /* \"--CODEGEN--\":19039:19045   */\n      dup7\n        /* \"--CODEGEN--\":18995:19067   */\n      jump(tag_752)\n    tag_825:\n        /* \"--CODEGEN--\":19078:19150   */\n      tag_826\n        /* \"--CODEGEN--\":19146:19148   */\n      0x40\n        /* \"--CODEGEN--\":19135:19144   */\n      dup4\n        /* \"--CODEGEN--\":19131:19149   */\n      add\n        /* \"--CODEGEN--\":19122:19128   */\n      dup6\n        /* \"--CODEGEN--\":19078:19150   */\n      jump(tag_813)\n    tag_826:\n        /* \"--CODEGEN--\":19198:19207   */\n      dup2\n        /* \"--CODEGEN--\":19192:19196   */\n      dup2\n        /* \"--CODEGEN--\":19188:19208   */\n      sub\n        /* \"--CODEGEN--\":19183:19185   */\n      0x60\n        /* \"--CODEGEN--\":19172:19181   */\n      dup4\n        /* \"--CODEGEN--\":19168:19186   */\n      add\n        /* \"--CODEGEN--\":19161:19209   */\n      mstore\n        /* \"--CODEGEN--\":19223:19299   */\n      tag_827\n        /* \"--CODEGEN--\":19294:19298   */\n      dup2\n        /* \"--CODEGEN--\":19285:19291   */\n      dup5\n        /* \"--CODEGEN--\":19223:19299   */\n      jump(tag_773)\n    tag_827:\n        /* \"--CODEGEN--\":19215:19299   */\n      swap1\n      pop\n        /* \"--CODEGEN--\":18869:19309   */\n      swap6\n      swap5\n      pop\n      pop\n      pop\n      pop\n      pop\n      jump\n        /* \"--CODEGEN--\":19316:19656   */\n    tag_604:\n      0x00\n        /* \"--CODEGEN--\":19470:19472   */\n      0x40\n        /* \"--CODEGEN--\":19459:19468   */\n      dup3\n        /* \"--CODEGEN--\":19455:19473   */\n      add\n        /* \"--CODEGEN--\":19447:19473   */\n      swap1\n      pop\n        /* \"--CODEGEN--\":19484:19555   */\n      tag_828\n        /* \"--CODEGEN--\":19552:19553   */\n      0x00\n        /* \"--CODEGEN--\":19541:19550   */\n      dup4\n        /* \"--CODEGEN--\":19537:19554   */\n      add\n        /* \"--CODEGEN--\":19528:19534   */\n      dup6\n        /* \"--CODEGEN--\":19484:19555   */\n      jump(tag_752)\n    tag_828:\n        /* \"--CODEGEN--\":19566:19646   */\n      tag_829\n        /* \"--CODEGEN--\":19642:19644   */\n      0x20\n        /* \"--CODEGEN--\":19631:19640   */\n      dup4\n        /* \"--CODEGEN--\":19627:19645   */\n      add\n        /* \"--CODEGEN--\":19618:19624   */\n      dup5\n        /* \"--CODEGEN--\":19566:19646   */\n      jump(tag_781)\n    tag_829:\n        /* \"--CODEGEN--\":19441:19656   */\n      swap4\n      swap3\n      pop\n      pop\n      pop\n      jump\n        /* \"--CODEGEN--\":19663:19987   */\n    tag_227:\n      0x00\n        /* \"--CODEGEN--\":19809:19811   */\n      0x40\n        /* \"--CODEGEN--\":19798:19807   */\n      dup3\n        /* \"--CODEGEN--\":19794:19812   */\n      add\n        /* \"--CODEGEN--\":19786:19812   */\n      swap1\n      pop\n        /* \"--CODEGEN--\":19823:19894   */\n      tag_830\n        /* \"--CODEGEN--\":19891:19892   */\n      0x00\n        /* \"--CODEGEN--\":19880:19889   */\n      dup4\n        /* \"--CODEGEN--\":19876:19893   */\n      add\n        /* \"--CODEGEN--\":19867:19873   */\n      dup6\n        /* \"--CODEGEN--\":19823:19894   */\n      jump(tag_752)\n    tag_830:\n        /* \"--CODEGEN--\":19905:19977   */\n      tag_831\n        /* \"--CODEGEN--\":19973:19975   */\n      0x20\n        /* \"--CODEGEN--\":19962:19971   */\n      dup4\n        /* \"--CODEGEN--\":19958:19976   */\n      add\n        /* \"--CODEGEN--\":19949:19955   */\n      dup5\n        /* \"--CODEGEN--\":19905:19977   */\n      jump(tag_813)\n    tag_831:\n        /* \"--CODEGEN--\":19780:19987   */\n      swap4\n      swap3\n      pop\n      pop\n      pop\n      jump\n        /* \"--CODEGEN--\":19994:20429   */\n    tag_283:\n      0x00\n        /* \"--CODEGEN--\":20168:20170   */\n      0x60\n        /* \"--CODEGEN--\":20157:20166   */\n      dup3\n        /* \"--CODEGEN--\":20153:20171   */\n      add\n        /* \"--CODEGEN--\":20145:20171   */\n      swap1\n      pop\n        /* \"--CODEGEN--\":20182:20253   */\n      tag_832\n        /* \"--CODEGEN--\":20250:20251   */\n      0x00\n        /* \"--CODEGEN--\":20239:20248   */\n      dup4\n        /* \"--CODEGEN--\":20235:20252   */\n      add\n        /* \"--CODEGEN--\":20226:20232   */\n      dup7\n        /* \"--CODEGEN--\":20182:20253   */\n      jump(tag_752)\n    tag_832:\n        /* \"--CODEGEN--\":20264:20336   */\n      tag_833\n        /* \"--CODEGEN--\":20332:20334   */\n      0x20\n        /* \"--CODEGEN--\":20321:20330   */\n      dup4\n        /* \"--CODEGEN--\":20317:20335   */\n      add\n        /* \"--CODEGEN--\":20308:20314   */\n      dup6\n        /* \"--CODEGEN--\":20264:20336   */\n      jump(tag_813)\n    tag_833:\n        /* \"--CODEGEN--\":20347:20419   */\n      tag_834\n        /* \"--CODEGEN--\":20415:20417   */\n      0x40\n        /* \"--CODEGEN--\":20404:20413   */\n      dup4\n        /* \"--CODEGEN--\":20400:20418   */\n      add\n        /* \"--CODEGEN--\":20391:20397   */\n      dup5\n        /* \"--CODEGEN--\":20347:20419   */\n      jump(tag_752)\n    tag_834:\n        /* \"--CODEGEN--\":20139:20429   */\n      swap5\n      swap4\n      pop\n      pop\n      pop\n      pop\n      jump\n        /* \"--CODEGEN--\":20436:20797   */\n    tag_102:\n      0x00\n        /* \"--CODEGEN--\":20604:20606   */\n      0x20\n        /* \"--CODEGEN--\":20593:20602   */\n      dup3\n        /* \"--CODEGEN--\":20589:20607   */\n      add\n        /* \"--CODEGEN--\":20581:20607   */\n      swap1\n      pop\n        /* \"--CODEGEN--\":20654:20663   */\n      dup2\n        /* \"--CODEGEN--\":20648:20652   */\n      dup2\n        /* \"--CODEGEN--\":20644:20664   */\n      sub\n        /* \"--CODEGEN--\":20640:20641   */\n      0x00\n        /* \"--CODEGEN--\":20629:20638   */\n      dup4\n        /* \"--CODEGEN--\":20625:20642   */\n      add\n        /* \"--CODEGEN--\":20618:20665   */\n      mstore\n        /* \"--CODEGEN--\":20679:20787   */\n      tag_835\n        /* \"--CODEGEN--\":20782:20786   */\n      dup2\n        /* \"--CODEGEN--\":20773:20779   */\n      dup5\n        /* \"--CODEGEN--\":20679:20787   */\n      jump(tag_754)\n    tag_835:\n        /* \"--CODEGEN--\":20671:20787   */\n      swap1\n      pop\n        /* \"--CODEGEN--\":20575:20797   */\n      swap3\n      swap2\n      pop\n      pop\n      jump\n        /* \"--CODEGEN--\":20804:21005   */\n    tag_164:\n      0x00\n        /* \"--CODEGEN--\":20916:20918   */\n      0x20\n        /* \"--CODEGEN--\":20905:20914   */\n      dup3\n        /* \"--CODEGEN--\":20901:20919   */\n      add\n        /* \"--CODEGEN--\":20893:20919   */\n      swap1\n      pop\n        /* \"--CODEGEN--\":20930:20995   */\n      tag_836\n        /* \"--CODEGEN--\":20992:20993   */\n      0x00\n        /* \"--CODEGEN--\":20981:20990   */\n      dup4\n        /* \"--CODEGEN--\":20977:20994   */\n      add\n        /* \"--CODEGEN--\":20968:20974   */\n      dup5\n        /* \"--CODEGEN--\":20930:20995   */\n      jump(tag_767)\n    tag_836:\n        /* \"--CODEGEN--\":20887:21005   */\n      swap3\n      swap2\n      pop\n      pop\n      jump\n        /* \"--CODEGEN--\":21012:21221   */\n    tag_71:\n      0x00\n        /* \"--CODEGEN--\":21128:21130   */\n      0x20\n        /* \"--CODEGEN--\":21117:21126   */\n      dup3\n        /* \"--CODEGEN--\":21113:21131   */\n      add\n        /* \"--CODEGEN--\":21105:21131   */\n      swap1\n      pop\n        /* \"--CODEGEN--\":21142:21211   */\n      tag_837\n        /* \"--CODEGEN--\":21208:21209   */\n      0x00\n        /* \"--CODEGEN--\":21197:21206   */\n      dup4\n        /* \"--CODEGEN--\":21193:21210   */\n      add\n        /* \"--CODEGEN--\":21184:21190   */\n      dup5\n        /* \"--CODEGEN--\":21142:21211   */\n      jump(tag_770)\n    tag_837:\n        /* \"--CODEGEN--\":21099:21221   */\n      swap3\n      swap2\n      pop\n      pop\n      jump\n        /* \"--CODEGEN--\":21228:21640   */\n    tag_606:\n      0x00\n        /* \"--CODEGEN--\":21394:21396   */\n      0x40\n        /* \"--CODEGEN--\":21383:21392   */\n      dup3\n        /* \"--CODEGEN--\":21379:21397   */\n      add\n        /* \"--CODEGEN--\":21371:21397   */\n      swap1\n      pop\n        /* \"--CODEGEN--\":21444:21453   */\n      dup2\n        /* \"--CODEGEN--\":21438:21442   */\n      dup2\n        /* \"--CODEGEN--\":21434:21454   */\n      sub\n        /* \"--CODEGEN--\":21430:21431   */\n      0x00\n        /* \"--CODEGEN--\":21419:21428   */\n      dup4\n        /* \"--CODEGEN--\":21415:21432   */\n      add\n        /* \"--CODEGEN--\":21408:21455   */\n      mstore\n        /* \"--CODEGEN--\":21469:21547   */\n      tag_838\n        /* \"--CODEGEN--\":21542:21546   */\n      dup2\n        /* \"--CODEGEN--\":21533:21539   */\n      dup6\n        /* \"--CODEGEN--\":21469:21547   */\n      jump(tag_784)\n    tag_838:\n        /* \"--CODEGEN--\":21461:21547   */\n      swap1\n      pop\n        /* \"--CODEGEN--\":21558:21630   */\n      tag_839\n        /* \"--CODEGEN--\":21626:21628   */\n      0x20\n        /* \"--CODEGEN--\":21615:21624   */\n      dup4\n        /* \"--CODEGEN--\":21611:21629   */\n      add\n        /* \"--CODEGEN--\":21602:21608   */\n      dup5\n        /* \"--CODEGEN--\":21558:21630   */\n      jump(tag_813)\n    tag_839:\n        /* \"--CODEGEN--\":21365:21640   */\n      swap4\n      swap3\n      pop\n      pop\n      pop\n      jump\n        /* \"--CODEGEN--\":21647:22054   */\n    tag_626:\n      0x00\n        /* \"--CODEGEN--\":21838:21840   */\n      0x20\n        /* \"--CODEGEN--\":21827:21836   */\n      dup3\n        /* \"--CODEGEN--\":21823:21841   */\n      add\n        /* \"--CODEGEN--\":21815:21841   */\n      swap1\n      pop\n        /* \"--CODEGEN--\":21888:21897   */\n      dup2\n        /* \"--CODEGEN--\":21882:21886   */\n      dup2\n        /* \"--CODEGEN--\":21878:21898   */\n      sub\n        /* \"--CODEGEN--\":21874:21875   */\n      0x00\n        /* \"--CODEGEN--\":21863:21872   */\n      dup4\n        /* \"--CODEGEN--\":21859:21876   */\n      add\n        /* \"--CODEGEN--\":21852:21899   */\n      mstore\n        /* \"--CODEGEN--\":21913:22044   */\n      tag_840\n        /* \"--CODEGEN--\":22039:22043   */\n      dup2\n        /* \"--CODEGEN--\":21913:22044   */\n      jump(tag_803)\n    tag_840:\n        /* \"--CODEGEN--\":21905:22044   */\n      swap1\n      pop\n        /* \"--CODEGEN--\":21809:22054   */\n      swap2\n      swap1\n      pop\n      jump\n        /* \"--CODEGEN--\":22061:22468   */\n    tag_218:\n      0x00\n        /* \"--CODEGEN--\":22252:22254   */\n      0x20\n        /* \"--CODEGEN--\":22241:22250   */\n      dup3\n        /* \"--CODEGEN--\":22237:22255   */\n      add\n        /* \"--CODEGEN--\":22229:22255   */\n      swap1\n      pop\n        /* \"--CODEGEN--\":22302:22311   */\n      dup2\n        /* \"--CODEGEN--\":22296:22300   */\n      dup2\n        /* \"--CODEGEN--\":22292:22312   */\n      sub\n        /* \"--CODEGEN--\":22288:22289   */\n      0x00\n        /* \"--CODEGEN--\":22277:22286   */\n      dup4\n        /* \"--CODEGEN--\":22273:22290   */\n      add\n        /* \"--CODEGEN--\":22266:22313   */\n      mstore\n        /* \"--CODEGEN--\":22327:22458   */\n      tag_841\n        /* \"--CODEGEN--\":22453:22457   */\n      dup2\n        /* \"--CODEGEN--\":22327:22458   */\n      jump(tag_805)\n    tag_841:\n        /* \"--CODEGEN--\":22319:22458   */\n      swap1\n      pop\n        /* \"--CODEGEN--\":22223:22468   */\n      swap2\n      swap1\n      pop\n      jump\n        /* \"--CODEGEN--\":22475:22882   */\n    tag_366:\n      0x00\n        /* \"--CODEGEN--\":22666:22668   */\n      0x20\n        /* \"--CODEGEN--\":22655:22664   */\n      dup3\n        /* \"--CODEGEN--\":22651:22669   */\n      add\n        /* \"--CODEGEN--\":22643:22669   */\n      swap1\n      pop\n        /* \"--CODEGEN--\":22716:22725   */\n      dup2\n        /* \"--CODEGEN--\":22710:22714   */\n      dup2\n        /* \"--CODEGEN--\":22706:22726   */\n      sub\n        /* \"--CODEGEN--\":22702:22703   */\n      0x00\n        /* \"--CODEGEN--\":22691:22700   */\n      dup4\n        /* \"--CODEGEN--\":22687:22704   */\n      add\n        /* \"--CODEGEN--\":22680:22727   */\n      mstore\n        /* \"--CODEGEN--\":22741:22872   */\n      tag_842\n        /* \"--CODEGEN--\":22867:22871   */\n      dup2\n        /* \"--CODEGEN--\":22741:22872   */\n      jump(tag_807)\n    tag_842:\n        /* \"--CODEGEN--\":22733:22872   */\n      swap1\n      pop\n        /* \"--CODEGEN--\":22637:22882   */\n      swap2\n      swap1\n      pop\n      jump\n        /* \"--CODEGEN--\":22889:23296   */\n    tag_247:\n      0x00\n        /* \"--CODEGEN--\":23080:23082   */\n      0x20\n        /* \"--CODEGEN--\":23069:23078   */\n      dup3\n        /* \"--CODEGEN--\":23065:23083   */\n      add\n        /* \"--CODEGEN--\":23057:23083   */\n      swap1\n      pop\n        /* \"--CODEGEN--\":23130:23139   */\n      dup2\n        /* \"--CODEGEN--\":23124:23128   */\n      dup2\n        /* \"--CODEGEN--\":23120:23140   */\n      sub\n        /* \"--CODEGEN--\":23116:23117   */\n      0x00\n        /* \"--CODEGEN--\":23105:23114   */\n      dup4\n        /* \"--CODEGEN--\":23101:23118   */\n      add\n        /* \"--CODEGEN--\":23094:23141   */\n      mstore\n        /* \"--CODEGEN--\":23155:23286   */\n      tag_843\n        /* \"--CODEGEN--\":23281:23285   */\n      dup2\n        /* \"--CODEGEN--\":23155:23286   */\n      jump(tag_809)\n    tag_843:\n        /* \"--CODEGEN--\":23147:23286   */\n      swap1\n      pop\n        /* \"--CODEGEN--\":23051:23296   */\n      swap2\n      swap1\n      pop\n      jump\n        /* \"--CODEGEN--\":23303:23710   */\n    tag_445:\n      0x00\n        /* \"--CODEGEN--\":23494:23496   */\n      0x20\n        /* \"--CODEGEN--\":23483:23492   */\n      dup3\n        /* \"--CODEGEN--\":23479:23497   */\n      add\n        /* \"--CODEGEN--\":23471:23497   */\n      swap1\n      pop\n        /* \"--CODEGEN--\":23544:23553   */\n      dup2\n        /* \"--CODEGEN--\":23538:23542   */\n      dup2\n        /* \"--CODEGEN--\":23534:23554   */\n      sub\n        /* \"--CODEGEN--\":23530:23531   */\n      0x00\n        /* \"--CODEGEN--\":23519:23528   */\n      dup4\n        /* \"--CODEGEN--\":23515:23532   */\n      add\n        /* \"--CODEGEN--\":23508:23555   */\n      mstore\n        /* \"--CODEGEN--\":23569:23700   */\n      tag_844\n        /* \"--CODEGEN--\":23695:23699   */\n      dup2\n        /* \"--CODEGEN--\":23569:23700   */\n      jump(tag_811)\n    tag_844:\n        /* \"--CODEGEN--\":23561:23700   */\n      swap1\n      pop\n        /* \"--CODEGEN--\":23465:23710   */\n      swap2\n      swap1\n      pop\n      jump\n        /* \"--CODEGEN--\":23717:23930   */\n    tag_354:\n      0x00\n        /* \"--CODEGEN--\":23835:23837   */\n      0x20\n        /* \"--CODEGEN--\":23824:23833   */\n      dup3\n        /* \"--CODEGEN--\":23820:23838   */\n      add\n        /* \"--CODEGEN--\":23812:23838   */\n      swap1\n      pop\n        /* \"--CODEGEN--\":23849:23920   */\n      tag_845\n        /* \"--CODEGEN--\":23917:23918   */\n      0x00\n        /* \"--CODEGEN--\":23906:23915   */\n      dup4\n        /* \"--CODEGEN--\":23902:23919   */\n      add\n        /* \"--CODEGEN--\":23893:23899   */\n      dup5\n        /* \"--CODEGEN--\":23849:23920   */\n      jump(tag_813)\n    tag_845:\n        /* \"--CODEGEN--\":23806:23930   */\n      swap3\n      swap2\n      pop\n      pop\n      jump\n        /* \"--CODEGEN--\":23937:24261   */\n    tag_270:\n      0x00\n        /* \"--CODEGEN--\":24083:24085   */\n      0x40\n        /* \"--CODEGEN--\":24072:24081   */\n      dup3\n        /* \"--CODEGEN--\":24068:24086   */\n      add\n        /* \"--CODEGEN--\":24060:24086   */\n      swap1\n      pop\n        /* \"--CODEGEN--\":24097:24168   */\n      tag_846\n        /* \"--CODEGEN--\":24165:24166   */\n      0x00\n        /* \"--CODEGEN--\":24154:24163   */\n      dup4\n        /* \"--CODEGEN--\":24150:24167   */\n      add\n        /* \"--CODEGEN--\":24141:24147   */\n      dup6\n        /* \"--CODEGEN--\":24097:24168   */\n      jump(tag_813)\n    tag_846:\n        /* \"--CODEGEN--\":24179:24251   */\n      tag_847\n        /* \"--CODEGEN--\":24247:24249   */\n      0x20\n        /* \"--CODEGEN--\":24236:24245   */\n      dup4\n        /* \"--CODEGEN--\":24232:24250   */\n      add\n        /* \"--CODEGEN--\":24223:24229   */\n      dup5\n        /* \"--CODEGEN--\":24179:24251   */\n      jump(tag_752)\n    tag_847:\n        /* \"--CODEGEN--\":24054:24261   */\n      swap4\n      swap3\n      pop\n      pop\n      pop\n      jump\n        /* \"--CODEGEN--\":24268:24803   */\n    tag_417:\n      0x00\n        /* \"--CODEGEN--\":24464:24467   */\n      0x80\n        /* \"--CODEGEN--\":24453:24462   */\n      dup3\n        /* \"--CODEGEN--\":24449:24468   */\n      add\n        /* \"--CODEGEN--\":24441:24468   */\n      swap1\n      pop\n        /* \"--CODEGEN--\":24479:24550   */\n      tag_848\n        /* \"--CODEGEN--\":24547:24548   */\n      0x00\n        /* \"--CODEGEN--\":24536:24545   */\n      dup4\n        /* \"--CODEGEN--\":24532:24549   */\n      add\n        /* \"--CODEGEN--\":24523:24529   */\n      dup8\n        /* \"--CODEGEN--\":24479:24550   */\n      jump(tag_813)\n    tag_848:\n        /* \"--CODEGEN--\":24561:24633   */\n      tag_849\n        /* \"--CODEGEN--\":24629:24631   */\n      0x20\n        /* \"--CODEGEN--\":24618:24627   */\n      dup4\n        /* \"--CODEGEN--\":24614:24632   */\n      add\n        /* \"--CODEGEN--\":24605:24611   */\n      dup7\n        /* \"--CODEGEN--\":24561:24633   */\n      jump(tag_752)\n    tag_849:\n        /* \"--CODEGEN--\":24644:24716   */\n      tag_850\n        /* \"--CODEGEN--\":24712:24714   */\n      0x40\n        /* \"--CODEGEN--\":24701:24710   */\n      dup4\n        /* \"--CODEGEN--\":24697:24715   */\n      add\n        /* \"--CODEGEN--\":24688:24694   */\n      dup6\n        /* \"--CODEGEN--\":24644:24716   */\n      jump(tag_752)\n    tag_850:\n        /* \"--CODEGEN--\":24727:24793   */\n      tag_851\n        /* \"--CODEGEN--\":24789:24791   */\n      0x60\n        /* \"--CODEGEN--\":24778:24787   */\n      dup4\n        /* \"--CODEGEN--\":24774:24792   */\n      add\n        /* \"--CODEGEN--\":24765:24771   */\n      dup5\n        /* \"--CODEGEN--\":24727:24793   */\n      jump(tag_767)\n    tag_851:\n        /* \"--CODEGEN--\":24435:24803   */\n      swap6\n      swap5\n      pop\n      pop\n      pop\n      pop\n      pop\n      jump\n        /* \"--CODEGEN--\":24810:25357   */\n    tag_320:\n      0x00\n        /* \"--CODEGEN--\":25012:25015   */\n      0x80\n        /* \"--CODEGEN--\":25001:25010   */\n      dup3\n        /* \"--CODEGEN--\":24997:25016   */\n      add\n        /* \"--CODEGEN--\":24989:25016   */\n      swap1\n      pop\n        /* \"--CODEGEN--\":25027:25098   */\n      tag_852\n        /* \"--CODEGEN--\":25095:25096   */\n      0x00\n        /* \"--CODEGEN--\":25084:25093   */\n      dup4\n        /* \"--CODEGEN--\":25080:25097   */\n      add\n        /* \"--CODEGEN--\":25071:25077   */\n      dup8\n        /* \"--CODEGEN--\":25027:25098   */\n      jump(tag_813)\n    tag_852:\n        /* \"--CODEGEN--\":25109:25181   */\n      tag_853\n        /* \"--CODEGEN--\":25177:25179   */\n      0x20\n        /* \"--CODEGEN--\":25166:25175   */\n      dup4\n        /* \"--CODEGEN--\":25162:25180   */\n      add\n        /* \"--CODEGEN--\":25153:25159   */\n      dup7\n        /* \"--CODEGEN--\":25109:25181   */\n      jump(tag_752)\n    tag_853:\n        /* \"--CODEGEN--\":25192:25264   */\n      tag_854\n        /* \"--CODEGEN--\":25260:25262   */\n      0x40\n        /* \"--CODEGEN--\":25249:25258   */\n      dup4\n        /* \"--CODEGEN--\":25245:25263   */\n      add\n        /* \"--CODEGEN--\":25236:25242   */\n      dup6\n        /* \"--CODEGEN--\":25192:25264   */\n      jump(tag_752)\n    tag_854:\n        /* \"--CODEGEN--\":25275:25347   */\n      tag_855\n        /* \"--CODEGEN--\":25343:25345   */\n      0x60\n        /* \"--CODEGEN--\":25332:25341   */\n      dup4\n        /* \"--CODEGEN--\":25328:25346   */\n      add\n        /* \"--CODEGEN--\":25319:25325   */\n      dup5\n        /* \"--CODEGEN--\":25275:25347   */\n      jump(tag_813)\n    tag_855:\n        /* \"--CODEGEN--\":24983:25357   */\n      swap6\n      swap5\n      pop\n      pop\n      pop\n      pop\n      pop\n      jump\n        /* \"--CODEGEN--\":25364:25787   */\n    tag_460:\n      0x00\n        /* \"--CODEGEN--\":25532:25534   */\n      0x60\n        /* \"--CODEGEN--\":25521:25530   */\n      dup3\n        /* \"--CODEGEN--\":25517:25535   */\n      add\n        /* \"--CODEGEN--\":25509:25535   */\n      swap1\n      pop\n        /* \"--CODEGEN--\":25546:25617   */\n      tag_856\n        /* \"--CODEGEN--\":25614:25615   */\n      0x00\n        /* \"--CODEGEN--\":25603:25612   */\n      dup4\n        /* \"--CODEGEN--\":25599:25616   */\n      add\n        /* \"--CODEGEN--\":25590:25596   */\n      dup7\n        /* \"--CODEGEN--\":25546:25617   */\n      jump(tag_813)\n    tag_856:\n        /* \"--CODEGEN--\":25628:25700   */\n      tag_857\n        /* \"--CODEGEN--\":25696:25698   */\n      0x20\n        /* \"--CODEGEN--\":25685:25694   */\n      dup4\n        /* \"--CODEGEN--\":25681:25699   */\n      add\n        /* \"--CODEGEN--\":25672:25678   */\n      dup6\n        /* \"--CODEGEN--\":25628:25700   */\n      jump(tag_752)\n    tag_857:\n        /* \"--CODEGEN--\":25711:25777   */\n      tag_858\n        /* \"--CODEGEN--\":25773:25775   */\n      0x40\n        /* \"--CODEGEN--\":25762:25771   */\n      dup4\n        /* \"--CODEGEN--\":25758:25776   */\n      add\n        /* \"--CODEGEN--\":25749:25755   */\n      dup5\n        /* \"--CODEGEN--\":25711:25777   */\n      jump(tag_767)\n    tag_858:\n        /* \"--CODEGEN--\":25503:25787   */\n      swap5\n      swap4\n      pop\n      pop\n      pop\n      pop\n      jump\n        /* \"--CODEGEN--\":25794:26229   */\n    tag_537:\n      0x00\n        /* \"--CODEGEN--\":25968:25970   */\n      0x60\n        /* \"--CODEGEN--\":25957:25966   */\n      dup3\n        /* \"--CODEGEN--\":25953:25971   */\n      add\n        /* \"--CODEGEN--\":25945:25971   */\n      swap1\n      pop\n        /* \"--CODEGEN--\":25982:26053   */\n      tag_859\n        /* \"--CODEGEN--\":26050:26051   */\n      0x00\n        /* \"--CODEGEN--\":26039:26048   */\n      dup4\n        /* \"--CODEGEN--\":26035:26052   */\n      add\n        /* \"--CODEGEN--\":26026:26032   */\n      dup7\n        /* \"--CODEGEN--\":25982:26053   */\n      jump(tag_813)\n    tag_859:\n        /* \"--CODEGEN--\":26064:26136   */\n      tag_860\n        /* \"--CODEGEN--\":26132:26134   */\n      0x20\n        /* \"--CODEGEN--\":26121:26130   */\n      dup4\n        /* \"--CODEGEN--\":26117:26135   */\n      add\n        /* \"--CODEGEN--\":26108:26114   */\n      dup6\n        /* \"--CODEGEN--\":26064:26136   */\n      jump(tag_752)\n    tag_860:\n        /* \"--CODEGEN--\":26147:26219   */\n      tag_861\n        /* \"--CODEGEN--\":26215:26217   */\n      0x40\n        /* \"--CODEGEN--\":26204:26213   */\n      dup4\n        /* \"--CODEGEN--\":26200:26218   */\n      add\n        /* \"--CODEGEN--\":26191:26197   */\n      dup5\n        /* \"--CODEGEN--\":26147:26219   */\n      jump(tag_813)\n    tag_861:\n        /* \"--CODEGEN--\":25939:26229   */\n      swap5\n      swap4\n      pop\n      pop\n      pop\n      pop\n      jump\n        /* \"--CODEGEN--\":26236:26783   */\n    tag_617:\n      0x00\n        /* \"--CODEGEN--\":26438:26441   */\n      0x80\n        /* \"--CODEGEN--\":26427:26436   */\n      dup3\n        /* \"--CODEGEN--\":26423:26442   */\n      add\n        /* \"--CODEGEN--\":26415:26442   */\n      swap1\n      pop\n        /* \"--CODEGEN--\":26453:26524   */\n      tag_862\n        /* \"--CODEGEN--\":26521:26522   */\n      0x00\n        /* \"--CODEGEN--\":26510:26519   */\n      dup4\n        /* \"--CODEGEN--\":26506:26523   */\n      add\n        /* \"--CODEGEN--\":26497:26503   */\n      dup8\n        /* \"--CODEGEN--\":26453:26524   */\n      jump(tag_813)\n    tag_862:\n        /* \"--CODEGEN--\":26535:26607   */\n      tag_863\n        /* \"--CODEGEN--\":26603:26605   */\n      0x20\n        /* \"--CODEGEN--\":26592:26601   */\n      dup4\n        /* \"--CODEGEN--\":26588:26606   */\n      add\n        /* \"--CODEGEN--\":26579:26585   */\n      dup7\n        /* \"--CODEGEN--\":26535:26607   */\n      jump(tag_752)\n    tag_863:\n        /* \"--CODEGEN--\":26618:26690   */\n      tag_864\n        /* \"--CODEGEN--\":26686:26688   */\n      0x40\n        /* \"--CODEGEN--\":26675:26684   */\n      dup4\n        /* \"--CODEGEN--\":26671:26689   */\n      add\n        /* \"--CODEGEN--\":26662:26668   */\n      dup6\n        /* \"--CODEGEN--\":26618:26690   */\n      jump(tag_813)\n    tag_864:\n        /* \"--CODEGEN--\":26701:26773   */\n      tag_865\n        /* \"--CODEGEN--\":26769:26771   */\n      0x60\n        /* \"--CODEGEN--\":26758:26767   */\n      dup4\n        /* \"--CODEGEN--\":26754:26772   */\n      add\n        /* \"--CODEGEN--\":26745:26751   */\n      dup5\n        /* \"--CODEGEN--\":26701:26773   */\n      jump(tag_752)\n    tag_865:\n        /* \"--CODEGEN--\":26409:26783   */\n      swap6\n      swap5\n      pop\n      pop\n      pop\n      pop\n      pop\n      jump\n        /* \"--CODEGEN--\":26790:27202   */\n    tag_371:\n      0x00\n        /* \"--CODEGEN--\":26956:26958   */\n      0x40\n        /* \"--CODEGEN--\":26945:26954   */\n      dup3\n        /* \"--CODEGEN--\":26941:26959   */\n      add\n        /* \"--CODEGEN--\":26933:26959   */\n      swap1\n      pop\n        /* \"--CODEGEN--\":26970:27041   */\n      tag_866\n        /* \"--CODEGEN--\":27038:27039   */\n      0x00\n        /* \"--CODEGEN--\":27027:27036   */\n      dup4\n        /* \"--CODEGEN--\":27023:27040   */\n      add\n        /* \"--CODEGEN--\":27014:27020   */\n      dup6\n        /* \"--CODEGEN--\":26970:27041   */\n      jump(tag_813)\n    tag_866:\n        /* \"--CODEGEN--\":27089:27098   */\n      dup2\n        /* \"--CODEGEN--\":27083:27087   */\n      dup2\n        /* \"--CODEGEN--\":27079:27099   */\n      sub\n        /* \"--CODEGEN--\":27074:27076   */\n      0x20\n        /* \"--CODEGEN--\":27063:27072   */\n      dup4\n        /* \"--CODEGEN--\":27059:27077   */\n      add\n        /* \"--CODEGEN--\":27052:27100   */\n      mstore\n        /* \"--CODEGEN--\":27114:27192   */\n      tag_867\n        /* \"--CODEGEN--\":27187:27191   */\n      dup2\n        /* \"--CODEGEN--\":27178:27184   */\n      dup5\n        /* \"--CODEGEN--\":27114:27192   */\n      jump(tag_784)\n    tag_867:\n        /* \"--CODEGEN--\":27106:27192   */\n      swap1\n      pop\n        /* \"--CODEGEN--\":26927:27202   */\n      swap4\n      swap3\n      pop\n      pop\n      pop\n      jump\n        /* \"--CODEGEN--\":27209:28204   */\n    tag_430:\n      0x00\n        /* \"--CODEGEN--\":27523:27526   */\n      0x0100\n        /* \"--CODEGEN--\":27512:27521   */\n      dup3\n        /* \"--CODEGEN--\":27508:27527   */\n      add\n        /* \"--CODEGEN--\":27500:27527   */\n      swap1\n      pop\n        /* \"--CODEGEN--\":27538:27609   */\n      tag_868\n        /* \"--CODEGEN--\":27606:27607   */\n      0x00\n        /* \"--CODEGEN--\":27595:27604   */\n      dup4\n        /* \"--CODEGEN--\":27591:27608   */\n      add\n        /* \"--CODEGEN--\":27582:27588   */\n      dup12\n        /* \"--CODEGEN--\":27538:27609   */\n      jump(tag_813)\n    tag_868:\n        /* \"--CODEGEN--\":27620:27692   */\n      tag_869\n        /* \"--CODEGEN--\":27688:27690   */\n      0x20\n        /* \"--CODEGEN--\":27677:27686   */\n      dup4\n        /* \"--CODEGEN--\":27673:27691   */\n      add\n        /* \"--CODEGEN--\":27664:27670   */\n      dup11\n        /* \"--CODEGEN--\":27620:27692   */\n      jump(tag_813)\n    tag_869:\n        /* \"--CODEGEN--\":27703:27775   */\n      tag_870\n        /* \"--CODEGEN--\":27771:27773   */\n      0x40\n        /* \"--CODEGEN--\":27760:27769   */\n      dup4\n        /* \"--CODEGEN--\":27756:27774   */\n      add\n        /* \"--CODEGEN--\":27747:27753   */\n      dup10\n        /* \"--CODEGEN--\":27703:27775   */\n      jump(tag_813)\n    tag_870:\n        /* \"--CODEGEN--\":27786:27858   */\n      tag_871\n        /* \"--CODEGEN--\":27854:27856   */\n      0x60\n        /* \"--CODEGEN--\":27843:27852   */\n      dup4\n        /* \"--CODEGEN--\":27839:27857   */\n      add\n        /* \"--CODEGEN--\":27830:27836   */\n      dup9\n        /* \"--CODEGEN--\":27786:27858   */\n      jump(tag_813)\n    tag_871:\n        /* \"--CODEGEN--\":27869:27942   */\n      tag_872\n        /* \"--CODEGEN--\":27937:27940   */\n      0x80\n        /* \"--CODEGEN--\":27926:27935   */\n      dup4\n        /* \"--CODEGEN--\":27922:27941   */\n      add\n        /* \"--CODEGEN--\":27913:27919   */\n      dup8\n        /* \"--CODEGEN--\":27869:27942   */\n      jump(tag_813)\n    tag_872:\n        /* \"--CODEGEN--\":27953:28026   */\n      tag_873\n        /* \"--CODEGEN--\":28021:28024   */\n      0xa0\n        /* \"--CODEGEN--\":28010:28019   */\n      dup4\n        /* \"--CODEGEN--\":28006:28025   */\n      add\n        /* \"--CODEGEN--\":27997:28003   */\n      dup7\n        /* \"--CODEGEN--\":27953:28026   */\n      jump(tag_813)\n    tag_873:\n        /* \"--CODEGEN--\":28037:28110   */\n      tag_874\n        /* \"--CODEGEN--\":28105:28108   */\n      0xc0\n        /* \"--CODEGEN--\":28094:28103   */\n      dup4\n        /* \"--CODEGEN--\":28090:28109   */\n      add\n        /* \"--CODEGEN--\":28081:28087   */\n      dup6\n        /* \"--CODEGEN--\":28037:28110   */\n      jump(tag_752)\n    tag_874:\n        /* \"--CODEGEN--\":28121:28194   */\n      tag_875\n        /* \"--CODEGEN--\":28189:28192   */\n      0xe0\n        /* \"--CODEGEN--\":28178:28187   */\n      dup4\n        /* \"--CODEGEN--\":28174:28193   */\n      add\n        /* \"--CODEGEN--\":28165:28171   */\n      dup5\n        /* \"--CODEGEN--\":28121:28194   */\n      jump(tag_752)\n    tag_875:\n        /* \"--CODEGEN--\":27494:28204   */\n      swap10\n      swap9\n      pop\n      pop\n      pop\n      pop\n      pop\n      pop\n      pop\n      pop\n      pop\n      jump\n        /* \"--CODEGEN--\":28211:28467   */\n    tag_641:\n      0x00\n        /* \"--CODEGEN--\":28273:28275   */\n      0x40\n        /* \"--CODEGEN--\":28267:28276   */\n      mload\n        /* \"--CODEGEN--\":28257:28276   */\n      swap1\n      pop\n        /* \"--CODEGEN--\":28311:28315   */\n      dup2\n        /* \"--CODEGEN--\":28303:28309   */\n      dup2\n        /* \"--CODEGEN--\":28299:28316   */\n      add\n        /* \"--CODEGEN--\":28410:28416   */\n      dup2\n        /* \"--CODEGEN--\":28398:28408   */\n      dup2\n        /* \"--CODEGEN--\":28395:28417   */\n      lt\n        /* \"--CODEGEN--\":28374:28392   */\n      0xffffffffffffffff\n        /* \"--CODEGEN--\":28362:28372   */\n      dup3\n        /* \"--CODEGEN--\":28359:28393   */\n      gt\n        /* \"--CODEGEN--\":28356:28418   */\n      or\n        /* \"--CODEGEN--\":28353:28355   */\n      iszero\n      tag_876\n      jumpi\n        /* \"--CODEGEN--\":28431:28432   */\n      0x00\n        /* \"--CODEGEN--\":28428:28429   */\n      dup1\n        /* \"--CODEGEN--\":28421:28433   */\n      revert\n        /* \"--CODEGEN--\":28353:28355   */\n    tag_876:\n        /* \"--CODEGEN--\":28451:28461   */\n      dup1\n        /* \"--CODEGEN--\":28447:28449   */\n      0x40\n        /* \"--CODEGEN--\":28440:28462   */\n      mstore\n        /* \"--CODEGEN--\":28251:28467   */\n      pop\n      swap2\n      swap1\n      pop\n      jump\n        /* \"--CODEGEN--\":28474:28795   */\n    tag_640:\n      0x00\n        /* \"--CODEGEN--\":28617:28635   */\n      0xffffffffffffffff\n        /* \"--CODEGEN--\":28609:28615   */\n      dup3\n        /* \"--CODEGEN--\":28606:28636   */\n      gt\n        /* \"--CODEGEN--\":28603:28605   */\n      iszero\n      tag_877\n      jumpi\n        /* \"--CODEGEN--\":28649:28650   */\n      0x00\n        /* \"--CODEGEN--\":28646:28647   */\n      dup1\n        /* \"--CODEGEN--\":28639:28651   */\n      revert\n        /* \"--CODEGEN--\":28603:28605   */\n    tag_877:\n        /* \"--CODEGEN--\":28716:28720   */\n      0x1f\n        /* \"--CODEGEN--\":28712:28721   */\n      not\n        /* \"--CODEGEN--\":28705:28709   */\n      0x1f\n        /* \"--CODEGEN--\":28697:28703   */\n      dup4\n        /* \"--CODEGEN--\":28693:28710   */\n      add\n        /* \"--CODEGEN--\":28689:28722   */\n      and\n        /* \"--CODEGEN--\":28681:28722   */\n      swap1\n      pop\n        /* \"--CODEGEN--\":28780:28784   */\n      0x20\n        /* \"--CODEGEN--\":28774:28778   */\n      dup2\n        /* \"--CODEGEN--\":28770:28785   */\n      add\n        /* \"--CODEGEN--\":28762:28785   */\n      swap1\n      pop\n        /* \"--CODEGEN--\":28540:28795   */\n      swap2\n      swap1\n      pop\n      jump\n        /* \"--CODEGEN--\":28802:29124   */\n    tag_649:\n      0x00\n        /* \"--CODEGEN--\":28946:28964   */\n      0xffffffffffffffff\n        /* \"--CODEGEN--\":28938:28944   */\n      dup3\n        /* \"--CODEGEN--\":28935:28965   */\n      gt\n        /* \"--CODEGEN--\":28932:28934   */\n      iszero\n      tag_878\n      jumpi\n        /* \"--CODEGEN--\":28978:28979   */\n      0x00\n        /* \"--CODEGEN--\":28975:28976   */\n      dup1\n        /* \"--CODEGEN--\":28968:28980   */\n      revert\n        /* \"--CODEGEN--\":28932:28934   */\n    tag_878:\n        /* \"--CODEGEN--\":29045:29049   */\n      0x1f\n        /* \"--CODEGEN--\":29041:29050   */\n      not\n        /* \"--CODEGEN--\":29034:29038   */\n      0x1f\n        /* \"--CODEGEN--\":29026:29032   */\n      dup4\n        /* \"--CODEGEN--\":29022:29039   */\n      add\n        /* \"--CODEGEN--\":29018:29051   */\n      and\n        /* \"--CODEGEN--\":29010:29051   */\n      swap1\n      pop\n        /* \"--CODEGEN--\":29109:29113   */\n      0x20\n        /* \"--CODEGEN--\":29103:29107   */\n      dup2\n        /* \"--CODEGEN--\":29099:29114   */\n      add\n        /* \"--CODEGEN--\":29091:29114   */\n      swap1\n      pop\n        /* \"--CODEGEN--\":28869:29124   */\n      swap2\n      swap1\n      pop\n      jump\n        /* \"--CODEGEN--\":29131:29282   */\n    tag_760:\n      0x00\n        /* \"--CODEGEN--\":29217:29220   */\n      dup2\n        /* \"--CODEGEN--\":29209:29220   */\n      swap1\n      pop\n        /* \"--CODEGEN--\":29255:29259   */\n      0x20\n        /* \"--CODEGEN--\":29250:29253   */\n      dup3\n        /* \"--CODEGEN--\":29246:29260   */\n      add\n        /* \"--CODEGEN--\":29238:29260   */\n      swap1\n      pop\n        /* \"--CODEGEN--\":29203:29282   */\n      swap2\n      swap1\n      pop\n      jump\n        /* \"--CODEGEN--\":29289:29447   */\n    tag_799:\n      0x00\n        /* \"--CODEGEN--\":29357:29360   */\n      dup2\n        /* \"--CODEGEN--\":29349:29360   */\n      swap1\n      pop\n        /* \"--CODEGEN--\":29394:29397   */\n      dup2\n        /* \"--CODEGEN--\":29391:29392   */\n      0x00\n        /* \"--CODEGEN--\":29384:29398   */\n      mstore\n        /* \"--CODEGEN--\":29426:29430   */\n      0x20\n        /* \"--CODEGEN--\":29423:29424   */\n      0x00\n        /* \"--CODEGEN--\":29413:29431   */\n      keccak256\n        /* \"--CODEGEN--\":29405:29431   */\n      swap1\n      pop\n        /* \"--CODEGEN--\":29343:29447   */\n      swap2\n      swap1\n      pop\n      jump\n        /* \"--CODEGEN--\":29454:29591   */\n    tag_756:\n      0x00\n        /* \"--CODEGEN--\":29563:29568   */\n      dup2\n        /* \"--CODEGEN--\":29557:29569   */\n      mload\n        /* \"--CODEGEN--\":29547:29569   */\n      swap1\n      pop\n        /* \"--CODEGEN--\":29528:29591   */\n      swap2\n      swap1\n      pop\n      jump\n        /* \"--CODEGEN--\":29598:29719   */\n    tag_775:\n      0x00\n        /* \"--CODEGEN--\":29691:29696   */\n      dup2\n        /* \"--CODEGEN--\":29685:29697   */\n      mload\n        /* \"--CODEGEN--\":29675:29697   */\n      swap1\n      pop\n        /* \"--CODEGEN--\":29656:29719   */\n      swap2\n      swap1\n      pop\n      jump\n        /* \"--CODEGEN--\":29726:29848   */\n    tag_786:\n      0x00\n        /* \"--CODEGEN--\":29820:29825   */\n      dup2\n        /* \"--CODEGEN--\":29814:29826   */\n      mload\n        /* \"--CODEGEN--\":29804:29826   */\n      swap1\n      pop\n        /* \"--CODEGEN--\":29785:29848   */\n      swap2\n      swap1\n      pop\n      jump\n        /* \"--CODEGEN--\":29855:29963   */\n    tag_766:\n      0x00\n        /* \"--CODEGEN--\":29953:29957   */\n      0x20\n        /* \"--CODEGEN--\":29948:29951   */\n      dup3\n        /* \"--CODEGEN--\":29944:29958   */\n      add\n        /* \"--CODEGEN--\":29936:29958   */\n      swap1\n      pop\n        /* \"--CODEGEN--\":29930:29963   */\n      swap2\n      swap1\n      pop\n      jump\n        /* \"--CODEGEN--\":29971:30149   */\n    tag_758:\n      0x00\n        /* \"--CODEGEN--\":30101:30107   */\n      dup3\n        /* \"--CODEGEN--\":30096:30099   */\n      dup3\n        /* \"--CODEGEN--\":30089:30108   */\n      mstore\n        /* \"--CODEGEN--\":30138:30142   */\n      0x20\n        /* \"--CODEGEN--\":30133:30136   */\n      dup3\n        /* \"--CODEGEN--\":30129:30143   */\n      add\n        /* \"--CODEGEN--\":30114:30143   */\n      swap1\n      pop\n        /* \"--CODEGEN--\":30082:30149   */\n      swap3\n      swap2\n      pop\n      pop\n      jump\n        /* \"--CODEGEN--\":30158:30320   */\n    tag_777:\n      0x00\n        /* \"--CODEGEN--\":30272:30278   */\n      dup3\n        /* \"--CODEGEN--\":30267:30270   */\n      dup3\n        /* \"--CODEGEN--\":30260:30279   */\n      mstore\n        /* \"--CODEGEN--\":30309:30313   */\n      0x20\n        /* \"--CODEGEN--\":30304:30307   */\n      dup3\n        /* \"--CODEGEN--\":30300:30314   */\n      add\n        /* \"--CODEGEN--\":30285:30314   */\n      swap1\n      pop\n        /* \"--CODEGEN--\":30253:30320   */\n      swap3\n      swap2\n      pop\n      pop\n      jump\n        /* \"--CODEGEN--\":30329:30492   */\n    tag_788:\n      0x00\n        /* \"--CODEGEN--\":30444:30450   */\n      dup3\n        /* \"--CODEGEN--\":30439:30442   */\n      dup3\n        /* \"--CODEGEN--\":30432:30451   */\n      mstore\n        /* \"--CODEGEN--\":30481:30485   */\n      0x20\n        /* \"--CODEGEN--\":30476:30479   */\n      dup3\n        /* \"--CODEGEN--\":30472:30486   */\n      add\n        /* \"--CODEGEN--\":30457:30486   */\n      swap1\n      pop\n        /* \"--CODEGEN--\":30425:30492   */\n      swap3\n      swap2\n      pop\n      pop\n      jump\n        /* \"--CODEGEN--\":30501:30646   */\n    tag_796:\n      0x00\n        /* \"--CODEGEN--\":30637:30640   */\n      dup2\n        /* \"--CODEGEN--\":30622:30640   */\n      swap1\n      pop\n        /* \"--CODEGEN--\":30615:30646   */\n      swap3\n      swap2\n      pop\n      pop\n      jump\n        /* \"--CODEGEN--\":30654:30745   */\n    tag_751:\n      0x00\n        /* \"--CODEGEN--\":30716:30740   */\n      tag_879\n        /* \"--CODEGEN--\":30734:30739   */\n      dup3\n        /* \"--CODEGEN--\":30716:30740   */\n      jump(tag_880)\n    tag_879:\n        /* \"--CODEGEN--\":30705:30740   */\n      swap1\n      pop\n        /* \"--CODEGEN--\":30699:30745   */\n      swap2\n      swap1\n      pop\n      jump\n        /* \"--CODEGEN--\":30752:30837   */\n    tag_769:\n      0x00\n        /* \"--CODEGEN--\":30825:30830   */\n      dup2\n        /* \"--CODEGEN--\":30818:30831   */\n      iszero\n        /* \"--CODEGEN--\":30811:30832   */\n      iszero\n        /* \"--CODEGEN--\":30800:30832   */\n      swap1\n      pop\n        /* \"--CODEGEN--\":30794:30837   */\n      swap2\n      swap1\n      pop\n      jump\n        /* \"--CODEGEN--\":30844:30988   */\n    tag_772:\n      0x00\n        /* \"--CODEGEN--\":30916:30982   */\n      0xffffffff00000000000000000000000000000000000000000000000000000000\n        /* \"--CODEGEN--\":30909:30914   */\n      dup3\n        /* \"--CODEGEN--\":30905:30983   */\n      and\n        /* \"--CODEGEN--\":30894:30983   */\n      swap1\n      pop\n        /* \"--CODEGEN--\":30888:30988   */\n      swap2\n      swap1\n      pop\n      jump\n        /* \"--CODEGEN--\":30995:31116   */\n    tag_880:\n      0x00\n        /* \"--CODEGEN--\":31068:31110   */\n      0xffffffffffffffffffffffffffffffffffffffff\n        /* \"--CODEGEN--\":31061:31066   */\n      dup3\n        /* \"--CODEGEN--\":31057:31111   */\n      and\n        /* \"--CODEGEN--\":31046:31111   */\n      swap1\n      pop\n        /* \"--CODEGEN--\":31040:31116   */\n      swap2\n      swap1\n      pop\n      jump\n        /* \"--CODEGEN--\":31123:31195   */\n    tag_815:\n      0x00\n        /* \"--CODEGEN--\":31185:31190   */\n      dup2\n        /* \"--CODEGEN--\":31174:31190   */\n      swap1\n      pop\n        /* \"--CODEGEN--\":31168:31195   */\n      swap2\n      swap1\n      pop\n      jump\n        /* \"--CODEGEN--\":31202:31331   */\n    tag_749:\n      0x00\n        /* \"--CODEGEN--\":31289:31326   */\n      tag_881\n        /* \"--CODEGEN--\":31320:31325   */\n      dup3\n        /* \"--CODEGEN--\":31289:31326   */\n      jump(tag_882)\n    tag_881:\n        /* \"--CODEGEN--\":31276:31326   */\n      swap1\n      pop\n        /* \"--CODEGEN--\":31270:31331   */\n      swap2\n      swap1\n      pop\n      jump\n        /* \"--CODEGEN--\":31338:31454   */\n    tag_783:\n      0x00\n        /* \"--CODEGEN--\":31425:31449   */\n      tag_883\n        /* \"--CODEGEN--\":31443:31448   */\n      dup3\n        /* \"--CODEGEN--\":31425:31449   */\n      jump(tag_815)\n    tag_883:\n        /* \"--CODEGEN--\":31412:31449   */\n      swap1\n      pop\n        /* \"--CODEGEN--\":31406:31454   */\n      swap2\n      swap1\n      pop\n      jump\n        /* \"--CODEGEN--\":31461:31582   */\n    tag_882:\n      0x00\n        /* \"--CODEGEN--\":31540:31577   */\n      tag_884\n        /* \"--CODEGEN--\":31571:31576   */\n      dup3\n        /* \"--CODEGEN--\":31540:31577   */\n      jump(tag_885)\n    tag_884:\n        /* \"--CODEGEN--\":31527:31577   */\n      swap1\n      pop\n        /* \"--CODEGEN--\":31521:31582   */\n      swap2\n      swap1\n      pop\n      jump\n        /* \"--CODEGEN--\":31589:31697   */\n    tag_885:\n      0x00\n        /* \"--CODEGEN--\":31668:31692   */\n      tag_886\n        /* \"--CODEGEN--\":31686:31691   */\n      dup3\n        /* \"--CODEGEN--\":31668:31692   */\n      jump(tag_880)\n    tag_886:\n        /* \"--CODEGEN--\":31655:31692   */\n      swap1\n      pop\n        /* \"--CODEGEN--\":31649:31697   */\n      swap2\n      swap1\n      pop\n      jump\n        /* \"--CODEGEN--\":31705:31850   */\n    tag_644:\n        /* \"--CODEGEN--\":31786:31792   */\n      dup3\n        /* \"--CODEGEN--\":31781:31784   */\n      dup2\n        /* \"--CODEGEN--\":31776:31779   */\n      dup4\n        /* \"--CODEGEN--\":31763:31793   */\n      calldatacopy\n        /* \"--CODEGEN--\":31842:31843   */\n      0x00\n        /* \"--CODEGEN--\":31833:31839   */\n      dup4\n        /* \"--CODEGEN--\":31828:31831   */\n      dup4\n        /* \"--CODEGEN--\":31824:31840   */\n      add\n        /* \"--CODEGEN--\":31817:31844   */\n      mstore\n        /* \"--CODEGEN--\":31756:31850   */\n      pop\n      pop\n      pop\n      jump\n        /* \"--CODEGEN--\":31859:32127   */\n    tag_658:\n        /* \"--CODEGEN--\":31924:31925   */\n      0x00\n        /* \"--CODEGEN--\":31931:32032   */\n    tag_887:\n        /* \"--CODEGEN--\":31945:31951   */\n      dup4\n        /* \"--CODEGEN--\":31942:31943   */\n      dup2\n        /* \"--CODEGEN--\":31939:31952   */\n      lt\n        /* \"--CODEGEN--\":31931:32032   */\n      iszero\n      tag_889\n      jumpi\n        /* \"--CODEGEN--\":32021:32022   */\n      dup1\n        /* \"--CODEGEN--\":32016:32019   */\n      dup3\n        /* \"--CODEGEN--\":32012:32023   */\n      add\n        /* \"--CODEGEN--\":32006:32024   */\n      mload\n        /* \"--CODEGEN--\":32002:32003   */\n      dup2\n        /* \"--CODEGEN--\":31997:32000   */\n      dup5\n        /* \"--CODEGEN--\":31993:32004   */\n      add\n        /* \"--CODEGEN--\":31986:32025   */\n      mstore\n        /* \"--CODEGEN--\":31967:31969   */\n      0x20\n        /* \"--CODEGEN--\":31964:31965   */\n      dup2\n        /* \"--CODEGEN--\":31960:31970   */\n      add\n        /* \"--CODEGEN--\":31955:31970   */\n      swap1\n      pop\n        /* \"--CODEGEN--\":31931:32032   */\n      jump(tag_887)\n    tag_889:\n        /* \"--CODEGEN--\":32047:32053   */\n      dup4\n        /* \"--CODEGEN--\":32044:32045   */\n      dup2\n        /* \"--CODEGEN--\":32041:32054   */\n      gt\n        /* \"--CODEGEN--\":32038:32040   */\n      iszero\n      tag_890\n      jumpi\n        /* \"--CODEGEN--\":32112:32113   */\n      0x00\n        /* \"--CODEGEN--\":32103:32109   */\n      dup5\n        /* \"--CODEGEN--\":32098:32101   */\n      dup5\n        /* \"--CODEGEN--\":32094:32110   */\n      add\n        /* \"--CODEGEN--\":32087:32114   */\n      mstore\n        /* \"--CODEGEN--\":32038:32040   */\n    tag_890:\n        /* \"--CODEGEN--\":31908:32127   */\n      pop\n      pop\n      pop\n      pop\n      jump\n        /* \"--CODEGEN--\":32135:32232   */\n    tag_780:\n      0x00\n        /* \"--CODEGEN--\":32223:32225   */\n      0x1f\n        /* \"--CODEGEN--\":32219:32226   */\n      not\n        /* \"--CODEGEN--\":32214:32216   */\n      0x1f\n        /* \"--CODEGEN--\":32207:32212   */\n      dup4\n        /* \"--CODEGEN--\":32203:32217   */\n      add\n        /* \"--CODEGEN--\":32199:32227   */\n      and\n        /* \"--CODEGEN--\":32189:32227   */\n      swap1\n      pop\n        /* \"--CODEGEN--\":32183:32232   */\n      swap2\n      swap1\n      pop\n      jump\n        /* \"--CODEGEN--\":32240:32357   */\n    tag_630:\n        /* \"--CODEGEN--\":32309:32333   */\n      tag_891\n        /* \"--CODEGEN--\":32327:32332   */\n      dup2\n        /* \"--CODEGEN--\":32309:32333   */\n      jump(tag_751)\n    tag_891:\n        /* \"--CODEGEN--\":32302:32307   */\n      dup2\n        /* \"--CODEGEN--\":32299:32334   */\n      eq\n        /* \"--CODEGEN--\":32289:32291   */\n      tag_892\n      jumpi\n        /* \"--CODEGEN--\":32348:32349   */\n      0x00\n        /* \"--CODEGEN--\":32345:32346   */\n      dup1\n        /* \"--CODEGEN--\":32338:32350   */\n      revert\n        /* \"--CODEGEN--\":32289:32291   */\n    tag_892:\n        /* \"--CODEGEN--\":32283:32357   */\n      pop\n      jump\n        /* \"--CODEGEN--\":32364:32475   */\n    tag_635:\n        /* \"--CODEGEN--\":32430:32451   */\n      tag_893\n        /* \"--CODEGEN--\":32445:32450   */\n      dup2\n        /* \"--CODEGEN--\":32430:32451   */\n      jump(tag_769)\n    tag_893:\n        /* \"--CODEGEN--\":32423:32428   */\n      dup2\n        /* \"--CODEGEN--\":32420:32452   */\n      eq\n        /* \"--CODEGEN--\":32410:32412   */\n      tag_894\n      jumpi\n        /* \"--CODEGEN--\":32466:32467   */\n      0x00\n        /* \"--CODEGEN--\":32463:32464   */\n      dup1\n        /* \"--CODEGEN--\":32456:32468   */\n      revert\n        /* \"--CODEGEN--\":32410:32412   */\n    tag_894:\n        /* \"--CODEGEN--\":32404:32475   */\n      pop\n      jump\n        /* \"--CODEGEN--\":32482:32599   */\n    tag_661:\n        /* \"--CODEGEN--\":32551:32575   */\n      tag_895\n        /* \"--CODEGEN--\":32569:32574   */\n      dup2\n        /* \"--CODEGEN--\":32551:32575   */\n      jump(tag_815)\n    tag_895:\n        /* \"--CODEGEN--\":32544:32549   */\n      dup2\n        /* \"--CODEGEN--\":32541:32576   */\n      eq\n        /* \"--CODEGEN--\":32531:32533   */\n      tag_896\n      jumpi\n        /* \"--CODEGEN--\":32590:32591   */\n      0x00\n        /* \"--CODEGEN--\":32587:32588   */\n      dup1\n        /* \"--CODEGEN--\":32580:32592   */\n      revert\n        /* \"--CODEGEN--\":32531:32533   */\n    tag_896:\n        /* \"--CODEGEN--\":32525:32599   */\n      pop\n      jump\n\n    auxdata: 0xa365627a7a723158203569e5078b759a604dea38620a673440196e018c59c112bace4446249dcb7d426c6578706572696d656e74616cf564736f6c63430005110040\n}\n",
				"bytecode": {
					"linkReferences": {},
					"object": "60806040526040518061034001604052806040518060400160405280600e81526020017f4552433732313a617070726f766500000000000000000000000000000000000081525081526020016040518060400160405280600f81526020017f4552433732313a7472616e73666572000000000000000000000000000000000081525081526020016040518060400160405280600b81526020017f4552433732313a6275726e00000000000000000000000000000000000000000081525081526020016040518060400160405280600b81526020017f4552433732313a6d696e7400000000000000000000000000000000000000000081525081526020016040518060400160405280601781526020017f4552433732313a736166655472616e7366657246726f6d00000000000000000081525081526020016040518060400160405280601381526020017f4552433732313a7472616e7366657246726f6d0000000000000000000000000081525081526020016040518060400160405280601081526020017f42726f6b65723a7075744f6e53616c650000000000000000000000000000000081525081526020016040518060400160405280600a81526020017f42726f6b65723a6275790000000000000000000000000000000000000000000081525081526020016040518060400160405280600a81526020017f42726f6b65723a6269640000000000000000000000000000000000000000000081525081526020016040518060400160405280600e81526020017f42726f6b65723a636f6c6c65637400000000000000000000000000000000000081525081526020016040518060400160405280601281526020017f42726f6b65723a7570646174655072696365000000000000000000000000000081525081526020016040518060400160405280601181526020017f42726f6b65723a70757453616c654f666600000000000000000000000000000081525081526020016040518060400160405280601281526020017f42726f6b65723a6d616b65416e4f66666572000000000000000000000000000081525081526020016040518060400160405280601281526020017f42726f6b65723a6163637065744f66666572000000000000000000000000000081525081526020016040518060400160405280601281526020017f42726f6b65723a7265766572744f66666572000000000000000000000000000081525081526020016040518060400160405280601081526020017f42726f6b65723a726576657274416c6c0000000000000000000000000000000081525081526020016040518060400160405280601381526020017f42726f6b65723a62617463684c697374696e670000000000000000000000000081525081526020016040518060400160405280601581526020017f42726f6b65723a626174636844656c697374696e67000000000000000000000081525081526020016040518060400160405280601181526020017f42726f6b65723a7365744164647265737300000000000000000000000000000081525081526020016040518060400160405280600d81526020017f45524332303a617070726f76650000000000000000000000000000000000000081525081526020016040518060400160405280601681526020017f45524332303a6465637265617365417070726f76616c0000000000000000000081525081526020016040518060400160405280601681526020017f45524332303a696e637265617365417070726f76616c0000000000000000000081525081526020016040518060400160405280600e81526020017f45524332303a7472616e7366657200000000000000000000000000000000000081525081526020016040518060400160405280601281526020017f45524332303a7472616e7366657246726f6d000000000000000000000000000081525081526020016040518060400160405280601781526020017f45524332303a696e637265617365416c6c6f77616e636500000000000000000081525081526020016040518060400160405280601781526020017f45524332303a6465637265617365416c6c6f77616e6365000000000000000000815250815250600260008201518160000190805190602001906200062c92919062000c89565b5060208201518160010190805190602001906200064b92919062000c89565b5060408201518160020190805190602001906200066a92919062000c89565b5060608201518160030190805190602001906200068992919062000c89565b506080820151816004019080519060200190620006a892919062000c89565b5060a0820151816005019080519060200190620006c792919062000c89565b5060c0820151816006019080519060200190620006e692919062000c89565b5060e08201518160070190805190602001906200070592919062000c89565b506101008201518160080190805190602001906200072592919062000c89565b506101208201518160090190805190602001906200074592919062000c89565b5061014082015181600a0190805190602001906200076592919062000c89565b5061016082015181600b0190805190602001906200078592919062000c89565b5061018082015181600c019080519060200190620007a592919062000c89565b506101a082015181600d019080519060200190620007c592919062000c89565b506101c082015181600e019080519060200190620007e592919062000c89565b506101e082015181600f0190805190602001906200080592919062000c89565b506102008201518160100190805190602001906200082592919062000c89565b506102208201518160110190805190602001906200084592919062000c89565b506102408201518160120190805190602001906200086592919062000c89565b506102608201518160130190805190602001906200088592919062000c89565b50610280820151816014019080519060200190620008a592919062000c89565b506102a0820151816015019080519060200190620008c592919062000c89565b506102c0820151816016019080519060200190620008e592919062000c89565b506102e08201518160170190805190602001906200090592919062000c89565b506103008201518160180190805190602001906200092592919062000c89565b506103208201518160190190805190602001906200094592919062000c89565b5050503480156200095557600080fd5b50604051620057c5380380620057c583398181016040526200097b919081019062000d4f565b60006200098d62000a8460201b60201c565b9050806000806101000a81548173ffffffffffffffffffffffffffffffffffffffff021916908373ffffffffffffffffffffffffffffffffffffffff1602179055508073ffffffffffffffffffffffffffffffffffffffff16600073ffffffffffffffffffffffffffffffffffffffff167f8be0079c531659141344cd1fd0a4f28419497f9722a3daafe3b4186f6b6457e060405160405180910390a35062000a3c3362000a8c60201b60201c565b80601c60006101000a81548173ffffffffffffffffffffffffffffffffffffffff021916908373ffffffffffffffffffffffffffffffffffffffff1602179055505062000ec8565b600033905090565b62000a9c62000af260201b60201c565b62000ade576040517f08c379a000000000000000000000000000000000000000000000000000000000815260040162000ad59062000e47565b60405180910390fd5b62000aef8162000b5860201b60201c565b50565b60008060009054906101000a900473ffffffffffffffffffffffffffffffffffffffff1673ffffffffffffffffffffffffffffffffffffffff1662000b3c62000a8460201b60201c565b73ffffffffffffffffffffffffffffffffffffffff1614905090565b600073ffffffffffffffffffffffffffffffffffffffff168173ffffffffffffffffffffffffffffffffffffffff16141562000bcb576040517f08c379a000000000000000000000000000000000000000000000000000000000815260040162000bc29062000e25565b60405180910390fd5b8073ffffffffffffffffffffffffffffffffffffffff166000809054906101000a900473ffffffffffffffffffffffffffffffffffffffff1673ffffffffffffffffffffffffffffffffffffffff167f8be0079c531659141344cd1fd0a4f28419497f9722a3daafe3b4186f6b6457e060405160405180910390a3806000806101000a81548173ffffffffffffffffffffffffffffffffffffffff021916908373ffffffffffffffffffffffffffffffffffffffff16021790555050565b828054600181600116156101000203166002900490600052602060002090601f016020900481019282601f1062000ccc57805160ff191683800117855562000cfd565b8280016001018555821562000cfd579182015b8281111562000cfc57825182559160200191906001019062000cdf565b5b50905062000d0c919062000d10565b5090565b62000d3591905b8082111562000d3157600081600090555060010162000d17565b5090565b90565b60008151905062000d498162000eae565b92915050565b60006020828403121562000d6257600080fd5b600062000d728482850162000d38565b91505092915050565b600062000d8a60268362000e69565b91507f4f776e61626c653a206e6577206f776e657220697320746865207a65726f206160008301527f64647265737300000000000000000000000000000000000000000000000000006020830152604082019050919050565b600062000df260208362000e69565b91507f4f776e61626c653a2063616c6c6572206973206e6f7420746865206f776e65726000830152602082019050919050565b6000602082019050818103600083015262000e408162000d7b565b9050919050565b6000602082019050818103600083015262000e628162000de3565b9050919050565b600082825260208201905092915050565b600062000e878262000e8e565b9050919050565b600073ffffffffffffffffffffffffffffffffffffffff82169050919050565b62000eb98162000e7a565b811462000ec557600080fd5b50565b6148ed8062000ed86000396000f3fe60806040526004361061021a5760003560e01c8063640cf87311610123578063ace561a8116100ab578063f2fde38b1161006f578063f2fde38b14610705578063f4f3b2001461072e578063fba08d4514610757578063fddea90014610794578063ff8edbdb146107bd5761021a565b8063ace561a814610645578063b6011b4c1461066e578063c0f4ed3114610697578063c347f69b146106b3578063e7ab44b4146106dc5761021a565b80638450ebe4116100f25780638450ebe4146105745780638c6ab0131461059d5780638da5cb5b146105c65780638f32d59b146105f15780639dc6b78d1461061c5761021a565b8063640cf873146104ef5780637048027514610518578063715018a6146105415780637ad157b9146105585761021a565b80633169b515116101a657806347fcf0181161017557806347fcf0181461042f578063485f952e14610458578063488b0f7d146104815780634a0aafda146104aa5780635aa8680a146104d35761021a565b80633169b515146103a857806331ae450b146103c45780633790767d146103ef5780633ccfd60b146104185761021a565b80631785f53c116101ed5780631785f53c146102e8578063179443f31461031157806317c48a701461033a57806318fa0653146103565780631afffec01461037f5761021a565b80630a1b0b911461021c5780630c82ea1a1461024557806314bfd6d01461026e578063150b7a02146102ab575b005b34801561022857600080fd5b50610243600480360361023e9190810190613806565b6107e6565b005b34801561025157600080fd5b5061026c600480360361026791908101906138f8565b610939565b005b34801561027a57600080fd5b5061029560048036036102909190810190613aa6565b610a89565b6040516102a2919061417e565b60405180910390f35b3480156102b757600080fd5b506102d260048036036102cd9190810190613947565b610ac5565b6040516102df9190614326565b60405180910390f35b3480156102f457600080fd5b5061030f600480360361030a91908101906137b4565b610ad9565b005b34801561031d57600080fd5b5061033860048036036103339190810190613af8565b610cc0565b005b610354600480360361034f9190810190613b34565b610e4d565b005b34801561036257600080fd5b5061037d600480360361037891908101906138f8565b610fdd565b005b34801561038b57600080fd5b506103a660048036036103a191908101906138f8565b61112d565b005b6103c260048036036103bd9190810190613be6565b61127d565b005b3480156103d057600080fd5b506103d9611410565b6040516103e691906142e9565b60405180910390f35b3480156103fb57600080fd5b50610416600480360361041191908101906138f8565b61149e565b005b34801561042457600080fd5b5061042d6115ee565b005b34801561043b57600080fd5b5061045660048036036104519190810190613a29565b61167e565b005b34801561046457600080fd5b5061047f600480360361047a9190810190613a29565b61193f565b005b34801561048d57600080fd5b506104a860048036036104a39190810190613869565b611a8b565b005b3480156104b657600080fd5b506104d160048036036104cc9190810190613806565b611be1565b005b6104ed60048036036104e89190810190613b83565b611d34565b005b3480156104fb57600080fd5b5061051660048036036105119190810190613d4a565b611ec7565b005b34801561052457600080fd5b5061053f600480360361053a91908101906137b4565b612066565b005b34801561054d57600080fd5b5061055661219c565b005b610572600480360361056d9190810190613c49565b6122a2565b005b34801561058057600080fd5b5061059b60048036036105969190810190613806565b612433565b005b3480156105a957600080fd5b506105c460048036036105bf9190810190613c49565b612586565b005b3480156105d257600080fd5b506105db612716565b6040516105e8919061417e565b60405180910390f35b3480156105fd57600080fd5b5061060661273f565b604051610613919061430b565b60405180910390f35b34801561062857600080fd5b50610643600480360361063e91908101906138f8565b61279d565b005b34801561065157600080fd5b5061066c600480360361066791908101906138f8565b6128ed565b005b34801561067a57600080fd5b50610695600480360361069091908101906138f8565b612a3d565b005b6106b160048036036106ac9190810190613c98565b612b8d565b005b3480156106bf57600080fd5b506106da60048036036106d591908101906138f8565b612d1e565b005b3480156106e857600080fd5b5061070360048036036106fe9190810190613af8565b612e6e565b005b34801561071157600080fd5b5061072c600480360361072791908101906137b4565b612ffb565b005b34801561073a57600080fd5b50610755600480360361075091908101906137b4565b61304e565b005b34801561076357600080fd5b5061077e600480360361077991908101906137b4565b613193565b60405161078b919061430b565b60405180910390f35b3480156107a057600080fd5b506107bb60048036036107b691908101906139c2565b613235565b005b3480156107c957600080fd5b506107e460048036036107df9190810190613ce7565b613386565b005b6107ef33613193565b806107fe57506107fd61273f565b5b61083d576040517f08c379a000000000000000000000000000000000000000000000000000000000815260040161083490614391565b60405180910390fd5b60008490508073ffffffffffffffffffffffffffffffffffffffff166323b872dd8585856040518463ffffffff1660e01b815260040161087f939291906141dd565b600060405180830381600087803b15801561089957600080fd5b505af11580156108ad573d6000803e3d6000fd5b5050505060026014016040516108c39190614167565b60405180910390208573ffffffffffffffffffffffffffffffffffffffff163373ffffffffffffffffffffffffffffffffffffffff167f32a9eeb55ea56eb60badfb6642d5b92be35b6da6f74892c12d0e14a50dfc2bac868660405161092a929190614289565b60405180910390a45050505050565b61094233613193565b80610951575061095061273f565b5b610990576040517f08c379a000000000000000000000000000000000000000000000000000000000815260040161098790614391565b60405180910390fd5b60008390508073ffffffffffffffffffffffffffffffffffffffff1663a457c2d784846040518363ffffffff1660e01b81526004016109d0929190614289565b600060405180830381600087803b1580156109ea57600080fd5b505af11580156109fe573d6000803e3d6000fd5b505050506002601601604051610a149190614167565b60405180910390208473ffffffffffffffffffffffffffffffffffffffff163373ffffffffffffffffffffffffffffffffffffffff167f32a9eeb55ea56eb60badfb6642d5b92be35b6da6f74892c12d0e14a50dfc2bac8686604051610a7b929190614289565b60405180910390a450505050565b60018181548110610a9657fe5b906000526020600020016000915054906101000a900473ffffffffffffffffffffffffffffffffffffffff1681565b600063150b7a0260e01b9050949350505050565b610ae161273f565b610b20576040517f08c379a0000000000000000000000000000000000000000000000000000000008152600401610b17906143d1565b60405180910390fd5b60008090505b600180549050811015610c83578173ffffffffffffffffffffffffffffffffffffffff1660018281548110610b5757fe5b9060005260206000200160009054906101000a900473ffffffffffffffffffffffffffffffffffffffff1673ffffffffffffffffffffffffffffffffffffffff161415610c765760018181548110610bab57fe5b9060005260206000200160009054906101000a900473ffffffffffffffffffffffffffffffffffffffff1660018080805490500381548110610be957fe5b9060005260206000200160006101000a81548173ffffffffffffffffffffffffffffffffffffffff021916908373ffffffffffffffffffffffffffffffffffffffff1602179055506001805480610c3c57fe5b6001900381819060005260206000200160006101000a81549073ffffffffffffffffffffffffffffffffffffffff02191690559055610c83565b8080600101915050610b26565b507fa0726c73cf6ad18ddb855ba65d1ddd4d7fd37d320f4e52f6b154c13d386f5fd98142604051610cb5929190614289565b60405180910390a150565b610cc933613193565b80610cd85750610cd761273f565b5b610d17576040517f08c379a0000000000000000000000000000000000000000000000000000000008152600401610d0e90614391565b60405180910390fd5b601c60009054906101000a900473ffffffffffffffffffffffffffffffffffffffff1673ffffffffffffffffffffffffffffffffffffffff1663179443f383836040518363ffffffff1660e01b8152600401610d7492919061442c565b600060405180830381600087803b158015610d8e57600080fd5b505af1158015610da2573d6000803e3d6000fd5b505050506002600b01604051610db89190614167565b6040518091039020601c60009054906101000a900473ffffffffffffffffffffffffffffffffffffffff1673ffffffffffffffffffffffffffffffffffffffff163373ffffffffffffffffffffffffffffffffffffffff167f32a9eeb55ea56eb60badfb6642d5b92be35b6da6f74892c12d0e14a50dfc2bac8486604051610e41929190614289565b60405180910390a45050565b610e5633613193565b80610e655750610e6461273f565b5b610ea4576040517f08c379a0000000000000000000000000000000000000000000000000000000008152600401610e9b90614391565b60405180910390fd5b601c60009054906101000a900473ffffffffffffffffffffffffffffffffffffffff1673ffffffffffffffffffffffffffffffffffffffff1663136a6a248385846040518463ffffffff1660e01b8152600401610f03939291906142b2565b600060405180830381600087803b158015610f1d57600080fd5b505af1158015610f31573d6000803e3d6000fd5b505050506002600e01604051610f479190614167565b6040518091039020601c60009054906101000a900473ffffffffffffffffffffffffffffffffffffffff1673ffffffffffffffffffffffffffffffffffffffff163373ffffffffffffffffffffffffffffffffffffffff167f32a9eeb55ea56eb60badfb6642d5b92be35b6da6f74892c12d0e14a50dfc2bac8587604051610fd0929190614289565b60405180910390a4505050565b610fe633613193565b80610ff55750610ff461273f565b5b611034576040517f08c379a000000000000000000000000000000000000000000000000000000000815260040161102b90614391565b60405180910390fd5b6000839050600260000160405161104b9190614167565b60405180910390208473ffffffffffffffffffffffffffffffffffffffff163373ffffffffffffffffffffffffffffffffffffffff167f32a9eeb55ea56eb60badfb6642d5b92be35b6da6f74892c12d0e14a50dfc2bac87866040516110b2929190614289565b60405180910390a48073ffffffffffffffffffffffffffffffffffffffff1663095ea7b384846040518363ffffffff1660e01b81526004016110f5929190614289565b600060405180830381600087803b15801561110f57600080fd5b505af1158015611123573d6000803e3d6000fd5b5050505050505050565b61113633613193565b80611145575061114461273f565b5b611184576040517f08c379a000000000000000000000000000000000000000000000000000000000815260040161117b90614391565b60405180910390fd5b60008390508073ffffffffffffffffffffffffffffffffffffffff1663d73dd62384846040518363ffffffff1660e01b81526004016111c4929190614289565b600060405180830381600087803b1580156111de57600080fd5b505af11580156111f2573d6000803e3d6000fd5b5050505060026012016040516112089190614167565b60405180910390208473ffffffffffffffffffffffffffffffffffffffff163373ffffffffffffffffffffffffffffffffffffffff167f32a9eeb55ea56eb60badfb6642d5b92be35b6da6f74892c12d0e14a50dfc2bac868660405161126f929190614289565b60405180910390a450505050565b61128633613193565b80611295575061129461273f565b5b6112d4576040517f08c379a00000000000000000000000000000000000000000000000000000000081526004016112cb90614391565b60405180910390fd5b601c60009054906101000a900473ffffffffffffffffffffffffffffffffffffffff1673ffffffffffffffffffffffffffffffffffffffff16633169b515858585856040518563ffffffff1660e01b8152600401611335949392919061449a565b600060405180830381600087803b15801561134f57600080fd5b505af1158015611363573d6000803e3d6000fd5b505050506002600c016040516113799190614167565b6040518091039020601c60009054906101000a900473ffffffffffffffffffffffffffffffffffffffff1673ffffffffffffffffffffffffffffffffffffffff163373ffffffffffffffffffffffffffffffffffffffff167f32a9eeb55ea56eb60badfb6642d5b92be35b6da6f74892c12d0e14a50dfc2bac8688604051611402929190614289565b60405180910390a450505050565b6060600180548060200260200160405190810160405280929190818152602001828054801561149457602002820191906000526020600020905b8160009054906101000a900473ffffffffffffffffffffffffffffffffffffffff1673ffffffffffffffffffffffffffffffffffffffff168152602001906001019080831161144a575b5050505050905090565b6114a733613193565b806114b657506114b561273f565b5b6114f5576040517f08c379a00000000000000000000000000000000000000000000000000000000081526004016114ec90614391565b60405180910390fd5b60008390508073ffffffffffffffffffffffffffffffffffffffff1663a9059cbb84846040518363ffffffff1660e01b8152600401611535929190614289565b600060405180830381600087803b15801561154f57600080fd5b505af1158015611563573d6000803e3d6000fd5b5050505060026013016040516115799190614167565b60405180910390208473ffffffffffffffffffffffffffffffffffffffff163373ffffffffffffffffffffffffffffffffffffffff167f32a9eeb55ea56eb60badfb6642d5b92be35b6da6f74892c12d0e14a50dfc2bac86866040516115e0929190614289565b60405180910390a450505050565b6115f661273f565b611635576040517f08c379a000000000000000000000000000000000000000000000000000000000815260040161162c906143d1565b60405180910390fd5b3373ffffffffffffffffffffffffffffffffffffffff166108fc479081150290604051600060405180830381858888f1935050505015801561167b573d6000803e3d6000fd5b50565b61168733613193565b80611696575061169561273f565b5b6116d5576040517f08c379a00000000000000000000000000000000000000000000000000000000081526004016116cc90614391565b60405180910390fd5b600082905060608173ffffffffffffffffffffffffffffffffffffffff1663c87b56dd846040518263ffffffff1660e01b81526004016117159190614411565b600060405180830381600087803b15801561172f57600080fd5b505af1158015611743573d6000803e3d6000fd5b505050506040513d6000823e3d601f19601f8201168201806040525061176c9190810190613a65565b90503073ffffffffffffffffffffffffffffffffffffffff168273ffffffffffffffffffffffffffffffffffffffff1663081812fc856040518263ffffffff1660e01b81526004016117be9190614411565b602060405180830381600087803b1580156117d857600080fd5b505af11580156117ec573d6000803e3d6000fd5b505050506040513d601f19601f8201168201806040525061181091908101906137dd565b73ffffffffffffffffffffffffffffffffffffffff1614611866576040517f08c379a000000000000000000000000000000000000000000000000000000000815260040161185d906143b1565b60405180910390fd5b8173ffffffffffffffffffffffffffffffffffffffff166342966c68846040518263ffffffff1660e01b815260040161189f9190614411565b600060405180830381600087803b1580156118b957600080fd5b505af11580156118cd573d6000803e3d6000fd5b505050503373ffffffffffffffffffffffffffffffffffffffff16838573ffffffffffffffffffffffffffffffffffffffff167f926b248e45dfdd4c4caec216e73ec503ce2522d3b5646c861d1b074210675d0e4285604051611931929190614592565b60405180910390a450505050565b61194833613193565b80611957575061195661273f565b5b611996576040517f08c379a000000000000000000000000000000000000000000000000000000000815260040161198d90614391565b60405180910390fd5b6000829050600280016040516119ac9190614167565b60405180910390208373ffffffffffffffffffffffffffffffffffffffff163373ffffffffffffffffffffffffffffffffffffffff167f32a9eeb55ea56eb60badfb6642d5b92be35b6da6f74892c12d0e14a50dfc2bac8686604051611a13929190614289565b60405180910390a48073ffffffffffffffffffffffffffffffffffffffff166342966c68836040518263ffffffff1660e01b8152600401611a549190614411565b600060405180830381600087803b158015611a6e57600080fd5b505af1158015611a82573d6000803e3d6000fd5b50505050505050565b611a9433613193565b80611aa35750611aa261273f565b5b611ae2576040517f08c379a0000000000000000000000000000000000000000000000000000000008152600401611ad990614391565b60405180910390fd5b60008590506002600401604051611af99190614167565b60405180910390208673ffffffffffffffffffffffffffffffffffffffff163373ffffffffffffffffffffffffffffffffffffffff167f32a9eeb55ea56eb60badfb6642d5b92be35b6da6f74892c12d0e14a50dfc2bac8987604051611b60929190614289565b60405180910390a48073ffffffffffffffffffffffffffffffffffffffff1663b88d4fde868686866040518563ffffffff1660e01b8152600401611ba79493929190614214565b600060405180830381600087803b158015611bc157600080fd5b505af1158015611bd5573d6000803e3d6000fd5b50505050505050505050565b611bea33613193565b80611bf95750611bf861273f565b5b611c38576040517f08c379a0000000000000000000000000000000000000000000000000000000008152600401611c2f90614391565b60405180910390fd5b60008490506002600401604051611c4f9190614167565b60405180910390208573ffffffffffffffffffffffffffffffffffffffff163373ffffffffffffffffffffffffffffffffffffffff167f32a9eeb55ea56eb60badfb6642d5b92be35b6da6f74892c12d0e14a50dfc2bac8886604051611cb6929190614289565b60405180910390a48073ffffffffffffffffffffffffffffffffffffffff166342842e0e8585856040518463ffffffff1660e01b8152600401611cfb939291906141dd565b600060405180830381600087803b158015611d1557600080fd5b505af1158015611d29573d6000803e3d6000fd5b505050505050505050565b611d3d33613193565b80611d4c5750611d4b61273f565b5b611d8b576040517f08c379a0000000000000000000000000000000000000000000000000000000008152600401611d8290614391565b60405180910390fd5b601c60009054906101000a900473ffffffffffffffffffffffffffffffffffffffff1673ffffffffffffffffffffffffffffffffffffffff16635aa8680a858585856040518563ffffffff1660e01b8152600401611dec9493929190614455565b600060405180830381600087803b158015611e0657600080fd5b505af1158015611e1a573d6000803e3d6000fd5b505050506002600d01604051611e309190614167565b6040518091039020601c60009054906101000a900473ffffffffffffffffffffffffffffffffffffffff1673ffffffffffffffffffffffffffffffffffffffff163373ffffffffffffffffffffffffffffffffffffffff167f32a9eeb55ea56eb60badfb6642d5b92be35b6da6f74892c12d0e14a50dfc2bac8688604051611eb9929190614289565b60405180910390a450505050565b611ed033613193565b80611edf5750611ede61273f565b5b611f1e576040517f08c379a0000000000000000000000000000000000000000000000000000000008152600401611f1590614391565b60405180910390fd5b601c60009054906101000a900473ffffffffffffffffffffffffffffffffffffffff1673ffffffffffffffffffffffffffffffffffffffff1663640cf87389898989898989896040518963ffffffff1660e01b8152600401611f879897969594939291906145c2565b600060405180830381600087803b158015611fa157600080fd5b505af1158015611fb5573d6000803e3d6000fd5b505050506002600601604051611fcb9190614167565b6040518091039020601c60009054906101000a900473ffffffffffffffffffffffffffffffffffffffff1673ffffffffffffffffffffffffffffffffffffffff163373ffffffffffffffffffffffffffffffffffffffff167f32a9eeb55ea56eb60badfb6642d5b92be35b6da6f74892c12d0e14a50dfc2bac858c604051612054929190614289565b60405180910390a45050505050505050565b61206e61273f565b6120ad576040517f08c379a00000000000000000000000000000000000000000000000000000000081526004016120a4906143d1565b60405180910390fd5b6120b681613193565b6121255760018190806001815401808255809150509060018203906000526020600020016000909192909190916101000a81548173ffffffffffffffffffffffffffffffffffffffff021916908373ffffffffffffffffffffffffffffffffffffffff16021790555050612160565b6040517f08c379a0000000000000000000000000000000000000000000000000000000008152600401612157906143f1565b60405180910390fd5b7f723c2b747529ca7f5eb53a74808f4a8b9bf264f0fc450fd904900151da74548a8142604051612191929190614289565b60405180910390a150565b6121a461273f565b6121e3576040517f08c379a00000000000000000000000000000000000000000000000000000000081526004016121da906143d1565b60405180910390fd5b600073ffffffffffffffffffffffffffffffffffffffff166000809054906101000a900473ffffffffffffffffffffffffffffffffffffffff1673ffffffffffffffffffffffffffffffffffffffff167f8be0079c531659141344cd1fd0a4f28419497f9722a3daafe3b4186f6b6457e060405160405180910390a360008060006101000a81548173ffffffffffffffffffffffffffffffffffffffff021916908373ffffffffffffffffffffffffffffffffffffffff160217905550565b6122ab33613193565b806122ba57506122b961273f565b5b6122f9576040517f08c379a00000000000000000000000000000000000000000000000000000000081526004016122f090614391565b60405180910390fd5b601c60009054906101000a900473ffffffffffffffffffffffffffffffffffffffff1673ffffffffffffffffffffffffffffffffffffffff16637ad157b9348585856040518563ffffffff1660e01b8152600401612359939291906144df565b6000604051808303818588803b15801561237257600080fd5b505af1158015612386573d6000803e3d6000fd5b5050505050600260070160405161239d9190614167565b6040518091039020601c60009054906101000a900473ffffffffffffffffffffffffffffffffffffffff1673ffffffffffffffffffffffffffffffffffffffff163373ffffffffffffffffffffffffffffffffffffffff167f32a9eeb55ea56eb60badfb6642d5b92be35b6da6f74892c12d0e14a50dfc2bac8587604051612426929190614289565b60405180910390a4505050565b61243c33613193565b8061244b575061244a61273f565b5b61248a576040517f08c379a000000000000000000000000000000000000000000000000000000000815260040161248190614391565b60405180910390fd5b600084905060026005016040516124a19190614167565b60405180910390208573ffffffffffffffffffffffffffffffffffffffff163373ffffffffffffffffffffffffffffffffffffffff167f32a9eeb55ea56eb60badfb6642d5b92be35b6da6f74892c12d0e14a50dfc2bac8886604051612508929190614289565b60405180910390a48073ffffffffffffffffffffffffffffffffffffffff166323b872dd8585856040518463ffffffff1660e01b815260040161254d939291906141dd565b600060405180830381600087803b15801561256757600080fd5b505af115801561257b573d6000803e3d6000fd5b505050505050505050565b61258f33613193565b8061259e575061259d61273f565b5b6125dd576040517f08c379a00000000000000000000000000000000000000000000000000000000081526004016125d490614391565b60405180910390fd5b601c60009054906101000a900473ffffffffffffffffffffffffffffffffffffffff1673ffffffffffffffffffffffffffffffffffffffff16638c6ab0138484846040518463ffffffff1660e01b815260040161263c939291906144df565b600060405180830381600087803b15801561265657600080fd5b505af115801561266a573d6000803e3d6000fd5b5050505060026009016040516126809190614167565b6040518091039020601c60009054906101000a900473ffffffffffffffffffffffffffffffffffffffff1673ffffffffffffffffffffffffffffffffffffffff163373ffffffffffffffffffffffffffffffffffffffff167f32a9eeb55ea56eb60badfb6642d5b92be35b6da6f74892c12d0e14a50dfc2bac8587604051612709929190614289565b60405180910390a4505050565b60008060009054906101000a900473ffffffffffffffffffffffffffffffffffffffff16905090565b60008060009054906101000a900473ffffffffffffffffffffffffffffffffffffffff1673ffffffffffffffffffffffffffffffffffffffff16612781613519565b73ffffffffffffffffffffffffffffffffffffffff1614905090565b6127a633613193565b806127b557506127b461273f565b5b6127f4576040517f08c379a00000000000000000000000000000000000000000000000000000000081526004016127eb90614391565b60405180910390fd5b60008390508073ffffffffffffffffffffffffffffffffffffffff16633950935184846040518363ffffffff1660e01b8152600401612834929190614289565b600060405180830381600087803b15801561284e57600080fd5b505af1158015612862573d6000803e3d6000fd5b5050505060026015016040516128789190614167565b60405180910390208473ffffffffffffffffffffffffffffffffffffffff163373ffffffffffffffffffffffffffffffffffffffff167f32a9eeb55ea56eb60badfb6642d5b92be35b6da6f74892c12d0e14a50dfc2bac86866040516128df929190614289565b60405180910390a450505050565b6128f633613193565b80612905575061290461273f565b5b612944576040517f08c379a000000000000000000000000000000000000000000000000000000000815260040161293b90614391565b60405180910390fd5b60008390508073ffffffffffffffffffffffffffffffffffffffff1663095ea7b384846040518363ffffffff1660e01b8152600401612984929190614289565b600060405180830381600087803b15801561299e57600080fd5b505af11580156129b2573d6000803e3d6000fd5b5050505060026010016040516129c89190614167565b60405180910390208473ffffffffffffffffffffffffffffffffffffffff163373ffffffffffffffffffffffffffffffffffffffff167f32a9eeb55ea56eb60badfb6642d5b92be35b6da6f74892c12d0e14a50dfc2bac8686604051612a2f929190614289565b60405180910390a450505050565b612a4633613193565b80612a555750612a5461273f565b5b612a94576040517f08c379a0000000000000000000000000000000000000000000000000000000008152600401612a8b90614391565b60405180910390fd5b60008390506002600101604051612aab9190614167565b60405180910390208473ffffffffffffffffffffffffffffffffffffffff163373ffffffffffffffffffffffffffffffffffffffff167f32a9eeb55ea56eb60badfb6642d5b92be35b6da6f74892c12d0e14a50dfc2bac8786604051612b12929190614289565b60405180910390a48073ffffffffffffffffffffffffffffffffffffffff1663a9059cbb84846040518363ffffffff1660e01b8152600401612b55929190614289565b600060405180830381600087803b158015612b6f57600080fd5b505af1158015612b83573d6000803e3d6000fd5b5050505050505050565b612b9633613193565b80612ba55750612ba461273f565b5b612be4576040517f08c379a0000000000000000000000000000000000000000000000000000000008152600401612bdb90614391565b60405180910390fd5b601c60009054906101000a900473ffffffffffffffffffffffffffffffffffffffff1673ffffffffffffffffffffffffffffffffffffffff1663c0f4ed31348585856040518563ffffffff1660e01b8152600401612c4493929190614516565b6000604051808303818588803b158015612c5d57600080fd5b505af1158015612c71573d6000803e3d6000fd5b50505050506002600801604051612c889190614167565b6040518091039020601c60009054906101000a900473ffffffffffffffffffffffffffffffffffffffff1673ffffffffffffffffffffffffffffffffffffffff163373ffffffffffffffffffffffffffffffffffffffff167f32a9eeb55ea56eb60badfb6642d5b92be35b6da6f74892c12d0e14a50dfc2bac8587604051612d11929190614289565b60405180910390a4505050565b612d2733613193565b80612d365750612d3561273f565b5b612d75576040517f08c379a0000000000000000000000000000000000000000000000000000000008152600401612d6c90614391565b60405180910390fd5b60008390508073ffffffffffffffffffffffffffffffffffffffff16636618846384846040518363ffffffff1660e01b8152600401612db5929190614289565b600060405180830381600087803b158015612dcf57600080fd5b505af1158015612de3573d6000803e3d6000fd5b505050506002601601604051612df99190614167565b60405180910390208473ffffffffffffffffffffffffffffffffffffffff163373ffffffffffffffffffffffffffffffffffffffff167f32a9eeb55ea56eb60badfb6642d5b92be35b6da6f74892c12d0e14a50dfc2bac8686604051612e60929190614289565b60405180910390a450505050565b612e7733613193565b80612e865750612e8561273f565b5b612ec5576040517f08c379a0000000000000000000000000000000000000000000000000000000008152600401612ebc90614391565b60405180910390fd5b601c60009054906101000a900473ffffffffffffffffffffffffffffffffffffffff1673ffffffffffffffffffffffffffffffffffffffff16631f90607a82846040518363ffffffff1660e01b8152600401612f22929190614289565b600060405180830381600087803b158015612f3c57600080fd5b505af1158015612f50573d6000803e3d6000fd5b505050506002600f01604051612f669190614167565b6040518091039020601c60009054906101000a900473ffffffffffffffffffffffffffffffffffffffff1673ffffffffffffffffffffffffffffffffffffffff163373ffffffffffffffffffffffffffffffffffffffff167f32a9eeb55ea56eb60badfb6642d5b92be35b6da6f74892c12d0e14a50dfc2bac8486604051612fef929190614289565b60405180910390a45050565b61300361273f565b613042576040517f08c379a0000000000000000000000000000000000000000000000000000000008152600401613039906143d1565b60405180910390fd5b61304b81613521565b50565b61305661273f565b613095576040517f08c379a000000000000000000000000000000000000000000000000000000000815260040161308c906143d1565b60405180910390fd5b60008190508073ffffffffffffffffffffffffffffffffffffffff1663a9059cbb338373ffffffffffffffffffffffffffffffffffffffff166370a08231306040518263ffffffff1660e01b81526004016130f09190614199565b60206040518083038186803b15801561310857600080fd5b505afa15801561311c573d6000803e3d6000fd5b505050506040513d601f19601f820116820180604052506131409190810190613acf565b6040518363ffffffff1660e01b815260040161315d9291906141b4565b600060405180830381600087803b15801561317757600080fd5b505af115801561318b573d6000803e3d6000fd5b505050505050565b600080600090505b60018054905081101561322a57600181815481106131b557fe5b9060005260206000200160009054906101000a900473ffffffffffffffffffffffffffffffffffffffff1673ffffffffffffffffffffffffffffffffffffffff168373ffffffffffffffffffffffffffffffffffffffff16141561321d576001915050613230565b808060010191505061319b565b50600090505b919050565b61323e33613193565b8061324d575061324c61273f565b5b61328c576040517f08c379a000000000000000000000000000000000000000000000000000000000815260040161328390614391565b60405180910390fd5b600083905060026003016040516132a39190614167565b60405180910390208473ffffffffffffffffffffffffffffffffffffffff163373ffffffffffffffffffffffffffffffffffffffff167f32a9eeb55ea56eb60badfb6642d5b92be35b6da6f74892c12d0e14a50dfc2bac87600060405161330b929190614260565b60405180910390a48073ffffffffffffffffffffffffffffffffffffffff1663056b01ce84846040518363ffffffff1660e01b815260040161334e929190614341565b600060405180830381600087803b15801561336857600080fd5b505af115801561337c573d6000803e3d6000fd5b5050505050505050565b61338f33613193565b8061339e575061339d61273f565b5b6133dd576040517f08c379a00000000000000000000000000000000000000000000000000000000081526004016133d490614391565b60405180910390fd5b601c60009054906101000a900473ffffffffffffffffffffffffffffffffffffffff1673ffffffffffffffffffffffffffffffffffffffff1663ff8edbdb858585856040518563ffffffff1660e01b815260040161343e949392919061454d565b600060405180830381600087803b15801561345857600080fd5b505af115801561346c573d6000803e3d6000fd5b505050506002600a016040516134829190614167565b6040518091039020601c60009054906101000a900473ffffffffffffffffffffffffffffffffffffffff1673ffffffffffffffffffffffffffffffffffffffff163373ffffffffffffffffffffffffffffffffffffffff167f32a9eeb55ea56eb60badfb6642d5b92be35b6da6f74892c12d0e14a50dfc2bac868860405161350b929190614289565b60405180910390a450505050565b600033905090565b600073ffffffffffffffffffffffffffffffffffffffff168173ffffffffffffffffffffffffffffffffffffffff161415613591576040517f08c379a000000000000000000000000000000000000000000000000000000000815260040161358890614371565b60405180910390fd5b8073ffffffffffffffffffffffffffffffffffffffff166000809054906101000a900473ffffffffffffffffffffffffffffffffffffffff1673ffffffffffffffffffffffffffffffffffffffff167f8be0079c531659141344cd1fd0a4f28419497f9722a3daafe3b4186f6b6457e060405160405180910390a3806000806101000a81548173ffffffffffffffffffffffffffffffffffffffff021916908373ffffffffffffffffffffffffffffffffffffffff16021790555050565b60008135905061365e81614865565b92915050565b60008151905061367381614865565b92915050565b6000813590506136888161487c565b92915050565b600082601f83011261369f57600080fd5b81356136b26136ad8261466d565b614640565b915080825260208301602083018583830111156136ce57600080fd5b6136d9838284614812565b50505092915050565b600082601f8301126136f357600080fd5b813561370661370182614699565b614640565b9150808252602083016020830185838301111561372257600080fd5b61372d838284614812565b50505092915050565b600082601f83011261374757600080fd5b815161375a61375582614699565b614640565b9150808252602083016020830185838301111561377657600080fd5b613781838284614821565b50505092915050565b60008135905061379981614893565b92915050565b6000815190506137ae81614893565b92915050565b6000602082840312156137c657600080fd5b60006137d48482850161364f565b91505092915050565b6000602082840312156137ef57600080fd5b60006137fd84828501613664565b91505092915050565b6000806000806080858703121561381c57600080fd5b600061382a8782880161364f565b945050602061383b8782880161364f565b935050604061384c8782880161364f565b925050606061385d8782880161378a565b91505092959194509250565b600080600080600060a0868803121561388157600080fd5b600061388f8882890161364f565b95505060206138a08882890161364f565b94505060406138b18882890161364f565b93505060606138c28882890161378a565b925050608086013567ffffffffffffffff8111156138df57600080fd5b6138eb8882890161368e565b9150509295509295909350565b60008060006060848603121561390d57600080fd5b600061391b8682870161364f565b935050602061392c8682870161364f565b925050604061393d8682870161378a565b9150509250925092565b6000806000806080858703121561395d57600080fd5b600061396b8782880161364f565b945050602061397c8782880161364f565b935050604061398d8782880161378a565b925050606085013567ffffffffffffffff8111156139aa57600080fd5b6139b68782880161368e565b91505092959194509250565b6000806000606084860312156139d757600080fd5b60006139e58682870161364f565b935050602084013567ffffffffffffffff811115613a0257600080fd5b613a0e868287016136e2565b9250506040613a1f8682870161378a565b9150509250925092565b60008060408385031215613a3c57600080fd5b6000613a4a8582860161364f565b9250506020613a5b8582860161378a565b9150509250929050565b600060208284031215613a7757600080fd5b600082015167ffffffffffffffff811115613a9157600080fd5b613a9d84828501613736565b91505092915050565b600060208284031215613ab857600080fd5b6000613ac68482850161378a565b91505092915050565b600060208284031215613ae157600080fd5b6000613aef8482850161379f565b91505092915050565b60008060408385031215613b0b57600080fd5b6000613b198582860161378a565b9250506020613b2a8582860161364f565b9150509250929050565b600080600060608486031215613b4957600080fd5b6000613b578682870161378a565b9350506020613b688682870161364f565b9250506040613b798682870161364f565b9150509250925092565b60008060008060808587031215613b9957600080fd5b6000613ba78782880161378a565b9450506020613bb88782880161364f565b9350506040613bc98782880161364f565b9250506060613bda87828801613679565b91505092959194509250565b60008060008060808587031215613bfc57600080fd5b6000613c0a8782880161378a565b9450506020613c1b8782880161364f565b9350506040613c2c8782880161364f565b9250506060613c3d8782880161378a565b91505092959194509250565b600080600060608486031215613c5e57600080fd5b6000613c6c8682870161378a565b9350506020613c7d8682870161364f565b9250506040613c8e86828701613679565b9150509250925092565b600080600060608486031215613cad57600080fd5b6000613cbb8682870161378a565b9350506020613ccc8682870161364f565b9250506040613cdd8682870161378a565b9150509250925092565b60008060008060808587031215613cfd57600080fd5b6000613d0b8782880161378a565b9450506020613d1c8782880161364f565b9350506040613d2d8782880161378a565b9250506060613d3e8782880161364f565b91505092959194509250565b600080600080600080600080610100898b031215613d6757600080fd5b6000613d758b828c0161378a565b9850506020613d868b828c0161378a565b9750506040613d978b828c0161378a565b9650506060613da88b828c0161378a565b9550506080613db98b828c0161378a565b94505060a0613dca8b828c0161378a565b93505060c0613ddb8b828c0161364f565b92505060e0613dec8b828c0161364f565b9150509295985092959890939650565b6000613e088383613e23565b60208301905092915050565b613e1d816147ca565b82525050565b613e2c81614756565b82525050565b613e3b81614756565b82525050565b6000613e4c826146ea565b613e568185614718565b9350613e61836146c5565b8060005b83811015613e92578151613e798882613dfc565b9750613e848361470b565b925050600181019050613e65565b5085935050505092915050565b613ea881614768565b82525050565b613eb781614774565b82525050565b6000613ec8826146f5565b613ed28185614729565b9350613ee2818560208601614821565b613eeb81614854565b840191505092915050565b613eff816147dc565b82525050565b6000613f1082614700565b613f1a818561473a565b9350613f2a818560208601614821565b613f3381614854565b840191505092915050565b600081546001811660008114613f5b5760018114613f8057613fc4565b607f6002830416613f6c818761474b565b955060ff1983168652808601935050613fc4565b60028204613f8e818761474b565b9550613f99856146d5565b60005b82811015613fbb57815481890152600182019150602081019050613f9c565b82880195505050505b505092915050565b6000613fd960268361473a565b91507f4f776e61626c653a206e6577206f776e657220697320746865207a65726f206160008301527f64647265737300000000000000000000000000000000000000000000000000006020830152604082019050919050565b600061403f60238361473a565b91507f41646d696e4d616e616765723a2061646d696e20616e64206f776e6572206f6e60008301527f6c792e00000000000000000000000000000000000000000000000000000000006020830152604082019050919050565b60006140a5601b8361473a565b91507f546f6b656e206e6f74206170706f726f766520666f72206275726e00000000006000830152602082019050919050565b60006140e560208361473a565b91507f4f776e61626c653a2063616c6c6572206973206e6f7420746865206f776e65726000830152602082019050919050565b600061412560158361473a565b91507f61646d696e20616c726561647920696e206c69737400000000000000000000006000830152602082019050919050565b614161816147c0565b82525050565b60006141738284613f3e565b915081905092915050565b60006020820190506141936000830184613e32565b92915050565b60006020820190506141ae6000830184613e14565b92915050565b60006040820190506141c96000830185613e14565b6141d66020830184614158565b9392505050565b60006060820190506141f26000830186613e32565b6141ff6020830185613e32565b61420c6040830184614158565b949350505050565b60006080820190506142296000830187613e32565b6142366020830186613e32565b6142436040830185614158565b81810360608301526142558184613ebd565b905095945050505050565b60006040820190506142756000830185613e32565b6142826020830184613ef6565b9392505050565b600060408201905061429e6000830185613e32565b6142ab6020830184614158565b9392505050565b60006060820190506142c76000830186613e32565b6142d46020830185614158565b6142e16040830184613e32565b949350505050565b600060208201905081810360008301526143038184613e41565b905092915050565b60006020820190506143206000830184613e9f565b92915050565b600060208201905061433b6000830184613eae565b92915050565b6000604082019050818103600083015261435b8185613f05565b905061436a6020830184614158565b9392505050565b6000602082019050818103600083015261438a81613fcc565b9050919050565b600060208201905081810360008301526143aa81614032565b9050919050565b600060208201905081810360008301526143ca81614098565b9050919050565b600060208201905081810360008301526143ea816140d8565b9050919050565b6000602082019050818103600083015261440a81614118565b9050919050565b60006020820190506144266000830184614158565b92915050565b60006040820190506144416000830185614158565b61444e6020830184613e32565b9392505050565b600060808201905061446a6000830187614158565b6144776020830186613e32565b6144846040830185613e32565b6144916060830184613e9f565b95945050505050565b60006080820190506144af6000830187614158565b6144bc6020830186613e32565b6144c96040830185613e32565b6144d66060830184614158565b95945050505050565b60006060820190506144f46000830186614158565b6145016020830185613e32565b61450e6040830184613e9f565b949350505050565b600060608201905061452b6000830186614158565b6145386020830185613e32565b6145456040830184614158565b949350505050565b60006080820190506145626000830187614158565b61456f6020830186613e32565b61457c6040830185614158565b6145896060830184613e32565b95945050505050565b60006040820190506145a76000830185614158565b81810360208301526145b98184613f05565b90509392505050565b6000610100820190506145d8600083018b614158565b6145e5602083018a614158565b6145f26040830189614158565b6145ff6060830188614158565b61460c6080830187614158565b61461960a0830186614158565b61462660c0830185613e32565b61463360e0830184613e32565b9998505050505050505050565b6000604051905081810181811067ffffffffffffffff8211171561466357600080fd5b8060405250919050565b600067ffffffffffffffff82111561468457600080fd5b601f19601f8301169050602081019050919050565b600067ffffffffffffffff8211156146b057600080fd5b601f19601f8301169050602081019050919050565b6000819050602082019050919050565b60008190508160005260206000209050919050565b600081519050919050565b600081519050919050565b600081519050919050565b6000602082019050919050565b600082825260208201905092915050565b600082825260208201905092915050565b600082825260208201905092915050565b600081905092915050565b6000614761826147a0565b9050919050565b60008115159050919050565b60007fffffffff0000000000000000000000000000000000000000000000000000000082169050919050565b600073ffffffffffffffffffffffffffffffffffffffff82169050919050565b6000819050919050565b60006147d5826147ee565b9050919050565b60006147e7826147c0565b9050919050565b60006147f982614800565b9050919050565b600061480b826147a0565b9050919050565b82818337600083830152505050565b60005b8381101561483f578082015181840152602081019050614824565b8381111561484e576000848401525b50505050565b6000601f19601f8301169050919050565b61486e81614756565b811461487957600080fd5b50565b61488581614768565b811461489057600080fd5b50565b61489c816147c0565b81146148a757600080fd5b5056fea365627a7a723158203569e5078b759a604dea38620a673440196e018c59c112bace4446249dcb7d426c6578706572696d656e74616cf564736f6c63430005110040",
					"opcodes": "PUSH1 0x80 PUSH1 0x40 MSTORE PUSH1 0x40 MLOAD DUP1 PUSH2 0x340 ADD PUSH1 0x40 MSTORE DUP1 PUSH1 0x40 MLOAD DUP1 PUSH1 0x40 ADD PUSH1 0x40 MSTORE DUP1 PUSH1 0xE DUP2 MSTORE PUSH1 0x20 ADD PUSH32 0x4552433732313A617070726F7665000000000000000000000000000000000000 DUP2 MSTORE POP DUP2 MSTORE PUSH1 0x20 ADD PUSH1 0x40 MLOAD DUP1 PUSH1 0x40 ADD PUSH1 0x40 MSTORE DUP1 PUSH1 0xF DUP2 MSTORE PUSH1 0x20 ADD PUSH32 0x4552433732313A7472616E736665720000000000000000000000000000000000 DUP2 MSTORE POP DUP2 MSTORE PUSH1 0x20 ADD PUSH1 0x40 MLOAD DUP1 PUSH1 0x40 ADD PUSH1 0x40 MSTORE DUP1 PUSH1 0xB DUP2 MSTORE PUSH1 0x20 ADD PUSH32 0x4552433732313A6275726E000000000000000000000000000000000000000000 DUP2 MSTORE POP DUP2 MSTORE PUSH1 0x20 ADD PUSH1 0x40 MLOAD DUP1 PUSH1 0x40 ADD PUSH1 0x40 MSTORE DUP1 PUSH1 0xB DUP2 MSTORE PUSH1 0x20 ADD PUSH32 0x4552433732313A6D696E74000000000000000000000000000000000000000000 DUP2 MSTORE POP DUP2 MSTORE PUSH1 0x20 ADD PUSH1 0x40 MLOAD DUP1 PUSH1 0x40 ADD PUSH1 0x40 MSTORE DUP1 PUSH1 0x17 DUP2 MSTORE PUSH1 0x20 ADD PUSH32 0x4552433732313A736166655472616E7366657246726F6D000000000000000000 DUP2 MSTORE POP DUP2 MSTORE PUSH1 0x20 ADD PUSH1 0x40 MLOAD DUP1 PUSH1 0x40 ADD PUSH1 0x40 MSTORE DUP1 PUSH1 0x13 DUP2 MSTORE PUSH1 0x20 ADD PUSH32 0x4552433732313A7472616E7366657246726F6D00000000000000000000000000 DUP2 MSTORE POP DUP2 MSTORE PUSH1 0x20 ADD PUSH1 0x40 MLOAD DUP1 PUSH1 0x40 ADD PUSH1 0x40 MSTORE DUP1 PUSH1 0x10 DUP2 MSTORE PUSH1 0x20 ADD PUSH32 0x42726F6B65723A7075744F6E53616C6500000000000000000000000000000000 DUP2 MSTORE POP DUP2 MSTORE PUSH1 0x20 ADD PUSH1 0x40 MLOAD DUP1 PUSH1 0x40 ADD PUSH1 0x40 MSTORE DUP1 PUSH1 0xA DUP2 MSTORE PUSH1 0x20 ADD PUSH32 0x42726F6B65723A62757900000000000000000000000000000000000000000000 DUP2 MSTORE POP DUP2 MSTORE PUSH1 0x20 ADD PUSH1 0x40 MLOAD DUP1 PUSH1 0x40 ADD PUSH1 0x40 MSTORE DUP1 PUSH1 0xA DUP2 MSTORE PUSH1 0x20 ADD PUSH32 0x42726F6B65723A62696400000000000000000000000000000000000000000000 DUP2 MSTORE POP DUP2 MSTORE PUSH1 0x20 ADD PUSH1 0x40 MLOAD DUP1 PUSH1 0x40 ADD PUSH1 0x40 MSTORE DUP1 PUSH1 0xE DUP2 MSTORE PUSH1 0x20 ADD PUSH32 0x42726F6B65723A636F6C6C656374000000000000000000000000000000000000 DUP2 MSTORE POP DUP2 MSTORE PUSH1 0x20 ADD PUSH1 0x40 MLOAD DUP1 PUSH1 0x40 ADD PUSH1 0x40 MSTORE DUP1 PUSH1 0x12 DUP2 MSTORE PUSH1 0x20 ADD PUSH32 0x42726F6B65723A75706461746550726963650000000000000000000000000000 DUP2 MSTORE POP DUP2 MSTORE PUSH1 0x20 ADD PUSH1 0x40 MLOAD DUP1 PUSH1 0x40 ADD PUSH1 0x40 MSTORE DUP1 PUSH1 0x11 DUP2 MSTORE PUSH1 0x20 ADD PUSH32 0x42726F6B65723A70757453616C654F6666000000000000000000000000000000 DUP2 MSTORE POP DUP2 MSTORE PUSH1 0x20 ADD PUSH1 0x40 MLOAD DUP1 PUSH1 0x40 ADD PUSH1 0x40 MSTORE DUP1 PUSH1 0x12 DUP2 MSTORE PUSH1 0x20 ADD PUSH32 0x42726F6B65723A6D616B65416E4F666665720000000000000000000000000000 DUP2 MSTORE POP DUP2 MSTORE PUSH1 0x20 ADD PUSH1 0x40 MLOAD DUP1 PUSH1 0x40 ADD PUSH1 0x40 MSTORE DUP1 PUSH1 0x12 DUP2 MSTORE PUSH1 0x20 ADD PUSH32 0x42726F6B65723A6163637065744F666665720000000000000000000000000000 DUP2 MSTORE POP DUP2 MSTORE PUSH1 0x20 ADD PUSH1 0x40 MLOAD DUP1 PUSH1 0x40 ADD PUSH1 0x40 MSTORE DUP1 PUSH1 0x12 DUP2 MSTORE PUSH1 0x20 ADD PUSH32 0x42726F6B65723A7265766572744F666665720000000000000000000000000000 DUP2 MSTORE POP DUP2 MSTORE PUSH1 0x20 ADD PUSH1 0x40 MLOAD DUP1 PUSH1 0x40 ADD PUSH1 0x40 MSTORE DUP1 PUSH1 0x10 DUP2 MSTORE PUSH1 0x20 ADD PUSH32 0x42726F6B65723A726576657274416C6C00000000000000000000000000000000 DUP2 MSTORE POP DUP2 MSTORE PUSH1 0x20 ADD PUSH1 0x40 MLOAD DUP1 PUSH1 0x40 ADD PUSH1 0x40 MSTORE DUP1 PUSH1 0x13 DUP2 MSTORE PUSH1 0x20 ADD PUSH32 0x42726F6B65723A62617463684C697374696E6700000000000000000000000000 DUP2 MSTORE POP DUP2 MSTORE PUSH1 0x20 ADD PUSH1 0x40 MLOAD DUP1 PUSH1 0x40 ADD PUSH1 0x40 MSTORE DUP1 PUSH1 0x15 DUP2 MSTORE PUSH1 0x20 ADD PUSH32 0x42726F6B65723A626174636844656C697374696E670000000000000000000000 DUP2 MSTORE POP DUP2 MSTORE PUSH1 0x20 ADD PUSH1 0x40 MLOAD DUP1 PUSH1 0x40 ADD PUSH1 0x40 MSTORE DUP1 PUSH1 0x11 DUP2 MSTORE PUSH1 0x20 ADD PUSH32 0x42726F6B65723A73657441646472657373000000000000000000000000000000 DUP2 MSTORE POP DUP2 MSTORE PUSH1 0x20 ADD PUSH1 0x40 MLOAD DUP1 PUSH1 0x40 ADD PUSH1 0x40 MSTORE DUP1 PUSH1 0xD DUP2 MSTORE PUSH1 0x20 ADD PUSH32 0x45524332303A617070726F766500000000000000000000000000000000000000 DUP2 MSTORE POP DUP2 MSTORE PUSH1 0x20 ADD PUSH1 0x40 MLOAD DUP1 PUSH1 0x40 ADD PUSH1 0x40 MSTORE DUP1 PUSH1 0x16 DUP2 MSTORE PUSH1 0x20 ADD PUSH32 0x45524332303A6465637265617365417070726F76616C00000000000000000000 DUP2 MSTORE POP DUP2 MSTORE PUSH1 0x20 ADD PUSH1 0x40 MLOAD DUP1 PUSH1 0x40 ADD PUSH1 0x40 MSTORE DUP1 PUSH1 0x16 DUP2 MSTORE PUSH1 0x20 ADD PUSH32 0x45524332303A696E637265617365417070726F76616C00000000000000000000 DUP2 MSTORE POP DUP2 MSTORE PUSH1 0x20 ADD PUSH1 0x40 MLOAD DUP1 PUSH1 0x40 ADD PUSH1 0x40 MSTORE DUP1 PUSH1 0xE DUP2 MSTORE PUSH1 0x20 ADD PUSH32 0x45524332303A7472616E73666572000000000000000000000000000000000000 DUP2 MSTORE POP DUP2 MSTORE PUSH1 0x20 ADD PUSH1 0x40 MLOAD DUP1 PUSH1 0x40 ADD PUSH1 0x40 MSTORE DUP1 PUSH1 0x12 DUP2 MSTORE PUSH1 0x20 ADD PUSH32 0x45524332303A7472616E7366657246726F6D0000000000000000000000000000 DUP2 MSTORE POP DUP2 MSTORE PUSH1 0x20 ADD PUSH1 0x40 MLOAD DUP1 PUSH1 0x40 ADD PUSH1 0x40 MSTORE DUP1 PUSH1 0x17 DUP2 MSTORE PUSH1 0x20 ADD PUSH32 0x45524332303A696E637265617365416C6C6F77616E6365000000000000000000 DUP2 MSTORE POP DUP2 MSTORE PUSH1 0x20 ADD PUSH1 0x40 MLOAD DUP1 PUSH1 0x40 ADD PUSH1 0x40 MSTORE DUP1 PUSH1 0x17 DUP2 MSTORE PUSH1 0x20 ADD PUSH32 0x45524332303A6465637265617365416C6C6F77616E6365000000000000000000 DUP2 MSTORE POP DUP2 MSTORE POP PUSH1 0x2 PUSH1 0x0 DUP3 ADD MLOAD DUP2 PUSH1 0x0 ADD SWAP1 DUP1 MLOAD SWAP1 PUSH1 0x20 ADD SWAP1 PUSH3 0x62C SWAP3 SWAP2 SWAP1 PUSH3 0xC89 JUMP JUMPDEST POP PUSH1 0x20 DUP3 ADD MLOAD DUP2 PUSH1 0x1 ADD SWAP1 DUP1 MLOAD SWAP1 PUSH1 0x20 ADD SWAP1 PUSH3 0x64B SWAP3 SWAP2 SWAP1 PUSH3 0xC89 JUMP JUMPDEST POP PUSH1 0x40 DUP3 ADD MLOAD DUP2 PUSH1 0x2 ADD SWAP1 DUP1 MLOAD SWAP1 PUSH1 0x20 ADD SWAP1 PUSH3 0x66A SWAP3 SWAP2 SWAP1 PUSH3 0xC89 JUMP JUMPDEST POP PUSH1 0x60 DUP3 ADD MLOAD DUP2 PUSH1 0x3 ADD SWAP1 DUP1 MLOAD SWAP1 PUSH1 0x20 ADD SWAP1 PUSH3 0x689 SWAP3 SWAP2 SWAP1 PUSH3 0xC89 JUMP JUMPDEST POP PUSH1 0x80 DUP3 ADD MLOAD DUP2 PUSH1 0x4 ADD SWAP1 DUP1 MLOAD SWAP1 PUSH1 0x20 ADD SWAP1 PUSH3 0x6A8 SWAP3 SWAP2 SWAP1 PUSH3 0xC89 JUMP JUMPDEST POP PUSH1 0xA0 DUP3 ADD MLOAD DUP2 PUSH1 0x5 ADD SWAP1 DUP1 MLOAD SWAP1 PUSH1 0x20 ADD SWAP1 PUSH3 0x6C7 SWAP3 SWAP2 SWAP1 PUSH3 0xC89 JUMP JUMPDEST POP PUSH1 0xC0 DUP3 ADD MLOAD DUP2 PUSH1 0x6 ADD SWAP1 DUP1 MLOAD SWAP1 PUSH1 0x20 ADD SWAP1 PUSH3 0x6E6 SWAP3 SWAP2 SWAP1 PUSH3 0xC89 JUMP JUMPDEST POP PUSH1 0xE0 DUP3 ADD MLOAD DUP2 PUSH1 0x7 ADD SWAP1 DUP1 MLOAD SWAP1 PUSH1 0x20 ADD SWAP1 PUSH3 0x705 SWAP3 SWAP2 SWAP1 PUSH3 0xC89 JUMP JUMPDEST POP PUSH2 0x100 DUP3 ADD MLOAD DUP2 PUSH1 0x8 ADD SWAP1 DUP1 MLOAD SWAP1 PUSH1 0x20 ADD SWAP1 PUSH3 0x725 SWAP3 SWAP2 SWAP1 PUSH3 0xC89 JUMP JUMPDEST POP PUSH2 0x120 DUP3 ADD MLOAD DUP2 PUSH1 0x9 ADD SWAP1 DUP1 MLOAD SWAP1 PUSH1 0x20 ADD SWAP1 PUSH3 0x745 SWAP3 SWAP2 SWAP1 PUSH3 0xC89 JUMP JUMPDEST POP PUSH2 0x140 DUP3 ADD MLOAD DUP2 PUSH1 0xA ADD SWAP1 DUP1 MLOAD SWAP1 PUSH1 0x20 ADD SWAP1 PUSH3 0x765 SWAP3 SWAP2 SWAP1 PUSH3 0xC89 JUMP JUMPDEST POP PUSH2 0x160 DUP3 ADD MLOAD DUP2 PUSH1 0xB ADD SWAP1 DUP1 MLOAD SWAP1 PUSH1 0x20 ADD SWAP1 PUSH3 0x785 SWAP3 SWAP2 SWAP1 PUSH3 0xC89 JUMP JUMPDEST POP PUSH2 0x180 DUP3 ADD MLOAD DUP2 PUSH1 0xC ADD SWAP1 DUP1 MLOAD SWAP1 PUSH1 0x20 ADD SWAP1 PUSH3 0x7A5 SWAP3 SWAP2 SWAP1 PUSH3 0xC89 JUMP JUMPDEST POP PUSH2 0x1A0 DUP3 ADD MLOAD DUP2 PUSH1 0xD ADD SWAP1 DUP1 MLOAD SWAP1 PUSH1 0x20 ADD SWAP1 PUSH3 0x7C5 SWAP3 SWAP2 SWAP1 PUSH3 0xC89 JUMP JUMPDEST POP PUSH2 0x1C0 DUP3 ADD MLOAD DUP2 PUSH1 0xE ADD SWAP1 DUP1 MLOAD SWAP1 PUSH1 0x20 ADD SWAP1 PUSH3 0x7E5 SWAP3 SWAP2 SWAP1 PUSH3 0xC89 JUMP JUMPDEST POP PUSH2 0x1E0 DUP3 ADD MLOAD DUP2 PUSH1 0xF ADD SWAP1 DUP1 MLOAD SWAP1 PUSH1 0x20 ADD SWAP1 PUSH3 0x805 SWAP3 SWAP2 SWAP1 PUSH3 0xC89 JUMP JUMPDEST POP PUSH2 0x200 DUP3 ADD MLOAD DUP2 PUSH1 0x10 ADD SWAP1 DUP1 MLOAD SWAP1 PUSH1 0x20 ADD SWAP1 PUSH3 0x825 SWAP3 SWAP2 SWAP1 PUSH3 0xC89 JUMP JUMPDEST POP PUSH2 0x220 DUP3 ADD MLOAD DUP2 PUSH1 0x11 ADD SWAP1 DUP1 MLOAD SWAP1 PUSH1 0x20 ADD SWAP1 PUSH3 0x845 SWAP3 SWAP2 SWAP1 PUSH3 0xC89 JUMP JUMPDEST POP PUSH2 0x240 DUP3 ADD MLOAD DUP2 PUSH1 0x12 ADD SWAP1 DUP1 MLOAD SWAP1 PUSH1 0x20 ADD SWAP1 PUSH3 0x865 SWAP3 SWAP2 SWAP1 PUSH3 0xC89 JUMP JUMPDEST POP PUSH2 0x260 DUP3 ADD MLOAD DUP2 PUSH1 0x13 ADD SWAP1 DUP1 MLOAD SWAP1 PUSH1 0x20 ADD SWAP1 PUSH3 0x885 SWAP3 SWAP2 SWAP1 PUSH3 0xC89 JUMP JUMPDEST POP PUSH2 0x280 DUP3 ADD MLOAD DUP2 PUSH1 0x14 ADD SWAP1 DUP1 MLOAD SWAP1 PUSH1 0x20 ADD SWAP1 PUSH3 0x8A5 SWAP3 SWAP2 SWAP1 PUSH3 0xC89 JUMP JUMPDEST POP PUSH2 0x2A0 DUP3 ADD MLOAD DUP2 PUSH1 0x15 ADD SWAP1 DUP1 MLOAD SWAP1 PUSH1 0x20 ADD SWAP1 PUSH3 0x8C5 SWAP3 SWAP2 SWAP1 PUSH3 0xC89 JUMP JUMPDEST POP PUSH2 0x2C0 DUP3 ADD MLOAD DUP2 PUSH1 0x16 ADD SWAP1 DUP1 MLOAD SWAP1 PUSH1 0x20 ADD SWAP1 PUSH3 0x8E5 SWAP3 SWAP2 SWAP1 PUSH3 0xC89 JUMP JUMPDEST POP PUSH2 0x2E0 DUP3 ADD MLOAD DUP2 PUSH1 0x17 ADD SWAP1 DUP1 MLOAD SWAP1 PUSH1 0x20 ADD SWAP1 PUSH3 0x905 SWAP3 SWAP2 SWAP1 PUSH3 0xC89 JUMP JUMPDEST POP PUSH2 0x300 DUP3 ADD MLOAD DUP2 PUSH1 0x18 ADD SWAP1 DUP1 MLOAD SWAP1 PUSH1 0x20 ADD SWAP1 PUSH3 0x925 SWAP3 SWAP2 SWAP1 PUSH3 0xC89 JUMP JUMPDEST POP PUSH2 0x320 DUP3 ADD MLOAD DUP2 PUSH1 0x19 ADD SWAP1 DUP1 MLOAD SWAP1 PUSH1 0x20 ADD SWAP1 PUSH3 0x945 SWAP3 SWAP2 SWAP1 PUSH3 0xC89 JUMP JUMPDEST POP POP POP CALLVALUE DUP1 ISZERO PUSH3 0x955 JUMPI PUSH1 0x0 DUP1 REVERT JUMPDEST POP PUSH1 0x40 MLOAD PUSH3 0x57C5 CODESIZE SUB DUP1 PUSH3 0x57C5 DUP4 CODECOPY DUP2 DUP2 ADD PUSH1 0x40 MSTORE PUSH3 0x97B SWAP2 SWAP1 DUP2 ADD SWAP1 PUSH3 0xD4F JUMP JUMPDEST PUSH1 0x0 PUSH3 0x98D PUSH3 0xA84 PUSH1 0x20 SHL PUSH1 0x20 SHR JUMP JUMPDEST SWAP1 POP DUP1 PUSH1 0x0 DUP1 PUSH2 0x100 EXP DUP2 SLOAD DUP2 PUSH20 0xFFFFFFFFFFFFFFFFFFFFFFFFFFFFFFFFFFFFFFFF MUL NOT AND SWAP1 DUP4 PUSH20 0xFFFFFFFFFFFFFFFFFFFFFFFFFFFFFFFFFFFFFFFF AND MUL OR SWAP1 SSTORE POP DUP1 PUSH20 0xFFFFFFFFFFFFFFFFFFFFFFFFFFFFFFFFFFFFFFFF AND PUSH1 0x0 PUSH20 0xFFFFFFFFFFFFFFFFFFFFFFFFFFFFFFFFFFFFFFFF AND PUSH32 0x8BE0079C531659141344CD1FD0A4F28419497F9722A3DAAFE3B4186F6B6457E0 PUSH1 0x40 MLOAD PUSH1 0x40 MLOAD DUP1 SWAP2 SUB SWAP1 LOG3 POP PUSH3 0xA3C CALLER PUSH3 0xA8C PUSH1 0x20 SHL PUSH1 0x20 SHR JUMP JUMPDEST DUP1 PUSH1 0x1C PUSH1 0x0 PUSH2 0x100 EXP DUP2 SLOAD DUP2 PUSH20 0xFFFFFFFFFFFFFFFFFFFFFFFFFFFFFFFFFFFFFFFF MUL NOT AND SWAP1 DUP4 PUSH20 0xFFFFFFFFFFFFFFFFFFFFFFFFFFFFFFFFFFFFFFFF AND MUL OR SWAP1 SSTORE POP POP PUSH3 0xEC8 JUMP JUMPDEST PUSH1 0x0 CALLER SWAP1 POP SWAP1 JUMP JUMPDEST PUSH3 0xA9C PUSH3 0xAF2 PUSH1 0x20 SHL PUSH1 0x20 SHR JUMP JUMPDEST PUSH3 0xADE JUMPI PUSH1 0x40 MLOAD PUSH32 0x8C379A000000000000000000000000000000000000000000000000000000000 DUP2 MSTORE PUSH1 0x4 ADD PUSH3 0xAD5 SWAP1 PUSH3 0xE47 JUMP JUMPDEST PUSH1 0x40 MLOAD DUP1 SWAP2 SUB SWAP1 REVERT JUMPDEST PUSH3 0xAEF DUP2 PUSH3 0xB58 PUSH1 0x20 SHL PUSH1 0x20 SHR JUMP JUMPDEST POP JUMP JUMPDEST PUSH1 0x0 DUP1 PUSH1 0x0 SWAP1 SLOAD SWAP1 PUSH2 0x100 EXP SWAP1 DIV PUSH20 0xFFFFFFFFFFFFFFFFFFFFFFFFFFFFFFFFFFFFFFFF AND PUSH20 0xFFFFFFFFFFFFFFFFFFFFFFFFFFFFFFFFFFFFFFFF AND PUSH3 0xB3C PUSH3 0xA84 PUSH1 0x20 SHL PUSH1 0x20 SHR JUMP JUMPDEST PUSH20 0xFFFFFFFFFFFFFFFFFFFFFFFFFFFFFFFFFFFFFFFF AND EQ SWAP1 POP SWAP1 JUMP JUMPDEST PUSH1 0x0 PUSH20 0xFFFFFFFFFFFFFFFFFFFFFFFFFFFFFFFFFFFFFFFF AND DUP2 PUSH20 0xFFFFFFFFFFFFFFFFFFFFFFFFFFFFFFFFFFFFFFFF AND EQ ISZERO PUSH3 0xBCB JUMPI PUSH1 0x40 MLOAD PUSH32 0x8C379A000000000000000000000000000000000000000000000000000000000 DUP2 MSTORE PUSH1 0x4 ADD PUSH3 0xBC2 SWAP1 PUSH3 0xE25 JUMP JUMPDEST PUSH1 0x40 MLOAD DUP1 SWAP2 SUB SWAP1 REVERT JUMPDEST DUP1 PUSH20 0xFFFFFFFFFFFFFFFFFFFFFFFFFFFFFFFFFFFFFFFF AND PUSH1 0x0 DUP1 SWAP1 SLOAD SWAP1 PUSH2 0x100 EXP SWAP1 DIV PUSH20 0xFFFFFFFFFFFFFFFFFFFFFFFFFFFFFFFFFFFFFFFF AND PUSH20 0xFFFFFFFFFFFFFFFFFFFFFFFFFFFFFFFFFFFFFFFF AND PUSH32 0x8BE0079C531659141344CD1FD0A4F28419497F9722A3DAAFE3B4186F6B6457E0 PUSH1 0x40 MLOAD PUSH1 0x40 MLOAD DUP1 SWAP2 SUB SWAP1 LOG3 DUP1 PUSH1 0x0 DUP1 PUSH2 0x100 EXP DUP2 SLOAD DUP2 PUSH20 0xFFFFFFFFFFFFFFFFFFFFFFFFFFFFFFFFFFFFFFFF MUL NOT AND SWAP1 DUP4 PUSH20 0xFFFFFFFFFFFFFFFFFFFFFFFFFFFFFFFFFFFFFFFF AND MUL OR SWAP1 SSTORE POP POP JUMP JUMPDEST DUP3 DUP1 SLOAD PUSH1 0x1 DUP2 PUSH1 0x1 AND ISZERO PUSH2 0x100 MUL SUB AND PUSH1 0x2 SWAP1 DIV SWAP1 PUSH1 0x0 MSTORE PUSH1 0x20 PUSH1 0x0 KECCAK256 SWAP1 PUSH1 0x1F ADD PUSH1 0x20 SWAP1 DIV DUP2 ADD SWAP3 DUP3 PUSH1 0x1F LT PUSH3 0xCCC JUMPI DUP1 MLOAD PUSH1 0xFF NOT AND DUP4 DUP1 ADD OR DUP6 SSTORE PUSH3 0xCFD JUMP JUMPDEST DUP3 DUP1 ADD PUSH1 0x1 ADD DUP6 SSTORE DUP3 ISZERO PUSH3 0xCFD JUMPI SWAP2 DUP3 ADD JUMPDEST DUP3 DUP2 GT ISZERO PUSH3 0xCFC JUMPI DUP3 MLOAD DUP3 SSTORE SWAP2 PUSH1 0x20 ADD SWAP2 SWAP1 PUSH1 0x1 ADD SWAP1 PUSH3 0xCDF JUMP JUMPDEST JUMPDEST POP SWAP1 POP PUSH3 0xD0C SWAP2 SWAP1 PUSH3 0xD10 JUMP JUMPDEST POP SWAP1 JUMP JUMPDEST PUSH3 0xD35 SWAP2 SWAP1 JUMPDEST DUP1 DUP3 GT ISZERO PUSH3 0xD31 JUMPI PUSH1 0x0 DUP2 PUSH1 0x0 SWAP1 SSTORE POP PUSH1 0x1 ADD PUSH3 0xD17 JUMP JUMPDEST POP SWAP1 JUMP JUMPDEST SWAP1 JUMP JUMPDEST PUSH1 0x0 DUP2 MLOAD SWAP1 POP PUSH3 0xD49 DUP2 PUSH3 0xEAE JUMP JUMPDEST SWAP3 SWAP2 POP POP JUMP JUMPDEST PUSH1 0x0 PUSH1 0x20 DUP3 DUP5 SUB SLT ISZERO PUSH3 0xD62 JUMPI PUSH1 0x0 DUP1 REVERT JUMPDEST PUSH1 0x0 PUSH3 0xD72 DUP5 DUP3 DUP6 ADD PUSH3 0xD38 JUMP JUMPDEST SWAP2 POP POP SWAP3 SWAP2 POP POP JUMP JUMPDEST PUSH1 0x0 PUSH3 0xD8A PUSH1 0x26 DUP4 PUSH3 0xE69 JUMP JUMPDEST SWAP2 POP PUSH32 0x4F776E61626C653A206E6577206F776E657220697320746865207A65726F2061 PUSH1 0x0 DUP4 ADD MSTORE PUSH32 0x6464726573730000000000000000000000000000000000000000000000000000 PUSH1 0x20 DUP4 ADD MSTORE PUSH1 0x40 DUP3 ADD SWAP1 POP SWAP2 SWAP1 POP JUMP JUMPDEST PUSH1 0x0 PUSH3 0xDF2 PUSH1 0x20 DUP4 PUSH3 0xE69 JUMP JUMPDEST SWAP2 POP PUSH32 0x4F776E61626C653A2063616C6C6572206973206E6F7420746865206F776E6572 PUSH1 0x0 DUP4 ADD MSTORE PUSH1 0x20 DUP3 ADD SWAP1 POP SWAP2 SWAP1 POP JUMP JUMPDEST PUSH1 0x0 PUSH1 0x20 DUP3 ADD SWAP1 POP DUP2 DUP2 SUB PUSH1 0x0 DUP4 ADD MSTORE PUSH3 0xE40 DUP2 PUSH3 0xD7B JUMP JUMPDEST SWAP1 POP SWAP2 SWAP1 POP JUMP JUMPDEST PUSH1 0x0 PUSH1 0x20 DUP3 ADD SWAP1 POP DUP2 DUP2 SUB PUSH1 0x0 DUP4 ADD MSTORE PUSH3 0xE62 DUP2 PUSH3 0xDE3 JUMP JUMPDEST SWAP1 POP SWAP2 SWAP1 POP JUMP JUMPDEST PUSH1 0x0 DUP3 DUP3 MSTORE PUSH1 0x20 DUP3 ADD SWAP1 POP SWAP3 SWAP2 POP POP JUMP JUMPDEST PUSH1 0x0 PUSH3 0xE87 DUP3 PUSH3 0xE8E JUMP JUMPDEST SWAP1 POP SWAP2 SWAP1 POP JUMP JUMPDEST PUSH1 0x0 PUSH20 0xFFFFFFFFFFFFFFFFFFFFFFFFFFFFFFFFFFFFFFFF DUP3 AND SWAP1 POP SWAP2 SWAP1 POP JUMP JUMPDEST PUSH3 0xEB9 DUP2 PUSH3 0xE7A JUMP JUMPDEST DUP2 EQ PUSH3 0xEC5 JUMPI PUSH1 0x0 DUP1 REVERT JUMPDEST POP JUMP JUMPDEST PUSH2 0x48ED DUP1 PUSH3 0xED8 PUSH1 0x0 CODECOPY PUSH1 0x0 RETURN INVALID PUSH1 0x80 PUSH1 0x40 MSTORE PUSH1 0x4 CALLDATASIZE LT PUSH2 0x21A JUMPI PUSH1 0x0 CALLDATALOAD PUSH1 0xE0 SHR DUP1 PUSH4 0x640CF873 GT PUSH2 0x123 JUMPI DUP1 PUSH4 0xACE561A8 GT PUSH2 0xAB JUMPI DUP1 PUSH4 0xF2FDE38B GT PUSH2 0x6F JUMPI DUP1 PUSH4 0xF2FDE38B EQ PUSH2 0x705 JUMPI DUP1 PUSH4 0xF4F3B200 EQ PUSH2 0x72E JUMPI DUP1 PUSH4 0xFBA08D45 EQ PUSH2 0x757 JUMPI DUP1 PUSH4 0xFDDEA900 EQ PUSH2 0x794 JUMPI DUP1 PUSH4 0xFF8EDBDB EQ PUSH2 0x7BD JUMPI PUSH2 0x21A JUMP JUMPDEST DUP1 PUSH4 0xACE561A8 EQ PUSH2 0x645 JUMPI DUP1 PUSH4 0xB6011B4C EQ PUSH2 0x66E JUMPI DUP1 PUSH4 0xC0F4ED31 EQ PUSH2 0x697 JUMPI DUP1 PUSH4 0xC347F69B EQ PUSH2 0x6B3 JUMPI DUP1 PUSH4 0xE7AB44B4 EQ PUSH2 0x6DC JUMPI PUSH2 0x21A JUMP JUMPDEST DUP1 PUSH4 0x8450EBE4 GT PUSH2 0xF2 JUMPI DUP1 PUSH4 0x8450EBE4 EQ PUSH2 0x574 JUMPI DUP1 PUSH4 0x8C6AB013 EQ PUSH2 0x59D JUMPI DUP1 PUSH4 0x8DA5CB5B EQ PUSH2 0x5C6 JUMPI DUP1 PUSH4 0x8F32D59B EQ PUSH2 0x5F1 JUMPI DUP1 PUSH4 0x9DC6B78D EQ PUSH2 0x61C JUMPI PUSH2 0x21A JUMP JUMPDEST DUP1 PUSH4 0x640CF873 EQ PUSH2 0x4EF JUMPI DUP1 PUSH4 0x70480275 EQ PUSH2 0x518 JUMPI DUP1 PUSH4 0x715018A6 EQ PUSH2 0x541 JUMPI DUP1 PUSH4 0x7AD157B9 EQ PUSH2 0x558 JUMPI PUSH2 0x21A JUMP JUMPDEST DUP1 PUSH4 0x3169B515 GT PUSH2 0x1A6 JUMPI DUP1 PUSH4 0x47FCF018 GT PUSH2 0x175 JUMPI DUP1 PUSH4 0x47FCF018 EQ PUSH2 0x42F JUMPI DUP1 PUSH4 0x485F952E EQ PUSH2 0x458 JUMPI DUP1 PUSH4 0x488B0F7D EQ PUSH2 0x481 JUMPI DUP1 PUSH4 0x4A0AAFDA EQ PUSH2 0x4AA JUMPI DUP1 PUSH4 0x5AA8680A EQ PUSH2 0x4D3 JUMPI PUSH2 0x21A JUMP JUMPDEST DUP1 PUSH4 0x3169B515 EQ PUSH2 0x3A8 JUMPI DUP1 PUSH4 0x31AE450B EQ PUSH2 0x3C4 JUMPI DUP1 PUSH4 0x3790767D EQ PUSH2 0x3EF JUMPI DUP1 PUSH4 0x3CCFD60B EQ PUSH2 0x418 JUMPI PUSH2 0x21A JUMP JUMPDEST DUP1 PUSH4 0x1785F53C GT PUSH2 0x1ED JUMPI DUP1 PUSH4 0x1785F53C EQ PUSH2 0x2E8 JUMPI DUP1 PUSH4 0x179443F3 EQ PUSH2 0x311 JUMPI DUP1 PUSH4 0x17C48A70 EQ PUSH2 0x33A JUMPI DUP1 PUSH4 0x18FA0653 EQ PUSH2 0x356 JUMPI DUP1 PUSH4 0x1AFFFEC0 EQ PUSH2 0x37F JUMPI PUSH2 0x21A JUMP JUMPDEST DUP1 PUSH4 0xA1B0B91 EQ PUSH2 0x21C JUMPI DUP1 PUSH4 0xC82EA1A EQ PUSH2 0x245 JUMPI DUP1 PUSH4 0x14BFD6D0 EQ PUSH2 0x26E JUMPI DUP1 PUSH4 0x150B7A02 EQ PUSH2 0x2AB JUMPI JUMPDEST STOP JUMPDEST CALLVALUE DUP1 ISZERO PUSH2 0x228 JUMPI PUSH1 0x0 DUP1 REVERT JUMPDEST POP PUSH2 0x243 PUSH1 0x4 DUP1 CALLDATASIZE SUB PUSH2 0x23E SWAP2 SWAP1 DUP2 ADD SWAP1 PUSH2 0x3806 JUMP JUMPDEST PUSH2 0x7E6 JUMP JUMPDEST STOP JUMPDEST CALLVALUE DUP1 ISZERO PUSH2 0x251 JUMPI PUSH1 0x0 DUP1 REVERT JUMPDEST POP PUSH2 0x26C PUSH1 0x4 DUP1 CALLDATASIZE SUB PUSH2 0x267 SWAP2 SWAP1 DUP2 ADD SWAP1 PUSH2 0x38F8 JUMP JUMPDEST PUSH2 0x939 JUMP JUMPDEST STOP JUMPDEST CALLVALUE DUP1 ISZERO PUSH2 0x27A JUMPI PUSH1 0x0 DUP1 REVERT JUMPDEST POP PUSH2 0x295 PUSH1 0x4 DUP1 CALLDATASIZE SUB PUSH2 0x290 SWAP2 SWAP1 DUP2 ADD SWAP1 PUSH2 0x3AA6 JUMP JUMPDEST PUSH2 0xA89 JUMP JUMPDEST PUSH1 0x40 MLOAD PUSH2 0x2A2 SWAP2 SWAP1 PUSH2 0x417E JUMP JUMPDEST PUSH1 0x40 MLOAD DUP1 SWAP2 SUB SWAP1 RETURN JUMPDEST CALLVALUE DUP1 ISZERO PUSH2 0x2B7 JUMPI PUSH1 0x0 DUP1 REVERT JUMPDEST POP PUSH2 0x2D2 PUSH1 0x4 DUP1 CALLDATASIZE SUB PUSH2 0x2CD SWAP2 SWAP1 DUP2 ADD SWAP1 PUSH2 0x3947 JUMP JUMPDEST PUSH2 0xAC5 JUMP JUMPDEST PUSH1 0x40 MLOAD PUSH2 0x2DF SWAP2 SWAP1 PUSH2 0x4326 JUMP JUMPDEST PUSH1 0x40 MLOAD DUP1 SWAP2 SUB SWAP1 RETURN JUMPDEST CALLVALUE DUP1 ISZERO PUSH2 0x2F4 JUMPI PUSH1 0x0 DUP1 REVERT JUMPDEST POP PUSH2 0x30F PUSH1 0x4 DUP1 CALLDATASIZE SUB PUSH2 0x30A SWAP2 SWAP1 DUP2 ADD SWAP1 PUSH2 0x37B4 JUMP JUMPDEST PUSH2 0xAD9 JUMP JUMPDEST STOP JUMPDEST CALLVALUE DUP1 ISZERO PUSH2 0x31D JUMPI PUSH1 0x0 DUP1 REVERT JUMPDEST POP PUSH2 0x338 PUSH1 0x4 DUP1 CALLDATASIZE SUB PUSH2 0x333 SWAP2 SWAP1 DUP2 ADD SWAP1 PUSH2 0x3AF8 JUMP JUMPDEST PUSH2 0xCC0 JUMP JUMPDEST STOP JUMPDEST PUSH2 0x354 PUSH1 0x4 DUP1 CALLDATASIZE SUB PUSH2 0x34F SWAP2 SWAP1 DUP2 ADD SWAP1 PUSH2 0x3B34 JUMP JUMPDEST PUSH2 0xE4D JUMP JUMPDEST STOP JUMPDEST CALLVALUE DUP1 ISZERO PUSH2 0x362 JUMPI PUSH1 0x0 DUP1 REVERT JUMPDEST POP PUSH2 0x37D PUSH1 0x4 DUP1 CALLDATASIZE SUB PUSH2 0x378 SWAP2 SWAP1 DUP2 ADD SWAP1 PUSH2 0x38F8 JUMP JUMPDEST PUSH2 0xFDD JUMP JUMPDEST STOP JUMPDEST CALLVALUE DUP1 ISZERO PUSH2 0x38B JUMPI PUSH1 0x0 DUP1 REVERT JUMPDEST POP PUSH2 0x3A6 PUSH1 0x4 DUP1 CALLDATASIZE SUB PUSH2 0x3A1 SWAP2 SWAP1 DUP2 ADD SWAP1 PUSH2 0x38F8 JUMP JUMPDEST PUSH2 0x112D JUMP JUMPDEST STOP JUMPDEST PUSH2 0x3C2 PUSH1 0x4 DUP1 CALLDATASIZE SUB PUSH2 0x3BD SWAP2 SWAP1 DUP2 ADD SWAP1 PUSH2 0x3BE6 JUMP JUMPDEST PUSH2 0x127D JUMP JUMPDEST STOP JUMPDEST CALLVALUE DUP1 ISZERO PUSH2 0x3D0 JUMPI PUSH1 0x0 DUP1 REVERT JUMPDEST POP PUSH2 0x3D9 PUSH2 0x1410 JUMP JUMPDEST PUSH1 0x40 MLOAD PUSH2 0x3E6 SWAP2 SWAP1 PUSH2 0x42E9 JUMP JUMPDEST PUSH1 0x40 MLOAD DUP1 SWAP2 SUB SWAP1 RETURN JUMPDEST CALLVALUE DUP1 ISZERO PUSH2 0x3FB JUMPI PUSH1 0x0 DUP1 REVERT JUMPDEST POP PUSH2 0x416 PUSH1 0x4 DUP1 CALLDATASIZE SUB PUSH2 0x411 SWAP2 SWAP1 DUP2 ADD SWAP1 PUSH2 0x38F8 JUMP JUMPDEST PUSH2 0x149E JUMP JUMPDEST STOP JUMPDEST CALLVALUE DUP1 ISZERO PUSH2 0x424 JUMPI PUSH1 0x0 DUP1 REVERT JUMPDEST POP PUSH2 0x42D PUSH2 0x15EE JUMP JUMPDEST STOP JUMPDEST CALLVALUE DUP1 ISZERO PUSH2 0x43B JUMPI PUSH1 0x0 DUP1 REVERT JUMPDEST POP PUSH2 0x456 PUSH1 0x4 DUP1 CALLDATASIZE SUB PUSH2 0x451 SWAP2 SWAP1 DUP2 ADD SWAP1 PUSH2 0x3A29 JUMP JUMPDEST PUSH2 0x167E JUMP JUMPDEST STOP JUMPDEST CALLVALUE DUP1 ISZERO PUSH2 0x464 JUMPI PUSH1 0x0 DUP1 REVERT JUMPDEST POP PUSH2 0x47F PUSH1 0x4 DUP1 CALLDATASIZE SUB PUSH2 0x47A SWAP2 SWAP1 DUP2 ADD SWAP1 PUSH2 0x3A29 JUMP JUMPDEST PUSH2 0x193F JUMP JUMPDEST STOP JUMPDEST CALLVALUE DUP1 ISZERO PUSH2 0x48D JUMPI PUSH1 0x0 DUP1 REVERT JUMPDEST POP PUSH2 0x4A8 PUSH1 0x4 DUP1 CALLDATASIZE SUB PUSH2 0x4A3 SWAP2 SWAP1 DUP2 ADD SWAP1 PUSH2 0x3869 JUMP JUMPDEST PUSH2 0x1A8B JUMP JUMPDEST STOP JUMPDEST CALLVALUE DUP1 ISZERO PUSH2 0x4B6 JUMPI PUSH1 0x0 DUP1 REVERT JUMPDEST POP PUSH2 0x4D1 PUSH1 0x4 DUP1 CALLDATASIZE SUB PUSH2 0x4CC SWAP2 SWAP1 DUP2 ADD SWAP1 PUSH2 0x3806 JUMP JUMPDEST PUSH2 0x1BE1 JUMP JUMPDEST STOP JUMPDEST PUSH2 0x4ED PUSH1 0x4 DUP1 CALLDATASIZE SUB PUSH2 0x4E8 SWAP2 SWAP1 DUP2 ADD SWAP1 PUSH2 0x3B83 JUMP JUMPDEST PUSH2 0x1D34 JUMP JUMPDEST STOP JUMPDEST CALLVALUE DUP1 ISZERO PUSH2 0x4FB JUMPI PUSH1 0x0 DUP1 REVERT JUMPDEST POP PUSH2 0x516 PUSH1 0x4 DUP1 CALLDATASIZE SUB PUSH2 0x511 SWAP2 SWAP1 DUP2 ADD SWAP1 PUSH2 0x3D4A JUMP JUMPDEST PUSH2 0x1EC7 JUMP JUMPDEST STOP JUMPDEST CALLVALUE DUP1 ISZERO PUSH2 0x524 JUMPI PUSH1 0x0 DUP1 REVERT JUMPDEST POP PUSH2 0x53F PUSH1 0x4 DUP1 CALLDATASIZE SUB PUSH2 0x53A SWAP2 SWAP1 DUP2 ADD SWAP1 PUSH2 0x37B4 JUMP JUMPDEST PUSH2 0x2066 JUMP JUMPDEST STOP JUMPDEST CALLVALUE DUP1 ISZERO PUSH2 0x54D JUMPI PUSH1 0x0 DUP1 REVERT JUMPDEST POP PUSH2 0x556 PUSH2 0x219C JUMP JUMPDEST STOP JUMPDEST PUSH2 0x572 PUSH1 0x4 DUP1 CALLDATASIZE SUB PUSH2 0x56D SWAP2 SWAP1 DUP2 ADD SWAP1 PUSH2 0x3C49 JUMP JUMPDEST PUSH2 0x22A2 JUMP JUMPDEST STOP JUMPDEST CALLVALUE DUP1 ISZERO PUSH2 0x580 JUMPI PUSH1 0x0 DUP1 REVERT JUMPDEST POP PUSH2 0x59B PUSH1 0x4 DUP1 CALLDATASIZE SUB PUSH2 0x596 SWAP2 SWAP1 DUP2 ADD SWAP1 PUSH2 0x3806 JUMP JUMPDEST PUSH2 0x2433 JUMP JUMPDEST STOP JUMPDEST CALLVALUE DUP1 ISZERO PUSH2 0x5A9 JUMPI PUSH1 0x0 DUP1 REVERT JUMPDEST POP PUSH2 0x5C4 PUSH1 0x4 DUP1 CALLDATASIZE SUB PUSH2 0x5BF SWAP2 SWAP1 DUP2 ADD SWAP1 PUSH2 0x3C49 JUMP JUMPDEST PUSH2 0x2586 JUMP JUMPDEST STOP JUMPDEST CALLVALUE DUP1 ISZERO PUSH2 0x5D2 JUMPI PUSH1 0x0 DUP1 REVERT JUMPDEST POP PUSH2 0x5DB PUSH2 0x2716 JUMP JUMPDEST PUSH1 0x40 MLOAD PUSH2 0x5E8 SWAP2 SWAP1 PUSH2 0x417E JUMP JUMPDEST PUSH1 0x40 MLOAD DUP1 SWAP2 SUB SWAP1 RETURN JUMPDEST CALLVALUE DUP1 ISZERO PUSH2 0x5FD JUMPI PUSH1 0x0 DUP1 REVERT JUMPDEST POP PUSH2 0x606 PUSH2 0x273F JUMP JUMPDEST PUSH1 0x40 MLOAD PUSH2 0x613 SWAP2 SWAP1 PUSH2 0x430B JUMP JUMPDEST PUSH1 0x40 MLOAD DUP1 SWAP2 SUB SWAP1 RETURN JUMPDEST CALLVALUE DUP1 ISZERO PUSH2 0x628 JUMPI PUSH1 0x0 DUP1 REVERT JUMPDEST POP PUSH2 0x643 PUSH1 0x4 DUP1 CALLDATASIZE SUB PUSH2 0x63E SWAP2 SWAP1 DUP2 ADD SWAP1 PUSH2 0x38F8 JUMP JUMPDEST PUSH2 0x279D JUMP JUMPDEST STOP JUMPDEST CALLVALUE DUP1 ISZERO PUSH2 0x651 JUMPI PUSH1 0x0 DUP1 REVERT JUMPDEST POP PUSH2 0x66C PUSH1 0x4 DUP1 CALLDATASIZE SUB PUSH2 0x667 SWAP2 SWAP1 DUP2 ADD SWAP1 PUSH2 0x38F8 JUMP JUMPDEST PUSH2 0x28ED JUMP JUMPDEST STOP JUMPDEST CALLVALUE DUP1 ISZERO PUSH2 0x67A JUMPI PUSH1 0x0 DUP1 REVERT JUMPDEST POP PUSH2 0x695 PUSH1 0x4 DUP1 CALLDATASIZE SUB PUSH2 0x690 SWAP2 SWAP1 DUP2 ADD SWAP1 PUSH2 0x38F8 JUMP JUMPDEST PUSH2 0x2A3D JUMP JUMPDEST STOP JUMPDEST PUSH2 0x6B1 PUSH1 0x4 DUP1 CALLDATASIZE SUB PUSH2 0x6AC SWAP2 SWAP1 DUP2 ADD SWAP1 PUSH2 0x3C98 JUMP JUMPDEST PUSH2 0x2B8D JUMP JUMPDEST STOP JUMPDEST CALLVALUE DUP1 ISZERO PUSH2 0x6BF JUMPI PUSH1 0x0 DUP1 REVERT JUMPDEST POP PUSH2 0x6DA PUSH1 0x4 DUP1 CALLDATASIZE SUB PUSH2 0x6D5 SWAP2 SWAP1 DUP2 ADD SWAP1 PUSH2 0x38F8 JUMP JUMPDEST PUSH2 0x2D1E JUMP JUMPDEST STOP JUMPDEST CALLVALUE DUP1 ISZERO PUSH2 0x6E8 JUMPI PUSH1 0x0 DUP1 REVERT JUMPDEST POP PUSH2 0x703 PUSH1 0x4 DUP1 CALLDATASIZE SUB PUSH2 0x6FE SWAP2 SWAP1 DUP2 ADD SWAP1 PUSH2 0x3AF8 JUMP JUMPDEST PUSH2 0x2E6E JUMP JUMPDEST STOP JUMPDEST CALLVALUE DUP1 ISZERO PUSH2 0x711 JUMPI PUSH1 0x0 DUP1 REVERT JUMPDEST POP PUSH2 0x72C PUSH1 0x4 DUP1 CALLDATASIZE SUB PUSH2 0x727 SWAP2 SWAP1 DUP2 ADD SWAP1 PUSH2 0x37B4 JUMP JUMPDEST PUSH2 0x2FFB JUMP JUMPDEST STOP JUMPDEST CALLVALUE DUP1 ISZERO PUSH2 0x73A JUMPI PUSH1 0x0 DUP1 REVERT JUMPDEST POP PUSH2 0x755 PUSH1 0x4 DUP1 CALLDATASIZE SUB PUSH2 0x750 SWAP2 SWAP1 DUP2 ADD SWAP1 PUSH2 0x37B4 JUMP JUMPDEST PUSH2 0x304E JUMP JUMPDEST STOP JUMPDEST CALLVALUE DUP1 ISZERO PUSH2 0x763 JUMPI PUSH1 0x0 DUP1 REVERT JUMPDEST POP PUSH2 0x77E PUSH1 0x4 DUP1 CALLDATASIZE SUB PUSH2 0x779 SWAP2 SWAP1 DUP2 ADD SWAP1 PUSH2 0x37B4 JUMP JUMPDEST PUSH2 0x3193 JUMP JUMPDEST PUSH1 0x40 MLOAD PUSH2 0x78B SWAP2 SWAP1 PUSH2 0x430B JUMP JUMPDEST PUSH1 0x40 MLOAD DUP1 SWAP2 SUB SWAP1 RETURN JUMPDEST CALLVALUE DUP1 ISZERO PUSH2 0x7A0 JUMPI PUSH1 0x0 DUP1 REVERT JUMPDEST POP PUSH2 0x7BB PUSH1 0x4 DUP1 CALLDATASIZE SUB PUSH2 0x7B6 SWAP2 SWAP1 DUP2 ADD SWAP1 PUSH2 0x39C2 JUMP JUMPDEST PUSH2 0x3235 JUMP JUMPDEST STOP JUMPDEST CALLVALUE DUP1 ISZERO PUSH2 0x7C9 JUMPI PUSH1 0x0 DUP1 REVERT JUMPDEST POP PUSH2 0x7E4 PUSH1 0x4 DUP1 CALLDATASIZE SUB PUSH2 0x7DF SWAP2 SWAP1 DUP2 ADD SWAP1 PUSH2 0x3CE7 JUMP JUMPDEST PUSH2 0x3386 JUMP JUMPDEST STOP JUMPDEST PUSH2 0x7EF CALLER PUSH2 0x3193 JUMP JUMPDEST DUP1 PUSH2 0x7FE JUMPI POP PUSH2 0x7FD PUSH2 0x273F JUMP JUMPDEST JUMPDEST PUSH2 0x83D JUMPI PUSH1 0x40 MLOAD PUSH32 0x8C379A000000000000000000000000000000000000000000000000000000000 DUP2 MSTORE PUSH1 0x4 ADD PUSH2 0x834 SWAP1 PUSH2 0x4391 JUMP JUMPDEST PUSH1 0x40 MLOAD DUP1 SWAP2 SUB SWAP1 REVERT JUMPDEST PUSH1 0x0 DUP5 SWAP1 POP DUP1 PUSH20 0xFFFFFFFFFFFFFFFFFFFFFFFFFFFFFFFFFFFFFFFF AND PUSH4 0x23B872DD DUP6 DUP6 DUP6 PUSH1 0x40 MLOAD DUP5 PUSH4 0xFFFFFFFF AND PUSH1 0xE0 SHL DUP2 MSTORE PUSH1 0x4 ADD PUSH2 0x87F SWAP4 SWAP3 SWAP2 SWAP1 PUSH2 0x41DD JUMP JUMPDEST PUSH1 0x0 PUSH1 0x40 MLOAD DUP1 DUP4 SUB DUP2 PUSH1 0x0 DUP8 DUP1 EXTCODESIZE ISZERO DUP1 ISZERO PUSH2 0x899 JUMPI PUSH1 0x0 DUP1 REVERT JUMPDEST POP GAS CALL ISZERO DUP1 ISZERO PUSH2 0x8AD JUMPI RETURNDATASIZE PUSH1 0x0 DUP1 RETURNDATACOPY RETURNDATASIZE PUSH1 0x0 REVERT JUMPDEST POP POP POP POP PUSH1 0x2 PUSH1 0x14 ADD PUSH1 0x40 MLOAD PUSH2 0x8C3 SWAP2 SWAP1 PUSH2 0x4167 JUMP JUMPDEST PUSH1 0x40 MLOAD DUP1 SWAP2 SUB SWAP1 KECCAK256 DUP6 PUSH20 0xFFFFFFFFFFFFFFFFFFFFFFFFFFFFFFFFFFFFFFFF AND CALLER PUSH20 0xFFFFFFFFFFFFFFFFFFFFFFFFFFFFFFFFFFFFFFFF AND PUSH32 0x32A9EEB55EA56EB60BADFB6642D5B92BE35B6DA6F74892C12D0E14A50DFC2BAC DUP7 DUP7 PUSH1 0x40 MLOAD PUSH2 0x92A SWAP3 SWAP2 SWAP1 PUSH2 0x4289 JUMP JUMPDEST PUSH1 0x40 MLOAD DUP1 SWAP2 SUB SWAP1 LOG4 POP POP POP POP POP JUMP JUMPDEST PUSH2 0x942 CALLER PUSH2 0x3193 JUMP JUMPDEST DUP1 PUSH2 0x951 JUMPI POP PUSH2 0x950 PUSH2 0x273F JUMP JUMPDEST JUMPDEST PUSH2 0x990 JUMPI PUSH1 0x40 MLOAD PUSH32 0x8C379A000000000000000000000000000000000000000000000000000000000 DUP2 MSTORE PUSH1 0x4 ADD PUSH2 0x987 SWAP1 PUSH2 0x4391 JUMP JUMPDEST PUSH1 0x40 MLOAD DUP1 SWAP2 SUB SWAP1 REVERT JUMPDEST PUSH1 0x0 DUP4 SWAP1 POP DUP1 PUSH20 0xFFFFFFFFFFFFFFFFFFFFFFFFFFFFFFFFFFFFFFFF AND PUSH4 0xA457C2D7 DUP5 DUP5 PUSH1 0x40 MLOAD DUP4 PUSH4 0xFFFFFFFF AND PUSH1 0xE0 SHL DUP2 MSTORE PUSH1 0x4 ADD PUSH2 0x9D0 SWAP3 SWAP2 SWAP1 PUSH2 0x4289 JUMP JUMPDEST PUSH1 0x0 PUSH1 0x40 MLOAD DUP1 DUP4 SUB DUP2 PUSH1 0x0 DUP8 DUP1 EXTCODESIZE ISZERO DUP1 ISZERO PUSH2 0x9EA JUMPI PUSH1 0x0 DUP1 REVERT JUMPDEST POP GAS CALL ISZERO DUP1 ISZERO PUSH2 0x9FE JUMPI RETURNDATASIZE PUSH1 0x0 DUP1 RETURNDATACOPY RETURNDATASIZE PUSH1 0x0 REVERT JUMPDEST POP POP POP POP PUSH1 0x2 PUSH1 0x16 ADD PUSH1 0x40 MLOAD PUSH2 0xA14 SWAP2 SWAP1 PUSH2 0x4167 JUMP JUMPDEST PUSH1 0x40 MLOAD DUP1 SWAP2 SUB SWAP1 KECCAK256 DUP5 PUSH20 0xFFFFFFFFFFFFFFFFFFFFFFFFFFFFFFFFFFFFFFFF AND CALLER PUSH20 0xFFFFFFFFFFFFFFFFFFFFFFFFFFFFFFFFFFFFFFFF AND PUSH32 0x32A9EEB55EA56EB60BADFB6642D5B92BE35B6DA6F74892C12D0E14A50DFC2BAC DUP7 DUP7 PUSH1 0x40 MLOAD PUSH2 0xA7B SWAP3 SWAP2 SWAP1 PUSH2 0x4289 JUMP JUMPDEST PUSH1 0x40 MLOAD DUP1 SWAP2 SUB SWAP1 LOG4 POP POP POP POP JUMP JUMPDEST PUSH1 0x1 DUP2 DUP2 SLOAD DUP2 LT PUSH2 0xA96 JUMPI INVALID JUMPDEST SWAP1 PUSH1 0x0 MSTORE PUSH1 0x20 PUSH1 0x0 KECCAK256 ADD PUSH1 0x0 SWAP2 POP SLOAD SWAP1 PUSH2 0x100 EXP SWAP1 DIV PUSH20 0xFFFFFFFFFFFFFFFFFFFFFFFFFFFFFFFFFFFFFFFF AND DUP2 JUMP JUMPDEST PUSH1 0x0 PUSH4 0x150B7A02 PUSH1 0xE0 SHL SWAP1 POP SWAP5 SWAP4 POP POP POP POP JUMP JUMPDEST PUSH2 0xAE1 PUSH2 0x273F JUMP JUMPDEST PUSH2 0xB20 JUMPI PUSH1 0x40 MLOAD PUSH32 0x8C379A000000000000000000000000000000000000000000000000000000000 DUP2 MSTORE PUSH1 0x4 ADD PUSH2 0xB17 SWAP1 PUSH2 0x43D1 JUMP JUMPDEST PUSH1 0x40 MLOAD DUP1 SWAP2 SUB SWAP1 REVERT JUMPDEST PUSH1 0x0 DUP1 SWAP1 POP JUMPDEST PUSH1 0x1 DUP1 SLOAD SWAP1 POP DUP2 LT ISZERO PUSH2 0xC83 JUMPI DUP2 PUSH20 0xFFFFFFFFFFFFFFFFFFFFFFFFFFFFFFFFFFFFFFFF AND PUSH1 0x1 DUP3 DUP2 SLOAD DUP2 LT PUSH2 0xB57 JUMPI INVALID JUMPDEST SWAP1 PUSH1 0x0 MSTORE PUSH1 0x20 PUSH1 0x0 KECCAK256 ADD PUSH1 0x0 SWAP1 SLOAD SWAP1 PUSH2 0x100 EXP SWAP1 DIV PUSH20 0xFFFFFFFFFFFFFFFFFFFFFFFFFFFFFFFFFFFFFFFF AND PUSH20 0xFFFFFFFFFFFFFFFFFFFFFFFFFFFFFFFFFFFFFFFF AND EQ ISZERO PUSH2 0xC76 JUMPI PUSH1 0x1 DUP2 DUP2 SLOAD DUP2 LT PUSH2 0xBAB JUMPI INVALID JUMPDEST SWAP1 PUSH1 0x0 MSTORE PUSH1 0x20 PUSH1 0x0 KECCAK256 ADD PUSH1 0x0 SWAP1 SLOAD SWAP1 PUSH2 0x100 EXP SWAP1 DIV PUSH20 0xFFFFFFFFFFFFFFFFFFFFFFFFFFFFFFFFFFFFFFFF AND PUSH1 0x1 DUP1 DUP1 DUP1 SLOAD SWAP1 POP SUB DUP2 SLOAD DUP2 LT PUSH2 0xBE9 JUMPI INVALID JUMPDEST SWAP1 PUSH1 0x0 MSTORE PUSH1 0x20 PUSH1 0x0 KECCAK256 ADD PUSH1 0x0 PUSH2 0x100 EXP DUP2 SLOAD DUP2 PUSH20 0xFFFFFFFFFFFFFFFFFFFFFFFFFFFFFFFFFFFFFFFF MUL NOT AND SWAP1 DUP4 PUSH20 0xFFFFFFFFFFFFFFFFFFFFFFFFFFFFFFFFFFFFFFFF AND MUL OR SWAP1 SSTORE POP PUSH1 0x1 DUP1 SLOAD DUP1 PUSH2 0xC3C JUMPI INVALID JUMPDEST PUSH1 0x1 SWAP1 SUB DUP2 DUP2 SWAP1 PUSH1 0x0 MSTORE PUSH1 0x20 PUSH1 0x0 KECCAK256 ADD PUSH1 0x0 PUSH2 0x100 EXP DUP2 SLOAD SWAP1 PUSH20 0xFFFFFFFFFFFFFFFFFFFFFFFFFFFFFFFFFFFFFFFF MUL NOT AND SWAP1 SSTORE SWAP1 SSTORE PUSH2 0xC83 JUMP JUMPDEST DUP1 DUP1 PUSH1 0x1 ADD SWAP2 POP POP PUSH2 0xB26 JUMP JUMPDEST POP PUSH32 0xA0726C73CF6AD18DDB855BA65D1DDD4D7FD37D320F4E52F6B154C13D386F5FD9 DUP2 TIMESTAMP PUSH1 0x40 MLOAD PUSH2 0xCB5 SWAP3 SWAP2 SWAP1 PUSH2 0x4289 JUMP JUMPDEST PUSH1 0x40 MLOAD DUP1 SWAP2 SUB SWAP1 LOG1 POP JUMP JUMPDEST PUSH2 0xCC9 CALLER PUSH2 0x3193 JUMP JUMPDEST DUP1 PUSH2 0xCD8 JUMPI POP PUSH2 0xCD7 PUSH2 0x273F JUMP JUMPDEST JUMPDEST PUSH2 0xD17 JUMPI PUSH1 0x40 MLOAD PUSH32 0x8C379A000000000000000000000000000000000000000000000000000000000 DUP2 MSTORE PUSH1 0x4 ADD PUSH2 0xD0E SWAP1 PUSH2 0x4391 JUMP JUMPDEST PUSH1 0x40 MLOAD DUP1 SWAP2 SUB SWAP1 REVERT JUMPDEST PUSH1 0x1C PUSH1 0x0 SWAP1 SLOAD SWAP1 PUSH2 0x100 EXP SWAP1 DIV PUSH20 0xFFFFFFFFFFFFFFFFFFFFFFFFFFFFFFFFFFFFFFFF AND PUSH20 0xFFFFFFFFFFFFFFFFFFFFFFFFFFFFFFFFFFFFFFFF AND PUSH4 0x179443F3 DUP4 DUP4 PUSH1 0x40 MLOAD DUP4 PUSH4 0xFFFFFFFF AND PUSH1 0xE0 SHL DUP2 MSTORE PUSH1 0x4 ADD PUSH2 0xD74 SWAP3 SWAP2 SWAP1 PUSH2 0x442C JUMP JUMPDEST PUSH1 0x0 PUSH1 0x40 MLOAD DUP1 DUP4 SUB DUP2 PUSH1 0x0 DUP8 DUP1 EXTCODESIZE ISZERO DUP1 ISZERO PUSH2 0xD8E JUMPI PUSH1 0x0 DUP1 REVERT JUMPDEST POP GAS CALL ISZERO DUP1 ISZERO PUSH2 0xDA2 JUMPI RETURNDATASIZE PUSH1 0x0 DUP1 RETURNDATACOPY RETURNDATASIZE PUSH1 0x0 REVERT JUMPDEST POP POP POP POP PUSH1 0x2 PUSH1 0xB ADD PUSH1 0x40 MLOAD PUSH2 0xDB8 SWAP2 SWAP1 PUSH2 0x4167 JUMP JUMPDEST PUSH1 0x40 MLOAD DUP1 SWAP2 SUB SWAP1 KECCAK256 PUSH1 0x1C PUSH1 0x0 SWAP1 SLOAD SWAP1 PUSH2 0x100 EXP SWAP1 DIV PUSH20 0xFFFFFFFFFFFFFFFFFFFFFFFFFFFFFFFFFFFFFFFF AND PUSH20 0xFFFFFFFFFFFFFFFFFFFFFFFFFFFFFFFFFFFFFFFF AND CALLER PUSH20 0xFFFFFFFFFFFFFFFFFFFFFFFFFFFFFFFFFFFFFFFF AND PUSH32 0x32A9EEB55EA56EB60BADFB6642D5B92BE35B6DA6F74892C12D0E14A50DFC2BAC DUP5 DUP7 PUSH1 0x40 MLOAD PUSH2 0xE41 SWAP3 SWAP2 SWAP1 PUSH2 0x4289 JUMP JUMPDEST PUSH1 0x40 MLOAD DUP1 SWAP2 SUB SWAP1 LOG4 POP POP JUMP JUMPDEST PUSH2 0xE56 CALLER PUSH2 0x3193 JUMP JUMPDEST DUP1 PUSH2 0xE65 JUMPI POP PUSH2 0xE64 PUSH2 0x273F JUMP JUMPDEST JUMPDEST PUSH2 0xEA4 JUMPI PUSH1 0x40 MLOAD PUSH32 0x8C379A000000000000000000000000000000000000000000000000000000000 DUP2 MSTORE PUSH1 0x4 ADD PUSH2 0xE9B SWAP1 PUSH2 0x4391 JUMP JUMPDEST PUSH1 0x40 MLOAD DUP1 SWAP2 SUB SWAP1 REVERT JUMPDEST PUSH1 0x1C PUSH1 0x0 SWAP1 SLOAD SWAP1 PUSH2 0x100 EXP SWAP1 DIV PUSH20 0xFFFFFFFFFFFFFFFFFFFFFFFFFFFFFFFFFFFFFFFF AND PUSH20 0xFFFFFFFFFFFFFFFFFFFFFFFFFFFFFFFFFFFFFFFF AND PUSH4 0x136A6A24 DUP4 DUP6 DUP5 PUSH1 0x40 MLOAD DUP5 PUSH4 0xFFFFFFFF AND PUSH1 0xE0 SHL DUP2 MSTORE PUSH1 0x4 ADD PUSH2 0xF03 SWAP4 SWAP3 SWAP2 SWAP1 PUSH2 0x42B2 JUMP JUMPDEST PUSH1 0x0 PUSH1 0x40 MLOAD DUP1 DUP4 SUB DUP2 PUSH1 0x0 DUP8 DUP1 EXTCODESIZE ISZERO DUP1 ISZERO PUSH2 0xF1D JUMPI PUSH1 0x0 DUP1 REVERT JUMPDEST POP GAS CALL ISZERO DUP1 ISZERO PUSH2 0xF31 JUMPI RETURNDATASIZE PUSH1 0x0 DUP1 RETURNDATACOPY RETURNDATASIZE PUSH1 0x0 REVERT JUMPDEST POP POP POP POP PUSH1 0x2 PUSH1 0xE ADD PUSH1 0x40 MLOAD PUSH2 0xF47 SWAP2 SWAP1 PUSH2 0x4167 JUMP JUMPDEST PUSH1 0x40 MLOAD DUP1 SWAP2 SUB SWAP1 KECCAK256 PUSH1 0x1C PUSH1 0x0 SWAP1 SLOAD SWAP1 PUSH2 0x100 EXP SWAP1 DIV PUSH20 0xFFFFFFFFFFFFFFFFFFFFFFFFFFFFFFFFFFFFFFFF AND PUSH20 0xFFFFFFFFFFFFFFFFFFFFFFFFFFFFFFFFFFFFFFFF AND CALLER PUSH20 0xFFFFFFFFFFFFFFFFFFFFFFFFFFFFFFFFFFFFFFFF AND PUSH32 0x32A9EEB55EA56EB60BADFB6642D5B92BE35B6DA6F74892C12D0E14A50DFC2BAC DUP6 DUP8 PUSH1 0x40 MLOAD PUSH2 0xFD0 SWAP3 SWAP2 SWAP1 PUSH2 0x4289 JUMP JUMPDEST PUSH1 0x40 MLOAD DUP1 SWAP2 SUB SWAP1 LOG4 POP POP POP JUMP JUMPDEST PUSH2 0xFE6 CALLER PUSH2 0x3193 JUMP JUMPDEST DUP1 PUSH2 0xFF5 JUMPI POP PUSH2 0xFF4 PUSH2 0x273F JUMP JUMPDEST JUMPDEST PUSH2 0x1034 JUMPI PUSH1 0x40 MLOAD PUSH32 0x8C379A000000000000000000000000000000000000000000000000000000000 DUP2 MSTORE PUSH1 0x4 ADD PUSH2 0x102B SWAP1 PUSH2 0x4391 JUMP JUMPDEST PUSH1 0x40 MLOAD DUP1 SWAP2 SUB SWAP1 REVERT JUMPDEST PUSH1 0x0 DUP4 SWAP1 POP PUSH1 0x2 PUSH1 0x0 ADD PUSH1 0x40 MLOAD PUSH2 0x104B SWAP2 SWAP1 PUSH2 0x4167 JUMP JUMPDEST PUSH1 0x40 MLOAD DUP1 SWAP2 SUB SWAP1 KECCAK256 DUP5 PUSH20 0xFFFFFFFFFFFFFFFFFFFFFFFFFFFFFFFFFFFFFFFF AND CALLER PUSH20 0xFFFFFFFFFFFFFFFFFFFFFFFFFFFFFFFFFFFFFFFF AND PUSH32 0x32A9EEB55EA56EB60BADFB6642D5B92BE35B6DA6F74892C12D0E14A50DFC2BAC DUP8 DUP7 PUSH1 0x40 MLOAD PUSH2 0x10B2 SWAP3 SWAP2 SWAP1 PUSH2 0x4289 JUMP JUMPDEST PUSH1 0x40 MLOAD DUP1 SWAP2 SUB SWAP1 LOG4 DUP1 PUSH20 0xFFFFFFFFFFFFFFFFFFFFFFFFFFFFFFFFFFFFFFFF AND PUSH4 0x95EA7B3 DUP5 DUP5 PUSH1 0x40 MLOAD DUP4 PUSH4 0xFFFFFFFF AND PUSH1 0xE0 SHL DUP2 MSTORE PUSH1 0x4 ADD PUSH2 0x10F5 SWAP3 SWAP2 SWAP1 PUSH2 0x4289 JUMP JUMPDEST PUSH1 0x0 PUSH1 0x40 MLOAD DUP1 DUP4 SUB DUP2 PUSH1 0x0 DUP8 DUP1 EXTCODESIZE ISZERO DUP1 ISZERO PUSH2 0x110F JUMPI PUSH1 0x0 DUP1 REVERT JUMPDEST POP GAS CALL ISZERO DUP1 ISZERO PUSH2 0x1123 JUMPI RETURNDATASIZE PUSH1 0x0 DUP1 RETURNDATACOPY RETURNDATASIZE PUSH1 0x0 REVERT JUMPDEST POP POP POP POP POP POP POP POP JUMP JUMPDEST PUSH2 0x1136 CALLER PUSH2 0x3193 JUMP JUMPDEST DUP1 PUSH2 0x1145 JUMPI POP PUSH2 0x1144 PUSH2 0x273F JUMP JUMPDEST JUMPDEST PUSH2 0x1184 JUMPI PUSH1 0x40 MLOAD PUSH32 0x8C379A000000000000000000000000000000000000000000000000000000000 DUP2 MSTORE PUSH1 0x4 ADD PUSH2 0x117B SWAP1 PUSH2 0x4391 JUMP JUMPDEST PUSH1 0x40 MLOAD DUP1 SWAP2 SUB SWAP1 REVERT JUMPDEST PUSH1 0x0 DUP4 SWAP1 POP DUP1 PUSH20 0xFFFFFFFFFFFFFFFFFFFFFFFFFFFFFFFFFFFFFFFF AND PUSH4 0xD73DD623 DUP5 DUP5 PUSH1 0x40 MLOAD DUP4 PUSH4 0xFFFFFFFF AND PUSH1 0xE0 SHL DUP2 MSTORE PUSH1 0x4 ADD PUSH2 0x11C4 SWAP3 SWAP2 SWAP1 PUSH2 0x4289 JUMP JUMPDEST PUSH1 0x0 PUSH1 0x40 MLOAD DUP1 DUP4 SUB DUP2 PUSH1 0x0 DUP8 DUP1 EXTCODESIZE ISZERO DUP1 ISZERO PUSH2 0x11DE JUMPI PUSH1 0x0 DUP1 REVERT JUMPDEST POP GAS CALL ISZERO DUP1 ISZERO PUSH2 0x11F2 JUMPI RETURNDATASIZE PUSH1 0x0 DUP1 RETURNDATACOPY RETURNDATASIZE PUSH1 0x0 REVERT JUMPDEST POP POP POP POP PUSH1 0x2 PUSH1 0x12 ADD PUSH1 0x40 MLOAD PUSH2 0x1208 SWAP2 SWAP1 PUSH2 0x4167 JUMP JUMPDEST PUSH1 0x40 MLOAD DUP1 SWAP2 SUB SWAP1 KECCAK256 DUP5 PUSH20 0xFFFFFFFFFFFFFFFFFFFFFFFFFFFFFFFFFFFFFFFF AND CALLER PUSH20 0xFFFFFFFFFFFFFFFFFFFFFFFFFFFFFFFFFFFFFFFF AND PUSH32 0x32A9EEB55EA56EB60BADFB6642D5B92BE35B6DA6F74892C12D0E14A50DFC2BAC DUP7 DUP7 PUSH1 0x40 MLOAD PUSH2 0x126F SWAP3 SWAP2 SWAP1 PUSH2 0x4289 JUMP JUMPDEST PUSH1 0x40 MLOAD DUP1 SWAP2 SUB SWAP1 LOG4 POP POP POP POP JUMP JUMPDEST PUSH2 0x1286 CALLER PUSH2 0x3193 JUMP JUMPDEST DUP1 PUSH2 0x1295 JUMPI POP PUSH2 0x1294 PUSH2 0x273F JUMP JUMPDEST JUMPDEST PUSH2 0x12D4 JUMPI PUSH1 0x40 MLOAD PUSH32 0x8C379A000000000000000000000000000000000000000000000000000000000 DUP2 MSTORE PUSH1 0x4 ADD PUSH2 0x12CB SWAP1 PUSH2 0x4391 JUMP JUMPDEST PUSH1 0x40 MLOAD DUP1 SWAP2 SUB SWAP1 REVERT JUMPDEST PUSH1 0x1C PUSH1 0x0 SWAP1 SLOAD SWAP1 PUSH2 0x100 EXP SWAP1 DIV PUSH20 0xFFFFFFFFFFFFFFFFFFFFFFFFFFFFFFFFFFFFFFFF AND PUSH20 0xFFFFFFFFFFFFFFFFFFFFFFFFFFFFFFFFFFFFFFFF AND PUSH4 0x3169B515 DUP6 DUP6 DUP6 DUP6 PUSH1 0x40 MLOAD DUP6 PUSH4 0xFFFFFFFF AND PUSH1 0xE0 SHL DUP2 MSTORE PUSH1 0x4 ADD PUSH2 0x1335 SWAP5 SWAP4 SWAP3 SWAP2 SWAP1 PUSH2 0x449A JUMP JUMPDEST PUSH1 0x0 PUSH1 0x40 MLOAD DUP1 DUP4 SUB DUP2 PUSH1 0x0 DUP8 DUP1 EXTCODESIZE ISZERO DUP1 ISZERO PUSH2 0x134F JUMPI PUSH1 0x0 DUP1 REVERT JUMPDEST POP GAS CALL ISZERO DUP1 ISZERO PUSH2 0x1363 JUMPI RETURNDATASIZE PUSH1 0x0 DUP1 RETURNDATACOPY RETURNDATASIZE PUSH1 0x0 REVERT JUMPDEST POP POP POP POP PUSH1 0x2 PUSH1 0xC ADD PUSH1 0x40 MLOAD PUSH2 0x1379 SWAP2 SWAP1 PUSH2 0x4167 JUMP JUMPDEST PUSH1 0x40 MLOAD DUP1 SWAP2 SUB SWAP1 KECCAK256 PUSH1 0x1C PUSH1 0x0 SWAP1 SLOAD SWAP1 PUSH2 0x100 EXP SWAP1 DIV PUSH20 0xFFFFFFFFFFFFFFFFFFFFFFFFFFFFFFFFFFFFFFFF AND PUSH20 0xFFFFFFFFFFFFFFFFFFFFFFFFFFFFFFFFFFFFFFFF AND CALLER PUSH20 0xFFFFFFFFFFFFFFFFFFFFFFFFFFFFFFFFFFFFFFFF AND PUSH32 0x32A9EEB55EA56EB60BADFB6642D5B92BE35B6DA6F74892C12D0E14A50DFC2BAC DUP7 DUP9 PUSH1 0x40 MLOAD PUSH2 0x1402 SWAP3 SWAP2 SWAP1 PUSH2 0x4289 JUMP JUMPDEST PUSH1 0x40 MLOAD DUP1 SWAP2 SUB SWAP1 LOG4 POP POP POP POP JUMP JUMPDEST PUSH1 0x60 PUSH1 0x1 DUP1 SLOAD DUP1 PUSH1 0x20 MUL PUSH1 0x20 ADD PUSH1 0x40 MLOAD SWAP1 DUP2 ADD PUSH1 0x40 MSTORE DUP1 SWAP3 SWAP2 SWAP1 DUP2 DUP2 MSTORE PUSH1 0x20 ADD DUP3 DUP1 SLOAD DUP1 ISZERO PUSH2 0x1494 JUMPI PUSH1 0x20 MUL DUP3 ADD SWAP2 SWAP1 PUSH1 0x0 MSTORE PUSH1 0x20 PUSH1 0x0 KECCAK256 SWAP1 JUMPDEST DUP2 PUSH1 0x0 SWAP1 SLOAD SWAP1 PUSH2 0x100 EXP SWAP1 DIV PUSH20 0xFFFFFFFFFFFFFFFFFFFFFFFFFFFFFFFFFFFFFFFF AND PUSH20 0xFFFFFFFFFFFFFFFFFFFFFFFFFFFFFFFFFFFFFFFF AND DUP2 MSTORE PUSH1 0x20 ADD SWAP1 PUSH1 0x1 ADD SWAP1 DUP1 DUP4 GT PUSH2 0x144A JUMPI JUMPDEST POP POP POP POP POP SWAP1 POP SWAP1 JUMP JUMPDEST PUSH2 0x14A7 CALLER PUSH2 0x3193 JUMP JUMPDEST DUP1 PUSH2 0x14B6 JUMPI POP PUSH2 0x14B5 PUSH2 0x273F JUMP JUMPDEST JUMPDEST PUSH2 0x14F5 JUMPI PUSH1 0x40 MLOAD PUSH32 0x8C379A000000000000000000000000000000000000000000000000000000000 DUP2 MSTORE PUSH1 0x4 ADD PUSH2 0x14EC SWAP1 PUSH2 0x4391 JUMP JUMPDEST PUSH1 0x40 MLOAD DUP1 SWAP2 SUB SWAP1 REVERT JUMPDEST PUSH1 0x0 DUP4 SWAP1 POP DUP1 PUSH20 0xFFFFFFFFFFFFFFFFFFFFFFFFFFFFFFFFFFFFFFFF AND PUSH4 0xA9059CBB DUP5 DUP5 PUSH1 0x40 MLOAD DUP4 PUSH4 0xFFFFFFFF AND PUSH1 0xE0 SHL DUP2 MSTORE PUSH1 0x4 ADD PUSH2 0x1535 SWAP3 SWAP2 SWAP1 PUSH2 0x4289 JUMP JUMPDEST PUSH1 0x0 PUSH1 0x40 MLOAD DUP1 DUP4 SUB DUP2 PUSH1 0x0 DUP8 DUP1 EXTCODESIZE ISZERO DUP1 ISZERO PUSH2 0x154F JUMPI PUSH1 0x0 DUP1 REVERT JUMPDEST POP GAS CALL ISZERO DUP1 ISZERO PUSH2 0x1563 JUMPI RETURNDATASIZE PUSH1 0x0 DUP1 RETURNDATACOPY RETURNDATASIZE PUSH1 0x0 REVERT JUMPDEST POP POP POP POP PUSH1 0x2 PUSH1 0x13 ADD PUSH1 0x40 MLOAD PUSH2 0x1579 SWAP2 SWAP1 PUSH2 0x4167 JUMP JUMPDEST PUSH1 0x40 MLOAD DUP1 SWAP2 SUB SWAP1 KECCAK256 DUP5 PUSH20 0xFFFFFFFFFFFFFFFFFFFFFFFFFFFFFFFFFFFFFFFF AND CALLER PUSH20 0xFFFFFFFFFFFFFFFFFFFFFFFFFFFFFFFFFFFFFFFF AND PUSH32 0x32A9EEB55EA56EB60BADFB6642D5B92BE35B6DA6F74892C12D0E14A50DFC2BAC DUP7 DUP7 PUSH1 0x40 MLOAD PUSH2 0x15E0 SWAP3 SWAP2 SWAP1 PUSH2 0x4289 JUMP JUMPDEST PUSH1 0x40 MLOAD DUP1 SWAP2 SUB SWAP1 LOG4 POP POP POP POP JUMP JUMPDEST PUSH2 0x15F6 PUSH2 0x273F JUMP JUMPDEST PUSH2 0x1635 JUMPI PUSH1 0x40 MLOAD PUSH32 0x8C379A000000000000000000000000000000000000000000000000000000000 DUP2 MSTORE PUSH1 0x4 ADD PUSH2 0x162C SWAP1 PUSH2 0x43D1 JUMP JUMPDEST PUSH1 0x40 MLOAD DUP1 SWAP2 SUB SWAP1 REVERT JUMPDEST CALLER PUSH20 0xFFFFFFFFFFFFFFFFFFFFFFFFFFFFFFFFFFFFFFFF AND PUSH2 0x8FC SELFBALANCE SWAP1 DUP2 ISZERO MUL SWAP1 PUSH1 0x40 MLOAD PUSH1 0x0 PUSH1 0x40 MLOAD DUP1 DUP4 SUB DUP2 DUP6 DUP9 DUP9 CALL SWAP4 POP POP POP POP ISZERO DUP1 ISZERO PUSH2 0x167B JUMPI RETURNDATASIZE PUSH1 0x0 DUP1 RETURNDATACOPY RETURNDATASIZE PUSH1 0x0 REVERT JUMPDEST POP JUMP JUMPDEST PUSH2 0x1687 CALLER PUSH2 0x3193 JUMP JUMPDEST DUP1 PUSH2 0x1696 JUMPI POP PUSH2 0x1695 PUSH2 0x273F JUMP JUMPDEST JUMPDEST PUSH2 0x16D5 JUMPI PUSH1 0x40 MLOAD PUSH32 0x8C379A000000000000000000000000000000000000000000000000000000000 DUP2 MSTORE PUSH1 0x4 ADD PUSH2 0x16CC SWAP1 PUSH2 0x4391 JUMP JUMPDEST PUSH1 0x40 MLOAD DUP1 SWAP2 SUB SWAP1 REVERT JUMPDEST PUSH1 0x0 DUP3 SWAP1 POP PUSH1 0x60 DUP2 PUSH20 0xFFFFFFFFFFFFFFFFFFFFFFFFFFFFFFFFFFFFFFFF AND PUSH4 0xC87B56DD DUP5 PUSH1 0x40 MLOAD DUP3 PUSH4 0xFFFFFFFF AND PUSH1 0xE0 SHL DUP2 MSTORE PUSH1 0x4 ADD PUSH2 0x1715 SWAP2 SWAP1 PUSH2 0x4411 JUMP JUMPDEST PUSH1 0x0 PUSH1 0x40 MLOAD DUP1 DUP4 SUB DUP2 PUSH1 0x0 DUP8 DUP1 EXTCODESIZE ISZERO DUP1 ISZERO PUSH2 0x172F JUMPI PUSH1 0x0 DUP1 REVERT JUMPDEST POP GAS CALL ISZERO DUP1 ISZERO PUSH2 0x1743 JUMPI RETURNDATASIZE PUSH1 0x0 DUP1 RETURNDATACOPY RETURNDATASIZE PUSH1 0x0 REVERT JUMPDEST POP POP POP POP PUSH1 0x40 MLOAD RETURNDATASIZE PUSH1 0x0 DUP3 RETURNDATACOPY RETURNDATASIZE PUSH1 0x1F NOT PUSH1 0x1F DUP3 ADD AND DUP3 ADD DUP1 PUSH1 0x40 MSTORE POP PUSH2 0x176C SWAP2 SWAP1 DUP2 ADD SWAP1 PUSH2 0x3A65 JUMP JUMPDEST SWAP1 POP ADDRESS PUSH20 0xFFFFFFFFFFFFFFFFFFFFFFFFFFFFFFFFFFFFFFFF AND DUP3 PUSH20 0xFFFFFFFFFFFFFFFFFFFFFFFFFFFFFFFFFFFFFFFF AND PUSH4 0x81812FC DUP6 PUSH1 0x40 MLOAD DUP3 PUSH4 0xFFFFFFFF AND PUSH1 0xE0 SHL DUP2 MSTORE PUSH1 0x4 ADD PUSH2 0x17BE SWAP2 SWAP1 PUSH2 0x4411 JUMP JUMPDEST PUSH1 0x20 PUSH1 0x40 MLOAD DUP1 DUP4 SUB DUP2 PUSH1 0x0 DUP8 DUP1 EXTCODESIZE ISZERO DUP1 ISZERO PUSH2 0x17D8 JUMPI PUSH1 0x0 DUP1 REVERT JUMPDEST POP GAS CALL ISZERO DUP1 ISZERO PUSH2 0x17EC JUMPI RETURNDATASIZE PUSH1 0x0 DUP1 RETURNDATACOPY RETURNDATASIZE PUSH1 0x0 REVERT JUMPDEST POP POP POP POP PUSH1 0x40 MLOAD RETURNDATASIZE PUSH1 0x1F NOT PUSH1 0x1F DUP3 ADD AND DUP3 ADD DUP1 PUSH1 0x40 MSTORE POP PUSH2 0x1810 SWAP2 SWAP1 DUP2 ADD SWAP1 PUSH2 0x37DD JUMP JUMPDEST PUSH20 0xFFFFFFFFFFFFFFFFFFFFFFFFFFFFFFFFFFFFFFFF AND EQ PUSH2 0x1866 JUMPI PUSH1 0x40 MLOAD PUSH32 0x8C379A000000000000000000000000000000000000000000000000000000000 DUP2 MSTORE PUSH1 0x4 ADD PUSH2 0x185D SWAP1 PUSH2 0x43B1 JUMP JUMPDEST PUSH1 0x40 MLOAD DUP1 SWAP2 SUB SWAP1 REVERT JUMPDEST DUP2 PUSH20 0xFFFFFFFFFFFFFFFFFFFFFFFFFFFFFFFFFFFFFFFF AND PUSH4 0x42966C68 DUP5 PUSH1 0x40 MLOAD DUP3 PUSH4 0xFFFFFFFF AND PUSH1 0xE0 SHL DUP2 MSTORE PUSH1 0x4 ADD PUSH2 0x189F SWAP2 SWAP1 PUSH2 0x4411 JUMP JUMPDEST PUSH1 0x0 PUSH1 0x40 MLOAD DUP1 DUP4 SUB DUP2 PUSH1 0x0 DUP8 DUP1 EXTCODESIZE ISZERO DUP1 ISZERO PUSH2 0x18B9 JUMPI PUSH1 0x0 DUP1 REVERT JUMPDEST POP GAS CALL ISZERO DUP1 ISZERO PUSH2 0x18CD JUMPI RETURNDATASIZE PUSH1 0x0 DUP1 RETURNDATACOPY RETURNDATASIZE PUSH1 0x0 REVERT JUMPDEST POP POP POP POP CALLER PUSH20 0xFFFFFFFFFFFFFFFFFFFFFFFFFFFFFFFFFFFFFFFF AND DUP4 DUP6 PUSH20 0xFFFFFFFFFFFFFFFFFFFFFFFFFFFFFFFFFFFFFFFF AND PUSH32 0x926B248E45DFDD4C4CAEC216E73EC503CE2522D3B5646C861D1B074210675D0E TIMESTAMP DUP6 PUSH1 0x40 MLOAD PUSH2 0x1931 SWAP3 SWAP2 SWAP1 PUSH2 0x4592 JUMP JUMPDEST PUSH1 0x40 MLOAD DUP1 SWAP2 SUB SWAP1 LOG4 POP POP POP POP JUMP JUMPDEST PUSH2 0x1948 CALLER PUSH2 0x3193 JUMP JUMPDEST DUP1 PUSH2 0x1957 JUMPI POP PUSH2 0x1956 PUSH2 0x273F JUMP JUMPDEST JUMPDEST PUSH2 0x1996 JUMPI PUSH1 0x40 MLOAD PUSH32 0x8C379A000000000000000000000000000000000000000000000000000000000 DUP2 MSTORE PUSH1 0x4 ADD PUSH2 0x198D SWAP1 PUSH2 0x4391 JUMP JUMPDEST PUSH1 0x40 MLOAD DUP1 SWAP2 SUB SWAP1 REVERT JUMPDEST PUSH1 0x0 DUP3 SWAP1 POP PUSH1 0x2 DUP1 ADD PUSH1 0x40 MLOAD PUSH2 0x19AC SWAP2 SWAP1 PUSH2 0x4167 JUMP JUMPDEST PUSH1 0x40 MLOAD DUP1 SWAP2 SUB SWAP1 KECCAK256 DUP4 PUSH20 0xFFFFFFFFFFFFFFFFFFFFFFFFFFFFFFFFFFFFFFFF AND CALLER PUSH20 0xFFFFFFFFFFFFFFFFFFFFFFFFFFFFFFFFFFFFFFFF AND PUSH32 0x32A9EEB55EA56EB60BADFB6642D5B92BE35B6DA6F74892C12D0E14A50DFC2BAC DUP7 DUP7 PUSH1 0x40 MLOAD PUSH2 0x1A13 SWAP3 SWAP2 SWAP1 PUSH2 0x4289 JUMP JUMPDEST PUSH1 0x40 MLOAD DUP1 SWAP2 SUB SWAP1 LOG4 DUP1 PUSH20 0xFFFFFFFFFFFFFFFFFFFFFFFFFFFFFFFFFFFFFFFF AND PUSH4 0x42966C68 DUP4 PUSH1 0x40 MLOAD DUP3 PUSH4 0xFFFFFFFF AND PUSH1 0xE0 SHL DUP2 MSTORE PUSH1 0x4 ADD PUSH2 0x1A54 SWAP2 SWAP1 PUSH2 0x4411 JUMP JUMPDEST PUSH1 0x0 PUSH1 0x40 MLOAD DUP1 DUP4 SUB DUP2 PUSH1 0x0 DUP8 DUP1 EXTCODESIZE ISZERO DUP1 ISZERO PUSH2 0x1A6E JUMPI PUSH1 0x0 DUP1 REVERT JUMPDEST POP GAS CALL ISZERO DUP1 ISZERO PUSH2 0x1A82 JUMPI RETURNDATASIZE PUSH1 0x0 DUP1 RETURNDATACOPY RETURNDATASIZE PUSH1 0x0 REVERT JUMPDEST POP POP POP POP POP POP POP JUMP JUMPDEST PUSH2 0x1A94 CALLER PUSH2 0x3193 JUMP JUMPDEST DUP1 PUSH2 0x1AA3 JUMPI POP PUSH2 0x1AA2 PUSH2 0x273F JUMP JUMPDEST JUMPDEST PUSH2 0x1AE2 JUMPI PUSH1 0x40 MLOAD PUSH32 0x8C379A000000000000000000000000000000000000000000000000000000000 DUP2 MSTORE PUSH1 0x4 ADD PUSH2 0x1AD9 SWAP1 PUSH2 0x4391 JUMP JUMPDEST PUSH1 0x40 MLOAD DUP1 SWAP2 SUB SWAP1 REVERT JUMPDEST PUSH1 0x0 DUP6 SWAP1 POP PUSH1 0x2 PUSH1 0x4 ADD PUSH1 0x40 MLOAD PUSH2 0x1AF9 SWAP2 SWAP1 PUSH2 0x4167 JUMP JUMPDEST PUSH1 0x40 MLOAD DUP1 SWAP2 SUB SWAP1 KECCAK256 DUP7 PUSH20 0xFFFFFFFFFFFFFFFFFFFFFFFFFFFFFFFFFFFFFFFF AND CALLER PUSH20 0xFFFFFFFFFFFFFFFFFFFFFFFFFFFFFFFFFFFFFFFF AND PUSH32 0x32A9EEB55EA56EB60BADFB6642D5B92BE35B6DA6F74892C12D0E14A50DFC2BAC DUP10 DUP8 PUSH1 0x40 MLOAD PUSH2 0x1B60 SWAP3 SWAP2 SWAP1 PUSH2 0x4289 JUMP JUMPDEST PUSH1 0x40 MLOAD DUP1 SWAP2 SUB SWAP1 LOG4 DUP1 PUSH20 0xFFFFFFFFFFFFFFFFFFFFFFFFFFFFFFFFFFFFFFFF AND PUSH4 0xB88D4FDE DUP7 DUP7 DUP7 DUP7 PUSH1 0x40 MLOAD DUP6 PUSH4 0xFFFFFFFF AND PUSH1 0xE0 SHL DUP2 MSTORE PUSH1 0x4 ADD PUSH2 0x1BA7 SWAP5 SWAP4 SWAP3 SWAP2 SWAP1 PUSH2 0x4214 JUMP JUMPDEST PUSH1 0x0 PUSH1 0x40 MLOAD DUP1 DUP4 SUB DUP2 PUSH1 0x0 DUP8 DUP1 EXTCODESIZE ISZERO DUP1 ISZERO PUSH2 0x1BC1 JUMPI PUSH1 0x0 DUP1 REVERT JUMPDEST POP GAS CALL ISZERO DUP1 ISZERO PUSH2 0x1BD5 JUMPI RETURNDATASIZE PUSH1 0x0 DUP1 RETURNDATACOPY RETURNDATASIZE PUSH1 0x0 REVERT JUMPDEST POP POP POP POP POP POP POP POP POP POP JUMP JUMPDEST PUSH2 0x1BEA CALLER PUSH2 0x3193 JUMP JUMPDEST DUP1 PUSH2 0x1BF9 JUMPI POP PUSH2 0x1BF8 PUSH2 0x273F JUMP JUMPDEST JUMPDEST PUSH2 0x1C38 JUMPI PUSH1 0x40 MLOAD PUSH32 0x8C379A000000000000000000000000000000000000000000000000000000000 DUP2 MSTORE PUSH1 0x4 ADD PUSH2 0x1C2F SWAP1 PUSH2 0x4391 JUMP JUMPDEST PUSH1 0x40 MLOAD DUP1 SWAP2 SUB SWAP1 REVERT JUMPDEST PUSH1 0x0 DUP5 SWAP1 POP PUSH1 0x2 PUSH1 0x4 ADD PUSH1 0x40 MLOAD PUSH2 0x1C4F SWAP2 SWAP1 PUSH2 0x4167 JUMP JUMPDEST PUSH1 0x40 MLOAD DUP1 SWAP2 SUB SWAP1 KECCAK256 DUP6 PUSH20 0xFFFFFFFFFFFFFFFFFFFFFFFFFFFFFFFFFFFFFFFF AND CALLER PUSH20 0xFFFFFFFFFFFFFFFFFFFFFFFFFFFFFFFFFFFFFFFF AND PUSH32 0x32A9EEB55EA56EB60BADFB6642D5B92BE35B6DA6F74892C12D0E14A50DFC2BAC DUP9 DUP7 PUSH1 0x40 MLOAD PUSH2 0x1CB6 SWAP3 SWAP2 SWAP1 PUSH2 0x4289 JUMP JUMPDEST PUSH1 0x40 MLOAD DUP1 SWAP2 SUB SWAP1 LOG4 DUP1 PUSH20 0xFFFFFFFFFFFFFFFFFFFFFFFFFFFFFFFFFFFFFFFF AND PUSH4 0x42842E0E DUP6 DUP6 DUP6 PUSH1 0x40 MLOAD DUP5 PUSH4 0xFFFFFFFF AND PUSH1 0xE0 SHL DUP2 MSTORE PUSH1 0x4 ADD PUSH2 0x1CFB SWAP4 SWAP3 SWAP2 SWAP1 PUSH2 0x41DD JUMP JUMPDEST PUSH1 0x0 PUSH1 0x40 MLOAD DUP1 DUP4 SUB DUP2 PUSH1 0x0 DUP8 DUP1 EXTCODESIZE ISZERO DUP1 ISZERO PUSH2 0x1D15 JUMPI PUSH1 0x0 DUP1 REVERT JUMPDEST POP GAS CALL ISZERO DUP1 ISZERO PUSH2 0x1D29 JUMPI RETURNDATASIZE PUSH1 0x0 DUP1 RETURNDATACOPY RETURNDATASIZE PUSH1 0x0 REVERT JUMPDEST POP POP POP POP POP POP POP POP POP JUMP JUMPDEST PUSH2 0x1D3D CALLER PUSH2 0x3193 JUMP JUMPDEST DUP1 PUSH2 0x1D4C JUMPI POP PUSH2 0x1D4B PUSH2 0x273F JUMP JUMPDEST JUMPDEST PUSH2 0x1D8B JUMPI PUSH1 0x40 MLOAD PUSH32 0x8C379A000000000000000000000000000000000000000000000000000000000 DUP2 MSTORE PUSH1 0x4 ADD PUSH2 0x1D82 SWAP1 PUSH2 0x4391 JUMP JUMPDEST PUSH1 0x40 MLOAD DUP1 SWAP2 SUB SWAP1 REVERT JUMPDEST PUSH1 0x1C PUSH1 0x0 SWAP1 SLOAD SWAP1 PUSH2 0x100 EXP SWAP1 DIV PUSH20 0xFFFFFFFFFFFFFFFFFFFFFFFFFFFFFFFFFFFFFFFF AND PUSH20 0xFFFFFFFFFFFFFFFFFFFFFFFFFFFFFFFFFFFFFFFF AND PUSH4 0x5AA8680A DUP6 DUP6 DUP6 DUP6 PUSH1 0x40 MLOAD DUP6 PUSH4 0xFFFFFFFF AND PUSH1 0xE0 SHL DUP2 MSTORE PUSH1 0x4 ADD PUSH2 0x1DEC SWAP5 SWAP4 SWAP3 SWAP2 SWAP1 PUSH2 0x4455 JUMP JUMPDEST PUSH1 0x0 PUSH1 0x40 MLOAD DUP1 DUP4 SUB DUP2 PUSH1 0x0 DUP8 DUP1 EXTCODESIZE ISZERO DUP1 ISZERO PUSH2 0x1E06 JUMPI PUSH1 0x0 DUP1 REVERT JUMPDEST POP GAS CALL ISZERO DUP1 ISZERO PUSH2 0x1E1A JUMPI RETURNDATASIZE PUSH1 0x0 DUP1 RETURNDATACOPY RETURNDATASIZE PUSH1 0x0 REVERT JUMPDEST POP POP POP POP PUSH1 0x2 PUSH1 0xD ADD PUSH1 0x40 MLOAD PUSH2 0x1E30 SWAP2 SWAP1 PUSH2 0x4167 JUMP JUMPDEST PUSH1 0x40 MLOAD DUP1 SWAP2 SUB SWAP1 KECCAK256 PUSH1 0x1C PUSH1 0x0 SWAP1 SLOAD SWAP1 PUSH2 0x100 EXP SWAP1 DIV PUSH20 0xFFFFFFFFFFFFFFFFFFFFFFFFFFFFFFFFFFFFFFFF AND PUSH20 0xFFFFFFFFFFFFFFFFFFFFFFFFFFFFFFFFFFFFFFFF AND CALLER PUSH20 0xFFFFFFFFFFFFFFFFFFFFFFFFFFFFFFFFFFFFFFFF AND PUSH32 0x32A9EEB55EA56EB60BADFB6642D5B92BE35B6DA6F74892C12D0E14A50DFC2BAC DUP7 DUP9 PUSH1 0x40 MLOAD PUSH2 0x1EB9 SWAP3 SWAP2 SWAP1 PUSH2 0x4289 JUMP JUMPDEST PUSH1 0x40 MLOAD DUP1 SWAP2 SUB SWAP1 LOG4 POP POP POP POP JUMP JUMPDEST PUSH2 0x1ED0 CALLER PUSH2 0x3193 JUMP JUMPDEST DUP1 PUSH2 0x1EDF JUMPI POP PUSH2 0x1EDE PUSH2 0x273F JUMP JUMPDEST JUMPDEST PUSH2 0x1F1E JUMPI PUSH1 0x40 MLOAD PUSH32 0x8C379A000000000000000000000000000000000000000000000000000000000 DUP2 MSTORE PUSH1 0x4 ADD PUSH2 0x1F15 SWAP1 PUSH2 0x4391 JUMP JUMPDEST PUSH1 0x40 MLOAD DUP1 SWAP2 SUB SWAP1 REVERT JUMPDEST PUSH1 0x1C PUSH1 0x0 SWAP1 SLOAD SWAP1 PUSH2 0x100 EXP SWAP1 DIV PUSH20 0xFFFFFFFFFFFFFFFFFFFFFFFFFFFFFFFFFFFFFFFF AND PUSH20 0xFFFFFFFFFFFFFFFFFFFFFFFFFFFFFFFFFFFFFFFF AND PUSH4 0x640CF873 DUP10 DUP10 DUP10 DUP10 DUP10 DUP10 DUP10 DUP10 PUSH1 0x40 MLOAD DUP10 PUSH4 0xFFFFFFFF AND PUSH1 0xE0 SHL DUP2 MSTORE PUSH1 0x4 ADD PUSH2 0x1F87 SWAP9 SWAP8 SWAP7 SWAP6 SWAP5 SWAP4 SWAP3 SWAP2 SWAP1 PUSH2 0x45C2 JUMP JUMPDEST PUSH1 0x0 PUSH1 0x40 MLOAD DUP1 DUP4 SUB DUP2 PUSH1 0x0 DUP8 DUP1 EXTCODESIZE ISZERO DUP1 ISZERO PUSH2 0x1FA1 JUMPI PUSH1 0x0 DUP1 REVERT JUMPDEST POP GAS CALL ISZERO DUP1 ISZERO PUSH2 0x1FB5 JUMPI RETURNDATASIZE PUSH1 0x0 DUP1 RETURNDATACOPY RETURNDATASIZE PUSH1 0x0 REVERT JUMPDEST POP POP POP POP PUSH1 0x2 PUSH1 0x6 ADD PUSH1 0x40 MLOAD PUSH2 0x1FCB SWAP2 SWAP1 PUSH2 0x4167 JUMP JUMPDEST PUSH1 0x40 MLOAD DUP1 SWAP2 SUB SWAP1 KECCAK256 PUSH1 0x1C PUSH1 0x0 SWAP1 SLOAD SWAP1 PUSH2 0x100 EXP SWAP1 DIV PUSH20 0xFFFFFFFFFFFFFFFFFFFFFFFFFFFFFFFFFFFFFFFF AND PUSH20 0xFFFFFFFFFFFFFFFFFFFFFFFFFFFFFFFFFFFFFFFF AND CALLER PUSH20 0xFFFFFFFFFFFFFFFFFFFFFFFFFFFFFFFFFFFFFFFF AND PUSH32 0x32A9EEB55EA56EB60BADFB6642D5B92BE35B6DA6F74892C12D0E14A50DFC2BAC DUP6 DUP13 PUSH1 0x40 MLOAD PUSH2 0x2054 SWAP3 SWAP2 SWAP1 PUSH2 0x4289 JUMP JUMPDEST PUSH1 0x40 MLOAD DUP1 SWAP2 SUB SWAP1 LOG4 POP POP POP POP POP POP POP POP JUMP JUMPDEST PUSH2 0x206E PUSH2 0x273F JUMP JUMPDEST PUSH2 0x20AD JUMPI PUSH1 0x40 MLOAD PUSH32 0x8C379A000000000000000000000000000000000000000000000000000000000 DUP2 MSTORE PUSH1 0x4 ADD PUSH2 0x20A4 SWAP1 PUSH2 0x43D1 JUMP JUMPDEST PUSH1 0x40 MLOAD DUP1 SWAP2 SUB SWAP1 REVERT JUMPDEST PUSH2 0x20B6 DUP2 PUSH2 0x3193 JUMP JUMPDEST PUSH2 0x2125 JUMPI PUSH1 0x1 DUP2 SWAP1 DUP1 PUSH1 0x1 DUP2 SLOAD ADD DUP1 DUP3 SSTORE DUP1 SWAP2 POP POP SWAP1 PUSH1 0x1 DUP3 SUB SWAP1 PUSH1 0x0 MSTORE PUSH1 0x20 PUSH1 0x0 KECCAK256 ADD PUSH1 0x0 SWAP1 SWAP2 SWAP3 SWAP1 SWAP2 SWAP1 SWAP2 PUSH2 0x100 EXP DUP2 SLOAD DUP2 PUSH20 0xFFFFFFFFFFFFFFFFFFFFFFFFFFFFFFFFFFFFFFFF MUL NOT AND SWAP1 DUP4 PUSH20 0xFFFFFFFFFFFFFFFFFFFFFFFFFFFFFFFFFFFFFFFF AND MUL OR SWAP1 SSTORE POP POP PUSH2 0x2160 JUMP JUMPDEST PUSH1 0x40 MLOAD PUSH32 0x8C379A000000000000000000000000000000000000000000000000000000000 DUP2 MSTORE PUSH1 0x4 ADD PUSH2 0x2157 SWAP1 PUSH2 0x43F1 JUMP JUMPDEST PUSH1 0x40 MLOAD DUP1 SWAP2 SUB SWAP1 REVERT JUMPDEST PUSH32 0x723C2B747529CA7F5EB53A74808F4A8B9BF264F0FC450FD904900151DA74548A DUP2 TIMESTAMP PUSH1 0x40 MLOAD PUSH2 0x2191 SWAP3 SWAP2 SWAP1 PUSH2 0x4289 JUMP JUMPDEST PUSH1 0x40 MLOAD DUP1 SWAP2 SUB SWAP1 LOG1 POP JUMP JUMPDEST PUSH2 0x21A4 PUSH2 0x273F JUMP JUMPDEST PUSH2 0x21E3 JUMPI PUSH1 0x40 MLOAD PUSH32 0x8C379A000000000000000000000000000000000000000000000000000000000 DUP2 MSTORE PUSH1 0x4 ADD PUSH2 0x21DA SWAP1 PUSH2 0x43D1 JUMP JUMPDEST PUSH1 0x40 MLOAD DUP1 SWAP2 SUB SWAP1 REVERT JUMPDEST PUSH1 0x0 PUSH20 0xFFFFFFFFFFFFFFFFFFFFFFFFFFFFFFFFFFFFFFFF AND PUSH1 0x0 DUP1 SWAP1 SLOAD SWAP1 PUSH2 0x100 EXP SWAP1 DIV PUSH20 0xFFFFFFFFFFFFFFFFFFFFFFFFFFFFFFFFFFFFFFFF AND PUSH20 0xFFFFFFFFFFFFFFFFFFFFFFFFFFFFFFFFFFFFFFFF AND PUSH32 0x8BE0079C531659141344CD1FD0A4F28419497F9722A3DAAFE3B4186F6B6457E0 PUSH1 0x40 MLOAD PUSH1 0x40 MLOAD DUP1 SWAP2 SUB SWAP1 LOG3 PUSH1 0x0 DUP1 PUSH1 0x0 PUSH2 0x100 EXP DUP2 SLOAD DUP2 PUSH20 0xFFFFFFFFFFFFFFFFFFFFFFFFFFFFFFFFFFFFFFFF MUL NOT AND SWAP1 DUP4 PUSH20 0xFFFFFFFFFFFFFFFFFFFFFFFFFFFFFFFFFFFFFFFF AND MUL OR SWAP1 SSTORE POP JUMP JUMPDEST PUSH2 0x22AB CALLER PUSH2 0x3193 JUMP JUMPDEST DUP1 PUSH2 0x22BA JUMPI POP PUSH2 0x22B9 PUSH2 0x273F JUMP JUMPDEST JUMPDEST PUSH2 0x22F9 JUMPI PUSH1 0x40 MLOAD PUSH32 0x8C379A000000000000000000000000000000000000000000000000000000000 DUP2 MSTORE PUSH1 0x4 ADD PUSH2 0x22F0 SWAP1 PUSH2 0x4391 JUMP JUMPDEST PUSH1 0x40 MLOAD DUP1 SWAP2 SUB SWAP1 REVERT JUMPDEST PUSH1 0x1C PUSH1 0x0 SWAP1 SLOAD SWAP1 PUSH2 0x100 EXP SWAP1 DIV PUSH20 0xFFFFFFFFFFFFFFFFFFFFFFFFFFFFFFFFFFFFFFFF AND PUSH20 0xFFFFFFFFFFFFFFFFFFFFFFFFFFFFFFFFFFFFFFFF AND PUSH4 0x7AD157B9 CALLVALUE DUP6 DUP6 DUP6 PUSH1 0x40 MLOAD DUP6 PUSH4 0xFFFFFFFF AND PUSH1 0xE0 SHL DUP2 MSTORE PUSH1 0x4 ADD PUSH2 0x2359 SWAP4 SWAP3 SWAP2 SWAP1 PUSH2 0x44DF JUMP JUMPDEST PUSH1 0x0 PUSH1 0x40 MLOAD DUP1 DUP4 SUB DUP2 DUP6 DUP9 DUP1 EXTCODESIZE ISZERO DUP1 ISZERO PUSH2 0x2372 JUMPI PUSH1 0x0 DUP1 REVERT JUMPDEST POP GAS CALL ISZERO DUP1 ISZERO PUSH2 0x2386 JUMPI RETURNDATASIZE PUSH1 0x0 DUP1 RETURNDATACOPY RETURNDATASIZE PUSH1 0x0 REVERT JUMPDEST POP POP POP POP POP PUSH1 0x2 PUSH1 0x7 ADD PUSH1 0x40 MLOAD PUSH2 0x239D SWAP2 SWAP1 PUSH2 0x4167 JUMP JUMPDEST PUSH1 0x40 MLOAD DUP1 SWAP2 SUB SWAP1 KECCAK256 PUSH1 0x1C PUSH1 0x0 SWAP1 SLOAD SWAP1 PUSH2 0x100 EXP SWAP1 DIV PUSH20 0xFFFFFFFFFFFFFFFFFFFFFFFFFFFFFFFFFFFFFFFF AND PUSH20 0xFFFFFFFFFFFFFFFFFFFFFFFFFFFFFFFFFFFFFFFF AND CALLER PUSH20 0xFFFFFFFFFFFFFFFFFFFFFFFFFFFFFFFFFFFFFFFF AND PUSH32 0x32A9EEB55EA56EB60BADFB6642D5B92BE35B6DA6F74892C12D0E14A50DFC2BAC DUP6 DUP8 PUSH1 0x40 MLOAD PUSH2 0x2426 SWAP3 SWAP2 SWAP1 PUSH2 0x4289 JUMP JUMPDEST PUSH1 0x40 MLOAD DUP1 SWAP2 SUB SWAP1 LOG4 POP POP POP JUMP JUMPDEST PUSH2 0x243C CALLER PUSH2 0x3193 JUMP JUMPDEST DUP1 PUSH2 0x244B JUMPI POP PUSH2 0x244A PUSH2 0x273F JUMP JUMPDEST JUMPDEST PUSH2 0x248A JUMPI PUSH1 0x40 MLOAD PUSH32 0x8C379A000000000000000000000000000000000000000000000000000000000 DUP2 MSTORE PUSH1 0x4 ADD PUSH2 0x2481 SWAP1 PUSH2 0x4391 JUMP JUMPDEST PUSH1 0x40 MLOAD DUP1 SWAP2 SUB SWAP1 REVERT JUMPDEST PUSH1 0x0 DUP5 SWAP1 POP PUSH1 0x2 PUSH1 0x5 ADD PUSH1 0x40 MLOAD PUSH2 0x24A1 SWAP2 SWAP1 PUSH2 0x4167 JUMP JUMPDEST PUSH1 0x40 MLOAD DUP1 SWAP2 SUB SWAP1 KECCAK256 DUP6 PUSH20 0xFFFFFFFFFFFFFFFFFFFFFFFFFFFFFFFFFFFFFFFF AND CALLER PUSH20 0xFFFFFFFFFFFFFFFFFFFFFFFFFFFFFFFFFFFFFFFF AND PUSH32 0x32A9EEB55EA56EB60BADFB6642D5B92BE35B6DA6F74892C12D0E14A50DFC2BAC DUP9 DUP7 PUSH1 0x40 MLOAD PUSH2 0x2508 SWAP3 SWAP2 SWAP1 PUSH2 0x4289 JUMP JUMPDEST PUSH1 0x40 MLOAD DUP1 SWAP2 SUB SWAP1 LOG4 DUP1 PUSH20 0xFFFFFFFFFFFFFFFFFFFFFFFFFFFFFFFFFFFFFFFF AND PUSH4 0x23B872DD DUP6 DUP6 DUP6 PUSH1 0x40 MLOAD DUP5 PUSH4 0xFFFFFFFF AND PUSH1 0xE0 SHL DUP2 MSTORE PUSH1 0x4 ADD PUSH2 0x254D SWAP4 SWAP3 SWAP2 SWAP1 PUSH2 0x41DD JUMP JUMPDEST PUSH1 0x0 PUSH1 0x40 MLOAD DUP1 DUP4 SUB DUP2 PUSH1 0x0 DUP8 DUP1 EXTCODESIZE ISZERO DUP1 ISZERO PUSH2 0x2567 JUMPI PUSH1 0x0 DUP1 REVERT JUMPDEST POP GAS CALL ISZERO DUP1 ISZERO PUSH2 0x257B JUMPI RETURNDATASIZE PUSH1 0x0 DUP1 RETURNDATACOPY RETURNDATASIZE PUSH1 0x0 REVERT JUMPDEST POP POP POP POP POP POP POP POP POP JUMP JUMPDEST PUSH2 0x258F CALLER PUSH2 0x3193 JUMP JUMPDEST DUP1 PUSH2 0x259E JUMPI POP PUSH2 0x259D PUSH2 0x273F JUMP JUMPDEST JUMPDEST PUSH2 0x25DD JUMPI PUSH1 0x40 MLOAD PUSH32 0x8C379A000000000000000000000000000000000000000000000000000000000 DUP2 MSTORE PUSH1 0x4 ADD PUSH2 0x25D4 SWAP1 PUSH2 0x4391 JUMP JUMPDEST PUSH1 0x40 MLOAD DUP1 SWAP2 SUB SWAP1 REVERT JUMPDEST PUSH1 0x1C PUSH1 0x0 SWAP1 SLOAD SWAP1 PUSH2 0x100 EXP SWAP1 DIV PUSH20 0xFFFFFFFFFFFFFFFFFFFFFFFFFFFFFFFFFFFFFFFF AND PUSH20 0xFFFFFFFFFFFFFFFFFFFFFFFFFFFFFFFFFFFFFFFF AND PUSH4 0x8C6AB013 DUP5 DUP5 DUP5 PUSH1 0x40 MLOAD DUP5 PUSH4 0xFFFFFFFF AND PUSH1 0xE0 SHL DUP2 MSTORE PUSH1 0x4 ADD PUSH2 0x263C SWAP4 SWAP3 SWAP2 SWAP1 PUSH2 0x44DF JUMP JUMPDEST PUSH1 0x0 PUSH1 0x40 MLOAD DUP1 DUP4 SUB DUP2 PUSH1 0x0 DUP8 DUP1 EXTCODESIZE ISZERO DUP1 ISZERO PUSH2 0x2656 JUMPI PUSH1 0x0 DUP1 REVERT JUMPDEST POP GAS CALL ISZERO DUP1 ISZERO PUSH2 0x266A JUMPI RETURNDATASIZE PUSH1 0x0 DUP1 RETURNDATACOPY RETURNDATASIZE PUSH1 0x0 REVERT JUMPDEST POP POP POP POP PUSH1 0x2 PUSH1 0x9 ADD PUSH1 0x40 MLOAD PUSH2 0x2680 SWAP2 SWAP1 PUSH2 0x4167 JUMP JUMPDEST PUSH1 0x40 MLOAD DUP1 SWAP2 SUB SWAP1 KECCAK256 PUSH1 0x1C PUSH1 0x0 SWAP1 SLOAD SWAP1 PUSH2 0x100 EXP SWAP1 DIV PUSH20 0xFFFFFFFFFFFFFFFFFFFFFFFFFFFFFFFFFFFFFFFF AND PUSH20 0xFFFFFFFFFFFFFFFFFFFFFFFFFFFFFFFFFFFFFFFF AND CALLER PUSH20 0xFFFFFFFFFFFFFFFFFFFFFFFFFFFFFFFFFFFFFFFF AND PUSH32 0x32A9EEB55EA56EB60BADFB6642D5B92BE35B6DA6F74892C12D0E14A50DFC2BAC DUP6 DUP8 PUSH1 0x40 MLOAD PUSH2 0x2709 SWAP3 SWAP2 SWAP1 PUSH2 0x4289 JUMP JUMPDEST PUSH1 0x40 MLOAD DUP1 SWAP2 SUB SWAP1 LOG4 POP POP POP JUMP JUMPDEST PUSH1 0x0 DUP1 PUSH1 0x0 SWAP1 SLOAD SWAP1 PUSH2 0x100 EXP SWAP1 DIV PUSH20 0xFFFFFFFFFFFFFFFFFFFFFFFFFFFFFFFFFFFFFFFF AND SWAP1 POP SWAP1 JUMP JUMPDEST PUSH1 0x0 DUP1 PUSH1 0x0 SWAP1 SLOAD SWAP1 PUSH2 0x100 EXP SWAP1 DIV PUSH20 0xFFFFFFFFFFFFFFFFFFFFFFFFFFFFFFFFFFFFFFFF AND PUSH20 0xFFFFFFFFFFFFFFFFFFFFFFFFFFFFFFFFFFFFFFFF AND PUSH2 0x2781 PUSH2 0x3519 JUMP JUMPDEST PUSH20 0xFFFFFFFFFFFFFFFFFFFFFFFFFFFFFFFFFFFFFFFF AND EQ SWAP1 POP SWAP1 JUMP JUMPDEST PUSH2 0x27A6 CALLER PUSH2 0x3193 JUMP JUMPDEST DUP1 PUSH2 0x27B5 JUMPI POP PUSH2 0x27B4 PUSH2 0x273F JUMP JUMPDEST JUMPDEST PUSH2 0x27F4 JUMPI PUSH1 0x40 MLOAD PUSH32 0x8C379A000000000000000000000000000000000000000000000000000000000 DUP2 MSTORE PUSH1 0x4 ADD PUSH2 0x27EB SWAP1 PUSH2 0x4391 JUMP JUMPDEST PUSH1 0x40 MLOAD DUP1 SWAP2 SUB SWAP1 REVERT JUMPDEST PUSH1 0x0 DUP4 SWAP1 POP DUP1 PUSH20 0xFFFFFFFFFFFFFFFFFFFFFFFFFFFFFFFFFFFFFFFF AND PUSH4 0x39509351 DUP5 DUP5 PUSH1 0x40 MLOAD DUP4 PUSH4 0xFFFFFFFF AND PUSH1 0xE0 SHL DUP2 MSTORE PUSH1 0x4 ADD PUSH2 0x2834 SWAP3 SWAP2 SWAP1 PUSH2 0x4289 JUMP JUMPDEST PUSH1 0x0 PUSH1 0x40 MLOAD DUP1 DUP4 SUB DUP2 PUSH1 0x0 DUP8 DUP1 EXTCODESIZE ISZERO DUP1 ISZERO PUSH2 0x284E JUMPI PUSH1 0x0 DUP1 REVERT JUMPDEST POP GAS CALL ISZERO DUP1 ISZERO PUSH2 0x2862 JUMPI RETURNDATASIZE PUSH1 0x0 DUP1 RETURNDATACOPY RETURNDATASIZE PUSH1 0x0 REVERT JUMPDEST POP POP POP POP PUSH1 0x2 PUSH1 0x15 ADD PUSH1 0x40 MLOAD PUSH2 0x2878 SWAP2 SWAP1 PUSH2 0x4167 JUMP JUMPDEST PUSH1 0x40 MLOAD DUP1 SWAP2 SUB SWAP1 KECCAK256 DUP5 PUSH20 0xFFFFFFFFFFFFFFFFFFFFFFFFFFFFFFFFFFFFFFFF AND CALLER PUSH20 0xFFFFFFFFFFFFFFFFFFFFFFFFFFFFFFFFFFFFFFFF AND PUSH32 0x32A9EEB55EA56EB60BADFB6642D5B92BE35B6DA6F74892C12D0E14A50DFC2BAC DUP7 DUP7 PUSH1 0x40 MLOAD PUSH2 0x28DF SWAP3 SWAP2 SWAP1 PUSH2 0x4289 JUMP JUMPDEST PUSH1 0x40 MLOAD DUP1 SWAP2 SUB SWAP1 LOG4 POP POP POP POP JUMP JUMPDEST PUSH2 0x28F6 CALLER PUSH2 0x3193 JUMP JUMPDEST DUP1 PUSH2 0x2905 JUMPI POP PUSH2 0x2904 PUSH2 0x273F JUMP JUMPDEST JUMPDEST PUSH2 0x2944 JUMPI PUSH1 0x40 MLOAD PUSH32 0x8C379A000000000000000000000000000000000000000000000000000000000 DUP2 MSTORE PUSH1 0x4 ADD PUSH2 0x293B SWAP1 PUSH2 0x4391 JUMP JUMPDEST PUSH1 0x40 MLOAD DUP1 SWAP2 SUB SWAP1 REVERT JUMPDEST PUSH1 0x0 DUP4 SWAP1 POP DUP1 PUSH20 0xFFFFFFFFFFFFFFFFFFFFFFFFFFFFFFFFFFFFFFFF AND PUSH4 0x95EA7B3 DUP5 DUP5 PUSH1 0x40 MLOAD DUP4 PUSH4 0xFFFFFFFF AND PUSH1 0xE0 SHL DUP2 MSTORE PUSH1 0x4 ADD PUSH2 0x2984 SWAP3 SWAP2 SWAP1 PUSH2 0x4289 JUMP JUMPDEST PUSH1 0x0 PUSH1 0x40 MLOAD DUP1 DUP4 SUB DUP2 PUSH1 0x0 DUP8 DUP1 EXTCODESIZE ISZERO DUP1 ISZERO PUSH2 0x299E JUMPI PUSH1 0x0 DUP1 REVERT JUMPDEST POP GAS CALL ISZERO DUP1 ISZERO PUSH2 0x29B2 JUMPI RETURNDATASIZE PUSH1 0x0 DUP1 RETURNDATACOPY RETURNDATASIZE PUSH1 0x0 REVERT JUMPDEST POP POP POP POP PUSH1 0x2 PUSH1 0x10 ADD PUSH1 0x40 MLOAD PUSH2 0x29C8 SWAP2 SWAP1 PUSH2 0x4167 JUMP JUMPDEST PUSH1 0x40 MLOAD DUP1 SWAP2 SUB SWAP1 KECCAK256 DUP5 PUSH20 0xFFFFFFFFFFFFFFFFFFFFFFFFFFFFFFFFFFFFFFFF AND CALLER PUSH20 0xFFFFFFFFFFFFFFFFFFFFFFFFFFFFFFFFFFFFFFFF AND PUSH32 0x32A9EEB55EA56EB60BADFB6642D5B92BE35B6DA6F74892C12D0E14A50DFC2BAC DUP7 DUP7 PUSH1 0x40 MLOAD PUSH2 0x2A2F SWAP3 SWAP2 SWAP1 PUSH2 0x4289 JUMP JUMPDEST PUSH1 0x40 MLOAD DUP1 SWAP2 SUB SWAP1 LOG4 POP POP POP POP JUMP JUMPDEST PUSH2 0x2A46 CALLER PUSH2 0x3193 JUMP JUMPDEST DUP1 PUSH2 0x2A55 JUMPI POP PUSH2 0x2A54 PUSH2 0x273F JUMP JUMPDEST JUMPDEST PUSH2 0x2A94 JUMPI PUSH1 0x40 MLOAD PUSH32 0x8C379A000000000000000000000000000000000000000000000000000000000 DUP2 MSTORE PUSH1 0x4 ADD PUSH2 0x2A8B SWAP1 PUSH2 0x4391 JUMP JUMPDEST PUSH1 0x40 MLOAD DUP1 SWAP2 SUB SWAP1 REVERT JUMPDEST PUSH1 0x0 DUP4 SWAP1 POP PUSH1 0x2 PUSH1 0x1 ADD PUSH1 0x40 MLOAD PUSH2 0x2AAB SWAP2 SWAP1 PUSH2 0x4167 JUMP JUMPDEST PUSH1 0x40 MLOAD DUP1 SWAP2 SUB SWAP1 KECCAK256 DUP5 PUSH20 0xFFFFFFFFFFFFFFFFFFFFFFFFFFFFFFFFFFFFFFFF AND CALLER PUSH20 0xFFFFFFFFFFFFFFFFFFFFFFFFFFFFFFFFFFFFFFFF AND PUSH32 0x32A9EEB55EA56EB60BADFB6642D5B92BE35B6DA6F74892C12D0E14A50DFC2BAC DUP8 DUP7 PUSH1 0x40 MLOAD PUSH2 0x2B12 SWAP3 SWAP2 SWAP1 PUSH2 0x4289 JUMP JUMPDEST PUSH1 0x40 MLOAD DUP1 SWAP2 SUB SWAP1 LOG4 DUP1 PUSH20 0xFFFFFFFFFFFFFFFFFFFFFFFFFFFFFFFFFFFFFFFF AND PUSH4 0xA9059CBB DUP5 DUP5 PUSH1 0x40 MLOAD DUP4 PUSH4 0xFFFFFFFF AND PUSH1 0xE0 SHL DUP2 MSTORE PUSH1 0x4 ADD PUSH2 0x2B55 SWAP3 SWAP2 SWAP1 PUSH2 0x4289 JUMP JUMPDEST PUSH1 0x0 PUSH1 0x40 MLOAD DUP1 DUP4 SUB DUP2 PUSH1 0x0 DUP8 DUP1 EXTCODESIZE ISZERO DUP1 ISZERO PUSH2 0x2B6F JUMPI PUSH1 0x0 DUP1 REVERT JUMPDEST POP GAS CALL ISZERO DUP1 ISZERO PUSH2 0x2B83 JUMPI RETURNDATASIZE PUSH1 0x0 DUP1 RETURNDATACOPY RETURNDATASIZE PUSH1 0x0 REVERT JUMPDEST POP POP POP POP POP POP POP POP JUMP JUMPDEST PUSH2 0x2B96 CALLER PUSH2 0x3193 JUMP JUMPDEST DUP1 PUSH2 0x2BA5 JUMPI POP PUSH2 0x2BA4 PUSH2 0x273F JUMP JUMPDEST JUMPDEST PUSH2 0x2BE4 JUMPI PUSH1 0x40 MLOAD PUSH32 0x8C379A000000000000000000000000000000000000000000000000000000000 DUP2 MSTORE PUSH1 0x4 ADD PUSH2 0x2BDB SWAP1 PUSH2 0x4391 JUMP JUMPDEST PUSH1 0x40 MLOAD DUP1 SWAP2 SUB SWAP1 REVERT JUMPDEST PUSH1 0x1C PUSH1 0x0 SWAP1 SLOAD SWAP1 PUSH2 0x100 EXP SWAP1 DIV PUSH20 0xFFFFFFFFFFFFFFFFFFFFFFFFFFFFFFFFFFFFFFFF AND PUSH20 0xFFFFFFFFFFFFFFFFFFFFFFFFFFFFFFFFFFFFFFFF AND PUSH4 0xC0F4ED31 CALLVALUE DUP6 DUP6 DUP6 PUSH1 0x40 MLOAD DUP6 PUSH4 0xFFFFFFFF AND PUSH1 0xE0 SHL DUP2 MSTORE PUSH1 0x4 ADD PUSH2 0x2C44 SWAP4 SWAP3 SWAP2 SWAP1 PUSH2 0x4516 JUMP JUMPDEST PUSH1 0x0 PUSH1 0x40 MLOAD DUP1 DUP4 SUB DUP2 DUP6 DUP9 DUP1 EXTCODESIZE ISZERO DUP1 ISZERO PUSH2 0x2C5D JUMPI PUSH1 0x0 DUP1 REVERT JUMPDEST POP GAS CALL ISZERO DUP1 ISZERO PUSH2 0x2C71 JUMPI RETURNDATASIZE PUSH1 0x0 DUP1 RETURNDATACOPY RETURNDATASIZE PUSH1 0x0 REVERT JUMPDEST POP POP POP POP POP PUSH1 0x2 PUSH1 0x8 ADD PUSH1 0x40 MLOAD PUSH2 0x2C88 SWAP2 SWAP1 PUSH2 0x4167 JUMP JUMPDEST PUSH1 0x40 MLOAD DUP1 SWAP2 SUB SWAP1 KECCAK256 PUSH1 0x1C PUSH1 0x0 SWAP1 SLOAD SWAP1 PUSH2 0x100 EXP SWAP1 DIV PUSH20 0xFFFFFFFFFFFFFFFFFFFFFFFFFFFFFFFFFFFFFFFF AND PUSH20 0xFFFFFFFFFFFFFFFFFFFFFFFFFFFFFFFFFFFFFFFF AND CALLER PUSH20 0xFFFFFFFFFFFFFFFFFFFFFFFFFFFFFFFFFFFFFFFF AND PUSH32 0x32A9EEB55EA56EB60BADFB6642D5B92BE35B6DA6F74892C12D0E14A50DFC2BAC DUP6 DUP8 PUSH1 0x40 MLOAD PUSH2 0x2D11 SWAP3 SWAP2 SWAP1 PUSH2 0x4289 JUMP JUMPDEST PUSH1 0x40 MLOAD DUP1 SWAP2 SUB SWAP1 LOG4 POP POP POP JUMP JUMPDEST PUSH2 0x2D27 CALLER PUSH2 0x3193 JUMP JUMPDEST DUP1 PUSH2 0x2D36 JUMPI POP PUSH2 0x2D35 PUSH2 0x273F JUMP JUMPDEST JUMPDEST PUSH2 0x2D75 JUMPI PUSH1 0x40 MLOAD PUSH32 0x8C379A000000000000000000000000000000000000000000000000000000000 DUP2 MSTORE PUSH1 0x4 ADD PUSH2 0x2D6C SWAP1 PUSH2 0x4391 JUMP JUMPDEST PUSH1 0x40 MLOAD DUP1 SWAP2 SUB SWAP1 REVERT JUMPDEST PUSH1 0x0 DUP4 SWAP1 POP DUP1 PUSH20 0xFFFFFFFFFFFFFFFFFFFFFFFFFFFFFFFFFFFFFFFF AND PUSH4 0x66188463 DUP5 DUP5 PUSH1 0x40 MLOAD DUP4 PUSH4 0xFFFFFFFF AND PUSH1 0xE0 SHL DUP2 MSTORE PUSH1 0x4 ADD PUSH2 0x2DB5 SWAP3 SWAP2 SWAP1 PUSH2 0x4289 JUMP JUMPDEST PUSH1 0x0 PUSH1 0x40 MLOAD DUP1 DUP4 SUB DUP2 PUSH1 0x0 DUP8 DUP1 EXTCODESIZE ISZERO DUP1 ISZERO PUSH2 0x2DCF JUMPI PUSH1 0x0 DUP1 REVERT JUMPDEST POP GAS CALL ISZERO DUP1 ISZERO PUSH2 0x2DE3 JUMPI RETURNDATASIZE PUSH1 0x0 DUP1 RETURNDATACOPY RETURNDATASIZE PUSH1 0x0 REVERT JUMPDEST POP POP POP POP PUSH1 0x2 PUSH1 0x16 ADD PUSH1 0x40 MLOAD PUSH2 0x2DF9 SWAP2 SWAP1 PUSH2 0x4167 JUMP JUMPDEST PUSH1 0x40 MLOAD DUP1 SWAP2 SUB SWAP1 KECCAK256 DUP5 PUSH20 0xFFFFFFFFFFFFFFFFFFFFFFFFFFFFFFFFFFFFFFFF AND CALLER PUSH20 0xFFFFFFFFFFFFFFFFFFFFFFFFFFFFFFFFFFFFFFFF AND PUSH32 0x32A9EEB55EA56EB60BADFB6642D5B92BE35B6DA6F74892C12D0E14A50DFC2BAC DUP7 DUP7 PUSH1 0x40 MLOAD PUSH2 0x2E60 SWAP3 SWAP2 SWAP1 PUSH2 0x4289 JUMP JUMPDEST PUSH1 0x40 MLOAD DUP1 SWAP2 SUB SWAP1 LOG4 POP POP POP POP JUMP JUMPDEST PUSH2 0x2E77 CALLER PUSH2 0x3193 JUMP JUMPDEST DUP1 PUSH2 0x2E86 JUMPI POP PUSH2 0x2E85 PUSH2 0x273F JUMP JUMPDEST JUMPDEST PUSH2 0x2EC5 JUMPI PUSH1 0x40 MLOAD PUSH32 0x8C379A000000000000000000000000000000000000000000000000000000000 DUP2 MSTORE PUSH1 0x4 ADD PUSH2 0x2EBC SWAP1 PUSH2 0x4391 JUMP JUMPDEST PUSH1 0x40 MLOAD DUP1 SWAP2 SUB SWAP1 REVERT JUMPDEST PUSH1 0x1C PUSH1 0x0 SWAP1 SLOAD SWAP1 PUSH2 0x100 EXP SWAP1 DIV PUSH20 0xFFFFFFFFFFFFFFFFFFFFFFFFFFFFFFFFFFFFFFFF AND PUSH20 0xFFFFFFFFFFFFFFFFFFFFFFFFFFFFFFFFFFFFFFFF AND PUSH4 0x1F90607A DUP3 DUP5 PUSH1 0x40 MLOAD DUP4 PUSH4 0xFFFFFFFF AND PUSH1 0xE0 SHL DUP2 MSTORE PUSH1 0x4 ADD PUSH2 0x2F22 SWAP3 SWAP2 SWAP1 PUSH2 0x4289 JUMP JUMPDEST PUSH1 0x0 PUSH1 0x40 MLOAD DUP1 DUP4 SUB DUP2 PUSH1 0x0 DUP8 DUP1 EXTCODESIZE ISZERO DUP1 ISZERO PUSH2 0x2F3C JUMPI PUSH1 0x0 DUP1 REVERT JUMPDEST POP GAS CALL ISZERO DUP1 ISZERO PUSH2 0x2F50 JUMPI RETURNDATASIZE PUSH1 0x0 DUP1 RETURNDATACOPY RETURNDATASIZE PUSH1 0x0 REVERT JUMPDEST POP POP POP POP PUSH1 0x2 PUSH1 0xF ADD PUSH1 0x40 MLOAD PUSH2 0x2F66 SWAP2 SWAP1 PUSH2 0x4167 JUMP JUMPDEST PUSH1 0x40 MLOAD DUP1 SWAP2 SUB SWAP1 KECCAK256 PUSH1 0x1C PUSH1 0x0 SWAP1 SLOAD SWAP1 PUSH2 0x100 EXP SWAP1 DIV PUSH20 0xFFFFFFFFFFFFFFFFFFFFFFFFFFFFFFFFFFFFFFFF AND PUSH20 0xFFFFFFFFFFFFFFFFFFFFFFFFFFFFFFFFFFFFFFFF AND CALLER PUSH20 0xFFFFFFFFFFFFFFFFFFFFFFFFFFFFFFFFFFFFFFFF AND PUSH32 0x32A9EEB55EA56EB60BADFB6642D5B92BE35B6DA6F74892C12D0E14A50DFC2BAC DUP5 DUP7 PUSH1 0x40 MLOAD PUSH2 0x2FEF SWAP3 SWAP2 SWAP1 PUSH2 0x4289 JUMP JUMPDEST PUSH1 0x40 MLOAD DUP1 SWAP2 SUB SWAP1 LOG4 POP POP JUMP JUMPDEST PUSH2 0x3003 PUSH2 0x273F JUMP JUMPDEST PUSH2 0x3042 JUMPI PUSH1 0x40 MLOAD PUSH32 0x8C379A000000000000000000000000000000000000000000000000000000000 DUP2 MSTORE PUSH1 0x4 ADD PUSH2 0x3039 SWAP1 PUSH2 0x43D1 JUMP JUMPDEST PUSH1 0x40 MLOAD DUP1 SWAP2 SUB SWAP1 REVERT JUMPDEST PUSH2 0x304B DUP2 PUSH2 0x3521 JUMP JUMPDEST POP JUMP JUMPDEST PUSH2 0x3056 PUSH2 0x273F JUMP JUMPDEST PUSH2 0x3095 JUMPI PUSH1 0x40 MLOAD PUSH32 0x8C379A000000000000000000000000000000000000000000000000000000000 DUP2 MSTORE PUSH1 0x4 ADD PUSH2 0x308C SWAP1 PUSH2 0x43D1 JUMP JUMPDEST PUSH1 0x40 MLOAD DUP1 SWAP2 SUB SWAP1 REVERT JUMPDEST PUSH1 0x0 DUP2 SWAP1 POP DUP1 PUSH20 0xFFFFFFFFFFFFFFFFFFFFFFFFFFFFFFFFFFFFFFFF AND PUSH4 0xA9059CBB CALLER DUP4 PUSH20 0xFFFFFFFFFFFFFFFFFFFFFFFFFFFFFFFFFFFFFFFF AND PUSH4 0x70A08231 ADDRESS PUSH1 0x40 MLOAD DUP3 PUSH4 0xFFFFFFFF AND PUSH1 0xE0 SHL DUP2 MSTORE PUSH1 0x4 ADD PUSH2 0x30F0 SWAP2 SWAP1 PUSH2 0x4199 JUMP JUMPDEST PUSH1 0x20 PUSH1 0x40 MLOAD DUP1 DUP4 SUB DUP2 DUP7 DUP1 EXTCODESIZE ISZERO DUP1 ISZERO PUSH2 0x3108 JUMPI PUSH1 0x0 DUP1 REVERT JUMPDEST POP GAS STATICCALL ISZERO DUP1 ISZERO PUSH2 0x311C JUMPI RETURNDATASIZE PUSH1 0x0 DUP1 RETURNDATACOPY RETURNDATASIZE PUSH1 0x0 REVERT JUMPDEST POP POP POP POP PUSH1 0x40 MLOAD RETURNDATASIZE PUSH1 0x1F NOT PUSH1 0x1F DUP3 ADD AND DUP3 ADD DUP1 PUSH1 0x40 MSTORE POP PUSH2 0x3140 SWAP2 SWAP1 DUP2 ADD SWAP1 PUSH2 0x3ACF JUMP JUMPDEST PUSH1 0x40 MLOAD DUP4 PUSH4 0xFFFFFFFF AND PUSH1 0xE0 SHL DUP2 MSTORE PUSH1 0x4 ADD PUSH2 0x315D SWAP3 SWAP2 SWAP1 PUSH2 0x41B4 JUMP JUMPDEST PUSH1 0x0 PUSH1 0x40 MLOAD DUP1 DUP4 SUB DUP2 PUSH1 0x0 DUP8 DUP1 EXTCODESIZE ISZERO DUP1 ISZERO PUSH2 0x3177 JUMPI PUSH1 0x0 DUP1 REVERT JUMPDEST POP GAS CALL ISZERO DUP1 ISZERO PUSH2 0x318B JUMPI RETURNDATASIZE PUSH1 0x0 DUP1 RETURNDATACOPY RETURNDATASIZE PUSH1 0x0 REVERT JUMPDEST POP POP POP POP POP POP JUMP JUMPDEST PUSH1 0x0 DUP1 PUSH1 0x0 SWAP1 POP JUMPDEST PUSH1 0x1 DUP1 SLOAD SWAP1 POP DUP2 LT ISZERO PUSH2 0x322A JUMPI PUSH1 0x1 DUP2 DUP2 SLOAD DUP2 LT PUSH2 0x31B5 JUMPI INVALID JUMPDEST SWAP1 PUSH1 0x0 MSTORE PUSH1 0x20 PUSH1 0x0 KECCAK256 ADD PUSH1 0x0 SWAP1 SLOAD SWAP1 PUSH2 0x100 EXP SWAP1 DIV PUSH20 0xFFFFFFFFFFFFFFFFFFFFFFFFFFFFFFFFFFFFFFFF AND PUSH20 0xFFFFFFFFFFFFFFFFFFFFFFFFFFFFFFFFFFFFFFFF AND DUP4 PUSH20 0xFFFFFFFFFFFFFFFFFFFFFFFFFFFFFFFFFFFFFFFF AND EQ ISZERO PUSH2 0x321D JUMPI PUSH1 0x1 SWAP2 POP POP PUSH2 0x3230 JUMP JUMPDEST DUP1 DUP1 PUSH1 0x1 ADD SWAP2 POP POP PUSH2 0x319B JUMP JUMPDEST POP PUSH1 0x0 SWAP1 POP JUMPDEST SWAP2 SWAP1 POP JUMP JUMPDEST PUSH2 0x323E CALLER PUSH2 0x3193 JUMP JUMPDEST DUP1 PUSH2 0x324D JUMPI POP PUSH2 0x324C PUSH2 0x273F JUMP JUMPDEST JUMPDEST PUSH2 0x328C JUMPI PUSH1 0x40 MLOAD PUSH32 0x8C379A000000000000000000000000000000000000000000000000000000000 DUP2 MSTORE PUSH1 0x4 ADD PUSH2 0x3283 SWAP1 PUSH2 0x4391 JUMP JUMPDEST PUSH1 0x40 MLOAD DUP1 SWAP2 SUB SWAP1 REVERT JUMPDEST PUSH1 0x0 DUP4 SWAP1 POP PUSH1 0x2 PUSH1 0x3 ADD PUSH1 0x40 MLOAD PUSH2 0x32A3 SWAP2 SWAP1 PUSH2 0x4167 JUMP JUMPDEST PUSH1 0x40 MLOAD DUP1 SWAP2 SUB SWAP1 KECCAK256 DUP5 PUSH20 0xFFFFFFFFFFFFFFFFFFFFFFFFFFFFFFFFFFFFFFFF AND CALLER PUSH20 0xFFFFFFFFFFFFFFFFFFFFFFFFFFFFFFFFFFFFFFFF AND PUSH32 0x32A9EEB55EA56EB60BADFB6642D5B92BE35B6DA6F74892C12D0E14A50DFC2BAC DUP8 PUSH1 0x0 PUSH1 0x40 MLOAD PUSH2 0x330B SWAP3 SWAP2 SWAP1 PUSH2 0x4260 JUMP JUMPDEST PUSH1 0x40 MLOAD DUP1 SWAP2 SUB SWAP1 LOG4 DUP1 PUSH20 0xFFFFFFFFFFFFFFFFFFFFFFFFFFFFFFFFFFFFFFFF AND PUSH4 0x56B01CE DUP5 DUP5 PUSH1 0x40 MLOAD DUP4 PUSH4 0xFFFFFFFF AND PUSH1 0xE0 SHL DUP2 MSTORE PUSH1 0x4 ADD PUSH2 0x334E SWAP3 SWAP2 SWAP1 PUSH2 0x4341 JUMP JUMPDEST PUSH1 0x0 PUSH1 0x40 MLOAD DUP1 DUP4 SUB DUP2 PUSH1 0x0 DUP8 DUP1 EXTCODESIZE ISZERO DUP1 ISZERO PUSH2 0x3368 JUMPI PUSH1 0x0 DUP1 REVERT JUMPDEST POP GAS CALL ISZERO DUP1 ISZERO PUSH2 0x337C JUMPI RETURNDATASIZE PUSH1 0x0 DUP1 RETURNDATACOPY RETURNDATASIZE PUSH1 0x0 REVERT JUMPDEST POP POP POP POP POP POP POP POP JUMP JUMPDEST PUSH2 0x338F CALLER PUSH2 0x3193 JUMP JUMPDEST DUP1 PUSH2 0x339E JUMPI POP PUSH2 0x339D PUSH2 0x273F JUMP JUMPDEST JUMPDEST PUSH2 0x33DD JUMPI PUSH1 0x40 MLOAD PUSH32 0x8C379A000000000000000000000000000000000000000000000000000000000 DUP2 MSTORE PUSH1 0x4 ADD PUSH2 0x33D4 SWAP1 PUSH2 0x4391 JUMP JUMPDEST PUSH1 0x40 MLOAD DUP1 SWAP2 SUB SWAP1 REVERT JUMPDEST PUSH1 0x1C PUSH1 0x0 SWAP1 SLOAD SWAP1 PUSH2 0x100 EXP SWAP1 DIV PUSH20 0xFFFFFFFFFFFFFFFFFFFFFFFFFFFFFFFFFFFFFFFF AND PUSH20 0xFFFFFFFFFFFFFFFFFFFFFFFFFFFFFFFFFFFFFFFF AND PUSH4 0xFF8EDBDB DUP6 DUP6 DUP6 DUP6 PUSH1 0x40 MLOAD DUP6 PUSH4 0xFFFFFFFF AND PUSH1 0xE0 SHL DUP2 MSTORE PUSH1 0x4 ADD PUSH2 0x343E SWAP5 SWAP4 SWAP3 SWAP2 SWAP1 PUSH2 0x454D JUMP JUMPDEST PUSH1 0x0 PUSH1 0x40 MLOAD DUP1 DUP4 SUB DUP2 PUSH1 0x0 DUP8 DUP1 EXTCODESIZE ISZERO DUP1 ISZERO PUSH2 0x3458 JUMPI PUSH1 0x0 DUP1 REVERT JUMPDEST POP GAS CALL ISZERO DUP1 ISZERO PUSH2 0x346C JUMPI RETURNDATASIZE PUSH1 0x0 DUP1 RETURNDATACOPY RETURNDATASIZE PUSH1 0x0 REVERT JUMPDEST POP POP POP POP PUSH1 0x2 PUSH1 0xA ADD PUSH1 0x40 MLOAD PUSH2 0x3482 SWAP2 SWAP1 PUSH2 0x4167 JUMP JUMPDEST PUSH1 0x40 MLOAD DUP1 SWAP2 SUB SWAP1 KECCAK256 PUSH1 0x1C PUSH1 0x0 SWAP1 SLOAD SWAP1 PUSH2 0x100 EXP SWAP1 DIV PUSH20 0xFFFFFFFFFFFFFFFFFFFFFFFFFFFFFFFFFFFFFFFF AND PUSH20 0xFFFFFFFFFFFFFFFFFFFFFFFFFFFFFFFFFFFFFFFF AND CALLER PUSH20 0xFFFFFFFFFFFFFFFFFFFFFFFFFFFFFFFFFFFFFFFF AND PUSH32 0x32A9EEB55EA56EB60BADFB6642D5B92BE35B6DA6F74892C12D0E14A50DFC2BAC DUP7 DUP9 PUSH1 0x40 MLOAD PUSH2 0x350B SWAP3 SWAP2 SWAP1 PUSH2 0x4289 JUMP JUMPDEST PUSH1 0x40 MLOAD DUP1 SWAP2 SUB SWAP1 LOG4 POP POP POP POP JUMP JUMPDEST PUSH1 0x0 CALLER SWAP1 POP SWAP1 JUMP JUMPDEST PUSH1 0x0 PUSH20 0xFFFFFFFFFFFFFFFFFFFFFFFFFFFFFFFFFFFFFFFF AND DUP2 PUSH20 0xFFFFFFFFFFFFFFFFFFFFFFFFFFFFFFFFFFFFFFFF AND EQ ISZERO PUSH2 0x3591 JUMPI PUSH1 0x40 MLOAD PUSH32 0x8C379A000000000000000000000000000000000000000000000000000000000 DUP2 MSTORE PUSH1 0x4 ADD PUSH2 0x3588 SWAP1 PUSH2 0x4371 JUMP JUMPDEST PUSH1 0x40 MLOAD DUP1 SWAP2 SUB SWAP1 REVERT JUMPDEST DUP1 PUSH20 0xFFFFFFFFFFFFFFFFFFFFFFFFFFFFFFFFFFFFFFFF AND PUSH1 0x0 DUP1 SWAP1 SLOAD SWAP1 PUSH2 0x100 EXP SWAP1 DIV PUSH20 0xFFFFFFFFFFFFFFFFFFFFFFFFFFFFFFFFFFFFFFFF AND PUSH20 0xFFFFFFFFFFFFFFFFFFFFFFFFFFFFFFFFFFFFFFFF AND PUSH32 0x8BE0079C531659141344CD1FD0A4F28419497F9722A3DAAFE3B4186F6B6457E0 PUSH1 0x40 MLOAD PUSH1 0x40 MLOAD DUP1 SWAP2 SUB SWAP1 LOG3 DUP1 PUSH1 0x0 DUP1 PUSH2 0x100 EXP DUP2 SLOAD DUP2 PUSH20 0xFFFFFFFFFFFFFFFFFFFFFFFFFFFFFFFFFFFFFFFF MUL NOT AND SWAP1 DUP4 PUSH20 0xFFFFFFFFFFFFFFFFFFFFFFFFFFFFFFFFFFFFFFFF AND MUL OR SWAP1 SSTORE POP POP JUMP JUMPDEST PUSH1 0x0 DUP2 CALLDATALOAD SWAP1 POP PUSH2 0x365E DUP2 PUSH2 0x4865 JUMP JUMPDEST SWAP3 SWAP2 POP POP JUMP JUMPDEST PUSH1 0x0 DUP2 MLOAD SWAP1 POP PUSH2 0x3673 DUP2 PUSH2 0x4865 JUMP JUMPDEST SWAP3 SWAP2 POP POP JUMP JUMPDEST PUSH1 0x0 DUP2 CALLDATALOAD SWAP1 POP PUSH2 0x3688 DUP2 PUSH2 0x487C JUMP JUMPDEST SWAP3 SWAP2 POP POP JUMP JUMPDEST PUSH1 0x0 DUP3 PUSH1 0x1F DUP4 ADD SLT PUSH2 0x369F JUMPI PUSH1 0x0 DUP1 REVERT JUMPDEST DUP2 CALLDATALOAD PUSH2 0x36B2 PUSH2 0x36AD DUP3 PUSH2 0x466D JUMP JUMPDEST PUSH2 0x4640 JUMP JUMPDEST SWAP2 POP DUP1 DUP3 MSTORE PUSH1 0x20 DUP4 ADD PUSH1 0x20 DUP4 ADD DUP6 DUP4 DUP4 ADD GT ISZERO PUSH2 0x36CE JUMPI PUSH1 0x0 DUP1 REVERT JUMPDEST PUSH2 0x36D9 DUP4 DUP3 DUP5 PUSH2 0x4812 JUMP JUMPDEST POP POP POP SWAP3 SWAP2 POP POP JUMP JUMPDEST PUSH1 0x0 DUP3 PUSH1 0x1F DUP4 ADD SLT PUSH2 0x36F3 JUMPI PUSH1 0x0 DUP1 REVERT JUMPDEST DUP2 CALLDATALOAD PUSH2 0x3706 PUSH2 0x3701 DUP3 PUSH2 0x4699 JUMP JUMPDEST PUSH2 0x4640 JUMP JUMPDEST SWAP2 POP DUP1 DUP3 MSTORE PUSH1 0x20 DUP4 ADD PUSH1 0x20 DUP4 ADD DUP6 DUP4 DUP4 ADD GT ISZERO PUSH2 0x3722 JUMPI PUSH1 0x0 DUP1 REVERT JUMPDEST PUSH2 0x372D DUP4 DUP3 DUP5 PUSH2 0x4812 JUMP JUMPDEST POP POP POP SWAP3 SWAP2 POP POP JUMP JUMPDEST PUSH1 0x0 DUP3 PUSH1 0x1F DUP4 ADD SLT PUSH2 0x3747 JUMPI PUSH1 0x0 DUP1 REVERT JUMPDEST DUP2 MLOAD PUSH2 0x375A PUSH2 0x3755 DUP3 PUSH2 0x4699 JUMP JUMPDEST PUSH2 0x4640 JUMP JUMPDEST SWAP2 POP DUP1 DUP3 MSTORE PUSH1 0x20 DUP4 ADD PUSH1 0x20 DUP4 ADD DUP6 DUP4 DUP4 ADD GT ISZERO PUSH2 0x3776 JUMPI PUSH1 0x0 DUP1 REVERT JUMPDEST PUSH2 0x3781 DUP4 DUP3 DUP5 PUSH2 0x4821 JUMP JUMPDEST POP POP POP SWAP3 SWAP2 POP POP JUMP JUMPDEST PUSH1 0x0 DUP2 CALLDATALOAD SWAP1 POP PUSH2 0x3799 DUP2 PUSH2 0x4893 JUMP JUMPDEST SWAP3 SWAP2 POP POP JUMP JUMPDEST PUSH1 0x0 DUP2 MLOAD SWAP1 POP PUSH2 0x37AE DUP2 PUSH2 0x4893 JUMP JUMPDEST SWAP3 SWAP2 POP POP JUMP JUMPDEST PUSH1 0x0 PUSH1 0x20 DUP3 DUP5 SUB SLT ISZERO PUSH2 0x37C6 JUMPI PUSH1 0x0 DUP1 REVERT JUMPDEST PUSH1 0x0 PUSH2 0x37D4 DUP5 DUP3 DUP6 ADD PUSH2 0x364F JUMP JUMPDEST SWAP2 POP POP SWAP3 SWAP2 POP POP JUMP JUMPDEST PUSH1 0x0 PUSH1 0x20 DUP3 DUP5 SUB SLT ISZERO PUSH2 0x37EF JUMPI PUSH1 0x0 DUP1 REVERT JUMPDEST PUSH1 0x0 PUSH2 0x37FD DUP5 DUP3 DUP6 ADD PUSH2 0x3664 JUMP JUMPDEST SWAP2 POP POP SWAP3 SWAP2 POP POP JUMP JUMPDEST PUSH1 0x0 DUP1 PUSH1 0x0 DUP1 PUSH1 0x80 DUP6 DUP8 SUB SLT ISZERO PUSH2 0x381C JUMPI PUSH1 0x0 DUP1 REVERT JUMPDEST PUSH1 0x0 PUSH2 0x382A DUP8 DUP3 DUP9 ADD PUSH2 0x364F JUMP JUMPDEST SWAP5 POP POP PUSH1 0x20 PUSH2 0x383B DUP8 DUP3 DUP9 ADD PUSH2 0x364F JUMP JUMPDEST SWAP4 POP POP PUSH1 0x40 PUSH2 0x384C DUP8 DUP3 DUP9 ADD PUSH2 0x364F JUMP JUMPDEST SWAP3 POP POP PUSH1 0x60 PUSH2 0x385D DUP8 DUP3 DUP9 ADD PUSH2 0x378A JUMP JUMPDEST SWAP2 POP POP SWAP3 SWAP6 SWAP2 SWAP5 POP SWAP3 POP JUMP JUMPDEST PUSH1 0x0 DUP1 PUSH1 0x0 DUP1 PUSH1 0x0 PUSH1 0xA0 DUP7 DUP9 SUB SLT ISZERO PUSH2 0x3881 JUMPI PUSH1 0x0 DUP1 REVERT JUMPDEST PUSH1 0x0 PUSH2 0x388F DUP9 DUP3 DUP10 ADD PUSH2 0x364F JUMP JUMPDEST SWAP6 POP POP PUSH1 0x20 PUSH2 0x38A0 DUP9 DUP3 DUP10 ADD PUSH2 0x364F JUMP JUMPDEST SWAP5 POP POP PUSH1 0x40 PUSH2 0x38B1 DUP9 DUP3 DUP10 ADD PUSH2 0x364F JUMP JUMPDEST SWAP4 POP POP PUSH1 0x60 PUSH2 0x38C2 DUP9 DUP3 DUP10 ADD PUSH2 0x378A JUMP JUMPDEST SWAP3 POP POP PUSH1 0x80 DUP7 ADD CALLDATALOAD PUSH8 0xFFFFFFFFFFFFFFFF DUP2 GT ISZERO PUSH2 0x38DF JUMPI PUSH1 0x0 DUP1 REVERT JUMPDEST PUSH2 0x38EB DUP9 DUP3 DUP10 ADD PUSH2 0x368E JUMP JUMPDEST SWAP2 POP POP SWAP3 SWAP6 POP SWAP3 SWAP6 SWAP1 SWAP4 POP JUMP JUMPDEST PUSH1 0x0 DUP1 PUSH1 0x0 PUSH1 0x60 DUP5 DUP7 SUB SLT ISZERO PUSH2 0x390D JUMPI PUSH1 0x0 DUP1 REVERT JUMPDEST PUSH1 0x0 PUSH2 0x391B DUP7 DUP3 DUP8 ADD PUSH2 0x364F JUMP JUMPDEST SWAP4 POP POP PUSH1 0x20 PUSH2 0x392C DUP7 DUP3 DUP8 ADD PUSH2 0x364F JUMP JUMPDEST SWAP3 POP POP PUSH1 0x40 PUSH2 0x393D DUP7 DUP3 DUP8 ADD PUSH2 0x378A JUMP JUMPDEST SWAP2 POP POP SWAP3 POP SWAP3 POP SWAP3 JUMP JUMPDEST PUSH1 0x0 DUP1 PUSH1 0x0 DUP1 PUSH1 0x80 DUP6 DUP8 SUB SLT ISZERO PUSH2 0x395D JUMPI PUSH1 0x0 DUP1 REVERT JUMPDEST PUSH1 0x0 PUSH2 0x396B DUP8 DUP3 DUP9 ADD PUSH2 0x364F JUMP JUMPDEST SWAP5 POP POP PUSH1 0x20 PUSH2 0x397C DUP8 DUP3 DUP9 ADD PUSH2 0x364F JUMP JUMPDEST SWAP4 POP POP PUSH1 0x40 PUSH2 0x398D DUP8 DUP3 DUP9 ADD PUSH2 0x378A JUMP JUMPDEST SWAP3 POP POP PUSH1 0x60 DUP6 ADD CALLDATALOAD PUSH8 0xFFFFFFFFFFFFFFFF DUP2 GT ISZERO PUSH2 0x39AA JUMPI PUSH1 0x0 DUP1 REVERT JUMPDEST PUSH2 0x39B6 DUP8 DUP3 DUP9 ADD PUSH2 0x368E JUMP JUMPDEST SWAP2 POP POP SWAP3 SWAP6 SWAP2 SWAP5 POP SWAP3 POP JUMP JUMPDEST PUSH1 0x0 DUP1 PUSH1 0x0 PUSH1 0x60 DUP5 DUP7 SUB SLT ISZERO PUSH2 0x39D7 JUMPI PUSH1 0x0 DUP1 REVERT JUMPDEST PUSH1 0x0 PUSH2 0x39E5 DUP7 DUP3 DUP8 ADD PUSH2 0x364F JUMP JUMPDEST SWAP4 POP POP PUSH1 0x20 DUP5 ADD CALLDATALOAD PUSH8 0xFFFFFFFFFFFFFFFF DUP2 GT ISZERO PUSH2 0x3A02 JUMPI PUSH1 0x0 DUP1 REVERT JUMPDEST PUSH2 0x3A0E DUP7 DUP3 DUP8 ADD PUSH2 0x36E2 JUMP JUMPDEST SWAP3 POP POP PUSH1 0x40 PUSH2 0x3A1F DUP7 DUP3 DUP8 ADD PUSH2 0x378A JUMP JUMPDEST SWAP2 POP POP SWAP3 POP SWAP3 POP SWAP3 JUMP JUMPDEST PUSH1 0x0 DUP1 PUSH1 0x40 DUP4 DUP6 SUB SLT ISZERO PUSH2 0x3A3C JUMPI PUSH1 0x0 DUP1 REVERT JUMPDEST PUSH1 0x0 PUSH2 0x3A4A DUP6 DUP3 DUP7 ADD PUSH2 0x364F JUMP JUMPDEST SWAP3 POP POP PUSH1 0x20 PUSH2 0x3A5B DUP6 DUP3 DUP7 ADD PUSH2 0x378A JUMP JUMPDEST SWAP2 POP POP SWAP3 POP SWAP3 SWAP1 POP JUMP JUMPDEST PUSH1 0x0 PUSH1 0x20 DUP3 DUP5 SUB SLT ISZERO PUSH2 0x3A77 JUMPI PUSH1 0x0 DUP1 REVERT JUMPDEST PUSH1 0x0 DUP3 ADD MLOAD PUSH8 0xFFFFFFFFFFFFFFFF DUP2 GT ISZERO PUSH2 0x3A91 JUMPI PUSH1 0x0 DUP1 REVERT JUMPDEST PUSH2 0x3A9D DUP5 DUP3 DUP6 ADD PUSH2 0x3736 JUMP JUMPDEST SWAP2 POP POP SWAP3 SWAP2 POP POP JUMP JUMPDEST PUSH1 0x0 PUSH1 0x20 DUP3 DUP5 SUB SLT ISZERO PUSH2 0x3AB8 JUMPI PUSH1 0x0 DUP1 REVERT JUMPDEST PUSH1 0x0 PUSH2 0x3AC6 DUP5 DUP3 DUP6 ADD PUSH2 0x378A JUMP JUMPDEST SWAP2 POP POP SWAP3 SWAP2 POP POP JUMP JUMPDEST PUSH1 0x0 PUSH1 0x20 DUP3 DUP5 SUB SLT ISZERO PUSH2 0x3AE1 JUMPI PUSH1 0x0 DUP1 REVERT JUMPDEST PUSH1 0x0 PUSH2 0x3AEF DUP5 DUP3 DUP6 ADD PUSH2 0x379F JUMP JUMPDEST SWAP2 POP POP SWAP3 SWAP2 POP POP JUMP JUMPDEST PUSH1 0x0 DUP1 PUSH1 0x40 DUP4 DUP6 SUB SLT ISZERO PUSH2 0x3B0B JUMPI PUSH1 0x0 DUP1 REVERT JUMPDEST PUSH1 0x0 PUSH2 0x3B19 DUP6 DUP3 DUP7 ADD PUSH2 0x378A JUMP JUMPDEST SWAP3 POP POP PUSH1 0x20 PUSH2 0x3B2A DUP6 DUP3 DUP7 ADD PUSH2 0x364F JUMP JUMPDEST SWAP2 POP POP SWAP3 POP SWAP3 SWAP1 POP JUMP JUMPDEST PUSH1 0x0 DUP1 PUSH1 0x0 PUSH1 0x60 DUP5 DUP7 SUB SLT ISZERO PUSH2 0x3B49 JUMPI PUSH1 0x0 DUP1 REVERT JUMPDEST PUSH1 0x0 PUSH2 0x3B57 DUP7 DUP3 DUP8 ADD PUSH2 0x378A JUMP JUMPDEST SWAP4 POP POP PUSH1 0x20 PUSH2 0x3B68 DUP7 DUP3 DUP8 ADD PUSH2 0x364F JUMP JUMPDEST SWAP3 POP POP PUSH1 0x40 PUSH2 0x3B79 DUP7 DUP3 DUP8 ADD PUSH2 0x364F JUMP JUMPDEST SWAP2 POP POP SWAP3 POP SWAP3 POP SWAP3 JUMP JUMPDEST PUSH1 0x0 DUP1 PUSH1 0x0 DUP1 PUSH1 0x80 DUP6 DUP8 SUB SLT ISZERO PUSH2 0x3B99 JUMPI PUSH1 0x0 DUP1 REVERT JUMPDEST PUSH1 0x0 PUSH2 0x3BA7 DUP8 DUP3 DUP9 ADD PUSH2 0x378A JUMP JUMPDEST SWAP5 POP POP PUSH1 0x20 PUSH2 0x3BB8 DUP8 DUP3 DUP9 ADD PUSH2 0x364F JUMP JUMPDEST SWAP4 POP POP PUSH1 0x40 PUSH2 0x3BC9 DUP8 DUP3 DUP9 ADD PUSH2 0x364F JUMP JUMPDEST SWAP3 POP POP PUSH1 0x60 PUSH2 0x3BDA DUP8 DUP3 DUP9 ADD PUSH2 0x3679 JUMP JUMPDEST SWAP2 POP POP SWAP3 SWAP6 SWAP2 SWAP5 POP SWAP3 POP JUMP JUMPDEST PUSH1 0x0 DUP1 PUSH1 0x0 DUP1 PUSH1 0x80 DUP6 DUP8 SUB SLT ISZERO PUSH2 0x3BFC JUMPI PUSH1 0x0 DUP1 REVERT JUMPDEST PUSH1 0x0 PUSH2 0x3C0A DUP8 DUP3 DUP9 ADD PUSH2 0x378A JUMP JUMPDEST SWAP5 POP POP PUSH1 0x20 PUSH2 0x3C1B DUP8 DUP3 DUP9 ADD PUSH2 0x364F JUMP JUMPDEST SWAP4 POP POP PUSH1 0x40 PUSH2 0x3C2C DUP8 DUP3 DUP9 ADD PUSH2 0x364F JUMP JUMPDEST SWAP3 POP POP PUSH1 0x60 PUSH2 0x3C3D DUP8 DUP3 DUP9 ADD PUSH2 0x378A JUMP JUMPDEST SWAP2 POP POP SWAP3 SWAP6 SWAP2 SWAP5 POP SWAP3 POP JUMP JUMPDEST PUSH1 0x0 DUP1 PUSH1 0x0 PUSH1 0x60 DUP5 DUP7 SUB SLT ISZERO PUSH2 0x3C5E JUMPI PUSH1 0x0 DUP1 REVERT JUMPDEST PUSH1 0x0 PUSH2 0x3C6C DUP7 DUP3 DUP8 ADD PUSH2 0x378A JUMP JUMPDEST SWAP4 POP POP PUSH1 0x20 PUSH2 0x3C7D DUP7 DUP3 DUP8 ADD PUSH2 0x364F JUMP JUMPDEST SWAP3 POP POP PUSH1 0x40 PUSH2 0x3C8E DUP7 DUP3 DUP8 ADD PUSH2 0x3679 JUMP JUMPDEST SWAP2 POP POP SWAP3 POP SWAP3 POP SWAP3 JUMP JUMPDEST PUSH1 0x0 DUP1 PUSH1 0x0 PUSH1 0x60 DUP5 DUP7 SUB SLT ISZERO PUSH2 0x3CAD JUMPI PUSH1 0x0 DUP1 REVERT JUMPDEST PUSH1 0x0 PUSH2 0x3CBB DUP7 DUP3 DUP8 ADD PUSH2 0x378A JUMP JUMPDEST SWAP4 POP POP PUSH1 0x20 PUSH2 0x3CCC DUP7 DUP3 DUP8 ADD PUSH2 0x364F JUMP JUMPDEST SWAP3 POP POP PUSH1 0x40 PUSH2 0x3CDD DUP7 DUP3 DUP8 ADD PUSH2 0x378A JUMP JUMPDEST SWAP2 POP POP SWAP3 POP SWAP3 POP SWAP3 JUMP JUMPDEST PUSH1 0x0 DUP1 PUSH1 0x0 DUP1 PUSH1 0x80 DUP6 DUP8 SUB SLT ISZERO PUSH2 0x3CFD JUMPI PUSH1 0x0 DUP1 REVERT JUMPDEST PUSH1 0x0 PUSH2 0x3D0B DUP8 DUP3 DUP9 ADD PUSH2 0x378A JUMP JUMPDEST SWAP5 POP POP PUSH1 0x20 PUSH2 0x3D1C DUP8 DUP3 DUP9 ADD PUSH2 0x364F JUMP JUMPDEST SWAP4 POP POP PUSH1 0x40 PUSH2 0x3D2D DUP8 DUP3 DUP9 ADD PUSH2 0x378A JUMP JUMPDEST SWAP3 POP POP PUSH1 0x60 PUSH2 0x3D3E DUP8 DUP3 DUP9 ADD PUSH2 0x364F JUMP JUMPDEST SWAP2 POP POP SWAP3 SWAP6 SWAP2 SWAP5 POP SWAP3 POP JUMP JUMPDEST PUSH1 0x0 DUP1 PUSH1 0x0 DUP1 PUSH1 0x0 DUP1 PUSH1 0x0 DUP1 PUSH2 0x100 DUP10 DUP12 SUB SLT ISZERO PUSH2 0x3D67 JUMPI PUSH1 0x0 DUP1 REVERT JUMPDEST PUSH1 0x0 PUSH2 0x3D75 DUP12 DUP3 DUP13 ADD PUSH2 0x378A JUMP JUMPDEST SWAP9 POP POP PUSH1 0x20 PUSH2 0x3D86 DUP12 DUP3 DUP13 ADD PUSH2 0x378A JUMP JUMPDEST SWAP8 POP POP PUSH1 0x40 PUSH2 0x3D97 DUP12 DUP3 DUP13 ADD PUSH2 0x378A JUMP JUMPDEST SWAP7 POP POP PUSH1 0x60 PUSH2 0x3DA8 DUP12 DUP3 DUP13 ADD PUSH2 0x378A JUMP JUMPDEST SWAP6 POP POP PUSH1 0x80 PUSH2 0x3DB9 DUP12 DUP3 DUP13 ADD PUSH2 0x378A JUMP JUMPDEST SWAP5 POP POP PUSH1 0xA0 PUSH2 0x3DCA DUP12 DUP3 DUP13 ADD PUSH2 0x378A JUMP JUMPDEST SWAP4 POP POP PUSH1 0xC0 PUSH2 0x3DDB DUP12 DUP3 DUP13 ADD PUSH2 0x364F JUMP JUMPDEST SWAP3 POP POP PUSH1 0xE0 PUSH2 0x3DEC DUP12 DUP3 DUP13 ADD PUSH2 0x364F JUMP JUMPDEST SWAP2 POP POP SWAP3 SWAP6 SWAP9 POP SWAP3 SWAP6 SWAP9 SWAP1 SWAP4 SWAP7 POP JUMP JUMPDEST PUSH1 0x0 PUSH2 0x3E08 DUP4 DUP4 PUSH2 0x3E23 JUMP JUMPDEST PUSH1 0x20 DUP4 ADD SWAP1 POP SWAP3 SWAP2 POP POP JUMP JUMPDEST PUSH2 0x3E1D DUP2 PUSH2 0x47CA JUMP JUMPDEST DUP3 MSTORE POP POP JUMP JUMPDEST PUSH2 0x3E2C DUP2 PUSH2 0x4756 JUMP JUMPDEST DUP3 MSTORE POP POP JUMP JUMPDEST PUSH2 0x3E3B DUP2 PUSH2 0x4756 JUMP JUMPDEST DUP3 MSTORE POP POP JUMP JUMPDEST PUSH1 0x0 PUSH2 0x3E4C DUP3 PUSH2 0x46EA JUMP JUMPDEST PUSH2 0x3E56 DUP2 DUP6 PUSH2 0x4718 JUMP JUMPDEST SWAP4 POP PUSH2 0x3E61 DUP4 PUSH2 0x46C5 JUMP JUMPDEST DUP1 PUSH1 0x0 JUMPDEST DUP4 DUP2 LT ISZERO PUSH2 0x3E92 JUMPI DUP2 MLOAD PUSH2 0x3E79 DUP9 DUP3 PUSH2 0x3DFC JUMP JUMPDEST SWAP8 POP PUSH2 0x3E84 DUP4 PUSH2 0x470B JUMP JUMPDEST SWAP3 POP POP PUSH1 0x1 DUP2 ADD SWAP1 POP PUSH2 0x3E65 JUMP JUMPDEST POP DUP6 SWAP4 POP POP POP POP SWAP3 SWAP2 POP POP JUMP JUMPDEST PUSH2 0x3EA8 DUP2 PUSH2 0x4768 JUMP JUMPDEST DUP3 MSTORE POP POP JUMP JUMPDEST PUSH2 0x3EB7 DUP2 PUSH2 0x4774 JUMP JUMPDEST DUP3 MSTORE POP POP JUMP JUMPDEST PUSH1 0x0 PUSH2 0x3EC8 DUP3 PUSH2 0x46F5 JUMP JUMPDEST PUSH2 0x3ED2 DUP2 DUP6 PUSH2 0x4729 JUMP JUMPDEST SWAP4 POP PUSH2 0x3EE2 DUP2 DUP6 PUSH1 0x20 DUP7 ADD PUSH2 0x4821 JUMP JUMPDEST PUSH2 0x3EEB DUP2 PUSH2 0x4854 JUMP JUMPDEST DUP5 ADD SWAP2 POP POP SWAP3 SWAP2 POP POP JUMP JUMPDEST PUSH2 0x3EFF DUP2 PUSH2 0x47DC JUMP JUMPDEST DUP3 MSTORE POP POP JUMP JUMPDEST PUSH1 0x0 PUSH2 0x3F10 DUP3 PUSH2 0x4700 JUMP JUMPDEST PUSH2 0x3F1A DUP2 DUP6 PUSH2 0x473A JUMP JUMPDEST SWAP4 POP PUSH2 0x3F2A DUP2 DUP6 PUSH1 0x20 DUP7 ADD PUSH2 0x4821 JUMP JUMPDEST PUSH2 0x3F33 DUP2 PUSH2 0x4854 JUMP JUMPDEST DUP5 ADD SWAP2 POP POP SWAP3 SWAP2 POP POP JUMP JUMPDEST PUSH1 0x0 DUP2 SLOAD PUSH1 0x1 DUP2 AND PUSH1 0x0 DUP2 EQ PUSH2 0x3F5B JUMPI PUSH1 0x1 DUP2 EQ PUSH2 0x3F80 JUMPI PUSH2 0x3FC4 JUMP JUMPDEST PUSH1 0x7F PUSH1 0x2 DUP4 DIV AND PUSH2 0x3F6C DUP2 DUP8 PUSH2 0x474B JUMP JUMPDEST SWAP6 POP PUSH1 0xFF NOT DUP4 AND DUP7 MSTORE DUP1 DUP7 ADD SWAP4 POP POP PUSH2 0x3FC4 JUMP JUMPDEST PUSH1 0x2 DUP3 DIV PUSH2 0x3F8E DUP2 DUP8 PUSH2 0x474B JUMP JUMPDEST SWAP6 POP PUSH2 0x3F99 DUP6 PUSH2 0x46D5 JUMP JUMPDEST PUSH1 0x0 JUMPDEST DUP3 DUP2 LT ISZERO PUSH2 0x3FBB JUMPI DUP2 SLOAD DUP2 DUP10 ADD MSTORE PUSH1 0x1 DUP3 ADD SWAP2 POP PUSH1 0x20 DUP2 ADD SWAP1 POP PUSH2 0x3F9C JUMP JUMPDEST DUP3 DUP9 ADD SWAP6 POP POP POP POP JUMPDEST POP POP SWAP3 SWAP2 POP POP JUMP JUMPDEST PUSH1 0x0 PUSH2 0x3FD9 PUSH1 0x26 DUP4 PUSH2 0x473A JUMP JUMPDEST SWAP2 POP PUSH32 0x4F776E61626C653A206E6577206F776E657220697320746865207A65726F2061 PUSH1 0x0 DUP4 ADD MSTORE PUSH32 0x6464726573730000000000000000000000000000000000000000000000000000 PUSH1 0x20 DUP4 ADD MSTORE PUSH1 0x40 DUP3 ADD SWAP1 POP SWAP2 SWAP1 POP JUMP JUMPDEST PUSH1 0x0 PUSH2 0x403F PUSH1 0x23 DUP4 PUSH2 0x473A JUMP JUMPDEST SWAP2 POP PUSH32 0x41646D696E4D616E616765723A2061646D696E20616E64206F776E6572206F6E PUSH1 0x0 DUP4 ADD MSTORE PUSH32 0x6C792E0000000000000000000000000000000000000000000000000000000000 PUSH1 0x20 DUP4 ADD MSTORE PUSH1 0x40 DUP3 ADD SWAP1 POP SWAP2 SWAP1 POP JUMP JUMPDEST PUSH1 0x0 PUSH2 0x40A5 PUSH1 0x1B DUP4 PUSH2 0x473A JUMP JUMPDEST SWAP2 POP PUSH32 0x546F6B656E206E6F74206170706F726F766520666F72206275726E0000000000 PUSH1 0x0 DUP4 ADD MSTORE PUSH1 0x20 DUP3 ADD SWAP1 POP SWAP2 SWAP1 POP JUMP JUMPDEST PUSH1 0x0 PUSH2 0x40E5 PUSH1 0x20 DUP4 PUSH2 0x473A JUMP JUMPDEST SWAP2 POP PUSH32 0x4F776E61626C653A2063616C6C6572206973206E6F7420746865206F776E6572 PUSH1 0x0 DUP4 ADD MSTORE PUSH1 0x20 DUP3 ADD SWAP1 POP SWAP2 SWAP1 POP JUMP JUMPDEST PUSH1 0x0 PUSH2 0x4125 PUSH1 0x15 DUP4 PUSH2 0x473A JUMP JUMPDEST SWAP2 POP PUSH32 0x61646D696E20616C726561647920696E206C6973740000000000000000000000 PUSH1 0x0 DUP4 ADD MSTORE PUSH1 0x20 DUP3 ADD SWAP1 POP SWAP2 SWAP1 POP JUMP JUMPDEST PUSH2 0x4161 DUP2 PUSH2 0x47C0 JUMP JUMPDEST DUP3 MSTORE POP POP JUMP JUMPDEST PUSH1 0x0 PUSH2 0x4173 DUP3 DUP5 PUSH2 0x3F3E JUMP JUMPDEST SWAP2 POP DUP2 SWAP1 POP SWAP3 SWAP2 POP POP JUMP JUMPDEST PUSH1 0x0 PUSH1 0x20 DUP3 ADD SWAP1 POP PUSH2 0x4193 PUSH1 0x0 DUP4 ADD DUP5 PUSH2 0x3E32 JUMP JUMPDEST SWAP3 SWAP2 POP POP JUMP JUMPDEST PUSH1 0x0 PUSH1 0x20 DUP3 ADD SWAP1 POP PUSH2 0x41AE PUSH1 0x0 DUP4 ADD DUP5 PUSH2 0x3E14 JUMP JUMPDEST SWAP3 SWAP2 POP POP JUMP JUMPDEST PUSH1 0x0 PUSH1 0x40 DUP3 ADD SWAP1 POP PUSH2 0x41C9 PUSH1 0x0 DUP4 ADD DUP6 PUSH2 0x3E14 JUMP JUMPDEST PUSH2 0x41D6 PUSH1 0x20 DUP4 ADD DUP5 PUSH2 0x4158 JUMP JUMPDEST SWAP4 SWAP3 POP POP POP JUMP JUMPDEST PUSH1 0x0 PUSH1 0x60 DUP3 ADD SWAP1 POP PUSH2 0x41F2 PUSH1 0x0 DUP4 ADD DUP7 PUSH2 0x3E32 JUMP JUMPDEST PUSH2 0x41FF PUSH1 0x20 DUP4 ADD DUP6 PUSH2 0x3E32 JUMP JUMPDEST PUSH2 0x420C PUSH1 0x40 DUP4 ADD DUP5 PUSH2 0x4158 JUMP JUMPDEST SWAP5 SWAP4 POP POP POP POP JUMP JUMPDEST PUSH1 0x0 PUSH1 0x80 DUP3 ADD SWAP1 POP PUSH2 0x4229 PUSH1 0x0 DUP4 ADD DUP8 PUSH2 0x3E32 JUMP JUMPDEST PUSH2 0x4236 PUSH1 0x20 DUP4 ADD DUP7 PUSH2 0x3E32 JUMP JUMPDEST PUSH2 0x4243 PUSH1 0x40 DUP4 ADD DUP6 PUSH2 0x4158 JUMP JUMPDEST DUP2 DUP2 SUB PUSH1 0x60 DUP4 ADD MSTORE PUSH2 0x4255 DUP2 DUP5 PUSH2 0x3EBD JUMP JUMPDEST SWAP1 POP SWAP6 SWAP5 POP POP POP POP POP JUMP JUMPDEST PUSH1 0x0 PUSH1 0x40 DUP3 ADD SWAP1 POP PUSH2 0x4275 PUSH1 0x0 DUP4 ADD DUP6 PUSH2 0x3E32 JUMP JUMPDEST PUSH2 0x4282 PUSH1 0x20 DUP4 ADD DUP5 PUSH2 0x3EF6 JUMP JUMPDEST SWAP4 SWAP3 POP POP POP JUMP JUMPDEST PUSH1 0x0 PUSH1 0x40 DUP3 ADD SWAP1 POP PUSH2 0x429E PUSH1 0x0 DUP4 ADD DUP6 PUSH2 0x3E32 JUMP JUMPDEST PUSH2 0x42AB PUSH1 0x20 DUP4 ADD DUP5 PUSH2 0x4158 JUMP JUMPDEST SWAP4 SWAP3 POP POP POP JUMP JUMPDEST PUSH1 0x0 PUSH1 0x60 DUP3 ADD SWAP1 POP PUSH2 0x42C7 PUSH1 0x0 DUP4 ADD DUP7 PUSH2 0x3E32 JUMP JUMPDEST PUSH2 0x42D4 PUSH1 0x20 DUP4 ADD DUP6 PUSH2 0x4158 JUMP JUMPDEST PUSH2 0x42E1 PUSH1 0x40 DUP4 ADD DUP5 PUSH2 0x3E32 JUMP JUMPDEST SWAP5 SWAP4 POP POP POP POP JUMP JUMPDEST PUSH1 0x0 PUSH1 0x20 DUP3 ADD SWAP1 POP DUP2 DUP2 SUB PUSH1 0x0 DUP4 ADD MSTORE PUSH2 0x4303 DUP2 DUP5 PUSH2 0x3E41 JUMP JUMPDEST SWAP1 POP SWAP3 SWAP2 POP POP JUMP JUMPDEST PUSH1 0x0 PUSH1 0x20 DUP3 ADD SWAP1 POP PUSH2 0x4320 PUSH1 0x0 DUP4 ADD DUP5 PUSH2 0x3E9F JUMP JUMPDEST SWAP3 SWAP2 POP POP JUMP JUMPDEST PUSH1 0x0 PUSH1 0x20 DUP3 ADD SWAP1 POP PUSH2 0x433B PUSH1 0x0 DUP4 ADD DUP5 PUSH2 0x3EAE JUMP JUMPDEST SWAP3 SWAP2 POP POP JUMP JUMPDEST PUSH1 0x0 PUSH1 0x40 DUP3 ADD SWAP1 POP DUP2 DUP2 SUB PUSH1 0x0 DUP4 ADD MSTORE PUSH2 0x435B DUP2 DUP6 PUSH2 0x3F05 JUMP JUMPDEST SWAP1 POP PUSH2 0x436A PUSH1 0x20 DUP4 ADD DUP5 PUSH2 0x4158 JUMP JUMPDEST SWAP4 SWAP3 POP POP POP JUMP JUMPDEST PUSH1 0x0 PUSH1 0x20 DUP3 ADD SWAP1 POP DUP2 DUP2 SUB PUSH1 0x0 DUP4 ADD MSTORE PUSH2 0x438A DUP2 PUSH2 0x3FCC JUMP JUMPDEST SWAP1 POP SWAP2 SWAP1 POP JUMP JUMPDEST PUSH1 0x0 PUSH1 0x20 DUP3 ADD SWAP1 POP DUP2 DUP2 SUB PUSH1 0x0 DUP4 ADD MSTORE PUSH2 0x43AA DUP2 PUSH2 0x4032 JUMP JUMPDEST SWAP1 POP SWAP2 SWAP1 POP JUMP JUMPDEST PUSH1 0x0 PUSH1 0x20 DUP3 ADD SWAP1 POP DUP2 DUP2 SUB PUSH1 0x0 DUP4 ADD MSTORE PUSH2 0x43CA DUP2 PUSH2 0x4098 JUMP JUMPDEST SWAP1 POP SWAP2 SWAP1 POP JUMP JUMPDEST PUSH1 0x0 PUSH1 0x20 DUP3 ADD SWAP1 POP DUP2 DUP2 SUB PUSH1 0x0 DUP4 ADD MSTORE PUSH2 0x43EA DUP2 PUSH2 0x40D8 JUMP JUMPDEST SWAP1 POP SWAP2 SWAP1 POP JUMP JUMPDEST PUSH1 0x0 PUSH1 0x20 DUP3 ADD SWAP1 POP DUP2 DUP2 SUB PUSH1 0x0 DUP4 ADD MSTORE PUSH2 0x440A DUP2 PUSH2 0x4118 JUMP JUMPDEST SWAP1 POP SWAP2 SWAP1 POP JUMP JUMPDEST PUSH1 0x0 PUSH1 0x20 DUP3 ADD SWAP1 POP PUSH2 0x4426 PUSH1 0x0 DUP4 ADD DUP5 PUSH2 0x4158 JUMP JUMPDEST SWAP3 SWAP2 POP POP JUMP JUMPDEST PUSH1 0x0 PUSH1 0x40 DUP3 ADD SWAP1 POP PUSH2 0x4441 PUSH1 0x0 DUP4 ADD DUP6 PUSH2 0x4158 JUMP JUMPDEST PUSH2 0x444E PUSH1 0x20 DUP4 ADD DUP5 PUSH2 0x3E32 JUMP JUMPDEST SWAP4 SWAP3 POP POP POP JUMP JUMPDEST PUSH1 0x0 PUSH1 0x80 DUP3 ADD SWAP1 POP PUSH2 0x446A PUSH1 0x0 DUP4 ADD DUP8 PUSH2 0x4158 JUMP JUMPDEST PUSH2 0x4477 PUSH1 0x20 DUP4 ADD DUP7 PUSH2 0x3E32 JUMP JUMPDEST PUSH2 0x4484 PUSH1 0x40 DUP4 ADD DUP6 PUSH2 0x3E32 JUMP JUMPDEST PUSH2 0x4491 PUSH1 0x60 DUP4 ADD DUP5 PUSH2 0x3E9F JUMP JUMPDEST SWAP6 SWAP5 POP POP POP POP POP JUMP JUMPDEST PUSH1 0x0 PUSH1 0x80 DUP3 ADD SWAP1 POP PUSH2 0x44AF PUSH1 0x0 DUP4 ADD DUP8 PUSH2 0x4158 JUMP JUMPDEST PUSH2 0x44BC PUSH1 0x20 DUP4 ADD DUP7 PUSH2 0x3E32 JUMP JUMPDEST PUSH2 0x44C9 PUSH1 0x40 DUP4 ADD DUP6 PUSH2 0x3E32 JUMP JUMPDEST PUSH2 0x44D6 PUSH1 0x60 DUP4 ADD DUP5 PUSH2 0x4158 JUMP JUMPDEST SWAP6 SWAP5 POP POP POP POP POP JUMP JUMPDEST PUSH1 0x0 PUSH1 0x60 DUP3 ADD SWAP1 POP PUSH2 0x44F4 PUSH1 0x0 DUP4 ADD DUP7 PUSH2 0x4158 JUMP JUMPDEST PUSH2 0x4501 PUSH1 0x20 DUP4 ADD DUP6 PUSH2 0x3E32 JUMP JUMPDEST PUSH2 0x450E PUSH1 0x40 DUP4 ADD DUP5 PUSH2 0x3E9F JUMP JUMPDEST SWAP5 SWAP4 POP POP POP POP JUMP JUMPDEST PUSH1 0x0 PUSH1 0x60 DUP3 ADD SWAP1 POP PUSH2 0x452B PUSH1 0x0 DUP4 ADD DUP7 PUSH2 0x4158 JUMP JUMPDEST PUSH2 0x4538 PUSH1 0x20 DUP4 ADD DUP6 PUSH2 0x3E32 JUMP JUMPDEST PUSH2 0x4545 PUSH1 0x40 DUP4 ADD DUP5 PUSH2 0x4158 JUMP JUMPDEST SWAP5 SWAP4 POP POP POP POP JUMP JUMPDEST PUSH1 0x0 PUSH1 0x80 DUP3 ADD SWAP1 POP PUSH2 0x4562 PUSH1 0x0 DUP4 ADD DUP8 PUSH2 0x4158 JUMP JUMPDEST PUSH2 0x456F PUSH1 0x20 DUP4 ADD DUP7 PUSH2 0x3E32 JUMP JUMPDEST PUSH2 0x457C PUSH1 0x40 DUP4 ADD DUP6 PUSH2 0x4158 JUMP JUMPDEST PUSH2 0x4589 PUSH1 0x60 DUP4 ADD DUP5 PUSH2 0x3E32 JUMP JUMPDEST SWAP6 SWAP5 POP POP POP POP POP JUMP JUMPDEST PUSH1 0x0 PUSH1 0x40 DUP3 ADD SWAP1 POP PUSH2 0x45A7 PUSH1 0x0 DUP4 ADD DUP6 PUSH2 0x4158 JUMP JUMPDEST DUP2 DUP2 SUB PUSH1 0x20 DUP4 ADD MSTORE PUSH2 0x45B9 DUP2 DUP5 PUSH2 0x3F05 JUMP JUMPDEST SWAP1 POP SWAP4 SWAP3 POP POP POP JUMP JUMPDEST PUSH1 0x0 PUSH2 0x100 DUP3 ADD SWAP1 POP PUSH2 0x45D8 PUSH1 0x0 DUP4 ADD DUP12 PUSH2 0x4158 JUMP JUMPDEST PUSH2 0x45E5 PUSH1 0x20 DUP4 ADD DUP11 PUSH2 0x4158 JUMP JUMPDEST PUSH2 0x45F2 PUSH1 0x40 DUP4 ADD DUP10 PUSH2 0x4158 JUMP JUMPDEST PUSH2 0x45FF PUSH1 0x60 DUP4 ADD DUP9 PUSH2 0x4158 JUMP JUMPDEST PUSH2 0x460C PUSH1 0x80 DUP4 ADD DUP8 PUSH2 0x4158 JUMP JUMPDEST PUSH2 0x4619 PUSH1 0xA0 DUP4 ADD DUP7 PUSH2 0x4158 JUMP JUMPDEST PUSH2 0x4626 PUSH1 0xC0 DUP4 ADD DUP6 PUSH2 0x3E32 JUMP JUMPDEST PUSH2 0x4633 PUSH1 0xE0 DUP4 ADD DUP5 PUSH2 0x3E32 JUMP JUMPDEST SWAP10 SWAP9 POP POP POP POP POP POP POP POP POP JUMP JUMPDEST PUSH1 0x0 PUSH1 0x40 MLOAD SWAP1 POP DUP2 DUP2 ADD DUP2 DUP2 LT PUSH8 0xFFFFFFFFFFFFFFFF DUP3 GT OR ISZERO PUSH2 0x4663 JUMPI PUSH1 0x0 DUP1 REVERT JUMPDEST DUP1 PUSH1 0x40 MSTORE POP SWAP2 SWAP1 POP JUMP JUMPDEST PUSH1 0x0 PUSH8 0xFFFFFFFFFFFFFFFF DUP3 GT ISZERO PUSH2 0x4684 JUMPI PUSH1 0x0 DUP1 REVERT JUMPDEST PUSH1 0x1F NOT PUSH1 0x1F DUP4 ADD AND SWAP1 POP PUSH1 0x20 DUP2 ADD SWAP1 POP SWAP2 SWAP1 POP JUMP JUMPDEST PUSH1 0x0 PUSH8 0xFFFFFFFFFFFFFFFF DUP3 GT ISZERO PUSH2 0x46B0 JUMPI PUSH1 0x0 DUP1 REVERT JUMPDEST PUSH1 0x1F NOT PUSH1 0x1F DUP4 ADD AND SWAP1 POP PUSH1 0x20 DUP2 ADD SWAP1 POP SWAP2 SWAP1 POP JUMP JUMPDEST PUSH1 0x0 DUP2 SWAP1 POP PUSH1 0x20 DUP3 ADD SWAP1 POP SWAP2 SWAP1 POP JUMP JUMPDEST PUSH1 0x0 DUP2 SWAP1 POP DUP2 PUSH1 0x0 MSTORE PUSH1 0x20 PUSH1 0x0 KECCAK256 SWAP1 POP SWAP2 SWAP1 POP JUMP JUMPDEST PUSH1 0x0 DUP2 MLOAD SWAP1 POP SWAP2 SWAP1 POP JUMP JUMPDEST PUSH1 0x0 DUP2 MLOAD SWAP1 POP SWAP2 SWAP1 POP JUMP JUMPDEST PUSH1 0x0 DUP2 MLOAD SWAP1 POP SWAP2 SWAP1 POP JUMP JUMPDEST PUSH1 0x0 PUSH1 0x20 DUP3 ADD SWAP1 POP SWAP2 SWAP1 POP JUMP JUMPDEST PUSH1 0x0 DUP3 DUP3 MSTORE PUSH1 0x20 DUP3 ADD SWAP1 POP SWAP3 SWAP2 POP POP JUMP JUMPDEST PUSH1 0x0 DUP3 DUP3 MSTORE PUSH1 0x20 DUP3 ADD SWAP1 POP SWAP3 SWAP2 POP POP JUMP JUMPDEST PUSH1 0x0 DUP3 DUP3 MSTORE PUSH1 0x20 DUP3 ADD SWAP1 POP SWAP3 SWAP2 POP POP JUMP JUMPDEST PUSH1 0x0 DUP2 SWAP1 POP SWAP3 SWAP2 POP POP JUMP JUMPDEST PUSH1 0x0 PUSH2 0x4761 DUP3 PUSH2 0x47A0 JUMP JUMPDEST SWAP1 POP SWAP2 SWAP1 POP JUMP JUMPDEST PUSH1 0x0 DUP2 ISZERO ISZERO SWAP1 POP SWAP2 SWAP1 POP JUMP JUMPDEST PUSH1 0x0 PUSH32 0xFFFFFFFF00000000000000000000000000000000000000000000000000000000 DUP3 AND SWAP1 POP SWAP2 SWAP1 POP JUMP JUMPDEST PUSH1 0x0 PUSH20 0xFFFFFFFFFFFFFFFFFFFFFFFFFFFFFFFFFFFFFFFF DUP3 AND SWAP1 POP SWAP2 SWAP1 POP JUMP JUMPDEST PUSH1 0x0 DUP2 SWAP1 POP SWAP2 SWAP1 POP JUMP JUMPDEST PUSH1 0x0 PUSH2 0x47D5 DUP3 PUSH2 0x47EE JUMP JUMPDEST SWAP1 POP SWAP2 SWAP1 POP JUMP JUMPDEST PUSH1 0x0 PUSH2 0x47E7 DUP3 PUSH2 0x47C0 JUMP JUMPDEST SWAP1 POP SWAP2 SWAP1 POP JUMP JUMPDEST PUSH1 0x0 PUSH2 0x47F9 DUP3 PUSH2 0x4800 JUMP JUMPDEST SWAP1 POP SWAP2 SWAP1 POP JUMP JUMPDEST PUSH1 0x0 PUSH2 0x480B DUP3 PUSH2 0x47A0 JUMP JUMPDEST SWAP1 POP SWAP2 SWAP1 POP JUMP JUMPDEST DUP3 DUP2 DUP4 CALLDATACOPY PUSH1 0x0 DUP4 DUP4 ADD MSTORE POP POP POP JUMP JUMPDEST PUSH1 0x0 JUMPDEST DUP4 DUP2 LT ISZERO PUSH2 0x483F JUMPI DUP1 DUP3 ADD MLOAD DUP2 DUP5 ADD MSTORE PUSH1 0x20 DUP2 ADD SWAP1 POP PUSH2 0x4824 JUMP JUMPDEST DUP4 DUP2 GT ISZERO PUSH2 0x484E JUMPI PUSH1 0x0 DUP5 DUP5 ADD MSTORE JUMPDEST POP POP POP POP JUMP JUMPDEST PUSH1 0x0 PUSH1 0x1F NOT PUSH1 0x1F DUP4 ADD AND SWAP1 POP SWAP2 SWAP1 POP JUMP JUMPDEST PUSH2 0x486E DUP2 PUSH2 0x4756 JUMP JUMPDEST DUP2 EQ PUSH2 0x4879 JUMPI PUSH1 0x0 DUP1 REVERT JUMPDEST POP JUMP JUMPDEST PUSH2 0x4885 DUP2 PUSH2 0x4768 JUMP JUMPDEST DUP2 EQ PUSH2 0x4890 JUMPI PUSH1 0x0 DUP1 REVERT JUMPDEST POP JUMP JUMPDEST PUSH2 0x489C DUP2 PUSH2 0x47C0 JUMP JUMPDEST DUP2 EQ PUSH2 0x48A7 JUMPI PUSH1 0x0 DUP1 REVERT JUMPDEST POP JUMP INVALID LOG3 PUSH6 0x627A7A723158 KECCAK256 CALLDATALOAD PUSH10 0xE5078B759A604DEA3862 EXP PUSH8 0x3440196E018C59C1 SLT 0xBA 0xCE DIFFICULTY CHAINID 0x24 SWAP14 0xCB PUSH30 0x426C6578706572696D656E74616CF564736F6C6343000511004000000000 "
				},
				"gasEstimates": {
					"creation": {
						"codeDepositCost": "3733800",
						"executionCost": "infinite",
						"totalCost": "infinite"
					},
					"external": {
						"": "209",
						"accpetOffer(uint256,address,address,bool)": "infinite",
						"addAdmin(address)": "infinite",
						"adminExist(address)": "infinite",
						"admins(uint256)": "2447",
						"bid(uint256,address,uint256)": "infinite",
						"burnNFT(address,uint256)": "infinite",
						"buy(uint256,address,bool)": "infinite",
						"collect(uint256,address,bool)": "infinite",
						"erc20Approve(address,address,uint256)": "infinite",
						"erc20DecreaseAllowance(address,address,uint256)": "infinite",
						"erc20DecreaseApproval(address,address,uint256)": "infinite",
						"erc20IncreaseAllowance(address,address,uint256)": "infinite",
						"erc20IncreaseApproval(address,address,uint256)": "infinite",
						"erc20Transfer(address,address,uint256)": "infinite",
						"erc20TransferFrom(address,address,address,uint256)": "infinite",
						"erc721Approve(address,address,uint256)": "infinite",
						"erc721Burn(address,uint256)": "infinite",
						"erc721Mint(address,string,uint256)": "infinite",
						"erc721SafeTransferFrom(address,address,address,uint256)": "infinite",
						"erc721SafeTransferFrom(address,address,address,uint256,bytes)": "infinite",
						"erc721Transfer(address,address,uint256)": "infinite",
						"erc721TransferFrom(address,address,address,uint256)": "infinite",
						"getAdmins()": "infinite",
						"isOwner()": "1342",
						"makeAnOffer(uint256,address,address,uint256)": "infinite",
						"onERC721Received(address,address,uint256,bytes)": "infinite",
						"owner()": "1311",
						"putOnSale(uint256,uint256,uint256,uint256,uint256,uint256,address,address)": "infinite",
						"putSaleOff(uint256,address)": "infinite",
						"removeAdmin(address)": "infinite",
						"renounceOwnership()": "24422",
						"revertAll(uint256,address)": "infinite",
						"revertOffer(uint256,address,address)": "infinite",
						"transferOwnership(address)": "24754",
						"updatePrice(uint256,address,uint256,address)": "infinite",
						"withdraw()": "infinite",
						"withdrawERC20(address)": "infinite"
					}
				},
				"methodIdentifiers": {
					"accpetOffer(uint256,address,address,bool)": "5aa8680a",
					"addAdmin(address)": "70480275",
					"adminExist(address)": "fba08d45",
					"admins(uint256)": "14bfd6d0",
					"bid(uint256,address,uint256)": "c0f4ed31",
					"burnNFT(address,uint256)": "47fcf018",
					"buy(uint256,address,bool)": "7ad157b9",
					"collect(uint256,address,bool)": "8c6ab013",
					"erc20Approve(address,address,uint256)": "ace561a8",
					"erc20DecreaseAllowance(address,address,uint256)": "0c82ea1a",
					"erc20DecreaseApproval(address,address,uint256)": "c347f69b",
					"erc20IncreaseAllowance(address,address,uint256)": "9dc6b78d",
					"erc20IncreaseApproval(address,address,uint256)": "1afffec0",
					"erc20Transfer(address,address,uint256)": "3790767d",
					"erc20TransferFrom(address,address,address,uint256)": "0a1b0b91",
					"erc721Approve(address,address,uint256)": "18fa0653",
					"erc721Burn(address,uint256)": "485f952e",
					"erc721Mint(address,string,uint256)": "fddea900",
					"erc721SafeTransferFrom(address,address,address,uint256)": "4a0aafda",
					"erc721SafeTransferFrom(address,address,address,uint256,bytes)": "488b0f7d",
					"erc721Transfer(address,address,uint256)": "b6011b4c",
					"erc721TransferFrom(address,address,address,uint256)": "8450ebe4",
					"getAdmins()": "31ae450b",
					"isOwner()": "8f32d59b",
					"makeAnOffer(uint256,address,address,uint256)": "3169b515",
					"onERC721Received(address,address,uint256,bytes)": "150b7a02",
					"owner()": "8da5cb5b",
					"putOnSale(uint256,uint256,uint256,uint256,uint256,uint256,address,address)": "640cf873",
					"putSaleOff(uint256,address)": "179443f3",
					"removeAdmin(address)": "1785f53c",
					"renounceOwnership()": "715018a6",
					"revertAll(uint256,address)": "e7ab44b4",
					"revertOffer(uint256,address,address)": "17c48a70",
					"transferOwnership(address)": "f2fde38b",
					"updatePrice(uint256,address,uint256,address)": "ff8edbdb",
					"withdraw()": "3ccfd60b",
					"withdrawERC20(address)": "f4f3b200"
				}
			},
			"storageLayout": {
				"storage": [
					{
						"astId": 31,
						"contract": "AdminManger.sol:AdminManager",
						"label": "_owner",
						"offset": 0,
						"slot": "0",
						"type": "t_address"
					},
					{
						"astId": 466,
						"contract": "AdminManger.sol:AdminManager",
						"label": "admins",
						"offset": 0,
						"slot": "1",
						"type": "t_array(t_address)dyn_storage"
					},
					{
						"astId": 549,
						"contract": "AdminManger.sol:AdminManager",
						"label": "functionNames",
						"offset": 0,
						"slot": "2",
						"type": "t_struct(FunctionNames)519_storage"
					},
					{
						"astId": 551,
						"contract": "AdminManger.sol:AdminManager",
						"label": "broker",
						"offset": 0,
						"slot": "28",
						"type": "t_contract(IBrokerV2)400"
					}
				],
				"types": {
					"t_address": {
						"encoding": "inplace",
						"label": "address",
						"numberOfBytes": "20"
					},
					"t_array(t_address)dyn_storage": {
						"base": "t_address",
						"encoding": "dynamic_array",
						"label": "address[]",
						"numberOfBytes": "32"
					},
					"t_contract(IBrokerV2)400": {
						"encoding": "inplace",
						"label": "contract IBrokerV2",
						"numberOfBytes": "20"
					},
					"t_string_storage": {
						"encoding": "bytes",
						"label": "string",
						"numberOfBytes": "32"
					},
					"t_struct(FunctionNames)519_storage": {
						"encoding": "inplace",
						"label": "struct AdminManager.FunctionNames",
						"members": [
							{
								"astId": 468,
								"contract": "AdminManger.sol:AdminManager",
								"label": "approve",
								"offset": 0,
								"slot": "0",
								"type": "t_string_storage"
							},
							{
								"astId": 470,
								"contract": "AdminManger.sol:AdminManager",
								"label": "transfer",
								"offset": 0,
								"slot": "1",
								"type": "t_string_storage"
							},
							{
								"astId": 472,
								"contract": "AdminManger.sol:AdminManager",
								"label": "burn",
								"offset": 0,
								"slot": "2",
								"type": "t_string_storage"
							},
							{
								"astId": 474,
								"contract": "AdminManger.sol:AdminManager",
								"label": "mint",
								"offset": 0,
								"slot": "3",
								"type": "t_string_storage"
							},
							{
								"astId": 476,
								"contract": "AdminManger.sol:AdminManager",
								"label": "safeTransferFrom",
								"offset": 0,
								"slot": "4",
								"type": "t_string_storage"
							},
							{
								"astId": 478,
								"contract": "AdminManger.sol:AdminManager",
								"label": "transferFrom",
								"offset": 0,
								"slot": "5",
								"type": "t_string_storage"
							},
							{
								"astId": 480,
								"contract": "AdminManger.sol:AdminManager",
								"label": "putOnSale",
								"offset": 0,
								"slot": "6",
								"type": "t_string_storage"
							},
							{
								"astId": 482,
								"contract": "AdminManger.sol:AdminManager",
								"label": "buy",
								"offset": 0,
								"slot": "7",
								"type": "t_string_storage"
							},
							{
								"astId": 484,
								"contract": "AdminManger.sol:AdminManager",
								"label": "bid",
								"offset": 0,
								"slot": "8",
								"type": "t_string_storage"
							},
							{
								"astId": 486,
								"contract": "AdminManger.sol:AdminManager",
								"label": "collect",
								"offset": 0,
								"slot": "9",
								"type": "t_string_storage"
							},
							{
								"astId": 488,
								"contract": "AdminManger.sol:AdminManager",
								"label": "updatePrice",
								"offset": 0,
								"slot": "10",
								"type": "t_string_storage"
							},
							{
								"astId": 490,
								"contract": "AdminManger.sol:AdminManager",
								"label": "putSaleOff",
								"offset": 0,
								"slot": "11",
								"type": "t_string_storage"
							},
							{
								"astId": 492,
								"contract": "AdminManger.sol:AdminManager",
								"label": "makeAnOffer",
								"offset": 0,
								"slot": "12",
								"type": "t_string_storage"
							},
							{
								"astId": 494,
								"contract": "AdminManger.sol:AdminManager",
								"label": "accpetOffer",
								"offset": 0,
								"slot": "13",
								"type": "t_string_storage"
							},
							{
								"astId": 496,
								"contract": "AdminManger.sol:AdminManager",
								"label": "revertOffer",
								"offset": 0,
								"slot": "14",
								"type": "t_string_storage"
							},
							{
								"astId": 498,
								"contract": "AdminManger.sol:AdminManager",
								"label": "revertAll",
								"offset": 0,
								"slot": "15",
								"type": "t_string_storage"
							},
							{
								"astId": 500,
								"contract": "AdminManger.sol:AdminManager",
								"label": "erc20Approve",
								"offset": 0,
								"slot": "16",
								"type": "t_string_storage"
							},
							{
								"astId": 502,
								"contract": "AdminManger.sol:AdminManager",
								"label": "erc20DecreaseApproval",
								"offset": 0,
								"slot": "17",
								"type": "t_string_storage"
							},
							{
								"astId": 504,
								"contract": "AdminManger.sol:AdminManager",
								"label": "erc20IncreaseApproval",
								"offset": 0,
								"slot": "18",
								"type": "t_string_storage"
							},
							{
								"astId": 506,
								"contract": "AdminManger.sol:AdminManager",
								"label": "erc20Transfer",
								"offset": 0,
								"slot": "19",
								"type": "t_string_storage"
							},
							{
								"astId": 508,
								"contract": "AdminManger.sol:AdminManager",
								"label": "erc20TransferFrom",
								"offset": 0,
								"slot": "20",
								"type": "t_string_storage"
							},
							{
								"astId": 510,
								"contract": "AdminManger.sol:AdminManager",
								"label": "erc20IncreaseAllowance",
								"offset": 0,
								"slot": "21",
								"type": "t_string_storage"
							},
							{
								"astId": 512,
								"contract": "AdminManger.sol:AdminManager",
								"label": "erc20DecreaseAllowance",
								"offset": 0,
								"slot": "22",
								"type": "t_string_storage"
							},
							{
								"astId": 514,
								"contract": "AdminManger.sol:AdminManager",
								"label": "batchListing",
								"offset": 0,
								"slot": "23",
								"type": "t_string_storage"
							},
							{
								"astId": 516,
								"contract": "AdminManger.sol:AdminManager",
								"label": "batchDelisting",
								"offset": 0,
								"slot": "24",
								"type": "t_string_storage"
							},
							{
								"astId": 518,
								"contract": "AdminManger.sol:AdminManager",
								"label": "setAddress",
								"offset": 0,
								"slot": "25",
								"type": "t_string_storage"
							}
						],
						"numberOfBytes": "832"
					}
				}
			},
			"userdoc": {
				"methods": {
					"addAdmin(address)": {
						"notice": "This function is used to add address of admins"
					},
					"adminExist(address)": {
						"notice": "This function is used to check address of admin exist or not in list of admin"
					},
					"burnNFT(address,uint256)": {
						"notice": "This function is used to burn the apporved NFTToken to certain admin address which was allowed by super admin the owner of Admin Manager"
					},
					"getAdmins()": {
						"notice": "This function is used to get list of all address of admins"
					},
					"removeAdmin(address)": {
						"notice": "This function is used to get list of all address of admins"
					}
				},
				"notice": "You can use this contract to execute function on behalf of superUser"
			}
		}
	}
}