{
	"Storage.sol": {
		"Storage": {
			"abi": [
				{
					"constant": true,
					"inputs": [],
					"name": "LPStakeAddress",
					"outputs": [
						{
							"internalType": "address",
							"name": "",
							"type": "address"
						}
					],
					"payable": false,
					"stateMutability": "view",
					"type": "function"
				},
				{
					"constant": true,
					"inputs": [],
					"name": "StakeAddress",
					"outputs": [
						{
							"internalType": "address",
							"name": "",
							"type": "address"
						}
					],
					"payable": false,
					"stateMutability": "view",
					"type": "function"
				},
				{
					"constant": true,
					"inputs": [],
					"name": "WETHAddress",
					"outputs": [
						{
							"internalType": "address",
							"name": "",
							"type": "address"
						}
					],
					"payable": false,
					"stateMutability": "view",
					"type": "function"
				},
				{
					"constant": true,
					"inputs": [
						{
							"internalType": "address",
							"name": "",
							"type": "address"
						},
						{
							"internalType": "uint256",
							"name": "",
							"type": "uint256"
						}
					],
					"name": "auctions",
					"outputs": [
						{
							"internalType": "address payable",
							"name": "lastOwner",
							"type": "address"
						},
						{
							"internalType": "uint256",
							"name": "currentBid",
							"type": "uint256"
						},
						{
							"internalType": "address payable",
							"name": "highestBidder",
							"type": "address"
						},
						{
							"internalType": "uint256",
							"name": "auctionType",
							"type": "uint256"
						},
						{
							"internalType": "uint256",
							"name": "startingPrice",
							"type": "uint256"
						},
						{
							"internalType": "uint256",
							"name": "buyPrice",
							"type": "uint256"
						},
						{
							"internalType": "bool",
							"name": "buyer",
							"type": "bool"
						},
						{
							"internalType": "uint256",
							"name": "startingTime",
							"type": "uint256"
						},
						{
							"internalType": "uint256",
							"name": "closingTime",
							"type": "uint256"
						},
						{
							"internalType": "address",
							"name": "erc20Token",
							"type": "address"
						}
					],
					"payable": false,
					"stateMutability": "view",
					"type": "function"
				},
				{
					"constant": true,
					"inputs": [],
					"name": "getAuctionTokensForSale",
					"outputs": [
						{
							"components": [
								{
									"internalType": "address",
									"name": "NFTAddress",
									"type": "address"
								},
								{
									"internalType": "uint256",
									"name": "tokenID",
									"type": "uint256"
								}
							],
							"internalType": "struct TokenDetArrayLib.TokenDet[]",
							"name": "",
							"type": "tuple[]"
						}
					],
					"payable": false,
					"stateMutability": "view",
					"type": "function"
				},
				{
					"constant": true,
					"inputs": [],
					"name": "getErc20Tokens",
					"outputs": [
						{
							"components": [
								{
									"internalType": "address[]",
									"name": "array",
									"type": "address[]"
								}
							],
							"internalType": "struct ERC20Addresses.erc20Addresses",
							"name": "",
							"type": "tuple"
						}
					],
					"payable": false,
					"stateMutability": "view",
					"type": "function"
				},
				{
					"constant": true,
					"inputs": [],
					"name": "getFixedPriceTokensForSale",
					"outputs": [
						{
							"components": [
								{
									"internalType": "address",
									"name": "NFTAddress",
									"type": "address"
								},
								{
									"internalType": "uint256",
									"name": "tokenID",
									"type": "uint256"
								}
							],
							"internalType": "struct TokenDetArrayLib.TokenDet[]",
							"name": "",
							"type": "tuple[]"
						}
					],
					"payable": false,
					"stateMutability": "view",
					"type": "function"
				},
				{
					"constant": true,
					"inputs": [],
					"name": "getTokensForSale",
					"outputs": [
						{
							"components": [
								{
									"internalType": "address",
									"name": "NFTAddress",
									"type": "address"
								},
								{
									"internalType": "uint256",
									"name": "tokenID",
									"type": "uint256"
								}
							],
							"internalType": "struct TokenDetArrayLib.TokenDet[]",
							"name": "",
							"type": "tuple[]"
						}
					],
					"payable": false,
					"stateMutability": "view",
					"type": "function"
				},
				{
					"constant": true,
					"inputs": [
						{
							"internalType": "address",
							"name": "_user",
							"type": "address"
						}
					],
					"name": "getTokensForSalePerUser",
					"outputs": [
						{
							"components": [
								{
									"internalType": "address",
									"name": "NFTAddress",
									"type": "address"
								},
								{
									"internalType": "uint256",
									"name": "tokenID",
									"type": "uint256"
								}
							],
							"internalType": "struct TokenDetArrayLib.TokenDet[]",
							"name": "",
							"type": "tuple[]"
						}
					],
					"payable": false,
					"stateMutability": "view",
					"type": "function"
				},
				{
					"constant": true,
					"inputs": [],
					"name": "isOwner",
					"outputs": [
						{
							"internalType": "bool",
							"name": "",
							"type": "bool"
						}
					],
					"payable": false,
					"stateMutability": "view",
					"type": "function"
				},
				{
					"constant": true,
					"inputs": [],
					"name": "lpStakefeepercentage",
					"outputs": [
						{
							"internalType": "uint16",
							"name": "",
							"type": "uint16"
						}
					],
					"payable": false,
					"stateMutability": "view",
					"type": "function"
				},
				{
					"constant": true,
					"inputs": [
						{
							"internalType": "address",
							"name": "",
							"type": "address"
						},
						{
							"internalType": "uint256",
							"name": "",
							"type": "uint256"
						},
						{
							"internalType": "address",
							"name": "",
							"type": "address"
						}
					],
					"name": "offerprice",
					"outputs": [
						{
							"internalType": "address",
							"name": "offerer",
							"type": "address"
						},
						{
							"internalType": "uint256",
							"name": "amount",
							"type": "uint256"
						}
					],
					"payable": false,
					"stateMutability": "view",
					"type": "function"
				},
				{
					"constant": true,
					"inputs": [],
					"name": "owner",
					"outputs": [
						{
							"internalType": "address",
							"name": "",
							"type": "address"
						}
					],
					"payable": false,
					"stateMutability": "view",
					"type": "function"
				},
				{
					"constant": true,
					"inputs": [],
					"name": "platFormFeePercentage",
					"outputs": [
						{
							"internalType": "uint16",
							"name": "",
							"type": "uint16"
						}
					],
					"payable": false,
					"stateMutability": "view",
					"type": "function"
				},
				{
					"constant": true,
					"inputs": [],
					"name": "rewardDistributionPercentage",
					"outputs": [
						{
							"internalType": "uint16",
							"name": "",
							"type": "uint16"
						}
					],
					"payable": false,
					"stateMutability": "view",
					"type": "function"
				},
				{
					"constant": false,
					"inputs": [
						{
							"internalType": "address",
							"name": "_weth",
							"type": "address"
						},
						{
							"internalType": "address",
							"name": "_rewardDistributionAddress",
							"type": "address"
						}
					],
					"name": "setAddress",
					"outputs": [],
					"payable": false,
					"stateMutability": "nonpayable",
					"type": "function"
				},
				{
					"constant": false,
					"inputs": [
						{
							"internalType": "address",
							"name": "_rewardDistributionAddress",
							"type": "address"
						},
						{
							"internalType": "address",
							"name": "_lpStakeAddress",
							"type": "address"
						},
						{
							"internalType": "uint16",
							"name": "_lpStakefeepercentage",
							"type": "uint16"
						},
						{
							"internalType": "uint16",
							"name": "_rewardDistributionPercentage",
							"type": "uint16"
						},
						{
							"internalType": "uint16",
							"name": "_platFormFeePercentage",
							"type": "uint16"
						}
					],
					"name": "setBrokerage",
					"outputs": [],
					"payable": false,
					"stateMutability": "nonpayable",
					"type": "function"
				},
				{
					"constant": false,
					"inputs": [
						{
							"internalType": "uint256",
							"name": "_updateTime",
							"type": "uint256"
						}
					],
					"name": "setUpdatedClosingTime",
					"outputs": [],
					"payable": false,
					"stateMutability": "nonpayable",
					"type": "function"
				},
				{
					"constant": false,
					"inputs": [
						{
							"internalType": "address",
							"name": "newOwner",
							"type": "address"
						}
					],
					"name": "transferOwnership",
					"outputs": [],
					"payable": false,
					"stateMutability": "nonpayable",
					"type": "function"
				},
				{
					"constant": true,
					"inputs": [],
					"name": "updateClosingTime",
					"outputs": [
						{
							"internalType": "uint256",
							"name": "",
							"type": "uint256"
						}
					],
					"payable": false,
					"stateMutability": "view",
					"type": "function"
				}
			],
			"devdoc": {
				"methods": {
					"isOwner()": {
						"details": "Returns true if the caller is the current owner."
					},
					"owner()": {
						"details": "Returns the address of the current owner."
					},
					"transferOwnership(address)": {
						"details": "Transfers ownership of the contract to a new account (`newOwner`). Can only be called by the current owner."
					}
				}
			},
			"evm": {
				"assembly": "    /* \"Storage.sol\":2498:6649  contract Storage is Ownable {... */\n  mstore(0x40, 0x80)\n    /* \"ownable.sol\":706:712  _owner */\n  0x00\n    /* \"ownable.sol\":706:725  _owner = msg.sender */\n  dup1\n  sload\n  not(sub(shl(0xa0, 0x01), 0x01))\n  and\n    /* \"ownable.sol\":715:725  msg.sender */\n  caller\n    /* \"ownable.sol\":706:725  _owner = msg.sender */\n  or\n  swap1\n  sstore\n    /* \"Storage.sol\":2498:6649  contract Storage is Ownable {... */\n  dataSize(sub_0)\n  dup1\n  dataOffset(sub_0)\n  0x00\n  codecopy\n  0x00\n  return\nstop\n\nsub_0: assembly {\n        /* \"Storage.sol\":2498:6649  contract Storage is Ownable {... */\n      mstore(0x40, 0x80)\n      callvalue\n        /* \"--CODEGEN--\":8:17   */\n      dup1\n        /* \"--CODEGEN--\":5:7   */\n      iszero\n      tag_1\n      jumpi\n        /* \"--CODEGEN--\":30:31   */\n      0x00\n        /* \"--CODEGEN--\":27:28   */\n      dup1\n        /* \"--CODEGEN--\":20:32   */\n      revert\n        /* \"--CODEGEN--\":5:7   */\n    tag_1:\n        /* \"Storage.sol\":2498:6649  contract Storage is Ownable {... */\n      pop\n      jumpi(tag_2, lt(calldatasize, 0x04))\n      shr(0xe0, calldataload(0x00))\n      dup1\n      0xc1a8bdbc\n      gt\n      tag_23\n      jumpi\n      dup1\n      0xf09856f3\n      gt\n      tag_24\n      jumpi\n      dup1\n      0xf2fde38b\n      gt\n      tag_25\n      jumpi\n      dup1\n      0xf2fde38b\n      eq\n      tag_20\n      jumpi\n      dup1\n      0xf5a0c9b8\n      eq\n      tag_21\n      jumpi\n      dup1\n      0xf7f17488\n      eq\n      tag_22\n      jumpi\n      jump(tag_2)\n    tag_25:\n      dup1\n      0xf09856f3\n      eq\n      tag_18\n      jumpi\n      dup1\n      0xf26f8494\n      eq\n      tag_19\n      jumpi\n      jump(tag_2)\n    tag_24:\n      dup1\n      0xd2abc517\n      gt\n      tag_26\n      jumpi\n      dup1\n      0xd2abc517\n      eq\n      tag_15\n      jumpi\n      dup1\n      0xd3c9080a\n      eq\n      tag_16\n      jumpi\n      dup1\n      0xd4739cca\n      eq\n      tag_17\n      jumpi\n      jump(tag_2)\n    tag_26:\n      dup1\n      0xc1a8bdbc\n      eq\n      tag_13\n      jumpi\n      dup1\n      0xc52ea52e\n      eq\n      tag_14\n      jumpi\n      jump(tag_2)\n    tag_23:\n      dup1\n      0x6d036535\n      gt\n      tag_27\n      jumpi\n      dup1\n      0x8bae5f4f\n      gt\n      tag_28\n      jumpi\n      dup1\n      0x8bae5f4f\n      eq\n      tag_10\n      jumpi\n      dup1\n      0x8da5cb5b\n      eq\n      tag_11\n      jumpi\n      dup1\n      0x8f32d59b\n      eq\n      tag_12\n      jumpi\n      jump(tag_2)\n    tag_28:\n      dup1\n      0x6d036535\n      eq\n      tag_8\n      jumpi\n      dup1\n      0x7f494852\n      eq\n      tag_9\n      jumpi\n      jump(tag_2)\n    tag_27:\n      dup1\n      0x44f91c1e\n      gt\n      tag_29\n      jumpi\n      dup1\n      0x44f91c1e\n      eq\n      tag_5\n      jumpi\n      dup1\n      0x45ce7db9\n      eq\n      tag_6\n      jumpi\n      dup1\n      0x65e4e1c0\n      eq\n      tag_7\n      jumpi\n      jump(tag_2)\n    tag_29:\n      dup1\n      0x0af88b24\n      eq\n      tag_3\n      jumpi\n      dup1\n      0x3b58524d\n      eq\n      tag_4\n      jumpi\n    tag_2:\n      0x00\n      dup1\n      revert\n        /* \"Storage.sol\":4388:4414  address public WETHAddress */\n    tag_3:\n      tag_30\n      tag_31\n      jump\t// in\n    tag_30:\n      mload(0x40)\n      tag_32\n      swap2\n      swap1\n      jump(tag_33)\n    tag_32:\n      mload(0x40)\n      dup1\n      swap2\n      sub\n      swap1\n      return\n        /* \"Storage.sol\":6471:6647  function setAddress(address _weth, address _rewardDistributionAddress) external onlyOwner {... */\n    tag_4:\n      tag_34\n      tag_35\n      calldatasize\n      0x04\n      jump(tag_36)\n    tag_35:\n      tag_37\n      jump\t// in\n    tag_34:\n      stop\n        /* \"Storage.sol\":4112:4175  mapping(address => mapping(uint256 => auction)) public auctions */\n    tag_5:\n      tag_38\n      tag_39\n      calldatasize\n      0x04\n      jump(tag_40)\n    tag_39:\n      tag_41\n      jump\t// in\n    tag_38:\n      mload(0x40)\n      tag_32\n      swap11\n      swap10\n      swap9\n      swap8\n      swap7\n      swap6\n      swap5\n      swap4\n      swap3\n      swap2\n      swap1\n      jump(tag_43)\n        /* \"Storage.sol\":4420:4447  address public StakeAddress */\n    tag_6:\n      tag_30\n      tag_45\n      jump\t// in\n        /* \"Storage.sol\":4647:4803  function getTokensForSale()... */\n    tag_7:\n      tag_47\n      tag_48\n      jump\t// in\n    tag_47:\n      mload(0x40)\n      tag_32\n      swap2\n      swap1\n      jump(tag_50)\n        /* \"Storage.sol\":4488:4641  function getErc20Tokens()... */\n    tag_8:\n      tag_51\n      tag_52\n      jump\t// in\n    tag_51:\n      mload(0x40)\n      tag_32\n      swap2\n      swap1\n      jump(tag_54)\n        /* \"Storage.sol\":2860:2892  uint256 public updateClosingTime */\n    tag_9:\n      tag_55\n      tag_56\n      jump\t// in\n    tag_55:\n      mload(0x40)\n      tag_32\n      swap2\n      swap1\n      jump(tag_58)\n        /* \"Storage.sol\":4453:4482  address public LPStakeAddress */\n    tag_10:\n      tag_30\n      tag_60\n      jump\t// in\n        /* \"ownable.sol\":870:947  function owner() public view returns (address) {... */\n    tag_11:\n      tag_30\n      tag_63\n      jump\t// in\n        /* \"ownable.sol\":1221:1311  function isOwner() public view returns (bool) {... */\n    tag_12:\n      tag_65\n      tag_66\n      jump\t// in\n    tag_65:\n      mload(0x40)\n      tag_32\n      swap2\n      swap1\n      jump(tag_68)\n        /* \"Storage.sol\":5464:6342  function setBrokerage(address _rewardDistributionAddress,address _lpStakeAddress ,uint16 _lpStakefeepercentage, uint16 _rewardDistributionPercentage, uint16 _platFormFeePercentage) public onlyOwner {... */\n    tag_13:\n      tag_34\n      tag_70\n      calldatasize\n      0x04\n      jump(tag_71)\n    tag_70:\n      tag_72\n      jump\t// in\n        /* \"Storage.sol\":2695:2737  uint16 public rewardDistributionPercentage */\n    tag_14:\n      tag_73\n      tag_74\n      jump\t// in\n    tag_73:\n      mload(0x40)\n      tag_32\n      swap2\n      swap1\n      jump(tag_76)\n        /* \"Storage.sol\":2787:2821  uint16 public lpStakefeepercentage */\n    tag_15:\n      tag_73\n      tag_78\n      jump\t// in\n        /* \"Storage.sol\":4809:4978  function getFixedPriceTokensForSale()... */\n    tag_16:\n      tag_47\n      tag_81\n      jump\t// in\n        /* \"Storage.sol\":5153:5343  function getTokensForSalePerUser(address _user)... */\n    tag_17:\n      tag_47\n      tag_84\n      calldatasize\n      0x04\n      jump(tag_85)\n    tag_84:\n      tag_86\n      jump\t// in\n        /* \"Storage.sol\":3948:4105  mapping(... */\n    tag_18:\n      tag_88\n      tag_89\n      calldatasize\n      0x04\n      jump(tag_90)\n    tag_89:\n      tag_91\n      jump\t// in\n    tag_88:\n      mload(0x40)\n      tag_32\n      swap3\n      swap2\n      swap1\n      jump(tag_93)\n        /* \"Storage.sol\":2743:2778  uint16 public platFormFeePercentage */\n    tag_19:\n      tag_73\n      tag_95\n      jump\t// in\n        /* \"ownable.sol\":1460:1695  function transferOwnership(address newOwner) public onlyOwner {... */\n    tag_20:\n      tag_34\n      tag_98\n      calldatasize\n      0x04\n      jump(tag_85)\n    tag_98:\n      tag_99\n      jump\t// in\n        /* \"Storage.sol\":6348:6465  function setUpdatedClosingTime(uint256 _updateTime) public onlyOwner {... */\n    tag_21:\n      tag_34\n      tag_101\n      calldatasize\n      0x04\n      jump(tag_102)\n    tag_101:\n      tag_103\n      jump\t// in\n        /* \"Storage.sol\":4984:5147  function getAuctionTokensForSale()... */\n    tag_22:\n      tag_47\n      tag_105\n      jump\t// in\n        /* \"Storage.sol\":4388:4414  address public WETHAddress */\n    tag_31:\n      and(0xffffffffffffffffffffffffffffffffffffffff, sload(0x0b))\n      dup2\n      jump\t// out\n        /* \"Storage.sol\":6471:6647  function setAddress(address _weth, address _rewardDistributionAddress) external onlyOwner {... */\n    tag_37:\n        /* \"ownable.sol\":1074:1083  isOwner() */\n      tag_108\n        /* \"ownable.sol\":1074:1081  isOwner */\n      tag_66\n        /* \"ownable.sol\":1074:1083  isOwner() */\n      jump\t// in\n    tag_108:\n        /* \"ownable.sol\":1066:1120  require(isOwner(), \"Ownable: caller is not the owner\") */\n      tag_109\n      jumpi\n      mload(0x40)\n      0x08c379a000000000000000000000000000000000000000000000000000000000\n      dup2\n      mstore\n      0x04\n      add\n      tag_110\n      swap1\n      jump(tag_111)\n    tag_110:\n      mload(0x40)\n      dup1\n      swap2\n      sub\n      swap1\n      revert\n    tag_109:\n        /* \"Storage.sol\":6571:6582  WETHAddress */\n      0x0b\n        /* \"Storage.sol\":6571:6589  WETHAddress =_weth */\n      dup1\n      sload\n      0xffffffffffffffffffffffffffffffffffffffff\n      swap4\n      dup5\n      and\n      0xffffffffffffffffffffffff0000000000000000000000000000000000000000\n      swap2\n      dup3\n      and\n      or\n      swap1\n      swap2\n      sstore\n        /* \"Storage.sol\":6599:6611  StakeAddress */\n      0x0c\n        /* \"Storage.sol\":6599:6640  StakeAddress = _rewardDistributionAddress */\n      dup1\n      sload\n      swap3\n      swap1\n      swap4\n      and\n      swap2\n      and\n      or\n      swap1\n      sstore\n        /* \"Storage.sol\":6471:6647  function setAddress(address _weth, address _rewardDistributionAddress) external onlyOwner {... */\n      jump\t// out\n        /* \"Storage.sol\":4112:4175  mapping(address => mapping(uint256 => auction)) public auctions */\n    tag_41:\n      0x07\n      0x20\n      dup2\n      dup2\n      mstore\n      0x00\n      swap4\n      dup5\n      mstore\n      0x40\n      dup1\n      dup6\n      keccak256\n      swap1\n      swap2\n      mstore\n      swap2\n      dup4\n      mstore\n      swap2\n      keccak256\n      dup1\n      sload\n      0x01\n      dup3\n      add\n      sload\n      0x02\n      dup4\n      add\n      sload\n      0x03\n      dup5\n      add\n      sload\n      0x04\n      dup6\n      add\n      sload\n      0x05\n      dup7\n      add\n      sload\n      0x06\n      dup8\n      add\n      sload\n      swap8\n      dup8\n      add\n      sload\n      0x08\n      dup9\n      add\n      sload\n      0x09\n      swap1\n      swap9\n      add\n      sload\n      0xffffffffffffffffffffffffffffffffffffffff\n      swap8\n      dup9\n      and\n      swap10\n      swap7\n      swap9\n      swap6\n      dup9\n      and\n      swap8\n      swap5\n      swap7\n      swap4\n      swap6\n      swap3\n      swap5\n      0xff\n      swap1\n      swap5\n      and\n      swap4\n      swap2\n      swap3\n      swap2\n      and\n      dup11\n      jump\t// out\n        /* \"Storage.sol\":4420:4447  address public StakeAddress */\n    tag_45:\n      and(0xffffffffffffffffffffffffffffffffffffffff, sload(0x0c))\n      dup2\n      jump\t// out\n        /* \"Storage.sol\":4647:4803  function getTokensForSale()... */\n    tag_48:\n        /* \"Storage.sol\":4720:4754  TokenDetArrayLib.TokenDet[] memory */\n      0x60\n        /* \"Storage.sol\":4777:4790  tokensForSale */\n      0x09\n        /* \"Storage.sol\":4777:4796  tokensForSale.array */\n      0x00\n      add\n        /* \"Storage.sol\":4770:4796  return tokensForSale.array */\n      dup1\n      sload\n      dup1\n      0x20\n      mul\n      0x20\n      add\n      mload(0x40)\n      swap1\n      dup2\n      add\n      0x40\n      mstore\n      dup1\n      swap3\n      swap2\n      swap1\n      dup2\n      dup2\n      mstore\n      0x20\n      add\n      0x00\n      swap1\n    tag_114:\n      dup3\n      dup3\n      lt\n      iszero\n      tag_115\n      jumpi\n      0x00\n      dup5\n      dup2\n      mstore\n      0x20\n      swap1\n      dup2\n      swap1\n      keccak256\n      0x40\n      dup1\n      mload\n      dup1\n      dup3\n      add\n      swap1\n      swap2\n      mstore\n      0x02\n      dup6\n      mul\n      swap1\n      swap2\n      add\n      dup1\n      sload\n      0xffffffffffffffffffffffffffffffffffffffff\n      and\n      dup3\n      mstore\n      0x01\n      swap1\n      dup2\n      add\n      sload\n      dup3\n      dup5\n      add\n      mstore\n      swap1\n      dup4\n      mstore\n      swap1\n      swap3\n      add\n      swap2\n      add\n      jump(tag_114)\n    tag_115:\n      pop\n      pop\n      pop\n      pop\n      swap1\n      pop\n        /* \"Storage.sol\":4647:4803  function getTokensForSale()... */\n      swap1\n      jump\t// out\n        /* \"Storage.sol\":4488:4641  function getErc20Tokens()... */\n    tag_52:\n        /* \"Storage.sol\":4559:4595  ERC20Addresses.erc20Addresses memory */\n      tag_117\n      tag_118\n      jump\t// in\n    tag_117:\n        /* \"Storage.sol\":4611:4634  return erc20TokensArray */\n      0x40\n      dup1\n      mload\n        /* \"Storage.sol\":4618:4634  erc20TokensArray */\n      0x0a\n        /* \"Storage.sol\":4611:4634  return erc20TokensArray */\n      dup1\n      sload\n      0x20\n      dup2\n      dup2\n      mul\n      dup5\n      add\n      dup6\n      add\n      dup6\n      mstore\n      dup4\n      add\n      dup2\n      dup2\n      mstore\n      swap3\n      swap4\n        /* \"Storage.sol\":4618:4634  erc20TokensArray */\n      swap2\n      swap3\n        /* \"Storage.sol\":4611:4634  return erc20TokensArray */\n      dup5\n      swap3\n      swap1\n      swap2\n        /* \"Storage.sol\":4618:4634  erc20TokensArray */\n      dup5\n      swap2\n        /* \"Storage.sol\":4611:4634  return erc20TokensArray */\n      dup5\n      add\n        /* \"Storage.sol\":4618:4634  erc20TokensArray */\n      dup3\n        /* \"Storage.sol\":4611:4634  return erc20TokensArray */\n      dup3\n      dup1\n      iszero\n      tag_120\n      jumpi\n      0x20\n      mul\n      dup3\n      add\n      swap2\n      swap1\n      0x00\n      mstore\n      keccak256(0x00, 0x20)\n      swap1\n    tag_121:\n      dup2\n      sload\n      0xffffffffffffffffffffffffffffffffffffffff\n      and\n      dup2\n      mstore\n      0x01\n      swap1\n      swap2\n      add\n      swap1\n      0x20\n      add\n      dup1\n      dup4\n      gt\n      tag_121\n      jumpi\n    tag_120:\n      pop\n      pop\n      pop\n      pop\n      pop\n      dup2\n      mstore\n      pop\n      pop\n      swap1\n      pop\n        /* \"Storage.sol\":4488:4641  function getErc20Tokens()... */\n      swap1\n      jump\t// out\n        /* \"Storage.sol\":2860:2892  uint256 public updateClosingTime */\n    tag_56:\n      sload(0x01)\n      dup2\n      jump\t// out\n        /* \"Storage.sol\":4453:4482  address public LPStakeAddress */\n    tag_60:\n      and(0xffffffffffffffffffffffffffffffffffffffff, sload(0x0d))\n      dup2\n      jump\t// out\n        /* \"ownable.sol\":870:947  function owner() public view returns (address) {... */\n    tag_63:\n        /* \"ownable.sol\":908:915  address */\n      0x00\n        /* \"ownable.sol\":934:940  _owner */\n      sload\n      0xffffffffffffffffffffffffffffffffffffffff\n      and\n        /* \"ownable.sol\":870:947  function owner() public view returns (address) {... */\n      swap1\n      jump\t// out\n        /* \"ownable.sol\":1221:1311  function isOwner() public view returns (bool) {... */\n    tag_66:\n        /* \"ownable.sol\":1261:1265  bool */\n      0x00\n        /* \"ownable.sol\":1298:1304  _owner */\n      sload\n      0xffffffffffffffffffffffffffffffffffffffff\n      and\n        /* \"ownable.sol\":1284:1294  msg.sender */\n      caller\n        /* \"ownable.sol\":1284:1304  msg.sender == _owner */\n      eq\n      swap1\n        /* \"ownable.sol\":1221:1311  function isOwner() public view returns (bool) {... */\n      jump\t// out\n        /* \"Storage.sol\":5464:6342  function setBrokerage(address _rewardDistributionAddress,address _lpStakeAddress ,uint16 _lpStakefeepercentage, uint16 _rewardDistributionPercentage, uint16 _platFormFeePercentage) public onlyOwner {... */\n    tag_72:\n        /* \"ownable.sol\":1074:1083  isOwner() */\n      tag_125\n        /* \"ownable.sol\":1074:1081  isOwner */\n      tag_66\n        /* \"ownable.sol\":1074:1083  isOwner() */\n      jump\t// in\n    tag_125:\n        /* \"ownable.sol\":1066:1120  require(isOwner(), \"Ownable: caller is not the owner\") */\n      tag_126\n      jumpi\n      mload(0x40)\n      0x08c379a000000000000000000000000000000000000000000000000000000000\n      dup2\n      mstore\n      0x04\n      add\n      tag_110\n      swap1\n      jump(tag_111)\n    tag_126:\n        /* \"Storage.sol\":5680:5720  _rewardDistributionAddress != address(0) */\n      0xffffffffffffffffffffffffffffffffffffffff\n      dup6\n      and\n      iszero\n      dup1\n      iszero\n      swap1\n        /* \"Storage.sol\":5680:5750  _rewardDistributionAddress != address(0) &&_lpStakeAddress!=address(0) */\n      tag_129\n      jumpi\n      pop\n        /* \"Storage.sol\":5723:5750  _lpStakeAddress!=address(0) */\n      0xffffffffffffffffffffffffffffffffffffffff\n      dup5\n      and\n      iszero\n      iszero\n        /* \"Storage.sol\":5680:5750  _rewardDistributionAddress != address(0) &&_lpStakeAddress!=address(0) */\n    tag_129:\n        /* \"Storage.sol\":5672:5770  require(_rewardDistributionAddress != address(0) &&_lpStakeAddress!=address(0), \"Address is Zero\") */\n      tag_130\n      jumpi\n      mload(0x40)\n      0x08c379a000000000000000000000000000000000000000000000000000000000\n      dup2\n      mstore\n      0x04\n      add\n      tag_110\n      swap1\n      jump(tag_132)\n    tag_130:\n        /* \"Storage.sol\":5963:5967  1000 */\n      0x03e8\n        /* \"Storage.sol\":5930:5959  _rewardDistributionPercentage */\n      dup3\n        /* \"Storage.sol\":5930:5967  _rewardDistributionPercentage <= 1000 */\n      0xffff\n      and\n      gt\n      iszero\n        /* \"Storage.sol\":5930:6001  _rewardDistributionPercentage <= 1000 && _platFormFeePercentage <= 1000 */\n      dup1\n      iszero\n      tag_138\n      jumpi\n      pop\n        /* \"Storage.sol\":5997:6001  1000 */\n      0x03e8\n        /* \"Storage.sol\":5971:5993  _platFormFeePercentage */\n      dup2\n        /* \"Storage.sol\":5971:6001  _platFormFeePercentage <= 1000 */\n      0xffff\n      and\n      gt\n      iszero\n        /* \"Storage.sol\":5930:6001  _rewardDistributionPercentage <= 1000 && _platFormFeePercentage <= 1000 */\n    tag_138:\n        /* \"Storage.sol\":5930:6032  _rewardDistributionPercentage <= 1000 && _platFormFeePercentage <= 1000 && _lpStakefeepercentage<=1000 */\n      dup1\n      iszero\n      tag_139\n      jumpi\n      pop\n        /* \"Storage.sol\":6028:6032  1000 */\n      0x03e8\n        /* \"Storage.sol\":6005:6026  _lpStakefeepercentage */\n      dup4\n        /* \"Storage.sol\":6005:6032  _lpStakefeepercentage<=1000 */\n      0xffff\n      and\n      gt\n      iszero\n        /* \"Storage.sol\":5930:6032  _rewardDistributionPercentage <= 1000 && _platFormFeePercentage <= 1000 && _lpStakefeepercentage<=1000 */\n    tag_139:\n        /* \"Storage.sol\":5922:6064  require(_rewardDistributionPercentage <= 1000 && _platFormFeePercentage <= 1000 && _lpStakefeepercentage<=1000, \"should be greater than zero\") */\n      tag_140\n      jumpi\n      mload(0x40)\n      0x08c379a000000000000000000000000000000000000000000000000000000000\n      dup2\n      mstore\n      0x04\n      add\n      tag_110\n      swap1\n      jump(tag_137)\n    tag_140:\n        /* \"Storage.sol\":6074:6102  rewardDistributionPercentage */\n      0x00\n        /* \"Storage.sol\":6074:6134  rewardDistributionPercentage = _rewardDistributionPercentage */\n      dup1\n      sload\n      0xffffffffffffffffffff0000ffffffffffffffffffffffffffffffffffffffff\n      and\n      0x010000000000000000000000000000000000000000\n      0xffff\n      swap5\n      dup6\n      and\n      mul\n      or\n        /* \"Storage.sol\":6144:6190  platFormFeePercentage = _platFormFeePercentage */\n      0xffffffffffffffff0000ffffffffffffffffffffffffffffffffffffffffffff\n      and\n      0x0100000000000000000000000000000000000000000000\n      swap3\n      dup5\n      and\n      swap3\n      swap1\n      swap3\n      mul\n      swap2\n      swap1\n      swap2\n      or\n        /* \"Storage.sol\":6200:6242  lpStakefeepercentage=_lpStakefeepercentage */\n      0xffffffffffff0000ffffffffffffffffffffffffffffffffffffffffffffffff\n      and\n      0x01000000000000000000000000000000000000000000000000\n      swap4\n      swap1\n      swap3\n      and\n      swap3\n      swap1\n      swap3\n      mul\n      or\n      swap1\n      sstore\n        /* \"Storage.sol\":6252:6264  StakeAddress */\n      0x0c\n        /* \"Storage.sol\":6252:6293  StakeAddress = _rewardDistributionAddress */\n      dup1\n      sload\n      0xffffffffffffffffffffffff0000000000000000000000000000000000000000\n      swap1\n      dup2\n      and\n      0xffffffffffffffffffffffffffffffffffffffff\n      swap5\n      dup6\n      and\n      or\n      swap1\n      swap2\n      sstore\n        /* \"Storage.sol\":6303:6317  LPStakeAddress */\n      0x0d\n        /* \"Storage.sol\":6303:6335  LPStakeAddress = _lpStakeAddress */\n      dup1\n      sload\n      swap1\n      swap2\n      and\n      swap2\n      swap1\n      swap3\n      and\n      or\n      swap1\n      sstore\n        /* \"Storage.sol\":5464:6342  function setBrokerage(address _rewardDistributionAddress,address _lpStakeAddress ,uint16 _lpStakefeepercentage, uint16 _rewardDistributionPercentage, uint16 _platFormFeePercentage) public onlyOwner {... */\n      jump\t// out\n        /* \"Storage.sol\":2695:2737  uint16 public rewardDistributionPercentage */\n    tag_74:\n      sload(0x00)\n      0x010000000000000000000000000000000000000000\n      swap1\n      div\n      0xffff\n      and\n      dup2\n      jump\t// out\n        /* \"Storage.sol\":2787:2821  uint16 public lpStakefeepercentage */\n    tag_78:\n      sload(0x00)\n      0x01000000000000000000000000000000000000000000000000\n      swap1\n      div\n      0xffff\n      and\n      dup2\n      jump\t// out\n        /* \"Storage.sol\":4809:4978  function getFixedPriceTokensForSale()... */\n    tag_81:\n        /* \"Storage.sol\":4949:4965  fixedPriceTokens */\n      0x04\n        /* \"Storage.sol\":4942:4971  return fixedPriceTokens.array */\n      dup1\n      sload\n      0x40\n      dup1\n      mload\n      0x20\n      dup1\n      dup5\n      mul\n      dup3\n      add\n      dup2\n      add\n      swap1\n      swap3\n      mstore\n      dup3\n      dup2\n      mstore\n        /* \"Storage.sol\":4892:4926  TokenDetArrayLib.TokenDet[] memory */\n      0x60\n      swap4\n        /* \"Storage.sol\":4942:4971  return fixedPriceTokens.array */\n      swap1\n      swap3\n        /* \"Storage.sol\":4949:4965  fixedPriceTokens */\n      swap1\n      swap2\n        /* \"Storage.sol\":4949:4971  fixedPriceTokens.array */\n      0x00\n      swap1\n        /* \"Storage.sol\":4942:4971  return fixedPriceTokens.array */\n      dup5\n      add\n      dup3\n      iszero\n      tag_115\n      jumpi\n      0x00\n      dup5\n      dup2\n      mstore\n      0x20\n      swap1\n      dup2\n      swap1\n      keccak256\n      0x40\n      dup1\n      mload\n      dup1\n      dup3\n      add\n      swap1\n      swap2\n      mstore\n      0x02\n      dup6\n      mul\n      swap1\n      swap2\n      add\n      dup1\n      sload\n      0xffffffffffffffffffffffffffffffffffffffff\n      and\n      dup3\n      mstore\n      0x01\n      swap1\n      dup2\n      add\n      sload\n      dup3\n      dup5\n      add\n      mstore\n      swap1\n      dup4\n      mstore\n      swap1\n      swap3\n      add\n      swap2\n      add\n      jump(tag_114)\n        /* \"Storage.sol\":5153:5343  function getTokensForSalePerUser(address _user)... */\n    tag_86:\n        /* \"Storage.sol\":5303:5330  tokensForSalePerUser[_user] */\n      0xffffffffffffffffffffffffffffffffffffffff\n      dup2\n      and\n      0x00\n      swap1\n      dup2\n      mstore\n        /* \"Storage.sol\":5303:5323  tokensForSalePerUser */\n      0x03\n        /* \"Storage.sol\":5303:5330  tokensForSalePerUser[_user] */\n      0x20\n      swap1\n      dup2\n      mstore\n      0x40\n      dup1\n      dup4\n      keccak256\n        /* \"Storage.sol\":5296:5336  return tokensForSalePerUser[_user].array */\n      dup1\n      sload\n      dup3\n      mload\n      dup2\n      dup6\n      mul\n      dup2\n      add\n      dup6\n      add\n      swap1\n      swap4\n      mstore\n      dup1\n      dup4\n      mstore\n        /* \"Storage.sol\":5246:5280  TokenDetArrayLib.TokenDet[] memory */\n      0x60\n      swap5\n        /* \"Storage.sol\":5296:5336  return tokensForSalePerUser[_user].array */\n      swap3\n      swap4\n        /* \"Storage.sol\":5303:5330  tokensForSalePerUser[_user] */\n      swap2\n      swap3\n        /* \"Storage.sol\":5296:5336  return tokensForSalePerUser[_user].array */\n      swap1\n      swap2\n      dup5\n      add\n    tag_147:\n      dup3\n      dup3\n      lt\n      iszero\n      tag_148\n      jumpi\n      0x00\n      dup5\n      dup2\n      mstore\n      0x20\n      swap1\n      dup2\n      swap1\n      keccak256\n      0x40\n      dup1\n      mload\n      dup1\n      dup3\n      add\n      swap1\n      swap2\n      mstore\n      0x02\n      dup6\n      mul\n      swap1\n      swap2\n      add\n      dup1\n      sload\n      0xffffffffffffffffffffffffffffffffffffffff\n      and\n      dup3\n      mstore\n      0x01\n      swap1\n      dup2\n      add\n      sload\n      dup3\n      dup5\n      add\n      mstore\n      swap1\n      dup4\n      mstore\n      swap1\n      swap3\n      add\n      swap2\n      add\n      jump(tag_147)\n    tag_148:\n      pop\n      pop\n      pop\n      pop\n      swap1\n      pop\n        /* \"Storage.sol\":5153:5343  function getTokensForSalePerUser(address _user)... */\n      swap2\n      swap1\n      pop\n      jump\t// out\n        /* \"Storage.sol\":3948:4105  mapping(... */\n    tag_91:\n      0x06\n      0x20\n      swap1\n      dup2\n      mstore\n      0x00\n      swap4\n      dup5\n      mstore\n      0x40\n      dup1\n      dup6\n      keccak256\n      dup3\n      mstore\n      swap3\n      dup5\n      mstore\n      dup3\n      dup5\n      keccak256\n      swap1\n      mstore\n      dup3\n      mstore\n      swap1\n      keccak256\n      dup1\n      sload\n      0x01\n      swap1\n      swap2\n      add\n      sload\n      0xffffffffffffffffffffffffffffffffffffffff\n      swap1\n      swap2\n      and\n      swap1\n      dup3\n      jump\t// out\n        /* \"Storage.sol\":2743:2778  uint16 public platFormFeePercentage */\n    tag_95:\n      sload(0x00)\n      0x0100000000000000000000000000000000000000000000\n      swap1\n      div\n      0xffff\n      and\n      dup2\n      jump\t// out\n        /* \"ownable.sol\":1460:1695  function transferOwnership(address newOwner) public onlyOwner {... */\n    tag_99:\n        /* \"ownable.sol\":1074:1083  isOwner() */\n      tag_151\n        /* \"ownable.sol\":1074:1081  isOwner */\n      tag_66\n        /* \"ownable.sol\":1074:1083  isOwner() */\n      jump\t// in\n    tag_151:\n        /* \"ownable.sol\":1066:1120  require(isOwner(), \"Ownable: caller is not the owner\") */\n      tag_152\n      jumpi\n      mload(0x40)\n      0x08c379a000000000000000000000000000000000000000000000000000000000\n      dup2\n      mstore\n      0x04\n      add\n      tag_110\n      swap1\n      jump(tag_111)\n    tag_152:\n        /* \"ownable.sol\":1540:1562  newOwner != address(0) */\n      0xffffffffffffffffffffffffffffffffffffffff\n      dup2\n      and\n        /* \"ownable.sol\":1532:1605  require(newOwner != address(0), \"Ownable: new owner is the zero address\") */\n      tag_155\n      jumpi\n      mload(0x40)\n      0x08c379a000000000000000000000000000000000000000000000000000000000\n      dup2\n      mstore\n      0x04\n      add\n      tag_110\n      swap1\n      jump(tag_157)\n    tag_155:\n        /* \"ownable.sol\":1671:1677  _owner */\n      0x00\n        /* \"ownable.sol\":1671:1688  _owner = newOwner */\n      dup1\n      sload\n      0xffffffffffffffffffffffff0000000000000000000000000000000000000000\n      and\n      0xffffffffffffffffffffffffffffffffffffffff\n      swap3\n      swap1\n      swap3\n      and\n      swap2\n      swap1\n      swap2\n      or\n      swap1\n      sstore\n        /* \"ownable.sol\":1460:1695  function transferOwnership(address newOwner) public onlyOwner {... */\n      jump\t// out\n        /* \"Storage.sol\":6348:6465  function setUpdatedClosingTime(uint256 _updateTime) public onlyOwner {... */\n    tag_103:\n        /* \"ownable.sol\":1074:1083  isOwner() */\n      tag_159\n        /* \"ownable.sol\":1074:1081  isOwner */\n      tag_66\n        /* \"ownable.sol\":1074:1083  isOwner() */\n      jump\t// in\n    tag_159:\n        /* \"ownable.sol\":1066:1120  require(isOwner(), \"Ownable: caller is not the owner\") */\n      tag_160\n      jumpi\n      mload(0x40)\n      0x08c379a000000000000000000000000000000000000000000000000000000000\n      dup2\n      mstore\n      0x04\n      add\n      tag_110\n      swap1\n      jump(tag_111)\n    tag_160:\n        /* \"Storage.sol\":6427:6444  updateClosingTime */\n      0x01\n        /* \"Storage.sol\":6427:6458  updateClosingTime = _updateTime */\n      sstore\n        /* \"Storage.sol\":6348:6465  function setUpdatedClosingTime(uint256 _updateTime) public onlyOwner {... */\n      jump\t// out\n        /* \"Storage.sol\":4984:5147  function getAuctionTokensForSale()... */\n    tag_105:\n        /* \"Storage.sol\":5121:5134  auctionTokens */\n      0x05\n        /* \"Storage.sol\":5114:5140  return auctionTokens.array */\n      dup1\n      sload\n      0x40\n      dup1\n      mload\n      0x20\n      dup1\n      dup5\n      mul\n      dup3\n      add\n      dup2\n      add\n      swap1\n      swap3\n      mstore\n      dup3\n      dup2\n      mstore\n        /* \"Storage.sol\":5064:5098  TokenDetArrayLib.TokenDet[] memory */\n      0x60\n      swap4\n        /* \"Storage.sol\":5114:5140  return auctionTokens.array */\n      swap1\n      swap3\n        /* \"Storage.sol\":5121:5134  auctionTokens */\n      swap1\n      swap2\n        /* \"Storage.sol\":5121:5140  auctionTokens.array */\n      0x00\n      swap1\n        /* \"Storage.sol\":5114:5140  return auctionTokens.array */\n      dup5\n      add\n      dup3\n      iszero\n      tag_115\n      jumpi\n      0x00\n      dup5\n      dup2\n      mstore\n      0x20\n      swap1\n      dup2\n      swap1\n      keccak256\n      0x40\n      dup1\n      mload\n      dup1\n      dup3\n      add\n      swap1\n      swap2\n      mstore\n      0x02\n      dup6\n      mul\n      swap1\n      swap2\n      add\n      dup1\n      sload\n      0xffffffffffffffffffffffffffffffffffffffff\n      and\n      dup3\n      mstore\n      0x01\n      swap1\n      dup2\n      add\n      sload\n      dup3\n      dup5\n      add\n      mstore\n      swap1\n      dup4\n      mstore\n      swap1\n      swap3\n      add\n      swap2\n      add\n      jump(tag_114)\n        /* \"Storage.sol\":2498:6649  contract Storage is Ownable {... */\n    tag_118:\n      mload(0x40)\n      dup1\n      0x20\n      add\n      0x40\n      mstore\n      dup1\n      0x60\n      dup2\n      mstore\n      pop\n      swap1\n      jump\t// out\n        /* \"--CODEGEN--\":5:135   */\n    tag_168:\n        /* \"--CODEGEN--\":72:92   */\n      dup1\n      calldataload\n        /* \"--CODEGEN--\":97:130   */\n      tag_169\n        /* \"--CODEGEN--\":72:92   */\n      dup2\n        /* \"--CODEGEN--\":97:130   */\n      jump(tag_170)\n    tag_169:\n        /* \"--CODEGEN--\":57:135   */\n      swap3\n      swap2\n      pop\n      pop\n      jump\n        /* \"--CODEGEN--\":142:270   */\n    tag_171:\n        /* \"--CODEGEN--\":208:228   */\n      dup1\n      calldataload\n        /* \"--CODEGEN--\":233:265   */\n      tag_169\n        /* \"--CODEGEN--\":208:228   */\n      dup2\n        /* \"--CODEGEN--\":233:265   */\n      jump(tag_173)\n        /* \"--CODEGEN--\":277:407   */\n    tag_174:\n        /* \"--CODEGEN--\":344:364   */\n      dup1\n      calldataload\n        /* \"--CODEGEN--\":369:402   */\n      tag_169\n        /* \"--CODEGEN--\":344:364   */\n      dup2\n        /* \"--CODEGEN--\":369:402   */\n      jump(tag_176)\n        /* \"--CODEGEN--\":414:655   */\n    tag_85:\n      0x00\n        /* \"--CODEGEN--\":518:520   */\n      0x20\n        /* \"--CODEGEN--\":506:515   */\n      dup3\n        /* \"--CODEGEN--\":497:504   */\n      dup5\n        /* \"--CODEGEN--\":493:516   */\n      sub\n        /* \"--CODEGEN--\":489:521   */\n      slt\n        /* \"--CODEGEN--\":486:488   */\n      iszero\n      tag_177\n      jumpi\n        /* \"--CODEGEN--\":534:535   */\n      0x00\n        /* \"--CODEGEN--\":531:532   */\n      dup1\n        /* \"--CODEGEN--\":524:536   */\n      revert\n        /* \"--CODEGEN--\":486:488   */\n    tag_177:\n        /* \"--CODEGEN--\":569:570   */\n      0x00\n        /* \"--CODEGEN--\":586:639   */\n      tag_178\n        /* \"--CODEGEN--\":631:638   */\n      dup5\n        /* \"--CODEGEN--\":611:620   */\n      dup5\n        /* \"--CODEGEN--\":586:639   */\n      jump(tag_168)\n    tag_178:\n        /* \"--CODEGEN--\":576:639   */\n      swap5\n        /* \"--CODEGEN--\":480:655   */\n      swap4\n      pop\n      pop\n      pop\n      pop\n      jump\n        /* \"--CODEGEN--\":662:1028   */\n    tag_36:\n      0x00\n      dup1\n        /* \"--CODEGEN--\":783:785   */\n      0x40\n        /* \"--CODEGEN--\":771:780   */\n      dup4\n        /* \"--CODEGEN--\":762:769   */\n      dup6\n        /* \"--CODEGEN--\":758:781   */\n      sub\n        /* \"--CODEGEN--\":754:786   */\n      slt\n        /* \"--CODEGEN--\":751:753   */\n      iszero\n      tag_179\n      jumpi\n        /* \"--CODEGEN--\":799:800   */\n      0x00\n        /* \"--CODEGEN--\":796:797   */\n      dup1\n        /* \"--CODEGEN--\":789:801   */\n      revert\n        /* \"--CODEGEN--\":751:753   */\n    tag_179:\n        /* \"--CODEGEN--\":834:835   */\n      0x00\n        /* \"--CODEGEN--\":851:904   */\n      tag_180\n        /* \"--CODEGEN--\":896:903   */\n      dup6\n        /* \"--CODEGEN--\":876:885   */\n      dup6\n        /* \"--CODEGEN--\":851:904   */\n      jump(tag_168)\n    tag_180:\n        /* \"--CODEGEN--\":841:904   */\n      swap3\n      pop\n        /* \"--CODEGEN--\":813:910   */\n      pop\n        /* \"--CODEGEN--\":941:943   */\n      0x20\n        /* \"--CODEGEN--\":959:1012   */\n      tag_181\n        /* \"--CODEGEN--\":1004:1011   */\n      dup6\n        /* \"--CODEGEN--\":995:1001   */\n      dup3\n        /* \"--CODEGEN--\":984:993   */\n      dup7\n        /* \"--CODEGEN--\":980:1002   */\n      add\n        /* \"--CODEGEN--\":959:1012   */\n      jump(tag_168)\n    tag_181:\n        /* \"--CODEGEN--\":949:1012   */\n      swap2\n      pop\n        /* \"--CODEGEN--\":920:1018   */\n      pop\n        /* \"--CODEGEN--\":745:1028   */\n      swap3\n      pop\n      swap3\n      swap1\n      pop\n      jump\n        /* \"--CODEGEN--\":1035:1772   */\n    tag_71:\n      0x00\n      dup1\n      0x00\n      dup1\n      0x00\n        /* \"--CODEGEN--\":1204:1207   */\n      0xa0\n        /* \"--CODEGEN--\":1192:1201   */\n      dup7\n        /* \"--CODEGEN--\":1183:1190   */\n      dup9\n        /* \"--CODEGEN--\":1179:1202   */\n      sub\n        /* \"--CODEGEN--\":1175:1208   */\n      slt\n        /* \"--CODEGEN--\":1172:1174   */\n      iszero\n      tag_182\n      jumpi\n        /* \"--CODEGEN--\":1221:1222   */\n      0x00\n        /* \"--CODEGEN--\":1218:1219   */\n      dup1\n        /* \"--CODEGEN--\":1211:1223   */\n      revert\n        /* \"--CODEGEN--\":1172:1174   */\n    tag_182:\n        /* \"--CODEGEN--\":1256:1257   */\n      0x00\n        /* \"--CODEGEN--\":1273:1326   */\n      tag_183\n        /* \"--CODEGEN--\":1318:1325   */\n      dup9\n        /* \"--CODEGEN--\":1298:1307   */\n      dup9\n        /* \"--CODEGEN--\":1273:1326   */\n      jump(tag_168)\n    tag_183:\n        /* \"--CODEGEN--\":1263:1326   */\n      swap6\n      pop\n        /* \"--CODEGEN--\":1235:1332   */\n      pop\n        /* \"--CODEGEN--\":1363:1365   */\n      0x20\n        /* \"--CODEGEN--\":1381:1434   */\n      tag_184\n        /* \"--CODEGEN--\":1426:1433   */\n      dup9\n        /* \"--CODEGEN--\":1417:1423   */\n      dup3\n        /* \"--CODEGEN--\":1406:1415   */\n      dup10\n        /* \"--CODEGEN--\":1402:1424   */\n      add\n        /* \"--CODEGEN--\":1381:1434   */\n      jump(tag_168)\n    tag_184:\n        /* \"--CODEGEN--\":1371:1434   */\n      swap5\n      pop\n        /* \"--CODEGEN--\":1342:1440   */\n      pop\n        /* \"--CODEGEN--\":1471:1473   */\n      0x40\n        /* \"--CODEGEN--\":1489:1541   */\n      tag_185\n        /* \"--CODEGEN--\":1533:1540   */\n      dup9\n        /* \"--CODEGEN--\":1524:1530   */\n      dup3\n        /* \"--CODEGEN--\":1513:1522   */\n      dup10\n        /* \"--CODEGEN--\":1509:1531   */\n      add\n        /* \"--CODEGEN--\":1489:1541   */\n      jump(tag_171)\n    tag_185:\n        /* \"--CODEGEN--\":1479:1541   */\n      swap4\n      pop\n        /* \"--CODEGEN--\":1450:1547   */\n      pop\n        /* \"--CODEGEN--\":1578:1580   */\n      0x60\n        /* \"--CODEGEN--\":1596:1648   */\n      tag_186\n        /* \"--CODEGEN--\":1640:1647   */\n      dup9\n        /* \"--CODEGEN--\":1631:1637   */\n      dup3\n        /* \"--CODEGEN--\":1620:1629   */\n      dup10\n        /* \"--CODEGEN--\":1616:1638   */\n      add\n        /* \"--CODEGEN--\":1596:1648   */\n      jump(tag_171)\n    tag_186:\n        /* \"--CODEGEN--\":1586:1648   */\n      swap3\n      pop\n        /* \"--CODEGEN--\":1557:1654   */\n      pop\n        /* \"--CODEGEN--\":1685:1688   */\n      0x80\n        /* \"--CODEGEN--\":1704:1756   */\n      tag_187\n        /* \"--CODEGEN--\":1748:1755   */\n      dup9\n        /* \"--CODEGEN--\":1739:1745   */\n      dup3\n        /* \"--CODEGEN--\":1728:1737   */\n      dup10\n        /* \"--CODEGEN--\":1724:1746   */\n      add\n        /* \"--CODEGEN--\":1704:1756   */\n      jump(tag_171)\n    tag_187:\n        /* \"--CODEGEN--\":1694:1756   */\n      swap2\n      pop\n        /* \"--CODEGEN--\":1664:1762   */\n      pop\n        /* \"--CODEGEN--\":1166:1772   */\n      swap3\n      swap6\n      pop\n      swap3\n      swap6\n      swap1\n      swap4\n      pop\n      jump\n        /* \"--CODEGEN--\":1779:2145   */\n    tag_40:\n      0x00\n      dup1\n        /* \"--CODEGEN--\":1900:1902   */\n      0x40\n        /* \"--CODEGEN--\":1888:1897   */\n      dup4\n        /* \"--CODEGEN--\":1879:1886   */\n      dup6\n        /* \"--CODEGEN--\":1875:1898   */\n      sub\n        /* \"--CODEGEN--\":1871:1903   */\n      slt\n        /* \"--CODEGEN--\":1868:1870   */\n      iszero\n      tag_188\n      jumpi\n        /* \"--CODEGEN--\":1916:1917   */\n      0x00\n        /* \"--CODEGEN--\":1913:1914   */\n      dup1\n        /* \"--CODEGEN--\":1906:1918   */\n      revert\n        /* \"--CODEGEN--\":1868:1870   */\n    tag_188:\n        /* \"--CODEGEN--\":1951:1952   */\n      0x00\n        /* \"--CODEGEN--\":1968:2021   */\n      tag_189\n        /* \"--CODEGEN--\":2013:2020   */\n      dup6\n        /* \"--CODEGEN--\":1993:2002   */\n      dup6\n        /* \"--CODEGEN--\":1968:2021   */\n      jump(tag_168)\n    tag_189:\n        /* \"--CODEGEN--\":1958:2021   */\n      swap3\n      pop\n        /* \"--CODEGEN--\":1930:2027   */\n      pop\n        /* \"--CODEGEN--\":2058:2060   */\n      0x20\n        /* \"--CODEGEN--\":2076:2129   */\n      tag_181\n        /* \"--CODEGEN--\":2121:2128   */\n      dup6\n        /* \"--CODEGEN--\":2112:2118   */\n      dup3\n        /* \"--CODEGEN--\":2101:2110   */\n      dup7\n        /* \"--CODEGEN--\":2097:2119   */\n      add\n        /* \"--CODEGEN--\":2076:2129   */\n      jump(tag_174)\n        /* \"--CODEGEN--\":2152:2643   */\n    tag_90:\n      0x00\n      dup1\n      0x00\n        /* \"--CODEGEN--\":2290:2292   */\n      0x60\n        /* \"--CODEGEN--\":2278:2287   */\n      dup5\n        /* \"--CODEGEN--\":2269:2276   */\n      dup7\n        /* \"--CODEGEN--\":2265:2288   */\n      sub\n        /* \"--CODEGEN--\":2261:2293   */\n      slt\n        /* \"--CODEGEN--\":2258:2260   */\n      iszero\n      tag_191\n      jumpi\n        /* \"--CODEGEN--\":2306:2307   */\n      0x00\n        /* \"--CODEGEN--\":2303:2304   */\n      dup1\n        /* \"--CODEGEN--\":2296:2308   */\n      revert\n        /* \"--CODEGEN--\":2258:2260   */\n    tag_191:\n        /* \"--CODEGEN--\":2341:2342   */\n      0x00\n        /* \"--CODEGEN--\":2358:2411   */\n      tag_192\n        /* \"--CODEGEN--\":2403:2410   */\n      dup7\n        /* \"--CODEGEN--\":2383:2392   */\n      dup7\n        /* \"--CODEGEN--\":2358:2411   */\n      jump(tag_168)\n    tag_192:\n        /* \"--CODEGEN--\":2348:2411   */\n      swap4\n      pop\n        /* \"--CODEGEN--\":2320:2417   */\n      pop\n        /* \"--CODEGEN--\":2448:2450   */\n      0x20\n        /* \"--CODEGEN--\":2466:2519   */\n      tag_193\n        /* \"--CODEGEN--\":2511:2518   */\n      dup7\n        /* \"--CODEGEN--\":2502:2508   */\n      dup3\n        /* \"--CODEGEN--\":2491:2500   */\n      dup8\n        /* \"--CODEGEN--\":2487:2509   */\n      add\n        /* \"--CODEGEN--\":2466:2519   */\n      jump(tag_174)\n    tag_193:\n        /* \"--CODEGEN--\":2456:2519   */\n      swap3\n      pop\n        /* \"--CODEGEN--\":2427:2525   */\n      pop\n        /* \"--CODEGEN--\":2556:2558   */\n      0x40\n        /* \"--CODEGEN--\":2574:2627   */\n      tag_194\n        /* \"--CODEGEN--\":2619:2626   */\n      dup7\n        /* \"--CODEGEN--\":2610:2616   */\n      dup3\n        /* \"--CODEGEN--\":2599:2608   */\n      dup8\n        /* \"--CODEGEN--\":2595:2617   */\n      add\n        /* \"--CODEGEN--\":2574:2627   */\n      jump(tag_168)\n    tag_194:\n        /* \"--CODEGEN--\":2564:2627   */\n      swap2\n      pop\n        /* \"--CODEGEN--\":2535:2633   */\n      pop\n        /* \"--CODEGEN--\":2252:2643   */\n      swap3\n      pop\n      swap3\n      pop\n      swap3\n      jump\n        /* \"--CODEGEN--\":2650:2891   */\n    tag_102:\n      0x00\n        /* \"--CODEGEN--\":2754:2756   */\n      0x20\n        /* \"--CODEGEN--\":2742:2751   */\n      dup3\n        /* \"--CODEGEN--\":2733:2740   */\n      dup5\n        /* \"--CODEGEN--\":2729:2752   */\n      sub\n        /* \"--CODEGEN--\":2725:2757   */\n      slt\n        /* \"--CODEGEN--\":2722:2724   */\n      iszero\n      tag_195\n      jumpi\n        /* \"--CODEGEN--\":2770:2771   */\n      0x00\n        /* \"--CODEGEN--\":2767:2768   */\n      dup1\n        /* \"--CODEGEN--\":2760:2772   */\n      revert\n        /* \"--CODEGEN--\":2722:2724   */\n    tag_195:\n        /* \"--CODEGEN--\":2805:2806   */\n      0x00\n        /* \"--CODEGEN--\":2822:2875   */\n      tag_178\n        /* \"--CODEGEN--\":2867:2874   */\n      dup5\n        /* \"--CODEGEN--\":2847:2856   */\n      dup5\n        /* \"--CODEGEN--\":2822:2875   */\n      jump(tag_174)\n        /* \"--CODEGEN--\":2899:3072   */\n    tag_197:\n      0x00\n        /* \"--CODEGEN--\":2986:3032   */\n      tag_198\n        /* \"--CODEGEN--\":3028:3031   */\n      dup4\n        /* \"--CODEGEN--\":3020:3026   */\n      dup4\n        /* \"--CODEGEN--\":2986:3032   */\n      jump(tag_203)\n    tag_198:\n      pop\n      pop\n        /* \"--CODEGEN--\":3061:3065   */\n      0x20\n        /* \"--CODEGEN--\":3052:3066   */\n      add\n      swap1\n        /* \"--CODEGEN--\":2979:3072   */\n      jump\n        /* \"--CODEGEN--\":3081:3346   */\n    tag_200:\n      0x00\n        /* \"--CODEGEN--\":3212:3306   */\n      tag_201\n        /* \"--CODEGEN--\":3302:3305   */\n      dup4\n        /* \"--CODEGEN--\":3294:3300   */\n      dup4\n        /* \"--CODEGEN--\":3212:3306   */\n      jump(tag_202)\n    tag_201:\n      pop\n      pop\n        /* \"--CODEGEN--\":3335:3339   */\n      0x40\n        /* \"--CODEGEN--\":3326:3340   */\n      add\n      swap1\n        /* \"--CODEGEN--\":3205:3346   */\n      jump\n        /* \"--CODEGEN--\":3354:3491   */\n    tag_203:\n        /* \"--CODEGEN--\":3453:3485   */\n      tag_204\n        /* \"--CODEGEN--\":3479:3484   */\n      dup2\n        /* \"--CODEGEN--\":3453:3485   */\n      jump(tag_207)\n    tag_204:\n        /* \"--CODEGEN--\":3448:3451   */\n      dup3\n        /* \"--CODEGEN--\":3441:3486   */\n      mstore\n        /* \"--CODEGEN--\":3435:3491   */\n      pop\n      pop\n      jump\n        /* \"--CODEGEN--\":3759:4413   */\n    tag_210:\n      0x00\n        /* \"--CODEGEN--\":3890:3940   */\n      tag_211\n        /* \"--CODEGEN--\":3934:3939   */\n      dup3\n        /* \"--CODEGEN--\":3890:3940   */\n      jump(tag_212)\n    tag_211:\n        /* \"--CODEGEN--\":3953:4029   */\n      tag_213\n        /* \"--CODEGEN--\":4022:4028   */\n      dup2\n        /* \"--CODEGEN--\":4017:4020   */\n      dup6\n        /* \"--CODEGEN--\":3953:4029   */\n      jump(tag_214)\n    tag_213:\n        /* \"--CODEGEN--\":3946:4029   */\n      swap4\n      pop\n        /* \"--CODEGEN--\":4050:4102   */\n      tag_215\n        /* \"--CODEGEN--\":4096:4101   */\n      dup4\n        /* \"--CODEGEN--\":4050:4102   */\n      jump(tag_216)\n    tag_215:\n        /* \"--CODEGEN--\":4122:4129   */\n      dup1\n        /* \"--CODEGEN--\":4150:4151   */\n      0x00\n        /* \"--CODEGEN--\":4135:4391   */\n    tag_217:\n        /* \"--CODEGEN--\":4160:4166   */\n      dup4\n        /* \"--CODEGEN--\":4157:4158   */\n      dup2\n        /* \"--CODEGEN--\":4154:4167   */\n      lt\n        /* \"--CODEGEN--\":4135:4391   */\n      iszero\n      tag_219\n      jumpi\n        /* \"--CODEGEN--\":4227:4233   */\n      dup2\n        /* \"--CODEGEN--\":4221:4234   */\n      mload\n        /* \"--CODEGEN--\":4248:4311   */\n      tag_220\n        /* \"--CODEGEN--\":4307:4310   */\n      dup9\n        /* \"--CODEGEN--\":4292:4305   */\n      dup3\n        /* \"--CODEGEN--\":4248:4311   */\n      jump(tag_197)\n    tag_220:\n        /* \"--CODEGEN--\":4241:4311   */\n      swap8\n      pop\n        /* \"--CODEGEN--\":4328:4384   */\n      tag_221\n        /* \"--CODEGEN--\":4377:4383   */\n      dup4\n        /* \"--CODEGEN--\":4328:4384   */\n      jump(tag_216)\n    tag_221:\n        /* \"--CODEGEN--\":4318:4384   */\n      swap3\n      pop\n      pop\n        /* \"--CODEGEN--\":4182:4183   */\n      0x01\n        /* \"--CODEGEN--\":4175:4184   */\n      add\n        /* \"--CODEGEN--\":4135:4391   */\n      jump(tag_217)\n    tag_219:\n      pop\n        /* \"--CODEGEN--\":4404:4407   */\n      swap5\n      swap6\n        /* \"--CODEGEN--\":3869:4413   */\n      swap5\n      pop\n      pop\n      pop\n      pop\n      pop\n      jump\n        /* \"--CODEGEN--\":4502:5368   */\n    tag_223:\n      0x00\n        /* \"--CODEGEN--\":4691:4767   */\n      tag_224\n        /* \"--CODEGEN--\":4761:4766   */\n      dup3\n        /* \"--CODEGEN--\":4691:4767   */\n      jump(tag_212)\n    tag_224:\n        /* \"--CODEGEN--\":4780:4888   */\n      tag_226\n        /* \"--CODEGEN--\":4881:4887   */\n      dup2\n        /* \"--CODEGEN--\":4876:4879   */\n      dup6\n        /* \"--CODEGEN--\":4780:4888   */\n      jump(tag_214)\n    tag_226:\n        /* \"--CODEGEN--\":4773:4888   */\n      swap4\n      pop\n        /* \"--CODEGEN--\":4909:4987   */\n      tag_228\n        /* \"--CODEGEN--\":4981:4986   */\n      dup4\n        /* \"--CODEGEN--\":4909:4987   */\n      jump(tag_216)\n    tag_228:\n        /* \"--CODEGEN--\":5007:5014   */\n      dup1\n        /* \"--CODEGEN--\":5035:5036   */\n      0x00\n        /* \"--CODEGEN--\":5020:5346   */\n    tag_230:\n        /* \"--CODEGEN--\":5045:5051   */\n      dup4\n        /* \"--CODEGEN--\":5042:5043   */\n      dup2\n        /* \"--CODEGEN--\":5039:5052   */\n      lt\n        /* \"--CODEGEN--\":5020:5346   */\n      iszero\n      tag_219\n      jumpi\n        /* \"--CODEGEN--\":5112:5118   */\n      dup2\n        /* \"--CODEGEN--\":5106:5119   */\n      mload\n        /* \"--CODEGEN--\":5133:5240   */\n      tag_233\n        /* \"--CODEGEN--\":5236:5239   */\n      dup9\n        /* \"--CODEGEN--\":5221:5234   */\n      dup3\n        /* \"--CODEGEN--\":5133:5240   */\n      jump(tag_200)\n    tag_233:\n        /* \"--CODEGEN--\":5126:5240   */\n      swap8\n      pop\n        /* \"--CODEGEN--\":5257:5339   */\n      tag_234\n        /* \"--CODEGEN--\":5332:5338   */\n      dup4\n        /* \"--CODEGEN--\":5257:5339   */\n      jump(tag_216)\n    tag_234:\n        /* \"--CODEGEN--\":5247:5339   */\n      swap3\n      pop\n      pop\n        /* \"--CODEGEN--\":5067:5068   */\n      0x01\n        /* \"--CODEGEN--\":5060:5069   */\n      add\n        /* \"--CODEGEN--\":5020:5346   */\n      jump(tag_230)\n        /* \"--CODEGEN--\":5376:5480   */\n    tag_236:\n        /* \"--CODEGEN--\":5453:5474   */\n      tag_204\n        /* \"--CODEGEN--\":5468:5473   */\n      dup2\n        /* \"--CODEGEN--\":5453:5474   */\n      jump(tag_238)\n        /* \"--CODEGEN--\":5488:5863   */\n    tag_239:\n      0x00\n        /* \"--CODEGEN--\":5648:5715   */\n      tag_240\n        /* \"--CODEGEN--\":5712:5714   */\n      0x26\n        /* \"--CODEGEN--\":5707:5710   */\n      dup4\n        /* \"--CODEGEN--\":5648:5715   */\n      jump(tag_214)\n    tag_240:\n        /* \"--CODEGEN--\":5748:5782   */\n      0x4f776e61626c653a206e6577206f776e657220697320746865207a65726f2061\n        /* \"--CODEGEN--\":5728:5783   */\n      dup2\n      mstore\n        /* \"--CODEGEN--\":5817:5825   */\n      0x6464726573730000000000000000000000000000000000000000000000000000\n        /* \"--CODEGEN--\":5812:5814   */\n      0x20\n        /* \"--CODEGEN--\":5803:5815   */\n      dup3\n      add\n        /* \"--CODEGEN--\":5796:5826   */\n      mstore\n        /* \"--CODEGEN--\":5854:5856   */\n      0x40\n        /* \"--CODEGEN--\":5845:5857   */\n      add\n      swap3\n        /* \"--CODEGEN--\":5634:5863   */\n      swap2\n      pop\n      pop\n      jump\n        /* \"--CODEGEN--\":5872:6187   */\n    tag_242:\n      0x00\n        /* \"--CODEGEN--\":6032:6099   */\n      tag_243\n        /* \"--CODEGEN--\":6096:6098   */\n      0x0f\n        /* \"--CODEGEN--\":6091:6094   */\n      dup4\n        /* \"--CODEGEN--\":6032:6099   */\n      jump(tag_214)\n    tag_243:\n        /* \"--CODEGEN--\":6132:6149   */\n      0x41646472657373206973205a65726f0000000000000000000000000000000000\n        /* \"--CODEGEN--\":6112:6150   */\n      dup2\n      mstore\n        /* \"--CODEGEN--\":6178:6180   */\n      0x20\n        /* \"--CODEGEN--\":6169:6181   */\n      add\n      swap3\n        /* \"--CODEGEN--\":6018:6187   */\n      swap2\n      pop\n      pop\n      jump\n        /* \"--CODEGEN--\":6196:6523   */\n    tag_244:\n      0x00\n        /* \"--CODEGEN--\":6356:6423   */\n      tag_245\n        /* \"--CODEGEN--\":6420:6422   */\n      0x1b\n        /* \"--CODEGEN--\":6415:6418   */\n      dup4\n        /* \"--CODEGEN--\":6356:6423   */\n      jump(tag_214)\n    tag_245:\n        /* \"--CODEGEN--\":6456:6485   */\n      0x73686f756c642062652067726561746572207468616e207a65726f0000000000\n        /* \"--CODEGEN--\":6436:6486   */\n      dup2\n      mstore\n        /* \"--CODEGEN--\":6514:6516   */\n      0x20\n        /* \"--CODEGEN--\":6505:6517   */\n      add\n      swap3\n        /* \"--CODEGEN--\":6342:6523   */\n      swap2\n      pop\n      pop\n      jump\n        /* \"--CODEGEN--\":6532:6864   */\n    tag_246:\n      0x00\n        /* \"--CODEGEN--\":6692:6759   */\n      tag_247\n        /* \"--CODEGEN--\":6756:6758   */\n      0x20\n        /* \"--CODEGEN--\":6751:6754   */\n      dup4\n        /* \"--CODEGEN--\":6692:6759   */\n      jump(tag_214)\n    tag_247:\n        /* \"--CODEGEN--\":6792:6826   */\n      0x4f776e61626c653a2063616c6c6572206973206e6f7420746865206f776e6572\n        /* \"--CODEGEN--\":6772:6827   */\n      dup2\n      mstore\n        /* \"--CODEGEN--\":6855:6857   */\n      0x20\n        /* \"--CODEGEN--\":6846:6858   */\n      add\n      swap3\n        /* \"--CODEGEN--\":6678:6864   */\n      swap2\n      pop\n      pop\n      jump\n        /* \"--CODEGEN--\":6947:7420   */\n    tag_202:\n        /* \"--CODEGEN--\":7150:7173   */\n      dup1\n      mload\n        /* \"--CODEGEN--\":7078:7082   */\n      0x40\n        /* \"--CODEGEN--\":7069:7083   */\n      dup4\n      add\n      swap1\n        /* \"--CODEGEN--\":7179:7242   */\n      tag_248\n        /* \"--CODEGEN--\":7073:7076   */\n      dup5\n        /* \"--CODEGEN--\":7150:7173   */\n      dup3\n        /* \"--CODEGEN--\":7179:7242   */\n      jump(tag_203)\n    tag_248:\n        /* \"--CODEGEN--\":7098:7248   */\n      pop\n        /* \"--CODEGEN--\":7324:7328   */\n      0x20\n        /* \"--CODEGEN--\":7317:7322   */\n      dup3\n        /* \"--CODEGEN--\":7313:7329   */\n      add\n        /* \"--CODEGEN--\":7307:7330   */\n      mload\n        /* \"--CODEGEN--\":7336:7399   */\n      tag_249\n        /* \"--CODEGEN--\":7393:7397   */\n      0x20\n        /* \"--CODEGEN--\":7388:7391   */\n      dup6\n        /* \"--CODEGEN--\":7384:7398   */\n      add\n        /* \"--CODEGEN--\":7370:7382   */\n      dup3\n        /* \"--CODEGEN--\":7336:7399   */\n      jump(tag_250)\n    tag_249:\n        /* \"--CODEGEN--\":7258:7405   */\n      pop\n        /* \"--CODEGEN--\":7051:7420   */\n      pop\n      pop\n      pop\n      jump\n        /* \"--CODEGEN--\":7510:7966   */\n    tag_251:\n        /* \"--CODEGEN--\":7740:7763   */\n      dup1\n      mload\n        /* \"--CODEGEN--\":7673:7677   */\n      0x20\n        /* \"--CODEGEN--\":7776:7814   */\n      dup1\n      dup5\n      mstore\n        /* \"--CODEGEN--\":7510:7966   */\n      0x00\n      swap2\n        /* \"--CODEGEN--\":7664:7678   */\n      swap1\n      dup5\n      add\n      swap1\n        /* \"--CODEGEN--\":7829:7928   */\n      tag_252\n        /* \"--CODEGEN--\":7664:7678   */\n      dup3\n        /* \"--CODEGEN--\":7740:7763   */\n      dup3\n        /* \"--CODEGEN--\":7829:7928   */\n      jump(tag_210)\n    tag_252:\n        /* \"--CODEGEN--\":7821:7928   */\n      swap6\n        /* \"--CODEGEN--\":7646:7966   */\n      swap5\n      pop\n      pop\n      pop\n      pop\n      pop\n      jump\n        /* \"--CODEGEN--\":7973:8083   */\n    tag_253:\n        /* \"--CODEGEN--\":8054:8077   */\n      tag_204\n        /* \"--CODEGEN--\":8071:8076   */\n      dup2\n        /* \"--CODEGEN--\":8054:8077   */\n      jump(tag_255)\n        /* \"--CODEGEN--\":8090:8193   */\n    tag_250:\n        /* \"--CODEGEN--\":8163:8187   */\n      tag_204\n        /* \"--CODEGEN--\":8181:8186   */\n      dup2\n        /* \"--CODEGEN--\":8163:8187   */\n      jump(tag_257)\n        /* \"--CODEGEN--\":8320:8533   */\n    tag_33:\n        /* \"--CODEGEN--\":8438:8440   */\n      0x20\n        /* \"--CODEGEN--\":8423:8441   */\n      dup2\n      add\n        /* \"--CODEGEN--\":8452:8523   */\n      tag_169\n        /* \"--CODEGEN--\":8427:8436   */\n      dup3\n        /* \"--CODEGEN--\":8496:8502   */\n      dup5\n        /* \"--CODEGEN--\":8452:8523   */\n      jump(tag_203)\n        /* \"--CODEGEN--\":8540:9811   */\n    tag_43:\n        /* \"--CODEGEN--\":8936:8939   */\n      0x0140\n        /* \"--CODEGEN--\":8921:8940   */\n      dup2\n      add\n        /* \"--CODEGEN--\":8951:9038   */\n      tag_261\n        /* \"--CODEGEN--\":8925:8934   */\n      dup3\n        /* \"--CODEGEN--\":9011:9017   */\n      dup14\n        /* \"--CODEGEN--\":8951:9038   */\n      jump(tag_203)\n    tag_261:\n        /* \"--CODEGEN--\":9049:9121   */\n      tag_262\n        /* \"--CODEGEN--\":9117:9119   */\n      0x20\n        /* \"--CODEGEN--\":9106:9115   */\n      dup4\n        /* \"--CODEGEN--\":9102:9120   */\n      add\n        /* \"--CODEGEN--\":9093:9099   */\n      dup13\n        /* \"--CODEGEN--\":9049:9121   */\n      jump(tag_250)\n    tag_262:\n        /* \"--CODEGEN--\":9132:9220   */\n      tag_263\n        /* \"--CODEGEN--\":9216:9218   */\n      0x40\n        /* \"--CODEGEN--\":9205:9214   */\n      dup4\n        /* \"--CODEGEN--\":9201:9219   */\n      add\n        /* \"--CODEGEN--\":9192:9198   */\n      dup12\n        /* \"--CODEGEN--\":9132:9220   */\n      jump(tag_203)\n    tag_263:\n        /* \"--CODEGEN--\":9231:9303   */\n      tag_264\n        /* \"--CODEGEN--\":9299:9301   */\n      0x60\n        /* \"--CODEGEN--\":9288:9297   */\n      dup4\n        /* \"--CODEGEN--\":9284:9302   */\n      add\n        /* \"--CODEGEN--\":9275:9281   */\n      dup11\n        /* \"--CODEGEN--\":9231:9303   */\n      jump(tag_250)\n    tag_264:\n        /* \"--CODEGEN--\":9314:9387   */\n      tag_265\n        /* \"--CODEGEN--\":9382:9385   */\n      0x80\n        /* \"--CODEGEN--\":9371:9380   */\n      dup4\n        /* \"--CODEGEN--\":9367:9386   */\n      add\n        /* \"--CODEGEN--\":9358:9364   */\n      dup10\n        /* \"--CODEGEN--\":9314:9387   */\n      jump(tag_250)\n    tag_265:\n        /* \"--CODEGEN--\":9398:9471   */\n      tag_266\n        /* \"--CODEGEN--\":9466:9469   */\n      0xa0\n        /* \"--CODEGEN--\":9455:9464   */\n      dup4\n        /* \"--CODEGEN--\":9451:9470   */\n      add\n        /* \"--CODEGEN--\":9442:9448   */\n      dup9\n        /* \"--CODEGEN--\":9398:9471   */\n      jump(tag_250)\n    tag_266:\n        /* \"--CODEGEN--\":9482:9549   */\n      tag_267\n        /* \"--CODEGEN--\":9544:9547   */\n      0xc0\n        /* \"--CODEGEN--\":9533:9542   */\n      dup4\n        /* \"--CODEGEN--\":9529:9548   */\n      add\n        /* \"--CODEGEN--\":9520:9526   */\n      dup8\n        /* \"--CODEGEN--\":9482:9549   */\n      jump(tag_236)\n    tag_267:\n        /* \"--CODEGEN--\":9560:9633   */\n      tag_268\n        /* \"--CODEGEN--\":9628:9631   */\n      0xe0\n        /* \"--CODEGEN--\":9617:9626   */\n      dup4\n        /* \"--CODEGEN--\":9613:9632   */\n      add\n        /* \"--CODEGEN--\":9604:9610   */\n      dup7\n        /* \"--CODEGEN--\":9560:9633   */\n      jump(tag_250)\n    tag_268:\n        /* \"--CODEGEN--\":9644:9717   */\n      tag_269\n        /* \"--CODEGEN--\":9712:9715   */\n      0x0100\n        /* \"--CODEGEN--\":9701:9710   */\n      dup4\n        /* \"--CODEGEN--\":9697:9716   */\n      add\n        /* \"--CODEGEN--\":9688:9694   */\n      dup6\n        /* \"--CODEGEN--\":9644:9717   */\n      jump(tag_250)\n    tag_269:\n        /* \"--CODEGEN--\":9728:9801   */\n      tag_270\n        /* \"--CODEGEN--\":9796:9799   */\n      0x0120\n        /* \"--CODEGEN--\":9785:9794   */\n      dup4\n        /* \"--CODEGEN--\":9781:9800   */\n      add\n        /* \"--CODEGEN--\":9772:9778   */\n      dup5\n        /* \"--CODEGEN--\":9728:9801   */\n      jump(tag_203)\n    tag_270:\n        /* \"--CODEGEN--\":8907:9811   */\n      swap12\n      swap11\n      pop\n      pop\n      pop\n      pop\n      pop\n      pop\n      pop\n      pop\n      pop\n      pop\n      pop\n      jump\n        /* \"--CODEGEN--\":9818:10142   */\n    tag_93:\n        /* \"--CODEGEN--\":9964:9966   */\n      0x40\n        /* \"--CODEGEN--\":9949:9967   */\n      dup2\n      add\n        /* \"--CODEGEN--\":9978:10049   */\n      tag_271\n        /* \"--CODEGEN--\":9953:9962   */\n      dup3\n        /* \"--CODEGEN--\":10022:10028   */\n      dup6\n        /* \"--CODEGEN--\":9978:10049   */\n      jump(tag_203)\n    tag_271:\n        /* \"--CODEGEN--\":10060:10132   */\n      tag_272\n        /* \"--CODEGEN--\":10128:10130   */\n      0x20\n        /* \"--CODEGEN--\":10117:10126   */\n      dup4\n        /* \"--CODEGEN--\":10113:10131   */\n      add\n        /* \"--CODEGEN--\":10104:10110   */\n      dup5\n        /* \"--CODEGEN--\":10060:10132   */\n      jump(tag_250)\n    tag_272:\n        /* \"--CODEGEN--\":9935:10142   */\n      swap4\n      swap3\n      pop\n      pop\n      pop\n      jump\n        /* \"--CODEGEN--\":10149:10598   */\n    tag_50:\n        /* \"--CODEGEN--\":10361:10363   */\n      0x20\n        /* \"--CODEGEN--\":10375:10422   */\n      dup1\n      dup3\n      mstore\n        /* \"--CODEGEN--\":10346:10364   */\n      dup2\n      add\n        /* \"--CODEGEN--\":10436:10588   */\n      tag_272\n        /* \"--CODEGEN--\":10346:10364   */\n      dup2\n        /* \"--CODEGEN--\":10574:10580   */\n      dup5\n        /* \"--CODEGEN--\":10436:10588   */\n      jump(tag_223)\n        /* \"--CODEGEN--\":10605:10806   */\n    tag_68:\n        /* \"--CODEGEN--\":10717:10719   */\n      0x20\n        /* \"--CODEGEN--\":10702:10720   */\n      dup2\n      add\n        /* \"--CODEGEN--\":10731:10796   */\n      tag_169\n        /* \"--CODEGEN--\":10706:10715   */\n      dup3\n        /* \"--CODEGEN--\":10769:10775   */\n      dup5\n        /* \"--CODEGEN--\":10731:10796   */\n      jump(tag_236)\n        /* \"--CODEGEN--\":10813:11220   */\n    tag_157:\n        /* \"--CODEGEN--\":11004:11006   */\n      0x20\n        /* \"--CODEGEN--\":11018:11065   */\n      dup1\n      dup3\n      mstore\n        /* \"--CODEGEN--\":10989:11007   */\n      dup2\n      add\n        /* \"--CODEGEN--\":11079:11210   */\n      tag_169\n        /* \"--CODEGEN--\":10989:11007   */\n      dup2\n        /* \"--CODEGEN--\":11079:11210   */\n      jump(tag_239)\n        /* \"--CODEGEN--\":11227:11634   */\n    tag_132:\n        /* \"--CODEGEN--\":11418:11420   */\n      0x20\n        /* \"--CODEGEN--\":11432:11479   */\n      dup1\n      dup3\n      mstore\n        /* \"--CODEGEN--\":11403:11421   */\n      dup2\n      add\n        /* \"--CODEGEN--\":11493:11624   */\n      tag_169\n        /* \"--CODEGEN--\":11403:11421   */\n      dup2\n        /* \"--CODEGEN--\":11493:11624   */\n      jump(tag_242)\n        /* \"--CODEGEN--\":11641:12048   */\n    tag_137:\n        /* \"--CODEGEN--\":11832:11834   */\n      0x20\n        /* \"--CODEGEN--\":11846:11893   */\n      dup1\n      dup3\n      mstore\n        /* \"--CODEGEN--\":11817:11835   */\n      dup2\n      add\n        /* \"--CODEGEN--\":11907:12038   */\n      tag_169\n        /* \"--CODEGEN--\":11817:11835   */\n      dup2\n        /* \"--CODEGEN--\":11907:12038   */\n      jump(tag_244)\n        /* \"--CODEGEN--\":12055:12462   */\n    tag_111:\n        /* \"--CODEGEN--\":12246:12248   */\n      0x20\n        /* \"--CODEGEN--\":12260:12307   */\n      dup1\n      dup3\n      mstore\n        /* \"--CODEGEN--\":12231:12249   */\n      dup2\n      add\n        /* \"--CODEGEN--\":12321:12452   */\n      tag_169\n        /* \"--CODEGEN--\":12231:12249   */\n      dup2\n        /* \"--CODEGEN--\":12321:12452   */\n      jump(tag_246)\n        /* \"--CODEGEN--\":12469:12854   */\n    tag_54:\n        /* \"--CODEGEN--\":12649:12651   */\n      0x20\n        /* \"--CODEGEN--\":12663:12710   */\n      dup1\n      dup3\n      mstore\n        /* \"--CODEGEN--\":12634:12652   */\n      dup2\n      add\n        /* \"--CODEGEN--\":12724:12844   */\n      tag_272\n        /* \"--CODEGEN--\":12634:12652   */\n      dup2\n        /* \"--CODEGEN--\":12830:12836   */\n      dup5\n        /* \"--CODEGEN--\":12724:12844   */\n      jump(tag_251)\n        /* \"--CODEGEN--\":12861:13070   */\n    tag_76:\n        /* \"--CODEGEN--\":12977:12979   */\n      0x20\n        /* \"--CODEGEN--\":12962:12980   */\n      dup2\n      add\n        /* \"--CODEGEN--\":12991:13060   */\n      tag_169\n        /* \"--CODEGEN--\":12966:12975   */\n      dup3\n        /* \"--CODEGEN--\":13033:13039   */\n      dup5\n        /* \"--CODEGEN--\":12991:13060   */\n      jump(tag_253)\n        /* \"--CODEGEN--\":13077:13290   */\n    tag_58:\n        /* \"--CODEGEN--\":13195:13197   */\n      0x20\n        /* \"--CODEGEN--\":13180:13198   */\n      dup2\n      add\n        /* \"--CODEGEN--\":13209:13280   */\n      tag_169\n        /* \"--CODEGEN--\":13184:13193   */\n      dup3\n        /* \"--CODEGEN--\":13253:13259   */\n      dup5\n        /* \"--CODEGEN--\":13209:13280   */\n      jump(tag_250)\n        /* \"--CODEGEN--\":13297:13444   */\n    tag_216:\n        /* \"--CODEGEN--\":13417:13421   */\n      0x20\n        /* \"--CODEGEN--\":13408:13422   */\n      add\n      swap1\n        /* \"--CODEGEN--\":13365:13444   */\n      jump\n        /* \"--CODEGEN--\":13631:13764   */\n    tag_212:\n        /* \"--CODEGEN--\":13730:13742   */\n      mload\n      swap1\n        /* \"--CODEGEN--\":13701:13764   */\n      jump\n        /* \"--CODEGEN--\":14186:14354   */\n    tag_214:\n        /* \"--CODEGEN--\":14294:14313   */\n      swap1\n      dup2\n      mstore\n        /* \"--CODEGEN--\":14343:14347   */\n      0x20\n        /* \"--CODEGEN--\":14334:14348   */\n      add\n      swap1\n        /* \"--CODEGEN--\":14287:14354   */\n      jump\n        /* \"--CODEGEN--\":14743:14834   */\n    tag_207:\n      0x00\n        /* \"--CODEGEN--\":14805:14829   */\n      tag_169\n        /* \"--CODEGEN--\":14823:14828   */\n      dup3\n        /* \"--CODEGEN--\":14805:14829   */\n      jump(tag_283)\n        /* \"--CODEGEN--\":14947:15032   */\n    tag_238:\n        /* \"--CODEGEN--\":15013:15026   */\n      iszero\n        /* \"--CODEGEN--\":15006:15027   */\n      iszero\n      swap1\n        /* \"--CODEGEN--\":14989:15032   */\n      jump\n        /* \"--CODEGEN--\":15039:15123   */\n    tag_255:\n        /* \"--CODEGEN--\":15111:15117   */\n      0xffff\n        /* \"--CODEGEN--\":15100:15118   */\n      and\n      swap1\n        /* \"--CODEGEN--\":15083:15123   */\n      jump\n        /* \"--CODEGEN--\":15130:15251   */\n    tag_283:\n        /* \"--CODEGEN--\":15203:15245   */\n      0xffffffffffffffffffffffffffffffffffffffff\n        /* \"--CODEGEN--\":15192:15246   */\n      and\n      swap1\n        /* \"--CODEGEN--\":15175:15251   */\n      jump\n        /* \"--CODEGEN--\":15258:15330   */\n    tag_257:\n        /* \"--CODEGEN--\":15320:15325   */\n      swap1\n        /* \"--CODEGEN--\":15303:15330   */\n      jump\n        /* \"--CODEGEN--\":15337:15454   */\n    tag_170:\n        /* \"--CODEGEN--\":15406:15430   */\n      tag_285\n        /* \"--CODEGEN--\":15424:15429   */\n      dup2\n        /* \"--CODEGEN--\":15406:15430   */\n      jump(tag_207)\n    tag_285:\n        /* \"--CODEGEN--\":15399:15404   */\n      dup2\n        /* \"--CODEGEN--\":15396:15431   */\n      eq\n        /* \"--CODEGEN--\":15386:15388   */\n      tag_286\n      jumpi\n        /* \"--CODEGEN--\":15445:15446   */\n      0x00\n        /* \"--CODEGEN--\":15442:15443   */\n      dup1\n        /* \"--CODEGEN--\":15435:15447   */\n      revert\n        /* \"--CODEGEN--\":15386:15388   */\n    tag_286:\n        /* \"--CODEGEN--\":15380:15454   */\n      pop\n      jump\n        /* \"--CODEGEN--\":15461:15576   */\n    tag_173:\n        /* \"--CODEGEN--\":15529:15552   */\n      tag_285\n        /* \"--CODEGEN--\":15546:15551   */\n      dup2\n        /* \"--CODEGEN--\":15529:15552   */\n      jump(tag_255)\n        /* \"--CODEGEN--\":15583:15700   */\n    tag_176:\n        /* \"--CODEGEN--\":15652:15676   */\n      tag_285\n        /* \"--CODEGEN--\":15670:15675   */\n      dup2\n        /* \"--CODEGEN--\":15652:15676   */\n      jump(tag_257)\n\n    auxdata: 0xa365627a7a723158209bd058a83e8fafd297fba0cbce71a110e1db21b94868b67c2dd3bc3953540c7f6c6578706572696d656e74616cf564736f6c63430005110040\n}\n",
				"bytecode": {
					"linkReferences": {},
					"object": "6080604052600080546001600160a01b0319163317905561110c806100256000396000f3fe608060405234801561001057600080fd5b506004361061016c5760003560e01c8063c1a8bdbc116100cd578063f09856f311610081578063f2fde38b11610066578063f2fde38b146102ad578063f5a0c9b8146102c0578063f7f17488146102d35761016c565b8063f09856f314610284578063f26f8494146102a55761016c565b8063d2abc517116100b2578063d2abc51714610261578063d3c9080a14610269578063d4739cca146102715761016c565b8063c1a8bdbc14610239578063c52ea52e1461024c5761016c565b80636d036535116101245780638bae5f4f116101095780638bae5f4f146102145780638da5cb5b1461021c5780638f32d59b146102245761016c565b80636d036535146101ea5780637f494852146101ff5761016c565b806344f91c1e1161015557806344f91c1e146101a457806345ce7db9146101cd57806365e4e1c0146101d55761016c565b80630af88b24146101715780633b58524d1461018f575b600080fd5b6101796102db565b6040516101869190610f09565b60405180910390f35b6101a261019d366004610b71565b6102f7565b005b6101b76101b2366004610c20565b610391565b6040516101869a99989796959493929190610f17565b61017961040b565b6101dd610427565b6040516101869190610fce565b6101f26104ac565b604051610186919061102d565b61020761052a565b604051610186919061104c565b610179610530565b61017961054c565b61022c610568565b6040516101869190610fdf565b6101a2610247366004610bab565b610586565b6102546107bc565b604051610186919061103e565b6102546107de565b6101dd610804565b6101dd61027f366004610b4b565b61087a565b610297610292366004610c50565b61091f565b604051610186929190610fac565b610254610962565b6101a26102bb366004610b4b565b610986565b6101a26102ce366004610c9d565b610a58565b6101dd610a9b565b600b5473ffffffffffffffffffffffffffffffffffffffff1681565b6102ff610568565b61033e576040517f08c379a00000000000000000000000000000000000000000000000000000000081526004016103359061101d565b60405180910390fd5b600b805473ffffffffffffffffffffffffffffffffffffffff9384167fffffffffffffffffffffffff000000000000000000000000000000000000000091821617909155600c8054929093169116179055565b60076020818152600093845260408085209091529183529120805460018201546002830154600384015460048501546005860154600687015497870154600888015460099098015473ffffffffffffffffffffffffffffffffffffffff9788169996989588169794969395929460ff90941693919291168a565b600c5473ffffffffffffffffffffffffffffffffffffffff1681565b60606009600001805480602002602001604051908101604052809291908181526020016000905b828210156104a35760008481526020908190206040805180820190915260028502909101805473ffffffffffffffffffffffffffffffffffffffff16825260019081015482840152908352909201910161044e565b50505050905090565b6104b4610b11565b60408051600a8054602081810284018501855283018181529293919284929091849184018282801561051c57602002820191906000526020600020905b815473ffffffffffffffffffffffffffffffffffffffff1681526001909101906020018083116104f1575b505050505081525050905090565b60015481565b600d5473ffffffffffffffffffffffffffffffffffffffff1681565b60005473ffffffffffffffffffffffffffffffffffffffff1690565b60005473ffffffffffffffffffffffffffffffffffffffff16331490565b61058e610568565b6105c4576040517f08c379a00000000000000000000000000000000000000000000000000000000081526004016103359061101d565b73ffffffffffffffffffffffffffffffffffffffff8516158015906105fe575073ffffffffffffffffffffffffffffffffffffffff841615155b610634576040517f08c379a000000000000000000000000000000000000000000000000000000000815260040161033590610ffd565b6103e88261ffff161115801561065057506103e88161ffff1611155b801561066257506103e88361ffff1611155b610698576040517f08c379a00000000000000000000000000000000000000000000000000000000081526004016103359061100d565b600080547fffffffffffffffffffff0000ffffffffffffffffffffffffffffffffffffffff167401000000000000000000000000000000000000000061ffff94851602177fffffffffffffffff0000ffffffffffffffffffffffffffffffffffffffffffff1676010000000000000000000000000000000000000000000092841692909202919091177fffffffffffff0000ffffffffffffffffffffffffffffffffffffffffffffffff1678010000000000000000000000000000000000000000000000009390921692909202179055600c80547fffffffffffffffffffffffff000000000000000000000000000000000000000090811673ffffffffffffffffffffffffffffffffffffffff94851617909155600d805490911691909216179055565b60005474010000000000000000000000000000000000000000900461ffff1681565b6000547801000000000000000000000000000000000000000000000000900461ffff1681565b600480546040805160208084028201810190925282815260609390929091600090840182156104a35760008481526020908190206040805180820190915260028502909101805473ffffffffffffffffffffffffffffffffffffffff16825260019081015482840152908352909201910161044e565b73ffffffffffffffffffffffffffffffffffffffff81166000908152600360209081526040808320805482518185028101850190935280835260609492939192909184015b828210156109145760008481526020908190206040805180820190915260028502909101805473ffffffffffffffffffffffffffffffffffffffff1682526001908101548284015290835290920191016108bf565b505050509050919050565b60066020908152600093845260408085208252928452828420905282529020805460019091015473ffffffffffffffffffffffffffffffffffffffff9091169082565b600054760100000000000000000000000000000000000000000000900461ffff1681565b61098e610568565b6109c4576040517f08c379a00000000000000000000000000000000000000000000000000000000081526004016103359061101d565b73ffffffffffffffffffffffffffffffffffffffff8116610a11576040517f08c379a000000000000000000000000000000000000000000000000000000000815260040161033590610fed565b600080547fffffffffffffffffffffffff00000000000000000000000000000000000000001673ffffffffffffffffffffffffffffffffffffffff92909216919091179055565b610a60610568565b610a96576040517f08c379a00000000000000000000000000000000000000000000000000000000081526004016103359061101d565b600155565b600580546040805160208084028201810190925282815260609390929091600090840182156104a35760008481526020908190206040805180820190915260028502909101805473ffffffffffffffffffffffffffffffffffffffff16825260019081015482840152908352909201910161044e565b6040518060200160405280606081525090565b8035610b2f816110a0565b92915050565b8035610b2f816110b7565b8035610b2f816110c0565b600060208284031215610b5d57600080fd5b6000610b698484610b24565b949350505050565b60008060408385031215610b8457600080fd5b6000610b908585610b24565b9250506020610ba185828601610b24565b9150509250929050565b600080600080600060a08688031215610bc357600080fd5b6000610bcf8888610b24565b9550506020610be088828901610b24565b9450506040610bf188828901610b35565b9350506060610c0288828901610b35565b9250506080610c1388828901610b35565b9150509295509295909350565b60008060408385031215610c3357600080fd5b6000610c3f8585610b24565b9250506020610ba185828601610b40565b600080600060608486031215610c6557600080fd5b6000610c718686610b24565b9350506020610c8286828701610b40565b9250506040610c9386828701610b24565b9150509250925092565b600060208284031215610caf57600080fd5b6000610b698484610b40565b6000610cc78383610ce3565b505060200190565b6000610cdb8383610eac565b505060400190565b610cec8161106d565b82525050565b6000610cfd82611060565b610d078185611064565b9350610d128361105a565b8060005b83811015610d40578151610d2a8882610cbb565b9750610d358361105a565b925050600101610d16565b509495945050505050565b6000610d5682611060565b610d608185611064565b9350610d6b8361105a565b8060005b83811015610d40578151610d838882610ccf565b9750610d8e8361105a565b925050600101610d6f565b610cec81611078565b6000610daf602683611064565b7f4f776e61626c653a206e6577206f776e657220697320746865207a65726f206181527f6464726573730000000000000000000000000000000000000000000000000000602082015260400192915050565b6000610e0e600f83611064565b7f41646472657373206973205a65726f0000000000000000000000000000000000815260200192915050565b6000610e47601b83611064565b7f73686f756c642062652067726561746572207468616e207a65726f0000000000815260200192915050565b6000610e80602083611064565b7f4f776e61626c653a2063616c6c6572206973206e6f7420746865206f776e6572815260200192915050565b80516040830190610ebd8482610ce3565b506020820151610ed06020850182610f00565b50505050565b8051602080845260009190840190610eee8282610cf2565b95945050505050565b610cec8161107d565b610cec8161109d565b60208101610b2f8284610ce3565b6101408101610f26828d610ce3565b610f33602083018c610f00565b610f40604083018b610ce3565b610f4d606083018a610f00565b610f5a6080830189610f00565b610f6760a0830188610f00565b610f7460c0830187610d99565b610f8160e0830186610f00565b610f8f610100830185610f00565b610f9d610120830184610ce3565b9b9a5050505050505050505050565b60408101610fba8285610ce3565b610fc76020830184610f00565b9392505050565b60208082528101610fc78184610d4b565b60208101610b2f8284610d99565b60208082528101610b2f81610da2565b60208082528101610b2f81610e01565b60208082528101610b2f81610e3a565b60208082528101610b2f81610e73565b60208082528101610fc78184610ed6565b60208101610b2f8284610ef7565b60208101610b2f8284610f00565b60200190565b5190565b90815260200190565b6000610b2f82611084565b151590565b61ffff1690565b73ffffffffffffffffffffffffffffffffffffffff1690565b90565b6110a98161106d565b81146110b457600080fd5b50565b6110a98161107d565b6110a98161109d56fea365627a7a723158209bd058a83e8fafd297fba0cbce71a110e1db21b94868b67c2dd3bc3953540c7f6c6578706572696d656e74616cf564736f6c63430005110040",
					"opcodes": "PUSH1 0x80 PUSH1 0x40 MSTORE PUSH1 0x0 DUP1 SLOAD PUSH1 0x1 PUSH1 0x1 PUSH1 0xA0 SHL SUB NOT AND CALLER OR SWAP1 SSTORE PUSH2 0x110C DUP1 PUSH2 0x25 PUSH1 0x0 CODECOPY PUSH1 0x0 RETURN INVALID PUSH1 0x80 PUSH1 0x40 MSTORE CALLVALUE DUP1 ISZERO PUSH2 0x10 JUMPI PUSH1 0x0 DUP1 REVERT JUMPDEST POP PUSH1 0x4 CALLDATASIZE LT PUSH2 0x16C JUMPI PUSH1 0x0 CALLDATALOAD PUSH1 0xE0 SHR DUP1 PUSH4 0xC1A8BDBC GT PUSH2 0xCD JUMPI DUP1 PUSH4 0xF09856F3 GT PUSH2 0x81 JUMPI DUP1 PUSH4 0xF2FDE38B GT PUSH2 0x66 JUMPI DUP1 PUSH4 0xF2FDE38B EQ PUSH2 0x2AD JUMPI DUP1 PUSH4 0xF5A0C9B8 EQ PUSH2 0x2C0 JUMPI DUP1 PUSH4 0xF7F17488 EQ PUSH2 0x2D3 JUMPI PUSH2 0x16C JUMP JUMPDEST DUP1 PUSH4 0xF09856F3 EQ PUSH2 0x284 JUMPI DUP1 PUSH4 0xF26F8494 EQ PUSH2 0x2A5 JUMPI PUSH2 0x16C JUMP JUMPDEST DUP1 PUSH4 0xD2ABC517 GT PUSH2 0xB2 JUMPI DUP1 PUSH4 0xD2ABC517 EQ PUSH2 0x261 JUMPI DUP1 PUSH4 0xD3C9080A EQ PUSH2 0x269 JUMPI DUP1 PUSH4 0xD4739CCA EQ PUSH2 0x271 JUMPI PUSH2 0x16C JUMP JUMPDEST DUP1 PUSH4 0xC1A8BDBC EQ PUSH2 0x239 JUMPI DUP1 PUSH4 0xC52EA52E EQ PUSH2 0x24C JUMPI PUSH2 0x16C JUMP JUMPDEST DUP1 PUSH4 0x6D036535 GT PUSH2 0x124 JUMPI DUP1 PUSH4 0x8BAE5F4F GT PUSH2 0x109 JUMPI DUP1 PUSH4 0x8BAE5F4F EQ PUSH2 0x214 JUMPI DUP1 PUSH4 0x8DA5CB5B EQ PUSH2 0x21C JUMPI DUP1 PUSH4 0x8F32D59B EQ PUSH2 0x224 JUMPI PUSH2 0x16C JUMP JUMPDEST DUP1 PUSH4 0x6D036535 EQ PUSH2 0x1EA JUMPI DUP1 PUSH4 0x7F494852 EQ PUSH2 0x1FF JUMPI PUSH2 0x16C JUMP JUMPDEST DUP1 PUSH4 0x44F91C1E GT PUSH2 0x155 JUMPI DUP1 PUSH4 0x44F91C1E EQ PUSH2 0x1A4 JUMPI DUP1 PUSH4 0x45CE7DB9 EQ PUSH2 0x1CD JUMPI DUP1 PUSH4 0x65E4E1C0 EQ PUSH2 0x1D5 JUMPI PUSH2 0x16C JUMP JUMPDEST DUP1 PUSH4 0xAF88B24 EQ PUSH2 0x171 JUMPI DUP1 PUSH4 0x3B58524D EQ PUSH2 0x18F JUMPI JUMPDEST PUSH1 0x0 DUP1 REVERT JUMPDEST PUSH2 0x179 PUSH2 0x2DB JUMP JUMPDEST PUSH1 0x40 MLOAD PUSH2 0x186 SWAP2 SWAP1 PUSH2 0xF09 JUMP JUMPDEST PUSH1 0x40 MLOAD DUP1 SWAP2 SUB SWAP1 RETURN JUMPDEST PUSH2 0x1A2 PUSH2 0x19D CALLDATASIZE PUSH1 0x4 PUSH2 0xB71 JUMP JUMPDEST PUSH2 0x2F7 JUMP JUMPDEST STOP JUMPDEST PUSH2 0x1B7 PUSH2 0x1B2 CALLDATASIZE PUSH1 0x4 PUSH2 0xC20 JUMP JUMPDEST PUSH2 0x391 JUMP JUMPDEST PUSH1 0x40 MLOAD PUSH2 0x186 SWAP11 SWAP10 SWAP9 SWAP8 SWAP7 SWAP6 SWAP5 SWAP4 SWAP3 SWAP2 SWAP1 PUSH2 0xF17 JUMP JUMPDEST PUSH2 0x179 PUSH2 0x40B JUMP JUMPDEST PUSH2 0x1DD PUSH2 0x427 JUMP JUMPDEST PUSH1 0x40 MLOAD PUSH2 0x186 SWAP2 SWAP1 PUSH2 0xFCE JUMP JUMPDEST PUSH2 0x1F2 PUSH2 0x4AC JUMP JUMPDEST PUSH1 0x40 MLOAD PUSH2 0x186 SWAP2 SWAP1 PUSH2 0x102D JUMP JUMPDEST PUSH2 0x207 PUSH2 0x52A JUMP JUMPDEST PUSH1 0x40 MLOAD PUSH2 0x186 SWAP2 SWAP1 PUSH2 0x104C JUMP JUMPDEST PUSH2 0x179 PUSH2 0x530 JUMP JUMPDEST PUSH2 0x179 PUSH2 0x54C JUMP JUMPDEST PUSH2 0x22C PUSH2 0x568 JUMP JUMPDEST PUSH1 0x40 MLOAD PUSH2 0x186 SWAP2 SWAP1 PUSH2 0xFDF JUMP JUMPDEST PUSH2 0x1A2 PUSH2 0x247 CALLDATASIZE PUSH1 0x4 PUSH2 0xBAB JUMP JUMPDEST PUSH2 0x586 JUMP JUMPDEST PUSH2 0x254 PUSH2 0x7BC JUMP JUMPDEST PUSH1 0x40 MLOAD PUSH2 0x186 SWAP2 SWAP1 PUSH2 0x103E JUMP JUMPDEST PUSH2 0x254 PUSH2 0x7DE JUMP JUMPDEST PUSH2 0x1DD PUSH2 0x804 JUMP JUMPDEST PUSH2 0x1DD PUSH2 0x27F CALLDATASIZE PUSH1 0x4 PUSH2 0xB4B JUMP JUMPDEST PUSH2 0x87A JUMP JUMPDEST PUSH2 0x297 PUSH2 0x292 CALLDATASIZE PUSH1 0x4 PUSH2 0xC50 JUMP JUMPDEST PUSH2 0x91F JUMP JUMPDEST PUSH1 0x40 MLOAD PUSH2 0x186 SWAP3 SWAP2 SWAP1 PUSH2 0xFAC JUMP JUMPDEST PUSH2 0x254 PUSH2 0x962 JUMP JUMPDEST PUSH2 0x1A2 PUSH2 0x2BB CALLDATASIZE PUSH1 0x4 PUSH2 0xB4B JUMP JUMPDEST PUSH2 0x986 JUMP JUMPDEST PUSH2 0x1A2 PUSH2 0x2CE CALLDATASIZE PUSH1 0x4 PUSH2 0xC9D JUMP JUMPDEST PUSH2 0xA58 JUMP JUMPDEST PUSH2 0x1DD PUSH2 0xA9B JUMP JUMPDEST PUSH1 0xB SLOAD PUSH20 0xFFFFFFFFFFFFFFFFFFFFFFFFFFFFFFFFFFFFFFFF AND DUP2 JUMP JUMPDEST PUSH2 0x2FF PUSH2 0x568 JUMP JUMPDEST PUSH2 0x33E JUMPI PUSH1 0x40 MLOAD PUSH32 0x8C379A000000000000000000000000000000000000000000000000000000000 DUP2 MSTORE PUSH1 0x4 ADD PUSH2 0x335 SWAP1 PUSH2 0x101D JUMP JUMPDEST PUSH1 0x40 MLOAD DUP1 SWAP2 SUB SWAP1 REVERT JUMPDEST PUSH1 0xB DUP1 SLOAD PUSH20 0xFFFFFFFFFFFFFFFFFFFFFFFFFFFFFFFFFFFFFFFF SWAP4 DUP5 AND PUSH32 0xFFFFFFFFFFFFFFFFFFFFFFFF0000000000000000000000000000000000000000 SWAP2 DUP3 AND OR SWAP1 SWAP2 SSTORE PUSH1 0xC DUP1 SLOAD SWAP3 SWAP1 SWAP4 AND SWAP2 AND OR SWAP1 SSTORE JUMP JUMPDEST PUSH1 0x7 PUSH1 0x20 DUP2 DUP2 MSTORE PUSH1 0x0 SWAP4 DUP5 MSTORE PUSH1 0x40 DUP1 DUP6 KECCAK256 SWAP1 SWAP2 MSTORE SWAP2 DUP4 MSTORE SWAP2 KECCAK256 DUP1 SLOAD PUSH1 0x1 DUP3 ADD SLOAD PUSH1 0x2 DUP4 ADD SLOAD PUSH1 0x3 DUP5 ADD SLOAD PUSH1 0x4 DUP6 ADD SLOAD PUSH1 0x5 DUP7 ADD SLOAD PUSH1 0x6 DUP8 ADD SLOAD SWAP8 DUP8 ADD SLOAD PUSH1 0x8 DUP9 ADD SLOAD PUSH1 0x9 SWAP1 SWAP9 ADD SLOAD PUSH20 0xFFFFFFFFFFFFFFFFFFFFFFFFFFFFFFFFFFFFFFFF SWAP8 DUP9 AND SWAP10 SWAP7 SWAP9 SWAP6 DUP9 AND SWAP8 SWAP5 SWAP7 SWAP4 SWAP6 SWAP3 SWAP5 PUSH1 0xFF SWAP1 SWAP5 AND SWAP4 SWAP2 SWAP3 SWAP2 AND DUP11 JUMP JUMPDEST PUSH1 0xC SLOAD PUSH20 0xFFFFFFFFFFFFFFFFFFFFFFFFFFFFFFFFFFFFFFFF AND DUP2 JUMP JUMPDEST PUSH1 0x60 PUSH1 0x9 PUSH1 0x0 ADD DUP1 SLOAD DUP1 PUSH1 0x20 MUL PUSH1 0x20 ADD PUSH1 0x40 MLOAD SWAP1 DUP2 ADD PUSH1 0x40 MSTORE DUP1 SWAP3 SWAP2 SWAP1 DUP2 DUP2 MSTORE PUSH1 0x20 ADD PUSH1 0x0 SWAP1 JUMPDEST DUP3 DUP3 LT ISZERO PUSH2 0x4A3 JUMPI PUSH1 0x0 DUP5 DUP2 MSTORE PUSH1 0x20 SWAP1 DUP2 SWAP1 KECCAK256 PUSH1 0x40 DUP1 MLOAD DUP1 DUP3 ADD SWAP1 SWAP2 MSTORE PUSH1 0x2 DUP6 MUL SWAP1 SWAP2 ADD DUP1 SLOAD PUSH20 0xFFFFFFFFFFFFFFFFFFFFFFFFFFFFFFFFFFFFFFFF AND DUP3 MSTORE PUSH1 0x1 SWAP1 DUP2 ADD SLOAD DUP3 DUP5 ADD MSTORE SWAP1 DUP4 MSTORE SWAP1 SWAP3 ADD SWAP2 ADD PUSH2 0x44E JUMP JUMPDEST POP POP POP POP SWAP1 POP SWAP1 JUMP JUMPDEST PUSH2 0x4B4 PUSH2 0xB11 JUMP JUMPDEST PUSH1 0x40 DUP1 MLOAD PUSH1 0xA DUP1 SLOAD PUSH1 0x20 DUP2 DUP2 MUL DUP5 ADD DUP6 ADD DUP6 MSTORE DUP4 ADD DUP2 DUP2 MSTORE SWAP3 SWAP4 SWAP2 SWAP3 DUP5 SWAP3 SWAP1 SWAP2 DUP5 SWAP2 DUP5 ADD DUP3 DUP3 DUP1 ISZERO PUSH2 0x51C JUMPI PUSH1 0x20 MUL DUP3 ADD SWAP2 SWAP1 PUSH1 0x0 MSTORE PUSH1 0x20 PUSH1 0x0 KECCAK256 SWAP1 JUMPDEST DUP2 SLOAD PUSH20 0xFFFFFFFFFFFFFFFFFFFFFFFFFFFFFFFFFFFFFFFF AND DUP2 MSTORE PUSH1 0x1 SWAP1 SWAP2 ADD SWAP1 PUSH1 0x20 ADD DUP1 DUP4 GT PUSH2 0x4F1 JUMPI JUMPDEST POP POP POP POP POP DUP2 MSTORE POP POP SWAP1 POP SWAP1 JUMP JUMPDEST PUSH1 0x1 SLOAD DUP2 JUMP JUMPDEST PUSH1 0xD SLOAD PUSH20 0xFFFFFFFFFFFFFFFFFFFFFFFFFFFFFFFFFFFFFFFF AND DUP2 JUMP JUMPDEST PUSH1 0x0 SLOAD PUSH20 0xFFFFFFFFFFFFFFFFFFFFFFFFFFFFFFFFFFFFFFFF AND SWAP1 JUMP JUMPDEST PUSH1 0x0 SLOAD PUSH20 0xFFFFFFFFFFFFFFFFFFFFFFFFFFFFFFFFFFFFFFFF AND CALLER EQ SWAP1 JUMP JUMPDEST PUSH2 0x58E PUSH2 0x568 JUMP JUMPDEST PUSH2 0x5C4 JUMPI PUSH1 0x40 MLOAD PUSH32 0x8C379A000000000000000000000000000000000000000000000000000000000 DUP2 MSTORE PUSH1 0x4 ADD PUSH2 0x335 SWAP1 PUSH2 0x101D JUMP JUMPDEST PUSH20 0xFFFFFFFFFFFFFFFFFFFFFFFFFFFFFFFFFFFFFFFF DUP6 AND ISZERO DUP1 ISZERO SWAP1 PUSH2 0x5FE JUMPI POP PUSH20 0xFFFFFFFFFFFFFFFFFFFFFFFFFFFFFFFFFFFFFFFF DUP5 AND ISZERO ISZERO JUMPDEST PUSH2 0x634 JUMPI PUSH1 0x40 MLOAD PUSH32 0x8C379A000000000000000000000000000000000000000000000000000000000 DUP2 MSTORE PUSH1 0x4 ADD PUSH2 0x335 SWAP1 PUSH2 0xFFD JUMP JUMPDEST PUSH2 0x3E8 DUP3 PUSH2 0xFFFF AND GT ISZERO DUP1 ISZERO PUSH2 0x650 JUMPI POP PUSH2 0x3E8 DUP2 PUSH2 0xFFFF AND GT ISZERO JUMPDEST DUP1 ISZERO PUSH2 0x662 JUMPI POP PUSH2 0x3E8 DUP4 PUSH2 0xFFFF AND GT ISZERO JUMPDEST PUSH2 0x698 JUMPI PUSH1 0x40 MLOAD PUSH32 0x8C379A000000000000000000000000000000000000000000000000000000000 DUP2 MSTORE PUSH1 0x4 ADD PUSH2 0x335 SWAP1 PUSH2 0x100D JUMP JUMPDEST PUSH1 0x0 DUP1 SLOAD PUSH32 0xFFFFFFFFFFFFFFFFFFFF0000FFFFFFFFFFFFFFFFFFFFFFFFFFFFFFFFFFFFFFFF AND PUSH21 0x10000000000000000000000000000000000000000 PUSH2 0xFFFF SWAP5 DUP6 AND MUL OR PUSH32 0xFFFFFFFFFFFFFFFF0000FFFFFFFFFFFFFFFFFFFFFFFFFFFFFFFFFFFFFFFFFFFF AND PUSH23 0x100000000000000000000000000000000000000000000 SWAP3 DUP5 AND SWAP3 SWAP1 SWAP3 MUL SWAP2 SWAP1 SWAP2 OR PUSH32 0xFFFFFFFFFFFF0000FFFFFFFFFFFFFFFFFFFFFFFFFFFFFFFFFFFFFFFFFFFFFFFF AND PUSH25 0x1000000000000000000000000000000000000000000000000 SWAP4 SWAP1 SWAP3 AND SWAP3 SWAP1 SWAP3 MUL OR SWAP1 SSTORE PUSH1 0xC DUP1 SLOAD PUSH32 0xFFFFFFFFFFFFFFFFFFFFFFFF0000000000000000000000000000000000000000 SWAP1 DUP2 AND PUSH20 0xFFFFFFFFFFFFFFFFFFFFFFFFFFFFFFFFFFFFFFFF SWAP5 DUP6 AND OR SWAP1 SWAP2 SSTORE PUSH1 0xD DUP1 SLOAD SWAP1 SWAP2 AND SWAP2 SWAP1 SWAP3 AND OR SWAP1 SSTORE JUMP JUMPDEST PUSH1 0x0 SLOAD PUSH21 0x10000000000000000000000000000000000000000 SWAP1 DIV PUSH2 0xFFFF AND DUP2 JUMP JUMPDEST PUSH1 0x0 SLOAD PUSH25 0x1000000000000000000000000000000000000000000000000 SWAP1 DIV PUSH2 0xFFFF AND DUP2 JUMP JUMPDEST PUSH1 0x4 DUP1 SLOAD PUSH1 0x40 DUP1 MLOAD PUSH1 0x20 DUP1 DUP5 MUL DUP3 ADD DUP2 ADD SWAP1 SWAP3 MSTORE DUP3 DUP2 MSTORE PUSH1 0x60 SWAP4 SWAP1 SWAP3 SWAP1 SWAP2 PUSH1 0x0 SWAP1 DUP5 ADD DUP3 ISZERO PUSH2 0x4A3 JUMPI PUSH1 0x0 DUP5 DUP2 MSTORE PUSH1 0x20 SWAP1 DUP2 SWAP1 KECCAK256 PUSH1 0x40 DUP1 MLOAD DUP1 DUP3 ADD SWAP1 SWAP2 MSTORE PUSH1 0x2 DUP6 MUL SWAP1 SWAP2 ADD DUP1 SLOAD PUSH20 0xFFFFFFFFFFFFFFFFFFFFFFFFFFFFFFFFFFFFFFFF AND DUP3 MSTORE PUSH1 0x1 SWAP1 DUP2 ADD SLOAD DUP3 DUP5 ADD MSTORE SWAP1 DUP4 MSTORE SWAP1 SWAP3 ADD SWAP2 ADD PUSH2 0x44E JUMP JUMPDEST PUSH20 0xFFFFFFFFFFFFFFFFFFFFFFFFFFFFFFFFFFFFFFFF DUP2 AND PUSH1 0x0 SWAP1 DUP2 MSTORE PUSH1 0x3 PUSH1 0x20 SWAP1 DUP2 MSTORE PUSH1 0x40 DUP1 DUP4 KECCAK256 DUP1 SLOAD DUP3 MLOAD DUP2 DUP6 MUL DUP2 ADD DUP6 ADD SWAP1 SWAP4 MSTORE DUP1 DUP4 MSTORE PUSH1 0x60 SWAP5 SWAP3 SWAP4 SWAP2 SWAP3 SWAP1 SWAP2 DUP5 ADD JUMPDEST DUP3 DUP3 LT ISZERO PUSH2 0x914 JUMPI PUSH1 0x0 DUP5 DUP2 MSTORE PUSH1 0x20 SWAP1 DUP2 SWAP1 KECCAK256 PUSH1 0x40 DUP1 MLOAD DUP1 DUP3 ADD SWAP1 SWAP2 MSTORE PUSH1 0x2 DUP6 MUL SWAP1 SWAP2 ADD DUP1 SLOAD PUSH20 0xFFFFFFFFFFFFFFFFFFFFFFFFFFFFFFFFFFFFFFFF AND DUP3 MSTORE PUSH1 0x1 SWAP1 DUP2 ADD SLOAD DUP3 DUP5 ADD MSTORE SWAP1 DUP4 MSTORE SWAP1 SWAP3 ADD SWAP2 ADD PUSH2 0x8BF JUMP JUMPDEST POP POP POP POP SWAP1 POP SWAP2 SWAP1 POP JUMP JUMPDEST PUSH1 0x6 PUSH1 0x20 SWAP1 DUP2 MSTORE PUSH1 0x0 SWAP4 DUP5 MSTORE PUSH1 0x40 DUP1 DUP6 KECCAK256 DUP3 MSTORE SWAP3 DUP5 MSTORE DUP3 DUP5 KECCAK256 SWAP1 MSTORE DUP3 MSTORE SWAP1 KECCAK256 DUP1 SLOAD PUSH1 0x1 SWAP1 SWAP2 ADD SLOAD PUSH20 0xFFFFFFFFFFFFFFFFFFFFFFFFFFFFFFFFFFFFFFFF SWAP1 SWAP2 AND SWAP1 DUP3 JUMP JUMPDEST PUSH1 0x0 SLOAD PUSH23 0x100000000000000000000000000000000000000000000 SWAP1 DIV PUSH2 0xFFFF AND DUP2 JUMP JUMPDEST PUSH2 0x98E PUSH2 0x568 JUMP JUMPDEST PUSH2 0x9C4 JUMPI PUSH1 0x40 MLOAD PUSH32 0x8C379A000000000000000000000000000000000000000000000000000000000 DUP2 MSTORE PUSH1 0x4 ADD PUSH2 0x335 SWAP1 PUSH2 0x101D JUMP JUMPDEST PUSH20 0xFFFFFFFFFFFFFFFFFFFFFFFFFFFFFFFFFFFFFFFF DUP2 AND PUSH2 0xA11 JUMPI PUSH1 0x40 MLOAD PUSH32 0x8C379A000000000000000000000000000000000000000000000000000000000 DUP2 MSTORE PUSH1 0x4 ADD PUSH2 0x335 SWAP1 PUSH2 0xFED JUMP JUMPDEST PUSH1 0x0 DUP1 SLOAD PUSH32 0xFFFFFFFFFFFFFFFFFFFFFFFF0000000000000000000000000000000000000000 AND PUSH20 0xFFFFFFFFFFFFFFFFFFFFFFFFFFFFFFFFFFFFFFFF SWAP3 SWAP1 SWAP3 AND SWAP2 SWAP1 SWAP2 OR SWAP1 SSTORE JUMP JUMPDEST PUSH2 0xA60 PUSH2 0x568 JUMP JUMPDEST PUSH2 0xA96 JUMPI PUSH1 0x40 MLOAD PUSH32 0x8C379A000000000000000000000000000000000000000000000000000000000 DUP2 MSTORE PUSH1 0x4 ADD PUSH2 0x335 SWAP1 PUSH2 0x101D JUMP JUMPDEST PUSH1 0x1 SSTORE JUMP JUMPDEST PUSH1 0x5 DUP1 SLOAD PUSH1 0x40 DUP1 MLOAD PUSH1 0x20 DUP1 DUP5 MUL DUP3 ADD DUP2 ADD SWAP1 SWAP3 MSTORE DUP3 DUP2 MSTORE PUSH1 0x60 SWAP4 SWAP1 SWAP3 SWAP1 SWAP2 PUSH1 0x0 SWAP1 DUP5 ADD DUP3 ISZERO PUSH2 0x4A3 JUMPI PUSH1 0x0 DUP5 DUP2 MSTORE PUSH1 0x20 SWAP1 DUP2 SWAP1 KECCAK256 PUSH1 0x40 DUP1 MLOAD DUP1 DUP3 ADD SWAP1 SWAP2 MSTORE PUSH1 0x2 DUP6 MUL SWAP1 SWAP2 ADD DUP1 SLOAD PUSH20 0xFFFFFFFFFFFFFFFFFFFFFFFFFFFFFFFFFFFFFFFF AND DUP3 MSTORE PUSH1 0x1 SWAP1 DUP2 ADD SLOAD DUP3 DUP5 ADD MSTORE SWAP1 DUP4 MSTORE SWAP1 SWAP3 ADD SWAP2 ADD PUSH2 0x44E JUMP JUMPDEST PUSH1 0x40 MLOAD DUP1 PUSH1 0x20 ADD PUSH1 0x40 MSTORE DUP1 PUSH1 0x60 DUP2 MSTORE POP SWAP1 JUMP JUMPDEST DUP1 CALLDATALOAD PUSH2 0xB2F DUP2 PUSH2 0x10A0 JUMP JUMPDEST SWAP3 SWAP2 POP POP JUMP JUMPDEST DUP1 CALLDATALOAD PUSH2 0xB2F DUP2 PUSH2 0x10B7 JUMP JUMPDEST DUP1 CALLDATALOAD PUSH2 0xB2F DUP2 PUSH2 0x10C0 JUMP JUMPDEST PUSH1 0x0 PUSH1 0x20 DUP3 DUP5 SUB SLT ISZERO PUSH2 0xB5D JUMPI PUSH1 0x0 DUP1 REVERT JUMPDEST PUSH1 0x0 PUSH2 0xB69 DUP5 DUP5 PUSH2 0xB24 JUMP JUMPDEST SWAP5 SWAP4 POP POP POP POP JUMP JUMPDEST PUSH1 0x0 DUP1 PUSH1 0x40 DUP4 DUP6 SUB SLT ISZERO PUSH2 0xB84 JUMPI PUSH1 0x0 DUP1 REVERT JUMPDEST PUSH1 0x0 PUSH2 0xB90 DUP6 DUP6 PUSH2 0xB24 JUMP JUMPDEST SWAP3 POP POP PUSH1 0x20 PUSH2 0xBA1 DUP6 DUP3 DUP7 ADD PUSH2 0xB24 JUMP JUMPDEST SWAP2 POP POP SWAP3 POP SWAP3 SWAP1 POP JUMP JUMPDEST PUSH1 0x0 DUP1 PUSH1 0x0 DUP1 PUSH1 0x0 PUSH1 0xA0 DUP7 DUP9 SUB SLT ISZERO PUSH2 0xBC3 JUMPI PUSH1 0x0 DUP1 REVERT JUMPDEST PUSH1 0x0 PUSH2 0xBCF DUP9 DUP9 PUSH2 0xB24 JUMP JUMPDEST SWAP6 POP POP PUSH1 0x20 PUSH2 0xBE0 DUP9 DUP3 DUP10 ADD PUSH2 0xB24 JUMP JUMPDEST SWAP5 POP POP PUSH1 0x40 PUSH2 0xBF1 DUP9 DUP3 DUP10 ADD PUSH2 0xB35 JUMP JUMPDEST SWAP4 POP POP PUSH1 0x60 PUSH2 0xC02 DUP9 DUP3 DUP10 ADD PUSH2 0xB35 JUMP JUMPDEST SWAP3 POP POP PUSH1 0x80 PUSH2 0xC13 DUP9 DUP3 DUP10 ADD PUSH2 0xB35 JUMP JUMPDEST SWAP2 POP POP SWAP3 SWAP6 POP SWAP3 SWAP6 SWAP1 SWAP4 POP JUMP JUMPDEST PUSH1 0x0 DUP1 PUSH1 0x40 DUP4 DUP6 SUB SLT ISZERO PUSH2 0xC33 JUMPI PUSH1 0x0 DUP1 REVERT JUMPDEST PUSH1 0x0 PUSH2 0xC3F DUP6 DUP6 PUSH2 0xB24 JUMP JUMPDEST SWAP3 POP POP PUSH1 0x20 PUSH2 0xBA1 DUP6 DUP3 DUP7 ADD PUSH2 0xB40 JUMP JUMPDEST PUSH1 0x0 DUP1 PUSH1 0x0 PUSH1 0x60 DUP5 DUP7 SUB SLT ISZERO PUSH2 0xC65 JUMPI PUSH1 0x0 DUP1 REVERT JUMPDEST PUSH1 0x0 PUSH2 0xC71 DUP7 DUP7 PUSH2 0xB24 JUMP JUMPDEST SWAP4 POP POP PUSH1 0x20 PUSH2 0xC82 DUP7 DUP3 DUP8 ADD PUSH2 0xB40 JUMP JUMPDEST SWAP3 POP POP PUSH1 0x40 PUSH2 0xC93 DUP7 DUP3 DUP8 ADD PUSH2 0xB24 JUMP JUMPDEST SWAP2 POP POP SWAP3 POP SWAP3 POP SWAP3 JUMP JUMPDEST PUSH1 0x0 PUSH1 0x20 DUP3 DUP5 SUB SLT ISZERO PUSH2 0xCAF JUMPI PUSH1 0x0 DUP1 REVERT JUMPDEST PUSH1 0x0 PUSH2 0xB69 DUP5 DUP5 PUSH2 0xB40 JUMP JUMPDEST PUSH1 0x0 PUSH2 0xCC7 DUP4 DUP4 PUSH2 0xCE3 JUMP JUMPDEST POP POP PUSH1 0x20 ADD SWAP1 JUMP JUMPDEST PUSH1 0x0 PUSH2 0xCDB DUP4 DUP4 PUSH2 0xEAC JUMP JUMPDEST POP POP PUSH1 0x40 ADD SWAP1 JUMP JUMPDEST PUSH2 0xCEC DUP2 PUSH2 0x106D JUMP JUMPDEST DUP3 MSTORE POP POP JUMP JUMPDEST PUSH1 0x0 PUSH2 0xCFD DUP3 PUSH2 0x1060 JUMP JUMPDEST PUSH2 0xD07 DUP2 DUP6 PUSH2 0x1064 JUMP JUMPDEST SWAP4 POP PUSH2 0xD12 DUP4 PUSH2 0x105A JUMP JUMPDEST DUP1 PUSH1 0x0 JUMPDEST DUP4 DUP2 LT ISZERO PUSH2 0xD40 JUMPI DUP2 MLOAD PUSH2 0xD2A DUP9 DUP3 PUSH2 0xCBB JUMP JUMPDEST SWAP8 POP PUSH2 0xD35 DUP4 PUSH2 0x105A JUMP JUMPDEST SWAP3 POP POP PUSH1 0x1 ADD PUSH2 0xD16 JUMP JUMPDEST POP SWAP5 SWAP6 SWAP5 POP POP POP POP POP JUMP JUMPDEST PUSH1 0x0 PUSH2 0xD56 DUP3 PUSH2 0x1060 JUMP JUMPDEST PUSH2 0xD60 DUP2 DUP6 PUSH2 0x1064 JUMP JUMPDEST SWAP4 POP PUSH2 0xD6B DUP4 PUSH2 0x105A JUMP JUMPDEST DUP1 PUSH1 0x0 JUMPDEST DUP4 DUP2 LT ISZERO PUSH2 0xD40 JUMPI DUP2 MLOAD PUSH2 0xD83 DUP9 DUP3 PUSH2 0xCCF JUMP JUMPDEST SWAP8 POP PUSH2 0xD8E DUP4 PUSH2 0x105A JUMP JUMPDEST SWAP3 POP POP PUSH1 0x1 ADD PUSH2 0xD6F JUMP JUMPDEST PUSH2 0xCEC DUP2 PUSH2 0x1078 JUMP JUMPDEST PUSH1 0x0 PUSH2 0xDAF PUSH1 0x26 DUP4 PUSH2 0x1064 JUMP JUMPDEST PUSH32 0x4F776E61626C653A206E6577206F776E657220697320746865207A65726F2061 DUP2 MSTORE PUSH32 0x6464726573730000000000000000000000000000000000000000000000000000 PUSH1 0x20 DUP3 ADD MSTORE PUSH1 0x40 ADD SWAP3 SWAP2 POP POP JUMP JUMPDEST PUSH1 0x0 PUSH2 0xE0E PUSH1 0xF DUP4 PUSH2 0x1064 JUMP JUMPDEST PUSH32 0x41646472657373206973205A65726F0000000000000000000000000000000000 DUP2 MSTORE PUSH1 0x20 ADD SWAP3 SWAP2 POP POP JUMP JUMPDEST PUSH1 0x0 PUSH2 0xE47 PUSH1 0x1B DUP4 PUSH2 0x1064 JUMP JUMPDEST PUSH32 0x73686F756C642062652067726561746572207468616E207A65726F0000000000 DUP2 MSTORE PUSH1 0x20 ADD SWAP3 SWAP2 POP POP JUMP JUMPDEST PUSH1 0x0 PUSH2 0xE80 PUSH1 0x20 DUP4 PUSH2 0x1064 JUMP JUMPDEST PUSH32 0x4F776E61626C653A2063616C6C6572206973206E6F7420746865206F776E6572 DUP2 MSTORE PUSH1 0x20 ADD SWAP3 SWAP2 POP POP JUMP JUMPDEST DUP1 MLOAD PUSH1 0x40 DUP4 ADD SWAP1 PUSH2 0xEBD DUP5 DUP3 PUSH2 0xCE3 JUMP JUMPDEST POP PUSH1 0x20 DUP3 ADD MLOAD PUSH2 0xED0 PUSH1 0x20 DUP6 ADD DUP3 PUSH2 0xF00 JUMP JUMPDEST POP POP POP POP JUMP JUMPDEST DUP1 MLOAD PUSH1 0x20 DUP1 DUP5 MSTORE PUSH1 0x0 SWAP2 SWAP1 DUP5 ADD SWAP1 PUSH2 0xEEE DUP3 DUP3 PUSH2 0xCF2 JUMP JUMPDEST SWAP6 SWAP5 POP POP POP POP POP JUMP JUMPDEST PUSH2 0xCEC DUP2 PUSH2 0x107D JUMP JUMPDEST PUSH2 0xCEC DUP2 PUSH2 0x109D JUMP JUMPDEST PUSH1 0x20 DUP2 ADD PUSH2 0xB2F DUP3 DUP5 PUSH2 0xCE3 JUMP JUMPDEST PUSH2 0x140 DUP2 ADD PUSH2 0xF26 DUP3 DUP14 PUSH2 0xCE3 JUMP JUMPDEST PUSH2 0xF33 PUSH1 0x20 DUP4 ADD DUP13 PUSH2 0xF00 JUMP JUMPDEST PUSH2 0xF40 PUSH1 0x40 DUP4 ADD DUP12 PUSH2 0xCE3 JUMP JUMPDEST PUSH2 0xF4D PUSH1 0x60 DUP4 ADD DUP11 PUSH2 0xF00 JUMP JUMPDEST PUSH2 0xF5A PUSH1 0x80 DUP4 ADD DUP10 PUSH2 0xF00 JUMP JUMPDEST PUSH2 0xF67 PUSH1 0xA0 DUP4 ADD DUP9 PUSH2 0xF00 JUMP JUMPDEST PUSH2 0xF74 PUSH1 0xC0 DUP4 ADD DUP8 PUSH2 0xD99 JUMP JUMPDEST PUSH2 0xF81 PUSH1 0xE0 DUP4 ADD DUP7 PUSH2 0xF00 JUMP JUMPDEST PUSH2 0xF8F PUSH2 0x100 DUP4 ADD DUP6 PUSH2 0xF00 JUMP JUMPDEST PUSH2 0xF9D PUSH2 0x120 DUP4 ADD DUP5 PUSH2 0xCE3 JUMP JUMPDEST SWAP12 SWAP11 POP POP POP POP POP POP POP POP POP POP POP JUMP JUMPDEST PUSH1 0x40 DUP2 ADD PUSH2 0xFBA DUP3 DUP6 PUSH2 0xCE3 JUMP JUMPDEST PUSH2 0xFC7 PUSH1 0x20 DUP4 ADD DUP5 PUSH2 0xF00 JUMP JUMPDEST SWAP4 SWAP3 POP POP POP JUMP JUMPDEST PUSH1 0x20 DUP1 DUP3 MSTORE DUP2 ADD PUSH2 0xFC7 DUP2 DUP5 PUSH2 0xD4B JUMP JUMPDEST PUSH1 0x20 DUP2 ADD PUSH2 0xB2F DUP3 DUP5 PUSH2 0xD99 JUMP JUMPDEST PUSH1 0x20 DUP1 DUP3 MSTORE DUP2 ADD PUSH2 0xB2F DUP2 PUSH2 0xDA2 JUMP JUMPDEST PUSH1 0x20 DUP1 DUP3 MSTORE DUP2 ADD PUSH2 0xB2F DUP2 PUSH2 0xE01 JUMP JUMPDEST PUSH1 0x20 DUP1 DUP3 MSTORE DUP2 ADD PUSH2 0xB2F DUP2 PUSH2 0xE3A JUMP JUMPDEST PUSH1 0x20 DUP1 DUP3 MSTORE DUP2 ADD PUSH2 0xB2F DUP2 PUSH2 0xE73 JUMP JUMPDEST PUSH1 0x20 DUP1 DUP3 MSTORE DUP2 ADD PUSH2 0xFC7 DUP2 DUP5 PUSH2 0xED6 JUMP JUMPDEST PUSH1 0x20 DUP2 ADD PUSH2 0xB2F DUP3 DUP5 PUSH2 0xEF7 JUMP JUMPDEST PUSH1 0x20 DUP2 ADD PUSH2 0xB2F DUP3 DUP5 PUSH2 0xF00 JUMP JUMPDEST PUSH1 0x20 ADD SWAP1 JUMP JUMPDEST MLOAD SWAP1 JUMP JUMPDEST SWAP1 DUP2 MSTORE PUSH1 0x20 ADD SWAP1 JUMP JUMPDEST PUSH1 0x0 PUSH2 0xB2F DUP3 PUSH2 0x1084 JUMP JUMPDEST ISZERO ISZERO SWAP1 JUMP JUMPDEST PUSH2 0xFFFF AND SWAP1 JUMP JUMPDEST PUSH20 0xFFFFFFFFFFFFFFFFFFFFFFFFFFFFFFFFFFFFFFFF AND SWAP1 JUMP JUMPDEST SWAP1 JUMP JUMPDEST PUSH2 0x10A9 DUP2 PUSH2 0x106D JUMP JUMPDEST DUP2 EQ PUSH2 0x10B4 JUMPI PUSH1 0x0 DUP1 REVERT JUMPDEST POP JUMP JUMPDEST PUSH2 0x10A9 DUP2 PUSH2 0x107D JUMP JUMPDEST PUSH2 0x10A9 DUP2 PUSH2 0x109D JUMP INVALID LOG3 PUSH6 0x627A7A723158 KECCAK256 SWAP12 0xD0 PC 0xA8 RETURNDATACOPY DUP16 0xAF 0xD2 SWAP8 0xFB LOG0 0xCB 0xCE PUSH18 0xA110E1DB21B94868B67C2DD3BC3953540C7F PUSH13 0x6578706572696D656E74616CF5 PUSH5 0x736F6C6343 STOP SDIV GT STOP BLOCKHASH "
				},
				"gasEstimates": {
					"creation": {
						"codeDepositCost": "872800",
						"executionCost": "21720",
						"totalCost": "894520"
					},
					"external": {
						"LPStakeAddress()": "infinite",
						"StakeAddress()": "infinite",
						"WETHAddress()": "infinite",
						"auctions(address,uint256)": "infinite",
						"getAuctionTokensForSale()": "infinite",
						"getErc20Tokens()": "infinite",
						"getFixedPriceTokensForSale()": "infinite",
						"getTokensForSale()": "infinite",
						"getTokensForSalePerUser(address)": "infinite",
						"isOwner()": "1205",
						"lpStakefeepercentage()": "1167",
						"offerprice(address,uint256,address)": "infinite",
						"owner()": "infinite",
						"platFormFeePercentage()": "1189",
						"rewardDistributionPercentage()": "1190",
						"setAddress(address,address)": "infinite",
						"setBrokerage(address,address,uint16,uint16,uint16)": "infinite",
						"setUpdatedClosingTime(uint256)": "infinite",
						"transferOwnership(address)": "infinite",
						"updateClosingTime()": "1167"
					}
				},
				"methodIdentifiers": {
					"LPStakeAddress()": "8bae5f4f",
					"StakeAddress()": "45ce7db9",
					"WETHAddress()": "0af88b24",
					"auctions(address,uint256)": "44f91c1e",
					"getAuctionTokensForSale()": "f7f17488",
					"getErc20Tokens()": "6d036535",
					"getFixedPriceTokensForSale()": "d3c9080a",
					"getTokensForSale()": "65e4e1c0",
					"getTokensForSalePerUser(address)": "d4739cca",
					"isOwner()": "8f32d59b",
					"lpStakefeepercentage()": "d2abc517",
					"offerprice(address,uint256,address)": "f09856f3",
					"owner()": "8da5cb5b",
					"platFormFeePercentage()": "f26f8494",
					"rewardDistributionPercentage()": "c52ea52e",
					"setAddress(address,address)": "3b58524d",
					"setBrokerage(address,address,uint16,uint16,uint16)": "c1a8bdbc",
					"setUpdatedClosingTime(uint256)": "f5a0c9b8",
					"transferOwnership(address)": "f2fde38b",
					"updateClosingTime()": "7f494852"
				}
			},
			"storageLayout": {
				"storage": [
					{
						"astId": 1726,
						"contract": "Storage.sol:Storage",
						"label": "_owner",
						"offset": 0,
						"slot": "0",
						"type": "t_address"
					},
					{
						"astId": 1277,
						"contract": "Storage.sol:Storage",
						"label": "rewardDistributionPercentage",
						"offset": 20,
						"slot": "0",
						"type": "t_uint16"
					},
					{
						"astId": 1279,
						"contract": "Storage.sol:Storage",
						"label": "platFormFeePercentage",
						"offset": 22,
						"slot": "0",
						"type": "t_uint16"
					},
					{
						"astId": 1281,
						"contract": "Storage.sol:Storage",
						"label": "lpStakefeepercentage",
						"offset": 24,
						"slot": "0",
						"type": "t_uint16"
					},
					{
						"astId": 1283,
						"contract": "Storage.sol:Storage",
						"label": "updateClosingTime",
						"offset": 0,
						"slot": "1",
						"type": "t_uint256"
					},
					{
						"astId": 1289,
						"contract": "Storage.sol:Storage",
						"label": "tokenOpenForSale",
						"offset": 0,
						"slot": "2",
						"type": "t_mapping(t_address,t_mapping(t_uint256,t_bool))"
					},
					{
						"astId": 1293,
						"contract": "Storage.sol:Storage",
						"label": "tokensForSalePerUser",
						"offset": 0,
						"slot": "3",
						"type": "t_mapping(t_address,t_struct(TokenDets)1536_storage)"
					},
					{
						"astId": 1295,
						"contract": "Storage.sol:Storage",
						"label": "fixedPriceTokens",
						"offset": 0,
						"slot": "4",
						"type": "t_struct(TokenDets)1536_storage"
					},
					{
						"astId": 1297,
						"contract": "Storage.sol:Storage",
						"label": "auctionTokens",
						"offset": 0,
						"slot": "5",
						"type": "t_struct(TokenDets)1536_storage"
					},
					{
						"astId": 1331,
						"contract": "Storage.sol:Storage",
						"label": "offerprice",
						"offset": 0,
						"slot": "6",
						"type": "t_mapping(t_address,t_mapping(t_uint256,t_mapping(t_address,t_struct(OfferDetails)1323_storage)))"
					},
					{
						"astId": 1337,
						"contract": "Storage.sol:Storage",
						"label": "auctions",
						"offset": 0,
						"slot": "7",
						"type": "t_mapping(t_address,t_mapping(t_uint256,t_struct(auction)1318_storage))"
					},
					{
						"astId": 1347,
						"contract": "Storage.sol:Storage",
						"label": "bidOffers",
						"offset": 0,
						"slot": "8",
						"type": "t_mapping(t_address,t_mapping(t_uint256,t_mapping(t_address,t_mapping(t_uint256,t_struct(OfferDetails)1323_storage))))"
					},
					{
						"astId": 1349,
						"contract": "Storage.sol:Storage",
						"label": "tokensForSale",
						"offset": 0,
						"slot": "9",
						"type": "t_struct(TokenDets)1536_storage"
					},
					{
						"astId": 1351,
						"contract": "Storage.sol:Storage",
						"label": "erc20TokensArray",
						"offset": 0,
						"slot": "10",
						"type": "t_struct(erc20Addresses)917_storage"
					},
					{
						"astId": 1353,
						"contract": "Storage.sol:Storage",
						"label": "WETHAddress",
						"offset": 0,
						"slot": "11",
						"type": "t_address"
					},
					{
						"astId": 1355,
						"contract": "Storage.sol:Storage",
						"label": "StakeAddress",
						"offset": 0,
						"slot": "12",
						"type": "t_address"
					},
					{
						"astId": 1357,
						"contract": "Storage.sol:Storage",
						"label": "LPStakeAddress",
						"offset": 0,
						"slot": "13",
						"type": "t_address"
					}
				],
				"types": {
					"t_address": {
						"encoding": "inplace",
						"label": "address",
						"numberOfBytes": "20"
					},
					"t_address_payable": {
						"encoding": "inplace",
						"label": "address payable",
						"numberOfBytes": "20"
					},
					"t_array(t_address)dyn_storage": {
						"base": "t_address",
						"encoding": "dynamic_array",
						"label": "address[]",
						"numberOfBytes": "32"
					},
					"t_array(t_struct(TokenDet)1532_storage)dyn_storage": {
						"base": "t_struct(TokenDet)1532_storage",
						"encoding": "dynamic_array",
						"label": "struct TokenDetArrayLib.TokenDet[]",
						"numberOfBytes": "32"
					},
					"t_bool": {
						"encoding": "inplace",
						"label": "bool",
						"numberOfBytes": "1"
					},
					"t_mapping(t_address,t_mapping(t_uint256,t_bool))": {
						"encoding": "mapping",
						"key": "t_address",
						"label": "mapping(address => mapping(uint256 => bool))",
						"numberOfBytes": "32",
						"value": "t_mapping(t_uint256,t_bool)"
					},
					"t_mapping(t_address,t_mapping(t_uint256,t_mapping(t_address,t_mapping(t_uint256,t_struct(OfferDetails)1323_storage))))": {
						"encoding": "mapping",
						"key": "t_address",
						"label": "mapping(address => mapping(uint256 => mapping(address => mapping(uint256 => struct Storage.OfferDetails))))",
						"numberOfBytes": "32",
						"value": "t_mapping(t_uint256,t_mapping(t_address,t_mapping(t_uint256,t_struct(OfferDetails)1323_storage)))"
					},
					"t_mapping(t_address,t_mapping(t_uint256,t_mapping(t_address,t_struct(OfferDetails)1323_storage)))": {
						"encoding": "mapping",
						"key": "t_address",
						"label": "mapping(address => mapping(uint256 => mapping(address => struct Storage.OfferDetails)))",
						"numberOfBytes": "32",
						"value": "t_mapping(t_uint256,t_mapping(t_address,t_struct(OfferDetails)1323_storage))"
					},
					"t_mapping(t_address,t_mapping(t_uint256,t_struct(OfferDetails)1323_storage))": {
						"encoding": "mapping",
						"key": "t_address",
						"label": "mapping(address => mapping(uint256 => struct Storage.OfferDetails))",
						"numberOfBytes": "32",
						"value": "t_mapping(t_uint256,t_struct(OfferDetails)1323_storage)"
					},
					"t_mapping(t_address,t_mapping(t_uint256,t_struct(auction)1318_storage))": {
						"encoding": "mapping",
						"key": "t_address",
						"label": "mapping(address => mapping(uint256 => struct Storage.auction))",
						"numberOfBytes": "32",
						"value": "t_mapping(t_uint256,t_struct(auction)1318_storage)"
					},
					"t_mapping(t_address,t_struct(OfferDetails)1323_storage)": {
						"encoding": "mapping",
						"key": "t_address",
						"label": "mapping(address => struct Storage.OfferDetails)",
						"numberOfBytes": "32",
						"value": "t_struct(OfferDetails)1323_storage"
					},
					"t_mapping(t_address,t_struct(TokenDets)1536_storage)": {
						"encoding": "mapping",
						"key": "t_address",
						"label": "mapping(address => struct TokenDetArrayLib.TokenDets)",
						"numberOfBytes": "32",
						"value": "t_struct(TokenDets)1536_storage"
					},
					"t_mapping(t_uint256,t_bool)": {
						"encoding": "mapping",
						"key": "t_uint256",
						"label": "mapping(uint256 => bool)",
						"numberOfBytes": "32",
						"value": "t_bool"
					},
					"t_mapping(t_uint256,t_mapping(t_address,t_mapping(t_uint256,t_struct(OfferDetails)1323_storage)))": {
						"encoding": "mapping",
						"key": "t_uint256",
						"label": "mapping(uint256 => mapping(address => mapping(uint256 => struct Storage.OfferDetails)))",
						"numberOfBytes": "32",
						"value": "t_mapping(t_address,t_mapping(t_uint256,t_struct(OfferDetails)1323_storage))"
					},
					"t_mapping(t_uint256,t_mapping(t_address,t_struct(OfferDetails)1323_storage))": {
						"encoding": "mapping",
						"key": "t_uint256",
						"label": "mapping(uint256 => mapping(address => struct Storage.OfferDetails))",
						"numberOfBytes": "32",
						"value": "t_mapping(t_address,t_struct(OfferDetails)1323_storage)"
					},
					"t_mapping(t_uint256,t_struct(OfferDetails)1323_storage)": {
						"encoding": "mapping",
						"key": "t_uint256",
						"label": "mapping(uint256 => struct Storage.OfferDetails)",
						"numberOfBytes": "32",
						"value": "t_struct(OfferDetails)1323_storage"
					},
					"t_mapping(t_uint256,t_struct(auction)1318_storage)": {
						"encoding": "mapping",
						"key": "t_uint256",
						"label": "mapping(uint256 => struct Storage.auction)",
						"numberOfBytes": "32",
						"value": "t_struct(auction)1318_storage"
					},
					"t_struct(OfferDetails)1323_storage": {
						"encoding": "inplace",
						"label": "struct Storage.OfferDetails",
						"members": [
							{
								"astId": 1320,
								"contract": "Storage.sol:Storage",
								"label": "offerer",
								"offset": 0,
								"slot": "0",
								"type": "t_address"
							},
							{
								"astId": 1322,
								"contract": "Storage.sol:Storage",
								"label": "amount",
								"offset": 0,
								"slot": "1",
								"type": "t_uint256"
							}
						],
						"numberOfBytes": "64"
					},
					"t_struct(TokenDet)1532_storage": {
						"encoding": "inplace",
						"label": "struct TokenDetArrayLib.TokenDet",
						"members": [
							{
								"astId": 1529,
								"contract": "Storage.sol:Storage",
								"label": "NFTAddress",
								"offset": 0,
								"slot": "0",
								"type": "t_address"
							},
							{
								"astId": 1531,
								"contract": "Storage.sol:Storage",
								"label": "tokenID",
								"offset": 0,
								"slot": "1",
								"type": "t_uint256"
							}
						],
						"numberOfBytes": "64"
					},
					"t_struct(TokenDets)1536_storage": {
						"encoding": "inplace",
						"label": "struct TokenDetArrayLib.TokenDets",
						"members": [
							{
								"astId": 1535,
								"contract": "Storage.sol:Storage",
								"label": "array",
								"offset": 0,
								"slot": "0",
								"type": "t_array(t_struct(TokenDet)1532_storage)dyn_storage"
							}
						],
						"numberOfBytes": "32"
					},
					"t_struct(auction)1318_storage": {
						"encoding": "inplace",
						"label": "struct Storage.auction",
						"members": [
							{
								"astId": 1299,
								"contract": "Storage.sol:Storage",
								"label": "lastOwner",
								"offset": 0,
								"slot": "0",
								"type": "t_address_payable"
							},
							{
								"astId": 1301,
								"contract": "Storage.sol:Storage",
								"label": "currentBid",
								"offset": 0,
								"slot": "1",
								"type": "t_uint256"
							},
							{
								"astId": 1303,
								"contract": "Storage.sol:Storage",
								"label": "highestBidder",
								"offset": 0,
								"slot": "2",
								"type": "t_address_payable"
							},
							{
								"astId": 1305,
								"contract": "Storage.sol:Storage",
								"label": "auctionType",
								"offset": 0,
								"slot": "3",
								"type": "t_uint256"
							},
							{
								"astId": 1307,
								"contract": "Storage.sol:Storage",
								"label": "startingPrice",
								"offset": 0,
								"slot": "4",
								"type": "t_uint256"
							},
							{
								"astId": 1309,
								"contract": "Storage.sol:Storage",
								"label": "buyPrice",
								"offset": 0,
								"slot": "5",
								"type": "t_uint256"
							},
							{
								"astId": 1311,
								"contract": "Storage.sol:Storage",
								"label": "buyer",
								"offset": 0,
								"slot": "6",
								"type": "t_bool"
							},
							{
								"astId": 1313,
								"contract": "Storage.sol:Storage",
								"label": "startingTime",
								"offset": 0,
								"slot": "7",
								"type": "t_uint256"
							},
							{
								"astId": 1315,
								"contract": "Storage.sol:Storage",
								"label": "closingTime",
								"offset": 0,
								"slot": "8",
								"type": "t_uint256"
							},
							{
								"astId": 1317,
								"contract": "Storage.sol:Storage",
								"label": "erc20Token",
								"offset": 0,
								"slot": "9",
								"type": "t_address"
							}
						],
						"numberOfBytes": "320"
					},
					"t_struct(erc20Addresses)917_storage": {
						"encoding": "inplace",
						"label": "struct ERC20Addresses.erc20Addresses",
						"members": [
							{
								"astId": 916,
								"contract": "Storage.sol:Storage",
								"label": "array",
								"offset": 0,
								"slot": "0",
								"type": "t_array(t_address)dyn_storage"
							}
						],
						"numberOfBytes": "32"
					},
					"t_uint16": {
						"encoding": "inplace",
						"label": "uint16",
						"numberOfBytes": "2"
					},
					"t_uint256": {
						"encoding": "inplace",
						"label": "uint256",
						"numberOfBytes": "32"
					}
				}
			},
			"userdoc": {
				"methods": {}
			}
		}
	}
}