{
	"demo.sol": {
		"demoArr": {
			"abi": [
				{
					"inputs": [],
					"name": "WithoutCache",
					"outputs": [],
					"stateMutability": "view",
					"type": "function"
				}
			],
			"devdoc": {
				"kind": "dev",
				"methods": {},
				"version": 1
			},
			"evm": {
				"assembly": "    /* \"demo.sol\":27:105  contract demoArr {... */\n  mstore(0x40, 0x80)\n  callvalue\n  dup1\n  iszero\n  tag_1\n  jumpi\n  0x00\n  dup1\n  revert\ntag_1:\n  pop\n  dataSize(sub_0)\n  dup1\n  dataOffset(sub_0)\n  0x00\n  codecopy\n  0x00\n  return\nstop\n\nsub_0: assembly {\n        /* \"demo.sol\":27:105  contract demoArr {... */\n      mstore(0x40, 0x80)\n      callvalue\n      dup1\n      iszero\n      tag_1\n      jumpi\n      0x00\n      dup1\n      revert\n    tag_1:\n      pop\n      jumpi(tag_2, lt(calldatasize, 0x04))\n      shr(0xe0, calldataload(0x00))\n      dup1\n      0x800188cd\n      eq\n      tag_3\n      jumpi\n    tag_2:\n      0x00\n      dup1\n      revert\n        /* \"demo.sol\":51:103  function WithoutCache() public view {... */\n    tag_3:\n      stop\n\n    auxdata: 0xa2646970667358221220f979440a03ec429f1fb0dd0bfef0dac116bcc0a3b9e15c14f08f80f7329961b964736f6c634300080e0033\n}\n",
				"bytecode": {
					"linkReferences": {},
					"object": "6080604052348015600f57600080fd5b50606580601d6000396000f3fe6080604052348015600f57600080fd5b506004361060285760003560e01c8063800188cd14602d575b600080fd5b00fea2646970667358221220f979440a03ec429f1fb0dd0bfef0dac116bcc0a3b9e15c14f08f80f7329961b964736f6c634300080e0033",
					"opcodes": "PUSH1 0x80 PUSH1 0x40 MSTORE CALLVALUE DUP1 ISZERO PUSH1 0xF JUMPI PUSH1 0x0 DUP1 REVERT JUMPDEST POP PUSH1 0x65 DUP1 PUSH1 0x1D PUSH1 0x0 CODECOPY PUSH1 0x0 RETURN INVALID PUSH1 0x80 PUSH1 0x40 MSTORE CALLVALUE DUP1 ISZERO PUSH1 0xF JUMPI PUSH1 0x0 DUP1 REVERT JUMPDEST POP PUSH1 0x4 CALLDATASIZE LT PUSH1 0x28 JUMPI PUSH1 0x0 CALLDATALOAD PUSH1 0xE0 SHR DUP1 PUSH4 0x800188CD EQ PUSH1 0x2D JUMPI JUMPDEST PUSH1 0x0 DUP1 REVERT JUMPDEST STOP INVALID LOG2 PUSH5 0x6970667358 0x22 SLT KECCAK256 0xF9 PUSH26 0x440A03EC429F1FB0DD0BFEF0DAC116BCC0A3B9E15C14F08F80F7 ORIGIN SWAP10 PUSH2 0xB964 PUSH20 0x6F6C634300080E00330000000000000000000000 "
				},
				"gasEstimates": {
					"creation": {
						"codeDepositCost": "20200",
						"executionCost": "75",
						"totalCost": "20275"
					},
					"external": {
						"WithoutCache()": "98"
					}
				},
				"methodIdentifiers": {
					"WithoutCache()": "800188cd"
				}
			},
			"storageLayout": {
				"storage": [],
				"types": null
			},
			"userdoc": {
				"kind": "user",
				"methods": {},
				"version": 1
			}
		}
	}
}