{
	"Admin.sol": {
		"Admin": {
			"abi": [
				{
					"anonymous": false,
					"inputs": [
						{
							"indexed": true,
							"internalType": "address",
							"name": "admin",
							"type": "address"
						},
						{
							"indexed": true,
							"internalType": "address",
							"name": "contractAddress",
							"type": "address"
						},
						{
							"indexed": true,
							"internalType": "string",
							"name": "functionName",
							"type": "string"
						},
						{
							"indexed": false,
							"internalType": "address",
							"name": "collectionAddress",
							"type": "address"
						},
						{
							"indexed": false,
							"internalType": "uint256",
							"name": "tokenId",
							"type": "uint256"
						}
					],
					"name": "AdminActionPerformed",
					"type": "event"
				},
				{
					"anonymous": false,
					"inputs": [
						{
							"indexed": false,
							"internalType": "address",
							"name": "admin",
							"type": "address"
						},
						{
							"indexed": false,
							"internalType": "uint256",
							"name": "time",
							"type": "uint256"
						}
					],
					"name": "AdminAdded",
					"type": "event"
				},
				{
					"anonymous": false,
					"inputs": [
						{
							"indexed": false,
							"internalType": "address",
							"name": "admin",
							"type": "address"
						},
						{
							"indexed": false,
							"internalType": "uint256",
							"name": "time",
							"type": "uint256"
						}
					],
					"name": "AdminRemoved",
					"type": "event"
				},
				{
					"anonymous": false,
					"inputs": [
						{
							"indexed": true,
							"internalType": "address",
							"name": "collection",
							"type": "address"
						},
						{
							"indexed": true,
							"internalType": "uint256",
							"name": "tokenId",
							"type": "uint256"
						},
						{
							"indexed": true,
							"internalType": "address",
							"name": "admin",
							"type": "address"
						},
						{
							"indexed": false,
							"internalType": "uint256",
							"name": "time",
							"type": "uint256"
						},
						{
							"indexed": false,
							"internalType": "string",
							"name": "tokenURI",
							"type": "string"
						}
					],
					"name": "NFTBurned",
					"type": "event"
				},
				{
					"constant": false,
					"inputs": [
						{
							"internalType": "address",
							"name": "admin",
							"type": "address"
						}
					],
					"name": "addAdmin",
					"outputs": [],
					"payable": false,
					"stateMutability": "nonpayable",
					"type": "function"
				},
				{
					"constant": true,
					"inputs": [
						{
							"internalType": "address",
							"name": "_sender",
							"type": "address"
						}
					],
					"name": "adminExist",
					"outputs": [
						{
							"internalType": "bool",
							"name": "",
							"type": "bool"
						}
					],
					"payable": false,
					"stateMutability": "view",
					"type": "function"
				},
				{
					"constant": true,
					"inputs": [
						{
							"internalType": "uint256",
							"name": "",
							"type": "uint256"
						}
					],
					"name": "admins",
					"outputs": [
						{
							"internalType": "address",
							"name": "",
							"type": "address"
						}
					],
					"payable": false,
					"stateMutability": "view",
					"type": "function"
				},
				{
					"constant": false,
					"inputs": [
						{
							"internalType": "address",
							"name": "collection",
							"type": "address"
						},
						{
							"internalType": "uint256",
							"name": "tokenId",
							"type": "uint256"
						}
					],
					"name": "burnNFT",
					"outputs": [],
					"payable": false,
					"stateMutability": "nonpayable",
					"type": "function"
				},
				{
					"constant": false,
					"inputs": [
						{
							"internalType": "address",
							"name": "_erc20",
							"type": "address"
						},
						{
							"internalType": "address",
							"name": "spender",
							"type": "address"
						},
						{
							"internalType": "uint256",
							"name": "value",
							"type": "uint256"
						}
					],
					"name": "erc20Approve",
					"outputs": [],
					"payable": false,
					"stateMutability": "nonpayable",
					"type": "function"
				},
				{
					"constant": false,
					"inputs": [
						{
							"internalType": "address",
							"name": "_erc20",
							"type": "address"
						},
						{
							"internalType": "address",
							"name": "spender",
							"type": "address"
						},
						{
							"internalType": "uint256",
							"name": "subtractedValue",
							"type": "uint256"
						}
					],
					"name": "erc20DecreaseAllowance",
					"outputs": [],
					"payable": false,
					"stateMutability": "nonpayable",
					"type": "function"
				},
				{
					"constant": false,
					"inputs": [
						{
							"internalType": "address",
							"name": "_erc20",
							"type": "address"
						},
						{
							"internalType": "address",
							"name": "_spender",
							"type": "address"
						},
						{
							"internalType": "uint256",
							"name": "_subtractedValue",
							"type": "uint256"
						}
					],
					"name": "erc20DecreaseApproval",
					"outputs": [],
					"payable": false,
					"stateMutability": "nonpayable",
					"type": "function"
				},
				{
					"constant": false,
					"inputs": [
						{
							"internalType": "address",
							"name": "_erc20",
							"type": "address"
						},
						{
							"internalType": "address",
							"name": "spender",
							"type": "address"
						},
						{
							"internalType": "uint256",
							"name": "addedValue",
							"type": "uint256"
						}
					],
					"name": "erc20IncreaseAllowance",
					"outputs": [],
					"payable": false,
					"stateMutability": "nonpayable",
					"type": "function"
				},
				{
					"constant": false,
					"inputs": [
						{
							"internalType": "address",
							"name": "_erc20",
							"type": "address"
						},
						{
							"internalType": "address",
							"name": "spender",
							"type": "address"
						},
						{
							"internalType": "uint256",
							"name": "addedValue",
							"type": "uint256"
						}
					],
					"name": "erc20IncreaseApproval",
					"outputs": [],
					"payable": false,
					"stateMutability": "nonpayable",
					"type": "function"
				},
				{
					"constant": false,
					"inputs": [
						{
							"internalType": "address",
							"name": "_erc20",
							"type": "address"
						},
						{
							"internalType": "address",
							"name": "to",
							"type": "address"
						},
						{
							"internalType": "uint256",
							"name": "value",
							"type": "uint256"
						}
					],
					"name": "erc20Transfer",
					"outputs": [],
					"payable": false,
					"stateMutability": "nonpayable",
					"type": "function"
				},
				{
					"constant": false,
					"inputs": [
						{
							"internalType": "address",
							"name": "_erc20",
							"type": "address"
						},
						{
							"internalType": "address",
							"name": "from",
							"type": "address"
						},
						{
							"internalType": "address",
							"name": "to",
							"type": "address"
						},
						{
							"internalType": "uint256",
							"name": "value",
							"type": "uint256"
						}
					],
					"name": "erc20TransferFrom",
					"outputs": [],
					"payable": false,
					"stateMutability": "nonpayable",
					"type": "function"
				},
				{
					"constant": false,
					"inputs": [
						{
							"internalType": "address",
							"name": "_ERC721Address",
							"type": "address"
						},
						{
							"internalType": "address",
							"name": "_to",
							"type": "address"
						},
						{
							"internalType": "uint256",
							"name": "_tokenId",
							"type": "uint256"
						}
					],
					"name": "erc721Approve",
					"outputs": [],
					"payable": false,
					"stateMutability": "nonpayable",
					"type": "function"
				},
				{
					"constant": false,
					"inputs": [
						{
							"internalType": "address",
							"name": "_ERC721Address",
							"type": "address"
						},
						{
							"internalType": "uint256",
							"name": "tokenId",
							"type": "uint256"
						}
					],
					"name": "erc721Burn",
					"outputs": [],
					"payable": false,
					"stateMutability": "nonpayable",
					"type": "function"
				},
				{
					"constant": false,
					"inputs": [
						{
							"internalType": "address",
							"name": "_ERC721Address",
							"type": "address"
						},
						{
							"internalType": "string",
							"name": "tokenURI",
							"type": "string"
						},
						{
							"internalType": "uint256",
							"name": "_royality",
							"type": "uint256"
						}
					],
					"name": "erc721Mint",
					"outputs": [],
					"payable": false,
					"stateMutability": "nonpayable",
					"type": "function"
				},
				{
					"constant": false,
					"inputs": [
						{
							"internalType": "address",
							"name": "_ERC721Address",
							"type": "address"
						},
						{
							"internalType": "address",
							"name": "from",
							"type": "address"
						},
						{
							"internalType": "address",
							"name": "to",
							"type": "address"
						},
						{
							"internalType": "uint256",
							"name": "tokenId",
							"type": "uint256"
						},
						{
							"internalType": "bytes",
							"name": "_data",
							"type": "bytes"
						}
					],
					"name": "erc721SafeTransferFrom",
					"outputs": [],
					"payable": false,
					"stateMutability": "nonpayable",
					"type": "function"
				},
				{
					"constant": false,
					"inputs": [
						{
							"internalType": "address",
							"name": "_ERC721Address",
							"type": "address"
						},
						{
							"internalType": "address",
							"name": "from",
							"type": "address"
						},
						{
							"internalType": "address",
							"name": "to",
							"type": "address"
						},
						{
							"internalType": "uint256",
							"name": "tokenId",
							"type": "uint256"
						}
					],
					"name": "erc721SafeTransferFrom",
					"outputs": [],
					"payable": false,
					"stateMutability": "nonpayable",
					"type": "function"
				},
				{
					"constant": false,
					"inputs": [
						{
							"internalType": "address",
							"name": "_ERC721Address",
							"type": "address"
						},
						{
							"internalType": "address",
							"name": "_to",
							"type": "address"
						},
						{
							"internalType": "uint256",
							"name": "_tokenId",
							"type": "uint256"
						}
					],
					"name": "erc721Transfer",
					"outputs": [],
					"payable": false,
					"stateMutability": "nonpayable",
					"type": "function"
				},
				{
					"constant": false,
					"inputs": [
						{
							"internalType": "address",
							"name": "_ERC721Address",
							"type": "address"
						},
						{
							"internalType": "address",
							"name": "from",
							"type": "address"
						},
						{
							"internalType": "address",
							"name": "to",
							"type": "address"
						},
						{
							"internalType": "uint256",
							"name": "tokenId",
							"type": "uint256"
						}
					],
					"name": "erc721TransferFrom",
					"outputs": [],
					"payable": false,
					"stateMutability": "nonpayable",
					"type": "function"
				},
				{
					"constant": true,
					"inputs": [],
					"name": "getAdmins",
					"outputs": [
						{
							"internalType": "address[]",
							"name": "",
							"type": "address[]"
						}
					],
					"payable": false,
					"stateMutability": "view",
					"type": "function"
				},
				{
					"constant": true,
					"inputs": [],
					"name": "isOwner",
					"outputs": [
						{
							"internalType": "bool",
							"name": "",
							"type": "bool"
						}
					],
					"payable": false,
					"stateMutability": "view",
					"type": "function"
				},
				{
					"constant": true,
					"inputs": [],
					"name": "owner",
					"outputs": [
						{
							"internalType": "address",
							"name": "",
							"type": "address"
						}
					],
					"payable": false,
					"stateMutability": "view",
					"type": "function"
				},
				{
					"constant": false,
					"inputs": [
						{
							"internalType": "address",
							"name": "admin",
							"type": "address"
						}
					],
					"name": "removeAdmin",
					"outputs": [],
					"payable": false,
					"stateMutability": "nonpayable",
					"type": "function"
				},
				{
					"constant": false,
					"inputs": [
						{
							"internalType": "address",
							"name": "newOwner",
							"type": "address"
						}
					],
					"name": "transferOwnership",
					"outputs": [],
					"payable": false,
					"stateMutability": "nonpayable",
					"type": "function"
				}
			],
			"devdoc": {
				"methods": {
					"isOwner()": {
						"details": "Returns true if the caller is the current owner."
					},
					"owner()": {
						"details": "Returns the address of the current owner."
					},
					"transferOwnership(address)": {
						"details": "Transfers ownership of the contract to a new account (`newOwner`). Can only be called by the current owner."
					}
				}
			},
			"evm": {
				"assembly": "    /* \"Admin.sol\":2361:3240  FunctionNames(... */\n  0x0e\n  0x03c0\n  dup2\n  dup2\n  mstore\n  shl(0x90, 0x4552433732313a617070726f7665)\n  0x03e0\n  swap1\n  dup2\n  mstore\n    /* \"Admin.sol\":1015:11177  contract Admin is Ownable{... */\n  0x80\n    /* \"Admin.sol\":2361:3240  FunctionNames(... */\n  swap2\n  dup3\n  mstore\n  0x0f\n  0x0400\n  swap1\n  dup2\n  mstore\n  mstore(0x0420, shl(0x89, 0x22a9219b99189d3a3930b739b332b9))\n  0xa0\n  mstore\n  0x0b\n  0x0440\n  dup2\n  dup2\n  mstore\n  mstore(0x0460, shl(0xa9, 0x22a9219b99189d313ab937))\n  0xc0\n  mstore\n  0x0480\n  swap1\n  dup2\n  mstore\n  mstore(0x04a0, shl(0xaa, 0x115490cdcc8c4e9b5a5b9d))\n  0xe0\n  mstore\n  0x17\n  0x04c0\n  dup2\n  dup2\n  mstore\n  mstore(0x04e0, 0x4552433732313a736166655472616e7366657246726f6d000000000000000000)\n  0x0100\n  mstore\n  0x13\n  0x0500\n  dup2\n  dup2\n  mstore\n  mstore(0x0520, 0x4552433732313a7472616e7366657246726f6d00000000000000000000000000)\n  0x0120\n  mstore\n  0x10\n  0x0540\n  dup2\n  dup2\n  mstore\n  mstore(0x0560, shl(0x80, 0x42726f6b65723a7075744f6e53616c65))\n  0x0140\n  mstore\n  0x0a\n  0x0580\n  dup2\n  dup2\n  mstore\n  mstore(0x05a0, shl(0xb0, 0x42726f6b65723a627579))\n  0x0160\n  mstore\n  0x05c0\n  swap1\n  dup2\n  mstore\n  mstore(0x05e0, shl(0xb2, 0x109c9bdad95c8e989a59))\n  0x0180\n  mstore\n  0x0600\n  dup7\n  dup2\n  mstore\n  mstore(0x0620, shl(0x92, 0x109c9bdad95c8e98dbdb1b1958dd))\n  0x01a0\n  mstore\n  0x12\n  0x0640\n  dup2\n  dup2\n  mstore\n  mstore(0x0660, shl(0x70, 0x42726f6b65723a7570646174655072696365))\n  0x01c0\n  mstore\n  0x11\n  0x0680\n  dup2\n  dup2\n  mstore\n  mstore(0x06a0, shl(0x79, 0x213937b5b2b91d383aba29b0b632a7b333))\n  0x01e0\n  mstore\n  0x06c0\n  dup3\n  dup2\n  mstore\n  mstore(0x06e0, shl(0x71, 0x213937b5b2b91d36b0b5b2a0b727b33332b9))\n  0x0200\n  mstore\n  0x0700\n  dup3\n  dup2\n  mstore\n  mstore(0x0720, shl(0x71, 0x213937b5b2b91d30b1b1b832ba27b33332b9))\n  0x0220\n  mstore\n  0x0740\n  dup3\n  dup2\n  mstore\n  mstore(0x0760, shl(0x71, 0x213937b5b2b91d3932bb32b93a27b33332b9))\n  0x0240\n  mstore\n  0x0780\n  swap3\n  dup4\n  mstore\n  mstore(0x07a0, shl(0x82, 0x109c9bdad95c8e9c995d995c9d105b1b))\n  0x0260\n  swap3\n  swap1\n  swap3\n  mstore\n  0x07c0\n  swap3\n  dup4\n  mstore\n  mstore(0x07e0, 0x42726f6b65723a62617463684c697374696e6700000000000000000000000000)\n  0x0280\n  swap3\n  swap1\n  swap3\n  mstore\n  0x15\n  0x0800\n  swap1\n  dup2\n  mstore\n  mstore(0x0820, 0x42726f6b65723a626174636844656c697374696e670000000000000000000000)\n  0x02a0\n  mstore\n  0x0840\n  swap1\n  dup2\n  mstore\n  mstore(0x0860, shl(0x78, 0x42726f6b65723a73657441646472657373))\n  0x02c0\n  mstore\n  0x0d\n  0x0880\n  swap1\n  dup2\n  mstore\n  mstore(0x08a0, shl(0x98, 0x45524332303a617070726f7665))\n  0x02e0\n  mstore\n  0x16\n  0x08c0\n  dup2\n  dup2\n  mstore\n  mstore(0x08e0, 0x45524332303a6465637265617365417070726f76616c00000000000000000000)\n  0x0300\n  mstore\n  0x0900\n  swap1\n  dup2\n  mstore\n  mstore(0x0920, 0x45524332303a696e637265617365417070726f76616c00000000000000000000)\n  0x0320\n  mstore\n  0x0940\n  dup6\n  dup2\n  mstore\n  mstore(0x0960, shl(0x91, 0x22a92199181d3a3930b739b332b9))\n  0x0340\n  mstore\n  0x0980\n  swap1\n  dup2\n  mstore\n  mstore(0x09a0, shl(0x70, 0x45524332303a7472616e7366657246726f6d))\n  0x0360\n  mstore\n  0x09c0\n  dup2\n  dup2\n  mstore\n  mstore(0x09e0, 0x45524332303a696e637265617365416c6c6f77616e6365000000000000000000)\n  0x0380\n  mstore\n  0x0a40\n    /* \"Admin.sol\":1015:11177  contract Admin is Ownable{... */\n  0x40\n    /* \"Admin.sol\":2361:3240  FunctionNames(... */\n  mstore\n  0x0a00\n  swap1\n  dup2\n  mstore\n  mstore(0x0a20, 0x45524332303a6465637265617365416c6c6f77616e6365000000000000000000)\n  0x03a0\n  mstore\n    /* \"Admin.sol\":1015:11177  contract Admin is Ownable{... */\n  swap1\n  swap2\n    /* \"Admin.sol\":2323:3240  FunctionNames functionNames =... */\n  0x01\n  swap2\n  tag_1\n  swap2\n  dup4\n  swap2\n    /* \"Admin.sol\":2361:3240  FunctionNames(... */\n  swap1\n    /* \"Admin.sol\":2323:3240  FunctionNames functionNames =... */\n  tag_2\n  jump\t// in\ntag_1:\n  pop\n  0x20\n  dup3\n  dup2\n  add\n  mload\n  dup1\n  mload\n  tag_3\n  swap3\n  0x01\n  dup6\n  add\n  swap3\n  add\n  swap1\n  tag_2\n  jump\t// in\ntag_3:\n  pop\n  0x40\n  dup3\n  add\n  mload\n  dup1\n  mload\n  tag_4\n  swap2\n  0x02\n  dup5\n  add\n  swap2\n  0x20\n  swap1\n  swap2\n  add\n  swap1\n  tag_2\n  jump\t// in\ntag_4:\n  pop\n  0x60\n  dup3\n  add\n  mload\n  dup1\n  mload\n  tag_5\n  swap2\n  0x03\n  dup5\n  add\n  swap2\n  0x20\n  swap1\n  swap2\n  add\n  swap1\n  tag_2\n  jump\t// in\ntag_5:\n  pop\n  0x80\n  dup3\n  add\n  mload\n  dup1\n  mload\n  tag_6\n  swap2\n  0x04\n  dup5\n  add\n  swap2\n  0x20\n  swap1\n  swap2\n  add\n  swap1\n  tag_2\n  jump\t// in\ntag_6:\n  pop\n  0xa0\n  dup3\n  add\n  mload\n  dup1\n  mload\n  tag_7\n  swap2\n  0x05\n  dup5\n  add\n  swap2\n  0x20\n  swap1\n  swap2\n  add\n  swap1\n  tag_2\n  jump\t// in\ntag_7:\n  pop\n  0xc0\n  dup3\n  add\n  mload\n  dup1\n  mload\n  tag_8\n  swap2\n  0x06\n  dup5\n  add\n  swap2\n  0x20\n  swap1\n  swap2\n  add\n  swap1\n  tag_2\n  jump\t// in\ntag_8:\n  pop\n  0xe0\n  dup3\n  add\n  mload\n  dup1\n  mload\n  tag_9\n  swap2\n  0x07\n  dup5\n  add\n  swap2\n  0x20\n  swap1\n  swap2\n  add\n  swap1\n  tag_2\n  jump\t// in\ntag_9:\n  pop\n  0x0100\n  dup3\n  add\n  mload\n  dup1\n  mload\n  tag_10\n  swap2\n  0x08\n  dup5\n  add\n  swap2\n  0x20\n  swap1\n  swap2\n  add\n  swap1\n  tag_2\n  jump\t// in\ntag_10:\n  pop\n  0x0120\n  dup3\n  add\n  mload\n  dup1\n  mload\n  tag_11\n  swap2\n  0x09\n  dup5\n  add\n  swap2\n  0x20\n  swap1\n  swap2\n  add\n  swap1\n  tag_2\n  jump\t// in\ntag_11:\n  pop\n  0x0140\n  dup3\n  add\n  mload\n  dup1\n  mload\n  tag_12\n  swap2\n  0x0a\n  dup5\n  add\n  swap2\n  0x20\n  swap1\n  swap2\n  add\n  swap1\n  tag_2\n  jump\t// in\ntag_12:\n  pop\n  0x0160\n  dup3\n  add\n  mload\n  dup1\n  mload\n  tag_13\n  swap2\n  0x0b\n  dup5\n  add\n  swap2\n  0x20\n  swap1\n  swap2\n  add\n  swap1\n  tag_2\n  jump\t// in\ntag_13:\n  pop\n  0x0180\n  dup3\n  add\n  mload\n  dup1\n  mload\n  tag_14\n  swap2\n  0x0c\n  dup5\n  add\n  swap2\n  0x20\n  swap1\n  swap2\n  add\n  swap1\n  tag_2\n  jump\t// in\ntag_14:\n  pop\n  0x01a0\n  dup3\n  add\n  mload\n  dup1\n  mload\n  tag_15\n  swap2\n  0x0d\n  dup5\n  add\n  swap2\n  0x20\n  swap1\n  swap2\n  add\n  swap1\n  tag_2\n  jump\t// in\ntag_15:\n  pop\n  0x01c0\n  dup3\n  add\n  mload\n  dup1\n  mload\n  tag_16\n  swap2\n  0x0e\n  dup5\n  add\n  swap2\n  0x20\n  swap1\n  swap2\n  add\n  swap1\n  tag_2\n  jump\t// in\ntag_16:\n  pop\n  0x01e0\n  dup3\n  add\n  mload\n  dup1\n  mload\n  tag_17\n  swap2\n  0x0f\n  dup5\n  add\n  swap2\n  0x20\n  swap1\n  swap2\n  add\n  swap1\n  tag_2\n  jump\t// in\ntag_17:\n  pop\n  0x0200\n  dup3\n  add\n  mload\n  dup1\n  mload\n  tag_18\n  swap2\n  0x10\n  dup5\n  add\n  swap2\n  0x20\n  swap1\n  swap2\n  add\n  swap1\n  tag_2\n  jump\t// in\ntag_18:\n  pop\n  0x0220\n  dup3\n  add\n  mload\n  dup1\n  mload\n  tag_19\n  swap2\n  0x11\n  dup5\n  add\n  swap2\n  0x20\n  swap1\n  swap2\n  add\n  swap1\n  tag_2\n  jump\t// in\ntag_19:\n  pop\n  0x0240\n  dup3\n  add\n  mload\n  dup1\n  mload\n  tag_20\n  swap2\n  0x12\n  dup5\n  add\n  swap2\n  0x20\n  swap1\n  swap2\n  add\n  swap1\n  tag_2\n  jump\t// in\ntag_20:\n  pop\n  0x0260\n  dup3\n  add\n  mload\n  dup1\n  mload\n  tag_21\n  swap2\n  0x13\n  dup5\n  add\n  swap2\n  0x20\n  swap1\n  swap2\n  add\n  swap1\n  tag_2\n  jump\t// in\ntag_21:\n  pop\n  0x0280\n  dup3\n  add\n  mload\n  dup1\n  mload\n  tag_22\n  swap2\n  0x14\n  dup5\n  add\n  swap2\n  0x20\n  swap1\n  swap2\n  add\n  swap1\n  tag_2\n  jump\t// in\ntag_22:\n  pop\n  0x02a0\n  dup3\n  add\n  mload\n  dup1\n  mload\n  tag_23\n  swap2\n  0x15\n  dup5\n  add\n  swap2\n  0x20\n  swap1\n  swap2\n  add\n  swap1\n  tag_2\n  jump\t// in\ntag_23:\n  pop\n  0x02c0\n  dup3\n  add\n  mload\n  dup1\n  mload\n  tag_24\n  swap2\n  0x16\n  dup5\n  add\n  swap2\n  0x20\n  swap1\n  swap2\n  add\n  swap1\n  tag_2\n  jump\t// in\ntag_24:\n  pop\n  0x02e0\n  dup3\n  add\n  mload\n  dup1\n  mload\n  tag_25\n  swap2\n  0x17\n  dup5\n  add\n  swap2\n  0x20\n  swap1\n  swap2\n  add\n  swap1\n  tag_2\n  jump\t// in\ntag_25:\n  pop\n  0x0300\n  dup3\n  add\n  mload\n  dup1\n  mload\n  tag_26\n  swap2\n  0x18\n  dup5\n  add\n  swap2\n  0x20\n  swap1\n  swap2\n  add\n  swap1\n  tag_2\n  jump\t// in\ntag_26:\n  pop\n  0x0320\n  dup3\n  add\n  mload\n  dup1\n  mload\n  tag_27\n  swap2\n  0x19\n  dup5\n  add\n  swap2\n  0x20\n  swap1\n  swap2\n  add\n  swap1\n  tag_2\n  jump\t// in\ntag_27:\n  pop\n  pop\n    /* \"ownable.sol\":706:712  _owner */\n  0x00\n    /* \"ownable.sol\":706:725  _owner = msg.sender */\n  dup1\n  sload\n  not(sub(shl(0xa0, 0x01), 0x01))\n  and\n    /* \"ownable.sol\":715:725  msg.sender */\n  caller\n    /* \"ownable.sol\":706:725  _owner = msg.sender */\n  or\n  swap1\n  sstore\n  pop\n    /* \"Admin.sol\":1015:11177  contract Admin is Ownable{... */\n  jump(tag_30)\ntag_2:\n  dup3\n  dup1\n  sload\n  0x01\n  dup2\n  0x01\n  and\n  iszero\n  0x0100\n  mul\n  sub\n  and\n  0x02\n  swap1\n  div\n  swap1\n  0x00\n  mstore\n  keccak256(0x00, 0x20)\n  swap1\n  0x1f\n  add\n  0x20\n  swap1\n  div\n  dup2\n  add\n  swap3\n  dup3\n  0x1f\n  lt\n  tag_32\n  jumpi\n  dup1\n  mload\n  not(0xff)\n  and\n  dup4\n  dup1\n  add\n  or\n  dup6\n  sstore\n  jump(tag_34)\ntag_32:\n  dup3\n  dup1\n  add\n  0x01\n  add\n  dup6\n  sstore\n  dup3\n  iszero\n  tag_34\n  jumpi\n  swap2\n  dup3\n  add\ntag_33:\n  dup3\n  dup2\n  gt\n  iszero\n  tag_34\n  jumpi\n  dup3\n  mload\n  dup3\n  sstore\n  swap2\n  0x20\n  add\n  swap2\n  swap1\n  0x01\n  add\n  swap1\n  jump(tag_33)\ntag_34:\n  pop\n  tag_35\n  swap3\n  swap2\n  pop\n  tag_36\n  jump\t// in\ntag_35:\n  pop\n  swap1\n  jump\t// out\ntag_36:\n  tag_37\n  swap2\n  swap1\ntag_38:\n  dup1\n  dup3\n  gt\n  iszero\n  tag_35\n  jumpi\n  0x00\n  dup2\n  sstore\n  0x01\n  add\n  jump(tag_38)\ntag_37:\n  swap1\n  jump\t// out\ntag_30:\n  dataSize(sub_0)\n  dup1\n  dataOffset(sub_0)\n  0x00\n  codecopy\n  0x00\n  return\nstop\n\nsub_0: assembly {\n        /* \"Admin.sol\":1015:11177  contract Admin is Ownable{... */\n      mstore(0x40, 0x80)\n      callvalue\n        /* \"--CODEGEN--\":8:17   */\n      dup1\n        /* \"--CODEGEN--\":5:7   */\n      iszero\n      tag_1\n      jumpi\n        /* \"--CODEGEN--\":30:31   */\n      0x00\n        /* \"--CODEGEN--\":27:28   */\n      dup1\n        /* \"--CODEGEN--\":20:32   */\n      revert\n        /* \"--CODEGEN--\":5:7   */\n    tag_1:\n        /* \"Admin.sol\":1015:11177  contract Admin is Ownable{... */\n      pop\n      jumpi(tag_2, lt(calldatasize, 0x04))\n      shr(0xe0, calldataload(0x00))\n      dup1\n      0x4a0aafda\n      gt\n      tag_26\n      jumpi\n      dup1\n      0xace561a8\n      gt\n      tag_27\n      jumpi\n      dup1\n      0xf2fde38b\n      gt\n      tag_28\n      jumpi\n      dup1\n      0xf2fde38b\n      eq\n      tag_23\n      jumpi\n      dup1\n      0xfba08d45\n      eq\n      tag_24\n      jumpi\n      dup1\n      0xfddea900\n      eq\n      tag_25\n      jumpi\n      jump(tag_2)\n    tag_28:\n      dup1\n      0xace561a8\n      eq\n      tag_20\n      jumpi\n      dup1\n      0xb6011b4c\n      eq\n      tag_21\n      jumpi\n      dup1\n      0xc347f69b\n      eq\n      tag_22\n      jumpi\n      jump(tag_2)\n    tag_27:\n      dup1\n      0x8da5cb5b\n      gt\n      tag_29\n      jumpi\n      dup1\n      0x8da5cb5b\n      eq\n      tag_17\n      jumpi\n      dup1\n      0x8f32d59b\n      eq\n      tag_18\n      jumpi\n      dup1\n      0x9dc6b78d\n      eq\n      tag_19\n      jumpi\n      jump(tag_2)\n    tag_29:\n      dup1\n      0x4a0aafda\n      eq\n      tag_14\n      jumpi\n      dup1\n      0x70480275\n      eq\n      tag_15\n      jumpi\n      dup1\n      0x8450ebe4\n      eq\n      tag_16\n      jumpi\n      jump(tag_2)\n    tag_26:\n      dup1\n      0x1afffec0\n      gt\n      tag_30\n      jumpi\n      dup1\n      0x47fcf018\n      gt\n      tag_31\n      jumpi\n      dup1\n      0x47fcf018\n      eq\n      tag_11\n      jumpi\n      dup1\n      0x485f952e\n      eq\n      tag_12\n      jumpi\n      dup1\n      0x488b0f7d\n      eq\n      tag_13\n      jumpi\n      jump(tag_2)\n    tag_31:\n      dup1\n      0x1afffec0\n      eq\n      tag_8\n      jumpi\n      dup1\n      0x31ae450b\n      eq\n      tag_9\n      jumpi\n      dup1\n      0x3790767d\n      eq\n      tag_10\n      jumpi\n      jump(tag_2)\n    tag_30:\n      dup1\n      0x14bfd6d0\n      gt\n      tag_32\n      jumpi\n      dup1\n      0x14bfd6d0\n      eq\n      tag_5\n      jumpi\n      dup1\n      0x1785f53c\n      eq\n      tag_6\n      jumpi\n      dup1\n      0x18fa0653\n      eq\n      tag_7\n      jumpi\n      jump(tag_2)\n    tag_32:\n      dup1\n      0x0a1b0b91\n      eq\n      tag_3\n      jumpi\n      dup1\n      0x0c82ea1a\n      eq\n      tag_4\n      jumpi\n    tag_2:\n      0x00\n      dup1\n      revert\n        /* \"Admin.sol\":9893:10300  function erc20TransferFrom(... */\n    tag_3:\n      tag_33\n      0x04\n      dup1\n      calldatasize\n      sub\n        /* \"--CODEGEN--\":13:16   */\n      0x80\n        /* \"--CODEGEN--\":8:11   */\n      dup2\n        /* \"--CODEGEN--\":5:17   */\n      lt\n        /* \"--CODEGEN--\":2:4   */\n      iszero\n      tag_34\n      jumpi\n        /* \"--CODEGEN--\":30:31   */\n      0x00\n        /* \"--CODEGEN--\":27:28   */\n      dup1\n        /* \"--CODEGEN--\":20:32   */\n      revert\n        /* \"--CODEGEN--\":2:4   */\n    tag_34:\n      pop\n        /* \"Admin.sol\":9893:10300  function erc20TransferFrom(... */\n      0xffffffffffffffffffffffffffffffffffffffff\n      dup2\n      calldataload\n      dup2\n      and\n      swap2\n      0x20\n      dup2\n      add\n      calldataload\n      dup3\n      and\n      swap2\n      0x40\n      dup3\n      add\n      calldataload\n      and\n      swap1\n      0x60\n      add\n      calldataload\n      tag_35\n      jump\t// in\n    tag_33:\n      stop\n        /* \"Admin.sol\":10736:11175  function erc20DecreaseAllowance(... */\n    tag_4:\n      tag_33\n      0x04\n      dup1\n      calldatasize\n      sub\n        /* \"--CODEGEN--\":13:15   */\n      0x60\n        /* \"--CODEGEN--\":8:11   */\n      dup2\n        /* \"--CODEGEN--\":5:16   */\n      lt\n        /* \"--CODEGEN--\":2:4   */\n      iszero\n      tag_37\n      jumpi\n        /* \"--CODEGEN--\":29:30   */\n      0x00\n        /* \"--CODEGEN--\":26:27   */\n      dup1\n        /* \"--CODEGEN--\":19:31   */\n      revert\n        /* \"--CODEGEN--\":2:4   */\n    tag_37:\n      pop\n        /* \"Admin.sol\":10736:11175  function erc20DecreaseAllowance(... */\n      0xffffffffffffffffffffffffffffffffffffffff\n      dup2\n      calldataload\n      dup2\n      and\n      swap2\n      0x20\n      dup2\n      add\n      calldataload\n      swap1\n      swap2\n      and\n      swap1\n      0x40\n      add\n      calldataload\n      tag_38\n      jump\t// in\n        /* \"Admin.sol\":3256:3279  address[] public admins */\n    tag_5:\n      tag_39\n      0x04\n      dup1\n      calldatasize\n      sub\n        /* \"--CODEGEN--\":13:15   */\n      0x20\n        /* \"--CODEGEN--\":8:11   */\n      dup2\n        /* \"--CODEGEN--\":5:16   */\n      lt\n        /* \"--CODEGEN--\":2:4   */\n      iszero\n      tag_40\n      jumpi\n        /* \"--CODEGEN--\":29:30   */\n      0x00\n        /* \"--CODEGEN--\":26:27   */\n      dup1\n        /* \"--CODEGEN--\":19:31   */\n      revert\n        /* \"--CODEGEN--\":2:4   */\n    tag_40:\n      pop\n        /* \"Admin.sol\":3256:3279  address[] public admins */\n      calldataload\n      tag_41\n      jump\t// in\n    tag_39:\n      0x40\n      dup1\n      mload\n      0xffffffffffffffffffffffffffffffffffffffff\n      swap1\n      swap3\n      and\n      dup3\n      mstore\n      mload\n      swap1\n      dup2\n      swap1\n      sub\n      0x20\n      add\n      swap1\n      return\n        /* \"Admin.sol\":4182:4517  function removeAdmin(address admin) public onlyOwner {... */\n    tag_6:\n      tag_33\n      0x04\n      dup1\n      calldatasize\n      sub\n        /* \"--CODEGEN--\":13:15   */\n      0x20\n        /* \"--CODEGEN--\":8:11   */\n      dup2\n        /* \"--CODEGEN--\":5:16   */\n      lt\n        /* \"--CODEGEN--\":2:4   */\n      iszero\n      tag_43\n      jumpi\n        /* \"--CODEGEN--\":29:30   */\n      0x00\n        /* \"--CODEGEN--\":26:27   */\n      dup1\n        /* \"--CODEGEN--\":19:31   */\n      revert\n        /* \"--CODEGEN--\":2:4   */\n    tag_43:\n      pop\n        /* \"Admin.sol\":4182:4517  function removeAdmin(address admin) public onlyOwner {... */\n      calldataload\n      0xffffffffffffffffffffffffffffffffffffffff\n      and\n      tag_44\n      jump\t// in\n        /* \"Admin.sol\":5125:5547  function erc721Approve(... */\n    tag_7:\n      tag_33\n      0x04\n      dup1\n      calldatasize\n      sub\n        /* \"--CODEGEN--\":13:15   */\n      0x60\n        /* \"--CODEGEN--\":8:11   */\n      dup2\n        /* \"--CODEGEN--\":5:16   */\n      lt\n        /* \"--CODEGEN--\":2:4   */\n      iszero\n      tag_46\n      jumpi\n        /* \"--CODEGEN--\":29:30   */\n      0x00\n        /* \"--CODEGEN--\":26:27   */\n      dup1\n        /* \"--CODEGEN--\":19:31   */\n      revert\n        /* \"--CODEGEN--\":2:4   */\n    tag_46:\n      pop\n        /* \"Admin.sol\":5125:5547  function erc721Approve(... */\n      0xffffffffffffffffffffffffffffffffffffffff\n      dup2\n      calldataload\n      dup2\n      and\n      swap2\n      0x20\n      dup2\n      add\n      calldataload\n      swap1\n      swap2\n      and\n      swap1\n      0x40\n      add\n      calldataload\n      tag_47\n      jump\t// in\n        /* \"Admin.sol\":9093:9514  function erc20IncreaseApproval(... */\n    tag_8:\n      tag_33\n      0x04\n      dup1\n      calldatasize\n      sub\n        /* \"--CODEGEN--\":13:15   */\n      0x60\n        /* \"--CODEGEN--\":8:11   */\n      dup2\n        /* \"--CODEGEN--\":5:16   */\n      lt\n        /* \"--CODEGEN--\":2:4   */\n      iszero\n      tag_49\n      jumpi\n        /* \"--CODEGEN--\":29:30   */\n      0x00\n        /* \"--CODEGEN--\":26:27   */\n      dup1\n        /* \"--CODEGEN--\":19:31   */\n      revert\n        /* \"--CODEGEN--\":2:4   */\n    tag_49:\n      pop\n        /* \"Admin.sol\":9093:9514  function erc20IncreaseApproval(... */\n      0xffffffffffffffffffffffffffffffffffffffff\n      dup2\n      calldataload\n      dup2\n      and\n      swap2\n      0x20\n      dup2\n      add\n      calldataload\n      swap1\n      swap2\n      and\n      swap1\n      0x40\n      add\n      calldataload\n      tag_50\n      jump\t// in\n        /* \"Admin.sol\":4085:4175  function getAdmins() public view returns (address[] memory) {... */\n    tag_9:\n      tag_51\n      tag_52\n      jump\t// in\n    tag_51:\n      0x40\n      dup1\n      mload\n      0x20\n      dup1\n      dup3\n      mstore\n      dup4\n      mload\n      dup2\n      dup4\n      add\n      mstore\n      dup4\n      mload\n      swap2\n      swap3\n      dup4\n      swap3\n      swap1\n      dup4\n      add\n      swap2\n      dup6\n      dup2\n      add\n      swap2\n      mul\n      dup1\n      dup4\n      dup4\n      0x00\n        /* \"--CODEGEN--\":8:108   */\n    tag_53:\n        /* \"--CODEGEN--\":33:36   */\n      dup4\n        /* \"--CODEGEN--\":30:31   */\n      dup2\n        /* \"--CODEGEN--\":27:37   */\n      lt\n        /* \"--CODEGEN--\":8:108   */\n      iszero\n      tag_55\n      jumpi\n        /* \"--CODEGEN--\":90:101   */\n      dup2\n      dup2\n      add\n        /* \"--CODEGEN--\":84:102   */\n      mload\n        /* \"--CODEGEN--\":71:82   */\n      dup4\n      dup3\n      add\n        /* \"--CODEGEN--\":64:103   */\n      mstore\n        /* \"--CODEGEN--\":52:54   */\n      0x20\n        /* \"--CODEGEN--\":45:55   */\n      add\n        /* \"--CODEGEN--\":8:108   */\n      jump(tag_53)\n    tag_55:\n        /* \"--CODEGEN--\":12:26   */\n      pop\n        /* \"Admin.sol\":4085:4175  function getAdmins() public view returns (address[] memory) {... */\n      pop\n      pop\n      pop\n      swap1\n      pop\n      add\n      swap3\n      pop\n      pop\n      pop\n      mload(0x40)\n      dup1\n      swap2\n      sub\n      swap1\n      return\n        /* \"Admin.sol\":9520:9887  function erc20Transfer(... */\n    tag_10:\n      tag_33\n      0x04\n      dup1\n      calldatasize\n      sub\n        /* \"--CODEGEN--\":13:15   */\n      0x60\n        /* \"--CODEGEN--\":8:11   */\n      dup2\n        /* \"--CODEGEN--\":5:16   */\n      lt\n        /* \"--CODEGEN--\":2:4   */\n      iszero\n      tag_57\n      jumpi\n        /* \"--CODEGEN--\":29:30   */\n      0x00\n        /* \"--CODEGEN--\":26:27   */\n      dup1\n        /* \"--CODEGEN--\":19:31   */\n      revert\n        /* \"--CODEGEN--\":2:4   */\n    tag_57:\n      pop\n        /* \"Admin.sol\":9520:9887  function erc20Transfer(... */\n      0xffffffffffffffffffffffffffffffffffffffff\n      dup2\n      calldataload\n      dup2\n      and\n      swap2\n      0x20\n      dup2\n      add\n      calldataload\n      swap1\n      swap2\n      and\n      swap1\n      0x40\n      add\n      calldataload\n      tag_58\n      jump\t// in\n        /* \"Admin.sol\":4523:5059  function burnNFT(address collection, uint256 tokenId)... */\n    tag_11:\n      tag_33\n      0x04\n      dup1\n      calldatasize\n      sub\n        /* \"--CODEGEN--\":13:15   */\n      0x40\n        /* \"--CODEGEN--\":8:11   */\n      dup2\n        /* \"--CODEGEN--\":5:16   */\n      lt\n        /* \"--CODEGEN--\":2:4   */\n      iszero\n      tag_60\n      jumpi\n        /* \"--CODEGEN--\":29:30   */\n      0x00\n        /* \"--CODEGEN--\":26:27   */\n      dup1\n        /* \"--CODEGEN--\":19:31   */\n      revert\n        /* \"--CODEGEN--\":2:4   */\n    tag_60:\n      pop\n        /* \"Admin.sol\":4523:5059  function burnNFT(address collection, uint256 tokenId)... */\n      0xffffffffffffffffffffffffffffffffffffffff\n      dup2\n      calldataload\n      and\n      swap1\n      0x20\n      add\n      calldataload\n      tag_61\n      jump\t// in\n        /* \"Admin.sol\":5984:6366  function erc721Burn(address _ERC721Address, uint256 tokenId)... */\n    tag_12:\n      tag_33\n      0x04\n      dup1\n      calldatasize\n      sub\n        /* \"--CODEGEN--\":13:15   */\n      0x40\n        /* \"--CODEGEN--\":8:11   */\n      dup2\n        /* \"--CODEGEN--\":5:16   */\n      lt\n        /* \"--CODEGEN--\":2:4   */\n      iszero\n      tag_63\n      jumpi\n        /* \"--CODEGEN--\":29:30   */\n      0x00\n        /* \"--CODEGEN--\":26:27   */\n      dup1\n        /* \"--CODEGEN--\":19:31   */\n      revert\n        /* \"--CODEGEN--\":2:4   */\n    tag_63:\n      pop\n        /* \"Admin.sol\":5984:6366  function erc721Burn(address _ERC721Address, uint256 tokenId)... */\n      0xffffffffffffffffffffffffffffffffffffffff\n      dup2\n      calldataload\n      and\n      swap1\n      0x20\n      add\n      calldataload\n      tag_64\n      jump\t// in\n        /* \"Admin.sol\":7280:7787  function erc721SafeTransferFrom(... */\n    tag_13:\n      tag_33\n      0x04\n      dup1\n      calldatasize\n      sub\n        /* \"--CODEGEN--\":13:16   */\n      0xa0\n        /* \"--CODEGEN--\":8:11   */\n      dup2\n        /* \"--CODEGEN--\":5:17   */\n      lt\n        /* \"--CODEGEN--\":2:4   */\n      iszero\n      tag_66\n      jumpi\n        /* \"--CODEGEN--\":30:31   */\n      0x00\n        /* \"--CODEGEN--\":27:28   */\n      dup1\n        /* \"--CODEGEN--\":20:32   */\n      revert\n        /* \"--CODEGEN--\":2:4   */\n    tag_66:\n        /* \"Admin.sol\":7280:7787  function erc721SafeTransferFrom(... */\n      0xffffffffffffffffffffffffffffffffffffffff\n      dup3\n      calldataload\n      dup2\n      and\n      swap3\n      0x20\n      dup2\n      add\n      calldataload\n      dup3\n      and\n      swap3\n      0x40\n      dup3\n      add\n      calldataload\n      swap1\n      swap3\n      and\n      swap2\n      0x60\n      dup3\n      add\n      calldataload\n      swap2\n      swap1\n      dup2\n      add\n      swap1\n      0xa0\n      dup2\n      add\n      0x80\n      dup3\n      add\n      calldataload\n        /* \"--CODEGEN--\":21:32   */\n      0x0100000000\n        /* \"--CODEGEN--\":5:33   */\n      dup2\n      gt\n        /* \"--CODEGEN--\":2:4   */\n      iszero\n      tag_67\n      jumpi\n        /* \"--CODEGEN--\":46:47   */\n      0x00\n        /* \"--CODEGEN--\":43:44   */\n      dup1\n        /* \"--CODEGEN--\":36:48   */\n      revert\n        /* \"--CODEGEN--\":2:4   */\n    tag_67:\n        /* \"Admin.sol\":7280:7787  function erc721SafeTransferFrom(... */\n      dup3\n      add\n        /* \"--CODEGEN--\":35:44   */\n      dup4\n        /* \"--CODEGEN--\":28:32   */\n      0x20\n        /* \"--CODEGEN--\":12:26   */\n      dup3\n        /* \"--CODEGEN--\":8:33   */\n      add\n        /* \"--CODEGEN--\":5:45   */\n      gt\n        /* \"--CODEGEN--\":2:4   */\n      iszero\n      tag_68\n      jumpi\n        /* \"--CODEGEN--\":58:59   */\n      0x00\n        /* \"--CODEGEN--\":55:56   */\n      dup1\n        /* \"--CODEGEN--\":48:60   */\n      revert\n        /* \"--CODEGEN--\":2:4   */\n    tag_68:\n        /* \"Admin.sol\":7280:7787  function erc721SafeTransferFrom(... */\n      dup1\n      calldataload\n      swap1\n      0x20\n      add\n      swap2\n        /* \"--CODEGEN--\":100:109   */\n      dup5\n        /* \"--CODEGEN--\":95:96   */\n      0x01\n        /* \"--CODEGEN--\":81:93   */\n      dup4\n        /* \"--CODEGEN--\":77:97   */\n      mul\n        /* \"--CODEGEN--\":67:75   */\n      dup5\n        /* \"--CODEGEN--\":63:98   */\n      add\n        /* \"--CODEGEN--\":60:110   */\n      gt\n        /* \"--CODEGEN--\":39:50   */\n      0x0100000000\n        /* \"--CODEGEN--\":25:37   */\n      dup4\n        /* \"--CODEGEN--\":22:51   */\n      gt\n        /* \"--CODEGEN--\":11:118   */\n      or\n        /* \"--CODEGEN--\":8:10   */\n      iszero\n      tag_69\n      jumpi\n        /* \"--CODEGEN--\":131:132   */\n      0x00\n        /* \"--CODEGEN--\":128:129   */\n      dup1\n        /* \"--CODEGEN--\":121:133   */\n      revert\n        /* \"--CODEGEN--\":8:10   */\n    tag_69:\n        /* \"Admin.sol\":7280:7787  function erc721SafeTransferFrom(... */\n      swap2\n      swap1\n      dup1\n      dup1\n      0x1f\n      add\n      0x20\n      dup1\n      swap2\n      div\n      mul\n      0x20\n      add\n      mload(0x40)\n      swap1\n      dup2\n      add\n      0x40\n      mstore\n      dup1\n      swap4\n      swap3\n      swap2\n      swap1\n      dup2\n      dup2\n      mstore\n      0x20\n      add\n      dup4\n      dup4\n        /* \"--CODEGEN--\":30:33   */\n      dup1\n        /* \"--CODEGEN--\":22:28   */\n      dup3\n        /* \"--CODEGEN--\":14:20   */\n      dup5\n        /* \"--CODEGEN--\":1:34   */\n      calldatacopy\n        /* \"--CODEGEN--\":99:100   */\n      0x00\n        /* \"--CODEGEN--\":81:97   */\n      swap3\n      add\n        /* \"--CODEGEN--\":74:101   */\n      swap2\n      swap1\n      swap2\n      mstore\n      pop\n        /* \"Admin.sol\":7280:7787  function erc721SafeTransferFrom(... */\n      swap3\n      swap6\n      pop\n      tag_70\n      swap5\n      pop\n      pop\n      pop\n      pop\n      pop\n      jump\t// in\n        /* \"Admin.sol\":6802:7274  function erc721SafeTransferFrom(... */\n    tag_14:\n      tag_33\n      0x04\n      dup1\n      calldatasize\n      sub\n        /* \"--CODEGEN--\":13:16   */\n      0x80\n        /* \"--CODEGEN--\":8:11   */\n      dup2\n        /* \"--CODEGEN--\":5:17   */\n      lt\n        /* \"--CODEGEN--\":2:4   */\n      iszero\n      tag_72\n      jumpi\n        /* \"--CODEGEN--\":30:31   */\n      0x00\n        /* \"--CODEGEN--\":27:28   */\n      dup1\n        /* \"--CODEGEN--\":20:32   */\n      revert\n        /* \"--CODEGEN--\":2:4   */\n    tag_72:\n      pop\n        /* \"Admin.sol\":6802:7274  function erc721SafeTransferFrom(... */\n      0xffffffffffffffffffffffffffffffffffffffff\n      dup2\n      calldataload\n      dup2\n      and\n      swap2\n      0x20\n      dup2\n      add\n      calldataload\n      dup3\n      and\n      swap2\n      0x40\n      dup3\n      add\n      calldataload\n      and\n      swap1\n      0x60\n      add\n      calldataload\n      tag_73\n      jump\t// in\n        /* \"Admin.sol\":3834:4079  function addAdmin(address admin) public onlyOwner {... */\n    tag_15:\n      tag_33\n      0x04\n      dup1\n      calldatasize\n      sub\n        /* \"--CODEGEN--\":13:15   */\n      0x20\n        /* \"--CODEGEN--\":8:11   */\n      dup2\n        /* \"--CODEGEN--\":5:16   */\n      lt\n        /* \"--CODEGEN--\":2:4   */\n      iszero\n      tag_75\n      jumpi\n        /* \"--CODEGEN--\":29:30   */\n      0x00\n        /* \"--CODEGEN--\":26:27   */\n      dup1\n        /* \"--CODEGEN--\":19:31   */\n      revert\n        /* \"--CODEGEN--\":2:4   */\n    tag_75:\n      pop\n        /* \"Admin.sol\":3834:4079  function addAdmin(address admin) public onlyOwner {... */\n      calldataload\n      0xffffffffffffffffffffffffffffffffffffffff\n      and\n      tag_76\n      jump\t// in\n        /* \"Admin.sol\":7793:8253  function erc721TransferFrom(... */\n    tag_16:\n      tag_33\n      0x04\n      dup1\n      calldatasize\n      sub\n        /* \"--CODEGEN--\":13:16   */\n      0x80\n        /* \"--CODEGEN--\":8:11   */\n      dup2\n        /* \"--CODEGEN--\":5:17   */\n      lt\n        /* \"--CODEGEN--\":2:4   */\n      iszero\n      tag_78\n      jumpi\n        /* \"--CODEGEN--\":30:31   */\n      0x00\n        /* \"--CODEGEN--\":27:28   */\n      dup1\n        /* \"--CODEGEN--\":20:32   */\n      revert\n        /* \"--CODEGEN--\":2:4   */\n    tag_78:\n      pop\n        /* \"Admin.sol\":7793:8253  function erc721TransferFrom(... */\n      0xffffffffffffffffffffffffffffffffffffffff\n      dup2\n      calldataload\n      dup2\n      and\n      swap2\n      0x20\n      dup2\n      add\n      calldataload\n      dup3\n      and\n      swap2\n      0x40\n      dup3\n      add\n      calldataload\n      and\n      swap1\n      0x60\n      add\n      calldataload\n      tag_79\n      jump\t// in\n        /* \"ownable.sol\":870:947  function owner() public view returns (address) {... */\n    tag_17:\n      tag_39\n      tag_81\n      jump\t// in\n        /* \"ownable.sol\":1221:1311  function isOwner() public view returns (bool) {... */\n    tag_18:\n      tag_82\n      tag_83\n      jump\t// in\n    tag_82:\n      0x40\n      dup1\n      mload\n      swap2\n      iszero\n      iszero\n      dup3\n      mstore\n      mload\n      swap1\n      dup2\n      swap1\n      sub\n      0x20\n      add\n      swap1\n      return\n        /* \"Admin.sol\":10306:10730  function erc20IncreaseAllowance(... */\n    tag_19:\n      tag_33\n      0x04\n      dup1\n      calldatasize\n      sub\n        /* \"--CODEGEN--\":13:15   */\n      0x60\n        /* \"--CODEGEN--\":8:11   */\n      dup2\n        /* \"--CODEGEN--\":5:16   */\n      lt\n        /* \"--CODEGEN--\":2:4   */\n      iszero\n      tag_85\n      jumpi\n        /* \"--CODEGEN--\":29:30   */\n      0x00\n        /* \"--CODEGEN--\":26:27   */\n      dup1\n        /* \"--CODEGEN--\":19:31   */\n      revert\n        /* \"--CODEGEN--\":2:4   */\n    tag_85:\n      pop\n        /* \"Admin.sol\":10306:10730  function erc20IncreaseAllowance(... */\n      0xffffffffffffffffffffffffffffffffffffffff\n      dup2\n      calldataload\n      dup2\n      and\n      swap2\n      0x20\n      dup2\n      add\n      calldataload\n      swap1\n      swap2\n      and\n      swap1\n      0x40\n      add\n      calldataload\n      tag_86\n      jump\t// in\n        /* \"Admin.sol\":8259:8638  function erc20Approve(... */\n    tag_20:\n      tag_33\n      0x04\n      dup1\n      calldatasize\n      sub\n        /* \"--CODEGEN--\":13:15   */\n      0x60\n        /* \"--CODEGEN--\":8:11   */\n      dup2\n        /* \"--CODEGEN--\":5:16   */\n      lt\n        /* \"--CODEGEN--\":2:4   */\n      iszero\n      tag_88\n      jumpi\n        /* \"--CODEGEN--\":29:30   */\n      0x00\n        /* \"--CODEGEN--\":26:27   */\n      dup1\n        /* \"--CODEGEN--\":19:31   */\n      revert\n        /* \"--CODEGEN--\":2:4   */\n    tag_88:\n      pop\n        /* \"Admin.sol\":8259:8638  function erc20Approve(... */\n      0xffffffffffffffffffffffffffffffffffffffff\n      dup2\n      calldataload\n      dup2\n      and\n      swap2\n      0x20\n      dup2\n      add\n      calldataload\n      swap1\n      swap2\n      and\n      swap1\n      0x40\n      add\n      calldataload\n      tag_89\n      jump\t// in\n        /* \"Admin.sol\":5553:5978  function erc721Transfer(... */\n    tag_21:\n      tag_33\n      0x04\n      dup1\n      calldatasize\n      sub\n        /* \"--CODEGEN--\":13:15   */\n      0x60\n        /* \"--CODEGEN--\":8:11   */\n      dup2\n        /* \"--CODEGEN--\":5:16   */\n      lt\n        /* \"--CODEGEN--\":2:4   */\n      iszero\n      tag_91\n      jumpi\n        /* \"--CODEGEN--\":29:30   */\n      0x00\n        /* \"--CODEGEN--\":26:27   */\n      dup1\n        /* \"--CODEGEN--\":19:31   */\n      revert\n        /* \"--CODEGEN--\":2:4   */\n    tag_91:\n      pop\n        /* \"Admin.sol\":5553:5978  function erc721Transfer(... */\n      0xffffffffffffffffffffffffffffffffffffffff\n      dup2\n      calldataload\n      dup2\n      and\n      swap2\n      0x20\n      dup2\n      add\n      calldataload\n      swap1\n      swap2\n      and\n      swap1\n      0x40\n      add\n      calldataload\n      tag_92\n      jump\t// in\n        /* \"Admin.sol\":8644:9087  function erc20DecreaseApproval(... */\n    tag_22:\n      tag_33\n      0x04\n      dup1\n      calldatasize\n      sub\n        /* \"--CODEGEN--\":13:15   */\n      0x60\n        /* \"--CODEGEN--\":8:11   */\n      dup2\n        /* \"--CODEGEN--\":5:16   */\n      lt\n        /* \"--CODEGEN--\":2:4   */\n      iszero\n      tag_94\n      jumpi\n        /* \"--CODEGEN--\":29:30   */\n      0x00\n        /* \"--CODEGEN--\":26:27   */\n      dup1\n        /* \"--CODEGEN--\":19:31   */\n      revert\n        /* \"--CODEGEN--\":2:4   */\n    tag_94:\n      pop\n        /* \"Admin.sol\":8644:9087  function erc20DecreaseApproval(... */\n      0xffffffffffffffffffffffffffffffffffffffff\n      dup2\n      calldataload\n      dup2\n      and\n      swap2\n      0x20\n      dup2\n      add\n      calldataload\n      swap1\n      swap2\n      and\n      swap1\n      0x40\n      add\n      calldataload\n      tag_95\n      jump\t// in\n        /* \"ownable.sol\":1460:1695  function transferOwnership(address newOwner) public onlyOwner {... */\n    tag_23:\n      tag_33\n      0x04\n      dup1\n      calldatasize\n      sub\n        /* \"--CODEGEN--\":13:15   */\n      0x20\n        /* \"--CODEGEN--\":8:11   */\n      dup2\n        /* \"--CODEGEN--\":5:16   */\n      lt\n        /* \"--CODEGEN--\":2:4   */\n      iszero\n      tag_97\n      jumpi\n        /* \"--CODEGEN--\":29:30   */\n      0x00\n        /* \"--CODEGEN--\":26:27   */\n      dup1\n        /* \"--CODEGEN--\":19:31   */\n      revert\n        /* \"--CODEGEN--\":2:4   */\n    tag_97:\n      pop\n        /* \"ownable.sol\":1460:1695  function transferOwnership(address newOwner) public onlyOwner {... */\n      calldataload\n      0xffffffffffffffffffffffffffffffffffffffff\n      and\n      tag_98\n      jump\t// in\n        /* \"Admin.sol\":3293:3533  function adminExist(address _sender) public view returns (bool) {... */\n    tag_24:\n      tag_82\n      0x04\n      dup1\n      calldatasize\n      sub\n        /* \"--CODEGEN--\":13:15   */\n      0x20\n        /* \"--CODEGEN--\":8:11   */\n      dup2\n        /* \"--CODEGEN--\":5:16   */\n      lt\n        /* \"--CODEGEN--\":2:4   */\n      iszero\n      tag_100\n      jumpi\n        /* \"--CODEGEN--\":29:30   */\n      0x00\n        /* \"--CODEGEN--\":26:27   */\n      dup1\n        /* \"--CODEGEN--\":19:31   */\n      revert\n        /* \"--CODEGEN--\":2:4   */\n    tag_100:\n      pop\n        /* \"Admin.sol\":3293:3533  function adminExist(address _sender) public view returns (bool) {... */\n      calldataload\n      0xffffffffffffffffffffffffffffffffffffffff\n      and\n      tag_101\n      jump\t// in\n        /* \"Admin.sol\":6372:6796  function erc721Mint(... */\n    tag_25:\n      tag_33\n      0x04\n      dup1\n      calldatasize\n      sub\n        /* \"--CODEGEN--\":13:15   */\n      0x60\n        /* \"--CODEGEN--\":8:11   */\n      dup2\n        /* \"--CODEGEN--\":5:16   */\n      lt\n        /* \"--CODEGEN--\":2:4   */\n      iszero\n      tag_103\n      jumpi\n        /* \"--CODEGEN--\":29:30   */\n      0x00\n        /* \"--CODEGEN--\":26:27   */\n      dup1\n        /* \"--CODEGEN--\":19:31   */\n      revert\n        /* \"--CODEGEN--\":2:4   */\n    tag_103:\n        /* \"Admin.sol\":6372:6796  function erc721Mint(... */\n      0xffffffffffffffffffffffffffffffffffffffff\n      dup3\n      calldataload\n      and\n      swap2\n      swap1\n      dup2\n      add\n      swap1\n      0x40\n      dup2\n      add\n      0x20\n      dup3\n      add\n      calldataload\n        /* \"--CODEGEN--\":21:32   */\n      0x0100000000\n        /* \"--CODEGEN--\":5:33   */\n      dup2\n      gt\n        /* \"--CODEGEN--\":2:4   */\n      iszero\n      tag_104\n      jumpi\n        /* \"--CODEGEN--\":46:47   */\n      0x00\n        /* \"--CODEGEN--\":43:44   */\n      dup1\n        /* \"--CODEGEN--\":36:48   */\n      revert\n        /* \"--CODEGEN--\":2:4   */\n    tag_104:\n        /* \"Admin.sol\":6372:6796  function erc721Mint(... */\n      dup3\n      add\n        /* \"--CODEGEN--\":35:44   */\n      dup4\n        /* \"--CODEGEN--\":28:32   */\n      0x20\n        /* \"--CODEGEN--\":12:26   */\n      dup3\n        /* \"--CODEGEN--\":8:33   */\n      add\n        /* \"--CODEGEN--\":5:45   */\n      gt\n        /* \"--CODEGEN--\":2:4   */\n      iszero\n      tag_105\n      jumpi\n        /* \"--CODEGEN--\":58:59   */\n      0x00\n        /* \"--CODEGEN--\":55:56   */\n      dup1\n        /* \"--CODEGEN--\":48:60   */\n      revert\n        /* \"--CODEGEN--\":2:4   */\n    tag_105:\n        /* \"Admin.sol\":6372:6796  function erc721Mint(... */\n      dup1\n      calldataload\n      swap1\n      0x20\n      add\n      swap2\n        /* \"--CODEGEN--\":100:109   */\n      dup5\n        /* \"--CODEGEN--\":95:96   */\n      0x01\n        /* \"--CODEGEN--\":81:93   */\n      dup4\n        /* \"--CODEGEN--\":77:97   */\n      mul\n        /* \"--CODEGEN--\":67:75   */\n      dup5\n        /* \"--CODEGEN--\":63:98   */\n      add\n        /* \"--CODEGEN--\":60:110   */\n      gt\n        /* \"--CODEGEN--\":39:50   */\n      0x0100000000\n        /* \"--CODEGEN--\":25:37   */\n      dup4\n        /* \"--CODEGEN--\":22:51   */\n      gt\n        /* \"--CODEGEN--\":11:118   */\n      or\n        /* \"--CODEGEN--\":8:10   */\n      iszero\n      tag_106\n      jumpi\n        /* \"--CODEGEN--\":131:132   */\n      0x00\n        /* \"--CODEGEN--\":128:129   */\n      dup1\n        /* \"--CODEGEN--\":121:133   */\n      revert\n        /* \"--CODEGEN--\":8:10   */\n    tag_106:\n        /* \"Admin.sol\":6372:6796  function erc721Mint(... */\n      swap2\n      swap1\n      dup1\n      dup1\n      0x1f\n      add\n      0x20\n      dup1\n      swap2\n      div\n      mul\n      0x20\n      add\n      mload(0x40)\n      swap1\n      dup2\n      add\n      0x40\n      mstore\n      dup1\n      swap4\n      swap3\n      swap2\n      swap1\n      dup2\n      dup2\n      mstore\n      0x20\n      add\n      dup4\n      dup4\n        /* \"--CODEGEN--\":30:33   */\n      dup1\n        /* \"--CODEGEN--\":22:28   */\n      dup3\n        /* \"--CODEGEN--\":14:20   */\n      dup5\n        /* \"--CODEGEN--\":1:34   */\n      calldatacopy\n        /* \"--CODEGEN--\":99:100   */\n      0x00\n        /* \"--CODEGEN--\":81:97   */\n      swap3\n      add\n        /* \"--CODEGEN--\":74:101   */\n      swap2\n      swap1\n      swap2\n      mstore\n      pop\n        /* \"Admin.sol\":6372:6796  function erc721Mint(... */\n      swap3\n      swap6\n      pop\n      pop\n      swap2\n      calldataload\n      swap3\n      pop\n      tag_107\n      swap2\n      pop\n      pop\n      jump\t// in\n        /* \"Admin.sol\":9893:10300  function erc20TransferFrom(... */\n    tag_35:\n        /* \"Admin.sol\":3714:3736  adminExist(msg.sender) */\n      tag_109\n        /* \"Admin.sol\":3725:3735  msg.sender */\n      caller\n        /* \"Admin.sol\":3714:3724  adminExist */\n      tag_101\n        /* \"Admin.sol\":3714:3736  adminExist(msg.sender) */\n      jump\t// in\n    tag_109:\n        /* \"Admin.sol\":3714:3749  adminExist(msg.sender) || isOwner() */\n      dup1\n      tag_111\n      jumpi\n      pop\n        /* \"Admin.sol\":3740:3749  isOwner() */\n      tag_111\n        /* \"Admin.sol\":3740:3747  isOwner */\n      tag_83\n        /* \"Admin.sol\":3740:3749  isOwner() */\n      jump\t// in\n    tag_111:\n        /* \"Admin.sol\":3693:3810  require(... */\n      tag_112\n      jumpi\n      mload(0x40)\n      0x08c379a000000000000000000000000000000000000000000000000000000000\n      dup2\n      mstore\n      0x04\n      add\n      dup1\n      dup1\n      0x20\n      add\n      dup3\n      dup2\n      sub\n      dup3\n      mstore\n      0x23\n      dup2\n      mstore\n      0x20\n      add\n      dup1\n      data_674a9ac1aead3691c97506b93cf9f61f3ea0388f6e9a2a7fd72dc31f93249315\n      0x23\n      swap2\n      codecopy\n      0x40\n      add\n      swap2\n      pop\n      pop\n      mload(0x40)\n      dup1\n      swap2\n      sub\n      swap1\n      revert\n    tag_112:\n        /* \"Admin.sol\":10089:10124  erc20.transferFrom(from, to, value) */\n      0x40\n      dup1\n      mload\n      0x23b872dd00000000000000000000000000000000000000000000000000000000\n      dup2\n      mstore\n        /* \"Admin.sol\":10089:10107  erc20.transferFrom */\n      0xffffffffffffffffffffffffffffffffffffffff\n        /* \"Admin.sol\":10089:10124  erc20.transferFrom(from, to, value) */\n      dup6\n      dup2\n      and\n      0x04\n      dup4\n      add\n      mstore\n      dup5\n      dup2\n      and\n      0x24\n      dup4\n      add\n      mstore\n      0x44\n      dup3\n      add\n      dup5\n      swap1\n      mstore\n      swap2\n      mload\n        /* \"Admin.sol\":10072:10078  _erc20 */\n      dup7\n      swap3\n        /* \"Admin.sol\":10089:10107  erc20.transferFrom */\n      dup4\n      and\n      swap2\n      0x23b872dd\n      swap2\n        /* \"Admin.sol\":10089:10124  erc20.transferFrom(from, to, value) */\n      0x64\n      dup1\n      dup4\n      add\n      swap3\n      0x20\n      swap3\n      swap2\n      swap1\n      dup3\n      swap1\n      sub\n      add\n      dup2\n        /* \"Admin.sol\":10050:10062  IERC20 erc20 */\n      0x00\n        /* \"Admin.sol\":10089:10107  erc20.transferFrom */\n      dup8\n        /* \"Admin.sol\":10089:10124  erc20.transferFrom(from, to, value) */\n      dup1\n      extcodesize\n      iszero\n        /* \"--CODEGEN--\":5:7   */\n      dup1\n      iszero\n      tag_114\n      jumpi\n        /* \"--CODEGEN--\":30:31   */\n      0x00\n        /* \"--CODEGEN--\":27:28   */\n      dup1\n        /* \"--CODEGEN--\":20:32   */\n      revert\n        /* \"--CODEGEN--\":5:7   */\n    tag_114:\n        /* \"Admin.sol\":10089:10124  erc20.transferFrom(from, to, value) */\n      pop\n      gas\n      call\n      iszero\n        /* \"--CODEGEN--\":8:17   */\n      dup1\n        /* \"--CODEGEN--\":5:7   */\n      iszero\n      tag_115\n      jumpi\n        /* \"--CODEGEN--\":45:61   */\n      returndatasize\n        /* \"--CODEGEN--\":42:43   */\n      0x00\n        /* \"--CODEGEN--\":39:40   */\n      dup1\n        /* \"--CODEGEN--\":24:62   */\n      returndatacopy\n        /* \"--CODEGEN--\":77:93   */\n      returndatasize\n        /* \"--CODEGEN--\":74:75   */\n      0x00\n        /* \"--CODEGEN--\":67:94   */\n      revert\n        /* \"--CODEGEN--\":5:7   */\n    tag_115:\n        /* \"Admin.sol\":10089:10124  erc20.transferFrom(from, to, value) */\n      pop\n      pop\n      pop\n      pop\n      mload(0x40)\n      returndatasize\n        /* \"--CODEGEN--\":13:15   */\n      0x20\n        /* \"--CODEGEN--\":8:11   */\n      dup2\n        /* \"--CODEGEN--\":5:16   */\n      lt\n        /* \"--CODEGEN--\":2:4   */\n      iszero\n      tag_116\n      jumpi\n        /* \"--CODEGEN--\":29:30   */\n      0x00\n        /* \"--CODEGEN--\":26:27   */\n      dup1\n        /* \"--CODEGEN--\":19:31   */\n      revert\n        /* \"--CODEGEN--\":2:4   */\n    tag_116:\n      pop\n      pop\n        /* \"Admin.sol\":10139:10293  AdminActionPerformed(... */\n      mload(0x40)\n        /* \"Admin.sol\":10217:10248  functionNames.erc20TransferFrom */\n      0x15\n        /* \"Admin.sol\":10139:10293  AdminActionPerformed(... */\n      dup1\n      sload\n        /* \"Admin.sol\":10217:10248  functionNames.erc20TransferFrom */\n      swap1\n      swap2\n        /* \"Admin.sol\":10139:10293  AdminActionPerformed(... */\n      swap1\n      dup2\n      swap1\n        /* \"Admin.sol\":10217:10248  functionNames.erc20TransferFrom */\n      dup4\n      swap1\n        /* \"Admin.sol\":10139:10293  AdminActionPerformed(... */\n      0x02\n      0xffffffffffffffffffffffffffffffffffffffffffffffffffffffffffffffff\n      0x0100\n        /* \"Admin.sol\":10217:10230  functionNames */\n      0x01\n        /* \"Admin.sol\":10139:10293  AdminActionPerformed(... */\n      dup5\n      and\n      iszero\n      mul\n      add\n      swap1\n      swap2\n      and\n      div\n      dup1\n      iszero\n      tag_117\n      jumpi\n      dup1\n      0x1f\n      lt\n      tag_118\n      jumpi\n      0x0100\n      dup1\n      dup4\n      sload\n      div\n      mul\n      dup4\n      mstore\n      swap2\n      dup3\n      add\n      swap2\n      jump(tag_117)\n    tag_118:\n      dup3\n      add\n      swap2\n      swap1\n      0x00\n      mstore\n      keccak256(0x00, 0x20)\n      swap1\n    tag_119:\n      dup2\n      sload\n      dup2\n      mstore\n      swap1\n      0x01\n      add\n      swap1\n      0x20\n      add\n      dup1\n      dup4\n      gt\n      tag_119\n      jumpi\n    tag_117:\n      pop\n      pop\n      0x40\n      dup1\n      mload\n      swap2\n      dup3\n      swap1\n      sub\n      dup3\n      keccak256\n      0xffffffffffffffffffffffffffffffffffffffff\n      dup9\n      dup2\n      and\n      dup5\n      mstore\n      0x20\n      dup5\n      add\n      dup9\n      swap1\n      mstore\n      dup3\n      mload\n      swap2\n      swap6\n      pop\n      dup11\n      and\n      swap4\n      pop\n        /* \"Admin.sol\":10173:10183  msg.sender */\n      caller\n      swap3\n        /* \"Admin.sol\":10139:10293  AdminActionPerformed(... */\n      0x32a9eeb55ea56eb60badfb6642d5b92be35b6da6f74892c12d0e14a50dfc2bac\n      swap3\n      swap1\n      dup3\n      swap1\n      sub\n      add\n      swap1\n      log4\n        /* \"Admin.sol\":3820:3821  _ */\n      pop\n        /* \"Admin.sol\":9893:10300  function erc20TransferFrom(... */\n      pop\n      pop\n      pop\n      pop\n      jump\t// out\n        /* \"Admin.sol\":10736:11175  function erc20DecreaseAllowance(... */\n    tag_38:\n        /* \"Admin.sol\":3714:3736  adminExist(msg.sender) */\n      tag_121\n        /* \"Admin.sol\":3725:3735  msg.sender */\n      caller\n        /* \"Admin.sol\":3714:3724  adminExist */\n      tag_101\n        /* \"Admin.sol\":3714:3736  adminExist(msg.sender) */\n      jump\t// in\n    tag_121:\n        /* \"Admin.sol\":3714:3749  adminExist(msg.sender) || isOwner() */\n      dup1\n      tag_123\n      jumpi\n      pop\n        /* \"Admin.sol\":3740:3749  isOwner() */\n      tag_123\n        /* \"Admin.sol\":3740:3747  isOwner */\n      tag_83\n        /* \"Admin.sol\":3740:3749  isOwner() */\n      jump\t// in\n    tag_123:\n        /* \"Admin.sol\":3693:3810  require(... */\n      tag_124\n      jumpi\n      mload(0x40)\n      0x08c379a000000000000000000000000000000000000000000000000000000000\n      dup2\n      mstore\n      0x04\n      add\n      dup1\n      dup1\n      0x20\n      add\n      dup3\n      dup2\n      sub\n      dup3\n      mstore\n      0x23\n      dup2\n      mstore\n      0x20\n      add\n      dup1\n      data_674a9ac1aead3691c97506b93cf9f61f3ea0388f6e9a2a7fd72dc31f93249315\n      0x23\n      swap2\n      codecopy\n      0x40\n      add\n      swap2\n      pop\n      pop\n      mload(0x40)\n      dup1\n      swap2\n      sub\n      swap1\n      revert\n    tag_124:\n        /* \"Admin.sol\":10930:10979  erc20.decreaseAllowance(spender, subtractedValue) */\n      0x40\n      dup1\n      mload\n      0xa457c2d700000000000000000000000000000000000000000000000000000000\n      dup2\n      mstore\n        /* \"Admin.sol\":10930:10953  erc20.decreaseAllowance */\n      0xffffffffffffffffffffffffffffffffffffffff\n        /* \"Admin.sol\":10930:10979  erc20.decreaseAllowance(spender, subtractedValue) */\n      dup5\n      dup2\n      and\n      0x04\n      dup4\n      add\n      mstore\n      0x24\n      dup3\n      add\n      dup5\n      swap1\n      mstore\n      swap2\n      mload\n        /* \"Admin.sol\":10913:10919  _erc20 */\n      dup6\n      swap3\n        /* \"Admin.sol\":10930:10953  erc20.decreaseAllowance */\n      dup4\n      and\n      swap2\n      0xa457c2d7\n      swap2\n        /* \"Admin.sol\":10930:10979  erc20.decreaseAllowance(spender, subtractedValue) */\n      0x44\n      dup1\n      dup4\n      add\n      swap3\n        /* \"Admin.sol\":10891:10903  IERC20 erc20 */\n      0x00\n      swap3\n        /* \"Admin.sol\":10930:10979  erc20.decreaseAllowance(spender, subtractedValue) */\n      swap2\n      swap1\n      dup3\n      swap1\n      sub\n      add\n      dup2\n        /* \"Admin.sol\":10891:10903  IERC20 erc20 */\n      dup4\n        /* \"Admin.sol\":10930:10953  erc20.decreaseAllowance */\n      dup8\n        /* \"Admin.sol\":10930:10979  erc20.decreaseAllowance(spender, subtractedValue) */\n      dup1\n      extcodesize\n      iszero\n        /* \"--CODEGEN--\":5:7   */\n      dup1\n      iszero\n      tag_126\n      jumpi\n        /* \"--CODEGEN--\":30:31   */\n      0x00\n        /* \"--CODEGEN--\":27:28   */\n      dup1\n        /* \"--CODEGEN--\":20:32   */\n      revert\n        /* \"--CODEGEN--\":5:7   */\n    tag_126:\n        /* \"Admin.sol\":10930:10979  erc20.decreaseAllowance(spender, subtractedValue) */\n      pop\n      gas\n      call\n      iszero\n        /* \"--CODEGEN--\":8:17   */\n      dup1\n        /* \"--CODEGEN--\":5:7   */\n      iszero\n      tag_127\n      jumpi\n        /* \"--CODEGEN--\":45:61   */\n      returndatasize\n        /* \"--CODEGEN--\":42:43   */\n      0x00\n        /* \"--CODEGEN--\":39:40   */\n      dup1\n        /* \"--CODEGEN--\":24:62   */\n      returndatacopy\n        /* \"--CODEGEN--\":77:93   */\n      returndatasize\n        /* \"--CODEGEN--\":74:75   */\n      0x00\n        /* \"--CODEGEN--\":67:94   */\n      revert\n        /* \"--CODEGEN--\":5:7   */\n    tag_127:\n        /* \"Admin.sol\":10930:10979  erc20.decreaseAllowance(spender, subtractedValue) */\n      pop\n      pop\n      pop\n      pop\n        /* \"Admin.sol\":11072:11085  functionNames */\n      0x01\n        /* \"Admin.sol\":11072:11108  functionNames.erc20DecreaseAllowance */\n      0x16\n      add\n        /* \"Admin.sol\":10994:11168  AdminActionPerformed(... */\n      mload(0x40)\n      dup1\n      dup3\n      dup1\n      sload\n      0x01\n      dup2\n      0x01\n      and\n      iszero\n      0x0100\n      mul\n      sub\n      and\n      0x02\n      swap1\n      div\n      dup1\n      iszero\n      tag_128\n      jumpi\n      dup1\n      0x1f\n      lt\n      tag_129\n      jumpi\n      0x0100\n      dup1\n      dup4\n      sload\n      div\n      mul\n      dup4\n      mstore\n      swap2\n      dup3\n      add\n      swap2\n      jump(tag_128)\n    tag_129:\n      dup3\n      add\n      swap2\n      swap1\n      0x00\n      mstore\n      keccak256(0x00, 0x20)\n      swap1\n    tag_130:\n      dup2\n      sload\n      dup2\n      mstore\n      swap1\n      0x01\n      add\n      swap1\n      0x20\n      add\n      dup1\n      dup4\n      gt\n      tag_130\n      jumpi\n    tag_128:\n      pop\n      pop\n      0x40\n      dup1\n      mload\n      swap2\n      dup3\n      swap1\n      sub\n      dup3\n      keccak256\n      0xffffffffffffffffffffffffffffffffffffffff\n      dup9\n      dup2\n      and\n      dup5\n      mstore\n      0x20\n      dup5\n      add\n      dup9\n      swap1\n      mstore\n      dup3\n      mload\n      swap2\n      swap6\n      pop\n      dup10\n      and\n      swap4\n      pop\n        /* \"Admin.sol\":11028:11038  msg.sender */\n      caller\n      swap3\n        /* \"Admin.sol\":10994:11168  AdminActionPerformed(... */\n      0x32a9eeb55ea56eb60badfb6642d5b92be35b6da6f74892c12d0e14a50dfc2bac\n      swap3\n      swap1\n      dup3\n      swap1\n      sub\n      add\n      swap1\n      log4\n        /* \"Admin.sol\":3820:3821  _ */\n      pop\n        /* \"Admin.sol\":10736:11175  function erc20DecreaseAllowance(... */\n      pop\n      pop\n      pop\n      jump\t// out\n        /* \"Admin.sol\":3256:3279  address[] public admins */\n    tag_41:\n      0x1b\n      dup2\n      dup2\n      sload\n      dup2\n      lt\n      tag_131\n      jumpi\n      invalid\n    tag_131:\n      0x00\n      swap2\n      dup3\n      mstore\n      0x20\n      swap1\n      swap2\n      keccak256\n      add\n      sload\n      0xffffffffffffffffffffffffffffffffffffffff\n      and\n      swap1\n      pop\n      dup2\n      jump\t// out\n        /* \"Admin.sol\":4182:4517  function removeAdmin(address admin) public onlyOwner {... */\n    tag_44:\n        /* \"ownable.sol\":1074:1083  isOwner() */\n      tag_134\n        /* \"ownable.sol\":1074:1081  isOwner */\n      tag_83\n        /* \"ownable.sol\":1074:1083  isOwner() */\n      jump\t// in\n    tag_134:\n        /* \"ownable.sol\":1066:1120  require(isOwner(), \"Ownable: caller is not the owner\") */\n      tag_135\n      jumpi\n      0x40\n      dup1\n      mload\n      0x08c379a000000000000000000000000000000000000000000000000000000000\n      dup2\n      mstore\n      0x20\n      0x04\n      dup3\n      add\n      dup2\n      swap1\n      mstore\n      0x24\n      dup3\n      add\n      mstore\n      0x4f776e61626c653a2063616c6c6572206973206e6f7420746865206f776e6572\n      0x44\n      dup3\n      add\n      mstore\n      swap1\n      mload\n      swap1\n      dup2\n      swap1\n      sub\n      0x64\n      add\n      swap1\n      revert\n    tag_135:\n        /* \"Admin.sol\":4250:4259  uint256 i */\n      0x00\n        /* \"Admin.sol\":4245:4460  for (uint256 i = 0; i < admins.length; i++) {... */\n    tag_137:\n        /* \"Admin.sol\":4269:4275  admins */\n      0x1b\n        /* \"Admin.sol\":4269:4282  admins.length */\n      sload\n        /* \"Admin.sol\":4265:4282  i < admins.length */\n      dup2\n      lt\n        /* \"Admin.sol\":4245:4460  for (uint256 i = 0; i < admins.length; i++) {... */\n      iszero\n      tag_138\n      jumpi\n        /* \"Admin.sol\":4320:4325  admin */\n      dup2\n        /* \"Admin.sol\":4307:4325  admins[i] == admin */\n      0xffffffffffffffffffffffffffffffffffffffff\n      and\n        /* \"Admin.sol\":4307:4313  admins */\n      0x1b\n        /* \"Admin.sol\":4314:4315  i */\n      dup3\n        /* \"Admin.sol\":4307:4316  admins[i] */\n      dup2\n      sload\n      dup2\n      lt\n      tag_140\n      jumpi\n      invalid\n    tag_140:\n      0x00\n      swap2\n      dup3\n      mstore\n      0x20\n      swap1\n      swap2\n      keccak256\n      add\n      sload\n      0xffffffffffffffffffffffffffffffffffffffff\n      and\n        /* \"Admin.sol\":4307:4325  admins[i] == admin */\n      eq\n        /* \"Admin.sol\":4303:4450  if (admins[i] == admin) {... */\n      iszero\n      tag_142\n      jumpi\n        /* \"Admin.sol\":4373:4379  admins */\n      0x1b\n        /* \"Admin.sol\":4380:4381  i */\n      dup2\n        /* \"Admin.sol\":4373:4382  admins[i] */\n      dup2\n      sload\n      dup2\n      lt\n      tag_143\n      jumpi\n      invalid\n    tag_143:\n      0x00\n      swap2\n      dup3\n      mstore\n      0x20\n      swap1\n      swap2\n      keccak256\n      add\n      sload\n        /* \"Admin.sol\":4345:4351  admins */\n      0x1b\n        /* \"Admin.sol\":4352:4365  admins.length */\n      dup1\n      sload\n        /* \"Admin.sol\":4373:4382  admins[i] */\n      0xffffffffffffffffffffffffffffffffffffffff\n      swap1\n      swap3\n      and\n      swap2\n        /* \"Admin.sol\":4352:4369  admins.length - 1 */\n      0xffffffffffffffffffffffffffffffffffffffffffffffffffffffffffffffff\n      dup2\n      add\n      swap1\n        /* \"Admin.sol\":4345:4370  admins[admins.length - 1] */\n      dup2\n      lt\n      tag_145\n      jumpi\n      invalid\n    tag_145:\n      swap1\n      0x00\n      mstore\n      keccak256(0x00, 0x20)\n      add\n      0x00\n        /* \"Admin.sol\":4345:4382  admins[admins.length - 1] = admins[i] */\n      0x0100\n      exp\n      dup2\n      sload\n      dup2\n      0xffffffffffffffffffffffffffffffffffffffff\n      mul\n      not\n      and\n      swap1\n      dup4\n      0xffffffffffffffffffffffffffffffffffffffff\n      and\n      mul\n      or\n      swap1\n      sstore\n      pop\n        /* \"Admin.sol\":4400:4406  admins */\n      0x1b\n        /* \"Admin.sol\":4400:4412  admins.pop() */\n      dup1\n      sload\n      dup1\n      tag_147\n      jumpi\n      invalid\n    tag_147:\n      0x00\n      dup3\n      dup2\n      mstore\n      0x20\n      swap1\n      keccak256\n      dup2\n      add\n      0xffffffffffffffffffffffffffffffffffffffffffffffffffffffffffffffff\n      swap1\n      dup2\n      add\n      dup1\n      sload\n      0xffffffffffffffffffffffff0000000000000000000000000000000000000000\n      and\n      swap1\n      sstore\n      add\n      swap1\n      sstore\n        /* \"Admin.sol\":4430:4435  break */\n      jump(tag_138)\n        /* \"Admin.sol\":4303:4450  if (admins[i] == admin) {... */\n    tag_142:\n        /* \"Admin.sol\":4284:4287  i++ */\n      0x01\n      add\n        /* \"Admin.sol\":4245:4460  for (uint256 i = 0; i < admins.length; i++) {... */\n      jump(tag_137)\n    tag_138:\n      pop\n        /* \"Admin.sol\":4474:4510  AdminRemoved(admin, block.timestamp) */\n      0x40\n      dup1\n      mload\n      0xffffffffffffffffffffffffffffffffffffffff\n      dup4\n      and\n      dup2\n      mstore\n        /* \"Admin.sol\":4494:4509  block.timestamp */\n      timestamp\n        /* \"Admin.sol\":4474:4510  AdminRemoved(admin, block.timestamp) */\n      0x20\n      dup3\n      add\n      mstore\n      dup2\n      mload\n      0xa0726c73cf6ad18ddb855ba65d1ddd4d7fd37d320f4e52f6b154c13d386f5fd9\n      swap3\n      swap2\n      dup2\n      swap1\n      sub\n      swap1\n      swap2\n      add\n      swap1\n      log1\n        /* \"Admin.sol\":4182:4517  function removeAdmin(address admin) public onlyOwner {... */\n      pop\n      jump\t// out\n        /* \"Admin.sol\":5125:5547  function erc721Approve(... */\n    tag_47:\n        /* \"Admin.sol\":3714:3736  adminExist(msg.sender) */\n      tag_150\n        /* \"Admin.sol\":3725:3735  msg.sender */\n      caller\n        /* \"Admin.sol\":3714:3724  adminExist */\n      tag_101\n        /* \"Admin.sol\":3714:3736  adminExist(msg.sender) */\n      jump\t// in\n    tag_150:\n        /* \"Admin.sol\":3714:3749  adminExist(msg.sender) || isOwner() */\n      dup1\n      tag_152\n      jumpi\n      pop\n        /* \"Admin.sol\":3740:3749  isOwner() */\n      tag_152\n        /* \"Admin.sol\":3740:3747  isOwner */\n      tag_83\n        /* \"Admin.sol\":3740:3749  isOwner() */\n      jump\t// in\n    tag_152:\n        /* \"Admin.sol\":3693:3810  require(... */\n      tag_153\n      jumpi\n      mload(0x40)\n      0x08c379a000000000000000000000000000000000000000000000000000000000\n      dup2\n      mstore\n      0x04\n      add\n      dup1\n      dup1\n      0x20\n      add\n      dup3\n      dup2\n      sub\n      dup3\n      mstore\n      0x23\n      dup2\n      mstore\n      0x20\n      add\n      dup1\n      data_674a9ac1aead3691c97506b93cf9f61f3ea0388f6e9a2a7fd72dc31f93249315\n      0x23\n      swap2\n      codecopy\n      0x40\n      add\n      swap2\n      pop\n      pop\n      mload(0x40)\n      dup1\n      swap2\n      sub\n      swap1\n      revert\n    tag_153:\n        /* \"Admin.sol\":5268:5284  IMintable erc721 */\n      0x00\n        /* \"Admin.sol\":5297:5311  _ERC721Address */\n      dup4\n        /* \"Admin.sol\":5268:5312  IMintable erc721 = IMintable(_ERC721Address) */\n      swap1\n      pop\n        /* \"Admin.sol\":5413:5426  functionNames */\n      0x01\n        /* \"Admin.sol\":5413:5434  functionNames.approve */\n      0x00\n      add\n        /* \"Admin.sol\":5327:5494  AdminActionPerformed(... */\n      mload(0x40)\n      dup1\n      dup3\n      dup1\n      sload\n      0x01\n      dup2\n      0x01\n      and\n      iszero\n      0x0100\n      mul\n      sub\n      and\n      0x02\n      swap1\n      div\n      dup1\n      iszero\n      tag_155\n      jumpi\n      dup1\n      0x1f\n      lt\n      tag_156\n      jumpi\n      0x0100\n      dup1\n      dup4\n      sload\n      div\n      mul\n      dup4\n      mstore\n      swap2\n      dup3\n      add\n      swap2\n      jump(tag_155)\n    tag_156:\n      dup3\n      add\n      swap2\n      swap1\n      0x00\n      mstore\n      keccak256(0x00, 0x20)\n      swap1\n    tag_157:\n      dup2\n      sload\n      dup2\n      mstore\n      swap1\n      0x01\n      add\n      swap1\n      0x20\n      add\n      dup1\n      dup4\n      gt\n      tag_157\n      jumpi\n    tag_155:\n      pop\n      pop\n      0x40\n      dup1\n      mload\n      swap2\n      dup3\n      swap1\n      sub\n      dup3\n      keccak256\n      0xffffffffffffffffffffffffffffffffffffffff\n      dup10\n      and\n      dup1\n      dup5\n      mstore\n      0x20\n      dup5\n      add\n      dup9\n      swap1\n      mstore\n      dup3\n      mload\n      swap2\n      swap6\n      pop\n      swap4\n      pop\n        /* \"Admin.sol\":5361:5371  msg.sender */\n      caller\n      swap3\n        /* \"Admin.sol\":5327:5494  AdminActionPerformed(... */\n      0x32a9eeb55ea56eb60badfb6642d5b92be35b6da6f74892c12d0e14a50dfc2bac\n      swap3\n      swap1\n      dup3\n      swap1\n      sub\n      add\n      swap1\n      log4\n        /* \"Admin.sol\":5511:5517  erc721 */\n      dup1\n        /* \"Admin.sol\":5511:5525  erc721.approve */\n      0xffffffffffffffffffffffffffffffffffffffff\n      and\n      0x095ea7b3\n        /* \"Admin.sol\":5526:5529  _to */\n      dup5\n        /* \"Admin.sol\":5531:5539  _tokenId */\n      dup5\n        /* \"Admin.sol\":5511:5540  erc721.approve(_to, _tokenId) */\n      mload(0x40)\n      dup4\n      0xffffffff\n      and\n      0xe0\n      shl\n      dup2\n      mstore\n      0x04\n      add\n      dup1\n      dup4\n      0xffffffffffffffffffffffffffffffffffffffff\n      and\n      0xffffffffffffffffffffffffffffffffffffffff\n      and\n      dup2\n      mstore\n      0x20\n      add\n      dup3\n      dup2\n      mstore\n      0x20\n      add\n      swap3\n      pop\n      pop\n      pop\n      0x00\n      mload(0x40)\n      dup1\n      dup4\n      sub\n      dup2\n      0x00\n      dup8\n      dup1\n      extcodesize\n      iszero\n        /* \"--CODEGEN--\":8:17   */\n      dup1\n        /* \"--CODEGEN--\":5:7   */\n      iszero\n      tag_158\n      jumpi\n        /* \"--CODEGEN--\":30:31   */\n      0x00\n        /* \"--CODEGEN--\":27:28   */\n      dup1\n        /* \"--CODEGEN--\":20:32   */\n      revert\n        /* \"--CODEGEN--\":5:7   */\n    tag_158:\n        /* \"Admin.sol\":5511:5540  erc721.approve(_to, _tokenId) */\n      pop\n      gas\n      call\n      iszero\n        /* \"--CODEGEN--\":8:17   */\n      dup1\n        /* \"--CODEGEN--\":5:7   */\n      iszero\n      tag_159\n      jumpi\n        /* \"--CODEGEN--\":45:61   */\n      returndatasize\n        /* \"--CODEGEN--\":42:43   */\n      0x00\n        /* \"--CODEGEN--\":39:40   */\n      dup1\n        /* \"--CODEGEN--\":24:62   */\n      returndatacopy\n        /* \"--CODEGEN--\":77:93   */\n      returndatasize\n        /* \"--CODEGEN--\":74:75   */\n      0x00\n        /* \"--CODEGEN--\":67:94   */\n      revert\n        /* \"--CODEGEN--\":5:7   */\n    tag_159:\n        /* \"Admin.sol\":5511:5540  erc721.approve(_to, _tokenId) */\n      pop\n      pop\n      pop\n      pop\n        /* \"Admin.sol\":5504:5540  return erc721.approve(_to, _tokenId) */\n      pop\n        /* \"Admin.sol\":5125:5547  function erc721Approve(... */\n      pop\n      pop\n      pop\n      jump\t// out\n        /* \"Admin.sol\":9093:9514  function erc20IncreaseApproval(... */\n    tag_50:\n        /* \"Admin.sol\":3714:3736  adminExist(msg.sender) */\n      tag_161\n        /* \"Admin.sol\":3725:3735  msg.sender */\n      caller\n        /* \"Admin.sol\":3714:3724  adminExist */\n      tag_101\n        /* \"Admin.sol\":3714:3736  adminExist(msg.sender) */\n      jump\t// in\n    tag_161:\n        /* \"Admin.sol\":3714:3749  adminExist(msg.sender) || isOwner() */\n      dup1\n      tag_163\n      jumpi\n      pop\n        /* \"Admin.sol\":3740:3749  isOwner() */\n      tag_163\n        /* \"Admin.sol\":3740:3747  isOwner */\n      tag_83\n        /* \"Admin.sol\":3740:3749  isOwner() */\n      jump\t// in\n    tag_163:\n        /* \"Admin.sol\":3693:3810  require(... */\n      tag_164\n      jumpi\n      mload(0x40)\n      0x08c379a000000000000000000000000000000000000000000000000000000000\n      dup2\n      mstore\n      0x04\n      add\n      dup1\n      dup1\n      0x20\n      add\n      dup3\n      dup2\n      sub\n      dup3\n      mstore\n      0x23\n      dup2\n      mstore\n      0x20\n      add\n      dup1\n      data_674a9ac1aead3691c97506b93cf9f61f3ea0388f6e9a2a7fd72dc31f93249315\n      0x23\n      swap2\n      codecopy\n      0x40\n      add\n      swap2\n      pop\n      pop\n      mload(0x40)\n      dup1\n      swap2\n      sub\n      swap1\n      revert\n    tag_164:\n        /* \"Admin.sol\":9281:9324  erc20.increaseApproval(spender, addedValue) */\n      0x40\n      dup1\n      mload\n      0xd73dd62300000000000000000000000000000000000000000000000000000000\n      dup2\n      mstore\n        /* \"Admin.sol\":9281:9303  erc20.increaseApproval */\n      0xffffffffffffffffffffffffffffffffffffffff\n        /* \"Admin.sol\":9281:9324  erc20.increaseApproval(spender, addedValue) */\n      dup5\n      dup2\n      and\n      0x04\n      dup4\n      add\n      mstore\n      0x24\n      dup3\n      add\n      dup5\n      swap1\n      mstore\n      swap2\n      mload\n        /* \"Admin.sol\":9264:9270  _erc20 */\n      dup6\n      swap3\n        /* \"Admin.sol\":9281:9303  erc20.increaseApproval */\n      dup4\n      and\n      swap2\n      0xd73dd623\n      swap2\n        /* \"Admin.sol\":9281:9324  erc20.increaseApproval(spender, addedValue) */\n      0x44\n      dup1\n      dup4\n      add\n      swap3\n        /* \"Admin.sol\":9242:9254  IERC20 erc20 */\n      0x00\n      swap3\n        /* \"Admin.sol\":9281:9324  erc20.increaseApproval(spender, addedValue) */\n      swap2\n      swap1\n      dup3\n      swap1\n      sub\n      add\n      dup2\n        /* \"Admin.sol\":9242:9254  IERC20 erc20 */\n      dup4\n        /* \"Admin.sol\":9281:9303  erc20.increaseApproval */\n      dup8\n        /* \"Admin.sol\":9281:9324  erc20.increaseApproval(spender, addedValue) */\n      dup1\n      extcodesize\n      iszero\n        /* \"--CODEGEN--\":5:7   */\n      dup1\n      iszero\n      tag_166\n      jumpi\n        /* \"--CODEGEN--\":30:31   */\n      0x00\n        /* \"--CODEGEN--\":27:28   */\n      dup1\n        /* \"--CODEGEN--\":20:32   */\n      revert\n        /* \"--CODEGEN--\":5:7   */\n    tag_166:\n        /* \"Admin.sol\":9281:9324  erc20.increaseApproval(spender, addedValue) */\n      pop\n      gas\n      call\n      iszero\n        /* \"--CODEGEN--\":8:17   */\n      dup1\n        /* \"--CODEGEN--\":5:7   */\n      iszero\n      tag_167\n      jumpi\n        /* \"--CODEGEN--\":45:61   */\n      returndatasize\n        /* \"--CODEGEN--\":42:43   */\n      0x00\n        /* \"--CODEGEN--\":39:40   */\n      dup1\n        /* \"--CODEGEN--\":24:62   */\n      returndatacopy\n        /* \"--CODEGEN--\":77:93   */\n      returndatasize\n        /* \"--CODEGEN--\":74:75   */\n      0x00\n        /* \"--CODEGEN--\":67:94   */\n      revert\n        /* \"--CODEGEN--\":5:7   */\n    tag_167:\n        /* \"Admin.sol\":9281:9324  erc20.increaseApproval(spender, addedValue) */\n      pop\n      pop\n      pop\n      pop\n        /* \"Admin.sol\":9417:9430  functionNames */\n      0x01\n        /* \"Admin.sol\":9417:9452  functionNames.erc20IncreaseApproval */\n      0x12\n      add\n        /* \"Admin.sol\":9339:9507  AdminActionPerformed(... */\n      mload(0x40)\n      dup1\n      dup3\n      dup1\n      sload\n      0x01\n      dup2\n      0x01\n      and\n      iszero\n      0x0100\n      mul\n      sub\n      and\n      0x02\n      swap1\n      div\n      dup1\n      iszero\n      tag_128\n      jumpi\n      dup1\n      0x1f\n      lt\n      tag_129\n      jumpi\n      0x0100\n      dup1\n      dup4\n      sload\n      div\n      mul\n      dup4\n      mstore\n      swap2\n      dup3\n      add\n      swap2\n      jump(tag_128)\n        /* \"Admin.sol\":4085:4175  function getAdmins() public view returns (address[] memory) {... */\n    tag_52:\n        /* \"Admin.sol\":4127:4143  address[] memory */\n      0x60\n        /* \"Admin.sol\":4162:4168  admins */\n      0x1b\n        /* \"Admin.sol\":4155:4168  return admins */\n      dup1\n      sload\n      dup1\n      0x20\n      mul\n      0x20\n      add\n      mload(0x40)\n      swap1\n      dup2\n      add\n      0x40\n      mstore\n      dup1\n      swap3\n      swap2\n      swap1\n      dup2\n      dup2\n      mstore\n      0x20\n      add\n      dup3\n      dup1\n      sload\n      dup1\n      iszero\n      tag_172\n      jumpi\n      0x20\n      mul\n      dup3\n      add\n      swap2\n      swap1\n      0x00\n      mstore\n      keccak256(0x00, 0x20)\n      swap1\n    tag_173:\n      dup2\n      sload\n      0xffffffffffffffffffffffffffffffffffffffff\n      and\n      dup2\n      mstore\n      0x01\n      swap1\n      swap2\n      add\n      swap1\n      0x20\n      add\n      dup1\n      dup4\n      gt\n      tag_173\n      jumpi\n    tag_172:\n      pop\n      pop\n      pop\n      pop\n      pop\n      swap1\n      pop\n        /* \"Admin.sol\":4085:4175  function getAdmins() public view returns (address[] memory) {... */\n      swap1\n      jump\t// out\n        /* \"Admin.sol\":9520:9887  function erc20Transfer(... */\n    tag_58:\n        /* \"Admin.sol\":3714:3736  adminExist(msg.sender) */\n      tag_175\n        /* \"Admin.sol\":3725:3735  msg.sender */\n      caller\n        /* \"Admin.sol\":3714:3724  adminExist */\n      tag_101\n        /* \"Admin.sol\":3714:3736  adminExist(msg.sender) */\n      jump\t// in\n    tag_175:\n        /* \"Admin.sol\":3714:3749  adminExist(msg.sender) || isOwner() */\n      dup1\n      tag_177\n      jumpi\n      pop\n        /* \"Admin.sol\":3740:3749  isOwner() */\n      tag_177\n        /* \"Admin.sol\":3740:3747  isOwner */\n      tag_83\n        /* \"Admin.sol\":3740:3749  isOwner() */\n      jump\t// in\n    tag_177:\n        /* \"Admin.sol\":3693:3810  require(... */\n      tag_178\n      jumpi\n      mload(0x40)\n      0x08c379a000000000000000000000000000000000000000000000000000000000\n      dup2\n      mstore\n      0x04\n      add\n      dup1\n      dup1\n      0x20\n      add\n      dup3\n      dup2\n      sub\n      dup3\n      mstore\n      0x23\n      dup2\n      mstore\n      0x20\n      add\n      dup1\n      data_674a9ac1aead3691c97506b93cf9f61f3ea0388f6e9a2a7fd72dc31f93249315\n      0x23\n      swap2\n      codecopy\n      0x40\n      add\n      swap2\n      pop\n      pop\n      mload(0x40)\n      dup1\n      swap2\n      sub\n      swap1\n      revert\n    tag_178:\n        /* \"Admin.sol\":9690:9715  erc20.transfer(to, value) */\n      0x40\n      dup1\n      mload\n      0xa9059cbb00000000000000000000000000000000000000000000000000000000\n      dup2\n      mstore\n        /* \"Admin.sol\":9690:9704  erc20.transfer */\n      0xffffffffffffffffffffffffffffffffffffffff\n        /* \"Admin.sol\":9690:9715  erc20.transfer(to, value) */\n      dup5\n      dup2\n      and\n      0x04\n      dup4\n      add\n      mstore\n      0x24\n      dup3\n      add\n      dup5\n      swap1\n      mstore\n      swap2\n      mload\n        /* \"Admin.sol\":9673:9679  _erc20 */\n      dup6\n      swap3\n        /* \"Admin.sol\":9690:9704  erc20.transfer */\n      dup4\n      and\n      swap2\n      0xa9059cbb\n      swap2\n        /* \"Admin.sol\":9690:9715  erc20.transfer(to, value) */\n      0x44\n      dup1\n      dup4\n      add\n      swap3\n      0x20\n      swap3\n      swap2\n      swap1\n      dup3\n      swap1\n      sub\n      add\n      dup2\n        /* \"Admin.sol\":9651:9663  IERC20 erc20 */\n      0x00\n        /* \"Admin.sol\":9690:9704  erc20.transfer */\n      dup8\n        /* \"Admin.sol\":9690:9715  erc20.transfer(to, value) */\n      dup1\n      extcodesize\n      iszero\n        /* \"--CODEGEN--\":5:7   */\n      dup1\n      iszero\n      tag_180\n      jumpi\n        /* \"--CODEGEN--\":30:31   */\n      0x00\n        /* \"--CODEGEN--\":27:28   */\n      dup1\n        /* \"--CODEGEN--\":20:32   */\n      revert\n        /* \"--CODEGEN--\":5:7   */\n    tag_180:\n        /* \"Admin.sol\":9690:9715  erc20.transfer(to, value) */\n      pop\n      gas\n      call\n      iszero\n        /* \"--CODEGEN--\":8:17   */\n      dup1\n        /* \"--CODEGEN--\":5:7   */\n      iszero\n      tag_181\n      jumpi\n        /* \"--CODEGEN--\":45:61   */\n      returndatasize\n        /* \"--CODEGEN--\":42:43   */\n      0x00\n        /* \"--CODEGEN--\":39:40   */\n      dup1\n        /* \"--CODEGEN--\":24:62   */\n      returndatacopy\n        /* \"--CODEGEN--\":77:93   */\n      returndatasize\n        /* \"--CODEGEN--\":74:75   */\n      0x00\n        /* \"--CODEGEN--\":67:94   */\n      revert\n        /* \"--CODEGEN--\":5:7   */\n    tag_181:\n        /* \"Admin.sol\":9690:9715  erc20.transfer(to, value) */\n      pop\n      pop\n      pop\n      pop\n      mload(0x40)\n      returndatasize\n        /* \"--CODEGEN--\":13:15   */\n      0x20\n        /* \"--CODEGEN--\":8:11   */\n      dup2\n        /* \"--CODEGEN--\":5:16   */\n      lt\n        /* \"--CODEGEN--\":2:4   */\n      iszero\n      tag_182\n      jumpi\n        /* \"--CODEGEN--\":29:30   */\n      0x00\n        /* \"--CODEGEN--\":26:27   */\n      dup1\n        /* \"--CODEGEN--\":19:31   */\n      revert\n        /* \"--CODEGEN--\":2:4   */\n    tag_182:\n      pop\n      pop\n        /* \"Admin.sol\":9730:9880  AdminActionPerformed(... */\n      mload(0x40)\n        /* \"Admin.sol\":9808:9835  functionNames.erc20Transfer */\n      0x14\n        /* \"Admin.sol\":9730:9880  AdminActionPerformed(... */\n      dup1\n      sload\n        /* \"Admin.sol\":9808:9835  functionNames.erc20Transfer */\n      swap1\n      swap2\n        /* \"Admin.sol\":9730:9880  AdminActionPerformed(... */\n      swap1\n      dup2\n      swap1\n        /* \"Admin.sol\":9808:9835  functionNames.erc20Transfer */\n      dup4\n      swap1\n        /* \"Admin.sol\":9730:9880  AdminActionPerformed(... */\n      0x02\n      0xffffffffffffffffffffffffffffffffffffffffffffffffffffffffffffffff\n      0x0100\n        /* \"Admin.sol\":9808:9821  functionNames */\n      0x01\n        /* \"Admin.sol\":9730:9880  AdminActionPerformed(... */\n      dup5\n      and\n      iszero\n      mul\n      add\n      swap1\n      swap2\n      and\n      div\n      dup1\n      iszero\n      tag_128\n      jumpi\n      dup1\n      0x1f\n      lt\n      tag_129\n      jumpi\n      0x0100\n      dup1\n      dup4\n      sload\n      div\n      mul\n      dup4\n      mstore\n      swap2\n      dup3\n      add\n      swap2\n      jump(tag_128)\n        /* \"Admin.sol\":4523:5059  function burnNFT(address collection, uint256 tokenId)... */\n    tag_61:\n        /* \"Admin.sol\":3714:3736  adminExist(msg.sender) */\n      tag_187\n        /* \"Admin.sol\":3725:3735  msg.sender */\n      caller\n        /* \"Admin.sol\":3714:3724  adminExist */\n      tag_101\n        /* \"Admin.sol\":3714:3736  adminExist(msg.sender) */\n      jump\t// in\n    tag_187:\n        /* \"Admin.sol\":3714:3749  adminExist(msg.sender) || isOwner() */\n      dup1\n      tag_189\n      jumpi\n      pop\n        /* \"Admin.sol\":3740:3749  isOwner() */\n      tag_189\n        /* \"Admin.sol\":3740:3747  isOwner */\n      tag_83\n        /* \"Admin.sol\":3740:3749  isOwner() */\n      jump\t// in\n    tag_189:\n        /* \"Admin.sol\":3693:3810  require(... */\n      tag_190\n      jumpi\n      mload(0x40)\n      0x08c379a000000000000000000000000000000000000000000000000000000000\n      dup2\n      mstore\n      0x04\n      add\n      dup1\n      dup1\n      0x20\n      add\n      dup3\n      dup2\n      sub\n      dup3\n      mstore\n      0x23\n      dup2\n      mstore\n      0x20\n      add\n      dup1\n      data_674a9ac1aead3691c97506b93cf9f61f3ea0388f6e9a2a7fd72dc31f93249315\n      0x23\n      swap2\n      codecopy\n      0x40\n      add\n      swap2\n      pop\n      pop\n      mload(0x40)\n      dup1\n      swap2\n      sub\n      swap1\n      revert\n    tag_190:\n        /* \"Admin.sol\":4632:4650  IMintable NFTToken */\n      0x00\n        /* \"Admin.sol\":4663:4673  collection */\n      dup3\n        /* \"Admin.sol\":4632:4674  IMintable NFTToken = IMintable(collection) */\n      swap1\n      pop\n        /* \"Admin.sol\":4685:4707  string memory tokenURI */\n      0x60\n        /* \"Admin.sol\":4710:4718  NFTToken */\n      dup2\n        /* \"Admin.sol\":4710:4727  NFTToken.tokenURI */\n      0xffffffffffffffffffffffffffffffffffffffff\n      and\n      0xc87b56dd\n        /* \"Admin.sol\":4728:4735  tokenId */\n      dup5\n        /* \"Admin.sol\":4710:4736  NFTToken.tokenURI(tokenId) */\n      mload(0x40)\n      dup3\n      0xffffffff\n      and\n      0xe0\n      shl\n      dup2\n      mstore\n      0x04\n      add\n      dup1\n      dup3\n      dup2\n      mstore\n      0x20\n      add\n      swap2\n      pop\n      pop\n      0x00\n      mload(0x40)\n      dup1\n      dup4\n      sub\n      dup2\n      0x00\n      dup8\n      dup1\n      extcodesize\n      iszero\n        /* \"--CODEGEN--\":8:17   */\n      dup1\n        /* \"--CODEGEN--\":5:7   */\n      iszero\n      tag_192\n      jumpi\n        /* \"--CODEGEN--\":30:31   */\n      0x00\n        /* \"--CODEGEN--\":27:28   */\n      dup1\n        /* \"--CODEGEN--\":20:32   */\n      revert\n        /* \"--CODEGEN--\":5:7   */\n    tag_192:\n        /* \"Admin.sol\":4710:4736  NFTToken.tokenURI(tokenId) */\n      pop\n      gas\n      call\n      iszero\n        /* \"--CODEGEN--\":8:17   */\n      dup1\n        /* \"--CODEGEN--\":5:7   */\n      iszero\n      tag_193\n      jumpi\n        /* \"--CODEGEN--\":45:61   */\n      returndatasize\n        /* \"--CODEGEN--\":42:43   */\n      0x00\n        /* \"--CODEGEN--\":39:40   */\n      dup1\n        /* \"--CODEGEN--\":24:62   */\n      returndatacopy\n        /* \"--CODEGEN--\":77:93   */\n      returndatasize\n        /* \"--CODEGEN--\":74:75   */\n      0x00\n        /* \"--CODEGEN--\":67:94   */\n      revert\n        /* \"--CODEGEN--\":5:7   */\n    tag_193:\n        /* \"Admin.sol\":4710:4736  NFTToken.tokenURI(tokenId) */\n      pop\n      pop\n      pop\n      pop\n      mload(0x40)\n        /* \"--CODEGEN--\":39:55   */\n      returndatasize\n        /* \"--CODEGEN--\":36:37   */\n      0x00\n        /* \"--CODEGEN--\":17:34   */\n      dup3\n        /* \"--CODEGEN--\":2:56   */\n      returndatacopy\n        /* \"--CODEGEN--\":101:105   */\n      0x1f\n        /* \"Admin.sol\":4710:4736  NFTToken.tokenURI(tokenId) */\n      returndatasize\n        /* \"--CODEGEN--\":80:95   */\n      swap1\n      dup2\n      add\n        /* \"--CODEGEN--\":97:106   */\n      0xffffffffffffffffffffffffffffffffffffffffffffffffffffffffffffffe0\n        /* \"--CODEGEN--\":76:107   */\n      and\n        /* \"--CODEGEN--\":65:108   */\n      dup3\n      add\n        /* \"--CODEGEN--\":120:124   */\n      0x40\n        /* \"--CODEGEN--\":113:133   */\n      mstore\n        /* \"--CODEGEN--\":13:15   */\n      0x20\n        /* \"--CODEGEN--\":5:16   */\n      dup2\n      lt\n        /* \"--CODEGEN--\":2:4   */\n      iszero\n      tag_194\n      jumpi\n        /* \"--CODEGEN--\":29:30   */\n      0x00\n        /* \"--CODEGEN--\":26:27   */\n      dup1\n        /* \"--CODEGEN--\":19:31   */\n      revert\n        /* \"--CODEGEN--\":2:4   */\n    tag_194:\n        /* \"Admin.sol\":4710:4736  NFTToken.tokenURI(tokenId) */\n      dup2\n      add\n      swap1\n      dup1\n      dup1\n      mload\n      mload(0x40)\n      swap4\n      swap3\n      swap2\n      swap1\n      dup5\n        /* \"--CODEGEN--\":19:30   */\n      0x0100000000\n        /* \"--CODEGEN--\":14:17   */\n      dup3\n        /* \"--CODEGEN--\":11:31   */\n      gt\n        /* \"--CODEGEN--\":8:10   */\n      iszero\n      tag_195\n      jumpi\n        /* \"--CODEGEN--\":44:45   */\n      0x00\n        /* \"--CODEGEN--\":41:42   */\n      dup1\n        /* \"--CODEGEN--\":34:46   */\n      revert\n        /* \"--CODEGEN--\":8:10   */\n    tag_195:\n        /* \"--CODEGEN--\":62:83   */\n      swap1\n      dup4\n      add\n      swap1\n        /* \"--CODEGEN--\":123:127   */\n      0x20\n        /* \"--CODEGEN--\":114:128   */\n      dup3\n      add\n        /* \"--CODEGEN--\":138:169   */\n      dup6\n      dup2\n      gt\n        /* \"--CODEGEN--\":135:137   */\n      iszero\n      tag_196\n      jumpi\n        /* \"--CODEGEN--\":182:183   */\n      0x00\n        /* \"--CODEGEN--\":179:180   */\n      dup1\n        /* \"--CODEGEN--\":172:184   */\n      revert\n        /* \"--CODEGEN--\":135:137   */\n    tag_196:\n        /* \"--CODEGEN--\":213:223   */\n      dup3\n      mload\n        /* \"--CODEGEN--\":261:272   */\n      0x0100000000\n        /* \"--CODEGEN--\":244:273   */\n      dup2\n      gt\n        /* \"--CODEGEN--\":285:328   */\n      dup3\n      dup3\n      add\n        /* \"--CODEGEN--\":282:340   */\n      dup9\n      lt\n        /* \"--CODEGEN--\":233:348   */\n      or\n        /* \"--CODEGEN--\":230:232   */\n      iszero\n      tag_197\n      jumpi\n        /* \"--CODEGEN--\":361:362   */\n      0x00\n        /* \"--CODEGEN--\":358:359   */\n      dup1\n        /* \"--CODEGEN--\":351:363   */\n      revert\n        /* \"--CODEGEN--\":230:232   */\n    tag_197:\n        /* \"--CODEGEN--\":372:397   */\n      dup3\n      mstore\n      pop\n        /* \"Admin.sol\":4710:4736  NFTToken.tokenURI(tokenId) */\n      dup2\n      mload\n        /* \"--CODEGEN--\":420:424   */\n      0x20\n        /* \"--CODEGEN--\":411:425   */\n      swap2\n      dup3\n      add\n      swap3\n        /* \"Admin.sol\":4710:4736  NFTToken.tokenURI(tokenId) */\n      swap1\n      swap2\n      add\n      swap1\n      dup1\n        /* \"--CODEGEN--\":411:425   */\n      dup4\n        /* \"Admin.sol\":4710:4736  NFTToken.tokenURI(tokenId) */\n      dup4\n        /* \"--CODEGEN--\":23:24   */\n      0x00\n        /* \"--CODEGEN--\":8:108   */\n    tag_198:\n        /* \"--CODEGEN--\":33:36   */\n      dup4\n        /* \"--CODEGEN--\":30:31   */\n      dup2\n        /* \"--CODEGEN--\":27:37   */\n      lt\n        /* \"--CODEGEN--\":8:108   */\n      iszero\n      tag_200\n      jumpi\n        /* \"--CODEGEN--\":90:101   */\n      dup2\n      dup2\n      add\n        /* \"--CODEGEN--\":84:102   */\n      mload\n        /* \"--CODEGEN--\":71:82   */\n      dup4\n      dup3\n      add\n        /* \"--CODEGEN--\":64:103   */\n      mstore\n        /* \"--CODEGEN--\":52:54   */\n      0x20\n        /* \"--CODEGEN--\":45:55   */\n      add\n        /* \"--CODEGEN--\":8:108   */\n      jump(tag_198)\n    tag_200:\n        /* \"--CODEGEN--\":12:26   */\n      pop\n        /* \"Admin.sol\":4710:4736  NFTToken.tokenURI(tokenId) */\n      pop\n      pop\n      pop\n      swap1\n      pop\n      swap1\n      dup2\n      add\n      swap1\n      0x1f\n      and\n      dup1\n      iszero\n      tag_201\n      jumpi\n      dup1\n      dup3\n      sub\n      dup1\n      mload\n      0x01\n      dup4\n      0x20\n      sub\n      0x0100\n      exp\n      sub\n      not\n      and\n      dup2\n      mstore\n      0x20\n      add\n      swap2\n      pop\n    tag_201:\n      pop\n      0x40\n      dup2\n      dup2\n      mstore\n        /* \"Admin.sol\":4767:4796  NFTToken.getApproved(tokenId) */\n      0x081812fc00000000000000000000000000000000000000000000000000000000\n      dup3\n      mstore\n      0x04\n      dup3\n      add\n      dup10\n      swap1\n      mstore\n      mload\n        /* \"Admin.sol\":4685:4736  string memory tokenURI = NFTToken.tokenURI(tokenId) */\n      swap5\n      swap6\n      pop\n        /* \"Admin.sol\":4808:4812  this */\n      address\n      swap5\n        /* \"Admin.sol\":4767:4813  NFTToken.getApproved(tokenId) == address(this) */\n      0xffffffffffffffffffffffffffffffffffffffff\n        /* \"Admin.sol\":4767:4787  NFTToken.getApproved */\n      dup9\n      and\n      swap5\n      pop\n      0x081812fc\n      swap4\n      pop\n        /* \"Admin.sol\":4767:4796  NFTToken.getApproved(tokenId) */\n      0x24\n      dup1\n      dup4\n      add\n      swap4\n      pop\n      0x20\n      swap3\n      dup3\n      swap1\n      sub\n      add\n      dup2\n      0x00\n        /* \"Admin.sol\":4767:4787  NFTToken.getApproved */\n      dup8\n        /* \"Admin.sol\":4767:4796  NFTToken.getApproved(tokenId) */\n      dup1\n      extcodesize\n      iszero\n        /* \"--CODEGEN--\":5:7   */\n      dup1\n      iszero\n      tag_202\n      jumpi\n        /* \"--CODEGEN--\":30:31   */\n      0x00\n        /* \"--CODEGEN--\":27:28   */\n      dup1\n        /* \"--CODEGEN--\":20:32   */\n      revert\n        /* \"--CODEGEN--\":5:7   */\n    tag_202:\n        /* \"Admin.sol\":4767:4796  NFTToken.getApproved(tokenId) */\n      pop\n      gas\n      call\n      iszero\n        /* \"--CODEGEN--\":8:17   */\n      dup1\n        /* \"--CODEGEN--\":5:7   */\n      iszero\n      tag_203\n      jumpi\n        /* \"--CODEGEN--\":45:61   */\n      returndatasize\n        /* \"--CODEGEN--\":42:43   */\n      0x00\n        /* \"--CODEGEN--\":39:40   */\n      dup1\n        /* \"--CODEGEN--\":24:62   */\n      returndatacopy\n        /* \"--CODEGEN--\":77:93   */\n      returndatasize\n        /* \"--CODEGEN--\":74:75   */\n      0x00\n        /* \"--CODEGEN--\":67:94   */\n      revert\n        /* \"--CODEGEN--\":5:7   */\n    tag_203:\n        /* \"Admin.sol\":4767:4796  NFTToken.getApproved(tokenId) */\n      pop\n      pop\n      pop\n      pop\n      mload(0x40)\n      returndatasize\n        /* \"--CODEGEN--\":13:15   */\n      0x20\n        /* \"--CODEGEN--\":8:11   */\n      dup2\n        /* \"--CODEGEN--\":5:16   */\n      lt\n        /* \"--CODEGEN--\":2:4   */\n      iszero\n      tag_204\n      jumpi\n        /* \"--CODEGEN--\":29:30   */\n      0x00\n        /* \"--CODEGEN--\":26:27   */\n      dup1\n        /* \"--CODEGEN--\":19:31   */\n      revert\n        /* \"--CODEGEN--\":2:4   */\n    tag_204:\n      pop\n        /* \"Admin.sol\":4767:4796  NFTToken.getApproved(tokenId) */\n      mload\n        /* \"Admin.sol\":4767:4813  NFTToken.getApproved(tokenId) == address(this) */\n      0xffffffffffffffffffffffffffffffffffffffff\n      and\n      eq\n        /* \"Admin.sol\":4746:4866  require(... */\n      tag_205\n      jumpi\n      0x40\n      dup1\n      mload\n      0x08c379a000000000000000000000000000000000000000000000000000000000\n      dup2\n      mstore\n      0x20\n      0x04\n      dup3\n      add\n      mstore\n      0x1b\n      0x24\n      dup3\n      add\n      mstore\n      0x546f6b656e206e6f74206170706f726f766520666f72206275726e0000000000\n      0x44\n      dup3\n      add\n      mstore\n      swap1\n      mload\n      swap1\n      dup2\n      swap1\n      sub\n      0x64\n      add\n      swap1\n      revert\n    tag_205:\n        /* \"Admin.sol\":4876:4884  NFTToken */\n      dup2\n        /* \"Admin.sol\":4876:4889  NFTToken.burn */\n      0xffffffffffffffffffffffffffffffffffffffff\n      and\n      0x42966c68\n        /* \"Admin.sol\":4890:4897  tokenId */\n      dup5\n        /* \"Admin.sol\":4876:4898  NFTToken.burn(tokenId) */\n      mload(0x40)\n      dup3\n      0xffffffff\n      and\n      0xe0\n      shl\n      dup2\n      mstore\n      0x04\n      add\n      dup1\n      dup3\n      dup2\n      mstore\n      0x20\n      add\n      swap2\n      pop\n      pop\n      0x00\n      mload(0x40)\n      dup1\n      dup4\n      sub\n      dup2\n      0x00\n      dup8\n      dup1\n      extcodesize\n      iszero\n        /* \"--CODEGEN--\":8:17   */\n      dup1\n        /* \"--CODEGEN--\":5:7   */\n      iszero\n      tag_206\n      jumpi\n        /* \"--CODEGEN--\":30:31   */\n      0x00\n        /* \"--CODEGEN--\":27:28   */\n      dup1\n        /* \"--CODEGEN--\":20:32   */\n      revert\n        /* \"--CODEGEN--\":5:7   */\n    tag_206:\n        /* \"Admin.sol\":4876:4898  NFTToken.burn(tokenId) */\n      pop\n      gas\n      call\n      iszero\n        /* \"--CODEGEN--\":8:17   */\n      dup1\n        /* \"--CODEGEN--\":5:7   */\n      iszero\n      tag_207\n      jumpi\n        /* \"--CODEGEN--\":45:61   */\n      returndatasize\n        /* \"--CODEGEN--\":42:43   */\n      0x00\n        /* \"--CODEGEN--\":39:40   */\n      dup1\n        /* \"--CODEGEN--\":24:62   */\n      returndatacopy\n        /* \"--CODEGEN--\":77:93   */\n      returndatasize\n        /* \"--CODEGEN--\":74:75   */\n      0x00\n        /* \"--CODEGEN--\":67:94   */\n      revert\n        /* \"--CODEGEN--\":5:7   */\n    tag_207:\n        /* \"Admin.sol\":4876:4898  NFTToken.burn(tokenId) */\n      pop\n      pop\n      pop\n      pop\n        /* \"Admin.sol\":4981:4991  msg.sender */\n      caller\n        /* \"Admin.sol\":4913:5052  NFTBurned(... */\n      0xffffffffffffffffffffffffffffffffffffffff\n      and\n        /* \"Admin.sol\":4960:4967  tokenId */\n      dup4\n        /* \"Admin.sol\":4936:4946  collection */\n      dup6\n        /* \"Admin.sol\":4913:5052  NFTBurned(... */\n      0xffffffffffffffffffffffffffffffffffffffff\n      and\n      0x926b248e45dfdd4c4caec216e73ec503ce2522d3b5646c861d1b074210675d0e\n        /* \"Admin.sol\":5005:5020  block.timestamp */\n      timestamp\n        /* \"Admin.sol\":5034:5042  tokenURI */\n      dup6\n        /* \"Admin.sol\":4913:5052  NFTBurned(... */\n      mload(0x40)\n      dup1\n      dup4\n      dup2\n      mstore\n      0x20\n      add\n      dup1\n      0x20\n      add\n      dup3\n      dup2\n      sub\n      dup3\n      mstore\n      dup4\n      dup2\n      dup2\n      mload\n      dup2\n      mstore\n      0x20\n      add\n      swap2\n      pop\n      dup1\n      mload\n      swap1\n      0x20\n      add\n      swap1\n      dup1\n      dup4\n      dup4\n        /* \"--CODEGEN--\":23:24   */\n      0x00\n        /* \"--CODEGEN--\":8:108   */\n    tag_208:\n        /* \"--CODEGEN--\":33:36   */\n      dup4\n        /* \"--CODEGEN--\":30:31   */\n      dup2\n        /* \"--CODEGEN--\":27:37   */\n      lt\n        /* \"--CODEGEN--\":8:108   */\n      iszero\n      tag_210\n      jumpi\n        /* \"--CODEGEN--\":90:101   */\n      dup2\n      dup2\n      add\n        /* \"--CODEGEN--\":84:102   */\n      mload\n        /* \"--CODEGEN--\":71:82   */\n      dup4\n      dup3\n      add\n        /* \"--CODEGEN--\":64:103   */\n      mstore\n        /* \"--CODEGEN--\":52:54   */\n      0x20\n        /* \"--CODEGEN--\":45:55   */\n      add\n        /* \"--CODEGEN--\":8:108   */\n      jump(tag_208)\n    tag_210:\n        /* \"--CODEGEN--\":12:26   */\n      pop\n        /* \"Admin.sol\":4913:5052  NFTBurned(... */\n      pop\n      pop\n      pop\n      swap1\n      pop\n      swap1\n      dup2\n      add\n      swap1\n      0x1f\n      and\n      dup1\n      iszero\n      tag_211\n      jumpi\n      dup1\n      dup3\n      sub\n      dup1\n      mload\n      0x01\n      dup4\n      0x20\n      sub\n      0x0100\n      exp\n      sub\n      not\n      and\n      dup2\n      mstore\n      0x20\n      add\n      swap2\n      pop\n    tag_211:\n      pop\n      swap4\n      pop\n      pop\n      pop\n      pop\n      mload(0x40)\n      dup1\n      swap2\n      sub\n      swap1\n      log4\n        /* \"Admin.sol\":3820:3821  _ */\n      pop\n      pop\n        /* \"Admin.sol\":4523:5059  function burnNFT(address collection, uint256 tokenId)... */\n      pop\n      pop\n      jump\t// out\n        /* \"Admin.sol\":5984:6366  function erc721Burn(address _ERC721Address, uint256 tokenId)... */\n    tag_64:\n        /* \"Admin.sol\":3714:3736  adminExist(msg.sender) */\n      tag_213\n        /* \"Admin.sol\":3725:3735  msg.sender */\n      caller\n        /* \"Admin.sol\":3714:3724  adminExist */\n      tag_101\n        /* \"Admin.sol\":3714:3736  adminExist(msg.sender) */\n      jump\t// in\n    tag_213:\n        /* \"Admin.sol\":3714:3749  adminExist(msg.sender) || isOwner() */\n      dup1\n      tag_215\n      jumpi\n      pop\n        /* \"Admin.sol\":3740:3749  isOwner() */\n      tag_215\n        /* \"Admin.sol\":3740:3747  isOwner */\n      tag_83\n        /* \"Admin.sol\":3740:3749  isOwner() */\n      jump\t// in\n    tag_215:\n        /* \"Admin.sol\":3693:3810  require(... */\n      tag_216\n      jumpi\n      mload(0x40)\n      0x08c379a000000000000000000000000000000000000000000000000000000000\n      dup2\n      mstore\n      0x04\n      add\n      dup1\n      dup1\n      0x20\n      add\n      dup3\n      dup2\n      sub\n      dup3\n      mstore\n      0x23\n      dup2\n      mstore\n      0x20\n      add\n      dup1\n      data_674a9ac1aead3691c97506b93cf9f61f3ea0388f6e9a2a7fd72dc31f93249315\n      0x23\n      swap2\n      codecopy\n      0x40\n      add\n      swap2\n      pop\n      pop\n      mload(0x40)\n      dup1\n      swap2\n      sub\n      swap1\n      revert\n    tag_216:\n        /* \"Admin.sol\":6100:6116  IMintable erc721 */\n      0x00\n        /* \"Admin.sol\":6129:6143  _ERC721Address */\n      dup3\n        /* \"Admin.sol\":6100:6144  IMintable erc721 = IMintable(_ERC721Address) */\n      swap1\n      pop\n        /* \"Admin.sol\":6245:6258  functionNames */\n      0x01\n        /* \"Admin.sol\":6245:6263  functionNames.burn */\n      0x02\n      add\n        /* \"Admin.sol\":6159:6322  AdminActionPerformed(... */\n      mload(0x40)\n      dup1\n      dup3\n      dup1\n      sload\n      0x01\n      dup2\n      0x01\n      and\n      iszero\n      0x0100\n      mul\n      sub\n      and\n      0x02\n      swap1\n      div\n      dup1\n      iszero\n      tag_218\n      jumpi\n      dup1\n      0x1f\n      lt\n      tag_219\n      jumpi\n      0x0100\n      dup1\n      dup4\n      sload\n      div\n      mul\n      dup4\n      mstore\n      swap2\n      dup3\n      add\n      swap2\n      jump(tag_218)\n    tag_219:\n      dup3\n      add\n      swap2\n      swap1\n      0x00\n      mstore\n      keccak256(0x00, 0x20)\n      swap1\n    tag_220:\n      dup2\n      sload\n      dup2\n      mstore\n      swap1\n      0x01\n      add\n      swap1\n      0x20\n      add\n      dup1\n      dup4\n      gt\n      tag_220\n      jumpi\n    tag_218:\n      pop\n      pop\n      0x40\n      dup1\n      mload\n      swap2\n      dup3\n      swap1\n      sub\n      dup3\n      keccak256\n      0xffffffffffffffffffffffffffffffffffffffff\n      dup9\n      and\n      dup1\n      dup5\n      mstore\n      0x20\n      dup5\n      add\n      dup9\n      swap1\n      mstore\n      dup3\n      mload\n      swap2\n      swap6\n      pop\n      swap4\n      pop\n        /* \"Admin.sol\":6193:6203  msg.sender */\n      caller\n      swap3\n        /* \"Admin.sol\":6159:6322  AdminActionPerformed(... */\n      0x32a9eeb55ea56eb60badfb6642d5b92be35b6da6f74892c12d0e14a50dfc2bac\n      swap3\n      swap1\n      dup3\n      swap1\n      sub\n      add\n      swap1\n      log4\n        /* \"Admin.sol\":6339:6345  erc721 */\n      dup1\n        /* \"Admin.sol\":6339:6350  erc721.burn */\n      0xffffffffffffffffffffffffffffffffffffffff\n      and\n      0x42966c68\n        /* \"Admin.sol\":6351:6358  tokenId */\n      dup4\n        /* \"Admin.sol\":6339:6359  erc721.burn(tokenId) */\n      mload(0x40)\n      dup3\n      0xffffffff\n      and\n      0xe0\n      shl\n      dup2\n      mstore\n      0x04\n      add\n      dup1\n      dup3\n      dup2\n      mstore\n      0x20\n      add\n      swap2\n      pop\n      pop\n      0x00\n      mload(0x40)\n      dup1\n      dup4\n      sub\n      dup2\n      0x00\n      dup8\n      dup1\n      extcodesize\n      iszero\n        /* \"--CODEGEN--\":8:17   */\n      dup1\n        /* \"--CODEGEN--\":5:7   */\n      iszero\n      tag_221\n      jumpi\n        /* \"--CODEGEN--\":30:31   */\n      0x00\n        /* \"--CODEGEN--\":27:28   */\n      dup1\n        /* \"--CODEGEN--\":20:32   */\n      revert\n        /* \"--CODEGEN--\":5:7   */\n    tag_221:\n        /* \"Admin.sol\":6339:6359  erc721.burn(tokenId) */\n      pop\n      gas\n      call\n      iszero\n        /* \"--CODEGEN--\":8:17   */\n      dup1\n        /* \"--CODEGEN--\":5:7   */\n      iszero\n      tag_222\n      jumpi\n        /* \"--CODEGEN--\":45:61   */\n      returndatasize\n        /* \"--CODEGEN--\":42:43   */\n      0x00\n        /* \"--CODEGEN--\":39:40   */\n      dup1\n        /* \"--CODEGEN--\":24:62   */\n      returndatacopy\n        /* \"--CODEGEN--\":77:93   */\n      returndatasize\n        /* \"--CODEGEN--\":74:75   */\n      0x00\n        /* \"--CODEGEN--\":67:94   */\n      revert\n        /* \"--CODEGEN--\":5:7   */\n    tag_222:\n        /* \"Admin.sol\":6339:6359  erc721.burn(tokenId) */\n      pop\n      pop\n      pop\n      pop\n        /* \"Admin.sol\":6332:6359  return erc721.burn(tokenId) */\n      pop\n        /* \"Admin.sol\":5984:6366  function erc721Burn(address _ERC721Address, uint256 tokenId)... */\n      pop\n      pop\n      jump\t// out\n        /* \"Admin.sol\":7280:7787  function erc721SafeTransferFrom(... */\n    tag_70:\n        /* \"Admin.sol\":3714:3736  adminExist(msg.sender) */\n      tag_224\n        /* \"Admin.sol\":3725:3735  msg.sender */\n      caller\n        /* \"Admin.sol\":3714:3724  adminExist */\n      tag_101\n        /* \"Admin.sol\":3714:3736  adminExist(msg.sender) */\n      jump\t// in\n    tag_224:\n        /* \"Admin.sol\":3714:3749  adminExist(msg.sender) || isOwner() */\n      dup1\n      tag_226\n      jumpi\n      pop\n        /* \"Admin.sol\":3740:3749  isOwner() */\n      tag_226\n        /* \"Admin.sol\":3740:3747  isOwner */\n      tag_83\n        /* \"Admin.sol\":3740:3749  isOwner() */\n      jump\t// in\n    tag_226:\n        /* \"Admin.sol\":3693:3810  require(... */\n      tag_227\n      jumpi\n      mload(0x40)\n      0x08c379a000000000000000000000000000000000000000000000000000000000\n      dup2\n      mstore\n      0x04\n      add\n      dup1\n      dup1\n      0x20\n      add\n      dup3\n      dup2\n      sub\n      dup3\n      mstore\n      0x23\n      dup2\n      mstore\n      0x20\n      add\n      dup1\n      data_674a9ac1aead3691c97506b93cf9f61f3ea0388f6e9a2a7fd72dc31f93249315\n      0x23\n      swap2\n      codecopy\n      0x40\n      add\n      swap2\n      pop\n      pop\n      mload(0x40)\n      dup1\n      swap2\n      sub\n      swap1\n      revert\n    tag_227:\n        /* \"Admin.sol\":7480:7496  IMintable erc721 */\n      0x00\n        /* \"Admin.sol\":7509:7523  _ERC721Address */\n      dup6\n        /* \"Admin.sol\":7480:7524  IMintable erc721 = IMintable(_ERC721Address) */\n      swap1\n      pop\n        /* \"Admin.sol\":7625:7638  functionNames */\n      0x01\n        /* \"Admin.sol\":7625:7655  functionNames.safeTransferFrom */\n      0x04\n      add\n        /* \"Admin.sol\":7539:7714  AdminActionPerformed(... */\n      mload(0x40)\n      dup1\n      dup3\n      dup1\n      sload\n      0x01\n      dup2\n      0x01\n      and\n      iszero\n      0x0100\n      mul\n      sub\n      and\n      0x02\n      swap1\n      div\n      dup1\n      iszero\n      tag_229\n      jumpi\n      dup1\n      0x1f\n      lt\n      tag_230\n      jumpi\n      0x0100\n      dup1\n      dup4\n      sload\n      div\n      mul\n      dup4\n      mstore\n      swap2\n      dup3\n      add\n      swap2\n      jump(tag_229)\n    tag_230:\n      dup3\n      add\n      swap2\n      swap1\n      0x00\n      mstore\n      keccak256(0x00, 0x20)\n      swap1\n    tag_231:\n      dup2\n      sload\n      dup2\n      mstore\n      swap1\n      0x01\n      add\n      swap1\n      0x20\n      add\n      dup1\n      dup4\n      gt\n      tag_231\n      jumpi\n    tag_229:\n      pop\n      pop\n      0x40\n      dup1\n      mload\n      swap2\n      dup3\n      swap1\n      sub\n      dup3\n      keccak256\n      0xffffffffffffffffffffffffffffffffffffffff\n      dup12\n      and\n      dup1\n      dup5\n      mstore\n      0x20\n      dup5\n      add\n      dup10\n      swap1\n      mstore\n      dup3\n      mload\n      swap2\n      swap6\n      pop\n      swap4\n      pop\n        /* \"Admin.sol\":7573:7583  msg.sender */\n      caller\n      swap3\n        /* \"Admin.sol\":7539:7714  AdminActionPerformed(... */\n      0x32a9eeb55ea56eb60badfb6642d5b92be35b6da6f74892c12d0e14a50dfc2bac\n      swap3\n      swap1\n      dup3\n      swap1\n      sub\n      add\n      swap1\n      log4\n        /* \"Admin.sol\":7731:7780  erc721.safeTransferFrom(from, to, tokenId, _data) */\n      mload(0x40)\n      0xb88d4fde00000000000000000000000000000000000000000000000000000000\n      dup2\n      mstore\n        /* \"Admin.sol\":7731:7754  erc721.safeTransferFrom */\n      0xffffffffffffffffffffffffffffffffffffffff\n        /* \"Admin.sol\":7731:7780  erc721.safeTransferFrom(from, to, tokenId, _data) */\n      dup7\n      dup2\n      and\n      0x04\n      dup4\n      add\n      swap1\n      dup2\n      mstore\n      dup7\n      dup3\n      and\n      0x24\n      dup5\n      add\n      mstore\n      0x44\n      dup4\n      add\n      dup7\n      swap1\n      mstore\n      0x80\n      0x64\n      dup5\n      add\n      swap1\n      dup2\n      mstore\n      dup6\n      mload\n      0x84\n      dup6\n      add\n      mstore\n      dup6\n      mload\n        /* \"Admin.sol\":7731:7754  erc721.safeTransferFrom */\n      swap3\n      dup6\n      and\n      swap4\n      0xb88d4fde\n      swap4\n        /* \"Admin.sol\":7755:7759  from */\n      dup11\n      swap4\n        /* \"Admin.sol\":7761:7763  to */\n      dup11\n      swap4\n        /* \"Admin.sol\":7765:7772  tokenId */\n      dup11\n      swap4\n        /* \"Admin.sol\":7774:7779  _data */\n      dup11\n      swap4\n        /* \"Admin.sol\":7731:7780  erc721.safeTransferFrom(from, to, tokenId, _data) */\n      0xa4\n      swap1\n      swap2\n      add\n      swap1\n      0x20\n      dup6\n      add\n      swap1\n      dup1\n      dup4\n      dup4\n      0x00\n        /* \"--CODEGEN--\":8:108   */\n    tag_232:\n        /* \"--CODEGEN--\":33:36   */\n      dup4\n        /* \"--CODEGEN--\":30:31   */\n      dup2\n        /* \"--CODEGEN--\":27:37   */\n      lt\n        /* \"--CODEGEN--\":8:108   */\n      iszero\n      tag_234\n      jumpi\n        /* \"--CODEGEN--\":90:101   */\n      dup2\n      dup2\n      add\n        /* \"--CODEGEN--\":84:102   */\n      mload\n        /* \"--CODEGEN--\":71:82   */\n      dup4\n      dup3\n      add\n        /* \"--CODEGEN--\":64:103   */\n      mstore\n        /* \"--CODEGEN--\":52:54   */\n      0x20\n        /* \"--CODEGEN--\":45:55   */\n      add\n        /* \"--CODEGEN--\":8:108   */\n      jump(tag_232)\n    tag_234:\n        /* \"--CODEGEN--\":12:26   */\n      pop\n        /* \"Admin.sol\":7731:7780  erc721.safeTransferFrom(from, to, tokenId, _data) */\n      pop\n      pop\n      pop\n      swap1\n      pop\n      swap1\n      dup2\n      add\n      swap1\n      0x1f\n      and\n      dup1\n      iszero\n      tag_235\n      jumpi\n      dup1\n      dup3\n      sub\n      dup1\n      mload\n      0x01\n      dup4\n      0x20\n      sub\n      0x0100\n      exp\n      sub\n      not\n      and\n      dup2\n      mstore\n      0x20\n      add\n      swap2\n      pop\n    tag_235:\n      pop\n      swap6\n      pop\n      pop\n      pop\n      pop\n      pop\n      pop\n      0x00\n      mload(0x40)\n      dup1\n      dup4\n      sub\n      dup2\n      0x00\n      dup8\n      dup1\n      extcodesize\n      iszero\n        /* \"--CODEGEN--\":8:17   */\n      dup1\n        /* \"--CODEGEN--\":5:7   */\n      iszero\n      tag_236\n      jumpi\n        /* \"--CODEGEN--\":30:31   */\n      0x00\n        /* \"--CODEGEN--\":27:28   */\n      dup1\n        /* \"--CODEGEN--\":20:32   */\n      revert\n        /* \"--CODEGEN--\":5:7   */\n    tag_236:\n        /* \"Admin.sol\":7731:7780  erc721.safeTransferFrom(from, to, tokenId, _data) */\n      pop\n      gas\n      call\n      iszero\n        /* \"--CODEGEN--\":8:17   */\n      dup1\n        /* \"--CODEGEN--\":5:7   */\n      iszero\n      tag_237\n      jumpi\n        /* \"--CODEGEN--\":45:61   */\n      returndatasize\n        /* \"--CODEGEN--\":42:43   */\n      0x00\n        /* \"--CODEGEN--\":39:40   */\n      dup1\n        /* \"--CODEGEN--\":24:62   */\n      returndatacopy\n        /* \"--CODEGEN--\":77:93   */\n      returndatasize\n        /* \"--CODEGEN--\":74:75   */\n      0x00\n        /* \"--CODEGEN--\":67:94   */\n      revert\n        /* \"--CODEGEN--\":5:7   */\n    tag_237:\n        /* \"Admin.sol\":7731:7780  erc721.safeTransferFrom(from, to, tokenId, _data) */\n      pop\n      pop\n      pop\n      pop\n        /* \"Admin.sol\":7724:7780  return erc721.safeTransferFrom(from, to, tokenId, _data) */\n      pop\n        /* \"Admin.sol\":7280:7787  function erc721SafeTransferFrom(... */\n      pop\n      pop\n      pop\n      pop\n      pop\n      jump\t// out\n        /* \"Admin.sol\":6802:7274  function erc721SafeTransferFrom(... */\n    tag_73:\n        /* \"Admin.sol\":3714:3736  adminExist(msg.sender) */\n      tag_239\n        /* \"Admin.sol\":3725:3735  msg.sender */\n      caller\n        /* \"Admin.sol\":3714:3724  adminExist */\n      tag_101\n        /* \"Admin.sol\":3714:3736  adminExist(msg.sender) */\n      jump\t// in\n    tag_239:\n        /* \"Admin.sol\":3714:3749  adminExist(msg.sender) || isOwner() */\n      dup1\n      tag_241\n      jumpi\n      pop\n        /* \"Admin.sol\":3740:3749  isOwner() */\n      tag_241\n        /* \"Admin.sol\":3740:3747  isOwner */\n      tag_83\n        /* \"Admin.sol\":3740:3749  isOwner() */\n      jump\t// in\n    tag_241:\n        /* \"Admin.sol\":3693:3810  require(... */\n      tag_242\n      jumpi\n      mload(0x40)\n      0x08c379a000000000000000000000000000000000000000000000000000000000\n      dup2\n      mstore\n      0x04\n      add\n      dup1\n      dup1\n      0x20\n      add\n      dup3\n      dup2\n      sub\n      dup3\n      mstore\n      0x23\n      dup2\n      mstore\n      0x20\n      add\n      dup1\n      data_674a9ac1aead3691c97506b93cf9f61f3ea0388f6e9a2a7fd72dc31f93249315\n      0x23\n      swap2\n      codecopy\n      0x40\n      add\n      swap2\n      pop\n      pop\n      mload(0x40)\n      dup1\n      swap2\n      sub\n      swap1\n      revert\n    tag_242:\n        /* \"Admin.sol\":6974:6990  IMintable erc721 */\n      0x00\n        /* \"Admin.sol\":7003:7017  _ERC721Address */\n      dup5\n        /* \"Admin.sol\":6974:7018  IMintable erc721 = IMintable(_ERC721Address) */\n      swap1\n      pop\n        /* \"Admin.sol\":7119:7132  functionNames */\n      0x01\n        /* \"Admin.sol\":7119:7149  functionNames.safeTransferFrom */\n      0x04\n      add\n        /* \"Admin.sol\":7033:7208  AdminActionPerformed(... */\n      mload(0x40)\n      dup1\n      dup3\n      dup1\n      sload\n      0x01\n      dup2\n      0x01\n      and\n      iszero\n      0x0100\n      mul\n      sub\n      and\n      0x02\n      swap1\n      div\n      dup1\n      iszero\n      tag_244\n      jumpi\n      dup1\n      0x1f\n      lt\n      tag_245\n      jumpi\n      0x0100\n      dup1\n      dup4\n      sload\n      div\n      mul\n      dup4\n      mstore\n      swap2\n      dup3\n      add\n      swap2\n      jump(tag_244)\n    tag_245:\n      dup3\n      add\n      swap2\n      swap1\n      0x00\n      mstore\n      keccak256(0x00, 0x20)\n      swap1\n    tag_246:\n      dup2\n      sload\n      dup2\n      mstore\n      swap1\n      0x01\n      add\n      swap1\n      0x20\n      add\n      dup1\n      dup4\n      gt\n      tag_246\n      jumpi\n    tag_244:\n      pop\n      pop\n      0x40\n      dup1\n      mload\n      swap2\n      dup3\n      swap1\n      sub\n      dup3\n      keccak256\n      0xffffffffffffffffffffffffffffffffffffffff\n      dup11\n      and\n      dup1\n      dup5\n      mstore\n      0x20\n      dup5\n      add\n      dup9\n      swap1\n      mstore\n      dup3\n      mload\n      swap2\n      swap6\n      pop\n      swap4\n      pop\n        /* \"Admin.sol\":7067:7077  msg.sender */\n      caller\n      swap3\n        /* \"Admin.sol\":7033:7208  AdminActionPerformed(... */\n      0x32a9eeb55ea56eb60badfb6642d5b92be35b6da6f74892c12d0e14a50dfc2bac\n      swap3\n      swap1\n      dup3\n      swap1\n      sub\n      add\n      swap1\n      log4\n        /* \"Admin.sol\":7225:7267  erc721.safeTransferFrom(from, to, tokenId) */\n      0x40\n      dup1\n      mload\n      0x42842e0e00000000000000000000000000000000000000000000000000000000\n      dup2\n      mstore\n        /* \"Admin.sol\":7225:7248  erc721.safeTransferFrom */\n      0xffffffffffffffffffffffffffffffffffffffff\n        /* \"Admin.sol\":7225:7267  erc721.safeTransferFrom(from, to, tokenId) */\n      dup7\n      dup2\n      and\n      0x04\n      dup4\n      add\n      mstore\n      dup6\n      dup2\n      and\n      0x24\n      dup4\n      add\n      mstore\n      0x44\n      dup3\n      add\n      dup6\n      swap1\n      mstore\n      swap2\n      mload\n        /* \"Admin.sol\":7225:7248  erc721.safeTransferFrom */\n      swap2\n      dup4\n      and\n      swap2\n      0x42842e0e\n      swap2\n        /* \"Admin.sol\":7225:7267  erc721.safeTransferFrom(from, to, tokenId) */\n      0x64\n      dup1\n      dup3\n      add\n      swap3\n      0x00\n      swap3\n      swap1\n      swap2\n      swap1\n      dup3\n      swap1\n      sub\n      add\n      dup2\n      dup4\n        /* \"Admin.sol\":7225:7248  erc721.safeTransferFrom */\n      dup8\n        /* \"Admin.sol\":7225:7267  erc721.safeTransferFrom(from, to, tokenId) */\n      dup1\n      extcodesize\n      iszero\n        /* \"--CODEGEN--\":5:7   */\n      dup1\n      iszero\n      tag_247\n      jumpi\n        /* \"--CODEGEN--\":30:31   */\n      0x00\n        /* \"--CODEGEN--\":27:28   */\n      dup1\n        /* \"--CODEGEN--\":20:32   */\n      revert\n        /* \"--CODEGEN--\":5:7   */\n    tag_247:\n        /* \"Admin.sol\":7225:7267  erc721.safeTransferFrom(from, to, tokenId) */\n      pop\n      gas\n      call\n      iszero\n        /* \"--CODEGEN--\":8:17   */\n      dup1\n        /* \"--CODEGEN--\":5:7   */\n      iszero\n      tag_248\n      jumpi\n        /* \"--CODEGEN--\":45:61   */\n      returndatasize\n        /* \"--CODEGEN--\":42:43   */\n      0x00\n        /* \"--CODEGEN--\":39:40   */\n      dup1\n        /* \"--CODEGEN--\":24:62   */\n      returndatacopy\n        /* \"--CODEGEN--\":77:93   */\n      returndatasize\n        /* \"--CODEGEN--\":74:75   */\n      0x00\n        /* \"--CODEGEN--\":67:94   */\n      revert\n        /* \"--CODEGEN--\":5:7   */\n    tag_248:\n        /* \"Admin.sol\":7225:7267  erc721.safeTransferFrom(from, to, tokenId) */\n      pop\n      pop\n      pop\n      pop\n        /* \"Admin.sol\":7218:7267  return erc721.safeTransferFrom(from, to, tokenId) */\n      pop\n        /* \"Admin.sol\":6802:7274  function erc721SafeTransferFrom(... */\n      pop\n      pop\n      pop\n      pop\n      jump\t// out\n        /* \"Admin.sol\":3834:4079  function addAdmin(address admin) public onlyOwner {... */\n    tag_76:\n        /* \"ownable.sol\":1074:1083  isOwner() */\n      tag_250\n        /* \"ownable.sol\":1074:1081  isOwner */\n      tag_83\n        /* \"ownable.sol\":1074:1083  isOwner() */\n      jump\t// in\n    tag_250:\n        /* \"ownable.sol\":1066:1120  require(isOwner(), \"Ownable: caller is not the owner\") */\n      tag_251\n      jumpi\n      0x40\n      dup1\n      mload\n      0x08c379a000000000000000000000000000000000000000000000000000000000\n      dup2\n      mstore\n      0x20\n      0x04\n      dup3\n      add\n      dup2\n      swap1\n      mstore\n      0x24\n      dup3\n      add\n      mstore\n      0x4f776e61626c653a2063616c6c6572206973206e6f7420746865206f776e6572\n      0x44\n      dup3\n      add\n      mstore\n      swap1\n      mload\n      swap1\n      dup2\n      swap1\n      sub\n      0x64\n      add\n      swap1\n      revert\n    tag_251:\n        /* \"Admin.sol\":3899:3916  adminExist(admin) */\n      tag_253\n        /* \"Admin.sol\":3910:3915  admin */\n      dup2\n        /* \"Admin.sol\":3899:3909  adminExist */\n      tag_101\n        /* \"Admin.sol\":3899:3916  adminExist(admin) */\n      jump\t// in\n    tag_253:\n        /* \"Admin.sol\":3894:4023  if (!adminExist(admin)) {... */\n      tag_254\n      jumpi\n        /* \"Admin.sol\":3932:3938  admins */\n      0x1b\n        /* \"--CODEGEN--\":27:37   */\n      dup1\n      sload\n        /* \"--CODEGEN--\":39:40   */\n      0x01\n        /* \"--CODEGEN--\":23:41   */\n      dup2\n      add\n        /* \"--CODEGEN--\":45:68   */\n      dup3\n      sstore\n      0x00\n        /* \"Admin.sol\":3932:3950  admins.push(admin) */\n      swap2\n      swap1\n      swap2\n      mstore\n      0x3ad8aa4f87544323a9d1e5dd902f40c356527a7955687113db5f9a85ad579dc1\n      add\n      dup1\n      sload\n      0xffffffffffffffffffffffff0000000000000000000000000000000000000000\n      and\n      0xffffffffffffffffffffffffffffffffffffffff\n      dup4\n      and\n      or\n      swap1\n      sstore\n        /* \"Admin.sol\":3894:4023  if (!adminExist(admin)) {... */\n      jump(tag_256)\n    tag_254:\n        /* \"Admin.sol\":3981:4012  revert(\"admin already in list\") */\n      0x40\n      dup1\n      mload\n      0x08c379a000000000000000000000000000000000000000000000000000000000\n      dup2\n      mstore\n      0x20\n      0x04\n      dup3\n      add\n      mstore\n      0x15\n      0x24\n      dup3\n      add\n      mstore\n      0x61646d696e20616c726561647920696e206c6973740000000000000000000000\n      0x44\n      dup3\n      add\n      mstore\n      swap1\n      mload\n      swap1\n      dup2\n      swap1\n      sub\n      0x64\n      add\n      swap1\n      revert\n        /* \"Admin.sol\":3894:4023  if (!adminExist(admin)) {... */\n    tag_256:\n        /* \"Admin.sol\":4038:4072  AdminAdded(admin, block.timestamp) */\n      0x40\n      dup1\n      mload\n      0xffffffffffffffffffffffffffffffffffffffff\n      dup4\n      and\n      dup2\n      mstore\n        /* \"Admin.sol\":4056:4071  block.timestamp */\n      timestamp\n        /* \"Admin.sol\":4038:4072  AdminAdded(admin, block.timestamp) */\n      0x20\n      dup3\n      add\n      mstore\n      dup2\n      mload\n      0x723c2b747529ca7f5eb53a74808f4a8b9bf264f0fc450fd904900151da74548a\n      swap3\n      swap2\n      dup2\n      swap1\n      sub\n      swap1\n      swap2\n      add\n      swap1\n      log1\n        /* \"Admin.sol\":3834:4079  function addAdmin(address admin) public onlyOwner {... */\n      pop\n      jump\t// out\n        /* \"Admin.sol\":7793:8253  function erc721TransferFrom(... */\n    tag_79:\n        /* \"Admin.sol\":3714:3736  adminExist(msg.sender) */\n      tag_258\n        /* \"Admin.sol\":3725:3735  msg.sender */\n      caller\n        /* \"Admin.sol\":3714:3724  adminExist */\n      tag_101\n        /* \"Admin.sol\":3714:3736  adminExist(msg.sender) */\n      jump\t// in\n    tag_258:\n        /* \"Admin.sol\":3714:3749  adminExist(msg.sender) || isOwner() */\n      dup1\n      tag_260\n      jumpi\n      pop\n        /* \"Admin.sol\":3740:3749  isOwner() */\n      tag_260\n        /* \"Admin.sol\":3740:3747  isOwner */\n      tag_83\n        /* \"Admin.sol\":3740:3749  isOwner() */\n      jump\t// in\n    tag_260:\n        /* \"Admin.sol\":3693:3810  require(... */\n      tag_261\n      jumpi\n      mload(0x40)\n      0x08c379a000000000000000000000000000000000000000000000000000000000\n      dup2\n      mstore\n      0x04\n      add\n      dup1\n      dup1\n      0x20\n      add\n      dup3\n      dup2\n      sub\n      dup3\n      mstore\n      0x23\n      dup2\n      mstore\n      0x20\n      add\n      dup1\n      data_674a9ac1aead3691c97506b93cf9f61f3ea0388f6e9a2a7fd72dc31f93249315\n      0x23\n      swap2\n      codecopy\n      0x40\n      add\n      swap2\n      pop\n      pop\n      mload(0x40)\n      dup1\n      swap2\n      sub\n      swap1\n      revert\n    tag_261:\n        /* \"Admin.sol\":7961:7977  IMintable erc721 */\n      0x00\n        /* \"Admin.sol\":7990:8004  _ERC721Address */\n      dup5\n        /* \"Admin.sol\":7961:8005  IMintable erc721 = IMintable(_ERC721Address) */\n      swap1\n      pop\n        /* \"Admin.sol\":8106:8119  functionNames */\n      0x01\n        /* \"Admin.sol\":8106:8132  functionNames.transferFrom */\n      0x05\n      add\n        /* \"Admin.sol\":8020:8191  AdminActionPerformed(... */\n      mload(0x40)\n      dup1\n      dup3\n      dup1\n      sload\n      0x01\n      dup2\n      0x01\n      and\n      iszero\n      0x0100\n      mul\n      sub\n      and\n      0x02\n      swap1\n      div\n      dup1\n      iszero\n      tag_263\n      jumpi\n      dup1\n      0x1f\n      lt\n      tag_264\n      jumpi\n      0x0100\n      dup1\n      dup4\n      sload\n      div\n      mul\n      dup4\n      mstore\n      swap2\n      dup3\n      add\n      swap2\n      jump(tag_263)\n    tag_264:\n      dup3\n      add\n      swap2\n      swap1\n      0x00\n      mstore\n      keccak256(0x00, 0x20)\n      swap1\n    tag_265:\n      dup2\n      sload\n      dup2\n      mstore\n      swap1\n      0x01\n      add\n      swap1\n      0x20\n      add\n      dup1\n      dup4\n      gt\n      tag_265\n      jumpi\n    tag_263:\n      pop\n      pop\n      0x40\n      dup1\n      mload\n      swap2\n      dup3\n      swap1\n      sub\n      dup3\n      keccak256\n      0xffffffffffffffffffffffffffffffffffffffff\n      dup11\n      and\n      dup1\n      dup5\n      mstore\n      0x20\n      dup5\n      add\n      dup9\n      swap1\n      mstore\n      dup3\n      mload\n      swap2\n      swap6\n      pop\n      swap4\n      pop\n        /* \"Admin.sol\":8054:8064  msg.sender */\n      caller\n      swap3\n        /* \"Admin.sol\":8020:8191  AdminActionPerformed(... */\n      0x32a9eeb55ea56eb60badfb6642d5b92be35b6da6f74892c12d0e14a50dfc2bac\n      swap3\n      swap1\n      dup3\n      swap1\n      sub\n      add\n      swap1\n      log4\n        /* \"Admin.sol\":8208:8246  erc721.transferFrom(from, to, tokenId) */\n      0x40\n      dup1\n      mload\n      0x23b872dd00000000000000000000000000000000000000000000000000000000\n      dup2\n      mstore\n        /* \"Admin.sol\":8208:8227  erc721.transferFrom */\n      0xffffffffffffffffffffffffffffffffffffffff\n        /* \"Admin.sol\":8208:8246  erc721.transferFrom(from, to, tokenId) */\n      dup7\n      dup2\n      and\n      0x04\n      dup4\n      add\n      mstore\n      dup6\n      dup2\n      and\n      0x24\n      dup4\n      add\n      mstore\n      0x44\n      dup3\n      add\n      dup6\n      swap1\n      mstore\n      swap2\n      mload\n        /* \"Admin.sol\":8208:8227  erc721.transferFrom */\n      swap2\n      dup4\n      and\n      swap2\n      0x23b872dd\n      swap2\n        /* \"Admin.sol\":8208:8246  erc721.transferFrom(from, to, tokenId) */\n      0x64\n      dup1\n      dup3\n      add\n      swap3\n      0x00\n      swap3\n      swap1\n      swap2\n      swap1\n      dup3\n      swap1\n      sub\n      add\n      dup2\n      dup4\n        /* \"Admin.sol\":8208:8227  erc721.transferFrom */\n      dup8\n        /* \"Admin.sol\":8208:8246  erc721.transferFrom(from, to, tokenId) */\n      dup1\n      extcodesize\n      iszero\n        /* \"--CODEGEN--\":5:7   */\n      dup1\n      iszero\n      tag_247\n      jumpi\n        /* \"--CODEGEN--\":30:31   */\n      0x00\n        /* \"--CODEGEN--\":27:28   */\n      dup1\n        /* \"--CODEGEN--\":20:32   */\n      revert\n        /* \"ownable.sol\":870:947  function owner() public view returns (address) {... */\n    tag_81:\n        /* \"ownable.sol\":908:915  address */\n      0x00\n        /* \"ownable.sol\":934:940  _owner */\n      sload\n      0xffffffffffffffffffffffffffffffffffffffff\n      and\n        /* \"ownable.sol\":870:947  function owner() public view returns (address) {... */\n      swap1\n      jump\t// out\n        /* \"ownable.sol\":1221:1311  function isOwner() public view returns (bool) {... */\n    tag_83:\n        /* \"ownable.sol\":1261:1265  bool */\n      0x00\n        /* \"ownable.sol\":1298:1304  _owner */\n      sload\n      0xffffffffffffffffffffffffffffffffffffffff\n      and\n        /* \"ownable.sol\":1284:1294  msg.sender */\n      caller\n        /* \"ownable.sol\":1284:1304  msg.sender == _owner */\n      eq\n      swap1\n        /* \"ownable.sol\":1221:1311  function isOwner() public view returns (bool) {... */\n      jump\t// out\n        /* \"Admin.sol\":10306:10730  function erc20IncreaseAllowance(... */\n    tag_86:\n        /* \"Admin.sol\":3714:3736  adminExist(msg.sender) */\n      tag_271\n        /* \"Admin.sol\":3725:3735  msg.sender */\n      caller\n        /* \"Admin.sol\":3714:3724  adminExist */\n      tag_101\n        /* \"Admin.sol\":3714:3736  adminExist(msg.sender) */\n      jump\t// in\n    tag_271:\n        /* \"Admin.sol\":3714:3749  adminExist(msg.sender) || isOwner() */\n      dup1\n      tag_273\n      jumpi\n      pop\n        /* \"Admin.sol\":3740:3749  isOwner() */\n      tag_273\n        /* \"Admin.sol\":3740:3747  isOwner */\n      tag_83\n        /* \"Admin.sol\":3740:3749  isOwner() */\n      jump\t// in\n    tag_273:\n        /* \"Admin.sol\":3693:3810  require(... */\n      tag_274\n      jumpi\n      mload(0x40)\n      0x08c379a000000000000000000000000000000000000000000000000000000000\n      dup2\n      mstore\n      0x04\n      add\n      dup1\n      dup1\n      0x20\n      add\n      dup3\n      dup2\n      sub\n      dup3\n      mstore\n      0x23\n      dup2\n      mstore\n      0x20\n      add\n      dup1\n      data_674a9ac1aead3691c97506b93cf9f61f3ea0388f6e9a2a7fd72dc31f93249315\n      0x23\n      swap2\n      codecopy\n      0x40\n      add\n      swap2\n      pop\n      pop\n      mload(0x40)\n      dup1\n      swap2\n      sub\n      swap1\n      revert\n    tag_274:\n        /* \"Admin.sol\":10495:10539  erc20.increaseAllowance(spender, addedValue) */\n      0x40\n      dup1\n      mload\n      0x3950935100000000000000000000000000000000000000000000000000000000\n      dup2\n      mstore\n        /* \"Admin.sol\":10495:10518  erc20.increaseAllowance */\n      0xffffffffffffffffffffffffffffffffffffffff\n        /* \"Admin.sol\":10495:10539  erc20.increaseAllowance(spender, addedValue) */\n      dup5\n      dup2\n      and\n      0x04\n      dup4\n      add\n      mstore\n      0x24\n      dup3\n      add\n      dup5\n      swap1\n      mstore\n      swap2\n      mload\n        /* \"Admin.sol\":10478:10484  _erc20 */\n      dup6\n      swap3\n        /* \"Admin.sol\":10495:10518  erc20.increaseAllowance */\n      dup4\n      and\n      swap2\n      0x39509351\n      swap2\n        /* \"Admin.sol\":10495:10539  erc20.increaseAllowance(spender, addedValue) */\n      0x44\n      dup1\n      dup4\n      add\n      swap3\n        /* \"Admin.sol\":10456:10468  IERC20 erc20 */\n      0x00\n      swap3\n        /* \"Admin.sol\":10495:10539  erc20.increaseAllowance(spender, addedValue) */\n      swap2\n      swap1\n      dup3\n      swap1\n      sub\n      add\n      dup2\n        /* \"Admin.sol\":10456:10468  IERC20 erc20 */\n      dup4\n        /* \"Admin.sol\":10495:10518  erc20.increaseAllowance */\n      dup8\n        /* \"Admin.sol\":10495:10539  erc20.increaseAllowance(spender, addedValue) */\n      dup1\n      extcodesize\n      iszero\n        /* \"--CODEGEN--\":5:7   */\n      dup1\n      iszero\n      tag_276\n      jumpi\n        /* \"--CODEGEN--\":30:31   */\n      0x00\n        /* \"--CODEGEN--\":27:28   */\n      dup1\n        /* \"--CODEGEN--\":20:32   */\n      revert\n        /* \"--CODEGEN--\":5:7   */\n    tag_276:\n        /* \"Admin.sol\":10495:10539  erc20.increaseAllowance(spender, addedValue) */\n      pop\n      gas\n      call\n      iszero\n        /* \"--CODEGEN--\":8:17   */\n      dup1\n        /* \"--CODEGEN--\":5:7   */\n      iszero\n      tag_277\n      jumpi\n        /* \"--CODEGEN--\":45:61   */\n      returndatasize\n        /* \"--CODEGEN--\":42:43   */\n      0x00\n        /* \"--CODEGEN--\":39:40   */\n      dup1\n        /* \"--CODEGEN--\":24:62   */\n      returndatacopy\n        /* \"--CODEGEN--\":77:93   */\n      returndatasize\n        /* \"--CODEGEN--\":74:75   */\n      0x00\n        /* \"--CODEGEN--\":67:94   */\n      revert\n        /* \"--CODEGEN--\":5:7   */\n    tag_277:\n        /* \"Admin.sol\":10495:10539  erc20.increaseAllowance(spender, addedValue) */\n      pop\n      pop\n      pop\n      pop\n        /* \"Admin.sol\":10632:10645  functionNames */\n      0x01\n        /* \"Admin.sol\":10632:10668  functionNames.erc20IncreaseAllowance */\n      0x15\n      add\n        /* \"Admin.sol\":10554:10723  AdminActionPerformed(... */\n      mload(0x40)\n      dup1\n      dup3\n      dup1\n      sload\n      0x01\n      dup2\n      0x01\n      and\n      iszero\n      0x0100\n      mul\n      sub\n      and\n      0x02\n      swap1\n      div\n      dup1\n      iszero\n      tag_128\n      jumpi\n      dup1\n      0x1f\n      lt\n      tag_129\n      jumpi\n      0x0100\n      dup1\n      dup4\n      sload\n      div\n      mul\n      dup4\n      mstore\n      swap2\n      dup3\n      add\n      swap2\n      jump(tag_128)\n        /* \"Admin.sol\":8259:8638  function erc20Approve(... */\n    tag_89:\n        /* \"Admin.sol\":3714:3736  adminExist(msg.sender) */\n      tag_282\n        /* \"Admin.sol\":3725:3735  msg.sender */\n      caller\n        /* \"Admin.sol\":3714:3724  adminExist */\n      tag_101\n        /* \"Admin.sol\":3714:3736  adminExist(msg.sender) */\n      jump\t// in\n    tag_282:\n        /* \"Admin.sol\":3714:3749  adminExist(msg.sender) || isOwner() */\n      dup1\n      tag_284\n      jumpi\n      pop\n        /* \"Admin.sol\":3740:3749  isOwner() */\n      tag_284\n        /* \"Admin.sol\":3740:3747  isOwner */\n      tag_83\n        /* \"Admin.sol\":3740:3749  isOwner() */\n      jump\t// in\n    tag_284:\n        /* \"Admin.sol\":3693:3810  require(... */\n      tag_285\n      jumpi\n      mload(0x40)\n      0x08c379a000000000000000000000000000000000000000000000000000000000\n      dup2\n      mstore\n      0x04\n      add\n      dup1\n      dup1\n      0x20\n      add\n      dup3\n      dup2\n      sub\n      dup3\n      mstore\n      0x23\n      dup2\n      mstore\n      0x20\n      add\n      dup1\n      data_674a9ac1aead3691c97506b93cf9f61f3ea0388f6e9a2a7fd72dc31f93249315\n      0x23\n      swap2\n      codecopy\n      0x40\n      add\n      swap2\n      pop\n      pop\n      mload(0x40)\n      dup1\n      swap2\n      sub\n      swap1\n      revert\n    tag_285:\n        /* \"Admin.sol\":8433:8462  erc20.approve(spender, value) */\n      0x40\n      dup1\n      mload\n      0x095ea7b300000000000000000000000000000000000000000000000000000000\n      dup2\n      mstore\n        /* \"Admin.sol\":8433:8446  erc20.approve */\n      0xffffffffffffffffffffffffffffffffffffffff\n        /* \"Admin.sol\":8433:8462  erc20.approve(spender, value) */\n      dup5\n      dup2\n      and\n      0x04\n      dup4\n      add\n      mstore\n      0x24\n      dup3\n      add\n      dup5\n      swap1\n      mstore\n      swap2\n      mload\n        /* \"Admin.sol\":8416:8422  _erc20 */\n      dup6\n      swap3\n        /* \"Admin.sol\":8433:8446  erc20.approve */\n      dup4\n      and\n      swap2\n      0x095ea7b3\n      swap2\n        /* \"Admin.sol\":8433:8462  erc20.approve(spender, value) */\n      0x44\n      dup1\n      dup4\n      add\n      swap3\n        /* \"Admin.sol\":8394:8406  IERC20 erc20 */\n      0x00\n      swap3\n        /* \"Admin.sol\":8433:8462  erc20.approve(spender, value) */\n      swap2\n      swap1\n      dup3\n      swap1\n      sub\n      add\n      dup2\n        /* \"Admin.sol\":8394:8406  IERC20 erc20 */\n      dup4\n        /* \"Admin.sol\":8433:8446  erc20.approve */\n      dup8\n        /* \"Admin.sol\":8433:8462  erc20.approve(spender, value) */\n      dup1\n      extcodesize\n      iszero\n        /* \"--CODEGEN--\":5:7   */\n      dup1\n      iszero\n      tag_287\n      jumpi\n        /* \"--CODEGEN--\":30:31   */\n      0x00\n        /* \"--CODEGEN--\":27:28   */\n      dup1\n        /* \"--CODEGEN--\":20:32   */\n      revert\n        /* \"--CODEGEN--\":5:7   */\n    tag_287:\n        /* \"Admin.sol\":8433:8462  erc20.approve(spender, value) */\n      pop\n      gas\n      call\n      iszero\n        /* \"--CODEGEN--\":8:17   */\n      dup1\n        /* \"--CODEGEN--\":5:7   */\n      iszero\n      tag_288\n      jumpi\n        /* \"--CODEGEN--\":45:61   */\n      returndatasize\n        /* \"--CODEGEN--\":42:43   */\n      0x00\n        /* \"--CODEGEN--\":39:40   */\n      dup1\n        /* \"--CODEGEN--\":24:62   */\n      returndatacopy\n        /* \"--CODEGEN--\":77:93   */\n      returndatasize\n        /* \"--CODEGEN--\":74:75   */\n      0x00\n        /* \"--CODEGEN--\":67:94   */\n      revert\n        /* \"--CODEGEN--\":5:7   */\n    tag_288:\n        /* \"Admin.sol\":8433:8462  erc20.approve(spender, value) */\n      pop\n      pop\n      pop\n      pop\n        /* \"Admin.sol\":8555:8568  functionNames */\n      0x01\n        /* \"Admin.sol\":8555:8581  functionNames.erc20Approve */\n      0x10\n      add\n        /* \"Admin.sol\":8477:8631  AdminActionPerformed(... */\n      mload(0x40)\n      dup1\n      dup3\n      dup1\n      sload\n      0x01\n      dup2\n      0x01\n      and\n      iszero\n      0x0100\n      mul\n      sub\n      and\n      0x02\n      swap1\n      div\n      dup1\n      iszero\n      tag_128\n      jumpi\n      dup1\n      0x1f\n      lt\n      tag_129\n      jumpi\n      0x0100\n      dup1\n      dup4\n      sload\n      div\n      mul\n      dup4\n      mstore\n      swap2\n      dup3\n      add\n      swap2\n      jump(tag_128)\n        /* \"Admin.sol\":5553:5978  function erc721Transfer(... */\n    tag_92:\n        /* \"Admin.sol\":3714:3736  adminExist(msg.sender) */\n      tag_293\n        /* \"Admin.sol\":3725:3735  msg.sender */\n      caller\n        /* \"Admin.sol\":3714:3724  adminExist */\n      tag_101\n        /* \"Admin.sol\":3714:3736  adminExist(msg.sender) */\n      jump\t// in\n    tag_293:\n        /* \"Admin.sol\":3714:3749  adminExist(msg.sender) || isOwner() */\n      dup1\n      tag_295\n      jumpi\n      pop\n        /* \"Admin.sol\":3740:3749  isOwner() */\n      tag_295\n        /* \"Admin.sol\":3740:3747  isOwner */\n      tag_83\n        /* \"Admin.sol\":3740:3749  isOwner() */\n      jump\t// in\n    tag_295:\n        /* \"Admin.sol\":3693:3810  require(... */\n      tag_296\n      jumpi\n      mload(0x40)\n      0x08c379a000000000000000000000000000000000000000000000000000000000\n      dup2\n      mstore\n      0x04\n      add\n      dup1\n      dup1\n      0x20\n      add\n      dup3\n      dup2\n      sub\n      dup3\n      mstore\n      0x23\n      dup2\n      mstore\n      0x20\n      add\n      dup1\n      data_674a9ac1aead3691c97506b93cf9f61f3ea0388f6e9a2a7fd72dc31f93249315\n      0x23\n      swap2\n      codecopy\n      0x40\n      add\n      swap2\n      pop\n      pop\n      mload(0x40)\n      dup1\n      swap2\n      sub\n      swap1\n      revert\n    tag_296:\n        /* \"Admin.sol\":5756:5924  AdminActionPerformed(... */\n      mload(0x40)\n        /* \"Admin.sol\":5842:5864  functionNames.transfer */\n      0x02\n        /* \"Admin.sol\":5756:5924  AdminActionPerformed(... */\n      dup1\n      sload\n        /* \"Admin.sol\":5726:5740  _ERC721Address */\n      dup6\n      swap3\n        /* \"Admin.sol\":5756:5924  AdminActionPerformed(... */\n      swap1\n      dup2\n      swap1\n        /* \"Admin.sol\":5842:5864  functionNames.transfer */\n      dup4\n      swap1\n        /* \"Admin.sol\":5756:5924  AdminActionPerformed(... */\n      0xffffffffffffffffffffffffffffffffffffffffffffffffffffffffffffffff\n      0x0100\n        /* \"Admin.sol\":5842:5855  functionNames */\n      0x01\n        /* \"Admin.sol\":5756:5924  AdminActionPerformed(... */\n      dup4\n      and\n      iszero\n      mul\n      add\n      and\n      dup2\n      swap1\n      div\n      dup1\n      iszero\n      tag_298\n      jumpi\n      dup1\n      0x1f\n      lt\n      tag_299\n      jumpi\n      0x0100\n      dup1\n      dup4\n      sload\n      div\n      mul\n      dup4\n      mstore\n      swap2\n      dup3\n      add\n      swap2\n      jump(tag_298)\n    tag_299:\n      dup3\n      add\n      swap2\n      swap1\n      0x00\n      mstore\n      keccak256(0x00, 0x20)\n      swap1\n    tag_300:\n      dup2\n      sload\n      dup2\n      mstore\n      swap1\n      0x01\n      add\n      swap1\n      0x20\n      add\n      dup1\n      dup4\n      gt\n      tag_300\n      jumpi\n    tag_298:\n      pop\n      pop\n      0x40\n      dup1\n      mload\n      swap2\n      dup3\n      swap1\n      sub\n      dup3\n      keccak256\n      0xffffffffffffffffffffffffffffffffffffffff\n      dup10\n      and\n      dup1\n      dup5\n      mstore\n      0x20\n      dup5\n      add\n      dup9\n      swap1\n      mstore\n      dup3\n      mload\n      swap2\n      swap6\n      pop\n      swap4\n      pop\n        /* \"Admin.sol\":5790:5800  msg.sender */\n      caller\n      swap3\n        /* \"Admin.sol\":5756:5924  AdminActionPerformed(... */\n      0x32a9eeb55ea56eb60badfb6642d5b92be35b6da6f74892c12d0e14a50dfc2bac\n      swap3\n      swap1\n      dup3\n      swap1\n      sub\n      add\n      swap1\n      log4\n        /* \"Admin.sol\":5941:5947  erc721 */\n      dup1\n        /* \"Admin.sol\":5941:5956  erc721.transfer */\n      0xffffffffffffffffffffffffffffffffffffffff\n      and\n      0xa9059cbb\n        /* \"Admin.sol\":5957:5960  _to */\n      dup5\n        /* \"Admin.sol\":5962:5970  _tokenId */\n      dup5\n        /* \"Admin.sol\":5941:5971  erc721.transfer(_to, _tokenId) */\n      mload(0x40)\n      dup4\n      0xffffffff\n      and\n      0xe0\n      shl\n      dup2\n      mstore\n      0x04\n      add\n      dup1\n      dup4\n      0xffffffffffffffffffffffffffffffffffffffff\n      and\n      0xffffffffffffffffffffffffffffffffffffffff\n      and\n      dup2\n      mstore\n      0x20\n      add\n      dup3\n      dup2\n      mstore\n      0x20\n      add\n      swap3\n      pop\n      pop\n      pop\n      0x00\n      mload(0x40)\n      dup1\n      dup4\n      sub\n      dup2\n      0x00\n      dup8\n      dup1\n      extcodesize\n      iszero\n        /* \"--CODEGEN--\":8:17   */\n      dup1\n        /* \"--CODEGEN--\":5:7   */\n      iszero\n      tag_158\n      jumpi\n        /* \"--CODEGEN--\":30:31   */\n      0x00\n        /* \"--CODEGEN--\":27:28   */\n      dup1\n        /* \"--CODEGEN--\":20:32   */\n      revert\n        /* \"Admin.sol\":8644:9087  function erc20DecreaseApproval(... */\n    tag_95:\n        /* \"Admin.sol\":3714:3736  adminExist(msg.sender) */\n      tag_304\n        /* \"Admin.sol\":3725:3735  msg.sender */\n      caller\n        /* \"Admin.sol\":3714:3724  adminExist */\n      tag_101\n        /* \"Admin.sol\":3714:3736  adminExist(msg.sender) */\n      jump\t// in\n    tag_304:\n        /* \"Admin.sol\":3714:3749  adminExist(msg.sender) || isOwner() */\n      dup1\n      tag_306\n      jumpi\n      pop\n        /* \"Admin.sol\":3740:3749  isOwner() */\n      tag_306\n        /* \"Admin.sol\":3740:3747  isOwner */\n      tag_83\n        /* \"Admin.sol\":3740:3749  isOwner() */\n      jump\t// in\n    tag_306:\n        /* \"Admin.sol\":3693:3810  require(... */\n      tag_307\n      jumpi\n      mload(0x40)\n      0x08c379a000000000000000000000000000000000000000000000000000000000\n      dup2\n      mstore\n      0x04\n      add\n      dup1\n      dup1\n      0x20\n      add\n      dup3\n      dup2\n      sub\n      dup3\n      mstore\n      0x23\n      dup2\n      mstore\n      0x20\n      add\n      dup1\n      data_674a9ac1aead3691c97506b93cf9f61f3ea0388f6e9a2a7fd72dc31f93249315\n      0x23\n      swap2\n      codecopy\n      0x40\n      add\n      swap2\n      pop\n      pop\n      mload(0x40)\n      dup1\n      swap2\n      sub\n      swap1\n      revert\n    tag_307:\n        /* \"Admin.sol\":8839:8889  erc20.decreaseApproval(_spender, _subtractedValue) */\n      0x40\n      dup1\n      mload\n      0x6618846300000000000000000000000000000000000000000000000000000000\n      dup2\n      mstore\n        /* \"Admin.sol\":8839:8861  erc20.decreaseApproval */\n      0xffffffffffffffffffffffffffffffffffffffff\n        /* \"Admin.sol\":8839:8889  erc20.decreaseApproval(_spender, _subtractedValue) */\n      dup5\n      dup2\n      and\n      0x04\n      dup4\n      add\n      mstore\n      0x24\n      dup3\n      add\n      dup5\n      swap1\n      mstore\n      swap2\n      mload\n        /* \"Admin.sol\":8822:8828  _erc20 */\n      dup6\n      swap3\n        /* \"Admin.sol\":8839:8861  erc20.decreaseApproval */\n      dup4\n      and\n      swap2\n      0x66188463\n      swap2\n        /* \"Admin.sol\":8839:8889  erc20.decreaseApproval(_spender, _subtractedValue) */\n      0x44\n      dup1\n      dup4\n      add\n      swap3\n        /* \"Admin.sol\":8800:8812  IERC20 erc20 */\n      0x00\n      swap3\n        /* \"Admin.sol\":8839:8889  erc20.decreaseApproval(_spender, _subtractedValue) */\n      swap2\n      swap1\n      dup3\n      swap1\n      sub\n      add\n      dup2\n        /* \"Admin.sol\":8800:8812  IERC20 erc20 */\n      dup4\n        /* \"Admin.sol\":8839:8861  erc20.decreaseApproval */\n      dup8\n        /* \"Admin.sol\":8839:8889  erc20.decreaseApproval(_spender, _subtractedValue) */\n      dup1\n      extcodesize\n      iszero\n        /* \"--CODEGEN--\":5:7   */\n      dup1\n      iszero\n      tag_126\n      jumpi\n        /* \"--CODEGEN--\":30:31   */\n      0x00\n        /* \"--CODEGEN--\":27:28   */\n      dup1\n        /* \"--CODEGEN--\":20:32   */\n      revert\n        /* \"ownable.sol\":1460:1695  function transferOwnership(address newOwner) public onlyOwner {... */\n    tag_98:\n        /* \"ownable.sol\":1074:1083  isOwner() */\n      tag_315\n        /* \"ownable.sol\":1074:1081  isOwner */\n      tag_83\n        /* \"ownable.sol\":1074:1083  isOwner() */\n      jump\t// in\n    tag_315:\n        /* \"ownable.sol\":1066:1120  require(isOwner(), \"Ownable: caller is not the owner\") */\n      tag_316\n      jumpi\n      0x40\n      dup1\n      mload\n      0x08c379a000000000000000000000000000000000000000000000000000000000\n      dup2\n      mstore\n      0x20\n      0x04\n      dup3\n      add\n      dup2\n      swap1\n      mstore\n      0x24\n      dup3\n      add\n      mstore\n      0x4f776e61626c653a2063616c6c6572206973206e6f7420746865206f776e6572\n      0x44\n      dup3\n      add\n      mstore\n      swap1\n      mload\n      swap1\n      dup2\n      swap1\n      sub\n      0x64\n      add\n      swap1\n      revert\n    tag_316:\n        /* \"ownable.sol\":1540:1562  newOwner != address(0) */\n      0xffffffffffffffffffffffffffffffffffffffff\n      dup2\n      and\n        /* \"ownable.sol\":1532:1605  require(newOwner != address(0), \"Ownable: new owner is the zero address\") */\n      tag_318\n      jumpi\n      mload(0x40)\n      0x08c379a000000000000000000000000000000000000000000000000000000000\n      dup2\n      mstore\n      0x04\n      add\n      dup1\n      dup1\n      0x20\n      add\n      dup3\n      dup2\n      sub\n      dup3\n      mstore\n      0x26\n      dup2\n      mstore\n      0x20\n      add\n      dup1\n      data_245f15ff17f551913a7a18385165551503906a406f905ac1c2437281a7cd0cfe\n      0x26\n      swap2\n      codecopy\n      0x40\n      add\n      swap2\n      pop\n      pop\n      mload(0x40)\n      dup1\n      swap2\n      sub\n      swap1\n      revert\n    tag_318:\n        /* \"ownable.sol\":1671:1677  _owner */\n      0x00\n        /* \"ownable.sol\":1671:1688  _owner = newOwner */\n      dup1\n      sload\n      0xffffffffffffffffffffffff0000000000000000000000000000000000000000\n      and\n      0xffffffffffffffffffffffffffffffffffffffff\n      swap3\n      swap1\n      swap3\n      and\n      swap2\n      swap1\n      swap2\n      or\n      swap1\n      sstore\n        /* \"ownable.sol\":1460:1695  function transferOwnership(address newOwner) public onlyOwner {... */\n      jump\t// out\n        /* \"Admin.sol\":3293:3533  function adminExist(address _sender) public view returns (bool) {... */\n    tag_101:\n        /* \"Admin.sol\":3351:3355  bool */\n      0x00\n      dup1\n        /* \"Admin.sol\":3367:3505  for (uint256 i = 0; i < admins.length; i++) {... */\n    tag_320:\n        /* \"Admin.sol\":3391:3397  admins */\n      0x1b\n        /* \"Admin.sol\":3391:3404  admins.length */\n      sload\n        /* \"Admin.sol\":3387:3404  i < admins.length */\n      dup2\n      lt\n        /* \"Admin.sol\":3367:3505  for (uint256 i = 0; i < admins.length; i++) {... */\n      iszero\n      tag_321\n      jumpi\n        /* \"Admin.sol\":3440:3446  admins */\n      0x1b\n        /* \"Admin.sol\":3447:3448  i */\n      dup2\n        /* \"Admin.sol\":3440:3449  admins[i] */\n      dup2\n      sload\n      dup2\n      lt\n      tag_323\n      jumpi\n      invalid\n    tag_323:\n      0x00\n      swap2\n      dup3\n      mstore\n      0x20\n      swap1\n      swap2\n      keccak256\n      add\n      sload\n      0xffffffffffffffffffffffffffffffffffffffff\n        /* \"Admin.sol\":3429:3449  _sender == admins[i] */\n      dup5\n      dup2\n      and\n        /* \"Admin.sol\":3440:3449  admins[i] */\n      swap2\n      and\n        /* \"Admin.sol\":3429:3449  _sender == admins[i] */\n      eq\n        /* \"Admin.sol\":3425:3495  if (_sender == admins[i]) {... */\n      iszero\n      tag_325\n      jumpi\n        /* \"Admin.sol\":3476:3480  true */\n      0x01\n        /* \"Admin.sol\":3469:3480  return true */\n      swap2\n      pop\n      pop\n      jump(tag_319)\n        /* \"Admin.sol\":3425:3495  if (_sender == admins[i]) {... */\n    tag_325:\n        /* \"Admin.sol\":3406:3409  i++ */\n      0x01\n      add\n        /* \"Admin.sol\":3367:3505  for (uint256 i = 0; i < admins.length; i++) {... */\n      jump(tag_320)\n    tag_321:\n      pop\n        /* \"Admin.sol\":3521:3526  false */\n      0x00\n        /* \"Admin.sol\":3514:3526  return false */\n      swap1\n      pop\n        /* \"Admin.sol\":3293:3533  function adminExist(address _sender) public view returns (bool) {... */\n    tag_319:\n      swap2\n      swap1\n      pop\n      jump\t// out\n        /* \"Admin.sol\":6372:6796  function erc721Mint(... */\n    tag_107:\n        /* \"Admin.sol\":3714:3736  adminExist(msg.sender) */\n      tag_327\n        /* \"Admin.sol\":3725:3735  msg.sender */\n      caller\n        /* \"Admin.sol\":3714:3724  adminExist */\n      tag_101\n        /* \"Admin.sol\":3714:3736  adminExist(msg.sender) */\n      jump\t// in\n    tag_327:\n        /* \"Admin.sol\":3714:3749  adminExist(msg.sender) || isOwner() */\n      dup1\n      tag_329\n      jumpi\n      pop\n        /* \"Admin.sol\":3740:3749  isOwner() */\n      tag_329\n        /* \"Admin.sol\":3740:3747  isOwner */\n      tag_83\n        /* \"Admin.sol\":3740:3749  isOwner() */\n      jump\t// in\n    tag_329:\n        /* \"Admin.sol\":3693:3810  require(... */\n      tag_330\n      jumpi\n      mload(0x40)\n      0x08c379a000000000000000000000000000000000000000000000000000000000\n      dup2\n      mstore\n      0x04\n      add\n      dup1\n      dup1\n      0x20\n      add\n      dup3\n      dup2\n      sub\n      dup3\n      mstore\n      0x23\n      dup2\n      mstore\n      0x20\n      add\n      dup1\n      data_674a9ac1aead3691c97506b93cf9f61f3ea0388f6e9a2a7fd72dc31f93249315\n      0x23\n      swap2\n      codecopy\n      0x40\n      add\n      swap2\n      pop\n      pop\n      mload(0x40)\n      dup1\n      swap2\n      sub\n      swap1\n      revert\n    tag_330:\n        /* \"Admin.sol\":6524:6540  IMintable erc721 */\n      0x00\n        /* \"Admin.sol\":6553:6567  _ERC721Address */\n      dup4\n        /* \"Admin.sol\":6524:6568  IMintable erc721 = IMintable(_ERC721Address) */\n      swap1\n      pop\n        /* \"Admin.sol\":6669:6682  functionNames */\n      0x01\n        /* \"Admin.sol\":6669:6687  functionNames.mint */\n      0x03\n      add\n        /* \"Admin.sol\":6583:6740  AdminActionPerformed(... */\n      mload(0x40)\n      dup1\n      dup3\n      dup1\n      sload\n      0x01\n      dup2\n      0x01\n      and\n      iszero\n      0x0100\n      mul\n      sub\n      and\n      0x02\n      swap1\n      div\n      dup1\n      iszero\n      tag_332\n      jumpi\n      dup1\n      0x1f\n      lt\n      tag_333\n      jumpi\n      0x0100\n      dup1\n      dup4\n      sload\n      div\n      mul\n      dup4\n      mstore\n      swap2\n      dup3\n      add\n      swap2\n      jump(tag_332)\n    tag_333:\n      dup3\n      add\n      swap2\n      swap1\n      0x00\n      mstore\n      keccak256(0x00, 0x20)\n      swap1\n    tag_334:\n      dup2\n      sload\n      dup2\n      mstore\n      swap1\n      0x01\n      add\n      swap1\n      0x20\n      add\n      dup1\n      dup4\n      gt\n      tag_334\n      jumpi\n    tag_332:\n      pop\n      pop\n      0x40\n      dup1\n      mload\n      swap2\n      dup3\n      swap1\n      sub\n      dup3\n      keccak256\n      0xffffffffffffffffffffffffffffffffffffffff\n      dup10\n      and\n      dup1\n      dup5\n      mstore\n        /* \"Admin.sol\":6729:6730  0 */\n      0x00\n        /* \"Admin.sol\":6583:6740  AdminActionPerformed(... */\n      0x20\n      dup6\n      add\n      mstore\n      dup3\n      mload\n      swap2\n      swap6\n      pop\n      swap4\n      pop\n        /* \"Admin.sol\":6617:6627  msg.sender */\n      caller\n      swap3\n        /* \"Admin.sol\":6583:6740  AdminActionPerformed(... */\n      0x32a9eeb55ea56eb60badfb6642d5b92be35b6da6f74892c12d0e14a50dfc2bac\n      swap3\n      swap1\n      dup3\n      swap1\n      sub\n      add\n      swap1\n      log4\n        /* \"Admin.sol\":6757:6763  erc721 */\n      dup1\n        /* \"Admin.sol\":6757:6768  erc721.mint */\n      0xffffffffffffffffffffffffffffffffffffffff\n      and\n      0x056b01ce\n        /* \"Admin.sol\":6769:6777  tokenURI */\n      dup5\n        /* \"Admin.sol\":6779:6788  _royality */\n      dup5\n        /* \"Admin.sol\":6757:6789  erc721.mint(tokenURI, _royality) */\n      mload(0x40)\n      dup4\n      0xffffffff\n      and\n      0xe0\n      shl\n      dup2\n      mstore\n      0x04\n      add\n      dup1\n      dup1\n      0x20\n      add\n      dup4\n      dup2\n      mstore\n      0x20\n      add\n      dup3\n      dup2\n      sub\n      dup3\n      mstore\n      dup5\n      dup2\n      dup2\n      mload\n      dup2\n      mstore\n      0x20\n      add\n      swap2\n      pop\n      dup1\n      mload\n      swap1\n      0x20\n      add\n      swap1\n      dup1\n      dup4\n      dup4\n        /* \"--CODEGEN--\":23:24   */\n      0x00\n        /* \"--CODEGEN--\":8:108   */\n    tag_335:\n        /* \"--CODEGEN--\":33:36   */\n      dup4\n        /* \"--CODEGEN--\":30:31   */\n      dup2\n        /* \"--CODEGEN--\":27:37   */\n      lt\n        /* \"--CODEGEN--\":8:108   */\n      iszero\n      tag_337\n      jumpi\n        /* \"--CODEGEN--\":90:101   */\n      dup2\n      dup2\n      add\n        /* \"--CODEGEN--\":84:102   */\n      mload\n        /* \"--CODEGEN--\":71:82   */\n      dup4\n      dup3\n      add\n        /* \"--CODEGEN--\":64:103   */\n      mstore\n        /* \"--CODEGEN--\":52:54   */\n      0x20\n        /* \"--CODEGEN--\":45:55   */\n      add\n        /* \"--CODEGEN--\":8:108   */\n      jump(tag_335)\n    tag_337:\n        /* \"--CODEGEN--\":12:26   */\n      pop\n        /* \"Admin.sol\":6757:6789  erc721.mint(tokenURI, _royality) */\n      pop\n      pop\n      pop\n      swap1\n      pop\n      swap1\n      dup2\n      add\n      swap1\n      0x1f\n      and\n      dup1\n      iszero\n      tag_338\n      jumpi\n      dup1\n      dup3\n      sub\n      dup1\n      mload\n      0x01\n      dup4\n      0x20\n      sub\n      0x0100\n      exp\n      sub\n      not\n      and\n      dup2\n      mstore\n      0x20\n      add\n      swap2\n      pop\n    tag_338:\n      pop\n      swap4\n      pop\n      pop\n      pop\n      pop\n      0x00\n      mload(0x40)\n      dup1\n      dup4\n      sub\n      dup2\n      0x00\n      dup8\n      dup1\n      extcodesize\n      iszero\n        /* \"--CODEGEN--\":8:17   */\n      dup1\n        /* \"--CODEGEN--\":5:7   */\n      iszero\n      tag_158\n      jumpi\n        /* \"--CODEGEN--\":30:31   */\n      0x00\n        /* \"--CODEGEN--\":27:28   */\n      dup1\n        /* \"--CODEGEN--\":20:32   */\n      revert\n    stop\n    data_245f15ff17f551913a7a18385165551503906a406f905ac1c2437281a7cd0cfe 4f776e61626c653a206e6577206f776e657220697320746865207a65726f2061646472657373\n    data_674a9ac1aead3691c97506b93cf9f61f3ea0388f6e9a2a7fd72dc31f93249315 41646d696e4d616e616765723a2061646d696e20616e64206f776e6572206f6e6c792e\n\n    auxdata: 0xa265627a7a723158203da1d85236ac2fb7a21ca5da724b23cd2f31271a3ea8cc1ff904c28eb4e11e0b64736f6c63430005110032\n}\n",
				"bytecode": {
					"linkReferences": {},
					"object": "600e6103c08181526d4552433732313a617070726f766560901b6103e09081526080918252600f6104009081526e22a9219b99189d3a3930b739b332b960891b6104205260a052600b6104408181526a22a9219b99189d313ab93760a91b6104605260c0526104809081526a115490cdcc8c4e9b5a5b9d60aa1b6104a05260e05260176104c08181527f4552433732313a736166655472616e7366657246726f6d0000000000000000006104e0526101005260136105008181527f4552433732313a7472616e7366657246726f6d00000000000000000000000000610520526101205260106105408181526f42726f6b65723a7075744f6e53616c6560801b6105605261014052600a6105808181526942726f6b65723a62757960b01b6105a052610160526105c090815269109c9bdad95c8e989a5960b21b6105e052610180526106008681526d109c9bdad95c8e98dbdb1b1958dd60921b610620526101a05260126106408181527142726f6b65723a757064617465507269636560701b610660526101c052601161068081815270213937b5b2b91d383aba29b0b632a7b33360791b6106a0526101e0526106c082815271213937b5b2b91d36b0b5b2a0b727b33332b960711b6106e0526102005261070082815271213937b5b2b91d30b1b1b832ba27b33332b960711b610720526102205261074082815271213937b5b2b91d3932bb32b93a27b33332b960711b61076052610240526107809283526f109c9bdad95c8e9c995d995c9d105b1b60821b6107a052610260929092526107c09283527f42726f6b65723a62617463684c697374696e67000000000000000000000000006107e0526102809290925260156108009081527f42726f6b65723a626174636844656c697374696e670000000000000000000000610820526102a0526108409081527042726f6b65723a7365744164647265737360781b610860526102c052600d6108809081526c45524332303a617070726f766560981b6108a0526102e05260166108c08181527f45524332303a6465637265617365417070726f76616c000000000000000000006108e052610300526109009081527f45524332303a696e637265617365417070726f76616c0000000000000000000061092052610320526109408581526d22a92199181d3a3930b739b332b960911b61096052610340526109809081527145524332303a7472616e7366657246726f6d60701b6109a052610360526109c08181527f45524332303a696e637265617365416c6c6f77616e63650000000000000000006109e05261038052610a40604052610a009081527f45524332303a6465637265617365416c6c6f77616e6365000000000000000000610a20526103a0529091600191620003fe9183919062000716565b50602082810151805162000419926001850192019062000716565b50604082015180516200043791600284019160209091019062000716565b50606082015180516200045591600384019160209091019062000716565b50608082015180516200047391600484019160209091019062000716565b5060a082015180516200049191600584019160209091019062000716565b5060c08201518051620004af91600684019160209091019062000716565b5060e08201518051620004cd91600784019160209091019062000716565b506101008201518051620004ec91600884019160209091019062000716565b5061012082015180516200050b91600984019160209091019062000716565b5061014082015180516200052a91600a84019160209091019062000716565b5061016082015180516200054991600b84019160209091019062000716565b5061018082015180516200056891600c84019160209091019062000716565b506101a082015180516200058791600d84019160209091019062000716565b506101c08201518051620005a691600e84019160209091019062000716565b506101e08201518051620005c591600f84019160209091019062000716565b506102008201518051620005e491601084019160209091019062000716565b5061022082015180516200060391601184019160209091019062000716565b5061024082015180516200062291601284019160209091019062000716565b5061026082015180516200064191601384019160209091019062000716565b5061028082015180516200066091601484019160209091019062000716565b506102a082015180516200067f91601584019160209091019062000716565b506102c082015180516200069e91601684019160209091019062000716565b506102e08201518051620006bd91601784019160209091019062000716565b506103008201518051620006dc91601884019160209091019062000716565b506103208201518051620006fb91601984019160209091019062000716565b5050600080546001600160a01b0319163317905550620007bb565b828054600181600116156101000203166002900490600052602060002090601f016020900481019282601f106200075957805160ff191683800117855562000789565b8280016001018555821562000789579182015b82811115620007895782518255916020019190600101906200076c565b50620007979291506200079b565b5090565b620007b891905b80821115620007975760008155600101620007a2565b90565b6129e080620007cb6000396000f3fe608060405234801561001057600080fd5b506004361061018d5760003560e01c80634a0aafda116100e3578063ace561a81161008c578063f2fde38b11610066578063f2fde38b146106fc578063fba08d451461072f578063fddea900146107625761018d565b8063ace561a814610633578063b6011b4c14610676578063c347f69b146106b95761018d565b80638da5cb5b116100bd5780638da5cb5b146105cc5780638f32d59b146105d45780639dc6b78d146105f05761018d565b80634a0aafda1461050757806370480275146105505780638450ebe4146105835761018d565b80631afffec01161014557806347fcf0181161011f57806347fcf018146103ba578063485f952e146103f3578063488b0f7d1461042c5761018d565b80631afffec0146102dc57806331ae450b1461031f5780633790767d146103775761018d565b806314bfd6d01161017657806314bfd6d0146102205780631785f53c1461026657806318fa0653146102995761018d565b80630a1b0b91146101925780630c82ea1a146101dd575b600080fd5b6101db600480360360808110156101a857600080fd5b5073ffffffffffffffffffffffffffffffffffffffff813581169160208101358216916040820135169060600135610827565b005b6101db600480360360608110156101f357600080fd5b5073ffffffffffffffffffffffffffffffffffffffff813581169160208101359091169060400135610a2a565b61023d6004803603602081101561023657600080fd5b5035610bed565b6040805173ffffffffffffffffffffffffffffffffffffffff9092168252519081900360200190f35b6101db6004803603602081101561027c57600080fd5b503573ffffffffffffffffffffffffffffffffffffffff16610c21565b6101db600480360360608110156102af57600080fd5b5073ffffffffffffffffffffffffffffffffffffffff813581169160208101359091169060400135610e5b565b6101db600480360360608110156102f257600080fd5b5073ffffffffffffffffffffffffffffffffffffffff813581169160208101359091169060400135611030565b61032761116a565b60408051602080825283518183015283519192839290830191858101910280838360005b8381101561036357818101518382015260200161034b565b505050509050019250505060405180910390f35b6101db6004803603606081101561038d57600080fd5b5073ffffffffffffffffffffffffffffffffffffffff8135811691602081013590911690604001356111d9565b6101db600480360360408110156103d057600080fd5b5073ffffffffffffffffffffffffffffffffffffffff813516906020013561134a565b6101db6004803603604081101561040957600080fd5b5073ffffffffffffffffffffffffffffffffffffffff8135169060200135611779565b6101db600480360360a081101561044257600080fd5b73ffffffffffffffffffffffffffffffffffffffff823581169260208101358216926040820135909216916060820135919081019060a08101608082013564010000000081111561049257600080fd5b8201836020820111156104a457600080fd5b803590602001918460018302840111640100000000831117156104c657600080fd5b91908080601f016020809104026020016040519081016040528093929190818152602001838380828437600092019190915250929550611919945050505050565b6101db6004803603608081101561051d57600080fd5b5073ffffffffffffffffffffffffffffffffffffffff813581169160208101358216916040820135169060600135611b59565b6101db6004803603602081101561056657600080fd5b503573ffffffffffffffffffffffffffffffffffffffff16611d28565b6101db6004803603608081101561059957600080fd5b5073ffffffffffffffffffffffffffffffffffffffff813581169160208101358216916040820135169060600135611ed7565b61023d612087565b6105dc6120a3565b604080519115158252519081900360200190f35b6101db6004803603606081101561060657600080fd5b5073ffffffffffffffffffffffffffffffffffffffff8135811691602081013590911690604001356120c1565b6101db6004803603606081101561064957600080fd5b5073ffffffffffffffffffffffffffffffffffffffff8135811691602081013590911690604001356121fb565b6101db6004803603606081101561068c57600080fd5b5073ffffffffffffffffffffffffffffffffffffffff813581169160208101359091169060400135612335565b6101db600480360360608110156106cf57600080fd5b5073ffffffffffffffffffffffffffffffffffffffff813581169160208101359091169060400135612507565b6101db6004803603602081101561071257600080fd5b503573ffffffffffffffffffffffffffffffffffffffff166125eb565b6105dc6004803603602081101561074557600080fd5b503573ffffffffffffffffffffffffffffffffffffffff16612711565b6101db6004803603606081101561077857600080fd5b73ffffffffffffffffffffffffffffffffffffffff82351691908101906040810160208201356401000000008111156107b057600080fd5b8201836020820111156107c257600080fd5b803590602001918460018302840111640100000000831117156107e457600080fd5b91908080601f0160208091040260200160405190810160405280939291908181526020018383808284376000920191909152509295505091359250612775915050565b61083033612711565b8061083e575061083e6120a3565b610893576040517f08c379a00000000000000000000000000000000000000000000000000000000081526004018080602001828103825260238152602001806129896023913960400191505060405180910390fd5b604080517f23b872dd00000000000000000000000000000000000000000000000000000000815273ffffffffffffffffffffffffffffffffffffffff8581166004830152848116602483015260448201849052915186928316916323b872dd9160648083019260209291908290030181600087803b15801561091457600080fd5b505af1158015610928573d6000803e3d6000fd5b505050506040513d602081101561093e57600080fd5b5050604051601580549091908190839060027fffffffffffffffffffffffffffffffffffffffffffffffffffffffffffffffff610100600184161502019091160480156109c25780601f106109a05761010080835404028352918201916109c2565b820191906000526020600020905b8154815290600101906020018083116109ae575b50506040805191829003822073ffffffffffffffffffffffffffffffffffffffff88811684526020840188905282519195508a16935033927f32a9eeb55ea56eb60badfb6642d5b92be35b6da6f74892c12d0e14a50dfc2bac92908290030190a45050505050565b610a3333612711565b80610a415750610a416120a3565b610a96576040517f08c379a00000000000000000000000000000000000000000000000000000000081526004018080602001828103825260238152602001806129896023913960400191505060405180910390fd5b604080517fa457c2d700000000000000000000000000000000000000000000000000000000815273ffffffffffffffffffffffffffffffffffffffff8481166004830152602482018490529151859283169163a457c2d791604480830192600092919082900301818387803b158015610b0e57600080fd5b505af1158015610b22573d6000803e3d6000fd5b5050505060016016016040518082805460018160011615610100020316600290048015610b865780601f10610b64576101008083540402835291820191610b86565b820191906000526020600020905b815481529060010190602001808311610b72575b50506040805191829003822073ffffffffffffffffffffffffffffffffffffffff88811684526020840188905282519195508916935033927f32a9eeb55ea56eb60badfb6642d5b92be35b6da6f74892c12d0e14a50dfc2bac92908290030190a450505050565b601b8181548110610bfa57fe5b60009182526020909120015473ffffffffffffffffffffffffffffffffffffffff16905081565b610c296120a3565b610c9457604080517f08c379a000000000000000000000000000000000000000000000000000000000815260206004820181905260248201527f4f776e61626c653a2063616c6c6572206973206e6f7420746865206f776e6572604482015290519081900360640190fd5b60005b601b54811015610e07578173ffffffffffffffffffffffffffffffffffffffff16601b8281548110610cc557fe5b60009182526020909120015473ffffffffffffffffffffffffffffffffffffffff161415610dff57601b8181548110610cfa57fe5b600091825260209091200154601b805473ffffffffffffffffffffffffffffffffffffffff909216917fffffffffffffffffffffffffffffffffffffffffffffffffffffffffffffffff8101908110610d4f57fe5b9060005260206000200160006101000a81548173ffffffffffffffffffffffffffffffffffffffff021916908373ffffffffffffffffffffffffffffffffffffffff160217905550601b805480610da257fe5b60008281526020902081017fffffffffffffffffffffffffffffffffffffffffffffffffffffffffffffffff90810180547fffffffffffffffffffffffff0000000000000000000000000000000000000000169055019055610e07565b600101610c97565b506040805173ffffffffffffffffffffffffffffffffffffffff8316815242602082015281517fa0726c73cf6ad18ddb855ba65d1ddd4d7fd37d320f4e52f6b154c13d386f5fd9929181900390910190a150565b610e6433612711565b80610e725750610e726120a3565b610ec7576040517f08c379a00000000000000000000000000000000000000000000000000000000081526004018080602001828103825260238152602001806129896023913960400191505060405180910390fd5b600083905060016000016040518082805460018160011615610100020316600290048015610f2c5780601f10610f0a576101008083540402835291820191610f2c565b820191906000526020600020905b815481529060010190602001808311610f18575b50506040805191829003822073ffffffffffffffffffffffffffffffffffffffff8916808452602084018890528251919550935033927f32a9eeb55ea56eb60badfb6642d5b92be35b6da6f74892c12d0e14a50dfc2bac92908290030190a48073ffffffffffffffffffffffffffffffffffffffff1663095ea7b384846040518363ffffffff1660e01b8152600401808373ffffffffffffffffffffffffffffffffffffffff1673ffffffffffffffffffffffffffffffffffffffff16815260200182815260200192505050600060405180830381600087803b15801561101257600080fd5b505af1158015611026573d6000803e3d6000fd5b5050505050505050565b61103933612711565b8061104757506110476120a3565b61109c576040517f08c379a00000000000000000000000000000000000000000000000000000000081526004018080602001828103825260238152602001806129896023913960400191505060405180910390fd5b604080517fd73dd62300000000000000000000000000000000000000000000000000000000815273ffffffffffffffffffffffffffffffffffffffff8481166004830152602482018490529151859283169163d73dd62391604480830192600092919082900301818387803b15801561111457600080fd5b505af1158015611128573d6000803e3d6000fd5b5050505060016012016040518082805460018160011615610100020316600290048015610b865780601f10610b64576101008083540402835291820191610b86565b6060601b8054806020026020016040519081016040528092919081815260200182805480156111cf57602002820191906000526020600020905b815473ffffffffffffffffffffffffffffffffffffffff1681526001909101906020018083116111a4575b5050505050905090565b6111e233612711565b806111f057506111f06120a3565b611245576040517f08c379a00000000000000000000000000000000000000000000000000000000081526004018080602001828103825260238152602001806129896023913960400191505060405180910390fd5b604080517fa9059cbb00000000000000000000000000000000000000000000000000000000815273ffffffffffffffffffffffffffffffffffffffff8481166004830152602482018490529151859283169163a9059cbb9160448083019260209291908290030181600087803b1580156112be57600080fd5b505af11580156112d2573d6000803e3d6000fd5b505050506040513d60208110156112e857600080fd5b5050604051601480549091908190839060027fffffffffffffffffffffffffffffffffffffffffffffffffffffffffffffffff61010060018416150201909116048015610b865780601f10610b64576101008083540402835291820191610b86565b61135333612711565b8061136157506113616120a3565b6113b6576040517f08c379a00000000000000000000000000000000000000000000000000000000081526004018080602001828103825260238152602001806129896023913960400191505060405180910390fd5b600082905060608173ffffffffffffffffffffffffffffffffffffffff1663c87b56dd846040518263ffffffff1660e01b815260040180828152602001915050600060405180830381600087803b15801561141057600080fd5b505af1158015611424573d6000803e3d6000fd5b505050506040513d6000823e601f3d9081017fffffffffffffffffffffffffffffffffffffffffffffffffffffffffffffffe0168201604052602081101561146b57600080fd5b810190808051604051939291908464010000000082111561148b57600080fd5b9083019060208201858111156114a057600080fd5b82516401000000008111828201881017156114ba57600080fd5b82525081516020918201929091019080838360005b838110156114e75781810151838201526020016114cf565b50505050905090810190601f1680156115145780820380516001836020036101000a031916815260200191505b5060408181527f081812fc0000000000000000000000000000000000000000000000000000000082526004820189905251949550309473ffffffffffffffffffffffffffffffffffffffff8816945063081812fc9350602480830193506020928290030181600087803b15801561158a57600080fd5b505af115801561159e573d6000803e3d6000fd5b505050506040513d60208110156115b457600080fd5b505173ffffffffffffffffffffffffffffffffffffffff161461163857604080517f08c379a000000000000000000000000000000000000000000000000000000000815260206004820152601b60248201527f546f6b656e206e6f74206170706f726f766520666f72206275726e0000000000604482015290519081900360640190fd5b8173ffffffffffffffffffffffffffffffffffffffff166342966c68846040518263ffffffff1660e01b815260040180828152602001915050600060405180830381600087803b15801561168b57600080fd5b505af115801561169f573d6000803e3d6000fd5b505050503373ffffffffffffffffffffffffffffffffffffffff16838573ffffffffffffffffffffffffffffffffffffffff167f926b248e45dfdd4c4caec216e73ec503ce2522d3b5646c861d1b074210675d0e42856040518083815260200180602001828103825283818151815260200191508051906020019080838360005b83811015611738578181015183820152602001611720565b50505050905090810190601f1680156117655780820380516001836020036101000a031916815260200191505b50935050505060405180910390a450505050565b61178233612711565b8061179057506117906120a3565b6117e5576040517f08c379a00000000000000000000000000000000000000000000000000000000081526004018080602001828103825260238152602001806129896023913960400191505060405180910390fd5b60008290506001600201604051808280546001816001161561010002031660029004801561184a5780601f1061182857610100808354040283529182019161184a565b820191906000526020600020905b815481529060010190602001808311611836575b50506040805191829003822073ffffffffffffffffffffffffffffffffffffffff8816808452602084018890528251919550935033927f32a9eeb55ea56eb60badfb6642d5b92be35b6da6f74892c12d0e14a50dfc2bac92908290030190a48073ffffffffffffffffffffffffffffffffffffffff166342966c68836040518263ffffffff1660e01b815260040180828152602001915050600060405180830381600087803b1580156118fc57600080fd5b505af1158015611910573d6000803e3d6000fd5b50505050505050565b61192233612711565b8061193057506119306120a3565b611985576040517f08c379a00000000000000000000000000000000000000000000000000000000081526004018080602001828103825260238152602001806129896023913960400191505060405180910390fd5b6000859050600160040160405180828054600181600116156101000203166002900480156119ea5780601f106119c85761010080835404028352918201916119ea565b820191906000526020600020905b8154815290600101906020018083116119d6575b50506040805191829003822073ffffffffffffffffffffffffffffffffffffffff8b16808452602084018990528251919550935033927f32a9eeb55ea56eb60badfb6642d5b92be35b6da6f74892c12d0e14a50dfc2bac92908290030190a46040517fb88d4fde00000000000000000000000000000000000000000000000000000000815273ffffffffffffffffffffffffffffffffffffffff868116600483019081528682166024840152604483018690526080606484019081528551608485015285519285169363b88d4fde938a938a938a938a9360a490910190602085019080838360005b83811015611aea578181015183820152602001611ad2565b50505050905090810190601f168015611b175780820380516001836020036101000a031916815260200191505b5095505050505050600060405180830381600087803b158015611b3957600080fd5b505af1158015611b4d573d6000803e3d6000fd5b50505050505050505050565b611b6233612711565b80611b705750611b706120a3565b611bc5576040517f08c379a00000000000000000000000000000000000000000000000000000000081526004018080602001828103825260238152602001806129896023913960400191505060405180910390fd5b600084905060016004016040518082805460018160011615610100020316600290048015611c2a5780601f10611c08576101008083540402835291820191611c2a565b820191906000526020600020905b815481529060010190602001808311611c16575b50506040805191829003822073ffffffffffffffffffffffffffffffffffffffff8a16808452602084018890528251919550935033927f32a9eeb55ea56eb60badfb6642d5b92be35b6da6f74892c12d0e14a50dfc2bac92908290030190a4604080517f42842e0e00000000000000000000000000000000000000000000000000000000815273ffffffffffffffffffffffffffffffffffffffff86811660048301528581166024830152604482018590529151918316916342842e0e9160648082019260009290919082900301818387803b158015611d0957600080fd5b505af1158015611d1d573d6000803e3d6000fd5b505050505050505050565b611d306120a3565b611d9b57604080517f08c379a000000000000000000000000000000000000000000000000000000000815260206004820181905260248201527f4f776e61626c653a2063616c6c6572206973206e6f7420746865206f776e6572604482015290519081900360640190fd5b611da481612711565b611e1d57601b80546001810182556000919091527f3ad8aa4f87544323a9d1e5dd902f40c356527a7955687113db5f9a85ad579dc10180547fffffffffffffffffffffffff00000000000000000000000000000000000000001673ffffffffffffffffffffffffffffffffffffffff8316179055611e84565b604080517f08c379a000000000000000000000000000000000000000000000000000000000815260206004820152601560248201527f61646d696e20616c726561647920696e206c6973740000000000000000000000604482015290519081900360640190fd5b6040805173ffffffffffffffffffffffffffffffffffffffff8316815242602082015281517f723c2b747529ca7f5eb53a74808f4a8b9bf264f0fc450fd904900151da74548a929181900390910190a150565b611ee033612711565b80611eee5750611eee6120a3565b611f43576040517f08c379a00000000000000000000000000000000000000000000000000000000081526004018080602001828103825260238152602001806129896023913960400191505060405180910390fd5b600084905060016005016040518082805460018160011615610100020316600290048015611fa85780601f10611f86576101008083540402835291820191611fa8565b820191906000526020600020905b815481529060010190602001808311611f94575b50506040805191829003822073ffffffffffffffffffffffffffffffffffffffff8a16808452602084018890528251919550935033927f32a9eeb55ea56eb60badfb6642d5b92be35b6da6f74892c12d0e14a50dfc2bac92908290030190a4604080517f23b872dd00000000000000000000000000000000000000000000000000000000815273ffffffffffffffffffffffffffffffffffffffff86811660048301528581166024830152604482018590529151918316916323b872dd9160648082019260009290919082900301818387803b158015611d0957600080fd5b60005473ffffffffffffffffffffffffffffffffffffffff1690565b60005473ffffffffffffffffffffffffffffffffffffffff16331490565b6120ca33612711565b806120d857506120d86120a3565b61212d576040517f08c379a00000000000000000000000000000000000000000000000000000000081526004018080602001828103825260238152602001806129896023913960400191505060405180910390fd5b604080517f3950935100000000000000000000000000000000000000000000000000000000815273ffffffffffffffffffffffffffffffffffffffff84811660048301526024820184905291518592831691633950935191604480830192600092919082900301818387803b1580156121a557600080fd5b505af11580156121b9573d6000803e3d6000fd5b5050505060016015016040518082805460018160011615610100020316600290048015610b865780601f10610b64576101008083540402835291820191610b86565b61220433612711565b8061221257506122126120a3565b612267576040517f08c379a00000000000000000000000000000000000000000000000000000000081526004018080602001828103825260238152602001806129896023913960400191505060405180910390fd5b604080517f095ea7b300000000000000000000000000000000000000000000000000000000815273ffffffffffffffffffffffffffffffffffffffff8481166004830152602482018490529151859283169163095ea7b391604480830192600092919082900301818387803b1580156122df57600080fd5b505af11580156122f3573d6000803e3d6000fd5b5050505060016010016040518082805460018160011615610100020316600290048015610b865780601f10610b64576101008083540402835291820191610b86565b61233e33612711565b8061234c575061234c6120a3565b6123a1576040517f08c379a00000000000000000000000000000000000000000000000000000000081526004018080602001828103825260238152602001806129896023913960400191505060405180910390fd5b60405160028054859290819083907fffffffffffffffffffffffffffffffffffffffffffffffffffffffffffffffff610100600183161502011681900480156124215780601f106123ff576101008083540402835291820191612421565b820191906000526020600020905b81548152906001019060200180831161240d575b50506040805191829003822073ffffffffffffffffffffffffffffffffffffffff8916808452602084018890528251919550935033927f32a9eeb55ea56eb60badfb6642d5b92be35b6da6f74892c12d0e14a50dfc2bac92908290030190a48073ffffffffffffffffffffffffffffffffffffffff1663a9059cbb84846040518363ffffffff1660e01b8152600401808373ffffffffffffffffffffffffffffffffffffffff1673ffffffffffffffffffffffffffffffffffffffff16815260200182815260200192505050600060405180830381600087803b15801561101257600080fd5b61251033612711565b8061251e575061251e6120a3565b612573576040517f08c379a00000000000000000000000000000000000000000000000000000000081526004018080602001828103825260238152602001806129896023913960400191505060405180910390fd5b604080517f6618846300000000000000000000000000000000000000000000000000000000815273ffffffffffffffffffffffffffffffffffffffff84811660048301526024820184905291518592831691636618846391604480830192600092919082900301818387803b158015610b0e57600080fd5b6125f36120a3565b61265e57604080517f08c379a000000000000000000000000000000000000000000000000000000000815260206004820181905260248201527f4f776e61626c653a2063616c6c6572206973206e6f7420746865206f776e6572604482015290519081900360640190fd5b73ffffffffffffffffffffffffffffffffffffffff81166126ca576040517f08c379a00000000000000000000000000000000000000000000000000000000081526004018080602001828103825260268152602001806129636026913960400191505060405180910390fd5b600080547fffffffffffffffffffffffff00000000000000000000000000000000000000001673ffffffffffffffffffffffffffffffffffffffff92909216919091179055565b6000805b601b5481101561276a57601b818154811061272c57fe5b60009182526020909120015473ffffffffffffffffffffffffffffffffffffffff84811691161415612762576001915050612770565b600101612715565b50600090505b919050565b61277e33612711565b8061278c575061278c6120a3565b6127e1576040517f08c379a00000000000000000000000000000000000000000000000000000000081526004018080602001828103825260238152602001806129896023913960400191505060405180910390fd5b6000839050600160030160405180828054600181600116156101000203166002900480156128465780601f10612824576101008083540402835291820191612846565b820191906000526020600020905b815481529060010190602001808311612832575b50506040805191829003822073ffffffffffffffffffffffffffffffffffffffff8916808452600060208501528251919550935033927f32a9eeb55ea56eb60badfb6642d5b92be35b6da6f74892c12d0e14a50dfc2bac92908290030190a48073ffffffffffffffffffffffffffffffffffffffff1663056b01ce84846040518363ffffffff1660e01b81526004018080602001838152602001828103825284818151815260200191508051906020019080838360005b838110156129155781810151838201526020016128fd565b50505050905090810190601f1680156129425780820380516001836020036101000a031916815260200191505b509350505050600060405180830381600087803b15801561101257600080fdfe4f776e61626c653a206e6577206f776e657220697320746865207a65726f206164647265737341646d696e4d616e616765723a2061646d696e20616e64206f776e6572206f6e6c792ea265627a7a723158203da1d85236ac2fb7a21ca5da724b23cd2f31271a3ea8cc1ff904c28eb4e11e0b64736f6c63430005110032",
					"opcodes": "PUSH1 0xE PUSH2 0x3C0 DUP2 DUP2 MSTORE PUSH14 0x4552433732313A617070726F7665 PUSH1 0x90 SHL PUSH2 0x3E0 SWAP1 DUP2 MSTORE PUSH1 0x80 SWAP2 DUP3 MSTORE PUSH1 0xF PUSH2 0x400 SWAP1 DUP2 MSTORE PUSH15 0x22A9219B99189D3A3930B739B332B9 PUSH1 0x89 SHL PUSH2 0x420 MSTORE PUSH1 0xA0 MSTORE PUSH1 0xB PUSH2 0x440 DUP2 DUP2 MSTORE PUSH11 0x22A9219B99189D313AB937 PUSH1 0xA9 SHL PUSH2 0x460 MSTORE PUSH1 0xC0 MSTORE PUSH2 0x480 SWAP1 DUP2 MSTORE PUSH11 0x115490CDCC8C4E9B5A5B9D PUSH1 0xAA SHL PUSH2 0x4A0 MSTORE PUSH1 0xE0 MSTORE PUSH1 0x17 PUSH2 0x4C0 DUP2 DUP2 MSTORE PUSH32 0x4552433732313A736166655472616E7366657246726F6D000000000000000000 PUSH2 0x4E0 MSTORE PUSH2 0x100 MSTORE PUSH1 0x13 PUSH2 0x500 DUP2 DUP2 MSTORE PUSH32 0x4552433732313A7472616E7366657246726F6D00000000000000000000000000 PUSH2 0x520 MSTORE PUSH2 0x120 MSTORE PUSH1 0x10 PUSH2 0x540 DUP2 DUP2 MSTORE PUSH16 0x42726F6B65723A7075744F6E53616C65 PUSH1 0x80 SHL PUSH2 0x560 MSTORE PUSH2 0x140 MSTORE PUSH1 0xA PUSH2 0x580 DUP2 DUP2 MSTORE PUSH10 0x42726F6B65723A627579 PUSH1 0xB0 SHL PUSH2 0x5A0 MSTORE PUSH2 0x160 MSTORE PUSH2 0x5C0 SWAP1 DUP2 MSTORE PUSH10 0x109C9BDAD95C8E989A59 PUSH1 0xB2 SHL PUSH2 0x5E0 MSTORE PUSH2 0x180 MSTORE PUSH2 0x600 DUP7 DUP2 MSTORE PUSH14 0x109C9BDAD95C8E98DBDB1B1958DD PUSH1 0x92 SHL PUSH2 0x620 MSTORE PUSH2 0x1A0 MSTORE PUSH1 0x12 PUSH2 0x640 DUP2 DUP2 MSTORE PUSH18 0x42726F6B65723A7570646174655072696365 PUSH1 0x70 SHL PUSH2 0x660 MSTORE PUSH2 0x1C0 MSTORE PUSH1 0x11 PUSH2 0x680 DUP2 DUP2 MSTORE PUSH17 0x213937B5B2B91D383ABA29B0B632A7B333 PUSH1 0x79 SHL PUSH2 0x6A0 MSTORE PUSH2 0x1E0 MSTORE PUSH2 0x6C0 DUP3 DUP2 MSTORE PUSH18 0x213937B5B2B91D36B0B5B2A0B727B33332B9 PUSH1 0x71 SHL PUSH2 0x6E0 MSTORE PUSH2 0x200 MSTORE PUSH2 0x700 DUP3 DUP2 MSTORE PUSH18 0x213937B5B2B91D30B1B1B832BA27B33332B9 PUSH1 0x71 SHL PUSH2 0x720 MSTORE PUSH2 0x220 MSTORE PUSH2 0x740 DUP3 DUP2 MSTORE PUSH18 0x213937B5B2B91D3932BB32B93A27B33332B9 PUSH1 0x71 SHL PUSH2 0x760 MSTORE PUSH2 0x240 MSTORE PUSH2 0x780 SWAP3 DUP4 MSTORE PUSH16 0x109C9BDAD95C8E9C995D995C9D105B1B PUSH1 0x82 SHL PUSH2 0x7A0 MSTORE PUSH2 0x260 SWAP3 SWAP1 SWAP3 MSTORE PUSH2 0x7C0 SWAP3 DUP4 MSTORE PUSH32 0x42726F6B65723A62617463684C697374696E6700000000000000000000000000 PUSH2 0x7E0 MSTORE PUSH2 0x280 SWAP3 SWAP1 SWAP3 MSTORE PUSH1 0x15 PUSH2 0x800 SWAP1 DUP2 MSTORE PUSH32 0x42726F6B65723A626174636844656C697374696E670000000000000000000000 PUSH2 0x820 MSTORE PUSH2 0x2A0 MSTORE PUSH2 0x840 SWAP1 DUP2 MSTORE PUSH17 0x42726F6B65723A73657441646472657373 PUSH1 0x78 SHL PUSH2 0x860 MSTORE PUSH2 0x2C0 MSTORE PUSH1 0xD PUSH2 0x880 SWAP1 DUP2 MSTORE PUSH13 0x45524332303A617070726F7665 PUSH1 0x98 SHL PUSH2 0x8A0 MSTORE PUSH2 0x2E0 MSTORE PUSH1 0x16 PUSH2 0x8C0 DUP2 DUP2 MSTORE PUSH32 0x45524332303A6465637265617365417070726F76616C00000000000000000000 PUSH2 0x8E0 MSTORE PUSH2 0x300 MSTORE PUSH2 0x900 SWAP1 DUP2 MSTORE PUSH32 0x45524332303A696E637265617365417070726F76616C00000000000000000000 PUSH2 0x920 MSTORE PUSH2 0x320 MSTORE PUSH2 0x940 DUP6 DUP2 MSTORE PUSH14 0x22A92199181D3A3930B739B332B9 PUSH1 0x91 SHL PUSH2 0x960 MSTORE PUSH2 0x340 MSTORE PUSH2 0x980 SWAP1 DUP2 MSTORE PUSH18 0x45524332303A7472616E7366657246726F6D PUSH1 0x70 SHL PUSH2 0x9A0 MSTORE PUSH2 0x360 MSTORE PUSH2 0x9C0 DUP2 DUP2 MSTORE PUSH32 0x45524332303A696E637265617365416C6C6F77616E6365000000000000000000 PUSH2 0x9E0 MSTORE PUSH2 0x380 MSTORE PUSH2 0xA40 PUSH1 0x40 MSTORE PUSH2 0xA00 SWAP1 DUP2 MSTORE PUSH32 0x45524332303A6465637265617365416C6C6F77616E6365000000000000000000 PUSH2 0xA20 MSTORE PUSH2 0x3A0 MSTORE SWAP1 SWAP2 PUSH1 0x1 SWAP2 PUSH3 0x3FE SWAP2 DUP4 SWAP2 SWAP1 PUSH3 0x716 JUMP JUMPDEST POP PUSH1 0x20 DUP3 DUP2 ADD MLOAD DUP1 MLOAD PUSH3 0x419 SWAP3 PUSH1 0x1 DUP6 ADD SWAP3 ADD SWAP1 PUSH3 0x716 JUMP JUMPDEST POP PUSH1 0x40 DUP3 ADD MLOAD DUP1 MLOAD PUSH3 0x437 SWAP2 PUSH1 0x2 DUP5 ADD SWAP2 PUSH1 0x20 SWAP1 SWAP2 ADD SWAP1 PUSH3 0x716 JUMP JUMPDEST POP PUSH1 0x60 DUP3 ADD MLOAD DUP1 MLOAD PUSH3 0x455 SWAP2 PUSH1 0x3 DUP5 ADD SWAP2 PUSH1 0x20 SWAP1 SWAP2 ADD SWAP1 PUSH3 0x716 JUMP JUMPDEST POP PUSH1 0x80 DUP3 ADD MLOAD DUP1 MLOAD PUSH3 0x473 SWAP2 PUSH1 0x4 DUP5 ADD SWAP2 PUSH1 0x20 SWAP1 SWAP2 ADD SWAP1 PUSH3 0x716 JUMP JUMPDEST POP PUSH1 0xA0 DUP3 ADD MLOAD DUP1 MLOAD PUSH3 0x491 SWAP2 PUSH1 0x5 DUP5 ADD SWAP2 PUSH1 0x20 SWAP1 SWAP2 ADD SWAP1 PUSH3 0x716 JUMP JUMPDEST POP PUSH1 0xC0 DUP3 ADD MLOAD DUP1 MLOAD PUSH3 0x4AF SWAP2 PUSH1 0x6 DUP5 ADD SWAP2 PUSH1 0x20 SWAP1 SWAP2 ADD SWAP1 PUSH3 0x716 JUMP JUMPDEST POP PUSH1 0xE0 DUP3 ADD MLOAD DUP1 MLOAD PUSH3 0x4CD SWAP2 PUSH1 0x7 DUP5 ADD SWAP2 PUSH1 0x20 SWAP1 SWAP2 ADD SWAP1 PUSH3 0x716 JUMP JUMPDEST POP PUSH2 0x100 DUP3 ADD MLOAD DUP1 MLOAD PUSH3 0x4EC SWAP2 PUSH1 0x8 DUP5 ADD SWAP2 PUSH1 0x20 SWAP1 SWAP2 ADD SWAP1 PUSH3 0x716 JUMP JUMPDEST POP PUSH2 0x120 DUP3 ADD MLOAD DUP1 MLOAD PUSH3 0x50B SWAP2 PUSH1 0x9 DUP5 ADD SWAP2 PUSH1 0x20 SWAP1 SWAP2 ADD SWAP1 PUSH3 0x716 JUMP JUMPDEST POP PUSH2 0x140 DUP3 ADD MLOAD DUP1 MLOAD PUSH3 0x52A SWAP2 PUSH1 0xA DUP5 ADD SWAP2 PUSH1 0x20 SWAP1 SWAP2 ADD SWAP1 PUSH3 0x716 JUMP JUMPDEST POP PUSH2 0x160 DUP3 ADD MLOAD DUP1 MLOAD PUSH3 0x549 SWAP2 PUSH1 0xB DUP5 ADD SWAP2 PUSH1 0x20 SWAP1 SWAP2 ADD SWAP1 PUSH3 0x716 JUMP JUMPDEST POP PUSH2 0x180 DUP3 ADD MLOAD DUP1 MLOAD PUSH3 0x568 SWAP2 PUSH1 0xC DUP5 ADD SWAP2 PUSH1 0x20 SWAP1 SWAP2 ADD SWAP1 PUSH3 0x716 JUMP JUMPDEST POP PUSH2 0x1A0 DUP3 ADD MLOAD DUP1 MLOAD PUSH3 0x587 SWAP2 PUSH1 0xD DUP5 ADD SWAP2 PUSH1 0x20 SWAP1 SWAP2 ADD SWAP1 PUSH3 0x716 JUMP JUMPDEST POP PUSH2 0x1C0 DUP3 ADD MLOAD DUP1 MLOAD PUSH3 0x5A6 SWAP2 PUSH1 0xE DUP5 ADD SWAP2 PUSH1 0x20 SWAP1 SWAP2 ADD SWAP1 PUSH3 0x716 JUMP JUMPDEST POP PUSH2 0x1E0 DUP3 ADD MLOAD DUP1 MLOAD PUSH3 0x5C5 SWAP2 PUSH1 0xF DUP5 ADD SWAP2 PUSH1 0x20 SWAP1 SWAP2 ADD SWAP1 PUSH3 0x716 JUMP JUMPDEST POP PUSH2 0x200 DUP3 ADD MLOAD DUP1 MLOAD PUSH3 0x5E4 SWAP2 PUSH1 0x10 DUP5 ADD SWAP2 PUSH1 0x20 SWAP1 SWAP2 ADD SWAP1 PUSH3 0x716 JUMP JUMPDEST POP PUSH2 0x220 DUP3 ADD MLOAD DUP1 MLOAD PUSH3 0x603 SWAP2 PUSH1 0x11 DUP5 ADD SWAP2 PUSH1 0x20 SWAP1 SWAP2 ADD SWAP1 PUSH3 0x716 JUMP JUMPDEST POP PUSH2 0x240 DUP3 ADD MLOAD DUP1 MLOAD PUSH3 0x622 SWAP2 PUSH1 0x12 DUP5 ADD SWAP2 PUSH1 0x20 SWAP1 SWAP2 ADD SWAP1 PUSH3 0x716 JUMP JUMPDEST POP PUSH2 0x260 DUP3 ADD MLOAD DUP1 MLOAD PUSH3 0x641 SWAP2 PUSH1 0x13 DUP5 ADD SWAP2 PUSH1 0x20 SWAP1 SWAP2 ADD SWAP1 PUSH3 0x716 JUMP JUMPDEST POP PUSH2 0x280 DUP3 ADD MLOAD DUP1 MLOAD PUSH3 0x660 SWAP2 PUSH1 0x14 DUP5 ADD SWAP2 PUSH1 0x20 SWAP1 SWAP2 ADD SWAP1 PUSH3 0x716 JUMP JUMPDEST POP PUSH2 0x2A0 DUP3 ADD MLOAD DUP1 MLOAD PUSH3 0x67F SWAP2 PUSH1 0x15 DUP5 ADD SWAP2 PUSH1 0x20 SWAP1 SWAP2 ADD SWAP1 PUSH3 0x716 JUMP JUMPDEST POP PUSH2 0x2C0 DUP3 ADD MLOAD DUP1 MLOAD PUSH3 0x69E SWAP2 PUSH1 0x16 DUP5 ADD SWAP2 PUSH1 0x20 SWAP1 SWAP2 ADD SWAP1 PUSH3 0x716 JUMP JUMPDEST POP PUSH2 0x2E0 DUP3 ADD MLOAD DUP1 MLOAD PUSH3 0x6BD SWAP2 PUSH1 0x17 DUP5 ADD SWAP2 PUSH1 0x20 SWAP1 SWAP2 ADD SWAP1 PUSH3 0x716 JUMP JUMPDEST POP PUSH2 0x300 DUP3 ADD MLOAD DUP1 MLOAD PUSH3 0x6DC SWAP2 PUSH1 0x18 DUP5 ADD SWAP2 PUSH1 0x20 SWAP1 SWAP2 ADD SWAP1 PUSH3 0x716 JUMP JUMPDEST POP PUSH2 0x320 DUP3 ADD MLOAD DUP1 MLOAD PUSH3 0x6FB SWAP2 PUSH1 0x19 DUP5 ADD SWAP2 PUSH1 0x20 SWAP1 SWAP2 ADD SWAP1 PUSH3 0x716 JUMP JUMPDEST POP POP PUSH1 0x0 DUP1 SLOAD PUSH1 0x1 PUSH1 0x1 PUSH1 0xA0 SHL SUB NOT AND CALLER OR SWAP1 SSTORE POP PUSH3 0x7BB JUMP JUMPDEST DUP3 DUP1 SLOAD PUSH1 0x1 DUP2 PUSH1 0x1 AND ISZERO PUSH2 0x100 MUL SUB AND PUSH1 0x2 SWAP1 DIV SWAP1 PUSH1 0x0 MSTORE PUSH1 0x20 PUSH1 0x0 KECCAK256 SWAP1 PUSH1 0x1F ADD PUSH1 0x20 SWAP1 DIV DUP2 ADD SWAP3 DUP3 PUSH1 0x1F LT PUSH3 0x759 JUMPI DUP1 MLOAD PUSH1 0xFF NOT AND DUP4 DUP1 ADD OR DUP6 SSTORE PUSH3 0x789 JUMP JUMPDEST DUP3 DUP1 ADD PUSH1 0x1 ADD DUP6 SSTORE DUP3 ISZERO PUSH3 0x789 JUMPI SWAP2 DUP3 ADD JUMPDEST DUP3 DUP2 GT ISZERO PUSH3 0x789 JUMPI DUP3 MLOAD DUP3 SSTORE SWAP2 PUSH1 0x20 ADD SWAP2 SWAP1 PUSH1 0x1 ADD SWAP1 PUSH3 0x76C JUMP JUMPDEST POP PUSH3 0x797 SWAP3 SWAP2 POP PUSH3 0x79B JUMP JUMPDEST POP SWAP1 JUMP JUMPDEST PUSH3 0x7B8 SWAP2 SWAP1 JUMPDEST DUP1 DUP3 GT ISZERO PUSH3 0x797 JUMPI PUSH1 0x0 DUP2 SSTORE PUSH1 0x1 ADD PUSH3 0x7A2 JUMP JUMPDEST SWAP1 JUMP JUMPDEST PUSH2 0x29E0 DUP1 PUSH3 0x7CB PUSH1 0x0 CODECOPY PUSH1 0x0 RETURN INVALID PUSH1 0x80 PUSH1 0x40 MSTORE CALLVALUE DUP1 ISZERO PUSH2 0x10 JUMPI PUSH1 0x0 DUP1 REVERT JUMPDEST POP PUSH1 0x4 CALLDATASIZE LT PUSH2 0x18D JUMPI PUSH1 0x0 CALLDATALOAD PUSH1 0xE0 SHR DUP1 PUSH4 0x4A0AAFDA GT PUSH2 0xE3 JUMPI DUP1 PUSH4 0xACE561A8 GT PUSH2 0x8C JUMPI DUP1 PUSH4 0xF2FDE38B GT PUSH2 0x66 JUMPI DUP1 PUSH4 0xF2FDE38B EQ PUSH2 0x6FC JUMPI DUP1 PUSH4 0xFBA08D45 EQ PUSH2 0x72F JUMPI DUP1 PUSH4 0xFDDEA900 EQ PUSH2 0x762 JUMPI PUSH2 0x18D JUMP JUMPDEST DUP1 PUSH4 0xACE561A8 EQ PUSH2 0x633 JUMPI DUP1 PUSH4 0xB6011B4C EQ PUSH2 0x676 JUMPI DUP1 PUSH4 0xC347F69B EQ PUSH2 0x6B9 JUMPI PUSH2 0x18D JUMP JUMPDEST DUP1 PUSH4 0x8DA5CB5B GT PUSH2 0xBD JUMPI DUP1 PUSH4 0x8DA5CB5B EQ PUSH2 0x5CC JUMPI DUP1 PUSH4 0x8F32D59B EQ PUSH2 0x5D4 JUMPI DUP1 PUSH4 0x9DC6B78D EQ PUSH2 0x5F0 JUMPI PUSH2 0x18D JUMP JUMPDEST DUP1 PUSH4 0x4A0AAFDA EQ PUSH2 0x507 JUMPI DUP1 PUSH4 0x70480275 EQ PUSH2 0x550 JUMPI DUP1 PUSH4 0x8450EBE4 EQ PUSH2 0x583 JUMPI PUSH2 0x18D JUMP JUMPDEST DUP1 PUSH4 0x1AFFFEC0 GT PUSH2 0x145 JUMPI DUP1 PUSH4 0x47FCF018 GT PUSH2 0x11F JUMPI DUP1 PUSH4 0x47FCF018 EQ PUSH2 0x3BA JUMPI DUP1 PUSH4 0x485F952E EQ PUSH2 0x3F3 JUMPI DUP1 PUSH4 0x488B0F7D EQ PUSH2 0x42C JUMPI PUSH2 0x18D JUMP JUMPDEST DUP1 PUSH4 0x1AFFFEC0 EQ PUSH2 0x2DC JUMPI DUP1 PUSH4 0x31AE450B EQ PUSH2 0x31F JUMPI DUP1 PUSH4 0x3790767D EQ PUSH2 0x377 JUMPI PUSH2 0x18D JUMP JUMPDEST DUP1 PUSH4 0x14BFD6D0 GT PUSH2 0x176 JUMPI DUP1 PUSH4 0x14BFD6D0 EQ PUSH2 0x220 JUMPI DUP1 PUSH4 0x1785F53C EQ PUSH2 0x266 JUMPI DUP1 PUSH4 0x18FA0653 EQ PUSH2 0x299 JUMPI PUSH2 0x18D JUMP JUMPDEST DUP1 PUSH4 0xA1B0B91 EQ PUSH2 0x192 JUMPI DUP1 PUSH4 0xC82EA1A EQ PUSH2 0x1DD JUMPI JUMPDEST PUSH1 0x0 DUP1 REVERT JUMPDEST PUSH2 0x1DB PUSH1 0x4 DUP1 CALLDATASIZE SUB PUSH1 0x80 DUP2 LT ISZERO PUSH2 0x1A8 JUMPI PUSH1 0x0 DUP1 REVERT JUMPDEST POP PUSH20 0xFFFFFFFFFFFFFFFFFFFFFFFFFFFFFFFFFFFFFFFF DUP2 CALLDATALOAD DUP2 AND SWAP2 PUSH1 0x20 DUP2 ADD CALLDATALOAD DUP3 AND SWAP2 PUSH1 0x40 DUP3 ADD CALLDATALOAD AND SWAP1 PUSH1 0x60 ADD CALLDATALOAD PUSH2 0x827 JUMP JUMPDEST STOP JUMPDEST PUSH2 0x1DB PUSH1 0x4 DUP1 CALLDATASIZE SUB PUSH1 0x60 DUP2 LT ISZERO PUSH2 0x1F3 JUMPI PUSH1 0x0 DUP1 REVERT JUMPDEST POP PUSH20 0xFFFFFFFFFFFFFFFFFFFFFFFFFFFFFFFFFFFFFFFF DUP2 CALLDATALOAD DUP2 AND SWAP2 PUSH1 0x20 DUP2 ADD CALLDATALOAD SWAP1 SWAP2 AND SWAP1 PUSH1 0x40 ADD CALLDATALOAD PUSH2 0xA2A JUMP JUMPDEST PUSH2 0x23D PUSH1 0x4 DUP1 CALLDATASIZE SUB PUSH1 0x20 DUP2 LT ISZERO PUSH2 0x236 JUMPI PUSH1 0x0 DUP1 REVERT JUMPDEST POP CALLDATALOAD PUSH2 0xBED JUMP JUMPDEST PUSH1 0x40 DUP1 MLOAD PUSH20 0xFFFFFFFFFFFFFFFFFFFFFFFFFFFFFFFFFFFFFFFF SWAP1 SWAP3 AND DUP3 MSTORE MLOAD SWAP1 DUP2 SWAP1 SUB PUSH1 0x20 ADD SWAP1 RETURN JUMPDEST PUSH2 0x1DB PUSH1 0x4 DUP1 CALLDATASIZE SUB PUSH1 0x20 DUP2 LT ISZERO PUSH2 0x27C JUMPI PUSH1 0x0 DUP1 REVERT JUMPDEST POP CALLDATALOAD PUSH20 0xFFFFFFFFFFFFFFFFFFFFFFFFFFFFFFFFFFFFFFFF AND PUSH2 0xC21 JUMP JUMPDEST PUSH2 0x1DB PUSH1 0x4 DUP1 CALLDATASIZE SUB PUSH1 0x60 DUP2 LT ISZERO PUSH2 0x2AF JUMPI PUSH1 0x0 DUP1 REVERT JUMPDEST POP PUSH20 0xFFFFFFFFFFFFFFFFFFFFFFFFFFFFFFFFFFFFFFFF DUP2 CALLDATALOAD DUP2 AND SWAP2 PUSH1 0x20 DUP2 ADD CALLDATALOAD SWAP1 SWAP2 AND SWAP1 PUSH1 0x40 ADD CALLDATALOAD PUSH2 0xE5B JUMP JUMPDEST PUSH2 0x1DB PUSH1 0x4 DUP1 CALLDATASIZE SUB PUSH1 0x60 DUP2 LT ISZERO PUSH2 0x2F2 JUMPI PUSH1 0x0 DUP1 REVERT JUMPDEST POP PUSH20 0xFFFFFFFFFFFFFFFFFFFFFFFFFFFFFFFFFFFFFFFF DUP2 CALLDATALOAD DUP2 AND SWAP2 PUSH1 0x20 DUP2 ADD CALLDATALOAD SWAP1 SWAP2 AND SWAP1 PUSH1 0x40 ADD CALLDATALOAD PUSH2 0x1030 JUMP JUMPDEST PUSH2 0x327 PUSH2 0x116A JUMP JUMPDEST PUSH1 0x40 DUP1 MLOAD PUSH1 0x20 DUP1 DUP3 MSTORE DUP4 MLOAD DUP2 DUP4 ADD MSTORE DUP4 MLOAD SWAP2 SWAP3 DUP4 SWAP3 SWAP1 DUP4 ADD SWAP2 DUP6 DUP2 ADD SWAP2 MUL DUP1 DUP4 DUP4 PUSH1 0x0 JUMPDEST DUP4 DUP2 LT ISZERO PUSH2 0x363 JUMPI DUP2 DUP2 ADD MLOAD DUP4 DUP3 ADD MSTORE PUSH1 0x20 ADD PUSH2 0x34B JUMP JUMPDEST POP POP POP POP SWAP1 POP ADD SWAP3 POP POP POP PUSH1 0x40 MLOAD DUP1 SWAP2 SUB SWAP1 RETURN JUMPDEST PUSH2 0x1DB PUSH1 0x4 DUP1 CALLDATASIZE SUB PUSH1 0x60 DUP2 LT ISZERO PUSH2 0x38D JUMPI PUSH1 0x0 DUP1 REVERT JUMPDEST POP PUSH20 0xFFFFFFFFFFFFFFFFFFFFFFFFFFFFFFFFFFFFFFFF DUP2 CALLDATALOAD DUP2 AND SWAP2 PUSH1 0x20 DUP2 ADD CALLDATALOAD SWAP1 SWAP2 AND SWAP1 PUSH1 0x40 ADD CALLDATALOAD PUSH2 0x11D9 JUMP JUMPDEST PUSH2 0x1DB PUSH1 0x4 DUP1 CALLDATASIZE SUB PUSH1 0x40 DUP2 LT ISZERO PUSH2 0x3D0 JUMPI PUSH1 0x0 DUP1 REVERT JUMPDEST POP PUSH20 0xFFFFFFFFFFFFFFFFFFFFFFFFFFFFFFFFFFFFFFFF DUP2 CALLDATALOAD AND SWAP1 PUSH1 0x20 ADD CALLDATALOAD PUSH2 0x134A JUMP JUMPDEST PUSH2 0x1DB PUSH1 0x4 DUP1 CALLDATASIZE SUB PUSH1 0x40 DUP2 LT ISZERO PUSH2 0x409 JUMPI PUSH1 0x0 DUP1 REVERT JUMPDEST POP PUSH20 0xFFFFFFFFFFFFFFFFFFFFFFFFFFFFFFFFFFFFFFFF DUP2 CALLDATALOAD AND SWAP1 PUSH1 0x20 ADD CALLDATALOAD PUSH2 0x1779 JUMP JUMPDEST PUSH2 0x1DB PUSH1 0x4 DUP1 CALLDATASIZE SUB PUSH1 0xA0 DUP2 LT ISZERO PUSH2 0x442 JUMPI PUSH1 0x0 DUP1 REVERT JUMPDEST PUSH20 0xFFFFFFFFFFFFFFFFFFFFFFFFFFFFFFFFFFFFFFFF DUP3 CALLDATALOAD DUP2 AND SWAP3 PUSH1 0x20 DUP2 ADD CALLDATALOAD DUP3 AND SWAP3 PUSH1 0x40 DUP3 ADD CALLDATALOAD SWAP1 SWAP3 AND SWAP2 PUSH1 0x60 DUP3 ADD CALLDATALOAD SWAP2 SWAP1 DUP2 ADD SWAP1 PUSH1 0xA0 DUP2 ADD PUSH1 0x80 DUP3 ADD CALLDATALOAD PUSH5 0x100000000 DUP2 GT ISZERO PUSH2 0x492 JUMPI PUSH1 0x0 DUP1 REVERT JUMPDEST DUP3 ADD DUP4 PUSH1 0x20 DUP3 ADD GT ISZERO PUSH2 0x4A4 JUMPI PUSH1 0x0 DUP1 REVERT JUMPDEST DUP1 CALLDATALOAD SWAP1 PUSH1 0x20 ADD SWAP2 DUP5 PUSH1 0x1 DUP4 MUL DUP5 ADD GT PUSH5 0x100000000 DUP4 GT OR ISZERO PUSH2 0x4C6 JUMPI PUSH1 0x0 DUP1 REVERT JUMPDEST SWAP2 SWAP1 DUP1 DUP1 PUSH1 0x1F ADD PUSH1 0x20 DUP1 SWAP2 DIV MUL PUSH1 0x20 ADD PUSH1 0x40 MLOAD SWAP1 DUP2 ADD PUSH1 0x40 MSTORE DUP1 SWAP4 SWAP3 SWAP2 SWAP1 DUP2 DUP2 MSTORE PUSH1 0x20 ADD DUP4 DUP4 DUP1 DUP3 DUP5 CALLDATACOPY PUSH1 0x0 SWAP3 ADD SWAP2 SWAP1 SWAP2 MSTORE POP SWAP3 SWAP6 POP PUSH2 0x1919 SWAP5 POP POP POP POP POP JUMP JUMPDEST PUSH2 0x1DB PUSH1 0x4 DUP1 CALLDATASIZE SUB PUSH1 0x80 DUP2 LT ISZERO PUSH2 0x51D JUMPI PUSH1 0x0 DUP1 REVERT JUMPDEST POP PUSH20 0xFFFFFFFFFFFFFFFFFFFFFFFFFFFFFFFFFFFFFFFF DUP2 CALLDATALOAD DUP2 AND SWAP2 PUSH1 0x20 DUP2 ADD CALLDATALOAD DUP3 AND SWAP2 PUSH1 0x40 DUP3 ADD CALLDATALOAD AND SWAP1 PUSH1 0x60 ADD CALLDATALOAD PUSH2 0x1B59 JUMP JUMPDEST PUSH2 0x1DB PUSH1 0x4 DUP1 CALLDATASIZE SUB PUSH1 0x20 DUP2 LT ISZERO PUSH2 0x566 JUMPI PUSH1 0x0 DUP1 REVERT JUMPDEST POP CALLDATALOAD PUSH20 0xFFFFFFFFFFFFFFFFFFFFFFFFFFFFFFFFFFFFFFFF AND PUSH2 0x1D28 JUMP JUMPDEST PUSH2 0x1DB PUSH1 0x4 DUP1 CALLDATASIZE SUB PUSH1 0x80 DUP2 LT ISZERO PUSH2 0x599 JUMPI PUSH1 0x0 DUP1 REVERT JUMPDEST POP PUSH20 0xFFFFFFFFFFFFFFFFFFFFFFFFFFFFFFFFFFFFFFFF DUP2 CALLDATALOAD DUP2 AND SWAP2 PUSH1 0x20 DUP2 ADD CALLDATALOAD DUP3 AND SWAP2 PUSH1 0x40 DUP3 ADD CALLDATALOAD AND SWAP1 PUSH1 0x60 ADD CALLDATALOAD PUSH2 0x1ED7 JUMP JUMPDEST PUSH2 0x23D PUSH2 0x2087 JUMP JUMPDEST PUSH2 0x5DC PUSH2 0x20A3 JUMP JUMPDEST PUSH1 0x40 DUP1 MLOAD SWAP2 ISZERO ISZERO DUP3 MSTORE MLOAD SWAP1 DUP2 SWAP1 SUB PUSH1 0x20 ADD SWAP1 RETURN JUMPDEST PUSH2 0x1DB PUSH1 0x4 DUP1 CALLDATASIZE SUB PUSH1 0x60 DUP2 LT ISZERO PUSH2 0x606 JUMPI PUSH1 0x0 DUP1 REVERT JUMPDEST POP PUSH20 0xFFFFFFFFFFFFFFFFFFFFFFFFFFFFFFFFFFFFFFFF DUP2 CALLDATALOAD DUP2 AND SWAP2 PUSH1 0x20 DUP2 ADD CALLDATALOAD SWAP1 SWAP2 AND SWAP1 PUSH1 0x40 ADD CALLDATALOAD PUSH2 0x20C1 JUMP JUMPDEST PUSH2 0x1DB PUSH1 0x4 DUP1 CALLDATASIZE SUB PUSH1 0x60 DUP2 LT ISZERO PUSH2 0x649 JUMPI PUSH1 0x0 DUP1 REVERT JUMPDEST POP PUSH20 0xFFFFFFFFFFFFFFFFFFFFFFFFFFFFFFFFFFFFFFFF DUP2 CALLDATALOAD DUP2 AND SWAP2 PUSH1 0x20 DUP2 ADD CALLDATALOAD SWAP1 SWAP2 AND SWAP1 PUSH1 0x40 ADD CALLDATALOAD PUSH2 0x21FB JUMP JUMPDEST PUSH2 0x1DB PUSH1 0x4 DUP1 CALLDATASIZE SUB PUSH1 0x60 DUP2 LT ISZERO PUSH2 0x68C JUMPI PUSH1 0x0 DUP1 REVERT JUMPDEST POP PUSH20 0xFFFFFFFFFFFFFFFFFFFFFFFFFFFFFFFFFFFFFFFF DUP2 CALLDATALOAD DUP2 AND SWAP2 PUSH1 0x20 DUP2 ADD CALLDATALOAD SWAP1 SWAP2 AND SWAP1 PUSH1 0x40 ADD CALLDATALOAD PUSH2 0x2335 JUMP JUMPDEST PUSH2 0x1DB PUSH1 0x4 DUP1 CALLDATASIZE SUB PUSH1 0x60 DUP2 LT ISZERO PUSH2 0x6CF JUMPI PUSH1 0x0 DUP1 REVERT JUMPDEST POP PUSH20 0xFFFFFFFFFFFFFFFFFFFFFFFFFFFFFFFFFFFFFFFF DUP2 CALLDATALOAD DUP2 AND SWAP2 PUSH1 0x20 DUP2 ADD CALLDATALOAD SWAP1 SWAP2 AND SWAP1 PUSH1 0x40 ADD CALLDATALOAD PUSH2 0x2507 JUMP JUMPDEST PUSH2 0x1DB PUSH1 0x4 DUP1 CALLDATASIZE SUB PUSH1 0x20 DUP2 LT ISZERO PUSH2 0x712 JUMPI PUSH1 0x0 DUP1 REVERT JUMPDEST POP CALLDATALOAD PUSH20 0xFFFFFFFFFFFFFFFFFFFFFFFFFFFFFFFFFFFFFFFF AND PUSH2 0x25EB JUMP JUMPDEST PUSH2 0x5DC PUSH1 0x4 DUP1 CALLDATASIZE SUB PUSH1 0x20 DUP2 LT ISZERO PUSH2 0x745 JUMPI PUSH1 0x0 DUP1 REVERT JUMPDEST POP CALLDATALOAD PUSH20 0xFFFFFFFFFFFFFFFFFFFFFFFFFFFFFFFFFFFFFFFF AND PUSH2 0x2711 JUMP JUMPDEST PUSH2 0x1DB PUSH1 0x4 DUP1 CALLDATASIZE SUB PUSH1 0x60 DUP2 LT ISZERO PUSH2 0x778 JUMPI PUSH1 0x0 DUP1 REVERT JUMPDEST PUSH20 0xFFFFFFFFFFFFFFFFFFFFFFFFFFFFFFFFFFFFFFFF DUP3 CALLDATALOAD AND SWAP2 SWAP1 DUP2 ADD SWAP1 PUSH1 0x40 DUP2 ADD PUSH1 0x20 DUP3 ADD CALLDATALOAD PUSH5 0x100000000 DUP2 GT ISZERO PUSH2 0x7B0 JUMPI PUSH1 0x0 DUP1 REVERT JUMPDEST DUP3 ADD DUP4 PUSH1 0x20 DUP3 ADD GT ISZERO PUSH2 0x7C2 JUMPI PUSH1 0x0 DUP1 REVERT JUMPDEST DUP1 CALLDATALOAD SWAP1 PUSH1 0x20 ADD SWAP2 DUP5 PUSH1 0x1 DUP4 MUL DUP5 ADD GT PUSH5 0x100000000 DUP4 GT OR ISZERO PUSH2 0x7E4 JUMPI PUSH1 0x0 DUP1 REVERT JUMPDEST SWAP2 SWAP1 DUP1 DUP1 PUSH1 0x1F ADD PUSH1 0x20 DUP1 SWAP2 DIV MUL PUSH1 0x20 ADD PUSH1 0x40 MLOAD SWAP1 DUP2 ADD PUSH1 0x40 MSTORE DUP1 SWAP4 SWAP3 SWAP2 SWAP1 DUP2 DUP2 MSTORE PUSH1 0x20 ADD DUP4 DUP4 DUP1 DUP3 DUP5 CALLDATACOPY PUSH1 0x0 SWAP3 ADD SWAP2 SWAP1 SWAP2 MSTORE POP SWAP3 SWAP6 POP POP SWAP2 CALLDATALOAD SWAP3 POP PUSH2 0x2775 SWAP2 POP POP JUMP JUMPDEST PUSH2 0x830 CALLER PUSH2 0x2711 JUMP JUMPDEST DUP1 PUSH2 0x83E JUMPI POP PUSH2 0x83E PUSH2 0x20A3 JUMP JUMPDEST PUSH2 0x893 JUMPI PUSH1 0x40 MLOAD PUSH32 0x8C379A000000000000000000000000000000000000000000000000000000000 DUP2 MSTORE PUSH1 0x4 ADD DUP1 DUP1 PUSH1 0x20 ADD DUP3 DUP2 SUB DUP3 MSTORE PUSH1 0x23 DUP2 MSTORE PUSH1 0x20 ADD DUP1 PUSH2 0x2989 PUSH1 0x23 SWAP2 CODECOPY PUSH1 0x40 ADD SWAP2 POP POP PUSH1 0x40 MLOAD DUP1 SWAP2 SUB SWAP1 REVERT JUMPDEST PUSH1 0x40 DUP1 MLOAD PUSH32 0x23B872DD00000000000000000000000000000000000000000000000000000000 DUP2 MSTORE PUSH20 0xFFFFFFFFFFFFFFFFFFFFFFFFFFFFFFFFFFFFFFFF DUP6 DUP2 AND PUSH1 0x4 DUP4 ADD MSTORE DUP5 DUP2 AND PUSH1 0x24 DUP4 ADD MSTORE PUSH1 0x44 DUP3 ADD DUP5 SWAP1 MSTORE SWAP2 MLOAD DUP7 SWAP3 DUP4 AND SWAP2 PUSH4 0x23B872DD SWAP2 PUSH1 0x64 DUP1 DUP4 ADD SWAP3 PUSH1 0x20 SWAP3 SWAP2 SWAP1 DUP3 SWAP1 SUB ADD DUP2 PUSH1 0x0 DUP8 DUP1 EXTCODESIZE ISZERO DUP1 ISZERO PUSH2 0x914 JUMPI PUSH1 0x0 DUP1 REVERT JUMPDEST POP GAS CALL ISZERO DUP1 ISZERO PUSH2 0x928 JUMPI RETURNDATASIZE PUSH1 0x0 DUP1 RETURNDATACOPY RETURNDATASIZE PUSH1 0x0 REVERT JUMPDEST POP POP POP POP PUSH1 0x40 MLOAD RETURNDATASIZE PUSH1 0x20 DUP2 LT ISZERO PUSH2 0x93E JUMPI PUSH1 0x0 DUP1 REVERT JUMPDEST POP POP PUSH1 0x40 MLOAD PUSH1 0x15 DUP1 SLOAD SWAP1 SWAP2 SWAP1 DUP2 SWAP1 DUP4 SWAP1 PUSH1 0x2 PUSH32 0xFFFFFFFFFFFFFFFFFFFFFFFFFFFFFFFFFFFFFFFFFFFFFFFFFFFFFFFFFFFFFFFF PUSH2 0x100 PUSH1 0x1 DUP5 AND ISZERO MUL ADD SWAP1 SWAP2 AND DIV DUP1 ISZERO PUSH2 0x9C2 JUMPI DUP1 PUSH1 0x1F LT PUSH2 0x9A0 JUMPI PUSH2 0x100 DUP1 DUP4 SLOAD DIV MUL DUP4 MSTORE SWAP2 DUP3 ADD SWAP2 PUSH2 0x9C2 JUMP JUMPDEST DUP3 ADD SWAP2 SWAP1 PUSH1 0x0 MSTORE PUSH1 0x20 PUSH1 0x0 KECCAK256 SWAP1 JUMPDEST DUP2 SLOAD DUP2 MSTORE SWAP1 PUSH1 0x1 ADD SWAP1 PUSH1 0x20 ADD DUP1 DUP4 GT PUSH2 0x9AE JUMPI JUMPDEST POP POP PUSH1 0x40 DUP1 MLOAD SWAP2 DUP3 SWAP1 SUB DUP3 KECCAK256 PUSH20 0xFFFFFFFFFFFFFFFFFFFFFFFFFFFFFFFFFFFFFFFF DUP9 DUP2 AND DUP5 MSTORE PUSH1 0x20 DUP5 ADD DUP9 SWAP1 MSTORE DUP3 MLOAD SWAP2 SWAP6 POP DUP11 AND SWAP4 POP CALLER SWAP3 PUSH32 0x32A9EEB55EA56EB60BADFB6642D5B92BE35B6DA6F74892C12D0E14A50DFC2BAC SWAP3 SWAP1 DUP3 SWAP1 SUB ADD SWAP1 LOG4 POP POP POP POP POP JUMP JUMPDEST PUSH2 0xA33 CALLER PUSH2 0x2711 JUMP JUMPDEST DUP1 PUSH2 0xA41 JUMPI POP PUSH2 0xA41 PUSH2 0x20A3 JUMP JUMPDEST PUSH2 0xA96 JUMPI PUSH1 0x40 MLOAD PUSH32 0x8C379A000000000000000000000000000000000000000000000000000000000 DUP2 MSTORE PUSH1 0x4 ADD DUP1 DUP1 PUSH1 0x20 ADD DUP3 DUP2 SUB DUP3 MSTORE PUSH1 0x23 DUP2 MSTORE PUSH1 0x20 ADD DUP1 PUSH2 0x2989 PUSH1 0x23 SWAP2 CODECOPY PUSH1 0x40 ADD SWAP2 POP POP PUSH1 0x40 MLOAD DUP1 SWAP2 SUB SWAP1 REVERT JUMPDEST PUSH1 0x40 DUP1 MLOAD PUSH32 0xA457C2D700000000000000000000000000000000000000000000000000000000 DUP2 MSTORE PUSH20 0xFFFFFFFFFFFFFFFFFFFFFFFFFFFFFFFFFFFFFFFF DUP5 DUP2 AND PUSH1 0x4 DUP4 ADD MSTORE PUSH1 0x24 DUP3 ADD DUP5 SWAP1 MSTORE SWAP2 MLOAD DUP6 SWAP3 DUP4 AND SWAP2 PUSH4 0xA457C2D7 SWAP2 PUSH1 0x44 DUP1 DUP4 ADD SWAP3 PUSH1 0x0 SWAP3 SWAP2 SWAP1 DUP3 SWAP1 SUB ADD DUP2 DUP4 DUP8 DUP1 EXTCODESIZE ISZERO DUP1 ISZERO PUSH2 0xB0E JUMPI PUSH1 0x0 DUP1 REVERT JUMPDEST POP GAS CALL ISZERO DUP1 ISZERO PUSH2 0xB22 JUMPI RETURNDATASIZE PUSH1 0x0 DUP1 RETURNDATACOPY RETURNDATASIZE PUSH1 0x0 REVERT JUMPDEST POP POP POP POP PUSH1 0x1 PUSH1 0x16 ADD PUSH1 0x40 MLOAD DUP1 DUP3 DUP1 SLOAD PUSH1 0x1 DUP2 PUSH1 0x1 AND ISZERO PUSH2 0x100 MUL SUB AND PUSH1 0x2 SWAP1 DIV DUP1 ISZERO PUSH2 0xB86 JUMPI DUP1 PUSH1 0x1F LT PUSH2 0xB64 JUMPI PUSH2 0x100 DUP1 DUP4 SLOAD DIV MUL DUP4 MSTORE SWAP2 DUP3 ADD SWAP2 PUSH2 0xB86 JUMP JUMPDEST DUP3 ADD SWAP2 SWAP1 PUSH1 0x0 MSTORE PUSH1 0x20 PUSH1 0x0 KECCAK256 SWAP1 JUMPDEST DUP2 SLOAD DUP2 MSTORE SWAP1 PUSH1 0x1 ADD SWAP1 PUSH1 0x20 ADD DUP1 DUP4 GT PUSH2 0xB72 JUMPI JUMPDEST POP POP PUSH1 0x40 DUP1 MLOAD SWAP2 DUP3 SWAP1 SUB DUP3 KECCAK256 PUSH20 0xFFFFFFFFFFFFFFFFFFFFFFFFFFFFFFFFFFFFFFFF DUP9 DUP2 AND DUP5 MSTORE PUSH1 0x20 DUP5 ADD DUP9 SWAP1 MSTORE DUP3 MLOAD SWAP2 SWAP6 POP DUP10 AND SWAP4 POP CALLER SWAP3 PUSH32 0x32A9EEB55EA56EB60BADFB6642D5B92BE35B6DA6F74892C12D0E14A50DFC2BAC SWAP3 SWAP1 DUP3 SWAP1 SUB ADD SWAP1 LOG4 POP POP POP POP JUMP JUMPDEST PUSH1 0x1B DUP2 DUP2 SLOAD DUP2 LT PUSH2 0xBFA JUMPI INVALID JUMPDEST PUSH1 0x0 SWAP2 DUP3 MSTORE PUSH1 0x20 SWAP1 SWAP2 KECCAK256 ADD SLOAD PUSH20 0xFFFFFFFFFFFFFFFFFFFFFFFFFFFFFFFFFFFFFFFF AND SWAP1 POP DUP2 JUMP JUMPDEST PUSH2 0xC29 PUSH2 0x20A3 JUMP JUMPDEST PUSH2 0xC94 JUMPI PUSH1 0x40 DUP1 MLOAD PUSH32 0x8C379A000000000000000000000000000000000000000000000000000000000 DUP2 MSTORE PUSH1 0x20 PUSH1 0x4 DUP3 ADD DUP2 SWAP1 MSTORE PUSH1 0x24 DUP3 ADD MSTORE PUSH32 0x4F776E61626C653A2063616C6C6572206973206E6F7420746865206F776E6572 PUSH1 0x44 DUP3 ADD MSTORE SWAP1 MLOAD SWAP1 DUP2 SWAP1 SUB PUSH1 0x64 ADD SWAP1 REVERT JUMPDEST PUSH1 0x0 JUMPDEST PUSH1 0x1B SLOAD DUP2 LT ISZERO PUSH2 0xE07 JUMPI DUP2 PUSH20 0xFFFFFFFFFFFFFFFFFFFFFFFFFFFFFFFFFFFFFFFF AND PUSH1 0x1B DUP3 DUP2 SLOAD DUP2 LT PUSH2 0xCC5 JUMPI INVALID JUMPDEST PUSH1 0x0 SWAP2 DUP3 MSTORE PUSH1 0x20 SWAP1 SWAP2 KECCAK256 ADD SLOAD PUSH20 0xFFFFFFFFFFFFFFFFFFFFFFFFFFFFFFFFFFFFFFFF AND EQ ISZERO PUSH2 0xDFF JUMPI PUSH1 0x1B DUP2 DUP2 SLOAD DUP2 LT PUSH2 0xCFA JUMPI INVALID JUMPDEST PUSH1 0x0 SWAP2 DUP3 MSTORE PUSH1 0x20 SWAP1 SWAP2 KECCAK256 ADD SLOAD PUSH1 0x1B DUP1 SLOAD PUSH20 0xFFFFFFFFFFFFFFFFFFFFFFFFFFFFFFFFFFFFFFFF SWAP1 SWAP3 AND SWAP2 PUSH32 0xFFFFFFFFFFFFFFFFFFFFFFFFFFFFFFFFFFFFFFFFFFFFFFFFFFFFFFFFFFFFFFFF DUP2 ADD SWAP1 DUP2 LT PUSH2 0xD4F JUMPI INVALID JUMPDEST SWAP1 PUSH1 0x0 MSTORE PUSH1 0x20 PUSH1 0x0 KECCAK256 ADD PUSH1 0x0 PUSH2 0x100 EXP DUP2 SLOAD DUP2 PUSH20 0xFFFFFFFFFFFFFFFFFFFFFFFFFFFFFFFFFFFFFFFF MUL NOT AND SWAP1 DUP4 PUSH20 0xFFFFFFFFFFFFFFFFFFFFFFFFFFFFFFFFFFFFFFFF AND MUL OR SWAP1 SSTORE POP PUSH1 0x1B DUP1 SLOAD DUP1 PUSH2 0xDA2 JUMPI INVALID JUMPDEST PUSH1 0x0 DUP3 DUP2 MSTORE PUSH1 0x20 SWAP1 KECCAK256 DUP2 ADD PUSH32 0xFFFFFFFFFFFFFFFFFFFFFFFFFFFFFFFFFFFFFFFFFFFFFFFFFFFFFFFFFFFFFFFF SWAP1 DUP2 ADD DUP1 SLOAD PUSH32 0xFFFFFFFFFFFFFFFFFFFFFFFF0000000000000000000000000000000000000000 AND SWAP1 SSTORE ADD SWAP1 SSTORE PUSH2 0xE07 JUMP JUMPDEST PUSH1 0x1 ADD PUSH2 0xC97 JUMP JUMPDEST POP PUSH1 0x40 DUP1 MLOAD PUSH20 0xFFFFFFFFFFFFFFFFFFFFFFFFFFFFFFFFFFFFFFFF DUP4 AND DUP2 MSTORE TIMESTAMP PUSH1 0x20 DUP3 ADD MSTORE DUP2 MLOAD PUSH32 0xA0726C73CF6AD18DDB855BA65D1DDD4D7FD37D320F4E52F6B154C13D386F5FD9 SWAP3 SWAP2 DUP2 SWAP1 SUB SWAP1 SWAP2 ADD SWAP1 LOG1 POP JUMP JUMPDEST PUSH2 0xE64 CALLER PUSH2 0x2711 JUMP JUMPDEST DUP1 PUSH2 0xE72 JUMPI POP PUSH2 0xE72 PUSH2 0x20A3 JUMP JUMPDEST PUSH2 0xEC7 JUMPI PUSH1 0x40 MLOAD PUSH32 0x8C379A000000000000000000000000000000000000000000000000000000000 DUP2 MSTORE PUSH1 0x4 ADD DUP1 DUP1 PUSH1 0x20 ADD DUP3 DUP2 SUB DUP3 MSTORE PUSH1 0x23 DUP2 MSTORE PUSH1 0x20 ADD DUP1 PUSH2 0x2989 PUSH1 0x23 SWAP2 CODECOPY PUSH1 0x40 ADD SWAP2 POP POP PUSH1 0x40 MLOAD DUP1 SWAP2 SUB SWAP1 REVERT JUMPDEST PUSH1 0x0 DUP4 SWAP1 POP PUSH1 0x1 PUSH1 0x0 ADD PUSH1 0x40 MLOAD DUP1 DUP3 DUP1 SLOAD PUSH1 0x1 DUP2 PUSH1 0x1 AND ISZERO PUSH2 0x100 MUL SUB AND PUSH1 0x2 SWAP1 DIV DUP1 ISZERO PUSH2 0xF2C JUMPI DUP1 PUSH1 0x1F LT PUSH2 0xF0A JUMPI PUSH2 0x100 DUP1 DUP4 SLOAD DIV MUL DUP4 MSTORE SWAP2 DUP3 ADD SWAP2 PUSH2 0xF2C JUMP JUMPDEST DUP3 ADD SWAP2 SWAP1 PUSH1 0x0 MSTORE PUSH1 0x20 PUSH1 0x0 KECCAK256 SWAP1 JUMPDEST DUP2 SLOAD DUP2 MSTORE SWAP1 PUSH1 0x1 ADD SWAP1 PUSH1 0x20 ADD DUP1 DUP4 GT PUSH2 0xF18 JUMPI JUMPDEST POP POP PUSH1 0x40 DUP1 MLOAD SWAP2 DUP3 SWAP1 SUB DUP3 KECCAK256 PUSH20 0xFFFFFFFFFFFFFFFFFFFFFFFFFFFFFFFFFFFFFFFF DUP10 AND DUP1 DUP5 MSTORE PUSH1 0x20 DUP5 ADD DUP9 SWAP1 MSTORE DUP3 MLOAD SWAP2 SWAP6 POP SWAP4 POP CALLER SWAP3 PUSH32 0x32A9EEB55EA56EB60BADFB6642D5B92BE35B6DA6F74892C12D0E14A50DFC2BAC SWAP3 SWAP1 DUP3 SWAP1 SUB ADD SWAP1 LOG4 DUP1 PUSH20 0xFFFFFFFFFFFFFFFFFFFFFFFFFFFFFFFFFFFFFFFF AND PUSH4 0x95EA7B3 DUP5 DUP5 PUSH1 0x40 MLOAD DUP4 PUSH4 0xFFFFFFFF AND PUSH1 0xE0 SHL DUP2 MSTORE PUSH1 0x4 ADD DUP1 DUP4 PUSH20 0xFFFFFFFFFFFFFFFFFFFFFFFFFFFFFFFFFFFFFFFF AND PUSH20 0xFFFFFFFFFFFFFFFFFFFFFFFFFFFFFFFFFFFFFFFF AND DUP2 MSTORE PUSH1 0x20 ADD DUP3 DUP2 MSTORE PUSH1 0x20 ADD SWAP3 POP POP POP PUSH1 0x0 PUSH1 0x40 MLOAD DUP1 DUP4 SUB DUP2 PUSH1 0x0 DUP8 DUP1 EXTCODESIZE ISZERO DUP1 ISZERO PUSH2 0x1012 JUMPI PUSH1 0x0 DUP1 REVERT JUMPDEST POP GAS CALL ISZERO DUP1 ISZERO PUSH2 0x1026 JUMPI RETURNDATASIZE PUSH1 0x0 DUP1 RETURNDATACOPY RETURNDATASIZE PUSH1 0x0 REVERT JUMPDEST POP POP POP POP POP POP POP POP JUMP JUMPDEST PUSH2 0x1039 CALLER PUSH2 0x2711 JUMP JUMPDEST DUP1 PUSH2 0x1047 JUMPI POP PUSH2 0x1047 PUSH2 0x20A3 JUMP JUMPDEST PUSH2 0x109C JUMPI PUSH1 0x40 MLOAD PUSH32 0x8C379A000000000000000000000000000000000000000000000000000000000 DUP2 MSTORE PUSH1 0x4 ADD DUP1 DUP1 PUSH1 0x20 ADD DUP3 DUP2 SUB DUP3 MSTORE PUSH1 0x23 DUP2 MSTORE PUSH1 0x20 ADD DUP1 PUSH2 0x2989 PUSH1 0x23 SWAP2 CODECOPY PUSH1 0x40 ADD SWAP2 POP POP PUSH1 0x40 MLOAD DUP1 SWAP2 SUB SWAP1 REVERT JUMPDEST PUSH1 0x40 DUP1 MLOAD PUSH32 0xD73DD62300000000000000000000000000000000000000000000000000000000 DUP2 MSTORE PUSH20 0xFFFFFFFFFFFFFFFFFFFFFFFFFFFFFFFFFFFFFFFF DUP5 DUP2 AND PUSH1 0x4 DUP4 ADD MSTORE PUSH1 0x24 DUP3 ADD DUP5 SWAP1 MSTORE SWAP2 MLOAD DUP6 SWAP3 DUP4 AND SWAP2 PUSH4 0xD73DD623 SWAP2 PUSH1 0x44 DUP1 DUP4 ADD SWAP3 PUSH1 0x0 SWAP3 SWAP2 SWAP1 DUP3 SWAP1 SUB ADD DUP2 DUP4 DUP8 DUP1 EXTCODESIZE ISZERO DUP1 ISZERO PUSH2 0x1114 JUMPI PUSH1 0x0 DUP1 REVERT JUMPDEST POP GAS CALL ISZERO DUP1 ISZERO PUSH2 0x1128 JUMPI RETURNDATASIZE PUSH1 0x0 DUP1 RETURNDATACOPY RETURNDATASIZE PUSH1 0x0 REVERT JUMPDEST POP POP POP POP PUSH1 0x1 PUSH1 0x12 ADD PUSH1 0x40 MLOAD DUP1 DUP3 DUP1 SLOAD PUSH1 0x1 DUP2 PUSH1 0x1 AND ISZERO PUSH2 0x100 MUL SUB AND PUSH1 0x2 SWAP1 DIV DUP1 ISZERO PUSH2 0xB86 JUMPI DUP1 PUSH1 0x1F LT PUSH2 0xB64 JUMPI PUSH2 0x100 DUP1 DUP4 SLOAD DIV MUL DUP4 MSTORE SWAP2 DUP3 ADD SWAP2 PUSH2 0xB86 JUMP JUMPDEST PUSH1 0x60 PUSH1 0x1B DUP1 SLOAD DUP1 PUSH1 0x20 MUL PUSH1 0x20 ADD PUSH1 0x40 MLOAD SWAP1 DUP2 ADD PUSH1 0x40 MSTORE DUP1 SWAP3 SWAP2 SWAP1 DUP2 DUP2 MSTORE PUSH1 0x20 ADD DUP3 DUP1 SLOAD DUP1 ISZERO PUSH2 0x11CF JUMPI PUSH1 0x20 MUL DUP3 ADD SWAP2 SWAP1 PUSH1 0x0 MSTORE PUSH1 0x20 PUSH1 0x0 KECCAK256 SWAP1 JUMPDEST DUP2 SLOAD PUSH20 0xFFFFFFFFFFFFFFFFFFFFFFFFFFFFFFFFFFFFFFFF AND DUP2 MSTORE PUSH1 0x1 SWAP1 SWAP2 ADD SWAP1 PUSH1 0x20 ADD DUP1 DUP4 GT PUSH2 0x11A4 JUMPI JUMPDEST POP POP POP POP POP SWAP1 POP SWAP1 JUMP JUMPDEST PUSH2 0x11E2 CALLER PUSH2 0x2711 JUMP JUMPDEST DUP1 PUSH2 0x11F0 JUMPI POP PUSH2 0x11F0 PUSH2 0x20A3 JUMP JUMPDEST PUSH2 0x1245 JUMPI PUSH1 0x40 MLOAD PUSH32 0x8C379A000000000000000000000000000000000000000000000000000000000 DUP2 MSTORE PUSH1 0x4 ADD DUP1 DUP1 PUSH1 0x20 ADD DUP3 DUP2 SUB DUP3 MSTORE PUSH1 0x23 DUP2 MSTORE PUSH1 0x20 ADD DUP1 PUSH2 0x2989 PUSH1 0x23 SWAP2 CODECOPY PUSH1 0x40 ADD SWAP2 POP POP PUSH1 0x40 MLOAD DUP1 SWAP2 SUB SWAP1 REVERT JUMPDEST PUSH1 0x40 DUP1 MLOAD PUSH32 0xA9059CBB00000000000000000000000000000000000000000000000000000000 DUP2 MSTORE PUSH20 0xFFFFFFFFFFFFFFFFFFFFFFFFFFFFFFFFFFFFFFFF DUP5 DUP2 AND PUSH1 0x4 DUP4 ADD MSTORE PUSH1 0x24 DUP3 ADD DUP5 SWAP1 MSTORE SWAP2 MLOAD DUP6 SWAP3 DUP4 AND SWAP2 PUSH4 0xA9059CBB SWAP2 PUSH1 0x44 DUP1 DUP4 ADD SWAP3 PUSH1 0x20 SWAP3 SWAP2 SWAP1 DUP3 SWAP1 SUB ADD DUP2 PUSH1 0x0 DUP8 DUP1 EXTCODESIZE ISZERO DUP1 ISZERO PUSH2 0x12BE JUMPI PUSH1 0x0 DUP1 REVERT JUMPDEST POP GAS CALL ISZERO DUP1 ISZERO PUSH2 0x12D2 JUMPI RETURNDATASIZE PUSH1 0x0 DUP1 RETURNDATACOPY RETURNDATASIZE PUSH1 0x0 REVERT JUMPDEST POP POP POP POP PUSH1 0x40 MLOAD RETURNDATASIZE PUSH1 0x20 DUP2 LT ISZERO PUSH2 0x12E8 JUMPI PUSH1 0x0 DUP1 REVERT JUMPDEST POP POP PUSH1 0x40 MLOAD PUSH1 0x14 DUP1 SLOAD SWAP1 SWAP2 SWAP1 DUP2 SWAP1 DUP4 SWAP1 PUSH1 0x2 PUSH32 0xFFFFFFFFFFFFFFFFFFFFFFFFFFFFFFFFFFFFFFFFFFFFFFFFFFFFFFFFFFFFFFFF PUSH2 0x100 PUSH1 0x1 DUP5 AND ISZERO MUL ADD SWAP1 SWAP2 AND DIV DUP1 ISZERO PUSH2 0xB86 JUMPI DUP1 PUSH1 0x1F LT PUSH2 0xB64 JUMPI PUSH2 0x100 DUP1 DUP4 SLOAD DIV MUL DUP4 MSTORE SWAP2 DUP3 ADD SWAP2 PUSH2 0xB86 JUMP JUMPDEST PUSH2 0x1353 CALLER PUSH2 0x2711 JUMP JUMPDEST DUP1 PUSH2 0x1361 JUMPI POP PUSH2 0x1361 PUSH2 0x20A3 JUMP JUMPDEST PUSH2 0x13B6 JUMPI PUSH1 0x40 MLOAD PUSH32 0x8C379A000000000000000000000000000000000000000000000000000000000 DUP2 MSTORE PUSH1 0x4 ADD DUP1 DUP1 PUSH1 0x20 ADD DUP3 DUP2 SUB DUP3 MSTORE PUSH1 0x23 DUP2 MSTORE PUSH1 0x20 ADD DUP1 PUSH2 0x2989 PUSH1 0x23 SWAP2 CODECOPY PUSH1 0x40 ADD SWAP2 POP POP PUSH1 0x40 MLOAD DUP1 SWAP2 SUB SWAP1 REVERT JUMPDEST PUSH1 0x0 DUP3 SWAP1 POP PUSH1 0x60 DUP2 PUSH20 0xFFFFFFFFFFFFFFFFFFFFFFFFFFFFFFFFFFFFFFFF AND PUSH4 0xC87B56DD DUP5 PUSH1 0x40 MLOAD DUP3 PUSH4 0xFFFFFFFF AND PUSH1 0xE0 SHL DUP2 MSTORE PUSH1 0x4 ADD DUP1 DUP3 DUP2 MSTORE PUSH1 0x20 ADD SWAP2 POP POP PUSH1 0x0 PUSH1 0x40 MLOAD DUP1 DUP4 SUB DUP2 PUSH1 0x0 DUP8 DUP1 EXTCODESIZE ISZERO DUP1 ISZERO PUSH2 0x1410 JUMPI PUSH1 0x0 DUP1 REVERT JUMPDEST POP GAS CALL ISZERO DUP1 ISZERO PUSH2 0x1424 JUMPI RETURNDATASIZE PUSH1 0x0 DUP1 RETURNDATACOPY RETURNDATASIZE PUSH1 0x0 REVERT JUMPDEST POP POP POP POP PUSH1 0x40 MLOAD RETURNDATASIZE PUSH1 0x0 DUP3 RETURNDATACOPY PUSH1 0x1F RETURNDATASIZE SWAP1 DUP2 ADD PUSH32 0xFFFFFFFFFFFFFFFFFFFFFFFFFFFFFFFFFFFFFFFFFFFFFFFFFFFFFFFFFFFFFFE0 AND DUP3 ADD PUSH1 0x40 MSTORE PUSH1 0x20 DUP2 LT ISZERO PUSH2 0x146B JUMPI PUSH1 0x0 DUP1 REVERT JUMPDEST DUP2 ADD SWAP1 DUP1 DUP1 MLOAD PUSH1 0x40 MLOAD SWAP4 SWAP3 SWAP2 SWAP1 DUP5 PUSH5 0x100000000 DUP3 GT ISZERO PUSH2 0x148B JUMPI PUSH1 0x0 DUP1 REVERT JUMPDEST SWAP1 DUP4 ADD SWAP1 PUSH1 0x20 DUP3 ADD DUP6 DUP2 GT ISZERO PUSH2 0x14A0 JUMPI PUSH1 0x0 DUP1 REVERT JUMPDEST DUP3 MLOAD PUSH5 0x100000000 DUP2 GT DUP3 DUP3 ADD DUP9 LT OR ISZERO PUSH2 0x14BA JUMPI PUSH1 0x0 DUP1 REVERT JUMPDEST DUP3 MSTORE POP DUP2 MLOAD PUSH1 0x20 SWAP2 DUP3 ADD SWAP3 SWAP1 SWAP2 ADD SWAP1 DUP1 DUP4 DUP4 PUSH1 0x0 JUMPDEST DUP4 DUP2 LT ISZERO PUSH2 0x14E7 JUMPI DUP2 DUP2 ADD MLOAD DUP4 DUP3 ADD MSTORE PUSH1 0x20 ADD PUSH2 0x14CF JUMP JUMPDEST POP POP POP POP SWAP1 POP SWAP1 DUP2 ADD SWAP1 PUSH1 0x1F AND DUP1 ISZERO PUSH2 0x1514 JUMPI DUP1 DUP3 SUB DUP1 MLOAD PUSH1 0x1 DUP4 PUSH1 0x20 SUB PUSH2 0x100 EXP SUB NOT AND DUP2 MSTORE PUSH1 0x20 ADD SWAP2 POP JUMPDEST POP PUSH1 0x40 DUP2 DUP2 MSTORE PUSH32 0x81812FC00000000000000000000000000000000000000000000000000000000 DUP3 MSTORE PUSH1 0x4 DUP3 ADD DUP10 SWAP1 MSTORE MLOAD SWAP5 SWAP6 POP ADDRESS SWAP5 PUSH20 0xFFFFFFFFFFFFFFFFFFFFFFFFFFFFFFFFFFFFFFFF DUP9 AND SWAP5 POP PUSH4 0x81812FC SWAP4 POP PUSH1 0x24 DUP1 DUP4 ADD SWAP4 POP PUSH1 0x20 SWAP3 DUP3 SWAP1 SUB ADD DUP2 PUSH1 0x0 DUP8 DUP1 EXTCODESIZE ISZERO DUP1 ISZERO PUSH2 0x158A JUMPI PUSH1 0x0 DUP1 REVERT JUMPDEST POP GAS CALL ISZERO DUP1 ISZERO PUSH2 0x159E JUMPI RETURNDATASIZE PUSH1 0x0 DUP1 RETURNDATACOPY RETURNDATASIZE PUSH1 0x0 REVERT JUMPDEST POP POP POP POP PUSH1 0x40 MLOAD RETURNDATASIZE PUSH1 0x20 DUP2 LT ISZERO PUSH2 0x15B4 JUMPI PUSH1 0x0 DUP1 REVERT JUMPDEST POP MLOAD PUSH20 0xFFFFFFFFFFFFFFFFFFFFFFFFFFFFFFFFFFFFFFFF AND EQ PUSH2 0x1638 JUMPI PUSH1 0x40 DUP1 MLOAD PUSH32 0x8C379A000000000000000000000000000000000000000000000000000000000 DUP2 MSTORE PUSH1 0x20 PUSH1 0x4 DUP3 ADD MSTORE PUSH1 0x1B PUSH1 0x24 DUP3 ADD MSTORE PUSH32 0x546F6B656E206E6F74206170706F726F766520666F72206275726E0000000000 PUSH1 0x44 DUP3 ADD MSTORE SWAP1 MLOAD SWAP1 DUP2 SWAP1 SUB PUSH1 0x64 ADD SWAP1 REVERT JUMPDEST DUP2 PUSH20 0xFFFFFFFFFFFFFFFFFFFFFFFFFFFFFFFFFFFFFFFF AND PUSH4 0x42966C68 DUP5 PUSH1 0x40 MLOAD DUP3 PUSH4 0xFFFFFFFF AND PUSH1 0xE0 SHL DUP2 MSTORE PUSH1 0x4 ADD DUP1 DUP3 DUP2 MSTORE PUSH1 0x20 ADD SWAP2 POP POP PUSH1 0x0 PUSH1 0x40 MLOAD DUP1 DUP4 SUB DUP2 PUSH1 0x0 DUP8 DUP1 EXTCODESIZE ISZERO DUP1 ISZERO PUSH2 0x168B JUMPI PUSH1 0x0 DUP1 REVERT JUMPDEST POP GAS CALL ISZERO DUP1 ISZERO PUSH2 0x169F JUMPI RETURNDATASIZE PUSH1 0x0 DUP1 RETURNDATACOPY RETURNDATASIZE PUSH1 0x0 REVERT JUMPDEST POP POP POP POP CALLER PUSH20 0xFFFFFFFFFFFFFFFFFFFFFFFFFFFFFFFFFFFFFFFF AND DUP4 DUP6 PUSH20 0xFFFFFFFFFFFFFFFFFFFFFFFFFFFFFFFFFFFFFFFF AND PUSH32 0x926B248E45DFDD4C4CAEC216E73EC503CE2522D3B5646C861D1B074210675D0E TIMESTAMP DUP6 PUSH1 0x40 MLOAD DUP1 DUP4 DUP2 MSTORE PUSH1 0x20 ADD DUP1 PUSH1 0x20 ADD DUP3 DUP2 SUB DUP3 MSTORE DUP4 DUP2 DUP2 MLOAD DUP2 MSTORE PUSH1 0x20 ADD SWAP2 POP DUP1 MLOAD SWAP1 PUSH1 0x20 ADD SWAP1 DUP1 DUP4 DUP4 PUSH1 0x0 JUMPDEST DUP4 DUP2 LT ISZERO PUSH2 0x1738 JUMPI DUP2 DUP2 ADD MLOAD DUP4 DUP3 ADD MSTORE PUSH1 0x20 ADD PUSH2 0x1720 JUMP JUMPDEST POP POP POP POP SWAP1 POP SWAP1 DUP2 ADD SWAP1 PUSH1 0x1F AND DUP1 ISZERO PUSH2 0x1765 JUMPI DUP1 DUP3 SUB DUP1 MLOAD PUSH1 0x1 DUP4 PUSH1 0x20 SUB PUSH2 0x100 EXP SUB NOT AND DUP2 MSTORE PUSH1 0x20 ADD SWAP2 POP JUMPDEST POP SWAP4 POP POP POP POP PUSH1 0x40 MLOAD DUP1 SWAP2 SUB SWAP1 LOG4 POP POP POP POP JUMP JUMPDEST PUSH2 0x1782 CALLER PUSH2 0x2711 JUMP JUMPDEST DUP1 PUSH2 0x1790 JUMPI POP PUSH2 0x1790 PUSH2 0x20A3 JUMP JUMPDEST PUSH2 0x17E5 JUMPI PUSH1 0x40 MLOAD PUSH32 0x8C379A000000000000000000000000000000000000000000000000000000000 DUP2 MSTORE PUSH1 0x4 ADD DUP1 DUP1 PUSH1 0x20 ADD DUP3 DUP2 SUB DUP3 MSTORE PUSH1 0x23 DUP2 MSTORE PUSH1 0x20 ADD DUP1 PUSH2 0x2989 PUSH1 0x23 SWAP2 CODECOPY PUSH1 0x40 ADD SWAP2 POP POP PUSH1 0x40 MLOAD DUP1 SWAP2 SUB SWAP1 REVERT JUMPDEST PUSH1 0x0 DUP3 SWAP1 POP PUSH1 0x1 PUSH1 0x2 ADD PUSH1 0x40 MLOAD DUP1 DUP3 DUP1 SLOAD PUSH1 0x1 DUP2 PUSH1 0x1 AND ISZERO PUSH2 0x100 MUL SUB AND PUSH1 0x2 SWAP1 DIV DUP1 ISZERO PUSH2 0x184A JUMPI DUP1 PUSH1 0x1F LT PUSH2 0x1828 JUMPI PUSH2 0x100 DUP1 DUP4 SLOAD DIV MUL DUP4 MSTORE SWAP2 DUP3 ADD SWAP2 PUSH2 0x184A JUMP JUMPDEST DUP3 ADD SWAP2 SWAP1 PUSH1 0x0 MSTORE PUSH1 0x20 PUSH1 0x0 KECCAK256 SWAP1 JUMPDEST DUP2 SLOAD DUP2 MSTORE SWAP1 PUSH1 0x1 ADD SWAP1 PUSH1 0x20 ADD DUP1 DUP4 GT PUSH2 0x1836 JUMPI JUMPDEST POP POP PUSH1 0x40 DUP1 MLOAD SWAP2 DUP3 SWAP1 SUB DUP3 KECCAK256 PUSH20 0xFFFFFFFFFFFFFFFFFFFFFFFFFFFFFFFFFFFFFFFF DUP9 AND DUP1 DUP5 MSTORE PUSH1 0x20 DUP5 ADD DUP9 SWAP1 MSTORE DUP3 MLOAD SWAP2 SWAP6 POP SWAP4 POP CALLER SWAP3 PUSH32 0x32A9EEB55EA56EB60BADFB6642D5B92BE35B6DA6F74892C12D0E14A50DFC2BAC SWAP3 SWAP1 DUP3 SWAP1 SUB ADD SWAP1 LOG4 DUP1 PUSH20 0xFFFFFFFFFFFFFFFFFFFFFFFFFFFFFFFFFFFFFFFF AND PUSH4 0x42966C68 DUP4 PUSH1 0x40 MLOAD DUP3 PUSH4 0xFFFFFFFF AND PUSH1 0xE0 SHL DUP2 MSTORE PUSH1 0x4 ADD DUP1 DUP3 DUP2 MSTORE PUSH1 0x20 ADD SWAP2 POP POP PUSH1 0x0 PUSH1 0x40 MLOAD DUP1 DUP4 SUB DUP2 PUSH1 0x0 DUP8 DUP1 EXTCODESIZE ISZERO DUP1 ISZERO PUSH2 0x18FC JUMPI PUSH1 0x0 DUP1 REVERT JUMPDEST POP GAS CALL ISZERO DUP1 ISZERO PUSH2 0x1910 JUMPI RETURNDATASIZE PUSH1 0x0 DUP1 RETURNDATACOPY RETURNDATASIZE PUSH1 0x0 REVERT JUMPDEST POP POP POP POP POP POP POP JUMP JUMPDEST PUSH2 0x1922 CALLER PUSH2 0x2711 JUMP JUMPDEST DUP1 PUSH2 0x1930 JUMPI POP PUSH2 0x1930 PUSH2 0x20A3 JUMP JUMPDEST PUSH2 0x1985 JUMPI PUSH1 0x40 MLOAD PUSH32 0x8C379A000000000000000000000000000000000000000000000000000000000 DUP2 MSTORE PUSH1 0x4 ADD DUP1 DUP1 PUSH1 0x20 ADD DUP3 DUP2 SUB DUP3 MSTORE PUSH1 0x23 DUP2 MSTORE PUSH1 0x20 ADD DUP1 PUSH2 0x2989 PUSH1 0x23 SWAP2 CODECOPY PUSH1 0x40 ADD SWAP2 POP POP PUSH1 0x40 MLOAD DUP1 SWAP2 SUB SWAP1 REVERT JUMPDEST PUSH1 0x0 DUP6 SWAP1 POP PUSH1 0x1 PUSH1 0x4 ADD PUSH1 0x40 MLOAD DUP1 DUP3 DUP1 SLOAD PUSH1 0x1 DUP2 PUSH1 0x1 AND ISZERO PUSH2 0x100 MUL SUB AND PUSH1 0x2 SWAP1 DIV DUP1 ISZERO PUSH2 0x19EA JUMPI DUP1 PUSH1 0x1F LT PUSH2 0x19C8 JUMPI PUSH2 0x100 DUP1 DUP4 SLOAD DIV MUL DUP4 MSTORE SWAP2 DUP3 ADD SWAP2 PUSH2 0x19EA JUMP JUMPDEST DUP3 ADD SWAP2 SWAP1 PUSH1 0x0 MSTORE PUSH1 0x20 PUSH1 0x0 KECCAK256 SWAP1 JUMPDEST DUP2 SLOAD DUP2 MSTORE SWAP1 PUSH1 0x1 ADD SWAP1 PUSH1 0x20 ADD DUP1 DUP4 GT PUSH2 0x19D6 JUMPI JUMPDEST POP POP PUSH1 0x40 DUP1 MLOAD SWAP2 DUP3 SWAP1 SUB DUP3 KECCAK256 PUSH20 0xFFFFFFFFFFFFFFFFFFFFFFFFFFFFFFFFFFFFFFFF DUP12 AND DUP1 DUP5 MSTORE PUSH1 0x20 DUP5 ADD DUP10 SWAP1 MSTORE DUP3 MLOAD SWAP2 SWAP6 POP SWAP4 POP CALLER SWAP3 PUSH32 0x32A9EEB55EA56EB60BADFB6642D5B92BE35B6DA6F74892C12D0E14A50DFC2BAC SWAP3 SWAP1 DUP3 SWAP1 SUB ADD SWAP1 LOG4 PUSH1 0x40 MLOAD PUSH32 0xB88D4FDE00000000000000000000000000000000000000000000000000000000 DUP2 MSTORE PUSH20 0xFFFFFFFFFFFFFFFFFFFFFFFFFFFFFFFFFFFFFFFF DUP7 DUP2 AND PUSH1 0x4 DUP4 ADD SWAP1 DUP2 MSTORE DUP7 DUP3 AND PUSH1 0x24 DUP5 ADD MSTORE PUSH1 0x44 DUP4 ADD DUP7 SWAP1 MSTORE PUSH1 0x80 PUSH1 0x64 DUP5 ADD SWAP1 DUP2 MSTORE DUP6 MLOAD PUSH1 0x84 DUP6 ADD MSTORE DUP6 MLOAD SWAP3 DUP6 AND SWAP4 PUSH4 0xB88D4FDE SWAP4 DUP11 SWAP4 DUP11 SWAP4 DUP11 SWAP4 DUP11 SWAP4 PUSH1 0xA4 SWAP1 SWAP2 ADD SWAP1 PUSH1 0x20 DUP6 ADD SWAP1 DUP1 DUP4 DUP4 PUSH1 0x0 JUMPDEST DUP4 DUP2 LT ISZERO PUSH2 0x1AEA JUMPI DUP2 DUP2 ADD MLOAD DUP4 DUP3 ADD MSTORE PUSH1 0x20 ADD PUSH2 0x1AD2 JUMP JUMPDEST POP POP POP POP SWAP1 POP SWAP1 DUP2 ADD SWAP1 PUSH1 0x1F AND DUP1 ISZERO PUSH2 0x1B17 JUMPI DUP1 DUP3 SUB DUP1 MLOAD PUSH1 0x1 DUP4 PUSH1 0x20 SUB PUSH2 0x100 EXP SUB NOT AND DUP2 MSTORE PUSH1 0x20 ADD SWAP2 POP JUMPDEST POP SWAP6 POP POP POP POP POP POP PUSH1 0x0 PUSH1 0x40 MLOAD DUP1 DUP4 SUB DUP2 PUSH1 0x0 DUP8 DUP1 EXTCODESIZE ISZERO DUP1 ISZERO PUSH2 0x1B39 JUMPI PUSH1 0x0 DUP1 REVERT JUMPDEST POP GAS CALL ISZERO DUP1 ISZERO PUSH2 0x1B4D JUMPI RETURNDATASIZE PUSH1 0x0 DUP1 RETURNDATACOPY RETURNDATASIZE PUSH1 0x0 REVERT JUMPDEST POP POP POP POP POP POP POP POP POP POP JUMP JUMPDEST PUSH2 0x1B62 CALLER PUSH2 0x2711 JUMP JUMPDEST DUP1 PUSH2 0x1B70 JUMPI POP PUSH2 0x1B70 PUSH2 0x20A3 JUMP JUMPDEST PUSH2 0x1BC5 JUMPI PUSH1 0x40 MLOAD PUSH32 0x8C379A000000000000000000000000000000000000000000000000000000000 DUP2 MSTORE PUSH1 0x4 ADD DUP1 DUP1 PUSH1 0x20 ADD DUP3 DUP2 SUB DUP3 MSTORE PUSH1 0x23 DUP2 MSTORE PUSH1 0x20 ADD DUP1 PUSH2 0x2989 PUSH1 0x23 SWAP2 CODECOPY PUSH1 0x40 ADD SWAP2 POP POP PUSH1 0x40 MLOAD DUP1 SWAP2 SUB SWAP1 REVERT JUMPDEST PUSH1 0x0 DUP5 SWAP1 POP PUSH1 0x1 PUSH1 0x4 ADD PUSH1 0x40 MLOAD DUP1 DUP3 DUP1 SLOAD PUSH1 0x1 DUP2 PUSH1 0x1 AND ISZERO PUSH2 0x100 MUL SUB AND PUSH1 0x2 SWAP1 DIV DUP1 ISZERO PUSH2 0x1C2A JUMPI DUP1 PUSH1 0x1F LT PUSH2 0x1C08 JUMPI PUSH2 0x100 DUP1 DUP4 SLOAD DIV MUL DUP4 MSTORE SWAP2 DUP3 ADD SWAP2 PUSH2 0x1C2A JUMP JUMPDEST DUP3 ADD SWAP2 SWAP1 PUSH1 0x0 MSTORE PUSH1 0x20 PUSH1 0x0 KECCAK256 SWAP1 JUMPDEST DUP2 SLOAD DUP2 MSTORE SWAP1 PUSH1 0x1 ADD SWAP1 PUSH1 0x20 ADD DUP1 DUP4 GT PUSH2 0x1C16 JUMPI JUMPDEST POP POP PUSH1 0x40 DUP1 MLOAD SWAP2 DUP3 SWAP1 SUB DUP3 KECCAK256 PUSH20 0xFFFFFFFFFFFFFFFFFFFFFFFFFFFFFFFFFFFFFFFF DUP11 AND DUP1 DUP5 MSTORE PUSH1 0x20 DUP5 ADD DUP9 SWAP1 MSTORE DUP3 MLOAD SWAP2 SWAP6 POP SWAP4 POP CALLER SWAP3 PUSH32 0x32A9EEB55EA56EB60BADFB6642D5B92BE35B6DA6F74892C12D0E14A50DFC2BAC SWAP3 SWAP1 DUP3 SWAP1 SUB ADD SWAP1 LOG4 PUSH1 0x40 DUP1 MLOAD PUSH32 0x42842E0E00000000000000000000000000000000000000000000000000000000 DUP2 MSTORE PUSH20 0xFFFFFFFFFFFFFFFFFFFFFFFFFFFFFFFFFFFFFFFF DUP7 DUP2 AND PUSH1 0x4 DUP4 ADD MSTORE DUP6 DUP2 AND PUSH1 0x24 DUP4 ADD MSTORE PUSH1 0x44 DUP3 ADD DUP6 SWAP1 MSTORE SWAP2 MLOAD SWAP2 DUP4 AND SWAP2 PUSH4 0x42842E0E SWAP2 PUSH1 0x64 DUP1 DUP3 ADD SWAP3 PUSH1 0x0 SWAP3 SWAP1 SWAP2 SWAP1 DUP3 SWAP1 SUB ADD DUP2 DUP4 DUP8 DUP1 EXTCODESIZE ISZERO DUP1 ISZERO PUSH2 0x1D09 JUMPI PUSH1 0x0 DUP1 REVERT JUMPDEST POP GAS CALL ISZERO DUP1 ISZERO PUSH2 0x1D1D JUMPI RETURNDATASIZE PUSH1 0x0 DUP1 RETURNDATACOPY RETURNDATASIZE PUSH1 0x0 REVERT JUMPDEST POP POP POP POP POP POP POP POP POP JUMP JUMPDEST PUSH2 0x1D30 PUSH2 0x20A3 JUMP JUMPDEST PUSH2 0x1D9B JUMPI PUSH1 0x40 DUP1 MLOAD PUSH32 0x8C379A000000000000000000000000000000000000000000000000000000000 DUP2 MSTORE PUSH1 0x20 PUSH1 0x4 DUP3 ADD DUP2 SWAP1 MSTORE PUSH1 0x24 DUP3 ADD MSTORE PUSH32 0x4F776E61626C653A2063616C6C6572206973206E6F7420746865206F776E6572 PUSH1 0x44 DUP3 ADD MSTORE SWAP1 MLOAD SWAP1 DUP2 SWAP1 SUB PUSH1 0x64 ADD SWAP1 REVERT JUMPDEST PUSH2 0x1DA4 DUP2 PUSH2 0x2711 JUMP JUMPDEST PUSH2 0x1E1D JUMPI PUSH1 0x1B DUP1 SLOAD PUSH1 0x1 DUP2 ADD DUP3 SSTORE PUSH1 0x0 SWAP2 SWAP1 SWAP2 MSTORE PUSH32 0x3AD8AA4F87544323A9D1E5DD902F40C356527A7955687113DB5F9A85AD579DC1 ADD DUP1 SLOAD PUSH32 0xFFFFFFFFFFFFFFFFFFFFFFFF0000000000000000000000000000000000000000 AND PUSH20 0xFFFFFFFFFFFFFFFFFFFFFFFFFFFFFFFFFFFFFFFF DUP4 AND OR SWAP1 SSTORE PUSH2 0x1E84 JUMP JUMPDEST PUSH1 0x40 DUP1 MLOAD PUSH32 0x8C379A000000000000000000000000000000000000000000000000000000000 DUP2 MSTORE PUSH1 0x20 PUSH1 0x4 DUP3 ADD MSTORE PUSH1 0x15 PUSH1 0x24 DUP3 ADD MSTORE PUSH32 0x61646D696E20616C726561647920696E206C6973740000000000000000000000 PUSH1 0x44 DUP3 ADD MSTORE SWAP1 MLOAD SWAP1 DUP2 SWAP1 SUB PUSH1 0x64 ADD SWAP1 REVERT JUMPDEST PUSH1 0x40 DUP1 MLOAD PUSH20 0xFFFFFFFFFFFFFFFFFFFFFFFFFFFFFFFFFFFFFFFF DUP4 AND DUP2 MSTORE TIMESTAMP PUSH1 0x20 DUP3 ADD MSTORE DUP2 MLOAD PUSH32 0x723C2B747529CA7F5EB53A74808F4A8B9BF264F0FC450FD904900151DA74548A SWAP3 SWAP2 DUP2 SWAP1 SUB SWAP1 SWAP2 ADD SWAP1 LOG1 POP JUMP JUMPDEST PUSH2 0x1EE0 CALLER PUSH2 0x2711 JUMP JUMPDEST DUP1 PUSH2 0x1EEE JUMPI POP PUSH2 0x1EEE PUSH2 0x20A3 JUMP JUMPDEST PUSH2 0x1F43 JUMPI PUSH1 0x40 MLOAD PUSH32 0x8C379A000000000000000000000000000000000000000000000000000000000 DUP2 MSTORE PUSH1 0x4 ADD DUP1 DUP1 PUSH1 0x20 ADD DUP3 DUP2 SUB DUP3 MSTORE PUSH1 0x23 DUP2 MSTORE PUSH1 0x20 ADD DUP1 PUSH2 0x2989 PUSH1 0x23 SWAP2 CODECOPY PUSH1 0x40 ADD SWAP2 POP POP PUSH1 0x40 MLOAD DUP1 SWAP2 SUB SWAP1 REVERT JUMPDEST PUSH1 0x0 DUP5 SWAP1 POP PUSH1 0x1 PUSH1 0x5 ADD PUSH1 0x40 MLOAD DUP1 DUP3 DUP1 SLOAD PUSH1 0x1 DUP2 PUSH1 0x1 AND ISZERO PUSH2 0x100 MUL SUB AND PUSH1 0x2 SWAP1 DIV DUP1 ISZERO PUSH2 0x1FA8 JUMPI DUP1 PUSH1 0x1F LT PUSH2 0x1F86 JUMPI PUSH2 0x100 DUP1 DUP4 SLOAD DIV MUL DUP4 MSTORE SWAP2 DUP3 ADD SWAP2 PUSH2 0x1FA8 JUMP JUMPDEST DUP3 ADD SWAP2 SWAP1 PUSH1 0x0 MSTORE PUSH1 0x20 PUSH1 0x0 KECCAK256 SWAP1 JUMPDEST DUP2 SLOAD DUP2 MSTORE SWAP1 PUSH1 0x1 ADD SWAP1 PUSH1 0x20 ADD DUP1 DUP4 GT PUSH2 0x1F94 JUMPI JUMPDEST POP POP PUSH1 0x40 DUP1 MLOAD SWAP2 DUP3 SWAP1 SUB DUP3 KECCAK256 PUSH20 0xFFFFFFFFFFFFFFFFFFFFFFFFFFFFFFFFFFFFFFFF DUP11 AND DUP1 DUP5 MSTORE PUSH1 0x20 DUP5 ADD DUP9 SWAP1 MSTORE DUP3 MLOAD SWAP2 SWAP6 POP SWAP4 POP CALLER SWAP3 PUSH32 0x32A9EEB55EA56EB60BADFB6642D5B92BE35B6DA6F74892C12D0E14A50DFC2BAC SWAP3 SWAP1 DUP3 SWAP1 SUB ADD SWAP1 LOG4 PUSH1 0x40 DUP1 MLOAD PUSH32 0x23B872DD00000000000000000000000000000000000000000000000000000000 DUP2 MSTORE PUSH20 0xFFFFFFFFFFFFFFFFFFFFFFFFFFFFFFFFFFFFFFFF DUP7 DUP2 AND PUSH1 0x4 DUP4 ADD MSTORE DUP6 DUP2 AND PUSH1 0x24 DUP4 ADD MSTORE PUSH1 0x44 DUP3 ADD DUP6 SWAP1 MSTORE SWAP2 MLOAD SWAP2 DUP4 AND SWAP2 PUSH4 0x23B872DD SWAP2 PUSH1 0x64 DUP1 DUP3 ADD SWAP3 PUSH1 0x0 SWAP3 SWAP1 SWAP2 SWAP1 DUP3 SWAP1 SUB ADD DUP2 DUP4 DUP8 DUP1 EXTCODESIZE ISZERO DUP1 ISZERO PUSH2 0x1D09 JUMPI PUSH1 0x0 DUP1 REVERT JUMPDEST PUSH1 0x0 SLOAD PUSH20 0xFFFFFFFFFFFFFFFFFFFFFFFFFFFFFFFFFFFFFFFF AND SWAP1 JUMP JUMPDEST PUSH1 0x0 SLOAD PUSH20 0xFFFFFFFFFFFFFFFFFFFFFFFFFFFFFFFFFFFFFFFF AND CALLER EQ SWAP1 JUMP JUMPDEST PUSH2 0x20CA CALLER PUSH2 0x2711 JUMP JUMPDEST DUP1 PUSH2 0x20D8 JUMPI POP PUSH2 0x20D8 PUSH2 0x20A3 JUMP JUMPDEST PUSH2 0x212D JUMPI PUSH1 0x40 MLOAD PUSH32 0x8C379A000000000000000000000000000000000000000000000000000000000 DUP2 MSTORE PUSH1 0x4 ADD DUP1 DUP1 PUSH1 0x20 ADD DUP3 DUP2 SUB DUP3 MSTORE PUSH1 0x23 DUP2 MSTORE PUSH1 0x20 ADD DUP1 PUSH2 0x2989 PUSH1 0x23 SWAP2 CODECOPY PUSH1 0x40 ADD SWAP2 POP POP PUSH1 0x40 MLOAD DUP1 SWAP2 SUB SWAP1 REVERT JUMPDEST PUSH1 0x40 DUP1 MLOAD PUSH32 0x3950935100000000000000000000000000000000000000000000000000000000 DUP2 MSTORE PUSH20 0xFFFFFFFFFFFFFFFFFFFFFFFFFFFFFFFFFFFFFFFF DUP5 DUP2 AND PUSH1 0x4 DUP4 ADD MSTORE PUSH1 0x24 DUP3 ADD DUP5 SWAP1 MSTORE SWAP2 MLOAD DUP6 SWAP3 DUP4 AND SWAP2 PUSH4 0x39509351 SWAP2 PUSH1 0x44 DUP1 DUP4 ADD SWAP3 PUSH1 0x0 SWAP3 SWAP2 SWAP1 DUP3 SWAP1 SUB ADD DUP2 DUP4 DUP8 DUP1 EXTCODESIZE ISZERO DUP1 ISZERO PUSH2 0x21A5 JUMPI PUSH1 0x0 DUP1 REVERT JUMPDEST POP GAS CALL ISZERO DUP1 ISZERO PUSH2 0x21B9 JUMPI RETURNDATASIZE PUSH1 0x0 DUP1 RETURNDATACOPY RETURNDATASIZE PUSH1 0x0 REVERT JUMPDEST POP POP POP POP PUSH1 0x1 PUSH1 0x15 ADD PUSH1 0x40 MLOAD DUP1 DUP3 DUP1 SLOAD PUSH1 0x1 DUP2 PUSH1 0x1 AND ISZERO PUSH2 0x100 MUL SUB AND PUSH1 0x2 SWAP1 DIV DUP1 ISZERO PUSH2 0xB86 JUMPI DUP1 PUSH1 0x1F LT PUSH2 0xB64 JUMPI PUSH2 0x100 DUP1 DUP4 SLOAD DIV MUL DUP4 MSTORE SWAP2 DUP3 ADD SWAP2 PUSH2 0xB86 JUMP JUMPDEST PUSH2 0x2204 CALLER PUSH2 0x2711 JUMP JUMPDEST DUP1 PUSH2 0x2212 JUMPI POP PUSH2 0x2212 PUSH2 0x20A3 JUMP JUMPDEST PUSH2 0x2267 JUMPI PUSH1 0x40 MLOAD PUSH32 0x8C379A000000000000000000000000000000000000000000000000000000000 DUP2 MSTORE PUSH1 0x4 ADD DUP1 DUP1 PUSH1 0x20 ADD DUP3 DUP2 SUB DUP3 MSTORE PUSH1 0x23 DUP2 MSTORE PUSH1 0x20 ADD DUP1 PUSH2 0x2989 PUSH1 0x23 SWAP2 CODECOPY PUSH1 0x40 ADD SWAP2 POP POP PUSH1 0x40 MLOAD DUP1 SWAP2 SUB SWAP1 REVERT JUMPDEST PUSH1 0x40 DUP1 MLOAD PUSH32 0x95EA7B300000000000000000000000000000000000000000000000000000000 DUP2 MSTORE PUSH20 0xFFFFFFFFFFFFFFFFFFFFFFFFFFFFFFFFFFFFFFFF DUP5 DUP2 AND PUSH1 0x4 DUP4 ADD MSTORE PUSH1 0x24 DUP3 ADD DUP5 SWAP1 MSTORE SWAP2 MLOAD DUP6 SWAP3 DUP4 AND SWAP2 PUSH4 0x95EA7B3 SWAP2 PUSH1 0x44 DUP1 DUP4 ADD SWAP3 PUSH1 0x0 SWAP3 SWAP2 SWAP1 DUP3 SWAP1 SUB ADD DUP2 DUP4 DUP8 DUP1 EXTCODESIZE ISZERO DUP1 ISZERO PUSH2 0x22DF JUMPI PUSH1 0x0 DUP1 REVERT JUMPDEST POP GAS CALL ISZERO DUP1 ISZERO PUSH2 0x22F3 JUMPI RETURNDATASIZE PUSH1 0x0 DUP1 RETURNDATACOPY RETURNDATASIZE PUSH1 0x0 REVERT JUMPDEST POP POP POP POP PUSH1 0x1 PUSH1 0x10 ADD PUSH1 0x40 MLOAD DUP1 DUP3 DUP1 SLOAD PUSH1 0x1 DUP2 PUSH1 0x1 AND ISZERO PUSH2 0x100 MUL SUB AND PUSH1 0x2 SWAP1 DIV DUP1 ISZERO PUSH2 0xB86 JUMPI DUP1 PUSH1 0x1F LT PUSH2 0xB64 JUMPI PUSH2 0x100 DUP1 DUP4 SLOAD DIV MUL DUP4 MSTORE SWAP2 DUP3 ADD SWAP2 PUSH2 0xB86 JUMP JUMPDEST PUSH2 0x233E CALLER PUSH2 0x2711 JUMP JUMPDEST DUP1 PUSH2 0x234C JUMPI POP PUSH2 0x234C PUSH2 0x20A3 JUMP JUMPDEST PUSH2 0x23A1 JUMPI PUSH1 0x40 MLOAD PUSH32 0x8C379A000000000000000000000000000000000000000000000000000000000 DUP2 MSTORE PUSH1 0x4 ADD DUP1 DUP1 PUSH1 0x20 ADD DUP3 DUP2 SUB DUP3 MSTORE PUSH1 0x23 DUP2 MSTORE PUSH1 0x20 ADD DUP1 PUSH2 0x2989 PUSH1 0x23 SWAP2 CODECOPY PUSH1 0x40 ADD SWAP2 POP POP PUSH1 0x40 MLOAD DUP1 SWAP2 SUB SWAP1 REVERT JUMPDEST PUSH1 0x40 MLOAD PUSH1 0x2 DUP1 SLOAD DUP6 SWAP3 SWAP1 DUP2 SWAP1 DUP4 SWAP1 PUSH32 0xFFFFFFFFFFFFFFFFFFFFFFFFFFFFFFFFFFFFFFFFFFFFFFFFFFFFFFFFFFFFFFFF PUSH2 0x100 PUSH1 0x1 DUP4 AND ISZERO MUL ADD AND DUP2 SWAP1 DIV DUP1 ISZERO PUSH2 0x2421 JUMPI DUP1 PUSH1 0x1F LT PUSH2 0x23FF JUMPI PUSH2 0x100 DUP1 DUP4 SLOAD DIV MUL DUP4 MSTORE SWAP2 DUP3 ADD SWAP2 PUSH2 0x2421 JUMP JUMPDEST DUP3 ADD SWAP2 SWAP1 PUSH1 0x0 MSTORE PUSH1 0x20 PUSH1 0x0 KECCAK256 SWAP1 JUMPDEST DUP2 SLOAD DUP2 MSTORE SWAP1 PUSH1 0x1 ADD SWAP1 PUSH1 0x20 ADD DUP1 DUP4 GT PUSH2 0x240D JUMPI JUMPDEST POP POP PUSH1 0x40 DUP1 MLOAD SWAP2 DUP3 SWAP1 SUB DUP3 KECCAK256 PUSH20 0xFFFFFFFFFFFFFFFFFFFFFFFFFFFFFFFFFFFFFFFF DUP10 AND DUP1 DUP5 MSTORE PUSH1 0x20 DUP5 ADD DUP9 SWAP1 MSTORE DUP3 MLOAD SWAP2 SWAP6 POP SWAP4 POP CALLER SWAP3 PUSH32 0x32A9EEB55EA56EB60BADFB6642D5B92BE35B6DA6F74892C12D0E14A50DFC2BAC SWAP3 SWAP1 DUP3 SWAP1 SUB ADD SWAP1 LOG4 DUP1 PUSH20 0xFFFFFFFFFFFFFFFFFFFFFFFFFFFFFFFFFFFFFFFF AND PUSH4 0xA9059CBB DUP5 DUP5 PUSH1 0x40 MLOAD DUP4 PUSH4 0xFFFFFFFF AND PUSH1 0xE0 SHL DUP2 MSTORE PUSH1 0x4 ADD DUP1 DUP4 PUSH20 0xFFFFFFFFFFFFFFFFFFFFFFFFFFFFFFFFFFFFFFFF AND PUSH20 0xFFFFFFFFFFFFFFFFFFFFFFFFFFFFFFFFFFFFFFFF AND DUP2 MSTORE PUSH1 0x20 ADD DUP3 DUP2 MSTORE PUSH1 0x20 ADD SWAP3 POP POP POP PUSH1 0x0 PUSH1 0x40 MLOAD DUP1 DUP4 SUB DUP2 PUSH1 0x0 DUP8 DUP1 EXTCODESIZE ISZERO DUP1 ISZERO PUSH2 0x1012 JUMPI PUSH1 0x0 DUP1 REVERT JUMPDEST PUSH2 0x2510 CALLER PUSH2 0x2711 JUMP JUMPDEST DUP1 PUSH2 0x251E JUMPI POP PUSH2 0x251E PUSH2 0x20A3 JUMP JUMPDEST PUSH2 0x2573 JUMPI PUSH1 0x40 MLOAD PUSH32 0x8C379A000000000000000000000000000000000000000000000000000000000 DUP2 MSTORE PUSH1 0x4 ADD DUP1 DUP1 PUSH1 0x20 ADD DUP3 DUP2 SUB DUP3 MSTORE PUSH1 0x23 DUP2 MSTORE PUSH1 0x20 ADD DUP1 PUSH2 0x2989 PUSH1 0x23 SWAP2 CODECOPY PUSH1 0x40 ADD SWAP2 POP POP PUSH1 0x40 MLOAD DUP1 SWAP2 SUB SWAP1 REVERT JUMPDEST PUSH1 0x40 DUP1 MLOAD PUSH32 0x6618846300000000000000000000000000000000000000000000000000000000 DUP2 MSTORE PUSH20 0xFFFFFFFFFFFFFFFFFFFFFFFFFFFFFFFFFFFFFFFF DUP5 DUP2 AND PUSH1 0x4 DUP4 ADD MSTORE PUSH1 0x24 DUP3 ADD DUP5 SWAP1 MSTORE SWAP2 MLOAD DUP6 SWAP3 DUP4 AND SWAP2 PUSH4 0x66188463 SWAP2 PUSH1 0x44 DUP1 DUP4 ADD SWAP3 PUSH1 0x0 SWAP3 SWAP2 SWAP1 DUP3 SWAP1 SUB ADD DUP2 DUP4 DUP8 DUP1 EXTCODESIZE ISZERO DUP1 ISZERO PUSH2 0xB0E JUMPI PUSH1 0x0 DUP1 REVERT JUMPDEST PUSH2 0x25F3 PUSH2 0x20A3 JUMP JUMPDEST PUSH2 0x265E JUMPI PUSH1 0x40 DUP1 MLOAD PUSH32 0x8C379A000000000000000000000000000000000000000000000000000000000 DUP2 MSTORE PUSH1 0x20 PUSH1 0x4 DUP3 ADD DUP2 SWAP1 MSTORE PUSH1 0x24 DUP3 ADD MSTORE PUSH32 0x4F776E61626C653A2063616C6C6572206973206E6F7420746865206F776E6572 PUSH1 0x44 DUP3 ADD MSTORE SWAP1 MLOAD SWAP1 DUP2 SWAP1 SUB PUSH1 0x64 ADD SWAP1 REVERT JUMPDEST PUSH20 0xFFFFFFFFFFFFFFFFFFFFFFFFFFFFFFFFFFFFFFFF DUP2 AND PUSH2 0x26CA JUMPI PUSH1 0x40 MLOAD PUSH32 0x8C379A000000000000000000000000000000000000000000000000000000000 DUP2 MSTORE PUSH1 0x4 ADD DUP1 DUP1 PUSH1 0x20 ADD DUP3 DUP2 SUB DUP3 MSTORE PUSH1 0x26 DUP2 MSTORE PUSH1 0x20 ADD DUP1 PUSH2 0x2963 PUSH1 0x26 SWAP2 CODECOPY PUSH1 0x40 ADD SWAP2 POP POP PUSH1 0x40 MLOAD DUP1 SWAP2 SUB SWAP1 REVERT JUMPDEST PUSH1 0x0 DUP1 SLOAD PUSH32 0xFFFFFFFFFFFFFFFFFFFFFFFF0000000000000000000000000000000000000000 AND PUSH20 0xFFFFFFFFFFFFFFFFFFFFFFFFFFFFFFFFFFFFFFFF SWAP3 SWAP1 SWAP3 AND SWAP2 SWAP1 SWAP2 OR SWAP1 SSTORE JUMP JUMPDEST PUSH1 0x0 DUP1 JUMPDEST PUSH1 0x1B SLOAD DUP2 LT ISZERO PUSH2 0x276A JUMPI PUSH1 0x1B DUP2 DUP2 SLOAD DUP2 LT PUSH2 0x272C JUMPI INVALID JUMPDEST PUSH1 0x0 SWAP2 DUP3 MSTORE PUSH1 0x20 SWAP1 SWAP2 KECCAK256 ADD SLOAD PUSH20 0xFFFFFFFFFFFFFFFFFFFFFFFFFFFFFFFFFFFFFFFF DUP5 DUP2 AND SWAP2 AND EQ ISZERO PUSH2 0x2762 JUMPI PUSH1 0x1 SWAP2 POP POP PUSH2 0x2770 JUMP JUMPDEST PUSH1 0x1 ADD PUSH2 0x2715 JUMP JUMPDEST POP PUSH1 0x0 SWAP1 POP JUMPDEST SWAP2 SWAP1 POP JUMP JUMPDEST PUSH2 0x277E CALLER PUSH2 0x2711 JUMP JUMPDEST DUP1 PUSH2 0x278C JUMPI POP PUSH2 0x278C PUSH2 0x20A3 JUMP JUMPDEST PUSH2 0x27E1 JUMPI PUSH1 0x40 MLOAD PUSH32 0x8C379A000000000000000000000000000000000000000000000000000000000 DUP2 MSTORE PUSH1 0x4 ADD DUP1 DUP1 PUSH1 0x20 ADD DUP3 DUP2 SUB DUP3 MSTORE PUSH1 0x23 DUP2 MSTORE PUSH1 0x20 ADD DUP1 PUSH2 0x2989 PUSH1 0x23 SWAP2 CODECOPY PUSH1 0x40 ADD SWAP2 POP POP PUSH1 0x40 MLOAD DUP1 SWAP2 SUB SWAP1 REVERT JUMPDEST PUSH1 0x0 DUP4 SWAP1 POP PUSH1 0x1 PUSH1 0x3 ADD PUSH1 0x40 MLOAD DUP1 DUP3 DUP1 SLOAD PUSH1 0x1 DUP2 PUSH1 0x1 AND ISZERO PUSH2 0x100 MUL SUB AND PUSH1 0x2 SWAP1 DIV DUP1 ISZERO PUSH2 0x2846 JUMPI DUP1 PUSH1 0x1F LT PUSH2 0x2824 JUMPI PUSH2 0x100 DUP1 DUP4 SLOAD DIV MUL DUP4 MSTORE SWAP2 DUP3 ADD SWAP2 PUSH2 0x2846 JUMP JUMPDEST DUP3 ADD SWAP2 SWAP1 PUSH1 0x0 MSTORE PUSH1 0x20 PUSH1 0x0 KECCAK256 SWAP1 JUMPDEST DUP2 SLOAD DUP2 MSTORE SWAP1 PUSH1 0x1 ADD SWAP1 PUSH1 0x20 ADD DUP1 DUP4 GT PUSH2 0x2832 JUMPI JUMPDEST POP POP PUSH1 0x40 DUP1 MLOAD SWAP2 DUP3 SWAP1 SUB DUP3 KECCAK256 PUSH20 0xFFFFFFFFFFFFFFFFFFFFFFFFFFFFFFFFFFFFFFFF DUP10 AND DUP1 DUP5 MSTORE PUSH1 0x0 PUSH1 0x20 DUP6 ADD MSTORE DUP3 MLOAD SWAP2 SWAP6 POP SWAP4 POP CALLER SWAP3 PUSH32 0x32A9EEB55EA56EB60BADFB6642D5B92BE35B6DA6F74892C12D0E14A50DFC2BAC SWAP3 SWAP1 DUP3 SWAP1 SUB ADD SWAP1 LOG4 DUP1 PUSH20 0xFFFFFFFFFFFFFFFFFFFFFFFFFFFFFFFFFFFFFFFF AND PUSH4 0x56B01CE DUP5 DUP5 PUSH1 0x40 MLOAD DUP4 PUSH4 0xFFFFFFFF AND PUSH1 0xE0 SHL DUP2 MSTORE PUSH1 0x4 ADD DUP1 DUP1 PUSH1 0x20 ADD DUP4 DUP2 MSTORE PUSH1 0x20 ADD DUP3 DUP2 SUB DUP3 MSTORE DUP5 DUP2 DUP2 MLOAD DUP2 MSTORE PUSH1 0x20 ADD SWAP2 POP DUP1 MLOAD SWAP1 PUSH1 0x20 ADD SWAP1 DUP1 DUP4 DUP4 PUSH1 0x0 JUMPDEST DUP4 DUP2 LT ISZERO PUSH2 0x2915 JUMPI DUP2 DUP2 ADD MLOAD DUP4 DUP3 ADD MSTORE PUSH1 0x20 ADD PUSH2 0x28FD JUMP JUMPDEST POP POP POP POP SWAP1 POP SWAP1 DUP2 ADD SWAP1 PUSH1 0x1F AND DUP1 ISZERO PUSH2 0x2942 JUMPI DUP1 DUP3 SUB DUP1 MLOAD PUSH1 0x1 DUP4 PUSH1 0x20 SUB PUSH2 0x100 EXP SUB NOT AND DUP2 MSTORE PUSH1 0x20 ADD SWAP2 POP JUMPDEST POP SWAP4 POP POP POP POP PUSH1 0x0 PUSH1 0x40 MLOAD DUP1 DUP4 SUB DUP2 PUSH1 0x0 DUP8 DUP1 EXTCODESIZE ISZERO DUP1 ISZERO PUSH2 0x1012 JUMPI PUSH1 0x0 DUP1 REVERT INVALID 0x4F PUSH24 0x6E61626C653A206E6577206F776E65722069732074686520 PUSH27 0x65726F206164647265737341646D696E4D616E616765723A206164 PUSH14 0x696E20616E64206F776E6572206F PUSH15 0x6C792EA265627A7A723158203DA1D8 MSTORE CALLDATASIZE 0xAC 0x2F 0xB7 LOG2 SHR 0xA5 0xDA PUSH19 0x4B23CD2F31271A3EA8CC1FF904C28EB4E11E0B PUSH5 0x736F6C6343 STOP SDIV GT STOP ORIGIN "
				},
				"gasEstimates": {
					"creation": {
						"codeDepositCost": "2144000",
						"executionCost": "infinite",
						"totalCost": "infinite"
					},
					"external": {
						"addAdmin(address)": "infinite",
						"adminExist(address)": "infinite",
						"admins(uint256)": "1992",
						"burnNFT(address,uint256)": "infinite",
						"erc20Approve(address,address,uint256)": "infinite",
						"erc20DecreaseAllowance(address,address,uint256)": "infinite",
						"erc20DecreaseApproval(address,address,uint256)": "infinite",
						"erc20IncreaseAllowance(address,address,uint256)": "infinite",
						"erc20IncreaseApproval(address,address,uint256)": "infinite",
						"erc20Transfer(address,address,uint256)": "infinite",
						"erc20TransferFrom(address,address,address,uint256)": "infinite",
						"erc721Approve(address,address,uint256)": "infinite",
						"erc721Burn(address,uint256)": "infinite",
						"erc721Mint(address,string,uint256)": "infinite",
						"erc721SafeTransferFrom(address,address,address,uint256)": "infinite",
						"erc721SafeTransferFrom(address,address,address,uint256,bytes)": "infinite",
						"erc721Transfer(address,address,uint256)": "infinite",
						"erc721TransferFrom(address,address,address,uint256)": "infinite",
						"getAdmins()": "infinite",
						"isOwner()": "1082",
						"owner()": "1058",
						"removeAdmin(address)": "infinite",
						"transferOwnership(address)": "infinite"
					}
				},
				"methodIdentifiers": {
					"addAdmin(address)": "70480275",
					"adminExist(address)": "fba08d45",
					"admins(uint256)": "14bfd6d0",
					"burnNFT(address,uint256)": "47fcf018",
					"erc20Approve(address,address,uint256)": "ace561a8",
					"erc20DecreaseAllowance(address,address,uint256)": "0c82ea1a",
					"erc20DecreaseApproval(address,address,uint256)": "c347f69b",
					"erc20IncreaseAllowance(address,address,uint256)": "9dc6b78d",
					"erc20IncreaseApproval(address,address,uint256)": "1afffec0",
					"erc20Transfer(address,address,uint256)": "3790767d",
					"erc20TransferFrom(address,address,address,uint256)": "0a1b0b91",
					"erc721Approve(address,address,uint256)": "18fa0653",
					"erc721Burn(address,uint256)": "485f952e",
					"erc721Mint(address,string,uint256)": "fddea900",
					"erc721SafeTransferFrom(address,address,address,uint256)": "4a0aafda",
					"erc721SafeTransferFrom(address,address,address,uint256,bytes)": "488b0f7d",
					"erc721Transfer(address,address,uint256)": "b6011b4c",
					"erc721TransferFrom(address,address,address,uint256)": "8450ebe4",
					"getAdmins()": "31ae450b",
					"isOwner()": "8f32d59b",
					"owner()": "8da5cb5b",
					"removeAdmin(address)": "1785f53c",
					"transferOwnership(address)": "f2fde38b"
				}
			},
			"storageLayout": {
				"storage": [
					{
						"astId": 1721,
						"contract": "Admin.sol:Admin",
						"label": "_owner",
						"offset": 0,
						"slot": "0",
						"type": "t_address"
					},
					{
						"astId": 203,
						"contract": "Admin.sol:Admin",
						"label": "functionNames",
						"offset": 0,
						"slot": "1",
						"type": "t_struct(FunctionNames)173_storage"
					},
					{
						"astId": 206,
						"contract": "Admin.sol:Admin",
						"label": "admins",
						"offset": 0,
						"slot": "27",
						"type": "t_array(t_address)dyn_storage"
					}
				],
				"types": {
					"t_address": {
						"encoding": "inplace",
						"label": "address",
						"numberOfBytes": "20"
					},
					"t_array(t_address)dyn_storage": {
						"base": "t_address",
						"encoding": "dynamic_array",
						"label": "address[]",
						"numberOfBytes": "32"
					},
					"t_string_storage": {
						"encoding": "bytes",
						"label": "string",
						"numberOfBytes": "32"
					},
					"t_struct(FunctionNames)173_storage": {
						"encoding": "inplace",
						"label": "struct Admin.FunctionNames",
						"members": [
							{
								"astId": 122,
								"contract": "Admin.sol:Admin",
								"label": "approve",
								"offset": 0,
								"slot": "0",
								"type": "t_string_storage"
							},
							{
								"astId": 124,
								"contract": "Admin.sol:Admin",
								"label": "transfer",
								"offset": 0,
								"slot": "1",
								"type": "t_string_storage"
							},
							{
								"astId": 126,
								"contract": "Admin.sol:Admin",
								"label": "burn",
								"offset": 0,
								"slot": "2",
								"type": "t_string_storage"
							},
							{
								"astId": 128,
								"contract": "Admin.sol:Admin",
								"label": "mint",
								"offset": 0,
								"slot": "3",
								"type": "t_string_storage"
							},
							{
								"astId": 130,
								"contract": "Admin.sol:Admin",
								"label": "safeTransferFrom",
								"offset": 0,
								"slot": "4",
								"type": "t_string_storage"
							},
							{
								"astId": 132,
								"contract": "Admin.sol:Admin",
								"label": "transferFrom",
								"offset": 0,
								"slot": "5",
								"type": "t_string_storage"
							},
							{
								"astId": 134,
								"contract": "Admin.sol:Admin",
								"label": "putOnSale",
								"offset": 0,
								"slot": "6",
								"type": "t_string_storage"
							},
							{
								"astId": 136,
								"contract": "Admin.sol:Admin",
								"label": "buy",
								"offset": 0,
								"slot": "7",
								"type": "t_string_storage"
							},
							{
								"astId": 138,
								"contract": "Admin.sol:Admin",
								"label": "bid",
								"offset": 0,
								"slot": "8",
								"type": "t_string_storage"
							},
							{
								"astId": 140,
								"contract": "Admin.sol:Admin",
								"label": "collect",
								"offset": 0,
								"slot": "9",
								"type": "t_string_storage"
							},
							{
								"astId": 142,
								"contract": "Admin.sol:Admin",
								"label": "updatePrice",
								"offset": 0,
								"slot": "10",
								"type": "t_string_storage"
							},
							{
								"astId": 144,
								"contract": "Admin.sol:Admin",
								"label": "putSaleOff",
								"offset": 0,
								"slot": "11",
								"type": "t_string_storage"
							},
							{
								"astId": 146,
								"contract": "Admin.sol:Admin",
								"label": "makeAnOffer",
								"offset": 0,
								"slot": "12",
								"type": "t_string_storage"
							},
							{
								"astId": 148,
								"contract": "Admin.sol:Admin",
								"label": "accpetOffer",
								"offset": 0,
								"slot": "13",
								"type": "t_string_storage"
							},
							{
								"astId": 150,
								"contract": "Admin.sol:Admin",
								"label": "revertOffer",
								"offset": 0,
								"slot": "14",
								"type": "t_string_storage"
							},
							{
								"astId": 152,
								"contract": "Admin.sol:Admin",
								"label": "revertAll",
								"offset": 0,
								"slot": "15",
								"type": "t_string_storage"
							},
							{
								"astId": 154,
								"contract": "Admin.sol:Admin",
								"label": "erc20Approve",
								"offset": 0,
								"slot": "16",
								"type": "t_string_storage"
							},
							{
								"astId": 156,
								"contract": "Admin.sol:Admin",
								"label": "erc20DecreaseApproval",
								"offset": 0,
								"slot": "17",
								"type": "t_string_storage"
							},
							{
								"astId": 158,
								"contract": "Admin.sol:Admin",
								"label": "erc20IncreaseApproval",
								"offset": 0,
								"slot": "18",
								"type": "t_string_storage"
							},
							{
								"astId": 160,
								"contract": "Admin.sol:Admin",
								"label": "erc20Transfer",
								"offset": 0,
								"slot": "19",
								"type": "t_string_storage"
							},
							{
								"astId": 162,
								"contract": "Admin.sol:Admin",
								"label": "erc20TransferFrom",
								"offset": 0,
								"slot": "20",
								"type": "t_string_storage"
							},
							{
								"astId": 164,
								"contract": "Admin.sol:Admin",
								"label": "erc20IncreaseAllowance",
								"offset": 0,
								"slot": "21",
								"type": "t_string_storage"
							},
							{
								"astId": 166,
								"contract": "Admin.sol:Admin",
								"label": "erc20DecreaseAllowance",
								"offset": 0,
								"slot": "22",
								"type": "t_string_storage"
							},
							{
								"astId": 168,
								"contract": "Admin.sol:Admin",
								"label": "batchListing",
								"offset": 0,
								"slot": "23",
								"type": "t_string_storage"
							},
							{
								"astId": 170,
								"contract": "Admin.sol:Admin",
								"label": "batchDelisting",
								"offset": 0,
								"slot": "24",
								"type": "t_string_storage"
							},
							{
								"astId": 172,
								"contract": "Admin.sol:Admin",
								"label": "setAddress",
								"offset": 0,
								"slot": "25",
								"type": "t_string_storage"
							}
						],
						"numberOfBytes": "832"
					}
				}
			},
			"userdoc": {
				"methods": {}
			}
		}
	}
}