{
	"Storage.sol": {
		"Storage": {
			"abi": [
				{
					"constant": true,
					"inputs": [],
					"name": "LPStakeAddress",
					"outputs": [
						{
							"internalType": "address",
							"name": "",
							"type": "address"
						}
					],
					"payable": false,
					"stateMutability": "view",
					"type": "function"
				},
				{
					"constant": true,
					"inputs": [],
					"name": "StakeAddress",
					"outputs": [
						{
							"internalType": "address",
							"name": "",
							"type": "address"
						}
					],
					"payable": false,
					"stateMutability": "view",
					"type": "function"
				},
				{
					"constant": true,
					"inputs": [],
					"name": "WETHAddress",
					"outputs": [
						{
							"internalType": "address",
							"name": "",
							"type": "address"
						}
					],
					"payable": false,
					"stateMutability": "view",
					"type": "function"
				},
				{
					"constant": true,
					"inputs": [
						{
							"internalType": "address",
							"name": "",
							"type": "address"
						},
						{
							"internalType": "uint256",
							"name": "",
							"type": "uint256"
						}
					],
					"name": "auctions",
					"outputs": [
						{
							"internalType": "address payable",
							"name": "lastOwner",
							"type": "address"
						},
						{
							"internalType": "uint256",
							"name": "currentBid",
							"type": "uint256"
						},
						{
							"internalType": "address payable",
							"name": "highestBidder",
							"type": "address"
						},
						{
							"internalType": "uint256",
							"name": "auctionType",
							"type": "uint256"
						},
						{
							"internalType": "uint256",
							"name": "startingPrice",
							"type": "uint256"
						},
						{
							"internalType": "uint256",
							"name": "buyPrice",
							"type": "uint256"
						},
						{
							"internalType": "bool",
							"name": "buyer",
							"type": "bool"
						},
						{
							"internalType": "uint256",
							"name": "startingTime",
							"type": "uint256"
						},
						{
							"internalType": "uint256",
							"name": "closingTime",
							"type": "uint256"
						},
						{
							"internalType": "address",
							"name": "erc20Token",
							"type": "address"
						}
					],
					"payable": false,
					"stateMutability": "view",
					"type": "function"
				},
				{
					"constant": true,
					"inputs": [],
					"name": "getAuctionTokensForSale",
					"outputs": [
						{
							"components": [
								{
									"internalType": "address",
									"name": "NFTAddress",
									"type": "address"
								},
								{
									"internalType": "uint256",
									"name": "tokenID",
									"type": "uint256"
								}
							],
							"internalType": "struct TokenDetArrayLib.TokenDet[]",
							"name": "",
							"type": "tuple[]"
						}
					],
					"payable": false,
					"stateMutability": "view",
					"type": "function"
				},
				{
					"constant": true,
					"inputs": [],
					"name": "getErc20Tokens",
					"outputs": [
						{
							"components": [
								{
									"internalType": "address[]",
									"name": "array",
									"type": "address[]"
								}
							],
							"internalType": "struct ERC20Addresses.erc20Addresses",
							"name": "",
							"type": "tuple"
						}
					],
					"payable": false,
					"stateMutability": "view",
					"type": "function"
				},
				{
					"constant": true,
					"inputs": [],
					"name": "getFixedPriceTokensForSale",
					"outputs": [
						{
							"components": [
								{
									"internalType": "address",
									"name": "NFTAddress",
									"type": "address"
								},
								{
									"internalType": "uint256",
									"name": "tokenID",
									"type": "uint256"
								}
							],
							"internalType": "struct TokenDetArrayLib.TokenDet[]",
							"name": "",
							"type": "tuple[]"
						}
					],
					"payable": false,
					"stateMutability": "view",
					"type": "function"
				},
				{
					"constant": true,
					"inputs": [],
					"name": "getTokensForSale",
					"outputs": [
						{
							"components": [
								{
									"internalType": "address",
									"name": "NFTAddress",
									"type": "address"
								},
								{
									"internalType": "uint256",
									"name": "tokenID",
									"type": "uint256"
								}
							],
							"internalType": "struct TokenDetArrayLib.TokenDet[]",
							"name": "",
							"type": "tuple[]"
						}
					],
					"payable": false,
					"stateMutability": "view",
					"type": "function"
				},
				{
					"constant": true,
					"inputs": [
						{
							"internalType": "address",
							"name": "_user",
							"type": "address"
						}
					],
					"name": "getTokensForSalePerUser",
					"outputs": [
						{
							"components": [
								{
									"internalType": "address",
									"name": "NFTAddress",
									"type": "address"
								},
								{
									"internalType": "uint256",
									"name": "tokenID",
									"type": "uint256"
								}
							],
							"internalType": "struct TokenDetArrayLib.TokenDet[]",
							"name": "",
							"type": "tuple[]"
						}
					],
					"payable": false,
					"stateMutability": "view",
					"type": "function"
				},
				{
					"constant": true,
					"inputs": [],
					"name": "isOwner",
					"outputs": [
						{
							"internalType": "bool",
							"name": "",
							"type": "bool"
						}
					],
					"payable": false,
					"stateMutability": "view",
					"type": "function"
				},
				{
					"constant": true,
					"inputs": [],
					"name": "lpStakefeepercentage",
					"outputs": [
						{
							"internalType": "uint16",
							"name": "",
							"type": "uint16"
						}
					],
					"payable": false,
					"stateMutability": "view",
					"type": "function"
				},
				{
					"constant": true,
					"inputs": [
						{
							"internalType": "address",
							"name": "",
							"type": "address"
						},
						{
							"internalType": "uint256",
							"name": "",
							"type": "uint256"
						},
						{
							"internalType": "address",
							"name": "",
							"type": "address"
						}
					],
					"name": "offerprice",
					"outputs": [
						{
							"internalType": "address",
							"name": "offerer",
							"type": "address"
						},
						{
							"internalType": "uint256",
							"name": "amount",
							"type": "uint256"
						}
					],
					"payable": false,
					"stateMutability": "view",
					"type": "function"
				},
				{
					"constant": true,
					"inputs": [],
					"name": "owner",
					"outputs": [
						{
							"internalType": "address",
							"name": "",
							"type": "address"
						}
					],
					"payable": false,
					"stateMutability": "view",
					"type": "function"
				},
				{
					"constant": true,
					"inputs": [],
					"name": "platFormFeePercentage",
					"outputs": [
						{
							"internalType": "uint16",
							"name": "",
							"type": "uint16"
						}
					],
					"payable": false,
					"stateMutability": "view",
					"type": "function"
				},
				{
					"constant": true,
					"inputs": [],
					"name": "rewardDistributionPercentage",
					"outputs": [
						{
							"internalType": "uint16",
							"name": "",
							"type": "uint16"
						}
					],
					"payable": false,
					"stateMutability": "view",
					"type": "function"
				},
				{
					"constant": false,
					"inputs": [
						{
							"internalType": "address",
							"name": "_weth",
							"type": "address"
						},
						{
							"internalType": "address",
							"name": "_rewardDistributionAddress",
							"type": "address"
						}
					],
					"name": "setAddress",
					"outputs": [],
					"payable": false,
					"stateMutability": "nonpayable",
					"type": "function"
				},
				{
					"constant": false,
					"inputs": [
						{
							"internalType": "address",
							"name": "_rewardDistributionAddress",
							"type": "address"
						},
						{
							"internalType": "address",
							"name": "_lpStakeAddress",
							"type": "address"
						},
						{
							"internalType": "uint16",
							"name": "_lpStakefeepercentage",
							"type": "uint16"
						},
						{
							"internalType": "uint16",
							"name": "_rewardDistributionPercentage",
							"type": "uint16"
						},
						{
							"internalType": "uint16",
							"name": "_platFormFeePercentage",
							"type": "uint16"
						}
					],
					"name": "setBrokerage",
					"outputs": [],
					"payable": false,
					"stateMutability": "nonpayable",
					"type": "function"
				},
				{
					"constant": false,
					"inputs": [
						{
							"internalType": "uint256",
							"name": "_updateTime",
							"type": "uint256"
						}
					],
					"name": "setUpdatedClosingTime",
					"outputs": [],
					"payable": false,
					"stateMutability": "nonpayable",
					"type": "function"
				},
				{
					"constant": false,
					"inputs": [
						{
							"internalType": "address",
							"name": "newOwner",
							"type": "address"
						}
					],
					"name": "transferOwnership",
					"outputs": [],
					"payable": false,
					"stateMutability": "nonpayable",
					"type": "function"
				},
				{
					"constant": true,
					"inputs": [],
					"name": "updateClosingTime",
					"outputs": [
						{
							"internalType": "uint256",
							"name": "",
							"type": "uint256"
						}
					],
					"payable": false,
					"stateMutability": "view",
					"type": "function"
				}
			],
			"devdoc": {
				"methods": {
					"isOwner()": {
						"details": "Returns true if the caller is the current owner."
					},
					"owner()": {
						"details": "Returns the address of the current owner."
					},
					"transferOwnership(address)": {
						"details": "Transfers ownership of the contract to a new account (`newOwner`). Can only be called by the current owner."
					}
				}
			},
			"evm": {
				"assembly": "    /* \"Storage.sol\":2498:6649  contract Storage is Ownable {... */\n  mstore(0x40, 0x80)\n    /* \"ownable.sol\":715:725  msg.sender */\n  caller\n    /* \"ownable.sol\":706:712  _owner */\n  0x00\n  dup1\n    /* \"ownable.sol\":706:725  _owner = msg.sender */\n  0x0100\n  exp\n  dup2\n  sload\n  dup2\n  0xffffffffffffffffffffffffffffffffffffffff\n  mul\n  not\n  and\n  swap1\n  dup4\n  0xffffffffffffffffffffffffffffffffffffffff\n  and\n  mul\n  or\n  swap1\n  sstore\n  pop\n    /* \"Storage.sol\":2498:6649  contract Storage is Ownable {... */\n  dataSize(sub_0)\n  dup1\n  dataOffset(sub_0)\n  0x00\n  codecopy\n  0x00\n  return\nstop\n\nsub_0: assembly {\n        /* \"Storage.sol\":2498:6649  contract Storage is Ownable {... */\n      mstore(0x40, 0x80)\n      callvalue\n        /* \"--CODEGEN--\":8:17   */\n      dup1\n        /* \"--CODEGEN--\":5:7   */\n      iszero\n      tag_1\n      jumpi\n        /* \"--CODEGEN--\":30:31   */\n      0x00\n        /* \"--CODEGEN--\":27:28   */\n      dup1\n        /* \"--CODEGEN--\":20:32   */\n      revert\n        /* \"--CODEGEN--\":5:7   */\n    tag_1:\n        /* \"Storage.sol\":2498:6649  contract Storage is Ownable {... */\n      pop\n      jumpi(tag_2, lt(calldatasize, 0x04))\n      shr(0xe0, calldataload(0x00))\n      dup1\n      0xc1a8bdbc\n      gt\n      tag_23\n      jumpi\n      dup1\n      0xf09856f3\n      gt\n      tag_24\n      jumpi\n      dup1\n      0xf09856f3\n      eq\n      tag_18\n      jumpi\n      dup1\n      0xf26f8494\n      eq\n      tag_19\n      jumpi\n      dup1\n      0xf2fde38b\n      eq\n      tag_20\n      jumpi\n      dup1\n      0xf5a0c9b8\n      eq\n      tag_21\n      jumpi\n      dup1\n      0xf7f17488\n      eq\n      tag_22\n      jumpi\n      jump(tag_2)\n    tag_24:\n      dup1\n      0xc1a8bdbc\n      eq\n      tag_13\n      jumpi\n      dup1\n      0xc52ea52e\n      eq\n      tag_14\n      jumpi\n      dup1\n      0xd2abc517\n      eq\n      tag_15\n      jumpi\n      dup1\n      0xd3c9080a\n      eq\n      tag_16\n      jumpi\n      dup1\n      0xd4739cca\n      eq\n      tag_17\n      jumpi\n      jump(tag_2)\n    tag_23:\n      dup1\n      0x6d036535\n      gt\n      tag_25\n      jumpi\n      dup1\n      0x6d036535\n      eq\n      tag_8\n      jumpi\n      dup1\n      0x7f494852\n      eq\n      tag_9\n      jumpi\n      dup1\n      0x8bae5f4f\n      eq\n      tag_10\n      jumpi\n      dup1\n      0x8da5cb5b\n      eq\n      tag_11\n      jumpi\n      dup1\n      0x8f32d59b\n      eq\n      tag_12\n      jumpi\n      jump(tag_2)\n    tag_25:\n      dup1\n      0x0af88b24\n      eq\n      tag_3\n      jumpi\n      dup1\n      0x3b58524d\n      eq\n      tag_4\n      jumpi\n      dup1\n      0x44f91c1e\n      eq\n      tag_5\n      jumpi\n      dup1\n      0x45ce7db9\n      eq\n      tag_6\n      jumpi\n      dup1\n      0x65e4e1c0\n      eq\n      tag_7\n      jumpi\n    tag_2:\n      0x00\n      dup1\n      revert\n        /* \"Storage.sol\":4388:4414  address public WETHAddress */\n    tag_3:\n      tag_26\n      tag_27\n      jump\t// in\n    tag_26:\n      mload(0x40)\n      tag_28\n      swap2\n      swap1\n      jump(tag_29)\n    tag_28:\n      mload(0x40)\n      dup1\n      swap2\n      sub\n      swap1\n      return\n        /* \"Storage.sol\":6471:6647  function setAddress(address _weth, address _rewardDistributionAddress) external onlyOwner {... */\n    tag_4:\n      tag_30\n      0x04\n      dup1\n      calldatasize\n      sub\n      tag_31\n      swap2\n      swap1\n      dup2\n      add\n      swap1\n      jump(tag_32)\n    tag_31:\n      tag_33\n      jump\t// in\n    tag_30:\n      stop\n        /* \"Storage.sol\":4112:4175  mapping(address => mapping(uint256 => auction)) public auctions */\n    tag_5:\n      tag_34\n      0x04\n      dup1\n      calldatasize\n      sub\n      tag_35\n      swap2\n      swap1\n      dup2\n      add\n      swap1\n      jump(tag_36)\n    tag_35:\n      tag_37\n      jump\t// in\n    tag_34:\n      mload(0x40)\n      tag_38\n      swap11\n      swap10\n      swap9\n      swap8\n      swap7\n      swap6\n      swap5\n      swap4\n      swap3\n      swap2\n      swap1\n      jump(tag_39)\n    tag_38:\n      mload(0x40)\n      dup1\n      swap2\n      sub\n      swap1\n      return\n        /* \"Storage.sol\":4420:4447  address public StakeAddress */\n    tag_6:\n      tag_40\n      tag_41\n      jump\t// in\n    tag_40:\n      mload(0x40)\n      tag_42\n      swap2\n      swap1\n      jump(tag_29)\n    tag_42:\n      mload(0x40)\n      dup1\n      swap2\n      sub\n      swap1\n      return\n        /* \"Storage.sol\":4647:4803  function getTokensForSale()... */\n    tag_7:\n      tag_43\n      tag_44\n      jump\t// in\n    tag_43:\n      mload(0x40)\n      tag_45\n      swap2\n      swap1\n      jump(tag_46)\n    tag_45:\n      mload(0x40)\n      dup1\n      swap2\n      sub\n      swap1\n      return\n        /* \"Storage.sol\":4488:4641  function getErc20Tokens()... */\n    tag_8:\n      tag_47\n      tag_48\n      jump\t// in\n    tag_47:\n      mload(0x40)\n      tag_49\n      swap2\n      swap1\n      jump(tag_50)\n    tag_49:\n      mload(0x40)\n      dup1\n      swap2\n      sub\n      swap1\n      return\n        /* \"Storage.sol\":2860:2892  uint256 public updateClosingTime */\n    tag_9:\n      tag_51\n      tag_52\n      jump\t// in\n    tag_51:\n      mload(0x40)\n      tag_53\n      swap2\n      swap1\n      jump(tag_54)\n    tag_53:\n      mload(0x40)\n      dup1\n      swap2\n      sub\n      swap1\n      return\n        /* \"Storage.sol\":4453:4482  address public LPStakeAddress */\n    tag_10:\n      tag_55\n      tag_56\n      jump\t// in\n    tag_55:\n      mload(0x40)\n      tag_57\n      swap2\n      swap1\n      jump(tag_29)\n    tag_57:\n      mload(0x40)\n      dup1\n      swap2\n      sub\n      swap1\n      return\n        /* \"ownable.sol\":870:947  function owner() public view returns (address) {... */\n    tag_11:\n      tag_58\n      tag_59\n      jump\t// in\n    tag_58:\n      mload(0x40)\n      tag_60\n      swap2\n      swap1\n      jump(tag_29)\n    tag_60:\n      mload(0x40)\n      dup1\n      swap2\n      sub\n      swap1\n      return\n        /* \"ownable.sol\":1221:1311  function isOwner() public view returns (bool) {... */\n    tag_12:\n      tag_61\n      tag_62\n      jump\t// in\n    tag_61:\n      mload(0x40)\n      tag_63\n      swap2\n      swap1\n      jump(tag_64)\n    tag_63:\n      mload(0x40)\n      dup1\n      swap2\n      sub\n      swap1\n      return\n        /* \"Storage.sol\":5464:6342  function setBrokerage(address _rewardDistributionAddress,address _lpStakeAddress ,uint16 _lpStakefeepercentage, uint16 _rewardDistributionPercentage, uint16 _platFormFeePercentage) public onlyOwner {... */\n    tag_13:\n      tag_65\n      0x04\n      dup1\n      calldatasize\n      sub\n      tag_66\n      swap2\n      swap1\n      dup2\n      add\n      swap1\n      jump(tag_67)\n    tag_66:\n      tag_68\n      jump\t// in\n    tag_65:\n      stop\n        /* \"Storage.sol\":2695:2737  uint16 public rewardDistributionPercentage */\n    tag_14:\n      tag_69\n      tag_70\n      jump\t// in\n    tag_69:\n      mload(0x40)\n      tag_71\n      swap2\n      swap1\n      jump(tag_72)\n    tag_71:\n      mload(0x40)\n      dup1\n      swap2\n      sub\n      swap1\n      return\n        /* \"Storage.sol\":2787:2821  uint16 public lpStakefeepercentage */\n    tag_15:\n      tag_73\n      tag_74\n      jump\t// in\n    tag_73:\n      mload(0x40)\n      tag_75\n      swap2\n      swap1\n      jump(tag_72)\n    tag_75:\n      mload(0x40)\n      dup1\n      swap2\n      sub\n      swap1\n      return\n        /* \"Storage.sol\":4809:4978  function getFixedPriceTokensForSale()... */\n    tag_16:\n      tag_76\n      tag_77\n      jump\t// in\n    tag_76:\n      mload(0x40)\n      tag_78\n      swap2\n      swap1\n      jump(tag_46)\n    tag_78:\n      mload(0x40)\n      dup1\n      swap2\n      sub\n      swap1\n      return\n        /* \"Storage.sol\":5153:5343  function getTokensForSalePerUser(address _user)... */\n    tag_17:\n      tag_79\n      0x04\n      dup1\n      calldatasize\n      sub\n      tag_80\n      swap2\n      swap1\n      dup2\n      add\n      swap1\n      jump(tag_81)\n    tag_80:\n      tag_82\n      jump\t// in\n    tag_79:\n      mload(0x40)\n      tag_83\n      swap2\n      swap1\n      jump(tag_46)\n    tag_83:\n      mload(0x40)\n      dup1\n      swap2\n      sub\n      swap1\n      return\n        /* \"Storage.sol\":3948:4105  mapping(... */\n    tag_18:\n      tag_84\n      0x04\n      dup1\n      calldatasize\n      sub\n      tag_85\n      swap2\n      swap1\n      dup2\n      add\n      swap1\n      jump(tag_86)\n    tag_85:\n      tag_87\n      jump\t// in\n    tag_84:\n      mload(0x40)\n      tag_88\n      swap3\n      swap2\n      swap1\n      jump(tag_89)\n    tag_88:\n      mload(0x40)\n      dup1\n      swap2\n      sub\n      swap1\n      return\n        /* \"Storage.sol\":2743:2778  uint16 public platFormFeePercentage */\n    tag_19:\n      tag_90\n      tag_91\n      jump\t// in\n    tag_90:\n      mload(0x40)\n      tag_92\n      swap2\n      swap1\n      jump(tag_72)\n    tag_92:\n      mload(0x40)\n      dup1\n      swap2\n      sub\n      swap1\n      return\n        /* \"ownable.sol\":1460:1695  function transferOwnership(address newOwner) public onlyOwner {... */\n    tag_20:\n      tag_93\n      0x04\n      dup1\n      calldatasize\n      sub\n      tag_94\n      swap2\n      swap1\n      dup2\n      add\n      swap1\n      jump(tag_81)\n    tag_94:\n      tag_95\n      jump\t// in\n    tag_93:\n      stop\n        /* \"Storage.sol\":6348:6465  function setUpdatedClosingTime(uint256 _updateTime) public onlyOwner {... */\n    tag_21:\n      tag_96\n      0x04\n      dup1\n      calldatasize\n      sub\n      tag_97\n      swap2\n      swap1\n      dup2\n      add\n      swap1\n      jump(tag_98)\n    tag_97:\n      tag_99\n      jump\t// in\n    tag_96:\n      stop\n        /* \"Storage.sol\":4984:5147  function getAuctionTokensForSale()... */\n    tag_22:\n      tag_100\n      tag_101\n      jump\t// in\n    tag_100:\n      mload(0x40)\n      tag_102\n      swap2\n      swap1\n      jump(tag_46)\n    tag_102:\n      mload(0x40)\n      dup1\n      swap2\n      sub\n      swap1\n      return\n        /* \"Storage.sol\":4388:4414  address public WETHAddress */\n    tag_27:\n      0x0b\n      0x00\n      swap1\n      sload\n      swap1\n      0x0100\n      exp\n      swap1\n      div\n      0xffffffffffffffffffffffffffffffffffffffff\n      and\n      dup2\n      jump\t// out\n        /* \"Storage.sol\":6471:6647  function setAddress(address _weth, address _rewardDistributionAddress) external onlyOwner {... */\n    tag_33:\n        /* \"ownable.sol\":1074:1083  isOwner() */\n      tag_104\n        /* \"ownable.sol\":1074:1081  isOwner */\n      tag_62\n        /* \"ownable.sol\":1074:1083  isOwner() */\n      jump\t// in\n    tag_104:\n        /* \"ownable.sol\":1066:1120  require(isOwner(), \"Ownable: caller is not the owner\") */\n      tag_105\n      jumpi\n      mload(0x40)\n      0x08c379a000000000000000000000000000000000000000000000000000000000\n      dup2\n      mstore\n      0x04\n      add\n      tag_106\n      swap1\n      jump(tag_107)\n    tag_106:\n      mload(0x40)\n      dup1\n      swap2\n      sub\n      swap1\n      revert\n    tag_105:\n        /* \"Storage.sol\":6584:6589  _weth */\n      dup2\n        /* \"Storage.sol\":6571:6582  WETHAddress */\n      0x0b\n      0x00\n        /* \"Storage.sol\":6571:6589  WETHAddress =_weth */\n      0x0100\n      exp\n      dup2\n      sload\n      dup2\n      0xffffffffffffffffffffffffffffffffffffffff\n      mul\n      not\n      and\n      swap1\n      dup4\n      0xffffffffffffffffffffffffffffffffffffffff\n      and\n      mul\n      or\n      swap1\n      sstore\n      pop\n        /* \"Storage.sol\":6614:6640  _rewardDistributionAddress */\n      dup1\n        /* \"Storage.sol\":6599:6611  StakeAddress */\n      0x0c\n      0x00\n        /* \"Storage.sol\":6599:6640  StakeAddress = _rewardDistributionAddress */\n      0x0100\n      exp\n      dup2\n      sload\n      dup2\n      0xffffffffffffffffffffffffffffffffffffffff\n      mul\n      not\n      and\n      swap1\n      dup4\n      0xffffffffffffffffffffffffffffffffffffffff\n      and\n      mul\n      or\n      swap1\n      sstore\n      pop\n        /* \"Storage.sol\":6471:6647  function setAddress(address _weth, address _rewardDistributionAddress) external onlyOwner {... */\n      pop\n      pop\n      jump\t// out\n        /* \"Storage.sol\":4112:4175  mapping(address => mapping(uint256 => auction)) public auctions */\n    tag_37:\n      mstore(0x20, 0x07)\n      dup2\n      0x00\n      mstore\n      mstore(0x20, keccak256(0x00, 0x40))\n      dup1\n      0x00\n      mstore\n      keccak256(0x00, 0x40)\n      0x00\n      swap2\n      pop\n      swap2\n      pop\n      pop\n      dup1\n      0x00\n      add\n      0x00\n      swap1\n      sload\n      swap1\n      0x0100\n      exp\n      swap1\n      div\n      0xffffffffffffffffffffffffffffffffffffffff\n      and\n      swap1\n      dup1\n      0x01\n      add\n      sload\n      swap1\n      dup1\n      0x02\n      add\n      0x00\n      swap1\n      sload\n      swap1\n      0x0100\n      exp\n      swap1\n      div\n      0xffffffffffffffffffffffffffffffffffffffff\n      and\n      swap1\n      dup1\n      0x03\n      add\n      sload\n      swap1\n      dup1\n      0x04\n      add\n      sload\n      swap1\n      dup1\n      0x05\n      add\n      sload\n      swap1\n      dup1\n      0x06\n      add\n      0x00\n      swap1\n      sload\n      swap1\n      0x0100\n      exp\n      swap1\n      div\n      0xff\n      and\n      swap1\n      dup1\n      0x07\n      add\n      sload\n      swap1\n      dup1\n      0x08\n      add\n      sload\n      swap1\n      dup1\n      0x09\n      add\n      0x00\n      swap1\n      sload\n      swap1\n      0x0100\n      exp\n      swap1\n      div\n      0xffffffffffffffffffffffffffffffffffffffff\n      and\n      swap1\n      pop\n      dup11\n      jump\t// out\n        /* \"Storage.sol\":4420:4447  address public StakeAddress */\n    tag_41:\n      0x0c\n      0x00\n      swap1\n      sload\n      swap1\n      0x0100\n      exp\n      swap1\n      div\n      0xffffffffffffffffffffffffffffffffffffffff\n      and\n      dup2\n      jump\t// out\n        /* \"Storage.sol\":4647:4803  function getTokensForSale()... */\n    tag_44:\n        /* \"Storage.sol\":4720:4754  TokenDetArrayLib.TokenDet[] memory */\n      0x60\n        /* \"Storage.sol\":4777:4790  tokensForSale */\n      0x09\n        /* \"Storage.sol\":4777:4796  tokensForSale.array */\n      0x00\n      add\n        /* \"Storage.sol\":4770:4796  return tokensForSale.array */\n      dup1\n      sload\n      dup1\n      0x20\n      mul\n      0x20\n      add\n      mload(0x40)\n      swap1\n      dup2\n      add\n      0x40\n      mstore\n      dup1\n      swap3\n      swap2\n      swap1\n      dup2\n      dup2\n      mstore\n      0x20\n      add\n      0x00\n      swap1\n    tag_110:\n      dup3\n      dup3\n      lt\n      iszero\n      tag_111\n      jumpi\n      dup4\n      dup3\n      swap1\n      0x00\n      mstore\n      keccak256(0x00, 0x20)\n      swap1\n      0x02\n      mul\n      add\n      mload(0x40)\n      dup1\n      0x40\n      add\n      0x40\n      mstore\n      swap1\n      dup2\n      0x00\n      dup3\n      add\n      0x00\n      swap1\n      sload\n      swap1\n      0x0100\n      exp\n      swap1\n      div\n      0xffffffffffffffffffffffffffffffffffffffff\n      and\n      0xffffffffffffffffffffffffffffffffffffffff\n      and\n      0xffffffffffffffffffffffffffffffffffffffff\n      and\n      dup2\n      mstore\n      0x20\n      add\n      0x01\n      dup3\n      add\n      sload\n      dup2\n      mstore\n      pop\n      pop\n      dup2\n      mstore\n      0x20\n      add\n      swap1\n      0x01\n      add\n      swap1\n      jump(tag_110)\n    tag_111:\n      pop\n      pop\n      pop\n      pop\n      swap1\n      pop\n        /* \"Storage.sol\":4647:4803  function getTokensForSale()... */\n      swap1\n      jump\t// out\n        /* \"Storage.sol\":4488:4641  function getErc20Tokens()... */\n    tag_48:\n        /* \"Storage.sol\":4559:4595  ERC20Addresses.erc20Addresses memory */\n      tag_113\n      tag_114\n      jump\t// in\n    tag_113:\n        /* \"Storage.sol\":4618:4634  erc20TokensArray */\n      0x0a\n        /* \"Storage.sol\":4611:4634  return erc20TokensArray */\n      mload(0x40)\n      dup1\n      0x20\n      add\n      0x40\n      mstore\n      swap1\n      dup2\n      0x00\n      dup3\n      add\n      dup1\n      sload\n      dup1\n      0x20\n      mul\n      0x20\n      add\n      mload(0x40)\n      swap1\n      dup2\n      add\n      0x40\n      mstore\n      dup1\n      swap3\n      swap2\n      swap1\n      dup2\n      dup2\n      mstore\n      0x20\n      add\n      dup3\n      dup1\n      sload\n      dup1\n      iszero\n      tag_116\n      jumpi\n      0x20\n      mul\n      dup3\n      add\n      swap2\n      swap1\n      0x00\n      mstore\n      keccak256(0x00, 0x20)\n      swap1\n    tag_117:\n      dup2\n      0x00\n      swap1\n      sload\n      swap1\n      0x0100\n      exp\n      swap1\n      div\n      0xffffffffffffffffffffffffffffffffffffffff\n      and\n      0xffffffffffffffffffffffffffffffffffffffff\n      and\n      dup2\n      mstore\n      0x20\n      add\n      swap1\n      0x01\n      add\n      swap1\n      dup1\n      dup4\n      gt\n      tag_117\n      jumpi\n    tag_116:\n      pop\n      pop\n      pop\n      pop\n      pop\n      dup2\n      mstore\n      pop\n      pop\n      swap1\n      pop\n        /* \"Storage.sol\":4488:4641  function getErc20Tokens()... */\n      swap1\n      jump\t// out\n        /* \"Storage.sol\":2860:2892  uint256 public updateClosingTime */\n    tag_52:\n      sload(0x01)\n      dup2\n      jump\t// out\n        /* \"Storage.sol\":4453:4482  address public LPStakeAddress */\n    tag_56:\n      0x0d\n      0x00\n      swap1\n      sload\n      swap1\n      0x0100\n      exp\n      swap1\n      div\n      0xffffffffffffffffffffffffffffffffffffffff\n      and\n      dup2\n      jump\t// out\n        /* \"ownable.sol\":870:947  function owner() public view returns (address) {... */\n    tag_59:\n        /* \"ownable.sol\":908:915  address */\n      0x00\n        /* \"ownable.sol\":934:940  _owner */\n      dup1\n      0x00\n      swap1\n      sload\n      swap1\n      0x0100\n      exp\n      swap1\n      div\n      0xffffffffffffffffffffffffffffffffffffffff\n      and\n        /* \"ownable.sol\":927:940  return _owner */\n      swap1\n      pop\n        /* \"ownable.sol\":870:947  function owner() public view returns (address) {... */\n      swap1\n      jump\t// out\n        /* \"ownable.sol\":1221:1311  function isOwner() public view returns (bool) {... */\n    tag_62:\n        /* \"ownable.sol\":1261:1265  bool */\n      0x00\n        /* \"ownable.sol\":1298:1304  _owner */\n      dup1\n      0x00\n      swap1\n      sload\n      swap1\n      0x0100\n      exp\n      swap1\n      div\n      0xffffffffffffffffffffffffffffffffffffffff\n      and\n        /* \"ownable.sol\":1284:1304  msg.sender == _owner */\n      0xffffffffffffffffffffffffffffffffffffffff\n      and\n        /* \"ownable.sol\":1284:1294  msg.sender */\n      caller\n        /* \"ownable.sol\":1284:1304  msg.sender == _owner */\n      0xffffffffffffffffffffffffffffffffffffffff\n      and\n      eq\n        /* \"ownable.sol\":1277:1304  return msg.sender == _owner */\n      swap1\n      pop\n        /* \"ownable.sol\":1221:1311  function isOwner() public view returns (bool) {... */\n      swap1\n      jump\t// out\n        /* \"Storage.sol\":5464:6342  function setBrokerage(address _rewardDistributionAddress,address _lpStakeAddress ,uint16 _lpStakefeepercentage, uint16 _rewardDistributionPercentage, uint16 _platFormFeePercentage) public onlyOwner {... */\n    tag_68:\n        /* \"ownable.sol\":1074:1083  isOwner() */\n      tag_121\n        /* \"ownable.sol\":1074:1081  isOwner */\n      tag_62\n        /* \"ownable.sol\":1074:1083  isOwner() */\n      jump\t// in\n    tag_121:\n        /* \"ownable.sol\":1066:1120  require(isOwner(), \"Ownable: caller is not the owner\") */\n      tag_122\n      jumpi\n      mload(0x40)\n      0x08c379a000000000000000000000000000000000000000000000000000000000\n      dup2\n      mstore\n      0x04\n      add\n      tag_123\n      swap1\n      jump(tag_107)\n    tag_123:\n      mload(0x40)\n      dup1\n      swap2\n      sub\n      swap1\n      revert\n    tag_122:\n        /* \"Storage.sol\":5718:5719  0 */\n      0x00\n        /* \"Storage.sol\":5680:5720  _rewardDistributionAddress != address(0) */\n      0xffffffffffffffffffffffffffffffffffffffff\n      and\n        /* \"Storage.sol\":5680:5706  _rewardDistributionAddress */\n      dup6\n        /* \"Storage.sol\":5680:5720  _rewardDistributionAddress != address(0) */\n      0xffffffffffffffffffffffffffffffffffffffff\n      and\n      eq\n      iszero\n        /* \"Storage.sol\":5680:5750  _rewardDistributionAddress != address(0) &&_lpStakeAddress!=address(0) */\n      dup1\n      iszero\n      tag_125\n      jumpi\n      pop\n        /* \"Storage.sol\":5748:5749  0 */\n      0x00\n        /* \"Storage.sol\":5723:5750  _lpStakeAddress!=address(0) */\n      0xffffffffffffffffffffffffffffffffffffffff\n      and\n        /* \"Storage.sol\":5723:5738  _lpStakeAddress */\n      dup5\n        /* \"Storage.sol\":5723:5750  _lpStakeAddress!=address(0) */\n      0xffffffffffffffffffffffffffffffffffffffff\n      and\n      eq\n      iszero\n        /* \"Storage.sol\":5680:5750  _rewardDistributionAddress != address(0) &&_lpStakeAddress!=address(0) */\n    tag_125:\n        /* \"Storage.sol\":5672:5770  require(_rewardDistributionAddress != address(0) &&_lpStakeAddress!=address(0), \"Address is Zero\") */\n      tag_126\n      jumpi\n      mload(0x40)\n      0x08c379a000000000000000000000000000000000000000000000000000000000\n      dup2\n      mstore\n      0x04\n      add\n      tag_127\n      swap1\n      jump(tag_128)\n    tag_127:\n      mload(0x40)\n      dup1\n      swap2\n      sub\n      swap1\n      revert\n    tag_126:\n        /* \"Storage.sol\":5821:5822  0 */\n      0x00\n        /* \"Storage.sol\":5788:5817  _rewardDistributionPercentage */\n      dup3\n        /* \"Storage.sol\":5788:5822  _rewardDistributionPercentage >= 0 */\n      0xffff\n      and\n      lt\n      iszero\n        /* \"Storage.sol\":5788:5853  _rewardDistributionPercentage >= 0 && _platFormFeePercentage >= 0 */\n      dup1\n      iszero\n      tag_129\n      jumpi\n      pop\n        /* \"Storage.sol\":5852:5853  0 */\n      0x00\n        /* \"Storage.sol\":5826:5848  _platFormFeePercentage */\n      dup2\n        /* \"Storage.sol\":5826:5853  _platFormFeePercentage >= 0 */\n      0xffff\n      and\n      lt\n      iszero\n        /* \"Storage.sol\":5788:5853  _rewardDistributionPercentage >= 0 && _platFormFeePercentage >= 0 */\n    tag_129:\n        /* \"Storage.sol\":5788:5880  _rewardDistributionPercentage >= 0 && _platFormFeePercentage >= 0 &&_lpStakefeepercentage>=0 */\n      dup1\n      iszero\n      tag_130\n      jumpi\n      pop\n        /* \"Storage.sol\":5879:5880  0 */\n      0x00\n        /* \"Storage.sol\":5856:5877  _lpStakefeepercentage */\n      dup4\n        /* \"Storage.sol\":5856:5880  _lpStakefeepercentage>=0 */\n      0xffff\n      and\n      lt\n      iszero\n        /* \"Storage.sol\":5788:5880  _rewardDistributionPercentage >= 0 && _platFormFeePercentage >= 0 &&_lpStakefeepercentage>=0 */\n    tag_130:\n        /* \"Storage.sol\":5780:5912  require(_rewardDistributionPercentage >= 0 && _platFormFeePercentage >= 0 &&_lpStakefeepercentage>=0, \"should be greater than zero\") */\n      tag_131\n      jumpi\n      mload(0x40)\n      0x08c379a000000000000000000000000000000000000000000000000000000000\n      dup2\n      mstore\n      0x04\n      add\n      tag_132\n      swap1\n      jump(tag_133)\n    tag_132:\n      mload(0x40)\n      dup1\n      swap2\n      sub\n      swap1\n      revert\n    tag_131:\n        /* \"Storage.sol\":5963:5967  1000 */\n      0x03e8\n        /* \"Storage.sol\":5930:5959  _rewardDistributionPercentage */\n      dup3\n        /* \"Storage.sol\":5930:5967  _rewardDistributionPercentage <= 1000 */\n      0xffff\n      and\n      gt\n      iszero\n        /* \"Storage.sol\":5930:6001  _rewardDistributionPercentage <= 1000 && _platFormFeePercentage <= 1000 */\n      dup1\n      iszero\n      tag_134\n      jumpi\n      pop\n        /* \"Storage.sol\":5997:6001  1000 */\n      0x03e8\n        /* \"Storage.sol\":5971:5993  _platFormFeePercentage */\n      dup2\n        /* \"Storage.sol\":5971:6001  _platFormFeePercentage <= 1000 */\n      0xffff\n      and\n      gt\n      iszero\n        /* \"Storage.sol\":5930:6001  _rewardDistributionPercentage <= 1000 && _platFormFeePercentage <= 1000 */\n    tag_134:\n        /* \"Storage.sol\":5930:6032  _rewardDistributionPercentage <= 1000 && _platFormFeePercentage <= 1000 && _lpStakefeepercentage<=1000 */\n      dup1\n      iszero\n      tag_135\n      jumpi\n      pop\n        /* \"Storage.sol\":6028:6032  1000 */\n      0x03e8\n        /* \"Storage.sol\":6005:6026  _lpStakefeepercentage */\n      dup4\n        /* \"Storage.sol\":6005:6032  _lpStakefeepercentage<=1000 */\n      0xffff\n      and\n      gt\n      iszero\n        /* \"Storage.sol\":5930:6032  _rewardDistributionPercentage <= 1000 && _platFormFeePercentage <= 1000 && _lpStakefeepercentage<=1000 */\n    tag_135:\n        /* \"Storage.sol\":5922:6064  require(_rewardDistributionPercentage <= 1000 && _platFormFeePercentage <= 1000 && _lpStakefeepercentage<=1000, \"should be greater than zero\") */\n      tag_136\n      jumpi\n      mload(0x40)\n      0x08c379a000000000000000000000000000000000000000000000000000000000\n      dup2\n      mstore\n      0x04\n      add\n      tag_137\n      swap1\n      jump(tag_133)\n    tag_137:\n      mload(0x40)\n      dup1\n      swap2\n      sub\n      swap1\n      revert\n    tag_136:\n        /* \"Storage.sol\":6105:6134  _rewardDistributionPercentage */\n      dup2\n        /* \"Storage.sol\":6074:6102  rewardDistributionPercentage */\n      0x00\n      0x14\n        /* \"Storage.sol\":6074:6134  rewardDistributionPercentage = _rewardDistributionPercentage */\n      0x0100\n      exp\n      dup2\n      sload\n      dup2\n      0xffff\n      mul\n      not\n      and\n      swap1\n      dup4\n      0xffff\n      and\n      mul\n      or\n      swap1\n      sstore\n      pop\n        /* \"Storage.sol\":6168:6190  _platFormFeePercentage */\n      dup1\n        /* \"Storage.sol\":6144:6165  platFormFeePercentage */\n      0x00\n      0x16\n        /* \"Storage.sol\":6144:6190  platFormFeePercentage = _platFormFeePercentage */\n      0x0100\n      exp\n      dup2\n      sload\n      dup2\n      0xffff\n      mul\n      not\n      and\n      swap1\n      dup4\n      0xffff\n      and\n      mul\n      or\n      swap1\n      sstore\n      pop\n        /* \"Storage.sol\":6221:6242  _lpStakefeepercentage */\n      dup3\n        /* \"Storage.sol\":6200:6220  lpStakefeepercentage */\n      0x00\n      0x18\n        /* \"Storage.sol\":6200:6242  lpStakefeepercentage=_lpStakefeepercentage */\n      0x0100\n      exp\n      dup2\n      sload\n      dup2\n      0xffff\n      mul\n      not\n      and\n      swap1\n      dup4\n      0xffff\n      and\n      mul\n      or\n      swap1\n      sstore\n      pop\n        /* \"Storage.sol\":6267:6293  _rewardDistributionAddress */\n      dup5\n        /* \"Storage.sol\":6252:6264  StakeAddress */\n      0x0c\n      0x00\n        /* \"Storage.sol\":6252:6293  StakeAddress = _rewardDistributionAddress */\n      0x0100\n      exp\n      dup2\n      sload\n      dup2\n      0xffffffffffffffffffffffffffffffffffffffff\n      mul\n      not\n      and\n      swap1\n      dup4\n      0xffffffffffffffffffffffffffffffffffffffff\n      and\n      mul\n      or\n      swap1\n      sstore\n      pop\n        /* \"Storage.sol\":6320:6335  _lpStakeAddress */\n      dup4\n        /* \"Storage.sol\":6303:6317  LPStakeAddress */\n      0x0d\n      0x00\n        /* \"Storage.sol\":6303:6335  LPStakeAddress = _lpStakeAddress */\n      0x0100\n      exp\n      dup2\n      sload\n      dup2\n      0xffffffffffffffffffffffffffffffffffffffff\n      mul\n      not\n      and\n      swap1\n      dup4\n      0xffffffffffffffffffffffffffffffffffffffff\n      and\n      mul\n      or\n      swap1\n      sstore\n      pop\n        /* \"Storage.sol\":5464:6342  function setBrokerage(address _rewardDistributionAddress,address _lpStakeAddress ,uint16 _lpStakefeepercentage, uint16 _rewardDistributionPercentage, uint16 _platFormFeePercentage) public onlyOwner {... */\n      pop\n      pop\n      pop\n      pop\n      pop\n      jump\t// out\n        /* \"Storage.sol\":2695:2737  uint16 public rewardDistributionPercentage */\n    tag_70:\n      0x00\n      0x14\n      swap1\n      sload\n      swap1\n      0x0100\n      exp\n      swap1\n      div\n      0xffff\n      and\n      dup2\n      jump\t// out\n        /* \"Storage.sol\":2787:2821  uint16 public lpStakefeepercentage */\n    tag_74:\n      0x00\n      0x18\n      swap1\n      sload\n      swap1\n      0x0100\n      exp\n      swap1\n      div\n      0xffff\n      and\n      dup2\n      jump\t// out\n        /* \"Storage.sol\":4809:4978  function getFixedPriceTokensForSale()... */\n    tag_77:\n        /* \"Storage.sol\":4892:4926  TokenDetArrayLib.TokenDet[] memory */\n      0x60\n        /* \"Storage.sol\":4949:4965  fixedPriceTokens */\n      0x04\n        /* \"Storage.sol\":4949:4971  fixedPriceTokens.array */\n      0x00\n      add\n        /* \"Storage.sol\":4942:4971  return fixedPriceTokens.array */\n      dup1\n      sload\n      dup1\n      0x20\n      mul\n      0x20\n      add\n      mload(0x40)\n      swap1\n      dup2\n      add\n      0x40\n      mstore\n      dup1\n      swap3\n      swap2\n      swap1\n      dup2\n      dup2\n      mstore\n      0x20\n      add\n      0x00\n      swap1\n    tag_139:\n      dup3\n      dup3\n      lt\n      iszero\n      tag_140\n      jumpi\n      dup4\n      dup3\n      swap1\n      0x00\n      mstore\n      keccak256(0x00, 0x20)\n      swap1\n      0x02\n      mul\n      add\n      mload(0x40)\n      dup1\n      0x40\n      add\n      0x40\n      mstore\n      swap1\n      dup2\n      0x00\n      dup3\n      add\n      0x00\n      swap1\n      sload\n      swap1\n      0x0100\n      exp\n      swap1\n      div\n      0xffffffffffffffffffffffffffffffffffffffff\n      and\n      0xffffffffffffffffffffffffffffffffffffffff\n      and\n      0xffffffffffffffffffffffffffffffffffffffff\n      and\n      dup2\n      mstore\n      0x20\n      add\n      0x01\n      dup3\n      add\n      sload\n      dup2\n      mstore\n      pop\n      pop\n      dup2\n      mstore\n      0x20\n      add\n      swap1\n      0x01\n      add\n      swap1\n      jump(tag_139)\n    tag_140:\n      pop\n      pop\n      pop\n      pop\n      swap1\n      pop\n        /* \"Storage.sol\":4809:4978  function getFixedPriceTokensForSale()... */\n      swap1\n      jump\t// out\n        /* \"Storage.sol\":5153:5343  function getTokensForSalePerUser(address _user)... */\n    tag_82:\n        /* \"Storage.sol\":5246:5280  TokenDetArrayLib.TokenDet[] memory */\n      0x60\n        /* \"Storage.sol\":5303:5323  tokensForSalePerUser */\n      0x03\n        /* \"Storage.sol\":5303:5330  tokensForSalePerUser[_user] */\n      0x00\n        /* \"Storage.sol\":5324:5329  _user */\n      dup4\n        /* \"Storage.sol\":5303:5330  tokensForSalePerUser[_user] */\n      0xffffffffffffffffffffffffffffffffffffffff\n      and\n      0xffffffffffffffffffffffffffffffffffffffff\n      and\n      dup2\n      mstore\n      0x20\n      add\n      swap1\n      dup2\n      mstore\n      0x20\n      add\n      0x00\n      keccak256\n        /* \"Storage.sol\":5303:5336  tokensForSalePerUser[_user].array */\n      0x00\n      add\n        /* \"Storage.sol\":5296:5336  return tokensForSalePerUser[_user].array */\n      dup1\n      sload\n      dup1\n      0x20\n      mul\n      0x20\n      add\n      mload(0x40)\n      swap1\n      dup2\n      add\n      0x40\n      mstore\n      dup1\n      swap3\n      swap2\n      swap1\n      dup2\n      dup2\n      mstore\n      0x20\n      add\n      0x00\n      swap1\n    tag_143:\n      dup3\n      dup3\n      lt\n      iszero\n      tag_144\n      jumpi\n      dup4\n      dup3\n      swap1\n      0x00\n      mstore\n      keccak256(0x00, 0x20)\n      swap1\n      0x02\n      mul\n      add\n      mload(0x40)\n      dup1\n      0x40\n      add\n      0x40\n      mstore\n      swap1\n      dup2\n      0x00\n      dup3\n      add\n      0x00\n      swap1\n      sload\n      swap1\n      0x0100\n      exp\n      swap1\n      div\n      0xffffffffffffffffffffffffffffffffffffffff\n      and\n      0xffffffffffffffffffffffffffffffffffffffff\n      and\n      0xffffffffffffffffffffffffffffffffffffffff\n      and\n      dup2\n      mstore\n      0x20\n      add\n      0x01\n      dup3\n      add\n      sload\n      dup2\n      mstore\n      pop\n      pop\n      dup2\n      mstore\n      0x20\n      add\n      swap1\n      0x01\n      add\n      swap1\n      jump(tag_143)\n    tag_144:\n      pop\n      pop\n      pop\n      pop\n      swap1\n      pop\n        /* \"Storage.sol\":5153:5343  function getTokensForSalePerUser(address _user)... */\n      swap2\n      swap1\n      pop\n      jump\t// out\n        /* \"Storage.sol\":3948:4105  mapping(... */\n    tag_87:\n      mstore(0x20, 0x06)\n      dup3\n      0x00\n      mstore\n      mstore(0x20, keccak256(0x00, 0x40))\n      dup2\n      0x00\n      mstore\n      mstore(0x20, keccak256(0x00, 0x40))\n      dup1\n      0x00\n      mstore\n      keccak256(0x00, 0x40)\n      0x00\n      swap3\n      pop\n      swap3\n      pop\n      pop\n      pop\n      dup1\n      0x00\n      add\n      0x00\n      swap1\n      sload\n      swap1\n      0x0100\n      exp\n      swap1\n      div\n      0xffffffffffffffffffffffffffffffffffffffff\n      and\n      swap1\n      dup1\n      0x01\n      add\n      sload\n      swap1\n      pop\n      dup3\n      jump\t// out\n        /* \"Storage.sol\":2743:2778  uint16 public platFormFeePercentage */\n    tag_91:\n      0x00\n      0x16\n      swap1\n      sload\n      swap1\n      0x0100\n      exp\n      swap1\n      div\n      0xffff\n      and\n      dup2\n      jump\t// out\n        /* \"ownable.sol\":1460:1695  function transferOwnership(address newOwner) public onlyOwner {... */\n    tag_95:\n        /* \"ownable.sol\":1074:1083  isOwner() */\n      tag_147\n        /* \"ownable.sol\":1074:1081  isOwner */\n      tag_62\n        /* \"ownable.sol\":1074:1083  isOwner() */\n      jump\t// in\n    tag_147:\n        /* \"ownable.sol\":1066:1120  require(isOwner(), \"Ownable: caller is not the owner\") */\n      tag_148\n      jumpi\n      mload(0x40)\n      0x08c379a000000000000000000000000000000000000000000000000000000000\n      dup2\n      mstore\n      0x04\n      add\n      tag_149\n      swap1\n      jump(tag_107)\n    tag_149:\n      mload(0x40)\n      dup1\n      swap2\n      sub\n      swap1\n      revert\n    tag_148:\n        /* \"ownable.sol\":1560:1561  0 */\n      0x00\n        /* \"ownable.sol\":1540:1562  newOwner != address(0) */\n      0xffffffffffffffffffffffffffffffffffffffff\n      and\n        /* \"ownable.sol\":1540:1548  newOwner */\n      dup2\n        /* \"ownable.sol\":1540:1562  newOwner != address(0) */\n      0xffffffffffffffffffffffffffffffffffffffff\n      and\n      eq\n      iszero\n        /* \"ownable.sol\":1532:1605  require(newOwner != address(0), \"Ownable: new owner is the zero address\") */\n      tag_151\n      jumpi\n      mload(0x40)\n      0x08c379a000000000000000000000000000000000000000000000000000000000\n      dup2\n      mstore\n      0x04\n      add\n      tag_152\n      swap1\n      jump(tag_153)\n    tag_152:\n      mload(0x40)\n      dup1\n      swap2\n      sub\n      swap1\n      revert\n    tag_151:\n        /* \"ownable.sol\":1680:1688  newOwner */\n      dup1\n        /* \"ownable.sol\":1671:1677  _owner */\n      0x00\n      dup1\n        /* \"ownable.sol\":1671:1688  _owner = newOwner */\n      0x0100\n      exp\n      dup2\n      sload\n      dup2\n      0xffffffffffffffffffffffffffffffffffffffff\n      mul\n      not\n      and\n      swap1\n      dup4\n      0xffffffffffffffffffffffffffffffffffffffff\n      and\n      mul\n      or\n      swap1\n      sstore\n      pop\n        /* \"ownable.sol\":1460:1695  function transferOwnership(address newOwner) public onlyOwner {... */\n      pop\n      jump\t// out\n        /* \"Storage.sol\":6348:6465  function setUpdatedClosingTime(uint256 _updateTime) public onlyOwner {... */\n    tag_99:\n        /* \"ownable.sol\":1074:1083  isOwner() */\n      tag_155\n        /* \"ownable.sol\":1074:1081  isOwner */\n      tag_62\n        /* \"ownable.sol\":1074:1083  isOwner() */\n      jump\t// in\n    tag_155:\n        /* \"ownable.sol\":1066:1120  require(isOwner(), \"Ownable: caller is not the owner\") */\n      tag_156\n      jumpi\n      mload(0x40)\n      0x08c379a000000000000000000000000000000000000000000000000000000000\n      dup2\n      mstore\n      0x04\n      add\n      tag_157\n      swap1\n      jump(tag_107)\n    tag_157:\n      mload(0x40)\n      dup1\n      swap2\n      sub\n      swap1\n      revert\n    tag_156:\n        /* \"Storage.sol\":6447:6458  _updateTime */\n      dup1\n        /* \"Storage.sol\":6427:6444  updateClosingTime */\n      0x01\n        /* \"Storage.sol\":6427:6458  updateClosingTime = _updateTime */\n      dup2\n      swap1\n      sstore\n      pop\n        /* \"Storage.sol\":6348:6465  function setUpdatedClosingTime(uint256 _updateTime) public onlyOwner {... */\n      pop\n      jump\t// out\n        /* \"Storage.sol\":4984:5147  function getAuctionTokensForSale()... */\n    tag_101:\n        /* \"Storage.sol\":5064:5098  TokenDetArrayLib.TokenDet[] memory */\n      0x60\n        /* \"Storage.sol\":5121:5134  auctionTokens */\n      0x05\n        /* \"Storage.sol\":5121:5140  auctionTokens.array */\n      0x00\n      add\n        /* \"Storage.sol\":5114:5140  return auctionTokens.array */\n      dup1\n      sload\n      dup1\n      0x20\n      mul\n      0x20\n      add\n      mload(0x40)\n      swap1\n      dup2\n      add\n      0x40\n      mstore\n      dup1\n      swap3\n      swap2\n      swap1\n      dup2\n      dup2\n      mstore\n      0x20\n      add\n      0x00\n      swap1\n    tag_160:\n      dup3\n      dup3\n      lt\n      iszero\n      tag_161\n      jumpi\n      dup4\n      dup3\n      swap1\n      0x00\n      mstore\n      keccak256(0x00, 0x20)\n      swap1\n      0x02\n      mul\n      add\n      mload(0x40)\n      dup1\n      0x40\n      add\n      0x40\n      mstore\n      swap1\n      dup2\n      0x00\n      dup3\n      add\n      0x00\n      swap1\n      sload\n      swap1\n      0x0100\n      exp\n      swap1\n      div\n      0xffffffffffffffffffffffffffffffffffffffff\n      and\n      0xffffffffffffffffffffffffffffffffffffffff\n      and\n      0xffffffffffffffffffffffffffffffffffffffff\n      and\n      dup2\n      mstore\n      0x20\n      add\n      0x01\n      dup3\n      add\n      sload\n      dup2\n      mstore\n      pop\n      pop\n      dup2\n      mstore\n      0x20\n      add\n      swap1\n      0x01\n      add\n      swap1\n      jump(tag_160)\n    tag_161:\n      pop\n      pop\n      pop\n      pop\n      swap1\n      pop\n        /* \"Storage.sol\":4984:5147  function getAuctionTokensForSale()... */\n      swap1\n      jump\t// out\n        /* \"Storage.sol\":2498:6649  contract Storage is Ownable {... */\n    tag_114:\n      mload(0x40)\n      dup1\n      0x20\n      add\n      0x40\n      mstore\n      dup1\n      0x60\n      dup2\n      mstore\n      pop\n      swap1\n      jump\t// out\n        /* \"--CODEGEN--\":5:135   */\n    tag_164:\n      0x00\n        /* \"--CODEGEN--\":85:91   */\n      dup2\n        /* \"--CODEGEN--\":72:92   */\n      calldataload\n        /* \"--CODEGEN--\":63:92   */\n      swap1\n      pop\n        /* \"--CODEGEN--\":97:130   */\n      tag_165\n        /* \"--CODEGEN--\":124:129   */\n      dup2\n        /* \"--CODEGEN--\":97:130   */\n      jump(tag_166)\n    tag_165:\n        /* \"--CODEGEN--\":57:135   */\n      swap3\n      swap2\n      pop\n      pop\n      jump\n        /* \"--CODEGEN--\":142:270   */\n    tag_167:\n      0x00\n        /* \"--CODEGEN--\":221:227   */\n      dup2\n        /* \"--CODEGEN--\":208:228   */\n      calldataload\n        /* \"--CODEGEN--\":199:228   */\n      swap1\n      pop\n        /* \"--CODEGEN--\":233:265   */\n      tag_168\n        /* \"--CODEGEN--\":259:264   */\n      dup2\n        /* \"--CODEGEN--\":233:265   */\n      jump(tag_169)\n    tag_168:\n        /* \"--CODEGEN--\":193:270   */\n      swap3\n      swap2\n      pop\n      pop\n      jump\n        /* \"--CODEGEN--\":277:407   */\n    tag_170:\n      0x00\n        /* \"--CODEGEN--\":357:363   */\n      dup2\n        /* \"--CODEGEN--\":344:364   */\n      calldataload\n        /* \"--CODEGEN--\":335:364   */\n      swap1\n      pop\n        /* \"--CODEGEN--\":369:402   */\n      tag_171\n        /* \"--CODEGEN--\":396:401   */\n      dup2\n        /* \"--CODEGEN--\":369:402   */\n      jump(tag_172)\n    tag_171:\n        /* \"--CODEGEN--\":329:407   */\n      swap3\n      swap2\n      pop\n      pop\n      jump\n        /* \"--CODEGEN--\":414:655   */\n    tag_81:\n      0x00\n        /* \"--CODEGEN--\":518:520   */\n      0x20\n        /* \"--CODEGEN--\":506:515   */\n      dup3\n        /* \"--CODEGEN--\":497:504   */\n      dup5\n        /* \"--CODEGEN--\":493:516   */\n      sub\n        /* \"--CODEGEN--\":489:521   */\n      slt\n        /* \"--CODEGEN--\":486:488   */\n      iszero\n      tag_173\n      jumpi\n        /* \"--CODEGEN--\":534:535   */\n      0x00\n        /* \"--CODEGEN--\":531:532   */\n      dup1\n        /* \"--CODEGEN--\":524:536   */\n      revert\n        /* \"--CODEGEN--\":486:488   */\n    tag_173:\n        /* \"--CODEGEN--\":569:570   */\n      0x00\n        /* \"--CODEGEN--\":586:639   */\n      tag_174\n        /* \"--CODEGEN--\":631:638   */\n      dup5\n        /* \"--CODEGEN--\":622:628   */\n      dup3\n        /* \"--CODEGEN--\":611:620   */\n      dup6\n        /* \"--CODEGEN--\":607:629   */\n      add\n        /* \"--CODEGEN--\":586:639   */\n      jump(tag_164)\n    tag_174:\n        /* \"--CODEGEN--\":576:639   */\n      swap2\n      pop\n        /* \"--CODEGEN--\":548:645   */\n      pop\n        /* \"--CODEGEN--\":480:655   */\n      swap3\n      swap2\n      pop\n      pop\n      jump\n        /* \"--CODEGEN--\":662:1028   */\n    tag_32:\n      0x00\n      dup1\n        /* \"--CODEGEN--\":783:785   */\n      0x40\n        /* \"--CODEGEN--\":771:780   */\n      dup4\n        /* \"--CODEGEN--\":762:769   */\n      dup6\n        /* \"--CODEGEN--\":758:781   */\n      sub\n        /* \"--CODEGEN--\":754:786   */\n      slt\n        /* \"--CODEGEN--\":751:753   */\n      iszero\n      tag_175\n      jumpi\n        /* \"--CODEGEN--\":799:800   */\n      0x00\n        /* \"--CODEGEN--\":796:797   */\n      dup1\n        /* \"--CODEGEN--\":789:801   */\n      revert\n        /* \"--CODEGEN--\":751:753   */\n    tag_175:\n        /* \"--CODEGEN--\":834:835   */\n      0x00\n        /* \"--CODEGEN--\":851:904   */\n      tag_176\n        /* \"--CODEGEN--\":896:903   */\n      dup6\n        /* \"--CODEGEN--\":887:893   */\n      dup3\n        /* \"--CODEGEN--\":876:885   */\n      dup7\n        /* \"--CODEGEN--\":872:894   */\n      add\n        /* \"--CODEGEN--\":851:904   */\n      jump(tag_164)\n    tag_176:\n        /* \"--CODEGEN--\":841:904   */\n      swap3\n      pop\n        /* \"--CODEGEN--\":813:910   */\n      pop\n        /* \"--CODEGEN--\":941:943   */\n      0x20\n        /* \"--CODEGEN--\":959:1012   */\n      tag_177\n        /* \"--CODEGEN--\":1004:1011   */\n      dup6\n        /* \"--CODEGEN--\":995:1001   */\n      dup3\n        /* \"--CODEGEN--\":984:993   */\n      dup7\n        /* \"--CODEGEN--\":980:1002   */\n      add\n        /* \"--CODEGEN--\":959:1012   */\n      jump(tag_164)\n    tag_177:\n        /* \"--CODEGEN--\":949:1012   */\n      swap2\n      pop\n        /* \"--CODEGEN--\":920:1018   */\n      pop\n        /* \"--CODEGEN--\":745:1028   */\n      swap3\n      pop\n      swap3\n      swap1\n      pop\n      jump\n        /* \"--CODEGEN--\":1035:1772   */\n    tag_67:\n      0x00\n      dup1\n      0x00\n      dup1\n      0x00\n        /* \"--CODEGEN--\":1204:1207   */\n      0xa0\n        /* \"--CODEGEN--\":1192:1201   */\n      dup7\n        /* \"--CODEGEN--\":1183:1190   */\n      dup9\n        /* \"--CODEGEN--\":1179:1202   */\n      sub\n        /* \"--CODEGEN--\":1175:1208   */\n      slt\n        /* \"--CODEGEN--\":1172:1174   */\n      iszero\n      tag_178\n      jumpi\n        /* \"--CODEGEN--\":1221:1222   */\n      0x00\n        /* \"--CODEGEN--\":1218:1219   */\n      dup1\n        /* \"--CODEGEN--\":1211:1223   */\n      revert\n        /* \"--CODEGEN--\":1172:1174   */\n    tag_178:\n        /* \"--CODEGEN--\":1256:1257   */\n      0x00\n        /* \"--CODEGEN--\":1273:1326   */\n      tag_179\n        /* \"--CODEGEN--\":1318:1325   */\n      dup9\n        /* \"--CODEGEN--\":1309:1315   */\n      dup3\n        /* \"--CODEGEN--\":1298:1307   */\n      dup10\n        /* \"--CODEGEN--\":1294:1316   */\n      add\n        /* \"--CODEGEN--\":1273:1326   */\n      jump(tag_164)\n    tag_179:\n        /* \"--CODEGEN--\":1263:1326   */\n      swap6\n      pop\n        /* \"--CODEGEN--\":1235:1332   */\n      pop\n        /* \"--CODEGEN--\":1363:1365   */\n      0x20\n        /* \"--CODEGEN--\":1381:1434   */\n      tag_180\n        /* \"--CODEGEN--\":1426:1433   */\n      dup9\n        /* \"--CODEGEN--\":1417:1423   */\n      dup3\n        /* \"--CODEGEN--\":1406:1415   */\n      dup10\n        /* \"--CODEGEN--\":1402:1424   */\n      add\n        /* \"--CODEGEN--\":1381:1434   */\n      jump(tag_164)\n    tag_180:\n        /* \"--CODEGEN--\":1371:1434   */\n      swap5\n      pop\n        /* \"--CODEGEN--\":1342:1440   */\n      pop\n        /* \"--CODEGEN--\":1471:1473   */\n      0x40\n        /* \"--CODEGEN--\":1489:1541   */\n      tag_181\n        /* \"--CODEGEN--\":1533:1540   */\n      dup9\n        /* \"--CODEGEN--\":1524:1530   */\n      dup3\n        /* \"--CODEGEN--\":1513:1522   */\n      dup10\n        /* \"--CODEGEN--\":1509:1531   */\n      add\n        /* \"--CODEGEN--\":1489:1541   */\n      jump(tag_167)\n    tag_181:\n        /* \"--CODEGEN--\":1479:1541   */\n      swap4\n      pop\n        /* \"--CODEGEN--\":1450:1547   */\n      pop\n        /* \"--CODEGEN--\":1578:1580   */\n      0x60\n        /* \"--CODEGEN--\":1596:1648   */\n      tag_182\n        /* \"--CODEGEN--\":1640:1647   */\n      dup9\n        /* \"--CODEGEN--\":1631:1637   */\n      dup3\n        /* \"--CODEGEN--\":1620:1629   */\n      dup10\n        /* \"--CODEGEN--\":1616:1638   */\n      add\n        /* \"--CODEGEN--\":1596:1648   */\n      jump(tag_167)\n    tag_182:\n        /* \"--CODEGEN--\":1586:1648   */\n      swap3\n      pop\n        /* \"--CODEGEN--\":1557:1654   */\n      pop\n        /* \"--CODEGEN--\":1685:1688   */\n      0x80\n        /* \"--CODEGEN--\":1704:1756   */\n      tag_183\n        /* \"--CODEGEN--\":1748:1755   */\n      dup9\n        /* \"--CODEGEN--\":1739:1745   */\n      dup3\n        /* \"--CODEGEN--\":1728:1737   */\n      dup10\n        /* \"--CODEGEN--\":1724:1746   */\n      add\n        /* \"--CODEGEN--\":1704:1756   */\n      jump(tag_167)\n    tag_183:\n        /* \"--CODEGEN--\":1694:1756   */\n      swap2\n      pop\n        /* \"--CODEGEN--\":1664:1762   */\n      pop\n        /* \"--CODEGEN--\":1166:1772   */\n      swap3\n      swap6\n      pop\n      swap3\n      swap6\n      swap1\n      swap4\n      pop\n      jump\n        /* \"--CODEGEN--\":1779:2145   */\n    tag_36:\n      0x00\n      dup1\n        /* \"--CODEGEN--\":1900:1902   */\n      0x40\n        /* \"--CODEGEN--\":1888:1897   */\n      dup4\n        /* \"--CODEGEN--\":1879:1886   */\n      dup6\n        /* \"--CODEGEN--\":1875:1898   */\n      sub\n        /* \"--CODEGEN--\":1871:1903   */\n      slt\n        /* \"--CODEGEN--\":1868:1870   */\n      iszero\n      tag_184\n      jumpi\n        /* \"--CODEGEN--\":1916:1917   */\n      0x00\n        /* \"--CODEGEN--\":1913:1914   */\n      dup1\n        /* \"--CODEGEN--\":1906:1918   */\n      revert\n        /* \"--CODEGEN--\":1868:1870   */\n    tag_184:\n        /* \"--CODEGEN--\":1951:1952   */\n      0x00\n        /* \"--CODEGEN--\":1968:2021   */\n      tag_185\n        /* \"--CODEGEN--\":2013:2020   */\n      dup6\n        /* \"--CODEGEN--\":2004:2010   */\n      dup3\n        /* \"--CODEGEN--\":1993:2002   */\n      dup7\n        /* \"--CODEGEN--\":1989:2011   */\n      add\n        /* \"--CODEGEN--\":1968:2021   */\n      jump(tag_164)\n    tag_185:\n        /* \"--CODEGEN--\":1958:2021   */\n      swap3\n      pop\n        /* \"--CODEGEN--\":1930:2027   */\n      pop\n        /* \"--CODEGEN--\":2058:2060   */\n      0x20\n        /* \"--CODEGEN--\":2076:2129   */\n      tag_186\n        /* \"--CODEGEN--\":2121:2128   */\n      dup6\n        /* \"--CODEGEN--\":2112:2118   */\n      dup3\n        /* \"--CODEGEN--\":2101:2110   */\n      dup7\n        /* \"--CODEGEN--\":2097:2119   */\n      add\n        /* \"--CODEGEN--\":2076:2129   */\n      jump(tag_170)\n    tag_186:\n        /* \"--CODEGEN--\":2066:2129   */\n      swap2\n      pop\n        /* \"--CODEGEN--\":2037:2135   */\n      pop\n        /* \"--CODEGEN--\":1862:2145   */\n      swap3\n      pop\n      swap3\n      swap1\n      pop\n      jump\n        /* \"--CODEGEN--\":2152:2643   */\n    tag_86:\n      0x00\n      dup1\n      0x00\n        /* \"--CODEGEN--\":2290:2292   */\n      0x60\n        /* \"--CODEGEN--\":2278:2287   */\n      dup5\n        /* \"--CODEGEN--\":2269:2276   */\n      dup7\n        /* \"--CODEGEN--\":2265:2288   */\n      sub\n        /* \"--CODEGEN--\":2261:2293   */\n      slt\n        /* \"--CODEGEN--\":2258:2260   */\n      iszero\n      tag_187\n      jumpi\n        /* \"--CODEGEN--\":2306:2307   */\n      0x00\n        /* \"--CODEGEN--\":2303:2304   */\n      dup1\n        /* \"--CODEGEN--\":2296:2308   */\n      revert\n        /* \"--CODEGEN--\":2258:2260   */\n    tag_187:\n        /* \"--CODEGEN--\":2341:2342   */\n      0x00\n        /* \"--CODEGEN--\":2358:2411   */\n      tag_188\n        /* \"--CODEGEN--\":2403:2410   */\n      dup7\n        /* \"--CODEGEN--\":2394:2400   */\n      dup3\n        /* \"--CODEGEN--\":2383:2392   */\n      dup8\n        /* \"--CODEGEN--\":2379:2401   */\n      add\n        /* \"--CODEGEN--\":2358:2411   */\n      jump(tag_164)\n    tag_188:\n        /* \"--CODEGEN--\":2348:2411   */\n      swap4\n      pop\n        /* \"--CODEGEN--\":2320:2417   */\n      pop\n        /* \"--CODEGEN--\":2448:2450   */\n      0x20\n        /* \"--CODEGEN--\":2466:2519   */\n      tag_189\n        /* \"--CODEGEN--\":2511:2518   */\n      dup7\n        /* \"--CODEGEN--\":2502:2508   */\n      dup3\n        /* \"--CODEGEN--\":2491:2500   */\n      dup8\n        /* \"--CODEGEN--\":2487:2509   */\n      add\n        /* \"--CODEGEN--\":2466:2519   */\n      jump(tag_170)\n    tag_189:\n        /* \"--CODEGEN--\":2456:2519   */\n      swap3\n      pop\n        /* \"--CODEGEN--\":2427:2525   */\n      pop\n        /* \"--CODEGEN--\":2556:2558   */\n      0x40\n        /* \"--CODEGEN--\":2574:2627   */\n      tag_190\n        /* \"--CODEGEN--\":2619:2626   */\n      dup7\n        /* \"--CODEGEN--\":2610:2616   */\n      dup3\n        /* \"--CODEGEN--\":2599:2608   */\n      dup8\n        /* \"--CODEGEN--\":2595:2617   */\n      add\n        /* \"--CODEGEN--\":2574:2627   */\n      jump(tag_164)\n    tag_190:\n        /* \"--CODEGEN--\":2564:2627   */\n      swap2\n      pop\n        /* \"--CODEGEN--\":2535:2633   */\n      pop\n        /* \"--CODEGEN--\":2252:2643   */\n      swap3\n      pop\n      swap3\n      pop\n      swap3\n      jump\n        /* \"--CODEGEN--\":2650:2891   */\n    tag_98:\n      0x00\n        /* \"--CODEGEN--\":2754:2756   */\n      0x20\n        /* \"--CODEGEN--\":2742:2751   */\n      dup3\n        /* \"--CODEGEN--\":2733:2740   */\n      dup5\n        /* \"--CODEGEN--\":2729:2752   */\n      sub\n        /* \"--CODEGEN--\":2725:2757   */\n      slt\n        /* \"--CODEGEN--\":2722:2724   */\n      iszero\n      tag_191\n      jumpi\n        /* \"--CODEGEN--\":2770:2771   */\n      0x00\n        /* \"--CODEGEN--\":2767:2768   */\n      dup1\n        /* \"--CODEGEN--\":2760:2772   */\n      revert\n        /* \"--CODEGEN--\":2722:2724   */\n    tag_191:\n        /* \"--CODEGEN--\":2805:2806   */\n      0x00\n        /* \"--CODEGEN--\":2822:2875   */\n      tag_192\n        /* \"--CODEGEN--\":2867:2874   */\n      dup5\n        /* \"--CODEGEN--\":2858:2864   */\n      dup3\n        /* \"--CODEGEN--\":2847:2856   */\n      dup6\n        /* \"--CODEGEN--\":2843:2865   */\n      add\n        /* \"--CODEGEN--\":2822:2875   */\n      jump(tag_170)\n    tag_192:\n        /* \"--CODEGEN--\":2812:2875   */\n      swap2\n      pop\n        /* \"--CODEGEN--\":2784:2881   */\n      pop\n        /* \"--CODEGEN--\":2716:2891   */\n      swap3\n      swap2\n      pop\n      pop\n      jump\n        /* \"--CODEGEN--\":2899:3072   */\n    tag_193:\n      0x00\n        /* \"--CODEGEN--\":2986:3032   */\n      tag_194\n        /* \"--CODEGEN--\":3028:3031   */\n      dup4\n        /* \"--CODEGEN--\":3020:3026   */\n      dup4\n        /* \"--CODEGEN--\":2986:3032   */\n      jump(tag_195)\n    tag_194:\n        /* \"--CODEGEN--\":3061:3065   */\n      0x20\n        /* \"--CODEGEN--\":3056:3059   */\n      dup4\n        /* \"--CODEGEN--\":3052:3066   */\n      add\n        /* \"--CODEGEN--\":3038:3066   */\n      swap1\n      pop\n        /* \"--CODEGEN--\":2979:3072   */\n      swap3\n      swap2\n      pop\n      pop\n      jump\n        /* \"--CODEGEN--\":3081:3342   */\n    tag_196:\n      0x00\n        /* \"--CODEGEN--\":3210:3302   */\n      tag_197\n        /* \"--CODEGEN--\":3298:3301   */\n      dup4\n        /* \"--CODEGEN--\":3290:3296   */\n      dup4\n        /* \"--CODEGEN--\":3210:3302   */\n      jump(tag_198)\n    tag_197:\n        /* \"--CODEGEN--\":3331:3335   */\n      0x40\n        /* \"--CODEGEN--\":3326:3329   */\n      dup4\n        /* \"--CODEGEN--\":3322:3336   */\n      add\n        /* \"--CODEGEN--\":3308:3336   */\n      swap1\n      pop\n        /* \"--CODEGEN--\":3203:3342   */\n      swap3\n      swap2\n      pop\n      pop\n      jump\n        /* \"--CODEGEN--\":3350:3487   */\n    tag_199:\n        /* \"--CODEGEN--\":3449:3481   */\n      tag_200\n        /* \"--CODEGEN--\":3475:3480   */\n      dup2\n        /* \"--CODEGEN--\":3449:3481   */\n      jump(tag_201)\n    tag_200:\n        /* \"--CODEGEN--\":3444:3447   */\n      dup3\n        /* \"--CODEGEN--\":3437:3482   */\n      mstore\n        /* \"--CODEGEN--\":3431:3487   */\n      pop\n      pop\n      jump\n        /* \"--CODEGEN--\":3494:3597   */\n    tag_195:\n        /* \"--CODEGEN--\":3567:3591   */\n      tag_202\n        /* \"--CODEGEN--\":3585:3590   */\n      dup2\n        /* \"--CODEGEN--\":3567:3591   */\n      jump(tag_203)\n    tag_202:\n        /* \"--CODEGEN--\":3562:3565   */\n      dup3\n        /* \"--CODEGEN--\":3555:3592   */\n      mstore\n        /* \"--CODEGEN--\":3549:3597   */\n      pop\n      pop\n      jump\n        /* \"--CODEGEN--\":3604:3717   */\n    tag_204:\n        /* \"--CODEGEN--\":3687:3711   */\n      tag_205\n        /* \"--CODEGEN--\":3705:3710   */\n      dup2\n        /* \"--CODEGEN--\":3687:3711   */\n      jump(tag_203)\n    tag_205:\n        /* \"--CODEGEN--\":3682:3685   */\n      dup3\n        /* \"--CODEGEN--\":3675:3712   */\n      mstore\n        /* \"--CODEGEN--\":3669:3717   */\n      pop\n      pop\n      jump\n        /* \"--CODEGEN--\":3755:4409   */\n    tag_206:\n      0x00\n        /* \"--CODEGEN--\":3886:3936   */\n      tag_207\n        /* \"--CODEGEN--\":3930:3935   */\n      dup3\n        /* \"--CODEGEN--\":3886:3936   */\n      jump(tag_208)\n    tag_207:\n        /* \"--CODEGEN--\":3949:4025   */\n      tag_209\n        /* \"--CODEGEN--\":4018:4024   */\n      dup2\n        /* \"--CODEGEN--\":4013:4016   */\n      dup6\n        /* \"--CODEGEN--\":3949:4025   */\n      jump(tag_210)\n    tag_209:\n        /* \"--CODEGEN--\":3942:4025   */\n      swap4\n      pop\n        /* \"--CODEGEN--\":4046:4098   */\n      tag_211\n        /* \"--CODEGEN--\":4092:4097   */\n      dup4\n        /* \"--CODEGEN--\":4046:4098   */\n      jump(tag_212)\n    tag_211:\n        /* \"--CODEGEN--\":4118:4125   */\n      dup1\n        /* \"--CODEGEN--\":4146:4147   */\n      0x00\n        /* \"--CODEGEN--\":4131:4387   */\n    tag_213:\n        /* \"--CODEGEN--\":4156:4162   */\n      dup4\n        /* \"--CODEGEN--\":4153:4154   */\n      dup2\n        /* \"--CODEGEN--\":4150:4163   */\n      lt\n        /* \"--CODEGEN--\":4131:4387   */\n      iszero\n      tag_215\n      jumpi\n        /* \"--CODEGEN--\":4223:4229   */\n      dup2\n        /* \"--CODEGEN--\":4217:4230   */\n      mload\n        /* \"--CODEGEN--\":4244:4307   */\n      tag_216\n        /* \"--CODEGEN--\":4303:4306   */\n      dup9\n        /* \"--CODEGEN--\":4288:4301   */\n      dup3\n        /* \"--CODEGEN--\":4244:4307   */\n      jump(tag_193)\n    tag_216:\n        /* \"--CODEGEN--\":4237:4307   */\n      swap8\n      pop\n        /* \"--CODEGEN--\":4324:4380   */\n      tag_217\n        /* \"--CODEGEN--\":4373:4379   */\n      dup4\n        /* \"--CODEGEN--\":4324:4380   */\n      jump(tag_218)\n    tag_217:\n        /* \"--CODEGEN--\":4314:4380   */\n      swap3\n      pop\n        /* \"--CODEGEN--\":4188:4387   */\n      pop\n        /* \"--CODEGEN--\":4178:4179   */\n      0x01\n        /* \"--CODEGEN--\":4175:4176   */\n      dup2\n        /* \"--CODEGEN--\":4171:4180   */\n      add\n        /* \"--CODEGEN--\":4166:4180   */\n      swap1\n      pop\n        /* \"--CODEGEN--\":4131:4387   */\n      jump(tag_213)\n    tag_215:\n        /* \"--CODEGEN--\":4135:4149   */\n      pop\n        /* \"--CODEGEN--\":4400:4403   */\n      dup6\n        /* \"--CODEGEN--\":4393:4403   */\n      swap4\n      pop\n        /* \"--CODEGEN--\":3865:4409   */\n      pop\n      pop\n      pop\n      swap3\n      swap2\n      pop\n      pop\n      jump\n        /* \"--CODEGEN--\":4498:5356   */\n    tag_219:\n      0x00\n        /* \"--CODEGEN--\":4685:4760   */\n      tag_220\n        /* \"--CODEGEN--\":4754:4759   */\n      dup3\n        /* \"--CODEGEN--\":4685:4760   */\n      jump(tag_221)\n    tag_220:\n        /* \"--CODEGEN--\":4773:4880   */\n      tag_222\n        /* \"--CODEGEN--\":4873:4879   */\n      dup2\n        /* \"--CODEGEN--\":4868:4871   */\n      dup6\n        /* \"--CODEGEN--\":4773:4880   */\n      jump(tag_223)\n    tag_222:\n        /* \"--CODEGEN--\":4766:4880   */\n      swap4\n      pop\n        /* \"--CODEGEN--\":4901:4978   */\n      tag_224\n        /* \"--CODEGEN--\":4972:4977   */\n      dup4\n        /* \"--CODEGEN--\":4901:4978   */\n      jump(tag_225)\n    tag_224:\n        /* \"--CODEGEN--\":4998:5005   */\n      dup1\n        /* \"--CODEGEN--\":5026:5027   */\n      0x00\n        /* \"--CODEGEN--\":5011:5334   */\n    tag_226:\n        /* \"--CODEGEN--\":5036:5042   */\n      dup4\n        /* \"--CODEGEN--\":5033:5034   */\n      dup2\n        /* \"--CODEGEN--\":5030:5043   */\n      lt\n        /* \"--CODEGEN--\":5011:5334   */\n      iszero\n      tag_228\n      jumpi\n        /* \"--CODEGEN--\":5103:5109   */\n      dup2\n        /* \"--CODEGEN--\":5097:5110   */\n      mload\n        /* \"--CODEGEN--\":5124:5229   */\n      tag_229\n        /* \"--CODEGEN--\":5225:5228   */\n      dup9\n        /* \"--CODEGEN--\":5210:5223   */\n      dup3\n        /* \"--CODEGEN--\":5124:5229   */\n      jump(tag_196)\n    tag_229:\n        /* \"--CODEGEN--\":5117:5229   */\n      swap8\n      pop\n        /* \"--CODEGEN--\":5246:5327   */\n      tag_230\n        /* \"--CODEGEN--\":5320:5326   */\n      dup4\n        /* \"--CODEGEN--\":5246:5327   */\n      jump(tag_231)\n    tag_230:\n        /* \"--CODEGEN--\":5236:5327   */\n      swap3\n      pop\n        /* \"--CODEGEN--\":5068:5334   */\n      pop\n        /* \"--CODEGEN--\":5058:5059   */\n      0x01\n        /* \"--CODEGEN--\":5055:5056   */\n      dup2\n        /* \"--CODEGEN--\":5051:5060   */\n      add\n        /* \"--CODEGEN--\":5046:5060   */\n      swap1\n      pop\n        /* \"--CODEGEN--\":5011:5334   */\n      jump(tag_226)\n    tag_228:\n        /* \"--CODEGEN--\":5015:5029   */\n      pop\n        /* \"--CODEGEN--\":5347:5350   */\n      dup6\n        /* \"--CODEGEN--\":5340:5350   */\n      swap4\n      pop\n        /* \"--CODEGEN--\":4664:5356   */\n      pop\n      pop\n      pop\n      swap3\n      swap2\n      pop\n      pop\n      jump\n        /* \"--CODEGEN--\":5364:5468   */\n    tag_232:\n        /* \"--CODEGEN--\":5441:5462   */\n      tag_233\n        /* \"--CODEGEN--\":5456:5461   */\n      dup2\n        /* \"--CODEGEN--\":5441:5462   */\n      jump(tag_234)\n    tag_233:\n        /* \"--CODEGEN--\":5436:5439   */\n      dup3\n        /* \"--CODEGEN--\":5429:5463   */\n      mstore\n        /* \"--CODEGEN--\":5423:5468   */\n      pop\n      pop\n      jump\n        /* \"--CODEGEN--\":5476:5851   */\n    tag_235:\n      0x00\n        /* \"--CODEGEN--\":5636:5703   */\n      tag_236\n        /* \"--CODEGEN--\":5700:5702   */\n      0x26\n        /* \"--CODEGEN--\":5695:5698   */\n      dup4\n        /* \"--CODEGEN--\":5636:5703   */\n      jump(tag_237)\n    tag_236:\n        /* \"--CODEGEN--\":5629:5703   */\n      swap2\n      pop\n        /* \"--CODEGEN--\":5736:5770   */\n      0x4f776e61626c653a206e6577206f776e657220697320746865207a65726f2061\n        /* \"--CODEGEN--\":5732:5733   */\n      0x00\n        /* \"--CODEGEN--\":5727:5730   */\n      dup4\n        /* \"--CODEGEN--\":5723:5734   */\n      add\n        /* \"--CODEGEN--\":5716:5771   */\n      mstore\n        /* \"--CODEGEN--\":5805:5813   */\n      0x6464726573730000000000000000000000000000000000000000000000000000\n        /* \"--CODEGEN--\":5800:5802   */\n      0x20\n        /* \"--CODEGEN--\":5795:5798   */\n      dup4\n        /* \"--CODEGEN--\":5791:5803   */\n      add\n        /* \"--CODEGEN--\":5784:5814   */\n      mstore\n        /* \"--CODEGEN--\":5842:5844   */\n      0x40\n        /* \"--CODEGEN--\":5837:5840   */\n      dup3\n        /* \"--CODEGEN--\":5833:5845   */\n      add\n        /* \"--CODEGEN--\":5826:5845   */\n      swap1\n      pop\n        /* \"--CODEGEN--\":5622:5851   */\n      swap2\n      swap1\n      pop\n      jump\n        /* \"--CODEGEN--\":5860:6175   */\n    tag_238:\n      0x00\n        /* \"--CODEGEN--\":6020:6087   */\n      tag_239\n        /* \"--CODEGEN--\":6084:6086   */\n      0x0f\n        /* \"--CODEGEN--\":6079:6082   */\n      dup4\n        /* \"--CODEGEN--\":6020:6087   */\n      jump(tag_237)\n    tag_239:\n        /* \"--CODEGEN--\":6013:6087   */\n      swap2\n      pop\n        /* \"--CODEGEN--\":6120:6137   */\n      0x41646472657373206973205a65726f0000000000000000000000000000000000\n        /* \"--CODEGEN--\":6116:6117   */\n      0x00\n        /* \"--CODEGEN--\":6111:6114   */\n      dup4\n        /* \"--CODEGEN--\":6107:6118   */\n      add\n        /* \"--CODEGEN--\":6100:6138   */\n      mstore\n        /* \"--CODEGEN--\":6166:6168   */\n      0x20\n        /* \"--CODEGEN--\":6161:6164   */\n      dup3\n        /* \"--CODEGEN--\":6157:6169   */\n      add\n        /* \"--CODEGEN--\":6150:6169   */\n      swap1\n      pop\n        /* \"--CODEGEN--\":6006:6175   */\n      swap2\n      swap1\n      pop\n      jump\n        /* \"--CODEGEN--\":6184:6511   */\n    tag_240:\n      0x00\n        /* \"--CODEGEN--\":6344:6411   */\n      tag_241\n        /* \"--CODEGEN--\":6408:6410   */\n      0x1b\n        /* \"--CODEGEN--\":6403:6406   */\n      dup4\n        /* \"--CODEGEN--\":6344:6411   */\n      jump(tag_237)\n    tag_241:\n        /* \"--CODEGEN--\":6337:6411   */\n      swap2\n      pop\n        /* \"--CODEGEN--\":6444:6473   */\n      0x73686f756c642062652067726561746572207468616e207a65726f0000000000\n        /* \"--CODEGEN--\":6440:6441   */\n      0x00\n        /* \"--CODEGEN--\":6435:6438   */\n      dup4\n        /* \"--CODEGEN--\":6431:6442   */\n      add\n        /* \"--CODEGEN--\":6424:6474   */\n      mstore\n        /* \"--CODEGEN--\":6502:6504   */\n      0x20\n        /* \"--CODEGEN--\":6497:6500   */\n      dup3\n        /* \"--CODEGEN--\":6493:6505   */\n      add\n        /* \"--CODEGEN--\":6486:6505   */\n      swap1\n      pop\n        /* \"--CODEGEN--\":6330:6511   */\n      swap2\n      swap1\n      pop\n      jump\n        /* \"--CODEGEN--\":6520:6852   */\n    tag_242:\n      0x00\n        /* \"--CODEGEN--\":6680:6747   */\n      tag_243\n        /* \"--CODEGEN--\":6744:6746   */\n      0x20\n        /* \"--CODEGEN--\":6739:6742   */\n      dup4\n        /* \"--CODEGEN--\":6680:6747   */\n      jump(tag_237)\n    tag_243:\n        /* \"--CODEGEN--\":6673:6747   */\n      swap2\n      pop\n        /* \"--CODEGEN--\":6780:6814   */\n      0x4f776e61626c653a2063616c6c6572206973206e6f7420746865206f776e6572\n        /* \"--CODEGEN--\":6776:6777   */\n      0x00\n        /* \"--CODEGEN--\":6771:6774   */\n      dup4\n        /* \"--CODEGEN--\":6767:6778   */\n      add\n        /* \"--CODEGEN--\":6760:6815   */\n      mstore\n        /* \"--CODEGEN--\":6843:6845   */\n      0x20\n        /* \"--CODEGEN--\":6838:6841   */\n      dup3\n        /* \"--CODEGEN--\":6834:6846   */\n      add\n        /* \"--CODEGEN--\":6827:6846   */\n      swap1\n      pop\n        /* \"--CODEGEN--\":6666:6852   */\n      swap2\n      swap1\n      pop\n      jump\n        /* \"--CODEGEN--\":6935:7406   */\n    tag_198:\n        /* \"--CODEGEN--\":7064:7068   */\n      0x40\n        /* \"--CODEGEN--\":7059:7062   */\n      dup3\n        /* \"--CODEGEN--\":7055:7069   */\n      add\n        /* \"--CODEGEN--\":7153:7157   */\n      0x00\n        /* \"--CODEGEN--\":7146:7151   */\n      dup3\n        /* \"--CODEGEN--\":7142:7158   */\n      add\n        /* \"--CODEGEN--\":7136:7159   */\n      mload\n        /* \"--CODEGEN--\":7165:7228   */\n      tag_244\n        /* \"--CODEGEN--\":7222:7226   */\n      0x00\n        /* \"--CODEGEN--\":7217:7220   */\n      dup6\n        /* \"--CODEGEN--\":7213:7227   */\n      add\n        /* \"--CODEGEN--\":7199:7211   */\n      dup3\n        /* \"--CODEGEN--\":7165:7228   */\n      jump(tag_195)\n    tag_244:\n        /* \"--CODEGEN--\":7084:7234   */\n      pop\n        /* \"--CODEGEN--\":7310:7314   */\n      0x20\n        /* \"--CODEGEN--\":7303:7308   */\n      dup3\n        /* \"--CODEGEN--\":7299:7315   */\n      add\n        /* \"--CODEGEN--\":7293:7316   */\n      mload\n        /* \"--CODEGEN--\":7322:7385   */\n      tag_245\n        /* \"--CODEGEN--\":7379:7383   */\n      0x20\n        /* \"--CODEGEN--\":7374:7377   */\n      dup6\n        /* \"--CODEGEN--\":7370:7384   */\n      add\n        /* \"--CODEGEN--\":7356:7368   */\n      dup3\n        /* \"--CODEGEN--\":7322:7385   */\n      jump(tag_246)\n    tag_245:\n        /* \"--CODEGEN--\":7244:7391   */\n      pop\n        /* \"--CODEGEN--\":7037:7406   */\n      pop\n      pop\n      pop\n      jump\n        /* \"--CODEGEN--\":7496:7948   */\n    tag_247:\n      0x00\n        /* \"--CODEGEN--\":7655:7659   */\n      0x20\n        /* \"--CODEGEN--\":7650:7653   */\n      dup4\n        /* \"--CODEGEN--\":7646:7660   */\n      add\n        /* \"--CODEGEN--\":7739:7743   */\n      0x00\n        /* \"--CODEGEN--\":7732:7737   */\n      dup4\n        /* \"--CODEGEN--\":7728:7744   */\n      add\n        /* \"--CODEGEN--\":7722:7745   */\n      mload\n        /* \"--CODEGEN--\":7791:7794   */\n      dup5\n        /* \"--CODEGEN--\":7785:7789   */\n      dup3\n        /* \"--CODEGEN--\":7781:7795   */\n      sub\n        /* \"--CODEGEN--\":7774:7778   */\n      0x00\n        /* \"--CODEGEN--\":7769:7772   */\n      dup7\n        /* \"--CODEGEN--\":7765:7779   */\n      add\n        /* \"--CODEGEN--\":7758:7796   */\n      mstore\n        /* \"--CODEGEN--\":7811:7910   */\n      tag_248\n        /* \"--CODEGEN--\":7905:7909   */\n      dup3\n        /* \"--CODEGEN--\":7891:7903   */\n      dup3\n        /* \"--CODEGEN--\":7811:7910   */\n      jump(tag_206)\n    tag_248:\n        /* \"--CODEGEN--\":7803:7910   */\n      swap2\n      pop\n        /* \"--CODEGEN--\":7675:7922   */\n      pop\n        /* \"--CODEGEN--\":7939:7943   */\n      dup1\n        /* \"--CODEGEN--\":7932:7943   */\n      swap2\n      pop\n        /* \"--CODEGEN--\":7628:7948   */\n      pop\n      swap3\n      swap2\n      pop\n      pop\n      jump\n        /* \"--CODEGEN--\":7955:8065   */\n    tag_249:\n        /* \"--CODEGEN--\":8036:8059   */\n      tag_250\n        /* \"--CODEGEN--\":8053:8058   */\n      dup2\n        /* \"--CODEGEN--\":8036:8059   */\n      jump(tag_251)\n    tag_250:\n        /* \"--CODEGEN--\":8031:8034   */\n      dup3\n        /* \"--CODEGEN--\":8024:8060   */\n      mstore\n        /* \"--CODEGEN--\":8018:8065   */\n      pop\n      pop\n      jump\n        /* \"--CODEGEN--\":8072:8175   */\n    tag_246:\n        /* \"--CODEGEN--\":8145:8169   */\n      tag_252\n        /* \"--CODEGEN--\":8163:8168   */\n      dup2\n        /* \"--CODEGEN--\":8145:8169   */\n      jump(tag_253)\n    tag_252:\n        /* \"--CODEGEN--\":8140:8143   */\n      dup3\n        /* \"--CODEGEN--\":8133:8170   */\n      mstore\n        /* \"--CODEGEN--\":8127:8175   */\n      pop\n      pop\n      jump\n        /* \"--CODEGEN--\":8182:8295   */\n    tag_254:\n        /* \"--CODEGEN--\":8265:8289   */\n      tag_255\n        /* \"--CODEGEN--\":8283:8288   */\n      dup2\n        /* \"--CODEGEN--\":8265:8289   */\n      jump(tag_253)\n    tag_255:\n        /* \"--CODEGEN--\":8260:8263   */\n      dup3\n        /* \"--CODEGEN--\":8253:8290   */\n      mstore\n        /* \"--CODEGEN--\":8247:8295   */\n      pop\n      pop\n      jump\n        /* \"--CODEGEN--\":8302:8515   */\n    tag_29:\n      0x00\n        /* \"--CODEGEN--\":8420:8422   */\n      0x20\n        /* \"--CODEGEN--\":8409:8418   */\n      dup3\n        /* \"--CODEGEN--\":8405:8423   */\n      add\n        /* \"--CODEGEN--\":8397:8423   */\n      swap1\n      pop\n        /* \"--CODEGEN--\":8434:8505   */\n      tag_256\n        /* \"--CODEGEN--\":8502:8503   */\n      0x00\n        /* \"--CODEGEN--\":8491:8500   */\n      dup4\n        /* \"--CODEGEN--\":8487:8504   */\n      add\n        /* \"--CODEGEN--\":8478:8484   */\n      dup5\n        /* \"--CODEGEN--\":8434:8505   */\n      jump(tag_204)\n    tag_256:\n        /* \"--CODEGEN--\":8391:8515   */\n      swap3\n      swap2\n      pop\n      pop\n      jump\n        /* \"--CODEGEN--\":8522:9793   */\n    tag_39:\n      0x00\n        /* \"--CODEGEN--\":8918:8921   */\n      0x0140\n        /* \"--CODEGEN--\":8907:8916   */\n      dup3\n        /* \"--CODEGEN--\":8903:8922   */\n      add\n        /* \"--CODEGEN--\":8895:8922   */\n      swap1\n      pop\n        /* \"--CODEGEN--\":8933:9020   */\n      tag_257\n        /* \"--CODEGEN--\":9017:9018   */\n      0x00\n        /* \"--CODEGEN--\":9006:9015   */\n      dup4\n        /* \"--CODEGEN--\":9002:9019   */\n      add\n        /* \"--CODEGEN--\":8993:8999   */\n      dup14\n        /* \"--CODEGEN--\":8933:9020   */\n      jump(tag_199)\n    tag_257:\n        /* \"--CODEGEN--\":9031:9103   */\n      tag_258\n        /* \"--CODEGEN--\":9099:9101   */\n      0x20\n        /* \"--CODEGEN--\":9088:9097   */\n      dup4\n        /* \"--CODEGEN--\":9084:9102   */\n      add\n        /* \"--CODEGEN--\":9075:9081   */\n      dup13\n        /* \"--CODEGEN--\":9031:9103   */\n      jump(tag_254)\n    tag_258:\n        /* \"--CODEGEN--\":9114:9202   */\n      tag_259\n        /* \"--CODEGEN--\":9198:9200   */\n      0x40\n        /* \"--CODEGEN--\":9187:9196   */\n      dup4\n        /* \"--CODEGEN--\":9183:9201   */\n      add\n        /* \"--CODEGEN--\":9174:9180   */\n      dup12\n        /* \"--CODEGEN--\":9114:9202   */\n      jump(tag_199)\n    tag_259:\n        /* \"--CODEGEN--\":9213:9285   */\n      tag_260\n        /* \"--CODEGEN--\":9281:9283   */\n      0x60\n        /* \"--CODEGEN--\":9270:9279   */\n      dup4\n        /* \"--CODEGEN--\":9266:9284   */\n      add\n        /* \"--CODEGEN--\":9257:9263   */\n      dup11\n        /* \"--CODEGEN--\":9213:9285   */\n      jump(tag_254)\n    tag_260:\n        /* \"--CODEGEN--\":9296:9369   */\n      tag_261\n        /* \"--CODEGEN--\":9364:9367   */\n      0x80\n        /* \"--CODEGEN--\":9353:9362   */\n      dup4\n        /* \"--CODEGEN--\":9349:9368   */\n      add\n        /* \"--CODEGEN--\":9340:9346   */\n      dup10\n        /* \"--CODEGEN--\":9296:9369   */\n      jump(tag_254)\n    tag_261:\n        /* \"--CODEGEN--\":9380:9453   */\n      tag_262\n        /* \"--CODEGEN--\":9448:9451   */\n      0xa0\n        /* \"--CODEGEN--\":9437:9446   */\n      dup4\n        /* \"--CODEGEN--\":9433:9452   */\n      add\n        /* \"--CODEGEN--\":9424:9430   */\n      dup9\n        /* \"--CODEGEN--\":9380:9453   */\n      jump(tag_254)\n    tag_262:\n        /* \"--CODEGEN--\":9464:9531   */\n      tag_263\n        /* \"--CODEGEN--\":9526:9529   */\n      0xc0\n        /* \"--CODEGEN--\":9515:9524   */\n      dup4\n        /* \"--CODEGEN--\":9511:9530   */\n      add\n        /* \"--CODEGEN--\":9502:9508   */\n      dup8\n        /* \"--CODEGEN--\":9464:9531   */\n      jump(tag_232)\n    tag_263:\n        /* \"--CODEGEN--\":9542:9615   */\n      tag_264\n        /* \"--CODEGEN--\":9610:9613   */\n      0xe0\n        /* \"--CODEGEN--\":9599:9608   */\n      dup4\n        /* \"--CODEGEN--\":9595:9614   */\n      add\n        /* \"--CODEGEN--\":9586:9592   */\n      dup7\n        /* \"--CODEGEN--\":9542:9615   */\n      jump(tag_254)\n    tag_264:\n        /* \"--CODEGEN--\":9626:9699   */\n      tag_265\n        /* \"--CODEGEN--\":9694:9697   */\n      0x0100\n        /* \"--CODEGEN--\":9683:9692   */\n      dup4\n        /* \"--CODEGEN--\":9679:9698   */\n      add\n        /* \"--CODEGEN--\":9670:9676   */\n      dup6\n        /* \"--CODEGEN--\":9626:9699   */\n      jump(tag_254)\n    tag_265:\n        /* \"--CODEGEN--\":9710:9783   */\n      tag_266\n        /* \"--CODEGEN--\":9778:9781   */\n      0x0120\n        /* \"--CODEGEN--\":9767:9776   */\n      dup4\n        /* \"--CODEGEN--\":9763:9782   */\n      add\n        /* \"--CODEGEN--\":9754:9760   */\n      dup5\n        /* \"--CODEGEN--\":9710:9783   */\n      jump(tag_204)\n    tag_266:\n        /* \"--CODEGEN--\":8889:9793   */\n      swap12\n      swap11\n      pop\n      pop\n      pop\n      pop\n      pop\n      pop\n      pop\n      pop\n      pop\n      pop\n      pop\n      jump\n        /* \"--CODEGEN--\":9800:10124   */\n    tag_89:\n      0x00\n        /* \"--CODEGEN--\":9946:9948   */\n      0x40\n        /* \"--CODEGEN--\":9935:9944   */\n      dup3\n        /* \"--CODEGEN--\":9931:9949   */\n      add\n        /* \"--CODEGEN--\":9923:9949   */\n      swap1\n      pop\n        /* \"--CODEGEN--\":9960:10031   */\n      tag_267\n        /* \"--CODEGEN--\":10028:10029   */\n      0x00\n        /* \"--CODEGEN--\":10017:10026   */\n      dup4\n        /* \"--CODEGEN--\":10013:10030   */\n      add\n        /* \"--CODEGEN--\":10004:10010   */\n      dup6\n        /* \"--CODEGEN--\":9960:10031   */\n      jump(tag_204)\n    tag_267:\n        /* \"--CODEGEN--\":10042:10114   */\n      tag_268\n        /* \"--CODEGEN--\":10110:10112   */\n      0x20\n        /* \"--CODEGEN--\":10099:10108   */\n      dup4\n        /* \"--CODEGEN--\":10095:10113   */\n      add\n        /* \"--CODEGEN--\":10086:10092   */\n      dup5\n        /* \"--CODEGEN--\":10042:10114   */\n      jump(tag_254)\n    tag_268:\n        /* \"--CODEGEN--\":9917:10124   */\n      swap4\n      swap3\n      pop\n      pop\n      pop\n      jump\n        /* \"--CODEGEN--\":10131:10576   */\n    tag_46:\n      0x00\n        /* \"--CODEGEN--\":10341:10343   */\n      0x20\n        /* \"--CODEGEN--\":10330:10339   */\n      dup3\n        /* \"--CODEGEN--\":10326:10344   */\n      add\n        /* \"--CODEGEN--\":10318:10344   */\n      swap1\n      pop\n        /* \"--CODEGEN--\":10391:10400   */\n      dup2\n        /* \"--CODEGEN--\":10385:10389   */\n      dup2\n        /* \"--CODEGEN--\":10381:10401   */\n      sub\n        /* \"--CODEGEN--\":10377:10378   */\n      0x00\n        /* \"--CODEGEN--\":10366:10375   */\n      dup4\n        /* \"--CODEGEN--\":10362:10379   */\n      add\n        /* \"--CODEGEN--\":10355:10402   */\n      mstore\n        /* \"--CODEGEN--\":10416:10566   */\n      tag_269\n        /* \"--CODEGEN--\":10561:10565   */\n      dup2\n        /* \"--CODEGEN--\":10552:10558   */\n      dup5\n        /* \"--CODEGEN--\":10416:10566   */\n      jump(tag_219)\n    tag_269:\n        /* \"--CODEGEN--\":10408:10566   */\n      swap1\n      pop\n        /* \"--CODEGEN--\":10312:10576   */\n      swap3\n      swap2\n      pop\n      pop\n      jump\n        /* \"--CODEGEN--\":10583:10784   */\n    tag_64:\n      0x00\n        /* \"--CODEGEN--\":10695:10697   */\n      0x20\n        /* \"--CODEGEN--\":10684:10693   */\n      dup3\n        /* \"--CODEGEN--\":10680:10698   */\n      add\n        /* \"--CODEGEN--\":10672:10698   */\n      swap1\n      pop\n        /* \"--CODEGEN--\":10709:10774   */\n      tag_270\n        /* \"--CODEGEN--\":10771:10772   */\n      0x00\n        /* \"--CODEGEN--\":10760:10769   */\n      dup4\n        /* \"--CODEGEN--\":10756:10773   */\n      add\n        /* \"--CODEGEN--\":10747:10753   */\n      dup5\n        /* \"--CODEGEN--\":10709:10774   */\n      jump(tag_232)\n    tag_270:\n        /* \"--CODEGEN--\":10666:10784   */\n      swap3\n      swap2\n      pop\n      pop\n      jump\n        /* \"--CODEGEN--\":10791:11198   */\n    tag_153:\n      0x00\n        /* \"--CODEGEN--\":10982:10984   */\n      0x20\n        /* \"--CODEGEN--\":10971:10980   */\n      dup3\n        /* \"--CODEGEN--\":10967:10985   */\n      add\n        /* \"--CODEGEN--\":10959:10985   */\n      swap1\n      pop\n        /* \"--CODEGEN--\":11032:11041   */\n      dup2\n        /* \"--CODEGEN--\":11026:11030   */\n      dup2\n        /* \"--CODEGEN--\":11022:11042   */\n      sub\n        /* \"--CODEGEN--\":11018:11019   */\n      0x00\n        /* \"--CODEGEN--\":11007:11016   */\n      dup4\n        /* \"--CODEGEN--\":11003:11020   */\n      add\n        /* \"--CODEGEN--\":10996:11043   */\n      mstore\n        /* \"--CODEGEN--\":11057:11188   */\n      tag_271\n        /* \"--CODEGEN--\":11183:11187   */\n      dup2\n        /* \"--CODEGEN--\":11057:11188   */\n      jump(tag_235)\n    tag_271:\n        /* \"--CODEGEN--\":11049:11188   */\n      swap1\n      pop\n        /* \"--CODEGEN--\":10953:11198   */\n      swap2\n      swap1\n      pop\n      jump\n        /* \"--CODEGEN--\":11205:11612   */\n    tag_128:\n      0x00\n        /* \"--CODEGEN--\":11396:11398   */\n      0x20\n        /* \"--CODEGEN--\":11385:11394   */\n      dup3\n        /* \"--CODEGEN--\":11381:11399   */\n      add\n        /* \"--CODEGEN--\":11373:11399   */\n      swap1\n      pop\n        /* \"--CODEGEN--\":11446:11455   */\n      dup2\n        /* \"--CODEGEN--\":11440:11444   */\n      dup2\n        /* \"--CODEGEN--\":11436:11456   */\n      sub\n        /* \"--CODEGEN--\":11432:11433   */\n      0x00\n        /* \"--CODEGEN--\":11421:11430   */\n      dup4\n        /* \"--CODEGEN--\":11417:11434   */\n      add\n        /* \"--CODEGEN--\":11410:11457   */\n      mstore\n        /* \"--CODEGEN--\":11471:11602   */\n      tag_272\n        /* \"--CODEGEN--\":11597:11601   */\n      dup2\n        /* \"--CODEGEN--\":11471:11602   */\n      jump(tag_238)\n    tag_272:\n        /* \"--CODEGEN--\":11463:11602   */\n      swap1\n      pop\n        /* \"--CODEGEN--\":11367:11612   */\n      swap2\n      swap1\n      pop\n      jump\n        /* \"--CODEGEN--\":11619:12026   */\n    tag_133:\n      0x00\n        /* \"--CODEGEN--\":11810:11812   */\n      0x20\n        /* \"--CODEGEN--\":11799:11808   */\n      dup3\n        /* \"--CODEGEN--\":11795:11813   */\n      add\n        /* \"--CODEGEN--\":11787:11813   */\n      swap1\n      pop\n        /* \"--CODEGEN--\":11860:11869   */\n      dup2\n        /* \"--CODEGEN--\":11854:11858   */\n      dup2\n        /* \"--CODEGEN--\":11850:11870   */\n      sub\n        /* \"--CODEGEN--\":11846:11847   */\n      0x00\n        /* \"--CODEGEN--\":11835:11844   */\n      dup4\n        /* \"--CODEGEN--\":11831:11848   */\n      add\n        /* \"--CODEGEN--\":11824:11871   */\n      mstore\n        /* \"--CODEGEN--\":11885:12016   */\n      tag_273\n        /* \"--CODEGEN--\":12011:12015   */\n      dup2\n        /* \"--CODEGEN--\":11885:12016   */\n      jump(tag_240)\n    tag_273:\n        /* \"--CODEGEN--\":11877:12016   */\n      swap1\n      pop\n        /* \"--CODEGEN--\":11781:12026   */\n      swap2\n      swap1\n      pop\n      jump\n        /* \"--CODEGEN--\":12033:12440   */\n    tag_107:\n      0x00\n        /* \"--CODEGEN--\":12224:12226   */\n      0x20\n        /* \"--CODEGEN--\":12213:12222   */\n      dup3\n        /* \"--CODEGEN--\":12209:12227   */\n      add\n        /* \"--CODEGEN--\":12201:12227   */\n      swap1\n      pop\n        /* \"--CODEGEN--\":12274:12283   */\n      dup2\n        /* \"--CODEGEN--\":12268:12272   */\n      dup2\n        /* \"--CODEGEN--\":12264:12284   */\n      sub\n        /* \"--CODEGEN--\":12260:12261   */\n      0x00\n        /* \"--CODEGEN--\":12249:12258   */\n      dup4\n        /* \"--CODEGEN--\":12245:12262   */\n      add\n        /* \"--CODEGEN--\":12238:12285   */\n      mstore\n        /* \"--CODEGEN--\":12299:12430   */\n      tag_274\n        /* \"--CODEGEN--\":12425:12429   */\n      dup2\n        /* \"--CODEGEN--\":12299:12430   */\n      jump(tag_242)\n    tag_274:\n        /* \"--CODEGEN--\":12291:12430   */\n      swap1\n      pop\n        /* \"--CODEGEN--\":12195:12440   */\n      swap2\n      swap1\n      pop\n      jump\n        /* \"--CODEGEN--\":12447:12824   */\n    tag_50:\n      0x00\n        /* \"--CODEGEN--\":12623:12625   */\n      0x20\n        /* \"--CODEGEN--\":12612:12621   */\n      dup3\n        /* \"--CODEGEN--\":12608:12626   */\n      add\n        /* \"--CODEGEN--\":12600:12626   */\n      swap1\n      pop\n        /* \"--CODEGEN--\":12673:12682   */\n      dup2\n        /* \"--CODEGEN--\":12667:12671   */\n      dup2\n        /* \"--CODEGEN--\":12663:12683   */\n      sub\n        /* \"--CODEGEN--\":12659:12660   */\n      0x00\n        /* \"--CODEGEN--\":12648:12657   */\n      dup4\n        /* \"--CODEGEN--\":12644:12661   */\n      add\n        /* \"--CODEGEN--\":12637:12684   */\n      mstore\n        /* \"--CODEGEN--\":12698:12814   */\n      tag_275\n        /* \"--CODEGEN--\":12809:12813   */\n      dup2\n        /* \"--CODEGEN--\":12800:12806   */\n      dup5\n        /* \"--CODEGEN--\":12698:12814   */\n      jump(tag_247)\n    tag_275:\n        /* \"--CODEGEN--\":12690:12814   */\n      swap1\n      pop\n        /* \"--CODEGEN--\":12594:12824   */\n      swap3\n      swap2\n      pop\n      pop\n      jump\n        /* \"--CODEGEN--\":12831:13040   */\n    tag_72:\n      0x00\n        /* \"--CODEGEN--\":12947:12949   */\n      0x20\n        /* \"--CODEGEN--\":12936:12945   */\n      dup3\n        /* \"--CODEGEN--\":12932:12950   */\n      add\n        /* \"--CODEGEN--\":12924:12950   */\n      swap1\n      pop\n        /* \"--CODEGEN--\":12961:13030   */\n      tag_276\n        /* \"--CODEGEN--\":13027:13028   */\n      0x00\n        /* \"--CODEGEN--\":13016:13025   */\n      dup4\n        /* \"--CODEGEN--\":13012:13029   */\n      add\n        /* \"--CODEGEN--\":13003:13009   */\n      dup5\n        /* \"--CODEGEN--\":12961:13030   */\n      jump(tag_249)\n    tag_276:\n        /* \"--CODEGEN--\":12918:13040   */\n      swap3\n      swap2\n      pop\n      pop\n      jump\n        /* \"--CODEGEN--\":13047:13260   */\n    tag_54:\n      0x00\n        /* \"--CODEGEN--\":13165:13167   */\n      0x20\n        /* \"--CODEGEN--\":13154:13163   */\n      dup3\n        /* \"--CODEGEN--\":13150:13168   */\n      add\n        /* \"--CODEGEN--\":13142:13168   */\n      swap1\n      pop\n        /* \"--CODEGEN--\":13179:13250   */\n      tag_277\n        /* \"--CODEGEN--\":13247:13248   */\n      0x00\n        /* \"--CODEGEN--\":13236:13245   */\n      dup4\n        /* \"--CODEGEN--\":13232:13249   */\n      add\n        /* \"--CODEGEN--\":13223:13229   */\n      dup5\n        /* \"--CODEGEN--\":13179:13250   */\n      jump(tag_254)\n    tag_277:\n        /* \"--CODEGEN--\":13136:13260   */\n      swap3\n      swap2\n      pop\n      pop\n      jump\n        /* \"--CODEGEN--\":13267:13414   */\n    tag_212:\n      0x00\n        /* \"--CODEGEN--\":13349:13352   */\n      dup2\n        /* \"--CODEGEN--\":13341:13352   */\n      swap1\n      pop\n        /* \"--CODEGEN--\":13387:13391   */\n      0x20\n        /* \"--CODEGEN--\":13382:13385   */\n      dup3\n        /* \"--CODEGEN--\":13378:13392   */\n      add\n        /* \"--CODEGEN--\":13370:13392   */\n      swap1\n      pop\n        /* \"--CODEGEN--\":13335:13414   */\n      swap2\n      swap1\n      pop\n      jump\n        /* \"--CODEGEN--\":13421:13593   */\n    tag_225:\n      0x00\n        /* \"--CODEGEN--\":13528:13531   */\n      dup2\n        /* \"--CODEGEN--\":13520:13531   */\n      swap1\n      pop\n        /* \"--CODEGEN--\":13566:13570   */\n      0x20\n        /* \"--CODEGEN--\":13561:13564   */\n      dup3\n        /* \"--CODEGEN--\":13557:13571   */\n      add\n        /* \"--CODEGEN--\":13549:13571   */\n      swap1\n      pop\n        /* \"--CODEGEN--\":13514:13593   */\n      swap2\n      swap1\n      pop\n      jump\n        /* \"--CODEGEN--\":13600:13733   */\n    tag_208:\n      0x00\n        /* \"--CODEGEN--\":13705:13710   */\n      dup2\n        /* \"--CODEGEN--\":13699:13711   */\n      mload\n        /* \"--CODEGEN--\":13689:13711   */\n      swap1\n      pop\n        /* \"--CODEGEN--\":13670:13733   */\n      swap2\n      swap1\n      pop\n      jump\n        /* \"--CODEGEN--\":13740:13898   */\n    tag_221:\n      0x00\n        /* \"--CODEGEN--\":13870:13875   */\n      dup2\n        /* \"--CODEGEN--\":13864:13876   */\n      mload\n        /* \"--CODEGEN--\":13854:13876   */\n      swap1\n      pop\n        /* \"--CODEGEN--\":13835:13898   */\n      swap2\n      swap1\n      pop\n      jump\n        /* \"--CODEGEN--\":13905:14009   */\n    tag_218:\n      0x00\n        /* \"--CODEGEN--\":13999:14003   */\n      0x20\n        /* \"--CODEGEN--\":13994:13997   */\n      dup3\n        /* \"--CODEGEN--\":13990:14004   */\n      add\n        /* \"--CODEGEN--\":13982:14004   */\n      swap1\n      pop\n        /* \"--CODEGEN--\":13976:14009   */\n      swap2\n      swap1\n      pop\n      jump\n        /* \"--CODEGEN--\":14016:14145   */\n    tag_231:\n      0x00\n        /* \"--CODEGEN--\":14135:14139   */\n      0x20\n        /* \"--CODEGEN--\":14130:14133   */\n      dup3\n        /* \"--CODEGEN--\":14126:14140   */\n      add\n        /* \"--CODEGEN--\":14118:14140   */\n      swap1\n      pop\n        /* \"--CODEGEN--\":14112:14145   */\n      swap2\n      swap1\n      pop\n      jump\n        /* \"--CODEGEN--\":14153:14321   */\n    tag_210:\n      0x00\n        /* \"--CODEGEN--\":14273:14279   */\n      dup3\n        /* \"--CODEGEN--\":14268:14271   */\n      dup3\n        /* \"--CODEGEN--\":14261:14280   */\n      mstore\n        /* \"--CODEGEN--\":14310:14314   */\n      0x20\n        /* \"--CODEGEN--\":14305:14308   */\n      dup3\n        /* \"--CODEGEN--\":14301:14315   */\n      add\n        /* \"--CODEGEN--\":14286:14315   */\n      swap1\n      pop\n        /* \"--CODEGEN--\":14254:14321   */\n      swap3\n      swap2\n      pop\n      pop\n      jump\n        /* \"--CODEGEN--\":14330:14529   */\n    tag_223:\n      0x00\n        /* \"--CODEGEN--\":14481:14487   */\n      dup3\n        /* \"--CODEGEN--\":14476:14479   */\n      dup3\n        /* \"--CODEGEN--\":14469:14488   */\n      mstore\n        /* \"--CODEGEN--\":14518:14522   */\n      0x20\n        /* \"--CODEGEN--\":14513:14516   */\n      dup3\n        /* \"--CODEGEN--\":14509:14523   */\n      add\n        /* \"--CODEGEN--\":14494:14523   */\n      swap1\n      pop\n        /* \"--CODEGEN--\":14462:14529   */\n      swap3\n      swap2\n      pop\n      pop\n      jump\n        /* \"--CODEGEN--\":14538:14701   */\n    tag_237:\n      0x00\n        /* \"--CODEGEN--\":14653:14659   */\n      dup3\n        /* \"--CODEGEN--\":14648:14651   */\n      dup3\n        /* \"--CODEGEN--\":14641:14660   */\n      mstore\n        /* \"--CODEGEN--\":14690:14694   */\n      0x20\n        /* \"--CODEGEN--\":14685:14688   */\n      dup3\n        /* \"--CODEGEN--\":14681:14695   */\n      add\n        /* \"--CODEGEN--\":14666:14695   */\n      swap1\n      pop\n        /* \"--CODEGEN--\":14634:14701   */\n      swap3\n      swap2\n      pop\n      pop\n      jump\n        /* \"--CODEGEN--\":14709:14800   */\n    tag_203:\n      0x00\n        /* \"--CODEGEN--\":14771:14795   */\n      tag_278\n        /* \"--CODEGEN--\":14789:14794   */\n      dup3\n        /* \"--CODEGEN--\":14771:14795   */\n      jump(tag_279)\n    tag_278:\n        /* \"--CODEGEN--\":14760:14795   */\n      swap1\n      pop\n        /* \"--CODEGEN--\":14754:14800   */\n      swap2\n      swap1\n      pop\n      jump\n        /* \"--CODEGEN--\":14807:14906   */\n    tag_201:\n      0x00\n        /* \"--CODEGEN--\":14877:14901   */\n      tag_280\n        /* \"--CODEGEN--\":14895:14900   */\n      dup3\n        /* \"--CODEGEN--\":14877:14901   */\n      jump(tag_279)\n    tag_280:\n        /* \"--CODEGEN--\":14866:14901   */\n      swap1\n      pop\n        /* \"--CODEGEN--\":14860:14906   */\n      swap2\n      swap1\n      pop\n      jump\n        /* \"--CODEGEN--\":14913:14998   */\n    tag_234:\n      0x00\n        /* \"--CODEGEN--\":14986:14991   */\n      dup2\n        /* \"--CODEGEN--\":14979:14992   */\n      iszero\n        /* \"--CODEGEN--\":14972:14993   */\n      iszero\n        /* \"--CODEGEN--\":14961:14993   */\n      swap1\n      pop\n        /* \"--CODEGEN--\":14955:14998   */\n      swap2\n      swap1\n      pop\n      jump\n        /* \"--CODEGEN--\":15005:15089   */\n    tag_251:\n      0x00\n        /* \"--CODEGEN--\":15077:15083   */\n      0xffff\n        /* \"--CODEGEN--\":15070:15075   */\n      dup3\n        /* \"--CODEGEN--\":15066:15084   */\n      and\n        /* \"--CODEGEN--\":15055:15084   */\n      swap1\n      pop\n        /* \"--CODEGEN--\":15049:15089   */\n      swap2\n      swap1\n      pop\n      jump\n        /* \"--CODEGEN--\":15096:15217   */\n    tag_279:\n      0x00\n        /* \"--CODEGEN--\":15169:15211   */\n      0xffffffffffffffffffffffffffffffffffffffff\n        /* \"--CODEGEN--\":15162:15167   */\n      dup3\n        /* \"--CODEGEN--\":15158:15212   */\n      and\n        /* \"--CODEGEN--\":15147:15212   */\n      swap1\n      pop\n        /* \"--CODEGEN--\":15141:15217   */\n      swap2\n      swap1\n      pop\n      jump\n        /* \"--CODEGEN--\":15224:15296   */\n    tag_253:\n      0x00\n        /* \"--CODEGEN--\":15286:15291   */\n      dup2\n        /* \"--CODEGEN--\":15275:15291   */\n      swap1\n      pop\n        /* \"--CODEGEN--\":15269:15296   */\n      swap2\n      swap1\n      pop\n      jump\n        /* \"--CODEGEN--\":15303:15420   */\n    tag_166:\n        /* \"--CODEGEN--\":15372:15396   */\n      tag_281\n        /* \"--CODEGEN--\":15390:15395   */\n      dup2\n        /* \"--CODEGEN--\":15372:15396   */\n      jump(tag_203)\n    tag_281:\n        /* \"--CODEGEN--\":15365:15370   */\n      dup2\n        /* \"--CODEGEN--\":15362:15397   */\n      eq\n        /* \"--CODEGEN--\":15352:15354   */\n      tag_282\n      jumpi\n        /* \"--CODEGEN--\":15411:15412   */\n      0x00\n        /* \"--CODEGEN--\":15408:15409   */\n      dup1\n        /* \"--CODEGEN--\":15401:15413   */\n      revert\n        /* \"--CODEGEN--\":15352:15354   */\n    tag_282:\n        /* \"--CODEGEN--\":15346:15420   */\n      pop\n      jump\n        /* \"--CODEGEN--\":15427:15542   */\n    tag_169:\n        /* \"--CODEGEN--\":15495:15518   */\n      tag_283\n        /* \"--CODEGEN--\":15512:15517   */\n      dup2\n        /* \"--CODEGEN--\":15495:15518   */\n      jump(tag_251)\n    tag_283:\n        /* \"--CODEGEN--\":15488:15493   */\n      dup2\n        /* \"--CODEGEN--\":15485:15519   */\n      eq\n        /* \"--CODEGEN--\":15475:15477   */\n      tag_284\n      jumpi\n        /* \"--CODEGEN--\":15533:15534   */\n      0x00\n        /* \"--CODEGEN--\":15530:15531   */\n      dup1\n        /* \"--CODEGEN--\":15523:15535   */\n      revert\n        /* \"--CODEGEN--\":15475:15477   */\n    tag_284:\n        /* \"--CODEGEN--\":15469:15542   */\n      pop\n      jump\n        /* \"--CODEGEN--\":15549:15666   */\n    tag_172:\n        /* \"--CODEGEN--\":15618:15642   */\n      tag_285\n        /* \"--CODEGEN--\":15636:15641   */\n      dup2\n        /* \"--CODEGEN--\":15618:15642   */\n      jump(tag_253)\n    tag_285:\n        /* \"--CODEGEN--\":15611:15616   */\n      dup2\n        /* \"--CODEGEN--\":15608:15643   */\n      eq\n        /* \"--CODEGEN--\":15598:15600   */\n      tag_286\n      jumpi\n        /* \"--CODEGEN--\":15657:15658   */\n      0x00\n        /* \"--CODEGEN--\":15654:15655   */\n      dup1\n        /* \"--CODEGEN--\":15647:15659   */\n      revert\n        /* \"--CODEGEN--\":15598:15600   */\n    tag_286:\n        /* \"--CODEGEN--\":15592:15666   */\n      pop\n      jump\n\n    auxdata: 0xa365627a7a723158202493045f444c4240e8a5c86e6784a1e7aac50afccb72ccd09446ba141eeac69d6c6578706572696d656e74616cf564736f6c63430005110040\n}\n",
				"bytecode": {
					"linkReferences": {},
					"object": "6080604052336000806101000a81548173ffffffffffffffffffffffffffffffffffffffff021916908373ffffffffffffffffffffffffffffffffffffffff1602179055506116ed806100536000396000f3fe608060405234801561001057600080fd5b506004361061012c5760003560e01c8063c1a8bdbc116100ad578063f09856f311610071578063f09856f31461031c578063f26f84941461034d578063f2fde38b1461036b578063f5a0c9b814610387578063f7f17488146103a35761012c565b8063c1a8bdbc14610276578063c52ea52e14610292578063d2abc517146102b0578063d3c9080a146102ce578063d4739cca146102ec5761012c565b80636d036535116100f45780636d036535146101e05780637f494852146101fe5780638bae5f4f1461021c5780638da5cb5b1461023a5780638f32d59b146102585761012c565b80630af88b24146101315780633b58524d1461014f57806344f91c1e1461016b57806345ce7db9146101a457806365e4e1c0146101c2575b600080fd5b6101396103c1565b6040516101469190611385565b60405180910390f35b61016960048036036101649190810190610f4a565b6103e7565b005b61018560048036036101809190810190610ffd565b6104b4565b60405161019b9a999897969594939291906113a0565b60405180910390f35b6101ac610582565b6040516101b99190611385565b60405180910390f35b6101ca6105a8565b6040516101d79190611465565b60405180910390f35b6101e861066a565b6040516101f59190611522565b60405180910390f35b610206610712565b604051610213919061155f565b60405180910390f35b610224610718565b6040516102319190611385565b60405180910390f35b61024261073e565b60405161024f9190611385565b60405180910390f35b610260610767565b60405161026d9190611487565b60405180910390f35b610290600480360361028b9190810190610f86565b6107be565b005b61029a610a65565b6040516102a79190611544565b60405180910390f35b6102b8610a79565b6040516102c59190611544565b60405180910390f35b6102d6610a8d565b6040516102e39190611465565b60405180910390f35b61030660048036036103019190810190610f21565b610b4f565b6040516103139190611465565b60405180910390f35b61033660048036036103319190810190611039565b610c50565b60405161034492919061143c565b60405180910390f35b610355610cae565b6040516103629190611544565b60405180910390f35b61038560048036036103809190810190610f21565b610cc2565b005b6103a1600480360361039c9190810190611088565b610dbc565b005b6103ab610e0d565b6040516103b89190611465565b60405180910390f35b600b60009054906101000a900473ffffffffffffffffffffffffffffffffffffffff1681565b6103ef610767565b61042e576040517f08c379a000000000000000000000000000000000000000000000000000000000815260040161042590611502565b60405180910390fd5b81600b60006101000a81548173ffffffffffffffffffffffffffffffffffffffff021916908373ffffffffffffffffffffffffffffffffffffffff16021790555080600c60006101000a81548173ffffffffffffffffffffffffffffffffffffffff021916908373ffffffffffffffffffffffffffffffffffffffff1602179055505050565b6007602052816000526040600020602052806000526040600020600091509150508060000160009054906101000a900473ffffffffffffffffffffffffffffffffffffffff16908060010154908060020160009054906101000a900473ffffffffffffffffffffffffffffffffffffffff16908060030154908060040154908060050154908060060160009054906101000a900460ff16908060070154908060080154908060090160009054906101000a900473ffffffffffffffffffffffffffffffffffffffff1690508a565b600c60009054906101000a900473ffffffffffffffffffffffffffffffffffffffff1681565b60606009600001805480602002602001604051908101604052809291908181526020016000905b8282101561066157838290600052602060002090600202016040518060400160405290816000820160009054906101000a900473ffffffffffffffffffffffffffffffffffffffff1673ffffffffffffffffffffffffffffffffffffffff1673ffffffffffffffffffffffffffffffffffffffff168152602001600182015481525050815260200190600101906105cf565b50505050905090565b610672610ecf565b600a6040518060200160405290816000820180548060200260200160405190810160405280929190818152602001828054801561070457602002820191906000526020600020905b8160009054906101000a900473ffffffffffffffffffffffffffffffffffffffff1673ffffffffffffffffffffffffffffffffffffffff16815260200190600101908083116106ba575b505050505081525050905090565b60015481565b600d60009054906101000a900473ffffffffffffffffffffffffffffffffffffffff1681565b60008060009054906101000a900473ffffffffffffffffffffffffffffffffffffffff16905090565b60008060009054906101000a900473ffffffffffffffffffffffffffffffffffffffff1673ffffffffffffffffffffffffffffffffffffffff163373ffffffffffffffffffffffffffffffffffffffff1614905090565b6107c6610767565b610805576040517f08c379a00000000000000000000000000000000000000000000000000000000081526004016107fc90611502565b60405180910390fd5b600073ffffffffffffffffffffffffffffffffffffffff168573ffffffffffffffffffffffffffffffffffffffff161415801561086f5750600073ffffffffffffffffffffffffffffffffffffffff168473ffffffffffffffffffffffffffffffffffffffff1614155b6108ae576040517f08c379a00000000000000000000000000000000000000000000000000000000081526004016108a5906114c2565b60405180910390fd5b60008261ffff16101580156108c8575060008161ffff1610155b80156108d9575060008361ffff1610155b610918576040517f08c379a000000000000000000000000000000000000000000000000000000000815260040161090f906114e2565b60405180910390fd5b6103e88261ffff161115801561093457506103e88161ffff1611155b801561094657506103e88361ffff1611155b610985576040517f08c379a000000000000000000000000000000000000000000000000000000000815260040161097c906114e2565b60405180910390fd5b81600060146101000a81548161ffff021916908361ffff16021790555080600060166101000a81548161ffff021916908361ffff16021790555082600060186101000a81548161ffff021916908361ffff16021790555084600c60006101000a81548173ffffffffffffffffffffffffffffffffffffffff021916908373ffffffffffffffffffffffffffffffffffffffff16021790555083600d60006101000a81548173ffffffffffffffffffffffffffffffffffffffff021916908373ffffffffffffffffffffffffffffffffffffffff1602179055505050505050565b600060149054906101000a900461ffff1681565b600060189054906101000a900461ffff1681565b60606004600001805480602002602001604051908101604052809291908181526020016000905b82821015610b4657838290600052602060002090600202016040518060400160405290816000820160009054906101000a900473ffffffffffffffffffffffffffffffffffffffff1673ffffffffffffffffffffffffffffffffffffffff1673ffffffffffffffffffffffffffffffffffffffff16815260200160018201548152505081526020019060010190610ab4565b50505050905090565b6060600360008373ffffffffffffffffffffffffffffffffffffffff1673ffffffffffffffffffffffffffffffffffffffff168152602001908152602001600020600001805480602002602001604051908101604052809291908181526020016000905b82821015610c4557838290600052602060002090600202016040518060400160405290816000820160009054906101000a900473ffffffffffffffffffffffffffffffffffffffff1673ffffffffffffffffffffffffffffffffffffffff1673ffffffffffffffffffffffffffffffffffffffff16815260200160018201548152505081526020019060010190610bb3565b505050509050919050565b600660205282600052604060002060205281600052604060002060205280600052604060002060009250925050508060000160009054906101000a900473ffffffffffffffffffffffffffffffffffffffff16908060010154905082565b600060169054906101000a900461ffff1681565b610cca610767565b610d09576040517f08c379a0000000000000000000000000000000000000000000000000000000008152600401610d0090611502565b60405180910390fd5b600073ffffffffffffffffffffffffffffffffffffffff168173ffffffffffffffffffffffffffffffffffffffff161415610d79576040517f08c379a0000000000000000000000000000000000000000000000000000000008152600401610d70906114a2565b60405180910390fd5b806000806101000a81548173ffffffffffffffffffffffffffffffffffffffff021916908373ffffffffffffffffffffffffffffffffffffffff16021790555050565b610dc4610767565b610e03576040517f08c379a0000000000000000000000000000000000000000000000000000000008152600401610dfa90611502565b60405180910390fd5b8060018190555050565b60606005600001805480602002602001604051908101604052809291908181526020016000905b82821015610ec657838290600052602060002090600202016040518060400160405290816000820160009054906101000a900473ffffffffffffffffffffffffffffffffffffffff1673ffffffffffffffffffffffffffffffffffffffff1673ffffffffffffffffffffffffffffffffffffffff16815260200160018201548152505081526020019060010190610e34565b50505050905090565b6040518060200160405280606081525090565b600081359050610ef181611665565b92915050565b600081359050610f068161167c565b92915050565b600081359050610f1b81611693565b92915050565b600060208284031215610f3357600080fd5b6000610f4184828501610ee2565b91505092915050565b60008060408385031215610f5d57600080fd5b6000610f6b85828601610ee2565b9250506020610f7c85828601610ee2565b9150509250929050565b600080600080600060a08688031215610f9e57600080fd5b6000610fac88828901610ee2565b9550506020610fbd88828901610ee2565b9450506040610fce88828901610ef7565b9350506060610fdf88828901610ef7565b9250506080610ff088828901610ef7565b9150509295509295909350565b6000806040838503121561101057600080fd5b600061101e85828601610ee2565b925050602061102f85828601610f0c565b9150509250929050565b60008060006060848603121561104e57600080fd5b600061105c86828701610ee2565b935050602061106d86828701610f0c565b925050604061107e86828701610ee2565b9150509250925092565b60006020828403121561109a57600080fd5b60006110a884828501610f0c565b91505092915050565b60006110bd83836110f0565b60208301905092915050565b60006110d583836112ff565b60408301905092915050565b6110ea8161160f565b82525050565b6110f9816115fd565b82525050565b611108816115fd565b82525050565b60006111198261159a565b61112381856115ca565b935061112e8361157a565b8060005b8381101561115f57815161114688826110b1565b9750611151836115b0565b925050600181019050611132565b5085935050505092915050565b6000611177826115a5565b61118181856115db565b935061118c8361158a565b8060005b838110156111bd5781516111a488826110c9565b97506111af836115bd565b925050600181019050611190565b5085935050505092915050565b6111d381611621565b82525050565b60006111e66026836115ec565b91507f4f776e61626c653a206e6577206f776e657220697320746865207a65726f206160008301527f64647265737300000000000000000000000000000000000000000000000000006020830152604082019050919050565b600061124c600f836115ec565b91507f41646472657373206973205a65726f00000000000000000000000000000000006000830152602082019050919050565b600061128c601b836115ec565b91507f73686f756c642062652067726561746572207468616e207a65726f00000000006000830152602082019050919050565b60006112cc6020836115ec565b91507f4f776e61626c653a2063616c6c6572206973206e6f7420746865206f776e65726000830152602082019050919050565b60408201600082015161131560008501826110f0565b5060208201516113286020850182611367565b50505050565b6000602083016000830151848203600086015261134b828261110e565b9150508091505092915050565b6113618161162d565b82525050565b6113708161165b565b82525050565b61137f8161165b565b82525050565b600060208201905061139a60008301846110ff565b92915050565b6000610140820190506113b6600083018d6110e1565b6113c3602083018c611376565b6113d0604083018b6110e1565b6113dd606083018a611376565b6113ea6080830189611376565b6113f760a0830188611376565b61140460c08301876111ca565b61141160e0830186611376565b61141f610100830185611376565b61142d6101208301846110ff565b9b9a5050505050505050505050565b600060408201905061145160008301856110ff565b61145e6020830184611376565b9392505050565b6000602082019050818103600083015261147f818461116c565b905092915050565b600060208201905061149c60008301846111ca565b92915050565b600060208201905081810360008301526114bb816111d9565b9050919050565b600060208201905081810360008301526114db8161123f565b9050919050565b600060208201905081810360008301526114fb8161127f565b9050919050565b6000602082019050818103600083015261151b816112bf565b9050919050565b6000602082019050818103600083015261153c818461132e565b905092915050565b60006020820190506115596000830184611358565b92915050565b60006020820190506115746000830184611376565b92915050565b6000819050602082019050919050565b6000819050602082019050919050565b600081519050919050565b600081519050919050565b6000602082019050919050565b6000602082019050919050565b600082825260208201905092915050565b600082825260208201905092915050565b600082825260208201905092915050565b60006116088261163b565b9050919050565b600061161a8261163b565b9050919050565b60008115159050919050565b600061ffff82169050919050565b600073ffffffffffffffffffffffffffffffffffffffff82169050919050565b6000819050919050565b61166e816115fd565b811461167957600080fd5b50565b6116858161162d565b811461169057600080fd5b50565b61169c8161165b565b81146116a757600080fd5b5056fea365627a7a723158202493045f444c4240e8a5c86e6784a1e7aac50afccb72ccd09446ba141eeac69d6c6578706572696d656e74616cf564736f6c63430005110040",
					"opcodes": "PUSH1 0x80 PUSH1 0x40 MSTORE CALLER PUSH1 0x0 DUP1 PUSH2 0x100 EXP DUP2 SLOAD DUP2 PUSH20 0xFFFFFFFFFFFFFFFFFFFFFFFFFFFFFFFFFFFFFFFF MUL NOT AND SWAP1 DUP4 PUSH20 0xFFFFFFFFFFFFFFFFFFFFFFFFFFFFFFFFFFFFFFFF AND MUL OR SWAP1 SSTORE POP PUSH2 0x16ED DUP1 PUSH2 0x53 PUSH1 0x0 CODECOPY PUSH1 0x0 RETURN INVALID PUSH1 0x80 PUSH1 0x40 MSTORE CALLVALUE DUP1 ISZERO PUSH2 0x10 JUMPI PUSH1 0x0 DUP1 REVERT JUMPDEST POP PUSH1 0x4 CALLDATASIZE LT PUSH2 0x12C JUMPI PUSH1 0x0 CALLDATALOAD PUSH1 0xE0 SHR DUP1 PUSH4 0xC1A8BDBC GT PUSH2 0xAD JUMPI DUP1 PUSH4 0xF09856F3 GT PUSH2 0x71 JUMPI DUP1 PUSH4 0xF09856F3 EQ PUSH2 0x31C JUMPI DUP1 PUSH4 0xF26F8494 EQ PUSH2 0x34D JUMPI DUP1 PUSH4 0xF2FDE38B EQ PUSH2 0x36B JUMPI DUP1 PUSH4 0xF5A0C9B8 EQ PUSH2 0x387 JUMPI DUP1 PUSH4 0xF7F17488 EQ PUSH2 0x3A3 JUMPI PUSH2 0x12C JUMP JUMPDEST DUP1 PUSH4 0xC1A8BDBC EQ PUSH2 0x276 JUMPI DUP1 PUSH4 0xC52EA52E EQ PUSH2 0x292 JUMPI DUP1 PUSH4 0xD2ABC517 EQ PUSH2 0x2B0 JUMPI DUP1 PUSH4 0xD3C9080A EQ PUSH2 0x2CE JUMPI DUP1 PUSH4 0xD4739CCA EQ PUSH2 0x2EC JUMPI PUSH2 0x12C JUMP JUMPDEST DUP1 PUSH4 0x6D036535 GT PUSH2 0xF4 JUMPI DUP1 PUSH4 0x6D036535 EQ PUSH2 0x1E0 JUMPI DUP1 PUSH4 0x7F494852 EQ PUSH2 0x1FE JUMPI DUP1 PUSH4 0x8BAE5F4F EQ PUSH2 0x21C JUMPI DUP1 PUSH4 0x8DA5CB5B EQ PUSH2 0x23A JUMPI DUP1 PUSH4 0x8F32D59B EQ PUSH2 0x258 JUMPI PUSH2 0x12C JUMP JUMPDEST DUP1 PUSH4 0xAF88B24 EQ PUSH2 0x131 JUMPI DUP1 PUSH4 0x3B58524D EQ PUSH2 0x14F JUMPI DUP1 PUSH4 0x44F91C1E EQ PUSH2 0x16B JUMPI DUP1 PUSH4 0x45CE7DB9 EQ PUSH2 0x1A4 JUMPI DUP1 PUSH4 0x65E4E1C0 EQ PUSH2 0x1C2 JUMPI JUMPDEST PUSH1 0x0 DUP1 REVERT JUMPDEST PUSH2 0x139 PUSH2 0x3C1 JUMP JUMPDEST PUSH1 0x40 MLOAD PUSH2 0x146 SWAP2 SWAP1 PUSH2 0x1385 JUMP JUMPDEST PUSH1 0x40 MLOAD DUP1 SWAP2 SUB SWAP1 RETURN JUMPDEST PUSH2 0x169 PUSH1 0x4 DUP1 CALLDATASIZE SUB PUSH2 0x164 SWAP2 SWAP1 DUP2 ADD SWAP1 PUSH2 0xF4A JUMP JUMPDEST PUSH2 0x3E7 JUMP JUMPDEST STOP JUMPDEST PUSH2 0x185 PUSH1 0x4 DUP1 CALLDATASIZE SUB PUSH2 0x180 SWAP2 SWAP1 DUP2 ADD SWAP1 PUSH2 0xFFD JUMP JUMPDEST PUSH2 0x4B4 JUMP JUMPDEST PUSH1 0x40 MLOAD PUSH2 0x19B SWAP11 SWAP10 SWAP9 SWAP8 SWAP7 SWAP6 SWAP5 SWAP4 SWAP3 SWAP2 SWAP1 PUSH2 0x13A0 JUMP JUMPDEST PUSH1 0x40 MLOAD DUP1 SWAP2 SUB SWAP1 RETURN JUMPDEST PUSH2 0x1AC PUSH2 0x582 JUMP JUMPDEST PUSH1 0x40 MLOAD PUSH2 0x1B9 SWAP2 SWAP1 PUSH2 0x1385 JUMP JUMPDEST PUSH1 0x40 MLOAD DUP1 SWAP2 SUB SWAP1 RETURN JUMPDEST PUSH2 0x1CA PUSH2 0x5A8 JUMP JUMPDEST PUSH1 0x40 MLOAD PUSH2 0x1D7 SWAP2 SWAP1 PUSH2 0x1465 JUMP JUMPDEST PUSH1 0x40 MLOAD DUP1 SWAP2 SUB SWAP1 RETURN JUMPDEST PUSH2 0x1E8 PUSH2 0x66A JUMP JUMPDEST PUSH1 0x40 MLOAD PUSH2 0x1F5 SWAP2 SWAP1 PUSH2 0x1522 JUMP JUMPDEST PUSH1 0x40 MLOAD DUP1 SWAP2 SUB SWAP1 RETURN JUMPDEST PUSH2 0x206 PUSH2 0x712 JUMP JUMPDEST PUSH1 0x40 MLOAD PUSH2 0x213 SWAP2 SWAP1 PUSH2 0x155F JUMP JUMPDEST PUSH1 0x40 MLOAD DUP1 SWAP2 SUB SWAP1 RETURN JUMPDEST PUSH2 0x224 PUSH2 0x718 JUMP JUMPDEST PUSH1 0x40 MLOAD PUSH2 0x231 SWAP2 SWAP1 PUSH2 0x1385 JUMP JUMPDEST PUSH1 0x40 MLOAD DUP1 SWAP2 SUB SWAP1 RETURN JUMPDEST PUSH2 0x242 PUSH2 0x73E JUMP JUMPDEST PUSH1 0x40 MLOAD PUSH2 0x24F SWAP2 SWAP1 PUSH2 0x1385 JUMP JUMPDEST PUSH1 0x40 MLOAD DUP1 SWAP2 SUB SWAP1 RETURN JUMPDEST PUSH2 0x260 PUSH2 0x767 JUMP JUMPDEST PUSH1 0x40 MLOAD PUSH2 0x26D SWAP2 SWAP1 PUSH2 0x1487 JUMP JUMPDEST PUSH1 0x40 MLOAD DUP1 SWAP2 SUB SWAP1 RETURN JUMPDEST PUSH2 0x290 PUSH1 0x4 DUP1 CALLDATASIZE SUB PUSH2 0x28B SWAP2 SWAP1 DUP2 ADD SWAP1 PUSH2 0xF86 JUMP JUMPDEST PUSH2 0x7BE JUMP JUMPDEST STOP JUMPDEST PUSH2 0x29A PUSH2 0xA65 JUMP JUMPDEST PUSH1 0x40 MLOAD PUSH2 0x2A7 SWAP2 SWAP1 PUSH2 0x1544 JUMP JUMPDEST PUSH1 0x40 MLOAD DUP1 SWAP2 SUB SWAP1 RETURN JUMPDEST PUSH2 0x2B8 PUSH2 0xA79 JUMP JUMPDEST PUSH1 0x40 MLOAD PUSH2 0x2C5 SWAP2 SWAP1 PUSH2 0x1544 JUMP JUMPDEST PUSH1 0x40 MLOAD DUP1 SWAP2 SUB SWAP1 RETURN JUMPDEST PUSH2 0x2D6 PUSH2 0xA8D JUMP JUMPDEST PUSH1 0x40 MLOAD PUSH2 0x2E3 SWAP2 SWAP1 PUSH2 0x1465 JUMP JUMPDEST PUSH1 0x40 MLOAD DUP1 SWAP2 SUB SWAP1 RETURN JUMPDEST PUSH2 0x306 PUSH1 0x4 DUP1 CALLDATASIZE SUB PUSH2 0x301 SWAP2 SWAP1 DUP2 ADD SWAP1 PUSH2 0xF21 JUMP JUMPDEST PUSH2 0xB4F JUMP JUMPDEST PUSH1 0x40 MLOAD PUSH2 0x313 SWAP2 SWAP1 PUSH2 0x1465 JUMP JUMPDEST PUSH1 0x40 MLOAD DUP1 SWAP2 SUB SWAP1 RETURN JUMPDEST PUSH2 0x336 PUSH1 0x4 DUP1 CALLDATASIZE SUB PUSH2 0x331 SWAP2 SWAP1 DUP2 ADD SWAP1 PUSH2 0x1039 JUMP JUMPDEST PUSH2 0xC50 JUMP JUMPDEST PUSH1 0x40 MLOAD PUSH2 0x344 SWAP3 SWAP2 SWAP1 PUSH2 0x143C JUMP JUMPDEST PUSH1 0x40 MLOAD DUP1 SWAP2 SUB SWAP1 RETURN JUMPDEST PUSH2 0x355 PUSH2 0xCAE JUMP JUMPDEST PUSH1 0x40 MLOAD PUSH2 0x362 SWAP2 SWAP1 PUSH2 0x1544 JUMP JUMPDEST PUSH1 0x40 MLOAD DUP1 SWAP2 SUB SWAP1 RETURN JUMPDEST PUSH2 0x385 PUSH1 0x4 DUP1 CALLDATASIZE SUB PUSH2 0x380 SWAP2 SWAP1 DUP2 ADD SWAP1 PUSH2 0xF21 JUMP JUMPDEST PUSH2 0xCC2 JUMP JUMPDEST STOP JUMPDEST PUSH2 0x3A1 PUSH1 0x4 DUP1 CALLDATASIZE SUB PUSH2 0x39C SWAP2 SWAP1 DUP2 ADD SWAP1 PUSH2 0x1088 JUMP JUMPDEST PUSH2 0xDBC JUMP JUMPDEST STOP JUMPDEST PUSH2 0x3AB PUSH2 0xE0D JUMP JUMPDEST PUSH1 0x40 MLOAD PUSH2 0x3B8 SWAP2 SWAP1 PUSH2 0x1465 JUMP JUMPDEST PUSH1 0x40 MLOAD DUP1 SWAP2 SUB SWAP1 RETURN JUMPDEST PUSH1 0xB PUSH1 0x0 SWAP1 SLOAD SWAP1 PUSH2 0x100 EXP SWAP1 DIV PUSH20 0xFFFFFFFFFFFFFFFFFFFFFFFFFFFFFFFFFFFFFFFF AND DUP2 JUMP JUMPDEST PUSH2 0x3EF PUSH2 0x767 JUMP JUMPDEST PUSH2 0x42E JUMPI PUSH1 0x40 MLOAD PUSH32 0x8C379A000000000000000000000000000000000000000000000000000000000 DUP2 MSTORE PUSH1 0x4 ADD PUSH2 0x425 SWAP1 PUSH2 0x1502 JUMP JUMPDEST PUSH1 0x40 MLOAD DUP1 SWAP2 SUB SWAP1 REVERT JUMPDEST DUP2 PUSH1 0xB PUSH1 0x0 PUSH2 0x100 EXP DUP2 SLOAD DUP2 PUSH20 0xFFFFFFFFFFFFFFFFFFFFFFFFFFFFFFFFFFFFFFFF MUL NOT AND SWAP1 DUP4 PUSH20 0xFFFFFFFFFFFFFFFFFFFFFFFFFFFFFFFFFFFFFFFF AND MUL OR SWAP1 SSTORE POP DUP1 PUSH1 0xC PUSH1 0x0 PUSH2 0x100 EXP DUP2 SLOAD DUP2 PUSH20 0xFFFFFFFFFFFFFFFFFFFFFFFFFFFFFFFFFFFFFFFF MUL NOT AND SWAP1 DUP4 PUSH20 0xFFFFFFFFFFFFFFFFFFFFFFFFFFFFFFFFFFFFFFFF AND MUL OR SWAP1 SSTORE POP POP POP JUMP JUMPDEST PUSH1 0x7 PUSH1 0x20 MSTORE DUP2 PUSH1 0x0 MSTORE PUSH1 0x40 PUSH1 0x0 KECCAK256 PUSH1 0x20 MSTORE DUP1 PUSH1 0x0 MSTORE PUSH1 0x40 PUSH1 0x0 KECCAK256 PUSH1 0x0 SWAP2 POP SWAP2 POP POP DUP1 PUSH1 0x0 ADD PUSH1 0x0 SWAP1 SLOAD SWAP1 PUSH2 0x100 EXP SWAP1 DIV PUSH20 0xFFFFFFFFFFFFFFFFFFFFFFFFFFFFFFFFFFFFFFFF AND SWAP1 DUP1 PUSH1 0x1 ADD SLOAD SWAP1 DUP1 PUSH1 0x2 ADD PUSH1 0x0 SWAP1 SLOAD SWAP1 PUSH2 0x100 EXP SWAP1 DIV PUSH20 0xFFFFFFFFFFFFFFFFFFFFFFFFFFFFFFFFFFFFFFFF AND SWAP1 DUP1 PUSH1 0x3 ADD SLOAD SWAP1 DUP1 PUSH1 0x4 ADD SLOAD SWAP1 DUP1 PUSH1 0x5 ADD SLOAD SWAP1 DUP1 PUSH1 0x6 ADD PUSH1 0x0 SWAP1 SLOAD SWAP1 PUSH2 0x100 EXP SWAP1 DIV PUSH1 0xFF AND SWAP1 DUP1 PUSH1 0x7 ADD SLOAD SWAP1 DUP1 PUSH1 0x8 ADD SLOAD SWAP1 DUP1 PUSH1 0x9 ADD PUSH1 0x0 SWAP1 SLOAD SWAP1 PUSH2 0x100 EXP SWAP1 DIV PUSH20 0xFFFFFFFFFFFFFFFFFFFFFFFFFFFFFFFFFFFFFFFF AND SWAP1 POP DUP11 JUMP JUMPDEST PUSH1 0xC PUSH1 0x0 SWAP1 SLOAD SWAP1 PUSH2 0x100 EXP SWAP1 DIV PUSH20 0xFFFFFFFFFFFFFFFFFFFFFFFFFFFFFFFFFFFFFFFF AND DUP2 JUMP JUMPDEST PUSH1 0x60 PUSH1 0x9 PUSH1 0x0 ADD DUP1 SLOAD DUP1 PUSH1 0x20 MUL PUSH1 0x20 ADD PUSH1 0x40 MLOAD SWAP1 DUP2 ADD PUSH1 0x40 MSTORE DUP1 SWAP3 SWAP2 SWAP1 DUP2 DUP2 MSTORE PUSH1 0x20 ADD PUSH1 0x0 SWAP1 JUMPDEST DUP3 DUP3 LT ISZERO PUSH2 0x661 JUMPI DUP4 DUP3 SWAP1 PUSH1 0x0 MSTORE PUSH1 0x20 PUSH1 0x0 KECCAK256 SWAP1 PUSH1 0x2 MUL ADD PUSH1 0x40 MLOAD DUP1 PUSH1 0x40 ADD PUSH1 0x40 MSTORE SWAP1 DUP2 PUSH1 0x0 DUP3 ADD PUSH1 0x0 SWAP1 SLOAD SWAP1 PUSH2 0x100 EXP SWAP1 DIV PUSH20 0xFFFFFFFFFFFFFFFFFFFFFFFFFFFFFFFFFFFFFFFF AND PUSH20 0xFFFFFFFFFFFFFFFFFFFFFFFFFFFFFFFFFFFFFFFF AND PUSH20 0xFFFFFFFFFFFFFFFFFFFFFFFFFFFFFFFFFFFFFFFF AND DUP2 MSTORE PUSH1 0x20 ADD PUSH1 0x1 DUP3 ADD SLOAD DUP2 MSTORE POP POP DUP2 MSTORE PUSH1 0x20 ADD SWAP1 PUSH1 0x1 ADD SWAP1 PUSH2 0x5CF JUMP JUMPDEST POP POP POP POP SWAP1 POP SWAP1 JUMP JUMPDEST PUSH2 0x672 PUSH2 0xECF JUMP JUMPDEST PUSH1 0xA PUSH1 0x40 MLOAD DUP1 PUSH1 0x20 ADD PUSH1 0x40 MSTORE SWAP1 DUP2 PUSH1 0x0 DUP3 ADD DUP1 SLOAD DUP1 PUSH1 0x20 MUL PUSH1 0x20 ADD PUSH1 0x40 MLOAD SWAP1 DUP2 ADD PUSH1 0x40 MSTORE DUP1 SWAP3 SWAP2 SWAP1 DUP2 DUP2 MSTORE PUSH1 0x20 ADD DUP3 DUP1 SLOAD DUP1 ISZERO PUSH2 0x704 JUMPI PUSH1 0x20 MUL DUP3 ADD SWAP2 SWAP1 PUSH1 0x0 MSTORE PUSH1 0x20 PUSH1 0x0 KECCAK256 SWAP1 JUMPDEST DUP2 PUSH1 0x0 SWAP1 SLOAD SWAP1 PUSH2 0x100 EXP SWAP1 DIV PUSH20 0xFFFFFFFFFFFFFFFFFFFFFFFFFFFFFFFFFFFFFFFF AND PUSH20 0xFFFFFFFFFFFFFFFFFFFFFFFFFFFFFFFFFFFFFFFF AND DUP2 MSTORE PUSH1 0x20 ADD SWAP1 PUSH1 0x1 ADD SWAP1 DUP1 DUP4 GT PUSH2 0x6BA JUMPI JUMPDEST POP POP POP POP POP DUP2 MSTORE POP POP SWAP1 POP SWAP1 JUMP JUMPDEST PUSH1 0x1 SLOAD DUP2 JUMP JUMPDEST PUSH1 0xD PUSH1 0x0 SWAP1 SLOAD SWAP1 PUSH2 0x100 EXP SWAP1 DIV PUSH20 0xFFFFFFFFFFFFFFFFFFFFFFFFFFFFFFFFFFFFFFFF AND DUP2 JUMP JUMPDEST PUSH1 0x0 DUP1 PUSH1 0x0 SWAP1 SLOAD SWAP1 PUSH2 0x100 EXP SWAP1 DIV PUSH20 0xFFFFFFFFFFFFFFFFFFFFFFFFFFFFFFFFFFFFFFFF AND SWAP1 POP SWAP1 JUMP JUMPDEST PUSH1 0x0 DUP1 PUSH1 0x0 SWAP1 SLOAD SWAP1 PUSH2 0x100 EXP SWAP1 DIV PUSH20 0xFFFFFFFFFFFFFFFFFFFFFFFFFFFFFFFFFFFFFFFF AND PUSH20 0xFFFFFFFFFFFFFFFFFFFFFFFFFFFFFFFFFFFFFFFF AND CALLER PUSH20 0xFFFFFFFFFFFFFFFFFFFFFFFFFFFFFFFFFFFFFFFF AND EQ SWAP1 POP SWAP1 JUMP JUMPDEST PUSH2 0x7C6 PUSH2 0x767 JUMP JUMPDEST PUSH2 0x805 JUMPI PUSH1 0x40 MLOAD PUSH32 0x8C379A000000000000000000000000000000000000000000000000000000000 DUP2 MSTORE PUSH1 0x4 ADD PUSH2 0x7FC SWAP1 PUSH2 0x1502 JUMP JUMPDEST PUSH1 0x40 MLOAD DUP1 SWAP2 SUB SWAP1 REVERT JUMPDEST PUSH1 0x0 PUSH20 0xFFFFFFFFFFFFFFFFFFFFFFFFFFFFFFFFFFFFFFFF AND DUP6 PUSH20 0xFFFFFFFFFFFFFFFFFFFFFFFFFFFFFFFFFFFFFFFF AND EQ ISZERO DUP1 ISZERO PUSH2 0x86F JUMPI POP PUSH1 0x0 PUSH20 0xFFFFFFFFFFFFFFFFFFFFFFFFFFFFFFFFFFFFFFFF AND DUP5 PUSH20 0xFFFFFFFFFFFFFFFFFFFFFFFFFFFFFFFFFFFFFFFF AND EQ ISZERO JUMPDEST PUSH2 0x8AE JUMPI PUSH1 0x40 MLOAD PUSH32 0x8C379A000000000000000000000000000000000000000000000000000000000 DUP2 MSTORE PUSH1 0x4 ADD PUSH2 0x8A5 SWAP1 PUSH2 0x14C2 JUMP JUMPDEST PUSH1 0x40 MLOAD DUP1 SWAP2 SUB SWAP1 REVERT JUMPDEST PUSH1 0x0 DUP3 PUSH2 0xFFFF AND LT ISZERO DUP1 ISZERO PUSH2 0x8C8 JUMPI POP PUSH1 0x0 DUP2 PUSH2 0xFFFF AND LT ISZERO JUMPDEST DUP1 ISZERO PUSH2 0x8D9 JUMPI POP PUSH1 0x0 DUP4 PUSH2 0xFFFF AND LT ISZERO JUMPDEST PUSH2 0x918 JUMPI PUSH1 0x40 MLOAD PUSH32 0x8C379A000000000000000000000000000000000000000000000000000000000 DUP2 MSTORE PUSH1 0x4 ADD PUSH2 0x90F SWAP1 PUSH2 0x14E2 JUMP JUMPDEST PUSH1 0x40 MLOAD DUP1 SWAP2 SUB SWAP1 REVERT JUMPDEST PUSH2 0x3E8 DUP3 PUSH2 0xFFFF AND GT ISZERO DUP1 ISZERO PUSH2 0x934 JUMPI POP PUSH2 0x3E8 DUP2 PUSH2 0xFFFF AND GT ISZERO JUMPDEST DUP1 ISZERO PUSH2 0x946 JUMPI POP PUSH2 0x3E8 DUP4 PUSH2 0xFFFF AND GT ISZERO JUMPDEST PUSH2 0x985 JUMPI PUSH1 0x40 MLOAD PUSH32 0x8C379A000000000000000000000000000000000000000000000000000000000 DUP2 MSTORE PUSH1 0x4 ADD PUSH2 0x97C SWAP1 PUSH2 0x14E2 JUMP JUMPDEST PUSH1 0x40 MLOAD DUP1 SWAP2 SUB SWAP1 REVERT JUMPDEST DUP2 PUSH1 0x0 PUSH1 0x14 PUSH2 0x100 EXP DUP2 SLOAD DUP2 PUSH2 0xFFFF MUL NOT AND SWAP1 DUP4 PUSH2 0xFFFF AND MUL OR SWAP1 SSTORE POP DUP1 PUSH1 0x0 PUSH1 0x16 PUSH2 0x100 EXP DUP2 SLOAD DUP2 PUSH2 0xFFFF MUL NOT AND SWAP1 DUP4 PUSH2 0xFFFF AND MUL OR SWAP1 SSTORE POP DUP3 PUSH1 0x0 PUSH1 0x18 PUSH2 0x100 EXP DUP2 SLOAD DUP2 PUSH2 0xFFFF MUL NOT AND SWAP1 DUP4 PUSH2 0xFFFF AND MUL OR SWAP1 SSTORE POP DUP5 PUSH1 0xC PUSH1 0x0 PUSH2 0x100 EXP DUP2 SLOAD DUP2 PUSH20 0xFFFFFFFFFFFFFFFFFFFFFFFFFFFFFFFFFFFFFFFF MUL NOT AND SWAP1 DUP4 PUSH20 0xFFFFFFFFFFFFFFFFFFFFFFFFFFFFFFFFFFFFFFFF AND MUL OR SWAP1 SSTORE POP DUP4 PUSH1 0xD PUSH1 0x0 PUSH2 0x100 EXP DUP2 SLOAD DUP2 PUSH20 0xFFFFFFFFFFFFFFFFFFFFFFFFFFFFFFFFFFFFFFFF MUL NOT AND SWAP1 DUP4 PUSH20 0xFFFFFFFFFFFFFFFFFFFFFFFFFFFFFFFFFFFFFFFF AND MUL OR SWAP1 SSTORE POP POP POP POP POP POP JUMP JUMPDEST PUSH1 0x0 PUSH1 0x14 SWAP1 SLOAD SWAP1 PUSH2 0x100 EXP SWAP1 DIV PUSH2 0xFFFF AND DUP2 JUMP JUMPDEST PUSH1 0x0 PUSH1 0x18 SWAP1 SLOAD SWAP1 PUSH2 0x100 EXP SWAP1 DIV PUSH2 0xFFFF AND DUP2 JUMP JUMPDEST PUSH1 0x60 PUSH1 0x4 PUSH1 0x0 ADD DUP1 SLOAD DUP1 PUSH1 0x20 MUL PUSH1 0x20 ADD PUSH1 0x40 MLOAD SWAP1 DUP2 ADD PUSH1 0x40 MSTORE DUP1 SWAP3 SWAP2 SWAP1 DUP2 DUP2 MSTORE PUSH1 0x20 ADD PUSH1 0x0 SWAP1 JUMPDEST DUP3 DUP3 LT ISZERO PUSH2 0xB46 JUMPI DUP4 DUP3 SWAP1 PUSH1 0x0 MSTORE PUSH1 0x20 PUSH1 0x0 KECCAK256 SWAP1 PUSH1 0x2 MUL ADD PUSH1 0x40 MLOAD DUP1 PUSH1 0x40 ADD PUSH1 0x40 MSTORE SWAP1 DUP2 PUSH1 0x0 DUP3 ADD PUSH1 0x0 SWAP1 SLOAD SWAP1 PUSH2 0x100 EXP SWAP1 DIV PUSH20 0xFFFFFFFFFFFFFFFFFFFFFFFFFFFFFFFFFFFFFFFF AND PUSH20 0xFFFFFFFFFFFFFFFFFFFFFFFFFFFFFFFFFFFFFFFF AND PUSH20 0xFFFFFFFFFFFFFFFFFFFFFFFFFFFFFFFFFFFFFFFF AND DUP2 MSTORE PUSH1 0x20 ADD PUSH1 0x1 DUP3 ADD SLOAD DUP2 MSTORE POP POP DUP2 MSTORE PUSH1 0x20 ADD SWAP1 PUSH1 0x1 ADD SWAP1 PUSH2 0xAB4 JUMP JUMPDEST POP POP POP POP SWAP1 POP SWAP1 JUMP JUMPDEST PUSH1 0x60 PUSH1 0x3 PUSH1 0x0 DUP4 PUSH20 0xFFFFFFFFFFFFFFFFFFFFFFFFFFFFFFFFFFFFFFFF AND PUSH20 0xFFFFFFFFFFFFFFFFFFFFFFFFFFFFFFFFFFFFFFFF AND DUP2 MSTORE PUSH1 0x20 ADD SWAP1 DUP2 MSTORE PUSH1 0x20 ADD PUSH1 0x0 KECCAK256 PUSH1 0x0 ADD DUP1 SLOAD DUP1 PUSH1 0x20 MUL PUSH1 0x20 ADD PUSH1 0x40 MLOAD SWAP1 DUP2 ADD PUSH1 0x40 MSTORE DUP1 SWAP3 SWAP2 SWAP1 DUP2 DUP2 MSTORE PUSH1 0x20 ADD PUSH1 0x0 SWAP1 JUMPDEST DUP3 DUP3 LT ISZERO PUSH2 0xC45 JUMPI DUP4 DUP3 SWAP1 PUSH1 0x0 MSTORE PUSH1 0x20 PUSH1 0x0 KECCAK256 SWAP1 PUSH1 0x2 MUL ADD PUSH1 0x40 MLOAD DUP1 PUSH1 0x40 ADD PUSH1 0x40 MSTORE SWAP1 DUP2 PUSH1 0x0 DUP3 ADD PUSH1 0x0 SWAP1 SLOAD SWAP1 PUSH2 0x100 EXP SWAP1 DIV PUSH20 0xFFFFFFFFFFFFFFFFFFFFFFFFFFFFFFFFFFFFFFFF AND PUSH20 0xFFFFFFFFFFFFFFFFFFFFFFFFFFFFFFFFFFFFFFFF AND PUSH20 0xFFFFFFFFFFFFFFFFFFFFFFFFFFFFFFFFFFFFFFFF AND DUP2 MSTORE PUSH1 0x20 ADD PUSH1 0x1 DUP3 ADD SLOAD DUP2 MSTORE POP POP DUP2 MSTORE PUSH1 0x20 ADD SWAP1 PUSH1 0x1 ADD SWAP1 PUSH2 0xBB3 JUMP JUMPDEST POP POP POP POP SWAP1 POP SWAP2 SWAP1 POP JUMP JUMPDEST PUSH1 0x6 PUSH1 0x20 MSTORE DUP3 PUSH1 0x0 MSTORE PUSH1 0x40 PUSH1 0x0 KECCAK256 PUSH1 0x20 MSTORE DUP2 PUSH1 0x0 MSTORE PUSH1 0x40 PUSH1 0x0 KECCAK256 PUSH1 0x20 MSTORE DUP1 PUSH1 0x0 MSTORE PUSH1 0x40 PUSH1 0x0 KECCAK256 PUSH1 0x0 SWAP3 POP SWAP3 POP POP POP DUP1 PUSH1 0x0 ADD PUSH1 0x0 SWAP1 SLOAD SWAP1 PUSH2 0x100 EXP SWAP1 DIV PUSH20 0xFFFFFFFFFFFFFFFFFFFFFFFFFFFFFFFFFFFFFFFF AND SWAP1 DUP1 PUSH1 0x1 ADD SLOAD SWAP1 POP DUP3 JUMP JUMPDEST PUSH1 0x0 PUSH1 0x16 SWAP1 SLOAD SWAP1 PUSH2 0x100 EXP SWAP1 DIV PUSH2 0xFFFF AND DUP2 JUMP JUMPDEST PUSH2 0xCCA PUSH2 0x767 JUMP JUMPDEST PUSH2 0xD09 JUMPI PUSH1 0x40 MLOAD PUSH32 0x8C379A000000000000000000000000000000000000000000000000000000000 DUP2 MSTORE PUSH1 0x4 ADD PUSH2 0xD00 SWAP1 PUSH2 0x1502 JUMP JUMPDEST PUSH1 0x40 MLOAD DUP1 SWAP2 SUB SWAP1 REVERT JUMPDEST PUSH1 0x0 PUSH20 0xFFFFFFFFFFFFFFFFFFFFFFFFFFFFFFFFFFFFFFFF AND DUP2 PUSH20 0xFFFFFFFFFFFFFFFFFFFFFFFFFFFFFFFFFFFFFFFF AND EQ ISZERO PUSH2 0xD79 JUMPI PUSH1 0x40 MLOAD PUSH32 0x8C379A000000000000000000000000000000000000000000000000000000000 DUP2 MSTORE PUSH1 0x4 ADD PUSH2 0xD70 SWAP1 PUSH2 0x14A2 JUMP JUMPDEST PUSH1 0x40 MLOAD DUP1 SWAP2 SUB SWAP1 REVERT JUMPDEST DUP1 PUSH1 0x0 DUP1 PUSH2 0x100 EXP DUP2 SLOAD DUP2 PUSH20 0xFFFFFFFFFFFFFFFFFFFFFFFFFFFFFFFFFFFFFFFF MUL NOT AND SWAP1 DUP4 PUSH20 0xFFFFFFFFFFFFFFFFFFFFFFFFFFFFFFFFFFFFFFFF AND MUL OR SWAP1 SSTORE POP POP JUMP JUMPDEST PUSH2 0xDC4 PUSH2 0x767 JUMP JUMPDEST PUSH2 0xE03 JUMPI PUSH1 0x40 MLOAD PUSH32 0x8C379A000000000000000000000000000000000000000000000000000000000 DUP2 MSTORE PUSH1 0x4 ADD PUSH2 0xDFA SWAP1 PUSH2 0x1502 JUMP JUMPDEST PUSH1 0x40 MLOAD DUP1 SWAP2 SUB SWAP1 REVERT JUMPDEST DUP1 PUSH1 0x1 DUP2 SWAP1 SSTORE POP POP JUMP JUMPDEST PUSH1 0x60 PUSH1 0x5 PUSH1 0x0 ADD DUP1 SLOAD DUP1 PUSH1 0x20 MUL PUSH1 0x20 ADD PUSH1 0x40 MLOAD SWAP1 DUP2 ADD PUSH1 0x40 MSTORE DUP1 SWAP3 SWAP2 SWAP1 DUP2 DUP2 MSTORE PUSH1 0x20 ADD PUSH1 0x0 SWAP1 JUMPDEST DUP3 DUP3 LT ISZERO PUSH2 0xEC6 JUMPI DUP4 DUP3 SWAP1 PUSH1 0x0 MSTORE PUSH1 0x20 PUSH1 0x0 KECCAK256 SWAP1 PUSH1 0x2 MUL ADD PUSH1 0x40 MLOAD DUP1 PUSH1 0x40 ADD PUSH1 0x40 MSTORE SWAP1 DUP2 PUSH1 0x0 DUP3 ADD PUSH1 0x0 SWAP1 SLOAD SWAP1 PUSH2 0x100 EXP SWAP1 DIV PUSH20 0xFFFFFFFFFFFFFFFFFFFFFFFFFFFFFFFFFFFFFFFF AND PUSH20 0xFFFFFFFFFFFFFFFFFFFFFFFFFFFFFFFFFFFFFFFF AND PUSH20 0xFFFFFFFFFFFFFFFFFFFFFFFFFFFFFFFFFFFFFFFF AND DUP2 MSTORE PUSH1 0x20 ADD PUSH1 0x1 DUP3 ADD SLOAD DUP2 MSTORE POP POP DUP2 MSTORE PUSH1 0x20 ADD SWAP1 PUSH1 0x1 ADD SWAP1 PUSH2 0xE34 JUMP JUMPDEST POP POP POP POP SWAP1 POP SWAP1 JUMP JUMPDEST PUSH1 0x40 MLOAD DUP1 PUSH1 0x20 ADD PUSH1 0x40 MSTORE DUP1 PUSH1 0x60 DUP2 MSTORE POP SWAP1 JUMP JUMPDEST PUSH1 0x0 DUP2 CALLDATALOAD SWAP1 POP PUSH2 0xEF1 DUP2 PUSH2 0x1665 JUMP JUMPDEST SWAP3 SWAP2 POP POP JUMP JUMPDEST PUSH1 0x0 DUP2 CALLDATALOAD SWAP1 POP PUSH2 0xF06 DUP2 PUSH2 0x167C JUMP JUMPDEST SWAP3 SWAP2 POP POP JUMP JUMPDEST PUSH1 0x0 DUP2 CALLDATALOAD SWAP1 POP PUSH2 0xF1B DUP2 PUSH2 0x1693 JUMP JUMPDEST SWAP3 SWAP2 POP POP JUMP JUMPDEST PUSH1 0x0 PUSH1 0x20 DUP3 DUP5 SUB SLT ISZERO PUSH2 0xF33 JUMPI PUSH1 0x0 DUP1 REVERT JUMPDEST PUSH1 0x0 PUSH2 0xF41 DUP5 DUP3 DUP6 ADD PUSH2 0xEE2 JUMP JUMPDEST SWAP2 POP POP SWAP3 SWAP2 POP POP JUMP JUMPDEST PUSH1 0x0 DUP1 PUSH1 0x40 DUP4 DUP6 SUB SLT ISZERO PUSH2 0xF5D JUMPI PUSH1 0x0 DUP1 REVERT JUMPDEST PUSH1 0x0 PUSH2 0xF6B DUP6 DUP3 DUP7 ADD PUSH2 0xEE2 JUMP JUMPDEST SWAP3 POP POP PUSH1 0x20 PUSH2 0xF7C DUP6 DUP3 DUP7 ADD PUSH2 0xEE2 JUMP JUMPDEST SWAP2 POP POP SWAP3 POP SWAP3 SWAP1 POP JUMP JUMPDEST PUSH1 0x0 DUP1 PUSH1 0x0 DUP1 PUSH1 0x0 PUSH1 0xA0 DUP7 DUP9 SUB SLT ISZERO PUSH2 0xF9E JUMPI PUSH1 0x0 DUP1 REVERT JUMPDEST PUSH1 0x0 PUSH2 0xFAC DUP9 DUP3 DUP10 ADD PUSH2 0xEE2 JUMP JUMPDEST SWAP6 POP POP PUSH1 0x20 PUSH2 0xFBD DUP9 DUP3 DUP10 ADD PUSH2 0xEE2 JUMP JUMPDEST SWAP5 POP POP PUSH1 0x40 PUSH2 0xFCE DUP9 DUP3 DUP10 ADD PUSH2 0xEF7 JUMP JUMPDEST SWAP4 POP POP PUSH1 0x60 PUSH2 0xFDF DUP9 DUP3 DUP10 ADD PUSH2 0xEF7 JUMP JUMPDEST SWAP3 POP POP PUSH1 0x80 PUSH2 0xFF0 DUP9 DUP3 DUP10 ADD PUSH2 0xEF7 JUMP JUMPDEST SWAP2 POP POP SWAP3 SWAP6 POP SWAP3 SWAP6 SWAP1 SWAP4 POP JUMP JUMPDEST PUSH1 0x0 DUP1 PUSH1 0x40 DUP4 DUP6 SUB SLT ISZERO PUSH2 0x1010 JUMPI PUSH1 0x0 DUP1 REVERT JUMPDEST PUSH1 0x0 PUSH2 0x101E DUP6 DUP3 DUP7 ADD PUSH2 0xEE2 JUMP JUMPDEST SWAP3 POP POP PUSH1 0x20 PUSH2 0x102F DUP6 DUP3 DUP7 ADD PUSH2 0xF0C JUMP JUMPDEST SWAP2 POP POP SWAP3 POP SWAP3 SWAP1 POP JUMP JUMPDEST PUSH1 0x0 DUP1 PUSH1 0x0 PUSH1 0x60 DUP5 DUP7 SUB SLT ISZERO PUSH2 0x104E JUMPI PUSH1 0x0 DUP1 REVERT JUMPDEST PUSH1 0x0 PUSH2 0x105C DUP7 DUP3 DUP8 ADD PUSH2 0xEE2 JUMP JUMPDEST SWAP4 POP POP PUSH1 0x20 PUSH2 0x106D DUP7 DUP3 DUP8 ADD PUSH2 0xF0C JUMP JUMPDEST SWAP3 POP POP PUSH1 0x40 PUSH2 0x107E DUP7 DUP3 DUP8 ADD PUSH2 0xEE2 JUMP JUMPDEST SWAP2 POP POP SWAP3 POP SWAP3 POP SWAP3 JUMP JUMPDEST PUSH1 0x0 PUSH1 0x20 DUP3 DUP5 SUB SLT ISZERO PUSH2 0x109A JUMPI PUSH1 0x0 DUP1 REVERT JUMPDEST PUSH1 0x0 PUSH2 0x10A8 DUP5 DUP3 DUP6 ADD PUSH2 0xF0C JUMP JUMPDEST SWAP2 POP POP SWAP3 SWAP2 POP POP JUMP JUMPDEST PUSH1 0x0 PUSH2 0x10BD DUP4 DUP4 PUSH2 0x10F0 JUMP JUMPDEST PUSH1 0x20 DUP4 ADD SWAP1 POP SWAP3 SWAP2 POP POP JUMP JUMPDEST PUSH1 0x0 PUSH2 0x10D5 DUP4 DUP4 PUSH2 0x12FF JUMP JUMPDEST PUSH1 0x40 DUP4 ADD SWAP1 POP SWAP3 SWAP2 POP POP JUMP JUMPDEST PUSH2 0x10EA DUP2 PUSH2 0x160F JUMP JUMPDEST DUP3 MSTORE POP POP JUMP JUMPDEST PUSH2 0x10F9 DUP2 PUSH2 0x15FD JUMP JUMPDEST DUP3 MSTORE POP POP JUMP JUMPDEST PUSH2 0x1108 DUP2 PUSH2 0x15FD JUMP JUMPDEST DUP3 MSTORE POP POP JUMP JUMPDEST PUSH1 0x0 PUSH2 0x1119 DUP3 PUSH2 0x159A JUMP JUMPDEST PUSH2 0x1123 DUP2 DUP6 PUSH2 0x15CA JUMP JUMPDEST SWAP4 POP PUSH2 0x112E DUP4 PUSH2 0x157A JUMP JUMPDEST DUP1 PUSH1 0x0 JUMPDEST DUP4 DUP2 LT ISZERO PUSH2 0x115F JUMPI DUP2 MLOAD PUSH2 0x1146 DUP9 DUP3 PUSH2 0x10B1 JUMP JUMPDEST SWAP8 POP PUSH2 0x1151 DUP4 PUSH2 0x15B0 JUMP JUMPDEST SWAP3 POP POP PUSH1 0x1 DUP2 ADD SWAP1 POP PUSH2 0x1132 JUMP JUMPDEST POP DUP6 SWAP4 POP POP POP POP SWAP3 SWAP2 POP POP JUMP JUMPDEST PUSH1 0x0 PUSH2 0x1177 DUP3 PUSH2 0x15A5 JUMP JUMPDEST PUSH2 0x1181 DUP2 DUP6 PUSH2 0x15DB JUMP JUMPDEST SWAP4 POP PUSH2 0x118C DUP4 PUSH2 0x158A JUMP JUMPDEST DUP1 PUSH1 0x0 JUMPDEST DUP4 DUP2 LT ISZERO PUSH2 0x11BD JUMPI DUP2 MLOAD PUSH2 0x11A4 DUP9 DUP3 PUSH2 0x10C9 JUMP JUMPDEST SWAP8 POP PUSH2 0x11AF DUP4 PUSH2 0x15BD JUMP JUMPDEST SWAP3 POP POP PUSH1 0x1 DUP2 ADD SWAP1 POP PUSH2 0x1190 JUMP JUMPDEST POP DUP6 SWAP4 POP POP POP POP SWAP3 SWAP2 POP POP JUMP JUMPDEST PUSH2 0x11D3 DUP2 PUSH2 0x1621 JUMP JUMPDEST DUP3 MSTORE POP POP JUMP JUMPDEST PUSH1 0x0 PUSH2 0x11E6 PUSH1 0x26 DUP4 PUSH2 0x15EC JUMP JUMPDEST SWAP2 POP PUSH32 0x4F776E61626C653A206E6577206F776E657220697320746865207A65726F2061 PUSH1 0x0 DUP4 ADD MSTORE PUSH32 0x6464726573730000000000000000000000000000000000000000000000000000 PUSH1 0x20 DUP4 ADD MSTORE PUSH1 0x40 DUP3 ADD SWAP1 POP SWAP2 SWAP1 POP JUMP JUMPDEST PUSH1 0x0 PUSH2 0x124C PUSH1 0xF DUP4 PUSH2 0x15EC JUMP JUMPDEST SWAP2 POP PUSH32 0x41646472657373206973205A65726F0000000000000000000000000000000000 PUSH1 0x0 DUP4 ADD MSTORE PUSH1 0x20 DUP3 ADD SWAP1 POP SWAP2 SWAP1 POP JUMP JUMPDEST PUSH1 0x0 PUSH2 0x128C PUSH1 0x1B DUP4 PUSH2 0x15EC JUMP JUMPDEST SWAP2 POP PUSH32 0x73686F756C642062652067726561746572207468616E207A65726F0000000000 PUSH1 0x0 DUP4 ADD MSTORE PUSH1 0x20 DUP3 ADD SWAP1 POP SWAP2 SWAP1 POP JUMP JUMPDEST PUSH1 0x0 PUSH2 0x12CC PUSH1 0x20 DUP4 PUSH2 0x15EC JUMP JUMPDEST SWAP2 POP PUSH32 0x4F776E61626C653A2063616C6C6572206973206E6F7420746865206F776E6572 PUSH1 0x0 DUP4 ADD MSTORE PUSH1 0x20 DUP3 ADD SWAP1 POP SWAP2 SWAP1 POP JUMP JUMPDEST PUSH1 0x40 DUP3 ADD PUSH1 0x0 DUP3 ADD MLOAD PUSH2 0x1315 PUSH1 0x0 DUP6 ADD DUP3 PUSH2 0x10F0 JUMP JUMPDEST POP PUSH1 0x20 DUP3 ADD MLOAD PUSH2 0x1328 PUSH1 0x20 DUP6 ADD DUP3 PUSH2 0x1367 JUMP JUMPDEST POP POP POP POP JUMP JUMPDEST PUSH1 0x0 PUSH1 0x20 DUP4 ADD PUSH1 0x0 DUP4 ADD MLOAD DUP5 DUP3 SUB PUSH1 0x0 DUP7 ADD MSTORE PUSH2 0x134B DUP3 DUP3 PUSH2 0x110E JUMP JUMPDEST SWAP2 POP POP DUP1 SWAP2 POP POP SWAP3 SWAP2 POP POP JUMP JUMPDEST PUSH2 0x1361 DUP2 PUSH2 0x162D JUMP JUMPDEST DUP3 MSTORE POP POP JUMP JUMPDEST PUSH2 0x1370 DUP2 PUSH2 0x165B JUMP JUMPDEST DUP3 MSTORE POP POP JUMP JUMPDEST PUSH2 0x137F DUP2 PUSH2 0x165B JUMP JUMPDEST DUP3 MSTORE POP POP JUMP JUMPDEST PUSH1 0x0 PUSH1 0x20 DUP3 ADD SWAP1 POP PUSH2 0x139A PUSH1 0x0 DUP4 ADD DUP5 PUSH2 0x10FF JUMP JUMPDEST SWAP3 SWAP2 POP POP JUMP JUMPDEST PUSH1 0x0 PUSH2 0x140 DUP3 ADD SWAP1 POP PUSH2 0x13B6 PUSH1 0x0 DUP4 ADD DUP14 PUSH2 0x10E1 JUMP JUMPDEST PUSH2 0x13C3 PUSH1 0x20 DUP4 ADD DUP13 PUSH2 0x1376 JUMP JUMPDEST PUSH2 0x13D0 PUSH1 0x40 DUP4 ADD DUP12 PUSH2 0x10E1 JUMP JUMPDEST PUSH2 0x13DD PUSH1 0x60 DUP4 ADD DUP11 PUSH2 0x1376 JUMP JUMPDEST PUSH2 0x13EA PUSH1 0x80 DUP4 ADD DUP10 PUSH2 0x1376 JUMP JUMPDEST PUSH2 0x13F7 PUSH1 0xA0 DUP4 ADD DUP9 PUSH2 0x1376 JUMP JUMPDEST PUSH2 0x1404 PUSH1 0xC0 DUP4 ADD DUP8 PUSH2 0x11CA JUMP JUMPDEST PUSH2 0x1411 PUSH1 0xE0 DUP4 ADD DUP7 PUSH2 0x1376 JUMP JUMPDEST PUSH2 0x141F PUSH2 0x100 DUP4 ADD DUP6 PUSH2 0x1376 JUMP JUMPDEST PUSH2 0x142D PUSH2 0x120 DUP4 ADD DUP5 PUSH2 0x10FF JUMP JUMPDEST SWAP12 SWAP11 POP POP POP POP POP POP POP POP POP POP POP JUMP JUMPDEST PUSH1 0x0 PUSH1 0x40 DUP3 ADD SWAP1 POP PUSH2 0x1451 PUSH1 0x0 DUP4 ADD DUP6 PUSH2 0x10FF JUMP JUMPDEST PUSH2 0x145E PUSH1 0x20 DUP4 ADD DUP5 PUSH2 0x1376 JUMP JUMPDEST SWAP4 SWAP3 POP POP POP JUMP JUMPDEST PUSH1 0x0 PUSH1 0x20 DUP3 ADD SWAP1 POP DUP2 DUP2 SUB PUSH1 0x0 DUP4 ADD MSTORE PUSH2 0x147F DUP2 DUP5 PUSH2 0x116C JUMP JUMPDEST SWAP1 POP SWAP3 SWAP2 POP POP JUMP JUMPDEST PUSH1 0x0 PUSH1 0x20 DUP3 ADD SWAP1 POP PUSH2 0x149C PUSH1 0x0 DUP4 ADD DUP5 PUSH2 0x11CA JUMP JUMPDEST SWAP3 SWAP2 POP POP JUMP JUMPDEST PUSH1 0x0 PUSH1 0x20 DUP3 ADD SWAP1 POP DUP2 DUP2 SUB PUSH1 0x0 DUP4 ADD MSTORE PUSH2 0x14BB DUP2 PUSH2 0x11D9 JUMP JUMPDEST SWAP1 POP SWAP2 SWAP1 POP JUMP JUMPDEST PUSH1 0x0 PUSH1 0x20 DUP3 ADD SWAP1 POP DUP2 DUP2 SUB PUSH1 0x0 DUP4 ADD MSTORE PUSH2 0x14DB DUP2 PUSH2 0x123F JUMP JUMPDEST SWAP1 POP SWAP2 SWAP1 POP JUMP JUMPDEST PUSH1 0x0 PUSH1 0x20 DUP3 ADD SWAP1 POP DUP2 DUP2 SUB PUSH1 0x0 DUP4 ADD MSTORE PUSH2 0x14FB DUP2 PUSH2 0x127F JUMP JUMPDEST SWAP1 POP SWAP2 SWAP1 POP JUMP JUMPDEST PUSH1 0x0 PUSH1 0x20 DUP3 ADD SWAP1 POP DUP2 DUP2 SUB PUSH1 0x0 DUP4 ADD MSTORE PUSH2 0x151B DUP2 PUSH2 0x12BF JUMP JUMPDEST SWAP1 POP SWAP2 SWAP1 POP JUMP JUMPDEST PUSH1 0x0 PUSH1 0x20 DUP3 ADD SWAP1 POP DUP2 DUP2 SUB PUSH1 0x0 DUP4 ADD MSTORE PUSH2 0x153C DUP2 DUP5 PUSH2 0x132E JUMP JUMPDEST SWAP1 POP SWAP3 SWAP2 POP POP JUMP JUMPDEST PUSH1 0x0 PUSH1 0x20 DUP3 ADD SWAP1 POP PUSH2 0x1559 PUSH1 0x0 DUP4 ADD DUP5 PUSH2 0x1358 JUMP JUMPDEST SWAP3 SWAP2 POP POP JUMP JUMPDEST PUSH1 0x0 PUSH1 0x20 DUP3 ADD SWAP1 POP PUSH2 0x1574 PUSH1 0x0 DUP4 ADD DUP5 PUSH2 0x1376 JUMP JUMPDEST SWAP3 SWAP2 POP POP JUMP JUMPDEST PUSH1 0x0 DUP2 SWAP1 POP PUSH1 0x20 DUP3 ADD SWAP1 POP SWAP2 SWAP1 POP JUMP JUMPDEST PUSH1 0x0 DUP2 SWAP1 POP PUSH1 0x20 DUP3 ADD SWAP1 POP SWAP2 SWAP1 POP JUMP JUMPDEST PUSH1 0x0 DUP2 MLOAD SWAP1 POP SWAP2 SWAP1 POP JUMP JUMPDEST PUSH1 0x0 DUP2 MLOAD SWAP1 POP SWAP2 SWAP1 POP JUMP JUMPDEST PUSH1 0x0 PUSH1 0x20 DUP3 ADD SWAP1 POP SWAP2 SWAP1 POP JUMP JUMPDEST PUSH1 0x0 PUSH1 0x20 DUP3 ADD SWAP1 POP SWAP2 SWAP1 POP JUMP JUMPDEST PUSH1 0x0 DUP3 DUP3 MSTORE PUSH1 0x20 DUP3 ADD SWAP1 POP SWAP3 SWAP2 POP POP JUMP JUMPDEST PUSH1 0x0 DUP3 DUP3 MSTORE PUSH1 0x20 DUP3 ADD SWAP1 POP SWAP3 SWAP2 POP POP JUMP JUMPDEST PUSH1 0x0 DUP3 DUP3 MSTORE PUSH1 0x20 DUP3 ADD SWAP1 POP SWAP3 SWAP2 POP POP JUMP JUMPDEST PUSH1 0x0 PUSH2 0x1608 DUP3 PUSH2 0x163B JUMP JUMPDEST SWAP1 POP SWAP2 SWAP1 POP JUMP JUMPDEST PUSH1 0x0 PUSH2 0x161A DUP3 PUSH2 0x163B JUMP JUMPDEST SWAP1 POP SWAP2 SWAP1 POP JUMP JUMPDEST PUSH1 0x0 DUP2 ISZERO ISZERO SWAP1 POP SWAP2 SWAP1 POP JUMP JUMPDEST PUSH1 0x0 PUSH2 0xFFFF DUP3 AND SWAP1 POP SWAP2 SWAP1 POP JUMP JUMPDEST PUSH1 0x0 PUSH20 0xFFFFFFFFFFFFFFFFFFFFFFFFFFFFFFFFFFFFFFFF DUP3 AND SWAP1 POP SWAP2 SWAP1 POP JUMP JUMPDEST PUSH1 0x0 DUP2 SWAP1 POP SWAP2 SWAP1 POP JUMP JUMPDEST PUSH2 0x166E DUP2 PUSH2 0x15FD JUMP JUMPDEST DUP2 EQ PUSH2 0x1679 JUMPI PUSH1 0x0 DUP1 REVERT JUMPDEST POP JUMP JUMPDEST PUSH2 0x1685 DUP2 PUSH2 0x162D JUMP JUMPDEST DUP2 EQ PUSH2 0x1690 JUMPI PUSH1 0x0 DUP1 REVERT JUMPDEST POP JUMP JUMPDEST PUSH2 0x169C DUP2 PUSH2 0x165B JUMP JUMPDEST DUP2 EQ PUSH2 0x16A7 JUMPI PUSH1 0x0 DUP1 REVERT JUMPDEST POP JUMP INVALID LOG3 PUSH6 0x627A7A723158 KECCAK256 0x24 SWAP4 DIV 0x5F DIFFICULTY 0x4C TIMESTAMP BLOCKHASH 0xE8 0xA5 0xC8 PUSH15 0x6784A1E7AAC50AFCCB72CCD09446BA EQ 0x1E 0xEA 0xC6 SWAP14 PUSH13 0x6578706572696D656E74616CF5 PUSH5 0x736F6C6343 STOP SDIV GT STOP BLOCKHASH "
				},
				"gasEstimates": {
					"creation": {
						"codeDepositCost": "1173800",
						"executionCost": "22063",
						"totalCost": "1195863"
					},
					"external": {
						"LPStakeAddress()": "1281",
						"StakeAddress()": "1304",
						"WETHAddress()": "1238",
						"auctions(address,uint256)": "infinite",
						"getAuctionTokensForSale()": "infinite",
						"getErc20Tokens()": "infinite",
						"getFixedPriceTokensForSale()": "infinite",
						"getTokensForSale()": "infinite",
						"getTokensForSalePerUser(address)": "infinite",
						"isOwner()": "1307",
						"lpStakefeepercentage()": "1288",
						"offerprice(address,uint256,address)": "infinite",
						"owner()": "1311",
						"platFormFeePercentage()": "1265",
						"rewardDistributionPercentage()": "1266",
						"setAddress(address,address)": "infinite",
						"setBrokerage(address,address,uint16,uint16,uint16)": "infinite",
						"setUpdatedClosingTime(uint256)": "21413",
						"transferOwnership(address)": "22331",
						"updateClosingTime()": "1174"
					}
				},
				"methodIdentifiers": {
					"LPStakeAddress()": "8bae5f4f",
					"StakeAddress()": "45ce7db9",
					"WETHAddress()": "0af88b24",
					"auctions(address,uint256)": "44f91c1e",
					"getAuctionTokensForSale()": "f7f17488",
					"getErc20Tokens()": "6d036535",
					"getFixedPriceTokensForSale()": "d3c9080a",
					"getTokensForSale()": "65e4e1c0",
					"getTokensForSalePerUser(address)": "d4739cca",
					"isOwner()": "8f32d59b",
					"lpStakefeepercentage()": "d2abc517",
					"offerprice(address,uint256,address)": "f09856f3",
					"owner()": "8da5cb5b",
					"platFormFeePercentage()": "f26f8494",
					"rewardDistributionPercentage()": "c52ea52e",
					"setAddress(address,address)": "3b58524d",
					"setBrokerage(address,address,uint16,uint16,uint16)": "c1a8bdbc",
					"setUpdatedClosingTime(uint256)": "f5a0c9b8",
					"transferOwnership(address)": "f2fde38b",
					"updateClosingTime()": "7f494852"
				}
			},
			"storageLayout": {
				"storage": [
					{
						"astId": 826,
						"contract": "Storage.sol:Storage",
						"label": "_owner",
						"offset": 0,
						"slot": "0",
						"type": "t_address"
					},
					{
						"astId": 368,
						"contract": "Storage.sol:Storage",
						"label": "rewardDistributionPercentage",
						"offset": 20,
						"slot": "0",
						"type": "t_uint16"
					},
					{
						"astId": 370,
						"contract": "Storage.sol:Storage",
						"label": "platFormFeePercentage",
						"offset": 22,
						"slot": "0",
						"type": "t_uint16"
					},
					{
						"astId": 372,
						"contract": "Storage.sol:Storage",
						"label": "lpStakefeepercentage",
						"offset": 24,
						"slot": "0",
						"type": "t_uint16"
					},
					{
						"astId": 374,
						"contract": "Storage.sol:Storage",
						"label": "updateClosingTime",
						"offset": 0,
						"slot": "1",
						"type": "t_uint256"
					},
					{
						"astId": 380,
						"contract": "Storage.sol:Storage",
						"label": "tokenOpenForSale",
						"offset": 0,
						"slot": "2",
						"type": "t_mapping(t_address,t_mapping(t_uint256,t_bool))"
					},
					{
						"astId": 384,
						"contract": "Storage.sol:Storage",
						"label": "tokensForSalePerUser",
						"offset": 0,
						"slot": "3",
						"type": "t_mapping(t_address,t_struct(TokenDets)627_storage)"
					},
					{
						"astId": 386,
						"contract": "Storage.sol:Storage",
						"label": "fixedPriceTokens",
						"offset": 0,
						"slot": "4",
						"type": "t_struct(TokenDets)627_storage"
					},
					{
						"astId": 388,
						"contract": "Storage.sol:Storage",
						"label": "auctionTokens",
						"offset": 0,
						"slot": "5",
						"type": "t_struct(TokenDets)627_storage"
					},
					{
						"astId": 422,
						"contract": "Storage.sol:Storage",
						"label": "offerprice",
						"offset": 0,
						"slot": "6",
						"type": "t_mapping(t_address,t_mapping(t_uint256,t_mapping(t_address,t_struct(OfferDetails)414_storage)))"
					},
					{
						"astId": 428,
						"contract": "Storage.sol:Storage",
						"label": "auctions",
						"offset": 0,
						"slot": "7",
						"type": "t_mapping(t_address,t_mapping(t_uint256,t_struct(auction)409_storage))"
					},
					{
						"astId": 438,
						"contract": "Storage.sol:Storage",
						"label": "bidOffers",
						"offset": 0,
						"slot": "8",
						"type": "t_mapping(t_address,t_mapping(t_uint256,t_mapping(t_address,t_mapping(t_uint256,t_struct(OfferDetails)414_storage))))"
					},
					{
						"astId": 440,
						"contract": "Storage.sol:Storage",
						"label": "tokensForSale",
						"offset": 0,
						"slot": "9",
						"type": "t_struct(TokenDets)627_storage"
					},
					{
						"astId": 442,
						"contract": "Storage.sol:Storage",
						"label": "erc20TokensArray",
						"offset": 0,
						"slot": "10",
						"type": "t_struct(erc20Addresses)8_storage"
					},
					{
						"astId": 444,
						"contract": "Storage.sol:Storage",
						"label": "WETHAddress",
						"offset": 0,
						"slot": "11",
						"type": "t_address"
					},
					{
						"astId": 446,
						"contract": "Storage.sol:Storage",
						"label": "StakeAddress",
						"offset": 0,
						"slot": "12",
						"type": "t_address"
					},
					{
						"astId": 448,
						"contract": "Storage.sol:Storage",
						"label": "LPStakeAddress",
						"offset": 0,
						"slot": "13",
						"type": "t_address"
					}
				],
				"types": {
					"t_address": {
						"encoding": "inplace",
						"label": "address",
						"numberOfBytes": "20"
					},
					"t_address_payable": {
						"encoding": "inplace",
						"label": "address payable",
						"numberOfBytes": "20"
					},
					"t_array(t_address)dyn_storage": {
						"base": "t_address",
						"encoding": "dynamic_array",
						"label": "address[]",
						"numberOfBytes": "32"
					},
					"t_array(t_struct(TokenDet)623_storage)dyn_storage": {
						"base": "t_struct(TokenDet)623_storage",
						"encoding": "dynamic_array",
						"label": "struct TokenDetArrayLib.TokenDet[]",
						"numberOfBytes": "32"
					},
					"t_bool": {
						"encoding": "inplace",
						"label": "bool",
						"numberOfBytes": "1"
					},
					"t_mapping(t_address,t_mapping(t_uint256,t_bool))": {
						"encoding": "mapping",
						"key": "t_address",
						"label": "mapping(address => mapping(uint256 => bool))",
						"numberOfBytes": "32",
						"value": "t_mapping(t_uint256,t_bool)"
					},
					"t_mapping(t_address,t_mapping(t_uint256,t_mapping(t_address,t_mapping(t_uint256,t_struct(OfferDetails)414_storage))))": {
						"encoding": "mapping",
						"key": "t_address",
						"label": "mapping(address => mapping(uint256 => mapping(address => mapping(uint256 => struct Storage.OfferDetails))))",
						"numberOfBytes": "32",
						"value": "t_mapping(t_uint256,t_mapping(t_address,t_mapping(t_uint256,t_struct(OfferDetails)414_storage)))"
					},
					"t_mapping(t_address,t_mapping(t_uint256,t_mapping(t_address,t_struct(OfferDetails)414_storage)))": {
						"encoding": "mapping",
						"key": "t_address",
						"label": "mapping(address => mapping(uint256 => mapping(address => struct Storage.OfferDetails)))",
						"numberOfBytes": "32",
						"value": "t_mapping(t_uint256,t_mapping(t_address,t_struct(OfferDetails)414_storage))"
					},
					"t_mapping(t_address,t_mapping(t_uint256,t_struct(OfferDetails)414_storage))": {
						"encoding": "mapping",
						"key": "t_address",
						"label": "mapping(address => mapping(uint256 => struct Storage.OfferDetails))",
						"numberOfBytes": "32",
						"value": "t_mapping(t_uint256,t_struct(OfferDetails)414_storage)"
					},
					"t_mapping(t_address,t_mapping(t_uint256,t_struct(auction)409_storage))": {
						"encoding": "mapping",
						"key": "t_address",
						"label": "mapping(address => mapping(uint256 => struct Storage.auction))",
						"numberOfBytes": "32",
						"value": "t_mapping(t_uint256,t_struct(auction)409_storage)"
					},
					"t_mapping(t_address,t_struct(OfferDetails)414_storage)": {
						"encoding": "mapping",
						"key": "t_address",
						"label": "mapping(address => struct Storage.OfferDetails)",
						"numberOfBytes": "32",
						"value": "t_struct(OfferDetails)414_storage"
					},
					"t_mapping(t_address,t_struct(TokenDets)627_storage)": {
						"encoding": "mapping",
						"key": "t_address",
						"label": "mapping(address => struct TokenDetArrayLib.TokenDets)",
						"numberOfBytes": "32",
						"value": "t_struct(TokenDets)627_storage"
					},
					"t_mapping(t_uint256,t_bool)": {
						"encoding": "mapping",
						"key": "t_uint256",
						"label": "mapping(uint256 => bool)",
						"numberOfBytes": "32",
						"value": "t_bool"
					},
					"t_mapping(t_uint256,t_mapping(t_address,t_mapping(t_uint256,t_struct(OfferDetails)414_storage)))": {
						"encoding": "mapping",
						"key": "t_uint256",
						"label": "mapping(uint256 => mapping(address => mapping(uint256 => struct Storage.OfferDetails)))",
						"numberOfBytes": "32",
						"value": "t_mapping(t_address,t_mapping(t_uint256,t_struct(OfferDetails)414_storage))"
					},
					"t_mapping(t_uint256,t_mapping(t_address,t_struct(OfferDetails)414_storage))": {
						"encoding": "mapping",
						"key": "t_uint256",
						"label": "mapping(uint256 => mapping(address => struct Storage.OfferDetails))",
						"numberOfBytes": "32",
						"value": "t_mapping(t_address,t_struct(OfferDetails)414_storage)"
					},
					"t_mapping(t_uint256,t_struct(OfferDetails)414_storage)": {
						"encoding": "mapping",
						"key": "t_uint256",
						"label": "mapping(uint256 => struct Storage.OfferDetails)",
						"numberOfBytes": "32",
						"value": "t_struct(OfferDetails)414_storage"
					},
					"t_mapping(t_uint256,t_struct(auction)409_storage)": {
						"encoding": "mapping",
						"key": "t_uint256",
						"label": "mapping(uint256 => struct Storage.auction)",
						"numberOfBytes": "32",
						"value": "t_struct(auction)409_storage"
					},
					"t_struct(OfferDetails)414_storage": {
						"encoding": "inplace",
						"label": "struct Storage.OfferDetails",
						"members": [
							{
								"astId": 411,
								"contract": "Storage.sol:Storage",
								"label": "offerer",
								"offset": 0,
								"slot": "0",
								"type": "t_address"
							},
							{
								"astId": 413,
								"contract": "Storage.sol:Storage",
								"label": "amount",
								"offset": 0,
								"slot": "1",
								"type": "t_uint256"
							}
						],
						"numberOfBytes": "64"
					},
					"t_struct(TokenDet)623_storage": {
						"encoding": "inplace",
						"label": "struct TokenDetArrayLib.TokenDet",
						"members": [
							{
								"astId": 620,
								"contract": "Storage.sol:Storage",
								"label": "NFTAddress",
								"offset": 0,
								"slot": "0",
								"type": "t_address"
							},
							{
								"astId": 622,
								"contract": "Storage.sol:Storage",
								"label": "tokenID",
								"offset": 0,
								"slot": "1",
								"type": "t_uint256"
							}
						],
						"numberOfBytes": "64"
					},
					"t_struct(TokenDets)627_storage": {
						"encoding": "inplace",
						"label": "struct TokenDetArrayLib.TokenDets",
						"members": [
							{
								"astId": 626,
								"contract": "Storage.sol:Storage",
								"label": "array",
								"offset": 0,
								"slot": "0",
								"type": "t_array(t_struct(TokenDet)623_storage)dyn_storage"
							}
						],
						"numberOfBytes": "32"
					},
					"t_struct(auction)409_storage": {
						"encoding": "inplace",
						"label": "struct Storage.auction",
						"members": [
							{
								"astId": 390,
								"contract": "Storage.sol:Storage",
								"label": "lastOwner",
								"offset": 0,
								"slot": "0",
								"type": "t_address_payable"
							},
							{
								"astId": 392,
								"contract": "Storage.sol:Storage",
								"label": "currentBid",
								"offset": 0,
								"slot": "1",
								"type": "t_uint256"
							},
							{
								"astId": 394,
								"contract": "Storage.sol:Storage",
								"label": "highestBidder",
								"offset": 0,
								"slot": "2",
								"type": "t_address_payable"
							},
							{
								"astId": 396,
								"contract": "Storage.sol:Storage",
								"label": "auctionType",
								"offset": 0,
								"slot": "3",
								"type": "t_uint256"
							},
							{
								"astId": 398,
								"contract": "Storage.sol:Storage",
								"label": "startingPrice",
								"offset": 0,
								"slot": "4",
								"type": "t_uint256"
							},
							{
								"astId": 400,
								"contract": "Storage.sol:Storage",
								"label": "buyPrice",
								"offset": 0,
								"slot": "5",
								"type": "t_uint256"
							},
							{
								"astId": 402,
								"contract": "Storage.sol:Storage",
								"label": "buyer",
								"offset": 0,
								"slot": "6",
								"type": "t_bool"
							},
							{
								"astId": 404,
								"contract": "Storage.sol:Storage",
								"label": "startingTime",
								"offset": 0,
								"slot": "7",
								"type": "t_uint256"
							},
							{
								"astId": 406,
								"contract": "Storage.sol:Storage",
								"label": "closingTime",
								"offset": 0,
								"slot": "8",
								"type": "t_uint256"
							},
							{
								"astId": 408,
								"contract": "Storage.sol:Storage",
								"label": "erc20Token",
								"offset": 0,
								"slot": "9",
								"type": "t_address"
							}
						],
						"numberOfBytes": "320"
					},
					"t_struct(erc20Addresses)8_storage": {
						"encoding": "inplace",
						"label": "struct ERC20Addresses.erc20Addresses",
						"members": [
							{
								"astId": 7,
								"contract": "Storage.sol:Storage",
								"label": "array",
								"offset": 0,
								"slot": "0",
								"type": "t_array(t_address)dyn_storage"
							}
						],
						"numberOfBytes": "32"
					},
					"t_uint16": {
						"encoding": "inplace",
						"label": "uint16",
						"numberOfBytes": "2"
					},
					"t_uint256": {
						"encoding": "inplace",
						"label": "uint256",
						"numberOfBytes": "32"
					}
				}
			},
			"userdoc": {
				"methods": {}
			}
		}
	}
}