{
	"demo.sol": {
		"demoArr": {
			"abi": [
				{
					"inputs": [],
					"name": "Cache",
					"outputs": [],
					"stateMutability": "nonpayable",
					"type": "function"
				},
				{
					"inputs": [],
					"name": "WithoutCache",
					"outputs": [],
					"stateMutability": "nonpayable",
					"type": "function"
				}
			],
			"devdoc": {
				"kind": "dev",
				"methods": {},
				"version": 1
			},
			"evm": {
				"assembly": "    /* \"demo.sol\":51:148  uint[] arr1=[1,2,3,4,5,6,7,8,9,10,11,12,13,14,15,16,17,18,19,20,21,22,23,23,23,23,232,32,3,32,32] */\n  0x0460\n    /* \"demo.sol\":27:451  contract demoArr {... */\n  0x40\n    /* \"demo.sol\":51:148  uint[] arr1=[1,2,3,4,5,6,7,8,9,10,11,12,13,14,15,16,17,18,19,20,21,22,23,23,23,23,232,32,3,32,32] */\n  mstore\n    /* \"demo.sol\":64:65  1 */\n  0x01\n    /* \"demo.sol\":27:451  contract demoArr {... */\n  0x80\n    /* \"demo.sol\":51:148  uint[] arr1=[1,2,3,4,5,6,7,8,9,10,11,12,13,14,15,16,17,18,19,20,21,22,23,23,23,23,232,32,3,32,32] */\n  swap1\n  dup2\n  mstore\n    /* \"demo.sol\":66:67  2 */\n  0x02\n    /* \"demo.sol\":51:148  uint[] arr1=[1,2,3,4,5,6,7,8,9,10,11,12,13,14,15,16,17,18,19,20,21,22,23,23,23,23,232,32,3,32,32] */\n  0xa0\n  mstore\n    /* \"demo.sol\":68:69  3 */\n  0x03\n    /* \"demo.sol\":51:148  uint[] arr1=[1,2,3,4,5,6,7,8,9,10,11,12,13,14,15,16,17,18,19,20,21,22,23,23,23,23,232,32,3,32,32] */\n  0xc0\n  dup2\n  swap1\n  mstore\n    /* \"demo.sol\":70:71  4 */\n  0x04\n    /* \"demo.sol\":51:148  uint[] arr1=[1,2,3,4,5,6,7,8,9,10,11,12,13,14,15,16,17,18,19,20,21,22,23,23,23,23,232,32,3,32,32] */\n  0xe0\n  mstore\n    /* \"demo.sol\":72:73  5 */\n  0x05\n    /* \"demo.sol\":51:148  uint[] arr1=[1,2,3,4,5,6,7,8,9,10,11,12,13,14,15,16,17,18,19,20,21,22,23,23,23,23,232,32,3,32,32] */\n  0x0100\n  mstore\n    /* \"demo.sol\":74:75  6 */\n  0x06\n    /* \"demo.sol\":51:148  uint[] arr1=[1,2,3,4,5,6,7,8,9,10,11,12,13,14,15,16,17,18,19,20,21,22,23,23,23,23,232,32,3,32,32] */\n  0x0120\n  mstore\n    /* \"demo.sol\":76:77  7 */\n  0x07\n    /* \"demo.sol\":51:148  uint[] arr1=[1,2,3,4,5,6,7,8,9,10,11,12,13,14,15,16,17,18,19,20,21,22,23,23,23,23,232,32,3,32,32] */\n  0x0140\n  mstore\n    /* \"demo.sol\":78:79  8 */\n  0x08\n    /* \"demo.sol\":51:148  uint[] arr1=[1,2,3,4,5,6,7,8,9,10,11,12,13,14,15,16,17,18,19,20,21,22,23,23,23,23,232,32,3,32,32] */\n  0x0160\n  mstore\n    /* \"demo.sol\":80:81  9 */\n  0x09\n    /* \"demo.sol\":51:148  uint[] arr1=[1,2,3,4,5,6,7,8,9,10,11,12,13,14,15,16,17,18,19,20,21,22,23,23,23,23,232,32,3,32,32] */\n  0x0180\n  mstore\n    /* \"demo.sol\":82:84  10 */\n  0x0a\n    /* \"demo.sol\":51:148  uint[] arr1=[1,2,3,4,5,6,7,8,9,10,11,12,13,14,15,16,17,18,19,20,21,22,23,23,23,23,232,32,3,32,32] */\n  0x01a0\n  mstore\n    /* \"demo.sol\":85:87  11 */\n  0x0b\n    /* \"demo.sol\":51:148  uint[] arr1=[1,2,3,4,5,6,7,8,9,10,11,12,13,14,15,16,17,18,19,20,21,22,23,23,23,23,232,32,3,32,32] */\n  0x01c0\n  mstore\n    /* \"demo.sol\":88:90  12 */\n  0x0c\n    /* \"demo.sol\":51:148  uint[] arr1=[1,2,3,4,5,6,7,8,9,10,11,12,13,14,15,16,17,18,19,20,21,22,23,23,23,23,232,32,3,32,32] */\n  0x01e0\n  mstore\n    /* \"demo.sol\":91:93  13 */\n  0x0d\n    /* \"demo.sol\":51:148  uint[] arr1=[1,2,3,4,5,6,7,8,9,10,11,12,13,14,15,16,17,18,19,20,21,22,23,23,23,23,232,32,3,32,32] */\n  0x0200\n  mstore\n    /* \"demo.sol\":94:96  14 */\n  0x0e\n    /* \"demo.sol\":51:148  uint[] arr1=[1,2,3,4,5,6,7,8,9,10,11,12,13,14,15,16,17,18,19,20,21,22,23,23,23,23,232,32,3,32,32] */\n  0x0220\n  mstore\n    /* \"demo.sol\":97:99  15 */\n  0x0f\n    /* \"demo.sol\":51:148  uint[] arr1=[1,2,3,4,5,6,7,8,9,10,11,12,13,14,15,16,17,18,19,20,21,22,23,23,23,23,232,32,3,32,32] */\n  0x0240\n  mstore\n    /* \"demo.sol\":100:102  16 */\n  0x10\n    /* \"demo.sol\":51:148  uint[] arr1=[1,2,3,4,5,6,7,8,9,10,11,12,13,14,15,16,17,18,19,20,21,22,23,23,23,23,232,32,3,32,32] */\n  0x0260\n  mstore\n    /* \"demo.sol\":103:105  17 */\n  0x11\n    /* \"demo.sol\":51:148  uint[] arr1=[1,2,3,4,5,6,7,8,9,10,11,12,13,14,15,16,17,18,19,20,21,22,23,23,23,23,232,32,3,32,32] */\n  0x0280\n  mstore\n    /* \"demo.sol\":106:108  18 */\n  0x12\n    /* \"demo.sol\":51:148  uint[] arr1=[1,2,3,4,5,6,7,8,9,10,11,12,13,14,15,16,17,18,19,20,21,22,23,23,23,23,232,32,3,32,32] */\n  0x02a0\n  mstore\n    /* \"demo.sol\":109:111  19 */\n  0x13\n    /* \"demo.sol\":51:148  uint[] arr1=[1,2,3,4,5,6,7,8,9,10,11,12,13,14,15,16,17,18,19,20,21,22,23,23,23,23,232,32,3,32,32] */\n  0x02c0\n  mstore\n    /* \"demo.sol\":112:114  20 */\n  0x14\n    /* \"demo.sol\":51:148  uint[] arr1=[1,2,3,4,5,6,7,8,9,10,11,12,13,14,15,16,17,18,19,20,21,22,23,23,23,23,232,32,3,32,32] */\n  0x02e0\n  mstore\n    /* \"demo.sol\":115:117  21 */\n  0x15\n    /* \"demo.sol\":51:148  uint[] arr1=[1,2,3,4,5,6,7,8,9,10,11,12,13,14,15,16,17,18,19,20,21,22,23,23,23,23,232,32,3,32,32] */\n  0x0300\n  mstore\n    /* \"demo.sol\":118:120  22 */\n  0x16\n    /* \"demo.sol\":51:148  uint[] arr1=[1,2,3,4,5,6,7,8,9,10,11,12,13,14,15,16,17,18,19,20,21,22,23,23,23,23,232,32,3,32,32] */\n  0x0320\n  mstore\n    /* \"demo.sol\":121:123  23 */\n  0x17\n    /* \"demo.sol\":51:148  uint[] arr1=[1,2,3,4,5,6,7,8,9,10,11,12,13,14,15,16,17,18,19,20,21,22,23,23,23,23,232,32,3,32,32] */\n  0x0340\n  dup2\n  swap1\n  mstore\n  0x0360\n  dup2\n  swap1\n  mstore\n  0x0380\n  dup2\n  swap1\n  mstore\n  0x03a0\n  mstore\n    /* \"demo.sol\":133:136  232 */\n  0xe8\n    /* \"demo.sol\":51:148  uint[] arr1=[1,2,3,4,5,6,7,8,9,10,11,12,13,14,15,16,17,18,19,20,21,22,23,23,23,23,232,32,3,32,32] */\n  0x03c0\n  mstore\n  0x20\n  0x03e0\n  dup2\n  swap1\n  mstore\n  0x0400\n  swap2\n  swap1\n  swap2\n  mstore\n  0x0420\n  dup2\n  swap1\n  mstore\n  0x0440\n  mstore\n  tag_1\n  swap1\n  0x00\n  swap1\n  0x1f\n  tag_2\n  jump\t// in\ntag_1:\n  pop\n    /* \"demo.sol\":27:451  contract demoArr {... */\n  callvalue\n  dup1\n  iszero\n  tag_3\n  jumpi\n  0x00\n  dup1\n  revert\ntag_3:\n  pop\n  jump(tag_4)\ntag_2:\n  dup3\n  dup1\n  sload\n  dup3\n  dup3\n  sstore\n  swap1\n  0x00\n  mstore\n  keccak256(0x00, 0x20)\n  swap1\n  dup2\n  add\n  swap3\n  dup3\n  iszero\n  tag_7\n  jumpi\n  swap2\n  0x20\n  mul\n  dup3\n  add\ntag_6:\n  dup3\n  dup2\n  gt\n  iszero\n  tag_7\n  jumpi\n  dup3\n  mload\n  dup3\n  swap1\n  0xff\n  and\n  swap1\n  sstore\n  swap2\n  0x20\n  add\n  swap2\n  swap1\n  0x01\n  add\n  swap1\n  jump(tag_6)\ntag_7:\n  pop\n  tag_8\n  swap3\n  swap2\n  pop\n  tag_9\n  jump\t// in\ntag_8:\n  pop\n  swap1\n  jump\t// out\ntag_9:\ntag_10:\n  dup1\n  dup3\n  gt\n  iszero\n  tag_8\n  jumpi\n  0x00\n  dup2\n  sstore\n  0x01\n  add\n  jump(tag_10)\ntag_4:\n  dataSize(sub_0)\n  dup1\n  dataOffset(sub_0)\n  0x00\n  codecopy\n  0x00\n  return\nstop\n\nsub_0: assembly {\n        /* \"demo.sol\":27:451  contract demoArr {... */\n      mstore(0x40, 0x80)\n      callvalue\n      dup1\n      iszero\n      tag_1\n      jumpi\n      0x00\n      dup1\n      revert\n    tag_1:\n      pop\n      jumpi(tag_2, lt(calldatasize, 0x04))\n      shr(0xe0, calldataload(0x00))\n      dup1\n      0x800188cd\n      eq\n      tag_3\n      jumpi\n      dup1\n      0x9d550415\n      eq\n      tag_4\n      jumpi\n    tag_2:\n      0x00\n      dup1\n      revert\n        /* \"demo.sol\":155:291  function WithoutCache() public  {... */\n    tag_3:\n      tag_5\n      tag_6\n      jump\t// in\n    tag_5:\n      stop\n        /* \"demo.sol\":297:449  function Cache() public {... */\n    tag_4:\n      tag_5\n      tag_8\n      jump\t// in\n        /* \"demo.sol\":155:291  function WithoutCache() public  {... */\n    tag_6:\n        /* \"demo.sol\":198:206  uint num */\n      0x00\n      dup1\n        /* \"demo.sol\":217:284  for(uint i=0;i< arr1.length;i++) {... */\n    tag_10:\n        /* \"demo.sol\":233:237  arr1 */\n      0x00\n        /* \"demo.sol\":233:244  arr1.length */\n      sload\n        /* \"demo.sol\":230:244  i< arr1.length */\n      dup2\n      lt\n        /* \"demo.sol\":217:284  for(uint i=0;i< arr1.length;i++) {... */\n      iszero\n      tag_11\n      jumpi\n        /* \"demo.sol\":265:271  num+=i */\n      tag_13\n        /* \"demo.sol\":270:271  i */\n      dup2\n        /* \"demo.sol\":265:271  num+=i */\n      dup4\n      tag_14\n      jump\t// in\n    tag_13:\n      swap2\n      pop\n        /* \"demo.sol\":245:248  i++ */\n      dup1\n      tag_15\n      dup2\n      tag_16\n      jump\t// in\n    tag_15:\n      swap2\n      pop\n      pop\n        /* \"demo.sol\":217:284  for(uint i=0;i< arr1.length;i++) {... */\n      jump(tag_10)\n    tag_11:\n      pop\n        /* \"demo.sol\":187:291  {... */\n      pop\n        /* \"demo.sol\":155:291  function WithoutCache() public  {... */\n      jump\t// out\n        /* \"demo.sol\":297:449  function Cache() public {... */\n    tag_8:\n        /* \"demo.sol\":332:340  uint num */\n      0x00\n        /* \"demo.sol\":360:371  arr1.length */\n      dup1\n      sload\n        /* \"demo.sol\":332:340  uint num */\n      dup2\n        /* \"demo.sol\":382:442  for(uint i=0;i< temp;i++) {... */\n    tag_18:\n        /* \"demo.sol\":398:402  temp */\n      dup2\n        /* \"demo.sol\":395:396  i */\n      dup2\n        /* \"demo.sol\":395:402  i< temp */\n      lt\n        /* \"demo.sol\":382:442  for(uint i=0;i< temp;i++) {... */\n      iszero\n      tag_19\n      jumpi\n        /* \"demo.sol\":423:429  num+=i */\n      tag_21\n        /* \"demo.sol\":428:429  i */\n      dup2\n        /* \"demo.sol\":423:429  num+=i */\n      dup5\n      tag_14\n      jump\t// in\n    tag_21:\n      swap3\n      pop\n        /* \"demo.sol\":403:406  i++ */\n      dup1\n      tag_22\n      dup2\n      tag_16\n      jump\t// in\n    tag_22:\n      swap2\n      pop\n      pop\n        /* \"demo.sol\":382:442  for(uint i=0;i< temp;i++) {... */\n      jump(tag_18)\n    tag_19:\n      pop\n        /* \"demo.sol\":321:449  {... */\n      pop\n      pop\n        /* \"demo.sol\":297:449  function Cache() public {... */\n      jump\t// out\n        /* \"#utility.yul\":14:141   */\n    tag_23:\n        /* \"#utility.yul\":75:85   */\n      0x4e487b71\n        /* \"#utility.yul\":70:73   */\n      0xe0\n        /* \"#utility.yul\":66:86   */\n      shl\n        /* \"#utility.yul\":63:64   */\n      0x00\n        /* \"#utility.yul\":56:87   */\n      mstore\n        /* \"#utility.yul\":106:110   */\n      0x11\n        /* \"#utility.yul\":103:104   */\n      0x04\n        /* \"#utility.yul\":96:111   */\n      mstore\n        /* \"#utility.yul\":130:134   */\n      0x24\n        /* \"#utility.yul\":127:128   */\n      0x00\n        /* \"#utility.yul\":120:135   */\n      revert\n        /* \"#utility.yul\":146:274   */\n    tag_14:\n        /* \"#utility.yul\":186:189   */\n      0x00\n        /* \"#utility.yul\":217:218   */\n      dup3\n        /* \"#utility.yul\":213:219   */\n      not\n        /* \"#utility.yul\":210:211   */\n      dup3\n        /* \"#utility.yul\":207:220   */\n      gt\n        /* \"#utility.yul\":204:243   */\n      iszero\n      tag_28\n      jumpi\n        /* \"#utility.yul\":223:241   */\n      tag_28\n      tag_23\n      jump\t// in\n    tag_28:\n      pop\n        /* \"#utility.yul\":259:268   */\n      add\n      swap1\n        /* \"#utility.yul\":146:274   */\n      jump\t// out\n        /* \"#utility.yul\":279:414   */\n    tag_16:\n        /* \"#utility.yul\":318:321   */\n      0x00\n        /* \"#utility.yul\":339:356   */\n      0x01\n      dup3\n      add\n        /* \"#utility.yul\":336:379   */\n      tag_31\n      jumpi\n        /* \"#utility.yul\":359:377   */\n      tag_31\n      tag_23\n      jump\t// in\n    tag_31:\n      pop\n        /* \"#utility.yul\":406:407   */\n      0x01\n        /* \"#utility.yul\":395:408   */\n      add\n      swap1\n        /* \"#utility.yul\":279:414   */\n      jump\t// out\n\n    auxdata: 0xa264697066735822122088e0b11dcbf367351e69b3496768bb8f797cab11fc40e0f4f87b6446a25eb4b264736f6c634300080e0033\n}\n",
				"bytecode": {
					"linkReferences": {},
					"object": "61046060405260016080908152600260a052600360c0819052600460e052600561010052600661012052600761014052600861016052600961018052600a6101a052600b6101c052600c6101e052600d61020052600e61022052600f6102405260106102605260116102805260126102a05260136102c05260146102e05260156103005260166103205260176103408190526103608190526103808190526103a05260e86103c05260206103e081905261040091909152610420819052610440526100ce90600090601f6100e1565b503480156100db57600080fd5b50610146565b828054828255906000526020600020908101928215610121579160200282015b82811115610121578251829060ff16905591602001919060010190610101565b5061012d929150610131565b5090565b5b8082111561012d5760008155600101610132565b610111806101556000396000f3fe6080604052348015600f57600080fd5b506004361060325760003560e01c8063800188cd1460375780639d55041514603f575b600080fd5b603d6045565b005b603d606f565b6000805b600054811015606b57605a818360b0565b91508060648160c5565b9150506049565b5050565b60008054815b818110156095576084818460b0565b925080608e8160c5565b9150506075565b505050565b634e487b7160e01b600052601160045260246000fd5b6000821982111560c05760c0609a565b500190565b60006001820160d45760d4609a565b506001019056fea264697066735822122088e0b11dcbf367351e69b3496768bb8f797cab11fc40e0f4f87b6446a25eb4b264736f6c634300080e0033",
					"opcodes": "PUSH2 0x460 PUSH1 0x40 MSTORE PUSH1 0x1 PUSH1 0x80 SWAP1 DUP2 MSTORE PUSH1 0x2 PUSH1 0xA0 MSTORE PUSH1 0x3 PUSH1 0xC0 DUP2 SWAP1 MSTORE PUSH1 0x4 PUSH1 0xE0 MSTORE PUSH1 0x5 PUSH2 0x100 MSTORE PUSH1 0x6 PUSH2 0x120 MSTORE PUSH1 0x7 PUSH2 0x140 MSTORE PUSH1 0x8 PUSH2 0x160 MSTORE PUSH1 0x9 PUSH2 0x180 MSTORE PUSH1 0xA PUSH2 0x1A0 MSTORE PUSH1 0xB PUSH2 0x1C0 MSTORE PUSH1 0xC PUSH2 0x1E0 MSTORE PUSH1 0xD PUSH2 0x200 MSTORE PUSH1 0xE PUSH2 0x220 MSTORE PUSH1 0xF PUSH2 0x240 MSTORE PUSH1 0x10 PUSH2 0x260 MSTORE PUSH1 0x11 PUSH2 0x280 MSTORE PUSH1 0x12 PUSH2 0x2A0 MSTORE PUSH1 0x13 PUSH2 0x2C0 MSTORE PUSH1 0x14 PUSH2 0x2E0 MSTORE PUSH1 0x15 PUSH2 0x300 MSTORE PUSH1 0x16 PUSH2 0x320 MSTORE PUSH1 0x17 PUSH2 0x340 DUP2 SWAP1 MSTORE PUSH2 0x360 DUP2 SWAP1 MSTORE PUSH2 0x380 DUP2 SWAP1 MSTORE PUSH2 0x3A0 MSTORE PUSH1 0xE8 PUSH2 0x3C0 MSTORE PUSH1 0x20 PUSH2 0x3E0 DUP2 SWAP1 MSTORE PUSH2 0x400 SWAP2 SWAP1 SWAP2 MSTORE PUSH2 0x420 DUP2 SWAP1 MSTORE PUSH2 0x440 MSTORE PUSH2 0xCE SWAP1 PUSH1 0x0 SWAP1 PUSH1 0x1F PUSH2 0xE1 JUMP JUMPDEST POP CALLVALUE DUP1 ISZERO PUSH2 0xDB JUMPI PUSH1 0x0 DUP1 REVERT JUMPDEST POP PUSH2 0x146 JUMP JUMPDEST DUP3 DUP1 SLOAD DUP3 DUP3 SSTORE SWAP1 PUSH1 0x0 MSTORE PUSH1 0x20 PUSH1 0x0 KECCAK256 SWAP1 DUP2 ADD SWAP3 DUP3 ISZERO PUSH2 0x121 JUMPI SWAP2 PUSH1 0x20 MUL DUP3 ADD JUMPDEST DUP3 DUP2 GT ISZERO PUSH2 0x121 JUMPI DUP3 MLOAD DUP3 SWAP1 PUSH1 0xFF AND SWAP1 SSTORE SWAP2 PUSH1 0x20 ADD SWAP2 SWAP1 PUSH1 0x1 ADD SWAP1 PUSH2 0x101 JUMP JUMPDEST POP PUSH2 0x12D SWAP3 SWAP2 POP PUSH2 0x131 JUMP JUMPDEST POP SWAP1 JUMP JUMPDEST JUMPDEST DUP1 DUP3 GT ISZERO PUSH2 0x12D JUMPI PUSH1 0x0 DUP2 SSTORE PUSH1 0x1 ADD PUSH2 0x132 JUMP JUMPDEST PUSH2 0x111 DUP1 PUSH2 0x155 PUSH1 0x0 CODECOPY PUSH1 0x0 RETURN INVALID PUSH1 0x80 PUSH1 0x40 MSTORE CALLVALUE DUP1 ISZERO PUSH1 0xF JUMPI PUSH1 0x0 DUP1 REVERT JUMPDEST POP PUSH1 0x4 CALLDATASIZE LT PUSH1 0x32 JUMPI PUSH1 0x0 CALLDATALOAD PUSH1 0xE0 SHR DUP1 PUSH4 0x800188CD EQ PUSH1 0x37 JUMPI DUP1 PUSH4 0x9D550415 EQ PUSH1 0x3F JUMPI JUMPDEST PUSH1 0x0 DUP1 REVERT JUMPDEST PUSH1 0x3D PUSH1 0x45 JUMP JUMPDEST STOP JUMPDEST PUSH1 0x3D PUSH1 0x6F JUMP JUMPDEST PUSH1 0x0 DUP1 JUMPDEST PUSH1 0x0 SLOAD DUP2 LT ISZERO PUSH1 0x6B JUMPI PUSH1 0x5A DUP2 DUP4 PUSH1 0xB0 JUMP JUMPDEST SWAP2 POP DUP1 PUSH1 0x64 DUP2 PUSH1 0xC5 JUMP JUMPDEST SWAP2 POP POP PUSH1 0x49 JUMP JUMPDEST POP POP JUMP JUMPDEST PUSH1 0x0 DUP1 SLOAD DUP2 JUMPDEST DUP2 DUP2 LT ISZERO PUSH1 0x95 JUMPI PUSH1 0x84 DUP2 DUP5 PUSH1 0xB0 JUMP JUMPDEST SWAP3 POP DUP1 PUSH1 0x8E DUP2 PUSH1 0xC5 JUMP JUMPDEST SWAP2 POP POP PUSH1 0x75 JUMP JUMPDEST POP POP POP JUMP JUMPDEST PUSH4 0x4E487B71 PUSH1 0xE0 SHL PUSH1 0x0 MSTORE PUSH1 0x11 PUSH1 0x4 MSTORE PUSH1 0x24 PUSH1 0x0 REVERT JUMPDEST PUSH1 0x0 DUP3 NOT DUP3 GT ISZERO PUSH1 0xC0 JUMPI PUSH1 0xC0 PUSH1 0x9A JUMP JUMPDEST POP ADD SWAP1 JUMP JUMPDEST PUSH1 0x0 PUSH1 0x1 DUP3 ADD PUSH1 0xD4 JUMPI PUSH1 0xD4 PUSH1 0x9A JUMP JUMPDEST POP PUSH1 0x1 ADD SWAP1 JUMP INVALID LOG2 PUSH5 0x6970667358 0x22 SLT KECCAK256 DUP9 0xE0 0xB1 SAR 0xCB RETURN PUSH8 0x351E69B3496768BB DUP16 PUSH26 0x7CAB11FC40E0F4F87B6446A25EB4B264736F6C634300080E0033 "
				},
				"gasEstimates": {
					"creation": {
						"codeDepositCost": "54600",
						"executionCost": "infinite",
						"totalCost": "infinite"
					},
					"external": {
						"Cache()": "infinite",
						"WithoutCache()": "infinite"
					}
				},
				"methodIdentifiers": {
					"Cache()": "9d550415",
					"WithoutCache()": "800188cd"
				}
			},
			"storageLayout": {
				"storage": [
					{
						"astId": 36,
						"contract": "demo.sol:demoArr",
						"label": "arr1",
						"offset": 0,
						"slot": "0",
						"type": "t_array(t_uint256)dyn_storage"
					}
				],
				"types": {
					"t_array(t_uint256)dyn_storage": {
						"base": "t_uint256",
						"encoding": "dynamic_array",
						"label": "uint256[]",
						"numberOfBytes": "32"
					},
					"t_uint256": {
						"encoding": "inplace",
						"label": "uint256",
						"numberOfBytes": "32"
					}
				}
			},
			"userdoc": {
				"kind": "user",
				"methods": {},
				"version": 1
			}
		}
	}
}