{
	"Admin.sol": {
		"Admin": {
			"abi": [
				{
					"anonymous": false,
					"inputs": [
						{
							"indexed": true,
							"internalType": "address",
							"name": "admin",
							"type": "address"
						},
						{
							"indexed": true,
							"internalType": "address",
							"name": "contractAddress",
							"type": "address"
						},
						{
							"indexed": true,
							"internalType": "string",
							"name": "functionName",
							"type": "string"
						},
						{
							"indexed": false,
							"internalType": "address",
							"name": "collectionAddress",
							"type": "address"
						},
						{
							"indexed": false,
							"internalType": "uint256",
							"name": "tokenId",
							"type": "uint256"
						}
					],
					"name": "AdminActionPerformed",
					"type": "event"
				},
				{
					"anonymous": false,
					"inputs": [
						{
							"indexed": false,
							"internalType": "address",
							"name": "admin",
							"type": "address"
						},
						{
							"indexed": false,
							"internalType": "uint256",
							"name": "time",
							"type": "uint256"
						}
					],
					"name": "AdminAdded",
					"type": "event"
				},
				{
					"anonymous": false,
					"inputs": [
						{
							"indexed": false,
							"internalType": "address",
							"name": "admin",
							"type": "address"
						},
						{
							"indexed": false,
							"internalType": "uint256",
							"name": "time",
							"type": "uint256"
						}
					],
					"name": "AdminRemoved",
					"type": "event"
				},
				{
					"anonymous": false,
					"inputs": [
						{
							"indexed": true,
							"internalType": "address",
							"name": "collection",
							"type": "address"
						},
						{
							"indexed": true,
							"internalType": "uint256",
							"name": "tokenId",
							"type": "uint256"
						},
						{
							"indexed": true,
							"internalType": "address",
							"name": "admin",
							"type": "address"
						},
						{
							"indexed": false,
							"internalType": "uint256",
							"name": "time",
							"type": "uint256"
						},
						{
							"indexed": false,
							"internalType": "string",
							"name": "tokenURI",
							"type": "string"
						}
					],
					"name": "NFTBurned",
					"type": "event"
				},
				{
					"constant": false,
					"inputs": [
						{
							"internalType": "address",
							"name": "admin",
							"type": "address"
						}
					],
					"name": "addAdmin",
					"outputs": [],
					"payable": false,
					"stateMutability": "nonpayable",
					"type": "function"
				},
				{
					"constant": true,
					"inputs": [
						{
							"internalType": "address",
							"name": "_sender",
							"type": "address"
						}
					],
					"name": "adminExist",
					"outputs": [
						{
							"internalType": "bool",
							"name": "",
							"type": "bool"
						}
					],
					"payable": false,
					"stateMutability": "view",
					"type": "function"
				},
				{
					"constant": true,
					"inputs": [
						{
							"internalType": "uint256",
							"name": "",
							"type": "uint256"
						}
					],
					"name": "admins",
					"outputs": [
						{
							"internalType": "address",
							"name": "",
							"type": "address"
						}
					],
					"payable": false,
					"stateMutability": "view",
					"type": "function"
				},
				{
					"constant": false,
					"inputs": [
						{
							"internalType": "address",
							"name": "collection",
							"type": "address"
						},
						{
							"internalType": "uint256",
							"name": "tokenId",
							"type": "uint256"
						}
					],
					"name": "burnNFT",
					"outputs": [],
					"payable": false,
					"stateMutability": "nonpayable",
					"type": "function"
				},
				{
					"constant": false,
					"inputs": [
						{
							"internalType": "address",
							"name": "_erc20",
							"type": "address"
						},
						{
							"internalType": "address",
							"name": "spender",
							"type": "address"
						},
						{
							"internalType": "uint256",
							"name": "value",
							"type": "uint256"
						}
					],
					"name": "erc20Approve",
					"outputs": [],
					"payable": false,
					"stateMutability": "nonpayable",
					"type": "function"
				},
				{
					"constant": false,
					"inputs": [
						{
							"internalType": "address",
							"name": "_erc20",
							"type": "address"
						},
						{
							"internalType": "address",
							"name": "spender",
							"type": "address"
						},
						{
							"internalType": "uint256",
							"name": "subtractedValue",
							"type": "uint256"
						}
					],
					"name": "erc20DecreaseAllowance",
					"outputs": [],
					"payable": false,
					"stateMutability": "nonpayable",
					"type": "function"
				},
				{
					"constant": false,
					"inputs": [
						{
							"internalType": "address",
							"name": "_erc20",
							"type": "address"
						},
						{
							"internalType": "address",
							"name": "_spender",
							"type": "address"
						},
						{
							"internalType": "uint256",
							"name": "_subtractedValue",
							"type": "uint256"
						}
					],
					"name": "erc20DecreaseApproval",
					"outputs": [],
					"payable": false,
					"stateMutability": "nonpayable",
					"type": "function"
				},
				{
					"constant": false,
					"inputs": [
						{
							"internalType": "address",
							"name": "_erc20",
							"type": "address"
						},
						{
							"internalType": "address",
							"name": "spender",
							"type": "address"
						},
						{
							"internalType": "uint256",
							"name": "addedValue",
							"type": "uint256"
						}
					],
					"name": "erc20IncreaseAllowance",
					"outputs": [],
					"payable": false,
					"stateMutability": "nonpayable",
					"type": "function"
				},
				{
					"constant": false,
					"inputs": [
						{
							"internalType": "address",
							"name": "_erc20",
							"type": "address"
						},
						{
							"internalType": "address",
							"name": "spender",
							"type": "address"
						},
						{
							"internalType": "uint256",
							"name": "addedValue",
							"type": "uint256"
						}
					],
					"name": "erc20IncreaseApproval",
					"outputs": [],
					"payable": false,
					"stateMutability": "nonpayable",
					"type": "function"
				},
				{
					"constant": false,
					"inputs": [
						{
							"internalType": "address",
							"name": "_erc20",
							"type": "address"
						},
						{
							"internalType": "address",
							"name": "to",
							"type": "address"
						},
						{
							"internalType": "uint256",
							"name": "value",
							"type": "uint256"
						}
					],
					"name": "erc20Transfer",
					"outputs": [],
					"payable": false,
					"stateMutability": "nonpayable",
					"type": "function"
				},
				{
					"constant": false,
					"inputs": [
						{
							"internalType": "address",
							"name": "_erc20",
							"type": "address"
						},
						{
							"internalType": "address",
							"name": "from",
							"type": "address"
						},
						{
							"internalType": "address",
							"name": "to",
							"type": "address"
						},
						{
							"internalType": "uint256",
							"name": "value",
							"type": "uint256"
						}
					],
					"name": "erc20TransferFrom",
					"outputs": [],
					"payable": false,
					"stateMutability": "nonpayable",
					"type": "function"
				},
				{
					"constant": false,
					"inputs": [
						{
							"internalType": "address",
							"name": "_ERC721Address",
							"type": "address"
						},
						{
							"internalType": "address",
							"name": "_to",
							"type": "address"
						},
						{
							"internalType": "uint256",
							"name": "_tokenId",
							"type": "uint256"
						}
					],
					"name": "erc721Approve",
					"outputs": [],
					"payable": false,
					"stateMutability": "nonpayable",
					"type": "function"
				},
				{
					"constant": false,
					"inputs": [
						{
							"internalType": "address",
							"name": "_ERC721Address",
							"type": "address"
						},
						{
							"internalType": "uint256",
							"name": "tokenId",
							"type": "uint256"
						}
					],
					"name": "erc721Burn",
					"outputs": [],
					"payable": false,
					"stateMutability": "nonpayable",
					"type": "function"
				},
				{
					"constant": false,
					"inputs": [
						{
							"internalType": "address",
							"name": "_ERC721Address",
							"type": "address"
						},
						{
							"internalType": "string",
							"name": "tokenURI",
							"type": "string"
						},
						{
							"internalType": "uint256",
							"name": "_royality",
							"type": "uint256"
						}
					],
					"name": "erc721Mint",
					"outputs": [],
					"payable": false,
					"stateMutability": "nonpayable",
					"type": "function"
				},
				{
					"constant": false,
					"inputs": [
						{
							"internalType": "address",
							"name": "_ERC721Address",
							"type": "address"
						},
						{
							"internalType": "address",
							"name": "from",
							"type": "address"
						},
						{
							"internalType": "address",
							"name": "to",
							"type": "address"
						},
						{
							"internalType": "uint256",
							"name": "tokenId",
							"type": "uint256"
						},
						{
							"internalType": "bytes",
							"name": "_data",
							"type": "bytes"
						}
					],
					"name": "erc721SafeTransferFrom",
					"outputs": [],
					"payable": false,
					"stateMutability": "nonpayable",
					"type": "function"
				},
				{
					"constant": false,
					"inputs": [
						{
							"internalType": "address",
							"name": "_ERC721Address",
							"type": "address"
						},
						{
							"internalType": "address",
							"name": "from",
							"type": "address"
						},
						{
							"internalType": "address",
							"name": "to",
							"type": "address"
						},
						{
							"internalType": "uint256",
							"name": "tokenId",
							"type": "uint256"
						}
					],
					"name": "erc721SafeTransferFrom",
					"outputs": [],
					"payable": false,
					"stateMutability": "nonpayable",
					"type": "function"
				},
				{
					"constant": false,
					"inputs": [
						{
							"internalType": "address",
							"name": "_ERC721Address",
							"type": "address"
						},
						{
							"internalType": "address",
							"name": "_to",
							"type": "address"
						},
						{
							"internalType": "uint256",
							"name": "_tokenId",
							"type": "uint256"
						}
					],
					"name": "erc721Transfer",
					"outputs": [],
					"payable": false,
					"stateMutability": "nonpayable",
					"type": "function"
				},
				{
					"constant": false,
					"inputs": [
						{
							"internalType": "address",
							"name": "_ERC721Address",
							"type": "address"
						},
						{
							"internalType": "address",
							"name": "from",
							"type": "address"
						},
						{
							"internalType": "address",
							"name": "to",
							"type": "address"
						},
						{
							"internalType": "uint256",
							"name": "tokenId",
							"type": "uint256"
						}
					],
					"name": "erc721TransferFrom",
					"outputs": [],
					"payable": false,
					"stateMutability": "nonpayable",
					"type": "function"
				},
				{
					"constant": true,
					"inputs": [],
					"name": "getAdmins",
					"outputs": [
						{
							"internalType": "address[]",
							"name": "",
							"type": "address[]"
						}
					],
					"payable": false,
					"stateMutability": "view",
					"type": "function"
				},
				{
					"constant": true,
					"inputs": [],
					"name": "isOwner",
					"outputs": [
						{
							"internalType": "bool",
							"name": "",
							"type": "bool"
						}
					],
					"payable": false,
					"stateMutability": "view",
					"type": "function"
				},
				{
					"constant": true,
					"inputs": [],
					"name": "owner",
					"outputs": [
						{
							"internalType": "address",
							"name": "",
							"type": "address"
						}
					],
					"payable": false,
					"stateMutability": "view",
					"type": "function"
				},
				{
					"constant": false,
					"inputs": [
						{
							"internalType": "address",
							"name": "admin",
							"type": "address"
						}
					],
					"name": "removeAdmin",
					"outputs": [],
					"payable": false,
					"stateMutability": "nonpayable",
					"type": "function"
				},
				{
					"constant": false,
					"inputs": [
						{
							"internalType": "address",
							"name": "newOwner",
							"type": "address"
						}
					],
					"name": "transferOwnership",
					"outputs": [],
					"payable": false,
					"stateMutability": "nonpayable",
					"type": "function"
				}
			],
			"devdoc": {
				"methods": {
					"isOwner()": {
						"details": "Returns true if the caller is the current owner."
					},
					"owner()": {
						"details": "Returns the address of the current owner."
					},
					"transferOwnership(address)": {
						"details": "Transfers ownership of the contract to a new account (`newOwner`). Can only be called by the current owner."
					}
				}
			},
			"evm": {
				"assembly": "    /* \"Admin.sol\":2437:3316  FunctionNames(... */\n  0x0e\n  0x03c0\n  dup2\n  dup2\n  mstore\n  shl(0x90, 0x4552433732313a617070726f7665)\n  0x03e0\n  swap1\n  dup2\n  mstore\n    /* \"Admin.sol\":1015:11253  contract Admin is Ownable{... */\n  0x80\n    /* \"Admin.sol\":2437:3316  FunctionNames(... */\n  swap2\n  dup3\n  mstore\n  0x0f\n  0x0400\n  swap1\n  dup2\n  mstore\n  mstore(0x0420, shl(0x89, 0x22a9219b99189d3a3930b739b332b9))\n  0xa0\n  mstore\n  0x0b\n  0x0440\n  dup2\n  dup2\n  mstore\n  mstore(0x0460, shl(0xa9, 0x22a9219b99189d313ab937))\n  0xc0\n  mstore\n  0x0480\n  swap1\n  dup2\n  mstore\n  mstore(0x04a0, shl(0xaa, 0x115490cdcc8c4e9b5a5b9d))\n  0xe0\n  mstore\n  0x17\n  0x04c0\n  dup2\n  dup2\n  mstore\n  mstore(0x04e0, 0x4552433732313a736166655472616e7366657246726f6d000000000000000000)\n  0x0100\n  mstore\n  0x13\n  0x0500\n  dup2\n  dup2\n  mstore\n  mstore(0x0520, 0x4552433732313a7472616e7366657246726f6d00000000000000000000000000)\n  0x0120\n  mstore\n  0x10\n  0x0540\n  dup2\n  dup2\n  mstore\n  mstore(0x0560, shl(0x80, 0x42726f6b65723a7075744f6e53616c65))\n  0x0140\n  mstore\n  0x0a\n  0x0580\n  dup2\n  dup2\n  mstore\n  mstore(0x05a0, shl(0xb0, 0x42726f6b65723a627579))\n  0x0160\n  mstore\n  0x05c0\n  swap1\n  dup2\n  mstore\n  mstore(0x05e0, shl(0xb2, 0x109c9bdad95c8e989a59))\n  0x0180\n  mstore\n  0x0600\n  dup7\n  dup2\n  mstore\n  mstore(0x0620, shl(0x92, 0x109c9bdad95c8e98dbdb1b1958dd))\n  0x01a0\n  mstore\n  0x12\n  0x0640\n  dup2\n  dup2\n  mstore\n  mstore(0x0660, shl(0x70, 0x42726f6b65723a7570646174655072696365))\n  0x01c0\n  mstore\n  0x11\n  0x0680\n  dup2\n  dup2\n  mstore\n  mstore(0x06a0, shl(0x79, 0x213937b5b2b91d383aba29b0b632a7b333))\n  0x01e0\n  mstore\n  0x06c0\n  dup3\n  dup2\n  mstore\n  mstore(0x06e0, shl(0x71, 0x213937b5b2b91d36b0b5b2a0b727b33332b9))\n  0x0200\n  mstore\n  0x0700\n  dup3\n  dup2\n  mstore\n  mstore(0x0720, shl(0x71, 0x213937b5b2b91d30b1b1b832ba27b33332b9))\n  0x0220\n  mstore\n  0x0740\n  dup3\n  dup2\n  mstore\n  mstore(0x0760, shl(0x71, 0x213937b5b2b91d3932bb32b93a27b33332b9))\n  0x0240\n  mstore\n  0x0780\n  swap3\n  dup4\n  mstore\n  mstore(0x07a0, shl(0x82, 0x109c9bdad95c8e9c995d995c9d105b1b))\n  0x0260\n  swap3\n  swap1\n  swap3\n  mstore\n  0x07c0\n  swap3\n  dup4\n  mstore\n  mstore(0x07e0, 0x42726f6b65723a62617463684c697374696e6700000000000000000000000000)\n  0x0280\n  swap3\n  swap1\n  swap3\n  mstore\n  0x15\n  0x0800\n  swap1\n  dup2\n  mstore\n  mstore(0x0820, 0x42726f6b65723a626174636844656c697374696e670000000000000000000000)\n  0x02a0\n  mstore\n  0x0840\n  swap1\n  dup2\n  mstore\n  mstore(0x0860, shl(0x78, 0x42726f6b65723a73657441646472657373))\n  0x02c0\n  mstore\n  0x0d\n  0x0880\n  swap1\n  dup2\n  mstore\n  mstore(0x08a0, shl(0x98, 0x45524332303a617070726f7665))\n  0x02e0\n  mstore\n  0x16\n  0x08c0\n  dup2\n  dup2\n  mstore\n  mstore(0x08e0, 0x45524332303a6465637265617365417070726f76616c00000000000000000000)\n  0x0300\n  mstore\n  0x0900\n  swap1\n  dup2\n  mstore\n  mstore(0x0920, 0x45524332303a696e637265617365417070726f76616c00000000000000000000)\n  0x0320\n  mstore\n  0x0940\n  dup6\n  dup2\n  mstore\n  mstore(0x0960, shl(0x91, 0x22a92199181d3a3930b739b332b9))\n  0x0340\n  mstore\n  0x0980\n  swap1\n  dup2\n  mstore\n  mstore(0x09a0, shl(0x70, 0x45524332303a7472616e7366657246726f6d))\n  0x0360\n  mstore\n  0x09c0\n  dup2\n  dup2\n  mstore\n  mstore(0x09e0, 0x45524332303a696e637265617365416c6c6f77616e6365000000000000000000)\n  0x0380\n  mstore\n  0x0a40\n    /* \"Admin.sol\":1015:11253  contract Admin is Ownable{... */\n  0x40\n    /* \"Admin.sol\":2437:3316  FunctionNames(... */\n  mstore\n  0x0a00\n  swap1\n  dup2\n  mstore\n  mstore(0x0a20, 0x45524332303a6465637265617365416c6c6f77616e6365000000000000000000)\n  0x03a0\n  mstore\n    /* \"Admin.sol\":1015:11253  contract Admin is Ownable{... */\n  swap1\n  swap2\n    /* \"Admin.sol\":2399:3316  FunctionNames functionNames =... */\n  0x01\n  swap2\n  tag_1\n  swap2\n  dup4\n  swap2\n    /* \"Admin.sol\":2437:3316  FunctionNames(... */\n  swap1\n    /* \"Admin.sol\":2399:3316  FunctionNames functionNames =... */\n  tag_2\n  jump\t// in\ntag_1:\n  pop\n  0x20\n  dup3\n  dup2\n  add\n  mload\n  dup1\n  mload\n  tag_3\n  swap3\n  0x01\n  dup6\n  add\n  swap3\n  add\n  swap1\n  tag_2\n  jump\t// in\ntag_3:\n  pop\n  0x40\n  dup3\n  add\n  mload\n  dup1\n  mload\n  tag_4\n  swap2\n  0x02\n  dup5\n  add\n  swap2\n  0x20\n  swap1\n  swap2\n  add\n  swap1\n  tag_2\n  jump\t// in\ntag_4:\n  pop\n  0x60\n  dup3\n  add\n  mload\n  dup1\n  mload\n  tag_5\n  swap2\n  0x03\n  dup5\n  add\n  swap2\n  0x20\n  swap1\n  swap2\n  add\n  swap1\n  tag_2\n  jump\t// in\ntag_5:\n  pop\n  0x80\n  dup3\n  add\n  mload\n  dup1\n  mload\n  tag_6\n  swap2\n  0x04\n  dup5\n  add\n  swap2\n  0x20\n  swap1\n  swap2\n  add\n  swap1\n  tag_2\n  jump\t// in\ntag_6:\n  pop\n  0xa0\n  dup3\n  add\n  mload\n  dup1\n  mload\n  tag_7\n  swap2\n  0x05\n  dup5\n  add\n  swap2\n  0x20\n  swap1\n  swap2\n  add\n  swap1\n  tag_2\n  jump\t// in\ntag_7:\n  pop\n  0xc0\n  dup3\n  add\n  mload\n  dup1\n  mload\n  tag_8\n  swap2\n  0x06\n  dup5\n  add\n  swap2\n  0x20\n  swap1\n  swap2\n  add\n  swap1\n  tag_2\n  jump\t// in\ntag_8:\n  pop\n  0xe0\n  dup3\n  add\n  mload\n  dup1\n  mload\n  tag_9\n  swap2\n  0x07\n  dup5\n  add\n  swap2\n  0x20\n  swap1\n  swap2\n  add\n  swap1\n  tag_2\n  jump\t// in\ntag_9:\n  pop\n  0x0100\n  dup3\n  add\n  mload\n  dup1\n  mload\n  tag_10\n  swap2\n  0x08\n  dup5\n  add\n  swap2\n  0x20\n  swap1\n  swap2\n  add\n  swap1\n  tag_2\n  jump\t// in\ntag_10:\n  pop\n  0x0120\n  dup3\n  add\n  mload\n  dup1\n  mload\n  tag_11\n  swap2\n  0x09\n  dup5\n  add\n  swap2\n  0x20\n  swap1\n  swap2\n  add\n  swap1\n  tag_2\n  jump\t// in\ntag_11:\n  pop\n  0x0140\n  dup3\n  add\n  mload\n  dup1\n  mload\n  tag_12\n  swap2\n  0x0a\n  dup5\n  add\n  swap2\n  0x20\n  swap1\n  swap2\n  add\n  swap1\n  tag_2\n  jump\t// in\ntag_12:\n  pop\n  0x0160\n  dup3\n  add\n  mload\n  dup1\n  mload\n  tag_13\n  swap2\n  0x0b\n  dup5\n  add\n  swap2\n  0x20\n  swap1\n  swap2\n  add\n  swap1\n  tag_2\n  jump\t// in\ntag_13:\n  pop\n  0x0180\n  dup3\n  add\n  mload\n  dup1\n  mload\n  tag_14\n  swap2\n  0x0c\n  dup5\n  add\n  swap2\n  0x20\n  swap1\n  swap2\n  add\n  swap1\n  tag_2\n  jump\t// in\ntag_14:\n  pop\n  0x01a0\n  dup3\n  add\n  mload\n  dup1\n  mload\n  tag_15\n  swap2\n  0x0d\n  dup5\n  add\n  swap2\n  0x20\n  swap1\n  swap2\n  add\n  swap1\n  tag_2\n  jump\t// in\ntag_15:\n  pop\n  0x01c0\n  dup3\n  add\n  mload\n  dup1\n  mload\n  tag_16\n  swap2\n  0x0e\n  dup5\n  add\n  swap2\n  0x20\n  swap1\n  swap2\n  add\n  swap1\n  tag_2\n  jump\t// in\ntag_16:\n  pop\n  0x01e0\n  dup3\n  add\n  mload\n  dup1\n  mload\n  tag_17\n  swap2\n  0x0f\n  dup5\n  add\n  swap2\n  0x20\n  swap1\n  swap2\n  add\n  swap1\n  tag_2\n  jump\t// in\ntag_17:\n  pop\n  0x0200\n  dup3\n  add\n  mload\n  dup1\n  mload\n  tag_18\n  swap2\n  0x10\n  dup5\n  add\n  swap2\n  0x20\n  swap1\n  swap2\n  add\n  swap1\n  tag_2\n  jump\t// in\ntag_18:\n  pop\n  0x0220\n  dup3\n  add\n  mload\n  dup1\n  mload\n  tag_19\n  swap2\n  0x11\n  dup5\n  add\n  swap2\n  0x20\n  swap1\n  swap2\n  add\n  swap1\n  tag_2\n  jump\t// in\ntag_19:\n  pop\n  0x0240\n  dup3\n  add\n  mload\n  dup1\n  mload\n  tag_20\n  swap2\n  0x12\n  dup5\n  add\n  swap2\n  0x20\n  swap1\n  swap2\n  add\n  swap1\n  tag_2\n  jump\t// in\ntag_20:\n  pop\n  0x0260\n  dup3\n  add\n  mload\n  dup1\n  mload\n  tag_21\n  swap2\n  0x13\n  dup5\n  add\n  swap2\n  0x20\n  swap1\n  swap2\n  add\n  swap1\n  tag_2\n  jump\t// in\ntag_21:\n  pop\n  0x0280\n  dup3\n  add\n  mload\n  dup1\n  mload\n  tag_22\n  swap2\n  0x14\n  dup5\n  add\n  swap2\n  0x20\n  swap1\n  swap2\n  add\n  swap1\n  tag_2\n  jump\t// in\ntag_22:\n  pop\n  0x02a0\n  dup3\n  add\n  mload\n  dup1\n  mload\n  tag_23\n  swap2\n  0x15\n  dup5\n  add\n  swap2\n  0x20\n  swap1\n  swap2\n  add\n  swap1\n  tag_2\n  jump\t// in\ntag_23:\n  pop\n  0x02c0\n  dup3\n  add\n  mload\n  dup1\n  mload\n  tag_24\n  swap2\n  0x16\n  dup5\n  add\n  swap2\n  0x20\n  swap1\n  swap2\n  add\n  swap1\n  tag_2\n  jump\t// in\ntag_24:\n  pop\n  0x02e0\n  dup3\n  add\n  mload\n  dup1\n  mload\n  tag_25\n  swap2\n  0x17\n  dup5\n  add\n  swap2\n  0x20\n  swap1\n  swap2\n  add\n  swap1\n  tag_2\n  jump\t// in\ntag_25:\n  pop\n  0x0300\n  dup3\n  add\n  mload\n  dup1\n  mload\n  tag_26\n  swap2\n  0x18\n  dup5\n  add\n  swap2\n  0x20\n  swap1\n  swap2\n  add\n  swap1\n  tag_2\n  jump\t// in\ntag_26:\n  pop\n  0x0320\n  dup3\n  add\n  mload\n  dup1\n  mload\n  tag_27\n  swap2\n  0x19\n  dup5\n  add\n  swap2\n  0x20\n  swap1\n  swap2\n  add\n  swap1\n  tag_2\n  jump\t// in\ntag_27:\n  pop\n  pop\n    /* \"ownable.sol\":706:712  _owner */\n  0x00\n    /* \"ownable.sol\":706:725  _owner = msg.sender */\n  dup1\n  sload\n  not(sub(shl(0xa0, 0x01), 0x01))\n  and\n    /* \"ownable.sol\":715:725  msg.sender */\n  caller\n    /* \"ownable.sol\":706:725  _owner = msg.sender */\n  or\n  swap1\n  sstore\n  pop\n    /* \"Admin.sol\":1015:11253  contract Admin is Ownable{... */\n  jump(tag_30)\ntag_2:\n  dup3\n  dup1\n  sload\n  0x01\n  dup2\n  0x01\n  and\n  iszero\n  0x0100\n  mul\n  sub\n  and\n  0x02\n  swap1\n  div\n  swap1\n  0x00\n  mstore\n  keccak256(0x00, 0x20)\n  swap1\n  0x1f\n  add\n  0x20\n  swap1\n  div\n  dup2\n  add\n  swap3\n  dup3\n  0x1f\n  lt\n  tag_32\n  jumpi\n  dup1\n  mload\n  not(0xff)\n  and\n  dup4\n  dup1\n  add\n  or\n  dup6\n  sstore\n  jump(tag_34)\ntag_32:\n  dup3\n  dup1\n  add\n  0x01\n  add\n  dup6\n  sstore\n  dup3\n  iszero\n  tag_34\n  jumpi\n  swap2\n  dup3\n  add\ntag_33:\n  dup3\n  dup2\n  gt\n  iszero\n  tag_34\n  jumpi\n  dup3\n  mload\n  dup3\n  sstore\n  swap2\n  0x20\n  add\n  swap2\n  swap1\n  0x01\n  add\n  swap1\n  jump(tag_33)\ntag_34:\n  pop\n  tag_35\n  swap3\n  swap2\n  pop\n  tag_36\n  jump\t// in\ntag_35:\n  pop\n  swap1\n  jump\t// out\ntag_36:\n  tag_37\n  swap2\n  swap1\ntag_38:\n  dup1\n  dup3\n  gt\n  iszero\n  tag_35\n  jumpi\n  0x00\n  dup2\n  sstore\n  0x01\n  add\n  jump(tag_38)\ntag_37:\n  swap1\n  jump\t// out\ntag_30:\n  dataSize(sub_0)\n  dup1\n  dataOffset(sub_0)\n  0x00\n  codecopy\n  0x00\n  return\nstop\n\nsub_0: assembly {\n        /* \"Admin.sol\":1015:11253  contract Admin is Ownable{... */\n      mstore(0x40, 0x80)\n      callvalue\n        /* \"--CODEGEN--\":8:17   */\n      dup1\n        /* \"--CODEGEN--\":5:7   */\n      iszero\n      tag_1\n      jumpi\n        /* \"--CODEGEN--\":30:31   */\n      0x00\n        /* \"--CODEGEN--\":27:28   */\n      dup1\n        /* \"--CODEGEN--\":20:32   */\n      revert\n        /* \"--CODEGEN--\":5:7   */\n    tag_1:\n        /* \"Admin.sol\":1015:11253  contract Admin is Ownable{... */\n      pop\n      jumpi(tag_2, lt(calldatasize, 0x04))\n      shr(0xe0, calldataload(0x00))\n      dup1\n      0x4a0aafda\n      gt\n      tag_26\n      jumpi\n      dup1\n      0xace561a8\n      gt\n      tag_27\n      jumpi\n      dup1\n      0xace561a8\n      eq\n      tag_20\n      jumpi\n      dup1\n      0xb6011b4c\n      eq\n      tag_21\n      jumpi\n      dup1\n      0xc347f69b\n      eq\n      tag_22\n      jumpi\n      dup1\n      0xf2fde38b\n      eq\n      tag_23\n      jumpi\n      dup1\n      0xfba08d45\n      eq\n      tag_24\n      jumpi\n      dup1\n      0xfddea900\n      eq\n      tag_25\n      jumpi\n      jump(tag_2)\n    tag_27:\n      dup1\n      0x4a0aafda\n      eq\n      tag_14\n      jumpi\n      dup1\n      0x70480275\n      eq\n      tag_15\n      jumpi\n      dup1\n      0x8450ebe4\n      eq\n      tag_16\n      jumpi\n      dup1\n      0x8da5cb5b\n      eq\n      tag_17\n      jumpi\n      dup1\n      0x8f32d59b\n      eq\n      tag_18\n      jumpi\n      dup1\n      0x9dc6b78d\n      eq\n      tag_19\n      jumpi\n      jump(tag_2)\n    tag_26:\n      dup1\n      0x1afffec0\n      gt\n      tag_28\n      jumpi\n      dup1\n      0x1afffec0\n      eq\n      tag_8\n      jumpi\n      dup1\n      0x31ae450b\n      eq\n      tag_9\n      jumpi\n      dup1\n      0x3790767d\n      eq\n      tag_10\n      jumpi\n      dup1\n      0x47fcf018\n      eq\n      tag_11\n      jumpi\n      dup1\n      0x485f952e\n      eq\n      tag_12\n      jumpi\n      dup1\n      0x488b0f7d\n      eq\n      tag_13\n      jumpi\n      jump(tag_2)\n    tag_28:\n      dup1\n      0x0a1b0b91\n      eq\n      tag_3\n      jumpi\n      dup1\n      0x0c82ea1a\n      eq\n      tag_4\n      jumpi\n      dup1\n      0x14bfd6d0\n      eq\n      tag_5\n      jumpi\n      dup1\n      0x1785f53c\n      eq\n      tag_6\n      jumpi\n      dup1\n      0x18fa0653\n      eq\n      tag_7\n      jumpi\n    tag_2:\n      0x00\n      dup1\n      revert\n        /* \"Admin.sol\":9969:10376  function erc20TransferFrom(... */\n    tag_3:\n      tag_29\n      0x04\n      dup1\n      calldatasize\n      sub\n        /* \"--CODEGEN--\":13:16   */\n      0x80\n        /* \"--CODEGEN--\":8:11   */\n      dup2\n        /* \"--CODEGEN--\":5:17   */\n      lt\n        /* \"--CODEGEN--\":2:4   */\n      iszero\n      tag_30\n      jumpi\n        /* \"--CODEGEN--\":30:31   */\n      0x00\n        /* \"--CODEGEN--\":27:28   */\n      dup1\n        /* \"--CODEGEN--\":20:32   */\n      revert\n        /* \"--CODEGEN--\":2:4   */\n    tag_30:\n      pop\n      sub(shl(0xa0, 0x01), 0x01)\n        /* \"Admin.sol\":9969:10376  function erc20TransferFrom(... */\n      dup2\n      calldataload\n      dup2\n      and\n      swap2\n      0x20\n      dup2\n      add\n      calldataload\n      dup3\n      and\n      swap2\n      0x40\n      dup3\n      add\n      calldataload\n      and\n      swap1\n      0x60\n      add\n      calldataload\n      tag_31\n      jump\t// in\n    tag_29:\n      stop\n        /* \"Admin.sol\":10812:11251  function erc20DecreaseAllowance(... */\n    tag_4:\n      tag_29\n      0x04\n      dup1\n      calldatasize\n      sub\n        /* \"--CODEGEN--\":13:15   */\n      0x60\n        /* \"--CODEGEN--\":8:11   */\n      dup2\n        /* \"--CODEGEN--\":5:16   */\n      lt\n        /* \"--CODEGEN--\":2:4   */\n      iszero\n      tag_33\n      jumpi\n        /* \"--CODEGEN--\":29:30   */\n      0x00\n        /* \"--CODEGEN--\":26:27   */\n      dup1\n        /* \"--CODEGEN--\":19:31   */\n      revert\n        /* \"--CODEGEN--\":2:4   */\n    tag_33:\n      pop\n      sub(shl(0xa0, 0x01), 0x01)\n        /* \"Admin.sol\":10812:11251  function erc20DecreaseAllowance(... */\n      dup2\n      calldataload\n      dup2\n      and\n      swap2\n      0x20\n      dup2\n      add\n      calldataload\n      swap1\n      swap2\n      and\n      swap1\n      0x40\n      add\n      calldataload\n      tag_34\n      jump\t// in\n        /* \"Admin.sol\":3332:3355  address[] public admins */\n    tag_5:\n      tag_35\n      0x04\n      dup1\n      calldatasize\n      sub\n        /* \"--CODEGEN--\":13:15   */\n      0x20\n        /* \"--CODEGEN--\":8:11   */\n      dup2\n        /* \"--CODEGEN--\":5:16   */\n      lt\n        /* \"--CODEGEN--\":2:4   */\n      iszero\n      tag_36\n      jumpi\n        /* \"--CODEGEN--\":29:30   */\n      0x00\n        /* \"--CODEGEN--\":26:27   */\n      dup1\n        /* \"--CODEGEN--\":19:31   */\n      revert\n        /* \"--CODEGEN--\":2:4   */\n    tag_36:\n      pop\n        /* \"Admin.sol\":3332:3355  address[] public admins */\n      calldataload\n      tag_37\n      jump\t// in\n    tag_35:\n      0x40\n      dup1\n      mload\n      sub(shl(0xa0, 0x01), 0x01)\n      swap1\n      swap3\n      and\n      dup3\n      mstore\n      mload\n      swap1\n      dup2\n      swap1\n      sub\n      0x20\n      add\n      swap1\n      return\n        /* \"Admin.sol\":4258:4593  function removeAdmin(address admin) public onlyOwner {... */\n    tag_6:\n      tag_29\n      0x04\n      dup1\n      calldatasize\n      sub\n        /* \"--CODEGEN--\":13:15   */\n      0x20\n        /* \"--CODEGEN--\":8:11   */\n      dup2\n        /* \"--CODEGEN--\":5:16   */\n      lt\n        /* \"--CODEGEN--\":2:4   */\n      iszero\n      tag_39\n      jumpi\n        /* \"--CODEGEN--\":29:30   */\n      0x00\n        /* \"--CODEGEN--\":26:27   */\n      dup1\n        /* \"--CODEGEN--\":19:31   */\n      revert\n        /* \"--CODEGEN--\":2:4   */\n    tag_39:\n      pop\n        /* \"Admin.sol\":4258:4593  function removeAdmin(address admin) public onlyOwner {... */\n      calldataload\n      sub(shl(0xa0, 0x01), 0x01)\n      and\n      tag_40\n      jump\t// in\n        /* \"Admin.sol\":5201:5623  function erc721Approve(... */\n    tag_7:\n      tag_29\n      0x04\n      dup1\n      calldatasize\n      sub\n        /* \"--CODEGEN--\":13:15   */\n      0x60\n        /* \"--CODEGEN--\":8:11   */\n      dup2\n        /* \"--CODEGEN--\":5:16   */\n      lt\n        /* \"--CODEGEN--\":2:4   */\n      iszero\n      tag_42\n      jumpi\n        /* \"--CODEGEN--\":29:30   */\n      0x00\n        /* \"--CODEGEN--\":26:27   */\n      dup1\n        /* \"--CODEGEN--\":19:31   */\n      revert\n        /* \"--CODEGEN--\":2:4   */\n    tag_42:\n      pop\n      sub(shl(0xa0, 0x01), 0x01)\n        /* \"Admin.sol\":5201:5623  function erc721Approve(... */\n      dup2\n      calldataload\n      dup2\n      and\n      swap2\n      0x20\n      dup2\n      add\n      calldataload\n      swap1\n      swap2\n      and\n      swap1\n      0x40\n      add\n      calldataload\n      tag_43\n      jump\t// in\n        /* \"Admin.sol\":9169:9590  function erc20IncreaseApproval(... */\n    tag_8:\n      tag_29\n      0x04\n      dup1\n      calldatasize\n      sub\n        /* \"--CODEGEN--\":13:15   */\n      0x60\n        /* \"--CODEGEN--\":8:11   */\n      dup2\n        /* \"--CODEGEN--\":5:16   */\n      lt\n        /* \"--CODEGEN--\":2:4   */\n      iszero\n      tag_45\n      jumpi\n        /* \"--CODEGEN--\":29:30   */\n      0x00\n        /* \"--CODEGEN--\":26:27   */\n      dup1\n        /* \"--CODEGEN--\":19:31   */\n      revert\n        /* \"--CODEGEN--\":2:4   */\n    tag_45:\n      pop\n      sub(shl(0xa0, 0x01), 0x01)\n        /* \"Admin.sol\":9169:9590  function erc20IncreaseApproval(... */\n      dup2\n      calldataload\n      dup2\n      and\n      swap2\n      0x20\n      dup2\n      add\n      calldataload\n      swap1\n      swap2\n      and\n      swap1\n      0x40\n      add\n      calldataload\n      tag_46\n      jump\t// in\n        /* \"Admin.sol\":4161:4251  function getAdmins() public view returns (address[] memory) {... */\n    tag_9:\n      tag_47\n      tag_48\n      jump\t// in\n    tag_47:\n      0x40\n      dup1\n      mload\n      0x20\n      dup1\n      dup3\n      mstore\n      dup4\n      mload\n      dup2\n      dup4\n      add\n      mstore\n      dup4\n      mload\n      swap2\n      swap3\n      dup4\n      swap3\n      swap1\n      dup4\n      add\n      swap2\n      dup6\n      dup2\n      add\n      swap2\n      mul\n      dup1\n      dup4\n      dup4\n      0x00\n        /* \"--CODEGEN--\":8:108   */\n    tag_49:\n        /* \"--CODEGEN--\":33:36   */\n      dup4\n        /* \"--CODEGEN--\":30:31   */\n      dup2\n        /* \"--CODEGEN--\":27:37   */\n      lt\n        /* \"--CODEGEN--\":8:108   */\n      iszero\n      tag_51\n      jumpi\n        /* \"--CODEGEN--\":90:101   */\n      dup2\n      dup2\n      add\n        /* \"--CODEGEN--\":84:102   */\n      mload\n        /* \"--CODEGEN--\":71:82   */\n      dup4\n      dup3\n      add\n        /* \"--CODEGEN--\":64:103   */\n      mstore\n        /* \"--CODEGEN--\":52:54   */\n      0x20\n        /* \"--CODEGEN--\":45:55   */\n      add\n        /* \"--CODEGEN--\":8:108   */\n      jump(tag_49)\n    tag_51:\n        /* \"--CODEGEN--\":12:26   */\n      pop\n        /* \"Admin.sol\":4161:4251  function getAdmins() public view returns (address[] memory) {... */\n      pop\n      pop\n      pop\n      swap1\n      pop\n      add\n      swap3\n      pop\n      pop\n      pop\n      mload(0x40)\n      dup1\n      swap2\n      sub\n      swap1\n      return\n        /* \"Admin.sol\":9596:9963  function erc20Transfer(... */\n    tag_10:\n      tag_29\n      0x04\n      dup1\n      calldatasize\n      sub\n        /* \"--CODEGEN--\":13:15   */\n      0x60\n        /* \"--CODEGEN--\":8:11   */\n      dup2\n        /* \"--CODEGEN--\":5:16   */\n      lt\n        /* \"--CODEGEN--\":2:4   */\n      iszero\n      tag_53\n      jumpi\n        /* \"--CODEGEN--\":29:30   */\n      0x00\n        /* \"--CODEGEN--\":26:27   */\n      dup1\n        /* \"--CODEGEN--\":19:31   */\n      revert\n        /* \"--CODEGEN--\":2:4   */\n    tag_53:\n      pop\n      sub(shl(0xa0, 0x01), 0x01)\n        /* \"Admin.sol\":9596:9963  function erc20Transfer(... */\n      dup2\n      calldataload\n      dup2\n      and\n      swap2\n      0x20\n      dup2\n      add\n      calldataload\n      swap1\n      swap2\n      and\n      swap1\n      0x40\n      add\n      calldataload\n      tag_54\n      jump\t// in\n        /* \"Admin.sol\":4599:5135  function burnNFT(address collection, uint256 tokenId)... */\n    tag_11:\n      tag_29\n      0x04\n      dup1\n      calldatasize\n      sub\n        /* \"--CODEGEN--\":13:15   */\n      0x40\n        /* \"--CODEGEN--\":8:11   */\n      dup2\n        /* \"--CODEGEN--\":5:16   */\n      lt\n        /* \"--CODEGEN--\":2:4   */\n      iszero\n      tag_56\n      jumpi\n        /* \"--CODEGEN--\":29:30   */\n      0x00\n        /* \"--CODEGEN--\":26:27   */\n      dup1\n        /* \"--CODEGEN--\":19:31   */\n      revert\n        /* \"--CODEGEN--\":2:4   */\n    tag_56:\n      pop\n      sub(shl(0xa0, 0x01), 0x01)\n        /* \"Admin.sol\":4599:5135  function burnNFT(address collection, uint256 tokenId)... */\n      dup2\n      calldataload\n      and\n      swap1\n      0x20\n      add\n      calldataload\n      tag_57\n      jump\t// in\n        /* \"Admin.sol\":6060:6442  function erc721Burn(address _ERC721Address, uint256 tokenId)... */\n    tag_12:\n      tag_29\n      0x04\n      dup1\n      calldatasize\n      sub\n        /* \"--CODEGEN--\":13:15   */\n      0x40\n        /* \"--CODEGEN--\":8:11   */\n      dup2\n        /* \"--CODEGEN--\":5:16   */\n      lt\n        /* \"--CODEGEN--\":2:4   */\n      iszero\n      tag_59\n      jumpi\n        /* \"--CODEGEN--\":29:30   */\n      0x00\n        /* \"--CODEGEN--\":26:27   */\n      dup1\n        /* \"--CODEGEN--\":19:31   */\n      revert\n        /* \"--CODEGEN--\":2:4   */\n    tag_59:\n      pop\n      sub(shl(0xa0, 0x01), 0x01)\n        /* \"Admin.sol\":6060:6442  function erc721Burn(address _ERC721Address, uint256 tokenId)... */\n      dup2\n      calldataload\n      and\n      swap1\n      0x20\n      add\n      calldataload\n      tag_60\n      jump\t// in\n        /* \"Admin.sol\":7356:7863  function erc721SafeTransferFrom(... */\n    tag_13:\n      tag_29\n      0x04\n      dup1\n      calldatasize\n      sub\n        /* \"--CODEGEN--\":13:16   */\n      0xa0\n        /* \"--CODEGEN--\":8:11   */\n      dup2\n        /* \"--CODEGEN--\":5:17   */\n      lt\n        /* \"--CODEGEN--\":2:4   */\n      iszero\n      tag_62\n      jumpi\n        /* \"--CODEGEN--\":30:31   */\n      0x00\n        /* \"--CODEGEN--\":27:28   */\n      dup1\n        /* \"--CODEGEN--\":20:32   */\n      revert\n        /* \"--CODEGEN--\":2:4   */\n    tag_62:\n      sub(shl(0xa0, 0x01), 0x01)\n        /* \"Admin.sol\":7356:7863  function erc721SafeTransferFrom(... */\n      dup3\n      calldataload\n      dup2\n      and\n      swap3\n      0x20\n      dup2\n      add\n      calldataload\n      dup3\n      and\n      swap3\n      0x40\n      dup3\n      add\n      calldataload\n      swap1\n      swap3\n      and\n      swap2\n      0x60\n      dup3\n      add\n      calldataload\n      swap2\n      swap1\n      dup2\n      add\n      swap1\n      0xa0\n      dup2\n      add\n      0x80\n      dup3\n      add\n      calldataload\n        /* \"--CODEGEN--\":21:32   */\n      0x0100000000\n        /* \"--CODEGEN--\":5:33   */\n      dup2\n      gt\n        /* \"--CODEGEN--\":2:4   */\n      iszero\n      tag_63\n      jumpi\n        /* \"--CODEGEN--\":46:47   */\n      0x00\n        /* \"--CODEGEN--\":43:44   */\n      dup1\n        /* \"--CODEGEN--\":36:48   */\n      revert\n        /* \"--CODEGEN--\":2:4   */\n    tag_63:\n        /* \"Admin.sol\":7356:7863  function erc721SafeTransferFrom(... */\n      dup3\n      add\n        /* \"--CODEGEN--\":35:44   */\n      dup4\n        /* \"--CODEGEN--\":28:32   */\n      0x20\n        /* \"--CODEGEN--\":12:26   */\n      dup3\n        /* \"--CODEGEN--\":8:33   */\n      add\n        /* \"--CODEGEN--\":5:45   */\n      gt\n        /* \"--CODEGEN--\":2:4   */\n      iszero\n      tag_64\n      jumpi\n        /* \"--CODEGEN--\":58:59   */\n      0x00\n        /* \"--CODEGEN--\":55:56   */\n      dup1\n        /* \"--CODEGEN--\":48:60   */\n      revert\n        /* \"--CODEGEN--\":2:4   */\n    tag_64:\n        /* \"Admin.sol\":7356:7863  function erc721SafeTransferFrom(... */\n      dup1\n      calldataload\n      swap1\n      0x20\n      add\n      swap2\n        /* \"--CODEGEN--\":100:109   */\n      dup5\n        /* \"--CODEGEN--\":95:96   */\n      0x01\n        /* \"--CODEGEN--\":81:93   */\n      dup4\n        /* \"--CODEGEN--\":77:97   */\n      mul\n        /* \"--CODEGEN--\":67:75   */\n      dup5\n        /* \"--CODEGEN--\":63:98   */\n      add\n        /* \"--CODEGEN--\":60:110   */\n      gt\n        /* \"--CODEGEN--\":39:50   */\n      0x0100000000\n        /* \"--CODEGEN--\":25:37   */\n      dup4\n        /* \"--CODEGEN--\":22:51   */\n      gt\n        /* \"--CODEGEN--\":11:118   */\n      or\n        /* \"--CODEGEN--\":8:10   */\n      iszero\n      tag_65\n      jumpi\n        /* \"--CODEGEN--\":131:132   */\n      0x00\n        /* \"--CODEGEN--\":128:129   */\n      dup1\n        /* \"--CODEGEN--\":121:133   */\n      revert\n        /* \"--CODEGEN--\":8:10   */\n    tag_65:\n        /* \"Admin.sol\":7356:7863  function erc721SafeTransferFrom(... */\n      swap2\n      swap1\n      dup1\n      dup1\n      0x1f\n      add\n      0x20\n      dup1\n      swap2\n      div\n      mul\n      0x20\n      add\n      mload(0x40)\n      swap1\n      dup2\n      add\n      0x40\n      mstore\n      dup1\n      swap4\n      swap3\n      swap2\n      swap1\n      dup2\n      dup2\n      mstore\n      0x20\n      add\n      dup4\n      dup4\n        /* \"--CODEGEN--\":30:33   */\n      dup1\n        /* \"--CODEGEN--\":22:28   */\n      dup3\n        /* \"--CODEGEN--\":14:20   */\n      dup5\n        /* \"--CODEGEN--\":1:34   */\n      calldatacopy\n        /* \"--CODEGEN--\":99:100   */\n      0x00\n        /* \"--CODEGEN--\":81:97   */\n      swap3\n      add\n        /* \"--CODEGEN--\":74:101   */\n      swap2\n      swap1\n      swap2\n      mstore\n      pop\n        /* \"Admin.sol\":7356:7863  function erc721SafeTransferFrom(... */\n      swap3\n      swap6\n      pop\n      tag_66\n      swap5\n      pop\n      pop\n      pop\n      pop\n      pop\n      jump\t// in\n        /* \"Admin.sol\":6878:7350  function erc721SafeTransferFrom(... */\n    tag_14:\n      tag_29\n      0x04\n      dup1\n      calldatasize\n      sub\n        /* \"--CODEGEN--\":13:16   */\n      0x80\n        /* \"--CODEGEN--\":8:11   */\n      dup2\n        /* \"--CODEGEN--\":5:17   */\n      lt\n        /* \"--CODEGEN--\":2:4   */\n      iszero\n      tag_68\n      jumpi\n        /* \"--CODEGEN--\":30:31   */\n      0x00\n        /* \"--CODEGEN--\":27:28   */\n      dup1\n        /* \"--CODEGEN--\":20:32   */\n      revert\n        /* \"--CODEGEN--\":2:4   */\n    tag_68:\n      pop\n      sub(shl(0xa0, 0x01), 0x01)\n        /* \"Admin.sol\":6878:7350  function erc721SafeTransferFrom(... */\n      dup2\n      calldataload\n      dup2\n      and\n      swap2\n      0x20\n      dup2\n      add\n      calldataload\n      dup3\n      and\n      swap2\n      0x40\n      dup3\n      add\n      calldataload\n      and\n      swap1\n      0x60\n      add\n      calldataload\n      tag_69\n      jump\t// in\n        /* \"Admin.sol\":3910:4155  function addAdmin(address admin) public onlyOwner {... */\n    tag_15:\n      tag_29\n      0x04\n      dup1\n      calldatasize\n      sub\n        /* \"--CODEGEN--\":13:15   */\n      0x20\n        /* \"--CODEGEN--\":8:11   */\n      dup2\n        /* \"--CODEGEN--\":5:16   */\n      lt\n        /* \"--CODEGEN--\":2:4   */\n      iszero\n      tag_71\n      jumpi\n        /* \"--CODEGEN--\":29:30   */\n      0x00\n        /* \"--CODEGEN--\":26:27   */\n      dup1\n        /* \"--CODEGEN--\":19:31   */\n      revert\n        /* \"--CODEGEN--\":2:4   */\n    tag_71:\n      pop\n        /* \"Admin.sol\":3910:4155  function addAdmin(address admin) public onlyOwner {... */\n      calldataload\n      sub(shl(0xa0, 0x01), 0x01)\n      and\n      tag_72\n      jump\t// in\n        /* \"Admin.sol\":7869:8329  function erc721TransferFrom(... */\n    tag_16:\n      tag_29\n      0x04\n      dup1\n      calldatasize\n      sub\n        /* \"--CODEGEN--\":13:16   */\n      0x80\n        /* \"--CODEGEN--\":8:11   */\n      dup2\n        /* \"--CODEGEN--\":5:17   */\n      lt\n        /* \"--CODEGEN--\":2:4   */\n      iszero\n      tag_74\n      jumpi\n        /* \"--CODEGEN--\":30:31   */\n      0x00\n        /* \"--CODEGEN--\":27:28   */\n      dup1\n        /* \"--CODEGEN--\":20:32   */\n      revert\n        /* \"--CODEGEN--\":2:4   */\n    tag_74:\n      pop\n      sub(shl(0xa0, 0x01), 0x01)\n        /* \"Admin.sol\":7869:8329  function erc721TransferFrom(... */\n      dup2\n      calldataload\n      dup2\n      and\n      swap2\n      0x20\n      dup2\n      add\n      calldataload\n      dup3\n      and\n      swap2\n      0x40\n      dup3\n      add\n      calldataload\n      and\n      swap1\n      0x60\n      add\n      calldataload\n      tag_75\n      jump\t// in\n        /* \"ownable.sol\":870:947  function owner() public view returns (address) {... */\n    tag_17:\n      tag_35\n      tag_77\n      jump\t// in\n        /* \"ownable.sol\":1221:1311  function isOwner() public view returns (bool) {... */\n    tag_18:\n      tag_78\n      tag_79\n      jump\t// in\n    tag_78:\n      0x40\n      dup1\n      mload\n      swap2\n      iszero\n      iszero\n      dup3\n      mstore\n      mload\n      swap1\n      dup2\n      swap1\n      sub\n      0x20\n      add\n      swap1\n      return\n        /* \"Admin.sol\":10382:10806  function erc20IncreaseAllowance(... */\n    tag_19:\n      tag_29\n      0x04\n      dup1\n      calldatasize\n      sub\n        /* \"--CODEGEN--\":13:15   */\n      0x60\n        /* \"--CODEGEN--\":8:11   */\n      dup2\n        /* \"--CODEGEN--\":5:16   */\n      lt\n        /* \"--CODEGEN--\":2:4   */\n      iszero\n      tag_81\n      jumpi\n        /* \"--CODEGEN--\":29:30   */\n      0x00\n        /* \"--CODEGEN--\":26:27   */\n      dup1\n        /* \"--CODEGEN--\":19:31   */\n      revert\n        /* \"--CODEGEN--\":2:4   */\n    tag_81:\n      pop\n      sub(shl(0xa0, 0x01), 0x01)\n        /* \"Admin.sol\":10382:10806  function erc20IncreaseAllowance(... */\n      dup2\n      calldataload\n      dup2\n      and\n      swap2\n      0x20\n      dup2\n      add\n      calldataload\n      swap1\n      swap2\n      and\n      swap1\n      0x40\n      add\n      calldataload\n      tag_82\n      jump\t// in\n        /* \"Admin.sol\":8335:8714  function erc20Approve(... */\n    tag_20:\n      tag_29\n      0x04\n      dup1\n      calldatasize\n      sub\n        /* \"--CODEGEN--\":13:15   */\n      0x60\n        /* \"--CODEGEN--\":8:11   */\n      dup2\n        /* \"--CODEGEN--\":5:16   */\n      lt\n        /* \"--CODEGEN--\":2:4   */\n      iszero\n      tag_84\n      jumpi\n        /* \"--CODEGEN--\":29:30   */\n      0x00\n        /* \"--CODEGEN--\":26:27   */\n      dup1\n        /* \"--CODEGEN--\":19:31   */\n      revert\n        /* \"--CODEGEN--\":2:4   */\n    tag_84:\n      pop\n      sub(shl(0xa0, 0x01), 0x01)\n        /* \"Admin.sol\":8335:8714  function erc20Approve(... */\n      dup2\n      calldataload\n      dup2\n      and\n      swap2\n      0x20\n      dup2\n      add\n      calldataload\n      swap1\n      swap2\n      and\n      swap1\n      0x40\n      add\n      calldataload\n      tag_85\n      jump\t// in\n        /* \"Admin.sol\":5629:6054  function erc721Transfer(... */\n    tag_21:\n      tag_29\n      0x04\n      dup1\n      calldatasize\n      sub\n        /* \"--CODEGEN--\":13:15   */\n      0x60\n        /* \"--CODEGEN--\":8:11   */\n      dup2\n        /* \"--CODEGEN--\":5:16   */\n      lt\n        /* \"--CODEGEN--\":2:4   */\n      iszero\n      tag_87\n      jumpi\n        /* \"--CODEGEN--\":29:30   */\n      0x00\n        /* \"--CODEGEN--\":26:27   */\n      dup1\n        /* \"--CODEGEN--\":19:31   */\n      revert\n        /* \"--CODEGEN--\":2:4   */\n    tag_87:\n      pop\n      sub(shl(0xa0, 0x01), 0x01)\n        /* \"Admin.sol\":5629:6054  function erc721Transfer(... */\n      dup2\n      calldataload\n      dup2\n      and\n      swap2\n      0x20\n      dup2\n      add\n      calldataload\n      swap1\n      swap2\n      and\n      swap1\n      0x40\n      add\n      calldataload\n      tag_88\n      jump\t// in\n        /* \"Admin.sol\":8720:9163  function erc20DecreaseApproval(... */\n    tag_22:\n      tag_29\n      0x04\n      dup1\n      calldatasize\n      sub\n        /* \"--CODEGEN--\":13:15   */\n      0x60\n        /* \"--CODEGEN--\":8:11   */\n      dup2\n        /* \"--CODEGEN--\":5:16   */\n      lt\n        /* \"--CODEGEN--\":2:4   */\n      iszero\n      tag_90\n      jumpi\n        /* \"--CODEGEN--\":29:30   */\n      0x00\n        /* \"--CODEGEN--\":26:27   */\n      dup1\n        /* \"--CODEGEN--\":19:31   */\n      revert\n        /* \"--CODEGEN--\":2:4   */\n    tag_90:\n      pop\n      sub(shl(0xa0, 0x01), 0x01)\n        /* \"Admin.sol\":8720:9163  function erc20DecreaseApproval(... */\n      dup2\n      calldataload\n      dup2\n      and\n      swap2\n      0x20\n      dup2\n      add\n      calldataload\n      swap1\n      swap2\n      and\n      swap1\n      0x40\n      add\n      calldataload\n      tag_91\n      jump\t// in\n        /* \"ownable.sol\":1460:1695  function transferOwnership(address newOwner) public onlyOwner {... */\n    tag_23:\n      tag_29\n      0x04\n      dup1\n      calldatasize\n      sub\n        /* \"--CODEGEN--\":13:15   */\n      0x20\n        /* \"--CODEGEN--\":8:11   */\n      dup2\n        /* \"--CODEGEN--\":5:16   */\n      lt\n        /* \"--CODEGEN--\":2:4   */\n      iszero\n      tag_93\n      jumpi\n        /* \"--CODEGEN--\":29:30   */\n      0x00\n        /* \"--CODEGEN--\":26:27   */\n      dup1\n        /* \"--CODEGEN--\":19:31   */\n      revert\n        /* \"--CODEGEN--\":2:4   */\n    tag_93:\n      pop\n        /* \"ownable.sol\":1460:1695  function transferOwnership(address newOwner) public onlyOwner {... */\n      calldataload\n      sub(shl(0xa0, 0x01), 0x01)\n      and\n      tag_94\n      jump\t// in\n        /* \"Admin.sol\":3369:3609  function adminExist(address _sender) public view returns (bool) {... */\n    tag_24:\n      tag_78\n      0x04\n      dup1\n      calldatasize\n      sub\n        /* \"--CODEGEN--\":13:15   */\n      0x20\n        /* \"--CODEGEN--\":8:11   */\n      dup2\n        /* \"--CODEGEN--\":5:16   */\n      lt\n        /* \"--CODEGEN--\":2:4   */\n      iszero\n      tag_96\n      jumpi\n        /* \"--CODEGEN--\":29:30   */\n      0x00\n        /* \"--CODEGEN--\":26:27   */\n      dup1\n        /* \"--CODEGEN--\":19:31   */\n      revert\n        /* \"--CODEGEN--\":2:4   */\n    tag_96:\n      pop\n        /* \"Admin.sol\":3369:3609  function adminExist(address _sender) public view returns (bool) {... */\n      calldataload\n      sub(shl(0xa0, 0x01), 0x01)\n      and\n      tag_97\n      jump\t// in\n        /* \"Admin.sol\":6448:6872  function erc721Mint(... */\n    tag_25:\n      tag_29\n      0x04\n      dup1\n      calldatasize\n      sub\n        /* \"--CODEGEN--\":13:15   */\n      0x60\n        /* \"--CODEGEN--\":8:11   */\n      dup2\n        /* \"--CODEGEN--\":5:16   */\n      lt\n        /* \"--CODEGEN--\":2:4   */\n      iszero\n      tag_99\n      jumpi\n        /* \"--CODEGEN--\":29:30   */\n      0x00\n        /* \"--CODEGEN--\":26:27   */\n      dup1\n        /* \"--CODEGEN--\":19:31   */\n      revert\n        /* \"--CODEGEN--\":2:4   */\n    tag_99:\n      sub(shl(0xa0, 0x01), 0x01)\n        /* \"Admin.sol\":6448:6872  function erc721Mint(... */\n      dup3\n      calldataload\n      and\n      swap2\n      swap1\n      dup2\n      add\n      swap1\n      0x40\n      dup2\n      add\n      0x20\n      dup3\n      add\n      calldataload\n        /* \"--CODEGEN--\":21:32   */\n      0x0100000000\n        /* \"--CODEGEN--\":5:33   */\n      dup2\n      gt\n        /* \"--CODEGEN--\":2:4   */\n      iszero\n      tag_100\n      jumpi\n        /* \"--CODEGEN--\":46:47   */\n      0x00\n        /* \"--CODEGEN--\":43:44   */\n      dup1\n        /* \"--CODEGEN--\":36:48   */\n      revert\n        /* \"--CODEGEN--\":2:4   */\n    tag_100:\n        /* \"Admin.sol\":6448:6872  function erc721Mint(... */\n      dup3\n      add\n        /* \"--CODEGEN--\":35:44   */\n      dup4\n        /* \"--CODEGEN--\":28:32   */\n      0x20\n        /* \"--CODEGEN--\":12:26   */\n      dup3\n        /* \"--CODEGEN--\":8:33   */\n      add\n        /* \"--CODEGEN--\":5:45   */\n      gt\n        /* \"--CODEGEN--\":2:4   */\n      iszero\n      tag_101\n      jumpi\n        /* \"--CODEGEN--\":58:59   */\n      0x00\n        /* \"--CODEGEN--\":55:56   */\n      dup1\n        /* \"--CODEGEN--\":48:60   */\n      revert\n        /* \"--CODEGEN--\":2:4   */\n    tag_101:\n        /* \"Admin.sol\":6448:6872  function erc721Mint(... */\n      dup1\n      calldataload\n      swap1\n      0x20\n      add\n      swap2\n        /* \"--CODEGEN--\":100:109   */\n      dup5\n        /* \"--CODEGEN--\":95:96   */\n      0x01\n        /* \"--CODEGEN--\":81:93   */\n      dup4\n        /* \"--CODEGEN--\":77:97   */\n      mul\n        /* \"--CODEGEN--\":67:75   */\n      dup5\n        /* \"--CODEGEN--\":63:98   */\n      add\n        /* \"--CODEGEN--\":60:110   */\n      gt\n        /* \"--CODEGEN--\":39:50   */\n      0x0100000000\n        /* \"--CODEGEN--\":25:37   */\n      dup4\n        /* \"--CODEGEN--\":22:51   */\n      gt\n        /* \"--CODEGEN--\":11:118   */\n      or\n        /* \"--CODEGEN--\":8:10   */\n      iszero\n      tag_102\n      jumpi\n        /* \"--CODEGEN--\":131:132   */\n      0x00\n        /* \"--CODEGEN--\":128:129   */\n      dup1\n        /* \"--CODEGEN--\":121:133   */\n      revert\n        /* \"--CODEGEN--\":8:10   */\n    tag_102:\n        /* \"Admin.sol\":6448:6872  function erc721Mint(... */\n      swap2\n      swap1\n      dup1\n      dup1\n      0x1f\n      add\n      0x20\n      dup1\n      swap2\n      div\n      mul\n      0x20\n      add\n      mload(0x40)\n      swap1\n      dup2\n      add\n      0x40\n      mstore\n      dup1\n      swap4\n      swap3\n      swap2\n      swap1\n      dup2\n      dup2\n      mstore\n      0x20\n      add\n      dup4\n      dup4\n        /* \"--CODEGEN--\":30:33   */\n      dup1\n        /* \"--CODEGEN--\":22:28   */\n      dup3\n        /* \"--CODEGEN--\":14:20   */\n      dup5\n        /* \"--CODEGEN--\":1:34   */\n      calldatacopy\n        /* \"--CODEGEN--\":99:100   */\n      0x00\n        /* \"--CODEGEN--\":81:97   */\n      swap3\n      add\n        /* \"--CODEGEN--\":74:101   */\n      swap2\n      swap1\n      swap2\n      mstore\n      pop\n        /* \"Admin.sol\":6448:6872  function erc721Mint(... */\n      swap3\n      swap6\n      pop\n      pop\n      swap2\n      calldataload\n      swap3\n      pop\n      tag_103\n      swap2\n      pop\n      pop\n      jump\t// in\n        /* \"Admin.sol\":9969:10376  function erc20TransferFrom(... */\n    tag_31:\n        /* \"Admin.sol\":3790:3812  adminExist(msg.sender) */\n      tag_105\n        /* \"Admin.sol\":3801:3811  msg.sender */\n      caller\n        /* \"Admin.sol\":3790:3800  adminExist */\n      tag_97\n        /* \"Admin.sol\":3790:3812  adminExist(msg.sender) */\n      jump\t// in\n    tag_105:\n        /* \"Admin.sol\":3790:3825  adminExist(msg.sender) || isOwner() */\n      dup1\n      tag_107\n      jumpi\n      pop\n        /* \"Admin.sol\":3816:3825  isOwner() */\n      tag_107\n        /* \"Admin.sol\":3816:3823  isOwner */\n      tag_79\n        /* \"Admin.sol\":3816:3825  isOwner() */\n      jump\t// in\n    tag_107:\n        /* \"Admin.sol\":3769:3886  require(... */\n      tag_108\n      jumpi\n      mload(0x40)\n      shl(0xe5, 0x461bcd)\n      dup2\n      mstore\n      0x04\n      add\n      dup1\n      dup1\n      0x20\n      add\n      dup3\n      dup2\n      sub\n      dup3\n      mstore\n      0x23\n      dup2\n      mstore\n      0x20\n      add\n      dup1\n      data_674a9ac1aead3691c97506b93cf9f61f3ea0388f6e9a2a7fd72dc31f93249315\n      0x23\n      swap2\n      codecopy\n      0x40\n      add\n      swap2\n      pop\n      pop\n      mload(0x40)\n      dup1\n      swap2\n      sub\n      swap1\n      revert\n    tag_108:\n        /* \"Admin.sol\":10165:10200  erc20.transferFrom(from, to, value) */\n      0x40\n      dup1\n      mload\n      shl(0xe0, 0x23b872dd)\n      dup2\n      mstore\n      sub(shl(0xa0, 0x01), 0x01)\n      dup6\n      dup2\n      and\n      0x04\n      dup4\n      add\n      mstore\n      dup5\n      dup2\n      and\n      0x24\n      dup4\n      add\n      mstore\n      0x44\n      dup3\n      add\n      dup5\n      swap1\n      mstore\n      swap2\n      mload\n        /* \"Admin.sol\":10148:10154  _erc20 */\n      dup7\n      swap3\n        /* \"Admin.sol\":10165:10183  erc20.transferFrom */\n      dup4\n      and\n      swap2\n      0x23b872dd\n      swap2\n        /* \"Admin.sol\":10165:10200  erc20.transferFrom(from, to, value) */\n      0x64\n      dup1\n      dup4\n      add\n      swap3\n      0x20\n      swap3\n      swap2\n      swap1\n      dup3\n      swap1\n      sub\n      add\n      dup2\n        /* \"Admin.sol\":10126:10138  IERC20 erc20 */\n      0x00\n        /* \"Admin.sol\":10165:10183  erc20.transferFrom */\n      dup8\n        /* \"Admin.sol\":10165:10200  erc20.transferFrom(from, to, value) */\n      dup1\n      extcodesize\n      iszero\n        /* \"--CODEGEN--\":5:7   */\n      dup1\n      iszero\n      tag_110\n      jumpi\n        /* \"--CODEGEN--\":30:31   */\n      0x00\n        /* \"--CODEGEN--\":27:28   */\n      dup1\n        /* \"--CODEGEN--\":20:32   */\n      revert\n        /* \"--CODEGEN--\":5:7   */\n    tag_110:\n        /* \"Admin.sol\":10165:10200  erc20.transferFrom(from, to, value) */\n      pop\n      gas\n      call\n      iszero\n        /* \"--CODEGEN--\":8:17   */\n      dup1\n        /* \"--CODEGEN--\":5:7   */\n      iszero\n      tag_111\n      jumpi\n        /* \"--CODEGEN--\":45:61   */\n      returndatasize\n        /* \"--CODEGEN--\":42:43   */\n      0x00\n        /* \"--CODEGEN--\":39:40   */\n      dup1\n        /* \"--CODEGEN--\":24:62   */\n      returndatacopy\n        /* \"--CODEGEN--\":77:93   */\n      returndatasize\n        /* \"--CODEGEN--\":74:75   */\n      0x00\n        /* \"--CODEGEN--\":67:94   */\n      revert\n        /* \"--CODEGEN--\":5:7   */\n    tag_111:\n        /* \"Admin.sol\":10165:10200  erc20.transferFrom(from, to, value) */\n      pop\n      pop\n      pop\n      pop\n      mload(0x40)\n      returndatasize\n        /* \"--CODEGEN--\":13:15   */\n      0x20\n        /* \"--CODEGEN--\":8:11   */\n      dup2\n        /* \"--CODEGEN--\":5:16   */\n      lt\n        /* \"--CODEGEN--\":2:4   */\n      iszero\n      tag_112\n      jumpi\n        /* \"--CODEGEN--\":29:30   */\n      0x00\n        /* \"--CODEGEN--\":26:27   */\n      dup1\n        /* \"--CODEGEN--\":19:31   */\n      revert\n        /* \"--CODEGEN--\":2:4   */\n    tag_112:\n      pop\n      pop\n        /* \"Admin.sol\":10215:10369  AdminActionPerformed(... */\n      mload(0x40)\n        /* \"Admin.sol\":10293:10324  functionNames.erc20TransferFrom */\n      0x15\n        /* \"Admin.sol\":10215:10369  AdminActionPerformed(... */\n      dup1\n      sload\n        /* \"Admin.sol\":10293:10324  functionNames.erc20TransferFrom */\n      swap1\n      swap2\n        /* \"Admin.sol\":10215:10369  AdminActionPerformed(... */\n      swap1\n      dup2\n      swap1\n        /* \"Admin.sol\":10293:10324  functionNames.erc20TransferFrom */\n      dup4\n      swap1\n        /* \"Admin.sol\":10215:10369  AdminActionPerformed(... */\n      0x02\n      not(0x00)\n      0x0100\n        /* \"Admin.sol\":10293:10306  functionNames */\n      0x01\n        /* \"Admin.sol\":10215:10369  AdminActionPerformed(... */\n      dup5\n      and\n      iszero\n      mul\n      add\n      swap1\n      swap2\n      and\n      div\n      dup1\n      iszero\n      tag_113\n      jumpi\n      dup1\n      0x1f\n      lt\n      tag_114\n      jumpi\n      0x0100\n      dup1\n      dup4\n      sload\n      div\n      mul\n      dup4\n      mstore\n      swap2\n      dup3\n      add\n      swap2\n      jump(tag_113)\n    tag_114:\n      dup3\n      add\n      swap2\n      swap1\n      0x00\n      mstore\n      keccak256(0x00, 0x20)\n      swap1\n    tag_115:\n      dup2\n      sload\n      dup2\n      mstore\n      swap1\n      0x01\n      add\n      swap1\n      0x20\n      add\n      dup1\n      dup4\n      gt\n      tag_115\n      jumpi\n    tag_113:\n      pop\n      pop\n      0x40\n      dup1\n      mload\n      swap2\n      dup3\n      swap1\n      sub\n      dup3\n      keccak256\n      sub(shl(0xa0, 0x01), 0x01)\n      dup9\n      dup2\n      and\n      dup5\n      mstore\n      0x20\n      dup5\n      add\n      dup9\n      swap1\n      mstore\n      dup3\n      mload\n      swap2\n      swap6\n      pop\n      dup11\n      and\n      swap4\n      pop\n        /* \"Admin.sol\":10249:10259  msg.sender */\n      caller\n      swap3\n      0x00\n      dup1\n      mload\n      0x20\n      data_dd45610e757c5493225a14df8d20081e772472041729f1452d392d031cca6d9d\n      dup4\n      codecopy\n      dup2\n      mload\n      swap2\n      mstore\n        /* \"Admin.sol\":10215:10369  AdminActionPerformed(... */\n      swap3\n      swap1\n      dup3\n      swap1\n      sub\n      add\n      swap1\n      log4\n        /* \"Admin.sol\":3896:3897  _ */\n      pop\n        /* \"Admin.sol\":9969:10376  function erc20TransferFrom(... */\n      pop\n      pop\n      pop\n      pop\n      jump\t// out\n        /* \"Admin.sol\":10812:11251  function erc20DecreaseAllowance(... */\n    tag_34:\n        /* \"Admin.sol\":3790:3812  adminExist(msg.sender) */\n      tag_117\n        /* \"Admin.sol\":3801:3811  msg.sender */\n      caller\n        /* \"Admin.sol\":3790:3800  adminExist */\n      tag_97\n        /* \"Admin.sol\":3790:3812  adminExist(msg.sender) */\n      jump\t// in\n    tag_117:\n        /* \"Admin.sol\":3790:3825  adminExist(msg.sender) || isOwner() */\n      dup1\n      tag_119\n      jumpi\n      pop\n        /* \"Admin.sol\":3816:3825  isOwner() */\n      tag_119\n        /* \"Admin.sol\":3816:3823  isOwner */\n      tag_79\n        /* \"Admin.sol\":3816:3825  isOwner() */\n      jump\t// in\n    tag_119:\n        /* \"Admin.sol\":3769:3886  require(... */\n      tag_120\n      jumpi\n      mload(0x40)\n      shl(0xe5, 0x461bcd)\n      dup2\n      mstore\n      0x04\n      add\n      dup1\n      dup1\n      0x20\n      add\n      dup3\n      dup2\n      sub\n      dup3\n      mstore\n      0x23\n      dup2\n      mstore\n      0x20\n      add\n      dup1\n      data_674a9ac1aead3691c97506b93cf9f61f3ea0388f6e9a2a7fd72dc31f93249315\n      0x23\n      swap2\n      codecopy\n      0x40\n      add\n      swap2\n      pop\n      pop\n      mload(0x40)\n      dup1\n      swap2\n      sub\n      swap1\n      revert\n    tag_120:\n        /* \"Admin.sol\":11006:11055  erc20.decreaseAllowance(spender, subtractedValue) */\n      0x40\n      dup1\n      mload\n      shl(0xe0, 0xa457c2d7)\n      dup2\n      mstore\n      sub(shl(0xa0, 0x01), 0x01)\n      dup5\n      dup2\n      and\n      0x04\n      dup4\n      add\n      mstore\n      0x24\n      dup3\n      add\n      dup5\n      swap1\n      mstore\n      swap2\n      mload\n        /* \"Admin.sol\":10989:10995  _erc20 */\n      dup6\n      swap3\n        /* \"Admin.sol\":11006:11029  erc20.decreaseAllowance */\n      dup4\n      and\n      swap2\n      0xa457c2d7\n      swap2\n        /* \"Admin.sol\":11006:11055  erc20.decreaseAllowance(spender, subtractedValue) */\n      0x44\n      dup1\n      dup4\n      add\n      swap3\n        /* \"Admin.sol\":10967:10979  IERC20 erc20 */\n      0x00\n      swap3\n        /* \"Admin.sol\":11006:11055  erc20.decreaseAllowance(spender, subtractedValue) */\n      swap2\n      swap1\n      dup3\n      swap1\n      sub\n      add\n      dup2\n        /* \"Admin.sol\":10967:10979  IERC20 erc20 */\n      dup4\n        /* \"Admin.sol\":11006:11029  erc20.decreaseAllowance */\n      dup8\n        /* \"Admin.sol\":11006:11055  erc20.decreaseAllowance(spender, subtractedValue) */\n      dup1\n      extcodesize\n      iszero\n        /* \"--CODEGEN--\":5:7   */\n      dup1\n      iszero\n      tag_122\n      jumpi\n        /* \"--CODEGEN--\":30:31   */\n      0x00\n        /* \"--CODEGEN--\":27:28   */\n      dup1\n        /* \"--CODEGEN--\":20:32   */\n      revert\n        /* \"--CODEGEN--\":5:7   */\n    tag_122:\n        /* \"Admin.sol\":11006:11055  erc20.decreaseAllowance(spender, subtractedValue) */\n      pop\n      gas\n      call\n      iszero\n        /* \"--CODEGEN--\":8:17   */\n      dup1\n        /* \"--CODEGEN--\":5:7   */\n      iszero\n      tag_123\n      jumpi\n        /* \"--CODEGEN--\":45:61   */\n      returndatasize\n        /* \"--CODEGEN--\":42:43   */\n      0x00\n        /* \"--CODEGEN--\":39:40   */\n      dup1\n        /* \"--CODEGEN--\":24:62   */\n      returndatacopy\n        /* \"--CODEGEN--\":77:93   */\n      returndatasize\n        /* \"--CODEGEN--\":74:75   */\n      0x00\n        /* \"--CODEGEN--\":67:94   */\n      revert\n        /* \"--CODEGEN--\":5:7   */\n    tag_123:\n        /* \"Admin.sol\":11006:11055  erc20.decreaseAllowance(spender, subtractedValue) */\n      pop\n      pop\n      pop\n      pop\n        /* \"Admin.sol\":11148:11161  functionNames */\n      0x01\n        /* \"Admin.sol\":11148:11184  functionNames.erc20DecreaseAllowance */\n      0x16\n      add\n        /* \"Admin.sol\":11070:11244  AdminActionPerformed(... */\n      mload(0x40)\n      dup1\n      dup3\n      dup1\n      sload\n      0x01\n      dup2\n      0x01\n      and\n      iszero\n      0x0100\n      mul\n      sub\n      and\n      0x02\n      swap1\n      div\n      dup1\n      iszero\n      tag_124\n      jumpi\n      dup1\n      0x1f\n      lt\n      tag_125\n      jumpi\n      0x0100\n      dup1\n      dup4\n      sload\n      div\n      mul\n      dup4\n      mstore\n      swap2\n      dup3\n      add\n      swap2\n      jump(tag_124)\n    tag_125:\n      dup3\n      add\n      swap2\n      swap1\n      0x00\n      mstore\n      keccak256(0x00, 0x20)\n      swap1\n    tag_126:\n      dup2\n      sload\n      dup2\n      mstore\n      swap1\n      0x01\n      add\n      swap1\n      0x20\n      add\n      dup1\n      dup4\n      gt\n      tag_126\n      jumpi\n    tag_124:\n      pop\n      pop\n      0x40\n      dup1\n      mload\n      swap2\n      dup3\n      swap1\n      sub\n      dup3\n      keccak256\n      sub(shl(0xa0, 0x01), 0x01)\n      dup9\n      dup2\n      and\n      dup5\n      mstore\n      0x20\n      dup5\n      add\n      dup9\n      swap1\n      mstore\n      dup3\n      mload\n      swap2\n      swap6\n      pop\n      dup10\n      and\n      swap4\n      pop\n        /* \"Admin.sol\":11104:11114  msg.sender */\n      caller\n      swap3\n      0x00\n      dup1\n      mload\n      0x20\n      data_dd45610e757c5493225a14df8d20081e772472041729f1452d392d031cca6d9d\n      dup4\n      codecopy\n      dup2\n      mload\n      swap2\n      mstore\n        /* \"Admin.sol\":11070:11244  AdminActionPerformed(... */\n      swap3\n      swap1\n      dup3\n      swap1\n      sub\n      add\n      swap1\n      log4\n        /* \"Admin.sol\":3896:3897  _ */\n      pop\n        /* \"Admin.sol\":10812:11251  function erc20DecreaseAllowance(... */\n      pop\n      pop\n      pop\n      jump\t// out\n        /* \"Admin.sol\":3332:3355  address[] public admins */\n    tag_37:\n      0x1b\n      dup2\n      dup2\n      sload\n      dup2\n      lt\n      tag_127\n      jumpi\n      invalid\n    tag_127:\n      0x00\n      swap2\n      dup3\n      mstore\n      0x20\n      swap1\n      swap2\n      keccak256\n      add\n      sload\n      sub(shl(0xa0, 0x01), 0x01)\n      and\n      swap1\n      pop\n      dup2\n      jump\t// out\n        /* \"Admin.sol\":4258:4593  function removeAdmin(address admin) public onlyOwner {... */\n    tag_40:\n        /* \"ownable.sol\":1074:1083  isOwner() */\n      tag_130\n        /* \"ownable.sol\":1074:1081  isOwner */\n      tag_79\n        /* \"ownable.sol\":1074:1083  isOwner() */\n      jump\t// in\n    tag_130:\n        /* \"ownable.sol\":1066:1120  require(isOwner(), \"Ownable: caller is not the owner\") */\n      tag_131\n      jumpi\n      0x40\n      dup1\n      mload\n      shl(0xe5, 0x461bcd)\n      dup2\n      mstore\n      0x20\n      0x04\n      dup3\n      add\n      dup2\n      swap1\n      mstore\n      0x24\n      dup3\n      add\n      mstore\n      0x4f776e61626c653a2063616c6c6572206973206e6f7420746865206f776e6572\n      0x44\n      dup3\n      add\n      mstore\n      swap1\n      mload\n      swap1\n      dup2\n      swap1\n      sub\n      0x64\n      add\n      swap1\n      revert\n    tag_131:\n        /* \"Admin.sol\":4326:4335  uint256 i */\n      0x00\n        /* \"Admin.sol\":4321:4536  for (uint256 i = 0; i < admins.length; i++) {... */\n    tag_133:\n        /* \"Admin.sol\":4345:4351  admins */\n      0x1b\n        /* \"Admin.sol\":4345:4358  admins.length */\n      sload\n        /* \"Admin.sol\":4341:4358  i < admins.length */\n      dup2\n      lt\n        /* \"Admin.sol\":4321:4536  for (uint256 i = 0; i < admins.length; i++) {... */\n      iszero\n      tag_134\n      jumpi\n        /* \"Admin.sol\":4396:4401  admin */\n      dup2\n      sub(shl(0xa0, 0x01), 0x01)\n        /* \"Admin.sol\":4383:4401  admins[i] == admin */\n      and\n        /* \"Admin.sol\":4383:4389  admins */\n      0x1b\n        /* \"Admin.sol\":4390:4391  i */\n      dup3\n        /* \"Admin.sol\":4383:4392  admins[i] */\n      dup2\n      sload\n      dup2\n      lt\n      tag_136\n      jumpi\n      invalid\n    tag_136:\n      0x00\n      swap2\n      dup3\n      mstore\n      0x20\n      swap1\n      swap2\n      keccak256\n      add\n      sload\n      sub(shl(0xa0, 0x01), 0x01)\n      and\n        /* \"Admin.sol\":4383:4401  admins[i] == admin */\n      eq\n        /* \"Admin.sol\":4379:4526  if (admins[i] == admin) {... */\n      iszero\n      tag_138\n      jumpi\n        /* \"Admin.sol\":4449:4455  admins */\n      0x1b\n        /* \"Admin.sol\":4456:4457  i */\n      dup2\n        /* \"Admin.sol\":4449:4458  admins[i] */\n      dup2\n      sload\n      dup2\n      lt\n      tag_139\n      jumpi\n      invalid\n    tag_139:\n      0x00\n      swap2\n      dup3\n      mstore\n      0x20\n      swap1\n      swap2\n      keccak256\n      add\n      sload\n        /* \"Admin.sol\":4421:4427  admins */\n      0x1b\n        /* \"Admin.sol\":4428:4441  admins.length */\n      dup1\n      sload\n      sub(shl(0xa0, 0x01), 0x01)\n        /* \"Admin.sol\":4449:4458  admins[i] */\n      swap1\n      swap3\n      and\n      swap2\n      not(0x00)\n        /* \"Admin.sol\":4428:4445  admins.length - 1 */\n      dup2\n      add\n      swap1\n        /* \"Admin.sol\":4421:4446  admins[admins.length - 1] */\n      dup2\n      lt\n      tag_141\n      jumpi\n      invalid\n    tag_141:\n      swap1\n      0x00\n      mstore\n      keccak256(0x00, 0x20)\n      add\n      0x00\n        /* \"Admin.sol\":4421:4458  admins[admins.length - 1] = admins[i] */\n      0x0100\n      exp\n      dup2\n      sload\n      dup2\n      sub(shl(0xa0, 0x01), 0x01)\n      mul\n      not\n      and\n      swap1\n      dup4\n      sub(shl(0xa0, 0x01), 0x01)\n      and\n      mul\n      or\n      swap1\n      sstore\n      pop\n        /* \"Admin.sol\":4476:4482  admins */\n      0x1b\n        /* \"Admin.sol\":4476:4488  admins.pop() */\n      dup1\n      sload\n      dup1\n      tag_143\n      jumpi\n      invalid\n    tag_143:\n      0x00\n      dup3\n      dup2\n      mstore\n      0x20\n      swap1\n      keccak256\n      dup2\n      add\n      not(0x00)\n      swap1\n      dup2\n      add\n      dup1\n      sload\n      not(sub(shl(0xa0, 0x01), 0x01))\n      and\n      swap1\n      sstore\n      add\n      swap1\n      sstore\n        /* \"Admin.sol\":4506:4511  break */\n      jump(tag_134)\n        /* \"Admin.sol\":4379:4526  if (admins[i] == admin) {... */\n    tag_138:\n        /* \"Admin.sol\":4360:4363  i++ */\n      0x01\n      add\n        /* \"Admin.sol\":4321:4536  for (uint256 i = 0; i < admins.length; i++) {... */\n      jump(tag_133)\n    tag_134:\n      pop\n        /* \"Admin.sol\":4550:4586  AdminRemoved(admin, block.timestamp) */\n      0x40\n      dup1\n      mload\n      sub(shl(0xa0, 0x01), 0x01)\n      dup4\n      and\n      dup2\n      mstore\n        /* \"Admin.sol\":4570:4585  block.timestamp */\n      timestamp\n        /* \"Admin.sol\":4550:4586  AdminRemoved(admin, block.timestamp) */\n      0x20\n      dup3\n      add\n      mstore\n      dup2\n      mload\n      0xa0726c73cf6ad18ddb855ba65d1ddd4d7fd37d320f4e52f6b154c13d386f5fd9\n      swap3\n      swap2\n      dup2\n      swap1\n      sub\n      swap1\n      swap2\n      add\n      swap1\n      log1\n        /* \"Admin.sol\":4258:4593  function removeAdmin(address admin) public onlyOwner {... */\n      pop\n      jump\t// out\n        /* \"Admin.sol\":5201:5623  function erc721Approve(... */\n    tag_43:\n        /* \"Admin.sol\":3790:3812  adminExist(msg.sender) */\n      tag_146\n        /* \"Admin.sol\":3801:3811  msg.sender */\n      caller\n        /* \"Admin.sol\":3790:3800  adminExist */\n      tag_97\n        /* \"Admin.sol\":3790:3812  adminExist(msg.sender) */\n      jump\t// in\n    tag_146:\n        /* \"Admin.sol\":3790:3825  adminExist(msg.sender) || isOwner() */\n      dup1\n      tag_148\n      jumpi\n      pop\n        /* \"Admin.sol\":3816:3825  isOwner() */\n      tag_148\n        /* \"Admin.sol\":3816:3823  isOwner */\n      tag_79\n        /* \"Admin.sol\":3816:3825  isOwner() */\n      jump\t// in\n    tag_148:\n        /* \"Admin.sol\":3769:3886  require(... */\n      tag_149\n      jumpi\n      mload(0x40)\n      shl(0xe5, 0x461bcd)\n      dup2\n      mstore\n      0x04\n      add\n      dup1\n      dup1\n      0x20\n      add\n      dup3\n      dup2\n      sub\n      dup3\n      mstore\n      0x23\n      dup2\n      mstore\n      0x20\n      add\n      dup1\n      data_674a9ac1aead3691c97506b93cf9f61f3ea0388f6e9a2a7fd72dc31f93249315\n      0x23\n      swap2\n      codecopy\n      0x40\n      add\n      swap2\n      pop\n      pop\n      mload(0x40)\n      dup1\n      swap2\n      sub\n      swap1\n      revert\n    tag_149:\n        /* \"Admin.sol\":5344:5360  IMintable erc721 */\n      0x00\n        /* \"Admin.sol\":5373:5387  _ERC721Address */\n      dup4\n        /* \"Admin.sol\":5344:5388  IMintable erc721 = IMintable(_ERC721Address) */\n      swap1\n      pop\n        /* \"Admin.sol\":5489:5502  functionNames */\n      0x01\n        /* \"Admin.sol\":5489:5510  functionNames.approve */\n      0x00\n      add\n        /* \"Admin.sol\":5403:5570  AdminActionPerformed(... */\n      mload(0x40)\n      dup1\n      dup3\n      dup1\n      sload\n      0x01\n      dup2\n      0x01\n      and\n      iszero\n      0x0100\n      mul\n      sub\n      and\n      0x02\n      swap1\n      div\n      dup1\n      iszero\n      tag_151\n      jumpi\n      dup1\n      0x1f\n      lt\n      tag_152\n      jumpi\n      0x0100\n      dup1\n      dup4\n      sload\n      div\n      mul\n      dup4\n      mstore\n      swap2\n      dup3\n      add\n      swap2\n      jump(tag_151)\n    tag_152:\n      dup3\n      add\n      swap2\n      swap1\n      0x00\n      mstore\n      keccak256(0x00, 0x20)\n      swap1\n    tag_153:\n      dup2\n      sload\n      dup2\n      mstore\n      swap1\n      0x01\n      add\n      swap1\n      0x20\n      add\n      dup1\n      dup4\n      gt\n      tag_153\n      jumpi\n    tag_151:\n      pop\n      pop\n      0x40\n      dup1\n      mload\n      swap2\n      dup3\n      swap1\n      sub\n      dup3\n      keccak256\n      sub(shl(0xa0, 0x01), 0x01)\n      dup10\n      and\n      dup1\n      dup5\n      mstore\n      0x20\n      dup5\n      add\n      dup9\n      swap1\n      mstore\n      dup3\n      mload\n      swap2\n      swap6\n      pop\n      swap4\n      pop\n        /* \"Admin.sol\":5437:5447  msg.sender */\n      caller\n      swap3\n      0x00\n      dup1\n      mload\n      0x20\n      data_dd45610e757c5493225a14df8d20081e772472041729f1452d392d031cca6d9d\n      dup4\n      codecopy\n      dup2\n      mload\n      swap2\n      mstore\n        /* \"Admin.sol\":5403:5570  AdminActionPerformed(... */\n      swap3\n      swap1\n      dup3\n      swap1\n      sub\n      add\n      swap1\n      log4\n        /* \"Admin.sol\":5587:5593  erc721 */\n      dup1\n      sub(shl(0xa0, 0x01), 0x01)\n        /* \"Admin.sol\":5587:5601  erc721.approve */\n      and\n      0x095ea7b3\n        /* \"Admin.sol\":5602:5605  _to */\n      dup5\n        /* \"Admin.sol\":5607:5615  _tokenId */\n      dup5\n        /* \"Admin.sol\":5587:5616  erc721.approve(_to, _tokenId) */\n      mload(0x40)\n      dup4\n      0xffffffff\n      and\n      0xe0\n      shl\n      dup2\n      mstore\n      0x04\n      add\n      dup1\n      dup4\n      sub(shl(0xa0, 0x01), 0x01)\n      and\n      sub(shl(0xa0, 0x01), 0x01)\n      and\n      dup2\n      mstore\n      0x20\n      add\n      dup3\n      dup2\n      mstore\n      0x20\n      add\n      swap3\n      pop\n      pop\n      pop\n      0x00\n      mload(0x40)\n      dup1\n      dup4\n      sub\n      dup2\n      0x00\n      dup8\n      dup1\n      extcodesize\n      iszero\n        /* \"--CODEGEN--\":8:17   */\n      dup1\n        /* \"--CODEGEN--\":5:7   */\n      iszero\n      tag_154\n      jumpi\n        /* \"--CODEGEN--\":30:31   */\n      0x00\n        /* \"--CODEGEN--\":27:28   */\n      dup1\n        /* \"--CODEGEN--\":20:32   */\n      revert\n        /* \"--CODEGEN--\":5:7   */\n    tag_154:\n        /* \"Admin.sol\":5587:5616  erc721.approve(_to, _tokenId) */\n      pop\n      gas\n      call\n      iszero\n        /* \"--CODEGEN--\":8:17   */\n      dup1\n        /* \"--CODEGEN--\":5:7   */\n      iszero\n      tag_155\n      jumpi\n        /* \"--CODEGEN--\":45:61   */\n      returndatasize\n        /* \"--CODEGEN--\":42:43   */\n      0x00\n        /* \"--CODEGEN--\":39:40   */\n      dup1\n        /* \"--CODEGEN--\":24:62   */\n      returndatacopy\n        /* \"--CODEGEN--\":77:93   */\n      returndatasize\n        /* \"--CODEGEN--\":74:75   */\n      0x00\n        /* \"--CODEGEN--\":67:94   */\n      revert\n        /* \"--CODEGEN--\":5:7   */\n    tag_155:\n        /* \"Admin.sol\":5587:5616  erc721.approve(_to, _tokenId) */\n      pop\n      pop\n      pop\n      pop\n        /* \"Admin.sol\":5580:5616  return erc721.approve(_to, _tokenId) */\n      pop\n        /* \"Admin.sol\":5201:5623  function erc721Approve(... */\n      pop\n      pop\n      pop\n      jump\t// out\n        /* \"Admin.sol\":9169:9590  function erc20IncreaseApproval(... */\n    tag_46:\n        /* \"Admin.sol\":3790:3812  adminExist(msg.sender) */\n      tag_157\n        /* \"Admin.sol\":3801:3811  msg.sender */\n      caller\n        /* \"Admin.sol\":3790:3800  adminExist */\n      tag_97\n        /* \"Admin.sol\":3790:3812  adminExist(msg.sender) */\n      jump\t// in\n    tag_157:\n        /* \"Admin.sol\":3790:3825  adminExist(msg.sender) || isOwner() */\n      dup1\n      tag_159\n      jumpi\n      pop\n        /* \"Admin.sol\":3816:3825  isOwner() */\n      tag_159\n        /* \"Admin.sol\":3816:3823  isOwner */\n      tag_79\n        /* \"Admin.sol\":3816:3825  isOwner() */\n      jump\t// in\n    tag_159:\n        /* \"Admin.sol\":3769:3886  require(... */\n      tag_160\n      jumpi\n      mload(0x40)\n      shl(0xe5, 0x461bcd)\n      dup2\n      mstore\n      0x04\n      add\n      dup1\n      dup1\n      0x20\n      add\n      dup3\n      dup2\n      sub\n      dup3\n      mstore\n      0x23\n      dup2\n      mstore\n      0x20\n      add\n      dup1\n      data_674a9ac1aead3691c97506b93cf9f61f3ea0388f6e9a2a7fd72dc31f93249315\n      0x23\n      swap2\n      codecopy\n      0x40\n      add\n      swap2\n      pop\n      pop\n      mload(0x40)\n      dup1\n      swap2\n      sub\n      swap1\n      revert\n    tag_160:\n        /* \"Admin.sol\":9357:9400  erc20.increaseApproval(spender, addedValue) */\n      0x40\n      dup1\n      mload\n      shl(0xe0, 0xd73dd623)\n      dup2\n      mstore\n      sub(shl(0xa0, 0x01), 0x01)\n      dup5\n      dup2\n      and\n      0x04\n      dup4\n      add\n      mstore\n      0x24\n      dup3\n      add\n      dup5\n      swap1\n      mstore\n      swap2\n      mload\n        /* \"Admin.sol\":9340:9346  _erc20 */\n      dup6\n      swap3\n        /* \"Admin.sol\":9357:9379  erc20.increaseApproval */\n      dup4\n      and\n      swap2\n      0xd73dd623\n      swap2\n        /* \"Admin.sol\":9357:9400  erc20.increaseApproval(spender, addedValue) */\n      0x44\n      dup1\n      dup4\n      add\n      swap3\n        /* \"Admin.sol\":9318:9330  IERC20 erc20 */\n      0x00\n      swap3\n        /* \"Admin.sol\":9357:9400  erc20.increaseApproval(spender, addedValue) */\n      swap2\n      swap1\n      dup3\n      swap1\n      sub\n      add\n      dup2\n        /* \"Admin.sol\":9318:9330  IERC20 erc20 */\n      dup4\n        /* \"Admin.sol\":9357:9379  erc20.increaseApproval */\n      dup8\n        /* \"Admin.sol\":9357:9400  erc20.increaseApproval(spender, addedValue) */\n      dup1\n      extcodesize\n      iszero\n        /* \"--CODEGEN--\":5:7   */\n      dup1\n      iszero\n      tag_162\n      jumpi\n        /* \"--CODEGEN--\":30:31   */\n      0x00\n        /* \"--CODEGEN--\":27:28   */\n      dup1\n        /* \"--CODEGEN--\":20:32   */\n      revert\n        /* \"--CODEGEN--\":5:7   */\n    tag_162:\n        /* \"Admin.sol\":9357:9400  erc20.increaseApproval(spender, addedValue) */\n      pop\n      gas\n      call\n      iszero\n        /* \"--CODEGEN--\":8:17   */\n      dup1\n        /* \"--CODEGEN--\":5:7   */\n      iszero\n      tag_163\n      jumpi\n        /* \"--CODEGEN--\":45:61   */\n      returndatasize\n        /* \"--CODEGEN--\":42:43   */\n      0x00\n        /* \"--CODEGEN--\":39:40   */\n      dup1\n        /* \"--CODEGEN--\":24:62   */\n      returndatacopy\n        /* \"--CODEGEN--\":77:93   */\n      returndatasize\n        /* \"--CODEGEN--\":74:75   */\n      0x00\n        /* \"--CODEGEN--\":67:94   */\n      revert\n        /* \"--CODEGEN--\":5:7   */\n    tag_163:\n        /* \"Admin.sol\":9357:9400  erc20.increaseApproval(spender, addedValue) */\n      pop\n      pop\n      pop\n      pop\n        /* \"Admin.sol\":9493:9506  functionNames */\n      0x01\n        /* \"Admin.sol\":9493:9528  functionNames.erc20IncreaseApproval */\n      0x12\n      add\n        /* \"Admin.sol\":9415:9583  AdminActionPerformed(... */\n      mload(0x40)\n      dup1\n      dup3\n      dup1\n      sload\n      0x01\n      dup2\n      0x01\n      and\n      iszero\n      0x0100\n      mul\n      sub\n      and\n      0x02\n      swap1\n      div\n      dup1\n      iszero\n      tag_124\n      jumpi\n      dup1\n      0x1f\n      lt\n      tag_125\n      jumpi\n      0x0100\n      dup1\n      dup4\n      sload\n      div\n      mul\n      dup4\n      mstore\n      swap2\n      dup3\n      add\n      swap2\n      jump(tag_124)\n        /* \"Admin.sol\":4161:4251  function getAdmins() public view returns (address[] memory) {... */\n    tag_48:\n        /* \"Admin.sol\":4203:4219  address[] memory */\n      0x60\n        /* \"Admin.sol\":4238:4244  admins */\n      0x1b\n        /* \"Admin.sol\":4231:4244  return admins */\n      dup1\n      sload\n      dup1\n      0x20\n      mul\n      0x20\n      add\n      mload(0x40)\n      swap1\n      dup2\n      add\n      0x40\n      mstore\n      dup1\n      swap3\n      swap2\n      swap1\n      dup2\n      dup2\n      mstore\n      0x20\n      add\n      dup3\n      dup1\n      sload\n      dup1\n      iszero\n      tag_168\n      jumpi\n      0x20\n      mul\n      dup3\n      add\n      swap2\n      swap1\n      0x00\n      mstore\n      keccak256(0x00, 0x20)\n      swap1\n    tag_169:\n      dup2\n      sload\n      sub(shl(0xa0, 0x01), 0x01)\n      and\n      dup2\n      mstore\n      0x01\n      swap1\n      swap2\n      add\n      swap1\n      0x20\n      add\n      dup1\n      dup4\n      gt\n      tag_169\n      jumpi\n    tag_168:\n      pop\n      pop\n      pop\n      pop\n      pop\n      swap1\n      pop\n        /* \"Admin.sol\":4161:4251  function getAdmins() public view returns (address[] memory) {... */\n      swap1\n      jump\t// out\n        /* \"Admin.sol\":9596:9963  function erc20Transfer(... */\n    tag_54:\n        /* \"Admin.sol\":3790:3812  adminExist(msg.sender) */\n      tag_171\n        /* \"Admin.sol\":3801:3811  msg.sender */\n      caller\n        /* \"Admin.sol\":3790:3800  adminExist */\n      tag_97\n        /* \"Admin.sol\":3790:3812  adminExist(msg.sender) */\n      jump\t// in\n    tag_171:\n        /* \"Admin.sol\":3790:3825  adminExist(msg.sender) || isOwner() */\n      dup1\n      tag_173\n      jumpi\n      pop\n        /* \"Admin.sol\":3816:3825  isOwner() */\n      tag_173\n        /* \"Admin.sol\":3816:3823  isOwner */\n      tag_79\n        /* \"Admin.sol\":3816:3825  isOwner() */\n      jump\t// in\n    tag_173:\n        /* \"Admin.sol\":3769:3886  require(... */\n      tag_174\n      jumpi\n      mload(0x40)\n      shl(0xe5, 0x461bcd)\n      dup2\n      mstore\n      0x04\n      add\n      dup1\n      dup1\n      0x20\n      add\n      dup3\n      dup2\n      sub\n      dup3\n      mstore\n      0x23\n      dup2\n      mstore\n      0x20\n      add\n      dup1\n      data_674a9ac1aead3691c97506b93cf9f61f3ea0388f6e9a2a7fd72dc31f93249315\n      0x23\n      swap2\n      codecopy\n      0x40\n      add\n      swap2\n      pop\n      pop\n      mload(0x40)\n      dup1\n      swap2\n      sub\n      swap1\n      revert\n    tag_174:\n        /* \"Admin.sol\":9766:9791  erc20.transfer(to, value) */\n      0x40\n      dup1\n      mload\n      shl(0xe0, 0xa9059cbb)\n      dup2\n      mstore\n      sub(shl(0xa0, 0x01), 0x01)\n      dup5\n      dup2\n      and\n      0x04\n      dup4\n      add\n      mstore\n      0x24\n      dup3\n      add\n      dup5\n      swap1\n      mstore\n      swap2\n      mload\n        /* \"Admin.sol\":9749:9755  _erc20 */\n      dup6\n      swap3\n        /* \"Admin.sol\":9766:9780  erc20.transfer */\n      dup4\n      and\n      swap2\n      0xa9059cbb\n      swap2\n        /* \"Admin.sol\":9766:9791  erc20.transfer(to, value) */\n      0x44\n      dup1\n      dup4\n      add\n      swap3\n      0x20\n      swap3\n      swap2\n      swap1\n      dup3\n      swap1\n      sub\n      add\n      dup2\n        /* \"Admin.sol\":9727:9739  IERC20 erc20 */\n      0x00\n        /* \"Admin.sol\":9766:9780  erc20.transfer */\n      dup8\n        /* \"Admin.sol\":9766:9791  erc20.transfer(to, value) */\n      dup1\n      extcodesize\n      iszero\n        /* \"--CODEGEN--\":5:7   */\n      dup1\n      iszero\n      tag_176\n      jumpi\n        /* \"--CODEGEN--\":30:31   */\n      0x00\n        /* \"--CODEGEN--\":27:28   */\n      dup1\n        /* \"--CODEGEN--\":20:32   */\n      revert\n        /* \"--CODEGEN--\":5:7   */\n    tag_176:\n        /* \"Admin.sol\":9766:9791  erc20.transfer(to, value) */\n      pop\n      gas\n      call\n      iszero\n        /* \"--CODEGEN--\":8:17   */\n      dup1\n        /* \"--CODEGEN--\":5:7   */\n      iszero\n      tag_177\n      jumpi\n        /* \"--CODEGEN--\":45:61   */\n      returndatasize\n        /* \"--CODEGEN--\":42:43   */\n      0x00\n        /* \"--CODEGEN--\":39:40   */\n      dup1\n        /* \"--CODEGEN--\":24:62   */\n      returndatacopy\n        /* \"--CODEGEN--\":77:93   */\n      returndatasize\n        /* \"--CODEGEN--\":74:75   */\n      0x00\n        /* \"--CODEGEN--\":67:94   */\n      revert\n        /* \"--CODEGEN--\":5:7   */\n    tag_177:\n        /* \"Admin.sol\":9766:9791  erc20.transfer(to, value) */\n      pop\n      pop\n      pop\n      pop\n      mload(0x40)\n      returndatasize\n        /* \"--CODEGEN--\":13:15   */\n      0x20\n        /* \"--CODEGEN--\":8:11   */\n      dup2\n        /* \"--CODEGEN--\":5:16   */\n      lt\n        /* \"--CODEGEN--\":2:4   */\n      iszero\n      tag_178\n      jumpi\n        /* \"--CODEGEN--\":29:30   */\n      0x00\n        /* \"--CODEGEN--\":26:27   */\n      dup1\n        /* \"--CODEGEN--\":19:31   */\n      revert\n        /* \"--CODEGEN--\":2:4   */\n    tag_178:\n      pop\n      pop\n        /* \"Admin.sol\":9806:9956  AdminActionPerformed(... */\n      mload(0x40)\n        /* \"Admin.sol\":9884:9911  functionNames.erc20Transfer */\n      0x14\n        /* \"Admin.sol\":9806:9956  AdminActionPerformed(... */\n      dup1\n      sload\n        /* \"Admin.sol\":9884:9911  functionNames.erc20Transfer */\n      swap1\n      swap2\n        /* \"Admin.sol\":9806:9956  AdminActionPerformed(... */\n      swap1\n      dup2\n      swap1\n        /* \"Admin.sol\":9884:9911  functionNames.erc20Transfer */\n      dup4\n      swap1\n        /* \"Admin.sol\":9806:9956  AdminActionPerformed(... */\n      0x02\n      not(0x00)\n      0x0100\n        /* \"Admin.sol\":9884:9897  functionNames */\n      0x01\n        /* \"Admin.sol\":9806:9956  AdminActionPerformed(... */\n      dup5\n      and\n      iszero\n      mul\n      add\n      swap1\n      swap2\n      and\n      div\n      dup1\n      iszero\n      tag_124\n      jumpi\n      dup1\n      0x1f\n      lt\n      tag_125\n      jumpi\n      0x0100\n      dup1\n      dup4\n      sload\n      div\n      mul\n      dup4\n      mstore\n      swap2\n      dup3\n      add\n      swap2\n      jump(tag_124)\n        /* \"Admin.sol\":4599:5135  function burnNFT(address collection, uint256 tokenId)... */\n    tag_57:\n        /* \"Admin.sol\":3790:3812  adminExist(msg.sender) */\n      tag_183\n        /* \"Admin.sol\":3801:3811  msg.sender */\n      caller\n        /* \"Admin.sol\":3790:3800  adminExist */\n      tag_97\n        /* \"Admin.sol\":3790:3812  adminExist(msg.sender) */\n      jump\t// in\n    tag_183:\n        /* \"Admin.sol\":3790:3825  adminExist(msg.sender) || isOwner() */\n      dup1\n      tag_185\n      jumpi\n      pop\n        /* \"Admin.sol\":3816:3825  isOwner() */\n      tag_185\n        /* \"Admin.sol\":3816:3823  isOwner */\n      tag_79\n        /* \"Admin.sol\":3816:3825  isOwner() */\n      jump\t// in\n    tag_185:\n        /* \"Admin.sol\":3769:3886  require(... */\n      tag_186\n      jumpi\n      mload(0x40)\n      shl(0xe5, 0x461bcd)\n      dup2\n      mstore\n      0x04\n      add\n      dup1\n      dup1\n      0x20\n      add\n      dup3\n      dup2\n      sub\n      dup3\n      mstore\n      0x23\n      dup2\n      mstore\n      0x20\n      add\n      dup1\n      data_674a9ac1aead3691c97506b93cf9f61f3ea0388f6e9a2a7fd72dc31f93249315\n      0x23\n      swap2\n      codecopy\n      0x40\n      add\n      swap2\n      pop\n      pop\n      mload(0x40)\n      dup1\n      swap2\n      sub\n      swap1\n      revert\n    tag_186:\n        /* \"Admin.sol\":4708:4726  IMintable NFTToken */\n      0x00\n        /* \"Admin.sol\":4739:4749  collection */\n      dup3\n        /* \"Admin.sol\":4708:4750  IMintable NFTToken = IMintable(collection) */\n      swap1\n      pop\n        /* \"Admin.sol\":4761:4783  string memory tokenURI */\n      0x60\n        /* \"Admin.sol\":4786:4794  NFTToken */\n      dup2\n      sub(shl(0xa0, 0x01), 0x01)\n        /* \"Admin.sol\":4786:4803  NFTToken.tokenURI */\n      and\n      0xc87b56dd\n        /* \"Admin.sol\":4804:4811  tokenId */\n      dup5\n        /* \"Admin.sol\":4786:4812  NFTToken.tokenURI(tokenId) */\n      mload(0x40)\n      dup3\n      0xffffffff\n      and\n      0xe0\n      shl\n      dup2\n      mstore\n      0x04\n      add\n      dup1\n      dup3\n      dup2\n      mstore\n      0x20\n      add\n      swap2\n      pop\n      pop\n      0x00\n      mload(0x40)\n      dup1\n      dup4\n      sub\n      dup2\n      0x00\n      dup8\n      dup1\n      extcodesize\n      iszero\n        /* \"--CODEGEN--\":8:17   */\n      dup1\n        /* \"--CODEGEN--\":5:7   */\n      iszero\n      tag_188\n      jumpi\n        /* \"--CODEGEN--\":30:31   */\n      0x00\n        /* \"--CODEGEN--\":27:28   */\n      dup1\n        /* \"--CODEGEN--\":20:32   */\n      revert\n        /* \"--CODEGEN--\":5:7   */\n    tag_188:\n        /* \"Admin.sol\":4786:4812  NFTToken.tokenURI(tokenId) */\n      pop\n      gas\n      call\n      iszero\n        /* \"--CODEGEN--\":8:17   */\n      dup1\n        /* \"--CODEGEN--\":5:7   */\n      iszero\n      tag_189\n      jumpi\n        /* \"--CODEGEN--\":45:61   */\n      returndatasize\n        /* \"--CODEGEN--\":42:43   */\n      0x00\n        /* \"--CODEGEN--\":39:40   */\n      dup1\n        /* \"--CODEGEN--\":24:62   */\n      returndatacopy\n        /* \"--CODEGEN--\":77:93   */\n      returndatasize\n        /* \"--CODEGEN--\":74:75   */\n      0x00\n        /* \"--CODEGEN--\":67:94   */\n      revert\n        /* \"--CODEGEN--\":5:7   */\n    tag_189:\n        /* \"Admin.sol\":4786:4812  NFTToken.tokenURI(tokenId) */\n      pop\n      pop\n      pop\n      pop\n      mload(0x40)\n        /* \"--CODEGEN--\":39:55   */\n      returndatasize\n        /* \"--CODEGEN--\":36:37   */\n      0x00\n        /* \"--CODEGEN--\":17:34   */\n      dup3\n        /* \"--CODEGEN--\":2:56   */\n      returndatacopy\n        /* \"--CODEGEN--\":101:105   */\n      0x1f\n        /* \"Admin.sol\":4786:4812  NFTToken.tokenURI(tokenId) */\n      returndatasize\n        /* \"--CODEGEN--\":80:95   */\n      swap1\n      dup2\n      add\n      not(0x1f)\n        /* \"--CODEGEN--\":76:107   */\n      and\n        /* \"--CODEGEN--\":65:108   */\n      dup3\n      add\n        /* \"--CODEGEN--\":120:124   */\n      0x40\n        /* \"--CODEGEN--\":113:133   */\n      mstore\n        /* \"--CODEGEN--\":13:15   */\n      0x20\n        /* \"--CODEGEN--\":5:16   */\n      dup2\n      lt\n        /* \"--CODEGEN--\":2:4   */\n      iszero\n      tag_190\n      jumpi\n        /* \"--CODEGEN--\":29:30   */\n      0x00\n        /* \"--CODEGEN--\":26:27   */\n      dup1\n        /* \"--CODEGEN--\":19:31   */\n      revert\n        /* \"--CODEGEN--\":2:4   */\n    tag_190:\n        /* \"Admin.sol\":4786:4812  NFTToken.tokenURI(tokenId) */\n      dup2\n      add\n      swap1\n      dup1\n      dup1\n      mload\n      mload(0x40)\n      swap4\n      swap3\n      swap2\n      swap1\n      dup5\n        /* \"--CODEGEN--\":19:30   */\n      0x0100000000\n        /* \"--CODEGEN--\":14:17   */\n      dup3\n        /* \"--CODEGEN--\":11:31   */\n      gt\n        /* \"--CODEGEN--\":8:10   */\n      iszero\n      tag_191\n      jumpi\n        /* \"--CODEGEN--\":44:45   */\n      0x00\n        /* \"--CODEGEN--\":41:42   */\n      dup1\n        /* \"--CODEGEN--\":34:46   */\n      revert\n        /* \"--CODEGEN--\":8:10   */\n    tag_191:\n        /* \"--CODEGEN--\":62:83   */\n      swap1\n      dup4\n      add\n      swap1\n        /* \"--CODEGEN--\":123:127   */\n      0x20\n        /* \"--CODEGEN--\":114:128   */\n      dup3\n      add\n        /* \"--CODEGEN--\":138:169   */\n      dup6\n      dup2\n      gt\n        /* \"--CODEGEN--\":135:137   */\n      iszero\n      tag_192\n      jumpi\n        /* \"--CODEGEN--\":182:183   */\n      0x00\n        /* \"--CODEGEN--\":179:180   */\n      dup1\n        /* \"--CODEGEN--\":172:184   */\n      revert\n        /* \"--CODEGEN--\":135:137   */\n    tag_192:\n        /* \"--CODEGEN--\":213:223   */\n      dup3\n      mload\n        /* \"--CODEGEN--\":261:272   */\n      0x0100000000\n        /* \"--CODEGEN--\":244:273   */\n      dup2\n      gt\n        /* \"--CODEGEN--\":285:328   */\n      dup3\n      dup3\n      add\n        /* \"--CODEGEN--\":282:340   */\n      dup9\n      lt\n        /* \"--CODEGEN--\":233:348   */\n      or\n        /* \"--CODEGEN--\":230:232   */\n      iszero\n      tag_193\n      jumpi\n        /* \"--CODEGEN--\":361:362   */\n      0x00\n        /* \"--CODEGEN--\":358:359   */\n      dup1\n        /* \"--CODEGEN--\":351:363   */\n      revert\n        /* \"--CODEGEN--\":230:232   */\n    tag_193:\n        /* \"--CODEGEN--\":372:397   */\n      dup3\n      mstore\n      pop\n        /* \"Admin.sol\":4786:4812  NFTToken.tokenURI(tokenId) */\n      dup2\n      mload\n        /* \"--CODEGEN--\":420:424   */\n      0x20\n        /* \"--CODEGEN--\":411:425   */\n      swap2\n      dup3\n      add\n      swap3\n        /* \"Admin.sol\":4786:4812  NFTToken.tokenURI(tokenId) */\n      swap1\n      swap2\n      add\n      swap1\n      dup1\n        /* \"--CODEGEN--\":411:425   */\n      dup4\n        /* \"Admin.sol\":4786:4812  NFTToken.tokenURI(tokenId) */\n      dup4\n        /* \"--CODEGEN--\":23:24   */\n      0x00\n        /* \"--CODEGEN--\":8:108   */\n    tag_194:\n        /* \"--CODEGEN--\":33:36   */\n      dup4\n        /* \"--CODEGEN--\":30:31   */\n      dup2\n        /* \"--CODEGEN--\":27:37   */\n      lt\n        /* \"--CODEGEN--\":8:108   */\n      iszero\n      tag_196\n      jumpi\n        /* \"--CODEGEN--\":90:101   */\n      dup2\n      dup2\n      add\n        /* \"--CODEGEN--\":84:102   */\n      mload\n        /* \"--CODEGEN--\":71:82   */\n      dup4\n      dup3\n      add\n        /* \"--CODEGEN--\":64:103   */\n      mstore\n        /* \"--CODEGEN--\":52:54   */\n      0x20\n        /* \"--CODEGEN--\":45:55   */\n      add\n        /* \"--CODEGEN--\":8:108   */\n      jump(tag_194)\n    tag_196:\n        /* \"--CODEGEN--\":12:26   */\n      pop\n        /* \"Admin.sol\":4786:4812  NFTToken.tokenURI(tokenId) */\n      pop\n      pop\n      pop\n      swap1\n      pop\n      swap1\n      dup2\n      add\n      swap1\n      0x1f\n      and\n      dup1\n      iszero\n      tag_197\n      jumpi\n      dup1\n      dup3\n      sub\n      dup1\n      mload\n      0x01\n      dup4\n      0x20\n      sub\n      0x0100\n      exp\n      sub\n      not\n      and\n      dup2\n      mstore\n      0x20\n      add\n      swap2\n      pop\n    tag_197:\n      pop\n      0x40\n      dup2\n      dup2\n      mstore\n      shl(0xe2, 0x020604bf)\n        /* \"Admin.sol\":4843:4872  NFTToken.getApproved(tokenId) */\n      dup3\n      mstore\n      0x04\n      dup3\n      add\n      dup10\n      swap1\n      mstore\n      mload\n        /* \"Admin.sol\":4761:4812  string memory tokenURI = NFTToken.tokenURI(tokenId) */\n      swap5\n      swap6\n      pop\n        /* \"Admin.sol\":4884:4888  this */\n      address\n      swap5\n      sub(shl(0xa0, 0x01), 0x01)\n        /* \"Admin.sol\":4843:4863  NFTToken.getApproved */\n      dup9\n      and\n      swap5\n      pop\n      0x081812fc\n      swap4\n      pop\n        /* \"Admin.sol\":4843:4872  NFTToken.getApproved(tokenId) */\n      0x24\n      dup1\n      dup4\n      add\n      swap4\n      pop\n      0x20\n      swap3\n      dup3\n      swap1\n      sub\n      add\n      dup2\n      0x00\n        /* \"Admin.sol\":4843:4863  NFTToken.getApproved */\n      dup8\n        /* \"Admin.sol\":4843:4872  NFTToken.getApproved(tokenId) */\n      dup1\n      extcodesize\n      iszero\n        /* \"--CODEGEN--\":5:7   */\n      dup1\n      iszero\n      tag_198\n      jumpi\n        /* \"--CODEGEN--\":30:31   */\n      0x00\n        /* \"--CODEGEN--\":27:28   */\n      dup1\n        /* \"--CODEGEN--\":20:32   */\n      revert\n        /* \"--CODEGEN--\":5:7   */\n    tag_198:\n        /* \"Admin.sol\":4843:4872  NFTToken.getApproved(tokenId) */\n      pop\n      gas\n      call\n      iszero\n        /* \"--CODEGEN--\":8:17   */\n      dup1\n        /* \"--CODEGEN--\":5:7   */\n      iszero\n      tag_199\n      jumpi\n        /* \"--CODEGEN--\":45:61   */\n      returndatasize\n        /* \"--CODEGEN--\":42:43   */\n      0x00\n        /* \"--CODEGEN--\":39:40   */\n      dup1\n        /* \"--CODEGEN--\":24:62   */\n      returndatacopy\n        /* \"--CODEGEN--\":77:93   */\n      returndatasize\n        /* \"--CODEGEN--\":74:75   */\n      0x00\n        /* \"--CODEGEN--\":67:94   */\n      revert\n        /* \"--CODEGEN--\":5:7   */\n    tag_199:\n        /* \"Admin.sol\":4843:4872  NFTToken.getApproved(tokenId) */\n      pop\n      pop\n      pop\n      pop\n      mload(0x40)\n      returndatasize\n        /* \"--CODEGEN--\":13:15   */\n      0x20\n        /* \"--CODEGEN--\":8:11   */\n      dup2\n        /* \"--CODEGEN--\":5:16   */\n      lt\n        /* \"--CODEGEN--\":2:4   */\n      iszero\n      tag_200\n      jumpi\n        /* \"--CODEGEN--\":29:30   */\n      0x00\n        /* \"--CODEGEN--\":26:27   */\n      dup1\n        /* \"--CODEGEN--\":19:31   */\n      revert\n        /* \"--CODEGEN--\":2:4   */\n    tag_200:\n      pop\n        /* \"Admin.sol\":4843:4872  NFTToken.getApproved(tokenId) */\n      mload\n      sub(shl(0xa0, 0x01), 0x01)\n        /* \"Admin.sol\":4843:4889  NFTToken.getApproved(tokenId) == address(this) */\n      and\n      eq\n        /* \"Admin.sol\":4822:4942  require(... */\n      tag_201\n      jumpi\n      0x40\n      dup1\n      mload\n      shl(0xe5, 0x461bcd)\n      dup2\n      mstore\n      0x20\n      0x04\n      dup3\n      add\n      mstore\n      0x1b\n      0x24\n      dup3\n      add\n      mstore\n      0x546f6b656e206e6f74206170706f726f766520666f72206275726e0000000000\n      0x44\n      dup3\n      add\n      mstore\n      swap1\n      mload\n      swap1\n      dup2\n      swap1\n      sub\n      0x64\n      add\n      swap1\n      revert\n    tag_201:\n        /* \"Admin.sol\":4952:4960  NFTToken */\n      dup2\n      sub(shl(0xa0, 0x01), 0x01)\n        /* \"Admin.sol\":4952:4965  NFTToken.burn */\n      and\n      0x42966c68\n        /* \"Admin.sol\":4966:4973  tokenId */\n      dup5\n        /* \"Admin.sol\":4952:4974  NFTToken.burn(tokenId) */\n      mload(0x40)\n      dup3\n      0xffffffff\n      and\n      0xe0\n      shl\n      dup2\n      mstore\n      0x04\n      add\n      dup1\n      dup3\n      dup2\n      mstore\n      0x20\n      add\n      swap2\n      pop\n      pop\n      0x00\n      mload(0x40)\n      dup1\n      dup4\n      sub\n      dup2\n      0x00\n      dup8\n      dup1\n      extcodesize\n      iszero\n        /* \"--CODEGEN--\":8:17   */\n      dup1\n        /* \"--CODEGEN--\":5:7   */\n      iszero\n      tag_202\n      jumpi\n        /* \"--CODEGEN--\":30:31   */\n      0x00\n        /* \"--CODEGEN--\":27:28   */\n      dup1\n        /* \"--CODEGEN--\":20:32   */\n      revert\n        /* \"--CODEGEN--\":5:7   */\n    tag_202:\n        /* \"Admin.sol\":4952:4974  NFTToken.burn(tokenId) */\n      pop\n      gas\n      call\n      iszero\n        /* \"--CODEGEN--\":8:17   */\n      dup1\n        /* \"--CODEGEN--\":5:7   */\n      iszero\n      tag_203\n      jumpi\n        /* \"--CODEGEN--\":45:61   */\n      returndatasize\n        /* \"--CODEGEN--\":42:43   */\n      0x00\n        /* \"--CODEGEN--\":39:40   */\n      dup1\n        /* \"--CODEGEN--\":24:62   */\n      returndatacopy\n        /* \"--CODEGEN--\":77:93   */\n      returndatasize\n        /* \"--CODEGEN--\":74:75   */\n      0x00\n        /* \"--CODEGEN--\":67:94   */\n      revert\n        /* \"--CODEGEN--\":5:7   */\n    tag_203:\n        /* \"Admin.sol\":4952:4974  NFTToken.burn(tokenId) */\n      pop\n      pop\n      pop\n      pop\n        /* \"Admin.sol\":5057:5067  msg.sender */\n      caller\n      sub(shl(0xa0, 0x01), 0x01)\n        /* \"Admin.sol\":4989:5128  NFTBurned(... */\n      and\n        /* \"Admin.sol\":5036:5043  tokenId */\n      dup4\n        /* \"Admin.sol\":5012:5022  collection */\n      dup6\n      sub(shl(0xa0, 0x01), 0x01)\n        /* \"Admin.sol\":4989:5128  NFTBurned(... */\n      and\n      0x926b248e45dfdd4c4caec216e73ec503ce2522d3b5646c861d1b074210675d0e\n        /* \"Admin.sol\":5081:5096  block.timestamp */\n      timestamp\n        /* \"Admin.sol\":5110:5118  tokenURI */\n      dup6\n        /* \"Admin.sol\":4989:5128  NFTBurned(... */\n      mload(0x40)\n      dup1\n      dup4\n      dup2\n      mstore\n      0x20\n      add\n      dup1\n      0x20\n      add\n      dup3\n      dup2\n      sub\n      dup3\n      mstore\n      dup4\n      dup2\n      dup2\n      mload\n      dup2\n      mstore\n      0x20\n      add\n      swap2\n      pop\n      dup1\n      mload\n      swap1\n      0x20\n      add\n      swap1\n      dup1\n      dup4\n      dup4\n        /* \"--CODEGEN--\":23:24   */\n      0x00\n        /* \"--CODEGEN--\":8:108   */\n    tag_204:\n        /* \"--CODEGEN--\":33:36   */\n      dup4\n        /* \"--CODEGEN--\":30:31   */\n      dup2\n        /* \"--CODEGEN--\":27:37   */\n      lt\n        /* \"--CODEGEN--\":8:108   */\n      iszero\n      tag_206\n      jumpi\n        /* \"--CODEGEN--\":90:101   */\n      dup2\n      dup2\n      add\n        /* \"--CODEGEN--\":84:102   */\n      mload\n        /* \"--CODEGEN--\":71:82   */\n      dup4\n      dup3\n      add\n        /* \"--CODEGEN--\":64:103   */\n      mstore\n        /* \"--CODEGEN--\":52:54   */\n      0x20\n        /* \"--CODEGEN--\":45:55   */\n      add\n        /* \"--CODEGEN--\":8:108   */\n      jump(tag_204)\n    tag_206:\n        /* \"--CODEGEN--\":12:26   */\n      pop\n        /* \"Admin.sol\":4989:5128  NFTBurned(... */\n      pop\n      pop\n      pop\n      swap1\n      pop\n      swap1\n      dup2\n      add\n      swap1\n      0x1f\n      and\n      dup1\n      iszero\n      tag_207\n      jumpi\n      dup1\n      dup3\n      sub\n      dup1\n      mload\n      0x01\n      dup4\n      0x20\n      sub\n      0x0100\n      exp\n      sub\n      not\n      and\n      dup2\n      mstore\n      0x20\n      add\n      swap2\n      pop\n    tag_207:\n      pop\n      swap4\n      pop\n      pop\n      pop\n      pop\n      mload(0x40)\n      dup1\n      swap2\n      sub\n      swap1\n      log4\n        /* \"Admin.sol\":3896:3897  _ */\n      pop\n      pop\n        /* \"Admin.sol\":4599:5135  function burnNFT(address collection, uint256 tokenId)... */\n      pop\n      pop\n      jump\t// out\n        /* \"Admin.sol\":6060:6442  function erc721Burn(address _ERC721Address, uint256 tokenId)... */\n    tag_60:\n        /* \"Admin.sol\":3790:3812  adminExist(msg.sender) */\n      tag_209\n        /* \"Admin.sol\":3801:3811  msg.sender */\n      caller\n        /* \"Admin.sol\":3790:3800  adminExist */\n      tag_97\n        /* \"Admin.sol\":3790:3812  adminExist(msg.sender) */\n      jump\t// in\n    tag_209:\n        /* \"Admin.sol\":3790:3825  adminExist(msg.sender) || isOwner() */\n      dup1\n      tag_211\n      jumpi\n      pop\n        /* \"Admin.sol\":3816:3825  isOwner() */\n      tag_211\n        /* \"Admin.sol\":3816:3823  isOwner */\n      tag_79\n        /* \"Admin.sol\":3816:3825  isOwner() */\n      jump\t// in\n    tag_211:\n        /* \"Admin.sol\":3769:3886  require(... */\n      tag_212\n      jumpi\n      mload(0x40)\n      shl(0xe5, 0x461bcd)\n      dup2\n      mstore\n      0x04\n      add\n      dup1\n      dup1\n      0x20\n      add\n      dup3\n      dup2\n      sub\n      dup3\n      mstore\n      0x23\n      dup2\n      mstore\n      0x20\n      add\n      dup1\n      data_674a9ac1aead3691c97506b93cf9f61f3ea0388f6e9a2a7fd72dc31f93249315\n      0x23\n      swap2\n      codecopy\n      0x40\n      add\n      swap2\n      pop\n      pop\n      mload(0x40)\n      dup1\n      swap2\n      sub\n      swap1\n      revert\n    tag_212:\n        /* \"Admin.sol\":6176:6192  IMintable erc721 */\n      0x00\n        /* \"Admin.sol\":6205:6219  _ERC721Address */\n      dup3\n        /* \"Admin.sol\":6176:6220  IMintable erc721 = IMintable(_ERC721Address) */\n      swap1\n      pop\n        /* \"Admin.sol\":6321:6334  functionNames */\n      0x01\n        /* \"Admin.sol\":6321:6339  functionNames.burn */\n      0x02\n      add\n        /* \"Admin.sol\":6235:6398  AdminActionPerformed(... */\n      mload(0x40)\n      dup1\n      dup3\n      dup1\n      sload\n      0x01\n      dup2\n      0x01\n      and\n      iszero\n      0x0100\n      mul\n      sub\n      and\n      0x02\n      swap1\n      div\n      dup1\n      iszero\n      tag_214\n      jumpi\n      dup1\n      0x1f\n      lt\n      tag_215\n      jumpi\n      0x0100\n      dup1\n      dup4\n      sload\n      div\n      mul\n      dup4\n      mstore\n      swap2\n      dup3\n      add\n      swap2\n      jump(tag_214)\n    tag_215:\n      dup3\n      add\n      swap2\n      swap1\n      0x00\n      mstore\n      keccak256(0x00, 0x20)\n      swap1\n    tag_216:\n      dup2\n      sload\n      dup2\n      mstore\n      swap1\n      0x01\n      add\n      swap1\n      0x20\n      add\n      dup1\n      dup4\n      gt\n      tag_216\n      jumpi\n    tag_214:\n      pop\n      pop\n      0x40\n      dup1\n      mload\n      swap2\n      dup3\n      swap1\n      sub\n      dup3\n      keccak256\n      sub(shl(0xa0, 0x01), 0x01)\n      dup9\n      and\n      dup1\n      dup5\n      mstore\n      0x20\n      dup5\n      add\n      dup9\n      swap1\n      mstore\n      dup3\n      mload\n      swap2\n      swap6\n      pop\n      swap4\n      pop\n        /* \"Admin.sol\":6269:6279  msg.sender */\n      caller\n      swap3\n      0x00\n      dup1\n      mload\n      0x20\n      data_dd45610e757c5493225a14df8d20081e772472041729f1452d392d031cca6d9d\n      dup4\n      codecopy\n      dup2\n      mload\n      swap2\n      mstore\n        /* \"Admin.sol\":6235:6398  AdminActionPerformed(... */\n      swap3\n      swap1\n      dup3\n      swap1\n      sub\n      add\n      swap1\n      log4\n        /* \"Admin.sol\":6415:6421  erc721 */\n      dup1\n      sub(shl(0xa0, 0x01), 0x01)\n        /* \"Admin.sol\":6415:6426  erc721.burn */\n      and\n      0x42966c68\n        /* \"Admin.sol\":6427:6434  tokenId */\n      dup4\n        /* \"Admin.sol\":6415:6435  erc721.burn(tokenId) */\n      mload(0x40)\n      dup3\n      0xffffffff\n      and\n      0xe0\n      shl\n      dup2\n      mstore\n      0x04\n      add\n      dup1\n      dup3\n      dup2\n      mstore\n      0x20\n      add\n      swap2\n      pop\n      pop\n      0x00\n      mload(0x40)\n      dup1\n      dup4\n      sub\n      dup2\n      0x00\n      dup8\n      dup1\n      extcodesize\n      iszero\n        /* \"--CODEGEN--\":8:17   */\n      dup1\n        /* \"--CODEGEN--\":5:7   */\n      iszero\n      tag_217\n      jumpi\n        /* \"--CODEGEN--\":30:31   */\n      0x00\n        /* \"--CODEGEN--\":27:28   */\n      dup1\n        /* \"--CODEGEN--\":20:32   */\n      revert\n        /* \"--CODEGEN--\":5:7   */\n    tag_217:\n        /* \"Admin.sol\":6415:6435  erc721.burn(tokenId) */\n      pop\n      gas\n      call\n      iszero\n        /* \"--CODEGEN--\":8:17   */\n      dup1\n        /* \"--CODEGEN--\":5:7   */\n      iszero\n      tag_218\n      jumpi\n        /* \"--CODEGEN--\":45:61   */\n      returndatasize\n        /* \"--CODEGEN--\":42:43   */\n      0x00\n        /* \"--CODEGEN--\":39:40   */\n      dup1\n        /* \"--CODEGEN--\":24:62   */\n      returndatacopy\n        /* \"--CODEGEN--\":77:93   */\n      returndatasize\n        /* \"--CODEGEN--\":74:75   */\n      0x00\n        /* \"--CODEGEN--\":67:94   */\n      revert\n        /* \"--CODEGEN--\":5:7   */\n    tag_218:\n        /* \"Admin.sol\":6415:6435  erc721.burn(tokenId) */\n      pop\n      pop\n      pop\n      pop\n        /* \"Admin.sol\":6408:6435  return erc721.burn(tokenId) */\n      pop\n        /* \"Admin.sol\":6060:6442  function erc721Burn(address _ERC721Address, uint256 tokenId)... */\n      pop\n      pop\n      jump\t// out\n        /* \"Admin.sol\":7356:7863  function erc721SafeTransferFrom(... */\n    tag_66:\n        /* \"Admin.sol\":3790:3812  adminExist(msg.sender) */\n      tag_220\n        /* \"Admin.sol\":3801:3811  msg.sender */\n      caller\n        /* \"Admin.sol\":3790:3800  adminExist */\n      tag_97\n        /* \"Admin.sol\":3790:3812  adminExist(msg.sender) */\n      jump\t// in\n    tag_220:\n        /* \"Admin.sol\":3790:3825  adminExist(msg.sender) || isOwner() */\n      dup1\n      tag_222\n      jumpi\n      pop\n        /* \"Admin.sol\":3816:3825  isOwner() */\n      tag_222\n        /* \"Admin.sol\":3816:3823  isOwner */\n      tag_79\n        /* \"Admin.sol\":3816:3825  isOwner() */\n      jump\t// in\n    tag_222:\n        /* \"Admin.sol\":3769:3886  require(... */\n      tag_223\n      jumpi\n      mload(0x40)\n      shl(0xe5, 0x461bcd)\n      dup2\n      mstore\n      0x04\n      add\n      dup1\n      dup1\n      0x20\n      add\n      dup3\n      dup2\n      sub\n      dup3\n      mstore\n      0x23\n      dup2\n      mstore\n      0x20\n      add\n      dup1\n      data_674a9ac1aead3691c97506b93cf9f61f3ea0388f6e9a2a7fd72dc31f93249315\n      0x23\n      swap2\n      codecopy\n      0x40\n      add\n      swap2\n      pop\n      pop\n      mload(0x40)\n      dup1\n      swap2\n      sub\n      swap1\n      revert\n    tag_223:\n        /* \"Admin.sol\":7556:7572  IMintable erc721 */\n      0x00\n        /* \"Admin.sol\":7585:7599  _ERC721Address */\n      dup6\n        /* \"Admin.sol\":7556:7600  IMintable erc721 = IMintable(_ERC721Address) */\n      swap1\n      pop\n        /* \"Admin.sol\":7701:7714  functionNames */\n      0x01\n        /* \"Admin.sol\":7701:7731  functionNames.safeTransferFrom */\n      0x04\n      add\n        /* \"Admin.sol\":7615:7790  AdminActionPerformed(... */\n      mload(0x40)\n      dup1\n      dup3\n      dup1\n      sload\n      0x01\n      dup2\n      0x01\n      and\n      iszero\n      0x0100\n      mul\n      sub\n      and\n      0x02\n      swap1\n      div\n      dup1\n      iszero\n      tag_225\n      jumpi\n      dup1\n      0x1f\n      lt\n      tag_226\n      jumpi\n      0x0100\n      dup1\n      dup4\n      sload\n      div\n      mul\n      dup4\n      mstore\n      swap2\n      dup3\n      add\n      swap2\n      jump(tag_225)\n    tag_226:\n      dup3\n      add\n      swap2\n      swap1\n      0x00\n      mstore\n      keccak256(0x00, 0x20)\n      swap1\n    tag_227:\n      dup2\n      sload\n      dup2\n      mstore\n      swap1\n      0x01\n      add\n      swap1\n      0x20\n      add\n      dup1\n      dup4\n      gt\n      tag_227\n      jumpi\n    tag_225:\n      pop\n      pop\n      0x40\n      dup1\n      mload\n      swap2\n      dup3\n      swap1\n      sub\n      dup3\n      keccak256\n      sub(shl(0xa0, 0x01), 0x01)\n      dup12\n      and\n      dup1\n      dup5\n      mstore\n      0x20\n      dup5\n      add\n      dup10\n      swap1\n      mstore\n      dup3\n      mload\n      swap2\n      swap6\n      pop\n      swap4\n      pop\n        /* \"Admin.sol\":7649:7659  msg.sender */\n      caller\n      swap3\n      0x00\n      dup1\n      mload\n      0x20\n      data_dd45610e757c5493225a14df8d20081e772472041729f1452d392d031cca6d9d\n      dup4\n      codecopy\n      dup2\n      mload\n      swap2\n      mstore\n        /* \"Admin.sol\":7615:7790  AdminActionPerformed(... */\n      swap3\n      swap1\n      dup3\n      swap1\n      sub\n      add\n      swap1\n      log4\n        /* \"Admin.sol\":7807:7856  erc721.safeTransferFrom(from, to, tokenId, _data) */\n      mload(0x40)\n      shl(0xe1, 0x5c46a7ef)\n      dup2\n      mstore\n      sub(shl(0xa0, 0x01), 0x01)\n      dup7\n      dup2\n      and\n      0x04\n      dup4\n      add\n      swap1\n      dup2\n      mstore\n      dup7\n      dup3\n      and\n      0x24\n      dup5\n      add\n      mstore\n      0x44\n      dup4\n      add\n      dup7\n      swap1\n      mstore\n      0x80\n      0x64\n      dup5\n      add\n      swap1\n      dup2\n      mstore\n      dup6\n      mload\n      0x84\n      dup6\n      add\n      mstore\n      dup6\n      mload\n        /* \"Admin.sol\":7807:7830  erc721.safeTransferFrom */\n      swap3\n      dup6\n      and\n      swap4\n      0xb88d4fde\n      swap4\n        /* \"Admin.sol\":7831:7835  from */\n      dup11\n      swap4\n        /* \"Admin.sol\":7837:7839  to */\n      dup11\n      swap4\n        /* \"Admin.sol\":7841:7848  tokenId */\n      dup11\n      swap4\n        /* \"Admin.sol\":7850:7855  _data */\n      dup11\n      swap4\n        /* \"Admin.sol\":7807:7856  erc721.safeTransferFrom(from, to, tokenId, _data) */\n      0xa4\n      swap1\n      swap2\n      add\n      swap1\n      0x20\n      dup6\n      add\n      swap1\n      dup1\n      dup4\n      dup4\n      0x00\n        /* \"--CODEGEN--\":8:108   */\n    tag_228:\n        /* \"--CODEGEN--\":33:36   */\n      dup4\n        /* \"--CODEGEN--\":30:31   */\n      dup2\n        /* \"--CODEGEN--\":27:37   */\n      lt\n        /* \"--CODEGEN--\":8:108   */\n      iszero\n      tag_230\n      jumpi\n        /* \"--CODEGEN--\":90:101   */\n      dup2\n      dup2\n      add\n        /* \"--CODEGEN--\":84:102   */\n      mload\n        /* \"--CODEGEN--\":71:82   */\n      dup4\n      dup3\n      add\n        /* \"--CODEGEN--\":64:103   */\n      mstore\n        /* \"--CODEGEN--\":52:54   */\n      0x20\n        /* \"--CODEGEN--\":45:55   */\n      add\n        /* \"--CODEGEN--\":8:108   */\n      jump(tag_228)\n    tag_230:\n        /* \"--CODEGEN--\":12:26   */\n      pop\n        /* \"Admin.sol\":7807:7856  erc721.safeTransferFrom(from, to, tokenId, _data) */\n      pop\n      pop\n      pop\n      swap1\n      pop\n      swap1\n      dup2\n      add\n      swap1\n      0x1f\n      and\n      dup1\n      iszero\n      tag_231\n      jumpi\n      dup1\n      dup3\n      sub\n      dup1\n      mload\n      0x01\n      dup4\n      0x20\n      sub\n      0x0100\n      exp\n      sub\n      not\n      and\n      dup2\n      mstore\n      0x20\n      add\n      swap2\n      pop\n    tag_231:\n      pop\n      swap6\n      pop\n      pop\n      pop\n      pop\n      pop\n      pop\n      0x00\n      mload(0x40)\n      dup1\n      dup4\n      sub\n      dup2\n      0x00\n      dup8\n      dup1\n      extcodesize\n      iszero\n        /* \"--CODEGEN--\":8:17   */\n      dup1\n        /* \"--CODEGEN--\":5:7   */\n      iszero\n      tag_232\n      jumpi\n        /* \"--CODEGEN--\":30:31   */\n      0x00\n        /* \"--CODEGEN--\":27:28   */\n      dup1\n        /* \"--CODEGEN--\":20:32   */\n      revert\n        /* \"--CODEGEN--\":5:7   */\n    tag_232:\n        /* \"Admin.sol\":7807:7856  erc721.safeTransferFrom(from, to, tokenId, _data) */\n      pop\n      gas\n      call\n      iszero\n        /* \"--CODEGEN--\":8:17   */\n      dup1\n        /* \"--CODEGEN--\":5:7   */\n      iszero\n      tag_233\n      jumpi\n        /* \"--CODEGEN--\":45:61   */\n      returndatasize\n        /* \"--CODEGEN--\":42:43   */\n      0x00\n        /* \"--CODEGEN--\":39:40   */\n      dup1\n        /* \"--CODEGEN--\":24:62   */\n      returndatacopy\n        /* \"--CODEGEN--\":77:93   */\n      returndatasize\n        /* \"--CODEGEN--\":74:75   */\n      0x00\n        /* \"--CODEGEN--\":67:94   */\n      revert\n        /* \"--CODEGEN--\":5:7   */\n    tag_233:\n        /* \"Admin.sol\":7807:7856  erc721.safeTransferFrom(from, to, tokenId, _data) */\n      pop\n      pop\n      pop\n      pop\n        /* \"Admin.sol\":7800:7856  return erc721.safeTransferFrom(from, to, tokenId, _data) */\n      pop\n        /* \"Admin.sol\":7356:7863  function erc721SafeTransferFrom(... */\n      pop\n      pop\n      pop\n      pop\n      pop\n      jump\t// out\n        /* \"Admin.sol\":6878:7350  function erc721SafeTransferFrom(... */\n    tag_69:\n        /* \"Admin.sol\":3790:3812  adminExist(msg.sender) */\n      tag_235\n        /* \"Admin.sol\":3801:3811  msg.sender */\n      caller\n        /* \"Admin.sol\":3790:3800  adminExist */\n      tag_97\n        /* \"Admin.sol\":3790:3812  adminExist(msg.sender) */\n      jump\t// in\n    tag_235:\n        /* \"Admin.sol\":3790:3825  adminExist(msg.sender) || isOwner() */\n      dup1\n      tag_237\n      jumpi\n      pop\n        /* \"Admin.sol\":3816:3825  isOwner() */\n      tag_237\n        /* \"Admin.sol\":3816:3823  isOwner */\n      tag_79\n        /* \"Admin.sol\":3816:3825  isOwner() */\n      jump\t// in\n    tag_237:\n        /* \"Admin.sol\":3769:3886  require(... */\n      tag_238\n      jumpi\n      mload(0x40)\n      shl(0xe5, 0x461bcd)\n      dup2\n      mstore\n      0x04\n      add\n      dup1\n      dup1\n      0x20\n      add\n      dup3\n      dup2\n      sub\n      dup3\n      mstore\n      0x23\n      dup2\n      mstore\n      0x20\n      add\n      dup1\n      data_674a9ac1aead3691c97506b93cf9f61f3ea0388f6e9a2a7fd72dc31f93249315\n      0x23\n      swap2\n      codecopy\n      0x40\n      add\n      swap2\n      pop\n      pop\n      mload(0x40)\n      dup1\n      swap2\n      sub\n      swap1\n      revert\n    tag_238:\n        /* \"Admin.sol\":7050:7066  IMintable erc721 */\n      0x00\n        /* \"Admin.sol\":7079:7093  _ERC721Address */\n      dup5\n        /* \"Admin.sol\":7050:7094  IMintable erc721 = IMintable(_ERC721Address) */\n      swap1\n      pop\n        /* \"Admin.sol\":7195:7208  functionNames */\n      0x01\n        /* \"Admin.sol\":7195:7225  functionNames.safeTransferFrom */\n      0x04\n      add\n        /* \"Admin.sol\":7109:7284  AdminActionPerformed(... */\n      mload(0x40)\n      dup1\n      dup3\n      dup1\n      sload\n      0x01\n      dup2\n      0x01\n      and\n      iszero\n      0x0100\n      mul\n      sub\n      and\n      0x02\n      swap1\n      div\n      dup1\n      iszero\n      tag_240\n      jumpi\n      dup1\n      0x1f\n      lt\n      tag_241\n      jumpi\n      0x0100\n      dup1\n      dup4\n      sload\n      div\n      mul\n      dup4\n      mstore\n      swap2\n      dup3\n      add\n      swap2\n      jump(tag_240)\n    tag_241:\n      dup3\n      add\n      swap2\n      swap1\n      0x00\n      mstore\n      keccak256(0x00, 0x20)\n      swap1\n    tag_242:\n      dup2\n      sload\n      dup2\n      mstore\n      swap1\n      0x01\n      add\n      swap1\n      0x20\n      add\n      dup1\n      dup4\n      gt\n      tag_242\n      jumpi\n    tag_240:\n      pop\n      pop\n      0x40\n      dup1\n      mload\n      swap2\n      dup3\n      swap1\n      sub\n      dup3\n      keccak256\n      sub(shl(0xa0, 0x01), 0x01)\n      dup11\n      and\n      dup1\n      dup5\n      mstore\n      0x20\n      dup5\n      add\n      dup9\n      swap1\n      mstore\n      dup3\n      mload\n      swap2\n      swap6\n      pop\n      swap4\n      pop\n        /* \"Admin.sol\":7143:7153  msg.sender */\n      caller\n      swap3\n      0x00\n      dup1\n      mload\n      0x20\n      data_dd45610e757c5493225a14df8d20081e772472041729f1452d392d031cca6d9d\n      dup4\n      codecopy\n      dup2\n      mload\n      swap2\n      mstore\n        /* \"Admin.sol\":7109:7284  AdminActionPerformed(... */\n      swap3\n      swap1\n      dup3\n      swap1\n      sub\n      add\n      swap1\n      log4\n        /* \"Admin.sol\":7301:7343  erc721.safeTransferFrom(from, to, tokenId) */\n      0x40\n      dup1\n      mload\n      shl(0xe1, 0x21421707)\n      dup2\n      mstore\n      sub(shl(0xa0, 0x01), 0x01)\n      dup7\n      dup2\n      and\n      0x04\n      dup4\n      add\n      mstore\n      dup6\n      dup2\n      and\n      0x24\n      dup4\n      add\n      mstore\n      0x44\n      dup3\n      add\n      dup6\n      swap1\n      mstore\n      swap2\n      mload\n        /* \"Admin.sol\":7301:7324  erc721.safeTransferFrom */\n      swap2\n      dup4\n      and\n      swap2\n      0x42842e0e\n      swap2\n        /* \"Admin.sol\":7301:7343  erc721.safeTransferFrom(from, to, tokenId) */\n      0x64\n      dup1\n      dup3\n      add\n      swap3\n      0x00\n      swap3\n      swap1\n      swap2\n      swap1\n      dup3\n      swap1\n      sub\n      add\n      dup2\n      dup4\n        /* \"Admin.sol\":7301:7324  erc721.safeTransferFrom */\n      dup8\n        /* \"Admin.sol\":7301:7343  erc721.safeTransferFrom(from, to, tokenId) */\n      dup1\n      extcodesize\n      iszero\n        /* \"--CODEGEN--\":5:7   */\n      dup1\n      iszero\n      tag_243\n      jumpi\n        /* \"--CODEGEN--\":30:31   */\n      0x00\n        /* \"--CODEGEN--\":27:28   */\n      dup1\n        /* \"--CODEGEN--\":20:32   */\n      revert\n        /* \"--CODEGEN--\":5:7   */\n    tag_243:\n        /* \"Admin.sol\":7301:7343  erc721.safeTransferFrom(from, to, tokenId) */\n      pop\n      gas\n      call\n      iszero\n        /* \"--CODEGEN--\":8:17   */\n      dup1\n        /* \"--CODEGEN--\":5:7   */\n      iszero\n      tag_244\n      jumpi\n        /* \"--CODEGEN--\":45:61   */\n      returndatasize\n        /* \"--CODEGEN--\":42:43   */\n      0x00\n        /* \"--CODEGEN--\":39:40   */\n      dup1\n        /* \"--CODEGEN--\":24:62   */\n      returndatacopy\n        /* \"--CODEGEN--\":77:93   */\n      returndatasize\n        /* \"--CODEGEN--\":74:75   */\n      0x00\n        /* \"--CODEGEN--\":67:94   */\n      revert\n        /* \"--CODEGEN--\":5:7   */\n    tag_244:\n        /* \"Admin.sol\":7301:7343  erc721.safeTransferFrom(from, to, tokenId) */\n      pop\n      pop\n      pop\n      pop\n        /* \"Admin.sol\":7294:7343  return erc721.safeTransferFrom(from, to, tokenId) */\n      pop\n        /* \"Admin.sol\":6878:7350  function erc721SafeTransferFrom(... */\n      pop\n      pop\n      pop\n      pop\n      jump\t// out\n        /* \"Admin.sol\":3910:4155  function addAdmin(address admin) public onlyOwner {... */\n    tag_72:\n        /* \"ownable.sol\":1074:1083  isOwner() */\n      tag_246\n        /* \"ownable.sol\":1074:1081  isOwner */\n      tag_79\n        /* \"ownable.sol\":1074:1083  isOwner() */\n      jump\t// in\n    tag_246:\n        /* \"ownable.sol\":1066:1120  require(isOwner(), \"Ownable: caller is not the owner\") */\n      tag_247\n      jumpi\n      0x40\n      dup1\n      mload\n      shl(0xe5, 0x461bcd)\n      dup2\n      mstore\n      0x20\n      0x04\n      dup3\n      add\n      dup2\n      swap1\n      mstore\n      0x24\n      dup3\n      add\n      mstore\n      0x4f776e61626c653a2063616c6c6572206973206e6f7420746865206f776e6572\n      0x44\n      dup3\n      add\n      mstore\n      swap1\n      mload\n      swap1\n      dup2\n      swap1\n      sub\n      0x64\n      add\n      swap1\n      revert\n    tag_247:\n        /* \"Admin.sol\":3975:3992  adminExist(admin) */\n      tag_249\n        /* \"Admin.sol\":3986:3991  admin */\n      dup2\n        /* \"Admin.sol\":3975:3985  adminExist */\n      tag_97\n        /* \"Admin.sol\":3975:3992  adminExist(admin) */\n      jump\t// in\n    tag_249:\n        /* \"Admin.sol\":3970:4099  if (!adminExist(admin)) {... */\n      tag_250\n      jumpi\n        /* \"Admin.sol\":4008:4014  admins */\n      0x1b\n        /* \"--CODEGEN--\":27:37   */\n      dup1\n      sload\n        /* \"--CODEGEN--\":39:40   */\n      0x01\n        /* \"--CODEGEN--\":23:41   */\n      dup2\n      add\n        /* \"--CODEGEN--\":45:68   */\n      dup3\n      sstore\n      0x00\n        /* \"Admin.sol\":4008:4026  admins.push(admin) */\n      swap2\n      swap1\n      swap2\n      mstore\n      0x3ad8aa4f87544323a9d1e5dd902f40c356527a7955687113db5f9a85ad579dc1\n      add\n      dup1\n      sload\n      not(sub(shl(0xa0, 0x01), 0x01))\n      and\n      sub(shl(0xa0, 0x01), 0x01)\n      dup4\n      and\n      or\n      swap1\n      sstore\n        /* \"Admin.sol\":3970:4099  if (!adminExist(admin)) {... */\n      jump(tag_252)\n    tag_250:\n        /* \"Admin.sol\":4057:4088  revert(\"admin already in list\") */\n      0x40\n      dup1\n      mload\n      shl(0xe5, 0x461bcd)\n      dup2\n      mstore\n      0x20\n      0x04\n      dup3\n      add\n      mstore\n      0x15\n      0x24\n      dup3\n      add\n      mstore\n      shl(0x5a, 0x18591b5a5b88185b1c9958591e481a5b881b1a5cdd)\n      0x44\n      dup3\n      add\n      mstore\n      swap1\n      mload\n      swap1\n      dup2\n      swap1\n      sub\n      0x64\n      add\n      swap1\n      revert\n        /* \"Admin.sol\":3970:4099  if (!adminExist(admin)) {... */\n    tag_252:\n        /* \"Admin.sol\":4114:4148  AdminAdded(admin, block.timestamp) */\n      0x40\n      dup1\n      mload\n      sub(shl(0xa0, 0x01), 0x01)\n      dup4\n      and\n      dup2\n      mstore\n        /* \"Admin.sol\":4132:4147  block.timestamp */\n      timestamp\n        /* \"Admin.sol\":4114:4148  AdminAdded(admin, block.timestamp) */\n      0x20\n      dup3\n      add\n      mstore\n      dup2\n      mload\n      0x723c2b747529ca7f5eb53a74808f4a8b9bf264f0fc450fd904900151da74548a\n      swap3\n      swap2\n      dup2\n      swap1\n      sub\n      swap1\n      swap2\n      add\n      swap1\n      log1\n        /* \"Admin.sol\":3910:4155  function addAdmin(address admin) public onlyOwner {... */\n      pop\n      jump\t// out\n        /* \"Admin.sol\":7869:8329  function erc721TransferFrom(... */\n    tag_75:\n        /* \"Admin.sol\":3790:3812  adminExist(msg.sender) */\n      tag_254\n        /* \"Admin.sol\":3801:3811  msg.sender */\n      caller\n        /* \"Admin.sol\":3790:3800  adminExist */\n      tag_97\n        /* \"Admin.sol\":3790:3812  adminExist(msg.sender) */\n      jump\t// in\n    tag_254:\n        /* \"Admin.sol\":3790:3825  adminExist(msg.sender) || isOwner() */\n      dup1\n      tag_256\n      jumpi\n      pop\n        /* \"Admin.sol\":3816:3825  isOwner() */\n      tag_256\n        /* \"Admin.sol\":3816:3823  isOwner */\n      tag_79\n        /* \"Admin.sol\":3816:3825  isOwner() */\n      jump\t// in\n    tag_256:\n        /* \"Admin.sol\":3769:3886  require(... */\n      tag_257\n      jumpi\n      mload(0x40)\n      shl(0xe5, 0x461bcd)\n      dup2\n      mstore\n      0x04\n      add\n      dup1\n      dup1\n      0x20\n      add\n      dup3\n      dup2\n      sub\n      dup3\n      mstore\n      0x23\n      dup2\n      mstore\n      0x20\n      add\n      dup1\n      data_674a9ac1aead3691c97506b93cf9f61f3ea0388f6e9a2a7fd72dc31f93249315\n      0x23\n      swap2\n      codecopy\n      0x40\n      add\n      swap2\n      pop\n      pop\n      mload(0x40)\n      dup1\n      swap2\n      sub\n      swap1\n      revert\n    tag_257:\n        /* \"Admin.sol\":8037:8053  IMintable erc721 */\n      0x00\n        /* \"Admin.sol\":8066:8080  _ERC721Address */\n      dup5\n        /* \"Admin.sol\":8037:8081  IMintable erc721 = IMintable(_ERC721Address) */\n      swap1\n      pop\n        /* \"Admin.sol\":8182:8195  functionNames */\n      0x01\n        /* \"Admin.sol\":8182:8208  functionNames.transferFrom */\n      0x05\n      add\n        /* \"Admin.sol\":8096:8267  AdminActionPerformed(... */\n      mload(0x40)\n      dup1\n      dup3\n      dup1\n      sload\n      0x01\n      dup2\n      0x01\n      and\n      iszero\n      0x0100\n      mul\n      sub\n      and\n      0x02\n      swap1\n      div\n      dup1\n      iszero\n      tag_259\n      jumpi\n      dup1\n      0x1f\n      lt\n      tag_260\n      jumpi\n      0x0100\n      dup1\n      dup4\n      sload\n      div\n      mul\n      dup4\n      mstore\n      swap2\n      dup3\n      add\n      swap2\n      jump(tag_259)\n    tag_260:\n      dup3\n      add\n      swap2\n      swap1\n      0x00\n      mstore\n      keccak256(0x00, 0x20)\n      swap1\n    tag_261:\n      dup2\n      sload\n      dup2\n      mstore\n      swap1\n      0x01\n      add\n      swap1\n      0x20\n      add\n      dup1\n      dup4\n      gt\n      tag_261\n      jumpi\n    tag_259:\n      pop\n      pop\n      0x40\n      dup1\n      mload\n      swap2\n      dup3\n      swap1\n      sub\n      dup3\n      keccak256\n      sub(shl(0xa0, 0x01), 0x01)\n      dup11\n      and\n      dup1\n      dup5\n      mstore\n      0x20\n      dup5\n      add\n      dup9\n      swap1\n      mstore\n      dup3\n      mload\n      swap2\n      swap6\n      pop\n      swap4\n      pop\n        /* \"Admin.sol\":8130:8140  msg.sender */\n      caller\n      swap3\n      0x00\n      dup1\n      mload\n      0x20\n      data_dd45610e757c5493225a14df8d20081e772472041729f1452d392d031cca6d9d\n      dup4\n      codecopy\n      dup2\n      mload\n      swap2\n      mstore\n        /* \"Admin.sol\":8096:8267  AdminActionPerformed(... */\n      swap3\n      swap1\n      dup3\n      swap1\n      sub\n      add\n      swap1\n      log4\n        /* \"Admin.sol\":8284:8322  erc721.transferFrom(from, to, tokenId) */\n      0x40\n      dup1\n      mload\n      shl(0xe0, 0x23b872dd)\n      dup2\n      mstore\n      sub(shl(0xa0, 0x01), 0x01)\n      dup7\n      dup2\n      and\n      0x04\n      dup4\n      add\n      mstore\n      dup6\n      dup2\n      and\n      0x24\n      dup4\n      add\n      mstore\n      0x44\n      dup3\n      add\n      dup6\n      swap1\n      mstore\n      swap2\n      mload\n        /* \"Admin.sol\":8284:8303  erc721.transferFrom */\n      swap2\n      dup4\n      and\n      swap2\n      0x23b872dd\n      swap2\n        /* \"Admin.sol\":8284:8322  erc721.transferFrom(from, to, tokenId) */\n      0x64\n      dup1\n      dup3\n      add\n      swap3\n      0x00\n      swap3\n      swap1\n      swap2\n      swap1\n      dup3\n      swap1\n      sub\n      add\n      dup2\n      dup4\n        /* \"Admin.sol\":8284:8303  erc721.transferFrom */\n      dup8\n        /* \"Admin.sol\":8284:8322  erc721.transferFrom(from, to, tokenId) */\n      dup1\n      extcodesize\n      iszero\n        /* \"--CODEGEN--\":5:7   */\n      dup1\n      iszero\n      tag_243\n      jumpi\n        /* \"--CODEGEN--\":30:31   */\n      0x00\n        /* \"--CODEGEN--\":27:28   */\n      dup1\n        /* \"--CODEGEN--\":20:32   */\n      revert\n        /* \"ownable.sol\":870:947  function owner() public view returns (address) {... */\n    tag_77:\n        /* \"ownable.sol\":908:915  address */\n      0x00\n        /* \"ownable.sol\":934:940  _owner */\n      sload\n      sub(shl(0xa0, 0x01), 0x01)\n      and\n        /* \"ownable.sol\":870:947  function owner() public view returns (address) {... */\n      swap1\n      jump\t// out\n        /* \"ownable.sol\":1221:1311  function isOwner() public view returns (bool) {... */\n    tag_79:\n        /* \"ownable.sol\":1261:1265  bool */\n      0x00\n        /* \"ownable.sol\":1298:1304  _owner */\n      sload\n      sub(shl(0xa0, 0x01), 0x01)\n      and\n        /* \"ownable.sol\":1284:1294  msg.sender */\n      caller\n        /* \"ownable.sol\":1284:1304  msg.sender == _owner */\n      eq\n      swap1\n        /* \"ownable.sol\":1221:1311  function isOwner() public view returns (bool) {... */\n      jump\t// out\n        /* \"Admin.sol\":10382:10806  function erc20IncreaseAllowance(... */\n    tag_82:\n        /* \"Admin.sol\":3790:3812  adminExist(msg.sender) */\n      tag_267\n        /* \"Admin.sol\":3801:3811  msg.sender */\n      caller\n        /* \"Admin.sol\":3790:3800  adminExist */\n      tag_97\n        /* \"Admin.sol\":3790:3812  adminExist(msg.sender) */\n      jump\t// in\n    tag_267:\n        /* \"Admin.sol\":3790:3825  adminExist(msg.sender) || isOwner() */\n      dup1\n      tag_269\n      jumpi\n      pop\n        /* \"Admin.sol\":3816:3825  isOwner() */\n      tag_269\n        /* \"Admin.sol\":3816:3823  isOwner */\n      tag_79\n        /* \"Admin.sol\":3816:3825  isOwner() */\n      jump\t// in\n    tag_269:\n        /* \"Admin.sol\":3769:3886  require(... */\n      tag_270\n      jumpi\n      mload(0x40)\n      shl(0xe5, 0x461bcd)\n      dup2\n      mstore\n      0x04\n      add\n      dup1\n      dup1\n      0x20\n      add\n      dup3\n      dup2\n      sub\n      dup3\n      mstore\n      0x23\n      dup2\n      mstore\n      0x20\n      add\n      dup1\n      data_674a9ac1aead3691c97506b93cf9f61f3ea0388f6e9a2a7fd72dc31f93249315\n      0x23\n      swap2\n      codecopy\n      0x40\n      add\n      swap2\n      pop\n      pop\n      mload(0x40)\n      dup1\n      swap2\n      sub\n      swap1\n      revert\n    tag_270:\n        /* \"Admin.sol\":10571:10615  erc20.increaseAllowance(spender, addedValue) */\n      0x40\n      dup1\n      mload\n      shl(0xe0, 0x39509351)\n      dup2\n      mstore\n      sub(shl(0xa0, 0x01), 0x01)\n      dup5\n      dup2\n      and\n      0x04\n      dup4\n      add\n      mstore\n      0x24\n      dup3\n      add\n      dup5\n      swap1\n      mstore\n      swap2\n      mload\n        /* \"Admin.sol\":10554:10560  _erc20 */\n      dup6\n      swap3\n        /* \"Admin.sol\":10571:10594  erc20.increaseAllowance */\n      dup4\n      and\n      swap2\n      0x39509351\n      swap2\n        /* \"Admin.sol\":10571:10615  erc20.increaseAllowance(spender, addedValue) */\n      0x44\n      dup1\n      dup4\n      add\n      swap3\n        /* \"Admin.sol\":10532:10544  IERC20 erc20 */\n      0x00\n      swap3\n        /* \"Admin.sol\":10571:10615  erc20.increaseAllowance(spender, addedValue) */\n      swap2\n      swap1\n      dup3\n      swap1\n      sub\n      add\n      dup2\n        /* \"Admin.sol\":10532:10544  IERC20 erc20 */\n      dup4\n        /* \"Admin.sol\":10571:10594  erc20.increaseAllowance */\n      dup8\n        /* \"Admin.sol\":10571:10615  erc20.increaseAllowance(spender, addedValue) */\n      dup1\n      extcodesize\n      iszero\n        /* \"--CODEGEN--\":5:7   */\n      dup1\n      iszero\n      tag_272\n      jumpi\n        /* \"--CODEGEN--\":30:31   */\n      0x00\n        /* \"--CODEGEN--\":27:28   */\n      dup1\n        /* \"--CODEGEN--\":20:32   */\n      revert\n        /* \"--CODEGEN--\":5:7   */\n    tag_272:\n        /* \"Admin.sol\":10571:10615  erc20.increaseAllowance(spender, addedValue) */\n      pop\n      gas\n      call\n      iszero\n        /* \"--CODEGEN--\":8:17   */\n      dup1\n        /* \"--CODEGEN--\":5:7   */\n      iszero\n      tag_273\n      jumpi\n        /* \"--CODEGEN--\":45:61   */\n      returndatasize\n        /* \"--CODEGEN--\":42:43   */\n      0x00\n        /* \"--CODEGEN--\":39:40   */\n      dup1\n        /* \"--CODEGEN--\":24:62   */\n      returndatacopy\n        /* \"--CODEGEN--\":77:93   */\n      returndatasize\n        /* \"--CODEGEN--\":74:75   */\n      0x00\n        /* \"--CODEGEN--\":67:94   */\n      revert\n        /* \"--CODEGEN--\":5:7   */\n    tag_273:\n        /* \"Admin.sol\":10571:10615  erc20.increaseAllowance(spender, addedValue) */\n      pop\n      pop\n      pop\n      pop\n        /* \"Admin.sol\":10708:10721  functionNames */\n      0x01\n        /* \"Admin.sol\":10708:10744  functionNames.erc20IncreaseAllowance */\n      0x15\n      add\n        /* \"Admin.sol\":10630:10799  AdminActionPerformed(... */\n      mload(0x40)\n      dup1\n      dup3\n      dup1\n      sload\n      0x01\n      dup2\n      0x01\n      and\n      iszero\n      0x0100\n      mul\n      sub\n      and\n      0x02\n      swap1\n      div\n      dup1\n      iszero\n      tag_124\n      jumpi\n      dup1\n      0x1f\n      lt\n      tag_125\n      jumpi\n      0x0100\n      dup1\n      dup4\n      sload\n      div\n      mul\n      dup4\n      mstore\n      swap2\n      dup3\n      add\n      swap2\n      jump(tag_124)\n        /* \"Admin.sol\":8335:8714  function erc20Approve(... */\n    tag_85:\n        /* \"Admin.sol\":3790:3812  adminExist(msg.sender) */\n      tag_278\n        /* \"Admin.sol\":3801:3811  msg.sender */\n      caller\n        /* \"Admin.sol\":3790:3800  adminExist */\n      tag_97\n        /* \"Admin.sol\":3790:3812  adminExist(msg.sender) */\n      jump\t// in\n    tag_278:\n        /* \"Admin.sol\":3790:3825  adminExist(msg.sender) || isOwner() */\n      dup1\n      tag_280\n      jumpi\n      pop\n        /* \"Admin.sol\":3816:3825  isOwner() */\n      tag_280\n        /* \"Admin.sol\":3816:3823  isOwner */\n      tag_79\n        /* \"Admin.sol\":3816:3825  isOwner() */\n      jump\t// in\n    tag_280:\n        /* \"Admin.sol\":3769:3886  require(... */\n      tag_281\n      jumpi\n      mload(0x40)\n      shl(0xe5, 0x461bcd)\n      dup2\n      mstore\n      0x04\n      add\n      dup1\n      dup1\n      0x20\n      add\n      dup3\n      dup2\n      sub\n      dup3\n      mstore\n      0x23\n      dup2\n      mstore\n      0x20\n      add\n      dup1\n      data_674a9ac1aead3691c97506b93cf9f61f3ea0388f6e9a2a7fd72dc31f93249315\n      0x23\n      swap2\n      codecopy\n      0x40\n      add\n      swap2\n      pop\n      pop\n      mload(0x40)\n      dup1\n      swap2\n      sub\n      swap1\n      revert\n    tag_281:\n        /* \"Admin.sol\":8509:8538  erc20.approve(spender, value) */\n      0x40\n      dup1\n      mload\n      shl(0xe0, 0x095ea7b3)\n      dup2\n      mstore\n      sub(shl(0xa0, 0x01), 0x01)\n      dup5\n      dup2\n      and\n      0x04\n      dup4\n      add\n      mstore\n      0x24\n      dup3\n      add\n      dup5\n      swap1\n      mstore\n      swap2\n      mload\n        /* \"Admin.sol\":8492:8498  _erc20 */\n      dup6\n      swap3\n        /* \"Admin.sol\":8509:8522  erc20.approve */\n      dup4\n      and\n      swap2\n      0x095ea7b3\n      swap2\n        /* \"Admin.sol\":8509:8538  erc20.approve(spender, value) */\n      0x44\n      dup1\n      dup4\n      add\n      swap3\n        /* \"Admin.sol\":8470:8482  IERC20 erc20 */\n      0x00\n      swap3\n        /* \"Admin.sol\":8509:8538  erc20.approve(spender, value) */\n      swap2\n      swap1\n      dup3\n      swap1\n      sub\n      add\n      dup2\n        /* \"Admin.sol\":8470:8482  IERC20 erc20 */\n      dup4\n        /* \"Admin.sol\":8509:8522  erc20.approve */\n      dup8\n        /* \"Admin.sol\":8509:8538  erc20.approve(spender, value) */\n      dup1\n      extcodesize\n      iszero\n        /* \"--CODEGEN--\":5:7   */\n      dup1\n      iszero\n      tag_283\n      jumpi\n        /* \"--CODEGEN--\":30:31   */\n      0x00\n        /* \"--CODEGEN--\":27:28   */\n      dup1\n        /* \"--CODEGEN--\":20:32   */\n      revert\n        /* \"--CODEGEN--\":5:7   */\n    tag_283:\n        /* \"Admin.sol\":8509:8538  erc20.approve(spender, value) */\n      pop\n      gas\n      call\n      iszero\n        /* \"--CODEGEN--\":8:17   */\n      dup1\n        /* \"--CODEGEN--\":5:7   */\n      iszero\n      tag_284\n      jumpi\n        /* \"--CODEGEN--\":45:61   */\n      returndatasize\n        /* \"--CODEGEN--\":42:43   */\n      0x00\n        /* \"--CODEGEN--\":39:40   */\n      dup1\n        /* \"--CODEGEN--\":24:62   */\n      returndatacopy\n        /* \"--CODEGEN--\":77:93   */\n      returndatasize\n        /* \"--CODEGEN--\":74:75   */\n      0x00\n        /* \"--CODEGEN--\":67:94   */\n      revert\n        /* \"--CODEGEN--\":5:7   */\n    tag_284:\n        /* \"Admin.sol\":8509:8538  erc20.approve(spender, value) */\n      pop\n      pop\n      pop\n      pop\n        /* \"Admin.sol\":8631:8644  functionNames */\n      0x01\n        /* \"Admin.sol\":8631:8657  functionNames.erc20Approve */\n      0x10\n      add\n        /* \"Admin.sol\":8553:8707  AdminActionPerformed(... */\n      mload(0x40)\n      dup1\n      dup3\n      dup1\n      sload\n      0x01\n      dup2\n      0x01\n      and\n      iszero\n      0x0100\n      mul\n      sub\n      and\n      0x02\n      swap1\n      div\n      dup1\n      iszero\n      tag_124\n      jumpi\n      dup1\n      0x1f\n      lt\n      tag_125\n      jumpi\n      0x0100\n      dup1\n      dup4\n      sload\n      div\n      mul\n      dup4\n      mstore\n      swap2\n      dup3\n      add\n      swap2\n      jump(tag_124)\n        /* \"Admin.sol\":5629:6054  function erc721Transfer(... */\n    tag_88:\n        /* \"Admin.sol\":3790:3812  adminExist(msg.sender) */\n      tag_289\n        /* \"Admin.sol\":3801:3811  msg.sender */\n      caller\n        /* \"Admin.sol\":3790:3800  adminExist */\n      tag_97\n        /* \"Admin.sol\":3790:3812  adminExist(msg.sender) */\n      jump\t// in\n    tag_289:\n        /* \"Admin.sol\":3790:3825  adminExist(msg.sender) || isOwner() */\n      dup1\n      tag_291\n      jumpi\n      pop\n        /* \"Admin.sol\":3816:3825  isOwner() */\n      tag_291\n        /* \"Admin.sol\":3816:3823  isOwner */\n      tag_79\n        /* \"Admin.sol\":3816:3825  isOwner() */\n      jump\t// in\n    tag_291:\n        /* \"Admin.sol\":3769:3886  require(... */\n      tag_292\n      jumpi\n      mload(0x40)\n      shl(0xe5, 0x461bcd)\n      dup2\n      mstore\n      0x04\n      add\n      dup1\n      dup1\n      0x20\n      add\n      dup3\n      dup2\n      sub\n      dup3\n      mstore\n      0x23\n      dup2\n      mstore\n      0x20\n      add\n      dup1\n      data_674a9ac1aead3691c97506b93cf9f61f3ea0388f6e9a2a7fd72dc31f93249315\n      0x23\n      swap2\n      codecopy\n      0x40\n      add\n      swap2\n      pop\n      pop\n      mload(0x40)\n      dup1\n      swap2\n      sub\n      swap1\n      revert\n    tag_292:\n        /* \"Admin.sol\":5832:6000  AdminActionPerformed(... */\n      mload(0x40)\n        /* \"Admin.sol\":5918:5940  functionNames.transfer */\n      0x02\n        /* \"Admin.sol\":5832:6000  AdminActionPerformed(... */\n      dup1\n      sload\n        /* \"Admin.sol\":5802:5816  _ERC721Address */\n      dup6\n      swap3\n        /* \"Admin.sol\":5832:6000  AdminActionPerformed(... */\n      swap1\n      dup2\n      swap1\n        /* \"Admin.sol\":5918:5940  functionNames.transfer */\n      dup4\n      swap1\n      not(0x00)\n        /* \"Admin.sol\":5832:6000  AdminActionPerformed(... */\n      0x0100\n        /* \"Admin.sol\":5918:5931  functionNames */\n      0x01\n        /* \"Admin.sol\":5832:6000  AdminActionPerformed(... */\n      dup4\n      and\n      iszero\n      mul\n      add\n      and\n      dup2\n      swap1\n      div\n      dup1\n      iszero\n      tag_294\n      jumpi\n      dup1\n      0x1f\n      lt\n      tag_295\n      jumpi\n      0x0100\n      dup1\n      dup4\n      sload\n      div\n      mul\n      dup4\n      mstore\n      swap2\n      dup3\n      add\n      swap2\n      jump(tag_294)\n    tag_295:\n      dup3\n      add\n      swap2\n      swap1\n      0x00\n      mstore\n      keccak256(0x00, 0x20)\n      swap1\n    tag_296:\n      dup2\n      sload\n      dup2\n      mstore\n      swap1\n      0x01\n      add\n      swap1\n      0x20\n      add\n      dup1\n      dup4\n      gt\n      tag_296\n      jumpi\n    tag_294:\n      pop\n      pop\n      0x40\n      dup1\n      mload\n      swap2\n      dup3\n      swap1\n      sub\n      dup3\n      keccak256\n      sub(shl(0xa0, 0x01), 0x01)\n      dup10\n      and\n      dup1\n      dup5\n      mstore\n      0x20\n      dup5\n      add\n      dup9\n      swap1\n      mstore\n      dup3\n      mload\n      swap2\n      swap6\n      pop\n      swap4\n      pop\n        /* \"Admin.sol\":5866:5876  msg.sender */\n      caller\n      swap3\n      0x00\n      dup1\n      mload\n      0x20\n      data_dd45610e757c5493225a14df8d20081e772472041729f1452d392d031cca6d9d\n      dup4\n      codecopy\n      dup2\n      mload\n      swap2\n      mstore\n        /* \"Admin.sol\":5832:6000  AdminActionPerformed(... */\n      swap3\n      swap1\n      dup3\n      swap1\n      sub\n      add\n      swap1\n      log4\n        /* \"Admin.sol\":6017:6023  erc721 */\n      dup1\n      sub(shl(0xa0, 0x01), 0x01)\n        /* \"Admin.sol\":6017:6032  erc721.transfer */\n      and\n      0xa9059cbb\n        /* \"Admin.sol\":6033:6036  _to */\n      dup5\n        /* \"Admin.sol\":6038:6046  _tokenId */\n      dup5\n        /* \"Admin.sol\":6017:6047  erc721.transfer(_to, _tokenId) */\n      mload(0x40)\n      dup4\n      0xffffffff\n      and\n      0xe0\n      shl\n      dup2\n      mstore\n      0x04\n      add\n      dup1\n      dup4\n      sub(shl(0xa0, 0x01), 0x01)\n      and\n      sub(shl(0xa0, 0x01), 0x01)\n      and\n      dup2\n      mstore\n      0x20\n      add\n      dup3\n      dup2\n      mstore\n      0x20\n      add\n      swap3\n      pop\n      pop\n      pop\n      0x00\n      mload(0x40)\n      dup1\n      dup4\n      sub\n      dup2\n      0x00\n      dup8\n      dup1\n      extcodesize\n      iszero\n        /* \"--CODEGEN--\":8:17   */\n      dup1\n        /* \"--CODEGEN--\":5:7   */\n      iszero\n      tag_154\n      jumpi\n        /* \"--CODEGEN--\":30:31   */\n      0x00\n        /* \"--CODEGEN--\":27:28   */\n      dup1\n        /* \"--CODEGEN--\":20:32   */\n      revert\n        /* \"Admin.sol\":8720:9163  function erc20DecreaseApproval(... */\n    tag_91:\n        /* \"Admin.sol\":3790:3812  adminExist(msg.sender) */\n      tag_300\n        /* \"Admin.sol\":3801:3811  msg.sender */\n      caller\n        /* \"Admin.sol\":3790:3800  adminExist */\n      tag_97\n        /* \"Admin.sol\":3790:3812  adminExist(msg.sender) */\n      jump\t// in\n    tag_300:\n        /* \"Admin.sol\":3790:3825  adminExist(msg.sender) || isOwner() */\n      dup1\n      tag_302\n      jumpi\n      pop\n        /* \"Admin.sol\":3816:3825  isOwner() */\n      tag_302\n        /* \"Admin.sol\":3816:3823  isOwner */\n      tag_79\n        /* \"Admin.sol\":3816:3825  isOwner() */\n      jump\t// in\n    tag_302:\n        /* \"Admin.sol\":3769:3886  require(... */\n      tag_303\n      jumpi\n      mload(0x40)\n      shl(0xe5, 0x461bcd)\n      dup2\n      mstore\n      0x04\n      add\n      dup1\n      dup1\n      0x20\n      add\n      dup3\n      dup2\n      sub\n      dup3\n      mstore\n      0x23\n      dup2\n      mstore\n      0x20\n      add\n      dup1\n      data_674a9ac1aead3691c97506b93cf9f61f3ea0388f6e9a2a7fd72dc31f93249315\n      0x23\n      swap2\n      codecopy\n      0x40\n      add\n      swap2\n      pop\n      pop\n      mload(0x40)\n      dup1\n      swap2\n      sub\n      swap1\n      revert\n    tag_303:\n        /* \"Admin.sol\":8915:8965  erc20.decreaseApproval(_spender, _subtractedValue) */\n      0x40\n      dup1\n      mload\n      shl(0xe0, 0x66188463)\n      dup2\n      mstore\n      sub(shl(0xa0, 0x01), 0x01)\n      dup5\n      dup2\n      and\n      0x04\n      dup4\n      add\n      mstore\n      0x24\n      dup3\n      add\n      dup5\n      swap1\n      mstore\n      swap2\n      mload\n        /* \"Admin.sol\":8898:8904  _erc20 */\n      dup6\n      swap3\n        /* \"Admin.sol\":8915:8937  erc20.decreaseApproval */\n      dup4\n      and\n      swap2\n      0x66188463\n      swap2\n        /* \"Admin.sol\":8915:8965  erc20.decreaseApproval(_spender, _subtractedValue) */\n      0x44\n      dup1\n      dup4\n      add\n      swap3\n        /* \"Admin.sol\":8876:8888  IERC20 erc20 */\n      0x00\n      swap3\n        /* \"Admin.sol\":8915:8965  erc20.decreaseApproval(_spender, _subtractedValue) */\n      swap2\n      swap1\n      dup3\n      swap1\n      sub\n      add\n      dup2\n        /* \"Admin.sol\":8876:8888  IERC20 erc20 */\n      dup4\n        /* \"Admin.sol\":8915:8937  erc20.decreaseApproval */\n      dup8\n        /* \"Admin.sol\":8915:8965  erc20.decreaseApproval(_spender, _subtractedValue) */\n      dup1\n      extcodesize\n      iszero\n        /* \"--CODEGEN--\":5:7   */\n      dup1\n      iszero\n      tag_122\n      jumpi\n        /* \"--CODEGEN--\":30:31   */\n      0x00\n        /* \"--CODEGEN--\":27:28   */\n      dup1\n        /* \"--CODEGEN--\":20:32   */\n      revert\n        /* \"ownable.sol\":1460:1695  function transferOwnership(address newOwner) public onlyOwner {... */\n    tag_94:\n        /* \"ownable.sol\":1074:1083  isOwner() */\n      tag_311\n        /* \"ownable.sol\":1074:1081  isOwner */\n      tag_79\n        /* \"ownable.sol\":1074:1083  isOwner() */\n      jump\t// in\n    tag_311:\n        /* \"ownable.sol\":1066:1120  require(isOwner(), \"Ownable: caller is not the owner\") */\n      tag_312\n      jumpi\n      0x40\n      dup1\n      mload\n      shl(0xe5, 0x461bcd)\n      dup2\n      mstore\n      0x20\n      0x04\n      dup3\n      add\n      dup2\n      swap1\n      mstore\n      0x24\n      dup3\n      add\n      mstore\n      0x4f776e61626c653a2063616c6c6572206973206e6f7420746865206f776e6572\n      0x44\n      dup3\n      add\n      mstore\n      swap1\n      mload\n      swap1\n      dup2\n      swap1\n      sub\n      0x64\n      add\n      swap1\n      revert\n    tag_312:\n      sub(shl(0xa0, 0x01), 0x01)\n        /* \"ownable.sol\":1540:1562  newOwner != address(0) */\n      dup2\n      and\n        /* \"ownable.sol\":1532:1605  require(newOwner != address(0), \"Ownable: new owner is the zero address\") */\n      tag_314\n      jumpi\n      mload(0x40)\n      shl(0xe5, 0x461bcd)\n      dup2\n      mstore\n      0x04\n      add\n      dup1\n      dup1\n      0x20\n      add\n      dup3\n      dup2\n      sub\n      dup3\n      mstore\n      0x26\n      dup2\n      mstore\n      0x20\n      add\n      dup1\n      data_245f15ff17f551913a7a18385165551503906a406f905ac1c2437281a7cd0cfe\n      0x26\n      swap2\n      codecopy\n      0x40\n      add\n      swap2\n      pop\n      pop\n      mload(0x40)\n      dup1\n      swap2\n      sub\n      swap1\n      revert\n    tag_314:\n        /* \"ownable.sol\":1671:1677  _owner */\n      0x00\n        /* \"ownable.sol\":1671:1688  _owner = newOwner */\n      dup1\n      sload\n      not(sub(shl(0xa0, 0x01), 0x01))\n      and\n      sub(shl(0xa0, 0x01), 0x01)\n      swap3\n      swap1\n      swap3\n      and\n      swap2\n      swap1\n      swap2\n      or\n      swap1\n      sstore\n        /* \"ownable.sol\":1460:1695  function transferOwnership(address newOwner) public onlyOwner {... */\n      jump\t// out\n        /* \"Admin.sol\":3369:3609  function adminExist(address _sender) public view returns (bool) {... */\n    tag_97:\n        /* \"Admin.sol\":3427:3431  bool */\n      0x00\n      dup1\n        /* \"Admin.sol\":3443:3581  for (uint256 i = 0; i < admins.length; i++) {... */\n    tag_316:\n        /* \"Admin.sol\":3467:3473  admins */\n      0x1b\n        /* \"Admin.sol\":3467:3480  admins.length */\n      sload\n        /* \"Admin.sol\":3463:3480  i < admins.length */\n      dup2\n      lt\n        /* \"Admin.sol\":3443:3581  for (uint256 i = 0; i < admins.length; i++) {... */\n      iszero\n      tag_317\n      jumpi\n        /* \"Admin.sol\":3516:3522  admins */\n      0x1b\n        /* \"Admin.sol\":3523:3524  i */\n      dup2\n        /* \"Admin.sol\":3516:3525  admins[i] */\n      dup2\n      sload\n      dup2\n      lt\n      tag_319\n      jumpi\n      invalid\n    tag_319:\n      0x00\n      swap2\n      dup3\n      mstore\n      0x20\n      swap1\n      swap2\n      keccak256\n      add\n      sload\n      sub(shl(0xa0, 0x01), 0x01)\n        /* \"Admin.sol\":3505:3525  _sender == admins[i] */\n      dup5\n      dup2\n      and\n        /* \"Admin.sol\":3516:3525  admins[i] */\n      swap2\n      and\n        /* \"Admin.sol\":3505:3525  _sender == admins[i] */\n      eq\n        /* \"Admin.sol\":3501:3571  if (_sender == admins[i]) {... */\n      iszero\n      tag_321\n      jumpi\n        /* \"Admin.sol\":3552:3556  true */\n      0x01\n        /* \"Admin.sol\":3545:3556  return true */\n      swap2\n      pop\n      pop\n      jump(tag_315)\n        /* \"Admin.sol\":3501:3571  if (_sender == admins[i]) {... */\n    tag_321:\n        /* \"Admin.sol\":3482:3485  i++ */\n      0x01\n      add\n        /* \"Admin.sol\":3443:3581  for (uint256 i = 0; i < admins.length; i++) {... */\n      jump(tag_316)\n    tag_317:\n      pop\n        /* \"Admin.sol\":3597:3602  false */\n      0x00\n        /* \"Admin.sol\":3590:3602  return false */\n      swap1\n      pop\n        /* \"Admin.sol\":3369:3609  function adminExist(address _sender) public view returns (bool) {... */\n    tag_315:\n      swap2\n      swap1\n      pop\n      jump\t// out\n        /* \"Admin.sol\":6448:6872  function erc721Mint(... */\n    tag_103:\n        /* \"Admin.sol\":3790:3812  adminExist(msg.sender) */\n      tag_323\n        /* \"Admin.sol\":3801:3811  msg.sender */\n      caller\n        /* \"Admin.sol\":3790:3800  adminExist */\n      tag_97\n        /* \"Admin.sol\":3790:3812  adminExist(msg.sender) */\n      jump\t// in\n    tag_323:\n        /* \"Admin.sol\":3790:3825  adminExist(msg.sender) || isOwner() */\n      dup1\n      tag_325\n      jumpi\n      pop\n        /* \"Admin.sol\":3816:3825  isOwner() */\n      tag_325\n        /* \"Admin.sol\":3816:3823  isOwner */\n      tag_79\n        /* \"Admin.sol\":3816:3825  isOwner() */\n      jump\t// in\n    tag_325:\n        /* \"Admin.sol\":3769:3886  require(... */\n      tag_326\n      jumpi\n      mload(0x40)\n      shl(0xe5, 0x461bcd)\n      dup2\n      mstore\n      0x04\n      add\n      dup1\n      dup1\n      0x20\n      add\n      dup3\n      dup2\n      sub\n      dup3\n      mstore\n      0x23\n      dup2\n      mstore\n      0x20\n      add\n      dup1\n      data_674a9ac1aead3691c97506b93cf9f61f3ea0388f6e9a2a7fd72dc31f93249315\n      0x23\n      swap2\n      codecopy\n      0x40\n      add\n      swap2\n      pop\n      pop\n      mload(0x40)\n      dup1\n      swap2\n      sub\n      swap1\n      revert\n    tag_326:\n        /* \"Admin.sol\":6600:6616  IMintable erc721 */\n      0x00\n        /* \"Admin.sol\":6629:6643  _ERC721Address */\n      dup4\n        /* \"Admin.sol\":6600:6644  IMintable erc721 = IMintable(_ERC721Address) */\n      swap1\n      pop\n        /* \"Admin.sol\":6745:6758  functionNames */\n      0x01\n        /* \"Admin.sol\":6745:6763  functionNames.mint */\n      0x03\n      add\n        /* \"Admin.sol\":6659:6816  AdminActionPerformed(... */\n      mload(0x40)\n      dup1\n      dup3\n      dup1\n      sload\n      0x01\n      dup2\n      0x01\n      and\n      iszero\n      0x0100\n      mul\n      sub\n      and\n      0x02\n      swap1\n      div\n      dup1\n      iszero\n      tag_328\n      jumpi\n      dup1\n      0x1f\n      lt\n      tag_329\n      jumpi\n      0x0100\n      dup1\n      dup4\n      sload\n      div\n      mul\n      dup4\n      mstore\n      swap2\n      dup3\n      add\n      swap2\n      jump(tag_328)\n    tag_329:\n      dup3\n      add\n      swap2\n      swap1\n      0x00\n      mstore\n      keccak256(0x00, 0x20)\n      swap1\n    tag_330:\n      dup2\n      sload\n      dup2\n      mstore\n      swap1\n      0x01\n      add\n      swap1\n      0x20\n      add\n      dup1\n      dup4\n      gt\n      tag_330\n      jumpi\n    tag_328:\n      pop\n      pop\n      0x40\n      dup1\n      mload\n      swap2\n      dup3\n      swap1\n      sub\n      dup3\n      keccak256\n      sub(shl(0xa0, 0x01), 0x01)\n      dup10\n      and\n      dup1\n      dup5\n      mstore\n        /* \"Admin.sol\":6805:6806  0 */\n      0x00\n        /* \"Admin.sol\":6659:6816  AdminActionPerformed(... */\n      0x20\n      dup6\n      add\n      mstore\n      dup3\n      mload\n      swap2\n      swap6\n      pop\n      swap4\n      pop\n        /* \"Admin.sol\":6693:6703  msg.sender */\n      caller\n      swap3\n      0x00\n      dup1\n      mload\n      0x20\n      data_dd45610e757c5493225a14df8d20081e772472041729f1452d392d031cca6d9d\n      dup4\n      codecopy\n      dup2\n      mload\n      swap2\n      mstore\n        /* \"Admin.sol\":6659:6816  AdminActionPerformed(... */\n      swap3\n      swap1\n      dup3\n      swap1\n      sub\n      add\n      swap1\n      log4\n        /* \"Admin.sol\":6833:6839  erc721 */\n      dup1\n      sub(shl(0xa0, 0x01), 0x01)\n        /* \"Admin.sol\":6833:6844  erc721.mint */\n      and\n      0x056b01ce\n        /* \"Admin.sol\":6845:6853  tokenURI */\n      dup5\n        /* \"Admin.sol\":6855:6864  _royality */\n      dup5\n        /* \"Admin.sol\":6833:6865  erc721.mint(tokenURI, _royality) */\n      mload(0x40)\n      dup4\n      0xffffffff\n      and\n      0xe0\n      shl\n      dup2\n      mstore\n      0x04\n      add\n      dup1\n      dup1\n      0x20\n      add\n      dup4\n      dup2\n      mstore\n      0x20\n      add\n      dup3\n      dup2\n      sub\n      dup3\n      mstore\n      dup5\n      dup2\n      dup2\n      mload\n      dup2\n      mstore\n      0x20\n      add\n      swap2\n      pop\n      dup1\n      mload\n      swap1\n      0x20\n      add\n      swap1\n      dup1\n      dup4\n      dup4\n        /* \"--CODEGEN--\":23:24   */\n      0x00\n        /* \"--CODEGEN--\":8:108   */\n    tag_331:\n        /* \"--CODEGEN--\":33:36   */\n      dup4\n        /* \"--CODEGEN--\":30:31   */\n      dup2\n        /* \"--CODEGEN--\":27:37   */\n      lt\n        /* \"--CODEGEN--\":8:108   */\n      iszero\n      tag_333\n      jumpi\n        /* \"--CODEGEN--\":90:101   */\n      dup2\n      dup2\n      add\n        /* \"--CODEGEN--\":84:102   */\n      mload\n        /* \"--CODEGEN--\":71:82   */\n      dup4\n      dup3\n      add\n        /* \"--CODEGEN--\":64:103   */\n      mstore\n        /* \"--CODEGEN--\":52:54   */\n      0x20\n        /* \"--CODEGEN--\":45:55   */\n      add\n        /* \"--CODEGEN--\":8:108   */\n      jump(tag_331)\n    tag_333:\n        /* \"--CODEGEN--\":12:26   */\n      pop\n        /* \"Admin.sol\":6833:6865  erc721.mint(tokenURI, _royality) */\n      pop\n      pop\n      pop\n      swap1\n      pop\n      swap1\n      dup2\n      add\n      swap1\n      0x1f\n      and\n      dup1\n      iszero\n      tag_334\n      jumpi\n      dup1\n      dup3\n      sub\n      dup1\n      mload\n      0x01\n      dup4\n      0x20\n      sub\n      0x0100\n      exp\n      sub\n      not\n      and\n      dup2\n      mstore\n      0x20\n      add\n      swap2\n      pop\n    tag_334:\n      pop\n      swap4\n      pop\n      pop\n      pop\n      pop\n      0x00\n      mload(0x40)\n      dup1\n      dup4\n      sub\n      dup2\n      0x00\n      dup8\n      dup1\n      extcodesize\n      iszero\n        /* \"--CODEGEN--\":8:17   */\n      dup1\n        /* \"--CODEGEN--\":5:7   */\n      iszero\n      tag_154\n      jumpi\n        /* \"--CODEGEN--\":30:31   */\n      0x00\n        /* \"--CODEGEN--\":27:28   */\n      dup1\n        /* \"--CODEGEN--\":20:32   */\n      revert\n    stop\n    data_245f15ff17f551913a7a18385165551503906a406f905ac1c2437281a7cd0cfe 4f776e61626c653a206e6577206f776e657220697320746865207a65726f2061646472657373\n    data_674a9ac1aead3691c97506b93cf9f61f3ea0388f6e9a2a7fd72dc31f93249315 41646d696e4d616e616765723a2061646d696e20616e64206f776e6572206f6e6c792e\n    data_dd45610e757c5493225a14df8d20081e772472041729f1452d392d031cca6d9d 32a9eeb55ea56eb60badfb6642d5b92be35b6da6f74892c12d0e14a50dfc2bac\n\n    auxdata: 0xa265627a7a72315820a805724c926b654eca45258c855eaab6fe7a5a73c6665121d75c0290d321a1d264736f6c63430005110032\n}\n",
				"bytecode": {
					"linkReferences": {},
					"object": "600e6103c08181526d4552433732313a617070726f766560901b6103e09081526080918252600f6104009081526e22a9219b99189d3a3930b739b332b960891b6104205260a052600b6104408181526a22a9219b99189d313ab93760a91b6104605260c0526104809081526a115490cdcc8c4e9b5a5b9d60aa1b6104a05260e05260176104c08181527f4552433732313a736166655472616e7366657246726f6d0000000000000000006104e0526101005260136105008181527f4552433732313a7472616e7366657246726f6d00000000000000000000000000610520526101205260106105408181526f42726f6b65723a7075744f6e53616c6560801b6105605261014052600a6105808181526942726f6b65723a62757960b01b6105a052610160526105c090815269109c9bdad95c8e989a5960b21b6105e052610180526106008681526d109c9bdad95c8e98dbdb1b1958dd60921b610620526101a05260126106408181527142726f6b65723a757064617465507269636560701b610660526101c052601161068081815270213937b5b2b91d383aba29b0b632a7b33360791b6106a0526101e0526106c082815271213937b5b2b91d36b0b5b2a0b727b33332b960711b6106e0526102005261070082815271213937b5b2b91d30b1b1b832ba27b33332b960711b610720526102205261074082815271213937b5b2b91d3932bb32b93a27b33332b960711b61076052610240526107809283526f109c9bdad95c8e9c995d995c9d105b1b60821b6107a052610260929092526107c09283527f42726f6b65723a62617463684c697374696e67000000000000000000000000006107e0526102809290925260156108009081527f42726f6b65723a626174636844656c697374696e670000000000000000000000610820526102a0526108409081527042726f6b65723a7365744164647265737360781b610860526102c052600d6108809081526c45524332303a617070726f766560981b6108a0526102e05260166108c08181527f45524332303a6465637265617365417070726f76616c000000000000000000006108e052610300526109009081527f45524332303a696e637265617365417070726f76616c0000000000000000000061092052610320526109408581526d22a92199181d3a3930b739b332b960911b61096052610340526109809081527145524332303a7472616e7366657246726f6d60701b6109a052610360526109c08181527f45524332303a696e637265617365416c6c6f77616e63650000000000000000006109e05261038052610a40604052610a009081527f45524332303a6465637265617365416c6c6f77616e6365000000000000000000610a20526103a0529091600191620003fe9183919062000716565b50602082810151805162000419926001850192019062000716565b50604082015180516200043791600284019160209091019062000716565b50606082015180516200045591600384019160209091019062000716565b50608082015180516200047391600484019160209091019062000716565b5060a082015180516200049191600584019160209091019062000716565b5060c08201518051620004af91600684019160209091019062000716565b5060e08201518051620004cd91600784019160209091019062000716565b506101008201518051620004ec91600884019160209091019062000716565b5061012082015180516200050b91600984019160209091019062000716565b5061014082015180516200052a91600a84019160209091019062000716565b5061016082015180516200054991600b84019160209091019062000716565b5061018082015180516200056891600c84019160209091019062000716565b506101a082015180516200058791600d84019160209091019062000716565b506101c08201518051620005a691600e84019160209091019062000716565b506101e08201518051620005c591600f84019160209091019062000716565b506102008201518051620005e491601084019160209091019062000716565b5061022082015180516200060391601184019160209091019062000716565b5061024082015180516200062291601284019160209091019062000716565b5061026082015180516200064191601384019160209091019062000716565b5061028082015180516200066091601484019160209091019062000716565b506102a082015180516200067f91601584019160209091019062000716565b506102c082015180516200069e91601684019160209091019062000716565b506102e08201518051620006bd91601784019160209091019062000716565b506103008201518051620006dc91601884019160209091019062000716565b506103208201518051620006fb91601984019160209091019062000716565b5050600080546001600160a01b0319163317905550620007bb565b828054600181600116156101000203166002900490600052602060002090601f016020900481019282601f106200075957805160ff191683800117855562000789565b8280016001018555821562000789579182015b82811115620007895782518255916020019190600101906200076c565b50620007979291506200079b565b5090565b620007b891905b80821115620007975760008155600101620007a2565b90565b61217180620007cb6000396000f3fe608060405234801561001057600080fd5b506004361061014d5760003560e01c80634a0aafda116100c3578063ace561a81161007c578063ace561a81461053d578063b6011b4c14610573578063c347f69b146105a9578063f2fde38b146105df578063fba08d4514610605578063fddea9001461062b5761014d565b80634a0aafda1461044557806370480275146104815780638450ebe4146104a75780638da5cb5b146104e35780638f32d59b146104eb5780639dc6b78d146105075761014d565b80631afffec0116101155780631afffec01461025b57806331ae450b146102915780633790767d146102e957806347fcf0181461031f578063485f952e1461034b578063488b0f7d146103775761014d565b80630a1b0b91146101525780630c82ea1a1461019057806314bfd6d0146101c65780631785f53c146101ff57806318fa065314610225575b600080fd5b61018e6004803603608081101561016857600080fd5b506001600160a01b038135811691602081013582169160408201351690606001356106e3565b005b61018e600480360360608110156101a657600080fd5b506001600160a01b03813581169160208101359091169060400135610869565b6101e3600480360360208110156101dc57600080fd5b50356109cd565b604080516001600160a01b039092168252519081900360200190f35b61018e6004803603602081101561021557600080fd5b50356001600160a01b03166109f4565b61018e6004803603606081101561023b57600080fd5b506001600160a01b03813581169160208101359091169060400135610b72565b61018e6004803603606081101561027157600080fd5b506001600160a01b03813581169160208101359091169060400135610ce7565b610299610de1565b60408051602080825283518183015283519192839290830191858101910280838360005b838110156102d55781810151838201526020016102bd565b505050509050019250505060405180910390f35b61018e600480360360608110156102ff57600080fd5b506001600160a01b03813581169160208101359091169060400135610e43565b61018e6004803603604081101561033557600080fd5b506001600160a01b038135169060200135610f56565b61018e6004803603604081101561036157600080fd5b506001600160a01b0381351690602001356112cc565b61018e600480360360a081101561038d57600080fd5b6001600160a01b03823581169260208101358216926040820135909216916060820135919081019060a0810160808201356401000000008111156103d057600080fd5b8201836020820111156103e257600080fd5b8035906020019184600183028401116401000000008311171561040457600080fd5b91908080601f016020809104026020016040519081016040528093929190818152602001838380828437600092019190915250929550611426945050505050565b61018e6004803603608081101561045b57600080fd5b506001600160a01b03813581169160208101358216916040820135169060600135611607565b61018e6004803603602081101561049757600080fd5b50356001600160a01b0316611777565b61018e600480360360808110156104bd57600080fd5b506001600160a01b038135811691602081013582169160408201351690606001356118b8565b6101e3611a09565b6104f3611a18565b604080519115158252519081900360200190f35b61018e6004803603606081101561051d57600080fd5b506001600160a01b03813581169160208101359091169060400135611a29565b61018e6004803603606081101561055357600080fd5b506001600160a01b03813581169160208101359091169060400135611b23565b61018e6004803603606081101561058957600080fd5b506001600160a01b03813581169160208101359091169060400135611c1d565b61018e600480360360608110156105bf57600080fd5b506001600160a01b03813581169160208101359091169060400135611d71565b61018e600480360360208110156105f557600080fd5b50356001600160a01b0316611e15565b6104f36004803603602081101561061b57600080fd5b50356001600160a01b0316611ed5565b61018e6004803603606081101561064157600080fd5b6001600160a01b03823516919081019060408101602082013564010000000081111561066c57600080fd5b82018360208201111561067e57600080fd5b803590602001918460018302840111640100000000831117156106a057600080fd5b91908080601f0160208091040260200160405190810160405280939291908181526020018383808284376000920191909152509295505091359250611f2c915050565b6106ec33611ed5565b806106fa57506106fa611a18565b6107355760405162461bcd60e51b81526004018080602001828103825260238152602001806120fa6023913960400191505060405180910390fd5b604080516323b872dd60e01b81526001600160a01b038581166004830152848116602483015260448201849052915186928316916323b872dd9160648083019260209291908290030181600087803b15801561079057600080fd5b505af11580156107a4573d6000803e3d6000fd5b505050506040513d60208110156107ba57600080fd5b505060405160158054909190819083906002600019610100600184161502019091160480156108205780601f106107fe576101008083540402835291820191610820565b820191906000526020600020905b81548152906001019060200180831161080c575b5050604080519182900382206001600160a01b0388811684526020840188905282519195508a169350339260008051602061211d83398151915292908290030190a45050505050565b61087233611ed5565b806108805750610880611a18565b6108bb5760405162461bcd60e51b81526004018080602001828103825260238152602001806120fa6023913960400191505060405180910390fd5b6040805163a457c2d760e01b81526001600160a01b038481166004830152602482018490529151859283169163a457c2d791604480830192600092919082900301818387803b15801561090d57600080fd5b505af1158015610921573d6000803e3d6000fd5b50505050600160160160405180828054600181600116156101000203166002900480156109855780601f10610963576101008083540402835291820191610985565b820191906000526020600020905b815481529060010190602001808311610971575b5050604080519182900382206001600160a01b03888116845260208401889052825191955089169350339260008051602061211d83398151915292908290030190a450505050565b601b81815481106109da57fe5b6000918252602090912001546001600160a01b0316905081565b6109fc611a18565b610a4d576040805162461bcd60e51b815260206004820181905260248201527f4f776e61626c653a2063616c6c6572206973206e6f7420746865206f776e6572604482015290519081900360640190fd5b60005b601b54811015610b2b57816001600160a01b0316601b8281548110610a7157fe5b6000918252602090912001546001600160a01b03161415610b2357601b8181548110610a9957fe5b600091825260209091200154601b80546001600160a01b03909216916000198101908110610ac357fe5b9060005260206000200160006101000a8154816001600160a01b0302191690836001600160a01b03160217905550601b805480610afc57fe5b600082815260209020810160001990810180546001600160a01b0319169055019055610b2b565b600101610a50565b50604080516001600160a01b038316815242602082015281517fa0726c73cf6ad18ddb855ba65d1ddd4d7fd37d320f4e52f6b154c13d386f5fd9929181900390910190a150565b610b7b33611ed5565b80610b895750610b89611a18565b610bc45760405162461bcd60e51b81526004018080602001828103825260238152602001806120fa6023913960400191505060405180910390fd5b600083905060016000016040518082805460018160011615610100020316600290048015610c295780601f10610c07576101008083540402835291820191610c29565b820191906000526020600020905b815481529060010190602001808311610c15575b5050604080519182900382206001600160a01b0389168084526020840188905282519195509350339260008051602061211d83398151915292908290030190a4806001600160a01b031663095ea7b384846040518363ffffffff1660e01b815260040180836001600160a01b03166001600160a01b0316815260200182815260200192505050600060405180830381600087803b158015610cc957600080fd5b505af1158015610cdd573d6000803e3d6000fd5b5050505050505050565b610cf033611ed5565b80610cfe5750610cfe611a18565b610d395760405162461bcd60e51b81526004018080602001828103825260238152602001806120fa6023913960400191505060405180910390fd5b6040805163d73dd62360e01b81526001600160a01b038481166004830152602482018490529151859283169163d73dd62391604480830192600092919082900301818387803b158015610d8b57600080fd5b505af1158015610d9f573d6000803e3d6000fd5b50505050600160120160405180828054600181600116156101000203166002900480156109855780601f10610963576101008083540402835291820191610985565b6060601b805480602002602001604051908101604052809291908181526020018280548015610e3957602002820191906000526020600020905b81546001600160a01b03168152600190910190602001808311610e1b575b5050505050905090565b610e4c33611ed5565b80610e5a5750610e5a611a18565b610e955760405162461bcd60e51b81526004018080602001828103825260238152602001806120fa6023913960400191505060405180910390fd5b6040805163a9059cbb60e01b81526001600160a01b038481166004830152602482018490529151859283169163a9059cbb9160448083019260209291908290030181600087803b158015610ee857600080fd5b505af1158015610efc573d6000803e3d6000fd5b505050506040513d6020811015610f1257600080fd5b505060405160148054909190819083906002600019610100600184161502019091160480156109855780601f10610963576101008083540402835291820191610985565b610f5f33611ed5565b80610f6d5750610f6d611a18565b610fa85760405162461bcd60e51b81526004018080602001828103825260238152602001806120fa6023913960400191505060405180910390fd5b60008290506060816001600160a01b031663c87b56dd846040518263ffffffff1660e01b815260040180828152602001915050600060405180830381600087803b158015610ff557600080fd5b505af1158015611009573d6000803e3d6000fd5b505050506040513d6000823e601f3d908101601f19168201604052602081101561103257600080fd5b810190808051604051939291908464010000000082111561105257600080fd5b90830190602082018581111561106757600080fd5b825164010000000081118282018810171561108157600080fd5b82525081516020918201929091019080838360005b838110156110ae578181015183820152602001611096565b50505050905090810190601f1680156110db5780820380516001836020036101000a031916815260200191505b50604081815263020604bf60e21b8252600482018990525194955030946001600160a01b038816945063081812fc9350602480830193506020928290030181600087803b15801561112b57600080fd5b505af115801561113f573d6000803e3d6000fd5b505050506040513d602081101561115557600080fd5b50516001600160a01b0316146111b2576040805162461bcd60e51b815260206004820152601b60248201527f546f6b656e206e6f74206170706f726f766520666f72206275726e0000000000604482015290519081900360640190fd5b816001600160a01b03166342966c68846040518263ffffffff1660e01b815260040180828152602001915050600060405180830381600087803b1580156111f857600080fd5b505af115801561120c573d6000803e3d6000fd5b50505050336001600160a01b031683856001600160a01b03167f926b248e45dfdd4c4caec216e73ec503ce2522d3b5646c861d1b074210675d0e42856040518083815260200180602001828103825283818151815260200191508051906020019080838360005b8381101561128b578181015183820152602001611273565b50505050905090810190601f1680156112b85780820380516001836020036101000a031916815260200191505b50935050505060405180910390a450505050565b6112d533611ed5565b806112e357506112e3611a18565b61131e5760405162461bcd60e51b81526004018080602001828103825260238152602001806120fa6023913960400191505060405180910390fd5b6000829050600160020160405180828054600181600116156101000203166002900480156113835780601f10611361576101008083540402835291820191611383565b820191906000526020600020905b81548152906001019060200180831161136f575b5050604080519182900382206001600160a01b0388168084526020840188905282519195509350339260008051602061211d83398151915292908290030190a4806001600160a01b03166342966c68836040518263ffffffff1660e01b815260040180828152602001915050600060405180830381600087803b15801561140957600080fd5b505af115801561141d573d6000803e3d6000fd5b50505050505050565b61142f33611ed5565b8061143d575061143d611a18565b6114785760405162461bcd60e51b81526004018080602001828103825260238152602001806120fa6023913960400191505060405180910390fd5b6000859050600160040160405180828054600181600116156101000203166002900480156114dd5780601f106114bb5761010080835404028352918201916114dd565b820191906000526020600020905b8154815290600101906020018083116114c9575b5050604080519182900382206001600160a01b038b168084526020840189905282519195509350339260008051602061211d83398151915292908290030190a4604051635c46a7ef60e11b81526001600160a01b03868116600483019081528682166024840152604483018690526080606484019081528551608485015285519285169363b88d4fde938a938a938a938a9360a490910190602085019080838360005b83811015611598578181015183820152602001611580565b50505050905090810190601f1680156115c55780820380516001836020036101000a031916815260200191505b5095505050505050600060405180830381600087803b1580156115e757600080fd5b505af11580156115fb573d6000803e3d6000fd5b50505050505050505050565b61161033611ed5565b8061161e575061161e611a18565b6116595760405162461bcd60e51b81526004018080602001828103825260238152602001806120fa6023913960400191505060405180910390fd5b6000849050600160040160405180828054600181600116156101000203166002900480156116be5780601f1061169c5761010080835404028352918201916116be565b820191906000526020600020905b8154815290600101906020018083116116aa575b5050604080519182900382206001600160a01b038a168084526020840188905282519195509350339260008051602061211d83398151915292908290030190a460408051632142170760e11b81526001600160a01b0386811660048301528581166024830152604482018590529151918316916342842e0e9160648082019260009290919082900301818387803b15801561175857600080fd5b505af115801561176c573d6000803e3d6000fd5b505050505050505050565b61177f611a18565b6117d0576040805162461bcd60e51b815260206004820181905260248201527f4f776e61626c653a2063616c6c6572206973206e6f7420746865206f776e6572604482015290519081900360640190fd5b6117d981611ed5565b61182d57601b80546001810182556000919091527f3ad8aa4f87544323a9d1e5dd902f40c356527a7955687113db5f9a85ad579dc10180546001600160a01b0319166001600160a01b038316179055611872565b6040805162461bcd60e51b815260206004820152601560248201527418591b5a5b88185b1c9958591e481a5b881b1a5cdd605a1b604482015290519081900360640190fd5b604080516001600160a01b038316815242602082015281517f723c2b747529ca7f5eb53a74808f4a8b9bf264f0fc450fd904900151da74548a929181900390910190a150565b6118c133611ed5565b806118cf57506118cf611a18565b61190a5760405162461bcd60e51b81526004018080602001828103825260238152602001806120fa6023913960400191505060405180910390fd5b60008490506001600501604051808280546001816001161561010002031660029004801561196f5780601f1061194d57610100808354040283529182019161196f565b820191906000526020600020905b81548152906001019060200180831161195b575b5050604080519182900382206001600160a01b038a168084526020840188905282519195509350339260008051602061211d83398151915292908290030190a4604080516323b872dd60e01b81526001600160a01b0386811660048301528581166024830152604482018590529151918316916323b872dd9160648082019260009290919082900301818387803b15801561175857600080fd5b6000546001600160a01b031690565b6000546001600160a01b0316331490565b611a3233611ed5565b80611a405750611a40611a18565b611a7b5760405162461bcd60e51b81526004018080602001828103825260238152602001806120fa6023913960400191505060405180910390fd5b60408051633950935160e01b81526001600160a01b0384811660048301526024820184905291518592831691633950935191604480830192600092919082900301818387803b158015611acd57600080fd5b505af1158015611ae1573d6000803e3d6000fd5b50505050600160150160405180828054600181600116156101000203166002900480156109855780601f10610963576101008083540402835291820191610985565b611b2c33611ed5565b80611b3a5750611b3a611a18565b611b755760405162461bcd60e51b81526004018080602001828103825260238152602001806120fa6023913960400191505060405180910390fd5b6040805163095ea7b360e01b81526001600160a01b038481166004830152602482018490529151859283169163095ea7b391604480830192600092919082900301818387803b158015611bc757600080fd5b505af1158015611bdb573d6000803e3d6000fd5b50505050600160100160405180828054600181600116156101000203166002900480156109855780601f10610963576101008083540402835291820191610985565b611c2633611ed5565b80611c345750611c34611a18565b611c6f5760405162461bcd60e51b81526004018080602001828103825260238152602001806120fa6023913960400191505060405180910390fd5b604051600280548592908190839060001961010060018316150201168190048015611cd15780601f10611caf576101008083540402835291820191611cd1565b820191906000526020600020905b815481529060010190602001808311611cbd575b5050604080519182900382206001600160a01b0389168084526020840188905282519195509350339260008051602061211d83398151915292908290030190a4806001600160a01b031663a9059cbb84846040518363ffffffff1660e01b815260040180836001600160a01b03166001600160a01b0316815260200182815260200192505050600060405180830381600087803b158015610cc957600080fd5b611d7a33611ed5565b80611d885750611d88611a18565b611dc35760405162461bcd60e51b81526004018080602001828103825260238152602001806120fa6023913960400191505060405180910390fd5b60408051636618846360e01b81526001600160a01b0384811660048301526024820184905291518592831691636618846391604480830192600092919082900301818387803b15801561090d57600080fd5b611e1d611a18565b611e6e576040805162461bcd60e51b815260206004820181905260248201527f4f776e61626c653a2063616c6c6572206973206e6f7420746865206f776e6572604482015290519081900360640190fd5b6001600160a01b038116611eb35760405162461bcd60e51b81526004018080602001828103825260268152602001806120d46026913960400191505060405180910390fd5b600080546001600160a01b0319166001600160a01b0392909216919091179055565b6000805b601b54811015611f2157601b8181548110611ef057fe5b6000918252602090912001546001600160a01b0384811691161415611f19576001915050611f27565b600101611ed9565b50600090505b919050565b611f3533611ed5565b80611f435750611f43611a18565b611f7e5760405162461bcd60e51b81526004018080602001828103825260238152602001806120fa6023913960400191505060405180910390fd5b600083905060016003016040518082805460018160011615610100020316600290048015611fe35780601f10611fc1576101008083540402835291820191611fe3565b820191906000526020600020905b815481529060010190602001808311611fcf575b5050604080519182900382206001600160a01b0389168084526000602085015282519195509350339260008051602061211d83398151915292908290030190a4806001600160a01b031663056b01ce84846040518363ffffffff1660e01b81526004018080602001838152602001828103825284818151815260200191508051906020019080838360005b8381101561208657818101518382015260200161206e565b50505050905090810190601f1680156120b35780820380516001836020036101000a031916815260200191505b509350505050600060405180830381600087803b158015610cc957600080fdfe4f776e61626c653a206e6577206f776e657220697320746865207a65726f206164647265737341646d696e4d616e616765723a2061646d696e20616e64206f776e6572206f6e6c792e32a9eeb55ea56eb60badfb6642d5b92be35b6da6f74892c12d0e14a50dfc2baca265627a7a72315820a805724c926b654eca45258c855eaab6fe7a5a73c6665121d75c0290d321a1d264736f6c63430005110032",
					"opcodes": "PUSH1 0xE PUSH2 0x3C0 DUP2 DUP2 MSTORE PUSH14 0x4552433732313A617070726F7665 PUSH1 0x90 SHL PUSH2 0x3E0 SWAP1 DUP2 MSTORE PUSH1 0x80 SWAP2 DUP3 MSTORE PUSH1 0xF PUSH2 0x400 SWAP1 DUP2 MSTORE PUSH15 0x22A9219B99189D3A3930B739B332B9 PUSH1 0x89 SHL PUSH2 0x420 MSTORE PUSH1 0xA0 MSTORE PUSH1 0xB PUSH2 0x440 DUP2 DUP2 MSTORE PUSH11 0x22A9219B99189D313AB937 PUSH1 0xA9 SHL PUSH2 0x460 MSTORE PUSH1 0xC0 MSTORE PUSH2 0x480 SWAP1 DUP2 MSTORE PUSH11 0x115490CDCC8C4E9B5A5B9D PUSH1 0xAA SHL PUSH2 0x4A0 MSTORE PUSH1 0xE0 MSTORE PUSH1 0x17 PUSH2 0x4C0 DUP2 DUP2 MSTORE PUSH32 0x4552433732313A736166655472616E7366657246726F6D000000000000000000 PUSH2 0x4E0 MSTORE PUSH2 0x100 MSTORE PUSH1 0x13 PUSH2 0x500 DUP2 DUP2 MSTORE PUSH32 0x4552433732313A7472616E7366657246726F6D00000000000000000000000000 PUSH2 0x520 MSTORE PUSH2 0x120 MSTORE PUSH1 0x10 PUSH2 0x540 DUP2 DUP2 MSTORE PUSH16 0x42726F6B65723A7075744F6E53616C65 PUSH1 0x80 SHL PUSH2 0x560 MSTORE PUSH2 0x140 MSTORE PUSH1 0xA PUSH2 0x580 DUP2 DUP2 MSTORE PUSH10 0x42726F6B65723A627579 PUSH1 0xB0 SHL PUSH2 0x5A0 MSTORE PUSH2 0x160 MSTORE PUSH2 0x5C0 SWAP1 DUP2 MSTORE PUSH10 0x109C9BDAD95C8E989A59 PUSH1 0xB2 SHL PUSH2 0x5E0 MSTORE PUSH2 0x180 MSTORE PUSH2 0x600 DUP7 DUP2 MSTORE PUSH14 0x109C9BDAD95C8E98DBDB1B1958DD PUSH1 0x92 SHL PUSH2 0x620 MSTORE PUSH2 0x1A0 MSTORE PUSH1 0x12 PUSH2 0x640 DUP2 DUP2 MSTORE PUSH18 0x42726F6B65723A7570646174655072696365 PUSH1 0x70 SHL PUSH2 0x660 MSTORE PUSH2 0x1C0 MSTORE PUSH1 0x11 PUSH2 0x680 DUP2 DUP2 MSTORE PUSH17 0x213937B5B2B91D383ABA29B0B632A7B333 PUSH1 0x79 SHL PUSH2 0x6A0 MSTORE PUSH2 0x1E0 MSTORE PUSH2 0x6C0 DUP3 DUP2 MSTORE PUSH18 0x213937B5B2B91D36B0B5B2A0B727B33332B9 PUSH1 0x71 SHL PUSH2 0x6E0 MSTORE PUSH2 0x200 MSTORE PUSH2 0x700 DUP3 DUP2 MSTORE PUSH18 0x213937B5B2B91D30B1B1B832BA27B33332B9 PUSH1 0x71 SHL PUSH2 0x720 MSTORE PUSH2 0x220 MSTORE PUSH2 0x740 DUP3 DUP2 MSTORE PUSH18 0x213937B5B2B91D3932BB32B93A27B33332B9 PUSH1 0x71 SHL PUSH2 0x760 MSTORE PUSH2 0x240 MSTORE PUSH2 0x780 SWAP3 DUP4 MSTORE PUSH16 0x109C9BDAD95C8E9C995D995C9D105B1B PUSH1 0x82 SHL PUSH2 0x7A0 MSTORE PUSH2 0x260 SWAP3 SWAP1 SWAP3 MSTORE PUSH2 0x7C0 SWAP3 DUP4 MSTORE PUSH32 0x42726F6B65723A62617463684C697374696E6700000000000000000000000000 PUSH2 0x7E0 MSTORE PUSH2 0x280 SWAP3 SWAP1 SWAP3 MSTORE PUSH1 0x15 PUSH2 0x800 SWAP1 DUP2 MSTORE PUSH32 0x42726F6B65723A626174636844656C697374696E670000000000000000000000 PUSH2 0x820 MSTORE PUSH2 0x2A0 MSTORE PUSH2 0x840 SWAP1 DUP2 MSTORE PUSH17 0x42726F6B65723A73657441646472657373 PUSH1 0x78 SHL PUSH2 0x860 MSTORE PUSH2 0x2C0 MSTORE PUSH1 0xD PUSH2 0x880 SWAP1 DUP2 MSTORE PUSH13 0x45524332303A617070726F7665 PUSH1 0x98 SHL PUSH2 0x8A0 MSTORE PUSH2 0x2E0 MSTORE PUSH1 0x16 PUSH2 0x8C0 DUP2 DUP2 MSTORE PUSH32 0x45524332303A6465637265617365417070726F76616C00000000000000000000 PUSH2 0x8E0 MSTORE PUSH2 0x300 MSTORE PUSH2 0x900 SWAP1 DUP2 MSTORE PUSH32 0x45524332303A696E637265617365417070726F76616C00000000000000000000 PUSH2 0x920 MSTORE PUSH2 0x320 MSTORE PUSH2 0x940 DUP6 DUP2 MSTORE PUSH14 0x22A92199181D3A3930B739B332B9 PUSH1 0x91 SHL PUSH2 0x960 MSTORE PUSH2 0x340 MSTORE PUSH2 0x980 SWAP1 DUP2 MSTORE PUSH18 0x45524332303A7472616E7366657246726F6D PUSH1 0x70 SHL PUSH2 0x9A0 MSTORE PUSH2 0x360 MSTORE PUSH2 0x9C0 DUP2 DUP2 MSTORE PUSH32 0x45524332303A696E637265617365416C6C6F77616E6365000000000000000000 PUSH2 0x9E0 MSTORE PUSH2 0x380 MSTORE PUSH2 0xA40 PUSH1 0x40 MSTORE PUSH2 0xA00 SWAP1 DUP2 MSTORE PUSH32 0x45524332303A6465637265617365416C6C6F77616E6365000000000000000000 PUSH2 0xA20 MSTORE PUSH2 0x3A0 MSTORE SWAP1 SWAP2 PUSH1 0x1 SWAP2 PUSH3 0x3FE SWAP2 DUP4 SWAP2 SWAP1 PUSH3 0x716 JUMP JUMPDEST POP PUSH1 0x20 DUP3 DUP2 ADD MLOAD DUP1 MLOAD PUSH3 0x419 SWAP3 PUSH1 0x1 DUP6 ADD SWAP3 ADD SWAP1 PUSH3 0x716 JUMP JUMPDEST POP PUSH1 0x40 DUP3 ADD MLOAD DUP1 MLOAD PUSH3 0x437 SWAP2 PUSH1 0x2 DUP5 ADD SWAP2 PUSH1 0x20 SWAP1 SWAP2 ADD SWAP1 PUSH3 0x716 JUMP JUMPDEST POP PUSH1 0x60 DUP3 ADD MLOAD DUP1 MLOAD PUSH3 0x455 SWAP2 PUSH1 0x3 DUP5 ADD SWAP2 PUSH1 0x20 SWAP1 SWAP2 ADD SWAP1 PUSH3 0x716 JUMP JUMPDEST POP PUSH1 0x80 DUP3 ADD MLOAD DUP1 MLOAD PUSH3 0x473 SWAP2 PUSH1 0x4 DUP5 ADD SWAP2 PUSH1 0x20 SWAP1 SWAP2 ADD SWAP1 PUSH3 0x716 JUMP JUMPDEST POP PUSH1 0xA0 DUP3 ADD MLOAD DUP1 MLOAD PUSH3 0x491 SWAP2 PUSH1 0x5 DUP5 ADD SWAP2 PUSH1 0x20 SWAP1 SWAP2 ADD SWAP1 PUSH3 0x716 JUMP JUMPDEST POP PUSH1 0xC0 DUP3 ADD MLOAD DUP1 MLOAD PUSH3 0x4AF SWAP2 PUSH1 0x6 DUP5 ADD SWAP2 PUSH1 0x20 SWAP1 SWAP2 ADD SWAP1 PUSH3 0x716 JUMP JUMPDEST POP PUSH1 0xE0 DUP3 ADD MLOAD DUP1 MLOAD PUSH3 0x4CD SWAP2 PUSH1 0x7 DUP5 ADD SWAP2 PUSH1 0x20 SWAP1 SWAP2 ADD SWAP1 PUSH3 0x716 JUMP JUMPDEST POP PUSH2 0x100 DUP3 ADD MLOAD DUP1 MLOAD PUSH3 0x4EC SWAP2 PUSH1 0x8 DUP5 ADD SWAP2 PUSH1 0x20 SWAP1 SWAP2 ADD SWAP1 PUSH3 0x716 JUMP JUMPDEST POP PUSH2 0x120 DUP3 ADD MLOAD DUP1 MLOAD PUSH3 0x50B SWAP2 PUSH1 0x9 DUP5 ADD SWAP2 PUSH1 0x20 SWAP1 SWAP2 ADD SWAP1 PUSH3 0x716 JUMP JUMPDEST POP PUSH2 0x140 DUP3 ADD MLOAD DUP1 MLOAD PUSH3 0x52A SWAP2 PUSH1 0xA DUP5 ADD SWAP2 PUSH1 0x20 SWAP1 SWAP2 ADD SWAP1 PUSH3 0x716 JUMP JUMPDEST POP PUSH2 0x160 DUP3 ADD MLOAD DUP1 MLOAD PUSH3 0x549 SWAP2 PUSH1 0xB DUP5 ADD SWAP2 PUSH1 0x20 SWAP1 SWAP2 ADD SWAP1 PUSH3 0x716 JUMP JUMPDEST POP PUSH2 0x180 DUP3 ADD MLOAD DUP1 MLOAD PUSH3 0x568 SWAP2 PUSH1 0xC DUP5 ADD SWAP2 PUSH1 0x20 SWAP1 SWAP2 ADD SWAP1 PUSH3 0x716 JUMP JUMPDEST POP PUSH2 0x1A0 DUP3 ADD MLOAD DUP1 MLOAD PUSH3 0x587 SWAP2 PUSH1 0xD DUP5 ADD SWAP2 PUSH1 0x20 SWAP1 SWAP2 ADD SWAP1 PUSH3 0x716 JUMP JUMPDEST POP PUSH2 0x1C0 DUP3 ADD MLOAD DUP1 MLOAD PUSH3 0x5A6 SWAP2 PUSH1 0xE DUP5 ADD SWAP2 PUSH1 0x20 SWAP1 SWAP2 ADD SWAP1 PUSH3 0x716 JUMP JUMPDEST POP PUSH2 0x1E0 DUP3 ADD MLOAD DUP1 MLOAD PUSH3 0x5C5 SWAP2 PUSH1 0xF DUP5 ADD SWAP2 PUSH1 0x20 SWAP1 SWAP2 ADD SWAP1 PUSH3 0x716 JUMP JUMPDEST POP PUSH2 0x200 DUP3 ADD MLOAD DUP1 MLOAD PUSH3 0x5E4 SWAP2 PUSH1 0x10 DUP5 ADD SWAP2 PUSH1 0x20 SWAP1 SWAP2 ADD SWAP1 PUSH3 0x716 JUMP JUMPDEST POP PUSH2 0x220 DUP3 ADD MLOAD DUP1 MLOAD PUSH3 0x603 SWAP2 PUSH1 0x11 DUP5 ADD SWAP2 PUSH1 0x20 SWAP1 SWAP2 ADD SWAP1 PUSH3 0x716 JUMP JUMPDEST POP PUSH2 0x240 DUP3 ADD MLOAD DUP1 MLOAD PUSH3 0x622 SWAP2 PUSH1 0x12 DUP5 ADD SWAP2 PUSH1 0x20 SWAP1 SWAP2 ADD SWAP1 PUSH3 0x716 JUMP JUMPDEST POP PUSH2 0x260 DUP3 ADD MLOAD DUP1 MLOAD PUSH3 0x641 SWAP2 PUSH1 0x13 DUP5 ADD SWAP2 PUSH1 0x20 SWAP1 SWAP2 ADD SWAP1 PUSH3 0x716 JUMP JUMPDEST POP PUSH2 0x280 DUP3 ADD MLOAD DUP1 MLOAD PUSH3 0x660 SWAP2 PUSH1 0x14 DUP5 ADD SWAP2 PUSH1 0x20 SWAP1 SWAP2 ADD SWAP1 PUSH3 0x716 JUMP JUMPDEST POP PUSH2 0x2A0 DUP3 ADD MLOAD DUP1 MLOAD PUSH3 0x67F SWAP2 PUSH1 0x15 DUP5 ADD SWAP2 PUSH1 0x20 SWAP1 SWAP2 ADD SWAP1 PUSH3 0x716 JUMP JUMPDEST POP PUSH2 0x2C0 DUP3 ADD MLOAD DUP1 MLOAD PUSH3 0x69E SWAP2 PUSH1 0x16 DUP5 ADD SWAP2 PUSH1 0x20 SWAP1 SWAP2 ADD SWAP1 PUSH3 0x716 JUMP JUMPDEST POP PUSH2 0x2E0 DUP3 ADD MLOAD DUP1 MLOAD PUSH3 0x6BD SWAP2 PUSH1 0x17 DUP5 ADD SWAP2 PUSH1 0x20 SWAP1 SWAP2 ADD SWAP1 PUSH3 0x716 JUMP JUMPDEST POP PUSH2 0x300 DUP3 ADD MLOAD DUP1 MLOAD PUSH3 0x6DC SWAP2 PUSH1 0x18 DUP5 ADD SWAP2 PUSH1 0x20 SWAP1 SWAP2 ADD SWAP1 PUSH3 0x716 JUMP JUMPDEST POP PUSH2 0x320 DUP3 ADD MLOAD DUP1 MLOAD PUSH3 0x6FB SWAP2 PUSH1 0x19 DUP5 ADD SWAP2 PUSH1 0x20 SWAP1 SWAP2 ADD SWAP1 PUSH3 0x716 JUMP JUMPDEST POP POP PUSH1 0x0 DUP1 SLOAD PUSH1 0x1 PUSH1 0x1 PUSH1 0xA0 SHL SUB NOT AND CALLER OR SWAP1 SSTORE POP PUSH3 0x7BB JUMP JUMPDEST DUP3 DUP1 SLOAD PUSH1 0x1 DUP2 PUSH1 0x1 AND ISZERO PUSH2 0x100 MUL SUB AND PUSH1 0x2 SWAP1 DIV SWAP1 PUSH1 0x0 MSTORE PUSH1 0x20 PUSH1 0x0 KECCAK256 SWAP1 PUSH1 0x1F ADD PUSH1 0x20 SWAP1 DIV DUP2 ADD SWAP3 DUP3 PUSH1 0x1F LT PUSH3 0x759 JUMPI DUP1 MLOAD PUSH1 0xFF NOT AND DUP4 DUP1 ADD OR DUP6 SSTORE PUSH3 0x789 JUMP JUMPDEST DUP3 DUP1 ADD PUSH1 0x1 ADD DUP6 SSTORE DUP3 ISZERO PUSH3 0x789 JUMPI SWAP2 DUP3 ADD JUMPDEST DUP3 DUP2 GT ISZERO PUSH3 0x789 JUMPI DUP3 MLOAD DUP3 SSTORE SWAP2 PUSH1 0x20 ADD SWAP2 SWAP1 PUSH1 0x1 ADD SWAP1 PUSH3 0x76C JUMP JUMPDEST POP PUSH3 0x797 SWAP3 SWAP2 POP PUSH3 0x79B JUMP JUMPDEST POP SWAP1 JUMP JUMPDEST PUSH3 0x7B8 SWAP2 SWAP1 JUMPDEST DUP1 DUP3 GT ISZERO PUSH3 0x797 JUMPI PUSH1 0x0 DUP2 SSTORE PUSH1 0x1 ADD PUSH3 0x7A2 JUMP JUMPDEST SWAP1 JUMP JUMPDEST PUSH2 0x2171 DUP1 PUSH3 0x7CB PUSH1 0x0 CODECOPY PUSH1 0x0 RETURN INVALID PUSH1 0x80 PUSH1 0x40 MSTORE CALLVALUE DUP1 ISZERO PUSH2 0x10 JUMPI PUSH1 0x0 DUP1 REVERT JUMPDEST POP PUSH1 0x4 CALLDATASIZE LT PUSH2 0x14D JUMPI PUSH1 0x0 CALLDATALOAD PUSH1 0xE0 SHR DUP1 PUSH4 0x4A0AAFDA GT PUSH2 0xC3 JUMPI DUP1 PUSH4 0xACE561A8 GT PUSH2 0x7C JUMPI DUP1 PUSH4 0xACE561A8 EQ PUSH2 0x53D JUMPI DUP1 PUSH4 0xB6011B4C EQ PUSH2 0x573 JUMPI DUP1 PUSH4 0xC347F69B EQ PUSH2 0x5A9 JUMPI DUP1 PUSH4 0xF2FDE38B EQ PUSH2 0x5DF JUMPI DUP1 PUSH4 0xFBA08D45 EQ PUSH2 0x605 JUMPI DUP1 PUSH4 0xFDDEA900 EQ PUSH2 0x62B JUMPI PUSH2 0x14D JUMP JUMPDEST DUP1 PUSH4 0x4A0AAFDA EQ PUSH2 0x445 JUMPI DUP1 PUSH4 0x70480275 EQ PUSH2 0x481 JUMPI DUP1 PUSH4 0x8450EBE4 EQ PUSH2 0x4A7 JUMPI DUP1 PUSH4 0x8DA5CB5B EQ PUSH2 0x4E3 JUMPI DUP1 PUSH4 0x8F32D59B EQ PUSH2 0x4EB JUMPI DUP1 PUSH4 0x9DC6B78D EQ PUSH2 0x507 JUMPI PUSH2 0x14D JUMP JUMPDEST DUP1 PUSH4 0x1AFFFEC0 GT PUSH2 0x115 JUMPI DUP1 PUSH4 0x1AFFFEC0 EQ PUSH2 0x25B JUMPI DUP1 PUSH4 0x31AE450B EQ PUSH2 0x291 JUMPI DUP1 PUSH4 0x3790767D EQ PUSH2 0x2E9 JUMPI DUP1 PUSH4 0x47FCF018 EQ PUSH2 0x31F JUMPI DUP1 PUSH4 0x485F952E EQ PUSH2 0x34B JUMPI DUP1 PUSH4 0x488B0F7D EQ PUSH2 0x377 JUMPI PUSH2 0x14D JUMP JUMPDEST DUP1 PUSH4 0xA1B0B91 EQ PUSH2 0x152 JUMPI DUP1 PUSH4 0xC82EA1A EQ PUSH2 0x190 JUMPI DUP1 PUSH4 0x14BFD6D0 EQ PUSH2 0x1C6 JUMPI DUP1 PUSH4 0x1785F53C EQ PUSH2 0x1FF JUMPI DUP1 PUSH4 0x18FA0653 EQ PUSH2 0x225 JUMPI JUMPDEST PUSH1 0x0 DUP1 REVERT JUMPDEST PUSH2 0x18E PUSH1 0x4 DUP1 CALLDATASIZE SUB PUSH1 0x80 DUP2 LT ISZERO PUSH2 0x168 JUMPI PUSH1 0x0 DUP1 REVERT JUMPDEST POP PUSH1 0x1 PUSH1 0x1 PUSH1 0xA0 SHL SUB DUP2 CALLDATALOAD DUP2 AND SWAP2 PUSH1 0x20 DUP2 ADD CALLDATALOAD DUP3 AND SWAP2 PUSH1 0x40 DUP3 ADD CALLDATALOAD AND SWAP1 PUSH1 0x60 ADD CALLDATALOAD PUSH2 0x6E3 JUMP JUMPDEST STOP JUMPDEST PUSH2 0x18E PUSH1 0x4 DUP1 CALLDATASIZE SUB PUSH1 0x60 DUP2 LT ISZERO PUSH2 0x1A6 JUMPI PUSH1 0x0 DUP1 REVERT JUMPDEST POP PUSH1 0x1 PUSH1 0x1 PUSH1 0xA0 SHL SUB DUP2 CALLDATALOAD DUP2 AND SWAP2 PUSH1 0x20 DUP2 ADD CALLDATALOAD SWAP1 SWAP2 AND SWAP1 PUSH1 0x40 ADD CALLDATALOAD PUSH2 0x869 JUMP JUMPDEST PUSH2 0x1E3 PUSH1 0x4 DUP1 CALLDATASIZE SUB PUSH1 0x20 DUP2 LT ISZERO PUSH2 0x1DC JUMPI PUSH1 0x0 DUP1 REVERT JUMPDEST POP CALLDATALOAD PUSH2 0x9CD JUMP JUMPDEST PUSH1 0x40 DUP1 MLOAD PUSH1 0x1 PUSH1 0x1 PUSH1 0xA0 SHL SUB SWAP1 SWAP3 AND DUP3 MSTORE MLOAD SWAP1 DUP2 SWAP1 SUB PUSH1 0x20 ADD SWAP1 RETURN JUMPDEST PUSH2 0x18E PUSH1 0x4 DUP1 CALLDATASIZE SUB PUSH1 0x20 DUP2 LT ISZERO PUSH2 0x215 JUMPI PUSH1 0x0 DUP1 REVERT JUMPDEST POP CALLDATALOAD PUSH1 0x1 PUSH1 0x1 PUSH1 0xA0 SHL SUB AND PUSH2 0x9F4 JUMP JUMPDEST PUSH2 0x18E PUSH1 0x4 DUP1 CALLDATASIZE SUB PUSH1 0x60 DUP2 LT ISZERO PUSH2 0x23B JUMPI PUSH1 0x0 DUP1 REVERT JUMPDEST POP PUSH1 0x1 PUSH1 0x1 PUSH1 0xA0 SHL SUB DUP2 CALLDATALOAD DUP2 AND SWAP2 PUSH1 0x20 DUP2 ADD CALLDATALOAD SWAP1 SWAP2 AND SWAP1 PUSH1 0x40 ADD CALLDATALOAD PUSH2 0xB72 JUMP JUMPDEST PUSH2 0x18E PUSH1 0x4 DUP1 CALLDATASIZE SUB PUSH1 0x60 DUP2 LT ISZERO PUSH2 0x271 JUMPI PUSH1 0x0 DUP1 REVERT JUMPDEST POP PUSH1 0x1 PUSH1 0x1 PUSH1 0xA0 SHL SUB DUP2 CALLDATALOAD DUP2 AND SWAP2 PUSH1 0x20 DUP2 ADD CALLDATALOAD SWAP1 SWAP2 AND SWAP1 PUSH1 0x40 ADD CALLDATALOAD PUSH2 0xCE7 JUMP JUMPDEST PUSH2 0x299 PUSH2 0xDE1 JUMP JUMPDEST PUSH1 0x40 DUP1 MLOAD PUSH1 0x20 DUP1 DUP3 MSTORE DUP4 MLOAD DUP2 DUP4 ADD MSTORE DUP4 MLOAD SWAP2 SWAP3 DUP4 SWAP3 SWAP1 DUP4 ADD SWAP2 DUP6 DUP2 ADD SWAP2 MUL DUP1 DUP4 DUP4 PUSH1 0x0 JUMPDEST DUP4 DUP2 LT ISZERO PUSH2 0x2D5 JUMPI DUP2 DUP2 ADD MLOAD DUP4 DUP3 ADD MSTORE PUSH1 0x20 ADD PUSH2 0x2BD JUMP JUMPDEST POP POP POP POP SWAP1 POP ADD SWAP3 POP POP POP PUSH1 0x40 MLOAD DUP1 SWAP2 SUB SWAP1 RETURN JUMPDEST PUSH2 0x18E PUSH1 0x4 DUP1 CALLDATASIZE SUB PUSH1 0x60 DUP2 LT ISZERO PUSH2 0x2FF JUMPI PUSH1 0x0 DUP1 REVERT JUMPDEST POP PUSH1 0x1 PUSH1 0x1 PUSH1 0xA0 SHL SUB DUP2 CALLDATALOAD DUP2 AND SWAP2 PUSH1 0x20 DUP2 ADD CALLDATALOAD SWAP1 SWAP2 AND SWAP1 PUSH1 0x40 ADD CALLDATALOAD PUSH2 0xE43 JUMP JUMPDEST PUSH2 0x18E PUSH1 0x4 DUP1 CALLDATASIZE SUB PUSH1 0x40 DUP2 LT ISZERO PUSH2 0x335 JUMPI PUSH1 0x0 DUP1 REVERT JUMPDEST POP PUSH1 0x1 PUSH1 0x1 PUSH1 0xA0 SHL SUB DUP2 CALLDATALOAD AND SWAP1 PUSH1 0x20 ADD CALLDATALOAD PUSH2 0xF56 JUMP JUMPDEST PUSH2 0x18E PUSH1 0x4 DUP1 CALLDATASIZE SUB PUSH1 0x40 DUP2 LT ISZERO PUSH2 0x361 JUMPI PUSH1 0x0 DUP1 REVERT JUMPDEST POP PUSH1 0x1 PUSH1 0x1 PUSH1 0xA0 SHL SUB DUP2 CALLDATALOAD AND SWAP1 PUSH1 0x20 ADD CALLDATALOAD PUSH2 0x12CC JUMP JUMPDEST PUSH2 0x18E PUSH1 0x4 DUP1 CALLDATASIZE SUB PUSH1 0xA0 DUP2 LT ISZERO PUSH2 0x38D JUMPI PUSH1 0x0 DUP1 REVERT JUMPDEST PUSH1 0x1 PUSH1 0x1 PUSH1 0xA0 SHL SUB DUP3 CALLDATALOAD DUP2 AND SWAP3 PUSH1 0x20 DUP2 ADD CALLDATALOAD DUP3 AND SWAP3 PUSH1 0x40 DUP3 ADD CALLDATALOAD SWAP1 SWAP3 AND SWAP2 PUSH1 0x60 DUP3 ADD CALLDATALOAD SWAP2 SWAP1 DUP2 ADD SWAP1 PUSH1 0xA0 DUP2 ADD PUSH1 0x80 DUP3 ADD CALLDATALOAD PUSH5 0x100000000 DUP2 GT ISZERO PUSH2 0x3D0 JUMPI PUSH1 0x0 DUP1 REVERT JUMPDEST DUP3 ADD DUP4 PUSH1 0x20 DUP3 ADD GT ISZERO PUSH2 0x3E2 JUMPI PUSH1 0x0 DUP1 REVERT JUMPDEST DUP1 CALLDATALOAD SWAP1 PUSH1 0x20 ADD SWAP2 DUP5 PUSH1 0x1 DUP4 MUL DUP5 ADD GT PUSH5 0x100000000 DUP4 GT OR ISZERO PUSH2 0x404 JUMPI PUSH1 0x0 DUP1 REVERT JUMPDEST SWAP2 SWAP1 DUP1 DUP1 PUSH1 0x1F ADD PUSH1 0x20 DUP1 SWAP2 DIV MUL PUSH1 0x20 ADD PUSH1 0x40 MLOAD SWAP1 DUP2 ADD PUSH1 0x40 MSTORE DUP1 SWAP4 SWAP3 SWAP2 SWAP1 DUP2 DUP2 MSTORE PUSH1 0x20 ADD DUP4 DUP4 DUP1 DUP3 DUP5 CALLDATACOPY PUSH1 0x0 SWAP3 ADD SWAP2 SWAP1 SWAP2 MSTORE POP SWAP3 SWAP6 POP PUSH2 0x1426 SWAP5 POP POP POP POP POP JUMP JUMPDEST PUSH2 0x18E PUSH1 0x4 DUP1 CALLDATASIZE SUB PUSH1 0x80 DUP2 LT ISZERO PUSH2 0x45B JUMPI PUSH1 0x0 DUP1 REVERT JUMPDEST POP PUSH1 0x1 PUSH1 0x1 PUSH1 0xA0 SHL SUB DUP2 CALLDATALOAD DUP2 AND SWAP2 PUSH1 0x20 DUP2 ADD CALLDATALOAD DUP3 AND SWAP2 PUSH1 0x40 DUP3 ADD CALLDATALOAD AND SWAP1 PUSH1 0x60 ADD CALLDATALOAD PUSH2 0x1607 JUMP JUMPDEST PUSH2 0x18E PUSH1 0x4 DUP1 CALLDATASIZE SUB PUSH1 0x20 DUP2 LT ISZERO PUSH2 0x497 JUMPI PUSH1 0x0 DUP1 REVERT JUMPDEST POP CALLDATALOAD PUSH1 0x1 PUSH1 0x1 PUSH1 0xA0 SHL SUB AND PUSH2 0x1777 JUMP JUMPDEST PUSH2 0x18E PUSH1 0x4 DUP1 CALLDATASIZE SUB PUSH1 0x80 DUP2 LT ISZERO PUSH2 0x4BD JUMPI PUSH1 0x0 DUP1 REVERT JUMPDEST POP PUSH1 0x1 PUSH1 0x1 PUSH1 0xA0 SHL SUB DUP2 CALLDATALOAD DUP2 AND SWAP2 PUSH1 0x20 DUP2 ADD CALLDATALOAD DUP3 AND SWAP2 PUSH1 0x40 DUP3 ADD CALLDATALOAD AND SWAP1 PUSH1 0x60 ADD CALLDATALOAD PUSH2 0x18B8 JUMP JUMPDEST PUSH2 0x1E3 PUSH2 0x1A09 JUMP JUMPDEST PUSH2 0x4F3 PUSH2 0x1A18 JUMP JUMPDEST PUSH1 0x40 DUP1 MLOAD SWAP2 ISZERO ISZERO DUP3 MSTORE MLOAD SWAP1 DUP2 SWAP1 SUB PUSH1 0x20 ADD SWAP1 RETURN JUMPDEST PUSH2 0x18E PUSH1 0x4 DUP1 CALLDATASIZE SUB PUSH1 0x60 DUP2 LT ISZERO PUSH2 0x51D JUMPI PUSH1 0x0 DUP1 REVERT JUMPDEST POP PUSH1 0x1 PUSH1 0x1 PUSH1 0xA0 SHL SUB DUP2 CALLDATALOAD DUP2 AND SWAP2 PUSH1 0x20 DUP2 ADD CALLDATALOAD SWAP1 SWAP2 AND SWAP1 PUSH1 0x40 ADD CALLDATALOAD PUSH2 0x1A29 JUMP JUMPDEST PUSH2 0x18E PUSH1 0x4 DUP1 CALLDATASIZE SUB PUSH1 0x60 DUP2 LT ISZERO PUSH2 0x553 JUMPI PUSH1 0x0 DUP1 REVERT JUMPDEST POP PUSH1 0x1 PUSH1 0x1 PUSH1 0xA0 SHL SUB DUP2 CALLDATALOAD DUP2 AND SWAP2 PUSH1 0x20 DUP2 ADD CALLDATALOAD SWAP1 SWAP2 AND SWAP1 PUSH1 0x40 ADD CALLDATALOAD PUSH2 0x1B23 JUMP JUMPDEST PUSH2 0x18E PUSH1 0x4 DUP1 CALLDATASIZE SUB PUSH1 0x60 DUP2 LT ISZERO PUSH2 0x589 JUMPI PUSH1 0x0 DUP1 REVERT JUMPDEST POP PUSH1 0x1 PUSH1 0x1 PUSH1 0xA0 SHL SUB DUP2 CALLDATALOAD DUP2 AND SWAP2 PUSH1 0x20 DUP2 ADD CALLDATALOAD SWAP1 SWAP2 AND SWAP1 PUSH1 0x40 ADD CALLDATALOAD PUSH2 0x1C1D JUMP JUMPDEST PUSH2 0x18E PUSH1 0x4 DUP1 CALLDATASIZE SUB PUSH1 0x60 DUP2 LT ISZERO PUSH2 0x5BF JUMPI PUSH1 0x0 DUP1 REVERT JUMPDEST POP PUSH1 0x1 PUSH1 0x1 PUSH1 0xA0 SHL SUB DUP2 CALLDATALOAD DUP2 AND SWAP2 PUSH1 0x20 DUP2 ADD CALLDATALOAD SWAP1 SWAP2 AND SWAP1 PUSH1 0x40 ADD CALLDATALOAD PUSH2 0x1D71 JUMP JUMPDEST PUSH2 0x18E PUSH1 0x4 DUP1 CALLDATASIZE SUB PUSH1 0x20 DUP2 LT ISZERO PUSH2 0x5F5 JUMPI PUSH1 0x0 DUP1 REVERT JUMPDEST POP CALLDATALOAD PUSH1 0x1 PUSH1 0x1 PUSH1 0xA0 SHL SUB AND PUSH2 0x1E15 JUMP JUMPDEST PUSH2 0x4F3 PUSH1 0x4 DUP1 CALLDATASIZE SUB PUSH1 0x20 DUP2 LT ISZERO PUSH2 0x61B JUMPI PUSH1 0x0 DUP1 REVERT JUMPDEST POP CALLDATALOAD PUSH1 0x1 PUSH1 0x1 PUSH1 0xA0 SHL SUB AND PUSH2 0x1ED5 JUMP JUMPDEST PUSH2 0x18E PUSH1 0x4 DUP1 CALLDATASIZE SUB PUSH1 0x60 DUP2 LT ISZERO PUSH2 0x641 JUMPI PUSH1 0x0 DUP1 REVERT JUMPDEST PUSH1 0x1 PUSH1 0x1 PUSH1 0xA0 SHL SUB DUP3 CALLDATALOAD AND SWAP2 SWAP1 DUP2 ADD SWAP1 PUSH1 0x40 DUP2 ADD PUSH1 0x20 DUP3 ADD CALLDATALOAD PUSH5 0x100000000 DUP2 GT ISZERO PUSH2 0x66C JUMPI PUSH1 0x0 DUP1 REVERT JUMPDEST DUP3 ADD DUP4 PUSH1 0x20 DUP3 ADD GT ISZERO PUSH2 0x67E JUMPI PUSH1 0x0 DUP1 REVERT JUMPDEST DUP1 CALLDATALOAD SWAP1 PUSH1 0x20 ADD SWAP2 DUP5 PUSH1 0x1 DUP4 MUL DUP5 ADD GT PUSH5 0x100000000 DUP4 GT OR ISZERO PUSH2 0x6A0 JUMPI PUSH1 0x0 DUP1 REVERT JUMPDEST SWAP2 SWAP1 DUP1 DUP1 PUSH1 0x1F ADD PUSH1 0x20 DUP1 SWAP2 DIV MUL PUSH1 0x20 ADD PUSH1 0x40 MLOAD SWAP1 DUP2 ADD PUSH1 0x40 MSTORE DUP1 SWAP4 SWAP3 SWAP2 SWAP1 DUP2 DUP2 MSTORE PUSH1 0x20 ADD DUP4 DUP4 DUP1 DUP3 DUP5 CALLDATACOPY PUSH1 0x0 SWAP3 ADD SWAP2 SWAP1 SWAP2 MSTORE POP SWAP3 SWAP6 POP POP SWAP2 CALLDATALOAD SWAP3 POP PUSH2 0x1F2C SWAP2 POP POP JUMP JUMPDEST PUSH2 0x6EC CALLER PUSH2 0x1ED5 JUMP JUMPDEST DUP1 PUSH2 0x6FA JUMPI POP PUSH2 0x6FA PUSH2 0x1A18 JUMP JUMPDEST PUSH2 0x735 JUMPI PUSH1 0x40 MLOAD PUSH3 0x461BCD PUSH1 0xE5 SHL DUP2 MSTORE PUSH1 0x4 ADD DUP1 DUP1 PUSH1 0x20 ADD DUP3 DUP2 SUB DUP3 MSTORE PUSH1 0x23 DUP2 MSTORE PUSH1 0x20 ADD DUP1 PUSH2 0x20FA PUSH1 0x23 SWAP2 CODECOPY PUSH1 0x40 ADD SWAP2 POP POP PUSH1 0x40 MLOAD DUP1 SWAP2 SUB SWAP1 REVERT JUMPDEST PUSH1 0x40 DUP1 MLOAD PUSH4 0x23B872DD PUSH1 0xE0 SHL DUP2 MSTORE PUSH1 0x1 PUSH1 0x1 PUSH1 0xA0 SHL SUB DUP6 DUP2 AND PUSH1 0x4 DUP4 ADD MSTORE DUP5 DUP2 AND PUSH1 0x24 DUP4 ADD MSTORE PUSH1 0x44 DUP3 ADD DUP5 SWAP1 MSTORE SWAP2 MLOAD DUP7 SWAP3 DUP4 AND SWAP2 PUSH4 0x23B872DD SWAP2 PUSH1 0x64 DUP1 DUP4 ADD SWAP3 PUSH1 0x20 SWAP3 SWAP2 SWAP1 DUP3 SWAP1 SUB ADD DUP2 PUSH1 0x0 DUP8 DUP1 EXTCODESIZE ISZERO DUP1 ISZERO PUSH2 0x790 JUMPI PUSH1 0x0 DUP1 REVERT JUMPDEST POP GAS CALL ISZERO DUP1 ISZERO PUSH2 0x7A4 JUMPI RETURNDATASIZE PUSH1 0x0 DUP1 RETURNDATACOPY RETURNDATASIZE PUSH1 0x0 REVERT JUMPDEST POP POP POP POP PUSH1 0x40 MLOAD RETURNDATASIZE PUSH1 0x20 DUP2 LT ISZERO PUSH2 0x7BA JUMPI PUSH1 0x0 DUP1 REVERT JUMPDEST POP POP PUSH1 0x40 MLOAD PUSH1 0x15 DUP1 SLOAD SWAP1 SWAP2 SWAP1 DUP2 SWAP1 DUP4 SWAP1 PUSH1 0x2 PUSH1 0x0 NOT PUSH2 0x100 PUSH1 0x1 DUP5 AND ISZERO MUL ADD SWAP1 SWAP2 AND DIV DUP1 ISZERO PUSH2 0x820 JUMPI DUP1 PUSH1 0x1F LT PUSH2 0x7FE JUMPI PUSH2 0x100 DUP1 DUP4 SLOAD DIV MUL DUP4 MSTORE SWAP2 DUP3 ADD SWAP2 PUSH2 0x820 JUMP JUMPDEST DUP3 ADD SWAP2 SWAP1 PUSH1 0x0 MSTORE PUSH1 0x20 PUSH1 0x0 KECCAK256 SWAP1 JUMPDEST DUP2 SLOAD DUP2 MSTORE SWAP1 PUSH1 0x1 ADD SWAP1 PUSH1 0x20 ADD DUP1 DUP4 GT PUSH2 0x80C JUMPI JUMPDEST POP POP PUSH1 0x40 DUP1 MLOAD SWAP2 DUP3 SWAP1 SUB DUP3 KECCAK256 PUSH1 0x1 PUSH1 0x1 PUSH1 0xA0 SHL SUB DUP9 DUP2 AND DUP5 MSTORE PUSH1 0x20 DUP5 ADD DUP9 SWAP1 MSTORE DUP3 MLOAD SWAP2 SWAP6 POP DUP11 AND SWAP4 POP CALLER SWAP3 PUSH1 0x0 DUP1 MLOAD PUSH1 0x20 PUSH2 0x211D DUP4 CODECOPY DUP2 MLOAD SWAP2 MSTORE SWAP3 SWAP1 DUP3 SWAP1 SUB ADD SWAP1 LOG4 POP POP POP POP POP JUMP JUMPDEST PUSH2 0x872 CALLER PUSH2 0x1ED5 JUMP JUMPDEST DUP1 PUSH2 0x880 JUMPI POP PUSH2 0x880 PUSH2 0x1A18 JUMP JUMPDEST PUSH2 0x8BB JUMPI PUSH1 0x40 MLOAD PUSH3 0x461BCD PUSH1 0xE5 SHL DUP2 MSTORE PUSH1 0x4 ADD DUP1 DUP1 PUSH1 0x20 ADD DUP3 DUP2 SUB DUP3 MSTORE PUSH1 0x23 DUP2 MSTORE PUSH1 0x20 ADD DUP1 PUSH2 0x20FA PUSH1 0x23 SWAP2 CODECOPY PUSH1 0x40 ADD SWAP2 POP POP PUSH1 0x40 MLOAD DUP1 SWAP2 SUB SWAP1 REVERT JUMPDEST PUSH1 0x40 DUP1 MLOAD PUSH4 0xA457C2D7 PUSH1 0xE0 SHL DUP2 MSTORE PUSH1 0x1 PUSH1 0x1 PUSH1 0xA0 SHL SUB DUP5 DUP2 AND PUSH1 0x4 DUP4 ADD MSTORE PUSH1 0x24 DUP3 ADD DUP5 SWAP1 MSTORE SWAP2 MLOAD DUP6 SWAP3 DUP4 AND SWAP2 PUSH4 0xA457C2D7 SWAP2 PUSH1 0x44 DUP1 DUP4 ADD SWAP3 PUSH1 0x0 SWAP3 SWAP2 SWAP1 DUP3 SWAP1 SUB ADD DUP2 DUP4 DUP8 DUP1 EXTCODESIZE ISZERO DUP1 ISZERO PUSH2 0x90D JUMPI PUSH1 0x0 DUP1 REVERT JUMPDEST POP GAS CALL ISZERO DUP1 ISZERO PUSH2 0x921 JUMPI RETURNDATASIZE PUSH1 0x0 DUP1 RETURNDATACOPY RETURNDATASIZE PUSH1 0x0 REVERT JUMPDEST POP POP POP POP PUSH1 0x1 PUSH1 0x16 ADD PUSH1 0x40 MLOAD DUP1 DUP3 DUP1 SLOAD PUSH1 0x1 DUP2 PUSH1 0x1 AND ISZERO PUSH2 0x100 MUL SUB AND PUSH1 0x2 SWAP1 DIV DUP1 ISZERO PUSH2 0x985 JUMPI DUP1 PUSH1 0x1F LT PUSH2 0x963 JUMPI PUSH2 0x100 DUP1 DUP4 SLOAD DIV MUL DUP4 MSTORE SWAP2 DUP3 ADD SWAP2 PUSH2 0x985 JUMP JUMPDEST DUP3 ADD SWAP2 SWAP1 PUSH1 0x0 MSTORE PUSH1 0x20 PUSH1 0x0 KECCAK256 SWAP1 JUMPDEST DUP2 SLOAD DUP2 MSTORE SWAP1 PUSH1 0x1 ADD SWAP1 PUSH1 0x20 ADD DUP1 DUP4 GT PUSH2 0x971 JUMPI JUMPDEST POP POP PUSH1 0x40 DUP1 MLOAD SWAP2 DUP3 SWAP1 SUB DUP3 KECCAK256 PUSH1 0x1 PUSH1 0x1 PUSH1 0xA0 SHL SUB DUP9 DUP2 AND DUP5 MSTORE PUSH1 0x20 DUP5 ADD DUP9 SWAP1 MSTORE DUP3 MLOAD SWAP2 SWAP6 POP DUP10 AND SWAP4 POP CALLER SWAP3 PUSH1 0x0 DUP1 MLOAD PUSH1 0x20 PUSH2 0x211D DUP4 CODECOPY DUP2 MLOAD SWAP2 MSTORE SWAP3 SWAP1 DUP3 SWAP1 SUB ADD SWAP1 LOG4 POP POP POP POP JUMP JUMPDEST PUSH1 0x1B DUP2 DUP2 SLOAD DUP2 LT PUSH2 0x9DA JUMPI INVALID JUMPDEST PUSH1 0x0 SWAP2 DUP3 MSTORE PUSH1 0x20 SWAP1 SWAP2 KECCAK256 ADD SLOAD PUSH1 0x1 PUSH1 0x1 PUSH1 0xA0 SHL SUB AND SWAP1 POP DUP2 JUMP JUMPDEST PUSH2 0x9FC PUSH2 0x1A18 JUMP JUMPDEST PUSH2 0xA4D JUMPI PUSH1 0x40 DUP1 MLOAD PUSH3 0x461BCD PUSH1 0xE5 SHL DUP2 MSTORE PUSH1 0x20 PUSH1 0x4 DUP3 ADD DUP2 SWAP1 MSTORE PUSH1 0x24 DUP3 ADD MSTORE PUSH32 0x4F776E61626C653A2063616C6C6572206973206E6F7420746865206F776E6572 PUSH1 0x44 DUP3 ADD MSTORE SWAP1 MLOAD SWAP1 DUP2 SWAP1 SUB PUSH1 0x64 ADD SWAP1 REVERT JUMPDEST PUSH1 0x0 JUMPDEST PUSH1 0x1B SLOAD DUP2 LT ISZERO PUSH2 0xB2B JUMPI DUP2 PUSH1 0x1 PUSH1 0x1 PUSH1 0xA0 SHL SUB AND PUSH1 0x1B DUP3 DUP2 SLOAD DUP2 LT PUSH2 0xA71 JUMPI INVALID JUMPDEST PUSH1 0x0 SWAP2 DUP3 MSTORE PUSH1 0x20 SWAP1 SWAP2 KECCAK256 ADD SLOAD PUSH1 0x1 PUSH1 0x1 PUSH1 0xA0 SHL SUB AND EQ ISZERO PUSH2 0xB23 JUMPI PUSH1 0x1B DUP2 DUP2 SLOAD DUP2 LT PUSH2 0xA99 JUMPI INVALID JUMPDEST PUSH1 0x0 SWAP2 DUP3 MSTORE PUSH1 0x20 SWAP1 SWAP2 KECCAK256 ADD SLOAD PUSH1 0x1B DUP1 SLOAD PUSH1 0x1 PUSH1 0x1 PUSH1 0xA0 SHL SUB SWAP1 SWAP3 AND SWAP2 PUSH1 0x0 NOT DUP2 ADD SWAP1 DUP2 LT PUSH2 0xAC3 JUMPI INVALID JUMPDEST SWAP1 PUSH1 0x0 MSTORE PUSH1 0x20 PUSH1 0x0 KECCAK256 ADD PUSH1 0x0 PUSH2 0x100 EXP DUP2 SLOAD DUP2 PUSH1 0x1 PUSH1 0x1 PUSH1 0xA0 SHL SUB MUL NOT AND SWAP1 DUP4 PUSH1 0x1 PUSH1 0x1 PUSH1 0xA0 SHL SUB AND MUL OR SWAP1 SSTORE POP PUSH1 0x1B DUP1 SLOAD DUP1 PUSH2 0xAFC JUMPI INVALID JUMPDEST PUSH1 0x0 DUP3 DUP2 MSTORE PUSH1 0x20 SWAP1 KECCAK256 DUP2 ADD PUSH1 0x0 NOT SWAP1 DUP2 ADD DUP1 SLOAD PUSH1 0x1 PUSH1 0x1 PUSH1 0xA0 SHL SUB NOT AND SWAP1 SSTORE ADD SWAP1 SSTORE PUSH2 0xB2B JUMP JUMPDEST PUSH1 0x1 ADD PUSH2 0xA50 JUMP JUMPDEST POP PUSH1 0x40 DUP1 MLOAD PUSH1 0x1 PUSH1 0x1 PUSH1 0xA0 SHL SUB DUP4 AND DUP2 MSTORE TIMESTAMP PUSH1 0x20 DUP3 ADD MSTORE DUP2 MLOAD PUSH32 0xA0726C73CF6AD18DDB855BA65D1DDD4D7FD37D320F4E52F6B154C13D386F5FD9 SWAP3 SWAP2 DUP2 SWAP1 SUB SWAP1 SWAP2 ADD SWAP1 LOG1 POP JUMP JUMPDEST PUSH2 0xB7B CALLER PUSH2 0x1ED5 JUMP JUMPDEST DUP1 PUSH2 0xB89 JUMPI POP PUSH2 0xB89 PUSH2 0x1A18 JUMP JUMPDEST PUSH2 0xBC4 JUMPI PUSH1 0x40 MLOAD PUSH3 0x461BCD PUSH1 0xE5 SHL DUP2 MSTORE PUSH1 0x4 ADD DUP1 DUP1 PUSH1 0x20 ADD DUP3 DUP2 SUB DUP3 MSTORE PUSH1 0x23 DUP2 MSTORE PUSH1 0x20 ADD DUP1 PUSH2 0x20FA PUSH1 0x23 SWAP2 CODECOPY PUSH1 0x40 ADD SWAP2 POP POP PUSH1 0x40 MLOAD DUP1 SWAP2 SUB SWAP1 REVERT JUMPDEST PUSH1 0x0 DUP4 SWAP1 POP PUSH1 0x1 PUSH1 0x0 ADD PUSH1 0x40 MLOAD DUP1 DUP3 DUP1 SLOAD PUSH1 0x1 DUP2 PUSH1 0x1 AND ISZERO PUSH2 0x100 MUL SUB AND PUSH1 0x2 SWAP1 DIV DUP1 ISZERO PUSH2 0xC29 JUMPI DUP1 PUSH1 0x1F LT PUSH2 0xC07 JUMPI PUSH2 0x100 DUP1 DUP4 SLOAD DIV MUL DUP4 MSTORE SWAP2 DUP3 ADD SWAP2 PUSH2 0xC29 JUMP JUMPDEST DUP3 ADD SWAP2 SWAP1 PUSH1 0x0 MSTORE PUSH1 0x20 PUSH1 0x0 KECCAK256 SWAP1 JUMPDEST DUP2 SLOAD DUP2 MSTORE SWAP1 PUSH1 0x1 ADD SWAP1 PUSH1 0x20 ADD DUP1 DUP4 GT PUSH2 0xC15 JUMPI JUMPDEST POP POP PUSH1 0x40 DUP1 MLOAD SWAP2 DUP3 SWAP1 SUB DUP3 KECCAK256 PUSH1 0x1 PUSH1 0x1 PUSH1 0xA0 SHL SUB DUP10 AND DUP1 DUP5 MSTORE PUSH1 0x20 DUP5 ADD DUP9 SWAP1 MSTORE DUP3 MLOAD SWAP2 SWAP6 POP SWAP4 POP CALLER SWAP3 PUSH1 0x0 DUP1 MLOAD PUSH1 0x20 PUSH2 0x211D DUP4 CODECOPY DUP2 MLOAD SWAP2 MSTORE SWAP3 SWAP1 DUP3 SWAP1 SUB ADD SWAP1 LOG4 DUP1 PUSH1 0x1 PUSH1 0x1 PUSH1 0xA0 SHL SUB AND PUSH4 0x95EA7B3 DUP5 DUP5 PUSH1 0x40 MLOAD DUP4 PUSH4 0xFFFFFFFF AND PUSH1 0xE0 SHL DUP2 MSTORE PUSH1 0x4 ADD DUP1 DUP4 PUSH1 0x1 PUSH1 0x1 PUSH1 0xA0 SHL SUB AND PUSH1 0x1 PUSH1 0x1 PUSH1 0xA0 SHL SUB AND DUP2 MSTORE PUSH1 0x20 ADD DUP3 DUP2 MSTORE PUSH1 0x20 ADD SWAP3 POP POP POP PUSH1 0x0 PUSH1 0x40 MLOAD DUP1 DUP4 SUB DUP2 PUSH1 0x0 DUP8 DUP1 EXTCODESIZE ISZERO DUP1 ISZERO PUSH2 0xCC9 JUMPI PUSH1 0x0 DUP1 REVERT JUMPDEST POP GAS CALL ISZERO DUP1 ISZERO PUSH2 0xCDD JUMPI RETURNDATASIZE PUSH1 0x0 DUP1 RETURNDATACOPY RETURNDATASIZE PUSH1 0x0 REVERT JUMPDEST POP POP POP POP POP POP POP POP JUMP JUMPDEST PUSH2 0xCF0 CALLER PUSH2 0x1ED5 JUMP JUMPDEST DUP1 PUSH2 0xCFE JUMPI POP PUSH2 0xCFE PUSH2 0x1A18 JUMP JUMPDEST PUSH2 0xD39 JUMPI PUSH1 0x40 MLOAD PUSH3 0x461BCD PUSH1 0xE5 SHL DUP2 MSTORE PUSH1 0x4 ADD DUP1 DUP1 PUSH1 0x20 ADD DUP3 DUP2 SUB DUP3 MSTORE PUSH1 0x23 DUP2 MSTORE PUSH1 0x20 ADD DUP1 PUSH2 0x20FA PUSH1 0x23 SWAP2 CODECOPY PUSH1 0x40 ADD SWAP2 POP POP PUSH1 0x40 MLOAD DUP1 SWAP2 SUB SWAP1 REVERT JUMPDEST PUSH1 0x40 DUP1 MLOAD PUSH4 0xD73DD623 PUSH1 0xE0 SHL DUP2 MSTORE PUSH1 0x1 PUSH1 0x1 PUSH1 0xA0 SHL SUB DUP5 DUP2 AND PUSH1 0x4 DUP4 ADD MSTORE PUSH1 0x24 DUP3 ADD DUP5 SWAP1 MSTORE SWAP2 MLOAD DUP6 SWAP3 DUP4 AND SWAP2 PUSH4 0xD73DD623 SWAP2 PUSH1 0x44 DUP1 DUP4 ADD SWAP3 PUSH1 0x0 SWAP3 SWAP2 SWAP1 DUP3 SWAP1 SUB ADD DUP2 DUP4 DUP8 DUP1 EXTCODESIZE ISZERO DUP1 ISZERO PUSH2 0xD8B JUMPI PUSH1 0x0 DUP1 REVERT JUMPDEST POP GAS CALL ISZERO DUP1 ISZERO PUSH2 0xD9F JUMPI RETURNDATASIZE PUSH1 0x0 DUP1 RETURNDATACOPY RETURNDATASIZE PUSH1 0x0 REVERT JUMPDEST POP POP POP POP PUSH1 0x1 PUSH1 0x12 ADD PUSH1 0x40 MLOAD DUP1 DUP3 DUP1 SLOAD PUSH1 0x1 DUP2 PUSH1 0x1 AND ISZERO PUSH2 0x100 MUL SUB AND PUSH1 0x2 SWAP1 DIV DUP1 ISZERO PUSH2 0x985 JUMPI DUP1 PUSH1 0x1F LT PUSH2 0x963 JUMPI PUSH2 0x100 DUP1 DUP4 SLOAD DIV MUL DUP4 MSTORE SWAP2 DUP3 ADD SWAP2 PUSH2 0x985 JUMP JUMPDEST PUSH1 0x60 PUSH1 0x1B DUP1 SLOAD DUP1 PUSH1 0x20 MUL PUSH1 0x20 ADD PUSH1 0x40 MLOAD SWAP1 DUP2 ADD PUSH1 0x40 MSTORE DUP1 SWAP3 SWAP2 SWAP1 DUP2 DUP2 MSTORE PUSH1 0x20 ADD DUP3 DUP1 SLOAD DUP1 ISZERO PUSH2 0xE39 JUMPI PUSH1 0x20 MUL DUP3 ADD SWAP2 SWAP1 PUSH1 0x0 MSTORE PUSH1 0x20 PUSH1 0x0 KECCAK256 SWAP1 JUMPDEST DUP2 SLOAD PUSH1 0x1 PUSH1 0x1 PUSH1 0xA0 SHL SUB AND DUP2 MSTORE PUSH1 0x1 SWAP1 SWAP2 ADD SWAP1 PUSH1 0x20 ADD DUP1 DUP4 GT PUSH2 0xE1B JUMPI JUMPDEST POP POP POP POP POP SWAP1 POP SWAP1 JUMP JUMPDEST PUSH2 0xE4C CALLER PUSH2 0x1ED5 JUMP JUMPDEST DUP1 PUSH2 0xE5A JUMPI POP PUSH2 0xE5A PUSH2 0x1A18 JUMP JUMPDEST PUSH2 0xE95 JUMPI PUSH1 0x40 MLOAD PUSH3 0x461BCD PUSH1 0xE5 SHL DUP2 MSTORE PUSH1 0x4 ADD DUP1 DUP1 PUSH1 0x20 ADD DUP3 DUP2 SUB DUP3 MSTORE PUSH1 0x23 DUP2 MSTORE PUSH1 0x20 ADD DUP1 PUSH2 0x20FA PUSH1 0x23 SWAP2 CODECOPY PUSH1 0x40 ADD SWAP2 POP POP PUSH1 0x40 MLOAD DUP1 SWAP2 SUB SWAP1 REVERT JUMPDEST PUSH1 0x40 DUP1 MLOAD PUSH4 0xA9059CBB PUSH1 0xE0 SHL DUP2 MSTORE PUSH1 0x1 PUSH1 0x1 PUSH1 0xA0 SHL SUB DUP5 DUP2 AND PUSH1 0x4 DUP4 ADD MSTORE PUSH1 0x24 DUP3 ADD DUP5 SWAP1 MSTORE SWAP2 MLOAD DUP6 SWAP3 DUP4 AND SWAP2 PUSH4 0xA9059CBB SWAP2 PUSH1 0x44 DUP1 DUP4 ADD SWAP3 PUSH1 0x20 SWAP3 SWAP2 SWAP1 DUP3 SWAP1 SUB ADD DUP2 PUSH1 0x0 DUP8 DUP1 EXTCODESIZE ISZERO DUP1 ISZERO PUSH2 0xEE8 JUMPI PUSH1 0x0 DUP1 REVERT JUMPDEST POP GAS CALL ISZERO DUP1 ISZERO PUSH2 0xEFC JUMPI RETURNDATASIZE PUSH1 0x0 DUP1 RETURNDATACOPY RETURNDATASIZE PUSH1 0x0 REVERT JUMPDEST POP POP POP POP PUSH1 0x40 MLOAD RETURNDATASIZE PUSH1 0x20 DUP2 LT ISZERO PUSH2 0xF12 JUMPI PUSH1 0x0 DUP1 REVERT JUMPDEST POP POP PUSH1 0x40 MLOAD PUSH1 0x14 DUP1 SLOAD SWAP1 SWAP2 SWAP1 DUP2 SWAP1 DUP4 SWAP1 PUSH1 0x2 PUSH1 0x0 NOT PUSH2 0x100 PUSH1 0x1 DUP5 AND ISZERO MUL ADD SWAP1 SWAP2 AND DIV DUP1 ISZERO PUSH2 0x985 JUMPI DUP1 PUSH1 0x1F LT PUSH2 0x963 JUMPI PUSH2 0x100 DUP1 DUP4 SLOAD DIV MUL DUP4 MSTORE SWAP2 DUP3 ADD SWAP2 PUSH2 0x985 JUMP JUMPDEST PUSH2 0xF5F CALLER PUSH2 0x1ED5 JUMP JUMPDEST DUP1 PUSH2 0xF6D JUMPI POP PUSH2 0xF6D PUSH2 0x1A18 JUMP JUMPDEST PUSH2 0xFA8 JUMPI PUSH1 0x40 MLOAD PUSH3 0x461BCD PUSH1 0xE5 SHL DUP2 MSTORE PUSH1 0x4 ADD DUP1 DUP1 PUSH1 0x20 ADD DUP3 DUP2 SUB DUP3 MSTORE PUSH1 0x23 DUP2 MSTORE PUSH1 0x20 ADD DUP1 PUSH2 0x20FA PUSH1 0x23 SWAP2 CODECOPY PUSH1 0x40 ADD SWAP2 POP POP PUSH1 0x40 MLOAD DUP1 SWAP2 SUB SWAP1 REVERT JUMPDEST PUSH1 0x0 DUP3 SWAP1 POP PUSH1 0x60 DUP2 PUSH1 0x1 PUSH1 0x1 PUSH1 0xA0 SHL SUB AND PUSH4 0xC87B56DD DUP5 PUSH1 0x40 MLOAD DUP3 PUSH4 0xFFFFFFFF AND PUSH1 0xE0 SHL DUP2 MSTORE PUSH1 0x4 ADD DUP1 DUP3 DUP2 MSTORE PUSH1 0x20 ADD SWAP2 POP POP PUSH1 0x0 PUSH1 0x40 MLOAD DUP1 DUP4 SUB DUP2 PUSH1 0x0 DUP8 DUP1 EXTCODESIZE ISZERO DUP1 ISZERO PUSH2 0xFF5 JUMPI PUSH1 0x0 DUP1 REVERT JUMPDEST POP GAS CALL ISZERO DUP1 ISZERO PUSH2 0x1009 JUMPI RETURNDATASIZE PUSH1 0x0 DUP1 RETURNDATACOPY RETURNDATASIZE PUSH1 0x0 REVERT JUMPDEST POP POP POP POP PUSH1 0x40 MLOAD RETURNDATASIZE PUSH1 0x0 DUP3 RETURNDATACOPY PUSH1 0x1F RETURNDATASIZE SWAP1 DUP2 ADD PUSH1 0x1F NOT AND DUP3 ADD PUSH1 0x40 MSTORE PUSH1 0x20 DUP2 LT ISZERO PUSH2 0x1032 JUMPI PUSH1 0x0 DUP1 REVERT JUMPDEST DUP2 ADD SWAP1 DUP1 DUP1 MLOAD PUSH1 0x40 MLOAD SWAP4 SWAP3 SWAP2 SWAP1 DUP5 PUSH5 0x100000000 DUP3 GT ISZERO PUSH2 0x1052 JUMPI PUSH1 0x0 DUP1 REVERT JUMPDEST SWAP1 DUP4 ADD SWAP1 PUSH1 0x20 DUP3 ADD DUP6 DUP2 GT ISZERO PUSH2 0x1067 JUMPI PUSH1 0x0 DUP1 REVERT JUMPDEST DUP3 MLOAD PUSH5 0x100000000 DUP2 GT DUP3 DUP3 ADD DUP9 LT OR ISZERO PUSH2 0x1081 JUMPI PUSH1 0x0 DUP1 REVERT JUMPDEST DUP3 MSTORE POP DUP2 MLOAD PUSH1 0x20 SWAP2 DUP3 ADD SWAP3 SWAP1 SWAP2 ADD SWAP1 DUP1 DUP4 DUP4 PUSH1 0x0 JUMPDEST DUP4 DUP2 LT ISZERO PUSH2 0x10AE JUMPI DUP2 DUP2 ADD MLOAD DUP4 DUP3 ADD MSTORE PUSH1 0x20 ADD PUSH2 0x1096 JUMP JUMPDEST POP POP POP POP SWAP1 POP SWAP1 DUP2 ADD SWAP1 PUSH1 0x1F AND DUP1 ISZERO PUSH2 0x10DB JUMPI DUP1 DUP3 SUB DUP1 MLOAD PUSH1 0x1 DUP4 PUSH1 0x20 SUB PUSH2 0x100 EXP SUB NOT AND DUP2 MSTORE PUSH1 0x20 ADD SWAP2 POP JUMPDEST POP PUSH1 0x40 DUP2 DUP2 MSTORE PUSH4 0x20604BF PUSH1 0xE2 SHL DUP3 MSTORE PUSH1 0x4 DUP3 ADD DUP10 SWAP1 MSTORE MLOAD SWAP5 SWAP6 POP ADDRESS SWAP5 PUSH1 0x1 PUSH1 0x1 PUSH1 0xA0 SHL SUB DUP9 AND SWAP5 POP PUSH4 0x81812FC SWAP4 POP PUSH1 0x24 DUP1 DUP4 ADD SWAP4 POP PUSH1 0x20 SWAP3 DUP3 SWAP1 SUB ADD DUP2 PUSH1 0x0 DUP8 DUP1 EXTCODESIZE ISZERO DUP1 ISZERO PUSH2 0x112B JUMPI PUSH1 0x0 DUP1 REVERT JUMPDEST POP GAS CALL ISZERO DUP1 ISZERO PUSH2 0x113F JUMPI RETURNDATASIZE PUSH1 0x0 DUP1 RETURNDATACOPY RETURNDATASIZE PUSH1 0x0 REVERT JUMPDEST POP POP POP POP PUSH1 0x40 MLOAD RETURNDATASIZE PUSH1 0x20 DUP2 LT ISZERO PUSH2 0x1155 JUMPI PUSH1 0x0 DUP1 REVERT JUMPDEST POP MLOAD PUSH1 0x1 PUSH1 0x1 PUSH1 0xA0 SHL SUB AND EQ PUSH2 0x11B2 JUMPI PUSH1 0x40 DUP1 MLOAD PUSH3 0x461BCD PUSH1 0xE5 SHL DUP2 MSTORE PUSH1 0x20 PUSH1 0x4 DUP3 ADD MSTORE PUSH1 0x1B PUSH1 0x24 DUP3 ADD MSTORE PUSH32 0x546F6B656E206E6F74206170706F726F766520666F72206275726E0000000000 PUSH1 0x44 DUP3 ADD MSTORE SWAP1 MLOAD SWAP1 DUP2 SWAP1 SUB PUSH1 0x64 ADD SWAP1 REVERT JUMPDEST DUP2 PUSH1 0x1 PUSH1 0x1 PUSH1 0xA0 SHL SUB AND PUSH4 0x42966C68 DUP5 PUSH1 0x40 MLOAD DUP3 PUSH4 0xFFFFFFFF AND PUSH1 0xE0 SHL DUP2 MSTORE PUSH1 0x4 ADD DUP1 DUP3 DUP2 MSTORE PUSH1 0x20 ADD SWAP2 POP POP PUSH1 0x0 PUSH1 0x40 MLOAD DUP1 DUP4 SUB DUP2 PUSH1 0x0 DUP8 DUP1 EXTCODESIZE ISZERO DUP1 ISZERO PUSH2 0x11F8 JUMPI PUSH1 0x0 DUP1 REVERT JUMPDEST POP GAS CALL ISZERO DUP1 ISZERO PUSH2 0x120C JUMPI RETURNDATASIZE PUSH1 0x0 DUP1 RETURNDATACOPY RETURNDATASIZE PUSH1 0x0 REVERT JUMPDEST POP POP POP POP CALLER PUSH1 0x1 PUSH1 0x1 PUSH1 0xA0 SHL SUB AND DUP4 DUP6 PUSH1 0x1 PUSH1 0x1 PUSH1 0xA0 SHL SUB AND PUSH32 0x926B248E45DFDD4C4CAEC216E73EC503CE2522D3B5646C861D1B074210675D0E TIMESTAMP DUP6 PUSH1 0x40 MLOAD DUP1 DUP4 DUP2 MSTORE PUSH1 0x20 ADD DUP1 PUSH1 0x20 ADD DUP3 DUP2 SUB DUP3 MSTORE DUP4 DUP2 DUP2 MLOAD DUP2 MSTORE PUSH1 0x20 ADD SWAP2 POP DUP1 MLOAD SWAP1 PUSH1 0x20 ADD SWAP1 DUP1 DUP4 DUP4 PUSH1 0x0 JUMPDEST DUP4 DUP2 LT ISZERO PUSH2 0x128B JUMPI DUP2 DUP2 ADD MLOAD DUP4 DUP3 ADD MSTORE PUSH1 0x20 ADD PUSH2 0x1273 JUMP JUMPDEST POP POP POP POP SWAP1 POP SWAP1 DUP2 ADD SWAP1 PUSH1 0x1F AND DUP1 ISZERO PUSH2 0x12B8 JUMPI DUP1 DUP3 SUB DUP1 MLOAD PUSH1 0x1 DUP4 PUSH1 0x20 SUB PUSH2 0x100 EXP SUB NOT AND DUP2 MSTORE PUSH1 0x20 ADD SWAP2 POP JUMPDEST POP SWAP4 POP POP POP POP PUSH1 0x40 MLOAD DUP1 SWAP2 SUB SWAP1 LOG4 POP POP POP POP JUMP JUMPDEST PUSH2 0x12D5 CALLER PUSH2 0x1ED5 JUMP JUMPDEST DUP1 PUSH2 0x12E3 JUMPI POP PUSH2 0x12E3 PUSH2 0x1A18 JUMP JUMPDEST PUSH2 0x131E JUMPI PUSH1 0x40 MLOAD PUSH3 0x461BCD PUSH1 0xE5 SHL DUP2 MSTORE PUSH1 0x4 ADD DUP1 DUP1 PUSH1 0x20 ADD DUP3 DUP2 SUB DUP3 MSTORE PUSH1 0x23 DUP2 MSTORE PUSH1 0x20 ADD DUP1 PUSH2 0x20FA PUSH1 0x23 SWAP2 CODECOPY PUSH1 0x40 ADD SWAP2 POP POP PUSH1 0x40 MLOAD DUP1 SWAP2 SUB SWAP1 REVERT JUMPDEST PUSH1 0x0 DUP3 SWAP1 POP PUSH1 0x1 PUSH1 0x2 ADD PUSH1 0x40 MLOAD DUP1 DUP3 DUP1 SLOAD PUSH1 0x1 DUP2 PUSH1 0x1 AND ISZERO PUSH2 0x100 MUL SUB AND PUSH1 0x2 SWAP1 DIV DUP1 ISZERO PUSH2 0x1383 JUMPI DUP1 PUSH1 0x1F LT PUSH2 0x1361 JUMPI PUSH2 0x100 DUP1 DUP4 SLOAD DIV MUL DUP4 MSTORE SWAP2 DUP3 ADD SWAP2 PUSH2 0x1383 JUMP JUMPDEST DUP3 ADD SWAP2 SWAP1 PUSH1 0x0 MSTORE PUSH1 0x20 PUSH1 0x0 KECCAK256 SWAP1 JUMPDEST DUP2 SLOAD DUP2 MSTORE SWAP1 PUSH1 0x1 ADD SWAP1 PUSH1 0x20 ADD DUP1 DUP4 GT PUSH2 0x136F JUMPI JUMPDEST POP POP PUSH1 0x40 DUP1 MLOAD SWAP2 DUP3 SWAP1 SUB DUP3 KECCAK256 PUSH1 0x1 PUSH1 0x1 PUSH1 0xA0 SHL SUB DUP9 AND DUP1 DUP5 MSTORE PUSH1 0x20 DUP5 ADD DUP9 SWAP1 MSTORE DUP3 MLOAD SWAP2 SWAP6 POP SWAP4 POP CALLER SWAP3 PUSH1 0x0 DUP1 MLOAD PUSH1 0x20 PUSH2 0x211D DUP4 CODECOPY DUP2 MLOAD SWAP2 MSTORE SWAP3 SWAP1 DUP3 SWAP1 SUB ADD SWAP1 LOG4 DUP1 PUSH1 0x1 PUSH1 0x1 PUSH1 0xA0 SHL SUB AND PUSH4 0x42966C68 DUP4 PUSH1 0x40 MLOAD DUP3 PUSH4 0xFFFFFFFF AND PUSH1 0xE0 SHL DUP2 MSTORE PUSH1 0x4 ADD DUP1 DUP3 DUP2 MSTORE PUSH1 0x20 ADD SWAP2 POP POP PUSH1 0x0 PUSH1 0x40 MLOAD DUP1 DUP4 SUB DUP2 PUSH1 0x0 DUP8 DUP1 EXTCODESIZE ISZERO DUP1 ISZERO PUSH2 0x1409 JUMPI PUSH1 0x0 DUP1 REVERT JUMPDEST POP GAS CALL ISZERO DUP1 ISZERO PUSH2 0x141D JUMPI RETURNDATASIZE PUSH1 0x0 DUP1 RETURNDATACOPY RETURNDATASIZE PUSH1 0x0 REVERT JUMPDEST POP POP POP POP POP POP POP JUMP JUMPDEST PUSH2 0x142F CALLER PUSH2 0x1ED5 JUMP JUMPDEST DUP1 PUSH2 0x143D JUMPI POP PUSH2 0x143D PUSH2 0x1A18 JUMP JUMPDEST PUSH2 0x1478 JUMPI PUSH1 0x40 MLOAD PUSH3 0x461BCD PUSH1 0xE5 SHL DUP2 MSTORE PUSH1 0x4 ADD DUP1 DUP1 PUSH1 0x20 ADD DUP3 DUP2 SUB DUP3 MSTORE PUSH1 0x23 DUP2 MSTORE PUSH1 0x20 ADD DUP1 PUSH2 0x20FA PUSH1 0x23 SWAP2 CODECOPY PUSH1 0x40 ADD SWAP2 POP POP PUSH1 0x40 MLOAD DUP1 SWAP2 SUB SWAP1 REVERT JUMPDEST PUSH1 0x0 DUP6 SWAP1 POP PUSH1 0x1 PUSH1 0x4 ADD PUSH1 0x40 MLOAD DUP1 DUP3 DUP1 SLOAD PUSH1 0x1 DUP2 PUSH1 0x1 AND ISZERO PUSH2 0x100 MUL SUB AND PUSH1 0x2 SWAP1 DIV DUP1 ISZERO PUSH2 0x14DD JUMPI DUP1 PUSH1 0x1F LT PUSH2 0x14BB JUMPI PUSH2 0x100 DUP1 DUP4 SLOAD DIV MUL DUP4 MSTORE SWAP2 DUP3 ADD SWAP2 PUSH2 0x14DD JUMP JUMPDEST DUP3 ADD SWAP2 SWAP1 PUSH1 0x0 MSTORE PUSH1 0x20 PUSH1 0x0 KECCAK256 SWAP1 JUMPDEST DUP2 SLOAD DUP2 MSTORE SWAP1 PUSH1 0x1 ADD SWAP1 PUSH1 0x20 ADD DUP1 DUP4 GT PUSH2 0x14C9 JUMPI JUMPDEST POP POP PUSH1 0x40 DUP1 MLOAD SWAP2 DUP3 SWAP1 SUB DUP3 KECCAK256 PUSH1 0x1 PUSH1 0x1 PUSH1 0xA0 SHL SUB DUP12 AND DUP1 DUP5 MSTORE PUSH1 0x20 DUP5 ADD DUP10 SWAP1 MSTORE DUP3 MLOAD SWAP2 SWAP6 POP SWAP4 POP CALLER SWAP3 PUSH1 0x0 DUP1 MLOAD PUSH1 0x20 PUSH2 0x211D DUP4 CODECOPY DUP2 MLOAD SWAP2 MSTORE SWAP3 SWAP1 DUP3 SWAP1 SUB ADD SWAP1 LOG4 PUSH1 0x40 MLOAD PUSH4 0x5C46A7EF PUSH1 0xE1 SHL DUP2 MSTORE PUSH1 0x1 PUSH1 0x1 PUSH1 0xA0 SHL SUB DUP7 DUP2 AND PUSH1 0x4 DUP4 ADD SWAP1 DUP2 MSTORE DUP7 DUP3 AND PUSH1 0x24 DUP5 ADD MSTORE PUSH1 0x44 DUP4 ADD DUP7 SWAP1 MSTORE PUSH1 0x80 PUSH1 0x64 DUP5 ADD SWAP1 DUP2 MSTORE DUP6 MLOAD PUSH1 0x84 DUP6 ADD MSTORE DUP6 MLOAD SWAP3 DUP6 AND SWAP4 PUSH4 0xB88D4FDE SWAP4 DUP11 SWAP4 DUP11 SWAP4 DUP11 SWAP4 DUP11 SWAP4 PUSH1 0xA4 SWAP1 SWAP2 ADD SWAP1 PUSH1 0x20 DUP6 ADD SWAP1 DUP1 DUP4 DUP4 PUSH1 0x0 JUMPDEST DUP4 DUP2 LT ISZERO PUSH2 0x1598 JUMPI DUP2 DUP2 ADD MLOAD DUP4 DUP3 ADD MSTORE PUSH1 0x20 ADD PUSH2 0x1580 JUMP JUMPDEST POP POP POP POP SWAP1 POP SWAP1 DUP2 ADD SWAP1 PUSH1 0x1F AND DUP1 ISZERO PUSH2 0x15C5 JUMPI DUP1 DUP3 SUB DUP1 MLOAD PUSH1 0x1 DUP4 PUSH1 0x20 SUB PUSH2 0x100 EXP SUB NOT AND DUP2 MSTORE PUSH1 0x20 ADD SWAP2 POP JUMPDEST POP SWAP6 POP POP POP POP POP POP PUSH1 0x0 PUSH1 0x40 MLOAD DUP1 DUP4 SUB DUP2 PUSH1 0x0 DUP8 DUP1 EXTCODESIZE ISZERO DUP1 ISZERO PUSH2 0x15E7 JUMPI PUSH1 0x0 DUP1 REVERT JUMPDEST POP GAS CALL ISZERO DUP1 ISZERO PUSH2 0x15FB JUMPI RETURNDATASIZE PUSH1 0x0 DUP1 RETURNDATACOPY RETURNDATASIZE PUSH1 0x0 REVERT JUMPDEST POP POP POP POP POP POP POP POP POP POP JUMP JUMPDEST PUSH2 0x1610 CALLER PUSH2 0x1ED5 JUMP JUMPDEST DUP1 PUSH2 0x161E JUMPI POP PUSH2 0x161E PUSH2 0x1A18 JUMP JUMPDEST PUSH2 0x1659 JUMPI PUSH1 0x40 MLOAD PUSH3 0x461BCD PUSH1 0xE5 SHL DUP2 MSTORE PUSH1 0x4 ADD DUP1 DUP1 PUSH1 0x20 ADD DUP3 DUP2 SUB DUP3 MSTORE PUSH1 0x23 DUP2 MSTORE PUSH1 0x20 ADD DUP1 PUSH2 0x20FA PUSH1 0x23 SWAP2 CODECOPY PUSH1 0x40 ADD SWAP2 POP POP PUSH1 0x40 MLOAD DUP1 SWAP2 SUB SWAP1 REVERT JUMPDEST PUSH1 0x0 DUP5 SWAP1 POP PUSH1 0x1 PUSH1 0x4 ADD PUSH1 0x40 MLOAD DUP1 DUP3 DUP1 SLOAD PUSH1 0x1 DUP2 PUSH1 0x1 AND ISZERO PUSH2 0x100 MUL SUB AND PUSH1 0x2 SWAP1 DIV DUP1 ISZERO PUSH2 0x16BE JUMPI DUP1 PUSH1 0x1F LT PUSH2 0x169C JUMPI PUSH2 0x100 DUP1 DUP4 SLOAD DIV MUL DUP4 MSTORE SWAP2 DUP3 ADD SWAP2 PUSH2 0x16BE JUMP JUMPDEST DUP3 ADD SWAP2 SWAP1 PUSH1 0x0 MSTORE PUSH1 0x20 PUSH1 0x0 KECCAK256 SWAP1 JUMPDEST DUP2 SLOAD DUP2 MSTORE SWAP1 PUSH1 0x1 ADD SWAP1 PUSH1 0x20 ADD DUP1 DUP4 GT PUSH2 0x16AA JUMPI JUMPDEST POP POP PUSH1 0x40 DUP1 MLOAD SWAP2 DUP3 SWAP1 SUB DUP3 KECCAK256 PUSH1 0x1 PUSH1 0x1 PUSH1 0xA0 SHL SUB DUP11 AND DUP1 DUP5 MSTORE PUSH1 0x20 DUP5 ADD DUP9 SWAP1 MSTORE DUP3 MLOAD SWAP2 SWAP6 POP SWAP4 POP CALLER SWAP3 PUSH1 0x0 DUP1 MLOAD PUSH1 0x20 PUSH2 0x211D DUP4 CODECOPY DUP2 MLOAD SWAP2 MSTORE SWAP3 SWAP1 DUP3 SWAP1 SUB ADD SWAP1 LOG4 PUSH1 0x40 DUP1 MLOAD PUSH4 0x21421707 PUSH1 0xE1 SHL DUP2 MSTORE PUSH1 0x1 PUSH1 0x1 PUSH1 0xA0 SHL SUB DUP7 DUP2 AND PUSH1 0x4 DUP4 ADD MSTORE DUP6 DUP2 AND PUSH1 0x24 DUP4 ADD MSTORE PUSH1 0x44 DUP3 ADD DUP6 SWAP1 MSTORE SWAP2 MLOAD SWAP2 DUP4 AND SWAP2 PUSH4 0x42842E0E SWAP2 PUSH1 0x64 DUP1 DUP3 ADD SWAP3 PUSH1 0x0 SWAP3 SWAP1 SWAP2 SWAP1 DUP3 SWAP1 SUB ADD DUP2 DUP4 DUP8 DUP1 EXTCODESIZE ISZERO DUP1 ISZERO PUSH2 0x1758 JUMPI PUSH1 0x0 DUP1 REVERT JUMPDEST POP GAS CALL ISZERO DUP1 ISZERO PUSH2 0x176C JUMPI RETURNDATASIZE PUSH1 0x0 DUP1 RETURNDATACOPY RETURNDATASIZE PUSH1 0x0 REVERT JUMPDEST POP POP POP POP POP POP POP POP POP JUMP JUMPDEST PUSH2 0x177F PUSH2 0x1A18 JUMP JUMPDEST PUSH2 0x17D0 JUMPI PUSH1 0x40 DUP1 MLOAD PUSH3 0x461BCD PUSH1 0xE5 SHL DUP2 MSTORE PUSH1 0x20 PUSH1 0x4 DUP3 ADD DUP2 SWAP1 MSTORE PUSH1 0x24 DUP3 ADD MSTORE PUSH32 0x4F776E61626C653A2063616C6C6572206973206E6F7420746865206F776E6572 PUSH1 0x44 DUP3 ADD MSTORE SWAP1 MLOAD SWAP1 DUP2 SWAP1 SUB PUSH1 0x64 ADD SWAP1 REVERT JUMPDEST PUSH2 0x17D9 DUP2 PUSH2 0x1ED5 JUMP JUMPDEST PUSH2 0x182D JUMPI PUSH1 0x1B DUP1 SLOAD PUSH1 0x1 DUP2 ADD DUP3 SSTORE PUSH1 0x0 SWAP2 SWAP1 SWAP2 MSTORE PUSH32 0x3AD8AA4F87544323A9D1E5DD902F40C356527A7955687113DB5F9A85AD579DC1 ADD DUP1 SLOAD PUSH1 0x1 PUSH1 0x1 PUSH1 0xA0 SHL SUB NOT AND PUSH1 0x1 PUSH1 0x1 PUSH1 0xA0 SHL SUB DUP4 AND OR SWAP1 SSTORE PUSH2 0x1872 JUMP JUMPDEST PUSH1 0x40 DUP1 MLOAD PUSH3 0x461BCD PUSH1 0xE5 SHL DUP2 MSTORE PUSH1 0x20 PUSH1 0x4 DUP3 ADD MSTORE PUSH1 0x15 PUSH1 0x24 DUP3 ADD MSTORE PUSH21 0x18591B5A5B88185B1C9958591E481A5B881B1A5CDD PUSH1 0x5A SHL PUSH1 0x44 DUP3 ADD MSTORE SWAP1 MLOAD SWAP1 DUP2 SWAP1 SUB PUSH1 0x64 ADD SWAP1 REVERT JUMPDEST PUSH1 0x40 DUP1 MLOAD PUSH1 0x1 PUSH1 0x1 PUSH1 0xA0 SHL SUB DUP4 AND DUP2 MSTORE TIMESTAMP PUSH1 0x20 DUP3 ADD MSTORE DUP2 MLOAD PUSH32 0x723C2B747529CA7F5EB53A74808F4A8B9BF264F0FC450FD904900151DA74548A SWAP3 SWAP2 DUP2 SWAP1 SUB SWAP1 SWAP2 ADD SWAP1 LOG1 POP JUMP JUMPDEST PUSH2 0x18C1 CALLER PUSH2 0x1ED5 JUMP JUMPDEST DUP1 PUSH2 0x18CF JUMPI POP PUSH2 0x18CF PUSH2 0x1A18 JUMP JUMPDEST PUSH2 0x190A JUMPI PUSH1 0x40 MLOAD PUSH3 0x461BCD PUSH1 0xE5 SHL DUP2 MSTORE PUSH1 0x4 ADD DUP1 DUP1 PUSH1 0x20 ADD DUP3 DUP2 SUB DUP3 MSTORE PUSH1 0x23 DUP2 MSTORE PUSH1 0x20 ADD DUP1 PUSH2 0x20FA PUSH1 0x23 SWAP2 CODECOPY PUSH1 0x40 ADD SWAP2 POP POP PUSH1 0x40 MLOAD DUP1 SWAP2 SUB SWAP1 REVERT JUMPDEST PUSH1 0x0 DUP5 SWAP1 POP PUSH1 0x1 PUSH1 0x5 ADD PUSH1 0x40 MLOAD DUP1 DUP3 DUP1 SLOAD PUSH1 0x1 DUP2 PUSH1 0x1 AND ISZERO PUSH2 0x100 MUL SUB AND PUSH1 0x2 SWAP1 DIV DUP1 ISZERO PUSH2 0x196F JUMPI DUP1 PUSH1 0x1F LT PUSH2 0x194D JUMPI PUSH2 0x100 DUP1 DUP4 SLOAD DIV MUL DUP4 MSTORE SWAP2 DUP3 ADD SWAP2 PUSH2 0x196F JUMP JUMPDEST DUP3 ADD SWAP2 SWAP1 PUSH1 0x0 MSTORE PUSH1 0x20 PUSH1 0x0 KECCAK256 SWAP1 JUMPDEST DUP2 SLOAD DUP2 MSTORE SWAP1 PUSH1 0x1 ADD SWAP1 PUSH1 0x20 ADD DUP1 DUP4 GT PUSH2 0x195B JUMPI JUMPDEST POP POP PUSH1 0x40 DUP1 MLOAD SWAP2 DUP3 SWAP1 SUB DUP3 KECCAK256 PUSH1 0x1 PUSH1 0x1 PUSH1 0xA0 SHL SUB DUP11 AND DUP1 DUP5 MSTORE PUSH1 0x20 DUP5 ADD DUP9 SWAP1 MSTORE DUP3 MLOAD SWAP2 SWAP6 POP SWAP4 POP CALLER SWAP3 PUSH1 0x0 DUP1 MLOAD PUSH1 0x20 PUSH2 0x211D DUP4 CODECOPY DUP2 MLOAD SWAP2 MSTORE SWAP3 SWAP1 DUP3 SWAP1 SUB ADD SWAP1 LOG4 PUSH1 0x40 DUP1 MLOAD PUSH4 0x23B872DD PUSH1 0xE0 SHL DUP2 MSTORE PUSH1 0x1 PUSH1 0x1 PUSH1 0xA0 SHL SUB DUP7 DUP2 AND PUSH1 0x4 DUP4 ADD MSTORE DUP6 DUP2 AND PUSH1 0x24 DUP4 ADD MSTORE PUSH1 0x44 DUP3 ADD DUP6 SWAP1 MSTORE SWAP2 MLOAD SWAP2 DUP4 AND SWAP2 PUSH4 0x23B872DD SWAP2 PUSH1 0x64 DUP1 DUP3 ADD SWAP3 PUSH1 0x0 SWAP3 SWAP1 SWAP2 SWAP1 DUP3 SWAP1 SUB ADD DUP2 DUP4 DUP8 DUP1 EXTCODESIZE ISZERO DUP1 ISZERO PUSH2 0x1758 JUMPI PUSH1 0x0 DUP1 REVERT JUMPDEST PUSH1 0x0 SLOAD PUSH1 0x1 PUSH1 0x1 PUSH1 0xA0 SHL SUB AND SWAP1 JUMP JUMPDEST PUSH1 0x0 SLOAD PUSH1 0x1 PUSH1 0x1 PUSH1 0xA0 SHL SUB AND CALLER EQ SWAP1 JUMP JUMPDEST PUSH2 0x1A32 CALLER PUSH2 0x1ED5 JUMP JUMPDEST DUP1 PUSH2 0x1A40 JUMPI POP PUSH2 0x1A40 PUSH2 0x1A18 JUMP JUMPDEST PUSH2 0x1A7B JUMPI PUSH1 0x40 MLOAD PUSH3 0x461BCD PUSH1 0xE5 SHL DUP2 MSTORE PUSH1 0x4 ADD DUP1 DUP1 PUSH1 0x20 ADD DUP3 DUP2 SUB DUP3 MSTORE PUSH1 0x23 DUP2 MSTORE PUSH1 0x20 ADD DUP1 PUSH2 0x20FA PUSH1 0x23 SWAP2 CODECOPY PUSH1 0x40 ADD SWAP2 POP POP PUSH1 0x40 MLOAD DUP1 SWAP2 SUB SWAP1 REVERT JUMPDEST PUSH1 0x40 DUP1 MLOAD PUSH4 0x39509351 PUSH1 0xE0 SHL DUP2 MSTORE PUSH1 0x1 PUSH1 0x1 PUSH1 0xA0 SHL SUB DUP5 DUP2 AND PUSH1 0x4 DUP4 ADD MSTORE PUSH1 0x24 DUP3 ADD DUP5 SWAP1 MSTORE SWAP2 MLOAD DUP6 SWAP3 DUP4 AND SWAP2 PUSH4 0x39509351 SWAP2 PUSH1 0x44 DUP1 DUP4 ADD SWAP3 PUSH1 0x0 SWAP3 SWAP2 SWAP1 DUP3 SWAP1 SUB ADD DUP2 DUP4 DUP8 DUP1 EXTCODESIZE ISZERO DUP1 ISZERO PUSH2 0x1ACD JUMPI PUSH1 0x0 DUP1 REVERT JUMPDEST POP GAS CALL ISZERO DUP1 ISZERO PUSH2 0x1AE1 JUMPI RETURNDATASIZE PUSH1 0x0 DUP1 RETURNDATACOPY RETURNDATASIZE PUSH1 0x0 REVERT JUMPDEST POP POP POP POP PUSH1 0x1 PUSH1 0x15 ADD PUSH1 0x40 MLOAD DUP1 DUP3 DUP1 SLOAD PUSH1 0x1 DUP2 PUSH1 0x1 AND ISZERO PUSH2 0x100 MUL SUB AND PUSH1 0x2 SWAP1 DIV DUP1 ISZERO PUSH2 0x985 JUMPI DUP1 PUSH1 0x1F LT PUSH2 0x963 JUMPI PUSH2 0x100 DUP1 DUP4 SLOAD DIV MUL DUP4 MSTORE SWAP2 DUP3 ADD SWAP2 PUSH2 0x985 JUMP JUMPDEST PUSH2 0x1B2C CALLER PUSH2 0x1ED5 JUMP JUMPDEST DUP1 PUSH2 0x1B3A JUMPI POP PUSH2 0x1B3A PUSH2 0x1A18 JUMP JUMPDEST PUSH2 0x1B75 JUMPI PUSH1 0x40 MLOAD PUSH3 0x461BCD PUSH1 0xE5 SHL DUP2 MSTORE PUSH1 0x4 ADD DUP1 DUP1 PUSH1 0x20 ADD DUP3 DUP2 SUB DUP3 MSTORE PUSH1 0x23 DUP2 MSTORE PUSH1 0x20 ADD DUP1 PUSH2 0x20FA PUSH1 0x23 SWAP2 CODECOPY PUSH1 0x40 ADD SWAP2 POP POP PUSH1 0x40 MLOAD DUP1 SWAP2 SUB SWAP1 REVERT JUMPDEST PUSH1 0x40 DUP1 MLOAD PUSH4 0x95EA7B3 PUSH1 0xE0 SHL DUP2 MSTORE PUSH1 0x1 PUSH1 0x1 PUSH1 0xA0 SHL SUB DUP5 DUP2 AND PUSH1 0x4 DUP4 ADD MSTORE PUSH1 0x24 DUP3 ADD DUP5 SWAP1 MSTORE SWAP2 MLOAD DUP6 SWAP3 DUP4 AND SWAP2 PUSH4 0x95EA7B3 SWAP2 PUSH1 0x44 DUP1 DUP4 ADD SWAP3 PUSH1 0x0 SWAP3 SWAP2 SWAP1 DUP3 SWAP1 SUB ADD DUP2 DUP4 DUP8 DUP1 EXTCODESIZE ISZERO DUP1 ISZERO PUSH2 0x1BC7 JUMPI PUSH1 0x0 DUP1 REVERT JUMPDEST POP GAS CALL ISZERO DUP1 ISZERO PUSH2 0x1BDB JUMPI RETURNDATASIZE PUSH1 0x0 DUP1 RETURNDATACOPY RETURNDATASIZE PUSH1 0x0 REVERT JUMPDEST POP POP POP POP PUSH1 0x1 PUSH1 0x10 ADD PUSH1 0x40 MLOAD DUP1 DUP3 DUP1 SLOAD PUSH1 0x1 DUP2 PUSH1 0x1 AND ISZERO PUSH2 0x100 MUL SUB AND PUSH1 0x2 SWAP1 DIV DUP1 ISZERO PUSH2 0x985 JUMPI DUP1 PUSH1 0x1F LT PUSH2 0x963 JUMPI PUSH2 0x100 DUP1 DUP4 SLOAD DIV MUL DUP4 MSTORE SWAP2 DUP3 ADD SWAP2 PUSH2 0x985 JUMP JUMPDEST PUSH2 0x1C26 CALLER PUSH2 0x1ED5 JUMP JUMPDEST DUP1 PUSH2 0x1C34 JUMPI POP PUSH2 0x1C34 PUSH2 0x1A18 JUMP JUMPDEST PUSH2 0x1C6F JUMPI PUSH1 0x40 MLOAD PUSH3 0x461BCD PUSH1 0xE5 SHL DUP2 MSTORE PUSH1 0x4 ADD DUP1 DUP1 PUSH1 0x20 ADD DUP3 DUP2 SUB DUP3 MSTORE PUSH1 0x23 DUP2 MSTORE PUSH1 0x20 ADD DUP1 PUSH2 0x20FA PUSH1 0x23 SWAP2 CODECOPY PUSH1 0x40 ADD SWAP2 POP POP PUSH1 0x40 MLOAD DUP1 SWAP2 SUB SWAP1 REVERT JUMPDEST PUSH1 0x40 MLOAD PUSH1 0x2 DUP1 SLOAD DUP6 SWAP3 SWAP1 DUP2 SWAP1 DUP4 SWAP1 PUSH1 0x0 NOT PUSH2 0x100 PUSH1 0x1 DUP4 AND ISZERO MUL ADD AND DUP2 SWAP1 DIV DUP1 ISZERO PUSH2 0x1CD1 JUMPI DUP1 PUSH1 0x1F LT PUSH2 0x1CAF JUMPI PUSH2 0x100 DUP1 DUP4 SLOAD DIV MUL DUP4 MSTORE SWAP2 DUP3 ADD SWAP2 PUSH2 0x1CD1 JUMP JUMPDEST DUP3 ADD SWAP2 SWAP1 PUSH1 0x0 MSTORE PUSH1 0x20 PUSH1 0x0 KECCAK256 SWAP1 JUMPDEST DUP2 SLOAD DUP2 MSTORE SWAP1 PUSH1 0x1 ADD SWAP1 PUSH1 0x20 ADD DUP1 DUP4 GT PUSH2 0x1CBD JUMPI JUMPDEST POP POP PUSH1 0x40 DUP1 MLOAD SWAP2 DUP3 SWAP1 SUB DUP3 KECCAK256 PUSH1 0x1 PUSH1 0x1 PUSH1 0xA0 SHL SUB DUP10 AND DUP1 DUP5 MSTORE PUSH1 0x20 DUP5 ADD DUP9 SWAP1 MSTORE DUP3 MLOAD SWAP2 SWAP6 POP SWAP4 POP CALLER SWAP3 PUSH1 0x0 DUP1 MLOAD PUSH1 0x20 PUSH2 0x211D DUP4 CODECOPY DUP2 MLOAD SWAP2 MSTORE SWAP3 SWAP1 DUP3 SWAP1 SUB ADD SWAP1 LOG4 DUP1 PUSH1 0x1 PUSH1 0x1 PUSH1 0xA0 SHL SUB AND PUSH4 0xA9059CBB DUP5 DUP5 PUSH1 0x40 MLOAD DUP4 PUSH4 0xFFFFFFFF AND PUSH1 0xE0 SHL DUP2 MSTORE PUSH1 0x4 ADD DUP1 DUP4 PUSH1 0x1 PUSH1 0x1 PUSH1 0xA0 SHL SUB AND PUSH1 0x1 PUSH1 0x1 PUSH1 0xA0 SHL SUB AND DUP2 MSTORE PUSH1 0x20 ADD DUP3 DUP2 MSTORE PUSH1 0x20 ADD SWAP3 POP POP POP PUSH1 0x0 PUSH1 0x40 MLOAD DUP1 DUP4 SUB DUP2 PUSH1 0x0 DUP8 DUP1 EXTCODESIZE ISZERO DUP1 ISZERO PUSH2 0xCC9 JUMPI PUSH1 0x0 DUP1 REVERT JUMPDEST PUSH2 0x1D7A CALLER PUSH2 0x1ED5 JUMP JUMPDEST DUP1 PUSH2 0x1D88 JUMPI POP PUSH2 0x1D88 PUSH2 0x1A18 JUMP JUMPDEST PUSH2 0x1DC3 JUMPI PUSH1 0x40 MLOAD PUSH3 0x461BCD PUSH1 0xE5 SHL DUP2 MSTORE PUSH1 0x4 ADD DUP1 DUP1 PUSH1 0x20 ADD DUP3 DUP2 SUB DUP3 MSTORE PUSH1 0x23 DUP2 MSTORE PUSH1 0x20 ADD DUP1 PUSH2 0x20FA PUSH1 0x23 SWAP2 CODECOPY PUSH1 0x40 ADD SWAP2 POP POP PUSH1 0x40 MLOAD DUP1 SWAP2 SUB SWAP1 REVERT JUMPDEST PUSH1 0x40 DUP1 MLOAD PUSH4 0x66188463 PUSH1 0xE0 SHL DUP2 MSTORE PUSH1 0x1 PUSH1 0x1 PUSH1 0xA0 SHL SUB DUP5 DUP2 AND PUSH1 0x4 DUP4 ADD MSTORE PUSH1 0x24 DUP3 ADD DUP5 SWAP1 MSTORE SWAP2 MLOAD DUP6 SWAP3 DUP4 AND SWAP2 PUSH4 0x66188463 SWAP2 PUSH1 0x44 DUP1 DUP4 ADD SWAP3 PUSH1 0x0 SWAP3 SWAP2 SWAP1 DUP3 SWAP1 SUB ADD DUP2 DUP4 DUP8 DUP1 EXTCODESIZE ISZERO DUP1 ISZERO PUSH2 0x90D JUMPI PUSH1 0x0 DUP1 REVERT JUMPDEST PUSH2 0x1E1D PUSH2 0x1A18 JUMP JUMPDEST PUSH2 0x1E6E JUMPI PUSH1 0x40 DUP1 MLOAD PUSH3 0x461BCD PUSH1 0xE5 SHL DUP2 MSTORE PUSH1 0x20 PUSH1 0x4 DUP3 ADD DUP2 SWAP1 MSTORE PUSH1 0x24 DUP3 ADD MSTORE PUSH32 0x4F776E61626C653A2063616C6C6572206973206E6F7420746865206F776E6572 PUSH1 0x44 DUP3 ADD MSTORE SWAP1 MLOAD SWAP1 DUP2 SWAP1 SUB PUSH1 0x64 ADD SWAP1 REVERT JUMPDEST PUSH1 0x1 PUSH1 0x1 PUSH1 0xA0 SHL SUB DUP2 AND PUSH2 0x1EB3 JUMPI PUSH1 0x40 MLOAD PUSH3 0x461BCD PUSH1 0xE5 SHL DUP2 MSTORE PUSH1 0x4 ADD DUP1 DUP1 PUSH1 0x20 ADD DUP3 DUP2 SUB DUP3 MSTORE PUSH1 0x26 DUP2 MSTORE PUSH1 0x20 ADD DUP1 PUSH2 0x20D4 PUSH1 0x26 SWAP2 CODECOPY PUSH1 0x40 ADD SWAP2 POP POP PUSH1 0x40 MLOAD DUP1 SWAP2 SUB SWAP1 REVERT JUMPDEST PUSH1 0x0 DUP1 SLOAD PUSH1 0x1 PUSH1 0x1 PUSH1 0xA0 SHL SUB NOT AND PUSH1 0x1 PUSH1 0x1 PUSH1 0xA0 SHL SUB SWAP3 SWAP1 SWAP3 AND SWAP2 SWAP1 SWAP2 OR SWAP1 SSTORE JUMP JUMPDEST PUSH1 0x0 DUP1 JUMPDEST PUSH1 0x1B SLOAD DUP2 LT ISZERO PUSH2 0x1F21 JUMPI PUSH1 0x1B DUP2 DUP2 SLOAD DUP2 LT PUSH2 0x1EF0 JUMPI INVALID JUMPDEST PUSH1 0x0 SWAP2 DUP3 MSTORE PUSH1 0x20 SWAP1 SWAP2 KECCAK256 ADD SLOAD PUSH1 0x1 PUSH1 0x1 PUSH1 0xA0 SHL SUB DUP5 DUP2 AND SWAP2 AND EQ ISZERO PUSH2 0x1F19 JUMPI PUSH1 0x1 SWAP2 POP POP PUSH2 0x1F27 JUMP JUMPDEST PUSH1 0x1 ADD PUSH2 0x1ED9 JUMP JUMPDEST POP PUSH1 0x0 SWAP1 POP JUMPDEST SWAP2 SWAP1 POP JUMP JUMPDEST PUSH2 0x1F35 CALLER PUSH2 0x1ED5 JUMP JUMPDEST DUP1 PUSH2 0x1F43 JUMPI POP PUSH2 0x1F43 PUSH2 0x1A18 JUMP JUMPDEST PUSH2 0x1F7E JUMPI PUSH1 0x40 MLOAD PUSH3 0x461BCD PUSH1 0xE5 SHL DUP2 MSTORE PUSH1 0x4 ADD DUP1 DUP1 PUSH1 0x20 ADD DUP3 DUP2 SUB DUP3 MSTORE PUSH1 0x23 DUP2 MSTORE PUSH1 0x20 ADD DUP1 PUSH2 0x20FA PUSH1 0x23 SWAP2 CODECOPY PUSH1 0x40 ADD SWAP2 POP POP PUSH1 0x40 MLOAD DUP1 SWAP2 SUB SWAP1 REVERT JUMPDEST PUSH1 0x0 DUP4 SWAP1 POP PUSH1 0x1 PUSH1 0x3 ADD PUSH1 0x40 MLOAD DUP1 DUP3 DUP1 SLOAD PUSH1 0x1 DUP2 PUSH1 0x1 AND ISZERO PUSH2 0x100 MUL SUB AND PUSH1 0x2 SWAP1 DIV DUP1 ISZERO PUSH2 0x1FE3 JUMPI DUP1 PUSH1 0x1F LT PUSH2 0x1FC1 JUMPI PUSH2 0x100 DUP1 DUP4 SLOAD DIV MUL DUP4 MSTORE SWAP2 DUP3 ADD SWAP2 PUSH2 0x1FE3 JUMP JUMPDEST DUP3 ADD SWAP2 SWAP1 PUSH1 0x0 MSTORE PUSH1 0x20 PUSH1 0x0 KECCAK256 SWAP1 JUMPDEST DUP2 SLOAD DUP2 MSTORE SWAP1 PUSH1 0x1 ADD SWAP1 PUSH1 0x20 ADD DUP1 DUP4 GT PUSH2 0x1FCF JUMPI JUMPDEST POP POP PUSH1 0x40 DUP1 MLOAD SWAP2 DUP3 SWAP1 SUB DUP3 KECCAK256 PUSH1 0x1 PUSH1 0x1 PUSH1 0xA0 SHL SUB DUP10 AND DUP1 DUP5 MSTORE PUSH1 0x0 PUSH1 0x20 DUP6 ADD MSTORE DUP3 MLOAD SWAP2 SWAP6 POP SWAP4 POP CALLER SWAP3 PUSH1 0x0 DUP1 MLOAD PUSH1 0x20 PUSH2 0x211D DUP4 CODECOPY DUP2 MLOAD SWAP2 MSTORE SWAP3 SWAP1 DUP3 SWAP1 SUB ADD SWAP1 LOG4 DUP1 PUSH1 0x1 PUSH1 0x1 PUSH1 0xA0 SHL SUB AND PUSH4 0x56B01CE DUP5 DUP5 PUSH1 0x40 MLOAD DUP4 PUSH4 0xFFFFFFFF AND PUSH1 0xE0 SHL DUP2 MSTORE PUSH1 0x4 ADD DUP1 DUP1 PUSH1 0x20 ADD DUP4 DUP2 MSTORE PUSH1 0x20 ADD DUP3 DUP2 SUB DUP3 MSTORE DUP5 DUP2 DUP2 MLOAD DUP2 MSTORE PUSH1 0x20 ADD SWAP2 POP DUP1 MLOAD SWAP1 PUSH1 0x20 ADD SWAP1 DUP1 DUP4 DUP4 PUSH1 0x0 JUMPDEST DUP4 DUP2 LT ISZERO PUSH2 0x2086 JUMPI DUP2 DUP2 ADD MLOAD DUP4 DUP3 ADD MSTORE PUSH1 0x20 ADD PUSH2 0x206E JUMP JUMPDEST POP POP POP POP SWAP1 POP SWAP1 DUP2 ADD SWAP1 PUSH1 0x1F AND DUP1 ISZERO PUSH2 0x20B3 JUMPI DUP1 DUP3 SUB DUP1 MLOAD PUSH1 0x1 DUP4 PUSH1 0x20 SUB PUSH2 0x100 EXP SUB NOT AND DUP2 MSTORE PUSH1 0x20 ADD SWAP2 POP JUMPDEST POP SWAP4 POP POP POP POP PUSH1 0x0 PUSH1 0x40 MLOAD DUP1 DUP4 SUB DUP2 PUSH1 0x0 DUP8 DUP1 EXTCODESIZE ISZERO DUP1 ISZERO PUSH2 0xCC9 JUMPI PUSH1 0x0 DUP1 REVERT INVALID 0x4F PUSH24 0x6E61626C653A206E6577206F776E65722069732074686520 PUSH27 0x65726F206164647265737341646D696E4D616E616765723A206164 PUSH14 0x696E20616E64206F776E6572206F PUSH15 0x6C792E32A9EEB55EA56EB60BADFB66 TIMESTAMP 0xD5 0xB9 0x2B 0xE3 JUMPDEST PUSH14 0xA6F74892C12D0E14A50DFC2BACA2 PUSH6 0x627A7A723158 KECCAK256 0xA8 SDIV PUSH19 0x4C926B654ECA45258C855EAAB6FE7A5A73C666 MLOAD 0x21 0xD7 0x5C MUL SWAP1 0xD3 0x21 LOG1 0xD2 PUSH5 0x736F6C6343 STOP SDIV GT STOP ORIGIN "
				},
				"gasEstimates": {
					"creation": {
						"codeDepositCost": "1712200",
						"executionCost": "infinite",
						"totalCost": "infinite"
					},
					"external": {
						"addAdmin(address)": "infinite",
						"adminExist(address)": "infinite",
						"admins(uint256)": "2038",
						"burnNFT(address,uint256)": "infinite",
						"erc20Approve(address,address,uint256)": "infinite",
						"erc20DecreaseAllowance(address,address,uint256)": "infinite",
						"erc20DecreaseApproval(address,address,uint256)": "infinite",
						"erc20IncreaseAllowance(address,address,uint256)": "infinite",
						"erc20IncreaseApproval(address,address,uint256)": "infinite",
						"erc20Transfer(address,address,uint256)": "infinite",
						"erc20TransferFrom(address,address,address,uint256)": "infinite",
						"erc721Approve(address,address,uint256)": "infinite",
						"erc721Burn(address,uint256)": "infinite",
						"erc721Mint(address,string,uint256)": "infinite",
						"erc721SafeTransferFrom(address,address,address,uint256)": "infinite",
						"erc721SafeTransferFrom(address,address,address,uint256,bytes)": "infinite",
						"erc721Transfer(address,address,uint256)": "infinite",
						"erc721TransferFrom(address,address,address,uint256)": "infinite",
						"getAdmins()": "infinite",
						"isOwner()": "1138",
						"owner()": "1126",
						"removeAdmin(address)": "infinite",
						"transferOwnership(address)": "infinite"
					}
				},
				"methodIdentifiers": {
					"addAdmin(address)": "70480275",
					"adminExist(address)": "fba08d45",
					"admins(uint256)": "14bfd6d0",
					"burnNFT(address,uint256)": "47fcf018",
					"erc20Approve(address,address,uint256)": "ace561a8",
					"erc20DecreaseAllowance(address,address,uint256)": "0c82ea1a",
					"erc20DecreaseApproval(address,address,uint256)": "c347f69b",
					"erc20IncreaseAllowance(address,address,uint256)": "9dc6b78d",
					"erc20IncreaseApproval(address,address,uint256)": "1afffec0",
					"erc20Transfer(address,address,uint256)": "3790767d",
					"erc20TransferFrom(address,address,address,uint256)": "0a1b0b91",
					"erc721Approve(address,address,uint256)": "18fa0653",
					"erc721Burn(address,uint256)": "485f952e",
					"erc721Mint(address,string,uint256)": "fddea900",
					"erc721SafeTransferFrom(address,address,address,uint256)": "4a0aafda",
					"erc721SafeTransferFrom(address,address,address,uint256,bytes)": "488b0f7d",
					"erc721Transfer(address,address,uint256)": "b6011b4c",
					"erc721TransferFrom(address,address,address,uint256)": "8450ebe4",
					"getAdmins()": "31ae450b",
					"isOwner()": "8f32d59b",
					"owner()": "8da5cb5b",
					"removeAdmin(address)": "1785f53c",
					"transferOwnership(address)": "f2fde38b"
				}
			},
			"storageLayout": {
				"storage": [
					{
						"astId": 1726,
						"contract": "Admin.sol:Admin",
						"label": "_owner",
						"offset": 0,
						"slot": "0",
						"type": "t_address"
					},
					{
						"astId": 208,
						"contract": "Admin.sol:Admin",
						"label": "functionNames",
						"offset": 0,
						"slot": "1",
						"type": "t_struct(FunctionNames)178_storage"
					},
					{
						"astId": 211,
						"contract": "Admin.sol:Admin",
						"label": "admins",
						"offset": 0,
						"slot": "27",
						"type": "t_array(t_address)dyn_storage"
					}
				],
				"types": {
					"t_address": {
						"encoding": "inplace",
						"label": "address",
						"numberOfBytes": "20"
					},
					"t_array(t_address)dyn_storage": {
						"base": "t_address",
						"encoding": "dynamic_array",
						"label": "address[]",
						"numberOfBytes": "32"
					},
					"t_string_storage": {
						"encoding": "bytes",
						"label": "string",
						"numberOfBytes": "32"
					},
					"t_struct(FunctionNames)178_storage": {
						"encoding": "inplace",
						"label": "struct Admin.FunctionNames",
						"members": [
							{
								"astId": 127,
								"contract": "Admin.sol:Admin",
								"label": "approve",
								"offset": 0,
								"slot": "0",
								"type": "t_string_storage"
							},
							{
								"astId": 129,
								"contract": "Admin.sol:Admin",
								"label": "transfer",
								"offset": 0,
								"slot": "1",
								"type": "t_string_storage"
							},
							{
								"astId": 131,
								"contract": "Admin.sol:Admin",
								"label": "burn",
								"offset": 0,
								"slot": "2",
								"type": "t_string_storage"
							},
							{
								"astId": 133,
								"contract": "Admin.sol:Admin",
								"label": "mint",
								"offset": 0,
								"slot": "3",
								"type": "t_string_storage"
							},
							{
								"astId": 135,
								"contract": "Admin.sol:Admin",
								"label": "safeTransferFrom",
								"offset": 0,
								"slot": "4",
								"type": "t_string_storage"
							},
							{
								"astId": 137,
								"contract": "Admin.sol:Admin",
								"label": "transferFrom",
								"offset": 0,
								"slot": "5",
								"type": "t_string_storage"
							},
							{
								"astId": 139,
								"contract": "Admin.sol:Admin",
								"label": "putOnSale",
								"offset": 0,
								"slot": "6",
								"type": "t_string_storage"
							},
							{
								"astId": 141,
								"contract": "Admin.sol:Admin",
								"label": "buy",
								"offset": 0,
								"slot": "7",
								"type": "t_string_storage"
							},
							{
								"astId": 143,
								"contract": "Admin.sol:Admin",
								"label": "bid",
								"offset": 0,
								"slot": "8",
								"type": "t_string_storage"
							},
							{
								"astId": 145,
								"contract": "Admin.sol:Admin",
								"label": "collect",
								"offset": 0,
								"slot": "9",
								"type": "t_string_storage"
							},
							{
								"astId": 147,
								"contract": "Admin.sol:Admin",
								"label": "updatePrice",
								"offset": 0,
								"slot": "10",
								"type": "t_string_storage"
							},
							{
								"astId": 149,
								"contract": "Admin.sol:Admin",
								"label": "putSaleOff",
								"offset": 0,
								"slot": "11",
								"type": "t_string_storage"
							},
							{
								"astId": 151,
								"contract": "Admin.sol:Admin",
								"label": "makeAnOffer",
								"offset": 0,
								"slot": "12",
								"type": "t_string_storage"
							},
							{
								"astId": 153,
								"contract": "Admin.sol:Admin",
								"label": "accpetOffer",
								"offset": 0,
								"slot": "13",
								"type": "t_string_storage"
							},
							{
								"astId": 155,
								"contract": "Admin.sol:Admin",
								"label": "revertOffer",
								"offset": 0,
								"slot": "14",
								"type": "t_string_storage"
							},
							{
								"astId": 157,
								"contract": "Admin.sol:Admin",
								"label": "revertAll",
								"offset": 0,
								"slot": "15",
								"type": "t_string_storage"
							},
							{
								"astId": 159,
								"contract": "Admin.sol:Admin",
								"label": "erc20Approve",
								"offset": 0,
								"slot": "16",
								"type": "t_string_storage"
							},
							{
								"astId": 161,
								"contract": "Admin.sol:Admin",
								"label": "erc20DecreaseApproval",
								"offset": 0,
								"slot": "17",
								"type": "t_string_storage"
							},
							{
								"astId": 163,
								"contract": "Admin.sol:Admin",
								"label": "erc20IncreaseApproval",
								"offset": 0,
								"slot": "18",
								"type": "t_string_storage"
							},
							{
								"astId": 165,
								"contract": "Admin.sol:Admin",
								"label": "erc20Transfer",
								"offset": 0,
								"slot": "19",
								"type": "t_string_storage"
							},
							{
								"astId": 167,
								"contract": "Admin.sol:Admin",
								"label": "erc20TransferFrom",
								"offset": 0,
								"slot": "20",
								"type": "t_string_storage"
							},
							{
								"astId": 169,
								"contract": "Admin.sol:Admin",
								"label": "erc20IncreaseAllowance",
								"offset": 0,
								"slot": "21",
								"type": "t_string_storage"
							},
							{
								"astId": 171,
								"contract": "Admin.sol:Admin",
								"label": "erc20DecreaseAllowance",
								"offset": 0,
								"slot": "22",
								"type": "t_string_storage"
							},
							{
								"astId": 173,
								"contract": "Admin.sol:Admin",
								"label": "batchListing",
								"offset": 0,
								"slot": "23",
								"type": "t_string_storage"
							},
							{
								"astId": 175,
								"contract": "Admin.sol:Admin",
								"label": "batchDelisting",
								"offset": 0,
								"slot": "24",
								"type": "t_string_storage"
							},
							{
								"astId": 177,
								"contract": "Admin.sol:Admin",
								"label": "setAddress",
								"offset": 0,
								"slot": "25",
								"type": "t_string_storage"
							}
						],
						"numberOfBytes": "832"
					}
				}
			},
			"userdoc": {
				"methods": {}
			}
		}
	}
}