{
	"data": {
		"bytecode": {
			"linkReferences": {},
			"object": "60806040526040518061034001604052806040518060400160405280600e81526020017f4552433732313a617070726f766500000000000000000000000000000000000081525081526020016040518060400160405280600f81526020017f4552433732313a7472616e73666572000000000000000000000000000000000081525081526020016040518060400160405280600b81526020017f4552433732313a6275726e00000000000000000000000000000000000000000081525081526020016040518060400160405280600b81526020017f4552433732313a6d696e7400000000000000000000000000000000000000000081525081526020016040518060400160405280601781526020017f4552433732313a736166655472616e7366657246726f6d00000000000000000081525081526020016040518060400160405280601381526020017f4552433732313a7472616e7366657246726f6d0000000000000000000000000081525081526020016040518060400160405280601081526020017f42726f6b65723a7075744f6e53616c650000000000000000000000000000000081525081526020016040518060400160405280600a81526020017f42726f6b65723a6275790000000000000000000000000000000000000000000081525081526020016040518060400160405280600a81526020017f42726f6b65723a6269640000000000000000000000000000000000000000000081525081526020016040518060400160405280600e81526020017f42726f6b65723a636f6c6c65637400000000000000000000000000000000000081525081526020016040518060400160405280601281526020017f42726f6b65723a7570646174655072696365000000000000000000000000000081525081526020016040518060400160405280601181526020017f42726f6b65723a70757453616c654f666600000000000000000000000000000081525081526020016040518060400160405280601281526020017f42726f6b65723a6d616b65416e4f66666572000000000000000000000000000081525081526020016040518060400160405280601281526020017f42726f6b65723a6163637065744f66666572000000000000000000000000000081525081526020016040518060400160405280601281526020017f42726f6b65723a7265766572744f66666572000000000000000000000000000081525081526020016040518060400160405280601081526020017f42726f6b65723a726576657274416c6c0000000000000000000000000000000081525081526020016040518060400160405280601381526020017f42726f6b65723a62617463684c697374696e670000000000000000000000000081525081526020016040518060400160405280601581526020017f42726f6b65723a626174636844656c697374696e67000000000000000000000081525081526020016040518060400160405280601181526020017f42726f6b65723a7365744164647265737300000000000000000000000000000081525081526020016040518060400160405280600d81526020017f45524332303a617070726f76650000000000000000000000000000000000000081525081526020016040518060400160405280601681526020017f45524332303a6465637265617365417070726f76616c0000000000000000000081525081526020016040518060400160405280601681526020017f45524332303a696e637265617365417070726f76616c0000000000000000000081525081526020016040518060400160405280600e81526020017f45524332303a7472616e7366657200000000000000000000000000000000000081525081526020016040518060400160405280601281526020017f45524332303a7472616e7366657246726f6d000000000000000000000000000081525081526020016040518060400160405280601781526020017f45524332303a696e637265617365416c6c6f77616e636500000000000000000081525081526020016040518060400160405280601781526020017f45524332303a6465637265617365416c6c6f77616e6365000000000000000000815250815250600260008201518160000190805190602001906200062c92919062000c89565b5060208201518160010190805190602001906200064b92919062000c89565b5060408201518160020190805190602001906200066a92919062000c89565b5060608201518160030190805190602001906200068992919062000c89565b506080820151816004019080519060200190620006a892919062000c89565b5060a0820151816005019080519060200190620006c792919062000c89565b5060c0820151816006019080519060200190620006e692919062000c89565b5060e08201518160070190805190602001906200070592919062000c89565b506101008201518160080190805190602001906200072592919062000c89565b506101208201518160090190805190602001906200074592919062000c89565b5061014082015181600a0190805190602001906200076592919062000c89565b5061016082015181600b0190805190602001906200078592919062000c89565b5061018082015181600c019080519060200190620007a592919062000c89565b506101a082015181600d019080519060200190620007c592919062000c89565b506101c082015181600e019080519060200190620007e592919062000c89565b506101e082015181600f0190805190602001906200080592919062000c89565b506102008201518160100190805190602001906200082592919062000c89565b506102208201518160110190805190602001906200084592919062000c89565b506102408201518160120190805190602001906200086592919062000c89565b506102608201518160130190805190602001906200088592919062000c89565b50610280820151816014019080519060200190620008a592919062000c89565b506102a0820151816015019080519060200190620008c592919062000c89565b506102c0820151816016019080519060200190620008e592919062000c89565b506102e08201518160170190805190602001906200090592919062000c89565b506103008201518160180190805190602001906200092592919062000c89565b506103208201518160190190805190602001906200094592919062000c89565b5050503480156200095557600080fd5b50604051620057c5380380620057c583398181016040526200097b919081019062000d4f565b60006200098d62000a8460201b60201c565b9050806000806101000a81548173ffffffffffffffffffffffffffffffffffffffff021916908373ffffffffffffffffffffffffffffffffffffffff1602179055508073ffffffffffffffffffffffffffffffffffffffff16600073ffffffffffffffffffffffffffffffffffffffff167f8be0079c531659141344cd1fd0a4f28419497f9722a3daafe3b4186f6b6457e060405160405180910390a35062000a3c3362000a8c60201b60201c565b80601c60006101000a81548173ffffffffffffffffffffffffffffffffffffffff021916908373ffffffffffffffffffffffffffffffffffffffff1602179055505062000ec8565b600033905090565b62000a9c62000af260201b60201c565b62000ade576040517f08c379a000000000000000000000000000000000000000000000000000000000815260040162000ad59062000e47565b60405180910390fd5b62000aef8162000b5860201b60201c565b50565b60008060009054906101000a900473ffffffffffffffffffffffffffffffffffffffff1673ffffffffffffffffffffffffffffffffffffffff1662000b3c62000a8460201b60201c565b73ffffffffffffffffffffffffffffffffffffffff1614905090565b600073ffffffffffffffffffffffffffffffffffffffff168173ffffffffffffffffffffffffffffffffffffffff16141562000bcb576040517f08c379a000000000000000000000000000000000000000000000000000000000815260040162000bc29062000e25565b60405180910390fd5b8073ffffffffffffffffffffffffffffffffffffffff166000809054906101000a900473ffffffffffffffffffffffffffffffffffffffff1673ffffffffffffffffffffffffffffffffffffffff167f8be0079c531659141344cd1fd0a4f28419497f9722a3daafe3b4186f6b6457e060405160405180910390a3806000806101000a81548173ffffffffffffffffffffffffffffffffffffffff021916908373ffffffffffffffffffffffffffffffffffffffff16021790555050565b828054600181600116156101000203166002900490600052602060002090601f016020900481019282601f1062000ccc57805160ff191683800117855562000cfd565b8280016001018555821562000cfd579182015b8281111562000cfc57825182559160200191906001019062000cdf565b5b50905062000d0c919062000d10565b5090565b62000d3591905b8082111562000d3157600081600090555060010162000d17565b5090565b90565b60008151905062000d498162000eae565b92915050565b60006020828403121562000d6257600080fd5b600062000d728482850162000d38565b91505092915050565b600062000d8a60268362000e69565b91507f4f776e61626c653a206e6577206f776e657220697320746865207a65726f206160008301527f64647265737300000000000000000000000000000000000000000000000000006020830152604082019050919050565b600062000df260208362000e69565b91507f4f776e61626c653a2063616c6c6572206973206e6f7420746865206f776e65726000830152602082019050919050565b6000602082019050818103600083015262000e408162000d7b565b9050919050565b6000602082019050818103600083015262000e628162000de3565b9050919050565b600082825260208201905092915050565b600062000e878262000e8e565b9050919050565b600073ffffffffffffffffffffffffffffffffffffffff82169050919050565b62000eb98162000e7a565b811462000ec557600080fd5b50565b6148ed8062000ed86000396000f3fe60806040526004361061021a5760003560e01c8063640cf87311610123578063ace561a8116100ab578063f2fde38b1161006f578063f2fde38b14610705578063f4f3b2001461072e578063fba08d4514610757578063fddea90014610794578063ff8edbdb146107bd5761021a565b8063ace561a814610645578063b6011b4c1461066e578063c0f4ed3114610697578063c347f69b146106b3578063e7ab44b4146106dc5761021a565b80638450ebe4116100f25780638450ebe4146105745780638c6ab0131461059d5780638da5cb5b146105c65780638f32d59b146105f15780639dc6b78d1461061c5761021a565b8063640cf873146104ef5780637048027514610518578063715018a6146105415780637ad157b9146105585761021a565b80633169b515116101a657806347fcf0181161017557806347fcf0181461042f578063485f952e14610458578063488b0f7d146104815780634a0aafda146104aa5780635aa8680a146104d35761021a565b80633169b515146103a857806331ae450b146103c45780633790767d146103ef5780633ccfd60b146104185761021a565b80631785f53c116101ed5780631785f53c146102e8578063179443f31461031157806317c48a701461033a57806318fa0653146103565780631afffec01461037f5761021a565b80630a1b0b911461021c5780630c82ea1a1461024557806314bfd6d01461026e578063150b7a02146102ab575b005b34801561022857600080fd5b50610243600480360361023e9190810190613806565b6107e6565b005b34801561025157600080fd5b5061026c600480360361026791908101906138f8565b610939565b005b34801561027a57600080fd5b5061029560048036036102909190810190613aa6565b610a89565b6040516102a2919061417e565b60405180910390f35b3480156102b757600080fd5b506102d260048036036102cd9190810190613947565b610ac5565b6040516102df9190614326565b60405180910390f35b3480156102f457600080fd5b5061030f600480360361030a91908101906137b4565b610ad9565b005b34801561031d57600080fd5b5061033860048036036103339190810190613af8565b610cc0565b005b610354600480360361034f9190810190613b34565b610e4d565b005b34801561036257600080fd5b5061037d600480360361037891908101906138f8565b610fdd565b005b34801561038b57600080fd5b506103a660048036036103a191908101906138f8565b61112d565b005b6103c260048036036103bd9190810190613be6565b61127d565b005b3480156103d057600080fd5b506103d9611410565b6040516103e691906142e9565b60405180910390f35b3480156103fb57600080fd5b50610416600480360361041191908101906138f8565b61149e565b005b34801561042457600080fd5b5061042d6115ee565b005b34801561043b57600080fd5b5061045660048036036104519190810190613a29565b61167e565b005b34801561046457600080fd5b5061047f600480360361047a9190810190613a29565b61193f565b005b34801561048d57600080fd5b506104a860048036036104a39190810190613869565b611a8b565b005b3480156104b657600080fd5b506104d160048036036104cc9190810190613806565b611be1565b005b6104ed60048036036104e89190810190613b83565b611d34565b005b3480156104fb57600080fd5b5061051660048036036105119190810190613d4a565b611ec7565b005b34801561052457600080fd5b5061053f600480360361053a91908101906137b4565b612066565b005b34801561054d57600080fd5b5061055661219c565b005b610572600480360361056d9190810190613c49565b6122a2565b005b34801561058057600080fd5b5061059b60048036036105969190810190613806565b612433565b005b3480156105a957600080fd5b506105c460048036036105bf9190810190613c49565b612586565b005b3480156105d257600080fd5b506105db612716565b6040516105e8919061417e565b60405180910390f35b3480156105fd57600080fd5b5061060661273f565b604051610613919061430b565b60405180910390f35b34801561062857600080fd5b50610643600480360361063e91908101906138f8565b61279d565b005b34801561065157600080fd5b5061066c600480360361066791908101906138f8565b6128ed565b005b34801561067a57600080fd5b50610695600480360361069091908101906138f8565b612a3d565b005b6106b160048036036106ac9190810190613c98565b612b8d565b005b3480156106bf57600080fd5b506106da60048036036106d591908101906138f8565b612d1e565b005b3480156106e857600080fd5b5061070360048036036106fe9190810190613af8565b612e6e565b005b34801561071157600080fd5b5061072c600480360361072791908101906137b4565b612ffb565b005b34801561073a57600080fd5b50610755600480360361075091908101906137b4565b61304e565b005b34801561076357600080fd5b5061077e600480360361077991908101906137b4565b613193565b60405161078b919061430b565b60405180910390f35b3480156107a057600080fd5b506107bb60048036036107b691908101906139c2565b613235565b005b3480156107c957600080fd5b506107e460048036036107df9190810190613ce7565b613386565b005b6107ef33613193565b806107fe57506107fd61273f565b5b61083d576040517f08c379a000000000000000000000000000000000000000000000000000000000815260040161083490614391565b60405180910390fd5b60008490508073ffffffffffffffffffffffffffffffffffffffff166323b872dd8585856040518463ffffffff1660e01b815260040161087f939291906141dd565b600060405180830381600087803b15801561089957600080fd5b505af11580156108ad573d6000803e3d6000fd5b5050505060026014016040516108c39190614167565b60405180910390208573ffffffffffffffffffffffffffffffffffffffff163373ffffffffffffffffffffffffffffffffffffffff167f32a9eeb55ea56eb60badfb6642d5b92be35b6da6f74892c12d0e14a50dfc2bac868660405161092a929190614289565b60405180910390a45050505050565b61094233613193565b80610951575061095061273f565b5b610990576040517f08c379a000000000000000000000000000000000000000000000000000000000815260040161098790614391565b60405180910390fd5b60008390508073ffffffffffffffffffffffffffffffffffffffff1663a457c2d784846040518363ffffffff1660e01b81526004016109d0929190614289565b600060405180830381600087803b1580156109ea57600080fd5b505af11580156109fe573d6000803e3d6000fd5b505050506002601601604051610a149190614167565b60405180910390208473ffffffffffffffffffffffffffffffffffffffff163373ffffffffffffffffffffffffffffffffffffffff167f32a9eeb55ea56eb60badfb6642d5b92be35b6da6f74892c12d0e14a50dfc2bac8686604051610a7b929190614289565b60405180910390a450505050565b60018181548110610a9657fe5b906000526020600020016000915054906101000a900473ffffffffffffffffffffffffffffffffffffffff1681565b600063150b7a0260e01b9050949350505050565b610ae161273f565b610b20576040517f08c379a0000000000000000000000000000000000000000000000000000000008152600401610b17906143d1565b60405180910390fd5b60008090505b600180549050811015610c83578173ffffffffffffffffffffffffffffffffffffffff1660018281548110610b5757fe5b9060005260206000200160009054906101000a900473ffffffffffffffffffffffffffffffffffffffff1673ffffffffffffffffffffffffffffffffffffffff161415610c765760018181548110610bab57fe5b9060005260206000200160009054906101000a900473ffffffffffffffffffffffffffffffffffffffff1660018080805490500381548110610be957fe5b9060005260206000200160006101000a81548173ffffffffffffffffffffffffffffffffffffffff021916908373ffffffffffffffffffffffffffffffffffffffff1602179055506001805480610c3c57fe5b6001900381819060005260206000200160006101000a81549073ffffffffffffffffffffffffffffffffffffffff02191690559055610c83565b8080600101915050610b26565b507fa0726c73cf6ad18ddb855ba65d1ddd4d7fd37d320f4e52f6b154c13d386f5fd98142604051610cb5929190614289565b60405180910390a150565b610cc933613193565b80610cd85750610cd761273f565b5b610d17576040517f08c379a0000000000000000000000000000000000000000000000000000000008152600401610d0e90614391565b60405180910390fd5b601c60009054906101000a900473ffffffffffffffffffffffffffffffffffffffff1673ffffffffffffffffffffffffffffffffffffffff1663179443f383836040518363ffffffff1660e01b8152600401610d7492919061442c565b600060405180830381600087803b158015610d8e57600080fd5b505af1158015610da2573d6000803e3d6000fd5b505050506002600b01604051610db89190614167565b6040518091039020601c60009054906101000a900473ffffffffffffffffffffffffffffffffffffffff1673ffffffffffffffffffffffffffffffffffffffff163373ffffffffffffffffffffffffffffffffffffffff167f32a9eeb55ea56eb60badfb6642d5b92be35b6da6f74892c12d0e14a50dfc2bac8486604051610e41929190614289565b60405180910390a45050565b610e5633613193565b80610e655750610e6461273f565b5b610ea4576040517f08c379a0000000000000000000000000000000000000000000000000000000008152600401610e9b90614391565b60405180910390fd5b601c60009054906101000a900473ffffffffffffffffffffffffffffffffffffffff1673ffffffffffffffffffffffffffffffffffffffff1663136a6a248385846040518463ffffffff1660e01b8152600401610f03939291906142b2565b600060405180830381600087803b158015610f1d57600080fd5b505af1158015610f31573d6000803e3d6000fd5b505050506002600e01604051610f479190614167565b6040518091039020601c60009054906101000a900473ffffffffffffffffffffffffffffffffffffffff1673ffffffffffffffffffffffffffffffffffffffff163373ffffffffffffffffffffffffffffffffffffffff167f32a9eeb55ea56eb60badfb6642d5b92be35b6da6f74892c12d0e14a50dfc2bac8587604051610fd0929190614289565b60405180910390a4505050565b610fe633613193565b80610ff55750610ff461273f565b5b611034576040517f08c379a000000000000000000000000000000000000000000000000000000000815260040161102b90614391565b60405180910390fd5b6000839050600260000160405161104b9190614167565b60405180910390208473ffffffffffffffffffffffffffffffffffffffff163373ffffffffffffffffffffffffffffffffffffffff167f32a9eeb55ea56eb60badfb6642d5b92be35b6da6f74892c12d0e14a50dfc2bac87866040516110b2929190614289565b60405180910390a48073ffffffffffffffffffffffffffffffffffffffff1663095ea7b384846040518363ffffffff1660e01b81526004016110f5929190614289565b600060405180830381600087803b15801561110f57600080fd5b505af1158015611123573d6000803e3d6000fd5b5050505050505050565b61113633613193565b80611145575061114461273f565b5b611184576040517f08c379a000000000000000000000000000000000000000000000000000000000815260040161117b90614391565b60405180910390fd5b60008390508073ffffffffffffffffffffffffffffffffffffffff1663d73dd62384846040518363ffffffff1660e01b81526004016111c4929190614289565b600060405180830381600087803b1580156111de57600080fd5b505af11580156111f2573d6000803e3d6000fd5b5050505060026012016040516112089190614167565b60405180910390208473ffffffffffffffffffffffffffffffffffffffff163373ffffffffffffffffffffffffffffffffffffffff167f32a9eeb55ea56eb60badfb6642d5b92be35b6da6f74892c12d0e14a50dfc2bac868660405161126f929190614289565b60405180910390a450505050565b61128633613193565b80611295575061129461273f565b5b6112d4576040517f08c379a00000000000000000000000000000000000000000000000000000000081526004016112cb90614391565b60405180910390fd5b601c60009054906101000a900473ffffffffffffffffffffffffffffffffffffffff1673ffffffffffffffffffffffffffffffffffffffff16633169b515858585856040518563ffffffff1660e01b8152600401611335949392919061449a565b600060405180830381600087803b15801561134f57600080fd5b505af1158015611363573d6000803e3d6000fd5b505050506002600c016040516113799190614167565b6040518091039020601c60009054906101000a900473ffffffffffffffffffffffffffffffffffffffff1673ffffffffffffffffffffffffffffffffffffffff163373ffffffffffffffffffffffffffffffffffffffff167f32a9eeb55ea56eb60badfb6642d5b92be35b6da6f74892c12d0e14a50dfc2bac8688604051611402929190614289565b60405180910390a450505050565b6060600180548060200260200160405190810160405280929190818152602001828054801561149457602002820191906000526020600020905b8160009054906101000a900473ffffffffffffffffffffffffffffffffffffffff1673ffffffffffffffffffffffffffffffffffffffff168152602001906001019080831161144a575b5050505050905090565b6114a733613193565b806114b657506114b561273f565b5b6114f5576040517f08c379a00000000000000000000000000000000000000000000000000000000081526004016114ec90614391565b60405180910390fd5b60008390508073ffffffffffffffffffffffffffffffffffffffff1663a9059cbb84846040518363ffffffff1660e01b8152600401611535929190614289565b600060405180830381600087803b15801561154f57600080fd5b505af1158015611563573d6000803e3d6000fd5b5050505060026013016040516115799190614167565b60405180910390208473ffffffffffffffffffffffffffffffffffffffff163373ffffffffffffffffffffffffffffffffffffffff167f32a9eeb55ea56eb60badfb6642d5b92be35b6da6f74892c12d0e14a50dfc2bac86866040516115e0929190614289565b60405180910390a450505050565b6115f661273f565b611635576040517f08c379a000000000000000000000000000000000000000000000000000000000815260040161162c906143d1565b60405180910390fd5b3373ffffffffffffffffffffffffffffffffffffffff166108fc479081150290604051600060405180830381858888f1935050505015801561167b573d6000803e3d6000fd5b50565b61168733613193565b80611696575061169561273f565b5b6116d5576040517f08c379a00000000000000000000000000000000000000000000000000000000081526004016116cc90614391565b60405180910390fd5b600082905060608173ffffffffffffffffffffffffffffffffffffffff1663c87b56dd846040518263ffffffff1660e01b81526004016117159190614411565b600060405180830381600087803b15801561172f57600080fd5b505af1158015611743573d6000803e3d6000fd5b505050506040513d6000823e3d601f19601f8201168201806040525061176c9190810190613a65565b90503073ffffffffffffffffffffffffffffffffffffffff168273ffffffffffffffffffffffffffffffffffffffff1663081812fc856040518263ffffffff1660e01b81526004016117be9190614411565b602060405180830381600087803b1580156117d857600080fd5b505af11580156117ec573d6000803e3d6000fd5b505050506040513d601f19601f8201168201806040525061181091908101906137dd565b73ffffffffffffffffffffffffffffffffffffffff1614611866576040517f08c379a000000000000000000000000000000000000000000000000000000000815260040161185d906143b1565b60405180910390fd5b8173ffffffffffffffffffffffffffffffffffffffff166342966c68846040518263ffffffff1660e01b815260040161189f9190614411565b600060405180830381600087803b1580156118b957600080fd5b505af11580156118cd573d6000803e3d6000fd5b505050503373ffffffffffffffffffffffffffffffffffffffff16838573ffffffffffffffffffffffffffffffffffffffff167f926b248e45dfdd4c4caec216e73ec503ce2522d3b5646c861d1b074210675d0e4285604051611931929190614592565b60405180910390a450505050565b61194833613193565b80611957575061195661273f565b5b611996576040517f08c379a000000000000000000000000000000000000000000000000000000000815260040161198d90614391565b60405180910390fd5b6000829050600280016040516119ac9190614167565b60405180910390208373ffffffffffffffffffffffffffffffffffffffff163373ffffffffffffffffffffffffffffffffffffffff167f32a9eeb55ea56eb60badfb6642d5b92be35b6da6f74892c12d0e14a50dfc2bac8686604051611a13929190614289565b60405180910390a48073ffffffffffffffffffffffffffffffffffffffff166342966c68836040518263ffffffff1660e01b8152600401611a549190614411565b600060405180830381600087803b158015611a6e57600080fd5b505af1158015611a82573d6000803e3d6000fd5b50505050505050565b611a9433613193565b80611aa35750611aa261273f565b5b611ae2576040517f08c379a0000000000000000000000000000000000000000000000000000000008152600401611ad990614391565b60405180910390fd5b60008590506002600401604051611af99190614167565b60405180910390208673ffffffffffffffffffffffffffffffffffffffff163373ffffffffffffffffffffffffffffffffffffffff167f32a9eeb55ea56eb60badfb6642d5b92be35b6da6f74892c12d0e14a50dfc2bac8987604051611b60929190614289565b60405180910390a48073ffffffffffffffffffffffffffffffffffffffff1663b88d4fde868686866040518563ffffffff1660e01b8152600401611ba79493929190614214565b600060405180830381600087803b158015611bc157600080fd5b505af1158015611bd5573d6000803e3d6000fd5b50505050505050505050565b611bea33613193565b80611bf95750611bf861273f565b5b611c38576040517f08c379a0000000000000000000000000000000000000000000000000000000008152600401611c2f90614391565b60405180910390fd5b60008490506002600401604051611c4f9190614167565b60405180910390208573ffffffffffffffffffffffffffffffffffffffff163373ffffffffffffffffffffffffffffffffffffffff167f32a9eeb55ea56eb60badfb6642d5b92be35b6da6f74892c12d0e14a50dfc2bac8886604051611cb6929190614289565b60405180910390a48073ffffffffffffffffffffffffffffffffffffffff166342842e0e8585856040518463ffffffff1660e01b8152600401611cfb939291906141dd565b600060405180830381600087803b158015611d1557600080fd5b505af1158015611d29573d6000803e3d6000fd5b505050505050505050565b611d3d33613193565b80611d4c5750611d4b61273f565b5b611d8b576040517f08c379a0000000000000000000000000000000000000000000000000000000008152600401611d8290614391565b60405180910390fd5b601c60009054906101000a900473ffffffffffffffffffffffffffffffffffffffff1673ffffffffffffffffffffffffffffffffffffffff16635aa8680a858585856040518563ffffffff1660e01b8152600401611dec9493929190614455565b600060405180830381600087803b158015611e0657600080fd5b505af1158015611e1a573d6000803e3d6000fd5b505050506002600d01604051611e309190614167565b6040518091039020601c60009054906101000a900473ffffffffffffffffffffffffffffffffffffffff1673ffffffffffffffffffffffffffffffffffffffff163373ffffffffffffffffffffffffffffffffffffffff167f32a9eeb55ea56eb60badfb6642d5b92be35b6da6f74892c12d0e14a50dfc2bac8688604051611eb9929190614289565b60405180910390a450505050565b611ed033613193565b80611edf5750611ede61273f565b5b611f1e576040517f08c379a0000000000000000000000000000000000000000000000000000000008152600401611f1590614391565b60405180910390fd5b601c60009054906101000a900473ffffffffffffffffffffffffffffffffffffffff1673ffffffffffffffffffffffffffffffffffffffff1663640cf87389898989898989896040518963ffffffff1660e01b8152600401611f879897969594939291906145c2565b600060405180830381600087803b158015611fa157600080fd5b505af1158015611fb5573d6000803e3d6000fd5b505050506002600601604051611fcb9190614167565b6040518091039020601c60009054906101000a900473ffffffffffffffffffffffffffffffffffffffff1673ffffffffffffffffffffffffffffffffffffffff163373ffffffffffffffffffffffffffffffffffffffff167f32a9eeb55ea56eb60badfb6642d5b92be35b6da6f74892c12d0e14a50dfc2bac858c604051612054929190614289565b60405180910390a45050505050505050565b61206e61273f565b6120ad576040517f08c379a00000000000000000000000000000000000000000000000000000000081526004016120a4906143d1565b60405180910390fd5b6120b681613193565b6121255760018190806001815401808255809150509060018203906000526020600020016000909192909190916101000a81548173ffffffffffffffffffffffffffffffffffffffff021916908373ffffffffffffffffffffffffffffffffffffffff16021790555050612160565b6040517f08c379a0000000000000000000000000000000000000000000000000000000008152600401612157906143f1565b60405180910390fd5b7f723c2b747529ca7f5eb53a74808f4a8b9bf264f0fc450fd904900151da74548a8142604051612191929190614289565b60405180910390a150565b6121a461273f565b6121e3576040517f08c379a00000000000000000000000000000000000000000000000000000000081526004016121da906143d1565b60405180910390fd5b600073ffffffffffffffffffffffffffffffffffffffff166000809054906101000a900473ffffffffffffffffffffffffffffffffffffffff1673ffffffffffffffffffffffffffffffffffffffff167f8be0079c531659141344cd1fd0a4f28419497f9722a3daafe3b4186f6b6457e060405160405180910390a360008060006101000a81548173ffffffffffffffffffffffffffffffffffffffff021916908373ffffffffffffffffffffffffffffffffffffffff160217905550565b6122ab33613193565b806122ba57506122b961273f565b5b6122f9576040517f08c379a00000000000000000000000000000000000000000000000000000000081526004016122f090614391565b60405180910390fd5b601c60009054906101000a900473ffffffffffffffffffffffffffffffffffffffff1673ffffffffffffffffffffffffffffffffffffffff16637ad157b9348585856040518563ffffffff1660e01b8152600401612359939291906144df565b6000604051808303818588803b15801561237257600080fd5b505af1158015612386573d6000803e3d6000fd5b5050505050600260070160405161239d9190614167565b6040518091039020601c60009054906101000a900473ffffffffffffffffffffffffffffffffffffffff1673ffffffffffffffffffffffffffffffffffffffff163373ffffffffffffffffffffffffffffffffffffffff167f32a9eeb55ea56eb60badfb6642d5b92be35b6da6f74892c12d0e14a50dfc2bac8587604051612426929190614289565b60405180910390a4505050565b61243c33613193565b8061244b575061244a61273f565b5b61248a576040517f08c379a000000000000000000000000000000000000000000000000000000000815260040161248190614391565b60405180910390fd5b600084905060026005016040516124a19190614167565b60405180910390208573ffffffffffffffffffffffffffffffffffffffff163373ffffffffffffffffffffffffffffffffffffffff167f32a9eeb55ea56eb60badfb6642d5b92be35b6da6f74892c12d0e14a50dfc2bac8886604051612508929190614289565b60405180910390a48073ffffffffffffffffffffffffffffffffffffffff166323b872dd8585856040518463ffffffff1660e01b815260040161254d939291906141dd565b600060405180830381600087803b15801561256757600080fd5b505af115801561257b573d6000803e3d6000fd5b505050505050505050565b61258f33613193565b8061259e575061259d61273f565b5b6125dd576040517f08c379a00000000000000000000000000000000000000000000000000000000081526004016125d490614391565b60405180910390fd5b601c60009054906101000a900473ffffffffffffffffffffffffffffffffffffffff1673ffffffffffffffffffffffffffffffffffffffff16638c6ab0138484846040518463ffffffff1660e01b815260040161263c939291906144df565b600060405180830381600087803b15801561265657600080fd5b505af115801561266a573d6000803e3d6000fd5b5050505060026009016040516126809190614167565b6040518091039020601c60009054906101000a900473ffffffffffffffffffffffffffffffffffffffff1673ffffffffffffffffffffffffffffffffffffffff163373ffffffffffffffffffffffffffffffffffffffff167f32a9eeb55ea56eb60badfb6642d5b92be35b6da6f74892c12d0e14a50dfc2bac8587604051612709929190614289565b60405180910390a4505050565b60008060009054906101000a900473ffffffffffffffffffffffffffffffffffffffff16905090565b60008060009054906101000a900473ffffffffffffffffffffffffffffffffffffffff1673ffffffffffffffffffffffffffffffffffffffff16612781613519565b73ffffffffffffffffffffffffffffffffffffffff1614905090565b6127a633613193565b806127b557506127b461273f565b5b6127f4576040517f08c379a00000000000000000000000000000000000000000000000000000000081526004016127eb90614391565b60405180910390fd5b60008390508073ffffffffffffffffffffffffffffffffffffffff16633950935184846040518363ffffffff1660e01b8152600401612834929190614289565b600060405180830381600087803b15801561284e57600080fd5b505af1158015612862573d6000803e3d6000fd5b5050505060026015016040516128789190614167565b60405180910390208473ffffffffffffffffffffffffffffffffffffffff163373ffffffffffffffffffffffffffffffffffffffff167f32a9eeb55ea56eb60badfb6642d5b92be35b6da6f74892c12d0e14a50dfc2bac86866040516128df929190614289565b60405180910390a450505050565b6128f633613193565b80612905575061290461273f565b5b612944576040517f08c379a000000000000000000000000000000000000000000000000000000000815260040161293b90614391565b60405180910390fd5b60008390508073ffffffffffffffffffffffffffffffffffffffff1663095ea7b384846040518363ffffffff1660e01b8152600401612984929190614289565b600060405180830381600087803b15801561299e57600080fd5b505af11580156129b2573d6000803e3d6000fd5b5050505060026010016040516129c89190614167565b60405180910390208473ffffffffffffffffffffffffffffffffffffffff163373ffffffffffffffffffffffffffffffffffffffff167f32a9eeb55ea56eb60badfb6642d5b92be35b6da6f74892c12d0e14a50dfc2bac8686604051612a2f929190614289565b60405180910390a450505050565b612a4633613193565b80612a555750612a5461273f565b5b612a94576040517f08c379a0000000000000000000000000000000000000000000000000000000008152600401612a8b90614391565b60405180910390fd5b60008390506002600101604051612aab9190614167565b60405180910390208473ffffffffffffffffffffffffffffffffffffffff163373ffffffffffffffffffffffffffffffffffffffff167f32a9eeb55ea56eb60badfb6642d5b92be35b6da6f74892c12d0e14a50dfc2bac8786604051612b12929190614289565b60405180910390a48073ffffffffffffffffffffffffffffffffffffffff1663a9059cbb84846040518363ffffffff1660e01b8152600401612b55929190614289565b600060405180830381600087803b158015612b6f57600080fd5b505af1158015612b83573d6000803e3d6000fd5b5050505050505050565b612b9633613193565b80612ba55750612ba461273f565b5b612be4576040517f08c379a0000000000000000000000000000000000000000000000000000000008152600401612bdb90614391565b60405180910390fd5b601c60009054906101000a900473ffffffffffffffffffffffffffffffffffffffff1673ffffffffffffffffffffffffffffffffffffffff1663c0f4ed31348585856040518563ffffffff1660e01b8152600401612c4493929190614516565b6000604051808303818588803b158015612c5d57600080fd5b505af1158015612c71573d6000803e3d6000fd5b50505050506002600801604051612c889190614167565b6040518091039020601c60009054906101000a900473ffffffffffffffffffffffffffffffffffffffff1673ffffffffffffffffffffffffffffffffffffffff163373ffffffffffffffffffffffffffffffffffffffff167f32a9eeb55ea56eb60badfb6642d5b92be35b6da6f74892c12d0e14a50dfc2bac8587604051612d11929190614289565b60405180910390a4505050565b612d2733613193565b80612d365750612d3561273f565b5b612d75576040517f08c379a0000000000000000000000000000000000000000000000000000000008152600401612d6c90614391565b60405180910390fd5b60008390508073ffffffffffffffffffffffffffffffffffffffff16636618846384846040518363ffffffff1660e01b8152600401612db5929190614289565b600060405180830381600087803b158015612dcf57600080fd5b505af1158015612de3573d6000803e3d6000fd5b505050506002601601604051612df99190614167565b60405180910390208473ffffffffffffffffffffffffffffffffffffffff163373ffffffffffffffffffffffffffffffffffffffff167f32a9eeb55ea56eb60badfb6642d5b92be35b6da6f74892c12d0e14a50dfc2bac8686604051612e60929190614289565b60405180910390a450505050565b612e7733613193565b80612e865750612e8561273f565b5b612ec5576040517f08c379a0000000000000000000000000000000000000000000000000000000008152600401612ebc90614391565b60405180910390fd5b601c60009054906101000a900473ffffffffffffffffffffffffffffffffffffffff1673ffffffffffffffffffffffffffffffffffffffff16631f90607a82846040518363ffffffff1660e01b8152600401612f22929190614289565b600060405180830381600087803b158015612f3c57600080fd5b505af1158015612f50573d6000803e3d6000fd5b505050506002600f01604051612f669190614167565b6040518091039020601c60009054906101000a900473ffffffffffffffffffffffffffffffffffffffff1673ffffffffffffffffffffffffffffffffffffffff163373ffffffffffffffffffffffffffffffffffffffff167f32a9eeb55ea56eb60badfb6642d5b92be35b6da6f74892c12d0e14a50dfc2bac8486604051612fef929190614289565b60405180910390a45050565b61300361273f565b613042576040517f08c379a0000000000000000000000000000000000000000000000000000000008152600401613039906143d1565b60405180910390fd5b61304b81613521565b50565b61305661273f565b613095576040517f08c379a000000000000000000000000000000000000000000000000000000000815260040161308c906143d1565b60405180910390fd5b60008190508073ffffffffffffffffffffffffffffffffffffffff1663a9059cbb338373ffffffffffffffffffffffffffffffffffffffff166370a08231306040518263ffffffff1660e01b81526004016130f09190614199565b60206040518083038186803b15801561310857600080fd5b505afa15801561311c573d6000803e3d6000fd5b505050506040513d601f19601f820116820180604052506131409190810190613acf565b6040518363ffffffff1660e01b815260040161315d9291906141b4565b600060405180830381600087803b15801561317757600080fd5b505af115801561318b573d6000803e3d6000fd5b505050505050565b600080600090505b60018054905081101561322a57600181815481106131b557fe5b9060005260206000200160009054906101000a900473ffffffffffffffffffffffffffffffffffffffff1673ffffffffffffffffffffffffffffffffffffffff168373ffffffffffffffffffffffffffffffffffffffff16141561321d576001915050613230565b808060010191505061319b565b50600090505b919050565b61323e33613193565b8061324d575061324c61273f565b5b61328c576040517f08c379a000000000000000000000000000000000000000000000000000000000815260040161328390614391565b60405180910390fd5b600083905060026003016040516132a39190614167565b60405180910390208473ffffffffffffffffffffffffffffffffffffffff163373ffffffffffffffffffffffffffffffffffffffff167f32a9eeb55ea56eb60badfb6642d5b92be35b6da6f74892c12d0e14a50dfc2bac87600060405161330b929190614260565b60405180910390a48073ffffffffffffffffffffffffffffffffffffffff1663056b01ce84846040518363ffffffff1660e01b815260040161334e929190614341565b600060405180830381600087803b15801561336857600080fd5b505af115801561337c573d6000803e3d6000fd5b5050505050505050565b61338f33613193565b8061339e575061339d61273f565b5b6133dd576040517f08c379a00000000000000000000000000000000000000000000000000000000081526004016133d490614391565b60405180910390fd5b601c60009054906101000a900473ffffffffffffffffffffffffffffffffffffffff1673ffffffffffffffffffffffffffffffffffffffff1663ff8edbdb858585856040518563ffffffff1660e01b815260040161343e949392919061454d565b600060405180830381600087803b15801561345857600080fd5b505af115801561346c573d6000803e3d6000fd5b505050506002600a016040516134829190614167565b6040518091039020601c60009054906101000a900473ffffffffffffffffffffffffffffffffffffffff1673ffffffffffffffffffffffffffffffffffffffff163373ffffffffffffffffffffffffffffffffffffffff167f32a9eeb55ea56eb60badfb6642d5b92be35b6da6f74892c12d0e14a50dfc2bac868860405161350b929190614289565b60405180910390a450505050565b600033905090565b600073ffffffffffffffffffffffffffffffffffffffff168173ffffffffffffffffffffffffffffffffffffffff161415613591576040517f08c379a000000000000000000000000000000000000000000000000000000000815260040161358890614371565b60405180910390fd5b8073ffffffffffffffffffffffffffffffffffffffff166000809054906101000a900473ffffffffffffffffffffffffffffffffffffffff1673ffffffffffffffffffffffffffffffffffffffff167f8be0079c531659141344cd1fd0a4f28419497f9722a3daafe3b4186f6b6457e060405160405180910390a3806000806101000a81548173ffffffffffffffffffffffffffffffffffffffff021916908373ffffffffffffffffffffffffffffffffffffffff16021790555050565b60008135905061365e81614865565b92915050565b60008151905061367381614865565b92915050565b6000813590506136888161487c565b92915050565b600082601f83011261369f57600080fd5b81356136b26136ad8261466d565b614640565b915080825260208301602083018583830111156136ce57600080fd5b6136d9838284614812565b50505092915050565b600082601f8301126136f357600080fd5b813561370661370182614699565b614640565b9150808252602083016020830185838301111561372257600080fd5b61372d838284614812565b50505092915050565b600082601f83011261374757600080fd5b815161375a61375582614699565b614640565b9150808252602083016020830185838301111561377657600080fd5b613781838284614821565b50505092915050565b60008135905061379981614893565b92915050565b6000815190506137ae81614893565b92915050565b6000602082840312156137c657600080fd5b60006137d48482850161364f565b91505092915050565b6000602082840312156137ef57600080fd5b60006137fd84828501613664565b91505092915050565b6000806000806080858703121561381c57600080fd5b600061382a8782880161364f565b945050602061383b8782880161364f565b935050604061384c8782880161364f565b925050606061385d8782880161378a565b91505092959194509250565b600080600080600060a0868803121561388157600080fd5b600061388f8882890161364f565b95505060206138a08882890161364f565b94505060406138b18882890161364f565b93505060606138c28882890161378a565b925050608086013567ffffffffffffffff8111156138df57600080fd5b6138eb8882890161368e565b9150509295509295909350565b60008060006060848603121561390d57600080fd5b600061391b8682870161364f565b935050602061392c8682870161364f565b925050604061393d8682870161378a565b9150509250925092565b6000806000806080858703121561395d57600080fd5b600061396b8782880161364f565b945050602061397c8782880161364f565b935050604061398d8782880161378a565b925050606085013567ffffffffffffffff8111156139aa57600080fd5b6139b68782880161368e565b91505092959194509250565b6000806000606084860312156139d757600080fd5b60006139e58682870161364f565b935050602084013567ffffffffffffffff811115613a0257600080fd5b613a0e868287016136e2565b9250506040613a1f8682870161378a565b9150509250925092565b60008060408385031215613a3c57600080fd5b6000613a4a8582860161364f565b9250506020613a5b8582860161378a565b9150509250929050565b600060208284031215613a7757600080fd5b600082015167ffffffffffffffff811115613a9157600080fd5b613a9d84828501613736565b91505092915050565b600060208284031215613ab857600080fd5b6000613ac68482850161378a565b91505092915050565b600060208284031215613ae157600080fd5b6000613aef8482850161379f565b91505092915050565b60008060408385031215613b0b57600080fd5b6000613b198582860161378a565b9250506020613b2a8582860161364f565b9150509250929050565b600080600060608486031215613b4957600080fd5b6000613b578682870161378a565b9350506020613b688682870161364f565b9250506040613b798682870161364f565b9150509250925092565b60008060008060808587031215613b9957600080fd5b6000613ba78782880161378a565b9450506020613bb88782880161364f565b9350506040613bc98782880161364f565b9250506060613bda87828801613679565b91505092959194509250565b60008060008060808587031215613bfc57600080fd5b6000613c0a8782880161378a565b9450506020613c1b8782880161364f565b9350506040613c2c8782880161364f565b9250506060613c3d8782880161378a565b91505092959194509250565b600080600060608486031215613c5e57600080fd5b6000613c6c8682870161378a565b9350506020613c7d8682870161364f565b9250506040613c8e86828701613679565b9150509250925092565b600080600060608486031215613cad57600080fd5b6000613cbb8682870161378a565b9350506020613ccc8682870161364f565b9250506040613cdd8682870161378a565b9150509250925092565b60008060008060808587031215613cfd57600080fd5b6000613d0b8782880161378a565b9450506020613d1c8782880161364f565b9350506040613d2d8782880161378a565b9250506060613d3e8782880161364f565b91505092959194509250565b600080600080600080600080610100898b031215613d6757600080fd5b6000613d758b828c0161378a565b9850506020613d868b828c0161378a565b9750506040613d978b828c0161378a565b9650506060613da88b828c0161378a565b9550506080613db98b828c0161378a565b94505060a0613dca8b828c0161378a565b93505060c0613ddb8b828c0161364f565b92505060e0613dec8b828c0161364f565b9150509295985092959890939650565b6000613e088383613e23565b60208301905092915050565b613e1d816147ca565b82525050565b613e2c81614756565b82525050565b613e3b81614756565b82525050565b6000613e4c826146ea565b613e568185614718565b9350613e61836146c5565b8060005b83811015613e92578151613e798882613dfc565b9750613e848361470b565b925050600181019050613e65565b5085935050505092915050565b613ea881614768565b82525050565b613eb781614774565b82525050565b6000613ec8826146f5565b613ed28185614729565b9350613ee2818560208601614821565b613eeb81614854565b840191505092915050565b613eff816147dc565b82525050565b6000613f1082614700565b613f1a818561473a565b9350613f2a818560208601614821565b613f3381614854565b840191505092915050565b600081546001811660008114613f5b5760018114613f8057613fc4565b607f6002830416613f6c818761474b565b955060ff1983168652808601935050613fc4565b60028204613f8e818761474b565b9550613f99856146d5565b60005b82811015613fbb57815481890152600182019150602081019050613f9c565b82880195505050505b505092915050565b6000613fd960268361473a565b91507f4f776e61626c653a206e6577206f776e657220697320746865207a65726f206160008301527f64647265737300000000000000000000000000000000000000000000000000006020830152604082019050919050565b600061403f60238361473a565b91507f41646d696e4d616e616765723a2061646d696e20616e64206f776e6572206f6e60008301527f6c792e00000000000000000000000000000000000000000000000000000000006020830152604082019050919050565b60006140a5601b8361473a565b91507f546f6b656e206e6f74206170706f726f766520666f72206275726e00000000006000830152602082019050919050565b60006140e560208361473a565b91507f4f776e61626c653a2063616c6c6572206973206e6f7420746865206f776e65726000830152602082019050919050565b600061412560158361473a565b91507f61646d696e20616c726561647920696e206c69737400000000000000000000006000830152602082019050919050565b614161816147c0565b82525050565b60006141738284613f3e565b915081905092915050565b60006020820190506141936000830184613e32565b92915050565b60006020820190506141ae6000830184613e14565b92915050565b60006040820190506141c96000830185613e14565b6141d66020830184614158565b9392505050565b60006060820190506141f26000830186613e32565b6141ff6020830185613e32565b61420c6040830184614158565b949350505050565b60006080820190506142296000830187613e32565b6142366020830186613e32565b6142436040830185614158565b81810360608301526142558184613ebd565b905095945050505050565b60006040820190506142756000830185613e32565b6142826020830184613ef6565b9392505050565b600060408201905061429e6000830185613e32565b6142ab6020830184614158565b9392505050565b60006060820190506142c76000830186613e32565b6142d46020830185614158565b6142e16040830184613e32565b949350505050565b600060208201905081810360008301526143038184613e41565b905092915050565b60006020820190506143206000830184613e9f565b92915050565b600060208201905061433b6000830184613eae565b92915050565b6000604082019050818103600083015261435b8185613f05565b905061436a6020830184614158565b9392505050565b6000602082019050818103600083015261438a81613fcc565b9050919050565b600060208201905081810360008301526143aa81614032565b9050919050565b600060208201905081810360008301526143ca81614098565b9050919050565b600060208201905081810360008301526143ea816140d8565b9050919050565b6000602082019050818103600083015261440a81614118565b9050919050565b60006020820190506144266000830184614158565b92915050565b60006040820190506144416000830185614158565b61444e6020830184613e32565b9392505050565b600060808201905061446a6000830187614158565b6144776020830186613e32565b6144846040830185613e32565b6144916060830184613e9f565b95945050505050565b60006080820190506144af6000830187614158565b6144bc6020830186613e32565b6144c96040830185613e32565b6144d66060830184614158565b95945050505050565b60006060820190506144f46000830186614158565b6145016020830185613e32565b61450e6040830184613e9f565b949350505050565b600060608201905061452b6000830186614158565b6145386020830185613e32565b6145456040830184614158565b949350505050565b60006080820190506145626000830187614158565b61456f6020830186613e32565b61457c6040830185614158565b6145896060830184613e32565b95945050505050565b60006040820190506145a76000830185614158565b81810360208301526145b98184613f05565b90509392505050565b6000610100820190506145d8600083018b614158565b6145e5602083018a614158565b6145f26040830189614158565b6145ff6060830188614158565b61460c6080830187614158565b61461960a0830186614158565b61462660c0830185613e32565b61463360e0830184613e32565b9998505050505050505050565b6000604051905081810181811067ffffffffffffffff8211171561466357600080fd5b8060405250919050565b600067ffffffffffffffff82111561468457600080fd5b601f19601f8301169050602081019050919050565b600067ffffffffffffffff8211156146b057600080fd5b601f19601f8301169050602081019050919050565b6000819050602082019050919050565b60008190508160005260206000209050919050565b600081519050919050565b600081519050919050565b600081519050919050565b6000602082019050919050565b600082825260208201905092915050565b600082825260208201905092915050565b600082825260208201905092915050565b600081905092915050565b6000614761826147a0565b9050919050565b60008115159050919050565b60007fffffffff0000000000000000000000000000000000000000000000000000000082169050919050565b600073ffffffffffffffffffffffffffffffffffffffff82169050919050565b6000819050919050565b60006147d5826147ee565b9050919050565b60006147e7826147c0565b9050919050565b60006147f982614800565b9050919050565b600061480b826147a0565b9050919050565b82818337600083830152505050565b60005b8381101561483f578082015181840152602081019050614824565b8381111561484e576000848401525b50505050565b6000601f19601f8301169050919050565b61486e81614756565b811461487957600080fd5b50565b61488581614768565b811461489057600080fd5b50565b61489c816147c0565b81146148a757600080fd5b5056fea365627a7a723158203569e5078b759a604dea38620a673440196e018c59c112bace4446249dcb7d426c6578706572696d656e74616cf564736f6c63430005110040",
			"opcodes": "PUSH1 0x80 PUSH1 0x40 MSTORE PUSH1 0x40 MLOAD DUP1 PUSH2 0x340 ADD PUSH1 0x40 MSTORE DUP1 PUSH1 0x40 MLOAD DUP1 PUSH1 0x40 ADD PUSH1 0x40 MSTORE DUP1 PUSH1 0xE DUP2 MSTORE PUSH1 0x20 ADD PUSH32 0x4552433732313A617070726F7665000000000000000000000000000000000000 DUP2 MSTORE POP DUP2 MSTORE PUSH1 0x20 ADD PUSH1 0x40 MLOAD DUP1 PUSH1 0x40 ADD PUSH1 0x40 MSTORE DUP1 PUSH1 0xF DUP2 MSTORE PUSH1 0x20 ADD PUSH32 0x4552433732313A7472616E736665720000000000000000000000000000000000 DUP2 MSTORE POP DUP2 MSTORE PUSH1 0x20 ADD PUSH1 0x40 MLOAD DUP1 PUSH1 0x40 ADD PUSH1 0x40 MSTORE DUP1 PUSH1 0xB DUP2 MSTORE PUSH1 0x20 ADD PUSH32 0x4552433732313A6275726E000000000000000000000000000000000000000000 DUP2 MSTORE POP DUP2 MSTORE PUSH1 0x20 ADD PUSH1 0x40 MLOAD DUP1 PUSH1 0x40 ADD PUSH1 0x40 MSTORE DUP1 PUSH1 0xB DUP2 MSTORE PUSH1 0x20 ADD PUSH32 0x4552433732313A6D696E74000000000000000000000000000000000000000000 DUP2 MSTORE POP DUP2 MSTORE PUSH1 0x20 ADD PUSH1 0x40 MLOAD DUP1 PUSH1 0x40 ADD PUSH1 0x40 MSTORE DUP1 PUSH1 0x17 DUP2 MSTORE PUSH1 0x20 ADD PUSH32 0x4552433732313A736166655472616E7366657246726F6D000000000000000000 DUP2 MSTORE POP DUP2 MSTORE PUSH1 0x20 ADD PUSH1 0x40 MLOAD DUP1 PUSH1 0x40 ADD PUSH1 0x40 MSTORE DUP1 PUSH1 0x13 DUP2 MSTORE PUSH1 0x20 ADD PUSH32 0x4552433732313A7472616E7366657246726F6D00000000000000000000000000 DUP2 MSTORE POP DUP2 MSTORE PUSH1 0x20 ADD PUSH1 0x40 MLOAD DUP1 PUSH1 0x40 ADD PUSH1 0x40 MSTORE DUP1 PUSH1 0x10 DUP2 MSTORE PUSH1 0x20 ADD PUSH32 0x42726F6B65723A7075744F6E53616C6500000000000000000000000000000000 DUP2 MSTORE POP DUP2 MSTORE PUSH1 0x20 ADD PUSH1 0x40 MLOAD DUP1 PUSH1 0x40 ADD PUSH1 0x40 MSTORE DUP1 PUSH1 0xA DUP2 MSTORE PUSH1 0x20 ADD PUSH32 0x42726F6B65723A62757900000000000000000000000000000000000000000000 DUP2 MSTORE POP DUP2 MSTORE PUSH1 0x20 ADD PUSH1 0x40 MLOAD DUP1 PUSH1 0x40 ADD PUSH1 0x40 MSTORE DUP1 PUSH1 0xA DUP2 MSTORE PUSH1 0x20 ADD PUSH32 0x42726F6B65723A62696400000000000000000000000000000000000000000000 DUP2 MSTORE POP DUP2 MSTORE PUSH1 0x20 ADD PUSH1 0x40 MLOAD DUP1 PUSH1 0x40 ADD PUSH1 0x40 MSTORE DUP1 PUSH1 0xE DUP2 MSTORE PUSH1 0x20 ADD PUSH32 0x42726F6B65723A636F6C6C656374000000000000000000000000000000000000 DUP2 MSTORE POP DUP2 MSTORE PUSH1 0x20 ADD PUSH1 0x40 MLOAD DUP1 PUSH1 0x40 ADD PUSH1 0x40 MSTORE DUP1 PUSH1 0x12 DUP2 MSTORE PUSH1 0x20 ADD PUSH32 0x42726F6B65723A75706461746550726963650000000000000000000000000000 DUP2 MSTORE POP DUP2 MSTORE PUSH1 0x20 ADD PUSH1 0x40 MLOAD DUP1 PUSH1 0x40 ADD PUSH1 0x40 MSTORE DUP1 PUSH1 0x11 DUP2 MSTORE PUSH1 0x20 ADD PUSH32 0x42726F6B65723A70757453616C654F6666000000000000000000000000000000 DUP2 MSTORE POP DUP2 MSTORE PUSH1 0x20 ADD PUSH1 0x40 MLOAD DUP1 PUSH1 0x40 ADD PUSH1 0x40 MSTORE DUP1 PUSH1 0x12 DUP2 MSTORE PUSH1 0x20 ADD PUSH32 0x42726F6B65723A6D616B65416E4F666665720000000000000000000000000000 DUP2 MSTORE POP DUP2 MSTORE PUSH1 0x20 ADD PUSH1 0x40 MLOAD DUP1 PUSH1 0x40 ADD PUSH1 0x40 MSTORE DUP1 PUSH1 0x12 DUP2 MSTORE PUSH1 0x20 ADD PUSH32 0x42726F6B65723A6163637065744F666665720000000000000000000000000000 DUP2 MSTORE POP DUP2 MSTORE PUSH1 0x20 ADD PUSH1 0x40 MLOAD DUP1 PUSH1 0x40 ADD PUSH1 0x40 MSTORE DUP1 PUSH1 0x12 DUP2 MSTORE PUSH1 0x20 ADD PUSH32 0x42726F6B65723A7265766572744F666665720000000000000000000000000000 DUP2 MSTORE POP DUP2 MSTORE PUSH1 0x20 ADD PUSH1 0x40 MLOAD DUP1 PUSH1 0x40 ADD PUSH1 0x40 MSTORE DUP1 PUSH1 0x10 DUP2 MSTORE PUSH1 0x20 ADD PUSH32 0x42726F6B65723A726576657274416C6C00000000000000000000000000000000 DUP2 MSTORE POP DUP2 MSTORE PUSH1 0x20 ADD PUSH1 0x40 MLOAD DUP1 PUSH1 0x40 ADD PUSH1 0x40 MSTORE DUP1 PUSH1 0x13 DUP2 MSTORE PUSH1 0x20 ADD PUSH32 0x42726F6B65723A62617463684C697374696E6700000000000000000000000000 DUP2 MSTORE POP DUP2 MSTORE PUSH1 0x20 ADD PUSH1 0x40 MLOAD DUP1 PUSH1 0x40 ADD PUSH1 0x40 MSTORE DUP1 PUSH1 0x15 DUP2 MSTORE PUSH1 0x20 ADD PUSH32 0x42726F6B65723A626174636844656C697374696E670000000000000000000000 DUP2 MSTORE POP DUP2 MSTORE PUSH1 0x20 ADD PUSH1 0x40 MLOAD DUP1 PUSH1 0x40 ADD PUSH1 0x40 MSTORE DUP1 PUSH1 0x11 DUP2 MSTORE PUSH1 0x20 ADD PUSH32 0x42726F6B65723A73657441646472657373000000000000000000000000000000 DUP2 MSTORE POP DUP2 MSTORE PUSH1 0x20 ADD PUSH1 0x40 MLOAD DUP1 PUSH1 0x40 ADD PUSH1 0x40 MSTORE DUP1 PUSH1 0xD DUP2 MSTORE PUSH1 0x20 ADD PUSH32 0x45524332303A617070726F766500000000000000000000000000000000000000 DUP2 MSTORE POP DUP2 MSTORE PUSH1 0x20 ADD PUSH1 0x40 MLOAD DUP1 PUSH1 0x40 ADD PUSH1 0x40 MSTORE DUP1 PUSH1 0x16 DUP2 MSTORE PUSH1 0x20 ADD PUSH32 0x45524332303A6465637265617365417070726F76616C00000000000000000000 DUP2 MSTORE POP DUP2 MSTORE PUSH1 0x20 ADD PUSH1 0x40 MLOAD DUP1 PUSH1 0x40 ADD PUSH1 0x40 MSTORE DUP1 PUSH1 0x16 DUP2 MSTORE PUSH1 0x20 ADD PUSH32 0x45524332303A696E637265617365417070726F76616C00000000000000000000 DUP2 MSTORE POP DUP2 MSTORE PUSH1 0x20 ADD PUSH1 0x40 MLOAD DUP1 PUSH1 0x40 ADD PUSH1 0x40 MSTORE DUP1 PUSH1 0xE DUP2 MSTORE PUSH1 0x20 ADD PUSH32 0x45524332303A7472616E73666572000000000000000000000000000000000000 DUP2 MSTORE POP DUP2 MSTORE PUSH1 0x20 ADD PUSH1 0x40 MLOAD DUP1 PUSH1 0x40 ADD PUSH1 0x40 MSTORE DUP1 PUSH1 0x12 DUP2 MSTORE PUSH1 0x20 ADD PUSH32 0x45524332303A7472616E7366657246726F6D0000000000000000000000000000 DUP2 MSTORE POP DUP2 MSTORE PUSH1 0x20 ADD PUSH1 0x40 MLOAD DUP1 PUSH1 0x40 ADD PUSH1 0x40 MSTORE DUP1 PUSH1 0x17 DUP2 MSTORE PUSH1 0x20 ADD PUSH32 0x45524332303A696E637265617365416C6C6F77616E6365000000000000000000 DUP2 MSTORE POP DUP2 MSTORE PUSH1 0x20 ADD PUSH1 0x40 MLOAD DUP1 PUSH1 0x40 ADD PUSH1 0x40 MSTORE DUP1 PUSH1 0x17 DUP2 MSTORE PUSH1 0x20 ADD PUSH32 0x45524332303A6465637265617365416C6C6F77616E6365000000000000000000 DUP2 MSTORE POP DUP2 MSTORE POP PUSH1 0x2 PUSH1 0x0 DUP3 ADD MLOAD DUP2 PUSH1 0x0 ADD SWAP1 DUP1 MLOAD SWAP1 PUSH1 0x20 ADD SWAP1 PUSH3 0x62C SWAP3 SWAP2 SWAP1 PUSH3 0xC89 JUMP JUMPDEST POP PUSH1 0x20 DUP3 ADD MLOAD DUP2 PUSH1 0x1 ADD SWAP1 DUP1 MLOAD SWAP1 PUSH1 0x20 ADD SWAP1 PUSH3 0x64B SWAP3 SWAP2 SWAP1 PUSH3 0xC89 JUMP JUMPDEST POP PUSH1 0x40 DUP3 ADD MLOAD DUP2 PUSH1 0x2 ADD SWAP1 DUP1 MLOAD SWAP1 PUSH1 0x20 ADD SWAP1 PUSH3 0x66A SWAP3 SWAP2 SWAP1 PUSH3 0xC89 JUMP JUMPDEST POP PUSH1 0x60 DUP3 ADD MLOAD DUP2 PUSH1 0x3 ADD SWAP1 DUP1 MLOAD SWAP1 PUSH1 0x20 ADD SWAP1 PUSH3 0x689 SWAP3 SWAP2 SWAP1 PUSH3 0xC89 JUMP JUMPDEST POP PUSH1 0x80 DUP3 ADD MLOAD DUP2 PUSH1 0x4 ADD SWAP1 DUP1 MLOAD SWAP1 PUSH1 0x20 ADD SWAP1 PUSH3 0x6A8 SWAP3 SWAP2 SWAP1 PUSH3 0xC89 JUMP JUMPDEST POP PUSH1 0xA0 DUP3 ADD MLOAD DUP2 PUSH1 0x5 ADD SWAP1 DUP1 MLOAD SWAP1 PUSH1 0x20 ADD SWAP1 PUSH3 0x6C7 SWAP3 SWAP2 SWAP1 PUSH3 0xC89 JUMP JUMPDEST POP PUSH1 0xC0 DUP3 ADD MLOAD DUP2 PUSH1 0x6 ADD SWAP1 DUP1 MLOAD SWAP1 PUSH1 0x20 ADD SWAP1 PUSH3 0x6E6 SWAP3 SWAP2 SWAP1 PUSH3 0xC89 JUMP JUMPDEST POP PUSH1 0xE0 DUP3 ADD MLOAD DUP2 PUSH1 0x7 ADD SWAP1 DUP1 MLOAD SWAP1 PUSH1 0x20 ADD SWAP1 PUSH3 0x705 SWAP3 SWAP2 SWAP1 PUSH3 0xC89 JUMP JUMPDEST POP PUSH2 0x100 DUP3 ADD MLOAD DUP2 PUSH1 0x8 ADD SWAP1 DUP1 MLOAD SWAP1 PUSH1 0x20 ADD SWAP1 PUSH3 0x725 SWAP3 SWAP2 SWAP1 PUSH3 0xC89 JUMP JUMPDEST POP PUSH2 0x120 DUP3 ADD MLOAD DUP2 PUSH1 0x9 ADD SWAP1 DUP1 MLOAD SWAP1 PUSH1 0x20 ADD SWAP1 PUSH3 0x745 SWAP3 SWAP2 SWAP1 PUSH3 0xC89 JUMP JUMPDEST POP PUSH2 0x140 DUP3 ADD MLOAD DUP2 PUSH1 0xA ADD SWAP1 DUP1 MLOAD SWAP1 PUSH1 0x20 ADD SWAP1 PUSH3 0x765 SWAP3 SWAP2 SWAP1 PUSH3 0xC89 JUMP JUMPDEST POP PUSH2 0x160 DUP3 ADD MLOAD DUP2 PUSH1 0xB ADD SWAP1 DUP1 MLOAD SWAP1 PUSH1 0x20 ADD SWAP1 PUSH3 0x785 SWAP3 SWAP2 SWAP1 PUSH3 0xC89 JUMP JUMPDEST POP PUSH2 0x180 DUP3 ADD MLOAD DUP2 PUSH1 0xC ADD SWAP1 DUP1 MLOAD SWAP1 PUSH1 0x20 ADD SWAP1 PUSH3 0x7A5 SWAP3 SWAP2 SWAP1 PUSH3 0xC89 JUMP JUMPDEST POP PUSH2 0x1A0 DUP3 ADD MLOAD DUP2 PUSH1 0xD ADD SWAP1 DUP1 MLOAD SWAP1 PUSH1 0x20 ADD SWAP1 PUSH3 0x7C5 SWAP3 SWAP2 SWAP1 PUSH3 0xC89 JUMP JUMPDEST POP PUSH2 0x1C0 DUP3 ADD MLOAD DUP2 PUSH1 0xE ADD SWAP1 DUP1 MLOAD SWAP1 PUSH1 0x20 ADD SWAP1 PUSH3 0x7E5 SWAP3 SWAP2 SWAP1 PUSH3 0xC89 JUMP JUMPDEST POP PUSH2 0x1E0 DUP3 ADD MLOAD DUP2 PUSH1 0xF ADD SWAP1 DUP1 MLOAD SWAP1 PUSH1 0x20 ADD SWAP1 PUSH3 0x805 SWAP3 SWAP2 SWAP1 PUSH3 0xC89 JUMP JUMPDEST POP PUSH2 0x200 DUP3 ADD MLOAD DUP2 PUSH1 0x10 ADD SWAP1 DUP1 MLOAD SWAP1 PUSH1 0x20 ADD SWAP1 PUSH3 0x825 SWAP3 SWAP2 SWAP1 PUSH3 0xC89 JUMP JUMPDEST POP PUSH2 0x220 DUP3 ADD MLOAD DUP2 PUSH1 0x11 ADD SWAP1 DUP1 MLOAD SWAP1 PUSH1 0x20 ADD SWAP1 PUSH3 0x845 SWAP3 SWAP2 SWAP1 PUSH3 0xC89 JUMP JUMPDEST POP PUSH2 0x240 DUP3 ADD MLOAD DUP2 PUSH1 0x12 ADD SWAP1 DUP1 MLOAD SWAP1 PUSH1 0x20 ADD SWAP1 PUSH3 0x865 SWAP3 SWAP2 SWAP1 PUSH3 0xC89 JUMP JUMPDEST POP PUSH2 0x260 DUP3 ADD MLOAD DUP2 PUSH1 0x13 ADD SWAP1 DUP1 MLOAD SWAP1 PUSH1 0x20 ADD SWAP1 PUSH3 0x885 SWAP3 SWAP2 SWAP1 PUSH3 0xC89 JUMP JUMPDEST POP PUSH2 0x280 DUP3 ADD MLOAD DUP2 PUSH1 0x14 ADD SWAP1 DUP1 MLOAD SWAP1 PUSH1 0x20 ADD SWAP1 PUSH3 0x8A5 SWAP3 SWAP2 SWAP1 PUSH3 0xC89 JUMP JUMPDEST POP PUSH2 0x2A0 DUP3 ADD MLOAD DUP2 PUSH1 0x15 ADD SWAP1 DUP1 MLOAD SWAP1 PUSH1 0x20 ADD SWAP1 PUSH3 0x8C5 SWAP3 SWAP2 SWAP1 PUSH3 0xC89 JUMP JUMPDEST POP PUSH2 0x2C0 DUP3 ADD MLOAD DUP2 PUSH1 0x16 ADD SWAP1 DUP1 MLOAD SWAP1 PUSH1 0x20 ADD SWAP1 PUSH3 0x8E5 SWAP3 SWAP2 SWAP1 PUSH3 0xC89 JUMP JUMPDEST POP PUSH2 0x2E0 DUP3 ADD MLOAD DUP2 PUSH1 0x17 ADD SWAP1 DUP1 MLOAD SWAP1 PUSH1 0x20 ADD SWAP1 PUSH3 0x905 SWAP3 SWAP2 SWAP1 PUSH3 0xC89 JUMP JUMPDEST POP PUSH2 0x300 DUP3 ADD MLOAD DUP2 PUSH1 0x18 ADD SWAP1 DUP1 MLOAD SWAP1 PUSH1 0x20 ADD SWAP1 PUSH3 0x925 SWAP3 SWAP2 SWAP1 PUSH3 0xC89 JUMP JUMPDEST POP PUSH2 0x320 DUP3 ADD MLOAD DUP2 PUSH1 0x19 ADD SWAP1 DUP1 MLOAD SWAP1 PUSH1 0x20 ADD SWAP1 PUSH3 0x945 SWAP3 SWAP2 SWAP1 PUSH3 0xC89 JUMP JUMPDEST POP POP POP CALLVALUE DUP1 ISZERO PUSH3 0x955 JUMPI PUSH1 0x0 DUP1 REVERT JUMPDEST POP PUSH1 0x40 MLOAD PUSH3 0x57C5 CODESIZE SUB DUP1 PUSH3 0x57C5 DUP4 CODECOPY DUP2 DUP2 ADD PUSH1 0x40 MSTORE PUSH3 0x97B SWAP2 SWAP1 DUP2 ADD SWAP1 PUSH3 0xD4F JUMP JUMPDEST PUSH1 0x0 PUSH3 0x98D PUSH3 0xA84 PUSH1 0x20 SHL PUSH1 0x20 SHR JUMP JUMPDEST SWAP1 POP DUP1 PUSH1 0x0 DUP1 PUSH2 0x100 EXP DUP2 SLOAD DUP2 PUSH20 0xFFFFFFFFFFFFFFFFFFFFFFFFFFFFFFFFFFFFFFFF MUL NOT AND SWAP1 DUP4 PUSH20 0xFFFFFFFFFFFFFFFFFFFFFFFFFFFFFFFFFFFFFFFF AND MUL OR SWAP1 SSTORE POP DUP1 PUSH20 0xFFFFFFFFFFFFFFFFFFFFFFFFFFFFFFFFFFFFFFFF AND PUSH1 0x0 PUSH20 0xFFFFFFFFFFFFFFFFFFFFFFFFFFFFFFFFFFFFFFFF AND PUSH32 0x8BE0079C531659141344CD1FD0A4F28419497F9722A3DAAFE3B4186F6B6457E0 PUSH1 0x40 MLOAD PUSH1 0x40 MLOAD DUP1 SWAP2 SUB SWAP1 LOG3 POP PUSH3 0xA3C CALLER PUSH3 0xA8C PUSH1 0x20 SHL PUSH1 0x20 SHR JUMP JUMPDEST DUP1 PUSH1 0x1C PUSH1 0x0 PUSH2 0x100 EXP DUP2 SLOAD DUP2 PUSH20 0xFFFFFFFFFFFFFFFFFFFFFFFFFFFFFFFFFFFFFFFF MUL NOT AND SWAP1 DUP4 PUSH20 0xFFFFFFFFFFFFFFFFFFFFFFFFFFFFFFFFFFFFFFFF AND MUL OR SWAP1 SSTORE POP POP PUSH3 0xEC8 JUMP JUMPDEST PUSH1 0x0 CALLER SWAP1 POP SWAP1 JUMP JUMPDEST PUSH3 0xA9C PUSH3 0xAF2 PUSH1 0x20 SHL PUSH1 0x20 SHR JUMP JUMPDEST PUSH3 0xADE JUMPI PUSH1 0x40 MLOAD PUSH32 0x8C379A000000000000000000000000000000000000000000000000000000000 DUP2 MSTORE PUSH1 0x4 ADD PUSH3 0xAD5 SWAP1 PUSH3 0xE47 JUMP JUMPDEST PUSH1 0x40 MLOAD DUP1 SWAP2 SUB SWAP1 REVERT JUMPDEST PUSH3 0xAEF DUP2 PUSH3 0xB58 PUSH1 0x20 SHL PUSH1 0x20 SHR JUMP JUMPDEST POP JUMP JUMPDEST PUSH1 0x0 DUP1 PUSH1 0x0 SWAP1 SLOAD SWAP1 PUSH2 0x100 EXP SWAP1 DIV PUSH20 0xFFFFFFFFFFFFFFFFFFFFFFFFFFFFFFFFFFFFFFFF AND PUSH20 0xFFFFFFFFFFFFFFFFFFFFFFFFFFFFFFFFFFFFFFFF AND PUSH3 0xB3C PUSH3 0xA84 PUSH1 0x20 SHL PUSH1 0x20 SHR JUMP JUMPDEST PUSH20 0xFFFFFFFFFFFFFFFFFFFFFFFFFFFFFFFFFFFFFFFF AND EQ SWAP1 POP SWAP1 JUMP JUMPDEST PUSH1 0x0 PUSH20 0xFFFFFFFFFFFFFFFFFFFFFFFFFFFFFFFFFFFFFFFF AND DUP2 PUSH20 0xFFFFFFFFFFFFFFFFFFFFFFFFFFFFFFFFFFFFFFFF AND EQ ISZERO PUSH3 0xBCB JUMPI PUSH1 0x40 MLOAD PUSH32 0x8C379A000000000000000000000000000000000000000000000000000000000 DUP2 MSTORE PUSH1 0x4 ADD PUSH3 0xBC2 SWAP1 PUSH3 0xE25 JUMP JUMPDEST PUSH1 0x40 MLOAD DUP1 SWAP2 SUB SWAP1 REVERT JUMPDEST DUP1 PUSH20 0xFFFFFFFFFFFFFFFFFFFFFFFFFFFFFFFFFFFFFFFF AND PUSH1 0x0 DUP1 SWAP1 SLOAD SWAP1 PUSH2 0x100 EXP SWAP1 DIV PUSH20 0xFFFFFFFFFFFFFFFFFFFFFFFFFFFFFFFFFFFFFFFF AND PUSH20 0xFFFFFFFFFFFFFFFFFFFFFFFFFFFFFFFFFFFFFFFF AND PUSH32 0x8BE0079C531659141344CD1FD0A4F28419497F9722A3DAAFE3B4186F6B6457E0 PUSH1 0x40 MLOAD PUSH1 0x40 MLOAD DUP1 SWAP2 SUB SWAP1 LOG3 DUP1 PUSH1 0x0 DUP1 PUSH2 0x100 EXP DUP2 SLOAD DUP2 PUSH20 0xFFFFFFFFFFFFFFFFFFFFFFFFFFFFFFFFFFFFFFFF MUL NOT AND SWAP1 DUP4 PUSH20 0xFFFFFFFFFFFFFFFFFFFFFFFFFFFFFFFFFFFFFFFF AND MUL OR SWAP1 SSTORE POP POP JUMP JUMPDEST DUP3 DUP1 SLOAD PUSH1 0x1 DUP2 PUSH1 0x1 AND ISZERO PUSH2 0x100 MUL SUB AND PUSH1 0x2 SWAP1 DIV SWAP1 PUSH1 0x0 MSTORE PUSH1 0x20 PUSH1 0x0 KECCAK256 SWAP1 PUSH1 0x1F ADD PUSH1 0x20 SWAP1 DIV DUP2 ADD SWAP3 DUP3 PUSH1 0x1F LT PUSH3 0xCCC JUMPI DUP1 MLOAD PUSH1 0xFF NOT AND DUP4 DUP1 ADD OR DUP6 SSTORE PUSH3 0xCFD JUMP JUMPDEST DUP3 DUP1 ADD PUSH1 0x1 ADD DUP6 SSTORE DUP3 ISZERO PUSH3 0xCFD JUMPI SWAP2 DUP3 ADD JUMPDEST DUP3 DUP2 GT ISZERO PUSH3 0xCFC JUMPI DUP3 MLOAD DUP3 SSTORE SWAP2 PUSH1 0x20 ADD SWAP2 SWAP1 PUSH1 0x1 ADD SWAP1 PUSH3 0xCDF JUMP JUMPDEST JUMPDEST POP SWAP1 POP PUSH3 0xD0C SWAP2 SWAP1 PUSH3 0xD10 JUMP JUMPDEST POP SWAP1 JUMP JUMPDEST PUSH3 0xD35 SWAP2 SWAP1 JUMPDEST DUP1 DUP3 GT ISZERO PUSH3 0xD31 JUMPI PUSH1 0x0 DUP2 PUSH1 0x0 SWAP1 SSTORE POP PUSH1 0x1 ADD PUSH3 0xD17 JUMP JUMPDEST POP SWAP1 JUMP JUMPDEST SWAP1 JUMP JUMPDEST PUSH1 0x0 DUP2 MLOAD SWAP1 POP PUSH3 0xD49 DUP2 PUSH3 0xEAE JUMP JUMPDEST SWAP3 SWAP2 POP POP JUMP JUMPDEST PUSH1 0x0 PUSH1 0x20 DUP3 DUP5 SUB SLT ISZERO PUSH3 0xD62 JUMPI PUSH1 0x0 DUP1 REVERT JUMPDEST PUSH1 0x0 PUSH3 0xD72 DUP5 DUP3 DUP6 ADD PUSH3 0xD38 JUMP JUMPDEST SWAP2 POP POP SWAP3 SWAP2 POP POP JUMP JUMPDEST PUSH1 0x0 PUSH3 0xD8A PUSH1 0x26 DUP4 PUSH3 0xE69 JUMP JUMPDEST SWAP2 POP PUSH32 0x4F776E61626C653A206E6577206F776E657220697320746865207A65726F2061 PUSH1 0x0 DUP4 ADD MSTORE PUSH32 0x6464726573730000000000000000000000000000000000000000000000000000 PUSH1 0x20 DUP4 ADD MSTORE PUSH1 0x40 DUP3 ADD SWAP1 POP SWAP2 SWAP1 POP JUMP JUMPDEST PUSH1 0x0 PUSH3 0xDF2 PUSH1 0x20 DUP4 PUSH3 0xE69 JUMP JUMPDEST SWAP2 POP PUSH32 0x4F776E61626C653A2063616C6C6572206973206E6F7420746865206F776E6572 PUSH1 0x0 DUP4 ADD MSTORE PUSH1 0x20 DUP3 ADD SWAP1 POP SWAP2 SWAP1 POP JUMP JUMPDEST PUSH1 0x0 PUSH1 0x20 DUP3 ADD SWAP1 POP DUP2 DUP2 SUB PUSH1 0x0 DUP4 ADD MSTORE PUSH3 0xE40 DUP2 PUSH3 0xD7B JUMP JUMPDEST SWAP1 POP SWAP2 SWAP1 POP JUMP JUMPDEST PUSH1 0x0 PUSH1 0x20 DUP3 ADD SWAP1 POP DUP2 DUP2 SUB PUSH1 0x0 DUP4 ADD MSTORE PUSH3 0xE62 DUP2 PUSH3 0xDE3 JUMP JUMPDEST SWAP1 POP SWAP2 SWAP1 POP JUMP JUMPDEST PUSH1 0x0 DUP3 DUP3 MSTORE PUSH1 0x20 DUP3 ADD SWAP1 POP SWAP3 SWAP2 POP POP JUMP JUMPDEST PUSH1 0x0 PUSH3 0xE87 DUP3 PUSH3 0xE8E JUMP JUMPDEST SWAP1 POP SWAP2 SWAP1 POP JUMP JUMPDEST PUSH1 0x0 PUSH20 0xFFFFFFFFFFFFFFFFFFFFFFFFFFFFFFFFFFFFFFFF DUP3 AND SWAP1 POP SWAP2 SWAP1 POP JUMP JUMPDEST PUSH3 0xEB9 DUP2 PUSH3 0xE7A JUMP JUMPDEST DUP2 EQ PUSH3 0xEC5 JUMPI PUSH1 0x0 DUP1 REVERT JUMPDEST POP JUMP JUMPDEST PUSH2 0x48ED DUP1 PUSH3 0xED8 PUSH1 0x0 CODECOPY PUSH1 0x0 RETURN INVALID PUSH1 0x80 PUSH1 0x40 MSTORE PUSH1 0x4 CALLDATASIZE LT PUSH2 0x21A JUMPI PUSH1 0x0 CALLDATALOAD PUSH1 0xE0 SHR DUP1 PUSH4 0x640CF873 GT PUSH2 0x123 JUMPI DUP1 PUSH4 0xACE561A8 GT PUSH2 0xAB JUMPI DUP1 PUSH4 0xF2FDE38B GT PUSH2 0x6F JUMPI DUP1 PUSH4 0xF2FDE38B EQ PUSH2 0x705 JUMPI DUP1 PUSH4 0xF4F3B200 EQ PUSH2 0x72E JUMPI DUP1 PUSH4 0xFBA08D45 EQ PUSH2 0x757 JUMPI DUP1 PUSH4 0xFDDEA900 EQ PUSH2 0x794 JUMPI DUP1 PUSH4 0xFF8EDBDB EQ PUSH2 0x7BD JUMPI PUSH2 0x21A JUMP JUMPDEST DUP1 PUSH4 0xACE561A8 EQ PUSH2 0x645 JUMPI DUP1 PUSH4 0xB6011B4C EQ PUSH2 0x66E JUMPI DUP1 PUSH4 0xC0F4ED31 EQ PUSH2 0x697 JUMPI DUP1 PUSH4 0xC347F69B EQ PUSH2 0x6B3 JUMPI DUP1 PUSH4 0xE7AB44B4 EQ PUSH2 0x6DC JUMPI PUSH2 0x21A JUMP JUMPDEST DUP1 PUSH4 0x8450EBE4 GT PUSH2 0xF2 JUMPI DUP1 PUSH4 0x8450EBE4 EQ PUSH2 0x574 JUMPI DUP1 PUSH4 0x8C6AB013 EQ PUSH2 0x59D JUMPI DUP1 PUSH4 0x8DA5CB5B EQ PUSH2 0x5C6 JUMPI DUP1 PUSH4 0x8F32D59B EQ PUSH2 0x5F1 JUMPI DUP1 PUSH4 0x9DC6B78D EQ PUSH2 0x61C JUMPI PUSH2 0x21A JUMP JUMPDEST DUP1 PUSH4 0x640CF873 EQ PUSH2 0x4EF JUMPI DUP1 PUSH4 0x70480275 EQ PUSH2 0x518 JUMPI DUP1 PUSH4 0x715018A6 EQ PUSH2 0x541 JUMPI DUP1 PUSH4 0x7AD157B9 EQ PUSH2 0x558 JUMPI PUSH2 0x21A JUMP JUMPDEST DUP1 PUSH4 0x3169B515 GT PUSH2 0x1A6 JUMPI DUP1 PUSH4 0x47FCF018 GT PUSH2 0x175 JUMPI DUP1 PUSH4 0x47FCF018 EQ PUSH2 0x42F JUMPI DUP1 PUSH4 0x485F952E EQ PUSH2 0x458 JUMPI DUP1 PUSH4 0x488B0F7D EQ PUSH2 0x481 JUMPI DUP1 PUSH4 0x4A0AAFDA EQ PUSH2 0x4AA JUMPI DUP1 PUSH4 0x5AA8680A EQ PUSH2 0x4D3 JUMPI PUSH2 0x21A JUMP JUMPDEST DUP1 PUSH4 0x3169B515 EQ PUSH2 0x3A8 JUMPI DUP1 PUSH4 0x31AE450B EQ PUSH2 0x3C4 JUMPI DUP1 PUSH4 0x3790767D EQ PUSH2 0x3EF JUMPI DUP1 PUSH4 0x3CCFD60B EQ PUSH2 0x418 JUMPI PUSH2 0x21A JUMP JUMPDEST DUP1 PUSH4 0x1785F53C GT PUSH2 0x1ED JUMPI DUP1 PUSH4 0x1785F53C EQ PUSH2 0x2E8 JUMPI DUP1 PUSH4 0x179443F3 EQ PUSH2 0x311 JUMPI DUP1 PUSH4 0x17C48A70 EQ PUSH2 0x33A JUMPI DUP1 PUSH4 0x18FA0653 EQ PUSH2 0x356 JUMPI DUP1 PUSH4 0x1AFFFEC0 EQ PUSH2 0x37F JUMPI PUSH2 0x21A JUMP JUMPDEST DUP1 PUSH4 0xA1B0B91 EQ PUSH2 0x21C JUMPI DUP1 PUSH4 0xC82EA1A EQ PUSH2 0x245 JUMPI DUP1 PUSH4 0x14BFD6D0 EQ PUSH2 0x26E JUMPI DUP1 PUSH4 0x150B7A02 EQ PUSH2 0x2AB JUMPI JUMPDEST STOP JUMPDEST CALLVALUE DUP1 ISZERO PUSH2 0x228 JUMPI PUSH1 0x0 DUP1 REVERT JUMPDEST POP PUSH2 0x243 PUSH1 0x4 DUP1 CALLDATASIZE SUB PUSH2 0x23E SWAP2 SWAP1 DUP2 ADD SWAP1 PUSH2 0x3806 JUMP JUMPDEST PUSH2 0x7E6 JUMP JUMPDEST STOP JUMPDEST CALLVALUE DUP1 ISZERO PUSH2 0x251 JUMPI PUSH1 0x0 DUP1 REVERT JUMPDEST POP PUSH2 0x26C PUSH1 0x4 DUP1 CALLDATASIZE SUB PUSH2 0x267 SWAP2 SWAP1 DUP2 ADD SWAP1 PUSH2 0x38F8 JUMP JUMPDEST PUSH2 0x939 JUMP JUMPDEST STOP JUMPDEST CALLVALUE DUP1 ISZERO PUSH2 0x27A JUMPI PUSH1 0x0 DUP1 REVERT JUMPDEST POP PUSH2 0x295 PUSH1 0x4 DUP1 CALLDATASIZE SUB PUSH2 0x290 SWAP2 SWAP1 DUP2 ADD SWAP1 PUSH2 0x3AA6 JUMP JUMPDEST PUSH2 0xA89 JUMP JUMPDEST PUSH1 0x40 MLOAD PUSH2 0x2A2 SWAP2 SWAP1 PUSH2 0x417E JUMP JUMPDEST PUSH1 0x40 MLOAD DUP1 SWAP2 SUB SWAP1 RETURN JUMPDEST CALLVALUE DUP1 ISZERO PUSH2 0x2B7 JUMPI PUSH1 0x0 DUP1 REVERT JUMPDEST POP PUSH2 0x2D2 PUSH1 0x4 DUP1 CALLDATASIZE SUB PUSH2 0x2CD SWAP2 SWAP1 DUP2 ADD SWAP1 PUSH2 0x3947 JUMP JUMPDEST PUSH2 0xAC5 JUMP JUMPDEST PUSH1 0x40 MLOAD PUSH2 0x2DF SWAP2 SWAP1 PUSH2 0x4326 JUMP JUMPDEST PUSH1 0x40 MLOAD DUP1 SWAP2 SUB SWAP1 RETURN JUMPDEST CALLVALUE DUP1 ISZERO PUSH2 0x2F4 JUMPI PUSH1 0x0 DUP1 REVERT JUMPDEST POP PUSH2 0x30F PUSH1 0x4 DUP1 CALLDATASIZE SUB PUSH2 0x30A SWAP2 SWAP1 DUP2 ADD SWAP1 PUSH2 0x37B4 JUMP JUMPDEST PUSH2 0xAD9 JUMP JUMPDEST STOP JUMPDEST CALLVALUE DUP1 ISZERO PUSH2 0x31D JUMPI PUSH1 0x0 DUP1 REVERT JUMPDEST POP PUSH2 0x338 PUSH1 0x4 DUP1 CALLDATASIZE SUB PUSH2 0x333 SWAP2 SWAP1 DUP2 ADD SWAP1 PUSH2 0x3AF8 JUMP JUMPDEST PUSH2 0xCC0 JUMP JUMPDEST STOP JUMPDEST PUSH2 0x354 PUSH1 0x4 DUP1 CALLDATASIZE SUB PUSH2 0x34F SWAP2 SWAP1 DUP2 ADD SWAP1 PUSH2 0x3B34 JUMP JUMPDEST PUSH2 0xE4D JUMP JUMPDEST STOP JUMPDEST CALLVALUE DUP1 ISZERO PUSH2 0x362 JUMPI PUSH1 0x0 DUP1 REVERT JUMPDEST POP PUSH2 0x37D PUSH1 0x4 DUP1 CALLDATASIZE SUB PUSH2 0x378 SWAP2 SWAP1 DUP2 ADD SWAP1 PUSH2 0x38F8 JUMP JUMPDEST PUSH2 0xFDD JUMP JUMPDEST STOP JUMPDEST CALLVALUE DUP1 ISZERO PUSH2 0x38B JUMPI PUSH1 0x0 DUP1 REVERT JUMPDEST POP PUSH2 0x3A6 PUSH1 0x4 DUP1 CALLDATASIZE SUB PUSH2 0x3A1 SWAP2 SWAP1 DUP2 ADD SWAP1 PUSH2 0x38F8 JUMP JUMPDEST PUSH2 0x112D JUMP JUMPDEST STOP JUMPDEST PUSH2 0x3C2 PUSH1 0x4 DUP1 CALLDATASIZE SUB PUSH2 0x3BD SWAP2 SWAP1 DUP2 ADD SWAP1 PUSH2 0x3BE6 JUMP JUMPDEST PUSH2 0x127D JUMP JUMPDEST STOP JUMPDEST CALLVALUE DUP1 ISZERO PUSH2 0x3D0 JUMPI PUSH1 0x0 DUP1 REVERT JUMPDEST POP PUSH2 0x3D9 PUSH2 0x1410 JUMP JUMPDEST PUSH1 0x40 MLOAD PUSH2 0x3E6 SWAP2 SWAP1 PUSH2 0x42E9 JUMP JUMPDEST PUSH1 0x40 MLOAD DUP1 SWAP2 SUB SWAP1 RETURN JUMPDEST CALLVALUE DUP1 ISZERO PUSH2 0x3FB JUMPI PUSH1 0x0 DUP1 REVERT JUMPDEST POP PUSH2 0x416 PUSH1 0x4 DUP1 CALLDATASIZE SUB PUSH2 0x411 SWAP2 SWAP1 DUP2 ADD SWAP1 PUSH2 0x38F8 JUMP JUMPDEST PUSH2 0x149E JUMP JUMPDEST STOP JUMPDEST CALLVALUE DUP1 ISZERO PUSH2 0x424 JUMPI PUSH1 0x0 DUP1 REVERT JUMPDEST POP PUSH2 0x42D PUSH2 0x15EE JUMP JUMPDEST STOP JUMPDEST CALLVALUE DUP1 ISZERO PUSH2 0x43B JUMPI PUSH1 0x0 DUP1 REVERT JUMPDEST POP PUSH2 0x456 PUSH1 0x4 DUP1 CALLDATASIZE SUB PUSH2 0x451 SWAP2 SWAP1 DUP2 ADD SWAP1 PUSH2 0x3A29 JUMP JUMPDEST PUSH2 0x167E JUMP JUMPDEST STOP JUMPDEST CALLVALUE DUP1 ISZERO PUSH2 0x464 JUMPI PUSH1 0x0 DUP1 REVERT JUMPDEST POP PUSH2 0x47F PUSH1 0x4 DUP1 CALLDATASIZE SUB PUSH2 0x47A SWAP2 SWAP1 DUP2 ADD SWAP1 PUSH2 0x3A29 JUMP JUMPDEST PUSH2 0x193F JUMP JUMPDEST STOP JUMPDEST CALLVALUE DUP1 ISZERO PUSH2 0x48D JUMPI PUSH1 0x0 DUP1 REVERT JUMPDEST POP PUSH2 0x4A8 PUSH1 0x4 DUP1 CALLDATASIZE SUB PUSH2 0x4A3 SWAP2 SWAP1 DUP2 ADD SWAP1 PUSH2 0x3869 JUMP JUMPDEST PUSH2 0x1A8B JUMP JUMPDEST STOP JUMPDEST CALLVALUE DUP1 ISZERO PUSH2 0x4B6 JUMPI PUSH1 0x0 DUP1 REVERT JUMPDEST POP PUSH2 0x4D1 PUSH1 0x4 DUP1 CALLDATASIZE SUB PUSH2 0x4CC SWAP2 SWAP1 DUP2 ADD SWAP1 PUSH2 0x3806 JUMP JUMPDEST PUSH2 0x1BE1 JUMP JUMPDEST STOP JUMPDEST PUSH2 0x4ED PUSH1 0x4 DUP1 CALLDATASIZE SUB PUSH2 0x4E8 SWAP2 SWAP1 DUP2 ADD SWAP1 PUSH2 0x3B83 JUMP JUMPDEST PUSH2 0x1D34 JUMP JUMPDEST STOP JUMPDEST CALLVALUE DUP1 ISZERO PUSH2 0x4FB JUMPI PUSH1 0x0 DUP1 REVERT JUMPDEST POP PUSH2 0x516 PUSH1 0x4 DUP1 CALLDATASIZE SUB PUSH2 0x511 SWAP2 SWAP1 DUP2 ADD SWAP1 PUSH2 0x3D4A JUMP JUMPDEST PUSH2 0x1EC7 JUMP JUMPDEST STOP JUMPDEST CALLVALUE DUP1 ISZERO PUSH2 0x524 JUMPI PUSH1 0x0 DUP1 REVERT JUMPDEST POP PUSH2 0x53F PUSH1 0x4 DUP1 CALLDATASIZE SUB PUSH2 0x53A SWAP2 SWAP1 DUP2 ADD SWAP1 PUSH2 0x37B4 JUMP JUMPDEST PUSH2 0x2066 JUMP JUMPDEST STOP JUMPDEST CALLVALUE DUP1 ISZERO PUSH2 0x54D JUMPI PUSH1 0x0 DUP1 REVERT JUMPDEST POP PUSH2 0x556 PUSH2 0x219C JUMP JUMPDEST STOP JUMPDEST PUSH2 0x572 PUSH1 0x4 DUP1 CALLDATASIZE SUB PUSH2 0x56D SWAP2 SWAP1 DUP2 ADD SWAP1 PUSH2 0x3C49 JUMP JUMPDEST PUSH2 0x22A2 JUMP JUMPDEST STOP JUMPDEST CALLVALUE DUP1 ISZERO PUSH2 0x580 JUMPI PUSH1 0x0 DUP1 REVERT JUMPDEST POP PUSH2 0x59B PUSH1 0x4 DUP1 CALLDATASIZE SUB PUSH2 0x596 SWAP2 SWAP1 DUP2 ADD SWAP1 PUSH2 0x3806 JUMP JUMPDEST PUSH2 0x2433 JUMP JUMPDEST STOP JUMPDEST CALLVALUE DUP1 ISZERO PUSH2 0x5A9 JUMPI PUSH1 0x0 DUP1 REVERT JUMPDEST POP PUSH2 0x5C4 PUSH1 0x4 DUP1 CALLDATASIZE SUB PUSH2 0x5BF SWAP2 SWAP1 DUP2 ADD SWAP1 PUSH2 0x3C49 JUMP JUMPDEST PUSH2 0x2586 JUMP JUMPDEST STOP JUMPDEST CALLVALUE DUP1 ISZERO PUSH2 0x5D2 JUMPI PUSH1 0x0 DUP1 REVERT JUMPDEST POP PUSH2 0x5DB PUSH2 0x2716 JUMP JUMPDEST PUSH1 0x40 MLOAD PUSH2 0x5E8 SWAP2 SWAP1 PUSH2 0x417E JUMP JUMPDEST PUSH1 0x40 MLOAD DUP1 SWAP2 SUB SWAP1 RETURN JUMPDEST CALLVALUE DUP1 ISZERO PUSH2 0x5FD JUMPI PUSH1 0x0 DUP1 REVERT JUMPDEST POP PUSH2 0x606 PUSH2 0x273F JUMP JUMPDEST PUSH1 0x40 MLOAD PUSH2 0x613 SWAP2 SWAP1 PUSH2 0x430B JUMP JUMPDEST PUSH1 0x40 MLOAD DUP1 SWAP2 SUB SWAP1 RETURN JUMPDEST CALLVALUE DUP1 ISZERO PUSH2 0x628 JUMPI PUSH1 0x0 DUP1 REVERT JUMPDEST POP PUSH2 0x643 PUSH1 0x4 DUP1 CALLDATASIZE SUB PUSH2 0x63E SWAP2 SWAP1 DUP2 ADD SWAP1 PUSH2 0x38F8 JUMP JUMPDEST PUSH2 0x279D JUMP JUMPDEST STOP JUMPDEST CALLVALUE DUP1 ISZERO PUSH2 0x651 JUMPI PUSH1 0x0 DUP1 REVERT JUMPDEST POP PUSH2 0x66C PUSH1 0x4 DUP1 CALLDATASIZE SUB PUSH2 0x667 SWAP2 SWAP1 DUP2 ADD SWAP1 PUSH2 0x38F8 JUMP JUMPDEST PUSH2 0x28ED JUMP JUMPDEST STOP JUMPDEST CALLVALUE DUP1 ISZERO PUSH2 0x67A JUMPI PUSH1 0x0 DUP1 REVERT JUMPDEST POP PUSH2 0x695 PUSH1 0x4 DUP1 CALLDATASIZE SUB PUSH2 0x690 SWAP2 SWAP1 DUP2 ADD SWAP1 PUSH2 0x38F8 JUMP JUMPDEST PUSH2 0x2A3D JUMP JUMPDEST STOP JUMPDEST PUSH2 0x6B1 PUSH1 0x4 DUP1 CALLDATASIZE SUB PUSH2 0x6AC SWAP2 SWAP1 DUP2 ADD SWAP1 PUSH2 0x3C98 JUMP JUMPDEST PUSH2 0x2B8D JUMP JUMPDEST STOP JUMPDEST CALLVALUE DUP1 ISZERO PUSH2 0x6BF JUMPI PUSH1 0x0 DUP1 REVERT JUMPDEST POP PUSH2 0x6DA PUSH1 0x4 DUP1 CALLDATASIZE SUB PUSH2 0x6D5 SWAP2 SWAP1 DUP2 ADD SWAP1 PUSH2 0x38F8 JUMP JUMPDEST PUSH2 0x2D1E JUMP JUMPDEST STOP JUMPDEST CALLVALUE DUP1 ISZERO PUSH2 0x6E8 JUMPI PUSH1 0x0 DUP1 REVERT JUMPDEST POP PUSH2 0x703 PUSH1 0x4 DUP1 CALLDATASIZE SUB PUSH2 0x6FE SWAP2 SWAP1 DUP2 ADD SWAP1 PUSH2 0x3AF8 JUMP JUMPDEST PUSH2 0x2E6E JUMP JUMPDEST STOP JUMPDEST CALLVALUE DUP1 ISZERO PUSH2 0x711 JUMPI PUSH1 0x0 DUP1 REVERT JUMPDEST POP PUSH2 0x72C PUSH1 0x4 DUP1 CALLDATASIZE SUB PUSH2 0x727 SWAP2 SWAP1 DUP2 ADD SWAP1 PUSH2 0x37B4 JUMP JUMPDEST PUSH2 0x2FFB JUMP JUMPDEST STOP JUMPDEST CALLVALUE DUP1 ISZERO PUSH2 0x73A JUMPI PUSH1 0x0 DUP1 REVERT JUMPDEST POP PUSH2 0x755 PUSH1 0x4 DUP1 CALLDATASIZE SUB PUSH2 0x750 SWAP2 SWAP1 DUP2 ADD SWAP1 PUSH2 0x37B4 JUMP JUMPDEST PUSH2 0x304E JUMP JUMPDEST STOP JUMPDEST CALLVALUE DUP1 ISZERO PUSH2 0x763 JUMPI PUSH1 0x0 DUP1 REVERT JUMPDEST POP PUSH2 0x77E PUSH1 0x4 DUP1 CALLDATASIZE SUB PUSH2 0x779 SWAP2 SWAP1 DUP2 ADD SWAP1 PUSH2 0x37B4 JUMP JUMPDEST PUSH2 0x3193 JUMP JUMPDEST PUSH1 0x40 MLOAD PUSH2 0x78B SWAP2 SWAP1 PUSH2 0x430B JUMP JUMPDEST PUSH1 0x40 MLOAD DUP1 SWAP2 SUB SWAP1 RETURN JUMPDEST CALLVALUE DUP1 ISZERO PUSH2 0x7A0 JUMPI PUSH1 0x0 DUP1 REVERT JUMPDEST POP PUSH2 0x7BB PUSH1 0x4 DUP1 CALLDATASIZE SUB PUSH2 0x7B6 SWAP2 SWAP1 DUP2 ADD SWAP1 PUSH2 0x39C2 JUMP JUMPDEST PUSH2 0x3235 JUMP JUMPDEST STOP JUMPDEST CALLVALUE DUP1 ISZERO PUSH2 0x7C9 JUMPI PUSH1 0x0 DUP1 REVERT JUMPDEST POP PUSH2 0x7E4 PUSH1 0x4 DUP1 CALLDATASIZE SUB PUSH2 0x7DF SWAP2 SWAP1 DUP2 ADD SWAP1 PUSH2 0x3CE7 JUMP JUMPDEST PUSH2 0x3386 JUMP JUMPDEST STOP JUMPDEST PUSH2 0x7EF CALLER PUSH2 0x3193 JUMP JUMPDEST DUP1 PUSH2 0x7FE JUMPI POP PUSH2 0x7FD PUSH2 0x273F JUMP JUMPDEST JUMPDEST PUSH2 0x83D JUMPI PUSH1 0x40 MLOAD PUSH32 0x8C379A000000000000000000000000000000000000000000000000000000000 DUP2 MSTORE PUSH1 0x4 ADD PUSH2 0x834 SWAP1 PUSH2 0x4391 JUMP JUMPDEST PUSH1 0x40 MLOAD DUP1 SWAP2 SUB SWAP1 REVERT JUMPDEST PUSH1 0x0 DUP5 SWAP1 POP DUP1 PUSH20 0xFFFFFFFFFFFFFFFFFFFFFFFFFFFFFFFFFFFFFFFF AND PUSH4 0x23B872DD DUP6 DUP6 DUP6 PUSH1 0x40 MLOAD DUP5 PUSH4 0xFFFFFFFF AND PUSH1 0xE0 SHL DUP2 MSTORE PUSH1 0x4 ADD PUSH2 0x87F SWAP4 SWAP3 SWAP2 SWAP1 PUSH2 0x41DD JUMP JUMPDEST PUSH1 0x0 PUSH1 0x40 MLOAD DUP1 DUP4 SUB DUP2 PUSH1 0x0 DUP8 DUP1 EXTCODESIZE ISZERO DUP1 ISZERO PUSH2 0x899 JUMPI PUSH1 0x0 DUP1 REVERT JUMPDEST POP GAS CALL ISZERO DUP1 ISZERO PUSH2 0x8AD JUMPI RETURNDATASIZE PUSH1 0x0 DUP1 RETURNDATACOPY RETURNDATASIZE PUSH1 0x0 REVERT JUMPDEST POP POP POP POP PUSH1 0x2 PUSH1 0x14 ADD PUSH1 0x40 MLOAD PUSH2 0x8C3 SWAP2 SWAP1 PUSH2 0x4167 JUMP JUMPDEST PUSH1 0x40 MLOAD DUP1 SWAP2 SUB SWAP1 KECCAK256 DUP6 PUSH20 0xFFFFFFFFFFFFFFFFFFFFFFFFFFFFFFFFFFFFFFFF AND CALLER PUSH20 0xFFFFFFFFFFFFFFFFFFFFFFFFFFFFFFFFFFFFFFFF AND PUSH32 0x32A9EEB55EA56EB60BADFB6642D5B92BE35B6DA6F74892C12D0E14A50DFC2BAC DUP7 DUP7 PUSH1 0x40 MLOAD PUSH2 0x92A SWAP3 SWAP2 SWAP1 PUSH2 0x4289 JUMP JUMPDEST PUSH1 0x40 MLOAD DUP1 SWAP2 SUB SWAP1 LOG4 POP POP POP POP POP JUMP JUMPDEST PUSH2 0x942 CALLER PUSH2 0x3193 JUMP JUMPDEST DUP1 PUSH2 0x951 JUMPI POP PUSH2 0x950 PUSH2 0x273F JUMP JUMPDEST JUMPDEST PUSH2 0x990 JUMPI PUSH1 0x40 MLOAD PUSH32 0x8C379A000000000000000000000000000000000000000000000000000000000 DUP2 MSTORE PUSH1 0x4 ADD PUSH2 0x987 SWAP1 PUSH2 0x4391 JUMP JUMPDEST PUSH1 0x40 MLOAD DUP1 SWAP2 SUB SWAP1 REVERT JUMPDEST PUSH1 0x0 DUP4 SWAP1 POP DUP1 PUSH20 0xFFFFFFFFFFFFFFFFFFFFFFFFFFFFFFFFFFFFFFFF AND PUSH4 0xA457C2D7 DUP5 DUP5 PUSH1 0x40 MLOAD DUP4 PUSH4 0xFFFFFFFF AND PUSH1 0xE0 SHL DUP2 MSTORE PUSH1 0x4 ADD PUSH2 0x9D0 SWAP3 SWAP2 SWAP1 PUSH2 0x4289 JUMP JUMPDEST PUSH1 0x0 PUSH1 0x40 MLOAD DUP1 DUP4 SUB DUP2 PUSH1 0x0 DUP8 DUP1 EXTCODESIZE ISZERO DUP1 ISZERO PUSH2 0x9EA JUMPI PUSH1 0x0 DUP1 REVERT JUMPDEST POP GAS CALL ISZERO DUP1 ISZERO PUSH2 0x9FE JUMPI RETURNDATASIZE PUSH1 0x0 DUP1 RETURNDATACOPY RETURNDATASIZE PUSH1 0x0 REVERT JUMPDEST POP POP POP POP PUSH1 0x2 PUSH1 0x16 ADD PUSH1 0x40 MLOAD PUSH2 0xA14 SWAP2 SWAP1 PUSH2 0x4167 JUMP JUMPDEST PUSH1 0x40 MLOAD DUP1 SWAP2 SUB SWAP1 KECCAK256 DUP5 PUSH20 0xFFFFFFFFFFFFFFFFFFFFFFFFFFFFFFFFFFFFFFFF AND CALLER PUSH20 0xFFFFFFFFFFFFFFFFFFFFFFFFFFFFFFFFFFFFFFFF AND PUSH32 0x32A9EEB55EA56EB60BADFB6642D5B92BE35B6DA6F74892C12D0E14A50DFC2BAC DUP7 DUP7 PUSH1 0x40 MLOAD PUSH2 0xA7B SWAP3 SWAP2 SWAP1 PUSH2 0x4289 JUMP JUMPDEST PUSH1 0x40 MLOAD DUP1 SWAP2 SUB SWAP1 LOG4 POP POP POP POP JUMP JUMPDEST PUSH1 0x1 DUP2 DUP2 SLOAD DUP2 LT PUSH2 0xA96 JUMPI INVALID JUMPDEST SWAP1 PUSH1 0x0 MSTORE PUSH1 0x20 PUSH1 0x0 KECCAK256 ADD PUSH1 0x0 SWAP2 POP SLOAD SWAP1 PUSH2 0x100 EXP SWAP1 DIV PUSH20 0xFFFFFFFFFFFFFFFFFFFFFFFFFFFFFFFFFFFFFFFF AND DUP2 JUMP JUMPDEST PUSH1 0x0 PUSH4 0x150B7A02 PUSH1 0xE0 SHL SWAP1 POP SWAP5 SWAP4 POP POP POP POP JUMP JUMPDEST PUSH2 0xAE1 PUSH2 0x273F JUMP JUMPDEST PUSH2 0xB20 JUMPI PUSH1 0x40 MLOAD PUSH32 0x8C379A000000000000000000000000000000000000000000000000000000000 DUP2 MSTORE PUSH1 0x4 ADD PUSH2 0xB17 SWAP1 PUSH2 0x43D1 JUMP JUMPDEST PUSH1 0x40 MLOAD DUP1 SWAP2 SUB SWAP1 REVERT JUMPDEST PUSH1 0x0 DUP1 SWAP1 POP JUMPDEST PUSH1 0x1 DUP1 SLOAD SWAP1 POP DUP2 LT ISZERO PUSH2 0xC83 JUMPI DUP2 PUSH20 0xFFFFFFFFFFFFFFFFFFFFFFFFFFFFFFFFFFFFFFFF AND PUSH1 0x1 DUP3 DUP2 SLOAD DUP2 LT PUSH2 0xB57 JUMPI INVALID JUMPDEST SWAP1 PUSH1 0x0 MSTORE PUSH1 0x20 PUSH1 0x0 KECCAK256 ADD PUSH1 0x0 SWAP1 SLOAD SWAP1 PUSH2 0x100 EXP SWAP1 DIV PUSH20 0xFFFFFFFFFFFFFFFFFFFFFFFFFFFFFFFFFFFFFFFF AND PUSH20 0xFFFFFFFFFFFFFFFFFFFFFFFFFFFFFFFFFFFFFFFF AND EQ ISZERO PUSH2 0xC76 JUMPI PUSH1 0x1 DUP2 DUP2 SLOAD DUP2 LT PUSH2 0xBAB JUMPI INVALID JUMPDEST SWAP1 PUSH1 0x0 MSTORE PUSH1 0x20 PUSH1 0x0 KECCAK256 ADD PUSH1 0x0 SWAP1 SLOAD SWAP1 PUSH2 0x100 EXP SWAP1 DIV PUSH20 0xFFFFFFFFFFFFFFFFFFFFFFFFFFFFFFFFFFFFFFFF AND PUSH1 0x1 DUP1 DUP1 DUP1 SLOAD SWAP1 POP SUB DUP2 SLOAD DUP2 LT PUSH2 0xBE9 JUMPI INVALID JUMPDEST SWAP1 PUSH1 0x0 MSTORE PUSH1 0x20 PUSH1 0x0 KECCAK256 ADD PUSH1 0x0 PUSH2 0x100 EXP DUP2 SLOAD DUP2 PUSH20 0xFFFFFFFFFFFFFFFFFFFFFFFFFFFFFFFFFFFFFFFF MUL NOT AND SWAP1 DUP4 PUSH20 0xFFFFFFFFFFFFFFFFFFFFFFFFFFFFFFFFFFFFFFFF AND MUL OR SWAP1 SSTORE POP PUSH1 0x1 DUP1 SLOAD DUP1 PUSH2 0xC3C JUMPI INVALID JUMPDEST PUSH1 0x1 SWAP1 SUB DUP2 DUP2 SWAP1 PUSH1 0x0 MSTORE PUSH1 0x20 PUSH1 0x0 KECCAK256 ADD PUSH1 0x0 PUSH2 0x100 EXP DUP2 SLOAD SWAP1 PUSH20 0xFFFFFFFFFFFFFFFFFFFFFFFFFFFFFFFFFFFFFFFF MUL NOT AND SWAP1 SSTORE SWAP1 SSTORE PUSH2 0xC83 JUMP JUMPDEST DUP1 DUP1 PUSH1 0x1 ADD SWAP2 POP POP PUSH2 0xB26 JUMP JUMPDEST POP PUSH32 0xA0726C73CF6AD18DDB855BA65D1DDD4D7FD37D320F4E52F6B154C13D386F5FD9 DUP2 TIMESTAMP PUSH1 0x40 MLOAD PUSH2 0xCB5 SWAP3 SWAP2 SWAP1 PUSH2 0x4289 JUMP JUMPDEST PUSH1 0x40 MLOAD DUP1 SWAP2 SUB SWAP1 LOG1 POP JUMP JUMPDEST PUSH2 0xCC9 CALLER PUSH2 0x3193 JUMP JUMPDEST DUP1 PUSH2 0xCD8 JUMPI POP PUSH2 0xCD7 PUSH2 0x273F JUMP JUMPDEST JUMPDEST PUSH2 0xD17 JUMPI PUSH1 0x40 MLOAD PUSH32 0x8C379A000000000000000000000000000000000000000000000000000000000 DUP2 MSTORE PUSH1 0x4 ADD PUSH2 0xD0E SWAP1 PUSH2 0x4391 JUMP JUMPDEST PUSH1 0x40 MLOAD DUP1 SWAP2 SUB SWAP1 REVERT JUMPDEST PUSH1 0x1C PUSH1 0x0 SWAP1 SLOAD SWAP1 PUSH2 0x100 EXP SWAP1 DIV PUSH20 0xFFFFFFFFFFFFFFFFFFFFFFFFFFFFFFFFFFFFFFFF AND PUSH20 0xFFFFFFFFFFFFFFFFFFFFFFFFFFFFFFFFFFFFFFFF AND PUSH4 0x179443F3 DUP4 DUP4 PUSH1 0x40 MLOAD DUP4 PUSH4 0xFFFFFFFF AND PUSH1 0xE0 SHL DUP2 MSTORE PUSH1 0x4 ADD PUSH2 0xD74 SWAP3 SWAP2 SWAP1 PUSH2 0x442C JUMP JUMPDEST PUSH1 0x0 PUSH1 0x40 MLOAD DUP1 DUP4 SUB DUP2 PUSH1 0x0 DUP8 DUP1 EXTCODESIZE ISZERO DUP1 ISZERO PUSH2 0xD8E JUMPI PUSH1 0x0 DUP1 REVERT JUMPDEST POP GAS CALL ISZERO DUP1 ISZERO PUSH2 0xDA2 JUMPI RETURNDATASIZE PUSH1 0x0 DUP1 RETURNDATACOPY RETURNDATASIZE PUSH1 0x0 REVERT JUMPDEST POP POP POP POP PUSH1 0x2 PUSH1 0xB ADD PUSH1 0x40 MLOAD PUSH2 0xDB8 SWAP2 SWAP1 PUSH2 0x4167 JUMP JUMPDEST PUSH1 0x40 MLOAD DUP1 SWAP2 SUB SWAP1 KECCAK256 PUSH1 0x1C PUSH1 0x0 SWAP1 SLOAD SWAP1 PUSH2 0x100 EXP SWAP1 DIV PUSH20 0xFFFFFFFFFFFFFFFFFFFFFFFFFFFFFFFFFFFFFFFF AND PUSH20 0xFFFFFFFFFFFFFFFFFFFFFFFFFFFFFFFFFFFFFFFF AND CALLER PUSH20 0xFFFFFFFFFFFFFFFFFFFFFFFFFFFFFFFFFFFFFFFF AND PUSH32 0x32A9EEB55EA56EB60BADFB6642D5B92BE35B6DA6F74892C12D0E14A50DFC2BAC DUP5 DUP7 PUSH1 0x40 MLOAD PUSH2 0xE41 SWAP3 SWAP2 SWAP1 PUSH2 0x4289 JUMP JUMPDEST PUSH1 0x40 MLOAD DUP1 SWAP2 SUB SWAP1 LOG4 POP POP JUMP JUMPDEST PUSH2 0xE56 CALLER PUSH2 0x3193 JUMP JUMPDEST DUP1 PUSH2 0xE65 JUMPI POP PUSH2 0xE64 PUSH2 0x273F JUMP JUMPDEST JUMPDEST PUSH2 0xEA4 JUMPI PUSH1 0x40 MLOAD PUSH32 0x8C379A000000000000000000000000000000000000000000000000000000000 DUP2 MSTORE PUSH1 0x4 ADD PUSH2 0xE9B SWAP1 PUSH2 0x4391 JUMP JUMPDEST PUSH1 0x40 MLOAD DUP1 SWAP2 SUB SWAP1 REVERT JUMPDEST PUSH1 0x1C PUSH1 0x0 SWAP1 SLOAD SWAP1 PUSH2 0x100 EXP SWAP1 DIV PUSH20 0xFFFFFFFFFFFFFFFFFFFFFFFFFFFFFFFFFFFFFFFF AND PUSH20 0xFFFFFFFFFFFFFFFFFFFFFFFFFFFFFFFFFFFFFFFF AND PUSH4 0x136A6A24 DUP4 DUP6 DUP5 PUSH1 0x40 MLOAD DUP5 PUSH4 0xFFFFFFFF AND PUSH1 0xE0 SHL DUP2 MSTORE PUSH1 0x4 ADD PUSH2 0xF03 SWAP4 SWAP3 SWAP2 SWAP1 PUSH2 0x42B2 JUMP JUMPDEST PUSH1 0x0 PUSH1 0x40 MLOAD DUP1 DUP4 SUB DUP2 PUSH1 0x0 DUP8 DUP1 EXTCODESIZE ISZERO DUP1 ISZERO PUSH2 0xF1D JUMPI PUSH1 0x0 DUP1 REVERT JUMPDEST POP GAS CALL ISZERO DUP1 ISZERO PUSH2 0xF31 JUMPI RETURNDATASIZE PUSH1 0x0 DUP1 RETURNDATACOPY RETURNDATASIZE PUSH1 0x0 REVERT JUMPDEST POP POP POP POP PUSH1 0x2 PUSH1 0xE ADD PUSH1 0x40 MLOAD PUSH2 0xF47 SWAP2 SWAP1 PUSH2 0x4167 JUMP JUMPDEST PUSH1 0x40 MLOAD DUP1 SWAP2 SUB SWAP1 KECCAK256 PUSH1 0x1C PUSH1 0x0 SWAP1 SLOAD SWAP1 PUSH2 0x100 EXP SWAP1 DIV PUSH20 0xFFFFFFFFFFFFFFFFFFFFFFFFFFFFFFFFFFFFFFFF AND PUSH20 0xFFFFFFFFFFFFFFFFFFFFFFFFFFFFFFFFFFFFFFFF AND CALLER PUSH20 0xFFFFFFFFFFFFFFFFFFFFFFFFFFFFFFFFFFFFFFFF AND PUSH32 0x32A9EEB55EA56EB60BADFB6642D5B92BE35B6DA6F74892C12D0E14A50DFC2BAC DUP6 DUP8 PUSH1 0x40 MLOAD PUSH2 0xFD0 SWAP3 SWAP2 SWAP1 PUSH2 0x4289 JUMP JUMPDEST PUSH1 0x40 MLOAD DUP1 SWAP2 SUB SWAP1 LOG4 POP POP POP JUMP JUMPDEST PUSH2 0xFE6 CALLER PUSH2 0x3193 JUMP JUMPDEST DUP1 PUSH2 0xFF5 JUMPI POP PUSH2 0xFF4 PUSH2 0x273F JUMP JUMPDEST JUMPDEST PUSH2 0x1034 JUMPI PUSH1 0x40 MLOAD PUSH32 0x8C379A000000000000000000000000000000000000000000000000000000000 DUP2 MSTORE PUSH1 0x4 ADD PUSH2 0x102B SWAP1 PUSH2 0x4391 JUMP JUMPDEST PUSH1 0x40 MLOAD DUP1 SWAP2 SUB SWAP1 REVERT JUMPDEST PUSH1 0x0 DUP4 SWAP1 POP PUSH1 0x2 PUSH1 0x0 ADD PUSH1 0x40 MLOAD PUSH2 0x104B SWAP2 SWAP1 PUSH2 0x4167 JUMP JUMPDEST PUSH1 0x40 MLOAD DUP1 SWAP2 SUB SWAP1 KECCAK256 DUP5 PUSH20 0xFFFFFFFFFFFFFFFFFFFFFFFFFFFFFFFFFFFFFFFF AND CALLER PUSH20 0xFFFFFFFFFFFFFFFFFFFFFFFFFFFFFFFFFFFFFFFF AND PUSH32 0x32A9EEB55EA56EB60BADFB6642D5B92BE35B6DA6F74892C12D0E14A50DFC2BAC DUP8 DUP7 PUSH1 0x40 MLOAD PUSH2 0x10B2 SWAP3 SWAP2 SWAP1 PUSH2 0x4289 JUMP JUMPDEST PUSH1 0x40 MLOAD DUP1 SWAP2 SUB SWAP1 LOG4 DUP1 PUSH20 0xFFFFFFFFFFFFFFFFFFFFFFFFFFFFFFFFFFFFFFFF AND PUSH4 0x95EA7B3 DUP5 DUP5 PUSH1 0x40 MLOAD DUP4 PUSH4 0xFFFFFFFF AND PUSH1 0xE0 SHL DUP2 MSTORE PUSH1 0x4 ADD PUSH2 0x10F5 SWAP3 SWAP2 SWAP1 PUSH2 0x4289 JUMP JUMPDEST PUSH1 0x0 PUSH1 0x40 MLOAD DUP1 DUP4 SUB DUP2 PUSH1 0x0 DUP8 DUP1 EXTCODESIZE ISZERO DUP1 ISZERO PUSH2 0x110F JUMPI PUSH1 0x0 DUP1 REVERT JUMPDEST POP GAS CALL ISZERO DUP1 ISZERO PUSH2 0x1123 JUMPI RETURNDATASIZE PUSH1 0x0 DUP1 RETURNDATACOPY RETURNDATASIZE PUSH1 0x0 REVERT JUMPDEST POP POP POP POP POP POP POP POP JUMP JUMPDEST PUSH2 0x1136 CALLER PUSH2 0x3193 JUMP JUMPDEST DUP1 PUSH2 0x1145 JUMPI POP PUSH2 0x1144 PUSH2 0x273F JUMP JUMPDEST JUMPDEST PUSH2 0x1184 JUMPI PUSH1 0x40 MLOAD PUSH32 0x8C379A000000000000000000000000000000000000000000000000000000000 DUP2 MSTORE PUSH1 0x4 ADD PUSH2 0x117B SWAP1 PUSH2 0x4391 JUMP JUMPDEST PUSH1 0x40 MLOAD DUP1 SWAP2 SUB SWAP1 REVERT JUMPDEST PUSH1 0x0 DUP4 SWAP1 POP DUP1 PUSH20 0xFFFFFFFFFFFFFFFFFFFFFFFFFFFFFFFFFFFFFFFF AND PUSH4 0xD73DD623 DUP5 DUP5 PUSH1 0x40 MLOAD DUP4 PUSH4 0xFFFFFFFF AND PUSH1 0xE0 SHL DUP2 MSTORE PUSH1 0x4 ADD PUSH2 0x11C4 SWAP3 SWAP2 SWAP1 PUSH2 0x4289 JUMP JUMPDEST PUSH1 0x0 PUSH1 0x40 MLOAD DUP1 DUP4 SUB DUP2 PUSH1 0x0 DUP8 DUP1 EXTCODESIZE ISZERO DUP1 ISZERO PUSH2 0x11DE JUMPI PUSH1 0x0 DUP1 REVERT JUMPDEST POP GAS CALL ISZERO DUP1 ISZERO PUSH2 0x11F2 JUMPI RETURNDATASIZE PUSH1 0x0 DUP1 RETURNDATACOPY RETURNDATASIZE PUSH1 0x0 REVERT JUMPDEST POP POP POP POP PUSH1 0x2 PUSH1 0x12 ADD PUSH1 0x40 MLOAD PUSH2 0x1208 SWAP2 SWAP1 PUSH2 0x4167 JUMP JUMPDEST PUSH1 0x40 MLOAD DUP1 SWAP2 SUB SWAP1 KECCAK256 DUP5 PUSH20 0xFFFFFFFFFFFFFFFFFFFFFFFFFFFFFFFFFFFFFFFF AND CALLER PUSH20 0xFFFFFFFFFFFFFFFFFFFFFFFFFFFFFFFFFFFFFFFF AND PUSH32 0x32A9EEB55EA56EB60BADFB6642D5B92BE35B6DA6F74892C12D0E14A50DFC2BAC DUP7 DUP7 PUSH1 0x40 MLOAD PUSH2 0x126F SWAP3 SWAP2 SWAP1 PUSH2 0x4289 JUMP JUMPDEST PUSH1 0x40 MLOAD DUP1 SWAP2 SUB SWAP1 LOG4 POP POP POP POP JUMP JUMPDEST PUSH2 0x1286 CALLER PUSH2 0x3193 JUMP JUMPDEST DUP1 PUSH2 0x1295 JUMPI POP PUSH2 0x1294 PUSH2 0x273F JUMP JUMPDEST JUMPDEST PUSH2 0x12D4 JUMPI PUSH1 0x40 MLOAD PUSH32 0x8C379A000000000000000000000000000000000000000000000000000000000 DUP2 MSTORE PUSH1 0x4 ADD PUSH2 0x12CB SWAP1 PUSH2 0x4391 JUMP JUMPDEST PUSH1 0x40 MLOAD DUP1 SWAP2 SUB SWAP1 REVERT JUMPDEST PUSH1 0x1C PUSH1 0x0 SWAP1 SLOAD SWAP1 PUSH2 0x100 EXP SWAP1 DIV PUSH20 0xFFFFFFFFFFFFFFFFFFFFFFFFFFFFFFFFFFFFFFFF AND PUSH20 0xFFFFFFFFFFFFFFFFFFFFFFFFFFFFFFFFFFFFFFFF AND PUSH4 0x3169B515 DUP6 DUP6 DUP6 DUP6 PUSH1 0x40 MLOAD DUP6 PUSH4 0xFFFFFFFF AND PUSH1 0xE0 SHL DUP2 MSTORE PUSH1 0x4 ADD PUSH2 0x1335 SWAP5 SWAP4 SWAP3 SWAP2 SWAP1 PUSH2 0x449A JUMP JUMPDEST PUSH1 0x0 PUSH1 0x40 MLOAD DUP1 DUP4 SUB DUP2 PUSH1 0x0 DUP8 DUP1 EXTCODESIZE ISZERO DUP1 ISZERO PUSH2 0x134F JUMPI PUSH1 0x0 DUP1 REVERT JUMPDEST POP GAS CALL ISZERO DUP1 ISZERO PUSH2 0x1363 JUMPI RETURNDATASIZE PUSH1 0x0 DUP1 RETURNDATACOPY RETURNDATASIZE PUSH1 0x0 REVERT JUMPDEST POP POP POP POP PUSH1 0x2 PUSH1 0xC ADD PUSH1 0x40 MLOAD PUSH2 0x1379 SWAP2 SWAP1 PUSH2 0x4167 JUMP JUMPDEST PUSH1 0x40 MLOAD DUP1 SWAP2 SUB SWAP1 KECCAK256 PUSH1 0x1C PUSH1 0x0 SWAP1 SLOAD SWAP1 PUSH2 0x100 EXP SWAP1 DIV PUSH20 0xFFFFFFFFFFFFFFFFFFFFFFFFFFFFFFFFFFFFFFFF AND PUSH20 0xFFFFFFFFFFFFFFFFFFFFFFFFFFFFFFFFFFFFFFFF AND CALLER PUSH20 0xFFFFFFFFFFFFFFFFFFFFFFFFFFFFFFFFFFFFFFFF AND PUSH32 0x32A9EEB55EA56EB60BADFB6642D5B92BE35B6DA6F74892C12D0E14A50DFC2BAC DUP7 DUP9 PUSH1 0x40 MLOAD PUSH2 0x1402 SWAP3 SWAP2 SWAP1 PUSH2 0x4289 JUMP JUMPDEST PUSH1 0x40 MLOAD DUP1 SWAP2 SUB SWAP1 LOG4 POP POP POP POP JUMP JUMPDEST PUSH1 0x60 PUSH1 0x1 DUP1 SLOAD DUP1 PUSH1 0x20 MUL PUSH1 0x20 ADD PUSH1 0x40 MLOAD SWAP1 DUP2 ADD PUSH1 0x40 MSTORE DUP1 SWAP3 SWAP2 SWAP1 DUP2 DUP2 MSTORE PUSH1 0x20 ADD DUP3 DUP1 SLOAD DUP1 ISZERO PUSH2 0x1494 JUMPI PUSH1 0x20 MUL DUP3 ADD SWAP2 SWAP1 PUSH1 0x0 MSTORE PUSH1 0x20 PUSH1 0x0 KECCAK256 SWAP1 JUMPDEST DUP2 PUSH1 0x0 SWAP1 SLOAD SWAP1 PUSH2 0x100 EXP SWAP1 DIV PUSH20 0xFFFFFFFFFFFFFFFFFFFFFFFFFFFFFFFFFFFFFFFF AND PUSH20 0xFFFFFFFFFFFFFFFFFFFFFFFFFFFFFFFFFFFFFFFF AND DUP2 MSTORE PUSH1 0x20 ADD SWAP1 PUSH1 0x1 ADD SWAP1 DUP1 DUP4 GT PUSH2 0x144A JUMPI JUMPDEST POP POP POP POP POP SWAP1 POP SWAP1 JUMP JUMPDEST PUSH2 0x14A7 CALLER PUSH2 0x3193 JUMP JUMPDEST DUP1 PUSH2 0x14B6 JUMPI POP PUSH2 0x14B5 PUSH2 0x273F JUMP JUMPDEST JUMPDEST PUSH2 0x14F5 JUMPI PUSH1 0x40 MLOAD PUSH32 0x8C379A000000000000000000000000000000000000000000000000000000000 DUP2 MSTORE PUSH1 0x4 ADD PUSH2 0x14EC SWAP1 PUSH2 0x4391 JUMP JUMPDEST PUSH1 0x40 MLOAD DUP1 SWAP2 SUB SWAP1 REVERT JUMPDEST PUSH1 0x0 DUP4 SWAP1 POP DUP1 PUSH20 0xFFFFFFFFFFFFFFFFFFFFFFFFFFFFFFFFFFFFFFFF AND PUSH4 0xA9059CBB DUP5 DUP5 PUSH1 0x40 MLOAD DUP4 PUSH4 0xFFFFFFFF AND PUSH1 0xE0 SHL DUP2 MSTORE PUSH1 0x4 ADD PUSH2 0x1535 SWAP3 SWAP2 SWAP1 PUSH2 0x4289 JUMP JUMPDEST PUSH1 0x0 PUSH1 0x40 MLOAD DUP1 DUP4 SUB DUP2 PUSH1 0x0 DUP8 DUP1 EXTCODESIZE ISZERO DUP1 ISZERO PUSH2 0x154F JUMPI PUSH1 0x0 DUP1 REVERT JUMPDEST POP GAS CALL ISZERO DUP1 ISZERO PUSH2 0x1563 JUMPI RETURNDATASIZE PUSH1 0x0 DUP1 RETURNDATACOPY RETURNDATASIZE PUSH1 0x0 REVERT JUMPDEST POP POP POP POP PUSH1 0x2 PUSH1 0x13 ADD PUSH1 0x40 MLOAD PUSH2 0x1579 SWAP2 SWAP1 PUSH2 0x4167 JUMP JUMPDEST PUSH1 0x40 MLOAD DUP1 SWAP2 SUB SWAP1 KECCAK256 DUP5 PUSH20 0xFFFFFFFFFFFFFFFFFFFFFFFFFFFFFFFFFFFFFFFF AND CALLER PUSH20 0xFFFFFFFFFFFFFFFFFFFFFFFFFFFFFFFFFFFFFFFF AND PUSH32 0x32A9EEB55EA56EB60BADFB6642D5B92BE35B6DA6F74892C12D0E14A50DFC2BAC DUP7 DUP7 PUSH1 0x40 MLOAD PUSH2 0x15E0 SWAP3 SWAP2 SWAP1 PUSH2 0x4289 JUMP JUMPDEST PUSH1 0x40 MLOAD DUP1 SWAP2 SUB SWAP1 LOG4 POP POP POP POP JUMP JUMPDEST PUSH2 0x15F6 PUSH2 0x273F JUMP JUMPDEST PUSH2 0x1635 JUMPI PUSH1 0x40 MLOAD PUSH32 0x8C379A000000000000000000000000000000000000000000000000000000000 DUP2 MSTORE PUSH1 0x4 ADD PUSH2 0x162C SWAP1 PUSH2 0x43D1 JUMP JUMPDEST PUSH1 0x40 MLOAD DUP1 SWAP2 SUB SWAP1 REVERT JUMPDEST CALLER PUSH20 0xFFFFFFFFFFFFFFFFFFFFFFFFFFFFFFFFFFFFFFFF AND PUSH2 0x8FC SELFBALANCE SWAP1 DUP2 ISZERO MUL SWAP1 PUSH1 0x40 MLOAD PUSH1 0x0 PUSH1 0x40 MLOAD DUP1 DUP4 SUB DUP2 DUP6 DUP9 DUP9 CALL SWAP4 POP POP POP POP ISZERO DUP1 ISZERO PUSH2 0x167B JUMPI RETURNDATASIZE PUSH1 0x0 DUP1 RETURNDATACOPY RETURNDATASIZE PUSH1 0x0 REVERT JUMPDEST POP JUMP JUMPDEST PUSH2 0x1687 CALLER PUSH2 0x3193 JUMP JUMPDEST DUP1 PUSH2 0x1696 JUMPI POP PUSH2 0x1695 PUSH2 0x273F JUMP JUMPDEST JUMPDEST PUSH2 0x16D5 JUMPI PUSH1 0x40 MLOAD PUSH32 0x8C379A000000000000000000000000000000000000000000000000000000000 DUP2 MSTORE PUSH1 0x4 ADD PUSH2 0x16CC SWAP1 PUSH2 0x4391 JUMP JUMPDEST PUSH1 0x40 MLOAD DUP1 SWAP2 SUB SWAP1 REVERT JUMPDEST PUSH1 0x0 DUP3 SWAP1 POP PUSH1 0x60 DUP2 PUSH20 0xFFFFFFFFFFFFFFFFFFFFFFFFFFFFFFFFFFFFFFFF AND PUSH4 0xC87B56DD DUP5 PUSH1 0x40 MLOAD DUP3 PUSH4 0xFFFFFFFF AND PUSH1 0xE0 SHL DUP2 MSTORE PUSH1 0x4 ADD PUSH2 0x1715 SWAP2 SWAP1 PUSH2 0x4411 JUMP JUMPDEST PUSH1 0x0 PUSH1 0x40 MLOAD DUP1 DUP4 SUB DUP2 PUSH1 0x0 DUP8 DUP1 EXTCODESIZE ISZERO DUP1 ISZERO PUSH2 0x172F JUMPI PUSH1 0x0 DUP1 REVERT JUMPDEST POP GAS CALL ISZERO DUP1 ISZERO PUSH2 0x1743 JUMPI RETURNDATASIZE PUSH1 0x0 DUP1 RETURNDATACOPY RETURNDATASIZE PUSH1 0x0 REVERT JUMPDEST POP POP POP POP PUSH1 0x40 MLOAD RETURNDATASIZE PUSH1 0x0 DUP3 RETURNDATACOPY RETURNDATASIZE PUSH1 0x1F NOT PUSH1 0x1F DUP3 ADD AND DUP3 ADD DUP1 PUSH1 0x40 MSTORE POP PUSH2 0x176C SWAP2 SWAP1 DUP2 ADD SWAP1 PUSH2 0x3A65 JUMP JUMPDEST SWAP1 POP ADDRESS PUSH20 0xFFFFFFFFFFFFFFFFFFFFFFFFFFFFFFFFFFFFFFFF AND DUP3 PUSH20 0xFFFFFFFFFFFFFFFFFFFFFFFFFFFFFFFFFFFFFFFF AND PUSH4 0x81812FC DUP6 PUSH1 0x40 MLOAD DUP3 PUSH4 0xFFFFFFFF AND PUSH1 0xE0 SHL DUP2 MSTORE PUSH1 0x4 ADD PUSH2 0x17BE SWAP2 SWAP1 PUSH2 0x4411 JUMP JUMPDEST PUSH1 0x20 PUSH1 0x40 MLOAD DUP1 DUP4 SUB DUP2 PUSH1 0x0 DUP8 DUP1 EXTCODESIZE ISZERO DUP1 ISZERO PUSH2 0x17D8 JUMPI PUSH1 0x0 DUP1 REVERT JUMPDEST POP GAS CALL ISZERO DUP1 ISZERO PUSH2 0x17EC JUMPI RETURNDATASIZE PUSH1 0x0 DUP1 RETURNDATACOPY RETURNDATASIZE PUSH1 0x0 REVERT JUMPDEST POP POP POP POP PUSH1 0x40 MLOAD RETURNDATASIZE PUSH1 0x1F NOT PUSH1 0x1F DUP3 ADD AND DUP3 ADD DUP1 PUSH1 0x40 MSTORE POP PUSH2 0x1810 SWAP2 SWAP1 DUP2 ADD SWAP1 PUSH2 0x37DD JUMP JUMPDEST PUSH20 0xFFFFFFFFFFFFFFFFFFFFFFFFFFFFFFFFFFFFFFFF AND EQ PUSH2 0x1866 JUMPI PUSH1 0x40 MLOAD PUSH32 0x8C379A000000000000000000000000000000000000000000000000000000000 DUP2 MSTORE PUSH1 0x4 ADD PUSH2 0x185D SWAP1 PUSH2 0x43B1 JUMP JUMPDEST PUSH1 0x40 MLOAD DUP1 SWAP2 SUB SWAP1 REVERT JUMPDEST DUP2 PUSH20 0xFFFFFFFFFFFFFFFFFFFFFFFFFFFFFFFFFFFFFFFF AND PUSH4 0x42966C68 DUP5 PUSH1 0x40 MLOAD DUP3 PUSH4 0xFFFFFFFF AND PUSH1 0xE0 SHL DUP2 MSTORE PUSH1 0x4 ADD PUSH2 0x189F SWAP2 SWAP1 PUSH2 0x4411 JUMP JUMPDEST PUSH1 0x0 PUSH1 0x40 MLOAD DUP1 DUP4 SUB DUP2 PUSH1 0x0 DUP8 DUP1 EXTCODESIZE ISZERO DUP1 ISZERO PUSH2 0x18B9 JUMPI PUSH1 0x0 DUP1 REVERT JUMPDEST POP GAS CALL ISZERO DUP1 ISZERO PUSH2 0x18CD JUMPI RETURNDATASIZE PUSH1 0x0 DUP1 RETURNDATACOPY RETURNDATASIZE PUSH1 0x0 REVERT JUMPDEST POP POP POP POP CALLER PUSH20 0xFFFFFFFFFFFFFFFFFFFFFFFFFFFFFFFFFFFFFFFF AND DUP4 DUP6 PUSH20 0xFFFFFFFFFFFFFFFFFFFFFFFFFFFFFFFFFFFFFFFF AND PUSH32 0x926B248E45DFDD4C4CAEC216E73EC503CE2522D3B5646C861D1B074210675D0E TIMESTAMP DUP6 PUSH1 0x40 MLOAD PUSH2 0x1931 SWAP3 SWAP2 SWAP1 PUSH2 0x4592 JUMP JUMPDEST PUSH1 0x40 MLOAD DUP1 SWAP2 SUB SWAP1 LOG4 POP POP POP POP JUMP JUMPDEST PUSH2 0x1948 CALLER PUSH2 0x3193 JUMP JUMPDEST DUP1 PUSH2 0x1957 JUMPI POP PUSH2 0x1956 PUSH2 0x273F JUMP JUMPDEST JUMPDEST PUSH2 0x1996 JUMPI PUSH1 0x40 MLOAD PUSH32 0x8C379A000000000000000000000000000000000000000000000000000000000 DUP2 MSTORE PUSH1 0x4 ADD PUSH2 0x198D SWAP1 PUSH2 0x4391 JUMP JUMPDEST PUSH1 0x40 MLOAD DUP1 SWAP2 SUB SWAP1 REVERT JUMPDEST PUSH1 0x0 DUP3 SWAP1 POP PUSH1 0x2 DUP1 ADD PUSH1 0x40 MLOAD PUSH2 0x19AC SWAP2 SWAP1 PUSH2 0x4167 JUMP JUMPDEST PUSH1 0x40 MLOAD DUP1 SWAP2 SUB SWAP1 KECCAK256 DUP4 PUSH20 0xFFFFFFFFFFFFFFFFFFFFFFFFFFFFFFFFFFFFFFFF AND CALLER PUSH20 0xFFFFFFFFFFFFFFFFFFFFFFFFFFFFFFFFFFFFFFFF AND PUSH32 0x32A9EEB55EA56EB60BADFB6642D5B92BE35B6DA6F74892C12D0E14A50DFC2BAC DUP7 DUP7 PUSH1 0x40 MLOAD PUSH2 0x1A13 SWAP3 SWAP2 SWAP1 PUSH2 0x4289 JUMP JUMPDEST PUSH1 0x40 MLOAD DUP1 SWAP2 SUB SWAP1 LOG4 DUP1 PUSH20 0xFFFFFFFFFFFFFFFFFFFFFFFFFFFFFFFFFFFFFFFF AND PUSH4 0x42966C68 DUP4 PUSH1 0x40 MLOAD DUP3 PUSH4 0xFFFFFFFF AND PUSH1 0xE0 SHL DUP2 MSTORE PUSH1 0x4 ADD PUSH2 0x1A54 SWAP2 SWAP1 PUSH2 0x4411 JUMP JUMPDEST PUSH1 0x0 PUSH1 0x40 MLOAD DUP1 DUP4 SUB DUP2 PUSH1 0x0 DUP8 DUP1 EXTCODESIZE ISZERO DUP1 ISZERO PUSH2 0x1A6E JUMPI PUSH1 0x0 DUP1 REVERT JUMPDEST POP GAS CALL ISZERO DUP1 ISZERO PUSH2 0x1A82 JUMPI RETURNDATASIZE PUSH1 0x0 DUP1 RETURNDATACOPY RETURNDATASIZE PUSH1 0x0 REVERT JUMPDEST POP POP POP POP POP POP POP JUMP JUMPDEST PUSH2 0x1A94 CALLER PUSH2 0x3193 JUMP JUMPDEST DUP1 PUSH2 0x1AA3 JUMPI POP PUSH2 0x1AA2 PUSH2 0x273F JUMP JUMPDEST JUMPDEST PUSH2 0x1AE2 JUMPI PUSH1 0x40 MLOAD PUSH32 0x8C379A000000000000000000000000000000000000000000000000000000000 DUP2 MSTORE PUSH1 0x4 ADD PUSH2 0x1AD9 SWAP1 PUSH2 0x4391 JUMP JUMPDEST PUSH1 0x40 MLOAD DUP1 SWAP2 SUB SWAP1 REVERT JUMPDEST PUSH1 0x0 DUP6 SWAP1 POP PUSH1 0x2 PUSH1 0x4 ADD PUSH1 0x40 MLOAD PUSH2 0x1AF9 SWAP2 SWAP1 PUSH2 0x4167 JUMP JUMPDEST PUSH1 0x40 MLOAD DUP1 SWAP2 SUB SWAP1 KECCAK256 DUP7 PUSH20 0xFFFFFFFFFFFFFFFFFFFFFFFFFFFFFFFFFFFFFFFF AND CALLER PUSH20 0xFFFFFFFFFFFFFFFFFFFFFFFFFFFFFFFFFFFFFFFF AND PUSH32 0x32A9EEB55EA56EB60BADFB6642D5B92BE35B6DA6F74892C12D0E14A50DFC2BAC DUP10 DUP8 PUSH1 0x40 MLOAD PUSH2 0x1B60 SWAP3 SWAP2 SWAP1 PUSH2 0x4289 JUMP JUMPDEST PUSH1 0x40 MLOAD DUP1 SWAP2 SUB SWAP1 LOG4 DUP1 PUSH20 0xFFFFFFFFFFFFFFFFFFFFFFFFFFFFFFFFFFFFFFFF AND PUSH4 0xB88D4FDE DUP7 DUP7 DUP7 DUP7 PUSH1 0x40 MLOAD DUP6 PUSH4 0xFFFFFFFF AND PUSH1 0xE0 SHL DUP2 MSTORE PUSH1 0x4 ADD PUSH2 0x1BA7 SWAP5 SWAP4 SWAP3 SWAP2 SWAP1 PUSH2 0x4214 JUMP JUMPDEST PUSH1 0x0 PUSH1 0x40 MLOAD DUP1 DUP4 SUB DUP2 PUSH1 0x0 DUP8 DUP1 EXTCODESIZE ISZERO DUP1 ISZERO PUSH2 0x1BC1 JUMPI PUSH1 0x0 DUP1 REVERT JUMPDEST POP GAS CALL ISZERO DUP1 ISZERO PUSH2 0x1BD5 JUMPI RETURNDATASIZE PUSH1 0x0 DUP1 RETURNDATACOPY RETURNDATASIZE PUSH1 0x0 REVERT JUMPDEST POP POP POP POP POP POP POP POP POP POP JUMP JUMPDEST PUSH2 0x1BEA CALLER PUSH2 0x3193 JUMP JUMPDEST DUP1 PUSH2 0x1BF9 JUMPI POP PUSH2 0x1BF8 PUSH2 0x273F JUMP JUMPDEST JUMPDEST PUSH2 0x1C38 JUMPI PUSH1 0x40 MLOAD PUSH32 0x8C379A000000000000000000000000000000000000000000000000000000000 DUP2 MSTORE PUSH1 0x4 ADD PUSH2 0x1C2F SWAP1 PUSH2 0x4391 JUMP JUMPDEST PUSH1 0x40 MLOAD DUP1 SWAP2 SUB SWAP1 REVERT JUMPDEST PUSH1 0x0 DUP5 SWAP1 POP PUSH1 0x2 PUSH1 0x4 ADD PUSH1 0x40 MLOAD PUSH2 0x1C4F SWAP2 SWAP1 PUSH2 0x4167 JUMP JUMPDEST PUSH1 0x40 MLOAD DUP1 SWAP2 SUB SWAP1 KECCAK256 DUP6 PUSH20 0xFFFFFFFFFFFFFFFFFFFFFFFFFFFFFFFFFFFFFFFF AND CALLER PUSH20 0xFFFFFFFFFFFFFFFFFFFFFFFFFFFFFFFFFFFFFFFF AND PUSH32 0x32A9EEB55EA56EB60BADFB6642D5B92BE35B6DA6F74892C12D0E14A50DFC2BAC DUP9 DUP7 PUSH1 0x40 MLOAD PUSH2 0x1CB6 SWAP3 SWAP2 SWAP1 PUSH2 0x4289 JUMP JUMPDEST PUSH1 0x40 MLOAD DUP1 SWAP2 SUB SWAP1 LOG4 DUP1 PUSH20 0xFFFFFFFFFFFFFFFFFFFFFFFFFFFFFFFFFFFFFFFF AND PUSH4 0x42842E0E DUP6 DUP6 DUP6 PUSH1 0x40 MLOAD DUP5 PUSH4 0xFFFFFFFF AND PUSH1 0xE0 SHL DUP2 MSTORE PUSH1 0x4 ADD PUSH2 0x1CFB SWAP4 SWAP3 SWAP2 SWAP1 PUSH2 0x41DD JUMP JUMPDEST PUSH1 0x0 PUSH1 0x40 MLOAD DUP1 DUP4 SUB DUP2 PUSH1 0x0 DUP8 DUP1 EXTCODESIZE ISZERO DUP1 ISZERO PUSH2 0x1D15 JUMPI PUSH1 0x0 DUP1 REVERT JUMPDEST POP GAS CALL ISZERO DUP1 ISZERO PUSH2 0x1D29 JUMPI RETURNDATASIZE PUSH1 0x0 DUP1 RETURNDATACOPY RETURNDATASIZE PUSH1 0x0 REVERT JUMPDEST POP POP POP POP POP POP POP POP POP JUMP JUMPDEST PUSH2 0x1D3D CALLER PUSH2 0x3193 JUMP JUMPDEST DUP1 PUSH2 0x1D4C JUMPI POP PUSH2 0x1D4B PUSH2 0x273F JUMP JUMPDEST JUMPDEST PUSH2 0x1D8B JUMPI PUSH1 0x40 MLOAD PUSH32 0x8C379A000000000000000000000000000000000000000000000000000000000 DUP2 MSTORE PUSH1 0x4 ADD PUSH2 0x1D82 SWAP1 PUSH2 0x4391 JUMP JUMPDEST PUSH1 0x40 MLOAD DUP1 SWAP2 SUB SWAP1 REVERT JUMPDEST PUSH1 0x1C PUSH1 0x0 SWAP1 SLOAD SWAP1 PUSH2 0x100 EXP SWAP1 DIV PUSH20 0xFFFFFFFFFFFFFFFFFFFFFFFFFFFFFFFFFFFFFFFF AND PUSH20 0xFFFFFFFFFFFFFFFFFFFFFFFFFFFFFFFFFFFFFFFF AND PUSH4 0x5AA8680A DUP6 DUP6 DUP6 DUP6 PUSH1 0x40 MLOAD DUP6 PUSH4 0xFFFFFFFF AND PUSH1 0xE0 SHL DUP2 MSTORE PUSH1 0x4 ADD PUSH2 0x1DEC SWAP5 SWAP4 SWAP3 SWAP2 SWAP1 PUSH2 0x4455 JUMP JUMPDEST PUSH1 0x0 PUSH1 0x40 MLOAD DUP1 DUP4 SUB DUP2 PUSH1 0x0 DUP8 DUP1 EXTCODESIZE ISZERO DUP1 ISZERO PUSH2 0x1E06 JUMPI PUSH1 0x0 DUP1 REVERT JUMPDEST POP GAS CALL ISZERO DUP1 ISZERO PUSH2 0x1E1A JUMPI RETURNDATASIZE PUSH1 0x0 DUP1 RETURNDATACOPY RETURNDATASIZE PUSH1 0x0 REVERT JUMPDEST POP POP POP POP PUSH1 0x2 PUSH1 0xD ADD PUSH1 0x40 MLOAD PUSH2 0x1E30 SWAP2 SWAP1 PUSH2 0x4167 JUMP JUMPDEST PUSH1 0x40 MLOAD DUP1 SWAP2 SUB SWAP1 KECCAK256 PUSH1 0x1C PUSH1 0x0 SWAP1 SLOAD SWAP1 PUSH2 0x100 EXP SWAP1 DIV PUSH20 0xFFFFFFFFFFFFFFFFFFFFFFFFFFFFFFFFFFFFFFFF AND PUSH20 0xFFFFFFFFFFFFFFFFFFFFFFFFFFFFFFFFFFFFFFFF AND CALLER PUSH20 0xFFFFFFFFFFFFFFFFFFFFFFFFFFFFFFFFFFFFFFFF AND PUSH32 0x32A9EEB55EA56EB60BADFB6642D5B92BE35B6DA6F74892C12D0E14A50DFC2BAC DUP7 DUP9 PUSH1 0x40 MLOAD PUSH2 0x1EB9 SWAP3 SWAP2 SWAP1 PUSH2 0x4289 JUMP JUMPDEST PUSH1 0x40 MLOAD DUP1 SWAP2 SUB SWAP1 LOG4 POP POP POP POP JUMP JUMPDEST PUSH2 0x1ED0 CALLER PUSH2 0x3193 JUMP JUMPDEST DUP1 PUSH2 0x1EDF JUMPI POP PUSH2 0x1EDE PUSH2 0x273F JUMP JUMPDEST JUMPDEST PUSH2 0x1F1E JUMPI PUSH1 0x40 MLOAD PUSH32 0x8C379A000000000000000000000000000000000000000000000000000000000 DUP2 MSTORE PUSH1 0x4 ADD PUSH2 0x1F15 SWAP1 PUSH2 0x4391 JUMP JUMPDEST PUSH1 0x40 MLOAD DUP1 SWAP2 SUB SWAP1 REVERT JUMPDEST PUSH1 0x1C PUSH1 0x0 SWAP1 SLOAD SWAP1 PUSH2 0x100 EXP SWAP1 DIV PUSH20 0xFFFFFFFFFFFFFFFFFFFFFFFFFFFFFFFFFFFFFFFF AND PUSH20 0xFFFFFFFFFFFFFFFFFFFFFFFFFFFFFFFFFFFFFFFF AND PUSH4 0x640CF873 DUP10 DUP10 DUP10 DUP10 DUP10 DUP10 DUP10 DUP10 PUSH1 0x40 MLOAD DUP10 PUSH4 0xFFFFFFFF AND PUSH1 0xE0 SHL DUP2 MSTORE PUSH1 0x4 ADD PUSH2 0x1F87 SWAP9 SWAP8 SWAP7 SWAP6 SWAP5 SWAP4 SWAP3 SWAP2 SWAP1 PUSH2 0x45C2 JUMP JUMPDEST PUSH1 0x0 PUSH1 0x40 MLOAD DUP1 DUP4 SUB DUP2 PUSH1 0x0 DUP8 DUP1 EXTCODESIZE ISZERO DUP1 ISZERO PUSH2 0x1FA1 JUMPI PUSH1 0x0 DUP1 REVERT JUMPDEST POP GAS CALL ISZERO DUP1 ISZERO PUSH2 0x1FB5 JUMPI RETURNDATASIZE PUSH1 0x0 DUP1 RETURNDATACOPY RETURNDATASIZE PUSH1 0x0 REVERT JUMPDEST POP POP POP POP PUSH1 0x2 PUSH1 0x6 ADD PUSH1 0x40 MLOAD PUSH2 0x1FCB SWAP2 SWAP1 PUSH2 0x4167 JUMP JUMPDEST PUSH1 0x40 MLOAD DUP1 SWAP2 SUB SWAP1 KECCAK256 PUSH1 0x1C PUSH1 0x0 SWAP1 SLOAD SWAP1 PUSH2 0x100 EXP SWAP1 DIV PUSH20 0xFFFFFFFFFFFFFFFFFFFFFFFFFFFFFFFFFFFFFFFF AND PUSH20 0xFFFFFFFFFFFFFFFFFFFFFFFFFFFFFFFFFFFFFFFF AND CALLER PUSH20 0xFFFFFFFFFFFFFFFFFFFFFFFFFFFFFFFFFFFFFFFF AND PUSH32 0x32A9EEB55EA56EB60BADFB6642D5B92BE35B6DA6F74892C12D0E14A50DFC2BAC DUP6 DUP13 PUSH1 0x40 MLOAD PUSH2 0x2054 SWAP3 SWAP2 SWAP1 PUSH2 0x4289 JUMP JUMPDEST PUSH1 0x40 MLOAD DUP1 SWAP2 SUB SWAP1 LOG4 POP POP POP POP POP POP POP POP JUMP JUMPDEST PUSH2 0x206E PUSH2 0x273F JUMP JUMPDEST PUSH2 0x20AD JUMPI PUSH1 0x40 MLOAD PUSH32 0x8C379A000000000000000000000000000000000000000000000000000000000 DUP2 MSTORE PUSH1 0x4 ADD PUSH2 0x20A4 SWAP1 PUSH2 0x43D1 JUMP JUMPDEST PUSH1 0x40 MLOAD DUP1 SWAP2 SUB SWAP1 REVERT JUMPDEST PUSH2 0x20B6 DUP2 PUSH2 0x3193 JUMP JUMPDEST PUSH2 0x2125 JUMPI PUSH1 0x1 DUP2 SWAP1 DUP1 PUSH1 0x1 DUP2 SLOAD ADD DUP1 DUP3 SSTORE DUP1 SWAP2 POP POP SWAP1 PUSH1 0x1 DUP3 SUB SWAP1 PUSH1 0x0 MSTORE PUSH1 0x20 PUSH1 0x0 KECCAK256 ADD PUSH1 0x0 SWAP1 SWAP2 SWAP3 SWAP1 SWAP2 SWAP1 SWAP2 PUSH2 0x100 EXP DUP2 SLOAD DUP2 PUSH20 0xFFFFFFFFFFFFFFFFFFFFFFFFFFFFFFFFFFFFFFFF MUL NOT AND SWAP1 DUP4 PUSH20 0xFFFFFFFFFFFFFFFFFFFFFFFFFFFFFFFFFFFFFFFF AND MUL OR SWAP1 SSTORE POP POP PUSH2 0x2160 JUMP JUMPDEST PUSH1 0x40 MLOAD PUSH32 0x8C379A000000000000000000000000000000000000000000000000000000000 DUP2 MSTORE PUSH1 0x4 ADD PUSH2 0x2157 SWAP1 PUSH2 0x43F1 JUMP JUMPDEST PUSH1 0x40 MLOAD DUP1 SWAP2 SUB SWAP1 REVERT JUMPDEST PUSH32 0x723C2B747529CA7F5EB53A74808F4A8B9BF264F0FC450FD904900151DA74548A DUP2 TIMESTAMP PUSH1 0x40 MLOAD PUSH2 0x2191 SWAP3 SWAP2 SWAP1 PUSH2 0x4289 JUMP JUMPDEST PUSH1 0x40 MLOAD DUP1 SWAP2 SUB SWAP1 LOG1 POP JUMP JUMPDEST PUSH2 0x21A4 PUSH2 0x273F JUMP JUMPDEST PUSH2 0x21E3 JUMPI PUSH1 0x40 MLOAD PUSH32 0x8C379A000000000000000000000000000000000000000000000000000000000 DUP2 MSTORE PUSH1 0x4 ADD PUSH2 0x21DA SWAP1 PUSH2 0x43D1 JUMP JUMPDEST PUSH1 0x40 MLOAD DUP1 SWAP2 SUB SWAP1 REVERT JUMPDEST PUSH1 0x0 PUSH20 0xFFFFFFFFFFFFFFFFFFFFFFFFFFFFFFFFFFFFFFFF AND PUSH1 0x0 DUP1 SWAP1 SLOAD SWAP1 PUSH2 0x100 EXP SWAP1 DIV PUSH20 0xFFFFFFFFFFFFFFFFFFFFFFFFFFFFFFFFFFFFFFFF AND PUSH20 0xFFFFFFFFFFFFFFFFFFFFFFFFFFFFFFFFFFFFFFFF AND PUSH32 0x8BE0079C531659141344CD1FD0A4F28419497F9722A3DAAFE3B4186F6B6457E0 PUSH1 0x40 MLOAD PUSH1 0x40 MLOAD DUP1 SWAP2 SUB SWAP1 LOG3 PUSH1 0x0 DUP1 PUSH1 0x0 PUSH2 0x100 EXP DUP2 SLOAD DUP2 PUSH20 0xFFFFFFFFFFFFFFFFFFFFFFFFFFFFFFFFFFFFFFFF MUL NOT AND SWAP1 DUP4 PUSH20 0xFFFFFFFFFFFFFFFFFFFFFFFFFFFFFFFFFFFFFFFF AND MUL OR SWAP1 SSTORE POP JUMP JUMPDEST PUSH2 0x22AB CALLER PUSH2 0x3193 JUMP JUMPDEST DUP1 PUSH2 0x22BA JUMPI POP PUSH2 0x22B9 PUSH2 0x273F JUMP JUMPDEST JUMPDEST PUSH2 0x22F9 JUMPI PUSH1 0x40 MLOAD PUSH32 0x8C379A000000000000000000000000000000000000000000000000000000000 DUP2 MSTORE PUSH1 0x4 ADD PUSH2 0x22F0 SWAP1 PUSH2 0x4391 JUMP JUMPDEST PUSH1 0x40 MLOAD DUP1 SWAP2 SUB SWAP1 REVERT JUMPDEST PUSH1 0x1C PUSH1 0x0 SWAP1 SLOAD SWAP1 PUSH2 0x100 EXP SWAP1 DIV PUSH20 0xFFFFFFFFFFFFFFFFFFFFFFFFFFFFFFFFFFFFFFFF AND PUSH20 0xFFFFFFFFFFFFFFFFFFFFFFFFFFFFFFFFFFFFFFFF AND PUSH4 0x7AD157B9 CALLVALUE DUP6 DUP6 DUP6 PUSH1 0x40 MLOAD DUP6 PUSH4 0xFFFFFFFF AND PUSH1 0xE0 SHL DUP2 MSTORE PUSH1 0x4 ADD PUSH2 0x2359 SWAP4 SWAP3 SWAP2 SWAP1 PUSH2 0x44DF JUMP JUMPDEST PUSH1 0x0 PUSH1 0x40 MLOAD DUP1 DUP4 SUB DUP2 DUP6 DUP9 DUP1 EXTCODESIZE ISZERO DUP1 ISZERO PUSH2 0x2372 JUMPI PUSH1 0x0 DUP1 REVERT JUMPDEST POP GAS CALL ISZERO DUP1 ISZERO PUSH2 0x2386 JUMPI RETURNDATASIZE PUSH1 0x0 DUP1 RETURNDATACOPY RETURNDATASIZE PUSH1 0x0 REVERT JUMPDEST POP POP POP POP POP PUSH1 0x2 PUSH1 0x7 ADD PUSH1 0x40 MLOAD PUSH2 0x239D SWAP2 SWAP1 PUSH2 0x4167 JUMP JUMPDEST PUSH1 0x40 MLOAD DUP1 SWAP2 SUB SWAP1 KECCAK256 PUSH1 0x1C PUSH1 0x0 SWAP1 SLOAD SWAP1 PUSH2 0x100 EXP SWAP1 DIV PUSH20 0xFFFFFFFFFFFFFFFFFFFFFFFFFFFFFFFFFFFFFFFF AND PUSH20 0xFFFFFFFFFFFFFFFFFFFFFFFFFFFFFFFFFFFFFFFF AND CALLER PUSH20 0xFFFFFFFFFFFFFFFFFFFFFFFFFFFFFFFFFFFFFFFF AND PUSH32 0x32A9EEB55EA56EB60BADFB6642D5B92BE35B6DA6F74892C12D0E14A50DFC2BAC DUP6 DUP8 PUSH1 0x40 MLOAD PUSH2 0x2426 SWAP3 SWAP2 SWAP1 PUSH2 0x4289 JUMP JUMPDEST PUSH1 0x40 MLOAD DUP1 SWAP2 SUB SWAP1 LOG4 POP POP POP JUMP JUMPDEST PUSH2 0x243C CALLER PUSH2 0x3193 JUMP JUMPDEST DUP1 PUSH2 0x244B JUMPI POP PUSH2 0x244A PUSH2 0x273F JUMP JUMPDEST JUMPDEST PUSH2 0x248A JUMPI PUSH1 0x40 MLOAD PUSH32 0x8C379A000000000000000000000000000000000000000000000000000000000 DUP2 MSTORE PUSH1 0x4 ADD PUSH2 0x2481 SWAP1 PUSH2 0x4391 JUMP JUMPDEST PUSH1 0x40 MLOAD DUP1 SWAP2 SUB SWAP1 REVERT JUMPDEST PUSH1 0x0 DUP5 SWAP1 POP PUSH1 0x2 PUSH1 0x5 ADD PUSH1 0x40 MLOAD PUSH2 0x24A1 SWAP2 SWAP1 PUSH2 0x4167 JUMP JUMPDEST PUSH1 0x40 MLOAD DUP1 SWAP2 SUB SWAP1 KECCAK256 DUP6 PUSH20 0xFFFFFFFFFFFFFFFFFFFFFFFFFFFFFFFFFFFFFFFF AND CALLER PUSH20 0xFFFFFFFFFFFFFFFFFFFFFFFFFFFFFFFFFFFFFFFF AND PUSH32 0x32A9EEB55EA56EB60BADFB6642D5B92BE35B6DA6F74892C12D0E14A50DFC2BAC DUP9 DUP7 PUSH1 0x40 MLOAD PUSH2 0x2508 SWAP3 SWAP2 SWAP1 PUSH2 0x4289 JUMP JUMPDEST PUSH1 0x40 MLOAD DUP1 SWAP2 SUB SWAP1 LOG4 DUP1 PUSH20 0xFFFFFFFFFFFFFFFFFFFFFFFFFFFFFFFFFFFFFFFF AND PUSH4 0x23B872DD DUP6 DUP6 DUP6 PUSH1 0x40 MLOAD DUP5 PUSH4 0xFFFFFFFF AND PUSH1 0xE0 SHL DUP2 MSTORE PUSH1 0x4 ADD PUSH2 0x254D SWAP4 SWAP3 SWAP2 SWAP1 PUSH2 0x41DD JUMP JUMPDEST PUSH1 0x0 PUSH1 0x40 MLOAD DUP1 DUP4 SUB DUP2 PUSH1 0x0 DUP8 DUP1 EXTCODESIZE ISZERO DUP1 ISZERO PUSH2 0x2567 JUMPI PUSH1 0x0 DUP1 REVERT JUMPDEST POP GAS CALL ISZERO DUP1 ISZERO PUSH2 0x257B JUMPI RETURNDATASIZE PUSH1 0x0 DUP1 RETURNDATACOPY RETURNDATASIZE PUSH1 0x0 REVERT JUMPDEST POP POP POP POP POP POP POP POP POP JUMP JUMPDEST PUSH2 0x258F CALLER PUSH2 0x3193 JUMP JUMPDEST DUP1 PUSH2 0x259E JUMPI POP PUSH2 0x259D PUSH2 0x273F JUMP JUMPDEST JUMPDEST PUSH2 0x25DD JUMPI PUSH1 0x40 MLOAD PUSH32 0x8C379A000000000000000000000000000000000000000000000000000000000 DUP2 MSTORE PUSH1 0x4 ADD PUSH2 0x25D4 SWAP1 PUSH2 0x4391 JUMP JUMPDEST PUSH1 0x40 MLOAD DUP1 SWAP2 SUB SWAP1 REVERT JUMPDEST PUSH1 0x1C PUSH1 0x0 SWAP1 SLOAD SWAP1 PUSH2 0x100 EXP SWAP1 DIV PUSH20 0xFFFFFFFFFFFFFFFFFFFFFFFFFFFFFFFFFFFFFFFF AND PUSH20 0xFFFFFFFFFFFFFFFFFFFFFFFFFFFFFFFFFFFFFFFF AND PUSH4 0x8C6AB013 DUP5 DUP5 DUP5 PUSH1 0x40 MLOAD DUP5 PUSH4 0xFFFFFFFF AND PUSH1 0xE0 SHL DUP2 MSTORE PUSH1 0x4 ADD PUSH2 0x263C SWAP4 SWAP3 SWAP2 SWAP1 PUSH2 0x44DF JUMP JUMPDEST PUSH1 0x0 PUSH1 0x40 MLOAD DUP1 DUP4 SUB DUP2 PUSH1 0x0 DUP8 DUP1 EXTCODESIZE ISZERO DUP1 ISZERO PUSH2 0x2656 JUMPI PUSH1 0x0 DUP1 REVERT JUMPDEST POP GAS CALL ISZERO DUP1 ISZERO PUSH2 0x266A JUMPI RETURNDATASIZE PUSH1 0x0 DUP1 RETURNDATACOPY RETURNDATASIZE PUSH1 0x0 REVERT JUMPDEST POP POP POP POP PUSH1 0x2 PUSH1 0x9 ADD PUSH1 0x40 MLOAD PUSH2 0x2680 SWAP2 SWAP1 PUSH2 0x4167 JUMP JUMPDEST PUSH1 0x40 MLOAD DUP1 SWAP2 SUB SWAP1 KECCAK256 PUSH1 0x1C PUSH1 0x0 SWAP1 SLOAD SWAP1 PUSH2 0x100 EXP SWAP1 DIV PUSH20 0xFFFFFFFFFFFFFFFFFFFFFFFFFFFFFFFFFFFFFFFF AND PUSH20 0xFFFFFFFFFFFFFFFFFFFFFFFFFFFFFFFFFFFFFFFF AND CALLER PUSH20 0xFFFFFFFFFFFFFFFFFFFFFFFFFFFFFFFFFFFFFFFF AND PUSH32 0x32A9EEB55EA56EB60BADFB6642D5B92BE35B6DA6F74892C12D0E14A50DFC2BAC DUP6 DUP8 PUSH1 0x40 MLOAD PUSH2 0x2709 SWAP3 SWAP2 SWAP1 PUSH2 0x4289 JUMP JUMPDEST PUSH1 0x40 MLOAD DUP1 SWAP2 SUB SWAP1 LOG4 POP POP POP JUMP JUMPDEST PUSH1 0x0 DUP1 PUSH1 0x0 SWAP1 SLOAD SWAP1 PUSH2 0x100 EXP SWAP1 DIV PUSH20 0xFFFFFFFFFFFFFFFFFFFFFFFFFFFFFFFFFFFFFFFF AND SWAP1 POP SWAP1 JUMP JUMPDEST PUSH1 0x0 DUP1 PUSH1 0x0 SWAP1 SLOAD SWAP1 PUSH2 0x100 EXP SWAP1 DIV PUSH20 0xFFFFFFFFFFFFFFFFFFFFFFFFFFFFFFFFFFFFFFFF AND PUSH20 0xFFFFFFFFFFFFFFFFFFFFFFFFFFFFFFFFFFFFFFFF AND PUSH2 0x2781 PUSH2 0x3519 JUMP JUMPDEST PUSH20 0xFFFFFFFFFFFFFFFFFFFFFFFFFFFFFFFFFFFFFFFF AND EQ SWAP1 POP SWAP1 JUMP JUMPDEST PUSH2 0x27A6 CALLER PUSH2 0x3193 JUMP JUMPDEST DUP1 PUSH2 0x27B5 JUMPI POP PUSH2 0x27B4 PUSH2 0x273F JUMP JUMPDEST JUMPDEST PUSH2 0x27F4 JUMPI PUSH1 0x40 MLOAD PUSH32 0x8C379A000000000000000000000000000000000000000000000000000000000 DUP2 MSTORE PUSH1 0x4 ADD PUSH2 0x27EB SWAP1 PUSH2 0x4391 JUMP JUMPDEST PUSH1 0x40 MLOAD DUP1 SWAP2 SUB SWAP1 REVERT JUMPDEST PUSH1 0x0 DUP4 SWAP1 POP DUP1 PUSH20 0xFFFFFFFFFFFFFFFFFFFFFFFFFFFFFFFFFFFFFFFF AND PUSH4 0x39509351 DUP5 DUP5 PUSH1 0x40 MLOAD DUP4 PUSH4 0xFFFFFFFF AND PUSH1 0xE0 SHL DUP2 MSTORE PUSH1 0x4 ADD PUSH2 0x2834 SWAP3 SWAP2 SWAP1 PUSH2 0x4289 JUMP JUMPDEST PUSH1 0x0 PUSH1 0x40 MLOAD DUP1 DUP4 SUB DUP2 PUSH1 0x0 DUP8 DUP1 EXTCODESIZE ISZERO DUP1 ISZERO PUSH2 0x284E JUMPI PUSH1 0x0 DUP1 REVERT JUMPDEST POP GAS CALL ISZERO DUP1 ISZERO PUSH2 0x2862 JUMPI RETURNDATASIZE PUSH1 0x0 DUP1 RETURNDATACOPY RETURNDATASIZE PUSH1 0x0 REVERT JUMPDEST POP POP POP POP PUSH1 0x2 PUSH1 0x15 ADD PUSH1 0x40 MLOAD PUSH2 0x2878 SWAP2 SWAP1 PUSH2 0x4167 JUMP JUMPDEST PUSH1 0x40 MLOAD DUP1 SWAP2 SUB SWAP1 KECCAK256 DUP5 PUSH20 0xFFFFFFFFFFFFFFFFFFFFFFFFFFFFFFFFFFFFFFFF AND CALLER PUSH20 0xFFFFFFFFFFFFFFFFFFFFFFFFFFFFFFFFFFFFFFFF AND PUSH32 0x32A9EEB55EA56EB60BADFB6642D5B92BE35B6DA6F74892C12D0E14A50DFC2BAC DUP7 DUP7 PUSH1 0x40 MLOAD PUSH2 0x28DF SWAP3 SWAP2 SWAP1 PUSH2 0x4289 JUMP JUMPDEST PUSH1 0x40 MLOAD DUP1 SWAP2 SUB SWAP1 LOG4 POP POP POP POP JUMP JUMPDEST PUSH2 0x28F6 CALLER PUSH2 0x3193 JUMP JUMPDEST DUP1 PUSH2 0x2905 JUMPI POP PUSH2 0x2904 PUSH2 0x273F JUMP JUMPDEST JUMPDEST PUSH2 0x2944 JUMPI PUSH1 0x40 MLOAD PUSH32 0x8C379A000000000000000000000000000000000000000000000000000000000 DUP2 MSTORE PUSH1 0x4 ADD PUSH2 0x293B SWAP1 PUSH2 0x4391 JUMP JUMPDEST PUSH1 0x40 MLOAD DUP1 SWAP2 SUB SWAP1 REVERT JUMPDEST PUSH1 0x0 DUP4 SWAP1 POP DUP1 PUSH20 0xFFFFFFFFFFFFFFFFFFFFFFFFFFFFFFFFFFFFFFFF AND PUSH4 0x95EA7B3 DUP5 DUP5 PUSH1 0x40 MLOAD DUP4 PUSH4 0xFFFFFFFF AND PUSH1 0xE0 SHL DUP2 MSTORE PUSH1 0x4 ADD PUSH2 0x2984 SWAP3 SWAP2 SWAP1 PUSH2 0x4289 JUMP JUMPDEST PUSH1 0x0 PUSH1 0x40 MLOAD DUP1 DUP4 SUB DUP2 PUSH1 0x0 DUP8 DUP1 EXTCODESIZE ISZERO DUP1 ISZERO PUSH2 0x299E JUMPI PUSH1 0x0 DUP1 REVERT JUMPDEST POP GAS CALL ISZERO DUP1 ISZERO PUSH2 0x29B2 JUMPI RETURNDATASIZE PUSH1 0x0 DUP1 RETURNDATACOPY RETURNDATASIZE PUSH1 0x0 REVERT JUMPDEST POP POP POP POP PUSH1 0x2 PUSH1 0x10 ADD PUSH1 0x40 MLOAD PUSH2 0x29C8 SWAP2 SWAP1 PUSH2 0x4167 JUMP JUMPDEST PUSH1 0x40 MLOAD DUP1 SWAP2 SUB SWAP1 KECCAK256 DUP5 PUSH20 0xFFFFFFFFFFFFFFFFFFFFFFFFFFFFFFFFFFFFFFFF AND CALLER PUSH20 0xFFFFFFFFFFFFFFFFFFFFFFFFFFFFFFFFFFFFFFFF AND PUSH32 0x32A9EEB55EA56EB60BADFB6642D5B92BE35B6DA6F74892C12D0E14A50DFC2BAC DUP7 DUP7 PUSH1 0x40 MLOAD PUSH2 0x2A2F SWAP3 SWAP2 SWAP1 PUSH2 0x4289 JUMP JUMPDEST PUSH1 0x40 MLOAD DUP1 SWAP2 SUB SWAP1 LOG4 POP POP POP POP JUMP JUMPDEST PUSH2 0x2A46 CALLER PUSH2 0x3193 JUMP JUMPDEST DUP1 PUSH2 0x2A55 JUMPI POP PUSH2 0x2A54 PUSH2 0x273F JUMP JUMPDEST JUMPDEST PUSH2 0x2A94 JUMPI PUSH1 0x40 MLOAD PUSH32 0x8C379A000000000000000000000000000000000000000000000000000000000 DUP2 MSTORE PUSH1 0x4 ADD PUSH2 0x2A8B SWAP1 PUSH2 0x4391 JUMP JUMPDEST PUSH1 0x40 MLOAD DUP1 SWAP2 SUB SWAP1 REVERT JUMPDEST PUSH1 0x0 DUP4 SWAP1 POP PUSH1 0x2 PUSH1 0x1 ADD PUSH1 0x40 MLOAD PUSH2 0x2AAB SWAP2 SWAP1 PUSH2 0x4167 JUMP JUMPDEST PUSH1 0x40 MLOAD DUP1 SWAP2 SUB SWAP1 KECCAK256 DUP5 PUSH20 0xFFFFFFFFFFFFFFFFFFFFFFFFFFFFFFFFFFFFFFFF AND CALLER PUSH20 0xFFFFFFFFFFFFFFFFFFFFFFFFFFFFFFFFFFFFFFFF AND PUSH32 0x32A9EEB55EA56EB60BADFB6642D5B92BE35B6DA6F74892C12D0E14A50DFC2BAC DUP8 DUP7 PUSH1 0x40 MLOAD PUSH2 0x2B12 SWAP3 SWAP2 SWAP1 PUSH2 0x4289 JUMP JUMPDEST PUSH1 0x40 MLOAD DUP1 SWAP2 SUB SWAP1 LOG4 DUP1 PUSH20 0xFFFFFFFFFFFFFFFFFFFFFFFFFFFFFFFFFFFFFFFF AND PUSH4 0xA9059CBB DUP5 DUP5 PUSH1 0x40 MLOAD DUP4 PUSH4 0xFFFFFFFF AND PUSH1 0xE0 SHL DUP2 MSTORE PUSH1 0x4 ADD PUSH2 0x2B55 SWAP3 SWAP2 SWAP1 PUSH2 0x4289 JUMP JUMPDEST PUSH1 0x0 PUSH1 0x40 MLOAD DUP1 DUP4 SUB DUP2 PUSH1 0x0 DUP8 DUP1 EXTCODESIZE ISZERO DUP1 ISZERO PUSH2 0x2B6F JUMPI PUSH1 0x0 DUP1 REVERT JUMPDEST POP GAS CALL ISZERO DUP1 ISZERO PUSH2 0x2B83 JUMPI RETURNDATASIZE PUSH1 0x0 DUP1 RETURNDATACOPY RETURNDATASIZE PUSH1 0x0 REVERT JUMPDEST POP POP POP POP POP POP POP POP JUMP JUMPDEST PUSH2 0x2B96 CALLER PUSH2 0x3193 JUMP JUMPDEST DUP1 PUSH2 0x2BA5 JUMPI POP PUSH2 0x2BA4 PUSH2 0x273F JUMP JUMPDEST JUMPDEST PUSH2 0x2BE4 JUMPI PUSH1 0x40 MLOAD PUSH32 0x8C379A000000000000000000000000000000000000000000000000000000000 DUP2 MSTORE PUSH1 0x4 ADD PUSH2 0x2BDB SWAP1 PUSH2 0x4391 JUMP JUMPDEST PUSH1 0x40 MLOAD DUP1 SWAP2 SUB SWAP1 REVERT JUMPDEST PUSH1 0x1C PUSH1 0x0 SWAP1 SLOAD SWAP1 PUSH2 0x100 EXP SWAP1 DIV PUSH20 0xFFFFFFFFFFFFFFFFFFFFFFFFFFFFFFFFFFFFFFFF AND PUSH20 0xFFFFFFFFFFFFFFFFFFFFFFFFFFFFFFFFFFFFFFFF AND PUSH4 0xC0F4ED31 CALLVALUE DUP6 DUP6 DUP6 PUSH1 0x40 MLOAD DUP6 PUSH4 0xFFFFFFFF AND PUSH1 0xE0 SHL DUP2 MSTORE PUSH1 0x4 ADD PUSH2 0x2C44 SWAP4 SWAP3 SWAP2 SWAP1 PUSH2 0x4516 JUMP JUMPDEST PUSH1 0x0 PUSH1 0x40 MLOAD DUP1 DUP4 SUB DUP2 DUP6 DUP9 DUP1 EXTCODESIZE ISZERO DUP1 ISZERO PUSH2 0x2C5D JUMPI PUSH1 0x0 DUP1 REVERT JUMPDEST POP GAS CALL ISZERO DUP1 ISZERO PUSH2 0x2C71 JUMPI RETURNDATASIZE PUSH1 0x0 DUP1 RETURNDATACOPY RETURNDATASIZE PUSH1 0x0 REVERT JUMPDEST POP POP POP POP POP PUSH1 0x2 PUSH1 0x8 ADD PUSH1 0x40 MLOAD PUSH2 0x2C88 SWAP2 SWAP1 PUSH2 0x4167 JUMP JUMPDEST PUSH1 0x40 MLOAD DUP1 SWAP2 SUB SWAP1 KECCAK256 PUSH1 0x1C PUSH1 0x0 SWAP1 SLOAD SWAP1 PUSH2 0x100 EXP SWAP1 DIV PUSH20 0xFFFFFFFFFFFFFFFFFFFFFFFFFFFFFFFFFFFFFFFF AND PUSH20 0xFFFFFFFFFFFFFFFFFFFFFFFFFFFFFFFFFFFFFFFF AND CALLER PUSH20 0xFFFFFFFFFFFFFFFFFFFFFFFFFFFFFFFFFFFFFFFF AND PUSH32 0x32A9EEB55EA56EB60BADFB6642D5B92BE35B6DA6F74892C12D0E14A50DFC2BAC DUP6 DUP8 PUSH1 0x40 MLOAD PUSH2 0x2D11 SWAP3 SWAP2 SWAP1 PUSH2 0x4289 JUMP JUMPDEST PUSH1 0x40 MLOAD DUP1 SWAP2 SUB SWAP1 LOG4 POP POP POP JUMP JUMPDEST PUSH2 0x2D27 CALLER PUSH2 0x3193 JUMP JUMPDEST DUP1 PUSH2 0x2D36 JUMPI POP PUSH2 0x2D35 PUSH2 0x273F JUMP JUMPDEST JUMPDEST PUSH2 0x2D75 JUMPI PUSH1 0x40 MLOAD PUSH32 0x8C379A000000000000000000000000000000000000000000000000000000000 DUP2 MSTORE PUSH1 0x4 ADD PUSH2 0x2D6C SWAP1 PUSH2 0x4391 JUMP JUMPDEST PUSH1 0x40 MLOAD DUP1 SWAP2 SUB SWAP1 REVERT JUMPDEST PUSH1 0x0 DUP4 SWAP1 POP DUP1 PUSH20 0xFFFFFFFFFFFFFFFFFFFFFFFFFFFFFFFFFFFFFFFF AND PUSH4 0x66188463 DUP5 DUP5 PUSH1 0x40 MLOAD DUP4 PUSH4 0xFFFFFFFF AND PUSH1 0xE0 SHL DUP2 MSTORE PUSH1 0x4 ADD PUSH2 0x2DB5 SWAP3 SWAP2 SWAP1 PUSH2 0x4289 JUMP JUMPDEST PUSH1 0x0 PUSH1 0x40 MLOAD DUP1 DUP4 SUB DUP2 PUSH1 0x0 DUP8 DUP1 EXTCODESIZE ISZERO DUP1 ISZERO PUSH2 0x2DCF JUMPI PUSH1 0x0 DUP1 REVERT JUMPDEST POP GAS CALL ISZERO DUP1 ISZERO PUSH2 0x2DE3 JUMPI RETURNDATASIZE PUSH1 0x0 DUP1 RETURNDATACOPY RETURNDATASIZE PUSH1 0x0 REVERT JUMPDEST POP POP POP POP PUSH1 0x2 PUSH1 0x16 ADD PUSH1 0x40 MLOAD PUSH2 0x2DF9 SWAP2 SWAP1 PUSH2 0x4167 JUMP JUMPDEST PUSH1 0x40 MLOAD DUP1 SWAP2 SUB SWAP1 KECCAK256 DUP5 PUSH20 0xFFFFFFFFFFFFFFFFFFFFFFFFFFFFFFFFFFFFFFFF AND CALLER PUSH20 0xFFFFFFFFFFFFFFFFFFFFFFFFFFFFFFFFFFFFFFFF AND PUSH32 0x32A9EEB55EA56EB60BADFB6642D5B92BE35B6DA6F74892C12D0E14A50DFC2BAC DUP7 DUP7 PUSH1 0x40 MLOAD PUSH2 0x2E60 SWAP3 SWAP2 SWAP1 PUSH2 0x4289 JUMP JUMPDEST PUSH1 0x40 MLOAD DUP1 SWAP2 SUB SWAP1 LOG4 POP POP POP POP JUMP JUMPDEST PUSH2 0x2E77 CALLER PUSH2 0x3193 JUMP JUMPDEST DUP1 PUSH2 0x2E86 JUMPI POP PUSH2 0x2E85 PUSH2 0x273F JUMP JUMPDEST JUMPDEST PUSH2 0x2EC5 JUMPI PUSH1 0x40 MLOAD PUSH32 0x8C379A000000000000000000000000000000000000000000000000000000000 DUP2 MSTORE PUSH1 0x4 ADD PUSH2 0x2EBC SWAP1 PUSH2 0x4391 JUMP JUMPDEST PUSH1 0x40 MLOAD DUP1 SWAP2 SUB SWAP1 REVERT JUMPDEST PUSH1 0x1C PUSH1 0x0 SWAP1 SLOAD SWAP1 PUSH2 0x100 EXP SWAP1 DIV PUSH20 0xFFFFFFFFFFFFFFFFFFFFFFFFFFFFFFFFFFFFFFFF AND PUSH20 0xFFFFFFFFFFFFFFFFFFFFFFFFFFFFFFFFFFFFFFFF AND PUSH4 0x1F90607A DUP3 DUP5 PUSH1 0x40 MLOAD DUP4 PUSH4 0xFFFFFFFF AND PUSH1 0xE0 SHL DUP2 MSTORE PUSH1 0x4 ADD PUSH2 0x2F22 SWAP3 SWAP2 SWAP1 PUSH2 0x4289 JUMP JUMPDEST PUSH1 0x0 PUSH1 0x40 MLOAD DUP1 DUP4 SUB DUP2 PUSH1 0x0 DUP8 DUP1 EXTCODESIZE ISZERO DUP1 ISZERO PUSH2 0x2F3C JUMPI PUSH1 0x0 DUP1 REVERT JUMPDEST POP GAS CALL ISZERO DUP1 ISZERO PUSH2 0x2F50 JUMPI RETURNDATASIZE PUSH1 0x0 DUP1 RETURNDATACOPY RETURNDATASIZE PUSH1 0x0 REVERT JUMPDEST POP POP POP POP PUSH1 0x2 PUSH1 0xF ADD PUSH1 0x40 MLOAD PUSH2 0x2F66 SWAP2 SWAP1 PUSH2 0x4167 JUMP JUMPDEST PUSH1 0x40 MLOAD DUP1 SWAP2 SUB SWAP1 KECCAK256 PUSH1 0x1C PUSH1 0x0 SWAP1 SLOAD SWAP1 PUSH2 0x100 EXP SWAP1 DIV PUSH20 0xFFFFFFFFFFFFFFFFFFFFFFFFFFFFFFFFFFFFFFFF AND PUSH20 0xFFFFFFFFFFFFFFFFFFFFFFFFFFFFFFFFFFFFFFFF AND CALLER PUSH20 0xFFFFFFFFFFFFFFFFFFFFFFFFFFFFFFFFFFFFFFFF AND PUSH32 0x32A9EEB55EA56EB60BADFB6642D5B92BE35B6DA6F74892C12D0E14A50DFC2BAC DUP5 DUP7 PUSH1 0x40 MLOAD PUSH2 0x2FEF SWAP3 SWAP2 SWAP1 PUSH2 0x4289 JUMP JUMPDEST PUSH1 0x40 MLOAD DUP1 SWAP2 SUB SWAP1 LOG4 POP POP JUMP JUMPDEST PUSH2 0x3003 PUSH2 0x273F JUMP JUMPDEST PUSH2 0x3042 JUMPI PUSH1 0x40 MLOAD PUSH32 0x8C379A000000000000000000000000000000000000000000000000000000000 DUP2 MSTORE PUSH1 0x4 ADD PUSH2 0x3039 SWAP1 PUSH2 0x43D1 JUMP JUMPDEST PUSH1 0x40 MLOAD DUP1 SWAP2 SUB SWAP1 REVERT JUMPDEST PUSH2 0x304B DUP2 PUSH2 0x3521 JUMP JUMPDEST POP JUMP JUMPDEST PUSH2 0x3056 PUSH2 0x273F JUMP JUMPDEST PUSH2 0x3095 JUMPI PUSH1 0x40 MLOAD PUSH32 0x8C379A000000000000000000000000000000000000000000000000000000000 DUP2 MSTORE PUSH1 0x4 ADD PUSH2 0x308C SWAP1 PUSH2 0x43D1 JUMP JUMPDEST PUSH1 0x40 MLOAD DUP1 SWAP2 SUB SWAP1 REVERT JUMPDEST PUSH1 0x0 DUP2 SWAP1 POP DUP1 PUSH20 0xFFFFFFFFFFFFFFFFFFFFFFFFFFFFFFFFFFFFFFFF AND PUSH4 0xA9059CBB CALLER DUP4 PUSH20 0xFFFFFFFFFFFFFFFFFFFFFFFFFFFFFFFFFFFFFFFF AND PUSH4 0x70A08231 ADDRESS PUSH1 0x40 MLOAD DUP3 PUSH4 0xFFFFFFFF AND PUSH1 0xE0 SHL DUP2 MSTORE PUSH1 0x4 ADD PUSH2 0x30F0 SWAP2 SWAP1 PUSH2 0x4199 JUMP JUMPDEST PUSH1 0x20 PUSH1 0x40 MLOAD DUP1 DUP4 SUB DUP2 DUP7 DUP1 EXTCODESIZE ISZERO DUP1 ISZERO PUSH2 0x3108 JUMPI PUSH1 0x0 DUP1 REVERT JUMPDEST POP GAS STATICCALL ISZERO DUP1 ISZERO PUSH2 0x311C JUMPI RETURNDATASIZE PUSH1 0x0 DUP1 RETURNDATACOPY RETURNDATASIZE PUSH1 0x0 REVERT JUMPDEST POP POP POP POP PUSH1 0x40 MLOAD RETURNDATASIZE PUSH1 0x1F NOT PUSH1 0x1F DUP3 ADD AND DUP3 ADD DUP1 PUSH1 0x40 MSTORE POP PUSH2 0x3140 SWAP2 SWAP1 DUP2 ADD SWAP1 PUSH2 0x3ACF JUMP JUMPDEST PUSH1 0x40 MLOAD DUP4 PUSH4 0xFFFFFFFF AND PUSH1 0xE0 SHL DUP2 MSTORE PUSH1 0x4 ADD PUSH2 0x315D SWAP3 SWAP2 SWAP1 PUSH2 0x41B4 JUMP JUMPDEST PUSH1 0x0 PUSH1 0x40 MLOAD DUP1 DUP4 SUB DUP2 PUSH1 0x0 DUP8 DUP1 EXTCODESIZE ISZERO DUP1 ISZERO PUSH2 0x3177 JUMPI PUSH1 0x0 DUP1 REVERT JUMPDEST POP GAS CALL ISZERO DUP1 ISZERO PUSH2 0x318B JUMPI RETURNDATASIZE PUSH1 0x0 DUP1 RETURNDATACOPY RETURNDATASIZE PUSH1 0x0 REVERT JUMPDEST POP POP POP POP POP POP JUMP JUMPDEST PUSH1 0x0 DUP1 PUSH1 0x0 SWAP1 POP JUMPDEST PUSH1 0x1 DUP1 SLOAD SWAP1 POP DUP2 LT ISZERO PUSH2 0x322A JUMPI PUSH1 0x1 DUP2 DUP2 SLOAD DUP2 LT PUSH2 0x31B5 JUMPI INVALID JUMPDEST SWAP1 PUSH1 0x0 MSTORE PUSH1 0x20 PUSH1 0x0 KECCAK256 ADD PUSH1 0x0 SWAP1 SLOAD SWAP1 PUSH2 0x100 EXP SWAP1 DIV PUSH20 0xFFFFFFFFFFFFFFFFFFFFFFFFFFFFFFFFFFFFFFFF AND PUSH20 0xFFFFFFFFFFFFFFFFFFFFFFFFFFFFFFFFFFFFFFFF AND DUP4 PUSH20 0xFFFFFFFFFFFFFFFFFFFFFFFFFFFFFFFFFFFFFFFF AND EQ ISZERO PUSH2 0x321D JUMPI PUSH1 0x1 SWAP2 POP POP PUSH2 0x3230 JUMP JUMPDEST DUP1 DUP1 PUSH1 0x1 ADD SWAP2 POP POP PUSH2 0x319B JUMP JUMPDEST POP PUSH1 0x0 SWAP1 POP JUMPDEST SWAP2 SWAP1 POP JUMP JUMPDEST PUSH2 0x323E CALLER PUSH2 0x3193 JUMP JUMPDEST DUP1 PUSH2 0x324D JUMPI POP PUSH2 0x324C PUSH2 0x273F JUMP JUMPDEST JUMPDEST PUSH2 0x328C JUMPI PUSH1 0x40 MLOAD PUSH32 0x8C379A000000000000000000000000000000000000000000000000000000000 DUP2 MSTORE PUSH1 0x4 ADD PUSH2 0x3283 SWAP1 PUSH2 0x4391 JUMP JUMPDEST PUSH1 0x40 MLOAD DUP1 SWAP2 SUB SWAP1 REVERT JUMPDEST PUSH1 0x0 DUP4 SWAP1 POP PUSH1 0x2 PUSH1 0x3 ADD PUSH1 0x40 MLOAD PUSH2 0x32A3 SWAP2 SWAP1 PUSH2 0x4167 JUMP JUMPDEST PUSH1 0x40 MLOAD DUP1 SWAP2 SUB SWAP1 KECCAK256 DUP5 PUSH20 0xFFFFFFFFFFFFFFFFFFFFFFFFFFFFFFFFFFFFFFFF AND CALLER PUSH20 0xFFFFFFFFFFFFFFFFFFFFFFFFFFFFFFFFFFFFFFFF AND PUSH32 0x32A9EEB55EA56EB60BADFB6642D5B92BE35B6DA6F74892C12D0E14A50DFC2BAC DUP8 PUSH1 0x0 PUSH1 0x40 MLOAD PUSH2 0x330B SWAP3 SWAP2 SWAP1 PUSH2 0x4260 JUMP JUMPDEST PUSH1 0x40 MLOAD DUP1 SWAP2 SUB SWAP1 LOG4 DUP1 PUSH20 0xFFFFFFFFFFFFFFFFFFFFFFFFFFFFFFFFFFFFFFFF AND PUSH4 0x56B01CE DUP5 DUP5 PUSH1 0x40 MLOAD DUP4 PUSH4 0xFFFFFFFF AND PUSH1 0xE0 SHL DUP2 MSTORE PUSH1 0x4 ADD PUSH2 0x334E SWAP3 SWAP2 SWAP1 PUSH2 0x4341 JUMP JUMPDEST PUSH1 0x0 PUSH1 0x40 MLOAD DUP1 DUP4 SUB DUP2 PUSH1 0x0 DUP8 DUP1 EXTCODESIZE ISZERO DUP1 ISZERO PUSH2 0x3368 JUMPI PUSH1 0x0 DUP1 REVERT JUMPDEST POP GAS CALL ISZERO DUP1 ISZERO PUSH2 0x337C JUMPI RETURNDATASIZE PUSH1 0x0 DUP1 RETURNDATACOPY RETURNDATASIZE PUSH1 0x0 REVERT JUMPDEST POP POP POP POP POP POP POP POP JUMP JUMPDEST PUSH2 0x338F CALLER PUSH2 0x3193 JUMP JUMPDEST DUP1 PUSH2 0x339E JUMPI POP PUSH2 0x339D PUSH2 0x273F JUMP JUMPDEST JUMPDEST PUSH2 0x33DD JUMPI PUSH1 0x40 MLOAD PUSH32 0x8C379A000000000000000000000000000000000000000000000000000000000 DUP2 MSTORE PUSH1 0x4 ADD PUSH2 0x33D4 SWAP1 PUSH2 0x4391 JUMP JUMPDEST PUSH1 0x40 MLOAD DUP1 SWAP2 SUB SWAP1 REVERT JUMPDEST PUSH1 0x1C PUSH1 0x0 SWAP1 SLOAD SWAP1 PUSH2 0x100 EXP SWAP1 DIV PUSH20 0xFFFFFFFFFFFFFFFFFFFFFFFFFFFFFFFFFFFFFFFF AND PUSH20 0xFFFFFFFFFFFFFFFFFFFFFFFFFFFFFFFFFFFFFFFF AND PUSH4 0xFF8EDBDB DUP6 DUP6 DUP6 DUP6 PUSH1 0x40 MLOAD DUP6 PUSH4 0xFFFFFFFF AND PUSH1 0xE0 SHL DUP2 MSTORE PUSH1 0x4 ADD PUSH2 0x343E SWAP5 SWAP4 SWAP3 SWAP2 SWAP1 PUSH2 0x454D JUMP JUMPDEST PUSH1 0x0 PUSH1 0x40 MLOAD DUP1 DUP4 SUB DUP2 PUSH1 0x0 DUP8 DUP1 EXTCODESIZE ISZERO DUP1 ISZERO PUSH2 0x3458 JUMPI PUSH1 0x0 DUP1 REVERT JUMPDEST POP GAS CALL ISZERO DUP1 ISZERO PUSH2 0x346C JUMPI RETURNDATASIZE PUSH1 0x0 DUP1 RETURNDATACOPY RETURNDATASIZE PUSH1 0x0 REVERT JUMPDEST POP POP POP POP PUSH1 0x2 PUSH1 0xA ADD PUSH1 0x40 MLOAD PUSH2 0x3482 SWAP2 SWAP1 PUSH2 0x4167 JUMP JUMPDEST PUSH1 0x40 MLOAD DUP1 SWAP2 SUB SWAP1 KECCAK256 PUSH1 0x1C PUSH1 0x0 SWAP1 SLOAD SWAP1 PUSH2 0x100 EXP SWAP1 DIV PUSH20 0xFFFFFFFFFFFFFFFFFFFFFFFFFFFFFFFFFFFFFFFF AND PUSH20 0xFFFFFFFFFFFFFFFFFFFFFFFFFFFFFFFFFFFFFFFF AND CALLER PUSH20 0xFFFFFFFFFFFFFFFFFFFFFFFFFFFFFFFFFFFFFFFF AND PUSH32 0x32A9EEB55EA56EB60BADFB6642D5B92BE35B6DA6F74892C12D0E14A50DFC2BAC DUP7 DUP9 PUSH1 0x40 MLOAD PUSH2 0x350B SWAP3 SWAP2 SWAP1 PUSH2 0x4289 JUMP JUMPDEST PUSH1 0x40 MLOAD DUP1 SWAP2 SUB SWAP1 LOG4 POP POP POP POP JUMP JUMPDEST PUSH1 0x0 CALLER SWAP1 POP SWAP1 JUMP JUMPDEST PUSH1 0x0 PUSH20 0xFFFFFFFFFFFFFFFFFFFFFFFFFFFFFFFFFFFFFFFF AND DUP2 PUSH20 0xFFFFFFFFFFFFFFFFFFFFFFFFFFFFFFFFFFFFFFFF AND EQ ISZERO PUSH2 0x3591 JUMPI PUSH1 0x40 MLOAD PUSH32 0x8C379A000000000000000000000000000000000000000000000000000000000 DUP2 MSTORE PUSH1 0x4 ADD PUSH2 0x3588 SWAP1 PUSH2 0x4371 JUMP JUMPDEST PUSH1 0x40 MLOAD DUP1 SWAP2 SUB SWAP1 REVERT JUMPDEST DUP1 PUSH20 0xFFFFFFFFFFFFFFFFFFFFFFFFFFFFFFFFFFFFFFFF AND PUSH1 0x0 DUP1 SWAP1 SLOAD SWAP1 PUSH2 0x100 EXP SWAP1 DIV PUSH20 0xFFFFFFFFFFFFFFFFFFFFFFFFFFFFFFFFFFFFFFFF AND PUSH20 0xFFFFFFFFFFFFFFFFFFFFFFFFFFFFFFFFFFFFFFFF AND PUSH32 0x8BE0079C531659141344CD1FD0A4F28419497F9722A3DAAFE3B4186F6B6457E0 PUSH1 0x40 MLOAD PUSH1 0x40 MLOAD DUP1 SWAP2 SUB SWAP1 LOG3 DUP1 PUSH1 0x0 DUP1 PUSH2 0x100 EXP DUP2 SLOAD DUP2 PUSH20 0xFFFFFFFFFFFFFFFFFFFFFFFFFFFFFFFFFFFFFFFF MUL NOT AND SWAP1 DUP4 PUSH20 0xFFFFFFFFFFFFFFFFFFFFFFFFFFFFFFFFFFFFFFFF AND MUL OR SWAP1 SSTORE POP POP JUMP JUMPDEST PUSH1 0x0 DUP2 CALLDATALOAD SWAP1 POP PUSH2 0x365E DUP2 PUSH2 0x4865 JUMP JUMPDEST SWAP3 SWAP2 POP POP JUMP JUMPDEST PUSH1 0x0 DUP2 MLOAD SWAP1 POP PUSH2 0x3673 DUP2 PUSH2 0x4865 JUMP JUMPDEST SWAP3 SWAP2 POP POP JUMP JUMPDEST PUSH1 0x0 DUP2 CALLDATALOAD SWAP1 POP PUSH2 0x3688 DUP2 PUSH2 0x487C JUMP JUMPDEST SWAP3 SWAP2 POP POP JUMP JUMPDEST PUSH1 0x0 DUP3 PUSH1 0x1F DUP4 ADD SLT PUSH2 0x369F JUMPI PUSH1 0x0 DUP1 REVERT JUMPDEST DUP2 CALLDATALOAD PUSH2 0x36B2 PUSH2 0x36AD DUP3 PUSH2 0x466D JUMP JUMPDEST PUSH2 0x4640 JUMP JUMPDEST SWAP2 POP DUP1 DUP3 MSTORE PUSH1 0x20 DUP4 ADD PUSH1 0x20 DUP4 ADD DUP6 DUP4 DUP4 ADD GT ISZERO PUSH2 0x36CE JUMPI PUSH1 0x0 DUP1 REVERT JUMPDEST PUSH2 0x36D9 DUP4 DUP3 DUP5 PUSH2 0x4812 JUMP JUMPDEST POP POP POP SWAP3 SWAP2 POP POP JUMP JUMPDEST PUSH1 0x0 DUP3 PUSH1 0x1F DUP4 ADD SLT PUSH2 0x36F3 JUMPI PUSH1 0x0 DUP1 REVERT JUMPDEST DUP2 CALLDATALOAD PUSH2 0x3706 PUSH2 0x3701 DUP3 PUSH2 0x4699 JUMP JUMPDEST PUSH2 0x4640 JUMP JUMPDEST SWAP2 POP DUP1 DUP3 MSTORE PUSH1 0x20 DUP4 ADD PUSH1 0x20 DUP4 ADD DUP6 DUP4 DUP4 ADD GT ISZERO PUSH2 0x3722 JUMPI PUSH1 0x0 DUP1 REVERT JUMPDEST PUSH2 0x372D DUP4 DUP3 DUP5 PUSH2 0x4812 JUMP JUMPDEST POP POP POP SWAP3 SWAP2 POP POP JUMP JUMPDEST PUSH1 0x0 DUP3 PUSH1 0x1F DUP4 ADD SLT PUSH2 0x3747 JUMPI PUSH1 0x0 DUP1 REVERT JUMPDEST DUP2 MLOAD PUSH2 0x375A PUSH2 0x3755 DUP3 PUSH2 0x4699 JUMP JUMPDEST PUSH2 0x4640 JUMP JUMPDEST SWAP2 POP DUP1 DUP3 MSTORE PUSH1 0x20 DUP4 ADD PUSH1 0x20 DUP4 ADD DUP6 DUP4 DUP4 ADD GT ISZERO PUSH2 0x3776 JUMPI PUSH1 0x0 DUP1 REVERT JUMPDEST PUSH2 0x3781 DUP4 DUP3 DUP5 PUSH2 0x4821 JUMP JUMPDEST POP POP POP SWAP3 SWAP2 POP POP JUMP JUMPDEST PUSH1 0x0 DUP2 CALLDATALOAD SWAP1 POP PUSH2 0x3799 DUP2 PUSH2 0x4893 JUMP JUMPDEST SWAP3 SWAP2 POP POP JUMP JUMPDEST PUSH1 0x0 DUP2 MLOAD SWAP1 POP PUSH2 0x37AE DUP2 PUSH2 0x4893 JUMP JUMPDEST SWAP3 SWAP2 POP POP JUMP JUMPDEST PUSH1 0x0 PUSH1 0x20 DUP3 DUP5 SUB SLT ISZERO PUSH2 0x37C6 JUMPI PUSH1 0x0 DUP1 REVERT JUMPDEST PUSH1 0x0 PUSH2 0x37D4 DUP5 DUP3 DUP6 ADD PUSH2 0x364F JUMP JUMPDEST SWAP2 POP POP SWAP3 SWAP2 POP POP JUMP JUMPDEST PUSH1 0x0 PUSH1 0x20 DUP3 DUP5 SUB SLT ISZERO PUSH2 0x37EF JUMPI PUSH1 0x0 DUP1 REVERT JUMPDEST PUSH1 0x0 PUSH2 0x37FD DUP5 DUP3 DUP6 ADD PUSH2 0x3664 JUMP JUMPDEST SWAP2 POP POP SWAP3 SWAP2 POP POP JUMP JUMPDEST PUSH1 0x0 DUP1 PUSH1 0x0 DUP1 PUSH1 0x80 DUP6 DUP8 SUB SLT ISZERO PUSH2 0x381C JUMPI PUSH1 0x0 DUP1 REVERT JUMPDEST PUSH1 0x0 PUSH2 0x382A DUP8 DUP3 DUP9 ADD PUSH2 0x364F JUMP JUMPDEST SWAP5 POP POP PUSH1 0x20 PUSH2 0x383B DUP8 DUP3 DUP9 ADD PUSH2 0x364F JUMP JUMPDEST SWAP4 POP POP PUSH1 0x40 PUSH2 0x384C DUP8 DUP3 DUP9 ADD PUSH2 0x364F JUMP JUMPDEST SWAP3 POP POP PUSH1 0x60 PUSH2 0x385D DUP8 DUP3 DUP9 ADD PUSH2 0x378A JUMP JUMPDEST SWAP2 POP POP SWAP3 SWAP6 SWAP2 SWAP5 POP SWAP3 POP JUMP JUMPDEST PUSH1 0x0 DUP1 PUSH1 0x0 DUP1 PUSH1 0x0 PUSH1 0xA0 DUP7 DUP9 SUB SLT ISZERO PUSH2 0x3881 JUMPI PUSH1 0x0 DUP1 REVERT JUMPDEST PUSH1 0x0 PUSH2 0x388F DUP9 DUP3 DUP10 ADD PUSH2 0x364F JUMP JUMPDEST SWAP6 POP POP PUSH1 0x20 PUSH2 0x38A0 DUP9 DUP3 DUP10 ADD PUSH2 0x364F JUMP JUMPDEST SWAP5 POP POP PUSH1 0x40 PUSH2 0x38B1 DUP9 DUP3 DUP10 ADD PUSH2 0x364F JUMP JUMPDEST SWAP4 POP POP PUSH1 0x60 PUSH2 0x38C2 DUP9 DUP3 DUP10 ADD PUSH2 0x378A JUMP JUMPDEST SWAP3 POP POP PUSH1 0x80 DUP7 ADD CALLDATALOAD PUSH8 0xFFFFFFFFFFFFFFFF DUP2 GT ISZERO PUSH2 0x38DF JUMPI PUSH1 0x0 DUP1 REVERT JUMPDEST PUSH2 0x38EB DUP9 DUP3 DUP10 ADD PUSH2 0x368E JUMP JUMPDEST SWAP2 POP POP SWAP3 SWAP6 POP SWAP3 SWAP6 SWAP1 SWAP4 POP JUMP JUMPDEST PUSH1 0x0 DUP1 PUSH1 0x0 PUSH1 0x60 DUP5 DUP7 SUB SLT ISZERO PUSH2 0x390D JUMPI PUSH1 0x0 DUP1 REVERT JUMPDEST PUSH1 0x0 PUSH2 0x391B DUP7 DUP3 DUP8 ADD PUSH2 0x364F JUMP JUMPDEST SWAP4 POP POP PUSH1 0x20 PUSH2 0x392C DUP7 DUP3 DUP8 ADD PUSH2 0x364F JUMP JUMPDEST SWAP3 POP POP PUSH1 0x40 PUSH2 0x393D DUP7 DUP3 DUP8 ADD PUSH2 0x378A JUMP JUMPDEST SWAP2 POP POP SWAP3 POP SWAP3 POP SWAP3 JUMP JUMPDEST PUSH1 0x0 DUP1 PUSH1 0x0 DUP1 PUSH1 0x80 DUP6 DUP8 SUB SLT ISZERO PUSH2 0x395D JUMPI PUSH1 0x0 DUP1 REVERT JUMPDEST PUSH1 0x0 PUSH2 0x396B DUP8 DUP3 DUP9 ADD PUSH2 0x364F JUMP JUMPDEST SWAP5 POP POP PUSH1 0x20 PUSH2 0x397C DUP8 DUP3 DUP9 ADD PUSH2 0x364F JUMP JUMPDEST SWAP4 POP POP PUSH1 0x40 PUSH2 0x398D DUP8 DUP3 DUP9 ADD PUSH2 0x378A JUMP JUMPDEST SWAP3 POP POP PUSH1 0x60 DUP6 ADD CALLDATALOAD PUSH8 0xFFFFFFFFFFFFFFFF DUP2 GT ISZERO PUSH2 0x39AA JUMPI PUSH1 0x0 DUP1 REVERT JUMPDEST PUSH2 0x39B6 DUP8 DUP3 DUP9 ADD PUSH2 0x368E JUMP JUMPDEST SWAP2 POP POP SWAP3 SWAP6 SWAP2 SWAP5 POP SWAP3 POP JUMP JUMPDEST PUSH1 0x0 DUP1 PUSH1 0x0 PUSH1 0x60 DUP5 DUP7 SUB SLT ISZERO PUSH2 0x39D7 JUMPI PUSH1 0x0 DUP1 REVERT JUMPDEST PUSH1 0x0 PUSH2 0x39E5 DUP7 DUP3 DUP8 ADD PUSH2 0x364F JUMP JUMPDEST SWAP4 POP POP PUSH1 0x20 DUP5 ADD CALLDATALOAD PUSH8 0xFFFFFFFFFFFFFFFF DUP2 GT ISZERO PUSH2 0x3A02 JUMPI PUSH1 0x0 DUP1 REVERT JUMPDEST PUSH2 0x3A0E DUP7 DUP3 DUP8 ADD PUSH2 0x36E2 JUMP JUMPDEST SWAP3 POP POP PUSH1 0x40 PUSH2 0x3A1F DUP7 DUP3 DUP8 ADD PUSH2 0x378A JUMP JUMPDEST SWAP2 POP POP SWAP3 POP SWAP3 POP SWAP3 JUMP JUMPDEST PUSH1 0x0 DUP1 PUSH1 0x40 DUP4 DUP6 SUB SLT ISZERO PUSH2 0x3A3C JUMPI PUSH1 0x0 DUP1 REVERT JUMPDEST PUSH1 0x0 PUSH2 0x3A4A DUP6 DUP3 DUP7 ADD PUSH2 0x364F JUMP JUMPDEST SWAP3 POP POP PUSH1 0x20 PUSH2 0x3A5B DUP6 DUP3 DUP7 ADD PUSH2 0x378A JUMP JUMPDEST SWAP2 POP POP SWAP3 POP SWAP3 SWAP1 POP JUMP JUMPDEST PUSH1 0x0 PUSH1 0x20 DUP3 DUP5 SUB SLT ISZERO PUSH2 0x3A77 JUMPI PUSH1 0x0 DUP1 REVERT JUMPDEST PUSH1 0x0 DUP3 ADD MLOAD PUSH8 0xFFFFFFFFFFFFFFFF DUP2 GT ISZERO PUSH2 0x3A91 JUMPI PUSH1 0x0 DUP1 REVERT JUMPDEST PUSH2 0x3A9D DUP5 DUP3 DUP6 ADD PUSH2 0x3736 JUMP JUMPDEST SWAP2 POP POP SWAP3 SWAP2 POP POP JUMP JUMPDEST PUSH1 0x0 PUSH1 0x20 DUP3 DUP5 SUB SLT ISZERO PUSH2 0x3AB8 JUMPI PUSH1 0x0 DUP1 REVERT JUMPDEST PUSH1 0x0 PUSH2 0x3AC6 DUP5 DUP3 DUP6 ADD PUSH2 0x378A JUMP JUMPDEST SWAP2 POP POP SWAP3 SWAP2 POP POP JUMP JUMPDEST PUSH1 0x0 PUSH1 0x20 DUP3 DUP5 SUB SLT ISZERO PUSH2 0x3AE1 JUMPI PUSH1 0x0 DUP1 REVERT JUMPDEST PUSH1 0x0 PUSH2 0x3AEF DUP5 DUP3 DUP6 ADD PUSH2 0x379F JUMP JUMPDEST SWAP2 POP POP SWAP3 SWAP2 POP POP JUMP JUMPDEST PUSH1 0x0 DUP1 PUSH1 0x40 DUP4 DUP6 SUB SLT ISZERO PUSH2 0x3B0B JUMPI PUSH1 0x0 DUP1 REVERT JUMPDEST PUSH1 0x0 PUSH2 0x3B19 DUP6 DUP3 DUP7 ADD PUSH2 0x378A JUMP JUMPDEST SWAP3 POP POP PUSH1 0x20 PUSH2 0x3B2A DUP6 DUP3 DUP7 ADD PUSH2 0x364F JUMP JUMPDEST SWAP2 POP POP SWAP3 POP SWAP3 SWAP1 POP JUMP JUMPDEST PUSH1 0x0 DUP1 PUSH1 0x0 PUSH1 0x60 DUP5 DUP7 SUB SLT ISZERO PUSH2 0x3B49 JUMPI PUSH1 0x0 DUP1 REVERT JUMPDEST PUSH1 0x0 PUSH2 0x3B57 DUP7 DUP3 DUP8 ADD PUSH2 0x378A JUMP JUMPDEST SWAP4 POP POP PUSH1 0x20 PUSH2 0x3B68 DUP7 DUP3 DUP8 ADD PUSH2 0x364F JUMP JUMPDEST SWAP3 POP POP PUSH1 0x40 PUSH2 0x3B79 DUP7 DUP3 DUP8 ADD PUSH2 0x364F JUMP JUMPDEST SWAP2 POP POP SWAP3 POP SWAP3 POP SWAP3 JUMP JUMPDEST PUSH1 0x0 DUP1 PUSH1 0x0 DUP1 PUSH1 0x80 DUP6 DUP8 SUB SLT ISZERO PUSH2 0x3B99 JUMPI PUSH1 0x0 DUP1 REVERT JUMPDEST PUSH1 0x0 PUSH2 0x3BA7 DUP8 DUP3 DUP9 ADD PUSH2 0x378A JUMP JUMPDEST SWAP5 POP POP PUSH1 0x20 PUSH2 0x3BB8 DUP8 DUP3 DUP9 ADD PUSH2 0x364F JUMP JUMPDEST SWAP4 POP POP PUSH1 0x40 PUSH2 0x3BC9 DUP8 DUP3 DUP9 ADD PUSH2 0x364F JUMP JUMPDEST SWAP3 POP POP PUSH1 0x60 PUSH2 0x3BDA DUP8 DUP3 DUP9 ADD PUSH2 0x3679 JUMP JUMPDEST SWAP2 POP POP SWAP3 SWAP6 SWAP2 SWAP5 POP SWAP3 POP JUMP JUMPDEST PUSH1 0x0 DUP1 PUSH1 0x0 DUP1 PUSH1 0x80 DUP6 DUP8 SUB SLT ISZERO PUSH2 0x3BFC JUMPI PUSH1 0x0 DUP1 REVERT JUMPDEST PUSH1 0x0 PUSH2 0x3C0A DUP8 DUP3 DUP9 ADD PUSH2 0x378A JUMP JUMPDEST SWAP5 POP POP PUSH1 0x20 PUSH2 0x3C1B DUP8 DUP3 DUP9 ADD PUSH2 0x364F JUMP JUMPDEST SWAP4 POP POP PUSH1 0x40 PUSH2 0x3C2C DUP8 DUP3 DUP9 ADD PUSH2 0x364F JUMP JUMPDEST SWAP3 POP POP PUSH1 0x60 PUSH2 0x3C3D DUP8 DUP3 DUP9 ADD PUSH2 0x378A JUMP JUMPDEST SWAP2 POP POP SWAP3 SWAP6 SWAP2 SWAP5 POP SWAP3 POP JUMP JUMPDEST PUSH1 0x0 DUP1 PUSH1 0x0 PUSH1 0x60 DUP5 DUP7 SUB SLT ISZERO PUSH2 0x3C5E JUMPI PUSH1 0x0 DUP1 REVERT JUMPDEST PUSH1 0x0 PUSH2 0x3C6C DUP7 DUP3 DUP8 ADD PUSH2 0x378A JUMP JUMPDEST SWAP4 POP POP PUSH1 0x20 PUSH2 0x3C7D DUP7 DUP3 DUP8 ADD PUSH2 0x364F JUMP JUMPDEST SWAP3 POP POP PUSH1 0x40 PUSH2 0x3C8E DUP7 DUP3 DUP8 ADD PUSH2 0x3679 JUMP JUMPDEST SWAP2 POP POP SWAP3 POP SWAP3 POP SWAP3 JUMP JUMPDEST PUSH1 0x0 DUP1 PUSH1 0x0 PUSH1 0x60 DUP5 DUP7 SUB SLT ISZERO PUSH2 0x3CAD JUMPI PUSH1 0x0 DUP1 REVERT JUMPDEST PUSH1 0x0 PUSH2 0x3CBB DUP7 DUP3 DUP8 ADD PUSH2 0x378A JUMP JUMPDEST SWAP4 POP POP PUSH1 0x20 PUSH2 0x3CCC DUP7 DUP3 DUP8 ADD PUSH2 0x364F JUMP JUMPDEST SWAP3 POP POP PUSH1 0x40 PUSH2 0x3CDD DUP7 DUP3 DUP8 ADD PUSH2 0x378A JUMP JUMPDEST SWAP2 POP POP SWAP3 POP SWAP3 POP SWAP3 JUMP JUMPDEST PUSH1 0x0 DUP1 PUSH1 0x0 DUP1 PUSH1 0x80 DUP6 DUP8 SUB SLT ISZERO PUSH2 0x3CFD JUMPI PUSH1 0x0 DUP1 REVERT JUMPDEST PUSH1 0x0 PUSH2 0x3D0B DUP8 DUP3 DUP9 ADD PUSH2 0x378A JUMP JUMPDEST SWAP5 POP POP PUSH1 0x20 PUSH2 0x3D1C DUP8 DUP3 DUP9 ADD PUSH2 0x364F JUMP JUMPDEST SWAP4 POP POP PUSH1 0x40 PUSH2 0x3D2D DUP8 DUP3 DUP9 ADD PUSH2 0x378A JUMP JUMPDEST SWAP3 POP POP PUSH1 0x60 PUSH2 0x3D3E DUP8 DUP3 DUP9 ADD PUSH2 0x364F JUMP JUMPDEST SWAP2 POP POP SWAP3 SWAP6 SWAP2 SWAP5 POP SWAP3 POP JUMP JUMPDEST PUSH1 0x0 DUP1 PUSH1 0x0 DUP1 PUSH1 0x0 DUP1 PUSH1 0x0 DUP1 PUSH2 0x100 DUP10 DUP12 SUB SLT ISZERO PUSH2 0x3D67 JUMPI PUSH1 0x0 DUP1 REVERT JUMPDEST PUSH1 0x0 PUSH2 0x3D75 DUP12 DUP3 DUP13 ADD PUSH2 0x378A JUMP JUMPDEST SWAP9 POP POP PUSH1 0x20 PUSH2 0x3D86 DUP12 DUP3 DUP13 ADD PUSH2 0x378A JUMP JUMPDEST SWAP8 POP POP PUSH1 0x40 PUSH2 0x3D97 DUP12 DUP3 DUP13 ADD PUSH2 0x378A JUMP JUMPDEST SWAP7 POP POP PUSH1 0x60 PUSH2 0x3DA8 DUP12 DUP3 DUP13 ADD PUSH2 0x378A JUMP JUMPDEST SWAP6 POP POP PUSH1 0x80 PUSH2 0x3DB9 DUP12 DUP3 DUP13 ADD PUSH2 0x378A JUMP JUMPDEST SWAP5 POP POP PUSH1 0xA0 PUSH2 0x3DCA DUP12 DUP3 DUP13 ADD PUSH2 0x378A JUMP JUMPDEST SWAP4 POP POP PUSH1 0xC0 PUSH2 0x3DDB DUP12 DUP3 DUP13 ADD PUSH2 0x364F JUMP JUMPDEST SWAP3 POP POP PUSH1 0xE0 PUSH2 0x3DEC DUP12 DUP3 DUP13 ADD PUSH2 0x364F JUMP JUMPDEST SWAP2 POP POP SWAP3 SWAP6 SWAP9 POP SWAP3 SWAP6 SWAP9 SWAP1 SWAP4 SWAP7 POP JUMP JUMPDEST PUSH1 0x0 PUSH2 0x3E08 DUP4 DUP4 PUSH2 0x3E23 JUMP JUMPDEST PUSH1 0x20 DUP4 ADD SWAP1 POP SWAP3 SWAP2 POP POP JUMP JUMPDEST PUSH2 0x3E1D DUP2 PUSH2 0x47CA JUMP JUMPDEST DUP3 MSTORE POP POP JUMP JUMPDEST PUSH2 0x3E2C DUP2 PUSH2 0x4756 JUMP JUMPDEST DUP3 MSTORE POP POP JUMP JUMPDEST PUSH2 0x3E3B DUP2 PUSH2 0x4756 JUMP JUMPDEST DUP3 MSTORE POP POP JUMP JUMPDEST PUSH1 0x0 PUSH2 0x3E4C DUP3 PUSH2 0x46EA JUMP JUMPDEST PUSH2 0x3E56 DUP2 DUP6 PUSH2 0x4718 JUMP JUMPDEST SWAP4 POP PUSH2 0x3E61 DUP4 PUSH2 0x46C5 JUMP JUMPDEST DUP1 PUSH1 0x0 JUMPDEST DUP4 DUP2 LT ISZERO PUSH2 0x3E92 JUMPI DUP2 MLOAD PUSH2 0x3E79 DUP9 DUP3 PUSH2 0x3DFC JUMP JUMPDEST SWAP8 POP PUSH2 0x3E84 DUP4 PUSH2 0x470B JUMP JUMPDEST SWAP3 POP POP PUSH1 0x1 DUP2 ADD SWAP1 POP PUSH2 0x3E65 JUMP JUMPDEST POP DUP6 SWAP4 POP POP POP POP SWAP3 SWAP2 POP POP JUMP JUMPDEST PUSH2 0x3EA8 DUP2 PUSH2 0x4768 JUMP JUMPDEST DUP3 MSTORE POP POP JUMP JUMPDEST PUSH2 0x3EB7 DUP2 PUSH2 0x4774 JUMP JUMPDEST DUP3 MSTORE POP POP JUMP JUMPDEST PUSH1 0x0 PUSH2 0x3EC8 DUP3 PUSH2 0x46F5 JUMP JUMPDEST PUSH2 0x3ED2 DUP2 DUP6 PUSH2 0x4729 JUMP JUMPDEST SWAP4 POP PUSH2 0x3EE2 DUP2 DUP6 PUSH1 0x20 DUP7 ADD PUSH2 0x4821 JUMP JUMPDEST PUSH2 0x3EEB DUP2 PUSH2 0x4854 JUMP JUMPDEST DUP5 ADD SWAP2 POP POP SWAP3 SWAP2 POP POP JUMP JUMPDEST PUSH2 0x3EFF DUP2 PUSH2 0x47DC JUMP JUMPDEST DUP3 MSTORE POP POP JUMP JUMPDEST PUSH1 0x0 PUSH2 0x3F10 DUP3 PUSH2 0x4700 JUMP JUMPDEST PUSH2 0x3F1A DUP2 DUP6 PUSH2 0x473A JUMP JUMPDEST SWAP4 POP PUSH2 0x3F2A DUP2 DUP6 PUSH1 0x20 DUP7 ADD PUSH2 0x4821 JUMP JUMPDEST PUSH2 0x3F33 DUP2 PUSH2 0x4854 JUMP JUMPDEST DUP5 ADD SWAP2 POP POP SWAP3 SWAP2 POP POP JUMP JUMPDEST PUSH1 0x0 DUP2 SLOAD PUSH1 0x1 DUP2 AND PUSH1 0x0 DUP2 EQ PUSH2 0x3F5B JUMPI PUSH1 0x1 DUP2 EQ PUSH2 0x3F80 JUMPI PUSH2 0x3FC4 JUMP JUMPDEST PUSH1 0x7F PUSH1 0x2 DUP4 DIV AND PUSH2 0x3F6C DUP2 DUP8 PUSH2 0x474B JUMP JUMPDEST SWAP6 POP PUSH1 0xFF NOT DUP4 AND DUP7 MSTORE DUP1 DUP7 ADD SWAP4 POP POP PUSH2 0x3FC4 JUMP JUMPDEST PUSH1 0x2 DUP3 DIV PUSH2 0x3F8E DUP2 DUP8 PUSH2 0x474B JUMP JUMPDEST SWAP6 POP PUSH2 0x3F99 DUP6 PUSH2 0x46D5 JUMP JUMPDEST PUSH1 0x0 JUMPDEST DUP3 DUP2 LT ISZERO PUSH2 0x3FBB JUMPI DUP2 SLOAD DUP2 DUP10 ADD MSTORE PUSH1 0x1 DUP3 ADD SWAP2 POP PUSH1 0x20 DUP2 ADD SWAP1 POP PUSH2 0x3F9C JUMP JUMPDEST DUP3 DUP9 ADD SWAP6 POP POP POP POP JUMPDEST POP POP SWAP3 SWAP2 POP POP JUMP JUMPDEST PUSH1 0x0 PUSH2 0x3FD9 PUSH1 0x26 DUP4 PUSH2 0x473A JUMP JUMPDEST SWAP2 POP PUSH32 0x4F776E61626C653A206E6577206F776E657220697320746865207A65726F2061 PUSH1 0x0 DUP4 ADD MSTORE PUSH32 0x6464726573730000000000000000000000000000000000000000000000000000 PUSH1 0x20 DUP4 ADD MSTORE PUSH1 0x40 DUP3 ADD SWAP1 POP SWAP2 SWAP1 POP JUMP JUMPDEST PUSH1 0x0 PUSH2 0x403F PUSH1 0x23 DUP4 PUSH2 0x473A JUMP JUMPDEST SWAP2 POP PUSH32 0x41646D696E4D616E616765723A2061646D696E20616E64206F776E6572206F6E PUSH1 0x0 DUP4 ADD MSTORE PUSH32 0x6C792E0000000000000000000000000000000000000000000000000000000000 PUSH1 0x20 DUP4 ADD MSTORE PUSH1 0x40 DUP3 ADD SWAP1 POP SWAP2 SWAP1 POP JUMP JUMPDEST PUSH1 0x0 PUSH2 0x40A5 PUSH1 0x1B DUP4 PUSH2 0x473A JUMP JUMPDEST SWAP2 POP PUSH32 0x546F6B656E206E6F74206170706F726F766520666F72206275726E0000000000 PUSH1 0x0 DUP4 ADD MSTORE PUSH1 0x20 DUP3 ADD SWAP1 POP SWAP2 SWAP1 POP JUMP JUMPDEST PUSH1 0x0 PUSH2 0x40E5 PUSH1 0x20 DUP4 PUSH2 0x473A JUMP JUMPDEST SWAP2 POP PUSH32 0x4F776E61626C653A2063616C6C6572206973206E6F7420746865206F776E6572 PUSH1 0x0 DUP4 ADD MSTORE PUSH1 0x20 DUP3 ADD SWAP1 POP SWAP2 SWAP1 POP JUMP JUMPDEST PUSH1 0x0 PUSH2 0x4125 PUSH1 0x15 DUP4 PUSH2 0x473A JUMP JUMPDEST SWAP2 POP PUSH32 0x61646D696E20616C726561647920696E206C6973740000000000000000000000 PUSH1 0x0 DUP4 ADD MSTORE PUSH1 0x20 DUP3 ADD SWAP1 POP SWAP2 SWAP1 POP JUMP JUMPDEST PUSH2 0x4161 DUP2 PUSH2 0x47C0 JUMP JUMPDEST DUP3 MSTORE POP POP JUMP JUMPDEST PUSH1 0x0 PUSH2 0x4173 DUP3 DUP5 PUSH2 0x3F3E JUMP JUMPDEST SWAP2 POP DUP2 SWAP1 POP SWAP3 SWAP2 POP POP JUMP JUMPDEST PUSH1 0x0 PUSH1 0x20 DUP3 ADD SWAP1 POP PUSH2 0x4193 PUSH1 0x0 DUP4 ADD DUP5 PUSH2 0x3E32 JUMP JUMPDEST SWAP3 SWAP2 POP POP JUMP JUMPDEST PUSH1 0x0 PUSH1 0x20 DUP3 ADD SWAP1 POP PUSH2 0x41AE PUSH1 0x0 DUP4 ADD DUP5 PUSH2 0x3E14 JUMP JUMPDEST SWAP3 SWAP2 POP POP JUMP JUMPDEST PUSH1 0x0 PUSH1 0x40 DUP3 ADD SWAP1 POP PUSH2 0x41C9 PUSH1 0x0 DUP4 ADD DUP6 PUSH2 0x3E14 JUMP JUMPDEST PUSH2 0x41D6 PUSH1 0x20 DUP4 ADD DUP5 PUSH2 0x4158 JUMP JUMPDEST SWAP4 SWAP3 POP POP POP JUMP JUMPDEST PUSH1 0x0 PUSH1 0x60 DUP3 ADD SWAP1 POP PUSH2 0x41F2 PUSH1 0x0 DUP4 ADD DUP7 PUSH2 0x3E32 JUMP JUMPDEST PUSH2 0x41FF PUSH1 0x20 DUP4 ADD DUP6 PUSH2 0x3E32 JUMP JUMPDEST PUSH2 0x420C PUSH1 0x40 DUP4 ADD DUP5 PUSH2 0x4158 JUMP JUMPDEST SWAP5 SWAP4 POP POP POP POP JUMP JUMPDEST PUSH1 0x0 PUSH1 0x80 DUP3 ADD SWAP1 POP PUSH2 0x4229 PUSH1 0x0 DUP4 ADD DUP8 PUSH2 0x3E32 JUMP JUMPDEST PUSH2 0x4236 PUSH1 0x20 DUP4 ADD DUP7 PUSH2 0x3E32 JUMP JUMPDEST PUSH2 0x4243 PUSH1 0x40 DUP4 ADD DUP6 PUSH2 0x4158 JUMP JUMPDEST DUP2 DUP2 SUB PUSH1 0x60 DUP4 ADD MSTORE PUSH2 0x4255 DUP2 DUP5 PUSH2 0x3EBD JUMP JUMPDEST SWAP1 POP SWAP6 SWAP5 POP POP POP POP POP JUMP JUMPDEST PUSH1 0x0 PUSH1 0x40 DUP3 ADD SWAP1 POP PUSH2 0x4275 PUSH1 0x0 DUP4 ADD DUP6 PUSH2 0x3E32 JUMP JUMPDEST PUSH2 0x4282 PUSH1 0x20 DUP4 ADD DUP5 PUSH2 0x3EF6 JUMP JUMPDEST SWAP4 SWAP3 POP POP POP JUMP JUMPDEST PUSH1 0x0 PUSH1 0x40 DUP3 ADD SWAP1 POP PUSH2 0x429E PUSH1 0x0 DUP4 ADD DUP6 PUSH2 0x3E32 JUMP JUMPDEST PUSH2 0x42AB PUSH1 0x20 DUP4 ADD DUP5 PUSH2 0x4158 JUMP JUMPDEST SWAP4 SWAP3 POP POP POP JUMP JUMPDEST PUSH1 0x0 PUSH1 0x60 DUP3 ADD SWAP1 POP PUSH2 0x42C7 PUSH1 0x0 DUP4 ADD DUP7 PUSH2 0x3E32 JUMP JUMPDEST PUSH2 0x42D4 PUSH1 0x20 DUP4 ADD DUP6 PUSH2 0x4158 JUMP JUMPDEST PUSH2 0x42E1 PUSH1 0x40 DUP4 ADD DUP5 PUSH2 0x3E32 JUMP JUMPDEST SWAP5 SWAP4 POP POP POP POP JUMP JUMPDEST PUSH1 0x0 PUSH1 0x20 DUP3 ADD SWAP1 POP DUP2 DUP2 SUB PUSH1 0x0 DUP4 ADD MSTORE PUSH2 0x4303 DUP2 DUP5 PUSH2 0x3E41 JUMP JUMPDEST SWAP1 POP SWAP3 SWAP2 POP POP JUMP JUMPDEST PUSH1 0x0 PUSH1 0x20 DUP3 ADD SWAP1 POP PUSH2 0x4320 PUSH1 0x0 DUP4 ADD DUP5 PUSH2 0x3E9F JUMP JUMPDEST SWAP3 SWAP2 POP POP JUMP JUMPDEST PUSH1 0x0 PUSH1 0x20 DUP3 ADD SWAP1 POP PUSH2 0x433B PUSH1 0x0 DUP4 ADD DUP5 PUSH2 0x3EAE JUMP JUMPDEST SWAP3 SWAP2 POP POP JUMP JUMPDEST PUSH1 0x0 PUSH1 0x40 DUP3 ADD SWAP1 POP DUP2 DUP2 SUB PUSH1 0x0 DUP4 ADD MSTORE PUSH2 0x435B DUP2 DUP6 PUSH2 0x3F05 JUMP JUMPDEST SWAP1 POP PUSH2 0x436A PUSH1 0x20 DUP4 ADD DUP5 PUSH2 0x4158 JUMP JUMPDEST SWAP4 SWAP3 POP POP POP JUMP JUMPDEST PUSH1 0x0 PUSH1 0x20 DUP3 ADD SWAP1 POP DUP2 DUP2 SUB PUSH1 0x0 DUP4 ADD MSTORE PUSH2 0x438A DUP2 PUSH2 0x3FCC JUMP JUMPDEST SWAP1 POP SWAP2 SWAP1 POP JUMP JUMPDEST PUSH1 0x0 PUSH1 0x20 DUP3 ADD SWAP1 POP DUP2 DUP2 SUB PUSH1 0x0 DUP4 ADD MSTORE PUSH2 0x43AA DUP2 PUSH2 0x4032 JUMP JUMPDEST SWAP1 POP SWAP2 SWAP1 POP JUMP JUMPDEST PUSH1 0x0 PUSH1 0x20 DUP3 ADD SWAP1 POP DUP2 DUP2 SUB PUSH1 0x0 DUP4 ADD MSTORE PUSH2 0x43CA DUP2 PUSH2 0x4098 JUMP JUMPDEST SWAP1 POP SWAP2 SWAP1 POP JUMP JUMPDEST PUSH1 0x0 PUSH1 0x20 DUP3 ADD SWAP1 POP DUP2 DUP2 SUB PUSH1 0x0 DUP4 ADD MSTORE PUSH2 0x43EA DUP2 PUSH2 0x40D8 JUMP JUMPDEST SWAP1 POP SWAP2 SWAP1 POP JUMP JUMPDEST PUSH1 0x0 PUSH1 0x20 DUP3 ADD SWAP1 POP DUP2 DUP2 SUB PUSH1 0x0 DUP4 ADD MSTORE PUSH2 0x440A DUP2 PUSH2 0x4118 JUMP JUMPDEST SWAP1 POP SWAP2 SWAP1 POP JUMP JUMPDEST PUSH1 0x0 PUSH1 0x20 DUP3 ADD SWAP1 POP PUSH2 0x4426 PUSH1 0x0 DUP4 ADD DUP5 PUSH2 0x4158 JUMP JUMPDEST SWAP3 SWAP2 POP POP JUMP JUMPDEST PUSH1 0x0 PUSH1 0x40 DUP3 ADD SWAP1 POP PUSH2 0x4441 PUSH1 0x0 DUP4 ADD DUP6 PUSH2 0x4158 JUMP JUMPDEST PUSH2 0x444E PUSH1 0x20 DUP4 ADD DUP5 PUSH2 0x3E32 JUMP JUMPDEST SWAP4 SWAP3 POP POP POP JUMP JUMPDEST PUSH1 0x0 PUSH1 0x80 DUP3 ADD SWAP1 POP PUSH2 0x446A PUSH1 0x0 DUP4 ADD DUP8 PUSH2 0x4158 JUMP JUMPDEST PUSH2 0x4477 PUSH1 0x20 DUP4 ADD DUP7 PUSH2 0x3E32 JUMP JUMPDEST PUSH2 0x4484 PUSH1 0x40 DUP4 ADD DUP6 PUSH2 0x3E32 JUMP JUMPDEST PUSH2 0x4491 PUSH1 0x60 DUP4 ADD DUP5 PUSH2 0x3E9F JUMP JUMPDEST SWAP6 SWAP5 POP POP POP POP POP JUMP JUMPDEST PUSH1 0x0 PUSH1 0x80 DUP3 ADD SWAP1 POP PUSH2 0x44AF PUSH1 0x0 DUP4 ADD DUP8 PUSH2 0x4158 JUMP JUMPDEST PUSH2 0x44BC PUSH1 0x20 DUP4 ADD DUP7 PUSH2 0x3E32 JUMP JUMPDEST PUSH2 0x44C9 PUSH1 0x40 DUP4 ADD DUP6 PUSH2 0x3E32 JUMP JUMPDEST PUSH2 0x44D6 PUSH1 0x60 DUP4 ADD DUP5 PUSH2 0x4158 JUMP JUMPDEST SWAP6 SWAP5 POP POP POP POP POP JUMP JUMPDEST PUSH1 0x0 PUSH1 0x60 DUP3 ADD SWAP1 POP PUSH2 0x44F4 PUSH1 0x0 DUP4 ADD DUP7 PUSH2 0x4158 JUMP JUMPDEST PUSH2 0x4501 PUSH1 0x20 DUP4 ADD DUP6 PUSH2 0x3E32 JUMP JUMPDEST PUSH2 0x450E PUSH1 0x40 DUP4 ADD DUP5 PUSH2 0x3E9F JUMP JUMPDEST SWAP5 SWAP4 POP POP POP POP JUMP JUMPDEST PUSH1 0x0 PUSH1 0x60 DUP3 ADD SWAP1 POP PUSH2 0x452B PUSH1 0x0 DUP4 ADD DUP7 PUSH2 0x4158 JUMP JUMPDEST PUSH2 0x4538 PUSH1 0x20 DUP4 ADD DUP6 PUSH2 0x3E32 JUMP JUMPDEST PUSH2 0x4545 PUSH1 0x40 DUP4 ADD DUP5 PUSH2 0x4158 JUMP JUMPDEST SWAP5 SWAP4 POP POP POP POP JUMP JUMPDEST PUSH1 0x0 PUSH1 0x80 DUP3 ADD SWAP1 POP PUSH2 0x4562 PUSH1 0x0 DUP4 ADD DUP8 PUSH2 0x4158 JUMP JUMPDEST PUSH2 0x456F PUSH1 0x20 DUP4 ADD DUP7 PUSH2 0x3E32 JUMP JUMPDEST PUSH2 0x457C PUSH1 0x40 DUP4 ADD DUP6 PUSH2 0x4158 JUMP JUMPDEST PUSH2 0x4589 PUSH1 0x60 DUP4 ADD DUP5 PUSH2 0x3E32 JUMP JUMPDEST SWAP6 SWAP5 POP POP POP POP POP JUMP JUMPDEST PUSH1 0x0 PUSH1 0x40 DUP3 ADD SWAP1 POP PUSH2 0x45A7 PUSH1 0x0 DUP4 ADD DUP6 PUSH2 0x4158 JUMP JUMPDEST DUP2 DUP2 SUB PUSH1 0x20 DUP4 ADD MSTORE PUSH2 0x45B9 DUP2 DUP5 PUSH2 0x3F05 JUMP JUMPDEST SWAP1 POP SWAP4 SWAP3 POP POP POP JUMP JUMPDEST PUSH1 0x0 PUSH2 0x100 DUP3 ADD SWAP1 POP PUSH2 0x45D8 PUSH1 0x0 DUP4 ADD DUP12 PUSH2 0x4158 JUMP JUMPDEST PUSH2 0x45E5 PUSH1 0x20 DUP4 ADD DUP11 PUSH2 0x4158 JUMP JUMPDEST PUSH2 0x45F2 PUSH1 0x40 DUP4 ADD DUP10 PUSH2 0x4158 JUMP JUMPDEST PUSH2 0x45FF PUSH1 0x60 DUP4 ADD DUP9 PUSH2 0x4158 JUMP JUMPDEST PUSH2 0x460C PUSH1 0x80 DUP4 ADD DUP8 PUSH2 0x4158 JUMP JUMPDEST PUSH2 0x4619 PUSH1 0xA0 DUP4 ADD DUP7 PUSH2 0x4158 JUMP JUMPDEST PUSH2 0x4626 PUSH1 0xC0 DUP4 ADD DUP6 PUSH2 0x3E32 JUMP JUMPDEST PUSH2 0x4633 PUSH1 0xE0 DUP4 ADD DUP5 PUSH2 0x3E32 JUMP JUMPDEST SWAP10 SWAP9 POP POP POP POP POP POP POP POP POP JUMP JUMPDEST PUSH1 0x0 PUSH1 0x40 MLOAD SWAP1 POP DUP2 DUP2 ADD DUP2 DUP2 LT PUSH8 0xFFFFFFFFFFFFFFFF DUP3 GT OR ISZERO PUSH2 0x4663 JUMPI PUSH1 0x0 DUP1 REVERT JUMPDEST DUP1 PUSH1 0x40 MSTORE POP SWAP2 SWAP1 POP JUMP JUMPDEST PUSH1 0x0 PUSH8 0xFFFFFFFFFFFFFFFF DUP3 GT ISZERO PUSH2 0x4684 JUMPI PUSH1 0x0 DUP1 REVERT JUMPDEST PUSH1 0x1F NOT PUSH1 0x1F DUP4 ADD AND SWAP1 POP PUSH1 0x20 DUP2 ADD SWAP1 POP SWAP2 SWAP1 POP JUMP JUMPDEST PUSH1 0x0 PUSH8 0xFFFFFFFFFFFFFFFF DUP3 GT ISZERO PUSH2 0x46B0 JUMPI PUSH1 0x0 DUP1 REVERT JUMPDEST PUSH1 0x1F NOT PUSH1 0x1F DUP4 ADD AND SWAP1 POP PUSH1 0x20 DUP2 ADD SWAP1 POP SWAP2 SWAP1 POP JUMP JUMPDEST PUSH1 0x0 DUP2 SWAP1 POP PUSH1 0x20 DUP3 ADD SWAP1 POP SWAP2 SWAP1 POP JUMP JUMPDEST PUSH1 0x0 DUP2 SWAP1 POP DUP2 PUSH1 0x0 MSTORE PUSH1 0x20 PUSH1 0x0 KECCAK256 SWAP1 POP SWAP2 SWAP1 POP JUMP JUMPDEST PUSH1 0x0 DUP2 MLOAD SWAP1 POP SWAP2 SWAP1 POP JUMP JUMPDEST PUSH1 0x0 DUP2 MLOAD SWAP1 POP SWAP2 SWAP1 POP JUMP JUMPDEST PUSH1 0x0 DUP2 MLOAD SWAP1 POP SWAP2 SWAP1 POP JUMP JUMPDEST PUSH1 0x0 PUSH1 0x20 DUP3 ADD SWAP1 POP SWAP2 SWAP1 POP JUMP JUMPDEST PUSH1 0x0 DUP3 DUP3 MSTORE PUSH1 0x20 DUP3 ADD SWAP1 POP SWAP3 SWAP2 POP POP JUMP JUMPDEST PUSH1 0x0 DUP3 DUP3 MSTORE PUSH1 0x20 DUP3 ADD SWAP1 POP SWAP3 SWAP2 POP POP JUMP JUMPDEST PUSH1 0x0 DUP3 DUP3 MSTORE PUSH1 0x20 DUP3 ADD SWAP1 POP SWAP3 SWAP2 POP POP JUMP JUMPDEST PUSH1 0x0 DUP2 SWAP1 POP SWAP3 SWAP2 POP POP JUMP JUMPDEST PUSH1 0x0 PUSH2 0x4761 DUP3 PUSH2 0x47A0 JUMP JUMPDEST SWAP1 POP SWAP2 SWAP1 POP JUMP JUMPDEST PUSH1 0x0 DUP2 ISZERO ISZERO SWAP1 POP SWAP2 SWAP1 POP JUMP JUMPDEST PUSH1 0x0 PUSH32 0xFFFFFFFF00000000000000000000000000000000000000000000000000000000 DUP3 AND SWAP1 POP SWAP2 SWAP1 POP JUMP JUMPDEST PUSH1 0x0 PUSH20 0xFFFFFFFFFFFFFFFFFFFFFFFFFFFFFFFFFFFFFFFF DUP3 AND SWAP1 POP SWAP2 SWAP1 POP JUMP JUMPDEST PUSH1 0x0 DUP2 SWAP1 POP SWAP2 SWAP1 POP JUMP JUMPDEST PUSH1 0x0 PUSH2 0x47D5 DUP3 PUSH2 0x47EE JUMP JUMPDEST SWAP1 POP SWAP2 SWAP1 POP JUMP JUMPDEST PUSH1 0x0 PUSH2 0x47E7 DUP3 PUSH2 0x47C0 JUMP JUMPDEST SWAP1 POP SWAP2 SWAP1 POP JUMP JUMPDEST PUSH1 0x0 PUSH2 0x47F9 DUP3 PUSH2 0x4800 JUMP JUMPDEST SWAP1 POP SWAP2 SWAP1 POP JUMP JUMPDEST PUSH1 0x0 PUSH2 0x480B DUP3 PUSH2 0x47A0 JUMP JUMPDEST SWAP1 POP SWAP2 SWAP1 POP JUMP JUMPDEST DUP3 DUP2 DUP4 CALLDATACOPY PUSH1 0x0 DUP4 DUP4 ADD MSTORE POP POP POP JUMP JUMPDEST PUSH1 0x0 JUMPDEST DUP4 DUP2 LT ISZERO PUSH2 0x483F JUMPI DUP1 DUP3 ADD MLOAD DUP2 DUP5 ADD MSTORE PUSH1 0x20 DUP2 ADD SWAP1 POP PUSH2 0x4824 JUMP JUMPDEST DUP4 DUP2 GT ISZERO PUSH2 0x484E JUMPI PUSH1 0x0 DUP5 DUP5 ADD MSTORE JUMPDEST POP POP POP POP JUMP JUMPDEST PUSH1 0x0 PUSH1 0x1F NOT PUSH1 0x1F DUP4 ADD AND SWAP1 POP SWAP2 SWAP1 POP JUMP JUMPDEST PUSH2 0x486E DUP2 PUSH2 0x4756 JUMP JUMPDEST DUP2 EQ PUSH2 0x4879 JUMPI PUSH1 0x0 DUP1 REVERT JUMPDEST POP JUMP JUMPDEST PUSH2 0x4885 DUP2 PUSH2 0x4768 JUMP JUMPDEST DUP2 EQ PUSH2 0x4890 JUMPI PUSH1 0x0 DUP1 REVERT JUMPDEST POP JUMP JUMPDEST PUSH2 0x489C DUP2 PUSH2 0x47C0 JUMP JUMPDEST DUP2 EQ PUSH2 0x48A7 JUMPI PUSH1 0x0 DUP1 REVERT JUMPDEST POP JUMP INVALID LOG3 PUSH6 0x627A7A723158 KECCAK256 CALLDATALOAD PUSH10 0xE5078B759A604DEA3862 EXP PUSH8 0x3440196E018C59C1 SLT 0xBA 0xCE DIFFICULTY CHAINID 0x24 SWAP14 0xCB PUSH30 0x426C6578706572696D656E74616CF564736F6C6343000511004000000000 "
		},
		"gasEstimates": {
			"creation": {
				"codeDepositCost": "3733800",
				"executionCost": "infinite",
				"totalCost": "infinite"
			},
			"external": {
				"": "209",
				"accpetOffer(uint256,address,address,bool)": "infinite",
				"addAdmin(address)": "infinite",
				"adminExist(address)": "infinite",
				"admins(uint256)": "2447",
				"bid(uint256,address,uint256)": "infinite",
				"burnNFT(address,uint256)": "infinite",
				"buy(uint256,address,bool)": "infinite",
				"collect(uint256,address,bool)": "infinite",
				"erc20Approve(address,address,uint256)": "infinite",
				"erc20DecreaseAllowance(address,address,uint256)": "infinite",
				"erc20DecreaseApproval(address,address,uint256)": "infinite",
				"erc20IncreaseAllowance(address,address,uint256)": "infinite",
				"erc20IncreaseApproval(address,address,uint256)": "infinite",
				"erc20Transfer(address,address,uint256)": "infinite",
				"erc20TransferFrom(address,address,address,uint256)": "infinite",
				"erc721Approve(address,address,uint256)": "infinite",
				"erc721Burn(address,uint256)": "infinite",
				"erc721Mint(address,string,uint256)": "infinite",
				"erc721SafeTransferFrom(address,address,address,uint256)": "infinite",
				"erc721SafeTransferFrom(address,address,address,uint256,bytes)": "infinite",
				"erc721Transfer(address,address,uint256)": "infinite",
				"erc721TransferFrom(address,address,address,uint256)": "infinite",
				"getAdmins()": "infinite",
				"isOwner()": "1342",
				"makeAnOffer(uint256,address,address,uint256)": "infinite",
				"onERC721Received(address,address,uint256,bytes)": "infinite",
				"owner()": "1311",
				"putOnSale(uint256,uint256,uint256,uint256,uint256,uint256,address,address)": "infinite",
				"putSaleOff(uint256,address)": "infinite",
				"removeAdmin(address)": "infinite",
				"renounceOwnership()": "24422",
				"revertAll(uint256,address)": "infinite",
				"revertOffer(uint256,address,address)": "infinite",
				"transferOwnership(address)": "24754",
				"updatePrice(uint256,address,uint256,address)": "infinite",
				"withdraw()": "infinite",
				"withdrawERC20(address)": "infinite"
			}
		},
		"methodIdentifiers": {
			"accpetOffer(uint256,address,address,bool)": "5aa8680a",
			"addAdmin(address)": "70480275",
			"adminExist(address)": "fba08d45",
			"admins(uint256)": "14bfd6d0",
			"bid(uint256,address,uint256)": "c0f4ed31",
			"burnNFT(address,uint256)": "47fcf018",
			"buy(uint256,address,bool)": "7ad157b9",
			"collect(uint256,address,bool)": "8c6ab013",
			"erc20Approve(address,address,uint256)": "ace561a8",
			"erc20DecreaseAllowance(address,address,uint256)": "0c82ea1a",
			"erc20DecreaseApproval(address,address,uint256)": "c347f69b",
			"erc20IncreaseAllowance(address,address,uint256)": "9dc6b78d",
			"erc20IncreaseApproval(address,address,uint256)": "1afffec0",
			"erc20Transfer(address,address,uint256)": "3790767d",
			"erc20TransferFrom(address,address,address,uint256)": "0a1b0b91",
			"erc721Approve(address,address,uint256)": "18fa0653",
			"erc721Burn(address,uint256)": "485f952e",
			"erc721Mint(address,string,uint256)": "fddea900",
			"erc721SafeTransferFrom(address,address,address,uint256)": "4a0aafda",
			"erc721SafeTransferFrom(address,address,address,uint256,bytes)": "488b0f7d",
			"erc721Transfer(address,address,uint256)": "b6011b4c",
			"erc721TransferFrom(address,address,address,uint256)": "8450ebe4",
			"getAdmins()": "31ae450b",
			"isOwner()": "8f32d59b",
			"makeAnOffer(uint256,address,address,uint256)": "3169b515",
			"onERC721Received(address,address,uint256,bytes)": "150b7a02",
			"owner()": "8da5cb5b",
			"putOnSale(uint256,uint256,uint256,uint256,uint256,uint256,address,address)": "640cf873",
			"putSaleOff(uint256,address)": "179443f3",
			"removeAdmin(address)": "1785f53c",
			"renounceOwnership()": "715018a6",
			"revertAll(uint256,address)": "e7ab44b4",
			"revertOffer(uint256,address,address)": "17c48a70",
			"transferOwnership(address)": "f2fde38b",
			"updatePrice(uint256,address,uint256,address)": "ff8edbdb",
			"withdraw()": "3ccfd60b",
			"withdrawERC20(address)": "f4f3b200"
		}
	},
	"abi": [
		{
			"inputs": [
				{
					"internalType": "address",
					"name": "_broker",
					"type": "address"
				}
			],
			"payable": false,
			"stateMutability": "nonpayable",
			"type": "constructor"
		},
		{
			"anonymous": false,
			"inputs": [
				{
					"indexed": true,
					"internalType": "address",
					"name": "admin",
					"type": "address"
				},
				{
					"indexed": true,
					"internalType": "address",
					"name": "contractAddress",
					"type": "address"
				},
				{
					"indexed": true,
					"internalType": "string",
					"name": "functionName",
					"type": "string"
				},
				{
					"indexed": false,
					"internalType": "address",
					"name": "collectionAddress",
					"type": "address"
				},
				{
					"indexed": false,
					"internalType": "uint256",
					"name": "tokenId",
					"type": "uint256"
				}
			],
			"name": "AdminActionPerformed",
			"type": "event"
		},
		{
			"anonymous": false,
			"inputs": [
				{
					"indexed": false,
					"internalType": "address",
					"name": "admin",
					"type": "address"
				},
				{
					"indexed": false,
					"internalType": "uint256",
					"name": "time",
					"type": "uint256"
				}
			],
			"name": "AdminAdded",
			"type": "event"
		},
		{
			"anonymous": false,
			"inputs": [
				{
					"indexed": false,
					"internalType": "address",
					"name": "admin",
					"type": "address"
				},
				{
					"indexed": false,
					"internalType": "uint256",
					"name": "time",
					"type": "uint256"
				}
			],
			"name": "AdminRemoved",
			"type": "event"
		},
		{
			"anonymous": false,
			"inputs": [
				{
					"indexed": true,
					"internalType": "address",
					"name": "collection",
					"type": "address"
				},
				{
					"indexed": true,
					"internalType": "uint256",
					"name": "tokenId",
					"type": "uint256"
				},
				{
					"indexed": true,
					"internalType": "address",
					"name": "admin",
					"type": "address"
				},
				{
					"indexed": false,
					"internalType": "uint256",
					"name": "time",
					"type": "uint256"
				},
				{
					"indexed": false,
					"internalType": "string",
					"name": "tokenURI",
					"type": "string"
				}
			],
			"name": "NFTBurned",
			"type": "event"
		},
		{
			"anonymous": false,
			"inputs": [
				{
					"indexed": true,
					"internalType": "address",
					"name": "previousOwner",
					"type": "address"
				},
				{
					"indexed": true,
					"internalType": "address",
					"name": "newOwner",
					"type": "address"
				}
			],
			"name": "OwnershipTransferred",
			"type": "event"
		},
		{
			"payable": true,
			"stateMutability": "payable",
			"type": "fallback"
		},
		{
			"constant": false,
			"inputs": [
				{
					"internalType": "uint256",
					"name": "tokenID",
					"type": "uint256"
				},
				{
					"internalType": "address",
					"name": "_mintableToken",
					"type": "address"
				},
				{
					"internalType": "address",
					"name": "_erc20Token",
					"type": "address"
				},
				{
					"internalType": "bool",
					"name": "isNotClubare",
					"type": "bool"
				}
			],
			"name": "accpetOffer",
			"outputs": [],
			"payable": true,
			"stateMutability": "payable",
			"type": "function"
		},
		{
			"constant": false,
			"inputs": [
				{
					"internalType": "address",
					"name": "admin",
					"type": "address"
				}
			],
			"name": "addAdmin",
			"outputs": [],
			"payable": false,
			"stateMutability": "nonpayable",
			"type": "function"
		},
		{
			"constant": true,
			"inputs": [
				{
					"internalType": "address",
					"name": "_sender",
					"type": "address"
				}
			],
			"name": "adminExist",
			"outputs": [
				{
					"internalType": "bool",
					"name": "",
					"type": "bool"
				}
			],
			"payable": false,
			"stateMutability": "view",
			"type": "function"
		},
		{
			"constant": true,
			"inputs": [
				{
					"internalType": "uint256",
					"name": "",
					"type": "uint256"
				}
			],
			"name": "admins",
			"outputs": [
				{
					"internalType": "address",
					"name": "",
					"type": "address"
				}
			],
			"payable": false,
			"stateMutability": "view",
			"type": "function"
		},
		{
			"constant": false,
			"inputs": [
				{
					"internalType": "uint256",
					"name": "tokenID",
					"type": "uint256"
				},
				{
					"internalType": "address",
					"name": "_mintableToken",
					"type": "address"
				},
				{
					"internalType": "uint256",
					"name": "amount",
					"type": "uint256"
				}
			],
			"name": "bid",
			"outputs": [],
			"payable": true,
			"stateMutability": "payable",
			"type": "function"
		},
		{
			"constant": false,
			"inputs": [
				{
					"internalType": "address",
					"name": "collection",
					"type": "address"
				},
				{
					"internalType": "uint256",
					"name": "tokenId",
					"type": "uint256"
				}
			],
			"name": "burnNFT",
			"outputs": [],
			"payable": false,
			"stateMutability": "nonpayable",
			"type": "function"
		},
		{
			"constant": false,
			"inputs": [
				{
					"internalType": "uint256",
					"name": "tokenID",
					"type": "uint256"
				},
				{
					"internalType": "address",
					"name": "_mintableToken",
					"type": "address"
				},
				{
					"internalType": "bool",
					"name": "isNotClubare",
					"type": "bool"
				}
			],
			"name": "buy",
			"outputs": [],
			"payable": true,
			"stateMutability": "payable",
			"type": "function"
		},
		{
			"constant": false,
			"inputs": [
				{
					"internalType": "uint256",
					"name": "tokenID",
					"type": "uint256"
				},
				{
					"internalType": "address",
					"name": "_mintableToken",
					"type": "address"
				},
				{
					"internalType": "bool",
					"name": "isNotClubare",
					"type": "bool"
				}
			],
			"name": "collect",
			"outputs": [],
			"payable": false,
			"stateMutability": "nonpayable",
			"type": "function"
		},
		{
			"constant": false,
			"inputs": [
				{
					"internalType": "address",
					"name": "_erc20",
					"type": "address"
				},
				{
					"internalType": "address",
					"name": "spender",
					"type": "address"
				},
				{
					"internalType": "uint256",
					"name": "value",
					"type": "uint256"
				}
			],
			"name": "erc20Approve",
			"outputs": [],
			"payable": false,
			"stateMutability": "nonpayable",
			"type": "function"
		},
		{
			"constant": false,
			"inputs": [
				{
					"internalType": "address",
					"name": "_erc20",
					"type": "address"
				},
				{
					"internalType": "address",
					"name": "spender",
					"type": "address"
				},
				{
					"internalType": "uint256",
					"name": "subtractedValue",
					"type": "uint256"
				}
			],
			"name": "erc20DecreaseAllowance",
			"outputs": [],
			"payable": false,
			"stateMutability": "nonpayable",
			"type": "function"
		},
		{
			"constant": false,
			"inputs": [
				{
					"internalType": "address",
					"name": "_erc20",
					"type": "address"
				},
				{
					"internalType": "address",
					"name": "_spender",
					"type": "address"
				},
				{
					"internalType": "uint256",
					"name": "_subtractedValue",
					"type": "uint256"
				}
			],
			"name": "erc20DecreaseApproval",
			"outputs": [],
			"payable": false,
			"stateMutability": "nonpayable",
			"type": "function"
		},
		{
			"constant": false,
			"inputs": [
				{
					"internalType": "address",
					"name": "_erc20",
					"type": "address"
				},
				{
					"internalType": "address",
					"name": "spender",
					"type": "address"
				},
				{
					"internalType": "uint256",
					"name": "addedValue",
					"type": "uint256"
				}
			],
			"name": "erc20IncreaseAllowance",
			"outputs": [],
			"payable": false,
			"stateMutability": "nonpayable",
			"type": "function"
		},
		{
			"constant": false,
			"inputs": [
				{
					"internalType": "address",
					"name": "_erc20",
					"type": "address"
				},
				{
					"internalType": "address",
					"name": "spender",
					"type": "address"
				},
				{
					"internalType": "uint256",
					"name": "addedValue",
					"type": "uint256"
				}
			],
			"name": "erc20IncreaseApproval",
			"outputs": [],
			"payable": false,
			"stateMutability": "nonpayable",
			"type": "function"
		},
		{
			"constant": false,
			"inputs": [
				{
					"internalType": "address",
					"name": "_erc20",
					"type": "address"
				},
				{
					"internalType": "address",
					"name": "to",
					"type": "address"
				},
				{
					"internalType": "uint256",
					"name": "value",
					"type": "uint256"
				}
			],
			"name": "erc20Transfer",
			"outputs": [],
			"payable": false,
			"stateMutability": "nonpayable",
			"type": "function"
		},
		{
			"constant": false,
			"inputs": [
				{
					"internalType": "address",
					"name": "_erc20",
					"type": "address"
				},
				{
					"internalType": "address",
					"name": "from",
					"type": "address"
				},
				{
					"internalType": "address",
					"name": "to",
					"type": "address"
				},
				{
					"internalType": "uint256",
					"name": "value",
					"type": "uint256"
				}
			],
			"name": "erc20TransferFrom",
			"outputs": [],
			"payable": false,
			"stateMutability": "nonpayable",
			"type": "function"
		},
		{
			"constant": false,
			"inputs": [
				{
					"internalType": "address",
					"name": "_ERC721Address",
					"type": "address"
				},
				{
					"internalType": "address",
					"name": "_to",
					"type": "address"
				},
				{
					"internalType": "uint256",
					"name": "_tokenId",
					"type": "uint256"
				}
			],
			"name": "erc721Approve",
			"outputs": [],
			"payable": false,
			"stateMutability": "nonpayable",
			"type": "function"
		},
		{
			"constant": false,
			"inputs": [
				{
					"internalType": "address",
					"name": "_ERC721Address",
					"type": "address"
				},
				{
					"internalType": "uint256",
					"name": "tokenId",
					"type": "uint256"
				}
			],
			"name": "erc721Burn",
			"outputs": [],
			"payable": false,
			"stateMutability": "nonpayable",
			"type": "function"
		},
		{
			"constant": false,
			"inputs": [
				{
					"internalType": "address",
					"name": "_ERC721Address",
					"type": "address"
				},
				{
					"internalType": "string",
					"name": "tokenURI",
					"type": "string"
				},
				{
					"internalType": "uint256",
					"name": "_royality",
					"type": "uint256"
				}
			],
			"name": "erc721Mint",
			"outputs": [],
			"payable": false,
			"stateMutability": "nonpayable",
			"type": "function"
		},
		{
			"constant": false,
			"inputs": [
				{
					"internalType": "address",
					"name": "_ERC721Address",
					"type": "address"
				},
				{
					"internalType": "address",
					"name": "from",
					"type": "address"
				},
				{
					"internalType": "address",
					"name": "to",
					"type": "address"
				},
				{
					"internalType": "uint256",
					"name": "tokenId",
					"type": "uint256"
				},
				{
					"internalType": "bytes",
					"name": "_data",
					"type": "bytes"
				}
			],
			"name": "erc721SafeTransferFrom",
			"outputs": [],
			"payable": false,
			"stateMutability": "nonpayable",
			"type": "function"
		},
		{
			"constant": false,
			"inputs": [
				{
					"internalType": "address",
					"name": "_ERC721Address",
					"type": "address"
				},
				{
					"internalType": "address",
					"name": "from",
					"type": "address"
				},
				{
					"internalType": "address",
					"name": "to",
					"type": "address"
				},
				{
					"internalType": "uint256",
					"name": "tokenId",
					"type": "uint256"
				}
			],
			"name": "erc721SafeTransferFrom",
			"outputs": [],
			"payable": false,
			"stateMutability": "nonpayable",
			"type": "function"
		},
		{
			"constant": false,
			"inputs": [
				{
					"internalType": "address",
					"name": "_ERC721Address",
					"type": "address"
				},
				{
					"internalType": "address",
					"name": "_to",
					"type": "address"
				},
				{
					"internalType": "uint256",
					"name": "_tokenId",
					"type": "uint256"
				}
			],
			"name": "erc721Transfer",
			"outputs": [],
			"payable": false,
			"stateMutability": "nonpayable",
			"type": "function"
		},
		{
			"constant": false,
			"inputs": [
				{
					"internalType": "address",
					"name": "_ERC721Address",
					"type": "address"
				},
				{
					"internalType": "address",
					"name": "from",
					"type": "address"
				},
				{
					"internalType": "address",
					"name": "to",
					"type": "address"
				},
				{
					"internalType": "uint256",
					"name": "tokenId",
					"type": "uint256"
				}
			],
			"name": "erc721TransferFrom",
			"outputs": [],
			"payable": false,
			"stateMutability": "nonpayable",
			"type": "function"
		},
		{
			"constant": true,
			"inputs": [],
			"name": "getAdmins",
			"outputs": [
				{
					"internalType": "address[]",
					"name": "",
					"type": "address[]"
				}
			],
			"payable": false,
			"stateMutability": "view",
			"type": "function"
		},
		{
			"constant": true,
			"inputs": [],
			"name": "isOwner",
			"outputs": [
				{
					"internalType": "bool",
					"name": "",
					"type": "bool"
				}
			],
			"payable": false,
			"stateMutability": "view",
			"type": "function"
		},
		{
			"constant": false,
			"inputs": [
				{
					"internalType": "uint256",
					"name": "tokenID",
					"type": "uint256"
				},
				{
					"internalType": "address",
					"name": "_mintableToken",
					"type": "address"
				},
				{
					"internalType": "address",
					"name": "_erc20Token",
					"type": "address"
				},
				{
					"internalType": "uint256",
					"name": "amount",
					"type": "uint256"
				}
			],
			"name": "makeAnOffer",
			"outputs": [],
			"payable": true,
			"stateMutability": "payable",
			"type": "function"
		},
		{
			"constant": false,
			"inputs": [
				{
					"internalType": "address",
					"name": "",
					"type": "address"
				},
				{
					"internalType": "address",
					"name": "",
					"type": "address"
				},
				{
					"internalType": "uint256",
					"name": "",
					"type": "uint256"
				},
				{
					"internalType": "bytes",
					"name": "",
					"type": "bytes"
				}
			],
			"name": "onERC721Received",
			"outputs": [
				{
					"internalType": "bytes4",
					"name": "",
					"type": "bytes4"
				}
			],
			"payable": false,
			"stateMutability": "nonpayable",
			"type": "function"
		},
		{
			"constant": true,
			"inputs": [],
			"name": "owner",
			"outputs": [
				{
					"internalType": "address",
					"name": "",
					"type": "address"
				}
			],
			"payable": false,
			"stateMutability": "view",
			"type": "function"
		},
		{
			"constant": false,
			"inputs": [
				{
					"internalType": "uint256",
					"name": "_tokenID",
					"type": "uint256"
				},
				{
					"internalType": "uint256",
					"name": "_startingPrice",
					"type": "uint256"
				},
				{
					"internalType": "uint256",
					"name": "_auctionType",
					"type": "uint256"
				},
				{
					"internalType": "uint256",
					"name": "_buyPrice",
					"type": "uint256"
				},
				{
					"internalType": "uint256",
					"name": "_startingTime",
					"type": "uint256"
				},
				{
					"internalType": "uint256",
					"name": "_closingTime",
					"type": "uint256"
				},
				{
					"internalType": "address",
					"name": "_mintableToken",
					"type": "address"
				},
				{
					"internalType": "address",
					"name": "_erc20Token",
					"type": "address"
				}
			],
			"name": "putOnSale",
			"outputs": [],
			"payable": false,
			"stateMutability": "nonpayable",
			"type": "function"
		},
		{
			"constant": false,
			"inputs": [
				{
					"internalType": "uint256",
					"name": "tokenID",
					"type": "uint256"
				},
				{
					"internalType": "address",
					"name": "_mintableToken",
					"type": "address"
				}
			],
			"name": "putSaleOff",
			"outputs": [],
			"payable": false,
			"stateMutability": "nonpayable",
			"type": "function"
		},
		{
			"constant": false,
			"inputs": [
				{
					"internalType": "address",
					"name": "admin",
					"type": "address"
				}
			],
			"name": "removeAdmin",
			"outputs": [],
			"payable": false,
			"stateMutability": "nonpayable",
			"type": "function"
		},
		{
			"constant": false,
			"inputs": [],
			"name": "renounceOwnership",
			"outputs": [],
			"payable": false,
			"stateMutability": "nonpayable",
			"type": "function"
		},
		{
			"constant": false,
			"inputs": [
				{
					"internalType": "uint256",
					"name": "tokenID",
					"type": "uint256"
				},
				{
					"internalType": "address",
					"name": "_mintableToken",
					"type": "address"
				}
			],
			"name": "revertAll",
			"outputs": [],
			"payable": false,
			"stateMutability": "nonpayable",
			"type": "function"
		},
		{
			"constant": false,
			"inputs": [
				{
					"internalType": "uint256",
					"name": "tokenID",
					"type": "uint256"
				},
				{
					"internalType": "address",
					"name": "_mintableToken",
					"type": "address"
				},
				{
					"internalType": "address",
					"name": "_erc20Token",
					"type": "address"
				}
			],
			"name": "revertOffer",
			"outputs": [],
			"payable": true,
			"stateMutability": "payable",
			"type": "function"
		},
		{
			"constant": false,
			"inputs": [
				{
					"internalType": "address",
					"name": "newOwner",
					"type": "address"
				}
			],
			"name": "transferOwnership",
			"outputs": [],
			"payable": false,
			"stateMutability": "nonpayable",
			"type": "function"
		},
		{
			"constant": false,
			"inputs": [
				{
					"internalType": "uint256",
					"name": "tokenID",
					"type": "uint256"
				},
				{
					"internalType": "address",
					"name": "_mintableToken",
					"type": "address"
				},
				{
					"internalType": "uint256",
					"name": "_newPrice",
					"type": "uint256"
				},
				{
					"internalType": "address",
					"name": "_erc20Token",
					"type": "address"
				}
			],
			"name": "updatePrice",
			"outputs": [],
			"payable": false,
			"stateMutability": "nonpayable",
			"type": "function"
		},
		{
			"constant": false,
			"inputs": [],
			"name": "withdraw",
			"outputs": [],
			"payable": false,
			"stateMutability": "nonpayable",
			"type": "function"
		},
		{
			"constant": false,
			"inputs": [
				{
					"internalType": "address",
					"name": "_erc20Token",
					"type": "address"
				}
			],
			"name": "withdrawERC20",
			"outputs": [],
			"payable": false,
			"stateMutability": "nonpayable",
			"type": "function"
		}
	]
}