{
	"data": {
		"bytecode": {
			"linkReferences": {
				"ERC20Addresses.sol": {
					"ERC20Addresses": [
						{
							"length": 20,
							"start": 3987
						}
					]
				},
				"TokenDetArrayLib.sol": {
					"TokenDetArrayLib": [
						{
							"length": 20,
							"start": 14049
						},
						{
							"length": 20,
							"start": 14218
						},
						{
							"length": 20,
							"start": 14335
						},
						{
							"length": 20,
							"start": 14457
						}
					]
				}
			},
			"object": "60806040523480156200001157600080fd5b5060405162009f2038038062009f208339818101604052620000379190810190620003c0565b336000806101000a81548173ffffffffffffffffffffffffffffffffffffffff021916908373ffffffffffffffffffffffffffffffffffffffff16021790555086600060146101000a81548161ffff021916908361ffff16021790555085600060166101000a81548161ffff021916908361ffff160217905550620000c284620001c060201b60201c565b620000d3336200021c60201b60201c565b82600b60006101000a81548173ffffffffffffffffffffffffffffffffffffffff021916908373ffffffffffffffffffffffffffffffffffffffff16021790555081600c60006101000a81548173ffffffffffffffffffffffffffffffffffffffff021916908373ffffffffffffffffffffffffffffffffffffffff16021790555080600d60006101000a81548173ffffffffffffffffffffffffffffffffffffffff021916908373ffffffffffffffffffffffffffffffffffffffff16021790555084600060186101000a81548161ffff021916908361ffff1602179055505050505050505062000606565b620001d06200032460201b60201c565b62000212576040517f08c379a0000000000000000000000000000000000000000000000000000000008152600401620002099062000539565b60405180910390fd5b8060018190555050565b6200022c6200032460201b60201c565b6200026e576040517f08c379a0000000000000000000000000000000000000000000000000000000008152600401620002659062000539565b60405180910390fd5b600073ffffffffffffffffffffffffffffffffffffffff168173ffffffffffffffffffffffffffffffffffffffff161415620002e1576040517f08c379a0000000000000000000000000000000000000000000000000000000008152600401620002d89062000517565b60405180910390fd5b806000806101000a81548173ffffffffffffffffffffffffffffffffffffffff021916908373ffffffffffffffffffffffffffffffffffffffff16021790555050565b60008060009054906101000a900473ffffffffffffffffffffffffffffffffffffffff1673ffffffffffffffffffffffffffffffffffffffff163373ffffffffffffffffffffffffffffffffffffffff1614905090565b6000815190506200038c81620005b8565b92915050565b600081519050620003a381620005d2565b92915050565b600081519050620003ba81620005ec565b92915050565b600080600080600080600060e0888a031215620003dc57600080fd5b6000620003ec8a828b0162000392565b9750506020620003ff8a828b0162000392565b9650506040620004128a828b0162000392565b9550506060620004258a828b01620003a9565b9450506080620004388a828b016200037b565b93505060a06200044b8a828b016200037b565b92505060c06200045e8a828b016200037b565b91505092959891949750929550565b60006200047c6026836200055b565b91507f4f776e61626c653a206e6577206f776e657220697320746865207a65726f206160008301527f64647265737300000000000000000000000000000000000000000000000000006020830152604082019050919050565b6000620004e46020836200055b565b91507f4f776e61626c653a2063616c6c6572206973206e6f7420746865206f776e65726000830152602082019050919050565b6000602082019050818103600083015262000532816200046d565b9050919050565b600060208201905081810360008301526200055481620004d5565b9050919050565b600082825260208201905092915050565b600062000579826200058e565b9050919050565b600061ffff82169050919050565b600073ffffffffffffffffffffffffffffffffffffffff82169050919050565b6000819050919050565b620005c3816200056c565b8114620005cf57600080fd5b50565b620005dd8162000580565b8114620005e957600080fd5b50565b620005f781620005ae565b81146200060357600080fd5b50565b61990a80620006166000396000f3fe6080604052600436106102465760003560e01c80637f49485211610139578063d3c9080a116100b6578063f26f84941161007a578063f26f849414610838578063f2fde38b14610863578063f4f3b2001461088c578063f5a0c9b8146108b5578063f7f17488146108de578063ff8edbdb1461090957610246565b8063d3c9080a14610740578063d4739cca1461076b578063e467682d146107a8578063efb7027b146107d1578063f09856f3146107fa57610246565b8063a4d0efec116100fd578063a4d0efec1461067c578063c0f4ed31146106a5578063c1a8bdbc146106c1578063c52ea52e146106ea578063d2abc5171461071557610246565b80637f494852146105a75780638bae5f4f146105d25780638c6ab013146105fd5780638da5cb5b146106265780638f32d59b1461065157610246565b80633b58524d116101c7578063640cf8731161018b578063640cf873146104cf57806365e4e1c0146104f85780636d036535146105235780636eafbe101461054e5780637ad157b91461058b57610246565b80633b58524d146103f55780633ccfd60b1461041e5780633e54d3a21461043557806344f91c1e1461045e57806345ce7db9146104a457610246565b80631a07b0811161020e5780631a07b081146103215780631f90607a1461035e5780633169b515146103875780633788c0ae146103a3578063398ef17f146103cc57610246565b806305ac943e1461024b5780630af88b2414610274578063136a6a241461029f578063150b7a02146102bb578063179443f3146102f8575b600080fd5b34801561025757600080fd5b50610272600480360361026d9190810190617d8d565b610932565b005b34801561028057600080fd5b506102896109e8565b6040516102969190618e5a565b60405180910390f35b6102b960048036036102b49190810190617f72565b610a0e565b005b3480156102c757600080fd5b506102e260048036036102dd9190810190617ebb565b610db6565b6040516102ef9190619166565b60405180910390f35b34801561030457600080fd5b5061031f600480360361031a91908101906181b7565b610dca565b005b34801561032d57600080fd5b5061034860048036036103439190810190617f36565b611352565b604051610355919061914b565b60405180910390f35b34801561036a57600080fd5b5061038560048036036103809190810190617f36565b6113ba565b005b6103a1600480360361039c919081019061826a565b6114c2565b005b3480156103af57600080fd5b506103ca60048036036103c591908101906181f3565b611a1e565b005b3480156103d857600080fd5b506103f360048036036103ee91908101906180c7565b612177565b005b34801561040157600080fd5b5061041c60048036036104179190810190617e08565b61246a565b005b34801561042a57600080fd5b50610433612537565b005b34801561044157600080fd5b5061045c60048036036104579190810190618006565b61264b565b005b34801561046a57600080fd5b5061048560048036036104809190810190617f36565b6126ad565b60405161049b9a99989796959493929190618f7a565b60405180910390f35b3480156104b057600080fd5b506104b961277b565b6040516104c69190618e5a565b60405180910390f35b3480156104db57600080fd5b506104f660048036036104f191908101906183ce565b6127a1565b005b34801561050457600080fd5b5061050d613377565b60405161051a9190619129565b60405180910390f35b34801561052f57600080fd5b50610538613439565b604051610545919061950a565b60405180910390f35b34801561055a57600080fd5b5061057560048036036105709190810190617d8d565b6134e1565b6040516105829190619570565b60405180910390f35b6105a560048036036105a091908101906182cd565b6134f9565b005b3480156105b357600080fd5b506105bc613c08565b6040516105c99190619570565b60405180910390f35b3480156105de57600080fd5b506105e7613c0e565b6040516105f49190618e5a565b60405180910390f35b34801561060957600080fd5b50610624600480360361061f91908101906182cd565b613c34565b005b34801561063257600080fd5b5061063b6142e0565b6040516106489190618e5a565b60405180910390f35b34801561065d57600080fd5b50610666614309565b604051610673919061914b565b60405180910390f35b34801561068857600080fd5b506106a3600480360361069e919081019061826a565b614360565b005b6106bf60048036036106ba919081019061831c565b61489b565b005b3480156106cd57600080fd5b506106e860048036036106e39190810190617e44565b61531a565b005b3480156106f657600080fd5b506106ff6155c1565b60405161070c9190619555565b60405180910390f35b34801561072157600080fd5b5061072a6155d5565b6040516107379190619555565b60405180910390f35b34801561074c57600080fd5b506107556155e9565b6040516107629190619129565b60405180910390f35b34801561077757600080fd5b50610792600480360361078d9190810190617d8d565b6156ab565b60405161079f9190619129565b60405180910390f35b3480156107b457600080fd5b506107cf60048036036107ca9190810190617d8d565b6157ac565b005b3480156107dd57600080fd5b506107f860048036036107f39190810190617fc1565b615894565b005b34801561080657600080fd5b50610821600480360361081c9190810190617f72565b615915565b60405161082f9291906190c9565b60405180910390f35b34801561084457600080fd5b5061084d615973565b60405161085a9190619555565b60405180910390f35b34801561086f57600080fd5b5061088a60048036036108859190810190617d8d565b615987565b005b34801561089857600080fd5b506108b360048036036108ae9190810190617d8d565b615a81565b005b3480156108c157600080fd5b506108dc60048036036108d79190810190618165565b615c36565b005b3480156108ea57600080fd5b506108f3615c87565b6040516109009190619129565b60405180910390f35b34801561091557600080fd5b50610930600480360361092b919081019061836b565b615d49565b005b61093a614309565b610979576040517f08c379a0000000000000000000000000000000000000000000000000000000008152600401610970906193e1565b60405180910390fd5b600a73__$c631093599e4d7d9f1b60c8b02c0603f40$__63581455e99091836040518363ffffffff1660e01b81526004016109b592919061952c565b60006040518083038186803b1580156109cd57600080fd5b505af41580156109e1573d6000803e3d6000fd5b5050505050565b600b60009054906101000a900473ffffffffffffffffffffffffffffffffffffffff1681565b600660008473ffffffffffffffffffffffffffffffffffffffff1673ffffffffffffffffffffffffffffffffffffffff168152602001908152602001600020600083815260200190815260200160002060008273ffffffffffffffffffffffffffffffffffffffff1673ffffffffffffffffffffffffffffffffffffffff16815260200190815260200160002060000160009054906101000a900473ffffffffffffffffffffffffffffffffffffffff1673ffffffffffffffffffffffffffffffffffffffff163373ffffffffffffffffffffffffffffffffffffffff161480610bab57503373ffffffffffffffffffffffffffffffffffffffff168373ffffffffffffffffffffffffffffffffffffffff16636352211e846040518263ffffffff1660e01b8152600401610b439190619570565b60206040518083038186803b158015610b5b57600080fd5b505afa158015610b6f573d6000803e3d6000fd5b505050506040513d601f19601f82011682018060405250610b939190810190617db6565b73ffffffffffffffffffffffffffffffffffffffff16145b610bea576040517f08c379a0000000000000000000000000000000000000000000000000000000008152600401610be1906191c1565b60405180910390fd5b6000600660008573ffffffffffffffffffffffffffffffffffffffff1673ffffffffffffffffffffffffffffffffffffffff168152602001908152602001600020600084815260200190815260200160002060008373ffffffffffffffffffffffffffffffffffffffff1673ffffffffffffffffffffffffffffffffffffffff16815260200190815260200160002060010154118015610d675750600073ffffffffffffffffffffffffffffffffffffffff16600660008573ffffffffffffffffffffffffffffffffffffffff1673ffffffffffffffffffffffffffffffffffffffff168152602001908152602001600020600084815260200190815260200160002060008373ffffffffffffffffffffffffffffffffffffffff1673ffffffffffffffffffffffffffffffffffffffff16815260200190815260200160002060000160009054906101000a900473ffffffffffffffffffffffffffffffffffffffff1673ffffffffffffffffffffffffffffffffffffffff1614155b610da6576040517f08c379a0000000000000000000000000000000000000000000000000000000008152600401610d9d90619461565b60405180910390fd5b610db1838383616417565b505050565b600063150b7a0260e01b9050949350505050565b81813373ffffffffffffffffffffffffffffffffffffffff168173ffffffffffffffffffffffffffffffffffffffff16636352211e846040518263ffffffff1660e01b8152600401610e1c9190619570565b60206040518083038186803b158015610e3457600080fd5b505afa158015610e48573d6000803e3d6000fd5b505050506040513d601f19601f82011682018060405250610e6c9190810190617db6565b73ffffffffffffffffffffffffffffffffffffffff1614610ec2576040517f08c379a0000000000000000000000000000000000000000000000000000000008152600401610eb990619181565b60405180910390fd5b610eca6178ee565b600760008573ffffffffffffffffffffffffffffffffffffffff1673ffffffffffffffffffffffffffffffffffffffff1681526020019081526020016000206000868152602001908152602001600020604051806101400160405290816000820160009054906101000a900473ffffffffffffffffffffffffffffffffffffffff1673ffffffffffffffffffffffffffffffffffffffff1673ffffffffffffffffffffffffffffffffffffffff168152602001600182015481526020016002820160009054906101000a900473ffffffffffffffffffffffffffffffffffffffff1673ffffffffffffffffffffffffffffffffffffffff1673ffffffffffffffffffffffffffffffffffffffff1681526020016003820154815260200160048201548152602001600582015481526020016006820160009054906101000a900460ff1615151515815260200160078201548152602001600882015481526020016009820160009054906101000a900473ffffffffffffffffffffffffffffffffffffffff1673ffffffffffffffffffffffffffffffffffffffff1673ffffffffffffffffffffffffffffffffffffffff16815250509050611089617985565b60405180604001604052808673ffffffffffffffffffffffffffffffffffffffff1681526020018781525090506000600260008773ffffffffffffffffffffffffffffffffffffffff1673ffffffffffffffffffffffffffffffffffffffff168152602001908152602001600020600088815260200190815260200160002060006101000a81548160ff0219169083151502179055503373ffffffffffffffffffffffffffffffffffffffff16868673ffffffffffffffffffffffffffffffffffffffff167fc2faf9d94bb8992d1eda56db8f2aefeb7cd52ed54e8bdfdd439d361132f59e204286610120015160405161118492919061958b565b60405180910390a46111a08160096169f490919063ffffffff16565b506111f281600360003373ffffffffffffffffffffffffffffffffffffffff1673ffffffffffffffffffffffffffffffffffffffff1681526020019081526020016000206169f490919063ffffffff16565b5060018260600151141561121a576112148160046169f490919063ffffffff16565b5061123e565b60028260600151141561123d5761123b8160056169f490919063ffffffff16565b505b5b600760008673ffffffffffffffffffffffffffffffffffffffff1673ffffffffffffffffffffffffffffffffffffffff1681526020019081526020016000206000878152602001908152602001600020600080820160006101000a81549073ffffffffffffffffffffffffffffffffffffffff021916905560018201600090556002820160006101000a81549073ffffffffffffffffffffffffffffffffffffffff02191690556003820160009055600482016000905560058201600090556006820160006101000a81549060ff0219169055600782016000905560088201600090556009820160006101000a81549073ffffffffffffffffffffffffffffffffffffffff02191690555050505050505050565b6000600260008473ffffffffffffffffffffffffffffffffffffffff1673ffffffffffffffffffffffffffffffffffffffff168152602001908152602001600020600083815260200190815260200160002060009054906101000a900460ff16905092915050565b80823373ffffffffffffffffffffffffffffffffffffffff168173ffffffffffffffffffffffffffffffffffffffff16636352211e846040518263ffffffff1660e01b815260040161140c9190619570565b60206040518083038186803b15801561142457600080fd5b505afa158015611438573d6000803e3d6000fd5b505050506040513d601f19601f8201168201806040525061145c9190810190617db6565b73ffffffffffffffffffffffffffffffffffffffff16146114b2576040517f08c379a00000000000000000000000000000000000000000000000000000000081526004016114a990619181565b60405180910390fd5b6114bc8484616b42565b50505050565b81600073ffffffffffffffffffffffffffffffffffffffff168173ffffffffffffffffffffffffffffffffffffffff161461154b5761150b81600a616baf90919063ffffffff16565b61154a576040517f08c379a0000000000000000000000000000000000000000000000000000000008152600401611541906194c1565b60405180910390fd5b5b816000811415611590576040517f08c379a000000000000000000000000000000000000000000000000000000000815260040161158790619441565b60405180910390fd5b600260008673ffffffffffffffffffffffffffffffffffffffff1673ffffffffffffffffffffffffffffffffffffffff168152602001908152602001600020600087815260200190815260200160002060009054906101000a900460ff161561162e576040517f08c379a000000000000000000000000000000000000000000000000000000000815260040161162590619321565b60405180910390fd5b600073ffffffffffffffffffffffffffffffffffffffff168473ffffffffffffffffffffffffffffffffffffffff1614156116ab57823410156116a6576040517f08c379a000000000000000000000000000000000000000000000000000000000815260040161169d906192e1565b60405180910390fd5b61180f565b6000849050838173ffffffffffffffffffffffffffffffffffffffff1663dd62ed3e33306040518363ffffffff1660e01b81526004016116ec929190618e75565b60206040518083038186803b15801561170457600080fd5b505afa158015611718573d6000803e3d6000fd5b505050506040513d601f19601f8201168201806040525061173c919081019061818e565b101561177d576040517f08c379a000000000000000000000000000000000000000000000000000000000815260040161177490619281565b60405180910390fd5b8073ffffffffffffffffffffffffffffffffffffffff166323b872dd3330876040518463ffffffff1660e01b81526004016117ba93929190618f1a565b602060405180830381600087803b1580156117d457600080fd5b505af11580156117e8573d6000803e3d6000fd5b505050506040513d601f19601f8201168201806040525061180c919081019061804b565b50505b6001600f6000828254019250508190555033600860008773ffffffffffffffffffffffffffffffffffffffff1673ffffffffffffffffffffffffffffffffffffffff168152602001908152602001600020600088815260200190815260200160002060008673ffffffffffffffffffffffffffffffffffffffff1673ffffffffffffffffffffffffffffffffffffffff1681526020019081526020016000206000600f54815260200190815260200160002060000160006101000a81548173ffffffffffffffffffffffffffffffffffffffff021916908373ffffffffffffffffffffffffffffffffffffffff16021790555082600860008773ffffffffffffffffffffffffffffffffffffffff1673ffffffffffffffffffffffffffffffffffffffff168152602001908152602001600020600088815260200190815260200160002060008673ffffffffffffffffffffffffffffffffffffffff1673ffffffffffffffffffffffffffffffffffffffff1681526020019081526020016000206000600f548152602001908152602001600020600101819055503373ffffffffffffffffffffffffffffffffffffffff16868673ffffffffffffffffffffffffffffffffffffffff167f1f469277fc2ad13e1024a60c93696464cde7568c9b841d892945a57bae027f728787600f54604051611a0e939291906190f2565b60405180910390a4505050505050565b84846002600760008373ffffffffffffffffffffffffffffffffffffffff1673ffffffffffffffffffffffffffffffffffffffff1681526020019081526020016000206000848152602001908152602001600020600301541415611ab7576040517f08c379a0000000000000000000000000000000000000000000000000000000008152600401611aae90619221565b60405180910390fd5b86863373ffffffffffffffffffffffffffffffffffffffff168173ffffffffffffffffffffffffffffffffffffffff16636352211e846040518263ffffffff1660e01b8152600401611b099190619570565b60206040518083038186803b158015611b2157600080fd5b505afa158015611b35573d6000803e3d6000fd5b505050506040513d601f19601f82011682018060405250611b599190810190617db6565b73ffffffffffffffffffffffffffffffffffffffff1614611baf576040517f08c379a0000000000000000000000000000000000000000000000000000000008152600401611ba690619181565b60405180910390fd5b86600073ffffffffffffffffffffffffffffffffffffffff168173ffffffffffffffffffffffffffffffffffffffff1614611c3857611bf881600a616baf90919063ffffffff16565b611c37576040517f08c379a0000000000000000000000000000000000000000000000000000000008152600401611c2e906194c1565b60405180910390fd5b5b600088905060008b9050600089905060008c9050611c546179b5565b600860008f73ffffffffffffffffffffffffffffffffffffffff1673ffffffffffffffffffffffffffffffffffffffff168152602001908152602001600020600085815260200190815260200160002060008673ffffffffffffffffffffffffffffffffffffffff1673ffffffffffffffffffffffffffffffffffffffff16815260200190815260200160002060008c81526020019081526020016000206040518060400160405290816000820160009054906101000a900473ffffffffffffffffffffffffffffffffffffffff1673ffffffffffffffffffffffffffffffffffffffff1673ffffffffffffffffffffffffffffffffffffffff1681526020016001820154815250509050600073ffffffffffffffffffffffffffffffffffffffff16816000015173ffffffffffffffffffffffffffffffffffffffff161415611dd3576040517f08c379a0000000000000000000000000000000000000000000000000000000008152600401611dca906194a1565b60405180910390fd5b60008e9050611dec858433898660200151896000616c56565b6000600260008573ffffffffffffffffffffffffffffffffffffffff1673ffffffffffffffffffffffffffffffffffffffff168152602001908152602001600020600087815260200190815260200160002060006101000a81548160ff0219169083151502179055508073ffffffffffffffffffffffffffffffffffffffff166342842e0e8273ffffffffffffffffffffffffffffffffffffffff16636352211e886040518263ffffffff1660e01b8152600401611eaa9190619570565b60206040518083038186803b158015611ec257600080fd5b505afa158015611ed6573d6000803e3d6000fd5b505050506040513d601f19601f82011682018060405250611efa9190810190617db6565b8460000151886040518463ffffffff1660e01b8152600401611f1e93929190619092565b600060405180830381600087803b158015611f3857600080fd5b505af1158015611f4c573d6000803e3d6000fd5b50505050816000015173ffffffffffffffffffffffffffffffffffffffff163373ffffffffffffffffffffffffffffffffffffffff168473ffffffffffffffffffffffffffffffffffffffff167fa2ab0454b724b203a92ee88de73837b4e8fb3a36b43d7c22c7d52ee55011340f888660200151428c6001604051611fd59594939291906195f9565b60405180910390a46000600860008573ffffffffffffffffffffffffffffffffffffffff1673ffffffffffffffffffffffffffffffffffffffff168152602001908152602001600020600087815260200190815260200160002060008873ffffffffffffffffffffffffffffffffffffffff1673ffffffffffffffffffffffffffffffffffffffff16815260200190815260200160002060008e815260200190815260200160002060000160006101000a81548173ffffffffffffffffffffffffffffffffffffffff021916908373ffffffffffffffffffffffffffffffffffffffff1602179055506000600860008573ffffffffffffffffffffffffffffffffffffffff1673ffffffffffffffffffffffffffffffffffffffff168152602001908152602001600020600087815260200190815260200160002060008873ffffffffffffffffffffffffffffffffffffffff1673ffffffffffffffffffffffffffffffffffffffff16815260200190815260200160002060008e81526020019081526020016000206001018190555050505050505050505050505050505050565b61217f614309565b6121be576040517f08c379a00000000000000000000000000000000000000000000000000000000081526004016121b5906193e1565b60405180910390fd5b600073ffffffffffffffffffffffffffffffffffffffff168273ffffffffffffffffffffffffffffffffffffffff16141580156122285750600073ffffffffffffffffffffffffffffffffffffffff168173ffffffffffffffffffffffffffffffffffffffff1614155b612267576040517f08c379a000000000000000000000000000000000000000000000000000000000815260040161225e906192a1565b60405180910390fd5b60008761ffff1610158015612281575060008661ffff1610155b8015612292575060008561ffff1610155b6122d1576040517f08c379a00000000000000000000000000000000000000000000000000000000081526004016122c8906193c1565b60405180910390fd5b6103e88761ffff16111580156122ed57506103e88661ffff1611155b80156122ff57506103e88561ffff1611155b61233e576040517f08c379a0000000000000000000000000000000000000000000000000000000008152600401612335906193c1565b60405180910390fd5b86600060146101000a81548161ffff021916908361ffff16021790555085600060166101000a81548161ffff021916908361ffff16021790555061238184615c36565b82600b60006101000a81548173ffffffffffffffffffffffffffffffffffffffff021916908373ffffffffffffffffffffffffffffffffffffffff16021790555081600c60006101000a81548173ffffffffffffffffffffffffffffffffffffffff021916908373ffffffffffffffffffffffffffffffffffffffff16021790555080600d60006101000a81548173ffffffffffffffffffffffffffffffffffffffff021916908373ffffffffffffffffffffffffffffffffffffffff16021790555084600060186101000a81548161ffff021916908361ffff16021790555050505050505050565b612472614309565b6124b1576040517f08c379a00000000000000000000000000000000000000000000000000000000081526004016124a8906193e1565b60405180910390fd5b81600b60006101000a81548173ffffffffffffffffffffffffffffffffffffffff021916908373ffffffffffffffffffffffffffffffffffffffff16021790555080600c60006101000a81548173ffffffffffffffffffffffffffffffffffffffff021916908373ffffffffffffffffffffffffffffffffffffffff1602179055505050565b61253f614309565b61257e576040517f08c379a0000000000000000000000000000000000000000000000000000000008152600401612575906193e1565b60405180910390fd5b3373ffffffffffffffffffffffffffffffffffffffff166108fc600e60008073ffffffffffffffffffffffffffffffffffffffff1673ffffffffffffffffffffffffffffffffffffffff168152602001908152602001600020549081150290604051600060405180830381858888f19350505050158015612603573d6000803e3d6000fd5b506000600e60008073ffffffffffffffffffffffffffffffffffffffff1673ffffffffffffffffffffffffffffffffffffffff16815260200190815260200160002081905550565b60008090505b828290508110156126a8576126646179e5565b83838381811061267057fe5b905060400201803603612686919081019061809e565b905061269a81600001518260200151610dca565b508080600101915050612651565b505050565b6007602052816000526040600020602052806000526040600020600091509150508060000160009054906101000a900473ffffffffffffffffffffffffffffffffffffffff16908060010154908060020160009054906101000a900473ffffffffffffffffffffffffffffffffffffffff16908060030154908060040154908060050154908060060160009054906101000a900460ff16908060070154908060080154908060090160009054906101000a900473ffffffffffffffffffffffffffffffffffffffff1690508a565b600c60009054906101000a900473ffffffffffffffffffffffffffffffffffffffff1681565b80600073ffffffffffffffffffffffffffffffffffffffff168173ffffffffffffffffffffffffffffffffffffffff161461282a576127ea81600a616baf90919063ffffffff16565b612829576040517f08c379a0000000000000000000000000000000000000000000000000000000008152600401612820906194c1565b60405180910390fd5b5b88833373ffffffffffffffffffffffffffffffffffffffff168173ffffffffffffffffffffffffffffffffffffffff16636352211e846040518263ffffffff1660e01b815260040161287c9190619570565b60206040518083038186803b15801561289457600080fd5b505afa1580156128a8573d6000803e3d6000fd5b505050506040513d601f19601f820116820180604052506128cc9190810190617db6565b73ffffffffffffffffffffffffffffffffffffffff1614612922576040517f08c379a000000000000000000000000000000000000000000000000000000000815260040161291990619181565b60405180910390fd5b600085905061292f6178ee565b600760008873ffffffffffffffffffffffffffffffffffffffff1673ffffffffffffffffffffffffffffffffffffffff16815260200190815260200160002060008e8152602001908152602001600020604051806101400160405290816000820160009054906101000a900473ffffffffffffffffffffffffffffffffffffffff1673ffffffffffffffffffffffffffffffffffffffff1673ffffffffffffffffffffffffffffffffffffffff168152602001600182015481526020016002820160009054906101000a900473ffffffffffffffffffffffffffffffffffffffff1673ffffffffffffffffffffffffffffffffffffffff1673ffffffffffffffffffffffffffffffffffffffff1681526020016003820154815260200160048201548152602001600582015481526020016006820160009054906101000a900460ff1615151515815260200160078201548152602001600882015481526020016009820160009054906101000a900473ffffffffffffffffffffffffffffffffffffffff1673ffffffffffffffffffffffffffffffffffffffff1673ffffffffffffffffffffffffffffffffffffffff1681525050905060011515600260008973ffffffffffffffffffffffffffffffffffffffff1673ffffffffffffffffffffffffffffffffffffffff16815260200190815260200160002060008f815260200190815260200160002060009054906101000a900460ff1615151415612bbc5760028160600151148015612b6c5750600015158160c001511515145b8015612b7c575080610100015142115b612bbb576040517f08c379a0000000000000000000000000000000000000000000000000000000008152600401612bb290619381565b60405180910390fd5b5b612bc4617985565b60405180604001604052808973ffffffffffffffffffffffffffffffffffffffff1681526020018f8152509050612bf96178ee565b6040518061014001604052803373ffffffffffffffffffffffffffffffffffffffff1681526020018f8152602001600073ffffffffffffffffffffffffffffffffffffffff1681526020018e81526020018f81526020018d81526020016000151581526020018c81526020018b81526020018973ffffffffffffffffffffffffffffffffffffffff1681525090508373ffffffffffffffffffffffffffffffffffffffff1663e985e9c533306040518363ffffffff1660e01b8152600401612cc2929190618e75565b60206040518083038186803b158015612cda57600080fd5b505afa158015612cee573d6000803e3d6000fd5b505050506040513d601f19601f82011682018060405250612d12919081019061804b565b80612dd457503073ffffffffffffffffffffffffffffffffffffffff168473ffffffffffffffffffffffffffffffffffffffff1663081812fc84602001516040518263ffffffff1660e01b8152600401612d6c9190619570565b60206040518083038186803b158015612d8457600080fd5b505afa158015612d98573d6000803e3d6000fd5b505050506040513d601f19601f82011682018060405250612dbc9190810190617db6565b73ffffffffffffffffffffffffffffffffffffffff16145b612e13576040517f08c379a0000000000000000000000000000000000000000000000000000000008152600401612e0a90619361565b60405180910390fd5b8a8a11612e55576040517f08c379a0000000000000000000000000000000000000000000000000000000008152600401612e4c90619481565b60405180910390fd5b8060076000846000015173ffffffffffffffffffffffffffffffffffffffff1673ffffffffffffffffffffffffffffffffffffffff16815260200190815260200160002060008460200151815260200190815260200160002060008201518160000160006101000a81548173ffffffffffffffffffffffffffffffffffffffff021916908373ffffffffffffffffffffffffffffffffffffffff1602179055506020820151816001015560408201518160020160006101000a81548173ffffffffffffffffffffffffffffffffffffffff021916908373ffffffffffffffffffffffffffffffffffffffff160217905550606082015181600301556080820151816004015560a0820151816005015560c08201518160060160006101000a81548160ff02191690831515021790555060e0820151816007015561010082015181600801556101208201518160090160006101000a81548173ffffffffffffffffffffffffffffffffffffffff021916908373ffffffffffffffffffffffffffffffffffffffff1602179055509050506000151560026000846000015173ffffffffffffffffffffffffffffffffffffffff1673ffffffffffffffffffffffffffffffffffffffff16815260200190815260200160002060008460200151815260200190815260200160002060009054906101000a900460ff16151514156132ce57600160026000846000015173ffffffffffffffffffffffffffffffffffffffff1673ffffffffffffffffffffffffffffffffffffffff16815260200190815260200160002060008460200151815260200190815260200160002060006101000a81548160ff021916908315150217905550600973__$584d6d26fbfbb695812352eb59b28d421f$__63fd7c9a159091846040518363ffffffff1660e01b81526004016131039291906194e1565b60006040518083038186803b15801561311b57600080fd5b505af415801561312f573d6000803e3d6000fd5b50505050600360003373ffffffffffffffffffffffffffffffffffffffff1673ffffffffffffffffffffffffffffffffffffffff16815260200190815260200160002073__$584d6d26fbfbb695812352eb59b28d421f$__63fd7c9a159091846040518363ffffffff1660e01b81526004016131ac9291906194e1565b60006040518083038186803b1580156131c457600080fd5b505af41580156131d8573d6000803e3d6000fd5b5050505060018d141561325657600473__$584d6d26fbfbb695812352eb59b28d421f$__63fd7c9a159091846040518363ffffffff1660e01b81526004016132219291906194e1565b60006040518083038186803b15801561323957600080fd5b505af415801561324d573d6000803e3d6000fd5b505050506132cd565b60028d14156132cc57600573__$584d6d26fbfbb695812352eb59b28d421f$__63fd7c9a159091846040518363ffffffff1660e01b815260040161329b9291906194e1565b60006040518083038186803b1580156132b357600080fd5b505af41580156132c7573d6000803e3d6000fd5b505050505b5b5b3373ffffffffffffffffffffffffffffffffffffffff168260200151836000015173ffffffffffffffffffffffffffffffffffffffff167fab6ed0d1a912b3de36cc5b4c42eb3b65a1baa1321ec3a4be61d51708ec37c8cb84606001516001866060015114613341578560800151613347565b8560a001515b4287610120015160405161335e94939291906195b4565b60405180910390a4505050505050505050505050505050565b60606009600001805480602002602001604051908101604052809291908181526020016000905b8282101561343057838290600052602060002090600202016040518060400160405290816000820160009054906101000a900473ffffffffffffffffffffffffffffffffffffffff1673ffffffffffffffffffffffffffffffffffffffff1673ffffffffffffffffffffffffffffffffffffffff1681526020016001820154815250508152602001906001019061339e565b50505050905090565b613441617a15565b600a604051806020016040529081600082018054806020026020016040519081016040528092919081815260200182805480156134d357602002820191906000526020600020905b8160009054906101000a900473ffffffffffffffffffffffffffffffffffffffff1673ffffffffffffffffffffffffffffffffffffffff1681526020019060010190808311613489575b505050505081525050905090565b600e6020528060005260406000206000915090505481565b828260011515600260008373ffffffffffffffffffffffffffffffffffffffff1673ffffffffffffffffffffffffffffffffffffffff168152602001908152602001600020600084815260200190815260200160002060009054906101000a900460ff1615151461359f576040517f08c379a000000000000000000000000000000000000000000000000000000000815260040161359690619341565b60405180910390fd5b84846002600760008373ffffffffffffffffffffffffffffffffffffffff1673ffffffffffffffffffffffffffffffffffffffff1681526020019081526020016000206000848152602001908152602001600020600301541415613638576040517f08c379a000000000000000000000000000000000000000000000000000000000815260040161362f90619221565b60405180910390fd5b60008690506136456178ee565b600760008973ffffffffffffffffffffffffffffffffffffffff1673ffffffffffffffffffffffffffffffffffffffff16815260200190815260200160002060008a8152602001908152602001600020604051806101400160405290816000820160009054906101000a900473ffffffffffffffffffffffffffffffffffffffff1673ffffffffffffffffffffffffffffffffffffffff1673ffffffffffffffffffffffffffffffffffffffff168152602001600182015481526020016002820160009054906101000a900473ffffffffffffffffffffffffffffffffffffffff1673ffffffffffffffffffffffffffffffffffffffff1673ffffffffffffffffffffffffffffffffffffffff1681526020016003820154815260200160048201548152602001600582015481526020016006820160009054906101000a900460ff1615151515815260200160078201548152602001600882015481526020016009820160009054906101000a900473ffffffffffffffffffffffffffffffffffffffff1673ffffffffffffffffffffffffffffffffffffffff1673ffffffffffffffffffffffffffffffffffffffff16815250509050613804617985565b60405180604001604052808a73ffffffffffffffffffffffffffffffffffffffff1681526020018b81525090506000826000015190506138538b8b838661012001518760a001518e6001616c56565b600060026000846000015173ffffffffffffffffffffffffffffffffffffffff1673ffffffffffffffffffffffffffffffffffffffff16815260200190815260200160002060008460200151815260200190815260200160002060006101000a81548160ff0219169083151502179055508373ffffffffffffffffffffffffffffffffffffffff166342842e0e8573ffffffffffffffffffffffffffffffffffffffff16636352211e85602001516040518263ffffffff1660e01b815260040161391d9190619570565b60206040518083038186803b15801561393557600080fd5b505afa158015613949573d6000803e3d6000fd5b505050506040513d601f19601f8201168201806040525061396d9190810190617db6565b3385602001516040518463ffffffff1660e01b81526004016139919392919061905b565b600060405180830381600087803b1580156139ab57600080fd5b505af11580156139bf573d6000803e3d6000fd5b505050503373ffffffffffffffffffffffffffffffffffffffff168173ffffffffffffffffffffffffffffffffffffffff16836000015173ffffffffffffffffffffffffffffffffffffffff167fa2ab0454b724b203a92ee88de73837b4e8fb3a36b43d7c22c7d52ee55011340f85602001518760a00151428961012001516000604051613a519594939291906195f9565b60405180910390a4613a6d8260096169f490919063ffffffff16565b50613abf82600360008473ffffffffffffffffffffffffffffffffffffffff1673ffffffffffffffffffffffffffffffffffffffff1681526020019081526020016000206169f490919063ffffffff16565b50613ad48260046169f490919063ffffffff16565b5060076000836000015173ffffffffffffffffffffffffffffffffffffffff1673ffffffffffffffffffffffffffffffffffffffff168152602001908152602001600020600083602001518152602001908152602001600020600080820160006101000a81549073ffffffffffffffffffffffffffffffffffffffff021916905560018201600090556002820160006101000a81549073ffffffffffffffffffffffffffffffffffffffff02191690556003820160009055600482016000905560058201600090556006820160006101000a81549060ff0219169055600782016000905560088201600090556009820160006101000a81549073ffffffffffffffffffffffffffffffffffffffff02191690555050613bfb82600001518360200151616b42565b5050505050505050505050565b60015481565b600d60009054906101000a900473ffffffffffffffffffffffffffffffffffffffff1681565b6000829050613c416178ee565b600760008573ffffffffffffffffffffffffffffffffffffffff1673ffffffffffffffffffffffffffffffffffffffff1681526020019081526020016000206000868152602001908152602001600020604051806101400160405290816000820160009054906101000a900473ffffffffffffffffffffffffffffffffffffffff1673ffffffffffffffffffffffffffffffffffffffff1673ffffffffffffffffffffffffffffffffffffffff168152602001600182015481526020016002820160009054906101000a900473ffffffffffffffffffffffffffffffffffffffff1673ffffffffffffffffffffffffffffffffffffffff1673ffffffffffffffffffffffffffffffffffffffff1681526020016003820154815260200160048201548152602001600582015481526020016006820160009054906101000a900460ff1615151515815260200160078201548152602001600882015481526020016009820160009054906101000a900473ffffffffffffffffffffffffffffffffffffffff1673ffffffffffffffffffffffffffffffffffffffff1673ffffffffffffffffffffffffffffffffffffffff16815250509050613e00617985565b60405180604001604052808673ffffffffffffffffffffffffffffffffffffffff16815260200187815250905081610100015142118015613e45575060028260600151145b613e84576040517f08c379a0000000000000000000000000000000000000000000000000000000008152600401613e7b906191e1565b60405180910390fd5b600115158260c00151151514156142d857600082600001519050613eb787878386610120015187602001518a6000616c56565b6000879050613ec46178ee565b8490508573ffffffffffffffffffffffffffffffffffffffff166342842e0e8773ffffffffffffffffffffffffffffffffffffffff16636352211e856040518263ffffffff1660e01b8152600401613f1c9190619570565b60206040518083038186803b158015613f3457600080fd5b505afa158015613f48573d6000803e3d6000fd5b505050506040513d601f19601f82011682018060405250613f6c9190810190617db6565b8360400151856040518463ffffffff1660e01b8152600401613f909392919061905b565b600060405180830381600087803b158015613faa57600080fd5b505af1158015613fbe573d6000803e3d6000fd5b50505050806040015173ffffffffffffffffffffffffffffffffffffffff168373ffffffffffffffffffffffffffffffffffffffff16856000015173ffffffffffffffffffffffffffffffffffffffff167fa2ab0454b724b203a92ee88de73837b4e8fb3a36b43d7c22c7d52ee55011340f876020015185602001514287610120015160006040516140549594939291906195f9565b60405180910390a46140668883616b42565b50508073ffffffffffffffffffffffffffffffffffffffff168260200151836000015173ffffffffffffffffffffffffffffffffffffffff167ffea08bb1b0c126c4d14cec1f22705e26528a9385b48fd32837d4432137c39e9e866040015133428961012001516040516140dd9493929190618ed5565b60405180910390a46000600260008873ffffffffffffffffffffffffffffffffffffffff1673ffffffffffffffffffffffffffffffffffffffff168152602001908152602001600020600089815260200190815260200160002060006101000a81548160ff0219169083151502179055506141628260096169f490919063ffffffff16565b506141b482600360008473ffffffffffffffffffffffffffffffffffffffff1673ffffffffffffffffffffffffffffffffffffffff1681526020019081526020016000206169f490919063ffffffff16565b506141c98260056169f490919063ffffffff16565b50600760008773ffffffffffffffffffffffffffffffffffffffff1673ffffffffffffffffffffffffffffffffffffffff1681526020019081526020016000206000888152602001908152602001600020600080820160006101000a81549073ffffffffffffffffffffffffffffffffffffffff021916905560018201600090556002820160006101000a81549073ffffffffffffffffffffffffffffffffffffffff02191690556003820160009055600482016000905560058201600090556006820160006101000a81549060ff0219169055600782016000905560088201600090556009820160006101000a81549073ffffffffffffffffffffffffffffffffffffffff02191690555050505b505050505050565b60008060009054906101000a900473ffffffffffffffffffffffffffffffffffffffff16905090565b60008060009054906101000a900473ffffffffffffffffffffffffffffffffffffffff1673ffffffffffffffffffffffffffffffffffffffff163373ffffffffffffffffffffffffffffffffffffffff1614905090565b81600073ffffffffffffffffffffffffffffffffffffffff168173ffffffffffffffffffffffffffffffffffffffff16146143e9576143a981600a616baf90919063ffffffff16565b6143e8576040517f08c379a00000000000000000000000000000000000000000000000000000000081526004016143df906194c1565b60405180910390fd5b5b3373ffffffffffffffffffffffffffffffffffffffff16600860008673ffffffffffffffffffffffffffffffffffffffff1673ffffffffffffffffffffffffffffffffffffffff168152602001908152602001600020600087815260200190815260200160002060008573ffffffffffffffffffffffffffffffffffffffff1673ffffffffffffffffffffffffffffffffffffffff1681526020019081526020016000206000600f54815260200190815260200160002060000160009054906101000a900473ffffffffffffffffffffffffffffffffffffffff1673ffffffffffffffffffffffffffffffffffffffff161461451a576040517f08c379a000000000000000000000000000000000000000000000000000000000815260040161451190619201565b60405180910390fd5b6000600860008673ffffffffffffffffffffffffffffffffffffffff1673ffffffffffffffffffffffffffffffffffffffff168152602001908152602001600020600087815260200190815260200160002060008573ffffffffffffffffffffffffffffffffffffffff1673ffffffffffffffffffffffffffffffffffffffff1681526020019081526020016000206000600f548152602001908152602001600020600101549050600073ffffffffffffffffffffffffffffffffffffffff168473ffffffffffffffffffffffffffffffffffffffff1614156146765760003373ffffffffffffffffffffffffffffffffffffffff166108fc839081150290604051600060405180830381858888f19350505050905080614670576040517f08c379a0000000000000000000000000000000000000000000000000000000008152600401614667906192c1565b60405180910390fd5b5061470b565b60008490508073ffffffffffffffffffffffffffffffffffffffff1663a9059cbb33846040518363ffffffff1660e01b81526004016146b6929190618f51565b602060405180830381600087803b1580156146d057600080fd5b505af11580156146e4573d6000803e3d6000fd5b505050506040513d601f19601f82011682018060405250614708919081019061804b565b50505b6000600860008773ffffffffffffffffffffffffffffffffffffffff1673ffffffffffffffffffffffffffffffffffffffff168152602001908152602001600020600088815260200190815260200160002060008673ffffffffffffffffffffffffffffffffffffffff1673ffffffffffffffffffffffffffffffffffffffff168152602001908152602001600020600085815260200190815260200160002060000160006101000a81548173ffffffffffffffffffffffffffffffffffffffff021916908373ffffffffffffffffffffffffffffffffffffffff1602179055506000600860008773ffffffffffffffffffffffffffffffffffffffff1673ffffffffffffffffffffffffffffffffffffffff168152602001908152602001600020600088815260200190815260200160002060008673ffffffffffffffffffffffffffffffffffffffff1673ffffffffffffffffffffffffffffffffffffffff168152602001908152602001600020600085815260200190815260200160002060010181905550505050505050565b828260011515600260008373ffffffffffffffffffffffffffffffffffffffff1673ffffffffffffffffffffffffffffffffffffffff168152602001908152602001600020600084815260200190815260200160002060009054906101000a900460ff16151514614941576040517f08c379a000000000000000000000000000000000000000000000000000000000815260040161493890619341565b60405180910390fd5b8484600760008273ffffffffffffffffffffffffffffffffffffffff1673ffffffffffffffffffffffffffffffffffffffff16815260200190815260200160002060008381526020019081526020016000206008015442106149d8576040517f08c379a00000000000000000000000000000000000000000000000000000000081526004016149cf90619401565b60405180910390fd5b600760008273ffffffffffffffffffffffffffffffffffffffff1673ffffffffffffffffffffffffffffffffffffffff1681526020019081526020016000206000838152602001908152602001600020600701544211614a6d576040517f08c379a0000000000000000000000000000000000000000000000000000000008152600401614a6490619421565b60405180910390fd5b6000869050614a7a6178ee565b600760008973ffffffffffffffffffffffffffffffffffffffff1673ffffffffffffffffffffffffffffffffffffffff16815260200190815260200160002060008a8152602001908152602001600020604051806101400160405290816000820160009054906101000a900473ffffffffffffffffffffffffffffffffffffffff1673ffffffffffffffffffffffffffffffffffffffff1673ffffffffffffffffffffffffffffffffffffffff168152602001600182015481526020016002820160009054906101000a900473ffffffffffffffffffffffffffffffffffffffff1673ffffffffffffffffffffffffffffffffffffffff1673ffffffffffffffffffffffffffffffffffffffff1681526020016003820154815260200160048201548152602001600582015481526020016006820160009054906101000a900460ff1615151515815260200160078201548152602001600882015481526020016009820160009054906101000a900473ffffffffffffffffffffffffffffffffffffffff1673ffffffffffffffffffffffffffffffffffffffff1673ffffffffffffffffffffffffffffffffffffffff16815250509050600073ffffffffffffffffffffffffffffffffffffffff1681610120015173ffffffffffffffffffffffffffffffffffffffff161415614d175780602001513411614cb1576040517f08c379a0000000000000000000000000000000000000000000000000000000008152600401614ca8906191a1565b60405180910390fd5b600115158160c0015115151415614d1257806040015173ffffffffffffffffffffffffffffffffffffffff166108fc82602001519081150290604051600060405180830381858888f19350505050158015614d10573d6000803e3d6000fd5b505b614f6e565b60008161012001519050878173ffffffffffffffffffffffffffffffffffffffff1663dd62ed3e33306040518363ffffffff1660e01b8152600401614d5d929190618e75565b60206040518083038186803b158015614d7557600080fd5b505afa158015614d89573d6000803e3d6000fd5b505050506040513d601f19601f82011682018060405250614dad919081019061818e565b1015614dee576040517f08c379a0000000000000000000000000000000000000000000000000000000008152600401614de590619241565b60405180910390fd5b81602001518811614e34576040517f08c379a0000000000000000000000000000000000000000000000000000000008152600401614e2b906191a1565b60405180910390fd5b8073ffffffffffffffffffffffffffffffffffffffff166323b872dd33308b6040518463ffffffff1660e01b8152600401614e7193929190618f1a565b602060405180830381600087803b158015614e8b57600080fd5b505af1158015614e9f573d6000803e3d6000fd5b505050506040513d601f19601f82011682018060405250614ec3919081019061804b565b50600115158260c0015115151415614f6c578073ffffffffffffffffffffffffffffffffffffffff1663a9059cbb836040015184602001516040518363ffffffff1660e01b8152600401614f18929190618f51565b602060405180830381600087803b158015614f3257600080fd5b505af1158015614f46573d6000803e3d6000fd5b505050506040513d601f19601f82011682018060405250614f6a919081019061804b565b505b505b600073ffffffffffffffffffffffffffffffffffffffff1681610120015173ffffffffffffffffffffffffffffffffffffffff1614614fad5786614faf565b345b8160200181815250508173ffffffffffffffffffffffffffffffffffffffff166342842e0e8373ffffffffffffffffffffffffffffffffffffffff16636352211e8c6040518263ffffffff1660e01b815260040161500d9190619570565b60206040518083038186803b15801561502557600080fd5b505afa158015615039573d6000803e3d6000fd5b505050506040513d601f19601f8201168201806040525061505d9190810190617db6565b308c6040518463ffffffff1660e01b815260040161507d93929190619092565b600060405180830381600087803b15801561509757600080fd5b505af11580156150ab573d6000803e3d6000fd5b5050505060018160c001901515908115158152505033816040019073ffffffffffffffffffffffffffffffffffffffff16908173ffffffffffffffffffffffffffffffffffffffff16815250506001548161010001818151019150818152505080600760008a73ffffffffffffffffffffffffffffffffffffffff1673ffffffffffffffffffffffffffffffffffffffff16815260200190815260200160002060008b815260200190815260200160002060008201518160000160006101000a81548173ffffffffffffffffffffffffffffffffffffffff021916908373ffffffffffffffffffffffffffffffffffffffff1602179055506020820151816001015560408201518160020160006101000a81548173ffffffffffffffffffffffffffffffffffffffff021916908373ffffffffffffffffffffffffffffffffffffffff160217905550606082015181600301556080820151816004015560a0820151816005015560c08201518160060160006101000a81548160ff02191690831515021790555060e0820151816007015561010082015181600801556101208201518160090160006101000a81548173ffffffffffffffffffffffffffffffffffffffff021916908373ffffffffffffffffffffffffffffffffffffffff160217905550905050806000015173ffffffffffffffffffffffffffffffffffffffff16898973ffffffffffffffffffffffffffffffffffffffff167fc47f35ccd7c07e8a8a68419f2150e2a62c012eed08ade47b9d264d7a091275e084604001518560200151428761012001516040516153079493929190619016565b60405180910390a4505050505050505050565b615322614309565b615361576040517f08c379a0000000000000000000000000000000000000000000000000000000008152600401615358906193e1565b60405180910390fd5b600073ffffffffffffffffffffffffffffffffffffffff168573ffffffffffffffffffffffffffffffffffffffff16141580156153cb5750600073ffffffffffffffffffffffffffffffffffffffff168473ffffffffffffffffffffffffffffffffffffffff1614155b61540a576040517f08c379a0000000000000000000000000000000000000000000000000000000008152600401615401906192a1565b60405180910390fd5b60008261ffff1610158015615424575060008161ffff1610155b8015615435575060008361ffff1610155b615474576040517f08c379a000000000000000000000000000000000000000000000000000000000815260040161546b906193c1565b60405180910390fd5b6103e88261ffff161115801561549057506103e88161ffff1611155b80156154a257506103e88361ffff1611155b6154e1576040517f08c379a00000000000000000000000000000000000000000000000000000000081526004016154d8906193c1565b60405180910390fd5b81600060146101000a81548161ffff021916908361ffff16021790555080600060166101000a81548161ffff021916908361ffff16021790555082600060186101000a81548161ffff021916908361ffff16021790555084600c60006101000a81548173ffffffffffffffffffffffffffffffffffffffff021916908373ffffffffffffffffffffffffffffffffffffffff16021790555083600d60006101000a81548173ffffffffffffffffffffffffffffffffffffffff021916908373ffffffffffffffffffffffffffffffffffffffff1602179055505050505050565b600060149054906101000a900461ffff1681565b600060189054906101000a900461ffff1681565b60606004600001805480602002602001604051908101604052809291908181526020016000905b828210156156a257838290600052602060002090600202016040518060400160405290816000820160009054906101000a900473ffffffffffffffffffffffffffffffffffffffff1673ffffffffffffffffffffffffffffffffffffffff1673ffffffffffffffffffffffffffffffffffffffff16815260200160018201548152505081526020019060010190615610565b50505050905090565b6060600360008373ffffffffffffffffffffffffffffffffffffffff1673ffffffffffffffffffffffffffffffffffffffff168152602001908152602001600020600001805480602002602001604051908101604052809291908181526020016000905b828210156157a157838290600052602060002090600202016040518060400160405290816000820160009054906101000a900473ffffffffffffffffffffffffffffffffffffffff1673ffffffffffffffffffffffffffffffffffffffff1673ffffffffffffffffffffffffffffffffffffffff1681526020016001820154815250508152602001906001019061570f565b505050509050919050565b80600073ffffffffffffffffffffffffffffffffffffffff168173ffffffffffffffffffffffffffffffffffffffff1614615835576157f581600a616baf90919063ffffffff16565b615834576040517f08c379a000000000000000000000000000000000000000000000000000000000815260040161582b906194c1565b60405180910390fd5b5b61583d614309565b61587c576040517f08c379a0000000000000000000000000000000000000000000000000000000008152600401615873906193e1565b60405180910390fd5b61589082600a61770690919063ffffffff16565b5050565b60008090505b82829050811015615910576158ad617a28565b8383838181106158b957fe5b905061010002018036036158d09190810190618074565b9050615902816000015182602001518360400151846060015185608001518660a001518760c001518860e001516127a1565b50808060010191505061589a565b505050565b600660205282600052604060002060205281600052604060002060205280600052604060002060009250925050508060000160009054906101000a900473ffffffffffffffffffffffffffffffffffffffff16908060010154905082565b600060169054906101000a900461ffff1681565b61598f614309565b6159ce576040517f08c379a00000000000000000000000000000000000000000000000000000000081526004016159c5906193e1565b60405180910390fd5b600073ffffffffffffffffffffffffffffffffffffffff168173ffffffffffffffffffffffffffffffffffffffff161415615a3e576040517f08c379a0000000000000000000000000000000000000000000000000000000008152600401615a3590619261565b60405180910390fd5b806000806101000a81548173ffffffffffffffffffffffffffffffffffffffff021916908373ffffffffffffffffffffffffffffffffffffffff16021790555050565b615a89614309565b615ac8576040517f08c379a0000000000000000000000000000000000000000000000000000000008152600401615abf906193e1565b60405180910390fd5b615adc81600a616baf90919063ffffffff16565b615b1b576040517f08c379a0000000000000000000000000000000000000000000000000000000008152600401615b1290619301565b60405180910390fd5b60008190508073ffffffffffffffffffffffffffffffffffffffff1663a9059cbb33600e60008673ffffffffffffffffffffffffffffffffffffffff1673ffffffffffffffffffffffffffffffffffffffff168152602001908152602001600020546040518363ffffffff1660e01b8152600401615b9a929190618f51565b602060405180830381600087803b158015615bb457600080fd5b505af1158015615bc8573d6000803e3d6000fd5b505050506040513d601f19601f82011682018060405250615bec919081019061804b565b506000600e60008473ffffffffffffffffffffffffffffffffffffffff1673ffffffffffffffffffffffffffffffffffffffff168152602001908152602001600020819055505050565b615c3e614309565b615c7d576040517f08c379a0000000000000000000000000000000000000000000000000000000008152600401615c74906193e1565b60405180910390fd5b8060018190555050565b60606005600001805480602002602001604051908101604052809291908181526020016000905b82821015615d4057838290600052602060002090600202016040518060400160405290816000820160009054906101000a900473ffffffffffffffffffffffffffffffffffffffff1673ffffffffffffffffffffffffffffffffffffffff1673ffffffffffffffffffffffffffffffffffffffff16815260200160018201548152505081526020019060010190615cae565b50505050905090565b838360011515600260008373ffffffffffffffffffffffffffffffffffffffff1673ffffffffffffffffffffffffffffffffffffffff168152602001908152602001600020600084815260200190815260200160002060009054906101000a900460ff16151514615def576040517f08c379a0000000000000000000000000000000000000000000000000000000008152600401615de690619341565b60405180910390fd5b82600073ffffffffffffffffffffffffffffffffffffffff168173ffffffffffffffffffffffffffffffffffffffff1614615e7857615e3881600a616baf90919063ffffffff16565b615e77576040517f08c379a0000000000000000000000000000000000000000000000000000000008152600401615e6e906194c1565b60405180910390fd5b5b86863373ffffffffffffffffffffffffffffffffffffffff168173ffffffffffffffffffffffffffffffffffffffff16636352211e846040518263ffffffff1660e01b8152600401615eca9190619570565b60206040518083038186803b158015615ee257600080fd5b505afa158015615ef6573d6000803e3d6000fd5b505050506040513d601f19601f82011682018060405250615f1a9190810190617db6565b73ffffffffffffffffffffffffffffffffffffffff1614615f70576040517f08c379a0000000000000000000000000000000000000000000000000000000008152600401615f6790619181565b60405180910390fd5b615f786178ee565b600760008a73ffffffffffffffffffffffffffffffffffffffff1673ffffffffffffffffffffffffffffffffffffffff16815260200190815260200160002060008b8152602001908152602001600020604051806101400160405290816000820160009054906101000a900473ffffffffffffffffffffffffffffffffffffffff1673ffffffffffffffffffffffffffffffffffffffff1673ffffffffffffffffffffffffffffffffffffffff168152602001600182015481526020016002820160009054906101000a900473ffffffffffffffffffffffffffffffffffffffff1673ffffffffffffffffffffffffffffffffffffffff1673ffffffffffffffffffffffffffffffffffffffff1681526020016003820154815260200160048201548152602001600582015481526020016006820160009054906101000a900460ff1615151515815260200160078201548152602001600882015481526020016009820160009054906101000a900473ffffffffffffffffffffffffffffffffffffffff1673ffffffffffffffffffffffffffffffffffffffff1673ffffffffffffffffffffffffffffffffffffffff16815250509050600281606001511415616184578061010001514210616183576040517f08c379a000000000000000000000000000000000000000000000000000000000815260040161617a90619401565b60405180910390fd5b5b806000015173ffffffffffffffffffffffffffffffffffffffff168a8a73ffffffffffffffffffffffffffffffffffffffff167f4a232d19b0abe3474b9311b6769fa4b4a725b50d0222b222357981b17a8e7e97846060015160018660600151146161f35785608001516161f9565b8560a001515b8d4288610120015160405161621295949392919061964c565b60405180910390a460018160600151141561623657878160a001818152505061624b565b87816080018181525050878160200181815250505b8681610120019073ffffffffffffffffffffffffffffffffffffffff16908173ffffffffffffffffffffffffffffffffffffffff168152505080600760008b73ffffffffffffffffffffffffffffffffffffffff1673ffffffffffffffffffffffffffffffffffffffff16815260200190815260200160002060008c815260200190815260200160002060008201518160000160006101000a81548173ffffffffffffffffffffffffffffffffffffffff021916908373ffffffffffffffffffffffffffffffffffffffff1602179055506020820151816001015560408201518160020160006101000a81548173ffffffffffffffffffffffffffffffffffffffff021916908373ffffffffffffffffffffffffffffffffffffffff160217905550606082015181600301556080820151816004015560a0820151816005015560c08201518160060160006101000a81548160ff02191690831515021790555060e0820151816007015561010082015181600801556101208201518160090160006101000a81548173ffffffffffffffffffffffffffffffffffffffff021916908373ffffffffffffffffffffffffffffffffffffffff16021790555090505050505050505050505050565b6000600660008573ffffffffffffffffffffffffffffffffffffffff1673ffffffffffffffffffffffffffffffffffffffff168152602001908152602001600020600084815260200190815260200160002060008373ffffffffffffffffffffffffffffffffffffffff1673ffffffffffffffffffffffffffffffffffffffff168152602001908152602001600020600101541180156165945750600073ffffffffffffffffffffffffffffffffffffffff16600660008573ffffffffffffffffffffffffffffffffffffffff1673ffffffffffffffffffffffffffffffffffffffff168152602001908152602001600020600084815260200190815260200160002060008373ffffffffffffffffffffffffffffffffffffffff1673ffffffffffffffffffffffffffffffffffffffff16815260200190815260200160002060000160009054906101000a900473ffffffffffffffffffffffffffffffffffffffff1673ffffffffffffffffffffffffffffffffffffffff1614155b156169ef57600073ffffffffffffffffffffffffffffffffffffffff168173ffffffffffffffffffffffffffffffffffffffff16141561675a57600660008473ffffffffffffffffffffffffffffffffffffffff1673ffffffffffffffffffffffffffffffffffffffff168152602001908152602001600020600083815260200190815260200160002060008273ffffffffffffffffffffffffffffffffffffffff1673ffffffffffffffffffffffffffffffffffffffff16815260200190815260200160002060000160009054906101000a900473ffffffffffffffffffffffffffffffffffffffff1673ffffffffffffffffffffffffffffffffffffffff166108fc600660008673ffffffffffffffffffffffffffffffffffffffff1673ffffffffffffffffffffffffffffffffffffffff168152602001908152602001600020600085815260200190815260200160002060008473ffffffffffffffffffffffffffffffffffffffff1673ffffffffffffffffffffffffffffffffffffffff168152602001908152602001600020600101549081150290604051600060405180830381858888f19350505050158015616754573d6000803e3d6000fd5b5061692f565b60008190508073ffffffffffffffffffffffffffffffffffffffff1663a9059cbb600660008773ffffffffffffffffffffffffffffffffffffffff1673ffffffffffffffffffffffffffffffffffffffff168152602001908152602001600020600086815260200190815260200160002060008573ffffffffffffffffffffffffffffffffffffffff1673ffffffffffffffffffffffffffffffffffffffff16815260200190815260200160002060000160009054906101000a900473ffffffffffffffffffffffffffffffffffffffff16600660008873ffffffffffffffffffffffffffffffffffffffff1673ffffffffffffffffffffffffffffffffffffffff168152602001908152602001600020600087815260200190815260200160002060008673ffffffffffffffffffffffffffffffffffffffff1673ffffffffffffffffffffffffffffffffffffffff168152602001908152602001600020600101546040518363ffffffff1660e01b81526004016168da9291906190c9565b602060405180830381600087803b1580156168f457600080fd5b505af1158015616908573d6000803e3d6000fd5b505050506040513d601f19601f8201168201806040525061692c919081019061804b565b50505b600660008473ffffffffffffffffffffffffffffffffffffffff1673ffffffffffffffffffffffffffffffffffffffff168152602001908152602001600020600083815260200190815260200160002060008273ffffffffffffffffffffffffffffffffffffffff1673ffffffffffffffffffffffffffffffffffffffff168152602001908152602001600020600080820160006101000a81549073ffffffffffffffffffffffffffffffffffffffff0219169055600182016000905550505b505050565b6000806000616a0c84866177ff90919063ffffffff16565b91509150600115158115151415616b355784600001600186600001805490500381548110616a3657fe5b9060005260206000209060020201856000018381548110616a5357fe5b90600052602060002090600202016000820160009054906101000a900473ffffffffffffffffffffffffffffffffffffffff168160000160006101000a81548173ffffffffffffffffffffffffffffffffffffffff021916908373ffffffffffffffffffffffffffffffffffffffff1602179055506001820154816001015590505084600001805480616ae257fe5b6001900381819060005260206000209060020201600080820160006101000a81549073ffffffffffffffffffffffffffffffffffffffff0219169055600182016000905550509055600192505050616b3c565b6000925050505b92915050565b60008090505b600a60000180549050811015616baa57616b9d8383600a6000018481548110616b6d57fe5b9060005260206000200160009054906101000a900473ffffffffffffffffffffffffffffffffffffffff16616417565b8080600101915050616b48565b505050565b600080600090505b8360000180549050811015616c4a578273ffffffffffffffffffffffffffffffffffffffff16846000018281548110616bec57fe5b9060005260206000200160009054906101000a900473ffffffffffffffffffffffffffffffffffffffff1673ffffffffffffffffffffffffffffffffffffffff161415616c3d576001915050616c50565b8080600101915050616bb7565b50600090505b92915050565b6000869050600080600085616d8c578373ffffffffffffffffffffffffffffffffffffffff1663b5004f018c6040518263ffffffff1660e01b8152600401616c9e9190619570565b60206040518083038186803b158015616cb657600080fd5b505afa158015616cca573d6000803e3d6000fd5b505050506040513d601f19601f82011682018060405250616cee919081019061818e565b92508373ffffffffffffffffffffffffffffffffffffffff1663cd53d08e8c6040518263ffffffff1660e01b8152600401616d299190619570565b60206040518083038186803b158015616d4157600080fd5b505afa158015616d55573d6000803e3d6000fd5b505050506040513d601f19601f82011682018060405250616d799190810190617ddf565b915061271087840281616d8857fe5b0490505b600061271088600060149054906101000a900461ffff1661ffff160281616daf57fe5b049050600061271089600060189054906101000a900461ffff1661ffff160281616dd557fe5b04905060006127108a600060169054906101000a900461ffff1661ffff160281616dfb57fe5b0490506000818385878e030303039050600033905060008e90506000600b60009054906101000a900473ffffffffffffffffffffffffffffffffffffffff169050600073ffffffffffffffffffffffffffffffffffffffff168f73ffffffffffffffffffffffffffffffffffffffff161415616fb7578b15616ebb578d341015616eba576040517f08c379a0000000000000000000000000000000000000000000000000000000008152600401616eb1906193a1565b60405180910390fd5b5b8c616f08578873ffffffffffffffffffffffffffffffffffffffff166108fc899081150290604051600060405180830381858888f19350505050158015616f06573d6000803e3d6000fd5b505b8173ffffffffffffffffffffffffffffffffffffffff166108fc859081150290604051600060405180830381858888f19350505050158015616f4e573d6000803e3d6000fd5b508073ffffffffffffffffffffffffffffffffffffffff1663d0e30db08789016040518263ffffffff1660e01b81526004016000604051808303818588803b158015616f9957600080fd5b505af1158015616fad573d6000803e3d6000fd5b5050505050617373565b60008f90508c1561724e578e8173ffffffffffffffffffffffffffffffffffffffff1663dd62ed3e86306040518363ffffffff1660e01b8152600401616ffe929190618e75565b60206040518083038186803b15801561701657600080fd5b505afa15801561702a573d6000803e3d6000fd5b505050506040513d601f19601f8201168201806040525061704e919081019061818e565b101561708f576040517f08c379a000000000000000000000000000000000000000000000000000000000815260040161708690619281565b60405180910390fd5b8073ffffffffffffffffffffffffffffffffffffffff166323b872dd85308a8c8b01016040518463ffffffff1660e01b81526004016170d093929190618f1a565b602060405180830381600087803b1580156170ea57600080fd5b505af11580156170fe573d6000803e3d6000fd5b505050506040513d601f19601f82011682018060405250617122919081019061804b565b508d6171b9578073ffffffffffffffffffffffffffffffffffffffff166323b872dd858c8c6040518463ffffffff1660e01b815260040161716593929190618e9e565b602060405180830381600087803b15801561717f57600080fd5b505af1158015617193573d6000803e3d6000fd5b505050506040513d601f19601f820116820180604052506171b7919081019061804b565b505b8073ffffffffffffffffffffffffffffffffffffffff166323b872dd8585886040518463ffffffff1660e01b81526004016171f693929190618e9e565b602060405180830381600087803b15801561721057600080fd5b505af1158015617224573d6000803e3d6000fd5b505050506040513d601f19601f82011682018060405250617248919081019061804b565b50617371565b8d6172e2578073ffffffffffffffffffffffffffffffffffffffff1663a9059cbb8b8b6040518363ffffffff1660e01b815260040161728e929190618f51565b602060405180830381600087803b1580156172a857600080fd5b505af11580156172bc573d6000803e3d6000fd5b505050506040513d601f19601f820116820180604052506172e0919081019061804b565b505b8073ffffffffffffffffffffffffffffffffffffffff1663a9059cbb84876040518363ffffffff1660e01b815260040161731d929190618f51565b602060405180830381600087803b15801561733757600080fd5b505af115801561734b573d6000803e3d6000fd5b505050506040513d601f19601f8201168201806040525061736f919081019061804b565b505b505b600073ffffffffffffffffffffffffffffffffffffffff168f73ffffffffffffffffffffffffffffffffffffffff1614806173fb5750600b60009054906101000a900473ffffffffffffffffffffffffffffffffffffffff1673ffffffffffffffffffffffffffffffffffffffff168f73ffffffffffffffffffffffffffffffffffffffff16145b1561769b57600087111561754d578073ffffffffffffffffffffffffffffffffffffffff1663095ea7b3600c60009054906101000a900473ffffffffffffffffffffffffffffffffffffffff16896040518363ffffffff1660e01b81526004016174669291906190c9565b602060405180830381600087803b15801561748057600080fd5b505af1158015617494573d6000803e3d6000fd5b505050506040513d601f19601f820116820180604052506174b8919081019061804b565b506000600c60009054906101000a900473ffffffffffffffffffffffffffffffffffffffff1690508073ffffffffffffffffffffffffffffffffffffffff1663e7c928b1896040518263ffffffff1660e01b81526004016175199190619570565b600060405180830381600087803b15801561753357600080fd5b505af1158015617547573d6000803e3d6000fd5b50505050505b600086111561769a578073ffffffffffffffffffffffffffffffffffffffff1663095ea7b3600d60009054906101000a900473ffffffffffffffffffffffffffffffffffffffff16886040518363ffffffff1660e01b81526004016175b39291906190c9565b602060405180830381600087803b1580156175cd57600080fd5b505af11580156175e1573d6000803e3d6000fd5b505050506040513d601f19601f82011682018060405250617605919081019061804b565b506000600d60009054906101000a900473ffffffffffffffffffffffffffffffffffffffff1690508073ffffffffffffffffffffffffffffffffffffffff1663e7c928b1886040518263ffffffff1660e01b81526004016176669190619570565b600060405180830381600087803b15801561768057600080fd5b505af1158015617694573d6000803e3d6000fd5b50505050505b5b60008f90508688870101600e60008373ffffffffffffffffffffffffffffffffffffffff1673ffffffffffffffffffffffffffffffffffffffff1681526020019081526020016000206000828254019250508190555050505050505050505050505050505050505050565b6001826000018054905011156177e85760008090505b82600001805490508110156177e2578173ffffffffffffffffffffffffffffffffffffffff1683600001828154811061775157fe5b9060005260206000200160009054906101000a900473ffffffffffffffffffffffffffffffffffffffff1673ffffffffffffffffffffffffffffffffffffffff1614156177d5578260000181815481106177a757fe5b9060005260206000200160006101000a81549073ffffffffffffffffffffffffffffffffffffffff02191690555b808060010191505061771c565b506177fb565b600082600001816177f99190617a99565b505b5050565b6000806000806000905060008090505b86600001805490508110156178de57856000015173ffffffffffffffffffffffffffffffffffffffff1687600001828154811061784857fe5b906000526020600020906002020160000160009054906101000a900473ffffffffffffffffffffffffffffffffffffffff1673ffffffffffffffffffffffffffffffffffffffff161480156178c0575085602001518760000182815481106178ac57fe5b906000526020600020906002020160010154145b156178d157809250600191506178de565b808060010191505061780f565b5081819350935050509250929050565b604051806101400160405280600073ffffffffffffffffffffffffffffffffffffffff16815260200160008152602001600073ffffffffffffffffffffffffffffffffffffffff1681526020016000815260200160008152602001600081526020016000151581526020016000815260200160008152602001600073ffffffffffffffffffffffffffffffffffffffff1681525090565b6040518060400160405280600073ffffffffffffffffffffffffffffffffffffffff168152602001600081525090565b6040518060400160405280600073ffffffffffffffffffffffffffffffffffffffff168152602001600081525090565b604051806040016040528060008152602001600073ffffffffffffffffffffffffffffffffffffffff1681525090565b6040518060200160405280606081525090565b604051806101000160405280600081526020016000815260200160008152602001600081526020016000815260200160008152602001600073ffffffffffffffffffffffffffffffffffffffff168152602001600073ffffffffffffffffffffffffffffffffffffffff1681525090565b815481835581811115617ac057818360005260206000209182019101617abf9190617ac5565b5b505050565b617ae791905b80821115617ae3576000816000905550600101617acb565b5090565b90565b600081359050617af981619854565b92915050565b600081519050617b0e81619854565b92915050565b600081519050617b238161986b565b92915050565b60008083601f840112617b3b57600080fd5b8235905067ffffffffffffffff811115617b5457600080fd5b60208301915083610100820283011115617b6d57600080fd5b9250929050565b60008083601f840112617b8657600080fd5b8235905067ffffffffffffffff811115617b9f57600080fd5b602083019150836040820283011115617bb757600080fd5b9250929050565b600081359050617bcd81619882565b92915050565b600081519050617be281619882565b92915050565b600082601f830112617bf957600080fd5b8135617c0c617c07826196cc565b61969f565b91508082526020830160208301858383011115617c2857600080fd5b617c33838284619845565b50505092915050565b60006101008284031215617c4f57600080fd5b617c5a61010061969f565b90506000617c6a84828501617d63565b6000830152506020617c7e84828501617d63565b6020830152506040617c9284828501617d63565b6040830152506060617ca684828501617d63565b6060830152506080617cba84828501617d63565b60808301525060a0617cce84828501617d63565b60a08301525060c0617ce284828501617aea565b60c08301525060e0617cf684828501617aea565b60e08301525092915050565b600060408284031215617d1457600080fd5b617d1e604061969f565b90506000617d2e84828501617d63565b6000830152506020617d4284828501617aea565b60208301525092915050565b600081359050617d5d81619899565b92915050565b600081359050617d72816198b0565b92915050565b600081519050617d87816198b0565b92915050565b600060208284031215617d9f57600080fd5b6000617dad84828501617aea565b91505092915050565b600060208284031215617dc857600080fd5b6000617dd684828501617aff565b91505092915050565b600060208284031215617df157600080fd5b6000617dff84828501617b14565b91505092915050565b60008060408385031215617e1b57600080fd5b6000617e2985828601617aea565b9250506020617e3a85828601617aea565b9150509250929050565b600080600080600060a08688031215617e5c57600080fd5b6000617e6a88828901617aea565b9550506020617e7b88828901617aea565b9450506040617e8c88828901617d4e565b9350506060617e9d88828901617d4e565b9250506080617eae88828901617d4e565b9150509295509295909350565b60008060008060808587031215617ed157600080fd5b6000617edf87828801617aea565b9450506020617ef087828801617aea565b9350506040617f0187828801617d63565b925050606085013567ffffffffffffffff811115617f1e57600080fd5b617f2a87828801617be8565b91505092959194509250565b60008060408385031215617f4957600080fd5b6000617f5785828601617aea565b9250506020617f6885828601617d63565b9150509250929050565b600080600060608486031215617f8757600080fd5b6000617f9586828701617aea565b9350506020617fa686828701617d63565b9250506040617fb786828701617aea565b9150509250925092565b60008060208385031215617fd457600080fd5b600083013567ffffffffffffffff811115617fee57600080fd5b617ffa85828601617b29565b92509250509250929050565b6000806020838503121561801957600080fd5b600083013567ffffffffffffffff81111561803357600080fd5b61803f85828601617b74565b92509250509250929050565b60006020828403121561805d57600080fd5b600061806b84828501617bd3565b91505092915050565b6000610100828403121561808757600080fd5b600061809584828501617c3c565b91505092915050565b6000604082840312156180b057600080fd5b60006180be84828501617d02565b91505092915050565b600080600080600080600060e0888a0312156180e257600080fd5b60006180f08a828b01617d4e565b97505060206181018a828b01617d4e565b96505060406181128a828b01617d4e565b95505060606181238a828b01617d63565b94505060806181348a828b01617aea565b93505060a06181458a828b01617aea565b92505060c06181568a828b01617aea565b91505092959891949750929550565b60006020828403121561817757600080fd5b600061818584828501617d63565b91505092915050565b6000602082840312156181a057600080fd5b60006181ae84828501617d78565b91505092915050565b600080604083850312156181ca57600080fd5b60006181d885828601617d63565b92505060206181e985828601617aea565b9150509250929050565b600080600080600060a0868803121561820b57600080fd5b600061821988828901617d63565b955050602061822a88828901617aea565b945050604061823b88828901617aea565b935050606061824c88828901617bbe565b925050608061825d88828901617d63565b9150509295509295909350565b6000806000806080858703121561828057600080fd5b600061828e87828801617d63565b945050602061829f87828801617aea565b93505060406182b087828801617aea565b92505060606182c187828801617d63565b91505092959194509250565b6000806000606084860312156182e257600080fd5b60006182f086828701617d63565b935050602061830186828701617aea565b925050604061831286828701617bbe565b9150509250925092565b60008060006060848603121561833157600080fd5b600061833f86828701617d63565b935050602061835086828701617aea565b925050604061836186828701617d63565b9150509250925092565b6000806000806080858703121561838157600080fd5b600061838f87828801617d63565b94505060206183a087828801617aea565b93505060406183b187828801617d63565b92505060606183c287828801617aea565b91505092959194509250565b600080600080600080600080610100898b0312156183eb57600080fd5b60006183f98b828c01617d63565b985050602061840a8b828c01617d63565b975050604061841b8b828c01617d63565b965050606061842c8b828c01617d63565b955050608061843d8b828c01617d63565b94505060a061844e8b828c01617d63565b93505060c061845f8b828c01617aea565b92505060e06184708b828c01617aea565b9150509295985092959890939650565b600061848c83836184ce565b60208301905092915050565b60006184a48383618db7565b60408301905092915050565b6184b98161980f565b82525050565b6184c88161978d565b82525050565b6184d78161977b565b82525050565b6184e68161977b565b82525050565b6184f58161977b565b82525050565b6185048161977b565b82525050565b600061851582619718565b61851f8185619748565b935061852a836196f8565b8060005b8381101561855b5781516185428882618480565b975061854d8361972e565b92505060018101905061852e565b5085935050505092915050565b600061857382619723565b61857d8185619759565b935061858883619708565b8060005b838110156185b95781516185a08882618498565b97506185ab8361973b565b92505060018101905061858c565b5085935050505092915050565b6185cf8161979f565b82525050565b6185de816197ab565b82525050565b60006185f160338361976a565b91507f596f75206d757374206265206f776e657220616e6420546f6b656e2073686f7560008301527f6c64206e6f74206861766520616e7920626964000000000000000000000000006020830152604082019050919050565b6000618657601c8361976a565b91507f496e73756666696369656e742062696464696e6720616d6f756e742e000000006000830152602082019050919050565b600061869760318361976a565b91507f596f75206d757374206265206f666665726572206f72206f776e657220746f2060008301527f72656d6f766520746865206f666665722e0000000000000000000000000000006020830152604082019050919050565b60006186fd60118361976a565b91507f41756374696f6e204e6f74204f766572210000000000000000000000000000006000830152602082019050919050565b600061873d600a8361976a565b91507f6e6f7420626964646572000000000000000000000000000000000000000000006000830152602082019050919050565b600061877d60138361976a565b91507f466f7220666c61742073616c65206f6e6c7921000000000000000000000000006000830152602082019050919050565b60006187bd602f8361976a565b91507f416c6c6f77616e6365206973206c657373207468616e20616d6f756e7420736560008301527f6e7420666f722062696464696e672e00000000000000000000000000000000006020830152604082019050919050565b600061882360268361976a565b91507f4f776e61626c653a206e6577206f776e657220697320746865207a65726f206160008301527f64647265737300000000000000000000000000000000000000000000000000006020830152604082019050919050565b6000618889601d8361976a565b91507f496e73756666696369656e74207370656e7420616c6c6f77616e6365200000006000830152602082019050919050565b60006188c9600f8361976a565b91507f41646472657373206973205a65726f00000000000000000000000000000000006000830152602082019050919050565b600061890960148361976a565b91507f4661696c656420746f2073656e642045746865720000000000000000000000006000830152602082019050919050565b6000618949601b8361976a565b91507f56616c75652073656e74206c657373207468616e20616d6f756e7400000000006000830152602082019050919050565b600061898960238361976a565b91507f54686973206572633230746f6b656e207061796d656e74206e6f7420616c6c6f60008301527f77656400000000000000000000000000000000000000000000000000000000006020830152604082019050919050565b60006189ef600f8361976a565b91507f616c726561647920696e2073616c6500000000000000000000000000000000006000830152602082019050919050565b6000618a2f60128361976a565b91507f546f6b656e204e6f7420466f722053616c6500000000000000000000000000006000830152602082019050919050565b6000618a6f60138361976a565b91507f42726f6b6572204e6f7420617070726f766564000000000000000000000000006000830152602082019050919050565b6000618aaf601c8361976a565b91507f54686973204e465420697320616c7265616479206f6e2073616c652e000000006000830152602082019050919050565b6000618aef60148361976a565b91507f496e73756666696369656e74205061796d656e740000000000000000000000006000830152602082019050919050565b6000618b2f601b8361976a565b91507f73686f756c642062652067726561746572207468616e207a65726f00000000006000830152602082019050919050565b6000618b6f60208361976a565b91507f4f776e61626c653a2063616c6c6572206973206e6f7420746865206f776e65726000830152602082019050919050565b6000618baf60128361976a565b91507f41756374696f6e2054696d65204f7665722100000000000000000000000000006000830152602082019050919050565b6000618bef60188361976a565b91507f41756374696f6e204e6f742053746172746564207965742100000000000000006000830152602082019050919050565b6000618c2f60088361976a565b91507f6e6f74207a65726f0000000000000000000000000000000000000000000000006000830152602082019050919050565b6000618c6f60168361976a565b91507f204f6666657220646f65736e27742065786973742e20000000000000000000006000830152602082019050919050565b6000618caf60328361976a565b91507f436c6f73696e672074696d652073686f756c642062652067726561746572207460008301527f68616e207374617274696e672074696d652100000000000000000000000000006020830152604082019050919050565b6000618d15600f8361976a565b91507f616d6f756e7420776974686472617700000000000000000000000000000000006000830152602082019050919050565b6000618d5560118361976a565b91507f4552433230206e6f7420616c6c6f7765640000000000000000000000000000006000830152602082019050919050565b604082016000820151618d9e60008501826184fb565b506020820151618db16020850182618e4b565b50505050565b604082016000820151618dcd60008501826184ce565b506020820151618de06020850182618e2d565b50505050565b8082525050565b60006020830160008301518482036000860152618e0a828261850a565b9150508091505092915050565b8082525050565b618e27816197d7565b82525050565b618e3681619805565b82525050565b618e4581619805565b82525050565b618e5481619805565b82525050565b6000602082019050618e6f60008301846184dd565b92915050565b6000604082019050618e8a60008301856184b0565b618e9760208301846184dd565b9392505050565b6000606082019050618eb360008301866184b0565b618ec060208301856184b0565b618ecd6040830184618e3c565b949350505050565b6000608082019050618eea60008301876184b0565b618ef760208301866184b0565b618f046040830185618e3c565b618f1160608301846184dd565b95945050505050565b6000606082019050618f2f60008301866184b0565b618f3c60208301856184dd565b618f496040830184618e3c565b949350505050565b6000604082019050618f6660008301856184b0565b618f736020830184618e3c565b9392505050565b600061014082019050618f90600083018d6184bf565b618f9d602083018c618e3c565b618faa604083018b6184bf565b618fb7606083018a618e3c565b618fc46080830189618e3c565b618fd160a0830188618e3c565b618fde60c08301876185c6565b618feb60e0830186618e3c565b618ff9610100830185618e3c565b6190076101208301846184dd565b9b9a5050505050505050505050565b600060808201905061902b60008301876184b0565b6190386020830186618e3c565b6190456040830185618e3c565b61905260608301846184dd565b95945050505050565b600060608201905061907060008301866184dd565b61907d60208301856184b0565b61908a6040830184618e3c565b949350505050565b60006060820190506190a760008301866184dd565b6190b460208301856184dd565b6190c16040830184618e3c565b949350505050565b60006040820190506190de60008301856184dd565b6190eb6020830184618e3c565b9392505050565b600060608201905061910760008301866184dd565b6191146020830185618e3c565b6191216040830184618e3c565b949350505050565b600060208201905081810360008301526191438184618568565b905092915050565b600060208201905061916060008301846185c6565b92915050565b600060208201905061917b60008301846185d5565b92915050565b6000602082019050818103600083015261919a816185e4565b9050919050565b600060208201905081810360008301526191ba8161864a565b9050919050565b600060208201905081810360008301526191da8161868a565b9050919050565b600060208201905081810360008301526191fa816186f0565b9050919050565b6000602082019050818103600083015261921a81618730565b9050919050565b6000602082019050818103600083015261923a81618770565b9050919050565b6000602082019050818103600083015261925a816187b0565b9050919050565b6000602082019050818103600083015261927a81618816565b9050919050565b6000602082019050818103600083015261929a8161887c565b9050919050565b600060208201905081810360008301526192ba816188bc565b9050919050565b600060208201905081810360008301526192da816188fc565b9050919050565b600060208201905081810360008301526192fa8161893c565b9050919050565b6000602082019050818103600083015261931a8161897c565b9050919050565b6000602082019050818103600083015261933a816189e2565b9050919050565b6000602082019050818103600083015261935a81618a22565b9050919050565b6000602082019050818103600083015261937a81618a62565b9050919050565b6000602082019050818103600083015261939a81618aa2565b9050919050565b600060208201905081810360008301526193ba81618ae2565b9050919050565b600060208201905081810360008301526193da81618b22565b9050919050565b600060208201905081810360008301526193fa81618b62565b9050919050565b6000602082019050818103600083015261941a81618ba2565b9050919050565b6000602082019050818103600083015261943a81618be2565b9050919050565b6000602082019050818103600083015261945a81618c22565b9050919050565b6000602082019050818103600083015261947a81618c62565b9050919050565b6000602082019050818103600083015261949a81618ca2565b9050919050565b600060208201905081810360008301526194ba81618d08565b9050919050565b600060208201905081810360008301526194da81618d48565b9050919050565b60006060820190506194f66000830185618de6565b6195036020830184618d88565b9392505050565b600060208201905081810360008301526195248184618ded565b905092915050565b60006040820190506195416000830185618e17565b61954e60208301846184ec565b9392505050565b600060208201905061956a6000830184618e1e565b92915050565b60006020820190506195856000830184618e3c565b92915050565b60006040820190506195a06000830185618e3c565b6195ad60208301846184dd565b9392505050565b60006080820190506195c96000830187618e3c565b6195d66020830186618e3c565b6195e36040830185618e3c565b6195f060608301846184dd565b95945050505050565b600060a08201905061960e6000830188618e3c565b61961b6020830187618e3c565b6196286040830186618e3c565b61963560608301856184dd565b61964260808301846185c6565b9695505050505050565b600060a0820190506196616000830188618e3c565b61966e6020830187618e3c565b61967b6040830186618e3c565b6196886060830185618e3c565b61969560808301846184dd565b9695505050505050565b6000604051905081810181811067ffffffffffffffff821117156196c257600080fd5b8060405250919050565b600067ffffffffffffffff8211156196e357600080fd5b601f19601f8301169050602081019050919050565b6000819050602082019050919050565b6000819050602082019050919050565b600081519050919050565b600081519050919050565b6000602082019050919050565b6000602082019050919050565b600082825260208201905092915050565b600082825260208201905092915050565b600082825260208201905092915050565b6000619786826197e5565b9050919050565b6000619798826197e5565b9050919050565b60008115159050919050565b60007fffffffff0000000000000000000000000000000000000000000000000000000082169050919050565b600061ffff82169050919050565b600073ffffffffffffffffffffffffffffffffffffffff82169050919050565b6000819050919050565b600061981a82619821565b9050919050565b600061982c82619833565b9050919050565b600061983e826197e5565b9050919050565b82818337600083830152505050565b61985d8161977b565b811461986857600080fd5b50565b6198748161978d565b811461987f57600080fd5b50565b61988b8161979f565b811461989657600080fd5b50565b6198a2816197d7565b81146198ad57600080fd5b50565b6198b981619805565b81146198c457600080fd5b5056fea365627a7a7231582092dcfd963d9c62788d4867d42d8359e905ecc9a4fde782f3a9d942042ca883106c6578706572696d656e74616cf564736f6c63430005110040",
			"opcodes": "PUSH1 0x80 PUSH1 0x40 MSTORE CALLVALUE DUP1 ISZERO PUSH3 0x11 JUMPI PUSH1 0x0 DUP1 REVERT JUMPDEST POP PUSH1 0x40 MLOAD PUSH3 0x9F20 CODESIZE SUB DUP1 PUSH3 0x9F20 DUP4 CODECOPY DUP2 DUP2 ADD PUSH1 0x40 MSTORE PUSH3 0x37 SWAP2 SWAP1 DUP2 ADD SWAP1 PUSH3 0x3C0 JUMP JUMPDEST CALLER PUSH1 0x0 DUP1 PUSH2 0x100 EXP DUP2 SLOAD DUP2 PUSH20 0xFFFFFFFFFFFFFFFFFFFFFFFFFFFFFFFFFFFFFFFF MUL NOT AND SWAP1 DUP4 PUSH20 0xFFFFFFFFFFFFFFFFFFFFFFFFFFFFFFFFFFFFFFFF AND MUL OR SWAP1 SSTORE POP DUP7 PUSH1 0x0 PUSH1 0x14 PUSH2 0x100 EXP DUP2 SLOAD DUP2 PUSH2 0xFFFF MUL NOT AND SWAP1 DUP4 PUSH2 0xFFFF AND MUL OR SWAP1 SSTORE POP DUP6 PUSH1 0x0 PUSH1 0x16 PUSH2 0x100 EXP DUP2 SLOAD DUP2 PUSH2 0xFFFF MUL NOT AND SWAP1 DUP4 PUSH2 0xFFFF AND MUL OR SWAP1 SSTORE POP PUSH3 0xC2 DUP5 PUSH3 0x1C0 PUSH1 0x20 SHL PUSH1 0x20 SHR JUMP JUMPDEST PUSH3 0xD3 CALLER PUSH3 0x21C PUSH1 0x20 SHL PUSH1 0x20 SHR JUMP JUMPDEST DUP3 PUSH1 0xB PUSH1 0x0 PUSH2 0x100 EXP DUP2 SLOAD DUP2 PUSH20 0xFFFFFFFFFFFFFFFFFFFFFFFFFFFFFFFFFFFFFFFF MUL NOT AND SWAP1 DUP4 PUSH20 0xFFFFFFFFFFFFFFFFFFFFFFFFFFFFFFFFFFFFFFFF AND MUL OR SWAP1 SSTORE POP DUP2 PUSH1 0xC PUSH1 0x0 PUSH2 0x100 EXP DUP2 SLOAD DUP2 PUSH20 0xFFFFFFFFFFFFFFFFFFFFFFFFFFFFFFFFFFFFFFFF MUL NOT AND SWAP1 DUP4 PUSH20 0xFFFFFFFFFFFFFFFFFFFFFFFFFFFFFFFFFFFFFFFF AND MUL OR SWAP1 SSTORE POP DUP1 PUSH1 0xD PUSH1 0x0 PUSH2 0x100 EXP DUP2 SLOAD DUP2 PUSH20 0xFFFFFFFFFFFFFFFFFFFFFFFFFFFFFFFFFFFFFFFF MUL NOT AND SWAP1 DUP4 PUSH20 0xFFFFFFFFFFFFFFFFFFFFFFFFFFFFFFFFFFFFFFFF AND MUL OR SWAP1 SSTORE POP DUP5 PUSH1 0x0 PUSH1 0x18 PUSH2 0x100 EXP DUP2 SLOAD DUP2 PUSH2 0xFFFF MUL NOT AND SWAP1 DUP4 PUSH2 0xFFFF AND MUL OR SWAP1 SSTORE POP POP POP POP POP POP POP POP PUSH3 0x606 JUMP JUMPDEST PUSH3 0x1D0 PUSH3 0x324 PUSH1 0x20 SHL PUSH1 0x20 SHR JUMP JUMPDEST PUSH3 0x212 JUMPI PUSH1 0x40 MLOAD PUSH32 0x8C379A000000000000000000000000000000000000000000000000000000000 DUP2 MSTORE PUSH1 0x4 ADD PUSH3 0x209 SWAP1 PUSH3 0x539 JUMP JUMPDEST PUSH1 0x40 MLOAD DUP1 SWAP2 SUB SWAP1 REVERT JUMPDEST DUP1 PUSH1 0x1 DUP2 SWAP1 SSTORE POP POP JUMP JUMPDEST PUSH3 0x22C PUSH3 0x324 PUSH1 0x20 SHL PUSH1 0x20 SHR JUMP JUMPDEST PUSH3 0x26E JUMPI PUSH1 0x40 MLOAD PUSH32 0x8C379A000000000000000000000000000000000000000000000000000000000 DUP2 MSTORE PUSH1 0x4 ADD PUSH3 0x265 SWAP1 PUSH3 0x539 JUMP JUMPDEST PUSH1 0x40 MLOAD DUP1 SWAP2 SUB SWAP1 REVERT JUMPDEST PUSH1 0x0 PUSH20 0xFFFFFFFFFFFFFFFFFFFFFFFFFFFFFFFFFFFFFFFF AND DUP2 PUSH20 0xFFFFFFFFFFFFFFFFFFFFFFFFFFFFFFFFFFFFFFFF AND EQ ISZERO PUSH3 0x2E1 JUMPI PUSH1 0x40 MLOAD PUSH32 0x8C379A000000000000000000000000000000000000000000000000000000000 DUP2 MSTORE PUSH1 0x4 ADD PUSH3 0x2D8 SWAP1 PUSH3 0x517 JUMP JUMPDEST PUSH1 0x40 MLOAD DUP1 SWAP2 SUB SWAP1 REVERT JUMPDEST DUP1 PUSH1 0x0 DUP1 PUSH2 0x100 EXP DUP2 SLOAD DUP2 PUSH20 0xFFFFFFFFFFFFFFFFFFFFFFFFFFFFFFFFFFFFFFFF MUL NOT AND SWAP1 DUP4 PUSH20 0xFFFFFFFFFFFFFFFFFFFFFFFFFFFFFFFFFFFFFFFF AND MUL OR SWAP1 SSTORE POP POP JUMP JUMPDEST PUSH1 0x0 DUP1 PUSH1 0x0 SWAP1 SLOAD SWAP1 PUSH2 0x100 EXP SWAP1 DIV PUSH20 0xFFFFFFFFFFFFFFFFFFFFFFFFFFFFFFFFFFFFFFFF AND PUSH20 0xFFFFFFFFFFFFFFFFFFFFFFFFFFFFFFFFFFFFFFFF AND CALLER PUSH20 0xFFFFFFFFFFFFFFFFFFFFFFFFFFFFFFFFFFFFFFFF AND EQ SWAP1 POP SWAP1 JUMP JUMPDEST PUSH1 0x0 DUP2 MLOAD SWAP1 POP PUSH3 0x38C DUP2 PUSH3 0x5B8 JUMP JUMPDEST SWAP3 SWAP2 POP POP JUMP JUMPDEST PUSH1 0x0 DUP2 MLOAD SWAP1 POP PUSH3 0x3A3 DUP2 PUSH3 0x5D2 JUMP JUMPDEST SWAP3 SWAP2 POP POP JUMP JUMPDEST PUSH1 0x0 DUP2 MLOAD SWAP1 POP PUSH3 0x3BA DUP2 PUSH3 0x5EC JUMP JUMPDEST SWAP3 SWAP2 POP POP JUMP JUMPDEST PUSH1 0x0 DUP1 PUSH1 0x0 DUP1 PUSH1 0x0 DUP1 PUSH1 0x0 PUSH1 0xE0 DUP9 DUP11 SUB SLT ISZERO PUSH3 0x3DC JUMPI PUSH1 0x0 DUP1 REVERT JUMPDEST PUSH1 0x0 PUSH3 0x3EC DUP11 DUP3 DUP12 ADD PUSH3 0x392 JUMP JUMPDEST SWAP8 POP POP PUSH1 0x20 PUSH3 0x3FF DUP11 DUP3 DUP12 ADD PUSH3 0x392 JUMP JUMPDEST SWAP7 POP POP PUSH1 0x40 PUSH3 0x412 DUP11 DUP3 DUP12 ADD PUSH3 0x392 JUMP JUMPDEST SWAP6 POP POP PUSH1 0x60 PUSH3 0x425 DUP11 DUP3 DUP12 ADD PUSH3 0x3A9 JUMP JUMPDEST SWAP5 POP POP PUSH1 0x80 PUSH3 0x438 DUP11 DUP3 DUP12 ADD PUSH3 0x37B JUMP JUMPDEST SWAP4 POP POP PUSH1 0xA0 PUSH3 0x44B DUP11 DUP3 DUP12 ADD PUSH3 0x37B JUMP JUMPDEST SWAP3 POP POP PUSH1 0xC0 PUSH3 0x45E DUP11 DUP3 DUP12 ADD PUSH3 0x37B JUMP JUMPDEST SWAP2 POP POP SWAP3 SWAP6 SWAP9 SWAP2 SWAP5 SWAP8 POP SWAP3 SWAP6 POP JUMP JUMPDEST PUSH1 0x0 PUSH3 0x47C PUSH1 0x26 DUP4 PUSH3 0x55B JUMP JUMPDEST SWAP2 POP PUSH32 0x4F776E61626C653A206E6577206F776E657220697320746865207A65726F2061 PUSH1 0x0 DUP4 ADD MSTORE PUSH32 0x6464726573730000000000000000000000000000000000000000000000000000 PUSH1 0x20 DUP4 ADD MSTORE PUSH1 0x40 DUP3 ADD SWAP1 POP SWAP2 SWAP1 POP JUMP JUMPDEST PUSH1 0x0 PUSH3 0x4E4 PUSH1 0x20 DUP4 PUSH3 0x55B JUMP JUMPDEST SWAP2 POP PUSH32 0x4F776E61626C653A2063616C6C6572206973206E6F7420746865206F776E6572 PUSH1 0x0 DUP4 ADD MSTORE PUSH1 0x20 DUP3 ADD SWAP1 POP SWAP2 SWAP1 POP JUMP JUMPDEST PUSH1 0x0 PUSH1 0x20 DUP3 ADD SWAP1 POP DUP2 DUP2 SUB PUSH1 0x0 DUP4 ADD MSTORE PUSH3 0x532 DUP2 PUSH3 0x46D JUMP JUMPDEST SWAP1 POP SWAP2 SWAP1 POP JUMP JUMPDEST PUSH1 0x0 PUSH1 0x20 DUP3 ADD SWAP1 POP DUP2 DUP2 SUB PUSH1 0x0 DUP4 ADD MSTORE PUSH3 0x554 DUP2 PUSH3 0x4D5 JUMP JUMPDEST SWAP1 POP SWAP2 SWAP1 POP JUMP JUMPDEST PUSH1 0x0 DUP3 DUP3 MSTORE PUSH1 0x20 DUP3 ADD SWAP1 POP SWAP3 SWAP2 POP POP JUMP JUMPDEST PUSH1 0x0 PUSH3 0x579 DUP3 PUSH3 0x58E JUMP JUMPDEST SWAP1 POP SWAP2 SWAP1 POP JUMP JUMPDEST PUSH1 0x0 PUSH2 0xFFFF DUP3 AND SWAP1 POP SWAP2 SWAP1 POP JUMP JUMPDEST PUSH1 0x0 PUSH20 0xFFFFFFFFFFFFFFFFFFFFFFFFFFFFFFFFFFFFFFFF DUP3 AND SWAP1 POP SWAP2 SWAP1 POP JUMP JUMPDEST PUSH1 0x0 DUP2 SWAP1 POP SWAP2 SWAP1 POP JUMP JUMPDEST PUSH3 0x5C3 DUP2 PUSH3 0x56C JUMP JUMPDEST DUP2 EQ PUSH3 0x5CF JUMPI PUSH1 0x0 DUP1 REVERT JUMPDEST POP JUMP JUMPDEST PUSH3 0x5DD DUP2 PUSH3 0x580 JUMP JUMPDEST DUP2 EQ PUSH3 0x5E9 JUMPI PUSH1 0x0 DUP1 REVERT JUMPDEST POP JUMP JUMPDEST PUSH3 0x5F7 DUP2 PUSH3 0x5AE JUMP JUMPDEST DUP2 EQ PUSH3 0x603 JUMPI PUSH1 0x0 DUP1 REVERT JUMPDEST POP JUMP JUMPDEST PUSH2 0x990A DUP1 PUSH3 0x616 PUSH1 0x0 CODECOPY PUSH1 0x0 RETURN INVALID PUSH1 0x80 PUSH1 0x40 MSTORE PUSH1 0x4 CALLDATASIZE LT PUSH2 0x246 JUMPI PUSH1 0x0 CALLDATALOAD PUSH1 0xE0 SHR DUP1 PUSH4 0x7F494852 GT PUSH2 0x139 JUMPI DUP1 PUSH4 0xD3C9080A GT PUSH2 0xB6 JUMPI DUP1 PUSH4 0xF26F8494 GT PUSH2 0x7A JUMPI DUP1 PUSH4 0xF26F8494 EQ PUSH2 0x838 JUMPI DUP1 PUSH4 0xF2FDE38B EQ PUSH2 0x863 JUMPI DUP1 PUSH4 0xF4F3B200 EQ PUSH2 0x88C JUMPI DUP1 PUSH4 0xF5A0C9B8 EQ PUSH2 0x8B5 JUMPI DUP1 PUSH4 0xF7F17488 EQ PUSH2 0x8DE JUMPI DUP1 PUSH4 0xFF8EDBDB EQ PUSH2 0x909 JUMPI PUSH2 0x246 JUMP JUMPDEST DUP1 PUSH4 0xD3C9080A EQ PUSH2 0x740 JUMPI DUP1 PUSH4 0xD4739CCA EQ PUSH2 0x76B JUMPI DUP1 PUSH4 0xE467682D EQ PUSH2 0x7A8 JUMPI DUP1 PUSH4 0xEFB7027B EQ PUSH2 0x7D1 JUMPI DUP1 PUSH4 0xF09856F3 EQ PUSH2 0x7FA JUMPI PUSH2 0x246 JUMP JUMPDEST DUP1 PUSH4 0xA4D0EFEC GT PUSH2 0xFD JUMPI DUP1 PUSH4 0xA4D0EFEC EQ PUSH2 0x67C JUMPI DUP1 PUSH4 0xC0F4ED31 EQ PUSH2 0x6A5 JUMPI DUP1 PUSH4 0xC1A8BDBC EQ PUSH2 0x6C1 JUMPI DUP1 PUSH4 0xC52EA52E EQ PUSH2 0x6EA JUMPI DUP1 PUSH4 0xD2ABC517 EQ PUSH2 0x715 JUMPI PUSH2 0x246 JUMP JUMPDEST DUP1 PUSH4 0x7F494852 EQ PUSH2 0x5A7 JUMPI DUP1 PUSH4 0x8BAE5F4F EQ PUSH2 0x5D2 JUMPI DUP1 PUSH4 0x8C6AB013 EQ PUSH2 0x5FD JUMPI DUP1 PUSH4 0x8DA5CB5B EQ PUSH2 0x626 JUMPI DUP1 PUSH4 0x8F32D59B EQ PUSH2 0x651 JUMPI PUSH2 0x246 JUMP JUMPDEST DUP1 PUSH4 0x3B58524D GT PUSH2 0x1C7 JUMPI DUP1 PUSH4 0x640CF873 GT PUSH2 0x18B JUMPI DUP1 PUSH4 0x640CF873 EQ PUSH2 0x4CF JUMPI DUP1 PUSH4 0x65E4E1C0 EQ PUSH2 0x4F8 JUMPI DUP1 PUSH4 0x6D036535 EQ PUSH2 0x523 JUMPI DUP1 PUSH4 0x6EAFBE10 EQ PUSH2 0x54E JUMPI DUP1 PUSH4 0x7AD157B9 EQ PUSH2 0x58B JUMPI PUSH2 0x246 JUMP JUMPDEST DUP1 PUSH4 0x3B58524D EQ PUSH2 0x3F5 JUMPI DUP1 PUSH4 0x3CCFD60B EQ PUSH2 0x41E JUMPI DUP1 PUSH4 0x3E54D3A2 EQ PUSH2 0x435 JUMPI DUP1 PUSH4 0x44F91C1E EQ PUSH2 0x45E JUMPI DUP1 PUSH4 0x45CE7DB9 EQ PUSH2 0x4A4 JUMPI PUSH2 0x246 JUMP JUMPDEST DUP1 PUSH4 0x1A07B081 GT PUSH2 0x20E JUMPI DUP1 PUSH4 0x1A07B081 EQ PUSH2 0x321 JUMPI DUP1 PUSH4 0x1F90607A EQ PUSH2 0x35E JUMPI DUP1 PUSH4 0x3169B515 EQ PUSH2 0x387 JUMPI DUP1 PUSH4 0x3788C0AE EQ PUSH2 0x3A3 JUMPI DUP1 PUSH4 0x398EF17F EQ PUSH2 0x3CC JUMPI PUSH2 0x246 JUMP JUMPDEST DUP1 PUSH4 0x5AC943E EQ PUSH2 0x24B JUMPI DUP1 PUSH4 0xAF88B24 EQ PUSH2 0x274 JUMPI DUP1 PUSH4 0x136A6A24 EQ PUSH2 0x29F JUMPI DUP1 PUSH4 0x150B7A02 EQ PUSH2 0x2BB JUMPI DUP1 PUSH4 0x179443F3 EQ PUSH2 0x2F8 JUMPI JUMPDEST PUSH1 0x0 DUP1 REVERT JUMPDEST CALLVALUE DUP1 ISZERO PUSH2 0x257 JUMPI PUSH1 0x0 DUP1 REVERT JUMPDEST POP PUSH2 0x272 PUSH1 0x4 DUP1 CALLDATASIZE SUB PUSH2 0x26D SWAP2 SWAP1 DUP2 ADD SWAP1 PUSH2 0x7D8D JUMP JUMPDEST PUSH2 0x932 JUMP JUMPDEST STOP JUMPDEST CALLVALUE DUP1 ISZERO PUSH2 0x280 JUMPI PUSH1 0x0 DUP1 REVERT JUMPDEST POP PUSH2 0x289 PUSH2 0x9E8 JUMP JUMPDEST PUSH1 0x40 MLOAD PUSH2 0x296 SWAP2 SWAP1 PUSH2 0x8E5A JUMP JUMPDEST PUSH1 0x40 MLOAD DUP1 SWAP2 SUB SWAP1 RETURN JUMPDEST PUSH2 0x2B9 PUSH1 0x4 DUP1 CALLDATASIZE SUB PUSH2 0x2B4 SWAP2 SWAP1 DUP2 ADD SWAP1 PUSH2 0x7F72 JUMP JUMPDEST PUSH2 0xA0E JUMP JUMPDEST STOP JUMPDEST CALLVALUE DUP1 ISZERO PUSH2 0x2C7 JUMPI PUSH1 0x0 DUP1 REVERT JUMPDEST POP PUSH2 0x2E2 PUSH1 0x4 DUP1 CALLDATASIZE SUB PUSH2 0x2DD SWAP2 SWAP1 DUP2 ADD SWAP1 PUSH2 0x7EBB JUMP JUMPDEST PUSH2 0xDB6 JUMP JUMPDEST PUSH1 0x40 MLOAD PUSH2 0x2EF SWAP2 SWAP1 PUSH2 0x9166 JUMP JUMPDEST PUSH1 0x40 MLOAD DUP1 SWAP2 SUB SWAP1 RETURN JUMPDEST CALLVALUE DUP1 ISZERO PUSH2 0x304 JUMPI PUSH1 0x0 DUP1 REVERT JUMPDEST POP PUSH2 0x31F PUSH1 0x4 DUP1 CALLDATASIZE SUB PUSH2 0x31A SWAP2 SWAP1 DUP2 ADD SWAP1 PUSH2 0x81B7 JUMP JUMPDEST PUSH2 0xDCA JUMP JUMPDEST STOP JUMPDEST CALLVALUE DUP1 ISZERO PUSH2 0x32D JUMPI PUSH1 0x0 DUP1 REVERT JUMPDEST POP PUSH2 0x348 PUSH1 0x4 DUP1 CALLDATASIZE SUB PUSH2 0x343 SWAP2 SWAP1 DUP2 ADD SWAP1 PUSH2 0x7F36 JUMP JUMPDEST PUSH2 0x1352 JUMP JUMPDEST PUSH1 0x40 MLOAD PUSH2 0x355 SWAP2 SWAP1 PUSH2 0x914B JUMP JUMPDEST PUSH1 0x40 MLOAD DUP1 SWAP2 SUB SWAP1 RETURN JUMPDEST CALLVALUE DUP1 ISZERO PUSH2 0x36A JUMPI PUSH1 0x0 DUP1 REVERT JUMPDEST POP PUSH2 0x385 PUSH1 0x4 DUP1 CALLDATASIZE SUB PUSH2 0x380 SWAP2 SWAP1 DUP2 ADD SWAP1 PUSH2 0x7F36 JUMP JUMPDEST PUSH2 0x13BA JUMP JUMPDEST STOP JUMPDEST PUSH2 0x3A1 PUSH1 0x4 DUP1 CALLDATASIZE SUB PUSH2 0x39C SWAP2 SWAP1 DUP2 ADD SWAP1 PUSH2 0x826A JUMP JUMPDEST PUSH2 0x14C2 JUMP JUMPDEST STOP JUMPDEST CALLVALUE DUP1 ISZERO PUSH2 0x3AF JUMPI PUSH1 0x0 DUP1 REVERT JUMPDEST POP PUSH2 0x3CA PUSH1 0x4 DUP1 CALLDATASIZE SUB PUSH2 0x3C5 SWAP2 SWAP1 DUP2 ADD SWAP1 PUSH2 0x81F3 JUMP JUMPDEST PUSH2 0x1A1E JUMP JUMPDEST STOP JUMPDEST CALLVALUE DUP1 ISZERO PUSH2 0x3D8 JUMPI PUSH1 0x0 DUP1 REVERT JUMPDEST POP PUSH2 0x3F3 PUSH1 0x4 DUP1 CALLDATASIZE SUB PUSH2 0x3EE SWAP2 SWAP1 DUP2 ADD SWAP1 PUSH2 0x80C7 JUMP JUMPDEST PUSH2 0x2177 JUMP JUMPDEST STOP JUMPDEST CALLVALUE DUP1 ISZERO PUSH2 0x401 JUMPI PUSH1 0x0 DUP1 REVERT JUMPDEST POP PUSH2 0x41C PUSH1 0x4 DUP1 CALLDATASIZE SUB PUSH2 0x417 SWAP2 SWAP1 DUP2 ADD SWAP1 PUSH2 0x7E08 JUMP JUMPDEST PUSH2 0x246A JUMP JUMPDEST STOP JUMPDEST CALLVALUE DUP1 ISZERO PUSH2 0x42A JUMPI PUSH1 0x0 DUP1 REVERT JUMPDEST POP PUSH2 0x433 PUSH2 0x2537 JUMP JUMPDEST STOP JUMPDEST CALLVALUE DUP1 ISZERO PUSH2 0x441 JUMPI PUSH1 0x0 DUP1 REVERT JUMPDEST POP PUSH2 0x45C PUSH1 0x4 DUP1 CALLDATASIZE SUB PUSH2 0x457 SWAP2 SWAP1 DUP2 ADD SWAP1 PUSH2 0x8006 JUMP JUMPDEST PUSH2 0x264B JUMP JUMPDEST STOP JUMPDEST CALLVALUE DUP1 ISZERO PUSH2 0x46A JUMPI PUSH1 0x0 DUP1 REVERT JUMPDEST POP PUSH2 0x485 PUSH1 0x4 DUP1 CALLDATASIZE SUB PUSH2 0x480 SWAP2 SWAP1 DUP2 ADD SWAP1 PUSH2 0x7F36 JUMP JUMPDEST PUSH2 0x26AD JUMP JUMPDEST PUSH1 0x40 MLOAD PUSH2 0x49B SWAP11 SWAP10 SWAP9 SWAP8 SWAP7 SWAP6 SWAP5 SWAP4 SWAP3 SWAP2 SWAP1 PUSH2 0x8F7A JUMP JUMPDEST PUSH1 0x40 MLOAD DUP1 SWAP2 SUB SWAP1 RETURN JUMPDEST CALLVALUE DUP1 ISZERO PUSH2 0x4B0 JUMPI PUSH1 0x0 DUP1 REVERT JUMPDEST POP PUSH2 0x4B9 PUSH2 0x277B JUMP JUMPDEST PUSH1 0x40 MLOAD PUSH2 0x4C6 SWAP2 SWAP1 PUSH2 0x8E5A JUMP JUMPDEST PUSH1 0x40 MLOAD DUP1 SWAP2 SUB SWAP1 RETURN JUMPDEST CALLVALUE DUP1 ISZERO PUSH2 0x4DB JUMPI PUSH1 0x0 DUP1 REVERT JUMPDEST POP PUSH2 0x4F6 PUSH1 0x4 DUP1 CALLDATASIZE SUB PUSH2 0x4F1 SWAP2 SWAP1 DUP2 ADD SWAP1 PUSH2 0x83CE JUMP JUMPDEST PUSH2 0x27A1 JUMP JUMPDEST STOP JUMPDEST CALLVALUE DUP1 ISZERO PUSH2 0x504 JUMPI PUSH1 0x0 DUP1 REVERT JUMPDEST POP PUSH2 0x50D PUSH2 0x3377 JUMP JUMPDEST PUSH1 0x40 MLOAD PUSH2 0x51A SWAP2 SWAP1 PUSH2 0x9129 JUMP JUMPDEST PUSH1 0x40 MLOAD DUP1 SWAP2 SUB SWAP1 RETURN JUMPDEST CALLVALUE DUP1 ISZERO PUSH2 0x52F JUMPI PUSH1 0x0 DUP1 REVERT JUMPDEST POP PUSH2 0x538 PUSH2 0x3439 JUMP JUMPDEST PUSH1 0x40 MLOAD PUSH2 0x545 SWAP2 SWAP1 PUSH2 0x950A JUMP JUMPDEST PUSH1 0x40 MLOAD DUP1 SWAP2 SUB SWAP1 RETURN JUMPDEST CALLVALUE DUP1 ISZERO PUSH2 0x55A JUMPI PUSH1 0x0 DUP1 REVERT JUMPDEST POP PUSH2 0x575 PUSH1 0x4 DUP1 CALLDATASIZE SUB PUSH2 0x570 SWAP2 SWAP1 DUP2 ADD SWAP1 PUSH2 0x7D8D JUMP JUMPDEST PUSH2 0x34E1 JUMP JUMPDEST PUSH1 0x40 MLOAD PUSH2 0x582 SWAP2 SWAP1 PUSH2 0x9570 JUMP JUMPDEST PUSH1 0x40 MLOAD DUP1 SWAP2 SUB SWAP1 RETURN JUMPDEST PUSH2 0x5A5 PUSH1 0x4 DUP1 CALLDATASIZE SUB PUSH2 0x5A0 SWAP2 SWAP1 DUP2 ADD SWAP1 PUSH2 0x82CD JUMP JUMPDEST PUSH2 0x34F9 JUMP JUMPDEST STOP JUMPDEST CALLVALUE DUP1 ISZERO PUSH2 0x5B3 JUMPI PUSH1 0x0 DUP1 REVERT JUMPDEST POP PUSH2 0x5BC PUSH2 0x3C08 JUMP JUMPDEST PUSH1 0x40 MLOAD PUSH2 0x5C9 SWAP2 SWAP1 PUSH2 0x9570 JUMP JUMPDEST PUSH1 0x40 MLOAD DUP1 SWAP2 SUB SWAP1 RETURN JUMPDEST CALLVALUE DUP1 ISZERO PUSH2 0x5DE JUMPI PUSH1 0x0 DUP1 REVERT JUMPDEST POP PUSH2 0x5E7 PUSH2 0x3C0E JUMP JUMPDEST PUSH1 0x40 MLOAD PUSH2 0x5F4 SWAP2 SWAP1 PUSH2 0x8E5A JUMP JUMPDEST PUSH1 0x40 MLOAD DUP1 SWAP2 SUB SWAP1 RETURN JUMPDEST CALLVALUE DUP1 ISZERO PUSH2 0x609 JUMPI PUSH1 0x0 DUP1 REVERT JUMPDEST POP PUSH2 0x624 PUSH1 0x4 DUP1 CALLDATASIZE SUB PUSH2 0x61F SWAP2 SWAP1 DUP2 ADD SWAP1 PUSH2 0x82CD JUMP JUMPDEST PUSH2 0x3C34 JUMP JUMPDEST STOP JUMPDEST CALLVALUE DUP1 ISZERO PUSH2 0x632 JUMPI PUSH1 0x0 DUP1 REVERT JUMPDEST POP PUSH2 0x63B PUSH2 0x42E0 JUMP JUMPDEST PUSH1 0x40 MLOAD PUSH2 0x648 SWAP2 SWAP1 PUSH2 0x8E5A JUMP JUMPDEST PUSH1 0x40 MLOAD DUP1 SWAP2 SUB SWAP1 RETURN JUMPDEST CALLVALUE DUP1 ISZERO PUSH2 0x65D JUMPI PUSH1 0x0 DUP1 REVERT JUMPDEST POP PUSH2 0x666 PUSH2 0x4309 JUMP JUMPDEST PUSH1 0x40 MLOAD PUSH2 0x673 SWAP2 SWAP1 PUSH2 0x914B JUMP JUMPDEST PUSH1 0x40 MLOAD DUP1 SWAP2 SUB SWAP1 RETURN JUMPDEST CALLVALUE DUP1 ISZERO PUSH2 0x688 JUMPI PUSH1 0x0 DUP1 REVERT JUMPDEST POP PUSH2 0x6A3 PUSH1 0x4 DUP1 CALLDATASIZE SUB PUSH2 0x69E SWAP2 SWAP1 DUP2 ADD SWAP1 PUSH2 0x826A JUMP JUMPDEST PUSH2 0x4360 JUMP JUMPDEST STOP JUMPDEST PUSH2 0x6BF PUSH1 0x4 DUP1 CALLDATASIZE SUB PUSH2 0x6BA SWAP2 SWAP1 DUP2 ADD SWAP1 PUSH2 0x831C JUMP JUMPDEST PUSH2 0x489B JUMP JUMPDEST STOP JUMPDEST CALLVALUE DUP1 ISZERO PUSH2 0x6CD JUMPI PUSH1 0x0 DUP1 REVERT JUMPDEST POP PUSH2 0x6E8 PUSH1 0x4 DUP1 CALLDATASIZE SUB PUSH2 0x6E3 SWAP2 SWAP1 DUP2 ADD SWAP1 PUSH2 0x7E44 JUMP JUMPDEST PUSH2 0x531A JUMP JUMPDEST STOP JUMPDEST CALLVALUE DUP1 ISZERO PUSH2 0x6F6 JUMPI PUSH1 0x0 DUP1 REVERT JUMPDEST POP PUSH2 0x6FF PUSH2 0x55C1 JUMP JUMPDEST PUSH1 0x40 MLOAD PUSH2 0x70C SWAP2 SWAP1 PUSH2 0x9555 JUMP JUMPDEST PUSH1 0x40 MLOAD DUP1 SWAP2 SUB SWAP1 RETURN JUMPDEST CALLVALUE DUP1 ISZERO PUSH2 0x721 JUMPI PUSH1 0x0 DUP1 REVERT JUMPDEST POP PUSH2 0x72A PUSH2 0x55D5 JUMP JUMPDEST PUSH1 0x40 MLOAD PUSH2 0x737 SWAP2 SWAP1 PUSH2 0x9555 JUMP JUMPDEST PUSH1 0x40 MLOAD DUP1 SWAP2 SUB SWAP1 RETURN JUMPDEST CALLVALUE DUP1 ISZERO PUSH2 0x74C JUMPI PUSH1 0x0 DUP1 REVERT JUMPDEST POP PUSH2 0x755 PUSH2 0x55E9 JUMP JUMPDEST PUSH1 0x40 MLOAD PUSH2 0x762 SWAP2 SWAP1 PUSH2 0x9129 JUMP JUMPDEST PUSH1 0x40 MLOAD DUP1 SWAP2 SUB SWAP1 RETURN JUMPDEST CALLVALUE DUP1 ISZERO PUSH2 0x777 JUMPI PUSH1 0x0 DUP1 REVERT JUMPDEST POP PUSH2 0x792 PUSH1 0x4 DUP1 CALLDATASIZE SUB PUSH2 0x78D SWAP2 SWAP1 DUP2 ADD SWAP1 PUSH2 0x7D8D JUMP JUMPDEST PUSH2 0x56AB JUMP JUMPDEST PUSH1 0x40 MLOAD PUSH2 0x79F SWAP2 SWAP1 PUSH2 0x9129 JUMP JUMPDEST PUSH1 0x40 MLOAD DUP1 SWAP2 SUB SWAP1 RETURN JUMPDEST CALLVALUE DUP1 ISZERO PUSH2 0x7B4 JUMPI PUSH1 0x0 DUP1 REVERT JUMPDEST POP PUSH2 0x7CF PUSH1 0x4 DUP1 CALLDATASIZE SUB PUSH2 0x7CA SWAP2 SWAP1 DUP2 ADD SWAP1 PUSH2 0x7D8D JUMP JUMPDEST PUSH2 0x57AC JUMP JUMPDEST STOP JUMPDEST CALLVALUE DUP1 ISZERO PUSH2 0x7DD JUMPI PUSH1 0x0 DUP1 REVERT JUMPDEST POP PUSH2 0x7F8 PUSH1 0x4 DUP1 CALLDATASIZE SUB PUSH2 0x7F3 SWAP2 SWAP1 DUP2 ADD SWAP1 PUSH2 0x7FC1 JUMP JUMPDEST PUSH2 0x5894 JUMP JUMPDEST STOP JUMPDEST CALLVALUE DUP1 ISZERO PUSH2 0x806 JUMPI PUSH1 0x0 DUP1 REVERT JUMPDEST POP PUSH2 0x821 PUSH1 0x4 DUP1 CALLDATASIZE SUB PUSH2 0x81C SWAP2 SWAP1 DUP2 ADD SWAP1 PUSH2 0x7F72 JUMP JUMPDEST PUSH2 0x5915 JUMP JUMPDEST PUSH1 0x40 MLOAD PUSH2 0x82F SWAP3 SWAP2 SWAP1 PUSH2 0x90C9 JUMP JUMPDEST PUSH1 0x40 MLOAD DUP1 SWAP2 SUB SWAP1 RETURN JUMPDEST CALLVALUE DUP1 ISZERO PUSH2 0x844 JUMPI PUSH1 0x0 DUP1 REVERT JUMPDEST POP PUSH2 0x84D PUSH2 0x5973 JUMP JUMPDEST PUSH1 0x40 MLOAD PUSH2 0x85A SWAP2 SWAP1 PUSH2 0x9555 JUMP JUMPDEST PUSH1 0x40 MLOAD DUP1 SWAP2 SUB SWAP1 RETURN JUMPDEST CALLVALUE DUP1 ISZERO PUSH2 0x86F JUMPI PUSH1 0x0 DUP1 REVERT JUMPDEST POP PUSH2 0x88A PUSH1 0x4 DUP1 CALLDATASIZE SUB PUSH2 0x885 SWAP2 SWAP1 DUP2 ADD SWAP1 PUSH2 0x7D8D JUMP JUMPDEST PUSH2 0x5987 JUMP JUMPDEST STOP JUMPDEST CALLVALUE DUP1 ISZERO PUSH2 0x898 JUMPI PUSH1 0x0 DUP1 REVERT JUMPDEST POP PUSH2 0x8B3 PUSH1 0x4 DUP1 CALLDATASIZE SUB PUSH2 0x8AE SWAP2 SWAP1 DUP2 ADD SWAP1 PUSH2 0x7D8D JUMP JUMPDEST PUSH2 0x5A81 JUMP JUMPDEST STOP JUMPDEST CALLVALUE DUP1 ISZERO PUSH2 0x8C1 JUMPI PUSH1 0x0 DUP1 REVERT JUMPDEST POP PUSH2 0x8DC PUSH1 0x4 DUP1 CALLDATASIZE SUB PUSH2 0x8D7 SWAP2 SWAP1 DUP2 ADD SWAP1 PUSH2 0x8165 JUMP JUMPDEST PUSH2 0x5C36 JUMP JUMPDEST STOP JUMPDEST CALLVALUE DUP1 ISZERO PUSH2 0x8EA JUMPI PUSH1 0x0 DUP1 REVERT JUMPDEST POP PUSH2 0x8F3 PUSH2 0x5C87 JUMP JUMPDEST PUSH1 0x40 MLOAD PUSH2 0x900 SWAP2 SWAP1 PUSH2 0x9129 JUMP JUMPDEST PUSH1 0x40 MLOAD DUP1 SWAP2 SUB SWAP1 RETURN JUMPDEST CALLVALUE DUP1 ISZERO PUSH2 0x915 JUMPI PUSH1 0x0 DUP1 REVERT JUMPDEST POP PUSH2 0x930 PUSH1 0x4 DUP1 CALLDATASIZE SUB PUSH2 0x92B SWAP2 SWAP1 DUP2 ADD SWAP1 PUSH2 0x836B JUMP JUMPDEST PUSH2 0x5D49 JUMP JUMPDEST STOP JUMPDEST PUSH2 0x93A PUSH2 0x4309 JUMP JUMPDEST PUSH2 0x979 JUMPI PUSH1 0x40 MLOAD PUSH32 0x8C379A000000000000000000000000000000000000000000000000000000000 DUP2 MSTORE PUSH1 0x4 ADD PUSH2 0x970 SWAP1 PUSH2 0x93E1 JUMP JUMPDEST PUSH1 0x40 MLOAD DUP1 SWAP2 SUB SWAP1 REVERT JUMPDEST PUSH1 0xA PUSH20 0x0 PUSH4 0x581455E9 SWAP1 SWAP2 DUP4 PUSH1 0x40 MLOAD DUP4 PUSH4 0xFFFFFFFF AND PUSH1 0xE0 SHL DUP2 MSTORE PUSH1 0x4 ADD PUSH2 0x9B5 SWAP3 SWAP2 SWAP1 PUSH2 0x952C JUMP JUMPDEST PUSH1 0x0 PUSH1 0x40 MLOAD DUP1 DUP4 SUB DUP2 DUP7 DUP1 EXTCODESIZE ISZERO DUP1 ISZERO PUSH2 0x9CD JUMPI PUSH1 0x0 DUP1 REVERT JUMPDEST POP GAS DELEGATECALL ISZERO DUP1 ISZERO PUSH2 0x9E1 JUMPI RETURNDATASIZE PUSH1 0x0 DUP1 RETURNDATACOPY RETURNDATASIZE PUSH1 0x0 REVERT JUMPDEST POP POP POP POP POP JUMP JUMPDEST PUSH1 0xB PUSH1 0x0 SWAP1 SLOAD SWAP1 PUSH2 0x100 EXP SWAP1 DIV PUSH20 0xFFFFFFFFFFFFFFFFFFFFFFFFFFFFFFFFFFFFFFFF AND DUP2 JUMP JUMPDEST PUSH1 0x6 PUSH1 0x0 DUP5 PUSH20 0xFFFFFFFFFFFFFFFFFFFFFFFFFFFFFFFFFFFFFFFF AND PUSH20 0xFFFFFFFFFFFFFFFFFFFFFFFFFFFFFFFFFFFFFFFF AND DUP2 MSTORE PUSH1 0x20 ADD SWAP1 DUP2 MSTORE PUSH1 0x20 ADD PUSH1 0x0 KECCAK256 PUSH1 0x0 DUP4 DUP2 MSTORE PUSH1 0x20 ADD SWAP1 DUP2 MSTORE PUSH1 0x20 ADD PUSH1 0x0 KECCAK256 PUSH1 0x0 DUP3 PUSH20 0xFFFFFFFFFFFFFFFFFFFFFFFFFFFFFFFFFFFFFFFF AND PUSH20 0xFFFFFFFFFFFFFFFFFFFFFFFFFFFFFFFFFFFFFFFF AND DUP2 MSTORE PUSH1 0x20 ADD SWAP1 DUP2 MSTORE PUSH1 0x20 ADD PUSH1 0x0 KECCAK256 PUSH1 0x0 ADD PUSH1 0x0 SWAP1 SLOAD SWAP1 PUSH2 0x100 EXP SWAP1 DIV PUSH20 0xFFFFFFFFFFFFFFFFFFFFFFFFFFFFFFFFFFFFFFFF AND PUSH20 0xFFFFFFFFFFFFFFFFFFFFFFFFFFFFFFFFFFFFFFFF AND CALLER PUSH20 0xFFFFFFFFFFFFFFFFFFFFFFFFFFFFFFFFFFFFFFFF AND EQ DUP1 PUSH2 0xBAB JUMPI POP CALLER PUSH20 0xFFFFFFFFFFFFFFFFFFFFFFFFFFFFFFFFFFFFFFFF AND DUP4 PUSH20 0xFFFFFFFFFFFFFFFFFFFFFFFFFFFFFFFFFFFFFFFF AND PUSH4 0x6352211E DUP5 PUSH1 0x40 MLOAD DUP3 PUSH4 0xFFFFFFFF AND PUSH1 0xE0 SHL DUP2 MSTORE PUSH1 0x4 ADD PUSH2 0xB43 SWAP2 SWAP1 PUSH2 0x9570 JUMP JUMPDEST PUSH1 0x20 PUSH1 0x40 MLOAD DUP1 DUP4 SUB DUP2 DUP7 DUP1 EXTCODESIZE ISZERO DUP1 ISZERO PUSH2 0xB5B JUMPI PUSH1 0x0 DUP1 REVERT JUMPDEST POP GAS STATICCALL ISZERO DUP1 ISZERO PUSH2 0xB6F JUMPI RETURNDATASIZE PUSH1 0x0 DUP1 RETURNDATACOPY RETURNDATASIZE PUSH1 0x0 REVERT JUMPDEST POP POP POP POP PUSH1 0x40 MLOAD RETURNDATASIZE PUSH1 0x1F NOT PUSH1 0x1F DUP3 ADD AND DUP3 ADD DUP1 PUSH1 0x40 MSTORE POP PUSH2 0xB93 SWAP2 SWAP1 DUP2 ADD SWAP1 PUSH2 0x7DB6 JUMP JUMPDEST PUSH20 0xFFFFFFFFFFFFFFFFFFFFFFFFFFFFFFFFFFFFFFFF AND EQ JUMPDEST PUSH2 0xBEA JUMPI PUSH1 0x40 MLOAD PUSH32 0x8C379A000000000000000000000000000000000000000000000000000000000 DUP2 MSTORE PUSH1 0x4 ADD PUSH2 0xBE1 SWAP1 PUSH2 0x91C1 JUMP JUMPDEST PUSH1 0x40 MLOAD DUP1 SWAP2 SUB SWAP1 REVERT JUMPDEST PUSH1 0x0 PUSH1 0x6 PUSH1 0x0 DUP6 PUSH20 0xFFFFFFFFFFFFFFFFFFFFFFFFFFFFFFFFFFFFFFFF AND PUSH20 0xFFFFFFFFFFFFFFFFFFFFFFFFFFFFFFFFFFFFFFFF AND DUP2 MSTORE PUSH1 0x20 ADD SWAP1 DUP2 MSTORE PUSH1 0x20 ADD PUSH1 0x0 KECCAK256 PUSH1 0x0 DUP5 DUP2 MSTORE PUSH1 0x20 ADD SWAP1 DUP2 MSTORE PUSH1 0x20 ADD PUSH1 0x0 KECCAK256 PUSH1 0x0 DUP4 PUSH20 0xFFFFFFFFFFFFFFFFFFFFFFFFFFFFFFFFFFFFFFFF AND PUSH20 0xFFFFFFFFFFFFFFFFFFFFFFFFFFFFFFFFFFFFFFFF AND DUP2 MSTORE PUSH1 0x20 ADD SWAP1 DUP2 MSTORE PUSH1 0x20 ADD PUSH1 0x0 KECCAK256 PUSH1 0x1 ADD SLOAD GT DUP1 ISZERO PUSH2 0xD67 JUMPI POP PUSH1 0x0 PUSH20 0xFFFFFFFFFFFFFFFFFFFFFFFFFFFFFFFFFFFFFFFF AND PUSH1 0x6 PUSH1 0x0 DUP6 PUSH20 0xFFFFFFFFFFFFFFFFFFFFFFFFFFFFFFFFFFFFFFFF AND PUSH20 0xFFFFFFFFFFFFFFFFFFFFFFFFFFFFFFFFFFFFFFFF AND DUP2 MSTORE PUSH1 0x20 ADD SWAP1 DUP2 MSTORE PUSH1 0x20 ADD PUSH1 0x0 KECCAK256 PUSH1 0x0 DUP5 DUP2 MSTORE PUSH1 0x20 ADD SWAP1 DUP2 MSTORE PUSH1 0x20 ADD PUSH1 0x0 KECCAK256 PUSH1 0x0 DUP4 PUSH20 0xFFFFFFFFFFFFFFFFFFFFFFFFFFFFFFFFFFFFFFFF AND PUSH20 0xFFFFFFFFFFFFFFFFFFFFFFFFFFFFFFFFFFFFFFFF AND DUP2 MSTORE PUSH1 0x20 ADD SWAP1 DUP2 MSTORE PUSH1 0x20 ADD PUSH1 0x0 KECCAK256 PUSH1 0x0 ADD PUSH1 0x0 SWAP1 SLOAD SWAP1 PUSH2 0x100 EXP SWAP1 DIV PUSH20 0xFFFFFFFFFFFFFFFFFFFFFFFFFFFFFFFFFFFFFFFF AND PUSH20 0xFFFFFFFFFFFFFFFFFFFFFFFFFFFFFFFFFFFFFFFF AND EQ ISZERO JUMPDEST PUSH2 0xDA6 JUMPI PUSH1 0x40 MLOAD PUSH32 0x8C379A000000000000000000000000000000000000000000000000000000000 DUP2 MSTORE PUSH1 0x4 ADD PUSH2 0xD9D SWAP1 PUSH2 0x9461 JUMP JUMPDEST PUSH1 0x40 MLOAD DUP1 SWAP2 SUB SWAP1 REVERT JUMPDEST PUSH2 0xDB1 DUP4 DUP4 DUP4 PUSH2 0x6417 JUMP JUMPDEST POP POP POP JUMP JUMPDEST PUSH1 0x0 PUSH4 0x150B7A02 PUSH1 0xE0 SHL SWAP1 POP SWAP5 SWAP4 POP POP POP POP JUMP JUMPDEST DUP2 DUP2 CALLER PUSH20 0xFFFFFFFFFFFFFFFFFFFFFFFFFFFFFFFFFFFFFFFF AND DUP2 PUSH20 0xFFFFFFFFFFFFFFFFFFFFFFFFFFFFFFFFFFFFFFFF AND PUSH4 0x6352211E DUP5 PUSH1 0x40 MLOAD DUP3 PUSH4 0xFFFFFFFF AND PUSH1 0xE0 SHL DUP2 MSTORE PUSH1 0x4 ADD PUSH2 0xE1C SWAP2 SWAP1 PUSH2 0x9570 JUMP JUMPDEST PUSH1 0x20 PUSH1 0x40 MLOAD DUP1 DUP4 SUB DUP2 DUP7 DUP1 EXTCODESIZE ISZERO DUP1 ISZERO PUSH2 0xE34 JUMPI PUSH1 0x0 DUP1 REVERT JUMPDEST POP GAS STATICCALL ISZERO DUP1 ISZERO PUSH2 0xE48 JUMPI RETURNDATASIZE PUSH1 0x0 DUP1 RETURNDATACOPY RETURNDATASIZE PUSH1 0x0 REVERT JUMPDEST POP POP POP POP PUSH1 0x40 MLOAD RETURNDATASIZE PUSH1 0x1F NOT PUSH1 0x1F DUP3 ADD AND DUP3 ADD DUP1 PUSH1 0x40 MSTORE POP PUSH2 0xE6C SWAP2 SWAP1 DUP2 ADD SWAP1 PUSH2 0x7DB6 JUMP JUMPDEST PUSH20 0xFFFFFFFFFFFFFFFFFFFFFFFFFFFFFFFFFFFFFFFF AND EQ PUSH2 0xEC2 JUMPI PUSH1 0x40 MLOAD PUSH32 0x8C379A000000000000000000000000000000000000000000000000000000000 DUP2 MSTORE PUSH1 0x4 ADD PUSH2 0xEB9 SWAP1 PUSH2 0x9181 JUMP JUMPDEST PUSH1 0x40 MLOAD DUP1 SWAP2 SUB SWAP1 REVERT JUMPDEST PUSH2 0xECA PUSH2 0x78EE JUMP JUMPDEST PUSH1 0x7 PUSH1 0x0 DUP6 PUSH20 0xFFFFFFFFFFFFFFFFFFFFFFFFFFFFFFFFFFFFFFFF AND PUSH20 0xFFFFFFFFFFFFFFFFFFFFFFFFFFFFFFFFFFFFFFFF AND DUP2 MSTORE PUSH1 0x20 ADD SWAP1 DUP2 MSTORE PUSH1 0x20 ADD PUSH1 0x0 KECCAK256 PUSH1 0x0 DUP7 DUP2 MSTORE PUSH1 0x20 ADD SWAP1 DUP2 MSTORE PUSH1 0x20 ADD PUSH1 0x0 KECCAK256 PUSH1 0x40 MLOAD DUP1 PUSH2 0x140 ADD PUSH1 0x40 MSTORE SWAP1 DUP2 PUSH1 0x0 DUP3 ADD PUSH1 0x0 SWAP1 SLOAD SWAP1 PUSH2 0x100 EXP SWAP1 DIV PUSH20 0xFFFFFFFFFFFFFFFFFFFFFFFFFFFFFFFFFFFFFFFF AND PUSH20 0xFFFFFFFFFFFFFFFFFFFFFFFFFFFFFFFFFFFFFFFF AND PUSH20 0xFFFFFFFFFFFFFFFFFFFFFFFFFFFFFFFFFFFFFFFF AND DUP2 MSTORE PUSH1 0x20 ADD PUSH1 0x1 DUP3 ADD SLOAD DUP2 MSTORE PUSH1 0x20 ADD PUSH1 0x2 DUP3 ADD PUSH1 0x0 SWAP1 SLOAD SWAP1 PUSH2 0x100 EXP SWAP1 DIV PUSH20 0xFFFFFFFFFFFFFFFFFFFFFFFFFFFFFFFFFFFFFFFF AND PUSH20 0xFFFFFFFFFFFFFFFFFFFFFFFFFFFFFFFFFFFFFFFF AND PUSH20 0xFFFFFFFFFFFFFFFFFFFFFFFFFFFFFFFFFFFFFFFF AND DUP2 MSTORE PUSH1 0x20 ADD PUSH1 0x3 DUP3 ADD SLOAD DUP2 MSTORE PUSH1 0x20 ADD PUSH1 0x4 DUP3 ADD SLOAD DUP2 MSTORE PUSH1 0x20 ADD PUSH1 0x5 DUP3 ADD SLOAD DUP2 MSTORE PUSH1 0x20 ADD PUSH1 0x6 DUP3 ADD PUSH1 0x0 SWAP1 SLOAD SWAP1 PUSH2 0x100 EXP SWAP1 DIV PUSH1 0xFF AND ISZERO ISZERO ISZERO ISZERO DUP2 MSTORE PUSH1 0x20 ADD PUSH1 0x7 DUP3 ADD SLOAD DUP2 MSTORE PUSH1 0x20 ADD PUSH1 0x8 DUP3 ADD SLOAD DUP2 MSTORE PUSH1 0x20 ADD PUSH1 0x9 DUP3 ADD PUSH1 0x0 SWAP1 SLOAD SWAP1 PUSH2 0x100 EXP SWAP1 DIV PUSH20 0xFFFFFFFFFFFFFFFFFFFFFFFFFFFFFFFFFFFFFFFF AND PUSH20 0xFFFFFFFFFFFFFFFFFFFFFFFFFFFFFFFFFFFFFFFF AND PUSH20 0xFFFFFFFFFFFFFFFFFFFFFFFFFFFFFFFFFFFFFFFF AND DUP2 MSTORE POP POP SWAP1 POP PUSH2 0x1089 PUSH2 0x7985 JUMP JUMPDEST PUSH1 0x40 MLOAD DUP1 PUSH1 0x40 ADD PUSH1 0x40 MSTORE DUP1 DUP7 PUSH20 0xFFFFFFFFFFFFFFFFFFFFFFFFFFFFFFFFFFFFFFFF AND DUP2 MSTORE PUSH1 0x20 ADD DUP8 DUP2 MSTORE POP SWAP1 POP PUSH1 0x0 PUSH1 0x2 PUSH1 0x0 DUP8 PUSH20 0xFFFFFFFFFFFFFFFFFFFFFFFFFFFFFFFFFFFFFFFF AND PUSH20 0xFFFFFFFFFFFFFFFFFFFFFFFFFFFFFFFFFFFFFFFF AND DUP2 MSTORE PUSH1 0x20 ADD SWAP1 DUP2 MSTORE PUSH1 0x20 ADD PUSH1 0x0 KECCAK256 PUSH1 0x0 DUP9 DUP2 MSTORE PUSH1 0x20 ADD SWAP1 DUP2 MSTORE PUSH1 0x20 ADD PUSH1 0x0 KECCAK256 PUSH1 0x0 PUSH2 0x100 EXP DUP2 SLOAD DUP2 PUSH1 0xFF MUL NOT AND SWAP1 DUP4 ISZERO ISZERO MUL OR SWAP1 SSTORE POP CALLER PUSH20 0xFFFFFFFFFFFFFFFFFFFFFFFFFFFFFFFFFFFFFFFF AND DUP7 DUP7 PUSH20 0xFFFFFFFFFFFFFFFFFFFFFFFFFFFFFFFFFFFFFFFF AND PUSH32 0xC2FAF9D94BB8992D1EDA56DB8F2AEFEB7CD52ED54E8BDFDD439D361132F59E20 TIMESTAMP DUP7 PUSH2 0x120 ADD MLOAD PUSH1 0x40 MLOAD PUSH2 0x1184 SWAP3 SWAP2 SWAP1 PUSH2 0x958B JUMP JUMPDEST PUSH1 0x40 MLOAD DUP1 SWAP2 SUB SWAP1 LOG4 PUSH2 0x11A0 DUP2 PUSH1 0x9 PUSH2 0x69F4 SWAP1 SWAP2 SWAP1 PUSH4 0xFFFFFFFF AND JUMP JUMPDEST POP PUSH2 0x11F2 DUP2 PUSH1 0x3 PUSH1 0x0 CALLER PUSH20 0xFFFFFFFFFFFFFFFFFFFFFFFFFFFFFFFFFFFFFFFF AND PUSH20 0xFFFFFFFFFFFFFFFFFFFFFFFFFFFFFFFFFFFFFFFF AND DUP2 MSTORE PUSH1 0x20 ADD SWAP1 DUP2 MSTORE PUSH1 0x20 ADD PUSH1 0x0 KECCAK256 PUSH2 0x69F4 SWAP1 SWAP2 SWAP1 PUSH4 0xFFFFFFFF AND JUMP JUMPDEST POP PUSH1 0x1 DUP3 PUSH1 0x60 ADD MLOAD EQ ISZERO PUSH2 0x121A JUMPI PUSH2 0x1214 DUP2 PUSH1 0x4 PUSH2 0x69F4 SWAP1 SWAP2 SWAP1 PUSH4 0xFFFFFFFF AND JUMP JUMPDEST POP PUSH2 0x123E JUMP JUMPDEST PUSH1 0x2 DUP3 PUSH1 0x60 ADD MLOAD EQ ISZERO PUSH2 0x123D JUMPI PUSH2 0x123B DUP2 PUSH1 0x5 PUSH2 0x69F4 SWAP1 SWAP2 SWAP1 PUSH4 0xFFFFFFFF AND JUMP JUMPDEST POP JUMPDEST JUMPDEST PUSH1 0x7 PUSH1 0x0 DUP7 PUSH20 0xFFFFFFFFFFFFFFFFFFFFFFFFFFFFFFFFFFFFFFFF AND PUSH20 0xFFFFFFFFFFFFFFFFFFFFFFFFFFFFFFFFFFFFFFFF AND DUP2 MSTORE PUSH1 0x20 ADD SWAP1 DUP2 MSTORE PUSH1 0x20 ADD PUSH1 0x0 KECCAK256 PUSH1 0x0 DUP8 DUP2 MSTORE PUSH1 0x20 ADD SWAP1 DUP2 MSTORE PUSH1 0x20 ADD PUSH1 0x0 KECCAK256 PUSH1 0x0 DUP1 DUP3 ADD PUSH1 0x0 PUSH2 0x100 EXP DUP2 SLOAD SWAP1 PUSH20 0xFFFFFFFFFFFFFFFFFFFFFFFFFFFFFFFFFFFFFFFF MUL NOT AND SWAP1 SSTORE PUSH1 0x1 DUP3 ADD PUSH1 0x0 SWAP1 SSTORE PUSH1 0x2 DUP3 ADD PUSH1 0x0 PUSH2 0x100 EXP DUP2 SLOAD SWAP1 PUSH20 0xFFFFFFFFFFFFFFFFFFFFFFFFFFFFFFFFFFFFFFFF MUL NOT AND SWAP1 SSTORE PUSH1 0x3 DUP3 ADD PUSH1 0x0 SWAP1 SSTORE PUSH1 0x4 DUP3 ADD PUSH1 0x0 SWAP1 SSTORE PUSH1 0x5 DUP3 ADD PUSH1 0x0 SWAP1 SSTORE PUSH1 0x6 DUP3 ADD PUSH1 0x0 PUSH2 0x100 EXP DUP2 SLOAD SWAP1 PUSH1 0xFF MUL NOT AND SWAP1 SSTORE PUSH1 0x7 DUP3 ADD PUSH1 0x0 SWAP1 SSTORE PUSH1 0x8 DUP3 ADD PUSH1 0x0 SWAP1 SSTORE PUSH1 0x9 DUP3 ADD PUSH1 0x0 PUSH2 0x100 EXP DUP2 SLOAD SWAP1 PUSH20 0xFFFFFFFFFFFFFFFFFFFFFFFFFFFFFFFFFFFFFFFF MUL NOT AND SWAP1 SSTORE POP POP POP POP POP POP POP POP JUMP JUMPDEST PUSH1 0x0 PUSH1 0x2 PUSH1 0x0 DUP5 PUSH20 0xFFFFFFFFFFFFFFFFFFFFFFFFFFFFFFFFFFFFFFFF AND PUSH20 0xFFFFFFFFFFFFFFFFFFFFFFFFFFFFFFFFFFFFFFFF AND DUP2 MSTORE PUSH1 0x20 ADD SWAP1 DUP2 MSTORE PUSH1 0x20 ADD PUSH1 0x0 KECCAK256 PUSH1 0x0 DUP4 DUP2 MSTORE PUSH1 0x20 ADD SWAP1 DUP2 MSTORE PUSH1 0x20 ADD PUSH1 0x0 KECCAK256 PUSH1 0x0 SWAP1 SLOAD SWAP1 PUSH2 0x100 EXP SWAP1 DIV PUSH1 0xFF AND SWAP1 POP SWAP3 SWAP2 POP POP JUMP JUMPDEST DUP1 DUP3 CALLER PUSH20 0xFFFFFFFFFFFFFFFFFFFFFFFFFFFFFFFFFFFFFFFF AND DUP2 PUSH20 0xFFFFFFFFFFFFFFFFFFFFFFFFFFFFFFFFFFFFFFFF AND PUSH4 0x6352211E DUP5 PUSH1 0x40 MLOAD DUP3 PUSH4 0xFFFFFFFF AND PUSH1 0xE0 SHL DUP2 MSTORE PUSH1 0x4 ADD PUSH2 0x140C SWAP2 SWAP1 PUSH2 0x9570 JUMP JUMPDEST PUSH1 0x20 PUSH1 0x40 MLOAD DUP1 DUP4 SUB DUP2 DUP7 DUP1 EXTCODESIZE ISZERO DUP1 ISZERO PUSH2 0x1424 JUMPI PUSH1 0x0 DUP1 REVERT JUMPDEST POP GAS STATICCALL ISZERO DUP1 ISZERO PUSH2 0x1438 JUMPI RETURNDATASIZE PUSH1 0x0 DUP1 RETURNDATACOPY RETURNDATASIZE PUSH1 0x0 REVERT JUMPDEST POP POP POP POP PUSH1 0x40 MLOAD RETURNDATASIZE PUSH1 0x1F NOT PUSH1 0x1F DUP3 ADD AND DUP3 ADD DUP1 PUSH1 0x40 MSTORE POP PUSH2 0x145C SWAP2 SWAP1 DUP2 ADD SWAP1 PUSH2 0x7DB6 JUMP JUMPDEST PUSH20 0xFFFFFFFFFFFFFFFFFFFFFFFFFFFFFFFFFFFFFFFF AND EQ PUSH2 0x14B2 JUMPI PUSH1 0x40 MLOAD PUSH32 0x8C379A000000000000000000000000000000000000000000000000000000000 DUP2 MSTORE PUSH1 0x4 ADD PUSH2 0x14A9 SWAP1 PUSH2 0x9181 JUMP JUMPDEST PUSH1 0x40 MLOAD DUP1 SWAP2 SUB SWAP1 REVERT JUMPDEST PUSH2 0x14BC DUP5 DUP5 PUSH2 0x6B42 JUMP JUMPDEST POP POP POP POP JUMP JUMPDEST DUP2 PUSH1 0x0 PUSH20 0xFFFFFFFFFFFFFFFFFFFFFFFFFFFFFFFFFFFFFFFF AND DUP2 PUSH20 0xFFFFFFFFFFFFFFFFFFFFFFFFFFFFFFFFFFFFFFFF AND EQ PUSH2 0x154B JUMPI PUSH2 0x150B DUP2 PUSH1 0xA PUSH2 0x6BAF SWAP1 SWAP2 SWAP1 PUSH4 0xFFFFFFFF AND JUMP JUMPDEST PUSH2 0x154A JUMPI PUSH1 0x40 MLOAD PUSH32 0x8C379A000000000000000000000000000000000000000000000000000000000 DUP2 MSTORE PUSH1 0x4 ADD PUSH2 0x1541 SWAP1 PUSH2 0x94C1 JUMP JUMPDEST PUSH1 0x40 MLOAD DUP1 SWAP2 SUB SWAP1 REVERT JUMPDEST JUMPDEST DUP2 PUSH1 0x0 DUP2 EQ ISZERO PUSH2 0x1590 JUMPI PUSH1 0x40 MLOAD PUSH32 0x8C379A000000000000000000000000000000000000000000000000000000000 DUP2 MSTORE PUSH1 0x4 ADD PUSH2 0x1587 SWAP1 PUSH2 0x9441 JUMP JUMPDEST PUSH1 0x40 MLOAD DUP1 SWAP2 SUB SWAP1 REVERT JUMPDEST PUSH1 0x2 PUSH1 0x0 DUP7 PUSH20 0xFFFFFFFFFFFFFFFFFFFFFFFFFFFFFFFFFFFFFFFF AND PUSH20 0xFFFFFFFFFFFFFFFFFFFFFFFFFFFFFFFFFFFFFFFF AND DUP2 MSTORE PUSH1 0x20 ADD SWAP1 DUP2 MSTORE PUSH1 0x20 ADD PUSH1 0x0 KECCAK256 PUSH1 0x0 DUP8 DUP2 MSTORE PUSH1 0x20 ADD SWAP1 DUP2 MSTORE PUSH1 0x20 ADD PUSH1 0x0 KECCAK256 PUSH1 0x0 SWAP1 SLOAD SWAP1 PUSH2 0x100 EXP SWAP1 DIV PUSH1 0xFF AND ISZERO PUSH2 0x162E JUMPI PUSH1 0x40 MLOAD PUSH32 0x8C379A000000000000000000000000000000000000000000000000000000000 DUP2 MSTORE PUSH1 0x4 ADD PUSH2 0x1625 SWAP1 PUSH2 0x9321 JUMP JUMPDEST PUSH1 0x40 MLOAD DUP1 SWAP2 SUB SWAP1 REVERT JUMPDEST PUSH1 0x0 PUSH20 0xFFFFFFFFFFFFFFFFFFFFFFFFFFFFFFFFFFFFFFFF AND DUP5 PUSH20 0xFFFFFFFFFFFFFFFFFFFFFFFFFFFFFFFFFFFFFFFF AND EQ ISZERO PUSH2 0x16AB JUMPI DUP3 CALLVALUE LT ISZERO PUSH2 0x16A6 JUMPI PUSH1 0x40 MLOAD PUSH32 0x8C379A000000000000000000000000000000000000000000000000000000000 DUP2 MSTORE PUSH1 0x4 ADD PUSH2 0x169D SWAP1 PUSH2 0x92E1 JUMP JUMPDEST PUSH1 0x40 MLOAD DUP1 SWAP2 SUB SWAP1 REVERT JUMPDEST PUSH2 0x180F JUMP JUMPDEST PUSH1 0x0 DUP5 SWAP1 POP DUP4 DUP2 PUSH20 0xFFFFFFFFFFFFFFFFFFFFFFFFFFFFFFFFFFFFFFFF AND PUSH4 0xDD62ED3E CALLER ADDRESS PUSH1 0x40 MLOAD DUP4 PUSH4 0xFFFFFFFF AND PUSH1 0xE0 SHL DUP2 MSTORE PUSH1 0x4 ADD PUSH2 0x16EC SWAP3 SWAP2 SWAP1 PUSH2 0x8E75 JUMP JUMPDEST PUSH1 0x20 PUSH1 0x40 MLOAD DUP1 DUP4 SUB DUP2 DUP7 DUP1 EXTCODESIZE ISZERO DUP1 ISZERO PUSH2 0x1704 JUMPI PUSH1 0x0 DUP1 REVERT JUMPDEST POP GAS STATICCALL ISZERO DUP1 ISZERO PUSH2 0x1718 JUMPI RETURNDATASIZE PUSH1 0x0 DUP1 RETURNDATACOPY RETURNDATASIZE PUSH1 0x0 REVERT JUMPDEST POP POP POP POP PUSH1 0x40 MLOAD RETURNDATASIZE PUSH1 0x1F NOT PUSH1 0x1F DUP3 ADD AND DUP3 ADD DUP1 PUSH1 0x40 MSTORE POP PUSH2 0x173C SWAP2 SWAP1 DUP2 ADD SWAP1 PUSH2 0x818E JUMP JUMPDEST LT ISZERO PUSH2 0x177D JUMPI PUSH1 0x40 MLOAD PUSH32 0x8C379A000000000000000000000000000000000000000000000000000000000 DUP2 MSTORE PUSH1 0x4 ADD PUSH2 0x1774 SWAP1 PUSH2 0x9281 JUMP JUMPDEST PUSH1 0x40 MLOAD DUP1 SWAP2 SUB SWAP1 REVERT JUMPDEST DUP1 PUSH20 0xFFFFFFFFFFFFFFFFFFFFFFFFFFFFFFFFFFFFFFFF AND PUSH4 0x23B872DD CALLER ADDRESS DUP8 PUSH1 0x40 MLOAD DUP5 PUSH4 0xFFFFFFFF AND PUSH1 0xE0 SHL DUP2 MSTORE PUSH1 0x4 ADD PUSH2 0x17BA SWAP4 SWAP3 SWAP2 SWAP1 PUSH2 0x8F1A JUMP JUMPDEST PUSH1 0x20 PUSH1 0x40 MLOAD DUP1 DUP4 SUB DUP2 PUSH1 0x0 DUP8 DUP1 EXTCODESIZE ISZERO DUP1 ISZERO PUSH2 0x17D4 JUMPI PUSH1 0x0 DUP1 REVERT JUMPDEST POP GAS CALL ISZERO DUP1 ISZERO PUSH2 0x17E8 JUMPI RETURNDATASIZE PUSH1 0x0 DUP1 RETURNDATACOPY RETURNDATASIZE PUSH1 0x0 REVERT JUMPDEST POP POP POP POP PUSH1 0x40 MLOAD RETURNDATASIZE PUSH1 0x1F NOT PUSH1 0x1F DUP3 ADD AND DUP3 ADD DUP1 PUSH1 0x40 MSTORE POP PUSH2 0x180C SWAP2 SWAP1 DUP2 ADD SWAP1 PUSH2 0x804B JUMP JUMPDEST POP POP JUMPDEST PUSH1 0x1 PUSH1 0xF PUSH1 0x0 DUP3 DUP3 SLOAD ADD SWAP3 POP POP DUP2 SWAP1 SSTORE POP CALLER PUSH1 0x8 PUSH1 0x0 DUP8 PUSH20 0xFFFFFFFFFFFFFFFFFFFFFFFFFFFFFFFFFFFFFFFF AND PUSH20 0xFFFFFFFFFFFFFFFFFFFFFFFFFFFFFFFFFFFFFFFF AND DUP2 MSTORE PUSH1 0x20 ADD SWAP1 DUP2 MSTORE PUSH1 0x20 ADD PUSH1 0x0 KECCAK256 PUSH1 0x0 DUP9 DUP2 MSTORE PUSH1 0x20 ADD SWAP1 DUP2 MSTORE PUSH1 0x20 ADD PUSH1 0x0 KECCAK256 PUSH1 0x0 DUP7 PUSH20 0xFFFFFFFFFFFFFFFFFFFFFFFFFFFFFFFFFFFFFFFF AND PUSH20 0xFFFFFFFFFFFFFFFFFFFFFFFFFFFFFFFFFFFFFFFF AND DUP2 MSTORE PUSH1 0x20 ADD SWAP1 DUP2 MSTORE PUSH1 0x20 ADD PUSH1 0x0 KECCAK256 PUSH1 0x0 PUSH1 0xF SLOAD DUP2 MSTORE PUSH1 0x20 ADD SWAP1 DUP2 MSTORE PUSH1 0x20 ADD PUSH1 0x0 KECCAK256 PUSH1 0x0 ADD PUSH1 0x0 PUSH2 0x100 EXP DUP2 SLOAD DUP2 PUSH20 0xFFFFFFFFFFFFFFFFFFFFFFFFFFFFFFFFFFFFFFFF MUL NOT AND SWAP1 DUP4 PUSH20 0xFFFFFFFFFFFFFFFFFFFFFFFFFFFFFFFFFFFFFFFF AND MUL OR SWAP1 SSTORE POP DUP3 PUSH1 0x8 PUSH1 0x0 DUP8 PUSH20 0xFFFFFFFFFFFFFFFFFFFFFFFFFFFFFFFFFFFFFFFF AND PUSH20 0xFFFFFFFFFFFFFFFFFFFFFFFFFFFFFFFFFFFFFFFF AND DUP2 MSTORE PUSH1 0x20 ADD SWAP1 DUP2 MSTORE PUSH1 0x20 ADD PUSH1 0x0 KECCAK256 PUSH1 0x0 DUP9 DUP2 MSTORE PUSH1 0x20 ADD SWAP1 DUP2 MSTORE PUSH1 0x20 ADD PUSH1 0x0 KECCAK256 PUSH1 0x0 DUP7 PUSH20 0xFFFFFFFFFFFFFFFFFFFFFFFFFFFFFFFFFFFFFFFF AND PUSH20 0xFFFFFFFFFFFFFFFFFFFFFFFFFFFFFFFFFFFFFFFF AND DUP2 MSTORE PUSH1 0x20 ADD SWAP1 DUP2 MSTORE PUSH1 0x20 ADD PUSH1 0x0 KECCAK256 PUSH1 0x0 PUSH1 0xF SLOAD DUP2 MSTORE PUSH1 0x20 ADD SWAP1 DUP2 MSTORE PUSH1 0x20 ADD PUSH1 0x0 KECCAK256 PUSH1 0x1 ADD DUP2 SWAP1 SSTORE POP CALLER PUSH20 0xFFFFFFFFFFFFFFFFFFFFFFFFFFFFFFFFFFFFFFFF AND DUP7 DUP7 PUSH20 0xFFFFFFFFFFFFFFFFFFFFFFFFFFFFFFFFFFFFFFFF AND PUSH32 0x1F469277FC2AD13E1024A60C93696464CDE7568C9B841D892945A57BAE027F72 DUP8 DUP8 PUSH1 0xF SLOAD PUSH1 0x40 MLOAD PUSH2 0x1A0E SWAP4 SWAP3 SWAP2 SWAP1 PUSH2 0x90F2 JUMP JUMPDEST PUSH1 0x40 MLOAD DUP1 SWAP2 SUB SWAP1 LOG4 POP POP POP POP POP POP JUMP JUMPDEST DUP5 DUP5 PUSH1 0x2 PUSH1 0x7 PUSH1 0x0 DUP4 PUSH20 0xFFFFFFFFFFFFFFFFFFFFFFFFFFFFFFFFFFFFFFFF AND PUSH20 0xFFFFFFFFFFFFFFFFFFFFFFFFFFFFFFFFFFFFFFFF AND DUP2 MSTORE PUSH1 0x20 ADD SWAP1 DUP2 MSTORE PUSH1 0x20 ADD PUSH1 0x0 KECCAK256 PUSH1 0x0 DUP5 DUP2 MSTORE PUSH1 0x20 ADD SWAP1 DUP2 MSTORE PUSH1 0x20 ADD PUSH1 0x0 KECCAK256 PUSH1 0x3 ADD SLOAD EQ ISZERO PUSH2 0x1AB7 JUMPI PUSH1 0x40 MLOAD PUSH32 0x8C379A000000000000000000000000000000000000000000000000000000000 DUP2 MSTORE PUSH1 0x4 ADD PUSH2 0x1AAE SWAP1 PUSH2 0x9221 JUMP JUMPDEST PUSH1 0x40 MLOAD DUP1 SWAP2 SUB SWAP1 REVERT JUMPDEST DUP7 DUP7 CALLER PUSH20 0xFFFFFFFFFFFFFFFFFFFFFFFFFFFFFFFFFFFFFFFF AND DUP2 PUSH20 0xFFFFFFFFFFFFFFFFFFFFFFFFFFFFFFFFFFFFFFFF AND PUSH4 0x6352211E DUP5 PUSH1 0x40 MLOAD DUP3 PUSH4 0xFFFFFFFF AND PUSH1 0xE0 SHL DUP2 MSTORE PUSH1 0x4 ADD PUSH2 0x1B09 SWAP2 SWAP1 PUSH2 0x9570 JUMP JUMPDEST PUSH1 0x20 PUSH1 0x40 MLOAD DUP1 DUP4 SUB DUP2 DUP7 DUP1 EXTCODESIZE ISZERO DUP1 ISZERO PUSH2 0x1B21 JUMPI PUSH1 0x0 DUP1 REVERT JUMPDEST POP GAS STATICCALL ISZERO DUP1 ISZERO PUSH2 0x1B35 JUMPI RETURNDATASIZE PUSH1 0x0 DUP1 RETURNDATACOPY RETURNDATASIZE PUSH1 0x0 REVERT JUMPDEST POP POP POP POP PUSH1 0x40 MLOAD RETURNDATASIZE PUSH1 0x1F NOT PUSH1 0x1F DUP3 ADD AND DUP3 ADD DUP1 PUSH1 0x40 MSTORE POP PUSH2 0x1B59 SWAP2 SWAP1 DUP2 ADD SWAP1 PUSH2 0x7DB6 JUMP JUMPDEST PUSH20 0xFFFFFFFFFFFFFFFFFFFFFFFFFFFFFFFFFFFFFFFF AND EQ PUSH2 0x1BAF JUMPI PUSH1 0x40 MLOAD PUSH32 0x8C379A000000000000000000000000000000000000000000000000000000000 DUP2 MSTORE PUSH1 0x4 ADD PUSH2 0x1BA6 SWAP1 PUSH2 0x9181 JUMP JUMPDEST PUSH1 0x40 MLOAD DUP1 SWAP2 SUB SWAP1 REVERT JUMPDEST DUP7 PUSH1 0x0 PUSH20 0xFFFFFFFFFFFFFFFFFFFFFFFFFFFFFFFFFFFFFFFF AND DUP2 PUSH20 0xFFFFFFFFFFFFFFFFFFFFFFFFFFFFFFFFFFFFFFFF AND EQ PUSH2 0x1C38 JUMPI PUSH2 0x1BF8 DUP2 PUSH1 0xA PUSH2 0x6BAF SWAP1 SWAP2 SWAP1 PUSH4 0xFFFFFFFF AND JUMP JUMPDEST PUSH2 0x1C37 JUMPI PUSH1 0x40 MLOAD PUSH32 0x8C379A000000000000000000000000000000000000000000000000000000000 DUP2 MSTORE PUSH1 0x4 ADD PUSH2 0x1C2E SWAP1 PUSH2 0x94C1 JUMP JUMPDEST PUSH1 0x40 MLOAD DUP1 SWAP2 SUB SWAP1 REVERT JUMPDEST JUMPDEST PUSH1 0x0 DUP9 SWAP1 POP PUSH1 0x0 DUP12 SWAP1 POP PUSH1 0x0 DUP10 SWAP1 POP PUSH1 0x0 DUP13 SWAP1 POP PUSH2 0x1C54 PUSH2 0x79B5 JUMP JUMPDEST PUSH1 0x8 PUSH1 0x0 DUP16 PUSH20 0xFFFFFFFFFFFFFFFFFFFFFFFFFFFFFFFFFFFFFFFF AND PUSH20 0xFFFFFFFFFFFFFFFFFFFFFFFFFFFFFFFFFFFFFFFF AND DUP2 MSTORE PUSH1 0x20 ADD SWAP1 DUP2 MSTORE PUSH1 0x20 ADD PUSH1 0x0 KECCAK256 PUSH1 0x0 DUP6 DUP2 MSTORE PUSH1 0x20 ADD SWAP1 DUP2 MSTORE PUSH1 0x20 ADD PUSH1 0x0 KECCAK256 PUSH1 0x0 DUP7 PUSH20 0xFFFFFFFFFFFFFFFFFFFFFFFFFFFFFFFFFFFFFFFF AND PUSH20 0xFFFFFFFFFFFFFFFFFFFFFFFFFFFFFFFFFFFFFFFF AND DUP2 MSTORE PUSH1 0x20 ADD SWAP1 DUP2 MSTORE PUSH1 0x20 ADD PUSH1 0x0 KECCAK256 PUSH1 0x0 DUP13 DUP2 MSTORE PUSH1 0x20 ADD SWAP1 DUP2 MSTORE PUSH1 0x20 ADD PUSH1 0x0 KECCAK256 PUSH1 0x40 MLOAD DUP1 PUSH1 0x40 ADD PUSH1 0x40 MSTORE SWAP1 DUP2 PUSH1 0x0 DUP3 ADD PUSH1 0x0 SWAP1 SLOAD SWAP1 PUSH2 0x100 EXP SWAP1 DIV PUSH20 0xFFFFFFFFFFFFFFFFFFFFFFFFFFFFFFFFFFFFFFFF AND PUSH20 0xFFFFFFFFFFFFFFFFFFFFFFFFFFFFFFFFFFFFFFFF AND PUSH20 0xFFFFFFFFFFFFFFFFFFFFFFFFFFFFFFFFFFFFFFFF AND DUP2 MSTORE PUSH1 0x20 ADD PUSH1 0x1 DUP3 ADD SLOAD DUP2 MSTORE POP POP SWAP1 POP PUSH1 0x0 PUSH20 0xFFFFFFFFFFFFFFFFFFFFFFFFFFFFFFFFFFFFFFFF AND DUP2 PUSH1 0x0 ADD MLOAD PUSH20 0xFFFFFFFFFFFFFFFFFFFFFFFFFFFFFFFFFFFFFFFF AND EQ ISZERO PUSH2 0x1DD3 JUMPI PUSH1 0x40 MLOAD PUSH32 0x8C379A000000000000000000000000000000000000000000000000000000000 DUP2 MSTORE PUSH1 0x4 ADD PUSH2 0x1DCA SWAP1 PUSH2 0x94A1 JUMP JUMPDEST PUSH1 0x40 MLOAD DUP1 SWAP2 SUB SWAP1 REVERT JUMPDEST PUSH1 0x0 DUP15 SWAP1 POP PUSH2 0x1DEC DUP6 DUP5 CALLER DUP10 DUP7 PUSH1 0x20 ADD MLOAD DUP10 PUSH1 0x0 PUSH2 0x6C56 JUMP JUMPDEST PUSH1 0x0 PUSH1 0x2 PUSH1 0x0 DUP6 PUSH20 0xFFFFFFFFFFFFFFFFFFFFFFFFFFFFFFFFFFFFFFFF AND PUSH20 0xFFFFFFFFFFFFFFFFFFFFFFFFFFFFFFFFFFFFFFFF AND DUP2 MSTORE PUSH1 0x20 ADD SWAP1 DUP2 MSTORE PUSH1 0x20 ADD PUSH1 0x0 KECCAK256 PUSH1 0x0 DUP8 DUP2 MSTORE PUSH1 0x20 ADD SWAP1 DUP2 MSTORE PUSH1 0x20 ADD PUSH1 0x0 KECCAK256 PUSH1 0x0 PUSH2 0x100 EXP DUP2 SLOAD DUP2 PUSH1 0xFF MUL NOT AND SWAP1 DUP4 ISZERO ISZERO MUL OR SWAP1 SSTORE POP DUP1 PUSH20 0xFFFFFFFFFFFFFFFFFFFFFFFFFFFFFFFFFFFFFFFF AND PUSH4 0x42842E0E DUP3 PUSH20 0xFFFFFFFFFFFFFFFFFFFFFFFFFFFFFFFFFFFFFFFF AND PUSH4 0x6352211E DUP9 PUSH1 0x40 MLOAD DUP3 PUSH4 0xFFFFFFFF AND PUSH1 0xE0 SHL DUP2 MSTORE PUSH1 0x4 ADD PUSH2 0x1EAA SWAP2 SWAP1 PUSH2 0x9570 JUMP JUMPDEST PUSH1 0x20 PUSH1 0x40 MLOAD DUP1 DUP4 SUB DUP2 DUP7 DUP1 EXTCODESIZE ISZERO DUP1 ISZERO PUSH2 0x1EC2 JUMPI PUSH1 0x0 DUP1 REVERT JUMPDEST POP GAS STATICCALL ISZERO DUP1 ISZERO PUSH2 0x1ED6 JUMPI RETURNDATASIZE PUSH1 0x0 DUP1 RETURNDATACOPY RETURNDATASIZE PUSH1 0x0 REVERT JUMPDEST POP POP POP POP PUSH1 0x40 MLOAD RETURNDATASIZE PUSH1 0x1F NOT PUSH1 0x1F DUP3 ADD AND DUP3 ADD DUP1 PUSH1 0x40 MSTORE POP PUSH2 0x1EFA SWAP2 SWAP1 DUP2 ADD SWAP1 PUSH2 0x7DB6 JUMP JUMPDEST DUP5 PUSH1 0x0 ADD MLOAD DUP9 PUSH1 0x40 MLOAD DUP5 PUSH4 0xFFFFFFFF AND PUSH1 0xE0 SHL DUP2 MSTORE PUSH1 0x4 ADD PUSH2 0x1F1E SWAP4 SWAP3 SWAP2 SWAP1 PUSH2 0x9092 JUMP JUMPDEST PUSH1 0x0 PUSH1 0x40 MLOAD DUP1 DUP4 SUB DUP2 PUSH1 0x0 DUP8 DUP1 EXTCODESIZE ISZERO DUP1 ISZERO PUSH2 0x1F38 JUMPI PUSH1 0x0 DUP1 REVERT JUMPDEST POP GAS CALL ISZERO DUP1 ISZERO PUSH2 0x1F4C JUMPI RETURNDATASIZE PUSH1 0x0 DUP1 RETURNDATACOPY RETURNDATASIZE PUSH1 0x0 REVERT JUMPDEST POP POP POP POP DUP2 PUSH1 0x0 ADD MLOAD PUSH20 0xFFFFFFFFFFFFFFFFFFFFFFFFFFFFFFFFFFFFFFFF AND CALLER PUSH20 0xFFFFFFFFFFFFFFFFFFFFFFFFFFFFFFFFFFFFFFFF AND DUP5 PUSH20 0xFFFFFFFFFFFFFFFFFFFFFFFFFFFFFFFFFFFFFFFF AND PUSH32 0xA2AB0454B724B203A92EE88DE73837B4E8FB3A36B43D7C22C7D52EE55011340F DUP9 DUP7 PUSH1 0x20 ADD MLOAD TIMESTAMP DUP13 PUSH1 0x1 PUSH1 0x40 MLOAD PUSH2 0x1FD5 SWAP6 SWAP5 SWAP4 SWAP3 SWAP2 SWAP1 PUSH2 0x95F9 JUMP JUMPDEST PUSH1 0x40 MLOAD DUP1 SWAP2 SUB SWAP1 LOG4 PUSH1 0x0 PUSH1 0x8 PUSH1 0x0 DUP6 PUSH20 0xFFFFFFFFFFFFFFFFFFFFFFFFFFFFFFFFFFFFFFFF AND PUSH20 0xFFFFFFFFFFFFFFFFFFFFFFFFFFFFFFFFFFFFFFFF AND DUP2 MSTORE PUSH1 0x20 ADD SWAP1 DUP2 MSTORE PUSH1 0x20 ADD PUSH1 0x0 KECCAK256 PUSH1 0x0 DUP8 DUP2 MSTORE PUSH1 0x20 ADD SWAP1 DUP2 MSTORE PUSH1 0x20 ADD PUSH1 0x0 KECCAK256 PUSH1 0x0 DUP9 PUSH20 0xFFFFFFFFFFFFFFFFFFFFFFFFFFFFFFFFFFFFFFFF AND PUSH20 0xFFFFFFFFFFFFFFFFFFFFFFFFFFFFFFFFFFFFFFFF AND DUP2 MSTORE PUSH1 0x20 ADD SWAP1 DUP2 MSTORE PUSH1 0x20 ADD PUSH1 0x0 KECCAK256 PUSH1 0x0 DUP15 DUP2 MSTORE PUSH1 0x20 ADD SWAP1 DUP2 MSTORE PUSH1 0x20 ADD PUSH1 0x0 KECCAK256 PUSH1 0x0 ADD PUSH1 0x0 PUSH2 0x100 EXP DUP2 SLOAD DUP2 PUSH20 0xFFFFFFFFFFFFFFFFFFFFFFFFFFFFFFFFFFFFFFFF MUL NOT AND SWAP1 DUP4 PUSH20 0xFFFFFFFFFFFFFFFFFFFFFFFFFFFFFFFFFFFFFFFF AND MUL OR SWAP1 SSTORE POP PUSH1 0x0 PUSH1 0x8 PUSH1 0x0 DUP6 PUSH20 0xFFFFFFFFFFFFFFFFFFFFFFFFFFFFFFFFFFFFFFFF AND PUSH20 0xFFFFFFFFFFFFFFFFFFFFFFFFFFFFFFFFFFFFFFFF AND DUP2 MSTORE PUSH1 0x20 ADD SWAP1 DUP2 MSTORE PUSH1 0x20 ADD PUSH1 0x0 KECCAK256 PUSH1 0x0 DUP8 DUP2 MSTORE PUSH1 0x20 ADD SWAP1 DUP2 MSTORE PUSH1 0x20 ADD PUSH1 0x0 KECCAK256 PUSH1 0x0 DUP9 PUSH20 0xFFFFFFFFFFFFFFFFFFFFFFFFFFFFFFFFFFFFFFFF AND PUSH20 0xFFFFFFFFFFFFFFFFFFFFFFFFFFFFFFFFFFFFFFFF AND DUP2 MSTORE PUSH1 0x20 ADD SWAP1 DUP2 MSTORE PUSH1 0x20 ADD PUSH1 0x0 KECCAK256 PUSH1 0x0 DUP15 DUP2 MSTORE PUSH1 0x20 ADD SWAP1 DUP2 MSTORE PUSH1 0x20 ADD PUSH1 0x0 KECCAK256 PUSH1 0x1 ADD DUP2 SWAP1 SSTORE POP POP POP POP POP POP POP POP POP POP POP POP POP POP POP POP POP JUMP JUMPDEST PUSH2 0x217F PUSH2 0x4309 JUMP JUMPDEST PUSH2 0x21BE JUMPI PUSH1 0x40 MLOAD PUSH32 0x8C379A000000000000000000000000000000000000000000000000000000000 DUP2 MSTORE PUSH1 0x4 ADD PUSH2 0x21B5 SWAP1 PUSH2 0x93E1 JUMP JUMPDEST PUSH1 0x40 MLOAD DUP1 SWAP2 SUB SWAP1 REVERT JUMPDEST PUSH1 0x0 PUSH20 0xFFFFFFFFFFFFFFFFFFFFFFFFFFFFFFFFFFFFFFFF AND DUP3 PUSH20 0xFFFFFFFFFFFFFFFFFFFFFFFFFFFFFFFFFFFFFFFF AND EQ ISZERO DUP1 ISZERO PUSH2 0x2228 JUMPI POP PUSH1 0x0 PUSH20 0xFFFFFFFFFFFFFFFFFFFFFFFFFFFFFFFFFFFFFFFF AND DUP2 PUSH20 0xFFFFFFFFFFFFFFFFFFFFFFFFFFFFFFFFFFFFFFFF AND EQ ISZERO JUMPDEST PUSH2 0x2267 JUMPI PUSH1 0x40 MLOAD PUSH32 0x8C379A000000000000000000000000000000000000000000000000000000000 DUP2 MSTORE PUSH1 0x4 ADD PUSH2 0x225E SWAP1 PUSH2 0x92A1 JUMP JUMPDEST PUSH1 0x40 MLOAD DUP1 SWAP2 SUB SWAP1 REVERT JUMPDEST PUSH1 0x0 DUP8 PUSH2 0xFFFF AND LT ISZERO DUP1 ISZERO PUSH2 0x2281 JUMPI POP PUSH1 0x0 DUP7 PUSH2 0xFFFF AND LT ISZERO JUMPDEST DUP1 ISZERO PUSH2 0x2292 JUMPI POP PUSH1 0x0 DUP6 PUSH2 0xFFFF AND LT ISZERO JUMPDEST PUSH2 0x22D1 JUMPI PUSH1 0x40 MLOAD PUSH32 0x8C379A000000000000000000000000000000000000000000000000000000000 DUP2 MSTORE PUSH1 0x4 ADD PUSH2 0x22C8 SWAP1 PUSH2 0x93C1 JUMP JUMPDEST PUSH1 0x40 MLOAD DUP1 SWAP2 SUB SWAP1 REVERT JUMPDEST PUSH2 0x3E8 DUP8 PUSH2 0xFFFF AND GT ISZERO DUP1 ISZERO PUSH2 0x22ED JUMPI POP PUSH2 0x3E8 DUP7 PUSH2 0xFFFF AND GT ISZERO JUMPDEST DUP1 ISZERO PUSH2 0x22FF JUMPI POP PUSH2 0x3E8 DUP6 PUSH2 0xFFFF AND GT ISZERO JUMPDEST PUSH2 0x233E JUMPI PUSH1 0x40 MLOAD PUSH32 0x8C379A000000000000000000000000000000000000000000000000000000000 DUP2 MSTORE PUSH1 0x4 ADD PUSH2 0x2335 SWAP1 PUSH2 0x93C1 JUMP JUMPDEST PUSH1 0x40 MLOAD DUP1 SWAP2 SUB SWAP1 REVERT JUMPDEST DUP7 PUSH1 0x0 PUSH1 0x14 PUSH2 0x100 EXP DUP2 SLOAD DUP2 PUSH2 0xFFFF MUL NOT AND SWAP1 DUP4 PUSH2 0xFFFF AND MUL OR SWAP1 SSTORE POP DUP6 PUSH1 0x0 PUSH1 0x16 PUSH2 0x100 EXP DUP2 SLOAD DUP2 PUSH2 0xFFFF MUL NOT AND SWAP1 DUP4 PUSH2 0xFFFF AND MUL OR SWAP1 SSTORE POP PUSH2 0x2381 DUP5 PUSH2 0x5C36 JUMP JUMPDEST DUP3 PUSH1 0xB PUSH1 0x0 PUSH2 0x100 EXP DUP2 SLOAD DUP2 PUSH20 0xFFFFFFFFFFFFFFFFFFFFFFFFFFFFFFFFFFFFFFFF MUL NOT AND SWAP1 DUP4 PUSH20 0xFFFFFFFFFFFFFFFFFFFFFFFFFFFFFFFFFFFFFFFF AND MUL OR SWAP1 SSTORE POP DUP2 PUSH1 0xC PUSH1 0x0 PUSH2 0x100 EXP DUP2 SLOAD DUP2 PUSH20 0xFFFFFFFFFFFFFFFFFFFFFFFFFFFFFFFFFFFFFFFF MUL NOT AND SWAP1 DUP4 PUSH20 0xFFFFFFFFFFFFFFFFFFFFFFFFFFFFFFFFFFFFFFFF AND MUL OR SWAP1 SSTORE POP DUP1 PUSH1 0xD PUSH1 0x0 PUSH2 0x100 EXP DUP2 SLOAD DUP2 PUSH20 0xFFFFFFFFFFFFFFFFFFFFFFFFFFFFFFFFFFFFFFFF MUL NOT AND SWAP1 DUP4 PUSH20 0xFFFFFFFFFFFFFFFFFFFFFFFFFFFFFFFFFFFFFFFF AND MUL OR SWAP1 SSTORE POP DUP5 PUSH1 0x0 PUSH1 0x18 PUSH2 0x100 EXP DUP2 SLOAD DUP2 PUSH2 0xFFFF MUL NOT AND SWAP1 DUP4 PUSH2 0xFFFF AND MUL OR SWAP1 SSTORE POP POP POP POP POP POP POP POP JUMP JUMPDEST PUSH2 0x2472 PUSH2 0x4309 JUMP JUMPDEST PUSH2 0x24B1 JUMPI PUSH1 0x40 MLOAD PUSH32 0x8C379A000000000000000000000000000000000000000000000000000000000 DUP2 MSTORE PUSH1 0x4 ADD PUSH2 0x24A8 SWAP1 PUSH2 0x93E1 JUMP JUMPDEST PUSH1 0x40 MLOAD DUP1 SWAP2 SUB SWAP1 REVERT JUMPDEST DUP2 PUSH1 0xB PUSH1 0x0 PUSH2 0x100 EXP DUP2 SLOAD DUP2 PUSH20 0xFFFFFFFFFFFFFFFFFFFFFFFFFFFFFFFFFFFFFFFF MUL NOT AND SWAP1 DUP4 PUSH20 0xFFFFFFFFFFFFFFFFFFFFFFFFFFFFFFFFFFFFFFFF AND MUL OR SWAP1 SSTORE POP DUP1 PUSH1 0xC PUSH1 0x0 PUSH2 0x100 EXP DUP2 SLOAD DUP2 PUSH20 0xFFFFFFFFFFFFFFFFFFFFFFFFFFFFFFFFFFFFFFFF MUL NOT AND SWAP1 DUP4 PUSH20 0xFFFFFFFFFFFFFFFFFFFFFFFFFFFFFFFFFFFFFFFF AND MUL OR SWAP1 SSTORE POP POP POP JUMP JUMPDEST PUSH2 0x253F PUSH2 0x4309 JUMP JUMPDEST PUSH2 0x257E JUMPI PUSH1 0x40 MLOAD PUSH32 0x8C379A000000000000000000000000000000000000000000000000000000000 DUP2 MSTORE PUSH1 0x4 ADD PUSH2 0x2575 SWAP1 PUSH2 0x93E1 JUMP JUMPDEST PUSH1 0x40 MLOAD DUP1 SWAP2 SUB SWAP1 REVERT JUMPDEST CALLER PUSH20 0xFFFFFFFFFFFFFFFFFFFFFFFFFFFFFFFFFFFFFFFF AND PUSH2 0x8FC PUSH1 0xE PUSH1 0x0 DUP1 PUSH20 0xFFFFFFFFFFFFFFFFFFFFFFFFFFFFFFFFFFFFFFFF AND PUSH20 0xFFFFFFFFFFFFFFFFFFFFFFFFFFFFFFFFFFFFFFFF AND DUP2 MSTORE PUSH1 0x20 ADD SWAP1 DUP2 MSTORE PUSH1 0x20 ADD PUSH1 0x0 KECCAK256 SLOAD SWAP1 DUP2 ISZERO MUL SWAP1 PUSH1 0x40 MLOAD PUSH1 0x0 PUSH1 0x40 MLOAD DUP1 DUP4 SUB DUP2 DUP6 DUP9 DUP9 CALL SWAP4 POP POP POP POP ISZERO DUP1 ISZERO PUSH2 0x2603 JUMPI RETURNDATASIZE PUSH1 0x0 DUP1 RETURNDATACOPY RETURNDATASIZE PUSH1 0x0 REVERT JUMPDEST POP PUSH1 0x0 PUSH1 0xE PUSH1 0x0 DUP1 PUSH20 0xFFFFFFFFFFFFFFFFFFFFFFFFFFFFFFFFFFFFFFFF AND PUSH20 0xFFFFFFFFFFFFFFFFFFFFFFFFFFFFFFFFFFFFFFFF AND DUP2 MSTORE PUSH1 0x20 ADD SWAP1 DUP2 MSTORE PUSH1 0x20 ADD PUSH1 0x0 KECCAK256 DUP2 SWAP1 SSTORE POP JUMP JUMPDEST PUSH1 0x0 DUP1 SWAP1 POP JUMPDEST DUP3 DUP3 SWAP1 POP DUP2 LT ISZERO PUSH2 0x26A8 JUMPI PUSH2 0x2664 PUSH2 0x79E5 JUMP JUMPDEST DUP4 DUP4 DUP4 DUP2 DUP2 LT PUSH2 0x2670 JUMPI INVALID JUMPDEST SWAP1 POP PUSH1 0x40 MUL ADD DUP1 CALLDATASIZE SUB PUSH2 0x2686 SWAP2 SWAP1 DUP2 ADD SWAP1 PUSH2 0x809E JUMP JUMPDEST SWAP1 POP PUSH2 0x269A DUP2 PUSH1 0x0 ADD MLOAD DUP3 PUSH1 0x20 ADD MLOAD PUSH2 0xDCA JUMP JUMPDEST POP DUP1 DUP1 PUSH1 0x1 ADD SWAP2 POP POP PUSH2 0x2651 JUMP JUMPDEST POP POP POP JUMP JUMPDEST PUSH1 0x7 PUSH1 0x20 MSTORE DUP2 PUSH1 0x0 MSTORE PUSH1 0x40 PUSH1 0x0 KECCAK256 PUSH1 0x20 MSTORE DUP1 PUSH1 0x0 MSTORE PUSH1 0x40 PUSH1 0x0 KECCAK256 PUSH1 0x0 SWAP2 POP SWAP2 POP POP DUP1 PUSH1 0x0 ADD PUSH1 0x0 SWAP1 SLOAD SWAP1 PUSH2 0x100 EXP SWAP1 DIV PUSH20 0xFFFFFFFFFFFFFFFFFFFFFFFFFFFFFFFFFFFFFFFF AND SWAP1 DUP1 PUSH1 0x1 ADD SLOAD SWAP1 DUP1 PUSH1 0x2 ADD PUSH1 0x0 SWAP1 SLOAD SWAP1 PUSH2 0x100 EXP SWAP1 DIV PUSH20 0xFFFFFFFFFFFFFFFFFFFFFFFFFFFFFFFFFFFFFFFF AND SWAP1 DUP1 PUSH1 0x3 ADD SLOAD SWAP1 DUP1 PUSH1 0x4 ADD SLOAD SWAP1 DUP1 PUSH1 0x5 ADD SLOAD SWAP1 DUP1 PUSH1 0x6 ADD PUSH1 0x0 SWAP1 SLOAD SWAP1 PUSH2 0x100 EXP SWAP1 DIV PUSH1 0xFF AND SWAP1 DUP1 PUSH1 0x7 ADD SLOAD SWAP1 DUP1 PUSH1 0x8 ADD SLOAD SWAP1 DUP1 PUSH1 0x9 ADD PUSH1 0x0 SWAP1 SLOAD SWAP1 PUSH2 0x100 EXP SWAP1 DIV PUSH20 0xFFFFFFFFFFFFFFFFFFFFFFFFFFFFFFFFFFFFFFFF AND SWAP1 POP DUP11 JUMP JUMPDEST PUSH1 0xC PUSH1 0x0 SWAP1 SLOAD SWAP1 PUSH2 0x100 EXP SWAP1 DIV PUSH20 0xFFFFFFFFFFFFFFFFFFFFFFFFFFFFFFFFFFFFFFFF AND DUP2 JUMP JUMPDEST DUP1 PUSH1 0x0 PUSH20 0xFFFFFFFFFFFFFFFFFFFFFFFFFFFFFFFFFFFFFFFF AND DUP2 PUSH20 0xFFFFFFFFFFFFFFFFFFFFFFFFFFFFFFFFFFFFFFFF AND EQ PUSH2 0x282A JUMPI PUSH2 0x27EA DUP2 PUSH1 0xA PUSH2 0x6BAF SWAP1 SWAP2 SWAP1 PUSH4 0xFFFFFFFF AND JUMP JUMPDEST PUSH2 0x2829 JUMPI PUSH1 0x40 MLOAD PUSH32 0x8C379A000000000000000000000000000000000000000000000000000000000 DUP2 MSTORE PUSH1 0x4 ADD PUSH2 0x2820 SWAP1 PUSH2 0x94C1 JUMP JUMPDEST PUSH1 0x40 MLOAD DUP1 SWAP2 SUB SWAP1 REVERT JUMPDEST JUMPDEST DUP9 DUP4 CALLER PUSH20 0xFFFFFFFFFFFFFFFFFFFFFFFFFFFFFFFFFFFFFFFF AND DUP2 PUSH20 0xFFFFFFFFFFFFFFFFFFFFFFFFFFFFFFFFFFFFFFFF AND PUSH4 0x6352211E DUP5 PUSH1 0x40 MLOAD DUP3 PUSH4 0xFFFFFFFF AND PUSH1 0xE0 SHL DUP2 MSTORE PUSH1 0x4 ADD PUSH2 0x287C SWAP2 SWAP1 PUSH2 0x9570 JUMP JUMPDEST PUSH1 0x20 PUSH1 0x40 MLOAD DUP1 DUP4 SUB DUP2 DUP7 DUP1 EXTCODESIZE ISZERO DUP1 ISZERO PUSH2 0x2894 JUMPI PUSH1 0x0 DUP1 REVERT JUMPDEST POP GAS STATICCALL ISZERO DUP1 ISZERO PUSH2 0x28A8 JUMPI RETURNDATASIZE PUSH1 0x0 DUP1 RETURNDATACOPY RETURNDATASIZE PUSH1 0x0 REVERT JUMPDEST POP POP POP POP PUSH1 0x40 MLOAD RETURNDATASIZE PUSH1 0x1F NOT PUSH1 0x1F DUP3 ADD AND DUP3 ADD DUP1 PUSH1 0x40 MSTORE POP PUSH2 0x28CC SWAP2 SWAP1 DUP2 ADD SWAP1 PUSH2 0x7DB6 JUMP JUMPDEST PUSH20 0xFFFFFFFFFFFFFFFFFFFFFFFFFFFFFFFFFFFFFFFF AND EQ PUSH2 0x2922 JUMPI PUSH1 0x40 MLOAD PUSH32 0x8C379A000000000000000000000000000000000000000000000000000000000 DUP2 MSTORE PUSH1 0x4 ADD PUSH2 0x2919 SWAP1 PUSH2 0x9181 JUMP JUMPDEST PUSH1 0x40 MLOAD DUP1 SWAP2 SUB SWAP1 REVERT JUMPDEST PUSH1 0x0 DUP6 SWAP1 POP PUSH2 0x292F PUSH2 0x78EE JUMP JUMPDEST PUSH1 0x7 PUSH1 0x0 DUP9 PUSH20 0xFFFFFFFFFFFFFFFFFFFFFFFFFFFFFFFFFFFFFFFF AND PUSH20 0xFFFFFFFFFFFFFFFFFFFFFFFFFFFFFFFFFFFFFFFF AND DUP2 MSTORE PUSH1 0x20 ADD SWAP1 DUP2 MSTORE PUSH1 0x20 ADD PUSH1 0x0 KECCAK256 PUSH1 0x0 DUP15 DUP2 MSTORE PUSH1 0x20 ADD SWAP1 DUP2 MSTORE PUSH1 0x20 ADD PUSH1 0x0 KECCAK256 PUSH1 0x40 MLOAD DUP1 PUSH2 0x140 ADD PUSH1 0x40 MSTORE SWAP1 DUP2 PUSH1 0x0 DUP3 ADD PUSH1 0x0 SWAP1 SLOAD SWAP1 PUSH2 0x100 EXP SWAP1 DIV PUSH20 0xFFFFFFFFFFFFFFFFFFFFFFFFFFFFFFFFFFFFFFFF AND PUSH20 0xFFFFFFFFFFFFFFFFFFFFFFFFFFFFFFFFFFFFFFFF AND PUSH20 0xFFFFFFFFFFFFFFFFFFFFFFFFFFFFFFFFFFFFFFFF AND DUP2 MSTORE PUSH1 0x20 ADD PUSH1 0x1 DUP3 ADD SLOAD DUP2 MSTORE PUSH1 0x20 ADD PUSH1 0x2 DUP3 ADD PUSH1 0x0 SWAP1 SLOAD SWAP1 PUSH2 0x100 EXP SWAP1 DIV PUSH20 0xFFFFFFFFFFFFFFFFFFFFFFFFFFFFFFFFFFFFFFFF AND PUSH20 0xFFFFFFFFFFFFFFFFFFFFFFFFFFFFFFFFFFFFFFFF AND PUSH20 0xFFFFFFFFFFFFFFFFFFFFFFFFFFFFFFFFFFFFFFFF AND DUP2 MSTORE PUSH1 0x20 ADD PUSH1 0x3 DUP3 ADD SLOAD DUP2 MSTORE PUSH1 0x20 ADD PUSH1 0x4 DUP3 ADD SLOAD DUP2 MSTORE PUSH1 0x20 ADD PUSH1 0x5 DUP3 ADD SLOAD DUP2 MSTORE PUSH1 0x20 ADD PUSH1 0x6 DUP3 ADD PUSH1 0x0 SWAP1 SLOAD SWAP1 PUSH2 0x100 EXP SWAP1 DIV PUSH1 0xFF AND ISZERO ISZERO ISZERO ISZERO DUP2 MSTORE PUSH1 0x20 ADD PUSH1 0x7 DUP3 ADD SLOAD DUP2 MSTORE PUSH1 0x20 ADD PUSH1 0x8 DUP3 ADD SLOAD DUP2 MSTORE PUSH1 0x20 ADD PUSH1 0x9 DUP3 ADD PUSH1 0x0 SWAP1 SLOAD SWAP1 PUSH2 0x100 EXP SWAP1 DIV PUSH20 0xFFFFFFFFFFFFFFFFFFFFFFFFFFFFFFFFFFFFFFFF AND PUSH20 0xFFFFFFFFFFFFFFFFFFFFFFFFFFFFFFFFFFFFFFFF AND PUSH20 0xFFFFFFFFFFFFFFFFFFFFFFFFFFFFFFFFFFFFFFFF AND DUP2 MSTORE POP POP SWAP1 POP PUSH1 0x1 ISZERO ISZERO PUSH1 0x2 PUSH1 0x0 DUP10 PUSH20 0xFFFFFFFFFFFFFFFFFFFFFFFFFFFFFFFFFFFFFFFF AND PUSH20 0xFFFFFFFFFFFFFFFFFFFFFFFFFFFFFFFFFFFFFFFF AND DUP2 MSTORE PUSH1 0x20 ADD SWAP1 DUP2 MSTORE PUSH1 0x20 ADD PUSH1 0x0 KECCAK256 PUSH1 0x0 DUP16 DUP2 MSTORE PUSH1 0x20 ADD SWAP1 DUP2 MSTORE PUSH1 0x20 ADD PUSH1 0x0 KECCAK256 PUSH1 0x0 SWAP1 SLOAD SWAP1 PUSH2 0x100 EXP SWAP1 DIV PUSH1 0xFF AND ISZERO ISZERO EQ ISZERO PUSH2 0x2BBC JUMPI PUSH1 0x2 DUP2 PUSH1 0x60 ADD MLOAD EQ DUP1 ISZERO PUSH2 0x2B6C JUMPI POP PUSH1 0x0 ISZERO ISZERO DUP2 PUSH1 0xC0 ADD MLOAD ISZERO ISZERO EQ JUMPDEST DUP1 ISZERO PUSH2 0x2B7C JUMPI POP DUP1 PUSH2 0x100 ADD MLOAD TIMESTAMP GT JUMPDEST PUSH2 0x2BBB JUMPI PUSH1 0x40 MLOAD PUSH32 0x8C379A000000000000000000000000000000000000000000000000000000000 DUP2 MSTORE PUSH1 0x4 ADD PUSH2 0x2BB2 SWAP1 PUSH2 0x9381 JUMP JUMPDEST PUSH1 0x40 MLOAD DUP1 SWAP2 SUB SWAP1 REVERT JUMPDEST JUMPDEST PUSH2 0x2BC4 PUSH2 0x7985 JUMP JUMPDEST PUSH1 0x40 MLOAD DUP1 PUSH1 0x40 ADD PUSH1 0x40 MSTORE DUP1 DUP10 PUSH20 0xFFFFFFFFFFFFFFFFFFFFFFFFFFFFFFFFFFFFFFFF AND DUP2 MSTORE PUSH1 0x20 ADD DUP16 DUP2 MSTORE POP SWAP1 POP PUSH2 0x2BF9 PUSH2 0x78EE JUMP JUMPDEST PUSH1 0x40 MLOAD DUP1 PUSH2 0x140 ADD PUSH1 0x40 MSTORE DUP1 CALLER PUSH20 0xFFFFFFFFFFFFFFFFFFFFFFFFFFFFFFFFFFFFFFFF AND DUP2 MSTORE PUSH1 0x20 ADD DUP16 DUP2 MSTORE PUSH1 0x20 ADD PUSH1 0x0 PUSH20 0xFFFFFFFFFFFFFFFFFFFFFFFFFFFFFFFFFFFFFFFF AND DUP2 MSTORE PUSH1 0x20 ADD DUP15 DUP2 MSTORE PUSH1 0x20 ADD DUP16 DUP2 MSTORE PUSH1 0x20 ADD DUP14 DUP2 MSTORE PUSH1 0x20 ADD PUSH1 0x0 ISZERO ISZERO DUP2 MSTORE PUSH1 0x20 ADD DUP13 DUP2 MSTORE PUSH1 0x20 ADD DUP12 DUP2 MSTORE PUSH1 0x20 ADD DUP10 PUSH20 0xFFFFFFFFFFFFFFFFFFFFFFFFFFFFFFFFFFFFFFFF AND DUP2 MSTORE POP SWAP1 POP DUP4 PUSH20 0xFFFFFFFFFFFFFFFFFFFFFFFFFFFFFFFFFFFFFFFF AND PUSH4 0xE985E9C5 CALLER ADDRESS PUSH1 0x40 MLOAD DUP4 PUSH4 0xFFFFFFFF AND PUSH1 0xE0 SHL DUP2 MSTORE PUSH1 0x4 ADD PUSH2 0x2CC2 SWAP3 SWAP2 SWAP1 PUSH2 0x8E75 JUMP JUMPDEST PUSH1 0x20 PUSH1 0x40 MLOAD DUP1 DUP4 SUB DUP2 DUP7 DUP1 EXTCODESIZE ISZERO DUP1 ISZERO PUSH2 0x2CDA JUMPI PUSH1 0x0 DUP1 REVERT JUMPDEST POP GAS STATICCALL ISZERO DUP1 ISZERO PUSH2 0x2CEE JUMPI RETURNDATASIZE PUSH1 0x0 DUP1 RETURNDATACOPY RETURNDATASIZE PUSH1 0x0 REVERT JUMPDEST POP POP POP POP PUSH1 0x40 MLOAD RETURNDATASIZE PUSH1 0x1F NOT PUSH1 0x1F DUP3 ADD AND DUP3 ADD DUP1 PUSH1 0x40 MSTORE POP PUSH2 0x2D12 SWAP2 SWAP1 DUP2 ADD SWAP1 PUSH2 0x804B JUMP JUMPDEST DUP1 PUSH2 0x2DD4 JUMPI POP ADDRESS PUSH20 0xFFFFFFFFFFFFFFFFFFFFFFFFFFFFFFFFFFFFFFFF AND DUP5 PUSH20 0xFFFFFFFFFFFFFFFFFFFFFFFFFFFFFFFFFFFFFFFF AND PUSH4 0x81812FC DUP5 PUSH1 0x20 ADD MLOAD PUSH1 0x40 MLOAD DUP3 PUSH4 0xFFFFFFFF AND PUSH1 0xE0 SHL DUP2 MSTORE PUSH1 0x4 ADD PUSH2 0x2D6C SWAP2 SWAP1 PUSH2 0x9570 JUMP JUMPDEST PUSH1 0x20 PUSH1 0x40 MLOAD DUP1 DUP4 SUB DUP2 DUP7 DUP1 EXTCODESIZE ISZERO DUP1 ISZERO PUSH2 0x2D84 JUMPI PUSH1 0x0 DUP1 REVERT JUMPDEST POP GAS STATICCALL ISZERO DUP1 ISZERO PUSH2 0x2D98 JUMPI RETURNDATASIZE PUSH1 0x0 DUP1 RETURNDATACOPY RETURNDATASIZE PUSH1 0x0 REVERT JUMPDEST POP POP POP POP PUSH1 0x40 MLOAD RETURNDATASIZE PUSH1 0x1F NOT PUSH1 0x1F DUP3 ADD AND DUP3 ADD DUP1 PUSH1 0x40 MSTORE POP PUSH2 0x2DBC SWAP2 SWAP1 DUP2 ADD SWAP1 PUSH2 0x7DB6 JUMP JUMPDEST PUSH20 0xFFFFFFFFFFFFFFFFFFFFFFFFFFFFFFFFFFFFFFFF AND EQ JUMPDEST PUSH2 0x2E13 JUMPI PUSH1 0x40 MLOAD PUSH32 0x8C379A000000000000000000000000000000000000000000000000000000000 DUP2 MSTORE PUSH1 0x4 ADD PUSH2 0x2E0A SWAP1 PUSH2 0x9361 JUMP JUMPDEST PUSH1 0x40 MLOAD DUP1 SWAP2 SUB SWAP1 REVERT JUMPDEST DUP11 DUP11 GT PUSH2 0x2E55 JUMPI PUSH1 0x40 MLOAD PUSH32 0x8C379A000000000000000000000000000000000000000000000000000000000 DUP2 MSTORE PUSH1 0x4 ADD PUSH2 0x2E4C SWAP1 PUSH2 0x9481 JUMP JUMPDEST PUSH1 0x40 MLOAD DUP1 SWAP2 SUB SWAP1 REVERT JUMPDEST DUP1 PUSH1 0x7 PUSH1 0x0 DUP5 PUSH1 0x0 ADD MLOAD PUSH20 0xFFFFFFFFFFFFFFFFFFFFFFFFFFFFFFFFFFFFFFFF AND PUSH20 0xFFFFFFFFFFFFFFFFFFFFFFFFFFFFFFFFFFFFFFFF AND DUP2 MSTORE PUSH1 0x20 ADD SWAP1 DUP2 MSTORE PUSH1 0x20 ADD PUSH1 0x0 KECCAK256 PUSH1 0x0 DUP5 PUSH1 0x20 ADD MLOAD DUP2 MSTORE PUSH1 0x20 ADD SWAP1 DUP2 MSTORE PUSH1 0x20 ADD PUSH1 0x0 KECCAK256 PUSH1 0x0 DUP3 ADD MLOAD DUP2 PUSH1 0x0 ADD PUSH1 0x0 PUSH2 0x100 EXP DUP2 SLOAD DUP2 PUSH20 0xFFFFFFFFFFFFFFFFFFFFFFFFFFFFFFFFFFFFFFFF MUL NOT AND SWAP1 DUP4 PUSH20 0xFFFFFFFFFFFFFFFFFFFFFFFFFFFFFFFFFFFFFFFF AND MUL OR SWAP1 SSTORE POP PUSH1 0x20 DUP3 ADD MLOAD DUP2 PUSH1 0x1 ADD SSTORE PUSH1 0x40 DUP3 ADD MLOAD DUP2 PUSH1 0x2 ADD PUSH1 0x0 PUSH2 0x100 EXP DUP2 SLOAD DUP2 PUSH20 0xFFFFFFFFFFFFFFFFFFFFFFFFFFFFFFFFFFFFFFFF MUL NOT AND SWAP1 DUP4 PUSH20 0xFFFFFFFFFFFFFFFFFFFFFFFFFFFFFFFFFFFFFFFF AND MUL OR SWAP1 SSTORE POP PUSH1 0x60 DUP3 ADD MLOAD DUP2 PUSH1 0x3 ADD SSTORE PUSH1 0x80 DUP3 ADD MLOAD DUP2 PUSH1 0x4 ADD SSTORE PUSH1 0xA0 DUP3 ADD MLOAD DUP2 PUSH1 0x5 ADD SSTORE PUSH1 0xC0 DUP3 ADD MLOAD DUP2 PUSH1 0x6 ADD PUSH1 0x0 PUSH2 0x100 EXP DUP2 SLOAD DUP2 PUSH1 0xFF MUL NOT AND SWAP1 DUP4 ISZERO ISZERO MUL OR SWAP1 SSTORE POP PUSH1 0xE0 DUP3 ADD MLOAD DUP2 PUSH1 0x7 ADD SSTORE PUSH2 0x100 DUP3 ADD MLOAD DUP2 PUSH1 0x8 ADD SSTORE PUSH2 0x120 DUP3 ADD MLOAD DUP2 PUSH1 0x9 ADD PUSH1 0x0 PUSH2 0x100 EXP DUP2 SLOAD DUP2 PUSH20 0xFFFFFFFFFFFFFFFFFFFFFFFFFFFFFFFFFFFFFFFF MUL NOT AND SWAP1 DUP4 PUSH20 0xFFFFFFFFFFFFFFFFFFFFFFFFFFFFFFFFFFFFFFFF AND MUL OR SWAP1 SSTORE POP SWAP1 POP POP PUSH1 0x0 ISZERO ISZERO PUSH1 0x2 PUSH1 0x0 DUP5 PUSH1 0x0 ADD MLOAD PUSH20 0xFFFFFFFFFFFFFFFFFFFFFFFFFFFFFFFFFFFFFFFF AND PUSH20 0xFFFFFFFFFFFFFFFFFFFFFFFFFFFFFFFFFFFFFFFF AND DUP2 MSTORE PUSH1 0x20 ADD SWAP1 DUP2 MSTORE PUSH1 0x20 ADD PUSH1 0x0 KECCAK256 PUSH1 0x0 DUP5 PUSH1 0x20 ADD MLOAD DUP2 MSTORE PUSH1 0x20 ADD SWAP1 DUP2 MSTORE PUSH1 0x20 ADD PUSH1 0x0 KECCAK256 PUSH1 0x0 SWAP1 SLOAD SWAP1 PUSH2 0x100 EXP SWAP1 DIV PUSH1 0xFF AND ISZERO ISZERO EQ ISZERO PUSH2 0x32CE JUMPI PUSH1 0x1 PUSH1 0x2 PUSH1 0x0 DUP5 PUSH1 0x0 ADD MLOAD PUSH20 0xFFFFFFFFFFFFFFFFFFFFFFFFFFFFFFFFFFFFFFFF AND PUSH20 0xFFFFFFFFFFFFFFFFFFFFFFFFFFFFFFFFFFFFFFFF AND DUP2 MSTORE PUSH1 0x20 ADD SWAP1 DUP2 MSTORE PUSH1 0x20 ADD PUSH1 0x0 KECCAK256 PUSH1 0x0 DUP5 PUSH1 0x20 ADD MLOAD DUP2 MSTORE PUSH1 0x20 ADD SWAP1 DUP2 MSTORE PUSH1 0x20 ADD PUSH1 0x0 KECCAK256 PUSH1 0x0 PUSH2 0x100 EXP DUP2 SLOAD DUP2 PUSH1 0xFF MUL NOT AND SWAP1 DUP4 ISZERO ISZERO MUL OR SWAP1 SSTORE POP PUSH1 0x9 PUSH20 0x0 PUSH4 0xFD7C9A15 SWAP1 SWAP2 DUP5 PUSH1 0x40 MLOAD DUP4 PUSH4 0xFFFFFFFF AND PUSH1 0xE0 SHL DUP2 MSTORE PUSH1 0x4 ADD PUSH2 0x3103 SWAP3 SWAP2 SWAP1 PUSH2 0x94E1 JUMP JUMPDEST PUSH1 0x0 PUSH1 0x40 MLOAD DUP1 DUP4 SUB DUP2 DUP7 DUP1 EXTCODESIZE ISZERO DUP1 ISZERO PUSH2 0x311B JUMPI PUSH1 0x0 DUP1 REVERT JUMPDEST POP GAS DELEGATECALL ISZERO DUP1 ISZERO PUSH2 0x312F JUMPI RETURNDATASIZE PUSH1 0x0 DUP1 RETURNDATACOPY RETURNDATASIZE PUSH1 0x0 REVERT JUMPDEST POP POP POP POP PUSH1 0x3 PUSH1 0x0 CALLER PUSH20 0xFFFFFFFFFFFFFFFFFFFFFFFFFFFFFFFFFFFFFFFF AND PUSH20 0xFFFFFFFFFFFFFFFFFFFFFFFFFFFFFFFFFFFFFFFF AND DUP2 MSTORE PUSH1 0x20 ADD SWAP1 DUP2 MSTORE PUSH1 0x20 ADD PUSH1 0x0 KECCAK256 PUSH20 0x0 PUSH4 0xFD7C9A15 SWAP1 SWAP2 DUP5 PUSH1 0x40 MLOAD DUP4 PUSH4 0xFFFFFFFF AND PUSH1 0xE0 SHL DUP2 MSTORE PUSH1 0x4 ADD PUSH2 0x31AC SWAP3 SWAP2 SWAP1 PUSH2 0x94E1 JUMP JUMPDEST PUSH1 0x0 PUSH1 0x40 MLOAD DUP1 DUP4 SUB DUP2 DUP7 DUP1 EXTCODESIZE ISZERO DUP1 ISZERO PUSH2 0x31C4 JUMPI PUSH1 0x0 DUP1 REVERT JUMPDEST POP GAS DELEGATECALL ISZERO DUP1 ISZERO PUSH2 0x31D8 JUMPI RETURNDATASIZE PUSH1 0x0 DUP1 RETURNDATACOPY RETURNDATASIZE PUSH1 0x0 REVERT JUMPDEST POP POP POP POP PUSH1 0x1 DUP14 EQ ISZERO PUSH2 0x3256 JUMPI PUSH1 0x4 PUSH20 0x0 PUSH4 0xFD7C9A15 SWAP1 SWAP2 DUP5 PUSH1 0x40 MLOAD DUP4 PUSH4 0xFFFFFFFF AND PUSH1 0xE0 SHL DUP2 MSTORE PUSH1 0x4 ADD PUSH2 0x3221 SWAP3 SWAP2 SWAP1 PUSH2 0x94E1 JUMP JUMPDEST PUSH1 0x0 PUSH1 0x40 MLOAD DUP1 DUP4 SUB DUP2 DUP7 DUP1 EXTCODESIZE ISZERO DUP1 ISZERO PUSH2 0x3239 JUMPI PUSH1 0x0 DUP1 REVERT JUMPDEST POP GAS DELEGATECALL ISZERO DUP1 ISZERO PUSH2 0x324D JUMPI RETURNDATASIZE PUSH1 0x0 DUP1 RETURNDATACOPY RETURNDATASIZE PUSH1 0x0 REVERT JUMPDEST POP POP POP POP PUSH2 0x32CD JUMP JUMPDEST PUSH1 0x2 DUP14 EQ ISZERO PUSH2 0x32CC JUMPI PUSH1 0x5 PUSH20 0x0 PUSH4 0xFD7C9A15 SWAP1 SWAP2 DUP5 PUSH1 0x40 MLOAD DUP4 PUSH4 0xFFFFFFFF AND PUSH1 0xE0 SHL DUP2 MSTORE PUSH1 0x4 ADD PUSH2 0x329B SWAP3 SWAP2 SWAP1 PUSH2 0x94E1 JUMP JUMPDEST PUSH1 0x0 PUSH1 0x40 MLOAD DUP1 DUP4 SUB DUP2 DUP7 DUP1 EXTCODESIZE ISZERO DUP1 ISZERO PUSH2 0x32B3 JUMPI PUSH1 0x0 DUP1 REVERT JUMPDEST POP GAS DELEGATECALL ISZERO DUP1 ISZERO PUSH2 0x32C7 JUMPI RETURNDATASIZE PUSH1 0x0 DUP1 RETURNDATACOPY RETURNDATASIZE PUSH1 0x0 REVERT JUMPDEST POP POP POP POP JUMPDEST JUMPDEST JUMPDEST CALLER PUSH20 0xFFFFFFFFFFFFFFFFFFFFFFFFFFFFFFFFFFFFFFFF AND DUP3 PUSH1 0x20 ADD MLOAD DUP4 PUSH1 0x0 ADD MLOAD PUSH20 0xFFFFFFFFFFFFFFFFFFFFFFFFFFFFFFFFFFFFFFFF AND PUSH32 0xAB6ED0D1A912B3DE36CC5B4C42EB3B65A1BAA1321EC3A4BE61D51708EC37C8CB DUP5 PUSH1 0x60 ADD MLOAD PUSH1 0x1 DUP7 PUSH1 0x60 ADD MLOAD EQ PUSH2 0x3341 JUMPI DUP6 PUSH1 0x80 ADD MLOAD PUSH2 0x3347 JUMP JUMPDEST DUP6 PUSH1 0xA0 ADD MLOAD JUMPDEST TIMESTAMP DUP8 PUSH2 0x120 ADD MLOAD PUSH1 0x40 MLOAD PUSH2 0x335E SWAP5 SWAP4 SWAP3 SWAP2 SWAP1 PUSH2 0x95B4 JUMP JUMPDEST PUSH1 0x40 MLOAD DUP1 SWAP2 SUB SWAP1 LOG4 POP POP POP POP POP POP POP POP POP POP POP POP POP POP POP JUMP JUMPDEST PUSH1 0x60 PUSH1 0x9 PUSH1 0x0 ADD DUP1 SLOAD DUP1 PUSH1 0x20 MUL PUSH1 0x20 ADD PUSH1 0x40 MLOAD SWAP1 DUP2 ADD PUSH1 0x40 MSTORE DUP1 SWAP3 SWAP2 SWAP1 DUP2 DUP2 MSTORE PUSH1 0x20 ADD PUSH1 0x0 SWAP1 JUMPDEST DUP3 DUP3 LT ISZERO PUSH2 0x3430 JUMPI DUP4 DUP3 SWAP1 PUSH1 0x0 MSTORE PUSH1 0x20 PUSH1 0x0 KECCAK256 SWAP1 PUSH1 0x2 MUL ADD PUSH1 0x40 MLOAD DUP1 PUSH1 0x40 ADD PUSH1 0x40 MSTORE SWAP1 DUP2 PUSH1 0x0 DUP3 ADD PUSH1 0x0 SWAP1 SLOAD SWAP1 PUSH2 0x100 EXP SWAP1 DIV PUSH20 0xFFFFFFFFFFFFFFFFFFFFFFFFFFFFFFFFFFFFFFFF AND PUSH20 0xFFFFFFFFFFFFFFFFFFFFFFFFFFFFFFFFFFFFFFFF AND PUSH20 0xFFFFFFFFFFFFFFFFFFFFFFFFFFFFFFFFFFFFFFFF AND DUP2 MSTORE PUSH1 0x20 ADD PUSH1 0x1 DUP3 ADD SLOAD DUP2 MSTORE POP POP DUP2 MSTORE PUSH1 0x20 ADD SWAP1 PUSH1 0x1 ADD SWAP1 PUSH2 0x339E JUMP JUMPDEST POP POP POP POP SWAP1 POP SWAP1 JUMP JUMPDEST PUSH2 0x3441 PUSH2 0x7A15 JUMP JUMPDEST PUSH1 0xA PUSH1 0x40 MLOAD DUP1 PUSH1 0x20 ADD PUSH1 0x40 MSTORE SWAP1 DUP2 PUSH1 0x0 DUP3 ADD DUP1 SLOAD DUP1 PUSH1 0x20 MUL PUSH1 0x20 ADD PUSH1 0x40 MLOAD SWAP1 DUP2 ADD PUSH1 0x40 MSTORE DUP1 SWAP3 SWAP2 SWAP1 DUP2 DUP2 MSTORE PUSH1 0x20 ADD DUP3 DUP1 SLOAD DUP1 ISZERO PUSH2 0x34D3 JUMPI PUSH1 0x20 MUL DUP3 ADD SWAP2 SWAP1 PUSH1 0x0 MSTORE PUSH1 0x20 PUSH1 0x0 KECCAK256 SWAP1 JUMPDEST DUP2 PUSH1 0x0 SWAP1 SLOAD SWAP1 PUSH2 0x100 EXP SWAP1 DIV PUSH20 0xFFFFFFFFFFFFFFFFFFFFFFFFFFFFFFFFFFFFFFFF AND PUSH20 0xFFFFFFFFFFFFFFFFFFFFFFFFFFFFFFFFFFFFFFFF AND DUP2 MSTORE PUSH1 0x20 ADD SWAP1 PUSH1 0x1 ADD SWAP1 DUP1 DUP4 GT PUSH2 0x3489 JUMPI JUMPDEST POP POP POP POP POP DUP2 MSTORE POP POP SWAP1 POP SWAP1 JUMP JUMPDEST PUSH1 0xE PUSH1 0x20 MSTORE DUP1 PUSH1 0x0 MSTORE PUSH1 0x40 PUSH1 0x0 KECCAK256 PUSH1 0x0 SWAP2 POP SWAP1 POP SLOAD DUP2 JUMP JUMPDEST DUP3 DUP3 PUSH1 0x1 ISZERO ISZERO PUSH1 0x2 PUSH1 0x0 DUP4 PUSH20 0xFFFFFFFFFFFFFFFFFFFFFFFFFFFFFFFFFFFFFFFF AND PUSH20 0xFFFFFFFFFFFFFFFFFFFFFFFFFFFFFFFFFFFFFFFF AND DUP2 MSTORE PUSH1 0x20 ADD SWAP1 DUP2 MSTORE PUSH1 0x20 ADD PUSH1 0x0 KECCAK256 PUSH1 0x0 DUP5 DUP2 MSTORE PUSH1 0x20 ADD SWAP1 DUP2 MSTORE PUSH1 0x20 ADD PUSH1 0x0 KECCAK256 PUSH1 0x0 SWAP1 SLOAD SWAP1 PUSH2 0x100 EXP SWAP1 DIV PUSH1 0xFF AND ISZERO ISZERO EQ PUSH2 0x359F JUMPI PUSH1 0x40 MLOAD PUSH32 0x8C379A000000000000000000000000000000000000000000000000000000000 DUP2 MSTORE PUSH1 0x4 ADD PUSH2 0x3596 SWAP1 PUSH2 0x9341 JUMP JUMPDEST PUSH1 0x40 MLOAD DUP1 SWAP2 SUB SWAP1 REVERT JUMPDEST DUP5 DUP5 PUSH1 0x2 PUSH1 0x7 PUSH1 0x0 DUP4 PUSH20 0xFFFFFFFFFFFFFFFFFFFFFFFFFFFFFFFFFFFFFFFF AND PUSH20 0xFFFFFFFFFFFFFFFFFFFFFFFFFFFFFFFFFFFFFFFF AND DUP2 MSTORE PUSH1 0x20 ADD SWAP1 DUP2 MSTORE PUSH1 0x20 ADD PUSH1 0x0 KECCAK256 PUSH1 0x0 DUP5 DUP2 MSTORE PUSH1 0x20 ADD SWAP1 DUP2 MSTORE PUSH1 0x20 ADD PUSH1 0x0 KECCAK256 PUSH1 0x3 ADD SLOAD EQ ISZERO PUSH2 0x3638 JUMPI PUSH1 0x40 MLOAD PUSH32 0x8C379A000000000000000000000000000000000000000000000000000000000 DUP2 MSTORE PUSH1 0x4 ADD PUSH2 0x362F SWAP1 PUSH2 0x9221 JUMP JUMPDEST PUSH1 0x40 MLOAD DUP1 SWAP2 SUB SWAP1 REVERT JUMPDEST PUSH1 0x0 DUP7 SWAP1 POP PUSH2 0x3645 PUSH2 0x78EE JUMP JUMPDEST PUSH1 0x7 PUSH1 0x0 DUP10 PUSH20 0xFFFFFFFFFFFFFFFFFFFFFFFFFFFFFFFFFFFFFFFF AND PUSH20 0xFFFFFFFFFFFFFFFFFFFFFFFFFFFFFFFFFFFFFFFF AND DUP2 MSTORE PUSH1 0x20 ADD SWAP1 DUP2 MSTORE PUSH1 0x20 ADD PUSH1 0x0 KECCAK256 PUSH1 0x0 DUP11 DUP2 MSTORE PUSH1 0x20 ADD SWAP1 DUP2 MSTORE PUSH1 0x20 ADD PUSH1 0x0 KECCAK256 PUSH1 0x40 MLOAD DUP1 PUSH2 0x140 ADD PUSH1 0x40 MSTORE SWAP1 DUP2 PUSH1 0x0 DUP3 ADD PUSH1 0x0 SWAP1 SLOAD SWAP1 PUSH2 0x100 EXP SWAP1 DIV PUSH20 0xFFFFFFFFFFFFFFFFFFFFFFFFFFFFFFFFFFFFFFFF AND PUSH20 0xFFFFFFFFFFFFFFFFFFFFFFFFFFFFFFFFFFFFFFFF AND PUSH20 0xFFFFFFFFFFFFFFFFFFFFFFFFFFFFFFFFFFFFFFFF AND DUP2 MSTORE PUSH1 0x20 ADD PUSH1 0x1 DUP3 ADD SLOAD DUP2 MSTORE PUSH1 0x20 ADD PUSH1 0x2 DUP3 ADD PUSH1 0x0 SWAP1 SLOAD SWAP1 PUSH2 0x100 EXP SWAP1 DIV PUSH20 0xFFFFFFFFFFFFFFFFFFFFFFFFFFFFFFFFFFFFFFFF AND PUSH20 0xFFFFFFFFFFFFFFFFFFFFFFFFFFFFFFFFFFFFFFFF AND PUSH20 0xFFFFFFFFFFFFFFFFFFFFFFFFFFFFFFFFFFFFFFFF AND DUP2 MSTORE PUSH1 0x20 ADD PUSH1 0x3 DUP3 ADD SLOAD DUP2 MSTORE PUSH1 0x20 ADD PUSH1 0x4 DUP3 ADD SLOAD DUP2 MSTORE PUSH1 0x20 ADD PUSH1 0x5 DUP3 ADD SLOAD DUP2 MSTORE PUSH1 0x20 ADD PUSH1 0x6 DUP3 ADD PUSH1 0x0 SWAP1 SLOAD SWAP1 PUSH2 0x100 EXP SWAP1 DIV PUSH1 0xFF AND ISZERO ISZERO ISZERO ISZERO DUP2 MSTORE PUSH1 0x20 ADD PUSH1 0x7 DUP3 ADD SLOAD DUP2 MSTORE PUSH1 0x20 ADD PUSH1 0x8 DUP3 ADD SLOAD DUP2 MSTORE PUSH1 0x20 ADD PUSH1 0x9 DUP3 ADD PUSH1 0x0 SWAP1 SLOAD SWAP1 PUSH2 0x100 EXP SWAP1 DIV PUSH20 0xFFFFFFFFFFFFFFFFFFFFFFFFFFFFFFFFFFFFFFFF AND PUSH20 0xFFFFFFFFFFFFFFFFFFFFFFFFFFFFFFFFFFFFFFFF AND PUSH20 0xFFFFFFFFFFFFFFFFFFFFFFFFFFFFFFFFFFFFFFFF AND DUP2 MSTORE POP POP SWAP1 POP PUSH2 0x3804 PUSH2 0x7985 JUMP JUMPDEST PUSH1 0x40 MLOAD DUP1 PUSH1 0x40 ADD PUSH1 0x40 MSTORE DUP1 DUP11 PUSH20 0xFFFFFFFFFFFFFFFFFFFFFFFFFFFFFFFFFFFFFFFF AND DUP2 MSTORE PUSH1 0x20 ADD DUP12 DUP2 MSTORE POP SWAP1 POP PUSH1 0x0 DUP3 PUSH1 0x0 ADD MLOAD SWAP1 POP PUSH2 0x3853 DUP12 DUP12 DUP4 DUP7 PUSH2 0x120 ADD MLOAD DUP8 PUSH1 0xA0 ADD MLOAD DUP15 PUSH1 0x1 PUSH2 0x6C56 JUMP JUMPDEST PUSH1 0x0 PUSH1 0x2 PUSH1 0x0 DUP5 PUSH1 0x0 ADD MLOAD PUSH20 0xFFFFFFFFFFFFFFFFFFFFFFFFFFFFFFFFFFFFFFFF AND PUSH20 0xFFFFFFFFFFFFFFFFFFFFFFFFFFFFFFFFFFFFFFFF AND DUP2 MSTORE PUSH1 0x20 ADD SWAP1 DUP2 MSTORE PUSH1 0x20 ADD PUSH1 0x0 KECCAK256 PUSH1 0x0 DUP5 PUSH1 0x20 ADD MLOAD DUP2 MSTORE PUSH1 0x20 ADD SWAP1 DUP2 MSTORE PUSH1 0x20 ADD PUSH1 0x0 KECCAK256 PUSH1 0x0 PUSH2 0x100 EXP DUP2 SLOAD DUP2 PUSH1 0xFF MUL NOT AND SWAP1 DUP4 ISZERO ISZERO MUL OR SWAP1 SSTORE POP DUP4 PUSH20 0xFFFFFFFFFFFFFFFFFFFFFFFFFFFFFFFFFFFFFFFF AND PUSH4 0x42842E0E DUP6 PUSH20 0xFFFFFFFFFFFFFFFFFFFFFFFFFFFFFFFFFFFFFFFF AND PUSH4 0x6352211E DUP6 PUSH1 0x20 ADD MLOAD PUSH1 0x40 MLOAD DUP3 PUSH4 0xFFFFFFFF AND PUSH1 0xE0 SHL DUP2 MSTORE PUSH1 0x4 ADD PUSH2 0x391D SWAP2 SWAP1 PUSH2 0x9570 JUMP JUMPDEST PUSH1 0x20 PUSH1 0x40 MLOAD DUP1 DUP4 SUB DUP2 DUP7 DUP1 EXTCODESIZE ISZERO DUP1 ISZERO PUSH2 0x3935 JUMPI PUSH1 0x0 DUP1 REVERT JUMPDEST POP GAS STATICCALL ISZERO DUP1 ISZERO PUSH2 0x3949 JUMPI RETURNDATASIZE PUSH1 0x0 DUP1 RETURNDATACOPY RETURNDATASIZE PUSH1 0x0 REVERT JUMPDEST POP POP POP POP PUSH1 0x40 MLOAD RETURNDATASIZE PUSH1 0x1F NOT PUSH1 0x1F DUP3 ADD AND DUP3 ADD DUP1 PUSH1 0x40 MSTORE POP PUSH2 0x396D SWAP2 SWAP1 DUP2 ADD SWAP1 PUSH2 0x7DB6 JUMP JUMPDEST CALLER DUP6 PUSH1 0x20 ADD MLOAD PUSH1 0x40 MLOAD DUP5 PUSH4 0xFFFFFFFF AND PUSH1 0xE0 SHL DUP2 MSTORE PUSH1 0x4 ADD PUSH2 0x3991 SWAP4 SWAP3 SWAP2 SWAP1 PUSH2 0x905B JUMP JUMPDEST PUSH1 0x0 PUSH1 0x40 MLOAD DUP1 DUP4 SUB DUP2 PUSH1 0x0 DUP8 DUP1 EXTCODESIZE ISZERO DUP1 ISZERO PUSH2 0x39AB JUMPI PUSH1 0x0 DUP1 REVERT JUMPDEST POP GAS CALL ISZERO DUP1 ISZERO PUSH2 0x39BF JUMPI RETURNDATASIZE PUSH1 0x0 DUP1 RETURNDATACOPY RETURNDATASIZE PUSH1 0x0 REVERT JUMPDEST POP POP POP POP CALLER PUSH20 0xFFFFFFFFFFFFFFFFFFFFFFFFFFFFFFFFFFFFFFFF AND DUP2 PUSH20 0xFFFFFFFFFFFFFFFFFFFFFFFFFFFFFFFFFFFFFFFF AND DUP4 PUSH1 0x0 ADD MLOAD PUSH20 0xFFFFFFFFFFFFFFFFFFFFFFFFFFFFFFFFFFFFFFFF AND PUSH32 0xA2AB0454B724B203A92EE88DE73837B4E8FB3A36B43D7C22C7D52EE55011340F DUP6 PUSH1 0x20 ADD MLOAD DUP8 PUSH1 0xA0 ADD MLOAD TIMESTAMP DUP10 PUSH2 0x120 ADD MLOAD PUSH1 0x0 PUSH1 0x40 MLOAD PUSH2 0x3A51 SWAP6 SWAP5 SWAP4 SWAP3 SWAP2 SWAP1 PUSH2 0x95F9 JUMP JUMPDEST PUSH1 0x40 MLOAD DUP1 SWAP2 SUB SWAP1 LOG4 PUSH2 0x3A6D DUP3 PUSH1 0x9 PUSH2 0x69F4 SWAP1 SWAP2 SWAP1 PUSH4 0xFFFFFFFF AND JUMP JUMPDEST POP PUSH2 0x3ABF DUP3 PUSH1 0x3 PUSH1 0x0 DUP5 PUSH20 0xFFFFFFFFFFFFFFFFFFFFFFFFFFFFFFFFFFFFFFFF AND PUSH20 0xFFFFFFFFFFFFFFFFFFFFFFFFFFFFFFFFFFFFFFFF AND DUP2 MSTORE PUSH1 0x20 ADD SWAP1 DUP2 MSTORE PUSH1 0x20 ADD PUSH1 0x0 KECCAK256 PUSH2 0x69F4 SWAP1 SWAP2 SWAP1 PUSH4 0xFFFFFFFF AND JUMP JUMPDEST POP PUSH2 0x3AD4 DUP3 PUSH1 0x4 PUSH2 0x69F4 SWAP1 SWAP2 SWAP1 PUSH4 0xFFFFFFFF AND JUMP JUMPDEST POP PUSH1 0x7 PUSH1 0x0 DUP4 PUSH1 0x0 ADD MLOAD PUSH20 0xFFFFFFFFFFFFFFFFFFFFFFFFFFFFFFFFFFFFFFFF AND PUSH20 0xFFFFFFFFFFFFFFFFFFFFFFFFFFFFFFFFFFFFFFFF AND DUP2 MSTORE PUSH1 0x20 ADD SWAP1 DUP2 MSTORE PUSH1 0x20 ADD PUSH1 0x0 KECCAK256 PUSH1 0x0 DUP4 PUSH1 0x20 ADD MLOAD DUP2 MSTORE PUSH1 0x20 ADD SWAP1 DUP2 MSTORE PUSH1 0x20 ADD PUSH1 0x0 KECCAK256 PUSH1 0x0 DUP1 DUP3 ADD PUSH1 0x0 PUSH2 0x100 EXP DUP2 SLOAD SWAP1 PUSH20 0xFFFFFFFFFFFFFFFFFFFFFFFFFFFFFFFFFFFFFFFF MUL NOT AND SWAP1 SSTORE PUSH1 0x1 DUP3 ADD PUSH1 0x0 SWAP1 SSTORE PUSH1 0x2 DUP3 ADD PUSH1 0x0 PUSH2 0x100 EXP DUP2 SLOAD SWAP1 PUSH20 0xFFFFFFFFFFFFFFFFFFFFFFFFFFFFFFFFFFFFFFFF MUL NOT AND SWAP1 SSTORE PUSH1 0x3 DUP3 ADD PUSH1 0x0 SWAP1 SSTORE PUSH1 0x4 DUP3 ADD PUSH1 0x0 SWAP1 SSTORE PUSH1 0x5 DUP3 ADD PUSH1 0x0 SWAP1 SSTORE PUSH1 0x6 DUP3 ADD PUSH1 0x0 PUSH2 0x100 EXP DUP2 SLOAD SWAP1 PUSH1 0xFF MUL NOT AND SWAP1 SSTORE PUSH1 0x7 DUP3 ADD PUSH1 0x0 SWAP1 SSTORE PUSH1 0x8 DUP3 ADD PUSH1 0x0 SWAP1 SSTORE PUSH1 0x9 DUP3 ADD PUSH1 0x0 PUSH2 0x100 EXP DUP2 SLOAD SWAP1 PUSH20 0xFFFFFFFFFFFFFFFFFFFFFFFFFFFFFFFFFFFFFFFF MUL NOT AND SWAP1 SSTORE POP POP PUSH2 0x3BFB DUP3 PUSH1 0x0 ADD MLOAD DUP4 PUSH1 0x20 ADD MLOAD PUSH2 0x6B42 JUMP JUMPDEST POP POP POP POP POP POP POP POP POP POP POP JUMP JUMPDEST PUSH1 0x1 SLOAD DUP2 JUMP JUMPDEST PUSH1 0xD PUSH1 0x0 SWAP1 SLOAD SWAP1 PUSH2 0x100 EXP SWAP1 DIV PUSH20 0xFFFFFFFFFFFFFFFFFFFFFFFFFFFFFFFFFFFFFFFF AND DUP2 JUMP JUMPDEST PUSH1 0x0 DUP3 SWAP1 POP PUSH2 0x3C41 PUSH2 0x78EE JUMP JUMPDEST PUSH1 0x7 PUSH1 0x0 DUP6 PUSH20 0xFFFFFFFFFFFFFFFFFFFFFFFFFFFFFFFFFFFFFFFF AND PUSH20 0xFFFFFFFFFFFFFFFFFFFFFFFFFFFFFFFFFFFFFFFF AND DUP2 MSTORE PUSH1 0x20 ADD SWAP1 DUP2 MSTORE PUSH1 0x20 ADD PUSH1 0x0 KECCAK256 PUSH1 0x0 DUP7 DUP2 MSTORE PUSH1 0x20 ADD SWAP1 DUP2 MSTORE PUSH1 0x20 ADD PUSH1 0x0 KECCAK256 PUSH1 0x40 MLOAD DUP1 PUSH2 0x140 ADD PUSH1 0x40 MSTORE SWAP1 DUP2 PUSH1 0x0 DUP3 ADD PUSH1 0x0 SWAP1 SLOAD SWAP1 PUSH2 0x100 EXP SWAP1 DIV PUSH20 0xFFFFFFFFFFFFFFFFFFFFFFFFFFFFFFFFFFFFFFFF AND PUSH20 0xFFFFFFFFFFFFFFFFFFFFFFFFFFFFFFFFFFFFFFFF AND PUSH20 0xFFFFFFFFFFFFFFFFFFFFFFFFFFFFFFFFFFFFFFFF AND DUP2 MSTORE PUSH1 0x20 ADD PUSH1 0x1 DUP3 ADD SLOAD DUP2 MSTORE PUSH1 0x20 ADD PUSH1 0x2 DUP3 ADD PUSH1 0x0 SWAP1 SLOAD SWAP1 PUSH2 0x100 EXP SWAP1 DIV PUSH20 0xFFFFFFFFFFFFFFFFFFFFFFFFFFFFFFFFFFFFFFFF AND PUSH20 0xFFFFFFFFFFFFFFFFFFFFFFFFFFFFFFFFFFFFFFFF AND PUSH20 0xFFFFFFFFFFFFFFFFFFFFFFFFFFFFFFFFFFFFFFFF AND DUP2 MSTORE PUSH1 0x20 ADD PUSH1 0x3 DUP3 ADD SLOAD DUP2 MSTORE PUSH1 0x20 ADD PUSH1 0x4 DUP3 ADD SLOAD DUP2 MSTORE PUSH1 0x20 ADD PUSH1 0x5 DUP3 ADD SLOAD DUP2 MSTORE PUSH1 0x20 ADD PUSH1 0x6 DUP3 ADD PUSH1 0x0 SWAP1 SLOAD SWAP1 PUSH2 0x100 EXP SWAP1 DIV PUSH1 0xFF AND ISZERO ISZERO ISZERO ISZERO DUP2 MSTORE PUSH1 0x20 ADD PUSH1 0x7 DUP3 ADD SLOAD DUP2 MSTORE PUSH1 0x20 ADD PUSH1 0x8 DUP3 ADD SLOAD DUP2 MSTORE PUSH1 0x20 ADD PUSH1 0x9 DUP3 ADD PUSH1 0x0 SWAP1 SLOAD SWAP1 PUSH2 0x100 EXP SWAP1 DIV PUSH20 0xFFFFFFFFFFFFFFFFFFFFFFFFFFFFFFFFFFFFFFFF AND PUSH20 0xFFFFFFFFFFFFFFFFFFFFFFFFFFFFFFFFFFFFFFFF AND PUSH20 0xFFFFFFFFFFFFFFFFFFFFFFFFFFFFFFFFFFFFFFFF AND DUP2 MSTORE POP POP SWAP1 POP PUSH2 0x3E00 PUSH2 0x7985 JUMP JUMPDEST PUSH1 0x40 MLOAD DUP1 PUSH1 0x40 ADD PUSH1 0x40 MSTORE DUP1 DUP7 PUSH20 0xFFFFFFFFFFFFFFFFFFFFFFFFFFFFFFFFFFFFFFFF AND DUP2 MSTORE PUSH1 0x20 ADD DUP8 DUP2 MSTORE POP SWAP1 POP DUP2 PUSH2 0x100 ADD MLOAD TIMESTAMP GT DUP1 ISZERO PUSH2 0x3E45 JUMPI POP PUSH1 0x2 DUP3 PUSH1 0x60 ADD MLOAD EQ JUMPDEST PUSH2 0x3E84 JUMPI PUSH1 0x40 MLOAD PUSH32 0x8C379A000000000000000000000000000000000000000000000000000000000 DUP2 MSTORE PUSH1 0x4 ADD PUSH2 0x3E7B SWAP1 PUSH2 0x91E1 JUMP JUMPDEST PUSH1 0x40 MLOAD DUP1 SWAP2 SUB SWAP1 REVERT JUMPDEST PUSH1 0x1 ISZERO ISZERO DUP3 PUSH1 0xC0 ADD MLOAD ISZERO ISZERO EQ ISZERO PUSH2 0x42D8 JUMPI PUSH1 0x0 DUP3 PUSH1 0x0 ADD MLOAD SWAP1 POP PUSH2 0x3EB7 DUP8 DUP8 DUP4 DUP7 PUSH2 0x120 ADD MLOAD DUP8 PUSH1 0x20 ADD MLOAD DUP11 PUSH1 0x0 PUSH2 0x6C56 JUMP JUMPDEST PUSH1 0x0 DUP8 SWAP1 POP PUSH2 0x3EC4 PUSH2 0x78EE JUMP JUMPDEST DUP5 SWAP1 POP DUP6 PUSH20 0xFFFFFFFFFFFFFFFFFFFFFFFFFFFFFFFFFFFFFFFF AND PUSH4 0x42842E0E DUP8 PUSH20 0xFFFFFFFFFFFFFFFFFFFFFFFFFFFFFFFFFFFFFFFF AND PUSH4 0x6352211E DUP6 PUSH1 0x40 MLOAD DUP3 PUSH4 0xFFFFFFFF AND PUSH1 0xE0 SHL DUP2 MSTORE PUSH1 0x4 ADD PUSH2 0x3F1C SWAP2 SWAP1 PUSH2 0x9570 JUMP JUMPDEST PUSH1 0x20 PUSH1 0x40 MLOAD DUP1 DUP4 SUB DUP2 DUP7 DUP1 EXTCODESIZE ISZERO DUP1 ISZERO PUSH2 0x3F34 JUMPI PUSH1 0x0 DUP1 REVERT JUMPDEST POP GAS STATICCALL ISZERO DUP1 ISZERO PUSH2 0x3F48 JUMPI RETURNDATASIZE PUSH1 0x0 DUP1 RETURNDATACOPY RETURNDATASIZE PUSH1 0x0 REVERT JUMPDEST POP POP POP POP PUSH1 0x40 MLOAD RETURNDATASIZE PUSH1 0x1F NOT PUSH1 0x1F DUP3 ADD AND DUP3 ADD DUP1 PUSH1 0x40 MSTORE POP PUSH2 0x3F6C SWAP2 SWAP1 DUP2 ADD SWAP1 PUSH2 0x7DB6 JUMP JUMPDEST DUP4 PUSH1 0x40 ADD MLOAD DUP6 PUSH1 0x40 MLOAD DUP5 PUSH4 0xFFFFFFFF AND PUSH1 0xE0 SHL DUP2 MSTORE PUSH1 0x4 ADD PUSH2 0x3F90 SWAP4 SWAP3 SWAP2 SWAP1 PUSH2 0x905B JUMP JUMPDEST PUSH1 0x0 PUSH1 0x40 MLOAD DUP1 DUP4 SUB DUP2 PUSH1 0x0 DUP8 DUP1 EXTCODESIZE ISZERO DUP1 ISZERO PUSH2 0x3FAA JUMPI PUSH1 0x0 DUP1 REVERT JUMPDEST POP GAS CALL ISZERO DUP1 ISZERO PUSH2 0x3FBE JUMPI RETURNDATASIZE PUSH1 0x0 DUP1 RETURNDATACOPY RETURNDATASIZE PUSH1 0x0 REVERT JUMPDEST POP POP POP POP DUP1 PUSH1 0x40 ADD MLOAD PUSH20 0xFFFFFFFFFFFFFFFFFFFFFFFFFFFFFFFFFFFFFFFF AND DUP4 PUSH20 0xFFFFFFFFFFFFFFFFFFFFFFFFFFFFFFFFFFFFFFFF AND DUP6 PUSH1 0x0 ADD MLOAD PUSH20 0xFFFFFFFFFFFFFFFFFFFFFFFFFFFFFFFFFFFFFFFF AND PUSH32 0xA2AB0454B724B203A92EE88DE73837B4E8FB3A36B43D7C22C7D52EE55011340F DUP8 PUSH1 0x20 ADD MLOAD DUP6 PUSH1 0x20 ADD MLOAD TIMESTAMP DUP8 PUSH2 0x120 ADD MLOAD PUSH1 0x0 PUSH1 0x40 MLOAD PUSH2 0x4054 SWAP6 SWAP5 SWAP4 SWAP3 SWAP2 SWAP1 PUSH2 0x95F9 JUMP JUMPDEST PUSH1 0x40 MLOAD DUP1 SWAP2 SUB SWAP1 LOG4 PUSH2 0x4066 DUP9 DUP4 PUSH2 0x6B42 JUMP JUMPDEST POP POP DUP1 PUSH20 0xFFFFFFFFFFFFFFFFFFFFFFFFFFFFFFFFFFFFFFFF AND DUP3 PUSH1 0x20 ADD MLOAD DUP4 PUSH1 0x0 ADD MLOAD PUSH20 0xFFFFFFFFFFFFFFFFFFFFFFFFFFFFFFFFFFFFFFFF AND PUSH32 0xFEA08BB1B0C126C4D14CEC1F22705E26528A9385B48FD32837D4432137C39E9E DUP7 PUSH1 0x40 ADD MLOAD CALLER TIMESTAMP DUP10 PUSH2 0x120 ADD MLOAD PUSH1 0x40 MLOAD PUSH2 0x40DD SWAP5 SWAP4 SWAP3 SWAP2 SWAP1 PUSH2 0x8ED5 JUMP JUMPDEST PUSH1 0x40 MLOAD DUP1 SWAP2 SUB SWAP1 LOG4 PUSH1 0x0 PUSH1 0x2 PUSH1 0x0 DUP9 PUSH20 0xFFFFFFFFFFFFFFFFFFFFFFFFFFFFFFFFFFFFFFFF AND PUSH20 0xFFFFFFFFFFFFFFFFFFFFFFFFFFFFFFFFFFFFFFFF AND DUP2 MSTORE PUSH1 0x20 ADD SWAP1 DUP2 MSTORE PUSH1 0x20 ADD PUSH1 0x0 KECCAK256 PUSH1 0x0 DUP10 DUP2 MSTORE PUSH1 0x20 ADD SWAP1 DUP2 MSTORE PUSH1 0x20 ADD PUSH1 0x0 KECCAK256 PUSH1 0x0 PUSH2 0x100 EXP DUP2 SLOAD DUP2 PUSH1 0xFF MUL NOT AND SWAP1 DUP4 ISZERO ISZERO MUL OR SWAP1 SSTORE POP PUSH2 0x4162 DUP3 PUSH1 0x9 PUSH2 0x69F4 SWAP1 SWAP2 SWAP1 PUSH4 0xFFFFFFFF AND JUMP JUMPDEST POP PUSH2 0x41B4 DUP3 PUSH1 0x3 PUSH1 0x0 DUP5 PUSH20 0xFFFFFFFFFFFFFFFFFFFFFFFFFFFFFFFFFFFFFFFF AND PUSH20 0xFFFFFFFFFFFFFFFFFFFFFFFFFFFFFFFFFFFFFFFF AND DUP2 MSTORE PUSH1 0x20 ADD SWAP1 DUP2 MSTORE PUSH1 0x20 ADD PUSH1 0x0 KECCAK256 PUSH2 0x69F4 SWAP1 SWAP2 SWAP1 PUSH4 0xFFFFFFFF AND JUMP JUMPDEST POP PUSH2 0x41C9 DUP3 PUSH1 0x5 PUSH2 0x69F4 SWAP1 SWAP2 SWAP1 PUSH4 0xFFFFFFFF AND JUMP JUMPDEST POP PUSH1 0x7 PUSH1 0x0 DUP8 PUSH20 0xFFFFFFFFFFFFFFFFFFFFFFFFFFFFFFFFFFFFFFFF AND PUSH20 0xFFFFFFFFFFFFFFFFFFFFFFFFFFFFFFFFFFFFFFFF AND DUP2 MSTORE PUSH1 0x20 ADD SWAP1 DUP2 MSTORE PUSH1 0x20 ADD PUSH1 0x0 KECCAK256 PUSH1 0x0 DUP9 DUP2 MSTORE PUSH1 0x20 ADD SWAP1 DUP2 MSTORE PUSH1 0x20 ADD PUSH1 0x0 KECCAK256 PUSH1 0x0 DUP1 DUP3 ADD PUSH1 0x0 PUSH2 0x100 EXP DUP2 SLOAD SWAP1 PUSH20 0xFFFFFFFFFFFFFFFFFFFFFFFFFFFFFFFFFFFFFFFF MUL NOT AND SWAP1 SSTORE PUSH1 0x1 DUP3 ADD PUSH1 0x0 SWAP1 SSTORE PUSH1 0x2 DUP3 ADD PUSH1 0x0 PUSH2 0x100 EXP DUP2 SLOAD SWAP1 PUSH20 0xFFFFFFFFFFFFFFFFFFFFFFFFFFFFFFFFFFFFFFFF MUL NOT AND SWAP1 SSTORE PUSH1 0x3 DUP3 ADD PUSH1 0x0 SWAP1 SSTORE PUSH1 0x4 DUP3 ADD PUSH1 0x0 SWAP1 SSTORE PUSH1 0x5 DUP3 ADD PUSH1 0x0 SWAP1 SSTORE PUSH1 0x6 DUP3 ADD PUSH1 0x0 PUSH2 0x100 EXP DUP2 SLOAD SWAP1 PUSH1 0xFF MUL NOT AND SWAP1 SSTORE PUSH1 0x7 DUP3 ADD PUSH1 0x0 SWAP1 SSTORE PUSH1 0x8 DUP3 ADD PUSH1 0x0 SWAP1 SSTORE PUSH1 0x9 DUP3 ADD PUSH1 0x0 PUSH2 0x100 EXP DUP2 SLOAD SWAP1 PUSH20 0xFFFFFFFFFFFFFFFFFFFFFFFFFFFFFFFFFFFFFFFF MUL NOT AND SWAP1 SSTORE POP POP POP JUMPDEST POP POP POP POP POP POP JUMP JUMPDEST PUSH1 0x0 DUP1 PUSH1 0x0 SWAP1 SLOAD SWAP1 PUSH2 0x100 EXP SWAP1 DIV PUSH20 0xFFFFFFFFFFFFFFFFFFFFFFFFFFFFFFFFFFFFFFFF AND SWAP1 POP SWAP1 JUMP JUMPDEST PUSH1 0x0 DUP1 PUSH1 0x0 SWAP1 SLOAD SWAP1 PUSH2 0x100 EXP SWAP1 DIV PUSH20 0xFFFFFFFFFFFFFFFFFFFFFFFFFFFFFFFFFFFFFFFF AND PUSH20 0xFFFFFFFFFFFFFFFFFFFFFFFFFFFFFFFFFFFFFFFF AND CALLER PUSH20 0xFFFFFFFFFFFFFFFFFFFFFFFFFFFFFFFFFFFFFFFF AND EQ SWAP1 POP SWAP1 JUMP JUMPDEST DUP2 PUSH1 0x0 PUSH20 0xFFFFFFFFFFFFFFFFFFFFFFFFFFFFFFFFFFFFFFFF AND DUP2 PUSH20 0xFFFFFFFFFFFFFFFFFFFFFFFFFFFFFFFFFFFFFFFF AND EQ PUSH2 0x43E9 JUMPI PUSH2 0x43A9 DUP2 PUSH1 0xA PUSH2 0x6BAF SWAP1 SWAP2 SWAP1 PUSH4 0xFFFFFFFF AND JUMP JUMPDEST PUSH2 0x43E8 JUMPI PUSH1 0x40 MLOAD PUSH32 0x8C379A000000000000000000000000000000000000000000000000000000000 DUP2 MSTORE PUSH1 0x4 ADD PUSH2 0x43DF SWAP1 PUSH2 0x94C1 JUMP JUMPDEST PUSH1 0x40 MLOAD DUP1 SWAP2 SUB SWAP1 REVERT JUMPDEST JUMPDEST CALLER PUSH20 0xFFFFFFFFFFFFFFFFFFFFFFFFFFFFFFFFFFFFFFFF AND PUSH1 0x8 PUSH1 0x0 DUP7 PUSH20 0xFFFFFFFFFFFFFFFFFFFFFFFFFFFFFFFFFFFFFFFF AND PUSH20 0xFFFFFFFFFFFFFFFFFFFFFFFFFFFFFFFFFFFFFFFF AND DUP2 MSTORE PUSH1 0x20 ADD SWAP1 DUP2 MSTORE PUSH1 0x20 ADD PUSH1 0x0 KECCAK256 PUSH1 0x0 DUP8 DUP2 MSTORE PUSH1 0x20 ADD SWAP1 DUP2 MSTORE PUSH1 0x20 ADD PUSH1 0x0 KECCAK256 PUSH1 0x0 DUP6 PUSH20 0xFFFFFFFFFFFFFFFFFFFFFFFFFFFFFFFFFFFFFFFF AND PUSH20 0xFFFFFFFFFFFFFFFFFFFFFFFFFFFFFFFFFFFFFFFF AND DUP2 MSTORE PUSH1 0x20 ADD SWAP1 DUP2 MSTORE PUSH1 0x20 ADD PUSH1 0x0 KECCAK256 PUSH1 0x0 PUSH1 0xF SLOAD DUP2 MSTORE PUSH1 0x20 ADD SWAP1 DUP2 MSTORE PUSH1 0x20 ADD PUSH1 0x0 KECCAK256 PUSH1 0x0 ADD PUSH1 0x0 SWAP1 SLOAD SWAP1 PUSH2 0x100 EXP SWAP1 DIV PUSH20 0xFFFFFFFFFFFFFFFFFFFFFFFFFFFFFFFFFFFFFFFF AND PUSH20 0xFFFFFFFFFFFFFFFFFFFFFFFFFFFFFFFFFFFFFFFF AND EQ PUSH2 0x451A JUMPI PUSH1 0x40 MLOAD PUSH32 0x8C379A000000000000000000000000000000000000000000000000000000000 DUP2 MSTORE PUSH1 0x4 ADD PUSH2 0x4511 SWAP1 PUSH2 0x9201 JUMP JUMPDEST PUSH1 0x40 MLOAD DUP1 SWAP2 SUB SWAP1 REVERT JUMPDEST PUSH1 0x0 PUSH1 0x8 PUSH1 0x0 DUP7 PUSH20 0xFFFFFFFFFFFFFFFFFFFFFFFFFFFFFFFFFFFFFFFF AND PUSH20 0xFFFFFFFFFFFFFFFFFFFFFFFFFFFFFFFFFFFFFFFF AND DUP2 MSTORE PUSH1 0x20 ADD SWAP1 DUP2 MSTORE PUSH1 0x20 ADD PUSH1 0x0 KECCAK256 PUSH1 0x0 DUP8 DUP2 MSTORE PUSH1 0x20 ADD SWAP1 DUP2 MSTORE PUSH1 0x20 ADD PUSH1 0x0 KECCAK256 PUSH1 0x0 DUP6 PUSH20 0xFFFFFFFFFFFFFFFFFFFFFFFFFFFFFFFFFFFFFFFF AND PUSH20 0xFFFFFFFFFFFFFFFFFFFFFFFFFFFFFFFFFFFFFFFF AND DUP2 MSTORE PUSH1 0x20 ADD SWAP1 DUP2 MSTORE PUSH1 0x20 ADD PUSH1 0x0 KECCAK256 PUSH1 0x0 PUSH1 0xF SLOAD DUP2 MSTORE PUSH1 0x20 ADD SWAP1 DUP2 MSTORE PUSH1 0x20 ADD PUSH1 0x0 KECCAK256 PUSH1 0x1 ADD SLOAD SWAP1 POP PUSH1 0x0 PUSH20 0xFFFFFFFFFFFFFFFFFFFFFFFFFFFFFFFFFFFFFFFF AND DUP5 PUSH20 0xFFFFFFFFFFFFFFFFFFFFFFFFFFFFFFFFFFFFFFFF AND EQ ISZERO PUSH2 0x4676 JUMPI PUSH1 0x0 CALLER PUSH20 0xFFFFFFFFFFFFFFFFFFFFFFFFFFFFFFFFFFFFFFFF AND PUSH2 0x8FC DUP4 SWAP1 DUP2 ISZERO MUL SWAP1 PUSH1 0x40 MLOAD PUSH1 0x0 PUSH1 0x40 MLOAD DUP1 DUP4 SUB DUP2 DUP6 DUP9 DUP9 CALL SWAP4 POP POP POP POP SWAP1 POP DUP1 PUSH2 0x4670 JUMPI PUSH1 0x40 MLOAD PUSH32 0x8C379A000000000000000000000000000000000000000000000000000000000 DUP2 MSTORE PUSH1 0x4 ADD PUSH2 0x4667 SWAP1 PUSH2 0x92C1 JUMP JUMPDEST PUSH1 0x40 MLOAD DUP1 SWAP2 SUB SWAP1 REVERT JUMPDEST POP PUSH2 0x470B JUMP JUMPDEST PUSH1 0x0 DUP5 SWAP1 POP DUP1 PUSH20 0xFFFFFFFFFFFFFFFFFFFFFFFFFFFFFFFFFFFFFFFF AND PUSH4 0xA9059CBB CALLER DUP5 PUSH1 0x40 MLOAD DUP4 PUSH4 0xFFFFFFFF AND PUSH1 0xE0 SHL DUP2 MSTORE PUSH1 0x4 ADD PUSH2 0x46B6 SWAP3 SWAP2 SWAP1 PUSH2 0x8F51 JUMP JUMPDEST PUSH1 0x20 PUSH1 0x40 MLOAD DUP1 DUP4 SUB DUP2 PUSH1 0x0 DUP8 DUP1 EXTCODESIZE ISZERO DUP1 ISZERO PUSH2 0x46D0 JUMPI PUSH1 0x0 DUP1 REVERT JUMPDEST POP GAS CALL ISZERO DUP1 ISZERO PUSH2 0x46E4 JUMPI RETURNDATASIZE PUSH1 0x0 DUP1 RETURNDATACOPY RETURNDATASIZE PUSH1 0x0 REVERT JUMPDEST POP POP POP POP PUSH1 0x40 MLOAD RETURNDATASIZE PUSH1 0x1F NOT PUSH1 0x1F DUP3 ADD AND DUP3 ADD DUP1 PUSH1 0x40 MSTORE POP PUSH2 0x4708 SWAP2 SWAP1 DUP2 ADD SWAP1 PUSH2 0x804B JUMP JUMPDEST POP POP JUMPDEST PUSH1 0x0 PUSH1 0x8 PUSH1 0x0 DUP8 PUSH20 0xFFFFFFFFFFFFFFFFFFFFFFFFFFFFFFFFFFFFFFFF AND PUSH20 0xFFFFFFFFFFFFFFFFFFFFFFFFFFFFFFFFFFFFFFFF AND DUP2 MSTORE PUSH1 0x20 ADD SWAP1 DUP2 MSTORE PUSH1 0x20 ADD PUSH1 0x0 KECCAK256 PUSH1 0x0 DUP9 DUP2 MSTORE PUSH1 0x20 ADD SWAP1 DUP2 MSTORE PUSH1 0x20 ADD PUSH1 0x0 KECCAK256 PUSH1 0x0 DUP7 PUSH20 0xFFFFFFFFFFFFFFFFFFFFFFFFFFFFFFFFFFFFFFFF AND PUSH20 0xFFFFFFFFFFFFFFFFFFFFFFFFFFFFFFFFFFFFFFFF AND DUP2 MSTORE PUSH1 0x20 ADD SWAP1 DUP2 MSTORE PUSH1 0x20 ADD PUSH1 0x0 KECCAK256 PUSH1 0x0 DUP6 DUP2 MSTORE PUSH1 0x20 ADD SWAP1 DUP2 MSTORE PUSH1 0x20 ADD PUSH1 0x0 KECCAK256 PUSH1 0x0 ADD PUSH1 0x0 PUSH2 0x100 EXP DUP2 SLOAD DUP2 PUSH20 0xFFFFFFFFFFFFFFFFFFFFFFFFFFFFFFFFFFFFFFFF MUL NOT AND SWAP1 DUP4 PUSH20 0xFFFFFFFFFFFFFFFFFFFFFFFFFFFFFFFFFFFFFFFF AND MUL OR SWAP1 SSTORE POP PUSH1 0x0 PUSH1 0x8 PUSH1 0x0 DUP8 PUSH20 0xFFFFFFFFFFFFFFFFFFFFFFFFFFFFFFFFFFFFFFFF AND PUSH20 0xFFFFFFFFFFFFFFFFFFFFFFFFFFFFFFFFFFFFFFFF AND DUP2 MSTORE PUSH1 0x20 ADD SWAP1 DUP2 MSTORE PUSH1 0x20 ADD PUSH1 0x0 KECCAK256 PUSH1 0x0 DUP9 DUP2 MSTORE PUSH1 0x20 ADD SWAP1 DUP2 MSTORE PUSH1 0x20 ADD PUSH1 0x0 KECCAK256 PUSH1 0x0 DUP7 PUSH20 0xFFFFFFFFFFFFFFFFFFFFFFFFFFFFFFFFFFFFFFFF AND PUSH20 0xFFFFFFFFFFFFFFFFFFFFFFFFFFFFFFFFFFFFFFFF AND DUP2 MSTORE PUSH1 0x20 ADD SWAP1 DUP2 MSTORE PUSH1 0x20 ADD PUSH1 0x0 KECCAK256 PUSH1 0x0 DUP6 DUP2 MSTORE PUSH1 0x20 ADD SWAP1 DUP2 MSTORE PUSH1 0x20 ADD PUSH1 0x0 KECCAK256 PUSH1 0x1 ADD DUP2 SWAP1 SSTORE POP POP POP POP POP POP POP JUMP JUMPDEST DUP3 DUP3 PUSH1 0x1 ISZERO ISZERO PUSH1 0x2 PUSH1 0x0 DUP4 PUSH20 0xFFFFFFFFFFFFFFFFFFFFFFFFFFFFFFFFFFFFFFFF AND PUSH20 0xFFFFFFFFFFFFFFFFFFFFFFFFFFFFFFFFFFFFFFFF AND DUP2 MSTORE PUSH1 0x20 ADD SWAP1 DUP2 MSTORE PUSH1 0x20 ADD PUSH1 0x0 KECCAK256 PUSH1 0x0 DUP5 DUP2 MSTORE PUSH1 0x20 ADD SWAP1 DUP2 MSTORE PUSH1 0x20 ADD PUSH1 0x0 KECCAK256 PUSH1 0x0 SWAP1 SLOAD SWAP1 PUSH2 0x100 EXP SWAP1 DIV PUSH1 0xFF AND ISZERO ISZERO EQ PUSH2 0x4941 JUMPI PUSH1 0x40 MLOAD PUSH32 0x8C379A000000000000000000000000000000000000000000000000000000000 DUP2 MSTORE PUSH1 0x4 ADD PUSH2 0x4938 SWAP1 PUSH2 0x9341 JUMP JUMPDEST PUSH1 0x40 MLOAD DUP1 SWAP2 SUB SWAP1 REVERT JUMPDEST DUP5 DUP5 PUSH1 0x7 PUSH1 0x0 DUP3 PUSH20 0xFFFFFFFFFFFFFFFFFFFFFFFFFFFFFFFFFFFFFFFF AND PUSH20 0xFFFFFFFFFFFFFFFFFFFFFFFFFFFFFFFFFFFFFFFF AND DUP2 MSTORE PUSH1 0x20 ADD SWAP1 DUP2 MSTORE PUSH1 0x20 ADD PUSH1 0x0 KECCAK256 PUSH1 0x0 DUP4 DUP2 MSTORE PUSH1 0x20 ADD SWAP1 DUP2 MSTORE PUSH1 0x20 ADD PUSH1 0x0 KECCAK256 PUSH1 0x8 ADD SLOAD TIMESTAMP LT PUSH2 0x49D8 JUMPI PUSH1 0x40 MLOAD PUSH32 0x8C379A000000000000000000000000000000000000000000000000000000000 DUP2 MSTORE PUSH1 0x4 ADD PUSH2 0x49CF SWAP1 PUSH2 0x9401 JUMP JUMPDEST PUSH1 0x40 MLOAD DUP1 SWAP2 SUB SWAP1 REVERT JUMPDEST PUSH1 0x7 PUSH1 0x0 DUP3 PUSH20 0xFFFFFFFFFFFFFFFFFFFFFFFFFFFFFFFFFFFFFFFF AND PUSH20 0xFFFFFFFFFFFFFFFFFFFFFFFFFFFFFFFFFFFFFFFF AND DUP2 MSTORE PUSH1 0x20 ADD SWAP1 DUP2 MSTORE PUSH1 0x20 ADD PUSH1 0x0 KECCAK256 PUSH1 0x0 DUP4 DUP2 MSTORE PUSH1 0x20 ADD SWAP1 DUP2 MSTORE PUSH1 0x20 ADD PUSH1 0x0 KECCAK256 PUSH1 0x7 ADD SLOAD TIMESTAMP GT PUSH2 0x4A6D JUMPI PUSH1 0x40 MLOAD PUSH32 0x8C379A000000000000000000000000000000000000000000000000000000000 DUP2 MSTORE PUSH1 0x4 ADD PUSH2 0x4A64 SWAP1 PUSH2 0x9421 JUMP JUMPDEST PUSH1 0x40 MLOAD DUP1 SWAP2 SUB SWAP1 REVERT JUMPDEST PUSH1 0x0 DUP7 SWAP1 POP PUSH2 0x4A7A PUSH2 0x78EE JUMP JUMPDEST PUSH1 0x7 PUSH1 0x0 DUP10 PUSH20 0xFFFFFFFFFFFFFFFFFFFFFFFFFFFFFFFFFFFFFFFF AND PUSH20 0xFFFFFFFFFFFFFFFFFFFFFFFFFFFFFFFFFFFFFFFF AND DUP2 MSTORE PUSH1 0x20 ADD SWAP1 DUP2 MSTORE PUSH1 0x20 ADD PUSH1 0x0 KECCAK256 PUSH1 0x0 DUP11 DUP2 MSTORE PUSH1 0x20 ADD SWAP1 DUP2 MSTORE PUSH1 0x20 ADD PUSH1 0x0 KECCAK256 PUSH1 0x40 MLOAD DUP1 PUSH2 0x140 ADD PUSH1 0x40 MSTORE SWAP1 DUP2 PUSH1 0x0 DUP3 ADD PUSH1 0x0 SWAP1 SLOAD SWAP1 PUSH2 0x100 EXP SWAP1 DIV PUSH20 0xFFFFFFFFFFFFFFFFFFFFFFFFFFFFFFFFFFFFFFFF AND PUSH20 0xFFFFFFFFFFFFFFFFFFFFFFFFFFFFFFFFFFFFFFFF AND PUSH20 0xFFFFFFFFFFFFFFFFFFFFFFFFFFFFFFFFFFFFFFFF AND DUP2 MSTORE PUSH1 0x20 ADD PUSH1 0x1 DUP3 ADD SLOAD DUP2 MSTORE PUSH1 0x20 ADD PUSH1 0x2 DUP3 ADD PUSH1 0x0 SWAP1 SLOAD SWAP1 PUSH2 0x100 EXP SWAP1 DIV PUSH20 0xFFFFFFFFFFFFFFFFFFFFFFFFFFFFFFFFFFFFFFFF AND PUSH20 0xFFFFFFFFFFFFFFFFFFFFFFFFFFFFFFFFFFFFFFFF AND PUSH20 0xFFFFFFFFFFFFFFFFFFFFFFFFFFFFFFFFFFFFFFFF AND DUP2 MSTORE PUSH1 0x20 ADD PUSH1 0x3 DUP3 ADD SLOAD DUP2 MSTORE PUSH1 0x20 ADD PUSH1 0x4 DUP3 ADD SLOAD DUP2 MSTORE PUSH1 0x20 ADD PUSH1 0x5 DUP3 ADD SLOAD DUP2 MSTORE PUSH1 0x20 ADD PUSH1 0x6 DUP3 ADD PUSH1 0x0 SWAP1 SLOAD SWAP1 PUSH2 0x100 EXP SWAP1 DIV PUSH1 0xFF AND ISZERO ISZERO ISZERO ISZERO DUP2 MSTORE PUSH1 0x20 ADD PUSH1 0x7 DUP3 ADD SLOAD DUP2 MSTORE PUSH1 0x20 ADD PUSH1 0x8 DUP3 ADD SLOAD DUP2 MSTORE PUSH1 0x20 ADD PUSH1 0x9 DUP3 ADD PUSH1 0x0 SWAP1 SLOAD SWAP1 PUSH2 0x100 EXP SWAP1 DIV PUSH20 0xFFFFFFFFFFFFFFFFFFFFFFFFFFFFFFFFFFFFFFFF AND PUSH20 0xFFFFFFFFFFFFFFFFFFFFFFFFFFFFFFFFFFFFFFFF AND PUSH20 0xFFFFFFFFFFFFFFFFFFFFFFFFFFFFFFFFFFFFFFFF AND DUP2 MSTORE POP POP SWAP1 POP PUSH1 0x0 PUSH20 0xFFFFFFFFFFFFFFFFFFFFFFFFFFFFFFFFFFFFFFFF AND DUP2 PUSH2 0x120 ADD MLOAD PUSH20 0xFFFFFFFFFFFFFFFFFFFFFFFFFFFFFFFFFFFFFFFF AND EQ ISZERO PUSH2 0x4D17 JUMPI DUP1 PUSH1 0x20 ADD MLOAD CALLVALUE GT PUSH2 0x4CB1 JUMPI PUSH1 0x40 MLOAD PUSH32 0x8C379A000000000000000000000000000000000000000000000000000000000 DUP2 MSTORE PUSH1 0x4 ADD PUSH2 0x4CA8 SWAP1 PUSH2 0x91A1 JUMP JUMPDEST PUSH1 0x40 MLOAD DUP1 SWAP2 SUB SWAP1 REVERT JUMPDEST PUSH1 0x1 ISZERO ISZERO DUP2 PUSH1 0xC0 ADD MLOAD ISZERO ISZERO EQ ISZERO PUSH2 0x4D12 JUMPI DUP1 PUSH1 0x40 ADD MLOAD PUSH20 0xFFFFFFFFFFFFFFFFFFFFFFFFFFFFFFFFFFFFFFFF AND PUSH2 0x8FC DUP3 PUSH1 0x20 ADD MLOAD SWAP1 DUP2 ISZERO MUL SWAP1 PUSH1 0x40 MLOAD PUSH1 0x0 PUSH1 0x40 MLOAD DUP1 DUP4 SUB DUP2 DUP6 DUP9 DUP9 CALL SWAP4 POP POP POP POP ISZERO DUP1 ISZERO PUSH2 0x4D10 JUMPI RETURNDATASIZE PUSH1 0x0 DUP1 RETURNDATACOPY RETURNDATASIZE PUSH1 0x0 REVERT JUMPDEST POP JUMPDEST PUSH2 0x4F6E JUMP JUMPDEST PUSH1 0x0 DUP2 PUSH2 0x120 ADD MLOAD SWAP1 POP DUP8 DUP2 PUSH20 0xFFFFFFFFFFFFFFFFFFFFFFFFFFFFFFFFFFFFFFFF AND PUSH4 0xDD62ED3E CALLER ADDRESS PUSH1 0x40 MLOAD DUP4 PUSH4 0xFFFFFFFF AND PUSH1 0xE0 SHL DUP2 MSTORE PUSH1 0x4 ADD PUSH2 0x4D5D SWAP3 SWAP2 SWAP1 PUSH2 0x8E75 JUMP JUMPDEST PUSH1 0x20 PUSH1 0x40 MLOAD DUP1 DUP4 SUB DUP2 DUP7 DUP1 EXTCODESIZE ISZERO DUP1 ISZERO PUSH2 0x4D75 JUMPI PUSH1 0x0 DUP1 REVERT JUMPDEST POP GAS STATICCALL ISZERO DUP1 ISZERO PUSH2 0x4D89 JUMPI RETURNDATASIZE PUSH1 0x0 DUP1 RETURNDATACOPY RETURNDATASIZE PUSH1 0x0 REVERT JUMPDEST POP POP POP POP PUSH1 0x40 MLOAD RETURNDATASIZE PUSH1 0x1F NOT PUSH1 0x1F DUP3 ADD AND DUP3 ADD DUP1 PUSH1 0x40 MSTORE POP PUSH2 0x4DAD SWAP2 SWAP1 DUP2 ADD SWAP1 PUSH2 0x818E JUMP JUMPDEST LT ISZERO PUSH2 0x4DEE JUMPI PUSH1 0x40 MLOAD PUSH32 0x8C379A000000000000000000000000000000000000000000000000000000000 DUP2 MSTORE PUSH1 0x4 ADD PUSH2 0x4DE5 SWAP1 PUSH2 0x9241 JUMP JUMPDEST PUSH1 0x40 MLOAD DUP1 SWAP2 SUB SWAP1 REVERT JUMPDEST DUP2 PUSH1 0x20 ADD MLOAD DUP9 GT PUSH2 0x4E34 JUMPI PUSH1 0x40 MLOAD PUSH32 0x8C379A000000000000000000000000000000000000000000000000000000000 DUP2 MSTORE PUSH1 0x4 ADD PUSH2 0x4E2B SWAP1 PUSH2 0x91A1 JUMP JUMPDEST PUSH1 0x40 MLOAD DUP1 SWAP2 SUB SWAP1 REVERT JUMPDEST DUP1 PUSH20 0xFFFFFFFFFFFFFFFFFFFFFFFFFFFFFFFFFFFFFFFF AND PUSH4 0x23B872DD CALLER ADDRESS DUP12 PUSH1 0x40 MLOAD DUP5 PUSH4 0xFFFFFFFF AND PUSH1 0xE0 SHL DUP2 MSTORE PUSH1 0x4 ADD PUSH2 0x4E71 SWAP4 SWAP3 SWAP2 SWAP1 PUSH2 0x8F1A JUMP JUMPDEST PUSH1 0x20 PUSH1 0x40 MLOAD DUP1 DUP4 SUB DUP2 PUSH1 0x0 DUP8 DUP1 EXTCODESIZE ISZERO DUP1 ISZERO PUSH2 0x4E8B JUMPI PUSH1 0x0 DUP1 REVERT JUMPDEST POP GAS CALL ISZERO DUP1 ISZERO PUSH2 0x4E9F JUMPI RETURNDATASIZE PUSH1 0x0 DUP1 RETURNDATACOPY RETURNDATASIZE PUSH1 0x0 REVERT JUMPDEST POP POP POP POP PUSH1 0x40 MLOAD RETURNDATASIZE PUSH1 0x1F NOT PUSH1 0x1F DUP3 ADD AND DUP3 ADD DUP1 PUSH1 0x40 MSTORE POP PUSH2 0x4EC3 SWAP2 SWAP1 DUP2 ADD SWAP1 PUSH2 0x804B JUMP JUMPDEST POP PUSH1 0x1 ISZERO ISZERO DUP3 PUSH1 0xC0 ADD MLOAD ISZERO ISZERO EQ ISZERO PUSH2 0x4F6C JUMPI DUP1 PUSH20 0xFFFFFFFFFFFFFFFFFFFFFFFFFFFFFFFFFFFFFFFF AND PUSH4 0xA9059CBB DUP4 PUSH1 0x40 ADD MLOAD DUP5 PUSH1 0x20 ADD MLOAD PUSH1 0x40 MLOAD DUP4 PUSH4 0xFFFFFFFF AND PUSH1 0xE0 SHL DUP2 MSTORE PUSH1 0x4 ADD PUSH2 0x4F18 SWAP3 SWAP2 SWAP1 PUSH2 0x8F51 JUMP JUMPDEST PUSH1 0x20 PUSH1 0x40 MLOAD DUP1 DUP4 SUB DUP2 PUSH1 0x0 DUP8 DUP1 EXTCODESIZE ISZERO DUP1 ISZERO PUSH2 0x4F32 JUMPI PUSH1 0x0 DUP1 REVERT JUMPDEST POP GAS CALL ISZERO DUP1 ISZERO PUSH2 0x4F46 JUMPI RETURNDATASIZE PUSH1 0x0 DUP1 RETURNDATACOPY RETURNDATASIZE PUSH1 0x0 REVERT JUMPDEST POP POP POP POP PUSH1 0x40 MLOAD RETURNDATASIZE PUSH1 0x1F NOT PUSH1 0x1F DUP3 ADD AND DUP3 ADD DUP1 PUSH1 0x40 MSTORE POP PUSH2 0x4F6A SWAP2 SWAP1 DUP2 ADD SWAP1 PUSH2 0x804B JUMP JUMPDEST POP JUMPDEST POP JUMPDEST PUSH1 0x0 PUSH20 0xFFFFFFFFFFFFFFFFFFFFFFFFFFFFFFFFFFFFFFFF AND DUP2 PUSH2 0x120 ADD MLOAD PUSH20 0xFFFFFFFFFFFFFFFFFFFFFFFFFFFFFFFFFFFFFFFF AND EQ PUSH2 0x4FAD JUMPI DUP7 PUSH2 0x4FAF JUMP JUMPDEST CALLVALUE JUMPDEST DUP2 PUSH1 0x20 ADD DUP2 DUP2 MSTORE POP POP DUP2 PUSH20 0xFFFFFFFFFFFFFFFFFFFFFFFFFFFFFFFFFFFFFFFF AND PUSH4 0x42842E0E DUP4 PUSH20 0xFFFFFFFFFFFFFFFFFFFFFFFFFFFFFFFFFFFFFFFF AND PUSH4 0x6352211E DUP13 PUSH1 0x40 MLOAD DUP3 PUSH4 0xFFFFFFFF AND PUSH1 0xE0 SHL DUP2 MSTORE PUSH1 0x4 ADD PUSH2 0x500D SWAP2 SWAP1 PUSH2 0x9570 JUMP JUMPDEST PUSH1 0x20 PUSH1 0x40 MLOAD DUP1 DUP4 SUB DUP2 DUP7 DUP1 EXTCODESIZE ISZERO DUP1 ISZERO PUSH2 0x5025 JUMPI PUSH1 0x0 DUP1 REVERT JUMPDEST POP GAS STATICCALL ISZERO DUP1 ISZERO PUSH2 0x5039 JUMPI RETURNDATASIZE PUSH1 0x0 DUP1 RETURNDATACOPY RETURNDATASIZE PUSH1 0x0 REVERT JUMPDEST POP POP POP POP PUSH1 0x40 MLOAD RETURNDATASIZE PUSH1 0x1F NOT PUSH1 0x1F DUP3 ADD AND DUP3 ADD DUP1 PUSH1 0x40 MSTORE POP PUSH2 0x505D SWAP2 SWAP1 DUP2 ADD SWAP1 PUSH2 0x7DB6 JUMP JUMPDEST ADDRESS DUP13 PUSH1 0x40 MLOAD DUP5 PUSH4 0xFFFFFFFF AND PUSH1 0xE0 SHL DUP2 MSTORE PUSH1 0x4 ADD PUSH2 0x507D SWAP4 SWAP3 SWAP2 SWAP1 PUSH2 0x9092 JUMP JUMPDEST PUSH1 0x0 PUSH1 0x40 MLOAD DUP1 DUP4 SUB DUP2 PUSH1 0x0 DUP8 DUP1 EXTCODESIZE ISZERO DUP1 ISZERO PUSH2 0x5097 JUMPI PUSH1 0x0 DUP1 REVERT JUMPDEST POP GAS CALL ISZERO DUP1 ISZERO PUSH2 0x50AB JUMPI RETURNDATASIZE PUSH1 0x0 DUP1 RETURNDATACOPY RETURNDATASIZE PUSH1 0x0 REVERT JUMPDEST POP POP POP POP PUSH1 0x1 DUP2 PUSH1 0xC0 ADD SWAP1 ISZERO ISZERO SWAP1 DUP2 ISZERO ISZERO DUP2 MSTORE POP POP CALLER DUP2 PUSH1 0x40 ADD SWAP1 PUSH20 0xFFFFFFFFFFFFFFFFFFFFFFFFFFFFFFFFFFFFFFFF AND SWAP1 DUP2 PUSH20 0xFFFFFFFFFFFFFFFFFFFFFFFFFFFFFFFFFFFFFFFF AND DUP2 MSTORE POP POP PUSH1 0x1 SLOAD DUP2 PUSH2 0x100 ADD DUP2 DUP2 MLOAD ADD SWAP2 POP DUP2 DUP2 MSTORE POP POP DUP1 PUSH1 0x7 PUSH1 0x0 DUP11 PUSH20 0xFFFFFFFFFFFFFFFFFFFFFFFFFFFFFFFFFFFFFFFF AND PUSH20 0xFFFFFFFFFFFFFFFFFFFFFFFFFFFFFFFFFFFFFFFF AND DUP2 MSTORE PUSH1 0x20 ADD SWAP1 DUP2 MSTORE PUSH1 0x20 ADD PUSH1 0x0 KECCAK256 PUSH1 0x0 DUP12 DUP2 MSTORE PUSH1 0x20 ADD SWAP1 DUP2 MSTORE PUSH1 0x20 ADD PUSH1 0x0 KECCAK256 PUSH1 0x0 DUP3 ADD MLOAD DUP2 PUSH1 0x0 ADD PUSH1 0x0 PUSH2 0x100 EXP DUP2 SLOAD DUP2 PUSH20 0xFFFFFFFFFFFFFFFFFFFFFFFFFFFFFFFFFFFFFFFF MUL NOT AND SWAP1 DUP4 PUSH20 0xFFFFFFFFFFFFFFFFFFFFFFFFFFFFFFFFFFFFFFFF AND MUL OR SWAP1 SSTORE POP PUSH1 0x20 DUP3 ADD MLOAD DUP2 PUSH1 0x1 ADD SSTORE PUSH1 0x40 DUP3 ADD MLOAD DUP2 PUSH1 0x2 ADD PUSH1 0x0 PUSH2 0x100 EXP DUP2 SLOAD DUP2 PUSH20 0xFFFFFFFFFFFFFFFFFFFFFFFFFFFFFFFFFFFFFFFF MUL NOT AND SWAP1 DUP4 PUSH20 0xFFFFFFFFFFFFFFFFFFFFFFFFFFFFFFFFFFFFFFFF AND MUL OR SWAP1 SSTORE POP PUSH1 0x60 DUP3 ADD MLOAD DUP2 PUSH1 0x3 ADD SSTORE PUSH1 0x80 DUP3 ADD MLOAD DUP2 PUSH1 0x4 ADD SSTORE PUSH1 0xA0 DUP3 ADD MLOAD DUP2 PUSH1 0x5 ADD SSTORE PUSH1 0xC0 DUP3 ADD MLOAD DUP2 PUSH1 0x6 ADD PUSH1 0x0 PUSH2 0x100 EXP DUP2 SLOAD DUP2 PUSH1 0xFF MUL NOT AND SWAP1 DUP4 ISZERO ISZERO MUL OR SWAP1 SSTORE POP PUSH1 0xE0 DUP3 ADD MLOAD DUP2 PUSH1 0x7 ADD SSTORE PUSH2 0x100 DUP3 ADD MLOAD DUP2 PUSH1 0x8 ADD SSTORE PUSH2 0x120 DUP3 ADD MLOAD DUP2 PUSH1 0x9 ADD PUSH1 0x0 PUSH2 0x100 EXP DUP2 SLOAD DUP2 PUSH20 0xFFFFFFFFFFFFFFFFFFFFFFFFFFFFFFFFFFFFFFFF MUL NOT AND SWAP1 DUP4 PUSH20 0xFFFFFFFFFFFFFFFFFFFFFFFFFFFFFFFFFFFFFFFF AND MUL OR SWAP1 SSTORE POP SWAP1 POP POP DUP1 PUSH1 0x0 ADD MLOAD PUSH20 0xFFFFFFFFFFFFFFFFFFFFFFFFFFFFFFFFFFFFFFFF AND DUP10 DUP10 PUSH20 0xFFFFFFFFFFFFFFFFFFFFFFFFFFFFFFFFFFFFFFFF AND PUSH32 0xC47F35CCD7C07E8A8A68419F2150E2A62C012EED08ADE47B9D264D7A091275E0 DUP5 PUSH1 0x40 ADD MLOAD DUP6 PUSH1 0x20 ADD MLOAD TIMESTAMP DUP8 PUSH2 0x120 ADD MLOAD PUSH1 0x40 MLOAD PUSH2 0x5307 SWAP5 SWAP4 SWAP3 SWAP2 SWAP1 PUSH2 0x9016 JUMP JUMPDEST PUSH1 0x40 MLOAD DUP1 SWAP2 SUB SWAP1 LOG4 POP POP POP POP POP POP POP POP POP JUMP JUMPDEST PUSH2 0x5322 PUSH2 0x4309 JUMP JUMPDEST PUSH2 0x5361 JUMPI PUSH1 0x40 MLOAD PUSH32 0x8C379A000000000000000000000000000000000000000000000000000000000 DUP2 MSTORE PUSH1 0x4 ADD PUSH2 0x5358 SWAP1 PUSH2 0x93E1 JUMP JUMPDEST PUSH1 0x40 MLOAD DUP1 SWAP2 SUB SWAP1 REVERT JUMPDEST PUSH1 0x0 PUSH20 0xFFFFFFFFFFFFFFFFFFFFFFFFFFFFFFFFFFFFFFFF AND DUP6 PUSH20 0xFFFFFFFFFFFFFFFFFFFFFFFFFFFFFFFFFFFFFFFF AND EQ ISZERO DUP1 ISZERO PUSH2 0x53CB JUMPI POP PUSH1 0x0 PUSH20 0xFFFFFFFFFFFFFFFFFFFFFFFFFFFFFFFFFFFFFFFF AND DUP5 PUSH20 0xFFFFFFFFFFFFFFFFFFFFFFFFFFFFFFFFFFFFFFFF AND EQ ISZERO JUMPDEST PUSH2 0x540A JUMPI PUSH1 0x40 MLOAD PUSH32 0x8C379A000000000000000000000000000000000000000000000000000000000 DUP2 MSTORE PUSH1 0x4 ADD PUSH2 0x5401 SWAP1 PUSH2 0x92A1 JUMP JUMPDEST PUSH1 0x40 MLOAD DUP1 SWAP2 SUB SWAP1 REVERT JUMPDEST PUSH1 0x0 DUP3 PUSH2 0xFFFF AND LT ISZERO DUP1 ISZERO PUSH2 0x5424 JUMPI POP PUSH1 0x0 DUP2 PUSH2 0xFFFF AND LT ISZERO JUMPDEST DUP1 ISZERO PUSH2 0x5435 JUMPI POP PUSH1 0x0 DUP4 PUSH2 0xFFFF AND LT ISZERO JUMPDEST PUSH2 0x5474 JUMPI PUSH1 0x40 MLOAD PUSH32 0x8C379A000000000000000000000000000000000000000000000000000000000 DUP2 MSTORE PUSH1 0x4 ADD PUSH2 0x546B SWAP1 PUSH2 0x93C1 JUMP JUMPDEST PUSH1 0x40 MLOAD DUP1 SWAP2 SUB SWAP1 REVERT JUMPDEST PUSH2 0x3E8 DUP3 PUSH2 0xFFFF AND GT ISZERO DUP1 ISZERO PUSH2 0x5490 JUMPI POP PUSH2 0x3E8 DUP2 PUSH2 0xFFFF AND GT ISZERO JUMPDEST DUP1 ISZERO PUSH2 0x54A2 JUMPI POP PUSH2 0x3E8 DUP4 PUSH2 0xFFFF AND GT ISZERO JUMPDEST PUSH2 0x54E1 JUMPI PUSH1 0x40 MLOAD PUSH32 0x8C379A000000000000000000000000000000000000000000000000000000000 DUP2 MSTORE PUSH1 0x4 ADD PUSH2 0x54D8 SWAP1 PUSH2 0x93C1 JUMP JUMPDEST PUSH1 0x40 MLOAD DUP1 SWAP2 SUB SWAP1 REVERT JUMPDEST DUP2 PUSH1 0x0 PUSH1 0x14 PUSH2 0x100 EXP DUP2 SLOAD DUP2 PUSH2 0xFFFF MUL NOT AND SWAP1 DUP4 PUSH2 0xFFFF AND MUL OR SWAP1 SSTORE POP DUP1 PUSH1 0x0 PUSH1 0x16 PUSH2 0x100 EXP DUP2 SLOAD DUP2 PUSH2 0xFFFF MUL NOT AND SWAP1 DUP4 PUSH2 0xFFFF AND MUL OR SWAP1 SSTORE POP DUP3 PUSH1 0x0 PUSH1 0x18 PUSH2 0x100 EXP DUP2 SLOAD DUP2 PUSH2 0xFFFF MUL NOT AND SWAP1 DUP4 PUSH2 0xFFFF AND MUL OR SWAP1 SSTORE POP DUP5 PUSH1 0xC PUSH1 0x0 PUSH2 0x100 EXP DUP2 SLOAD DUP2 PUSH20 0xFFFFFFFFFFFFFFFFFFFFFFFFFFFFFFFFFFFFFFFF MUL NOT AND SWAP1 DUP4 PUSH20 0xFFFFFFFFFFFFFFFFFFFFFFFFFFFFFFFFFFFFFFFF AND MUL OR SWAP1 SSTORE POP DUP4 PUSH1 0xD PUSH1 0x0 PUSH2 0x100 EXP DUP2 SLOAD DUP2 PUSH20 0xFFFFFFFFFFFFFFFFFFFFFFFFFFFFFFFFFFFFFFFF MUL NOT AND SWAP1 DUP4 PUSH20 0xFFFFFFFFFFFFFFFFFFFFFFFFFFFFFFFFFFFFFFFF AND MUL OR SWAP1 SSTORE POP POP POP POP POP POP JUMP JUMPDEST PUSH1 0x0 PUSH1 0x14 SWAP1 SLOAD SWAP1 PUSH2 0x100 EXP SWAP1 DIV PUSH2 0xFFFF AND DUP2 JUMP JUMPDEST PUSH1 0x0 PUSH1 0x18 SWAP1 SLOAD SWAP1 PUSH2 0x100 EXP SWAP1 DIV PUSH2 0xFFFF AND DUP2 JUMP JUMPDEST PUSH1 0x60 PUSH1 0x4 PUSH1 0x0 ADD DUP1 SLOAD DUP1 PUSH1 0x20 MUL PUSH1 0x20 ADD PUSH1 0x40 MLOAD SWAP1 DUP2 ADD PUSH1 0x40 MSTORE DUP1 SWAP3 SWAP2 SWAP1 DUP2 DUP2 MSTORE PUSH1 0x20 ADD PUSH1 0x0 SWAP1 JUMPDEST DUP3 DUP3 LT ISZERO PUSH2 0x56A2 JUMPI DUP4 DUP3 SWAP1 PUSH1 0x0 MSTORE PUSH1 0x20 PUSH1 0x0 KECCAK256 SWAP1 PUSH1 0x2 MUL ADD PUSH1 0x40 MLOAD DUP1 PUSH1 0x40 ADD PUSH1 0x40 MSTORE SWAP1 DUP2 PUSH1 0x0 DUP3 ADD PUSH1 0x0 SWAP1 SLOAD SWAP1 PUSH2 0x100 EXP SWAP1 DIV PUSH20 0xFFFFFFFFFFFFFFFFFFFFFFFFFFFFFFFFFFFFFFFF AND PUSH20 0xFFFFFFFFFFFFFFFFFFFFFFFFFFFFFFFFFFFFFFFF AND PUSH20 0xFFFFFFFFFFFFFFFFFFFFFFFFFFFFFFFFFFFFFFFF AND DUP2 MSTORE PUSH1 0x20 ADD PUSH1 0x1 DUP3 ADD SLOAD DUP2 MSTORE POP POP DUP2 MSTORE PUSH1 0x20 ADD SWAP1 PUSH1 0x1 ADD SWAP1 PUSH2 0x5610 JUMP JUMPDEST POP POP POP POP SWAP1 POP SWAP1 JUMP JUMPDEST PUSH1 0x60 PUSH1 0x3 PUSH1 0x0 DUP4 PUSH20 0xFFFFFFFFFFFFFFFFFFFFFFFFFFFFFFFFFFFFFFFF AND PUSH20 0xFFFFFFFFFFFFFFFFFFFFFFFFFFFFFFFFFFFFFFFF AND DUP2 MSTORE PUSH1 0x20 ADD SWAP1 DUP2 MSTORE PUSH1 0x20 ADD PUSH1 0x0 KECCAK256 PUSH1 0x0 ADD DUP1 SLOAD DUP1 PUSH1 0x20 MUL PUSH1 0x20 ADD PUSH1 0x40 MLOAD SWAP1 DUP2 ADD PUSH1 0x40 MSTORE DUP1 SWAP3 SWAP2 SWAP1 DUP2 DUP2 MSTORE PUSH1 0x20 ADD PUSH1 0x0 SWAP1 JUMPDEST DUP3 DUP3 LT ISZERO PUSH2 0x57A1 JUMPI DUP4 DUP3 SWAP1 PUSH1 0x0 MSTORE PUSH1 0x20 PUSH1 0x0 KECCAK256 SWAP1 PUSH1 0x2 MUL ADD PUSH1 0x40 MLOAD DUP1 PUSH1 0x40 ADD PUSH1 0x40 MSTORE SWAP1 DUP2 PUSH1 0x0 DUP3 ADD PUSH1 0x0 SWAP1 SLOAD SWAP1 PUSH2 0x100 EXP SWAP1 DIV PUSH20 0xFFFFFFFFFFFFFFFFFFFFFFFFFFFFFFFFFFFFFFFF AND PUSH20 0xFFFFFFFFFFFFFFFFFFFFFFFFFFFFFFFFFFFFFFFF AND PUSH20 0xFFFFFFFFFFFFFFFFFFFFFFFFFFFFFFFFFFFFFFFF AND DUP2 MSTORE PUSH1 0x20 ADD PUSH1 0x1 DUP3 ADD SLOAD DUP2 MSTORE POP POP DUP2 MSTORE PUSH1 0x20 ADD SWAP1 PUSH1 0x1 ADD SWAP1 PUSH2 0x570F JUMP JUMPDEST POP POP POP POP SWAP1 POP SWAP2 SWAP1 POP JUMP JUMPDEST DUP1 PUSH1 0x0 PUSH20 0xFFFFFFFFFFFFFFFFFFFFFFFFFFFFFFFFFFFFFFFF AND DUP2 PUSH20 0xFFFFFFFFFFFFFFFFFFFFFFFFFFFFFFFFFFFFFFFF AND EQ PUSH2 0x5835 JUMPI PUSH2 0x57F5 DUP2 PUSH1 0xA PUSH2 0x6BAF SWAP1 SWAP2 SWAP1 PUSH4 0xFFFFFFFF AND JUMP JUMPDEST PUSH2 0x5834 JUMPI PUSH1 0x40 MLOAD PUSH32 0x8C379A000000000000000000000000000000000000000000000000000000000 DUP2 MSTORE PUSH1 0x4 ADD PUSH2 0x582B SWAP1 PUSH2 0x94C1 JUMP JUMPDEST PUSH1 0x40 MLOAD DUP1 SWAP2 SUB SWAP1 REVERT JUMPDEST JUMPDEST PUSH2 0x583D PUSH2 0x4309 JUMP JUMPDEST PUSH2 0x587C JUMPI PUSH1 0x40 MLOAD PUSH32 0x8C379A000000000000000000000000000000000000000000000000000000000 DUP2 MSTORE PUSH1 0x4 ADD PUSH2 0x5873 SWAP1 PUSH2 0x93E1 JUMP JUMPDEST PUSH1 0x40 MLOAD DUP1 SWAP2 SUB SWAP1 REVERT JUMPDEST PUSH2 0x5890 DUP3 PUSH1 0xA PUSH2 0x7706 SWAP1 SWAP2 SWAP1 PUSH4 0xFFFFFFFF AND JUMP JUMPDEST POP POP JUMP JUMPDEST PUSH1 0x0 DUP1 SWAP1 POP JUMPDEST DUP3 DUP3 SWAP1 POP DUP2 LT ISZERO PUSH2 0x5910 JUMPI PUSH2 0x58AD PUSH2 0x7A28 JUMP JUMPDEST DUP4 DUP4 DUP4 DUP2 DUP2 LT PUSH2 0x58B9 JUMPI INVALID JUMPDEST SWAP1 POP PUSH2 0x100 MUL ADD DUP1 CALLDATASIZE SUB PUSH2 0x58D0 SWAP2 SWAP1 DUP2 ADD SWAP1 PUSH2 0x8074 JUMP JUMPDEST SWAP1 POP PUSH2 0x5902 DUP2 PUSH1 0x0 ADD MLOAD DUP3 PUSH1 0x20 ADD MLOAD DUP4 PUSH1 0x40 ADD MLOAD DUP5 PUSH1 0x60 ADD MLOAD DUP6 PUSH1 0x80 ADD MLOAD DUP7 PUSH1 0xA0 ADD MLOAD DUP8 PUSH1 0xC0 ADD MLOAD DUP9 PUSH1 0xE0 ADD MLOAD PUSH2 0x27A1 JUMP JUMPDEST POP DUP1 DUP1 PUSH1 0x1 ADD SWAP2 POP POP PUSH2 0x589A JUMP JUMPDEST POP POP POP JUMP JUMPDEST PUSH1 0x6 PUSH1 0x20 MSTORE DUP3 PUSH1 0x0 MSTORE PUSH1 0x40 PUSH1 0x0 KECCAK256 PUSH1 0x20 MSTORE DUP2 PUSH1 0x0 MSTORE PUSH1 0x40 PUSH1 0x0 KECCAK256 PUSH1 0x20 MSTORE DUP1 PUSH1 0x0 MSTORE PUSH1 0x40 PUSH1 0x0 KECCAK256 PUSH1 0x0 SWAP3 POP SWAP3 POP POP POP DUP1 PUSH1 0x0 ADD PUSH1 0x0 SWAP1 SLOAD SWAP1 PUSH2 0x100 EXP SWAP1 DIV PUSH20 0xFFFFFFFFFFFFFFFFFFFFFFFFFFFFFFFFFFFFFFFF AND SWAP1 DUP1 PUSH1 0x1 ADD SLOAD SWAP1 POP DUP3 JUMP JUMPDEST PUSH1 0x0 PUSH1 0x16 SWAP1 SLOAD SWAP1 PUSH2 0x100 EXP SWAP1 DIV PUSH2 0xFFFF AND DUP2 JUMP JUMPDEST PUSH2 0x598F PUSH2 0x4309 JUMP JUMPDEST PUSH2 0x59CE JUMPI PUSH1 0x40 MLOAD PUSH32 0x8C379A000000000000000000000000000000000000000000000000000000000 DUP2 MSTORE PUSH1 0x4 ADD PUSH2 0x59C5 SWAP1 PUSH2 0x93E1 JUMP JUMPDEST PUSH1 0x40 MLOAD DUP1 SWAP2 SUB SWAP1 REVERT JUMPDEST PUSH1 0x0 PUSH20 0xFFFFFFFFFFFFFFFFFFFFFFFFFFFFFFFFFFFFFFFF AND DUP2 PUSH20 0xFFFFFFFFFFFFFFFFFFFFFFFFFFFFFFFFFFFFFFFF AND EQ ISZERO PUSH2 0x5A3E JUMPI PUSH1 0x40 MLOAD PUSH32 0x8C379A000000000000000000000000000000000000000000000000000000000 DUP2 MSTORE PUSH1 0x4 ADD PUSH2 0x5A35 SWAP1 PUSH2 0x9261 JUMP JUMPDEST PUSH1 0x40 MLOAD DUP1 SWAP2 SUB SWAP1 REVERT JUMPDEST DUP1 PUSH1 0x0 DUP1 PUSH2 0x100 EXP DUP2 SLOAD DUP2 PUSH20 0xFFFFFFFFFFFFFFFFFFFFFFFFFFFFFFFFFFFFFFFF MUL NOT AND SWAP1 DUP4 PUSH20 0xFFFFFFFFFFFFFFFFFFFFFFFFFFFFFFFFFFFFFFFF AND MUL OR SWAP1 SSTORE POP POP JUMP JUMPDEST PUSH2 0x5A89 PUSH2 0x4309 JUMP JUMPDEST PUSH2 0x5AC8 JUMPI PUSH1 0x40 MLOAD PUSH32 0x8C379A000000000000000000000000000000000000000000000000000000000 DUP2 MSTORE PUSH1 0x4 ADD PUSH2 0x5ABF SWAP1 PUSH2 0x93E1 JUMP JUMPDEST PUSH1 0x40 MLOAD DUP1 SWAP2 SUB SWAP1 REVERT JUMPDEST PUSH2 0x5ADC DUP2 PUSH1 0xA PUSH2 0x6BAF SWAP1 SWAP2 SWAP1 PUSH4 0xFFFFFFFF AND JUMP JUMPDEST PUSH2 0x5B1B JUMPI PUSH1 0x40 MLOAD PUSH32 0x8C379A000000000000000000000000000000000000000000000000000000000 DUP2 MSTORE PUSH1 0x4 ADD PUSH2 0x5B12 SWAP1 PUSH2 0x9301 JUMP JUMPDEST PUSH1 0x40 MLOAD DUP1 SWAP2 SUB SWAP1 REVERT JUMPDEST PUSH1 0x0 DUP2 SWAP1 POP DUP1 PUSH20 0xFFFFFFFFFFFFFFFFFFFFFFFFFFFFFFFFFFFFFFFF AND PUSH4 0xA9059CBB CALLER PUSH1 0xE PUSH1 0x0 DUP7 PUSH20 0xFFFFFFFFFFFFFFFFFFFFFFFFFFFFFFFFFFFFFFFF AND PUSH20 0xFFFFFFFFFFFFFFFFFFFFFFFFFFFFFFFFFFFFFFFF AND DUP2 MSTORE PUSH1 0x20 ADD SWAP1 DUP2 MSTORE PUSH1 0x20 ADD PUSH1 0x0 KECCAK256 SLOAD PUSH1 0x40 MLOAD DUP4 PUSH4 0xFFFFFFFF AND PUSH1 0xE0 SHL DUP2 MSTORE PUSH1 0x4 ADD PUSH2 0x5B9A SWAP3 SWAP2 SWAP1 PUSH2 0x8F51 JUMP JUMPDEST PUSH1 0x20 PUSH1 0x40 MLOAD DUP1 DUP4 SUB DUP2 PUSH1 0x0 DUP8 DUP1 EXTCODESIZE ISZERO DUP1 ISZERO PUSH2 0x5BB4 JUMPI PUSH1 0x0 DUP1 REVERT JUMPDEST POP GAS CALL ISZERO DUP1 ISZERO PUSH2 0x5BC8 JUMPI RETURNDATASIZE PUSH1 0x0 DUP1 RETURNDATACOPY RETURNDATASIZE PUSH1 0x0 REVERT JUMPDEST POP POP POP POP PUSH1 0x40 MLOAD RETURNDATASIZE PUSH1 0x1F NOT PUSH1 0x1F DUP3 ADD AND DUP3 ADD DUP1 PUSH1 0x40 MSTORE POP PUSH2 0x5BEC SWAP2 SWAP1 DUP2 ADD SWAP1 PUSH2 0x804B JUMP JUMPDEST POP PUSH1 0x0 PUSH1 0xE PUSH1 0x0 DUP5 PUSH20 0xFFFFFFFFFFFFFFFFFFFFFFFFFFFFFFFFFFFFFFFF AND PUSH20 0xFFFFFFFFFFFFFFFFFFFFFFFFFFFFFFFFFFFFFFFF AND DUP2 MSTORE PUSH1 0x20 ADD SWAP1 DUP2 MSTORE PUSH1 0x20 ADD PUSH1 0x0 KECCAK256 DUP2 SWAP1 SSTORE POP POP POP JUMP JUMPDEST PUSH2 0x5C3E PUSH2 0x4309 JUMP JUMPDEST PUSH2 0x5C7D JUMPI PUSH1 0x40 MLOAD PUSH32 0x8C379A000000000000000000000000000000000000000000000000000000000 DUP2 MSTORE PUSH1 0x4 ADD PUSH2 0x5C74 SWAP1 PUSH2 0x93E1 JUMP JUMPDEST PUSH1 0x40 MLOAD DUP1 SWAP2 SUB SWAP1 REVERT JUMPDEST DUP1 PUSH1 0x1 DUP2 SWAP1 SSTORE POP POP JUMP JUMPDEST PUSH1 0x60 PUSH1 0x5 PUSH1 0x0 ADD DUP1 SLOAD DUP1 PUSH1 0x20 MUL PUSH1 0x20 ADD PUSH1 0x40 MLOAD SWAP1 DUP2 ADD PUSH1 0x40 MSTORE DUP1 SWAP3 SWAP2 SWAP1 DUP2 DUP2 MSTORE PUSH1 0x20 ADD PUSH1 0x0 SWAP1 JUMPDEST DUP3 DUP3 LT ISZERO PUSH2 0x5D40 JUMPI DUP4 DUP3 SWAP1 PUSH1 0x0 MSTORE PUSH1 0x20 PUSH1 0x0 KECCAK256 SWAP1 PUSH1 0x2 MUL ADD PUSH1 0x40 MLOAD DUP1 PUSH1 0x40 ADD PUSH1 0x40 MSTORE SWAP1 DUP2 PUSH1 0x0 DUP3 ADD PUSH1 0x0 SWAP1 SLOAD SWAP1 PUSH2 0x100 EXP SWAP1 DIV PUSH20 0xFFFFFFFFFFFFFFFFFFFFFFFFFFFFFFFFFFFFFFFF AND PUSH20 0xFFFFFFFFFFFFFFFFFFFFFFFFFFFFFFFFFFFFFFFF AND PUSH20 0xFFFFFFFFFFFFFFFFFFFFFFFFFFFFFFFFFFFFFFFF AND DUP2 MSTORE PUSH1 0x20 ADD PUSH1 0x1 DUP3 ADD SLOAD DUP2 MSTORE POP POP DUP2 MSTORE PUSH1 0x20 ADD SWAP1 PUSH1 0x1 ADD SWAP1 PUSH2 0x5CAE JUMP JUMPDEST POP POP POP POP SWAP1 POP SWAP1 JUMP JUMPDEST DUP4 DUP4 PUSH1 0x1 ISZERO ISZERO PUSH1 0x2 PUSH1 0x0 DUP4 PUSH20 0xFFFFFFFFFFFFFFFFFFFFFFFFFFFFFFFFFFFFFFFF AND PUSH20 0xFFFFFFFFFFFFFFFFFFFFFFFFFFFFFFFFFFFFFFFF AND DUP2 MSTORE PUSH1 0x20 ADD SWAP1 DUP2 MSTORE PUSH1 0x20 ADD PUSH1 0x0 KECCAK256 PUSH1 0x0 DUP5 DUP2 MSTORE PUSH1 0x20 ADD SWAP1 DUP2 MSTORE PUSH1 0x20 ADD PUSH1 0x0 KECCAK256 PUSH1 0x0 SWAP1 SLOAD SWAP1 PUSH2 0x100 EXP SWAP1 DIV PUSH1 0xFF AND ISZERO ISZERO EQ PUSH2 0x5DEF JUMPI PUSH1 0x40 MLOAD PUSH32 0x8C379A000000000000000000000000000000000000000000000000000000000 DUP2 MSTORE PUSH1 0x4 ADD PUSH2 0x5DE6 SWAP1 PUSH2 0x9341 JUMP JUMPDEST PUSH1 0x40 MLOAD DUP1 SWAP2 SUB SWAP1 REVERT JUMPDEST DUP3 PUSH1 0x0 PUSH20 0xFFFFFFFFFFFFFFFFFFFFFFFFFFFFFFFFFFFFFFFF AND DUP2 PUSH20 0xFFFFFFFFFFFFFFFFFFFFFFFFFFFFFFFFFFFFFFFF AND EQ PUSH2 0x5E78 JUMPI PUSH2 0x5E38 DUP2 PUSH1 0xA PUSH2 0x6BAF SWAP1 SWAP2 SWAP1 PUSH4 0xFFFFFFFF AND JUMP JUMPDEST PUSH2 0x5E77 JUMPI PUSH1 0x40 MLOAD PUSH32 0x8C379A000000000000000000000000000000000000000000000000000000000 DUP2 MSTORE PUSH1 0x4 ADD PUSH2 0x5E6E SWAP1 PUSH2 0x94C1 JUMP JUMPDEST PUSH1 0x40 MLOAD DUP1 SWAP2 SUB SWAP1 REVERT JUMPDEST JUMPDEST DUP7 DUP7 CALLER PUSH20 0xFFFFFFFFFFFFFFFFFFFFFFFFFFFFFFFFFFFFFFFF AND DUP2 PUSH20 0xFFFFFFFFFFFFFFFFFFFFFFFFFFFFFFFFFFFFFFFF AND PUSH4 0x6352211E DUP5 PUSH1 0x40 MLOAD DUP3 PUSH4 0xFFFFFFFF AND PUSH1 0xE0 SHL DUP2 MSTORE PUSH1 0x4 ADD PUSH2 0x5ECA SWAP2 SWAP1 PUSH2 0x9570 JUMP JUMPDEST PUSH1 0x20 PUSH1 0x40 MLOAD DUP1 DUP4 SUB DUP2 DUP7 DUP1 EXTCODESIZE ISZERO DUP1 ISZERO PUSH2 0x5EE2 JUMPI PUSH1 0x0 DUP1 REVERT JUMPDEST POP GAS STATICCALL ISZERO DUP1 ISZERO PUSH2 0x5EF6 JUMPI RETURNDATASIZE PUSH1 0x0 DUP1 RETURNDATACOPY RETURNDATASIZE PUSH1 0x0 REVERT JUMPDEST POP POP POP POP PUSH1 0x40 MLOAD RETURNDATASIZE PUSH1 0x1F NOT PUSH1 0x1F DUP3 ADD AND DUP3 ADD DUP1 PUSH1 0x40 MSTORE POP PUSH2 0x5F1A SWAP2 SWAP1 DUP2 ADD SWAP1 PUSH2 0x7DB6 JUMP JUMPDEST PUSH20 0xFFFFFFFFFFFFFFFFFFFFFFFFFFFFFFFFFFFFFFFF AND EQ PUSH2 0x5F70 JUMPI PUSH1 0x40 MLOAD PUSH32 0x8C379A000000000000000000000000000000000000000000000000000000000 DUP2 MSTORE PUSH1 0x4 ADD PUSH2 0x5F67 SWAP1 PUSH2 0x9181 JUMP JUMPDEST PUSH1 0x40 MLOAD DUP1 SWAP2 SUB SWAP1 REVERT JUMPDEST PUSH2 0x5F78 PUSH2 0x78EE JUMP JUMPDEST PUSH1 0x7 PUSH1 0x0 DUP11 PUSH20 0xFFFFFFFFFFFFFFFFFFFFFFFFFFFFFFFFFFFFFFFF AND PUSH20 0xFFFFFFFFFFFFFFFFFFFFFFFFFFFFFFFFFFFFFFFF AND DUP2 MSTORE PUSH1 0x20 ADD SWAP1 DUP2 MSTORE PUSH1 0x20 ADD PUSH1 0x0 KECCAK256 PUSH1 0x0 DUP12 DUP2 MSTORE PUSH1 0x20 ADD SWAP1 DUP2 MSTORE PUSH1 0x20 ADD PUSH1 0x0 KECCAK256 PUSH1 0x40 MLOAD DUP1 PUSH2 0x140 ADD PUSH1 0x40 MSTORE SWAP1 DUP2 PUSH1 0x0 DUP3 ADD PUSH1 0x0 SWAP1 SLOAD SWAP1 PUSH2 0x100 EXP SWAP1 DIV PUSH20 0xFFFFFFFFFFFFFFFFFFFFFFFFFFFFFFFFFFFFFFFF AND PUSH20 0xFFFFFFFFFFFFFFFFFFFFFFFFFFFFFFFFFFFFFFFF AND PUSH20 0xFFFFFFFFFFFFFFFFFFFFFFFFFFFFFFFFFFFFFFFF AND DUP2 MSTORE PUSH1 0x20 ADD PUSH1 0x1 DUP3 ADD SLOAD DUP2 MSTORE PUSH1 0x20 ADD PUSH1 0x2 DUP3 ADD PUSH1 0x0 SWAP1 SLOAD SWAP1 PUSH2 0x100 EXP SWAP1 DIV PUSH20 0xFFFFFFFFFFFFFFFFFFFFFFFFFFFFFFFFFFFFFFFF AND PUSH20 0xFFFFFFFFFFFFFFFFFFFFFFFFFFFFFFFFFFFFFFFF AND PUSH20 0xFFFFFFFFFFFFFFFFFFFFFFFFFFFFFFFFFFFFFFFF AND DUP2 MSTORE PUSH1 0x20 ADD PUSH1 0x3 DUP3 ADD SLOAD DUP2 MSTORE PUSH1 0x20 ADD PUSH1 0x4 DUP3 ADD SLOAD DUP2 MSTORE PUSH1 0x20 ADD PUSH1 0x5 DUP3 ADD SLOAD DUP2 MSTORE PUSH1 0x20 ADD PUSH1 0x6 DUP3 ADD PUSH1 0x0 SWAP1 SLOAD SWAP1 PUSH2 0x100 EXP SWAP1 DIV PUSH1 0xFF AND ISZERO ISZERO ISZERO ISZERO DUP2 MSTORE PUSH1 0x20 ADD PUSH1 0x7 DUP3 ADD SLOAD DUP2 MSTORE PUSH1 0x20 ADD PUSH1 0x8 DUP3 ADD SLOAD DUP2 MSTORE PUSH1 0x20 ADD PUSH1 0x9 DUP3 ADD PUSH1 0x0 SWAP1 SLOAD SWAP1 PUSH2 0x100 EXP SWAP1 DIV PUSH20 0xFFFFFFFFFFFFFFFFFFFFFFFFFFFFFFFFFFFFFFFF AND PUSH20 0xFFFFFFFFFFFFFFFFFFFFFFFFFFFFFFFFFFFFFFFF AND PUSH20 0xFFFFFFFFFFFFFFFFFFFFFFFFFFFFFFFFFFFFFFFF AND DUP2 MSTORE POP POP SWAP1 POP PUSH1 0x2 DUP2 PUSH1 0x60 ADD MLOAD EQ ISZERO PUSH2 0x6184 JUMPI DUP1 PUSH2 0x100 ADD MLOAD TIMESTAMP LT PUSH2 0x6183 JUMPI PUSH1 0x40 MLOAD PUSH32 0x8C379A000000000000000000000000000000000000000000000000000000000 DUP2 MSTORE PUSH1 0x4 ADD PUSH2 0x617A SWAP1 PUSH2 0x9401 JUMP JUMPDEST PUSH1 0x40 MLOAD DUP1 SWAP2 SUB SWAP1 REVERT JUMPDEST JUMPDEST DUP1 PUSH1 0x0 ADD MLOAD PUSH20 0xFFFFFFFFFFFFFFFFFFFFFFFFFFFFFFFFFFFFFFFF AND DUP11 DUP11 PUSH20 0xFFFFFFFFFFFFFFFFFFFFFFFFFFFFFFFFFFFFFFFF AND PUSH32 0x4A232D19B0ABE3474B9311B6769FA4B4A725B50D0222B222357981B17A8E7E97 DUP5 PUSH1 0x60 ADD MLOAD PUSH1 0x1 DUP7 PUSH1 0x60 ADD MLOAD EQ PUSH2 0x61F3 JUMPI DUP6 PUSH1 0x80 ADD MLOAD PUSH2 0x61F9 JUMP JUMPDEST DUP6 PUSH1 0xA0 ADD MLOAD JUMPDEST DUP14 TIMESTAMP DUP9 PUSH2 0x120 ADD MLOAD PUSH1 0x40 MLOAD PUSH2 0x6212 SWAP6 SWAP5 SWAP4 SWAP3 SWAP2 SWAP1 PUSH2 0x964C JUMP JUMPDEST PUSH1 0x40 MLOAD DUP1 SWAP2 SUB SWAP1 LOG4 PUSH1 0x1 DUP2 PUSH1 0x60 ADD MLOAD EQ ISZERO PUSH2 0x6236 JUMPI DUP8 DUP2 PUSH1 0xA0 ADD DUP2 DUP2 MSTORE POP POP PUSH2 0x624B JUMP JUMPDEST DUP8 DUP2 PUSH1 0x80 ADD DUP2 DUP2 MSTORE POP POP DUP8 DUP2 PUSH1 0x20 ADD DUP2 DUP2 MSTORE POP POP JUMPDEST DUP7 DUP2 PUSH2 0x120 ADD SWAP1 PUSH20 0xFFFFFFFFFFFFFFFFFFFFFFFFFFFFFFFFFFFFFFFF AND SWAP1 DUP2 PUSH20 0xFFFFFFFFFFFFFFFFFFFFFFFFFFFFFFFFFFFFFFFF AND DUP2 MSTORE POP POP DUP1 PUSH1 0x7 PUSH1 0x0 DUP12 PUSH20 0xFFFFFFFFFFFFFFFFFFFFFFFFFFFFFFFFFFFFFFFF AND PUSH20 0xFFFFFFFFFFFFFFFFFFFFFFFFFFFFFFFFFFFFFFFF AND DUP2 MSTORE PUSH1 0x20 ADD SWAP1 DUP2 MSTORE PUSH1 0x20 ADD PUSH1 0x0 KECCAK256 PUSH1 0x0 DUP13 DUP2 MSTORE PUSH1 0x20 ADD SWAP1 DUP2 MSTORE PUSH1 0x20 ADD PUSH1 0x0 KECCAK256 PUSH1 0x0 DUP3 ADD MLOAD DUP2 PUSH1 0x0 ADD PUSH1 0x0 PUSH2 0x100 EXP DUP2 SLOAD DUP2 PUSH20 0xFFFFFFFFFFFFFFFFFFFFFFFFFFFFFFFFFFFFFFFF MUL NOT AND SWAP1 DUP4 PUSH20 0xFFFFFFFFFFFFFFFFFFFFFFFFFFFFFFFFFFFFFFFF AND MUL OR SWAP1 SSTORE POP PUSH1 0x20 DUP3 ADD MLOAD DUP2 PUSH1 0x1 ADD SSTORE PUSH1 0x40 DUP3 ADD MLOAD DUP2 PUSH1 0x2 ADD PUSH1 0x0 PUSH2 0x100 EXP DUP2 SLOAD DUP2 PUSH20 0xFFFFFFFFFFFFFFFFFFFFFFFFFFFFFFFFFFFFFFFF MUL NOT AND SWAP1 DUP4 PUSH20 0xFFFFFFFFFFFFFFFFFFFFFFFFFFFFFFFFFFFFFFFF AND MUL OR SWAP1 SSTORE POP PUSH1 0x60 DUP3 ADD MLOAD DUP2 PUSH1 0x3 ADD SSTORE PUSH1 0x80 DUP3 ADD MLOAD DUP2 PUSH1 0x4 ADD SSTORE PUSH1 0xA0 DUP3 ADD MLOAD DUP2 PUSH1 0x5 ADD SSTORE PUSH1 0xC0 DUP3 ADD MLOAD DUP2 PUSH1 0x6 ADD PUSH1 0x0 PUSH2 0x100 EXP DUP2 SLOAD DUP2 PUSH1 0xFF MUL NOT AND SWAP1 DUP4 ISZERO ISZERO MUL OR SWAP1 SSTORE POP PUSH1 0xE0 DUP3 ADD MLOAD DUP2 PUSH1 0x7 ADD SSTORE PUSH2 0x100 DUP3 ADD MLOAD DUP2 PUSH1 0x8 ADD SSTORE PUSH2 0x120 DUP3 ADD MLOAD DUP2 PUSH1 0x9 ADD PUSH1 0x0 PUSH2 0x100 EXP DUP2 SLOAD DUP2 PUSH20 0xFFFFFFFFFFFFFFFFFFFFFFFFFFFFFFFFFFFFFFFF MUL NOT AND SWAP1 DUP4 PUSH20 0xFFFFFFFFFFFFFFFFFFFFFFFFFFFFFFFFFFFFFFFF AND MUL OR SWAP1 SSTORE POP SWAP1 POP POP POP POP POP POP POP POP POP POP POP POP JUMP JUMPDEST PUSH1 0x0 PUSH1 0x6 PUSH1 0x0 DUP6 PUSH20 0xFFFFFFFFFFFFFFFFFFFFFFFFFFFFFFFFFFFFFFFF AND PUSH20 0xFFFFFFFFFFFFFFFFFFFFFFFFFFFFFFFFFFFFFFFF AND DUP2 MSTORE PUSH1 0x20 ADD SWAP1 DUP2 MSTORE PUSH1 0x20 ADD PUSH1 0x0 KECCAK256 PUSH1 0x0 DUP5 DUP2 MSTORE PUSH1 0x20 ADD SWAP1 DUP2 MSTORE PUSH1 0x20 ADD PUSH1 0x0 KECCAK256 PUSH1 0x0 DUP4 PUSH20 0xFFFFFFFFFFFFFFFFFFFFFFFFFFFFFFFFFFFFFFFF AND PUSH20 0xFFFFFFFFFFFFFFFFFFFFFFFFFFFFFFFFFFFFFFFF AND DUP2 MSTORE PUSH1 0x20 ADD SWAP1 DUP2 MSTORE PUSH1 0x20 ADD PUSH1 0x0 KECCAK256 PUSH1 0x1 ADD SLOAD GT DUP1 ISZERO PUSH2 0x6594 JUMPI POP PUSH1 0x0 PUSH20 0xFFFFFFFFFFFFFFFFFFFFFFFFFFFFFFFFFFFFFFFF AND PUSH1 0x6 PUSH1 0x0 DUP6 PUSH20 0xFFFFFFFFFFFFFFFFFFFFFFFFFFFFFFFFFFFFFFFF AND PUSH20 0xFFFFFFFFFFFFFFFFFFFFFFFFFFFFFFFFFFFFFFFF AND DUP2 MSTORE PUSH1 0x20 ADD SWAP1 DUP2 MSTORE PUSH1 0x20 ADD PUSH1 0x0 KECCAK256 PUSH1 0x0 DUP5 DUP2 MSTORE PUSH1 0x20 ADD SWAP1 DUP2 MSTORE PUSH1 0x20 ADD PUSH1 0x0 KECCAK256 PUSH1 0x0 DUP4 PUSH20 0xFFFFFFFFFFFFFFFFFFFFFFFFFFFFFFFFFFFFFFFF AND PUSH20 0xFFFFFFFFFFFFFFFFFFFFFFFFFFFFFFFFFFFFFFFF AND DUP2 MSTORE PUSH1 0x20 ADD SWAP1 DUP2 MSTORE PUSH1 0x20 ADD PUSH1 0x0 KECCAK256 PUSH1 0x0 ADD PUSH1 0x0 SWAP1 SLOAD SWAP1 PUSH2 0x100 EXP SWAP1 DIV PUSH20 0xFFFFFFFFFFFFFFFFFFFFFFFFFFFFFFFFFFFFFFFF AND PUSH20 0xFFFFFFFFFFFFFFFFFFFFFFFFFFFFFFFFFFFFFFFF AND EQ ISZERO JUMPDEST ISZERO PUSH2 0x69EF JUMPI PUSH1 0x0 PUSH20 0xFFFFFFFFFFFFFFFFFFFFFFFFFFFFFFFFFFFFFFFF AND DUP2 PUSH20 0xFFFFFFFFFFFFFFFFFFFFFFFFFFFFFFFFFFFFFFFF AND EQ ISZERO PUSH2 0x675A JUMPI PUSH1 0x6 PUSH1 0x0 DUP5 PUSH20 0xFFFFFFFFFFFFFFFFFFFFFFFFFFFFFFFFFFFFFFFF AND PUSH20 0xFFFFFFFFFFFFFFFFFFFFFFFFFFFFFFFFFFFFFFFF AND DUP2 MSTORE PUSH1 0x20 ADD SWAP1 DUP2 MSTORE PUSH1 0x20 ADD PUSH1 0x0 KECCAK256 PUSH1 0x0 DUP4 DUP2 MSTORE PUSH1 0x20 ADD SWAP1 DUP2 MSTORE PUSH1 0x20 ADD PUSH1 0x0 KECCAK256 PUSH1 0x0 DUP3 PUSH20 0xFFFFFFFFFFFFFFFFFFFFFFFFFFFFFFFFFFFFFFFF AND PUSH20 0xFFFFFFFFFFFFFFFFFFFFFFFFFFFFFFFFFFFFFFFF AND DUP2 MSTORE PUSH1 0x20 ADD SWAP1 DUP2 MSTORE PUSH1 0x20 ADD PUSH1 0x0 KECCAK256 PUSH1 0x0 ADD PUSH1 0x0 SWAP1 SLOAD SWAP1 PUSH2 0x100 EXP SWAP1 DIV PUSH20 0xFFFFFFFFFFFFFFFFFFFFFFFFFFFFFFFFFFFFFFFF AND PUSH20 0xFFFFFFFFFFFFFFFFFFFFFFFFFFFFFFFFFFFFFFFF AND PUSH2 0x8FC PUSH1 0x6 PUSH1 0x0 DUP7 PUSH20 0xFFFFFFFFFFFFFFFFFFFFFFFFFFFFFFFFFFFFFFFF AND PUSH20 0xFFFFFFFFFFFFFFFFFFFFFFFFFFFFFFFFFFFFFFFF AND DUP2 MSTORE PUSH1 0x20 ADD SWAP1 DUP2 MSTORE PUSH1 0x20 ADD PUSH1 0x0 KECCAK256 PUSH1 0x0 DUP6 DUP2 MSTORE PUSH1 0x20 ADD SWAP1 DUP2 MSTORE PUSH1 0x20 ADD PUSH1 0x0 KECCAK256 PUSH1 0x0 DUP5 PUSH20 0xFFFFFFFFFFFFFFFFFFFFFFFFFFFFFFFFFFFFFFFF AND PUSH20 0xFFFFFFFFFFFFFFFFFFFFFFFFFFFFFFFFFFFFFFFF AND DUP2 MSTORE PUSH1 0x20 ADD SWAP1 DUP2 MSTORE PUSH1 0x20 ADD PUSH1 0x0 KECCAK256 PUSH1 0x1 ADD SLOAD SWAP1 DUP2 ISZERO MUL SWAP1 PUSH1 0x40 MLOAD PUSH1 0x0 PUSH1 0x40 MLOAD DUP1 DUP4 SUB DUP2 DUP6 DUP9 DUP9 CALL SWAP4 POP POP POP POP ISZERO DUP1 ISZERO PUSH2 0x6754 JUMPI RETURNDATASIZE PUSH1 0x0 DUP1 RETURNDATACOPY RETURNDATASIZE PUSH1 0x0 REVERT JUMPDEST POP PUSH2 0x692F JUMP JUMPDEST PUSH1 0x0 DUP2 SWAP1 POP DUP1 PUSH20 0xFFFFFFFFFFFFFFFFFFFFFFFFFFFFFFFFFFFFFFFF AND PUSH4 0xA9059CBB PUSH1 0x6 PUSH1 0x0 DUP8 PUSH20 0xFFFFFFFFFFFFFFFFFFFFFFFFFFFFFFFFFFFFFFFF AND PUSH20 0xFFFFFFFFFFFFFFFFFFFFFFFFFFFFFFFFFFFFFFFF AND DUP2 MSTORE PUSH1 0x20 ADD SWAP1 DUP2 MSTORE PUSH1 0x20 ADD PUSH1 0x0 KECCAK256 PUSH1 0x0 DUP7 DUP2 MSTORE PUSH1 0x20 ADD SWAP1 DUP2 MSTORE PUSH1 0x20 ADD PUSH1 0x0 KECCAK256 PUSH1 0x0 DUP6 PUSH20 0xFFFFFFFFFFFFFFFFFFFFFFFFFFFFFFFFFFFFFFFF AND PUSH20 0xFFFFFFFFFFFFFFFFFFFFFFFFFFFFFFFFFFFFFFFF AND DUP2 MSTORE PUSH1 0x20 ADD SWAP1 DUP2 MSTORE PUSH1 0x20 ADD PUSH1 0x0 KECCAK256 PUSH1 0x0 ADD PUSH1 0x0 SWAP1 SLOAD SWAP1 PUSH2 0x100 EXP SWAP1 DIV PUSH20 0xFFFFFFFFFFFFFFFFFFFFFFFFFFFFFFFFFFFFFFFF AND PUSH1 0x6 PUSH1 0x0 DUP9 PUSH20 0xFFFFFFFFFFFFFFFFFFFFFFFFFFFFFFFFFFFFFFFF AND PUSH20 0xFFFFFFFFFFFFFFFFFFFFFFFFFFFFFFFFFFFFFFFF AND DUP2 MSTORE PUSH1 0x20 ADD SWAP1 DUP2 MSTORE PUSH1 0x20 ADD PUSH1 0x0 KECCAK256 PUSH1 0x0 DUP8 DUP2 MSTORE PUSH1 0x20 ADD SWAP1 DUP2 MSTORE PUSH1 0x20 ADD PUSH1 0x0 KECCAK256 PUSH1 0x0 DUP7 PUSH20 0xFFFFFFFFFFFFFFFFFFFFFFFFFFFFFFFFFFFFFFFF AND PUSH20 0xFFFFFFFFFFFFFFFFFFFFFFFFFFFFFFFFFFFFFFFF AND DUP2 MSTORE PUSH1 0x20 ADD SWAP1 DUP2 MSTORE PUSH1 0x20 ADD PUSH1 0x0 KECCAK256 PUSH1 0x1 ADD SLOAD PUSH1 0x40 MLOAD DUP4 PUSH4 0xFFFFFFFF AND PUSH1 0xE0 SHL DUP2 MSTORE PUSH1 0x4 ADD PUSH2 0x68DA SWAP3 SWAP2 SWAP1 PUSH2 0x90C9 JUMP JUMPDEST PUSH1 0x20 PUSH1 0x40 MLOAD DUP1 DUP4 SUB DUP2 PUSH1 0x0 DUP8 DUP1 EXTCODESIZE ISZERO DUP1 ISZERO PUSH2 0x68F4 JUMPI PUSH1 0x0 DUP1 REVERT JUMPDEST POP GAS CALL ISZERO DUP1 ISZERO PUSH2 0x6908 JUMPI RETURNDATASIZE PUSH1 0x0 DUP1 RETURNDATACOPY RETURNDATASIZE PUSH1 0x0 REVERT JUMPDEST POP POP POP POP PUSH1 0x40 MLOAD RETURNDATASIZE PUSH1 0x1F NOT PUSH1 0x1F DUP3 ADD AND DUP3 ADD DUP1 PUSH1 0x40 MSTORE POP PUSH2 0x692C SWAP2 SWAP1 DUP2 ADD SWAP1 PUSH2 0x804B JUMP JUMPDEST POP POP JUMPDEST PUSH1 0x6 PUSH1 0x0 DUP5 PUSH20 0xFFFFFFFFFFFFFFFFFFFFFFFFFFFFFFFFFFFFFFFF AND PUSH20 0xFFFFFFFFFFFFFFFFFFFFFFFFFFFFFFFFFFFFFFFF AND DUP2 MSTORE PUSH1 0x20 ADD SWAP1 DUP2 MSTORE PUSH1 0x20 ADD PUSH1 0x0 KECCAK256 PUSH1 0x0 DUP4 DUP2 MSTORE PUSH1 0x20 ADD SWAP1 DUP2 MSTORE PUSH1 0x20 ADD PUSH1 0x0 KECCAK256 PUSH1 0x0 DUP3 PUSH20 0xFFFFFFFFFFFFFFFFFFFFFFFFFFFFFFFFFFFFFFFF AND PUSH20 0xFFFFFFFFFFFFFFFFFFFFFFFFFFFFFFFFFFFFFFFF AND DUP2 MSTORE PUSH1 0x20 ADD SWAP1 DUP2 MSTORE PUSH1 0x20 ADD PUSH1 0x0 KECCAK256 PUSH1 0x0 DUP1 DUP3 ADD PUSH1 0x0 PUSH2 0x100 EXP DUP2 SLOAD SWAP1 PUSH20 0xFFFFFFFFFFFFFFFFFFFFFFFFFFFFFFFFFFFFFFFF MUL NOT AND SWAP1 SSTORE PUSH1 0x1 DUP3 ADD PUSH1 0x0 SWAP1 SSTORE POP POP JUMPDEST POP POP POP JUMP JUMPDEST PUSH1 0x0 DUP1 PUSH1 0x0 PUSH2 0x6A0C DUP5 DUP7 PUSH2 0x77FF SWAP1 SWAP2 SWAP1 PUSH4 0xFFFFFFFF AND JUMP JUMPDEST SWAP2 POP SWAP2 POP PUSH1 0x1 ISZERO ISZERO DUP2 ISZERO ISZERO EQ ISZERO PUSH2 0x6B35 JUMPI DUP5 PUSH1 0x0 ADD PUSH1 0x1 DUP7 PUSH1 0x0 ADD DUP1 SLOAD SWAP1 POP SUB DUP2 SLOAD DUP2 LT PUSH2 0x6A36 JUMPI INVALID JUMPDEST SWAP1 PUSH1 0x0 MSTORE PUSH1 0x20 PUSH1 0x0 KECCAK256 SWAP1 PUSH1 0x2 MUL ADD DUP6 PUSH1 0x0 ADD DUP4 DUP2 SLOAD DUP2 LT PUSH2 0x6A53 JUMPI INVALID JUMPDEST SWAP1 PUSH1 0x0 MSTORE PUSH1 0x20 PUSH1 0x0 KECCAK256 SWAP1 PUSH1 0x2 MUL ADD PUSH1 0x0 DUP3 ADD PUSH1 0x0 SWAP1 SLOAD SWAP1 PUSH2 0x100 EXP SWAP1 DIV PUSH20 0xFFFFFFFFFFFFFFFFFFFFFFFFFFFFFFFFFFFFFFFF AND DUP2 PUSH1 0x0 ADD PUSH1 0x0 PUSH2 0x100 EXP DUP2 SLOAD DUP2 PUSH20 0xFFFFFFFFFFFFFFFFFFFFFFFFFFFFFFFFFFFFFFFF MUL NOT AND SWAP1 DUP4 PUSH20 0xFFFFFFFFFFFFFFFFFFFFFFFFFFFFFFFFFFFFFFFF AND MUL OR SWAP1 SSTORE POP PUSH1 0x1 DUP3 ADD SLOAD DUP2 PUSH1 0x1 ADD SSTORE SWAP1 POP POP DUP5 PUSH1 0x0 ADD DUP1 SLOAD DUP1 PUSH2 0x6AE2 JUMPI INVALID JUMPDEST PUSH1 0x1 SWAP1 SUB DUP2 DUP2 SWAP1 PUSH1 0x0 MSTORE PUSH1 0x20 PUSH1 0x0 KECCAK256 SWAP1 PUSH1 0x2 MUL ADD PUSH1 0x0 DUP1 DUP3 ADD PUSH1 0x0 PUSH2 0x100 EXP DUP2 SLOAD SWAP1 PUSH20 0xFFFFFFFFFFFFFFFFFFFFFFFFFFFFFFFFFFFFFFFF MUL NOT AND SWAP1 SSTORE PUSH1 0x1 DUP3 ADD PUSH1 0x0 SWAP1 SSTORE POP POP SWAP1 SSTORE PUSH1 0x1 SWAP3 POP POP POP PUSH2 0x6B3C JUMP JUMPDEST PUSH1 0x0 SWAP3 POP POP POP JUMPDEST SWAP3 SWAP2 POP POP JUMP JUMPDEST PUSH1 0x0 DUP1 SWAP1 POP JUMPDEST PUSH1 0xA PUSH1 0x0 ADD DUP1 SLOAD SWAP1 POP DUP2 LT ISZERO PUSH2 0x6BAA JUMPI PUSH2 0x6B9D DUP4 DUP4 PUSH1 0xA PUSH1 0x0 ADD DUP5 DUP2 SLOAD DUP2 LT PUSH2 0x6B6D JUMPI INVALID JUMPDEST SWAP1 PUSH1 0x0 MSTORE PUSH1 0x20 PUSH1 0x0 KECCAK256 ADD PUSH1 0x0 SWAP1 SLOAD SWAP1 PUSH2 0x100 EXP SWAP1 DIV PUSH20 0xFFFFFFFFFFFFFFFFFFFFFFFFFFFFFFFFFFFFFFFF AND PUSH2 0x6417 JUMP JUMPDEST DUP1 DUP1 PUSH1 0x1 ADD SWAP2 POP POP PUSH2 0x6B48 JUMP JUMPDEST POP POP POP JUMP JUMPDEST PUSH1 0x0 DUP1 PUSH1 0x0 SWAP1 POP JUMPDEST DUP4 PUSH1 0x0 ADD DUP1 SLOAD SWAP1 POP DUP2 LT ISZERO PUSH2 0x6C4A JUMPI DUP3 PUSH20 0xFFFFFFFFFFFFFFFFFFFFFFFFFFFFFFFFFFFFFFFF AND DUP5 PUSH1 0x0 ADD DUP3 DUP2 SLOAD DUP2 LT PUSH2 0x6BEC JUMPI INVALID JUMPDEST SWAP1 PUSH1 0x0 MSTORE PUSH1 0x20 PUSH1 0x0 KECCAK256 ADD PUSH1 0x0 SWAP1 SLOAD SWAP1 PUSH2 0x100 EXP SWAP1 DIV PUSH20 0xFFFFFFFFFFFFFFFFFFFFFFFFFFFFFFFFFFFFFFFF AND PUSH20 0xFFFFFFFFFFFFFFFFFFFFFFFFFFFFFFFFFFFFFFFF AND EQ ISZERO PUSH2 0x6C3D JUMPI PUSH1 0x1 SWAP2 POP POP PUSH2 0x6C50 JUMP JUMPDEST DUP1 DUP1 PUSH1 0x1 ADD SWAP2 POP POP PUSH2 0x6BB7 JUMP JUMPDEST POP PUSH1 0x0 SWAP1 POP JUMPDEST SWAP3 SWAP2 POP POP JUMP JUMPDEST PUSH1 0x0 DUP7 SWAP1 POP PUSH1 0x0 DUP1 PUSH1 0x0 DUP6 PUSH2 0x6D8C JUMPI DUP4 PUSH20 0xFFFFFFFFFFFFFFFFFFFFFFFFFFFFFFFFFFFFFFFF AND PUSH4 0xB5004F01 DUP13 PUSH1 0x40 MLOAD DUP3 PUSH4 0xFFFFFFFF AND PUSH1 0xE0 SHL DUP2 MSTORE PUSH1 0x4 ADD PUSH2 0x6C9E SWAP2 SWAP1 PUSH2 0x9570 JUMP JUMPDEST PUSH1 0x20 PUSH1 0x40 MLOAD DUP1 DUP4 SUB DUP2 DUP7 DUP1 EXTCODESIZE ISZERO DUP1 ISZERO PUSH2 0x6CB6 JUMPI PUSH1 0x0 DUP1 REVERT JUMPDEST POP GAS STATICCALL ISZERO DUP1 ISZERO PUSH2 0x6CCA JUMPI RETURNDATASIZE PUSH1 0x0 DUP1 RETURNDATACOPY RETURNDATASIZE PUSH1 0x0 REVERT JUMPDEST POP POP POP POP PUSH1 0x40 MLOAD RETURNDATASIZE PUSH1 0x1F NOT PUSH1 0x1F DUP3 ADD AND DUP3 ADD DUP1 PUSH1 0x40 MSTORE POP PUSH2 0x6CEE SWAP2 SWAP1 DUP2 ADD SWAP1 PUSH2 0x818E JUMP JUMPDEST SWAP3 POP DUP4 PUSH20 0xFFFFFFFFFFFFFFFFFFFFFFFFFFFFFFFFFFFFFFFF AND PUSH4 0xCD53D08E DUP13 PUSH1 0x40 MLOAD DUP3 PUSH4 0xFFFFFFFF AND PUSH1 0xE0 SHL DUP2 MSTORE PUSH1 0x4 ADD PUSH2 0x6D29 SWAP2 SWAP1 PUSH2 0x9570 JUMP JUMPDEST PUSH1 0x20 PUSH1 0x40 MLOAD DUP1 DUP4 SUB DUP2 DUP7 DUP1 EXTCODESIZE ISZERO DUP1 ISZERO PUSH2 0x6D41 JUMPI PUSH1 0x0 DUP1 REVERT JUMPDEST POP GAS STATICCALL ISZERO DUP1 ISZERO PUSH2 0x6D55 JUMPI RETURNDATASIZE PUSH1 0x0 DUP1 RETURNDATACOPY RETURNDATASIZE PUSH1 0x0 REVERT JUMPDEST POP POP POP POP PUSH1 0x40 MLOAD RETURNDATASIZE PUSH1 0x1F NOT PUSH1 0x1F DUP3 ADD AND DUP3 ADD DUP1 PUSH1 0x40 MSTORE POP PUSH2 0x6D79 SWAP2 SWAP1 DUP2 ADD SWAP1 PUSH2 0x7DDF JUMP JUMPDEST SWAP2 POP PUSH2 0x2710 DUP8 DUP5 MUL DUP2 PUSH2 0x6D88 JUMPI INVALID JUMPDEST DIV SWAP1 POP JUMPDEST PUSH1 0x0 PUSH2 0x2710 DUP9 PUSH1 0x0 PUSH1 0x14 SWAP1 SLOAD SWAP1 PUSH2 0x100 EXP SWAP1 DIV PUSH2 0xFFFF AND PUSH2 0xFFFF AND MUL DUP2 PUSH2 0x6DAF JUMPI INVALID JUMPDEST DIV SWAP1 POP PUSH1 0x0 PUSH2 0x2710 DUP10 PUSH1 0x0 PUSH1 0x18 SWAP1 SLOAD SWAP1 PUSH2 0x100 EXP SWAP1 DIV PUSH2 0xFFFF AND PUSH2 0xFFFF AND MUL DUP2 PUSH2 0x6DD5 JUMPI INVALID JUMPDEST DIV SWAP1 POP PUSH1 0x0 PUSH2 0x2710 DUP11 PUSH1 0x0 PUSH1 0x16 SWAP1 SLOAD SWAP1 PUSH2 0x100 EXP SWAP1 DIV PUSH2 0xFFFF AND PUSH2 0xFFFF AND MUL DUP2 PUSH2 0x6DFB JUMPI INVALID JUMPDEST DIV SWAP1 POP PUSH1 0x0 DUP2 DUP4 DUP6 DUP8 DUP15 SUB SUB SUB SUB SWAP1 POP PUSH1 0x0 CALLER SWAP1 POP PUSH1 0x0 DUP15 SWAP1 POP PUSH1 0x0 PUSH1 0xB PUSH1 0x0 SWAP1 SLOAD SWAP1 PUSH2 0x100 EXP SWAP1 DIV PUSH20 0xFFFFFFFFFFFFFFFFFFFFFFFFFFFFFFFFFFFFFFFF AND SWAP1 POP PUSH1 0x0 PUSH20 0xFFFFFFFFFFFFFFFFFFFFFFFFFFFFFFFFFFFFFFFF AND DUP16 PUSH20 0xFFFFFFFFFFFFFFFFFFFFFFFFFFFFFFFFFFFFFFFF AND EQ ISZERO PUSH2 0x6FB7 JUMPI DUP12 ISZERO PUSH2 0x6EBB JUMPI DUP14 CALLVALUE LT ISZERO PUSH2 0x6EBA JUMPI PUSH1 0x40 MLOAD PUSH32 0x8C379A000000000000000000000000000000000000000000000000000000000 DUP2 MSTORE PUSH1 0x4 ADD PUSH2 0x6EB1 SWAP1 PUSH2 0x93A1 JUMP JUMPDEST PUSH1 0x40 MLOAD DUP1 SWAP2 SUB SWAP1 REVERT JUMPDEST JUMPDEST DUP13 PUSH2 0x6F08 JUMPI DUP9 PUSH20 0xFFFFFFFFFFFFFFFFFFFFFFFFFFFFFFFFFFFFFFFF AND PUSH2 0x8FC DUP10 SWAP1 DUP2 ISZERO MUL SWAP1 PUSH1 0x40 MLOAD PUSH1 0x0 PUSH1 0x40 MLOAD DUP1 DUP4 SUB DUP2 DUP6 DUP9 DUP9 CALL SWAP4 POP POP POP POP ISZERO DUP1 ISZERO PUSH2 0x6F06 JUMPI RETURNDATASIZE PUSH1 0x0 DUP1 RETURNDATACOPY RETURNDATASIZE PUSH1 0x0 REVERT JUMPDEST POP JUMPDEST DUP2 PUSH20 0xFFFFFFFFFFFFFFFFFFFFFFFFFFFFFFFFFFFFFFFF AND PUSH2 0x8FC DUP6 SWAP1 DUP2 ISZERO MUL SWAP1 PUSH1 0x40 MLOAD PUSH1 0x0 PUSH1 0x40 MLOAD DUP1 DUP4 SUB DUP2 DUP6 DUP9 DUP9 CALL SWAP4 POP POP POP POP ISZERO DUP1 ISZERO PUSH2 0x6F4E JUMPI RETURNDATASIZE PUSH1 0x0 DUP1 RETURNDATACOPY RETURNDATASIZE PUSH1 0x0 REVERT JUMPDEST POP DUP1 PUSH20 0xFFFFFFFFFFFFFFFFFFFFFFFFFFFFFFFFFFFFFFFF AND PUSH4 0xD0E30DB0 DUP8 DUP10 ADD PUSH1 0x40 MLOAD DUP3 PUSH4 0xFFFFFFFF AND PUSH1 0xE0 SHL DUP2 MSTORE PUSH1 0x4 ADD PUSH1 0x0 PUSH1 0x40 MLOAD DUP1 DUP4 SUB DUP2 DUP6 DUP9 DUP1 EXTCODESIZE ISZERO DUP1 ISZERO PUSH2 0x6F99 JUMPI PUSH1 0x0 DUP1 REVERT JUMPDEST POP GAS CALL ISZERO DUP1 ISZERO PUSH2 0x6FAD JUMPI RETURNDATASIZE PUSH1 0x0 DUP1 RETURNDATACOPY RETURNDATASIZE PUSH1 0x0 REVERT JUMPDEST POP POP POP POP POP PUSH2 0x7373 JUMP JUMPDEST PUSH1 0x0 DUP16 SWAP1 POP DUP13 ISZERO PUSH2 0x724E JUMPI DUP15 DUP2 PUSH20 0xFFFFFFFFFFFFFFFFFFFFFFFFFFFFFFFFFFFFFFFF AND PUSH4 0xDD62ED3E DUP7 ADDRESS PUSH1 0x40 MLOAD DUP4 PUSH4 0xFFFFFFFF AND PUSH1 0xE0 SHL DUP2 MSTORE PUSH1 0x4 ADD PUSH2 0x6FFE SWAP3 SWAP2 SWAP1 PUSH2 0x8E75 JUMP JUMPDEST PUSH1 0x20 PUSH1 0x40 MLOAD DUP1 DUP4 SUB DUP2 DUP7 DUP1 EXTCODESIZE ISZERO DUP1 ISZERO PUSH2 0x7016 JUMPI PUSH1 0x0 DUP1 REVERT JUMPDEST POP GAS STATICCALL ISZERO DUP1 ISZERO PUSH2 0x702A JUMPI RETURNDATASIZE PUSH1 0x0 DUP1 RETURNDATACOPY RETURNDATASIZE PUSH1 0x0 REVERT JUMPDEST POP POP POP POP PUSH1 0x40 MLOAD RETURNDATASIZE PUSH1 0x1F NOT PUSH1 0x1F DUP3 ADD AND DUP3 ADD DUP1 PUSH1 0x40 MSTORE POP PUSH2 0x704E SWAP2 SWAP1 DUP2 ADD SWAP1 PUSH2 0x818E JUMP JUMPDEST LT ISZERO PUSH2 0x708F JUMPI PUSH1 0x40 MLOAD PUSH32 0x8C379A000000000000000000000000000000000000000000000000000000000 DUP2 MSTORE PUSH1 0x4 ADD PUSH2 0x7086 SWAP1 PUSH2 0x9281 JUMP JUMPDEST PUSH1 0x40 MLOAD DUP1 SWAP2 SUB SWAP1 REVERT JUMPDEST DUP1 PUSH20 0xFFFFFFFFFFFFFFFFFFFFFFFFFFFFFFFFFFFFFFFF AND PUSH4 0x23B872DD DUP6 ADDRESS DUP11 DUP13 DUP12 ADD ADD PUSH1 0x40 MLOAD DUP5 PUSH4 0xFFFFFFFF AND PUSH1 0xE0 SHL DUP2 MSTORE PUSH1 0x4 ADD PUSH2 0x70D0 SWAP4 SWAP3 SWAP2 SWAP1 PUSH2 0x8F1A JUMP JUMPDEST PUSH1 0x20 PUSH1 0x40 MLOAD DUP1 DUP4 SUB DUP2 PUSH1 0x0 DUP8 DUP1 EXTCODESIZE ISZERO DUP1 ISZERO PUSH2 0x70EA JUMPI PUSH1 0x0 DUP1 REVERT JUMPDEST POP GAS CALL ISZERO DUP1 ISZERO PUSH2 0x70FE JUMPI RETURNDATASIZE PUSH1 0x0 DUP1 RETURNDATACOPY RETURNDATASIZE PUSH1 0x0 REVERT JUMPDEST POP POP POP POP PUSH1 0x40 MLOAD RETURNDATASIZE PUSH1 0x1F NOT PUSH1 0x1F DUP3 ADD AND DUP3 ADD DUP1 PUSH1 0x40 MSTORE POP PUSH2 0x7122 SWAP2 SWAP1 DUP2 ADD SWAP1 PUSH2 0x804B JUMP JUMPDEST POP DUP14 PUSH2 0x71B9 JUMPI DUP1 PUSH20 0xFFFFFFFFFFFFFFFFFFFFFFFFFFFFFFFFFFFFFFFF AND PUSH4 0x23B872DD DUP6 DUP13 DUP13 PUSH1 0x40 MLOAD DUP5 PUSH4 0xFFFFFFFF AND PUSH1 0xE0 SHL DUP2 MSTORE PUSH1 0x4 ADD PUSH2 0x7165 SWAP4 SWAP3 SWAP2 SWAP1 PUSH2 0x8E9E JUMP JUMPDEST PUSH1 0x20 PUSH1 0x40 MLOAD DUP1 DUP4 SUB DUP2 PUSH1 0x0 DUP8 DUP1 EXTCODESIZE ISZERO DUP1 ISZERO PUSH2 0x717F JUMPI PUSH1 0x0 DUP1 REVERT JUMPDEST POP GAS CALL ISZERO DUP1 ISZERO PUSH2 0x7193 JUMPI RETURNDATASIZE PUSH1 0x0 DUP1 RETURNDATACOPY RETURNDATASIZE PUSH1 0x0 REVERT JUMPDEST POP POP POP POP PUSH1 0x40 MLOAD RETURNDATASIZE PUSH1 0x1F NOT PUSH1 0x1F DUP3 ADD AND DUP3 ADD DUP1 PUSH1 0x40 MSTORE POP PUSH2 0x71B7 SWAP2 SWAP1 DUP2 ADD SWAP1 PUSH2 0x804B JUMP JUMPDEST POP JUMPDEST DUP1 PUSH20 0xFFFFFFFFFFFFFFFFFFFFFFFFFFFFFFFFFFFFFFFF AND PUSH4 0x23B872DD DUP6 DUP6 DUP9 PUSH1 0x40 MLOAD DUP5 PUSH4 0xFFFFFFFF AND PUSH1 0xE0 SHL DUP2 MSTORE PUSH1 0x4 ADD PUSH2 0x71F6 SWAP4 SWAP3 SWAP2 SWAP1 PUSH2 0x8E9E JUMP JUMPDEST PUSH1 0x20 PUSH1 0x40 MLOAD DUP1 DUP4 SUB DUP2 PUSH1 0x0 DUP8 DUP1 EXTCODESIZE ISZERO DUP1 ISZERO PUSH2 0x7210 JUMPI PUSH1 0x0 DUP1 REVERT JUMPDEST POP GAS CALL ISZERO DUP1 ISZERO PUSH2 0x7224 JUMPI RETURNDATASIZE PUSH1 0x0 DUP1 RETURNDATACOPY RETURNDATASIZE PUSH1 0x0 REVERT JUMPDEST POP POP POP POP PUSH1 0x40 MLOAD RETURNDATASIZE PUSH1 0x1F NOT PUSH1 0x1F DUP3 ADD AND DUP3 ADD DUP1 PUSH1 0x40 MSTORE POP PUSH2 0x7248 SWAP2 SWAP1 DUP2 ADD SWAP1 PUSH2 0x804B JUMP JUMPDEST POP PUSH2 0x7371 JUMP JUMPDEST DUP14 PUSH2 0x72E2 JUMPI DUP1 PUSH20 0xFFFFFFFFFFFFFFFFFFFFFFFFFFFFFFFFFFFFFFFF AND PUSH4 0xA9059CBB DUP12 DUP12 PUSH1 0x40 MLOAD DUP4 PUSH4 0xFFFFFFFF AND PUSH1 0xE0 SHL DUP2 MSTORE PUSH1 0x4 ADD PUSH2 0x728E SWAP3 SWAP2 SWAP1 PUSH2 0x8F51 JUMP JUMPDEST PUSH1 0x20 PUSH1 0x40 MLOAD DUP1 DUP4 SUB DUP2 PUSH1 0x0 DUP8 DUP1 EXTCODESIZE ISZERO DUP1 ISZERO PUSH2 0x72A8 JUMPI PUSH1 0x0 DUP1 REVERT JUMPDEST POP GAS CALL ISZERO DUP1 ISZERO PUSH2 0x72BC JUMPI RETURNDATASIZE PUSH1 0x0 DUP1 RETURNDATACOPY RETURNDATASIZE PUSH1 0x0 REVERT JUMPDEST POP POP POP POP PUSH1 0x40 MLOAD RETURNDATASIZE PUSH1 0x1F NOT PUSH1 0x1F DUP3 ADD AND DUP3 ADD DUP1 PUSH1 0x40 MSTORE POP PUSH2 0x72E0 SWAP2 SWAP1 DUP2 ADD SWAP1 PUSH2 0x804B JUMP JUMPDEST POP JUMPDEST DUP1 PUSH20 0xFFFFFFFFFFFFFFFFFFFFFFFFFFFFFFFFFFFFFFFF AND PUSH4 0xA9059CBB DUP5 DUP8 PUSH1 0x40 MLOAD DUP4 PUSH4 0xFFFFFFFF AND PUSH1 0xE0 SHL DUP2 MSTORE PUSH1 0x4 ADD PUSH2 0x731D SWAP3 SWAP2 SWAP1 PUSH2 0x8F51 JUMP JUMPDEST PUSH1 0x20 PUSH1 0x40 MLOAD DUP1 DUP4 SUB DUP2 PUSH1 0x0 DUP8 DUP1 EXTCODESIZE ISZERO DUP1 ISZERO PUSH2 0x7337 JUMPI PUSH1 0x0 DUP1 REVERT JUMPDEST POP GAS CALL ISZERO DUP1 ISZERO PUSH2 0x734B JUMPI RETURNDATASIZE PUSH1 0x0 DUP1 RETURNDATACOPY RETURNDATASIZE PUSH1 0x0 REVERT JUMPDEST POP POP POP POP PUSH1 0x40 MLOAD RETURNDATASIZE PUSH1 0x1F NOT PUSH1 0x1F DUP3 ADD AND DUP3 ADD DUP1 PUSH1 0x40 MSTORE POP PUSH2 0x736F SWAP2 SWAP1 DUP2 ADD SWAP1 PUSH2 0x804B JUMP JUMPDEST POP JUMPDEST POP JUMPDEST PUSH1 0x0 PUSH20 0xFFFFFFFFFFFFFFFFFFFFFFFFFFFFFFFFFFFFFFFF AND DUP16 PUSH20 0xFFFFFFFFFFFFFFFFFFFFFFFFFFFFFFFFFFFFFFFF AND EQ DUP1 PUSH2 0x73FB JUMPI POP PUSH1 0xB PUSH1 0x0 SWAP1 SLOAD SWAP1 PUSH2 0x100 EXP SWAP1 DIV PUSH20 0xFFFFFFFFFFFFFFFFFFFFFFFFFFFFFFFFFFFFFFFF AND PUSH20 0xFFFFFFFFFFFFFFFFFFFFFFFFFFFFFFFFFFFFFFFF AND DUP16 PUSH20 0xFFFFFFFFFFFFFFFFFFFFFFFFFFFFFFFFFFFFFFFF AND EQ JUMPDEST ISZERO PUSH2 0x769B JUMPI PUSH1 0x0 DUP8 GT ISZERO PUSH2 0x754D JUMPI DUP1 PUSH20 0xFFFFFFFFFFFFFFFFFFFFFFFFFFFFFFFFFFFFFFFF AND PUSH4 0x95EA7B3 PUSH1 0xC PUSH1 0x0 SWAP1 SLOAD SWAP1 PUSH2 0x100 EXP SWAP1 DIV PUSH20 0xFFFFFFFFFFFFFFFFFFFFFFFFFFFFFFFFFFFFFFFF AND DUP10 PUSH1 0x40 MLOAD DUP4 PUSH4 0xFFFFFFFF AND PUSH1 0xE0 SHL DUP2 MSTORE PUSH1 0x4 ADD PUSH2 0x7466 SWAP3 SWAP2 SWAP1 PUSH2 0x90C9 JUMP JUMPDEST PUSH1 0x20 PUSH1 0x40 MLOAD DUP1 DUP4 SUB DUP2 PUSH1 0x0 DUP8 DUP1 EXTCODESIZE ISZERO DUP1 ISZERO PUSH2 0x7480 JUMPI PUSH1 0x0 DUP1 REVERT JUMPDEST POP GAS CALL ISZERO DUP1 ISZERO PUSH2 0x7494 JUMPI RETURNDATASIZE PUSH1 0x0 DUP1 RETURNDATACOPY RETURNDATASIZE PUSH1 0x0 REVERT JUMPDEST POP POP POP POP PUSH1 0x40 MLOAD RETURNDATASIZE PUSH1 0x1F NOT PUSH1 0x1F DUP3 ADD AND DUP3 ADD DUP1 PUSH1 0x40 MSTORE POP PUSH2 0x74B8 SWAP2 SWAP1 DUP2 ADD SWAP1 PUSH2 0x804B JUMP JUMPDEST POP PUSH1 0x0 PUSH1 0xC PUSH1 0x0 SWAP1 SLOAD SWAP1 PUSH2 0x100 EXP SWAP1 DIV PUSH20 0xFFFFFFFFFFFFFFFFFFFFFFFFFFFFFFFFFFFFFFFF AND SWAP1 POP DUP1 PUSH20 0xFFFFFFFFFFFFFFFFFFFFFFFFFFFFFFFFFFFFFFFF AND PUSH4 0xE7C928B1 DUP10 PUSH1 0x40 MLOAD DUP3 PUSH4 0xFFFFFFFF AND PUSH1 0xE0 SHL DUP2 MSTORE PUSH1 0x4 ADD PUSH2 0x7519 SWAP2 SWAP1 PUSH2 0x9570 JUMP JUMPDEST PUSH1 0x0 PUSH1 0x40 MLOAD DUP1 DUP4 SUB DUP2 PUSH1 0x0 DUP8 DUP1 EXTCODESIZE ISZERO DUP1 ISZERO PUSH2 0x7533 JUMPI PUSH1 0x0 DUP1 REVERT JUMPDEST POP GAS CALL ISZERO DUP1 ISZERO PUSH2 0x7547 JUMPI RETURNDATASIZE PUSH1 0x0 DUP1 RETURNDATACOPY RETURNDATASIZE PUSH1 0x0 REVERT JUMPDEST POP POP POP POP POP JUMPDEST PUSH1 0x0 DUP7 GT ISZERO PUSH2 0x769A JUMPI DUP1 PUSH20 0xFFFFFFFFFFFFFFFFFFFFFFFFFFFFFFFFFFFFFFFF AND PUSH4 0x95EA7B3 PUSH1 0xD PUSH1 0x0 SWAP1 SLOAD SWAP1 PUSH2 0x100 EXP SWAP1 DIV PUSH20 0xFFFFFFFFFFFFFFFFFFFFFFFFFFFFFFFFFFFFFFFF AND DUP9 PUSH1 0x40 MLOAD DUP4 PUSH4 0xFFFFFFFF AND PUSH1 0xE0 SHL DUP2 MSTORE PUSH1 0x4 ADD PUSH2 0x75B3 SWAP3 SWAP2 SWAP1 PUSH2 0x90C9 JUMP JUMPDEST PUSH1 0x20 PUSH1 0x40 MLOAD DUP1 DUP4 SUB DUP2 PUSH1 0x0 DUP8 DUP1 EXTCODESIZE ISZERO DUP1 ISZERO PUSH2 0x75CD JUMPI PUSH1 0x0 DUP1 REVERT JUMPDEST POP GAS CALL ISZERO DUP1 ISZERO PUSH2 0x75E1 JUMPI RETURNDATASIZE PUSH1 0x0 DUP1 RETURNDATACOPY RETURNDATASIZE PUSH1 0x0 REVERT JUMPDEST POP POP POP POP PUSH1 0x40 MLOAD RETURNDATASIZE PUSH1 0x1F NOT PUSH1 0x1F DUP3 ADD AND DUP3 ADD DUP1 PUSH1 0x40 MSTORE POP PUSH2 0x7605 SWAP2 SWAP1 DUP2 ADD SWAP1 PUSH2 0x804B JUMP JUMPDEST POP PUSH1 0x0 PUSH1 0xD PUSH1 0x0 SWAP1 SLOAD SWAP1 PUSH2 0x100 EXP SWAP1 DIV PUSH20 0xFFFFFFFFFFFFFFFFFFFFFFFFFFFFFFFFFFFFFFFF AND SWAP1 POP DUP1 PUSH20 0xFFFFFFFFFFFFFFFFFFFFFFFFFFFFFFFFFFFFFFFF AND PUSH4 0xE7C928B1 DUP9 PUSH1 0x40 MLOAD DUP3 PUSH4 0xFFFFFFFF AND PUSH1 0xE0 SHL DUP2 MSTORE PUSH1 0x4 ADD PUSH2 0x7666 SWAP2 SWAP1 PUSH2 0x9570 JUMP JUMPDEST PUSH1 0x0 PUSH1 0x40 MLOAD DUP1 DUP4 SUB DUP2 PUSH1 0x0 DUP8 DUP1 EXTCODESIZE ISZERO DUP1 ISZERO PUSH2 0x7680 JUMPI PUSH1 0x0 DUP1 REVERT JUMPDEST POP GAS CALL ISZERO DUP1 ISZERO PUSH2 0x7694 JUMPI RETURNDATASIZE PUSH1 0x0 DUP1 RETURNDATACOPY RETURNDATASIZE PUSH1 0x0 REVERT JUMPDEST POP POP POP POP POP JUMPDEST JUMPDEST PUSH1 0x0 DUP16 SWAP1 POP DUP7 DUP9 DUP8 ADD ADD PUSH1 0xE PUSH1 0x0 DUP4 PUSH20 0xFFFFFFFFFFFFFFFFFFFFFFFFFFFFFFFFFFFFFFFF AND PUSH20 0xFFFFFFFFFFFFFFFFFFFFFFFFFFFFFFFFFFFFFFFF AND DUP2 MSTORE PUSH1 0x20 ADD SWAP1 DUP2 MSTORE PUSH1 0x20 ADD PUSH1 0x0 KECCAK256 PUSH1 0x0 DUP3 DUP3 SLOAD ADD SWAP3 POP POP DUP2 SWAP1 SSTORE POP POP POP POP POP POP POP POP POP POP POP POP POP POP POP POP POP POP POP POP JUMP JUMPDEST PUSH1 0x1 DUP3 PUSH1 0x0 ADD DUP1 SLOAD SWAP1 POP GT ISZERO PUSH2 0x77E8 JUMPI PUSH1 0x0 DUP1 SWAP1 POP JUMPDEST DUP3 PUSH1 0x0 ADD DUP1 SLOAD SWAP1 POP DUP2 LT ISZERO PUSH2 0x77E2 JUMPI DUP2 PUSH20 0xFFFFFFFFFFFFFFFFFFFFFFFFFFFFFFFFFFFFFFFF AND DUP4 PUSH1 0x0 ADD DUP3 DUP2 SLOAD DUP2 LT PUSH2 0x7751 JUMPI INVALID JUMPDEST SWAP1 PUSH1 0x0 MSTORE PUSH1 0x20 PUSH1 0x0 KECCAK256 ADD PUSH1 0x0 SWAP1 SLOAD SWAP1 PUSH2 0x100 EXP SWAP1 DIV PUSH20 0xFFFFFFFFFFFFFFFFFFFFFFFFFFFFFFFFFFFFFFFF AND PUSH20 0xFFFFFFFFFFFFFFFFFFFFFFFFFFFFFFFFFFFFFFFF AND EQ ISZERO PUSH2 0x77D5 JUMPI DUP3 PUSH1 0x0 ADD DUP2 DUP2 SLOAD DUP2 LT PUSH2 0x77A7 JUMPI INVALID JUMPDEST SWAP1 PUSH1 0x0 MSTORE PUSH1 0x20 PUSH1 0x0 KECCAK256 ADD PUSH1 0x0 PUSH2 0x100 EXP DUP2 SLOAD SWAP1 PUSH20 0xFFFFFFFFFFFFFFFFFFFFFFFFFFFFFFFFFFFFFFFF MUL NOT AND SWAP1 SSTORE JUMPDEST DUP1 DUP1 PUSH1 0x1 ADD SWAP2 POP POP PUSH2 0x771C JUMP JUMPDEST POP PUSH2 0x77FB JUMP JUMPDEST PUSH1 0x0 DUP3 PUSH1 0x0 ADD DUP2 PUSH2 0x77F9 SWAP2 SWAP1 PUSH2 0x7A99 JUMP JUMPDEST POP JUMPDEST POP POP JUMP JUMPDEST PUSH1 0x0 DUP1 PUSH1 0x0 DUP1 PUSH1 0x0 SWAP1 POP PUSH1 0x0 DUP1 SWAP1 POP JUMPDEST DUP7 PUSH1 0x0 ADD DUP1 SLOAD SWAP1 POP DUP2 LT ISZERO PUSH2 0x78DE JUMPI DUP6 PUSH1 0x0 ADD MLOAD PUSH20 0xFFFFFFFFFFFFFFFFFFFFFFFFFFFFFFFFFFFFFFFF AND DUP8 PUSH1 0x0 ADD DUP3 DUP2 SLOAD DUP2 LT PUSH2 0x7848 JUMPI INVALID JUMPDEST SWAP1 PUSH1 0x0 MSTORE PUSH1 0x20 PUSH1 0x0 KECCAK256 SWAP1 PUSH1 0x2 MUL ADD PUSH1 0x0 ADD PUSH1 0x0 SWAP1 SLOAD SWAP1 PUSH2 0x100 EXP SWAP1 DIV PUSH20 0xFFFFFFFFFFFFFFFFFFFFFFFFFFFFFFFFFFFFFFFF AND PUSH20 0xFFFFFFFFFFFFFFFFFFFFFFFFFFFFFFFFFFFFFFFF AND EQ DUP1 ISZERO PUSH2 0x78C0 JUMPI POP DUP6 PUSH1 0x20 ADD MLOAD DUP8 PUSH1 0x0 ADD DUP3 DUP2 SLOAD DUP2 LT PUSH2 0x78AC JUMPI INVALID JUMPDEST SWAP1 PUSH1 0x0 MSTORE PUSH1 0x20 PUSH1 0x0 KECCAK256 SWAP1 PUSH1 0x2 MUL ADD PUSH1 0x1 ADD SLOAD EQ JUMPDEST ISZERO PUSH2 0x78D1 JUMPI DUP1 SWAP3 POP PUSH1 0x1 SWAP2 POP PUSH2 0x78DE JUMP JUMPDEST DUP1 DUP1 PUSH1 0x1 ADD SWAP2 POP POP PUSH2 0x780F JUMP JUMPDEST POP DUP2 DUP2 SWAP4 POP SWAP4 POP POP POP SWAP3 POP SWAP3 SWAP1 POP JUMP JUMPDEST PUSH1 0x40 MLOAD DUP1 PUSH2 0x140 ADD PUSH1 0x40 MSTORE DUP1 PUSH1 0x0 PUSH20 0xFFFFFFFFFFFFFFFFFFFFFFFFFFFFFFFFFFFFFFFF AND DUP2 MSTORE PUSH1 0x20 ADD PUSH1 0x0 DUP2 MSTORE PUSH1 0x20 ADD PUSH1 0x0 PUSH20 0xFFFFFFFFFFFFFFFFFFFFFFFFFFFFFFFFFFFFFFFF AND DUP2 MSTORE PUSH1 0x20 ADD PUSH1 0x0 DUP2 MSTORE PUSH1 0x20 ADD PUSH1 0x0 DUP2 MSTORE PUSH1 0x20 ADD PUSH1 0x0 DUP2 MSTORE PUSH1 0x20 ADD PUSH1 0x0 ISZERO ISZERO DUP2 MSTORE PUSH1 0x20 ADD PUSH1 0x0 DUP2 MSTORE PUSH1 0x20 ADD PUSH1 0x0 DUP2 MSTORE PUSH1 0x20 ADD PUSH1 0x0 PUSH20 0xFFFFFFFFFFFFFFFFFFFFFFFFFFFFFFFFFFFFFFFF AND DUP2 MSTORE POP SWAP1 JUMP JUMPDEST PUSH1 0x40 MLOAD DUP1 PUSH1 0x40 ADD PUSH1 0x40 MSTORE DUP1 PUSH1 0x0 PUSH20 0xFFFFFFFFFFFFFFFFFFFFFFFFFFFFFFFFFFFFFFFF AND DUP2 MSTORE PUSH1 0x20 ADD PUSH1 0x0 DUP2 MSTORE POP SWAP1 JUMP JUMPDEST PUSH1 0x40 MLOAD DUP1 PUSH1 0x40 ADD PUSH1 0x40 MSTORE DUP1 PUSH1 0x0 PUSH20 0xFFFFFFFFFFFFFFFFFFFFFFFFFFFFFFFFFFFFFFFF AND DUP2 MSTORE PUSH1 0x20 ADD PUSH1 0x0 DUP2 MSTORE POP SWAP1 JUMP JUMPDEST PUSH1 0x40 MLOAD DUP1 PUSH1 0x40 ADD PUSH1 0x40 MSTORE DUP1 PUSH1 0x0 DUP2 MSTORE PUSH1 0x20 ADD PUSH1 0x0 PUSH20 0xFFFFFFFFFFFFFFFFFFFFFFFFFFFFFFFFFFFFFFFF AND DUP2 MSTORE POP SWAP1 JUMP JUMPDEST PUSH1 0x40 MLOAD DUP1 PUSH1 0x20 ADD PUSH1 0x40 MSTORE DUP1 PUSH1 0x60 DUP2 MSTORE POP SWAP1 JUMP JUMPDEST PUSH1 0x40 MLOAD DUP1 PUSH2 0x100 ADD PUSH1 0x40 MSTORE DUP1 PUSH1 0x0 DUP2 MSTORE PUSH1 0x20 ADD PUSH1 0x0 DUP2 MSTORE PUSH1 0x20 ADD PUSH1 0x0 DUP2 MSTORE PUSH1 0x20 ADD PUSH1 0x0 DUP2 MSTORE PUSH1 0x20 ADD PUSH1 0x0 DUP2 MSTORE PUSH1 0x20 ADD PUSH1 0x0 DUP2 MSTORE PUSH1 0x20 ADD PUSH1 0x0 PUSH20 0xFFFFFFFFFFFFFFFFFFFFFFFFFFFFFFFFFFFFFFFF AND DUP2 MSTORE PUSH1 0x20 ADD PUSH1 0x0 PUSH20 0xFFFFFFFFFFFFFFFFFFFFFFFFFFFFFFFFFFFFFFFF AND DUP2 MSTORE POP SWAP1 JUMP JUMPDEST DUP2 SLOAD DUP2 DUP4 SSTORE DUP2 DUP2 GT ISZERO PUSH2 0x7AC0 JUMPI DUP2 DUP4 PUSH1 0x0 MSTORE PUSH1 0x20 PUSH1 0x0 KECCAK256 SWAP2 DUP3 ADD SWAP2 ADD PUSH2 0x7ABF SWAP2 SWAP1 PUSH2 0x7AC5 JUMP JUMPDEST JUMPDEST POP POP POP JUMP JUMPDEST PUSH2 0x7AE7 SWAP2 SWAP1 JUMPDEST DUP1 DUP3 GT ISZERO PUSH2 0x7AE3 JUMPI PUSH1 0x0 DUP2 PUSH1 0x0 SWAP1 SSTORE POP PUSH1 0x1 ADD PUSH2 0x7ACB JUMP JUMPDEST POP SWAP1 JUMP JUMPDEST SWAP1 JUMP JUMPDEST PUSH1 0x0 DUP2 CALLDATALOAD SWAP1 POP PUSH2 0x7AF9 DUP2 PUSH2 0x9854 JUMP JUMPDEST SWAP3 SWAP2 POP POP JUMP JUMPDEST PUSH1 0x0 DUP2 MLOAD SWAP1 POP PUSH2 0x7B0E DUP2 PUSH2 0x9854 JUMP JUMPDEST SWAP3 SWAP2 POP POP JUMP JUMPDEST PUSH1 0x0 DUP2 MLOAD SWAP1 POP PUSH2 0x7B23 DUP2 PUSH2 0x986B JUMP JUMPDEST SWAP3 SWAP2 POP POP JUMP JUMPDEST PUSH1 0x0 DUP1 DUP4 PUSH1 0x1F DUP5 ADD SLT PUSH2 0x7B3B JUMPI PUSH1 0x0 DUP1 REVERT JUMPDEST DUP3 CALLDATALOAD SWAP1 POP PUSH8 0xFFFFFFFFFFFFFFFF DUP2 GT ISZERO PUSH2 0x7B54 JUMPI PUSH1 0x0 DUP1 REVERT JUMPDEST PUSH1 0x20 DUP4 ADD SWAP2 POP DUP4 PUSH2 0x100 DUP3 MUL DUP4 ADD GT ISZERO PUSH2 0x7B6D JUMPI PUSH1 0x0 DUP1 REVERT JUMPDEST SWAP3 POP SWAP3 SWAP1 POP JUMP JUMPDEST PUSH1 0x0 DUP1 DUP4 PUSH1 0x1F DUP5 ADD SLT PUSH2 0x7B86 JUMPI PUSH1 0x0 DUP1 REVERT JUMPDEST DUP3 CALLDATALOAD SWAP1 POP PUSH8 0xFFFFFFFFFFFFFFFF DUP2 GT ISZERO PUSH2 0x7B9F JUMPI PUSH1 0x0 DUP1 REVERT JUMPDEST PUSH1 0x20 DUP4 ADD SWAP2 POP DUP4 PUSH1 0x40 DUP3 MUL DUP4 ADD GT ISZERO PUSH2 0x7BB7 JUMPI PUSH1 0x0 DUP1 REVERT JUMPDEST SWAP3 POP SWAP3 SWAP1 POP JUMP JUMPDEST PUSH1 0x0 DUP2 CALLDATALOAD SWAP1 POP PUSH2 0x7BCD DUP2 PUSH2 0x9882 JUMP JUMPDEST SWAP3 SWAP2 POP POP JUMP JUMPDEST PUSH1 0x0 DUP2 MLOAD SWAP1 POP PUSH2 0x7BE2 DUP2 PUSH2 0x9882 JUMP JUMPDEST SWAP3 SWAP2 POP POP JUMP JUMPDEST PUSH1 0x0 DUP3 PUSH1 0x1F DUP4 ADD SLT PUSH2 0x7BF9 JUMPI PUSH1 0x0 DUP1 REVERT JUMPDEST DUP2 CALLDATALOAD PUSH2 0x7C0C PUSH2 0x7C07 DUP3 PUSH2 0x96CC JUMP JUMPDEST PUSH2 0x969F JUMP JUMPDEST SWAP2 POP DUP1 DUP3 MSTORE PUSH1 0x20 DUP4 ADD PUSH1 0x20 DUP4 ADD DUP6 DUP4 DUP4 ADD GT ISZERO PUSH2 0x7C28 JUMPI PUSH1 0x0 DUP1 REVERT JUMPDEST PUSH2 0x7C33 DUP4 DUP3 DUP5 PUSH2 0x9845 JUMP JUMPDEST POP POP POP SWAP3 SWAP2 POP POP JUMP JUMPDEST PUSH1 0x0 PUSH2 0x100 DUP3 DUP5 SUB SLT ISZERO PUSH2 0x7C4F JUMPI PUSH1 0x0 DUP1 REVERT JUMPDEST PUSH2 0x7C5A PUSH2 0x100 PUSH2 0x969F JUMP JUMPDEST SWAP1 POP PUSH1 0x0 PUSH2 0x7C6A DUP5 DUP3 DUP6 ADD PUSH2 0x7D63 JUMP JUMPDEST PUSH1 0x0 DUP4 ADD MSTORE POP PUSH1 0x20 PUSH2 0x7C7E DUP5 DUP3 DUP6 ADD PUSH2 0x7D63 JUMP JUMPDEST PUSH1 0x20 DUP4 ADD MSTORE POP PUSH1 0x40 PUSH2 0x7C92 DUP5 DUP3 DUP6 ADD PUSH2 0x7D63 JUMP JUMPDEST PUSH1 0x40 DUP4 ADD MSTORE POP PUSH1 0x60 PUSH2 0x7CA6 DUP5 DUP3 DUP6 ADD PUSH2 0x7D63 JUMP JUMPDEST PUSH1 0x60 DUP4 ADD MSTORE POP PUSH1 0x80 PUSH2 0x7CBA DUP5 DUP3 DUP6 ADD PUSH2 0x7D63 JUMP JUMPDEST PUSH1 0x80 DUP4 ADD MSTORE POP PUSH1 0xA0 PUSH2 0x7CCE DUP5 DUP3 DUP6 ADD PUSH2 0x7D63 JUMP JUMPDEST PUSH1 0xA0 DUP4 ADD MSTORE POP PUSH1 0xC0 PUSH2 0x7CE2 DUP5 DUP3 DUP6 ADD PUSH2 0x7AEA JUMP JUMPDEST PUSH1 0xC0 DUP4 ADD MSTORE POP PUSH1 0xE0 PUSH2 0x7CF6 DUP5 DUP3 DUP6 ADD PUSH2 0x7AEA JUMP JUMPDEST PUSH1 0xE0 DUP4 ADD MSTORE POP SWAP3 SWAP2 POP POP JUMP JUMPDEST PUSH1 0x0 PUSH1 0x40 DUP3 DUP5 SUB SLT ISZERO PUSH2 0x7D14 JUMPI PUSH1 0x0 DUP1 REVERT JUMPDEST PUSH2 0x7D1E PUSH1 0x40 PUSH2 0x969F JUMP JUMPDEST SWAP1 POP PUSH1 0x0 PUSH2 0x7D2E DUP5 DUP3 DUP6 ADD PUSH2 0x7D63 JUMP JUMPDEST PUSH1 0x0 DUP4 ADD MSTORE POP PUSH1 0x20 PUSH2 0x7D42 DUP5 DUP3 DUP6 ADD PUSH2 0x7AEA JUMP JUMPDEST PUSH1 0x20 DUP4 ADD MSTORE POP SWAP3 SWAP2 POP POP JUMP JUMPDEST PUSH1 0x0 DUP2 CALLDATALOAD SWAP1 POP PUSH2 0x7D5D DUP2 PUSH2 0x9899 JUMP JUMPDEST SWAP3 SWAP2 POP POP JUMP JUMPDEST PUSH1 0x0 DUP2 CALLDATALOAD SWAP1 POP PUSH2 0x7D72 DUP2 PUSH2 0x98B0 JUMP JUMPDEST SWAP3 SWAP2 POP POP JUMP JUMPDEST PUSH1 0x0 DUP2 MLOAD SWAP1 POP PUSH2 0x7D87 DUP2 PUSH2 0x98B0 JUMP JUMPDEST SWAP3 SWAP2 POP POP JUMP JUMPDEST PUSH1 0x0 PUSH1 0x20 DUP3 DUP5 SUB SLT ISZERO PUSH2 0x7D9F JUMPI PUSH1 0x0 DUP1 REVERT JUMPDEST PUSH1 0x0 PUSH2 0x7DAD DUP5 DUP3 DUP6 ADD PUSH2 0x7AEA JUMP JUMPDEST SWAP2 POP POP SWAP3 SWAP2 POP POP JUMP JUMPDEST PUSH1 0x0 PUSH1 0x20 DUP3 DUP5 SUB SLT ISZERO PUSH2 0x7DC8 JUMPI PUSH1 0x0 DUP1 REVERT JUMPDEST PUSH1 0x0 PUSH2 0x7DD6 DUP5 DUP3 DUP6 ADD PUSH2 0x7AFF JUMP JUMPDEST SWAP2 POP POP SWAP3 SWAP2 POP POP JUMP JUMPDEST PUSH1 0x0 PUSH1 0x20 DUP3 DUP5 SUB SLT ISZERO PUSH2 0x7DF1 JUMPI PUSH1 0x0 DUP1 REVERT JUMPDEST PUSH1 0x0 PUSH2 0x7DFF DUP5 DUP3 DUP6 ADD PUSH2 0x7B14 JUMP JUMPDEST SWAP2 POP POP SWAP3 SWAP2 POP POP JUMP JUMPDEST PUSH1 0x0 DUP1 PUSH1 0x40 DUP4 DUP6 SUB SLT ISZERO PUSH2 0x7E1B JUMPI PUSH1 0x0 DUP1 REVERT JUMPDEST PUSH1 0x0 PUSH2 0x7E29 DUP6 DUP3 DUP7 ADD PUSH2 0x7AEA JUMP JUMPDEST SWAP3 POP POP PUSH1 0x20 PUSH2 0x7E3A DUP6 DUP3 DUP7 ADD PUSH2 0x7AEA JUMP JUMPDEST SWAP2 POP POP SWAP3 POP SWAP3 SWAP1 POP JUMP JUMPDEST PUSH1 0x0 DUP1 PUSH1 0x0 DUP1 PUSH1 0x0 PUSH1 0xA0 DUP7 DUP9 SUB SLT ISZERO PUSH2 0x7E5C JUMPI PUSH1 0x0 DUP1 REVERT JUMPDEST PUSH1 0x0 PUSH2 0x7E6A DUP9 DUP3 DUP10 ADD PUSH2 0x7AEA JUMP JUMPDEST SWAP6 POP POP PUSH1 0x20 PUSH2 0x7E7B DUP9 DUP3 DUP10 ADD PUSH2 0x7AEA JUMP JUMPDEST SWAP5 POP POP PUSH1 0x40 PUSH2 0x7E8C DUP9 DUP3 DUP10 ADD PUSH2 0x7D4E JUMP JUMPDEST SWAP4 POP POP PUSH1 0x60 PUSH2 0x7E9D DUP9 DUP3 DUP10 ADD PUSH2 0x7D4E JUMP JUMPDEST SWAP3 POP POP PUSH1 0x80 PUSH2 0x7EAE DUP9 DUP3 DUP10 ADD PUSH2 0x7D4E JUMP JUMPDEST SWAP2 POP POP SWAP3 SWAP6 POP SWAP3 SWAP6 SWAP1 SWAP4 POP JUMP JUMPDEST PUSH1 0x0 DUP1 PUSH1 0x0 DUP1 PUSH1 0x80 DUP6 DUP8 SUB SLT ISZERO PUSH2 0x7ED1 JUMPI PUSH1 0x0 DUP1 REVERT JUMPDEST PUSH1 0x0 PUSH2 0x7EDF DUP8 DUP3 DUP9 ADD PUSH2 0x7AEA JUMP JUMPDEST SWAP5 POP POP PUSH1 0x20 PUSH2 0x7EF0 DUP8 DUP3 DUP9 ADD PUSH2 0x7AEA JUMP JUMPDEST SWAP4 POP POP PUSH1 0x40 PUSH2 0x7F01 DUP8 DUP3 DUP9 ADD PUSH2 0x7D63 JUMP JUMPDEST SWAP3 POP POP PUSH1 0x60 DUP6 ADD CALLDATALOAD PUSH8 0xFFFFFFFFFFFFFFFF DUP2 GT ISZERO PUSH2 0x7F1E JUMPI PUSH1 0x0 DUP1 REVERT JUMPDEST PUSH2 0x7F2A DUP8 DUP3 DUP9 ADD PUSH2 0x7BE8 JUMP JUMPDEST SWAP2 POP POP SWAP3 SWAP6 SWAP2 SWAP5 POP SWAP3 POP JUMP JUMPDEST PUSH1 0x0 DUP1 PUSH1 0x40 DUP4 DUP6 SUB SLT ISZERO PUSH2 0x7F49 JUMPI PUSH1 0x0 DUP1 REVERT JUMPDEST PUSH1 0x0 PUSH2 0x7F57 DUP6 DUP3 DUP7 ADD PUSH2 0x7AEA JUMP JUMPDEST SWAP3 POP POP PUSH1 0x20 PUSH2 0x7F68 DUP6 DUP3 DUP7 ADD PUSH2 0x7D63 JUMP JUMPDEST SWAP2 POP POP SWAP3 POP SWAP3 SWAP1 POP JUMP JUMPDEST PUSH1 0x0 DUP1 PUSH1 0x0 PUSH1 0x60 DUP5 DUP7 SUB SLT ISZERO PUSH2 0x7F87 JUMPI PUSH1 0x0 DUP1 REVERT JUMPDEST PUSH1 0x0 PUSH2 0x7F95 DUP7 DUP3 DUP8 ADD PUSH2 0x7AEA JUMP JUMPDEST SWAP4 POP POP PUSH1 0x20 PUSH2 0x7FA6 DUP7 DUP3 DUP8 ADD PUSH2 0x7D63 JUMP JUMPDEST SWAP3 POP POP PUSH1 0x40 PUSH2 0x7FB7 DUP7 DUP3 DUP8 ADD PUSH2 0x7AEA JUMP JUMPDEST SWAP2 POP POP SWAP3 POP SWAP3 POP SWAP3 JUMP JUMPDEST PUSH1 0x0 DUP1 PUSH1 0x20 DUP4 DUP6 SUB SLT ISZERO PUSH2 0x7FD4 JUMPI PUSH1 0x0 DUP1 REVERT JUMPDEST PUSH1 0x0 DUP4 ADD CALLDATALOAD PUSH8 0xFFFFFFFFFFFFFFFF DUP2 GT ISZERO PUSH2 0x7FEE JUMPI PUSH1 0x0 DUP1 REVERT JUMPDEST PUSH2 0x7FFA DUP6 DUP3 DUP7 ADD PUSH2 0x7B29 JUMP JUMPDEST SWAP3 POP SWAP3 POP POP SWAP3 POP SWAP3 SWAP1 POP JUMP JUMPDEST PUSH1 0x0 DUP1 PUSH1 0x20 DUP4 DUP6 SUB SLT ISZERO PUSH2 0x8019 JUMPI PUSH1 0x0 DUP1 REVERT JUMPDEST PUSH1 0x0 DUP4 ADD CALLDATALOAD PUSH8 0xFFFFFFFFFFFFFFFF DUP2 GT ISZERO PUSH2 0x8033 JUMPI PUSH1 0x0 DUP1 REVERT JUMPDEST PUSH2 0x803F DUP6 DUP3 DUP7 ADD PUSH2 0x7B74 JUMP JUMPDEST SWAP3 POP SWAP3 POP POP SWAP3 POP SWAP3 SWAP1 POP JUMP JUMPDEST PUSH1 0x0 PUSH1 0x20 DUP3 DUP5 SUB SLT ISZERO PUSH2 0x805D JUMPI PUSH1 0x0 DUP1 REVERT JUMPDEST PUSH1 0x0 PUSH2 0x806B DUP5 DUP3 DUP6 ADD PUSH2 0x7BD3 JUMP JUMPDEST SWAP2 POP POP SWAP3 SWAP2 POP POP JUMP JUMPDEST PUSH1 0x0 PUSH2 0x100 DUP3 DUP5 SUB SLT ISZERO PUSH2 0x8087 JUMPI PUSH1 0x0 DUP1 REVERT JUMPDEST PUSH1 0x0 PUSH2 0x8095 DUP5 DUP3 DUP6 ADD PUSH2 0x7C3C JUMP JUMPDEST SWAP2 POP POP SWAP3 SWAP2 POP POP JUMP JUMPDEST PUSH1 0x0 PUSH1 0x40 DUP3 DUP5 SUB SLT ISZERO PUSH2 0x80B0 JUMPI PUSH1 0x0 DUP1 REVERT JUMPDEST PUSH1 0x0 PUSH2 0x80BE DUP5 DUP3 DUP6 ADD PUSH2 0x7D02 JUMP JUMPDEST SWAP2 POP POP SWAP3 SWAP2 POP POP JUMP JUMPDEST PUSH1 0x0 DUP1 PUSH1 0x0 DUP1 PUSH1 0x0 DUP1 PUSH1 0x0 PUSH1 0xE0 DUP9 DUP11 SUB SLT ISZERO PUSH2 0x80E2 JUMPI PUSH1 0x0 DUP1 REVERT JUMPDEST PUSH1 0x0 PUSH2 0x80F0 DUP11 DUP3 DUP12 ADD PUSH2 0x7D4E JUMP JUMPDEST SWAP8 POP POP PUSH1 0x20 PUSH2 0x8101 DUP11 DUP3 DUP12 ADD PUSH2 0x7D4E JUMP JUMPDEST SWAP7 POP POP PUSH1 0x40 PUSH2 0x8112 DUP11 DUP3 DUP12 ADD PUSH2 0x7D4E JUMP JUMPDEST SWAP6 POP POP PUSH1 0x60 PUSH2 0x8123 DUP11 DUP3 DUP12 ADD PUSH2 0x7D63 JUMP JUMPDEST SWAP5 POP POP PUSH1 0x80 PUSH2 0x8134 DUP11 DUP3 DUP12 ADD PUSH2 0x7AEA JUMP JUMPDEST SWAP4 POP POP PUSH1 0xA0 PUSH2 0x8145 DUP11 DUP3 DUP12 ADD PUSH2 0x7AEA JUMP JUMPDEST SWAP3 POP POP PUSH1 0xC0 PUSH2 0x8156 DUP11 DUP3 DUP12 ADD PUSH2 0x7AEA JUMP JUMPDEST SWAP2 POP POP SWAP3 SWAP6 SWAP9 SWAP2 SWAP5 SWAP8 POP SWAP3 SWAP6 POP JUMP JUMPDEST PUSH1 0x0 PUSH1 0x20 DUP3 DUP5 SUB SLT ISZERO PUSH2 0x8177 JUMPI PUSH1 0x0 DUP1 REVERT JUMPDEST PUSH1 0x0 PUSH2 0x8185 DUP5 DUP3 DUP6 ADD PUSH2 0x7D63 JUMP JUMPDEST SWAP2 POP POP SWAP3 SWAP2 POP POP JUMP JUMPDEST PUSH1 0x0 PUSH1 0x20 DUP3 DUP5 SUB SLT ISZERO PUSH2 0x81A0 JUMPI PUSH1 0x0 DUP1 REVERT JUMPDEST PUSH1 0x0 PUSH2 0x81AE DUP5 DUP3 DUP6 ADD PUSH2 0x7D78 JUMP JUMPDEST SWAP2 POP POP SWAP3 SWAP2 POP POP JUMP JUMPDEST PUSH1 0x0 DUP1 PUSH1 0x40 DUP4 DUP6 SUB SLT ISZERO PUSH2 0x81CA JUMPI PUSH1 0x0 DUP1 REVERT JUMPDEST PUSH1 0x0 PUSH2 0x81D8 DUP6 DUP3 DUP7 ADD PUSH2 0x7D63 JUMP JUMPDEST SWAP3 POP POP PUSH1 0x20 PUSH2 0x81E9 DUP6 DUP3 DUP7 ADD PUSH2 0x7AEA JUMP JUMPDEST SWAP2 POP POP SWAP3 POP SWAP3 SWAP1 POP JUMP JUMPDEST PUSH1 0x0 DUP1 PUSH1 0x0 DUP1 PUSH1 0x0 PUSH1 0xA0 DUP7 DUP9 SUB SLT ISZERO PUSH2 0x820B JUMPI PUSH1 0x0 DUP1 REVERT JUMPDEST PUSH1 0x0 PUSH2 0x8219 DUP9 DUP3 DUP10 ADD PUSH2 0x7D63 JUMP JUMPDEST SWAP6 POP POP PUSH1 0x20 PUSH2 0x822A DUP9 DUP3 DUP10 ADD PUSH2 0x7AEA JUMP JUMPDEST SWAP5 POP POP PUSH1 0x40 PUSH2 0x823B DUP9 DUP3 DUP10 ADD PUSH2 0x7AEA JUMP JUMPDEST SWAP4 POP POP PUSH1 0x60 PUSH2 0x824C DUP9 DUP3 DUP10 ADD PUSH2 0x7BBE JUMP JUMPDEST SWAP3 POP POP PUSH1 0x80 PUSH2 0x825D DUP9 DUP3 DUP10 ADD PUSH2 0x7D63 JUMP JUMPDEST SWAP2 POP POP SWAP3 SWAP6 POP SWAP3 SWAP6 SWAP1 SWAP4 POP JUMP JUMPDEST PUSH1 0x0 DUP1 PUSH1 0x0 DUP1 PUSH1 0x80 DUP6 DUP8 SUB SLT ISZERO PUSH2 0x8280 JUMPI PUSH1 0x0 DUP1 REVERT JUMPDEST PUSH1 0x0 PUSH2 0x828E DUP8 DUP3 DUP9 ADD PUSH2 0x7D63 JUMP JUMPDEST SWAP5 POP POP PUSH1 0x20 PUSH2 0x829F DUP8 DUP3 DUP9 ADD PUSH2 0x7AEA JUMP JUMPDEST SWAP4 POP POP PUSH1 0x40 PUSH2 0x82B0 DUP8 DUP3 DUP9 ADD PUSH2 0x7AEA JUMP JUMPDEST SWAP3 POP POP PUSH1 0x60 PUSH2 0x82C1 DUP8 DUP3 DUP9 ADD PUSH2 0x7D63 JUMP JUMPDEST SWAP2 POP POP SWAP3 SWAP6 SWAP2 SWAP5 POP SWAP3 POP JUMP JUMPDEST PUSH1 0x0 DUP1 PUSH1 0x0 PUSH1 0x60 DUP5 DUP7 SUB SLT ISZERO PUSH2 0x82E2 JUMPI PUSH1 0x0 DUP1 REVERT JUMPDEST PUSH1 0x0 PUSH2 0x82F0 DUP7 DUP3 DUP8 ADD PUSH2 0x7D63 JUMP JUMPDEST SWAP4 POP POP PUSH1 0x20 PUSH2 0x8301 DUP7 DUP3 DUP8 ADD PUSH2 0x7AEA JUMP JUMPDEST SWAP3 POP POP PUSH1 0x40 PUSH2 0x8312 DUP7 DUP3 DUP8 ADD PUSH2 0x7BBE JUMP JUMPDEST SWAP2 POP POP SWAP3 POP SWAP3 POP SWAP3 JUMP JUMPDEST PUSH1 0x0 DUP1 PUSH1 0x0 PUSH1 0x60 DUP5 DUP7 SUB SLT ISZERO PUSH2 0x8331 JUMPI PUSH1 0x0 DUP1 REVERT JUMPDEST PUSH1 0x0 PUSH2 0x833F DUP7 DUP3 DUP8 ADD PUSH2 0x7D63 JUMP JUMPDEST SWAP4 POP POP PUSH1 0x20 PUSH2 0x8350 DUP7 DUP3 DUP8 ADD PUSH2 0x7AEA JUMP JUMPDEST SWAP3 POP POP PUSH1 0x40 PUSH2 0x8361 DUP7 DUP3 DUP8 ADD PUSH2 0x7D63 JUMP JUMPDEST SWAP2 POP POP SWAP3 POP SWAP3 POP SWAP3 JUMP JUMPDEST PUSH1 0x0 DUP1 PUSH1 0x0 DUP1 PUSH1 0x80 DUP6 DUP8 SUB SLT ISZERO PUSH2 0x8381 JUMPI PUSH1 0x0 DUP1 REVERT JUMPDEST PUSH1 0x0 PUSH2 0x838F DUP8 DUP3 DUP9 ADD PUSH2 0x7D63 JUMP JUMPDEST SWAP5 POP POP PUSH1 0x20 PUSH2 0x83A0 DUP8 DUP3 DUP9 ADD PUSH2 0x7AEA JUMP JUMPDEST SWAP4 POP POP PUSH1 0x40 PUSH2 0x83B1 DUP8 DUP3 DUP9 ADD PUSH2 0x7D63 JUMP JUMPDEST SWAP3 POP POP PUSH1 0x60 PUSH2 0x83C2 DUP8 DUP3 DUP9 ADD PUSH2 0x7AEA JUMP JUMPDEST SWAP2 POP POP SWAP3 SWAP6 SWAP2 SWAP5 POP SWAP3 POP JUMP JUMPDEST PUSH1 0x0 DUP1 PUSH1 0x0 DUP1 PUSH1 0x0 DUP1 PUSH1 0x0 DUP1 PUSH2 0x100 DUP10 DUP12 SUB SLT ISZERO PUSH2 0x83EB JUMPI PUSH1 0x0 DUP1 REVERT JUMPDEST PUSH1 0x0 PUSH2 0x83F9 DUP12 DUP3 DUP13 ADD PUSH2 0x7D63 JUMP JUMPDEST SWAP9 POP POP PUSH1 0x20 PUSH2 0x840A DUP12 DUP3 DUP13 ADD PUSH2 0x7D63 JUMP JUMPDEST SWAP8 POP POP PUSH1 0x40 PUSH2 0x841B DUP12 DUP3 DUP13 ADD PUSH2 0x7D63 JUMP JUMPDEST SWAP7 POP POP PUSH1 0x60 PUSH2 0x842C DUP12 DUP3 DUP13 ADD PUSH2 0x7D63 JUMP JUMPDEST SWAP6 POP POP PUSH1 0x80 PUSH2 0x843D DUP12 DUP3 DUP13 ADD PUSH2 0x7D63 JUMP JUMPDEST SWAP5 POP POP PUSH1 0xA0 PUSH2 0x844E DUP12 DUP3 DUP13 ADD PUSH2 0x7D63 JUMP JUMPDEST SWAP4 POP POP PUSH1 0xC0 PUSH2 0x845F DUP12 DUP3 DUP13 ADD PUSH2 0x7AEA JUMP JUMPDEST SWAP3 POP POP PUSH1 0xE0 PUSH2 0x8470 DUP12 DUP3 DUP13 ADD PUSH2 0x7AEA JUMP JUMPDEST SWAP2 POP POP SWAP3 SWAP6 SWAP9 POP SWAP3 SWAP6 SWAP9 SWAP1 SWAP4 SWAP7 POP JUMP JUMPDEST PUSH1 0x0 PUSH2 0x848C DUP4 DUP4 PUSH2 0x84CE JUMP JUMPDEST PUSH1 0x20 DUP4 ADD SWAP1 POP SWAP3 SWAP2 POP POP JUMP JUMPDEST PUSH1 0x0 PUSH2 0x84A4 DUP4 DUP4 PUSH2 0x8DB7 JUMP JUMPDEST PUSH1 0x40 DUP4 ADD SWAP1 POP SWAP3 SWAP2 POP POP JUMP JUMPDEST PUSH2 0x84B9 DUP2 PUSH2 0x980F JUMP JUMPDEST DUP3 MSTORE POP POP JUMP JUMPDEST PUSH2 0x84C8 DUP2 PUSH2 0x978D JUMP JUMPDEST DUP3 MSTORE POP POP JUMP JUMPDEST PUSH2 0x84D7 DUP2 PUSH2 0x977B JUMP JUMPDEST DUP3 MSTORE POP POP JUMP JUMPDEST PUSH2 0x84E6 DUP2 PUSH2 0x977B JUMP JUMPDEST DUP3 MSTORE POP POP JUMP JUMPDEST PUSH2 0x84F5 DUP2 PUSH2 0x977B JUMP JUMPDEST DUP3 MSTORE POP POP JUMP JUMPDEST PUSH2 0x8504 DUP2 PUSH2 0x977B JUMP JUMPDEST DUP3 MSTORE POP POP JUMP JUMPDEST PUSH1 0x0 PUSH2 0x8515 DUP3 PUSH2 0x9718 JUMP JUMPDEST PUSH2 0x851F DUP2 DUP6 PUSH2 0x9748 JUMP JUMPDEST SWAP4 POP PUSH2 0x852A DUP4 PUSH2 0x96F8 JUMP JUMPDEST DUP1 PUSH1 0x0 JUMPDEST DUP4 DUP2 LT ISZERO PUSH2 0x855B JUMPI DUP2 MLOAD PUSH2 0x8542 DUP9 DUP3 PUSH2 0x8480 JUMP JUMPDEST SWAP8 POP PUSH2 0x854D DUP4 PUSH2 0x972E JUMP JUMPDEST SWAP3 POP POP PUSH1 0x1 DUP2 ADD SWAP1 POP PUSH2 0x852E JUMP JUMPDEST POP DUP6 SWAP4 POP POP POP POP SWAP3 SWAP2 POP POP JUMP JUMPDEST PUSH1 0x0 PUSH2 0x8573 DUP3 PUSH2 0x9723 JUMP JUMPDEST PUSH2 0x857D DUP2 DUP6 PUSH2 0x9759 JUMP JUMPDEST SWAP4 POP PUSH2 0x8588 DUP4 PUSH2 0x9708 JUMP JUMPDEST DUP1 PUSH1 0x0 JUMPDEST DUP4 DUP2 LT ISZERO PUSH2 0x85B9 JUMPI DUP2 MLOAD PUSH2 0x85A0 DUP9 DUP3 PUSH2 0x8498 JUMP JUMPDEST SWAP8 POP PUSH2 0x85AB DUP4 PUSH2 0x973B JUMP JUMPDEST SWAP3 POP POP PUSH1 0x1 DUP2 ADD SWAP1 POP PUSH2 0x858C JUMP JUMPDEST POP DUP6 SWAP4 POP POP POP POP SWAP3 SWAP2 POP POP JUMP JUMPDEST PUSH2 0x85CF DUP2 PUSH2 0x979F JUMP JUMPDEST DUP3 MSTORE POP POP JUMP JUMPDEST PUSH2 0x85DE DUP2 PUSH2 0x97AB JUMP JUMPDEST DUP3 MSTORE POP POP JUMP JUMPDEST PUSH1 0x0 PUSH2 0x85F1 PUSH1 0x33 DUP4 PUSH2 0x976A JUMP JUMPDEST SWAP2 POP PUSH32 0x596F75206D757374206265206F776E657220616E6420546F6B656E2073686F75 PUSH1 0x0 DUP4 ADD MSTORE PUSH32 0x6C64206E6F74206861766520616E792062696400000000000000000000000000 PUSH1 0x20 DUP4 ADD MSTORE PUSH1 0x40 DUP3 ADD SWAP1 POP SWAP2 SWAP1 POP JUMP JUMPDEST PUSH1 0x0 PUSH2 0x8657 PUSH1 0x1C DUP4 PUSH2 0x976A JUMP JUMPDEST SWAP2 POP PUSH32 0x496E73756666696369656E742062696464696E6720616D6F756E742E00000000 PUSH1 0x0 DUP4 ADD MSTORE PUSH1 0x20 DUP3 ADD SWAP1 POP SWAP2 SWAP1 POP JUMP JUMPDEST PUSH1 0x0 PUSH2 0x8697 PUSH1 0x31 DUP4 PUSH2 0x976A JUMP JUMPDEST SWAP2 POP PUSH32 0x596F75206D757374206265206F666665726572206F72206F776E657220746F20 PUSH1 0x0 DUP4 ADD MSTORE PUSH32 0x72656D6F766520746865206F666665722E000000000000000000000000000000 PUSH1 0x20 DUP4 ADD MSTORE PUSH1 0x40 DUP3 ADD SWAP1 POP SWAP2 SWAP1 POP JUMP JUMPDEST PUSH1 0x0 PUSH2 0x86FD PUSH1 0x11 DUP4 PUSH2 0x976A JUMP JUMPDEST SWAP2 POP PUSH32 0x41756374696F6E204E6F74204F76657221000000000000000000000000000000 PUSH1 0x0 DUP4 ADD MSTORE PUSH1 0x20 DUP3 ADD SWAP1 POP SWAP2 SWAP1 POP JUMP JUMPDEST PUSH1 0x0 PUSH2 0x873D PUSH1 0xA DUP4 PUSH2 0x976A JUMP JUMPDEST SWAP2 POP PUSH32 0x6E6F742062696464657200000000000000000000000000000000000000000000 PUSH1 0x0 DUP4 ADD MSTORE PUSH1 0x20 DUP3 ADD SWAP1 POP SWAP2 SWAP1 POP JUMP JUMPDEST PUSH1 0x0 PUSH2 0x877D PUSH1 0x13 DUP4 PUSH2 0x976A JUMP JUMPDEST SWAP2 POP PUSH32 0x466F7220666C61742073616C65206F6E6C792100000000000000000000000000 PUSH1 0x0 DUP4 ADD MSTORE PUSH1 0x20 DUP3 ADD SWAP1 POP SWAP2 SWAP1 POP JUMP JUMPDEST PUSH1 0x0 PUSH2 0x87BD PUSH1 0x2F DUP4 PUSH2 0x976A JUMP JUMPDEST SWAP2 POP PUSH32 0x416C6C6F77616E6365206973206C657373207468616E20616D6F756E74207365 PUSH1 0x0 DUP4 ADD MSTORE PUSH32 0x6E7420666F722062696464696E672E0000000000000000000000000000000000 PUSH1 0x20 DUP4 ADD MSTORE PUSH1 0x40 DUP3 ADD SWAP1 POP SWAP2 SWAP1 POP JUMP JUMPDEST PUSH1 0x0 PUSH2 0x8823 PUSH1 0x26 DUP4 PUSH2 0x976A JUMP JUMPDEST SWAP2 POP PUSH32 0x4F776E61626C653A206E6577206F776E657220697320746865207A65726F2061 PUSH1 0x0 DUP4 ADD MSTORE PUSH32 0x6464726573730000000000000000000000000000000000000000000000000000 PUSH1 0x20 DUP4 ADD MSTORE PUSH1 0x40 DUP3 ADD SWAP1 POP SWAP2 SWAP1 POP JUMP JUMPDEST PUSH1 0x0 PUSH2 0x8889 PUSH1 0x1D DUP4 PUSH2 0x976A JUMP JUMPDEST SWAP2 POP PUSH32 0x496E73756666696369656E74207370656E7420616C6C6F77616E636520000000 PUSH1 0x0 DUP4 ADD MSTORE PUSH1 0x20 DUP3 ADD SWAP1 POP SWAP2 SWAP1 POP JUMP JUMPDEST PUSH1 0x0 PUSH2 0x88C9 PUSH1 0xF DUP4 PUSH2 0x976A JUMP JUMPDEST SWAP2 POP PUSH32 0x41646472657373206973205A65726F0000000000000000000000000000000000 PUSH1 0x0 DUP4 ADD MSTORE PUSH1 0x20 DUP3 ADD SWAP1 POP SWAP2 SWAP1 POP JUMP JUMPDEST PUSH1 0x0 PUSH2 0x8909 PUSH1 0x14 DUP4 PUSH2 0x976A JUMP JUMPDEST SWAP2 POP PUSH32 0x4661696C656420746F2073656E64204574686572000000000000000000000000 PUSH1 0x0 DUP4 ADD MSTORE PUSH1 0x20 DUP3 ADD SWAP1 POP SWAP2 SWAP1 POP JUMP JUMPDEST PUSH1 0x0 PUSH2 0x8949 PUSH1 0x1B DUP4 PUSH2 0x976A JUMP JUMPDEST SWAP2 POP PUSH32 0x56616C75652073656E74206C657373207468616E20616D6F756E740000000000 PUSH1 0x0 DUP4 ADD MSTORE PUSH1 0x20 DUP3 ADD SWAP1 POP SWAP2 SWAP1 POP JUMP JUMPDEST PUSH1 0x0 PUSH2 0x8989 PUSH1 0x23 DUP4 PUSH2 0x976A JUMP JUMPDEST SWAP2 POP PUSH32 0x54686973206572633230746F6B656E207061796D656E74206E6F7420616C6C6F PUSH1 0x0 DUP4 ADD MSTORE PUSH32 0x7765640000000000000000000000000000000000000000000000000000000000 PUSH1 0x20 DUP4 ADD MSTORE PUSH1 0x40 DUP3 ADD SWAP1 POP SWAP2 SWAP1 POP JUMP JUMPDEST PUSH1 0x0 PUSH2 0x89EF PUSH1 0xF DUP4 PUSH2 0x976A JUMP JUMPDEST SWAP2 POP PUSH32 0x616C726561647920696E2073616C650000000000000000000000000000000000 PUSH1 0x0 DUP4 ADD MSTORE PUSH1 0x20 DUP3 ADD SWAP1 POP SWAP2 SWAP1 POP JUMP JUMPDEST PUSH1 0x0 PUSH2 0x8A2F PUSH1 0x12 DUP4 PUSH2 0x976A JUMP JUMPDEST SWAP2 POP PUSH32 0x546F6B656E204E6F7420466F722053616C650000000000000000000000000000 PUSH1 0x0 DUP4 ADD MSTORE PUSH1 0x20 DUP3 ADD SWAP1 POP SWAP2 SWAP1 POP JUMP JUMPDEST PUSH1 0x0 PUSH2 0x8A6F PUSH1 0x13 DUP4 PUSH2 0x976A JUMP JUMPDEST SWAP2 POP PUSH32 0x42726F6B6572204E6F7420617070726F76656400000000000000000000000000 PUSH1 0x0 DUP4 ADD MSTORE PUSH1 0x20 DUP3 ADD SWAP1 POP SWAP2 SWAP1 POP JUMP JUMPDEST PUSH1 0x0 PUSH2 0x8AAF PUSH1 0x1C DUP4 PUSH2 0x976A JUMP JUMPDEST SWAP2 POP PUSH32 0x54686973204E465420697320616C7265616479206F6E2073616C652E00000000 PUSH1 0x0 DUP4 ADD MSTORE PUSH1 0x20 DUP3 ADD SWAP1 POP SWAP2 SWAP1 POP JUMP JUMPDEST PUSH1 0x0 PUSH2 0x8AEF PUSH1 0x14 DUP4 PUSH2 0x976A JUMP JUMPDEST SWAP2 POP PUSH32 0x496E73756666696369656E74205061796D656E74000000000000000000000000 PUSH1 0x0 DUP4 ADD MSTORE PUSH1 0x20 DUP3 ADD SWAP1 POP SWAP2 SWAP1 POP JUMP JUMPDEST PUSH1 0x0 PUSH2 0x8B2F PUSH1 0x1B DUP4 PUSH2 0x976A JUMP JUMPDEST SWAP2 POP PUSH32 0x73686F756C642062652067726561746572207468616E207A65726F0000000000 PUSH1 0x0 DUP4 ADD MSTORE PUSH1 0x20 DUP3 ADD SWAP1 POP SWAP2 SWAP1 POP JUMP JUMPDEST PUSH1 0x0 PUSH2 0x8B6F PUSH1 0x20 DUP4 PUSH2 0x976A JUMP JUMPDEST SWAP2 POP PUSH32 0x4F776E61626C653A2063616C6C6572206973206E6F7420746865206F776E6572 PUSH1 0x0 DUP4 ADD MSTORE PUSH1 0x20 DUP3 ADD SWAP1 POP SWAP2 SWAP1 POP JUMP JUMPDEST PUSH1 0x0 PUSH2 0x8BAF PUSH1 0x12 DUP4 PUSH2 0x976A JUMP JUMPDEST SWAP2 POP PUSH32 0x41756374696F6E2054696D65204F766572210000000000000000000000000000 PUSH1 0x0 DUP4 ADD MSTORE PUSH1 0x20 DUP3 ADD SWAP1 POP SWAP2 SWAP1 POP JUMP JUMPDEST PUSH1 0x0 PUSH2 0x8BEF PUSH1 0x18 DUP4 PUSH2 0x976A JUMP JUMPDEST SWAP2 POP PUSH32 0x41756374696F6E204E6F74205374617274656420796574210000000000000000 PUSH1 0x0 DUP4 ADD MSTORE PUSH1 0x20 DUP3 ADD SWAP1 POP SWAP2 SWAP1 POP JUMP JUMPDEST PUSH1 0x0 PUSH2 0x8C2F PUSH1 0x8 DUP4 PUSH2 0x976A JUMP JUMPDEST SWAP2 POP PUSH32 0x6E6F74207A65726F000000000000000000000000000000000000000000000000 PUSH1 0x0 DUP4 ADD MSTORE PUSH1 0x20 DUP3 ADD SWAP1 POP SWAP2 SWAP1 POP JUMP JUMPDEST PUSH1 0x0 PUSH2 0x8C6F PUSH1 0x16 DUP4 PUSH2 0x976A JUMP JUMPDEST SWAP2 POP PUSH32 0x204F6666657220646F65736E27742065786973742E2000000000000000000000 PUSH1 0x0 DUP4 ADD MSTORE PUSH1 0x20 DUP3 ADD SWAP1 POP SWAP2 SWAP1 POP JUMP JUMPDEST PUSH1 0x0 PUSH2 0x8CAF PUSH1 0x32 DUP4 PUSH2 0x976A JUMP JUMPDEST SWAP2 POP PUSH32 0x436C6F73696E672074696D652073686F756C6420626520677265617465722074 PUSH1 0x0 DUP4 ADD MSTORE PUSH32 0x68616E207374617274696E672074696D65210000000000000000000000000000 PUSH1 0x20 DUP4 ADD MSTORE PUSH1 0x40 DUP3 ADD SWAP1 POP SWAP2 SWAP1 POP JUMP JUMPDEST PUSH1 0x0 PUSH2 0x8D15 PUSH1 0xF DUP4 PUSH2 0x976A JUMP JUMPDEST SWAP2 POP PUSH32 0x616D6F756E742077697468647261770000000000000000000000000000000000 PUSH1 0x0 DUP4 ADD MSTORE PUSH1 0x20 DUP3 ADD SWAP1 POP SWAP2 SWAP1 POP JUMP JUMPDEST PUSH1 0x0 PUSH2 0x8D55 PUSH1 0x11 DUP4 PUSH2 0x976A JUMP JUMPDEST SWAP2 POP PUSH32 0x4552433230206E6F7420616C6C6F776564000000000000000000000000000000 PUSH1 0x0 DUP4 ADD MSTORE PUSH1 0x20 DUP3 ADD SWAP1 POP SWAP2 SWAP1 POP JUMP JUMPDEST PUSH1 0x40 DUP3 ADD PUSH1 0x0 DUP3 ADD MLOAD PUSH2 0x8D9E PUSH1 0x0 DUP6 ADD DUP3 PUSH2 0x84FB JUMP JUMPDEST POP PUSH1 0x20 DUP3 ADD MLOAD PUSH2 0x8DB1 PUSH1 0x20 DUP6 ADD DUP3 PUSH2 0x8E4B JUMP JUMPDEST POP POP POP POP JUMP JUMPDEST PUSH1 0x40 DUP3 ADD PUSH1 0x0 DUP3 ADD MLOAD PUSH2 0x8DCD PUSH1 0x0 DUP6 ADD DUP3 PUSH2 0x84CE JUMP JUMPDEST POP PUSH1 0x20 DUP3 ADD MLOAD PUSH2 0x8DE0 PUSH1 0x20 DUP6 ADD DUP3 PUSH2 0x8E2D JUMP JUMPDEST POP POP POP POP JUMP JUMPDEST DUP1 DUP3 MSTORE POP POP JUMP JUMPDEST PUSH1 0x0 PUSH1 0x20 DUP4 ADD PUSH1 0x0 DUP4 ADD MLOAD DUP5 DUP3 SUB PUSH1 0x0 DUP7 ADD MSTORE PUSH2 0x8E0A DUP3 DUP3 PUSH2 0x850A JUMP JUMPDEST SWAP2 POP POP DUP1 SWAP2 POP POP SWAP3 SWAP2 POP POP JUMP JUMPDEST DUP1 DUP3 MSTORE POP POP JUMP JUMPDEST PUSH2 0x8E27 DUP2 PUSH2 0x97D7 JUMP JUMPDEST DUP3 MSTORE POP POP JUMP JUMPDEST PUSH2 0x8E36 DUP2 PUSH2 0x9805 JUMP JUMPDEST DUP3 MSTORE POP POP JUMP JUMPDEST PUSH2 0x8E45 DUP2 PUSH2 0x9805 JUMP JUMPDEST DUP3 MSTORE POP POP JUMP JUMPDEST PUSH2 0x8E54 DUP2 PUSH2 0x9805 JUMP JUMPDEST DUP3 MSTORE POP POP JUMP JUMPDEST PUSH1 0x0 PUSH1 0x20 DUP3 ADD SWAP1 POP PUSH2 0x8E6F PUSH1 0x0 DUP4 ADD DUP5 PUSH2 0x84DD JUMP JUMPDEST SWAP3 SWAP2 POP POP JUMP JUMPDEST PUSH1 0x0 PUSH1 0x40 DUP3 ADD SWAP1 POP PUSH2 0x8E8A PUSH1 0x0 DUP4 ADD DUP6 PUSH2 0x84B0 JUMP JUMPDEST PUSH2 0x8E97 PUSH1 0x20 DUP4 ADD DUP5 PUSH2 0x84DD JUMP JUMPDEST SWAP4 SWAP3 POP POP POP JUMP JUMPDEST PUSH1 0x0 PUSH1 0x60 DUP3 ADD SWAP1 POP PUSH2 0x8EB3 PUSH1 0x0 DUP4 ADD DUP7 PUSH2 0x84B0 JUMP JUMPDEST PUSH2 0x8EC0 PUSH1 0x20 DUP4 ADD DUP6 PUSH2 0x84B0 JUMP JUMPDEST PUSH2 0x8ECD PUSH1 0x40 DUP4 ADD DUP5 PUSH2 0x8E3C JUMP JUMPDEST SWAP5 SWAP4 POP POP POP POP JUMP JUMPDEST PUSH1 0x0 PUSH1 0x80 DUP3 ADD SWAP1 POP PUSH2 0x8EEA PUSH1 0x0 DUP4 ADD DUP8 PUSH2 0x84B0 JUMP JUMPDEST PUSH2 0x8EF7 PUSH1 0x20 DUP4 ADD DUP7 PUSH2 0x84B0 JUMP JUMPDEST PUSH2 0x8F04 PUSH1 0x40 DUP4 ADD DUP6 PUSH2 0x8E3C JUMP JUMPDEST PUSH2 0x8F11 PUSH1 0x60 DUP4 ADD DUP5 PUSH2 0x84DD JUMP JUMPDEST SWAP6 SWAP5 POP POP POP POP POP JUMP JUMPDEST PUSH1 0x0 PUSH1 0x60 DUP3 ADD SWAP1 POP PUSH2 0x8F2F PUSH1 0x0 DUP4 ADD DUP7 PUSH2 0x84B0 JUMP JUMPDEST PUSH2 0x8F3C PUSH1 0x20 DUP4 ADD DUP6 PUSH2 0x84DD JUMP JUMPDEST PUSH2 0x8F49 PUSH1 0x40 DUP4 ADD DUP5 PUSH2 0x8E3C JUMP JUMPDEST SWAP5 SWAP4 POP POP POP POP JUMP JUMPDEST PUSH1 0x0 PUSH1 0x40 DUP3 ADD SWAP1 POP PUSH2 0x8F66 PUSH1 0x0 DUP4 ADD DUP6 PUSH2 0x84B0 JUMP JUMPDEST PUSH2 0x8F73 PUSH1 0x20 DUP4 ADD DUP5 PUSH2 0x8E3C JUMP JUMPDEST SWAP4 SWAP3 POP POP POP JUMP JUMPDEST PUSH1 0x0 PUSH2 0x140 DUP3 ADD SWAP1 POP PUSH2 0x8F90 PUSH1 0x0 DUP4 ADD DUP14 PUSH2 0x84BF JUMP JUMPDEST PUSH2 0x8F9D PUSH1 0x20 DUP4 ADD DUP13 PUSH2 0x8E3C JUMP JUMPDEST PUSH2 0x8FAA PUSH1 0x40 DUP4 ADD DUP12 PUSH2 0x84BF JUMP JUMPDEST PUSH2 0x8FB7 PUSH1 0x60 DUP4 ADD DUP11 PUSH2 0x8E3C JUMP JUMPDEST PUSH2 0x8FC4 PUSH1 0x80 DUP4 ADD DUP10 PUSH2 0x8E3C JUMP JUMPDEST PUSH2 0x8FD1 PUSH1 0xA0 DUP4 ADD DUP9 PUSH2 0x8E3C JUMP JUMPDEST PUSH2 0x8FDE PUSH1 0xC0 DUP4 ADD DUP8 PUSH2 0x85C6 JUMP JUMPDEST PUSH2 0x8FEB PUSH1 0xE0 DUP4 ADD DUP7 PUSH2 0x8E3C JUMP JUMPDEST PUSH2 0x8FF9 PUSH2 0x100 DUP4 ADD DUP6 PUSH2 0x8E3C JUMP JUMPDEST PUSH2 0x9007 PUSH2 0x120 DUP4 ADD DUP5 PUSH2 0x84DD JUMP JUMPDEST SWAP12 SWAP11 POP POP POP POP POP POP POP POP POP POP POP JUMP JUMPDEST PUSH1 0x0 PUSH1 0x80 DUP3 ADD SWAP1 POP PUSH2 0x902B PUSH1 0x0 DUP4 ADD DUP8 PUSH2 0x84B0 JUMP JUMPDEST PUSH2 0x9038 PUSH1 0x20 DUP4 ADD DUP7 PUSH2 0x8E3C JUMP JUMPDEST PUSH2 0x9045 PUSH1 0x40 DUP4 ADD DUP6 PUSH2 0x8E3C JUMP JUMPDEST PUSH2 0x9052 PUSH1 0x60 DUP4 ADD DUP5 PUSH2 0x84DD JUMP JUMPDEST SWAP6 SWAP5 POP POP POP POP POP JUMP JUMPDEST PUSH1 0x0 PUSH1 0x60 DUP3 ADD SWAP1 POP PUSH2 0x9070 PUSH1 0x0 DUP4 ADD DUP7 PUSH2 0x84DD JUMP JUMPDEST PUSH2 0x907D PUSH1 0x20 DUP4 ADD DUP6 PUSH2 0x84B0 JUMP JUMPDEST PUSH2 0x908A PUSH1 0x40 DUP4 ADD DUP5 PUSH2 0x8E3C JUMP JUMPDEST SWAP5 SWAP4 POP POP POP POP JUMP JUMPDEST PUSH1 0x0 PUSH1 0x60 DUP3 ADD SWAP1 POP PUSH2 0x90A7 PUSH1 0x0 DUP4 ADD DUP7 PUSH2 0x84DD JUMP JUMPDEST PUSH2 0x90B4 PUSH1 0x20 DUP4 ADD DUP6 PUSH2 0x84DD JUMP JUMPDEST PUSH2 0x90C1 PUSH1 0x40 DUP4 ADD DUP5 PUSH2 0x8E3C JUMP JUMPDEST SWAP5 SWAP4 POP POP POP POP JUMP JUMPDEST PUSH1 0x0 PUSH1 0x40 DUP3 ADD SWAP1 POP PUSH2 0x90DE PUSH1 0x0 DUP4 ADD DUP6 PUSH2 0x84DD JUMP JUMPDEST PUSH2 0x90EB PUSH1 0x20 DUP4 ADD DUP5 PUSH2 0x8E3C JUMP JUMPDEST SWAP4 SWAP3 POP POP POP JUMP JUMPDEST PUSH1 0x0 PUSH1 0x60 DUP3 ADD SWAP1 POP PUSH2 0x9107 PUSH1 0x0 DUP4 ADD DUP7 PUSH2 0x84DD JUMP JUMPDEST PUSH2 0x9114 PUSH1 0x20 DUP4 ADD DUP6 PUSH2 0x8E3C JUMP JUMPDEST PUSH2 0x9121 PUSH1 0x40 DUP4 ADD DUP5 PUSH2 0x8E3C JUMP JUMPDEST SWAP5 SWAP4 POP POP POP POP JUMP JUMPDEST PUSH1 0x0 PUSH1 0x20 DUP3 ADD SWAP1 POP DUP2 DUP2 SUB PUSH1 0x0 DUP4 ADD MSTORE PUSH2 0x9143 DUP2 DUP5 PUSH2 0x8568 JUMP JUMPDEST SWAP1 POP SWAP3 SWAP2 POP POP JUMP JUMPDEST PUSH1 0x0 PUSH1 0x20 DUP3 ADD SWAP1 POP PUSH2 0x9160 PUSH1 0x0 DUP4 ADD DUP5 PUSH2 0x85C6 JUMP JUMPDEST SWAP3 SWAP2 POP POP JUMP JUMPDEST PUSH1 0x0 PUSH1 0x20 DUP3 ADD SWAP1 POP PUSH2 0x917B PUSH1 0x0 DUP4 ADD DUP5 PUSH2 0x85D5 JUMP JUMPDEST SWAP3 SWAP2 POP POP JUMP JUMPDEST PUSH1 0x0 PUSH1 0x20 DUP3 ADD SWAP1 POP DUP2 DUP2 SUB PUSH1 0x0 DUP4 ADD MSTORE PUSH2 0x919A DUP2 PUSH2 0x85E4 JUMP JUMPDEST SWAP1 POP SWAP2 SWAP1 POP JUMP JUMPDEST PUSH1 0x0 PUSH1 0x20 DUP3 ADD SWAP1 POP DUP2 DUP2 SUB PUSH1 0x0 DUP4 ADD MSTORE PUSH2 0x91BA DUP2 PUSH2 0x864A JUMP JUMPDEST SWAP1 POP SWAP2 SWAP1 POP JUMP JUMPDEST PUSH1 0x0 PUSH1 0x20 DUP3 ADD SWAP1 POP DUP2 DUP2 SUB PUSH1 0x0 DUP4 ADD MSTORE PUSH2 0x91DA DUP2 PUSH2 0x868A JUMP JUMPDEST SWAP1 POP SWAP2 SWAP1 POP JUMP JUMPDEST PUSH1 0x0 PUSH1 0x20 DUP3 ADD SWAP1 POP DUP2 DUP2 SUB PUSH1 0x0 DUP4 ADD MSTORE PUSH2 0x91FA DUP2 PUSH2 0x86F0 JUMP JUMPDEST SWAP1 POP SWAP2 SWAP1 POP JUMP JUMPDEST PUSH1 0x0 PUSH1 0x20 DUP3 ADD SWAP1 POP DUP2 DUP2 SUB PUSH1 0x0 DUP4 ADD MSTORE PUSH2 0x921A DUP2 PUSH2 0x8730 JUMP JUMPDEST SWAP1 POP SWAP2 SWAP1 POP JUMP JUMPDEST PUSH1 0x0 PUSH1 0x20 DUP3 ADD SWAP1 POP DUP2 DUP2 SUB PUSH1 0x0 DUP4 ADD MSTORE PUSH2 0x923A DUP2 PUSH2 0x8770 JUMP JUMPDEST SWAP1 POP SWAP2 SWAP1 POP JUMP JUMPDEST PUSH1 0x0 PUSH1 0x20 DUP3 ADD SWAP1 POP DUP2 DUP2 SUB PUSH1 0x0 DUP4 ADD MSTORE PUSH2 0x925A DUP2 PUSH2 0x87B0 JUMP JUMPDEST SWAP1 POP SWAP2 SWAP1 POP JUMP JUMPDEST PUSH1 0x0 PUSH1 0x20 DUP3 ADD SWAP1 POP DUP2 DUP2 SUB PUSH1 0x0 DUP4 ADD MSTORE PUSH2 0x927A DUP2 PUSH2 0x8816 JUMP JUMPDEST SWAP1 POP SWAP2 SWAP1 POP JUMP JUMPDEST PUSH1 0x0 PUSH1 0x20 DUP3 ADD SWAP1 POP DUP2 DUP2 SUB PUSH1 0x0 DUP4 ADD MSTORE PUSH2 0x929A DUP2 PUSH2 0x887C JUMP JUMPDEST SWAP1 POP SWAP2 SWAP1 POP JUMP JUMPDEST PUSH1 0x0 PUSH1 0x20 DUP3 ADD SWAP1 POP DUP2 DUP2 SUB PUSH1 0x0 DUP4 ADD MSTORE PUSH2 0x92BA DUP2 PUSH2 0x88BC JUMP JUMPDEST SWAP1 POP SWAP2 SWAP1 POP JUMP JUMPDEST PUSH1 0x0 PUSH1 0x20 DUP3 ADD SWAP1 POP DUP2 DUP2 SUB PUSH1 0x0 DUP4 ADD MSTORE PUSH2 0x92DA DUP2 PUSH2 0x88FC JUMP JUMPDEST SWAP1 POP SWAP2 SWAP1 POP JUMP JUMPDEST PUSH1 0x0 PUSH1 0x20 DUP3 ADD SWAP1 POP DUP2 DUP2 SUB PUSH1 0x0 DUP4 ADD MSTORE PUSH2 0x92FA DUP2 PUSH2 0x893C JUMP JUMPDEST SWAP1 POP SWAP2 SWAP1 POP JUMP JUMPDEST PUSH1 0x0 PUSH1 0x20 DUP3 ADD SWAP1 POP DUP2 DUP2 SUB PUSH1 0x0 DUP4 ADD MSTORE PUSH2 0x931A DUP2 PUSH2 0x897C JUMP JUMPDEST SWAP1 POP SWAP2 SWAP1 POP JUMP JUMPDEST PUSH1 0x0 PUSH1 0x20 DUP3 ADD SWAP1 POP DUP2 DUP2 SUB PUSH1 0x0 DUP4 ADD MSTORE PUSH2 0x933A DUP2 PUSH2 0x89E2 JUMP JUMPDEST SWAP1 POP SWAP2 SWAP1 POP JUMP JUMPDEST PUSH1 0x0 PUSH1 0x20 DUP3 ADD SWAP1 POP DUP2 DUP2 SUB PUSH1 0x0 DUP4 ADD MSTORE PUSH2 0x935A DUP2 PUSH2 0x8A22 JUMP JUMPDEST SWAP1 POP SWAP2 SWAP1 POP JUMP JUMPDEST PUSH1 0x0 PUSH1 0x20 DUP3 ADD SWAP1 POP DUP2 DUP2 SUB PUSH1 0x0 DUP4 ADD MSTORE PUSH2 0x937A DUP2 PUSH2 0x8A62 JUMP JUMPDEST SWAP1 POP SWAP2 SWAP1 POP JUMP JUMPDEST PUSH1 0x0 PUSH1 0x20 DUP3 ADD SWAP1 POP DUP2 DUP2 SUB PUSH1 0x0 DUP4 ADD MSTORE PUSH2 0x939A DUP2 PUSH2 0x8AA2 JUMP JUMPDEST SWAP1 POP SWAP2 SWAP1 POP JUMP JUMPDEST PUSH1 0x0 PUSH1 0x20 DUP3 ADD SWAP1 POP DUP2 DUP2 SUB PUSH1 0x0 DUP4 ADD MSTORE PUSH2 0x93BA DUP2 PUSH2 0x8AE2 JUMP JUMPDEST SWAP1 POP SWAP2 SWAP1 POP JUMP JUMPDEST PUSH1 0x0 PUSH1 0x20 DUP3 ADD SWAP1 POP DUP2 DUP2 SUB PUSH1 0x0 DUP4 ADD MSTORE PUSH2 0x93DA DUP2 PUSH2 0x8B22 JUMP JUMPDEST SWAP1 POP SWAP2 SWAP1 POP JUMP JUMPDEST PUSH1 0x0 PUSH1 0x20 DUP3 ADD SWAP1 POP DUP2 DUP2 SUB PUSH1 0x0 DUP4 ADD MSTORE PUSH2 0x93FA DUP2 PUSH2 0x8B62 JUMP JUMPDEST SWAP1 POP SWAP2 SWAP1 POP JUMP JUMPDEST PUSH1 0x0 PUSH1 0x20 DUP3 ADD SWAP1 POP DUP2 DUP2 SUB PUSH1 0x0 DUP4 ADD MSTORE PUSH2 0x941A DUP2 PUSH2 0x8BA2 JUMP JUMPDEST SWAP1 POP SWAP2 SWAP1 POP JUMP JUMPDEST PUSH1 0x0 PUSH1 0x20 DUP3 ADD SWAP1 POP DUP2 DUP2 SUB PUSH1 0x0 DUP4 ADD MSTORE PUSH2 0x943A DUP2 PUSH2 0x8BE2 JUMP JUMPDEST SWAP1 POP SWAP2 SWAP1 POP JUMP JUMPDEST PUSH1 0x0 PUSH1 0x20 DUP3 ADD SWAP1 POP DUP2 DUP2 SUB PUSH1 0x0 DUP4 ADD MSTORE PUSH2 0x945A DUP2 PUSH2 0x8C22 JUMP JUMPDEST SWAP1 POP SWAP2 SWAP1 POP JUMP JUMPDEST PUSH1 0x0 PUSH1 0x20 DUP3 ADD SWAP1 POP DUP2 DUP2 SUB PUSH1 0x0 DUP4 ADD MSTORE PUSH2 0x947A DUP2 PUSH2 0x8C62 JUMP JUMPDEST SWAP1 POP SWAP2 SWAP1 POP JUMP JUMPDEST PUSH1 0x0 PUSH1 0x20 DUP3 ADD SWAP1 POP DUP2 DUP2 SUB PUSH1 0x0 DUP4 ADD MSTORE PUSH2 0x949A DUP2 PUSH2 0x8CA2 JUMP JUMPDEST SWAP1 POP SWAP2 SWAP1 POP JUMP JUMPDEST PUSH1 0x0 PUSH1 0x20 DUP3 ADD SWAP1 POP DUP2 DUP2 SUB PUSH1 0x0 DUP4 ADD MSTORE PUSH2 0x94BA DUP2 PUSH2 0x8D08 JUMP JUMPDEST SWAP1 POP SWAP2 SWAP1 POP JUMP JUMPDEST PUSH1 0x0 PUSH1 0x20 DUP3 ADD SWAP1 POP DUP2 DUP2 SUB PUSH1 0x0 DUP4 ADD MSTORE PUSH2 0x94DA DUP2 PUSH2 0x8D48 JUMP JUMPDEST SWAP1 POP SWAP2 SWAP1 POP JUMP JUMPDEST PUSH1 0x0 PUSH1 0x60 DUP3 ADD SWAP1 POP PUSH2 0x94F6 PUSH1 0x0 DUP4 ADD DUP6 PUSH2 0x8DE6 JUMP JUMPDEST PUSH2 0x9503 PUSH1 0x20 DUP4 ADD DUP5 PUSH2 0x8D88 JUMP JUMPDEST SWAP4 SWAP3 POP POP POP JUMP JUMPDEST PUSH1 0x0 PUSH1 0x20 DUP3 ADD SWAP1 POP DUP2 DUP2 SUB PUSH1 0x0 DUP4 ADD MSTORE PUSH2 0x9524 DUP2 DUP5 PUSH2 0x8DED JUMP JUMPDEST SWAP1 POP SWAP3 SWAP2 POP POP JUMP JUMPDEST PUSH1 0x0 PUSH1 0x40 DUP3 ADD SWAP1 POP PUSH2 0x9541 PUSH1 0x0 DUP4 ADD DUP6 PUSH2 0x8E17 JUMP JUMPDEST PUSH2 0x954E PUSH1 0x20 DUP4 ADD DUP5 PUSH2 0x84EC JUMP JUMPDEST SWAP4 SWAP3 POP POP POP JUMP JUMPDEST PUSH1 0x0 PUSH1 0x20 DUP3 ADD SWAP1 POP PUSH2 0x956A PUSH1 0x0 DUP4 ADD DUP5 PUSH2 0x8E1E JUMP JUMPDEST SWAP3 SWAP2 POP POP JUMP JUMPDEST PUSH1 0x0 PUSH1 0x20 DUP3 ADD SWAP1 POP PUSH2 0x9585 PUSH1 0x0 DUP4 ADD DUP5 PUSH2 0x8E3C JUMP JUMPDEST SWAP3 SWAP2 POP POP JUMP JUMPDEST PUSH1 0x0 PUSH1 0x40 DUP3 ADD SWAP1 POP PUSH2 0x95A0 PUSH1 0x0 DUP4 ADD DUP6 PUSH2 0x8E3C JUMP JUMPDEST PUSH2 0x95AD PUSH1 0x20 DUP4 ADD DUP5 PUSH2 0x84DD JUMP JUMPDEST SWAP4 SWAP3 POP POP POP JUMP JUMPDEST PUSH1 0x0 PUSH1 0x80 DUP3 ADD SWAP1 POP PUSH2 0x95C9 PUSH1 0x0 DUP4 ADD DUP8 PUSH2 0x8E3C JUMP JUMPDEST PUSH2 0x95D6 PUSH1 0x20 DUP4 ADD DUP7 PUSH2 0x8E3C JUMP JUMPDEST PUSH2 0x95E3 PUSH1 0x40 DUP4 ADD DUP6 PUSH2 0x8E3C JUMP JUMPDEST PUSH2 0x95F0 PUSH1 0x60 DUP4 ADD DUP5 PUSH2 0x84DD JUMP JUMPDEST SWAP6 SWAP5 POP POP POP POP POP JUMP JUMPDEST PUSH1 0x0 PUSH1 0xA0 DUP3 ADD SWAP1 POP PUSH2 0x960E PUSH1 0x0 DUP4 ADD DUP9 PUSH2 0x8E3C JUMP JUMPDEST PUSH2 0x961B PUSH1 0x20 DUP4 ADD DUP8 PUSH2 0x8E3C JUMP JUMPDEST PUSH2 0x9628 PUSH1 0x40 DUP4 ADD DUP7 PUSH2 0x8E3C JUMP JUMPDEST PUSH2 0x9635 PUSH1 0x60 DUP4 ADD DUP6 PUSH2 0x84DD JUMP JUMPDEST PUSH2 0x9642 PUSH1 0x80 DUP4 ADD DUP5 PUSH2 0x85C6 JUMP JUMPDEST SWAP7 SWAP6 POP POP POP POP POP POP JUMP JUMPDEST PUSH1 0x0 PUSH1 0xA0 DUP3 ADD SWAP1 POP PUSH2 0x9661 PUSH1 0x0 DUP4 ADD DUP9 PUSH2 0x8E3C JUMP JUMPDEST PUSH2 0x966E PUSH1 0x20 DUP4 ADD DUP8 PUSH2 0x8E3C JUMP JUMPDEST PUSH2 0x967B PUSH1 0x40 DUP4 ADD DUP7 PUSH2 0x8E3C JUMP JUMPDEST PUSH2 0x9688 PUSH1 0x60 DUP4 ADD DUP6 PUSH2 0x8E3C JUMP JUMPDEST PUSH2 0x9695 PUSH1 0x80 DUP4 ADD DUP5 PUSH2 0x84DD JUMP JUMPDEST SWAP7 SWAP6 POP POP POP POP POP POP JUMP JUMPDEST PUSH1 0x0 PUSH1 0x40 MLOAD SWAP1 POP DUP2 DUP2 ADD DUP2 DUP2 LT PUSH8 0xFFFFFFFFFFFFFFFF DUP3 GT OR ISZERO PUSH2 0x96C2 JUMPI PUSH1 0x0 DUP1 REVERT JUMPDEST DUP1 PUSH1 0x40 MSTORE POP SWAP2 SWAP1 POP JUMP JUMPDEST PUSH1 0x0 PUSH8 0xFFFFFFFFFFFFFFFF DUP3 GT ISZERO PUSH2 0x96E3 JUMPI PUSH1 0x0 DUP1 REVERT JUMPDEST PUSH1 0x1F NOT PUSH1 0x1F DUP4 ADD AND SWAP1 POP PUSH1 0x20 DUP2 ADD SWAP1 POP SWAP2 SWAP1 POP JUMP JUMPDEST PUSH1 0x0 DUP2 SWAP1 POP PUSH1 0x20 DUP3 ADD SWAP1 POP SWAP2 SWAP1 POP JUMP JUMPDEST PUSH1 0x0 DUP2 SWAP1 POP PUSH1 0x20 DUP3 ADD SWAP1 POP SWAP2 SWAP1 POP JUMP JUMPDEST PUSH1 0x0 DUP2 MLOAD SWAP1 POP SWAP2 SWAP1 POP JUMP JUMPDEST PUSH1 0x0 DUP2 MLOAD SWAP1 POP SWAP2 SWAP1 POP JUMP JUMPDEST PUSH1 0x0 PUSH1 0x20 DUP3 ADD SWAP1 POP SWAP2 SWAP1 POP JUMP JUMPDEST PUSH1 0x0 PUSH1 0x20 DUP3 ADD SWAP1 POP SWAP2 SWAP1 POP JUMP JUMPDEST PUSH1 0x0 DUP3 DUP3 MSTORE PUSH1 0x20 DUP3 ADD SWAP1 POP SWAP3 SWAP2 POP POP JUMP JUMPDEST PUSH1 0x0 DUP3 DUP3 MSTORE PUSH1 0x20 DUP3 ADD SWAP1 POP SWAP3 SWAP2 POP POP JUMP JUMPDEST PUSH1 0x0 DUP3 DUP3 MSTORE PUSH1 0x20 DUP3 ADD SWAP1 POP SWAP3 SWAP2 POP POP JUMP JUMPDEST PUSH1 0x0 PUSH2 0x9786 DUP3 PUSH2 0x97E5 JUMP JUMPDEST SWAP1 POP SWAP2 SWAP1 POP JUMP JUMPDEST PUSH1 0x0 PUSH2 0x9798 DUP3 PUSH2 0x97E5 JUMP JUMPDEST SWAP1 POP SWAP2 SWAP1 POP JUMP JUMPDEST PUSH1 0x0 DUP2 ISZERO ISZERO SWAP1 POP SWAP2 SWAP1 POP JUMP JUMPDEST PUSH1 0x0 PUSH32 0xFFFFFFFF00000000000000000000000000000000000000000000000000000000 DUP3 AND SWAP1 POP SWAP2 SWAP1 POP JUMP JUMPDEST PUSH1 0x0 PUSH2 0xFFFF DUP3 AND SWAP1 POP SWAP2 SWAP1 POP JUMP JUMPDEST PUSH1 0x0 PUSH20 0xFFFFFFFFFFFFFFFFFFFFFFFFFFFFFFFFFFFFFFFF DUP3 AND SWAP1 POP SWAP2 SWAP1 POP JUMP JUMPDEST PUSH1 0x0 DUP2 SWAP1 POP SWAP2 SWAP1 POP JUMP JUMPDEST PUSH1 0x0 PUSH2 0x981A DUP3 PUSH2 0x9821 JUMP JUMPDEST SWAP1 POP SWAP2 SWAP1 POP JUMP JUMPDEST PUSH1 0x0 PUSH2 0x982C DUP3 PUSH2 0x9833 JUMP JUMPDEST SWAP1 POP SWAP2 SWAP1 POP JUMP JUMPDEST PUSH1 0x0 PUSH2 0x983E DUP3 PUSH2 0x97E5 JUMP JUMPDEST SWAP1 POP SWAP2 SWAP1 POP JUMP JUMPDEST DUP3 DUP2 DUP4 CALLDATACOPY PUSH1 0x0 DUP4 DUP4 ADD MSTORE POP POP POP JUMP JUMPDEST PUSH2 0x985D DUP2 PUSH2 0x977B JUMP JUMPDEST DUP2 EQ PUSH2 0x9868 JUMPI PUSH1 0x0 DUP1 REVERT JUMPDEST POP JUMP JUMPDEST PUSH2 0x9874 DUP2 PUSH2 0x978D JUMP JUMPDEST DUP2 EQ PUSH2 0x987F JUMPI PUSH1 0x0 DUP1 REVERT JUMPDEST POP JUMP JUMPDEST PUSH2 0x988B DUP2 PUSH2 0x979F JUMP JUMPDEST DUP2 EQ PUSH2 0x9896 JUMPI PUSH1 0x0 DUP1 REVERT JUMPDEST POP JUMP JUMPDEST PUSH2 0x98A2 DUP2 PUSH2 0x97D7 JUMP JUMPDEST DUP2 EQ PUSH2 0x98AD JUMPI PUSH1 0x0 DUP1 REVERT JUMPDEST POP JUMP JUMPDEST PUSH2 0x98B9 DUP2 PUSH2 0x9805 JUMP JUMPDEST DUP2 EQ PUSH2 0x98C4 JUMPI PUSH1 0x0 DUP1 REVERT JUMPDEST POP JUMP INVALID LOG3 PUSH6 0x627A7A723158 KECCAK256 SWAP3 0xDC REVERT SWAP7 RETURNDATASIZE SWAP13 PUSH3 0x788D48 PUSH8 0xD42D8359E905ECC9 LOG4 REVERT 0xE7 DUP3 RETURN 0xA9 0xD9 TIMESTAMP DIV 0x2C 0xA8 DUP4 LT PUSH13 0x6578706572696D656E74616CF5 PUSH5 0x736F6C6343 STOP SDIV GT STOP BLOCKHASH "
		},
		"gasEstimates": {
			"creation": {
				"codeDepositCost": "7835600",
				"executionCost": "infinite",
				"totalCost": "infinite"
			},
			"external": {
				"LPStakeAddress()": "1282",
				"StakeAddress()": "1348",
				"WETHAddress()": "1283",
				"accpetOfferse(uint256,address,address,bool,uint256)": "infinite",
				"addERC20TokenPayment(address)": "infinite",
				"auctions(address,uint256)": "infinite",
				"batchDelisting((uint256,address)[])": "infinite",
				"batchListing((uint256,uint256,uint256,uint256,uint256,uint256,address,address)[])": "infinite",
				"bid(uint256,address,uint256)": "infinite",
				"brokerageBalance(address)": "1625",
				"buy(uint256,address,bool)": "infinite",
				"collect(uint256,address,bool)": "infinite",
				"getAuctionTokensForSale()": "infinite",
				"getErc20Tokens()": "infinite",
				"getFixedPriceTokensForSale()": "infinite",
				"getOnSaleStatus(address,uint256)": "1880",
				"getTokensForSale()": "infinite",
				"getTokensForSalePerUser(address)": "infinite",
				"isOwner()": "1330",
				"lpStakefeepercentage()": "1354",
				"makeAnOffer(uint256,address,address,uint256)": "infinite",
				"offerprice(address,uint256,address)": "infinite",
				"onERC721Received(address,address,uint256,bytes)": "infinite",
				"owner()": "1334",
				"platFormFeePercentage()": "1265",
				"putOnSale(uint256,uint256,uint256,uint256,uint256,uint256,address,address)": "infinite",
				"putSaleOff(uint256,address)": "infinite",
				"removeERC20TokenPayment(address)": "infinite",
				"revertAll(address,uint256)": "infinite",
				"revertOffer(address,uint256,address)": "infinite",
				"rewardDistributionPercentage()": "1332",
				"setAddress(address,address)": "infinite",
				"setBrokerage(address,address,uint16,uint16,uint16)": "infinite",
				"setUpdatedClosingTime(uint256)": "21435",
				"transferOwnership(address)": "22331",
				"updateClosingTime()": "1175",
				"updatePrice(uint256,address,uint256,address)": "infinite",
				"updateparams(uint16,uint16,uint16,uint256,address,address,address)": "infinite",
				"withdraw()": "infinite",
				"withdrawERC20(address)": "infinite",
				"withdrawUserBid(uint256,address,address,uint256)": "infinite"
			},
			"internal": {
				"_calculateFees(uint256,address,address payable,address,uint256,bool,bool)": "infinite",
				"_revertAll(address,uint256)": "infinite",
				"_revertOffer(address,uint256,address)": "infinite"
			}
		},
		"methodIdentifiers": {
			"LPStakeAddress()": "8bae5f4f",
			"StakeAddress()": "45ce7db9",
			"WETHAddress()": "0af88b24",
			"accpetOfferse(uint256,address,address,bool,uint256)": "3788c0ae",
			"addERC20TokenPayment(address)": "05ac943e",
			"auctions(address,uint256)": "44f91c1e",
			"batchDelisting((uint256,address)[])": "3e54d3a2",
			"batchListing((uint256,uint256,uint256,uint256,uint256,uint256,address,address)[])": "efb7027b",
			"bid(uint256,address,uint256)": "c0f4ed31",
			"brokerageBalance(address)": "6eafbe10",
			"buy(uint256,address,bool)": "7ad157b9",
			"collect(uint256,address,bool)": "8c6ab013",
			"getAuctionTokensForSale()": "f7f17488",
			"getErc20Tokens()": "6d036535",
			"getFixedPriceTokensForSale()": "d3c9080a",
			"getOnSaleStatus(address,uint256)": "1a07b081",
			"getTokensForSale()": "65e4e1c0",
			"getTokensForSalePerUser(address)": "d4739cca",
			"isOwner()": "8f32d59b",
			"lpStakefeepercentage()": "d2abc517",
			"makeAnOffer(uint256,address,address,uint256)": "3169b515",
			"offerprice(address,uint256,address)": "f09856f3",
			"onERC721Received(address,address,uint256,bytes)": "150b7a02",
			"owner()": "8da5cb5b",
			"platFormFeePercentage()": "f26f8494",
			"putOnSale(uint256,uint256,uint256,uint256,uint256,uint256,address,address)": "640cf873",
			"putSaleOff(uint256,address)": "179443f3",
			"removeERC20TokenPayment(address)": "e467682d",
			"revertAll(address,uint256)": "1f90607a",
			"revertOffer(address,uint256,address)": "136a6a24",
			"rewardDistributionPercentage()": "c52ea52e",
			"setAddress(address,address)": "3b58524d",
			"setBrokerage(address,address,uint16,uint16,uint16)": "c1a8bdbc",
			"setUpdatedClosingTime(uint256)": "f5a0c9b8",
			"transferOwnership(address)": "f2fde38b",
			"updateClosingTime()": "7f494852",
			"updatePrice(uint256,address,uint256,address)": "ff8edbdb",
			"updateparams(uint16,uint16,uint16,uint256,address,address,address)": "398ef17f",
			"withdraw()": "3ccfd60b",
			"withdrawERC20(address)": "f4f3b200",
			"withdrawUserBid(uint256,address,address,uint256)": "a4d0efec"
		}
	},
	"abi": [
		{
			"inputs": [
				{
					"internalType": "uint16",
					"name": "_rewardDistributionPercentage",
					"type": "uint16"
				},
				{
					"internalType": "uint16",
					"name": "_platFormFeePercentage",
					"type": "uint16"
				},
				{
					"internalType": "uint16",
					"name": "_lpStakefeepercentage",
					"type": "uint16"
				},
				{
					"internalType": "uint256",
					"name": "_updatedTime",
					"type": "uint256"
				},
				{
					"internalType": "address",
					"name": "_weth",
					"type": "address"
				},
				{
					"internalType": "address",
					"name": "_rewardDistributionAddress",
					"type": "address"
				},
				{
					"internalType": "address",
					"name": "_lpStakeAddress",
					"type": "address"
				}
			],
			"payable": false,
			"stateMutability": "nonpayable",
			"type": "constructor"
		},
		{
			"anonymous": false,
			"inputs": [
				{
					"indexed": true,
					"internalType": "address",
					"name": "collection",
					"type": "address"
				},
				{
					"indexed": true,
					"internalType": "uint256",
					"name": "tokenId",
					"type": "uint256"
				},
				{
					"indexed": true,
					"internalType": "address",
					"name": "seller",
					"type": "address"
				},
				{
					"indexed": false,
					"internalType": "address",
					"name": "bidder",
					"type": "address"
				},
				{
					"indexed": false,
					"internalType": "uint256",
					"name": "amouont",
					"type": "uint256"
				},
				{
					"indexed": false,
					"internalType": "uint256",
					"name": "time",
					"type": "uint256"
				},
				{
					"indexed": false,
					"internalType": "address",
					"name": "ERC20Address",
					"type": "address"
				}
			],
			"name": "Bid",
			"type": "event"
		},
		{
			"anonymous": false,
			"inputs": [
				{
					"indexed": true,
					"internalType": "address",
					"name": "collection",
					"type": "address"
				},
				{
					"indexed": false,
					"internalType": "uint256",
					"name": "tokenId",
					"type": "uint256"
				},
				{
					"indexed": true,
					"internalType": "address",
					"name": "seller",
					"type": "address"
				},
				{
					"indexed": true,
					"internalType": "address",
					"name": "buyer",
					"type": "address"
				},
				{
					"indexed": false,
					"internalType": "uint256",
					"name": "amount",
					"type": "uint256"
				},
				{
					"indexed": false,
					"internalType": "uint256",
					"name": "time",
					"type": "uint256"
				},
				{
					"indexed": false,
					"internalType": "address",
					"name": "ERC20Address",
					"type": "address"
				},
				{
					"indexed": false,
					"internalType": "bool",
					"name": "isOffer",
					"type": "bool"
				}
			],
			"name": "Buy",
			"type": "event"
		},
		{
			"anonymous": false,
			"inputs": [
				{
					"indexed": true,
					"internalType": "address",
					"name": "collection",
					"type": "address"
				},
				{
					"indexed": true,
					"internalType": "uint256",
					"name": "tokenId",
					"type": "uint256"
				},
				{
					"indexed": true,
					"internalType": "address",
					"name": "seller",
					"type": "address"
				},
				{
					"indexed": false,
					"internalType": "address",
					"name": "buyer",
					"type": "address"
				},
				{
					"indexed": false,
					"internalType": "address",
					"name": "collector",
					"type": "address"
				},
				{
					"indexed": false,
					"internalType": "uint256",
					"name": "time",
					"type": "uint256"
				},
				{
					"indexed": false,
					"internalType": "address",
					"name": "ERC20Address",
					"type": "address"
				}
			],
			"name": "Collect",
			"type": "event"
		},
		{
			"anonymous": false,
			"inputs": [
				{
					"indexed": true,
					"internalType": "address",
					"name": "collection",
					"type": "address"
				},
				{
					"indexed": true,
					"internalType": "uint256",
					"name": "tokenId",
					"type": "uint256"
				},
				{
					"indexed": true,
					"internalType": "address",
					"name": "offerer",
					"type": "address"
				},
				{
					"indexed": false,
					"internalType": "address",
					"name": "erc20Token",
					"type": "address"
				},
				{
					"indexed": false,
					"internalType": "uint256",
					"name": "offerAmount",
					"type": "uint256"
				},
				{
					"indexed": false,
					"internalType": "uint256",
					"name": "offerId",
					"type": "uint256"
				}
			],
			"name": "MakeAnOffer",
			"type": "event"
		},
		{
			"anonymous": false,
			"inputs": [
				{
					"indexed": true,
					"internalType": "address",
					"name": "collection",
					"type": "address"
				},
				{
					"indexed": true,
					"internalType": "uint256",
					"name": "tokenId",
					"type": "uint256"
				},
				{
					"indexed": true,
					"internalType": "address",
					"name": "seller",
					"type": "address"
				},
				{
					"indexed": false,
					"internalType": "uint256",
					"name": "time",
					"type": "uint256"
				},
				{
					"indexed": false,
					"internalType": "address",
					"name": "ERC20Address",
					"type": "address"
				}
			],
			"name": "OffSale",
			"type": "event"
		},
		{
			"anonymous": false,
			"inputs": [
				{
					"indexed": true,
					"internalType": "address",
					"name": "collection",
					"type": "address"
				},
				{
					"indexed": true,
					"internalType": "uint256",
					"name": "tokenId",
					"type": "uint256"
				},
				{
					"indexed": true,
					"internalType": "address",
					"name": "seller",
					"type": "address"
				},
				{
					"indexed": false,
					"internalType": "uint256",
					"name": "auctionType",
					"type": "uint256"
				},
				{
					"indexed": false,
					"internalType": "uint256",
					"name": "amount",
					"type": "uint256"
				},
				{
					"indexed": false,
					"internalType": "uint256",
					"name": "time",
					"type": "uint256"
				},
				{
					"indexed": false,
					"internalType": "address",
					"name": "ERC20Address",
					"type": "address"
				}
			],
			"name": "OnSale",
			"type": "event"
		},
		{
			"anonymous": false,
			"inputs": [
				{
					"indexed": true,
					"internalType": "address",
					"name": "collection",
					"type": "address"
				},
				{
					"indexed": true,
					"internalType": "uint256",
					"name": "tokenId",
					"type": "uint256"
				},
				{
					"indexed": true,
					"internalType": "address",
					"name": "seller",
					"type": "address"
				},
				{
					"indexed": false,
					"internalType": "uint256",
					"name": "auctionType",
					"type": "uint256"
				},
				{
					"indexed": false,
					"internalType": "uint256",
					"name": "oldAmount",
					"type": "uint256"
				},
				{
					"indexed": false,
					"internalType": "uint256",
					"name": "amount",
					"type": "uint256"
				},
				{
					"indexed": false,
					"internalType": "uint256",
					"name": "time",
					"type": "uint256"
				},
				{
					"indexed": false,
					"internalType": "address",
					"name": "ERC20Address",
					"type": "address"
				}
			],
			"name": "PriceUpdated",
			"type": "event"
		},
		{
			"constant": true,
			"inputs": [],
			"name": "LPStakeAddress",
			"outputs": [
				{
					"internalType": "address",
					"name": "",
					"type": "address"
				}
			],
			"payable": false,
			"stateMutability": "view",
			"type": "function"
		},
		{
			"constant": true,
			"inputs": [],
			"name": "StakeAddress",
			"outputs": [
				{
					"internalType": "address",
					"name": "",
					"type": "address"
				}
			],
			"payable": false,
			"stateMutability": "view",
			"type": "function"
		},
		{
			"constant": true,
			"inputs": [],
			"name": "WETHAddress",
			"outputs": [
				{
					"internalType": "address",
					"name": "",
					"type": "address"
				}
			],
			"payable": false,
			"stateMutability": "view",
			"type": "function"
		},
		{
			"constant": false,
			"inputs": [
				{
					"internalType": "uint256",
					"name": "tokenID",
					"type": "uint256"
				},
				{
					"internalType": "address",
					"name": "_mintableToken",
					"type": "address"
				},
				{
					"internalType": "address",
					"name": "_erc20Token",
					"type": "address"
				},
				{
					"internalType": "bool",
					"name": "isNotClubare",
					"type": "bool"
				},
				{
					"internalType": "uint256",
					"name": "_offerId",
					"type": "uint256"
				}
			],
			"name": "accpetOfferse",
			"outputs": [],
			"payable": false,
			"stateMutability": "nonpayable",
			"type": "function"
		},
		{
			"constant": false,
			"inputs": [
				{
					"internalType": "address",
					"name": "_erc20Token",
					"type": "address"
				}
			],
			"name": "addERC20TokenPayment",
			"outputs": [],
			"payable": false,
			"stateMutability": "nonpayable",
			"type": "function"
		},
		{
			"constant": true,
			"inputs": [
				{
					"internalType": "address",
					"name": "",
					"type": "address"
				},
				{
					"internalType": "uint256",
					"name": "",
					"type": "uint256"
				}
			],
			"name": "auctions",
			"outputs": [
				{
					"internalType": "address payable",
					"name": "lastOwner",
					"type": "address"
				},
				{
					"internalType": "uint256",
					"name": "currentBid",
					"type": "uint256"
				},
				{
					"internalType": "address payable",
					"name": "highestBidder",
					"type": "address"
				},
				{
					"internalType": "uint256",
					"name": "auctionType",
					"type": "uint256"
				},
				{
					"internalType": "uint256",
					"name": "startingPrice",
					"type": "uint256"
				},
				{
					"internalType": "uint256",
					"name": "buyPrice",
					"type": "uint256"
				},
				{
					"internalType": "bool",
					"name": "buyer",
					"type": "bool"
				},
				{
					"internalType": "uint256",
					"name": "startingTime",
					"type": "uint256"
				},
				{
					"internalType": "uint256",
					"name": "closingTime",
					"type": "uint256"
				},
				{
					"internalType": "address",
					"name": "erc20Token",
					"type": "address"
				}
			],
			"payable": false,
			"stateMutability": "view",
			"type": "function"
		},
		{
			"constant": false,
			"inputs": [
				{
					"components": [
						{
							"internalType": "uint256",
							"name": "tokenID",
							"type": "uint256"
						},
						{
							"internalType": "address",
							"name": "_mintableToken",
							"type": "address"
						}
					],
					"internalType": "struct BrokerV2.Pair[]",
					"name": "_pairs",
					"type": "tuple[]"
				}
			],
			"name": "batchDelisting",
			"outputs": [],
			"payable": false,
			"stateMutability": "nonpayable",
			"type": "function"
		},
		{
			"constant": false,
			"inputs": [
				{
					"components": [
						{
							"internalType": "uint256",
							"name": "_tokenID",
							"type": "uint256"
						},
						{
							"internalType": "uint256",
							"name": "_startingPrice",
							"type": "uint256"
						},
						{
							"internalType": "uint256",
							"name": "_auctionType",
							"type": "uint256"
						},
						{
							"internalType": "uint256",
							"name": "_buyPrice",
							"type": "uint256"
						},
						{
							"internalType": "uint256",
							"name": "_startingTime",
							"type": "uint256"
						},
						{
							"internalType": "uint256",
							"name": "_closingTime",
							"type": "uint256"
						},
						{
							"internalType": "address",
							"name": "_mintableToken",
							"type": "address"
						},
						{
							"internalType": "address",
							"name": "_erc20Token",
							"type": "address"
						}
					],
					"internalType": "struct BrokerV2.Asset[]",
					"name": "_assets",
					"type": "tuple[]"
				}
			],
			"name": "batchListing",
			"outputs": [],
			"payable": false,
			"stateMutability": "nonpayable",
			"type": "function"
		},
		{
			"constant": false,
			"inputs": [
				{
					"internalType": "uint256",
					"name": "tokenID",
					"type": "uint256"
				},
				{
					"internalType": "address",
					"name": "_mintableToken",
					"type": "address"
				},
				{
					"internalType": "uint256",
					"name": "amount",
					"type": "uint256"
				}
			],
			"name": "bid",
			"outputs": [],
			"payable": true,
			"stateMutability": "payable",
			"type": "function"
		},
		{
			"constant": true,
			"inputs": [
				{
					"internalType": "address",
					"name": "",
					"type": "address"
				}
			],
			"name": "brokerageBalance",
			"outputs": [
				{
					"internalType": "uint256",
					"name": "",
					"type": "uint256"
				}
			],
			"payable": false,
			"stateMutability": "view",
			"type": "function"
		},
		{
			"constant": false,
			"inputs": [
				{
					"internalType": "uint256",
					"name": "tokenID",
					"type": "uint256"
				},
				{
					"internalType": "address",
					"name": "_mintableToken",
					"type": "address"
				},
				{
					"internalType": "bool",
					"name": "isNotClubare",
					"type": "bool"
				}
			],
			"name": "buy",
			"outputs": [],
			"payable": true,
			"stateMutability": "payable",
			"type": "function"
		},
		{
			"constant": false,
			"inputs": [
				{
					"internalType": "uint256",
					"name": "tokenID",
					"type": "uint256"
				},
				{
					"internalType": "address",
					"name": "_mintableToken",
					"type": "address"
				},
				{
					"internalType": "bool",
					"name": "isNotClubare",
					"type": "bool"
				}
			],
			"name": "collect",
			"outputs": [],
			"payable": false,
			"stateMutability": "nonpayable",
			"type": "function"
		},
		{
			"constant": true,
			"inputs": [],
			"name": "getAuctionTokensForSale",
			"outputs": [
				{
					"components": [
						{
							"internalType": "address",
							"name": "NFTAddress",
							"type": "address"
						},
						{
							"internalType": "uint256",
							"name": "tokenID",
							"type": "uint256"
						}
					],
					"internalType": "struct TokenDetArrayLib.TokenDet[]",
					"name": "",
					"type": "tuple[]"
				}
			],
			"payable": false,
			"stateMutability": "view",
			"type": "function"
		},
		{
			"constant": true,
			"inputs": [],
			"name": "getErc20Tokens",
			"outputs": [
				{
					"components": [
						{
							"internalType": "address[]",
							"name": "array",
							"type": "address[]"
						}
					],
					"internalType": "struct ERC20Addresses.erc20Addresses",
					"name": "",
					"type": "tuple"
				}
			],
			"payable": false,
			"stateMutability": "view",
			"type": "function"
		},
		{
			"constant": true,
			"inputs": [],
			"name": "getFixedPriceTokensForSale",
			"outputs": [
				{
					"components": [
						{
							"internalType": "address",
							"name": "NFTAddress",
							"type": "address"
						},
						{
							"internalType": "uint256",
							"name": "tokenID",
							"type": "uint256"
						}
					],
					"internalType": "struct TokenDetArrayLib.TokenDet[]",
					"name": "",
					"type": "tuple[]"
				}
			],
			"payable": false,
			"stateMutability": "view",
			"type": "function"
		},
		{
			"constant": true,
			"inputs": [
				{
					"internalType": "address",
					"name": "_mintableToken",
					"type": "address"
				},
				{
					"internalType": "uint256",
					"name": "tokenID",
					"type": "uint256"
				}
			],
			"name": "getOnSaleStatus",
			"outputs": [
				{
					"internalType": "bool",
					"name": "",
					"type": "bool"
				}
			],
			"payable": false,
			"stateMutability": "view",
			"type": "function"
		},
		{
			"constant": true,
			"inputs": [],
			"name": "getTokensForSale",
			"outputs": [
				{
					"components": [
						{
							"internalType": "address",
							"name": "NFTAddress",
							"type": "address"
						},
						{
							"internalType": "uint256",
							"name": "tokenID",
							"type": "uint256"
						}
					],
					"internalType": "struct TokenDetArrayLib.TokenDet[]",
					"name": "",
					"type": "tuple[]"
				}
			],
			"payable": false,
			"stateMutability": "view",
			"type": "function"
		},
		{
			"constant": true,
			"inputs": [
				{
					"internalType": "address",
					"name": "_user",
					"type": "address"
				}
			],
			"name": "getTokensForSalePerUser",
			"outputs": [
				{
					"components": [
						{
							"internalType": "address",
							"name": "NFTAddress",
							"type": "address"
						},
						{
							"internalType": "uint256",
							"name": "tokenID",
							"type": "uint256"
						}
					],
					"internalType": "struct TokenDetArrayLib.TokenDet[]",
					"name": "",
					"type": "tuple[]"
				}
			],
			"payable": false,
			"stateMutability": "view",
			"type": "function"
		},
		{
			"constant": true,
			"inputs": [],
			"name": "isOwner",
			"outputs": [
				{
					"internalType": "bool",
					"name": "",
					"type": "bool"
				}
			],
			"payable": false,
			"stateMutability": "view",
			"type": "function"
		},
		{
			"constant": true,
			"inputs": [],
			"name": "lpStakefeepercentage",
			"outputs": [
				{
					"internalType": "uint16",
					"name": "",
					"type": "uint16"
				}
			],
			"payable": false,
			"stateMutability": "view",
			"type": "function"
		},
		{
			"constant": false,
			"inputs": [
				{
					"internalType": "uint256",
					"name": "tokenID",
					"type": "uint256"
				},
				{
					"internalType": "address",
					"name": "_mintableToken",
					"type": "address"
				},
				{
					"internalType": "address",
					"name": "_erc20Token",
					"type": "address"
				},
				{
					"internalType": "uint256",
					"name": "_amount",
					"type": "uint256"
				}
			],
			"name": "makeAnOffer",
			"outputs": [],
			"payable": true,
			"stateMutability": "payable",
			"type": "function"
		},
		{
			"constant": true,
			"inputs": [
				{
					"internalType": "address",
					"name": "",
					"type": "address"
				},
				{
					"internalType": "uint256",
					"name": "",
					"type": "uint256"
				},
				{
					"internalType": "address",
					"name": "",
					"type": "address"
				}
			],
			"name": "offerprice",
			"outputs": [
				{
					"internalType": "address",
					"name": "offerer",
					"type": "address"
				},
				{
					"internalType": "uint256",
					"name": "amount",
					"type": "uint256"
				}
			],
			"payable": false,
			"stateMutability": "view",
			"type": "function"
		},
		{
			"constant": false,
			"inputs": [
				{
					"internalType": "address",
					"name": "",
					"type": "address"
				},
				{
					"internalType": "address",
					"name": "",
					"type": "address"
				},
				{
					"internalType": "uint256",
					"name": "",
					"type": "uint256"
				},
				{
					"internalType": "bytes",
					"name": "",
					"type": "bytes"
				}
			],
			"name": "onERC721Received",
			"outputs": [
				{
					"internalType": "bytes4",
					"name": "",
					"type": "bytes4"
				}
			],
			"payable": false,
			"stateMutability": "nonpayable",
			"type": "function"
		},
		{
			"constant": true,
			"inputs": [],
			"name": "owner",
			"outputs": [
				{
					"internalType": "address",
					"name": "",
					"type": "address"
				}
			],
			"payable": false,
			"stateMutability": "view",
			"type": "function"
		},
		{
			"constant": true,
			"inputs": [],
			"name": "platFormFeePercentage",
			"outputs": [
				{
					"internalType": "uint16",
					"name": "",
					"type": "uint16"
				}
			],
			"payable": false,
			"stateMutability": "view",
			"type": "function"
		},
		{
			"constant": false,
			"inputs": [
				{
					"internalType": "uint256",
					"name": "_tokenID",
					"type": "uint256"
				},
				{
					"internalType": "uint256",
					"name": "_startingPrice",
					"type": "uint256"
				},
				{
					"internalType": "uint256",
					"name": "_auctionType",
					"type": "uint256"
				},
				{
					"internalType": "uint256",
					"name": "_buyPrice",
					"type": "uint256"
				},
				{
					"internalType": "uint256",
					"name": "_startingTime",
					"type": "uint256"
				},
				{
					"internalType": "uint256",
					"name": "_closingTime",
					"type": "uint256"
				},
				{
					"internalType": "address",
					"name": "_mintableToken",
					"type": "address"
				},
				{
					"internalType": "address",
					"name": "_erc20Token",
					"type": "address"
				}
			],
			"name": "putOnSale",
			"outputs": [],
			"payable": false,
			"stateMutability": "nonpayable",
			"type": "function"
		},
		{
			"constant": false,
			"inputs": [
				{
					"internalType": "uint256",
					"name": "tokenID",
					"type": "uint256"
				},
				{
					"internalType": "address",
					"name": "_mintableToken",
					"type": "address"
				}
			],
			"name": "putSaleOff",
			"outputs": [],
			"payable": false,
			"stateMutability": "nonpayable",
			"type": "function"
		},
		{
			"constant": false,
			"inputs": [
				{
					"internalType": "address",
					"name": "_erc20Token",
					"type": "address"
				}
			],
			"name": "removeERC20TokenPayment",
			"outputs": [],
			"payable": false,
			"stateMutability": "nonpayable",
			"type": "function"
		},
		{
			"constant": false,
			"inputs": [
				{
					"internalType": "address",
					"name": "_mintableToken",
					"type": "address"
				},
				{
					"internalType": "uint256",
					"name": "tokenID",
					"type": "uint256"
				}
			],
			"name": "revertAll",
			"outputs": [],
			"payable": false,
			"stateMutability": "nonpayable",
			"type": "function"
		},
		{
			"constant": false,
			"inputs": [
				{
					"internalType": "address",
					"name": "_mintableToken",
					"type": "address"
				},
				{
					"internalType": "uint256",
					"name": "tokenID",
					"type": "uint256"
				},
				{
					"internalType": "address",
					"name": "_erc20Token",
					"type": "address"
				}
			],
			"name": "revertOffer",
			"outputs": [],
			"payable": true,
			"stateMutability": "payable",
			"type": "function"
		},
		{
			"constant": true,
			"inputs": [],
			"name": "rewardDistributionPercentage",
			"outputs": [
				{
					"internalType": "uint16",
					"name": "",
					"type": "uint16"
				}
			],
			"payable": false,
			"stateMutability": "view",
			"type": "function"
		},
		{
			"constant": false,
			"inputs": [
				{
					"internalType": "address",
					"name": "_weth",
					"type": "address"
				},
				{
					"internalType": "address",
					"name": "_rewardDistributionAddress",
					"type": "address"
				}
			],
			"name": "setAddress",
			"outputs": [],
			"payable": false,
			"stateMutability": "nonpayable",
			"type": "function"
		},
		{
			"constant": false,
			"inputs": [
				{
					"internalType": "address",
					"name": "_rewardDistributionAddress",
					"type": "address"
				},
				{
					"internalType": "address",
					"name": "_lpStakeAddress",
					"type": "address"
				},
				{
					"internalType": "uint16",
					"name": "_lpStakefeepercentage",
					"type": "uint16"
				},
				{
					"internalType": "uint16",
					"name": "_rewardDistributionPercentage",
					"type": "uint16"
				},
				{
					"internalType": "uint16",
					"name": "_platFormFeePercentage",
					"type": "uint16"
				}
			],
			"name": "setBrokerage",
			"outputs": [],
			"payable": false,
			"stateMutability": "nonpayable",
			"type": "function"
		},
		{
			"constant": false,
			"inputs": [
				{
					"internalType": "uint256",
					"name": "_updateTime",
					"type": "uint256"
				}
			],
			"name": "setUpdatedClosingTime",
			"outputs": [],
			"payable": false,
			"stateMutability": "nonpayable",
			"type": "function"
		},
		{
			"constant": false,
			"inputs": [
				{
					"internalType": "address",
					"name": "newOwner",
					"type": "address"
				}
			],
			"name": "transferOwnership",
			"outputs": [],
			"payable": false,
			"stateMutability": "nonpayable",
			"type": "function"
		},
		{
			"constant": true,
			"inputs": [],
			"name": "updateClosingTime",
			"outputs": [
				{
					"internalType": "uint256",
					"name": "",
					"type": "uint256"
				}
			],
			"payable": false,
			"stateMutability": "view",
			"type": "function"
		},
		{
			"constant": false,
			"inputs": [
				{
					"internalType": "uint256",
					"name": "tokenID",
					"type": "uint256"
				},
				{
					"internalType": "address",
					"name": "_mintableToken",
					"type": "address"
				},
				{
					"internalType": "uint256",
					"name": "_newPrice",
					"type": "uint256"
				},
				{
					"internalType": "address",
					"name": "_erc20Token",
					"type": "address"
				}
			],
			"name": "updatePrice",
			"outputs": [],
			"payable": false,
			"stateMutability": "nonpayable",
			"type": "function"
		},
		{
			"constant": false,
			"inputs": [
				{
					"internalType": "uint16",
					"name": "_rewardDistributionPercentage",
					"type": "uint16"
				},
				{
					"internalType": "uint16",
					"name": "_platFormFeePercentage",
					"type": "uint16"
				},
				{
					"internalType": "uint16",
					"name": "_lpStakefeepercentage",
					"type": "uint16"
				},
				{
					"internalType": "uint256",
					"name": "_updatedTime",
					"type": "uint256"
				},
				{
					"internalType": "address",
					"name": "_weth",
					"type": "address"
				},
				{
					"internalType": "address",
					"name": "_rewardDistributionAddress",
					"type": "address"
				},
				{
					"internalType": "address",
					"name": "_lpStakeAddress",
					"type": "address"
				}
			],
			"name": "updateparams",
			"outputs": [],
			"payable": false,
			"stateMutability": "nonpayable",
			"type": "function"
		},
		{
			"constant": false,
			"inputs": [],
			"name": "withdraw",
			"outputs": [],
			"payable": false,
			"stateMutability": "nonpayable",
			"type": "function"
		},
		{
			"constant": false,
			"inputs": [
				{
					"internalType": "address",
					"name": "_erc20Token",
					"type": "address"
				}
			],
			"name": "withdrawERC20",
			"outputs": [],
			"payable": false,
			"stateMutability": "nonpayable",
			"type": "function"
		},
		{
			"constant": false,
			"inputs": [
				{
					"internalType": "uint256",
					"name": "_tokenID",
					"type": "uint256"
				},
				{
					"internalType": "address",
					"name": "_mintableToken",
					"type": "address"
				},
				{
					"internalType": "address",
					"name": "_erc20Token",
					"type": "address"
				},
				{
					"internalType": "uint256",
					"name": "_offerId",
					"type": "uint256"
				}
			],
			"name": "withdrawUserBid",
			"outputs": [],
			"payable": false,
			"stateMutability": "nonpayable",
			"type": "function"
		}
	]
}