{
	"data": {
		"bytecode": {
			"linkReferences": {},
			"object": "60806040523480156200001157600080fd5b506040516200237d3803806200237d833981016040819052620000349162000299565b8082620000516301ffc9a760e01b6001600160e01b036200013d16565b6200006c632dde656160e21b6001600160e01b036200013d16565b620000876380ac58cd60e01b6001600160e01b036200013d16565b80516200009c90600590602084019062000198565b50620000b863e8a3d48560e01b6001600160e01b036200013d16565b508051620000ce90600690602084019062000198565b50620000ec905063780e9d6360e01b6001600160e01b036200013d16565b83516200010190600c90602087019062000198565b5082516200011790600d90602086019062000198565b5062000133635b5e139f60e01b6001600160e01b036200013d16565b5050505062000440565b6001600160e01b03198082161415620001735760405162461bcd60e51b81526004016200016a906200039d565b60405180910390fd5b6001600160e01b0319166000908152602081905260409020805460ff19166001179055565b828054600181600116156101000203166002900490600052602060002090601f016020900481019282601f10620001db57805160ff19168380011785556200020b565b828001600101855582156200020b579182015b828111156200020b578251825591602001919060010190620001ee565b50620002199291506200021d565b5090565b6200023a91905b8082111562000219576000815560010162000224565b90565b600082601f8301126200024f57600080fd5b8151620002666200026082620003dc565b620003b5565b915080825260208301602083018583830111156200028357600080fd5b620002908382846200040d565b50505092915050565b60008060008060808587031215620002b057600080fd5b84516001600160401b03811115620002c757600080fd5b620002d5878288016200023d565b94505060208501516001600160401b03811115620002f257600080fd5b62000300878288016200023d565b93505060408501516001600160401b038111156200031d57600080fd5b6200032b878288016200023d565b92505060608501516001600160401b038111156200034857600080fd5b62000356878288016200023d565b91505092959194509250565b600062000371601c8362000404565b7f4552433136353a20696e76616c696420696e7465726661636520696400000000815260200192915050565b60208082528101620003af8162000362565b92915050565b6040518181016001600160401b0381118282101715620003d457600080fd5b604052919050565b60006001600160401b03821115620003f357600080fd5b506020601f91909101601f19160190565b90815260200190565b60005b838110156200042a57818101518382015260200162000410565b838111156200043a576000848401525b50505050565b611f2d80620004506000396000f3fe608060405234801561001057600080fd5b50600436106101735760003560e01c806370a08231116100de578063b88d4fde11610097578063c87b56dd11610071578063c87b56dd14610342578063cd53d08e14610355578063e8a3d48514610368578063e985e9c51461037057610173565b8063b88d4fde14610307578063b9c4d9fb1461031a578063c0ac99831461033a57610173565b806370a08231146102a0578063737c7600146102b35780638ee11204146102c657806395d89b41146102d9578063a22cb465146102e1578063b5004f01146102f457610173565b806323b872dd1161013057806323b872dd146102205780632f745c591461023357806342842e0e146102465780634f6ccce7146102595780636308f1cd1461026c5780636352211e1461028d57610173565b806301ffc9a71461017857806306fdde03146101a1578063081812fc146101b6578063095ea7b3146101d65780630ebd4c7f146101eb57806318160ddd1461020b575b600080fd5b61018b610186366004611647565b610383565b6040516101989190611cdc565b60405180910390f35b6101a96103a2565b6040516101989190611cea565b6101c96101c4366004611683565b610430565b6040516101989190611c4d565b6101e96101e4366004611617565b61047c565b005b6101fe6101f9366004611683565b610561565b6040516101989190611ccb565b610213610654565b6040516101989190611ddb565b6101e961022e366004611521565b61065b565b610213610241366004611617565b610698565b6101e9610254366004611521565b6106f9565b610213610267366004611683565b610714565b61027f61027a3660046116a1565b61075b565b604051610198929190611c9f565b6101c961029b366004611683565b61079e565b6102136102ae3660046114c9565b6107d3565b6102136102c1366004611617565b61081c565b6101fe6102d43660046114c9565b61084a565b6101a96108b6565b6101e96102ef3660046115e7565b610911565b610213610302366004611683565b6109df565b6101e961031536600461156e565b6109f1565b61032d610328366004611683565b610a30565b6040516101989190611cba565b6101a9610b28565b6101a9610350366004611683565b610b83565b6101c9610363366004611683565b610bb3565b6101a9610bce565b61018b61037e3660046114e7565b610c29565b6001600160e01b03191660009081526020819052604090205460ff1690565b600c805460408051602060026001851615610100026000190190941693909304601f810184900484028201840190925281815292918301828280156104285780601f106103fd57610100808354040283529160200191610428565b820191906000526020600020905b81548152906001019060200180831161040b57829003601f168201915b505050505081565b600061043b82610c57565b6104605760405162461bcd60e51b815260040161045790611d7b565b60405180910390fd5b506000908152600260205260409020546001600160a01b031690565b60006104878261079e565b9050806001600160a01b0316836001600160a01b031614156104bb5760405162461bcd60e51b815260040161045790611dab565b806001600160a01b03166104cd610c74565b6001600160a01b031614806104e957506104e98161037e610c74565b6105055760405162461bcd60e51b815260040161045790611d4b565b60008281526002602052604080822080546001600160a01b0319166001600160a01b0387811691821790925591518593918516917f8c5be1e5ebec7d5bd14f71427d1e84f3dd0314c0f7b2291e5b200ac8c7c3b92591a4505050565b6000818152600e602090815260408083208054825181850281018501909352808352606094859484015b828210156105d3576000848152602090819020604080518082019091526002850290910180546001600160a01b0316825260019081015482840152908352909201910161058b565b50505050905060608151604051908082528060200260200182016040528015610606578160200160208202803883390190505b50905060005b825181101561064c5782818151811061062157fe5b60200260200101516020015182828151811061063957fe5b602090810291909101015260010161060c565b509392505050565b600a545b90565b61066c610666610c74565b82610c78565b6106885760405162461bcd60e51b815260040161045790611dbb565b610693838383610cfd565b505050565b60006106a3836107d3565b82106106c15760405162461bcd60e51b815260040161045790611cfb565b6001600160a01b03831660009081526008602052604090208054839081106106e557fe5b906000526020600020015490505b92915050565b610693838383604051806020016040528060008152506109f1565b600061071e610654565b821061073c5760405162461bcd60e51b815260040161045790611dcb565b600a828154811061074957fe5b90600052602060002001549050919050565b600e602052816000526040600020818154811061077457fe5b6000918252602090912060029091020180546001909101546001600160a01b039091169250905082565b6000818152600160205260408120546001600160a01b0316806106f35760405162461bcd60e51b815260040161045790611d6b565b60006001600160a01b0382166107fb5760405162461bcd60e51b815260040161045790611d5b565b6001600160a01b03821660009081526003602052604090206106f390610d1c565b6011602052816000526040600020818154811061083557fe5b90600052602060002001600091509150505481565b6001600160a01b0381166000908152601160209081526040918290208054835181840281018401909452808452606093928301828280156108aa57602002820191906000526020600020905b815481526020019060010190808311610896575b50505050509050919050565b600d805460408051602060026001851615610100026000190190941693909304601f810184900484028201840190925281815292918301828280156104285780601f106103fd57610100808354040283529160200191610428565b610919610c74565b6001600160a01b0316826001600160a01b0316141561094a5760405162461bcd60e51b815260040161045790611d2b565b8060046000610957610c74565b6001600160a01b03908116825260208083019390935260409182016000908120918716808252919093529120805460ff19169215159290921790915561099b610c74565b6001600160a01b03167f17307eab39ab6107e8899845ad3d59bd9653f200f220920489ca2b5937696c31836040516109d39190611cdc565b60405180910390a35050565b600f6020526000908152604090205481565b610a026109fc610c74565b83610c78565b610a1e5760405162461bcd60e51b815260040161045790611dbb565b610a2a84848484610d20565b50505050565b6000818152600e602090815260408083208054825181850281018501909352808352606094859484015b82821015610aa2576000848152602090819020604080518082019091526002850290910180546001600160a01b03168252600190810154828401529083529092019101610a5a565b50505050905060608151604051908082528060200260200182016040528015610ad5578160200160208202803883390190505b50905060005b825181101561064c57828181518110610af057fe5b602002602001015160000151828281518110610b0857fe5b6001600160a01b0390921660209283029190910190910152600101610adb565b6006805460408051602060026001851615610100026000190190941693909304601f810184900484028201840190925281815292918301828280156104285780601f106103fd57610100808354040283529160200191610428565b6060610b8e82610c57565b610baa5760405162461bcd60e51b815260040161045790611d9b565b6106f382610d53565b6010602052600090815260409020546001600160a01b031681565b6005805460408051602060026001851615610100026000190190941693909304601f810184900484028201840190925281815292918301828280156104285780601f106103fd57610100808354040283529160200191610428565b6001600160a01b03918216600090815260046020908152604080832093909416825291909152205460ff1690565b6000908152600160205260409020546001600160a01b0316151590565b3390565b6000610c8382610c57565b610c9f5760405162461bcd60e51b815260040161045790611d3b565b6000610caa8361079e565b9050806001600160a01b0316846001600160a01b03161480610ce55750836001600160a01b0316610cda84610430565b6001600160a01b0316145b80610cf55750610cf58185610c29565b949350505050565b610d08838383610e8e565b610d128382610f94565b6106938282611089565b5490565b610d2b848484610cfd565b610d37848484846110c7565b610a2a5760405162461bcd60e51b815260040161045790611d0b565b6000818152600760209081526040918290208054835160026001831615610100026000190190921691909104601f81018490048402820184019094528381526060936106f393919291830182828015610ded5780601f10610dc257610100808354040283529160200191610ded565b820191906000526020600020905b815481529060010190602001808311610dd057829003601f168201915b505060068054604080516020601f6002600019610100600188161502019095169490940493840181900481028201810190925282815295509193509150830182828015610e7b5780601f10610e5057610100808354040283529160200191610e7b565b820191906000526020600020905b815481529060010190602001808311610e5e57829003601f168201915b505050505061120190919063ffffffff16565b826001600160a01b0316610ea18261079e565b6001600160a01b031614610ec75760405162461bcd60e51b815260040161045790611d8b565b6001600160a01b038216610eed5760405162461bcd60e51b815260040161045790611d1b565b610ef6816112f6565b6001600160a01b0383166000908152600360205260409020610f1790611333565b6001600160a01b0382166000908152600360205260409020610f389061134a565b60008181526001602052604080822080546001600160a01b0319166001600160a01b0386811691821790925591518493918716917fddf252ad1be2c89b69c2b068fc378daa952ba7f163c4a11628f55a4df523b3ef91a4505050565b6001600160a01b038216600090815260086020526040812054610fbe90600163ffffffff61135316565b600083815260096020526040902054909150808214611059576001600160a01b0384166000908152600860205260408120805484908110610ffb57fe5b906000526020600020015490508060086000876001600160a01b03166001600160a01b03168152602001908152602001600020838154811061103957fe5b600091825260208083209091019290925591825260099052604090208190555b6001600160a01b0384166000908152600860205260409020805490611082906000198301611401565b5050505050565b6001600160a01b0390911660009081526008602081815260408084208054868652600984529185208290559282526001810183559183529091200155565b60006110db846001600160a01b031661139c565b6110e757506001610cf5565b600060606001600160a01b038616630a85bd0160e11b611105610c74565b89888860405160240161111b9493929190611c5b565b60408051601f198184030181529181526020820180516001600160e01b03166001600160e01b03199094169390931790925290516111599190611c41565b6000604051808303816000865af19150503d8060008114611196576040519150601f19603f3d011682016040523d82523d6000602084013e61119b565b606091505b5091509150816111cd578051156111b55780518082602001fd5b60405162461bcd60e51b815260040161045790611d0b565b6000818060200190516111e39190810190611665565b6001600160e01b031916630a85bd0160e11b149350610cf592505050565b6060808390506060839050606081518351016040519080825280601f01601f19166020018201604052801561123d576020820181803883390190505b5090506000805b84518110156112955784818151811061125957fe5b602001015160f81c60f81b83838060010194508151811061127657fe5b60200101906001600160f81b031916908160001a905350600101611244565b5060005b83518110156112ea578381815181106112ae57fe5b602001015160f81c60f81b8383806001019450815181106112cb57fe5b60200101906001600160f81b031916908160001a905350600101611299565b50909695505050505050565b6000818152600260205260409020546001600160a01b03161561133057600081815260026020526040902080546001600160a01b03191690555b50565b805461134690600163ffffffff61135316565b9055565b80546001019055565b600061139583836040518060400160405280601e81526020017f536166654d6174683a207375627472616374696f6e206f766572666c6f7700008152506113d5565b9392505050565b6000813f7fc5d2460186f7233c927e7db2dcc703c0e500b653ca82273b7bfad8045d85a470818114801590610cf5575050151592915050565b600081848411156113f95760405162461bcd60e51b81526004016104579190611cea565b505050900390565b8154818355818111156106935760008381526020902061069391810190830161065891905b8082111561143a5760008155600101611426565b5090565b80356106f381611ebb565b80356106f381611ecf565b80356106f381611ed8565b80516106f381611ed8565b600082601f83011261147b57600080fd5b813561148e61148982611e10565b611de9565b915080825260208301602083018583830111156114aa57600080fd5b6114b5838284611e79565b50505092915050565b80356106f381611ee1565b6000602082840312156114db57600080fd5b6000610cf5848461143e565b600080604083850312156114fa57600080fd5b6000611506858561143e565b92505060206115178582860161143e565b9150509250929050565b60008060006060848603121561153657600080fd5b6000611542868661143e565b93505060206115538682870161143e565b9250506040611564868287016114be565b9150509250925092565b6000806000806080858703121561158457600080fd5b6000611590878761143e565b94505060206115a18782880161143e565b93505060406115b2878288016114be565b925050606085013567ffffffffffffffff8111156115cf57600080fd5b6115db8782880161146a565b91505092959194509250565b600080604083850312156115fa57600080fd5b6000611606858561143e565b925050602061151785828601611449565b6000806040838503121561162a57600080fd5b6000611636858561143e565b9250506020611517858286016114be565b60006020828403121561165957600080fd5b6000610cf58484611454565b60006020828403121561167757600080fd5b6000610cf5848461145f565b60006020828403121561169557600080fd5b6000610cf584846114be565b600080604083850312156116b457600080fd5b600061163685856114be565b60006116cc83836116e0565b505060200190565b60006116cc8383611c38565b6116e981611e50565b82525050565b60006116fa82611e3e565b6117048185611e42565b935061170f83611e38565b8060005b8381101561173d57815161172788826116c0565b975061173283611e38565b925050600101611713565b509495945050505050565b600061175382611e3e565b61175d8185611e42565b935061176883611e38565b8060005b8381101561173d57815161178088826116d4565b975061178b83611e38565b92505060010161176c565b6116e981611e5b565b60006117aa82611e3e565b6117b48185611e42565b93506117c4818560208601611e85565b6117cd81611eb1565b9093019392505050565b60006117e282611e3e565b6117ec8185611e4b565b93506117fc818560208601611e85565b9290920192915050565b6000611813602b83611e42565b7f455243373231456e756d657261626c653a206f776e657220696e646578206f7581526a74206f6620626f756e647360a81b602082015260400192915050565b6000611860603283611e42565b7f4552433732313a207472616e7366657220746f206e6f6e20455243373231526581527131b2b4bb32b91034b6b83632b6b2b73a32b960711b602082015260400192915050565b60006118b4602483611e42565b7f4552433732313a207472616e7366657220746f20746865207a65726f206164648152637265737360e01b602082015260400192915050565b60006118fa601983611e42565b7f4552433732313a20617070726f766520746f2063616c6c657200000000000000815260200192915050565b6000611933602c83611e42565b7f4552433732313a206f70657261746f7220717565727920666f72206e6f6e657881526b34b9ba32b73a103a37b5b2b760a11b602082015260400192915050565b6000611981603883611e42565b7f4552433732313a20617070726f76652063616c6c6572206973206e6f74206f7781527f6e6572206e6f7220617070726f76656420666f7220616c6c0000000000000000602082015260400192915050565b60006119e0602a83611e42565b7f4552433732313a2062616c616e636520717565727920666f7220746865207a65815269726f206164647265737360b01b602082015260400192915050565b6000611a2c602983611e42565b7f4552433732313a206f776e657220717565727920666f72206e6f6e657869737481526832b73a103a37b5b2b760b91b602082015260400192915050565b6000611a77602c83611e42565b7f4552433732313a20617070726f76656420717565727920666f72206e6f6e657881526b34b9ba32b73a103a37b5b2b760a11b602082015260400192915050565b6000611ac5602983611e42565b7f4552433732313a207472616e73666572206f6620746f6b656e2074686174206981526839903737ba1037bbb760b91b602082015260400192915050565b6000611b10602f83611e42565b7f4552433732314d657461646174613a2055524920717565727920666f72206e6f81526e3732bc34b9ba32b73a103a37b5b2b760891b602082015260400192915050565b6000611b61602183611e42565b7f4552433732313a20617070726f76616c20746f2063757272656e74206f776e658152603960f91b602082015260400192915050565b6000611ba4603183611e42565b7f4552433732313a207472616e736665722063616c6c6572206973206e6f74206f8152701ddb995c881b9bdc88185c1c1c9bdd9959607a1b602082015260400192915050565b6000611bf7602c83611e42565b7f455243373231456e756d657261626c653a20676c6f62616c20696e646578206f81526b7574206f6620626f756e647360a01b602082015260400192915050565b6116e981610658565b600061139582846117d7565b602081016106f382846116e0565b60808101611c6982876116e0565b611c7660208301866116e0565b611c836040830185611c38565b8181036060830152611c95818461179f565b9695505050505050565b60408101611cad82856116e0565b6113956020830184611c38565b6020808252810161139581846116ef565b602080825281016113958184611748565b602081016106f38284611796565b60208082528101611395818461179f565b602080825281016106f381611806565b602080825281016106f381611853565b602080825281016106f3816118a7565b602080825281016106f3816118ed565b602080825281016106f381611926565b602080825281016106f381611974565b602080825281016106f3816119d3565b602080825281016106f381611a1f565b602080825281016106f381611a6a565b602080825281016106f381611ab8565b602080825281016106f381611b03565b602080825281016106f381611b54565b602080825281016106f381611b97565b602080825281016106f381611bea565b602081016106f38284611c38565b60405181810167ffffffffffffffff81118282101715611e0857600080fd5b604052919050565b600067ffffffffffffffff821115611e2757600080fd5b506020601f91909101601f19160190565b60200190565b5190565b90815260200190565b919050565b60006106f382611e6d565b151590565b6001600160e01b03191690565b6001600160a01b031690565b82818337506000910152565b60005b83811015611ea0578181015183820152602001611e88565b83811115610a2a5750506000910152565b601f01601f191690565b611ec481611e50565b811461133057600080fd5b611ec481611e5b565b611ec481611e60565b611ec48161065856fea365627a7a7231582082f1d7f4d1e5776388deeb55ddddd6f94ea072cd4e9a33deebae73e29639540d6c6578706572696d656e74616cf564736f6c63430005110040",
			"opcodes": "PUSH1 0x80 PUSH1 0x40 MSTORE CALLVALUE DUP1 ISZERO PUSH3 0x11 JUMPI PUSH1 0x0 DUP1 REVERT JUMPDEST POP PUSH1 0x40 MLOAD PUSH3 0x237D CODESIZE SUB DUP1 PUSH3 0x237D DUP4 CODECOPY DUP2 ADD PUSH1 0x40 DUP2 SWAP1 MSTORE PUSH3 0x34 SWAP2 PUSH3 0x299 JUMP JUMPDEST DUP1 DUP3 PUSH3 0x51 PUSH4 0x1FFC9A7 PUSH1 0xE0 SHL PUSH1 0x1 PUSH1 0x1 PUSH1 0xE0 SHL SUB PUSH3 0x13D AND JUMP JUMPDEST PUSH3 0x6C PUSH4 0x2DDE6561 PUSH1 0xE2 SHL PUSH1 0x1 PUSH1 0x1 PUSH1 0xE0 SHL SUB PUSH3 0x13D AND JUMP JUMPDEST PUSH3 0x87 PUSH4 0x80AC58CD PUSH1 0xE0 SHL PUSH1 0x1 PUSH1 0x1 PUSH1 0xE0 SHL SUB PUSH3 0x13D AND JUMP JUMPDEST DUP1 MLOAD PUSH3 0x9C SWAP1 PUSH1 0x5 SWAP1 PUSH1 0x20 DUP5 ADD SWAP1 PUSH3 0x198 JUMP JUMPDEST POP PUSH3 0xB8 PUSH4 0xE8A3D485 PUSH1 0xE0 SHL PUSH1 0x1 PUSH1 0x1 PUSH1 0xE0 SHL SUB PUSH3 0x13D AND JUMP JUMPDEST POP DUP1 MLOAD PUSH3 0xCE SWAP1 PUSH1 0x6 SWAP1 PUSH1 0x20 DUP5 ADD SWAP1 PUSH3 0x198 JUMP JUMPDEST POP PUSH3 0xEC SWAP1 POP PUSH4 0x780E9D63 PUSH1 0xE0 SHL PUSH1 0x1 PUSH1 0x1 PUSH1 0xE0 SHL SUB PUSH3 0x13D AND JUMP JUMPDEST DUP4 MLOAD PUSH3 0x101 SWAP1 PUSH1 0xC SWAP1 PUSH1 0x20 DUP8 ADD SWAP1 PUSH3 0x198 JUMP JUMPDEST POP DUP3 MLOAD PUSH3 0x117 SWAP1 PUSH1 0xD SWAP1 PUSH1 0x20 DUP7 ADD SWAP1 PUSH3 0x198 JUMP JUMPDEST POP PUSH3 0x133 PUSH4 0x5B5E139F PUSH1 0xE0 SHL PUSH1 0x1 PUSH1 0x1 PUSH1 0xE0 SHL SUB PUSH3 0x13D AND JUMP JUMPDEST POP POP POP POP PUSH3 0x440 JUMP JUMPDEST PUSH1 0x1 PUSH1 0x1 PUSH1 0xE0 SHL SUB NOT DUP1 DUP3 AND EQ ISZERO PUSH3 0x173 JUMPI PUSH1 0x40 MLOAD PUSH3 0x461BCD PUSH1 0xE5 SHL DUP2 MSTORE PUSH1 0x4 ADD PUSH3 0x16A SWAP1 PUSH3 0x39D JUMP JUMPDEST PUSH1 0x40 MLOAD DUP1 SWAP2 SUB SWAP1 REVERT JUMPDEST PUSH1 0x1 PUSH1 0x1 PUSH1 0xE0 SHL SUB NOT AND PUSH1 0x0 SWAP1 DUP2 MSTORE PUSH1 0x20 DUP2 SWAP1 MSTORE PUSH1 0x40 SWAP1 KECCAK256 DUP1 SLOAD PUSH1 0xFF NOT AND PUSH1 0x1 OR SWAP1 SSTORE JUMP JUMPDEST DUP3 DUP1 SLOAD PUSH1 0x1 DUP2 PUSH1 0x1 AND ISZERO PUSH2 0x100 MUL SUB AND PUSH1 0x2 SWAP1 DIV SWAP1 PUSH1 0x0 MSTORE PUSH1 0x20 PUSH1 0x0 KECCAK256 SWAP1 PUSH1 0x1F ADD PUSH1 0x20 SWAP1 DIV DUP2 ADD SWAP3 DUP3 PUSH1 0x1F LT PUSH3 0x1DB JUMPI DUP1 MLOAD PUSH1 0xFF NOT AND DUP4 DUP1 ADD OR DUP6 SSTORE PUSH3 0x20B JUMP JUMPDEST DUP3 DUP1 ADD PUSH1 0x1 ADD DUP6 SSTORE DUP3 ISZERO PUSH3 0x20B JUMPI SWAP2 DUP3 ADD JUMPDEST DUP3 DUP2 GT ISZERO PUSH3 0x20B JUMPI DUP3 MLOAD DUP3 SSTORE SWAP2 PUSH1 0x20 ADD SWAP2 SWAP1 PUSH1 0x1 ADD SWAP1 PUSH3 0x1EE JUMP JUMPDEST POP PUSH3 0x219 SWAP3 SWAP2 POP PUSH3 0x21D JUMP JUMPDEST POP SWAP1 JUMP JUMPDEST PUSH3 0x23A SWAP2 SWAP1 JUMPDEST DUP1 DUP3 GT ISZERO PUSH3 0x219 JUMPI PUSH1 0x0 DUP2 SSTORE PUSH1 0x1 ADD PUSH3 0x224 JUMP JUMPDEST SWAP1 JUMP JUMPDEST PUSH1 0x0 DUP3 PUSH1 0x1F DUP4 ADD SLT PUSH3 0x24F JUMPI PUSH1 0x0 DUP1 REVERT JUMPDEST DUP2 MLOAD PUSH3 0x266 PUSH3 0x260 DUP3 PUSH3 0x3DC JUMP JUMPDEST PUSH3 0x3B5 JUMP JUMPDEST SWAP2 POP DUP1 DUP3 MSTORE PUSH1 0x20 DUP4 ADD PUSH1 0x20 DUP4 ADD DUP6 DUP4 DUP4 ADD GT ISZERO PUSH3 0x283 JUMPI PUSH1 0x0 DUP1 REVERT JUMPDEST PUSH3 0x290 DUP4 DUP3 DUP5 PUSH3 0x40D JUMP JUMPDEST POP POP POP SWAP3 SWAP2 POP POP JUMP JUMPDEST PUSH1 0x0 DUP1 PUSH1 0x0 DUP1 PUSH1 0x80 DUP6 DUP8 SUB SLT ISZERO PUSH3 0x2B0 JUMPI PUSH1 0x0 DUP1 REVERT JUMPDEST DUP5 MLOAD PUSH1 0x1 PUSH1 0x1 PUSH1 0x40 SHL SUB DUP2 GT ISZERO PUSH3 0x2C7 JUMPI PUSH1 0x0 DUP1 REVERT JUMPDEST PUSH3 0x2D5 DUP8 DUP3 DUP9 ADD PUSH3 0x23D JUMP JUMPDEST SWAP5 POP POP PUSH1 0x20 DUP6 ADD MLOAD PUSH1 0x1 PUSH1 0x1 PUSH1 0x40 SHL SUB DUP2 GT ISZERO PUSH3 0x2F2 JUMPI PUSH1 0x0 DUP1 REVERT JUMPDEST PUSH3 0x300 DUP8 DUP3 DUP9 ADD PUSH3 0x23D JUMP JUMPDEST SWAP4 POP POP PUSH1 0x40 DUP6 ADD MLOAD PUSH1 0x1 PUSH1 0x1 PUSH1 0x40 SHL SUB DUP2 GT ISZERO PUSH3 0x31D JUMPI PUSH1 0x0 DUP1 REVERT JUMPDEST PUSH3 0x32B DUP8 DUP3 DUP9 ADD PUSH3 0x23D JUMP JUMPDEST SWAP3 POP POP PUSH1 0x60 DUP6 ADD MLOAD PUSH1 0x1 PUSH1 0x1 PUSH1 0x40 SHL SUB DUP2 GT ISZERO PUSH3 0x348 JUMPI PUSH1 0x0 DUP1 REVERT JUMPDEST PUSH3 0x356 DUP8 DUP3 DUP9 ADD PUSH3 0x23D JUMP JUMPDEST SWAP2 POP POP SWAP3 SWAP6 SWAP2 SWAP5 POP SWAP3 POP JUMP JUMPDEST PUSH1 0x0 PUSH3 0x371 PUSH1 0x1C DUP4 PUSH3 0x404 JUMP JUMPDEST PUSH32 0x4552433136353A20696E76616C696420696E7465726661636520696400000000 DUP2 MSTORE PUSH1 0x20 ADD SWAP3 SWAP2 POP POP JUMP JUMPDEST PUSH1 0x20 DUP1 DUP3 MSTORE DUP2 ADD PUSH3 0x3AF DUP2 PUSH3 0x362 JUMP JUMPDEST SWAP3 SWAP2 POP POP JUMP JUMPDEST PUSH1 0x40 MLOAD DUP2 DUP2 ADD PUSH1 0x1 PUSH1 0x1 PUSH1 0x40 SHL SUB DUP2 GT DUP3 DUP3 LT OR ISZERO PUSH3 0x3D4 JUMPI PUSH1 0x0 DUP1 REVERT JUMPDEST PUSH1 0x40 MSTORE SWAP2 SWAP1 POP JUMP JUMPDEST PUSH1 0x0 PUSH1 0x1 PUSH1 0x1 PUSH1 0x40 SHL SUB DUP3 GT ISZERO PUSH3 0x3F3 JUMPI PUSH1 0x0 DUP1 REVERT JUMPDEST POP PUSH1 0x20 PUSH1 0x1F SWAP2 SWAP1 SWAP2 ADD PUSH1 0x1F NOT AND ADD SWAP1 JUMP JUMPDEST SWAP1 DUP2 MSTORE PUSH1 0x20 ADD SWAP1 JUMP JUMPDEST PUSH1 0x0 JUMPDEST DUP4 DUP2 LT ISZERO PUSH3 0x42A JUMPI DUP2 DUP2 ADD MLOAD DUP4 DUP3 ADD MSTORE PUSH1 0x20 ADD PUSH3 0x410 JUMP JUMPDEST DUP4 DUP2 GT ISZERO PUSH3 0x43A JUMPI PUSH1 0x0 DUP5 DUP5 ADD MSTORE JUMPDEST POP POP POP POP JUMP JUMPDEST PUSH2 0x1F2D DUP1 PUSH3 0x450 PUSH1 0x0 CODECOPY PUSH1 0x0 RETURN INVALID PUSH1 0x80 PUSH1 0x40 MSTORE CALLVALUE DUP1 ISZERO PUSH2 0x10 JUMPI PUSH1 0x0 DUP1 REVERT JUMPDEST POP PUSH1 0x4 CALLDATASIZE LT PUSH2 0x173 JUMPI PUSH1 0x0 CALLDATALOAD PUSH1 0xE0 SHR DUP1 PUSH4 0x70A08231 GT PUSH2 0xDE JUMPI DUP1 PUSH4 0xB88D4FDE GT PUSH2 0x97 JUMPI DUP1 PUSH4 0xC87B56DD GT PUSH2 0x71 JUMPI DUP1 PUSH4 0xC87B56DD EQ PUSH2 0x342 JUMPI DUP1 PUSH4 0xCD53D08E EQ PUSH2 0x355 JUMPI DUP1 PUSH4 0xE8A3D485 EQ PUSH2 0x368 JUMPI DUP1 PUSH4 0xE985E9C5 EQ PUSH2 0x370 JUMPI PUSH2 0x173 JUMP JUMPDEST DUP1 PUSH4 0xB88D4FDE EQ PUSH2 0x307 JUMPI DUP1 PUSH4 0xB9C4D9FB EQ PUSH2 0x31A JUMPI DUP1 PUSH4 0xC0AC9983 EQ PUSH2 0x33A JUMPI PUSH2 0x173 JUMP JUMPDEST DUP1 PUSH4 0x70A08231 EQ PUSH2 0x2A0 JUMPI DUP1 PUSH4 0x737C7600 EQ PUSH2 0x2B3 JUMPI DUP1 PUSH4 0x8EE11204 EQ PUSH2 0x2C6 JUMPI DUP1 PUSH4 0x95D89B41 EQ PUSH2 0x2D9 JUMPI DUP1 PUSH4 0xA22CB465 EQ PUSH2 0x2E1 JUMPI DUP1 PUSH4 0xB5004F01 EQ PUSH2 0x2F4 JUMPI PUSH2 0x173 JUMP JUMPDEST DUP1 PUSH4 0x23B872DD GT PUSH2 0x130 JUMPI DUP1 PUSH4 0x23B872DD EQ PUSH2 0x220 JUMPI DUP1 PUSH4 0x2F745C59 EQ PUSH2 0x233 JUMPI DUP1 PUSH4 0x42842E0E EQ PUSH2 0x246 JUMPI DUP1 PUSH4 0x4F6CCCE7 EQ PUSH2 0x259 JUMPI DUP1 PUSH4 0x6308F1CD EQ PUSH2 0x26C JUMPI DUP1 PUSH4 0x6352211E EQ PUSH2 0x28D JUMPI PUSH2 0x173 JUMP JUMPDEST DUP1 PUSH4 0x1FFC9A7 EQ PUSH2 0x178 JUMPI DUP1 PUSH4 0x6FDDE03 EQ PUSH2 0x1A1 JUMPI DUP1 PUSH4 0x81812FC EQ PUSH2 0x1B6 JUMPI DUP1 PUSH4 0x95EA7B3 EQ PUSH2 0x1D6 JUMPI DUP1 PUSH4 0xEBD4C7F EQ PUSH2 0x1EB JUMPI DUP1 PUSH4 0x18160DDD EQ PUSH2 0x20B JUMPI JUMPDEST PUSH1 0x0 DUP1 REVERT JUMPDEST PUSH2 0x18B PUSH2 0x186 CALLDATASIZE PUSH1 0x4 PUSH2 0x1647 JUMP JUMPDEST PUSH2 0x383 JUMP JUMPDEST PUSH1 0x40 MLOAD PUSH2 0x198 SWAP2 SWAP1 PUSH2 0x1CDC JUMP JUMPDEST PUSH1 0x40 MLOAD DUP1 SWAP2 SUB SWAP1 RETURN JUMPDEST PUSH2 0x1A9 PUSH2 0x3A2 JUMP JUMPDEST PUSH1 0x40 MLOAD PUSH2 0x198 SWAP2 SWAP1 PUSH2 0x1CEA JUMP JUMPDEST PUSH2 0x1C9 PUSH2 0x1C4 CALLDATASIZE PUSH1 0x4 PUSH2 0x1683 JUMP JUMPDEST PUSH2 0x430 JUMP JUMPDEST PUSH1 0x40 MLOAD PUSH2 0x198 SWAP2 SWAP1 PUSH2 0x1C4D JUMP JUMPDEST PUSH2 0x1E9 PUSH2 0x1E4 CALLDATASIZE PUSH1 0x4 PUSH2 0x1617 JUMP JUMPDEST PUSH2 0x47C JUMP JUMPDEST STOP JUMPDEST PUSH2 0x1FE PUSH2 0x1F9 CALLDATASIZE PUSH1 0x4 PUSH2 0x1683 JUMP JUMPDEST PUSH2 0x561 JUMP JUMPDEST PUSH1 0x40 MLOAD PUSH2 0x198 SWAP2 SWAP1 PUSH2 0x1CCB JUMP JUMPDEST PUSH2 0x213 PUSH2 0x654 JUMP JUMPDEST PUSH1 0x40 MLOAD PUSH2 0x198 SWAP2 SWAP1 PUSH2 0x1DDB JUMP JUMPDEST PUSH2 0x1E9 PUSH2 0x22E CALLDATASIZE PUSH1 0x4 PUSH2 0x1521 JUMP JUMPDEST PUSH2 0x65B JUMP JUMPDEST PUSH2 0x213 PUSH2 0x241 CALLDATASIZE PUSH1 0x4 PUSH2 0x1617 JUMP JUMPDEST PUSH2 0x698 JUMP JUMPDEST PUSH2 0x1E9 PUSH2 0x254 CALLDATASIZE PUSH1 0x4 PUSH2 0x1521 JUMP JUMPDEST PUSH2 0x6F9 JUMP JUMPDEST PUSH2 0x213 PUSH2 0x267 CALLDATASIZE PUSH1 0x4 PUSH2 0x1683 JUMP JUMPDEST PUSH2 0x714 JUMP JUMPDEST PUSH2 0x27F PUSH2 0x27A CALLDATASIZE PUSH1 0x4 PUSH2 0x16A1 JUMP JUMPDEST PUSH2 0x75B JUMP JUMPDEST PUSH1 0x40 MLOAD PUSH2 0x198 SWAP3 SWAP2 SWAP1 PUSH2 0x1C9F JUMP JUMPDEST PUSH2 0x1C9 PUSH2 0x29B CALLDATASIZE PUSH1 0x4 PUSH2 0x1683 JUMP JUMPDEST PUSH2 0x79E JUMP JUMPDEST PUSH2 0x213 PUSH2 0x2AE CALLDATASIZE PUSH1 0x4 PUSH2 0x14C9 JUMP JUMPDEST PUSH2 0x7D3 JUMP JUMPDEST PUSH2 0x213 PUSH2 0x2C1 CALLDATASIZE PUSH1 0x4 PUSH2 0x1617 JUMP JUMPDEST PUSH2 0x81C JUMP JUMPDEST PUSH2 0x1FE PUSH2 0x2D4 CALLDATASIZE PUSH1 0x4 PUSH2 0x14C9 JUMP JUMPDEST PUSH2 0x84A JUMP JUMPDEST PUSH2 0x1A9 PUSH2 0x8B6 JUMP JUMPDEST PUSH2 0x1E9 PUSH2 0x2EF CALLDATASIZE PUSH1 0x4 PUSH2 0x15E7 JUMP JUMPDEST PUSH2 0x911 JUMP JUMPDEST PUSH2 0x213 PUSH2 0x302 CALLDATASIZE PUSH1 0x4 PUSH2 0x1683 JUMP JUMPDEST PUSH2 0x9DF JUMP JUMPDEST PUSH2 0x1E9 PUSH2 0x315 CALLDATASIZE PUSH1 0x4 PUSH2 0x156E JUMP JUMPDEST PUSH2 0x9F1 JUMP JUMPDEST PUSH2 0x32D PUSH2 0x328 CALLDATASIZE PUSH1 0x4 PUSH2 0x1683 JUMP JUMPDEST PUSH2 0xA30 JUMP JUMPDEST PUSH1 0x40 MLOAD PUSH2 0x198 SWAP2 SWAP1 PUSH2 0x1CBA JUMP JUMPDEST PUSH2 0x1A9 PUSH2 0xB28 JUMP JUMPDEST PUSH2 0x1A9 PUSH2 0x350 CALLDATASIZE PUSH1 0x4 PUSH2 0x1683 JUMP JUMPDEST PUSH2 0xB83 JUMP JUMPDEST PUSH2 0x1C9 PUSH2 0x363 CALLDATASIZE PUSH1 0x4 PUSH2 0x1683 JUMP JUMPDEST PUSH2 0xBB3 JUMP JUMPDEST PUSH2 0x1A9 PUSH2 0xBCE JUMP JUMPDEST PUSH2 0x18B PUSH2 0x37E CALLDATASIZE PUSH1 0x4 PUSH2 0x14E7 JUMP JUMPDEST PUSH2 0xC29 JUMP JUMPDEST PUSH1 0x1 PUSH1 0x1 PUSH1 0xE0 SHL SUB NOT AND PUSH1 0x0 SWAP1 DUP2 MSTORE PUSH1 0x20 DUP2 SWAP1 MSTORE PUSH1 0x40 SWAP1 KECCAK256 SLOAD PUSH1 0xFF AND SWAP1 JUMP JUMPDEST PUSH1 0xC DUP1 SLOAD PUSH1 0x40 DUP1 MLOAD PUSH1 0x20 PUSH1 0x2 PUSH1 0x1 DUP6 AND ISZERO PUSH2 0x100 MUL PUSH1 0x0 NOT ADD SWAP1 SWAP5 AND SWAP4 SWAP1 SWAP4 DIV PUSH1 0x1F DUP2 ADD DUP5 SWAP1 DIV DUP5 MUL DUP3 ADD DUP5 ADD SWAP1 SWAP3 MSTORE DUP2 DUP2 MSTORE SWAP3 SWAP2 DUP4 ADD DUP3 DUP3 DUP1 ISZERO PUSH2 0x428 JUMPI DUP1 PUSH1 0x1F LT PUSH2 0x3FD JUMPI PUSH2 0x100 DUP1 DUP4 SLOAD DIV MUL DUP4 MSTORE SWAP2 PUSH1 0x20 ADD SWAP2 PUSH2 0x428 JUMP JUMPDEST DUP3 ADD SWAP2 SWAP1 PUSH1 0x0 MSTORE PUSH1 0x20 PUSH1 0x0 KECCAK256 SWAP1 JUMPDEST DUP2 SLOAD DUP2 MSTORE SWAP1 PUSH1 0x1 ADD SWAP1 PUSH1 0x20 ADD DUP1 DUP4 GT PUSH2 0x40B JUMPI DUP3 SWAP1 SUB PUSH1 0x1F AND DUP3 ADD SWAP2 JUMPDEST POP POP POP POP POP DUP2 JUMP JUMPDEST PUSH1 0x0 PUSH2 0x43B DUP3 PUSH2 0xC57 JUMP JUMPDEST PUSH2 0x460 JUMPI PUSH1 0x40 MLOAD PUSH3 0x461BCD PUSH1 0xE5 SHL DUP2 MSTORE PUSH1 0x4 ADD PUSH2 0x457 SWAP1 PUSH2 0x1D7B JUMP JUMPDEST PUSH1 0x40 MLOAD DUP1 SWAP2 SUB SWAP1 REVERT JUMPDEST POP PUSH1 0x0 SWAP1 DUP2 MSTORE PUSH1 0x2 PUSH1 0x20 MSTORE PUSH1 0x40 SWAP1 KECCAK256 SLOAD PUSH1 0x1 PUSH1 0x1 PUSH1 0xA0 SHL SUB AND SWAP1 JUMP JUMPDEST PUSH1 0x0 PUSH2 0x487 DUP3 PUSH2 0x79E JUMP JUMPDEST SWAP1 POP DUP1 PUSH1 0x1 PUSH1 0x1 PUSH1 0xA0 SHL SUB AND DUP4 PUSH1 0x1 PUSH1 0x1 PUSH1 0xA0 SHL SUB AND EQ ISZERO PUSH2 0x4BB JUMPI PUSH1 0x40 MLOAD PUSH3 0x461BCD PUSH1 0xE5 SHL DUP2 MSTORE PUSH1 0x4 ADD PUSH2 0x457 SWAP1 PUSH2 0x1DAB JUMP JUMPDEST DUP1 PUSH1 0x1 PUSH1 0x1 PUSH1 0xA0 SHL SUB AND PUSH2 0x4CD PUSH2 0xC74 JUMP JUMPDEST PUSH1 0x1 PUSH1 0x1 PUSH1 0xA0 SHL SUB AND EQ DUP1 PUSH2 0x4E9 JUMPI POP PUSH2 0x4E9 DUP2 PUSH2 0x37E PUSH2 0xC74 JUMP JUMPDEST PUSH2 0x505 JUMPI PUSH1 0x40 MLOAD PUSH3 0x461BCD PUSH1 0xE5 SHL DUP2 MSTORE PUSH1 0x4 ADD PUSH2 0x457 SWAP1 PUSH2 0x1D4B JUMP JUMPDEST PUSH1 0x0 DUP3 DUP2 MSTORE PUSH1 0x2 PUSH1 0x20 MSTORE PUSH1 0x40 DUP1 DUP3 KECCAK256 DUP1 SLOAD PUSH1 0x1 PUSH1 0x1 PUSH1 0xA0 SHL SUB NOT AND PUSH1 0x1 PUSH1 0x1 PUSH1 0xA0 SHL SUB DUP8 DUP2 AND SWAP2 DUP3 OR SWAP1 SWAP3 SSTORE SWAP2 MLOAD DUP6 SWAP4 SWAP2 DUP6 AND SWAP2 PUSH32 0x8C5BE1E5EBEC7D5BD14F71427D1E84F3DD0314C0F7B2291E5B200AC8C7C3B925 SWAP2 LOG4 POP POP POP JUMP JUMPDEST PUSH1 0x0 DUP2 DUP2 MSTORE PUSH1 0xE PUSH1 0x20 SWAP1 DUP2 MSTORE PUSH1 0x40 DUP1 DUP4 KECCAK256 DUP1 SLOAD DUP3 MLOAD DUP2 DUP6 MUL DUP2 ADD DUP6 ADD SWAP1 SWAP4 MSTORE DUP1 DUP4 MSTORE PUSH1 0x60 SWAP5 DUP6 SWAP5 DUP5 ADD JUMPDEST DUP3 DUP3 LT ISZERO PUSH2 0x5D3 JUMPI PUSH1 0x0 DUP5 DUP2 MSTORE PUSH1 0x20 SWAP1 DUP2 SWAP1 KECCAK256 PUSH1 0x40 DUP1 MLOAD DUP1 DUP3 ADD SWAP1 SWAP2 MSTORE PUSH1 0x2 DUP6 MUL SWAP1 SWAP2 ADD DUP1 SLOAD PUSH1 0x1 PUSH1 0x1 PUSH1 0xA0 SHL SUB AND DUP3 MSTORE PUSH1 0x1 SWAP1 DUP2 ADD SLOAD DUP3 DUP5 ADD MSTORE SWAP1 DUP4 MSTORE SWAP1 SWAP3 ADD SWAP2 ADD PUSH2 0x58B JUMP JUMPDEST POP POP POP POP SWAP1 POP PUSH1 0x60 DUP2 MLOAD PUSH1 0x40 MLOAD SWAP1 DUP1 DUP3 MSTORE DUP1 PUSH1 0x20 MUL PUSH1 0x20 ADD DUP3 ADD PUSH1 0x40 MSTORE DUP1 ISZERO PUSH2 0x606 JUMPI DUP2 PUSH1 0x20 ADD PUSH1 0x20 DUP3 MUL DUP1 CODESIZE DUP4 CODECOPY ADD SWAP1 POP JUMPDEST POP SWAP1 POP PUSH1 0x0 JUMPDEST DUP3 MLOAD DUP2 LT ISZERO PUSH2 0x64C JUMPI DUP3 DUP2 DUP2 MLOAD DUP2 LT PUSH2 0x621 JUMPI INVALID JUMPDEST PUSH1 0x20 MUL PUSH1 0x20 ADD ADD MLOAD PUSH1 0x20 ADD MLOAD DUP3 DUP3 DUP2 MLOAD DUP2 LT PUSH2 0x639 JUMPI INVALID JUMPDEST PUSH1 0x20 SWAP1 DUP2 MUL SWAP2 SWAP1 SWAP2 ADD ADD MSTORE PUSH1 0x1 ADD PUSH2 0x60C JUMP JUMPDEST POP SWAP4 SWAP3 POP POP POP JUMP JUMPDEST PUSH1 0xA SLOAD JUMPDEST SWAP1 JUMP JUMPDEST PUSH2 0x66C PUSH2 0x666 PUSH2 0xC74 JUMP JUMPDEST DUP3 PUSH2 0xC78 JUMP JUMPDEST PUSH2 0x688 JUMPI PUSH1 0x40 MLOAD PUSH3 0x461BCD PUSH1 0xE5 SHL DUP2 MSTORE PUSH1 0x4 ADD PUSH2 0x457 SWAP1 PUSH2 0x1DBB JUMP JUMPDEST PUSH2 0x693 DUP4 DUP4 DUP4 PUSH2 0xCFD JUMP JUMPDEST POP POP POP JUMP JUMPDEST PUSH1 0x0 PUSH2 0x6A3 DUP4 PUSH2 0x7D3 JUMP JUMPDEST DUP3 LT PUSH2 0x6C1 JUMPI PUSH1 0x40 MLOAD PUSH3 0x461BCD PUSH1 0xE5 SHL DUP2 MSTORE PUSH1 0x4 ADD PUSH2 0x457 SWAP1 PUSH2 0x1CFB JUMP JUMPDEST PUSH1 0x1 PUSH1 0x1 PUSH1 0xA0 SHL SUB DUP4 AND PUSH1 0x0 SWAP1 DUP2 MSTORE PUSH1 0x8 PUSH1 0x20 MSTORE PUSH1 0x40 SWAP1 KECCAK256 DUP1 SLOAD DUP4 SWAP1 DUP2 LT PUSH2 0x6E5 JUMPI INVALID JUMPDEST SWAP1 PUSH1 0x0 MSTORE PUSH1 0x20 PUSH1 0x0 KECCAK256 ADD SLOAD SWAP1 POP JUMPDEST SWAP3 SWAP2 POP POP JUMP JUMPDEST PUSH2 0x693 DUP4 DUP4 DUP4 PUSH1 0x40 MLOAD DUP1 PUSH1 0x20 ADD PUSH1 0x40 MSTORE DUP1 PUSH1 0x0 DUP2 MSTORE POP PUSH2 0x9F1 JUMP JUMPDEST PUSH1 0x0 PUSH2 0x71E PUSH2 0x654 JUMP JUMPDEST DUP3 LT PUSH2 0x73C JUMPI PUSH1 0x40 MLOAD PUSH3 0x461BCD PUSH1 0xE5 SHL DUP2 MSTORE PUSH1 0x4 ADD PUSH2 0x457 SWAP1 PUSH2 0x1DCB JUMP JUMPDEST PUSH1 0xA DUP3 DUP2 SLOAD DUP2 LT PUSH2 0x749 JUMPI INVALID JUMPDEST SWAP1 PUSH1 0x0 MSTORE PUSH1 0x20 PUSH1 0x0 KECCAK256 ADD SLOAD SWAP1 POP SWAP2 SWAP1 POP JUMP JUMPDEST PUSH1 0xE PUSH1 0x20 MSTORE DUP2 PUSH1 0x0 MSTORE PUSH1 0x40 PUSH1 0x0 KECCAK256 DUP2 DUP2 SLOAD DUP2 LT PUSH2 0x774 JUMPI INVALID JUMPDEST PUSH1 0x0 SWAP2 DUP3 MSTORE PUSH1 0x20 SWAP1 SWAP2 KECCAK256 PUSH1 0x2 SWAP1 SWAP2 MUL ADD DUP1 SLOAD PUSH1 0x1 SWAP1 SWAP2 ADD SLOAD PUSH1 0x1 PUSH1 0x1 PUSH1 0xA0 SHL SUB SWAP1 SWAP2 AND SWAP3 POP SWAP1 POP DUP3 JUMP JUMPDEST PUSH1 0x0 DUP2 DUP2 MSTORE PUSH1 0x1 PUSH1 0x20 MSTORE PUSH1 0x40 DUP2 KECCAK256 SLOAD PUSH1 0x1 PUSH1 0x1 PUSH1 0xA0 SHL SUB AND DUP1 PUSH2 0x6F3 JUMPI PUSH1 0x40 MLOAD PUSH3 0x461BCD PUSH1 0xE5 SHL DUP2 MSTORE PUSH1 0x4 ADD PUSH2 0x457 SWAP1 PUSH2 0x1D6B JUMP JUMPDEST PUSH1 0x0 PUSH1 0x1 PUSH1 0x1 PUSH1 0xA0 SHL SUB DUP3 AND PUSH2 0x7FB JUMPI PUSH1 0x40 MLOAD PUSH3 0x461BCD PUSH1 0xE5 SHL DUP2 MSTORE PUSH1 0x4 ADD PUSH2 0x457 SWAP1 PUSH2 0x1D5B JUMP JUMPDEST PUSH1 0x1 PUSH1 0x1 PUSH1 0xA0 SHL SUB DUP3 AND PUSH1 0x0 SWAP1 DUP2 MSTORE PUSH1 0x3 PUSH1 0x20 MSTORE PUSH1 0x40 SWAP1 KECCAK256 PUSH2 0x6F3 SWAP1 PUSH2 0xD1C JUMP JUMPDEST PUSH1 0x11 PUSH1 0x20 MSTORE DUP2 PUSH1 0x0 MSTORE PUSH1 0x40 PUSH1 0x0 KECCAK256 DUP2 DUP2 SLOAD DUP2 LT PUSH2 0x835 JUMPI INVALID JUMPDEST SWAP1 PUSH1 0x0 MSTORE PUSH1 0x20 PUSH1 0x0 KECCAK256 ADD PUSH1 0x0 SWAP2 POP SWAP2 POP POP SLOAD DUP2 JUMP JUMPDEST PUSH1 0x1 PUSH1 0x1 PUSH1 0xA0 SHL SUB DUP2 AND PUSH1 0x0 SWAP1 DUP2 MSTORE PUSH1 0x11 PUSH1 0x20 SWAP1 DUP2 MSTORE PUSH1 0x40 SWAP2 DUP3 SWAP1 KECCAK256 DUP1 SLOAD DUP4 MLOAD DUP2 DUP5 MUL DUP2 ADD DUP5 ADD SWAP1 SWAP5 MSTORE DUP1 DUP5 MSTORE PUSH1 0x60 SWAP4 SWAP3 DUP4 ADD DUP3 DUP3 DUP1 ISZERO PUSH2 0x8AA JUMPI PUSH1 0x20 MUL DUP3 ADD SWAP2 SWAP1 PUSH1 0x0 MSTORE PUSH1 0x20 PUSH1 0x0 KECCAK256 SWAP1 JUMPDEST DUP2 SLOAD DUP2 MSTORE PUSH1 0x20 ADD SWAP1 PUSH1 0x1 ADD SWAP1 DUP1 DUP4 GT PUSH2 0x896 JUMPI JUMPDEST POP POP POP POP POP SWAP1 POP SWAP2 SWAP1 POP JUMP JUMPDEST PUSH1 0xD DUP1 SLOAD PUSH1 0x40 DUP1 MLOAD PUSH1 0x20 PUSH1 0x2 PUSH1 0x1 DUP6 AND ISZERO PUSH2 0x100 MUL PUSH1 0x0 NOT ADD SWAP1 SWAP5 AND SWAP4 SWAP1 SWAP4 DIV PUSH1 0x1F DUP2 ADD DUP5 SWAP1 DIV DUP5 MUL DUP3 ADD DUP5 ADD SWAP1 SWAP3 MSTORE DUP2 DUP2 MSTORE SWAP3 SWAP2 DUP4 ADD DUP3 DUP3 DUP1 ISZERO PUSH2 0x428 JUMPI DUP1 PUSH1 0x1F LT PUSH2 0x3FD JUMPI PUSH2 0x100 DUP1 DUP4 SLOAD DIV MUL DUP4 MSTORE SWAP2 PUSH1 0x20 ADD SWAP2 PUSH2 0x428 JUMP JUMPDEST PUSH2 0x919 PUSH2 0xC74 JUMP JUMPDEST PUSH1 0x1 PUSH1 0x1 PUSH1 0xA0 SHL SUB AND DUP3 PUSH1 0x1 PUSH1 0x1 PUSH1 0xA0 SHL SUB AND EQ ISZERO PUSH2 0x94A JUMPI PUSH1 0x40 MLOAD PUSH3 0x461BCD PUSH1 0xE5 SHL DUP2 MSTORE PUSH1 0x4 ADD PUSH2 0x457 SWAP1 PUSH2 0x1D2B JUMP JUMPDEST DUP1 PUSH1 0x4 PUSH1 0x0 PUSH2 0x957 PUSH2 0xC74 JUMP JUMPDEST PUSH1 0x1 PUSH1 0x1 PUSH1 0xA0 SHL SUB SWAP1 DUP2 AND DUP3 MSTORE PUSH1 0x20 DUP1 DUP4 ADD SWAP4 SWAP1 SWAP4 MSTORE PUSH1 0x40 SWAP2 DUP3 ADD PUSH1 0x0 SWAP1 DUP2 KECCAK256 SWAP2 DUP8 AND DUP1 DUP3 MSTORE SWAP2 SWAP1 SWAP4 MSTORE SWAP2 KECCAK256 DUP1 SLOAD PUSH1 0xFF NOT AND SWAP3 ISZERO ISZERO SWAP3 SWAP1 SWAP3 OR SWAP1 SWAP2 SSTORE PUSH2 0x99B PUSH2 0xC74 JUMP JUMPDEST PUSH1 0x1 PUSH1 0x1 PUSH1 0xA0 SHL SUB AND PUSH32 0x17307EAB39AB6107E8899845AD3D59BD9653F200F220920489CA2B5937696C31 DUP4 PUSH1 0x40 MLOAD PUSH2 0x9D3 SWAP2 SWAP1 PUSH2 0x1CDC JUMP JUMPDEST PUSH1 0x40 MLOAD DUP1 SWAP2 SUB SWAP1 LOG3 POP POP JUMP JUMPDEST PUSH1 0xF PUSH1 0x20 MSTORE PUSH1 0x0 SWAP1 DUP2 MSTORE PUSH1 0x40 SWAP1 KECCAK256 SLOAD DUP2 JUMP JUMPDEST PUSH2 0xA02 PUSH2 0x9FC PUSH2 0xC74 JUMP JUMPDEST DUP4 PUSH2 0xC78 JUMP JUMPDEST PUSH2 0xA1E JUMPI PUSH1 0x40 MLOAD PUSH3 0x461BCD PUSH1 0xE5 SHL DUP2 MSTORE PUSH1 0x4 ADD PUSH2 0x457 SWAP1 PUSH2 0x1DBB JUMP JUMPDEST PUSH2 0xA2A DUP5 DUP5 DUP5 DUP5 PUSH2 0xD20 JUMP JUMPDEST POP POP POP POP JUMP JUMPDEST PUSH1 0x0 DUP2 DUP2 MSTORE PUSH1 0xE PUSH1 0x20 SWAP1 DUP2 MSTORE PUSH1 0x40 DUP1 DUP4 KECCAK256 DUP1 SLOAD DUP3 MLOAD DUP2 DUP6 MUL DUP2 ADD DUP6 ADD SWAP1 SWAP4 MSTORE DUP1 DUP4 MSTORE PUSH1 0x60 SWAP5 DUP6 SWAP5 DUP5 ADD JUMPDEST DUP3 DUP3 LT ISZERO PUSH2 0xAA2 JUMPI PUSH1 0x0 DUP5 DUP2 MSTORE PUSH1 0x20 SWAP1 DUP2 SWAP1 KECCAK256 PUSH1 0x40 DUP1 MLOAD DUP1 DUP3 ADD SWAP1 SWAP2 MSTORE PUSH1 0x2 DUP6 MUL SWAP1 SWAP2 ADD DUP1 SLOAD PUSH1 0x1 PUSH1 0x1 PUSH1 0xA0 SHL SUB AND DUP3 MSTORE PUSH1 0x1 SWAP1 DUP2 ADD SLOAD DUP3 DUP5 ADD MSTORE SWAP1 DUP4 MSTORE SWAP1 SWAP3 ADD SWAP2 ADD PUSH2 0xA5A JUMP JUMPDEST POP POP POP POP SWAP1 POP PUSH1 0x60 DUP2 MLOAD PUSH1 0x40 MLOAD SWAP1 DUP1 DUP3 MSTORE DUP1 PUSH1 0x20 MUL PUSH1 0x20 ADD DUP3 ADD PUSH1 0x40 MSTORE DUP1 ISZERO PUSH2 0xAD5 JUMPI DUP2 PUSH1 0x20 ADD PUSH1 0x20 DUP3 MUL DUP1 CODESIZE DUP4 CODECOPY ADD SWAP1 POP JUMPDEST POP SWAP1 POP PUSH1 0x0 JUMPDEST DUP3 MLOAD DUP2 LT ISZERO PUSH2 0x64C JUMPI DUP3 DUP2 DUP2 MLOAD DUP2 LT PUSH2 0xAF0 JUMPI INVALID JUMPDEST PUSH1 0x20 MUL PUSH1 0x20 ADD ADD MLOAD PUSH1 0x0 ADD MLOAD DUP3 DUP3 DUP2 MLOAD DUP2 LT PUSH2 0xB08 JUMPI INVALID JUMPDEST PUSH1 0x1 PUSH1 0x1 PUSH1 0xA0 SHL SUB SWAP1 SWAP3 AND PUSH1 0x20 SWAP3 DUP4 MUL SWAP2 SWAP1 SWAP2 ADD SWAP1 SWAP2 ADD MSTORE PUSH1 0x1 ADD PUSH2 0xADB JUMP JUMPDEST PUSH1 0x6 DUP1 SLOAD PUSH1 0x40 DUP1 MLOAD PUSH1 0x20 PUSH1 0x2 PUSH1 0x1 DUP6 AND ISZERO PUSH2 0x100 MUL PUSH1 0x0 NOT ADD SWAP1 SWAP5 AND SWAP4 SWAP1 SWAP4 DIV PUSH1 0x1F DUP2 ADD DUP5 SWAP1 DIV DUP5 MUL DUP3 ADD DUP5 ADD SWAP1 SWAP3 MSTORE DUP2 DUP2 MSTORE SWAP3 SWAP2 DUP4 ADD DUP3 DUP3 DUP1 ISZERO PUSH2 0x428 JUMPI DUP1 PUSH1 0x1F LT PUSH2 0x3FD JUMPI PUSH2 0x100 DUP1 DUP4 SLOAD DIV MUL DUP4 MSTORE SWAP2 PUSH1 0x20 ADD SWAP2 PUSH2 0x428 JUMP JUMPDEST PUSH1 0x60 PUSH2 0xB8E DUP3 PUSH2 0xC57 JUMP JUMPDEST PUSH2 0xBAA JUMPI PUSH1 0x40 MLOAD PUSH3 0x461BCD PUSH1 0xE5 SHL DUP2 MSTORE PUSH1 0x4 ADD PUSH2 0x457 SWAP1 PUSH2 0x1D9B JUMP JUMPDEST PUSH2 0x6F3 DUP3 PUSH2 0xD53 JUMP JUMPDEST PUSH1 0x10 PUSH1 0x20 MSTORE PUSH1 0x0 SWAP1 DUP2 MSTORE PUSH1 0x40 SWAP1 KECCAK256 SLOAD PUSH1 0x1 PUSH1 0x1 PUSH1 0xA0 SHL SUB AND DUP2 JUMP JUMPDEST PUSH1 0x5 DUP1 SLOAD PUSH1 0x40 DUP1 MLOAD PUSH1 0x20 PUSH1 0x2 PUSH1 0x1 DUP6 AND ISZERO PUSH2 0x100 MUL PUSH1 0x0 NOT ADD SWAP1 SWAP5 AND SWAP4 SWAP1 SWAP4 DIV PUSH1 0x1F DUP2 ADD DUP5 SWAP1 DIV DUP5 MUL DUP3 ADD DUP5 ADD SWAP1 SWAP3 MSTORE DUP2 DUP2 MSTORE SWAP3 SWAP2 DUP4 ADD DUP3 DUP3 DUP1 ISZERO PUSH2 0x428 JUMPI DUP1 PUSH1 0x1F LT PUSH2 0x3FD JUMPI PUSH2 0x100 DUP1 DUP4 SLOAD DIV MUL DUP4 MSTORE SWAP2 PUSH1 0x20 ADD SWAP2 PUSH2 0x428 JUMP JUMPDEST PUSH1 0x1 PUSH1 0x1 PUSH1 0xA0 SHL SUB SWAP2 DUP3 AND PUSH1 0x0 SWAP1 DUP2 MSTORE PUSH1 0x4 PUSH1 0x20 SWAP1 DUP2 MSTORE PUSH1 0x40 DUP1 DUP4 KECCAK256 SWAP4 SWAP1 SWAP5 AND DUP3 MSTORE SWAP2 SWAP1 SWAP2 MSTORE KECCAK256 SLOAD PUSH1 0xFF AND SWAP1 JUMP JUMPDEST PUSH1 0x0 SWAP1 DUP2 MSTORE PUSH1 0x1 PUSH1 0x20 MSTORE PUSH1 0x40 SWAP1 KECCAK256 SLOAD PUSH1 0x1 PUSH1 0x1 PUSH1 0xA0 SHL SUB AND ISZERO ISZERO SWAP1 JUMP JUMPDEST CALLER SWAP1 JUMP JUMPDEST PUSH1 0x0 PUSH2 0xC83 DUP3 PUSH2 0xC57 JUMP JUMPDEST PUSH2 0xC9F JUMPI PUSH1 0x40 MLOAD PUSH3 0x461BCD PUSH1 0xE5 SHL DUP2 MSTORE PUSH1 0x4 ADD PUSH2 0x457 SWAP1 PUSH2 0x1D3B JUMP JUMPDEST PUSH1 0x0 PUSH2 0xCAA DUP4 PUSH2 0x79E JUMP JUMPDEST SWAP1 POP DUP1 PUSH1 0x1 PUSH1 0x1 PUSH1 0xA0 SHL SUB AND DUP5 PUSH1 0x1 PUSH1 0x1 PUSH1 0xA0 SHL SUB AND EQ DUP1 PUSH2 0xCE5 JUMPI POP DUP4 PUSH1 0x1 PUSH1 0x1 PUSH1 0xA0 SHL SUB AND PUSH2 0xCDA DUP5 PUSH2 0x430 JUMP JUMPDEST PUSH1 0x1 PUSH1 0x1 PUSH1 0xA0 SHL SUB AND EQ JUMPDEST DUP1 PUSH2 0xCF5 JUMPI POP PUSH2 0xCF5 DUP2 DUP6 PUSH2 0xC29 JUMP JUMPDEST SWAP5 SWAP4 POP POP POP POP JUMP JUMPDEST PUSH2 0xD08 DUP4 DUP4 DUP4 PUSH2 0xE8E JUMP JUMPDEST PUSH2 0xD12 DUP4 DUP3 PUSH2 0xF94 JUMP JUMPDEST PUSH2 0x693 DUP3 DUP3 PUSH2 0x1089 JUMP JUMPDEST SLOAD SWAP1 JUMP JUMPDEST PUSH2 0xD2B DUP5 DUP5 DUP5 PUSH2 0xCFD JUMP JUMPDEST PUSH2 0xD37 DUP5 DUP5 DUP5 DUP5 PUSH2 0x10C7 JUMP JUMPDEST PUSH2 0xA2A JUMPI PUSH1 0x40 MLOAD PUSH3 0x461BCD PUSH1 0xE5 SHL DUP2 MSTORE PUSH1 0x4 ADD PUSH2 0x457 SWAP1 PUSH2 0x1D0B JUMP JUMPDEST PUSH1 0x0 DUP2 DUP2 MSTORE PUSH1 0x7 PUSH1 0x20 SWAP1 DUP2 MSTORE PUSH1 0x40 SWAP2 DUP3 SWAP1 KECCAK256 DUP1 SLOAD DUP4 MLOAD PUSH1 0x2 PUSH1 0x1 DUP4 AND ISZERO PUSH2 0x100 MUL PUSH1 0x0 NOT ADD SWAP1 SWAP3 AND SWAP2 SWAP1 SWAP2 DIV PUSH1 0x1F DUP2 ADD DUP5 SWAP1 DIV DUP5 MUL DUP3 ADD DUP5 ADD SWAP1 SWAP5 MSTORE DUP4 DUP2 MSTORE PUSH1 0x60 SWAP4 PUSH2 0x6F3 SWAP4 SWAP2 SWAP3 SWAP2 DUP4 ADD DUP3 DUP3 DUP1 ISZERO PUSH2 0xDED JUMPI DUP1 PUSH1 0x1F LT PUSH2 0xDC2 JUMPI PUSH2 0x100 DUP1 DUP4 SLOAD DIV MUL DUP4 MSTORE SWAP2 PUSH1 0x20 ADD SWAP2 PUSH2 0xDED JUMP JUMPDEST DUP3 ADD SWAP2 SWAP1 PUSH1 0x0 MSTORE PUSH1 0x20 PUSH1 0x0 KECCAK256 SWAP1 JUMPDEST DUP2 SLOAD DUP2 MSTORE SWAP1 PUSH1 0x1 ADD SWAP1 PUSH1 0x20 ADD DUP1 DUP4 GT PUSH2 0xDD0 JUMPI DUP3 SWAP1 SUB PUSH1 0x1F AND DUP3 ADD SWAP2 JUMPDEST POP POP PUSH1 0x6 DUP1 SLOAD PUSH1 0x40 DUP1 MLOAD PUSH1 0x20 PUSH1 0x1F PUSH1 0x2 PUSH1 0x0 NOT PUSH2 0x100 PUSH1 0x1 DUP9 AND ISZERO MUL ADD SWAP1 SWAP6 AND SWAP5 SWAP1 SWAP5 DIV SWAP4 DUP5 ADD DUP2 SWAP1 DIV DUP2 MUL DUP3 ADD DUP2 ADD SWAP1 SWAP3 MSTORE DUP3 DUP2 MSTORE SWAP6 POP SWAP2 SWAP4 POP SWAP2 POP DUP4 ADD DUP3 DUP3 DUP1 ISZERO PUSH2 0xE7B JUMPI DUP1 PUSH1 0x1F LT PUSH2 0xE50 JUMPI PUSH2 0x100 DUP1 DUP4 SLOAD DIV MUL DUP4 MSTORE SWAP2 PUSH1 0x20 ADD SWAP2 PUSH2 0xE7B JUMP JUMPDEST DUP3 ADD SWAP2 SWAP1 PUSH1 0x0 MSTORE PUSH1 0x20 PUSH1 0x0 KECCAK256 SWAP1 JUMPDEST DUP2 SLOAD DUP2 MSTORE SWAP1 PUSH1 0x1 ADD SWAP1 PUSH1 0x20 ADD DUP1 DUP4 GT PUSH2 0xE5E JUMPI DUP3 SWAP1 SUB PUSH1 0x1F AND DUP3 ADD SWAP2 JUMPDEST POP POP POP POP POP PUSH2 0x1201 SWAP1 SWAP2 SWAP1 PUSH4 0xFFFFFFFF AND JUMP JUMPDEST DUP3 PUSH1 0x1 PUSH1 0x1 PUSH1 0xA0 SHL SUB AND PUSH2 0xEA1 DUP3 PUSH2 0x79E JUMP JUMPDEST PUSH1 0x1 PUSH1 0x1 PUSH1 0xA0 SHL SUB AND EQ PUSH2 0xEC7 JUMPI PUSH1 0x40 MLOAD PUSH3 0x461BCD PUSH1 0xE5 SHL DUP2 MSTORE PUSH1 0x4 ADD PUSH2 0x457 SWAP1 PUSH2 0x1D8B JUMP JUMPDEST PUSH1 0x1 PUSH1 0x1 PUSH1 0xA0 SHL SUB DUP3 AND PUSH2 0xEED JUMPI PUSH1 0x40 MLOAD PUSH3 0x461BCD PUSH1 0xE5 SHL DUP2 MSTORE PUSH1 0x4 ADD PUSH2 0x457 SWAP1 PUSH2 0x1D1B JUMP JUMPDEST PUSH2 0xEF6 DUP2 PUSH2 0x12F6 JUMP JUMPDEST PUSH1 0x1 PUSH1 0x1 PUSH1 0xA0 SHL SUB DUP4 AND PUSH1 0x0 SWAP1 DUP2 MSTORE PUSH1 0x3 PUSH1 0x20 MSTORE PUSH1 0x40 SWAP1 KECCAK256 PUSH2 0xF17 SWAP1 PUSH2 0x1333 JUMP JUMPDEST PUSH1 0x1 PUSH1 0x1 PUSH1 0xA0 SHL SUB DUP3 AND PUSH1 0x0 SWAP1 DUP2 MSTORE PUSH1 0x3 PUSH1 0x20 MSTORE PUSH1 0x40 SWAP1 KECCAK256 PUSH2 0xF38 SWAP1 PUSH2 0x134A JUMP JUMPDEST PUSH1 0x0 DUP2 DUP2 MSTORE PUSH1 0x1 PUSH1 0x20 MSTORE PUSH1 0x40 DUP1 DUP3 KECCAK256 DUP1 SLOAD PUSH1 0x1 PUSH1 0x1 PUSH1 0xA0 SHL SUB NOT AND PUSH1 0x1 PUSH1 0x1 PUSH1 0xA0 SHL SUB DUP7 DUP2 AND SWAP2 DUP3 OR SWAP1 SWAP3 SSTORE SWAP2 MLOAD DUP5 SWAP4 SWAP2 DUP8 AND SWAP2 PUSH32 0xDDF252AD1BE2C89B69C2B068FC378DAA952BA7F163C4A11628F55A4DF523B3EF SWAP2 LOG4 POP POP POP JUMP JUMPDEST PUSH1 0x1 PUSH1 0x1 PUSH1 0xA0 SHL SUB DUP3 AND PUSH1 0x0 SWAP1 DUP2 MSTORE PUSH1 0x8 PUSH1 0x20 MSTORE PUSH1 0x40 DUP2 KECCAK256 SLOAD PUSH2 0xFBE SWAP1 PUSH1 0x1 PUSH4 0xFFFFFFFF PUSH2 0x1353 AND JUMP JUMPDEST PUSH1 0x0 DUP4 DUP2 MSTORE PUSH1 0x9 PUSH1 0x20 MSTORE PUSH1 0x40 SWAP1 KECCAK256 SLOAD SWAP1 SWAP2 POP DUP1 DUP3 EQ PUSH2 0x1059 JUMPI PUSH1 0x1 PUSH1 0x1 PUSH1 0xA0 SHL SUB DUP5 AND PUSH1 0x0 SWAP1 DUP2 MSTORE PUSH1 0x8 PUSH1 0x20 MSTORE PUSH1 0x40 DUP2 KECCAK256 DUP1 SLOAD DUP5 SWAP1 DUP2 LT PUSH2 0xFFB JUMPI INVALID JUMPDEST SWAP1 PUSH1 0x0 MSTORE PUSH1 0x20 PUSH1 0x0 KECCAK256 ADD SLOAD SWAP1 POP DUP1 PUSH1 0x8 PUSH1 0x0 DUP8 PUSH1 0x1 PUSH1 0x1 PUSH1 0xA0 SHL SUB AND PUSH1 0x1 PUSH1 0x1 PUSH1 0xA0 SHL SUB AND DUP2 MSTORE PUSH1 0x20 ADD SWAP1 DUP2 MSTORE PUSH1 0x20 ADD PUSH1 0x0 KECCAK256 DUP4 DUP2 SLOAD DUP2 LT PUSH2 0x1039 JUMPI INVALID JUMPDEST PUSH1 0x0 SWAP2 DUP3 MSTORE PUSH1 0x20 DUP1 DUP4 KECCAK256 SWAP1 SWAP2 ADD SWAP3 SWAP1 SWAP3 SSTORE SWAP2 DUP3 MSTORE PUSH1 0x9 SWAP1 MSTORE PUSH1 0x40 SWAP1 KECCAK256 DUP2 SWAP1 SSTORE JUMPDEST PUSH1 0x1 PUSH1 0x1 PUSH1 0xA0 SHL SUB DUP5 AND PUSH1 0x0 SWAP1 DUP2 MSTORE PUSH1 0x8 PUSH1 0x20 MSTORE PUSH1 0x40 SWAP1 KECCAK256 DUP1 SLOAD SWAP1 PUSH2 0x1082 SWAP1 PUSH1 0x0 NOT DUP4 ADD PUSH2 0x1401 JUMP JUMPDEST POP POP POP POP POP JUMP JUMPDEST PUSH1 0x1 PUSH1 0x1 PUSH1 0xA0 SHL SUB SWAP1 SWAP2 AND PUSH1 0x0 SWAP1 DUP2 MSTORE PUSH1 0x8 PUSH1 0x20 DUP2 DUP2 MSTORE PUSH1 0x40 DUP1 DUP5 KECCAK256 DUP1 SLOAD DUP7 DUP7 MSTORE PUSH1 0x9 DUP5 MSTORE SWAP2 DUP6 KECCAK256 DUP3 SWAP1 SSTORE SWAP3 DUP3 MSTORE PUSH1 0x1 DUP2 ADD DUP4 SSTORE SWAP2 DUP4 MSTORE SWAP1 SWAP2 KECCAK256 ADD SSTORE JUMP JUMPDEST PUSH1 0x0 PUSH2 0x10DB DUP5 PUSH1 0x1 PUSH1 0x1 PUSH1 0xA0 SHL SUB AND PUSH2 0x139C JUMP JUMPDEST PUSH2 0x10E7 JUMPI POP PUSH1 0x1 PUSH2 0xCF5 JUMP JUMPDEST PUSH1 0x0 PUSH1 0x60 PUSH1 0x1 PUSH1 0x1 PUSH1 0xA0 SHL SUB DUP7 AND PUSH4 0xA85BD01 PUSH1 0xE1 SHL PUSH2 0x1105 PUSH2 0xC74 JUMP JUMPDEST DUP10 DUP9 DUP9 PUSH1 0x40 MLOAD PUSH1 0x24 ADD PUSH2 0x111B SWAP5 SWAP4 SWAP3 SWAP2 SWAP1 PUSH2 0x1C5B JUMP JUMPDEST PUSH1 0x40 DUP1 MLOAD PUSH1 0x1F NOT DUP2 DUP5 SUB ADD DUP2 MSTORE SWAP2 DUP2 MSTORE PUSH1 0x20 DUP3 ADD DUP1 MLOAD PUSH1 0x1 PUSH1 0x1 PUSH1 0xE0 SHL SUB AND PUSH1 0x1 PUSH1 0x1 PUSH1 0xE0 SHL SUB NOT SWAP1 SWAP5 AND SWAP4 SWAP1 SWAP4 OR SWAP1 SWAP3 MSTORE SWAP1 MLOAD PUSH2 0x1159 SWAP2 SWAP1 PUSH2 0x1C41 JUMP JUMPDEST PUSH1 0x0 PUSH1 0x40 MLOAD DUP1 DUP4 SUB DUP2 PUSH1 0x0 DUP7 GAS CALL SWAP2 POP POP RETURNDATASIZE DUP1 PUSH1 0x0 DUP2 EQ PUSH2 0x1196 JUMPI PUSH1 0x40 MLOAD SWAP2 POP PUSH1 0x1F NOT PUSH1 0x3F RETURNDATASIZE ADD AND DUP3 ADD PUSH1 0x40 MSTORE RETURNDATASIZE DUP3 MSTORE RETURNDATASIZE PUSH1 0x0 PUSH1 0x20 DUP5 ADD RETURNDATACOPY PUSH2 0x119B JUMP JUMPDEST PUSH1 0x60 SWAP2 POP JUMPDEST POP SWAP2 POP SWAP2 POP DUP2 PUSH2 0x11CD JUMPI DUP1 MLOAD ISZERO PUSH2 0x11B5 JUMPI DUP1 MLOAD DUP1 DUP3 PUSH1 0x20 ADD REVERT JUMPDEST PUSH1 0x40 MLOAD PUSH3 0x461BCD PUSH1 0xE5 SHL DUP2 MSTORE PUSH1 0x4 ADD PUSH2 0x457 SWAP1 PUSH2 0x1D0B JUMP JUMPDEST PUSH1 0x0 DUP2 DUP1 PUSH1 0x20 ADD SWAP1 MLOAD PUSH2 0x11E3 SWAP2 SWAP1 DUP2 ADD SWAP1 PUSH2 0x1665 JUMP JUMPDEST PUSH1 0x1 PUSH1 0x1 PUSH1 0xE0 SHL SUB NOT AND PUSH4 0xA85BD01 PUSH1 0xE1 SHL EQ SWAP4 POP PUSH2 0xCF5 SWAP3 POP POP POP JUMP JUMPDEST PUSH1 0x60 DUP1 DUP4 SWAP1 POP PUSH1 0x60 DUP4 SWAP1 POP PUSH1 0x60 DUP2 MLOAD DUP4 MLOAD ADD PUSH1 0x40 MLOAD SWAP1 DUP1 DUP3 MSTORE DUP1 PUSH1 0x1F ADD PUSH1 0x1F NOT AND PUSH1 0x20 ADD DUP3 ADD PUSH1 0x40 MSTORE DUP1 ISZERO PUSH2 0x123D JUMPI PUSH1 0x20 DUP3 ADD DUP2 DUP1 CODESIZE DUP4 CODECOPY ADD SWAP1 POP JUMPDEST POP SWAP1 POP PUSH1 0x0 DUP1 JUMPDEST DUP5 MLOAD DUP2 LT ISZERO PUSH2 0x1295 JUMPI DUP5 DUP2 DUP2 MLOAD DUP2 LT PUSH2 0x1259 JUMPI INVALID JUMPDEST PUSH1 0x20 ADD ADD MLOAD PUSH1 0xF8 SHR PUSH1 0xF8 SHL DUP4 DUP4 DUP1 PUSH1 0x1 ADD SWAP5 POP DUP2 MLOAD DUP2 LT PUSH2 0x1276 JUMPI INVALID JUMPDEST PUSH1 0x20 ADD ADD SWAP1 PUSH1 0x1 PUSH1 0x1 PUSH1 0xF8 SHL SUB NOT AND SWAP1 DUP2 PUSH1 0x0 BYTE SWAP1 MSTORE8 POP PUSH1 0x1 ADD PUSH2 0x1244 JUMP JUMPDEST POP PUSH1 0x0 JUMPDEST DUP4 MLOAD DUP2 LT ISZERO PUSH2 0x12EA JUMPI DUP4 DUP2 DUP2 MLOAD DUP2 LT PUSH2 0x12AE JUMPI INVALID JUMPDEST PUSH1 0x20 ADD ADD MLOAD PUSH1 0xF8 SHR PUSH1 0xF8 SHL DUP4 DUP4 DUP1 PUSH1 0x1 ADD SWAP5 POP DUP2 MLOAD DUP2 LT PUSH2 0x12CB JUMPI INVALID JUMPDEST PUSH1 0x20 ADD ADD SWAP1 PUSH1 0x1 PUSH1 0x1 PUSH1 0xF8 SHL SUB NOT AND SWAP1 DUP2 PUSH1 0x0 BYTE SWAP1 MSTORE8 POP PUSH1 0x1 ADD PUSH2 0x1299 JUMP JUMPDEST POP SWAP1 SWAP7 SWAP6 POP POP POP POP POP POP JUMP JUMPDEST PUSH1 0x0 DUP2 DUP2 MSTORE PUSH1 0x2 PUSH1 0x20 MSTORE PUSH1 0x40 SWAP1 KECCAK256 SLOAD PUSH1 0x1 PUSH1 0x1 PUSH1 0xA0 SHL SUB AND ISZERO PUSH2 0x1330 JUMPI PUSH1 0x0 DUP2 DUP2 MSTORE PUSH1 0x2 PUSH1 0x20 MSTORE PUSH1 0x40 SWAP1 KECCAK256 DUP1 SLOAD PUSH1 0x1 PUSH1 0x1 PUSH1 0xA0 SHL SUB NOT AND SWAP1 SSTORE JUMPDEST POP JUMP JUMPDEST DUP1 SLOAD PUSH2 0x1346 SWAP1 PUSH1 0x1 PUSH4 0xFFFFFFFF PUSH2 0x1353 AND JUMP JUMPDEST SWAP1 SSTORE JUMP JUMPDEST DUP1 SLOAD PUSH1 0x1 ADD SWAP1 SSTORE JUMP JUMPDEST PUSH1 0x0 PUSH2 0x1395 DUP4 DUP4 PUSH1 0x40 MLOAD DUP1 PUSH1 0x40 ADD PUSH1 0x40 MSTORE DUP1 PUSH1 0x1E DUP2 MSTORE PUSH1 0x20 ADD PUSH32 0x536166654D6174683A207375627472616374696F6E206F766572666C6F770000 DUP2 MSTORE POP PUSH2 0x13D5 JUMP JUMPDEST SWAP4 SWAP3 POP POP POP JUMP JUMPDEST PUSH1 0x0 DUP2 EXTCODEHASH PUSH32 0xC5D2460186F7233C927E7DB2DCC703C0E500B653CA82273B7BFAD8045D85A470 DUP2 DUP2 EQ DUP1 ISZERO SWAP1 PUSH2 0xCF5 JUMPI POP POP ISZERO ISZERO SWAP3 SWAP2 POP POP JUMP JUMPDEST PUSH1 0x0 DUP2 DUP5 DUP5 GT ISZERO PUSH2 0x13F9 JUMPI PUSH1 0x40 MLOAD PUSH3 0x461BCD PUSH1 0xE5 SHL DUP2 MSTORE PUSH1 0x4 ADD PUSH2 0x457 SWAP2 SWAP1 PUSH2 0x1CEA JUMP JUMPDEST POP POP POP SWAP1 SUB SWAP1 JUMP JUMPDEST DUP2 SLOAD DUP2 DUP4 SSTORE DUP2 DUP2 GT ISZERO PUSH2 0x693 JUMPI PUSH1 0x0 DUP4 DUP2 MSTORE PUSH1 0x20 SWAP1 KECCAK256 PUSH2 0x693 SWAP2 DUP2 ADD SWAP1 DUP4 ADD PUSH2 0x658 SWAP2 SWAP1 JUMPDEST DUP1 DUP3 GT ISZERO PUSH2 0x143A JUMPI PUSH1 0x0 DUP2 SSTORE PUSH1 0x1 ADD PUSH2 0x1426 JUMP JUMPDEST POP SWAP1 JUMP JUMPDEST DUP1 CALLDATALOAD PUSH2 0x6F3 DUP2 PUSH2 0x1EBB JUMP JUMPDEST DUP1 CALLDATALOAD PUSH2 0x6F3 DUP2 PUSH2 0x1ECF JUMP JUMPDEST DUP1 CALLDATALOAD PUSH2 0x6F3 DUP2 PUSH2 0x1ED8 JUMP JUMPDEST DUP1 MLOAD PUSH2 0x6F3 DUP2 PUSH2 0x1ED8 JUMP JUMPDEST PUSH1 0x0 DUP3 PUSH1 0x1F DUP4 ADD SLT PUSH2 0x147B JUMPI PUSH1 0x0 DUP1 REVERT JUMPDEST DUP2 CALLDATALOAD PUSH2 0x148E PUSH2 0x1489 DUP3 PUSH2 0x1E10 JUMP JUMPDEST PUSH2 0x1DE9 JUMP JUMPDEST SWAP2 POP DUP1 DUP3 MSTORE PUSH1 0x20 DUP4 ADD PUSH1 0x20 DUP4 ADD DUP6 DUP4 DUP4 ADD GT ISZERO PUSH2 0x14AA JUMPI PUSH1 0x0 DUP1 REVERT JUMPDEST PUSH2 0x14B5 DUP4 DUP3 DUP5 PUSH2 0x1E79 JUMP JUMPDEST POP POP POP SWAP3 SWAP2 POP POP JUMP JUMPDEST DUP1 CALLDATALOAD PUSH2 0x6F3 DUP2 PUSH2 0x1EE1 JUMP JUMPDEST PUSH1 0x0 PUSH1 0x20 DUP3 DUP5 SUB SLT ISZERO PUSH2 0x14DB JUMPI PUSH1 0x0 DUP1 REVERT JUMPDEST PUSH1 0x0 PUSH2 0xCF5 DUP5 DUP5 PUSH2 0x143E JUMP JUMPDEST PUSH1 0x0 DUP1 PUSH1 0x40 DUP4 DUP6 SUB SLT ISZERO PUSH2 0x14FA JUMPI PUSH1 0x0 DUP1 REVERT JUMPDEST PUSH1 0x0 PUSH2 0x1506 DUP6 DUP6 PUSH2 0x143E JUMP JUMPDEST SWAP3 POP POP PUSH1 0x20 PUSH2 0x1517 DUP6 DUP3 DUP7 ADD PUSH2 0x143E JUMP JUMPDEST SWAP2 POP POP SWAP3 POP SWAP3 SWAP1 POP JUMP JUMPDEST PUSH1 0x0 DUP1 PUSH1 0x0 PUSH1 0x60 DUP5 DUP7 SUB SLT ISZERO PUSH2 0x1536 JUMPI PUSH1 0x0 DUP1 REVERT JUMPDEST PUSH1 0x0 PUSH2 0x1542 DUP7 DUP7 PUSH2 0x143E JUMP JUMPDEST SWAP4 POP POP PUSH1 0x20 PUSH2 0x1553 DUP7 DUP3 DUP8 ADD PUSH2 0x143E JUMP JUMPDEST SWAP3 POP POP PUSH1 0x40 PUSH2 0x1564 DUP7 DUP3 DUP8 ADD PUSH2 0x14BE JUMP JUMPDEST SWAP2 POP POP SWAP3 POP SWAP3 POP SWAP3 JUMP JUMPDEST PUSH1 0x0 DUP1 PUSH1 0x0 DUP1 PUSH1 0x80 DUP6 DUP8 SUB SLT ISZERO PUSH2 0x1584 JUMPI PUSH1 0x0 DUP1 REVERT JUMPDEST PUSH1 0x0 PUSH2 0x1590 DUP8 DUP8 PUSH2 0x143E JUMP JUMPDEST SWAP5 POP POP PUSH1 0x20 PUSH2 0x15A1 DUP8 DUP3 DUP9 ADD PUSH2 0x143E JUMP JUMPDEST SWAP4 POP POP PUSH1 0x40 PUSH2 0x15B2 DUP8 DUP3 DUP9 ADD PUSH2 0x14BE JUMP JUMPDEST SWAP3 POP POP PUSH1 0x60 DUP6 ADD CALLDATALOAD PUSH8 0xFFFFFFFFFFFFFFFF DUP2 GT ISZERO PUSH2 0x15CF JUMPI PUSH1 0x0 DUP1 REVERT JUMPDEST PUSH2 0x15DB DUP8 DUP3 DUP9 ADD PUSH2 0x146A JUMP JUMPDEST SWAP2 POP POP SWAP3 SWAP6 SWAP2 SWAP5 POP SWAP3 POP JUMP JUMPDEST PUSH1 0x0 DUP1 PUSH1 0x40 DUP4 DUP6 SUB SLT ISZERO PUSH2 0x15FA JUMPI PUSH1 0x0 DUP1 REVERT JUMPDEST PUSH1 0x0 PUSH2 0x1606 DUP6 DUP6 PUSH2 0x143E JUMP JUMPDEST SWAP3 POP POP PUSH1 0x20 PUSH2 0x1517 DUP6 DUP3 DUP7 ADD PUSH2 0x1449 JUMP JUMPDEST PUSH1 0x0 DUP1 PUSH1 0x40 DUP4 DUP6 SUB SLT ISZERO PUSH2 0x162A JUMPI PUSH1 0x0 DUP1 REVERT JUMPDEST PUSH1 0x0 PUSH2 0x1636 DUP6 DUP6 PUSH2 0x143E JUMP JUMPDEST SWAP3 POP POP PUSH1 0x20 PUSH2 0x1517 DUP6 DUP3 DUP7 ADD PUSH2 0x14BE JUMP JUMPDEST PUSH1 0x0 PUSH1 0x20 DUP3 DUP5 SUB SLT ISZERO PUSH2 0x1659 JUMPI PUSH1 0x0 DUP1 REVERT JUMPDEST PUSH1 0x0 PUSH2 0xCF5 DUP5 DUP5 PUSH2 0x1454 JUMP JUMPDEST PUSH1 0x0 PUSH1 0x20 DUP3 DUP5 SUB SLT ISZERO PUSH2 0x1677 JUMPI PUSH1 0x0 DUP1 REVERT JUMPDEST PUSH1 0x0 PUSH2 0xCF5 DUP5 DUP5 PUSH2 0x145F JUMP JUMPDEST PUSH1 0x0 PUSH1 0x20 DUP3 DUP5 SUB SLT ISZERO PUSH2 0x1695 JUMPI PUSH1 0x0 DUP1 REVERT JUMPDEST PUSH1 0x0 PUSH2 0xCF5 DUP5 DUP5 PUSH2 0x14BE JUMP JUMPDEST PUSH1 0x0 DUP1 PUSH1 0x40 DUP4 DUP6 SUB SLT ISZERO PUSH2 0x16B4 JUMPI PUSH1 0x0 DUP1 REVERT JUMPDEST PUSH1 0x0 PUSH2 0x1636 DUP6 DUP6 PUSH2 0x14BE JUMP JUMPDEST PUSH1 0x0 PUSH2 0x16CC DUP4 DUP4 PUSH2 0x16E0 JUMP JUMPDEST POP POP PUSH1 0x20 ADD SWAP1 JUMP JUMPDEST PUSH1 0x0 PUSH2 0x16CC DUP4 DUP4 PUSH2 0x1C38 JUMP JUMPDEST PUSH2 0x16E9 DUP2 PUSH2 0x1E50 JUMP JUMPDEST DUP3 MSTORE POP POP JUMP JUMPDEST PUSH1 0x0 PUSH2 0x16FA DUP3 PUSH2 0x1E3E JUMP JUMPDEST PUSH2 0x1704 DUP2 DUP6 PUSH2 0x1E42 JUMP JUMPDEST SWAP4 POP PUSH2 0x170F DUP4 PUSH2 0x1E38 JUMP JUMPDEST DUP1 PUSH1 0x0 JUMPDEST DUP4 DUP2 LT ISZERO PUSH2 0x173D JUMPI DUP2 MLOAD PUSH2 0x1727 DUP9 DUP3 PUSH2 0x16C0 JUMP JUMPDEST SWAP8 POP PUSH2 0x1732 DUP4 PUSH2 0x1E38 JUMP JUMPDEST SWAP3 POP POP PUSH1 0x1 ADD PUSH2 0x1713 JUMP JUMPDEST POP SWAP5 SWAP6 SWAP5 POP POP POP POP POP JUMP JUMPDEST PUSH1 0x0 PUSH2 0x1753 DUP3 PUSH2 0x1E3E JUMP JUMPDEST PUSH2 0x175D DUP2 DUP6 PUSH2 0x1E42 JUMP JUMPDEST SWAP4 POP PUSH2 0x1768 DUP4 PUSH2 0x1E38 JUMP JUMPDEST DUP1 PUSH1 0x0 JUMPDEST DUP4 DUP2 LT ISZERO PUSH2 0x173D JUMPI DUP2 MLOAD PUSH2 0x1780 DUP9 DUP3 PUSH2 0x16D4 JUMP JUMPDEST SWAP8 POP PUSH2 0x178B DUP4 PUSH2 0x1E38 JUMP JUMPDEST SWAP3 POP POP PUSH1 0x1 ADD PUSH2 0x176C JUMP JUMPDEST PUSH2 0x16E9 DUP2 PUSH2 0x1E5B JUMP JUMPDEST PUSH1 0x0 PUSH2 0x17AA DUP3 PUSH2 0x1E3E JUMP JUMPDEST PUSH2 0x17B4 DUP2 DUP6 PUSH2 0x1E42 JUMP JUMPDEST SWAP4 POP PUSH2 0x17C4 DUP2 DUP6 PUSH1 0x20 DUP7 ADD PUSH2 0x1E85 JUMP JUMPDEST PUSH2 0x17CD DUP2 PUSH2 0x1EB1 JUMP JUMPDEST SWAP1 SWAP4 ADD SWAP4 SWAP3 POP POP POP JUMP JUMPDEST PUSH1 0x0 PUSH2 0x17E2 DUP3 PUSH2 0x1E3E JUMP JUMPDEST PUSH2 0x17EC DUP2 DUP6 PUSH2 0x1E4B JUMP JUMPDEST SWAP4 POP PUSH2 0x17FC DUP2 DUP6 PUSH1 0x20 DUP7 ADD PUSH2 0x1E85 JUMP JUMPDEST SWAP3 SWAP1 SWAP3 ADD SWAP3 SWAP2 POP POP JUMP JUMPDEST PUSH1 0x0 PUSH2 0x1813 PUSH1 0x2B DUP4 PUSH2 0x1E42 JUMP JUMPDEST PUSH32 0x455243373231456E756D657261626C653A206F776E657220696E646578206F75 DUP2 MSTORE PUSH11 0x74206F6620626F756E6473 PUSH1 0xA8 SHL PUSH1 0x20 DUP3 ADD MSTORE PUSH1 0x40 ADD SWAP3 SWAP2 POP POP JUMP JUMPDEST PUSH1 0x0 PUSH2 0x1860 PUSH1 0x32 DUP4 PUSH2 0x1E42 JUMP JUMPDEST PUSH32 0x4552433732313A207472616E7366657220746F206E6F6E204552433732315265 DUP2 MSTORE PUSH18 0x31B2B4BB32B91034B6B83632B6B2B73A32B9 PUSH1 0x71 SHL PUSH1 0x20 DUP3 ADD MSTORE PUSH1 0x40 ADD SWAP3 SWAP2 POP POP JUMP JUMPDEST PUSH1 0x0 PUSH2 0x18B4 PUSH1 0x24 DUP4 PUSH2 0x1E42 JUMP JUMPDEST PUSH32 0x4552433732313A207472616E7366657220746F20746865207A65726F20616464 DUP2 MSTORE PUSH4 0x72657373 PUSH1 0xE0 SHL PUSH1 0x20 DUP3 ADD MSTORE PUSH1 0x40 ADD SWAP3 SWAP2 POP POP JUMP JUMPDEST PUSH1 0x0 PUSH2 0x18FA PUSH1 0x19 DUP4 PUSH2 0x1E42 JUMP JUMPDEST PUSH32 0x4552433732313A20617070726F766520746F2063616C6C657200000000000000 DUP2 MSTORE PUSH1 0x20 ADD SWAP3 SWAP2 POP POP JUMP JUMPDEST PUSH1 0x0 PUSH2 0x1933 PUSH1 0x2C DUP4 PUSH2 0x1E42 JUMP JUMPDEST PUSH32 0x4552433732313A206F70657261746F7220717565727920666F72206E6F6E6578 DUP2 MSTORE PUSH12 0x34B9BA32B73A103A37B5B2B7 PUSH1 0xA1 SHL PUSH1 0x20 DUP3 ADD MSTORE PUSH1 0x40 ADD SWAP3 SWAP2 POP POP JUMP JUMPDEST PUSH1 0x0 PUSH2 0x1981 PUSH1 0x38 DUP4 PUSH2 0x1E42 JUMP JUMPDEST PUSH32 0x4552433732313A20617070726F76652063616C6C6572206973206E6F74206F77 DUP2 MSTORE PUSH32 0x6E6572206E6F7220617070726F76656420666F7220616C6C0000000000000000 PUSH1 0x20 DUP3 ADD MSTORE PUSH1 0x40 ADD SWAP3 SWAP2 POP POP JUMP JUMPDEST PUSH1 0x0 PUSH2 0x19E0 PUSH1 0x2A DUP4 PUSH2 0x1E42 JUMP JUMPDEST PUSH32 0x4552433732313A2062616C616E636520717565727920666F7220746865207A65 DUP2 MSTORE PUSH10 0x726F2061646472657373 PUSH1 0xB0 SHL PUSH1 0x20 DUP3 ADD MSTORE PUSH1 0x40 ADD SWAP3 SWAP2 POP POP JUMP JUMPDEST PUSH1 0x0 PUSH2 0x1A2C PUSH1 0x29 DUP4 PUSH2 0x1E42 JUMP JUMPDEST PUSH32 0x4552433732313A206F776E657220717565727920666F72206E6F6E6578697374 DUP2 MSTORE PUSH9 0x32B73A103A37B5B2B7 PUSH1 0xB9 SHL PUSH1 0x20 DUP3 ADD MSTORE PUSH1 0x40 ADD SWAP3 SWAP2 POP POP JUMP JUMPDEST PUSH1 0x0 PUSH2 0x1A77 PUSH1 0x2C DUP4 PUSH2 0x1E42 JUMP JUMPDEST PUSH32 0x4552433732313A20617070726F76656420717565727920666F72206E6F6E6578 DUP2 MSTORE PUSH12 0x34B9BA32B73A103A37B5B2B7 PUSH1 0xA1 SHL PUSH1 0x20 DUP3 ADD MSTORE PUSH1 0x40 ADD SWAP3 SWAP2 POP POP JUMP JUMPDEST PUSH1 0x0 PUSH2 0x1AC5 PUSH1 0x29 DUP4 PUSH2 0x1E42 JUMP JUMPDEST PUSH32 0x4552433732313A207472616E73666572206F6620746F6B656E20746861742069 DUP2 MSTORE PUSH9 0x39903737BA1037BBB7 PUSH1 0xB9 SHL PUSH1 0x20 DUP3 ADD MSTORE PUSH1 0x40 ADD SWAP3 SWAP2 POP POP JUMP JUMPDEST PUSH1 0x0 PUSH2 0x1B10 PUSH1 0x2F DUP4 PUSH2 0x1E42 JUMP JUMPDEST PUSH32 0x4552433732314D657461646174613A2055524920717565727920666F72206E6F DUP2 MSTORE PUSH15 0x3732BC34B9BA32B73A103A37B5B2B7 PUSH1 0x89 SHL PUSH1 0x20 DUP3 ADD MSTORE PUSH1 0x40 ADD SWAP3 SWAP2 POP POP JUMP JUMPDEST PUSH1 0x0 PUSH2 0x1B61 PUSH1 0x21 DUP4 PUSH2 0x1E42 JUMP JUMPDEST PUSH32 0x4552433732313A20617070726F76616C20746F2063757272656E74206F776E65 DUP2 MSTORE PUSH1 0x39 PUSH1 0xF9 SHL PUSH1 0x20 DUP3 ADD MSTORE PUSH1 0x40 ADD SWAP3 SWAP2 POP POP JUMP JUMPDEST PUSH1 0x0 PUSH2 0x1BA4 PUSH1 0x31 DUP4 PUSH2 0x1E42 JUMP JUMPDEST PUSH32 0x4552433732313A207472616E736665722063616C6C6572206973206E6F74206F DUP2 MSTORE PUSH17 0x1DDB995C881B9BDC88185C1C1C9BDD9959 PUSH1 0x7A SHL PUSH1 0x20 DUP3 ADD MSTORE PUSH1 0x40 ADD SWAP3 SWAP2 POP POP JUMP JUMPDEST PUSH1 0x0 PUSH2 0x1BF7 PUSH1 0x2C DUP4 PUSH2 0x1E42 JUMP JUMPDEST PUSH32 0x455243373231456E756D657261626C653A20676C6F62616C20696E646578206F DUP2 MSTORE PUSH12 0x7574206F6620626F756E6473 PUSH1 0xA0 SHL PUSH1 0x20 DUP3 ADD MSTORE PUSH1 0x40 ADD SWAP3 SWAP2 POP POP JUMP JUMPDEST PUSH2 0x16E9 DUP2 PUSH2 0x658 JUMP JUMPDEST PUSH1 0x0 PUSH2 0x1395 DUP3 DUP5 PUSH2 0x17D7 JUMP JUMPDEST PUSH1 0x20 DUP2 ADD PUSH2 0x6F3 DUP3 DUP5 PUSH2 0x16E0 JUMP JUMPDEST PUSH1 0x80 DUP2 ADD PUSH2 0x1C69 DUP3 DUP8 PUSH2 0x16E0 JUMP JUMPDEST PUSH2 0x1C76 PUSH1 0x20 DUP4 ADD DUP7 PUSH2 0x16E0 JUMP JUMPDEST PUSH2 0x1C83 PUSH1 0x40 DUP4 ADD DUP6 PUSH2 0x1C38 JUMP JUMPDEST DUP2 DUP2 SUB PUSH1 0x60 DUP4 ADD MSTORE PUSH2 0x1C95 DUP2 DUP5 PUSH2 0x179F JUMP JUMPDEST SWAP7 SWAP6 POP POP POP POP POP POP JUMP JUMPDEST PUSH1 0x40 DUP2 ADD PUSH2 0x1CAD DUP3 DUP6 PUSH2 0x16E0 JUMP JUMPDEST PUSH2 0x1395 PUSH1 0x20 DUP4 ADD DUP5 PUSH2 0x1C38 JUMP JUMPDEST PUSH1 0x20 DUP1 DUP3 MSTORE DUP2 ADD PUSH2 0x1395 DUP2 DUP5 PUSH2 0x16EF JUMP JUMPDEST PUSH1 0x20 DUP1 DUP3 MSTORE DUP2 ADD PUSH2 0x1395 DUP2 DUP5 PUSH2 0x1748 JUMP JUMPDEST PUSH1 0x20 DUP2 ADD PUSH2 0x6F3 DUP3 DUP5 PUSH2 0x1796 JUMP JUMPDEST PUSH1 0x20 DUP1 DUP3 MSTORE DUP2 ADD PUSH2 0x1395 DUP2 DUP5 PUSH2 0x179F JUMP JUMPDEST PUSH1 0x20 DUP1 DUP3 MSTORE DUP2 ADD PUSH2 0x6F3 DUP2 PUSH2 0x1806 JUMP JUMPDEST PUSH1 0x20 DUP1 DUP3 MSTORE DUP2 ADD PUSH2 0x6F3 DUP2 PUSH2 0x1853 JUMP JUMPDEST PUSH1 0x20 DUP1 DUP3 MSTORE DUP2 ADD PUSH2 0x6F3 DUP2 PUSH2 0x18A7 JUMP JUMPDEST PUSH1 0x20 DUP1 DUP3 MSTORE DUP2 ADD PUSH2 0x6F3 DUP2 PUSH2 0x18ED JUMP JUMPDEST PUSH1 0x20 DUP1 DUP3 MSTORE DUP2 ADD PUSH2 0x6F3 DUP2 PUSH2 0x1926 JUMP JUMPDEST PUSH1 0x20 DUP1 DUP3 MSTORE DUP2 ADD PUSH2 0x6F3 DUP2 PUSH2 0x1974 JUMP JUMPDEST PUSH1 0x20 DUP1 DUP3 MSTORE DUP2 ADD PUSH2 0x6F3 DUP2 PUSH2 0x19D3 JUMP JUMPDEST PUSH1 0x20 DUP1 DUP3 MSTORE DUP2 ADD PUSH2 0x6F3 DUP2 PUSH2 0x1A1F JUMP JUMPDEST PUSH1 0x20 DUP1 DUP3 MSTORE DUP2 ADD PUSH2 0x6F3 DUP2 PUSH2 0x1A6A JUMP JUMPDEST PUSH1 0x20 DUP1 DUP3 MSTORE DUP2 ADD PUSH2 0x6F3 DUP2 PUSH2 0x1AB8 JUMP JUMPDEST PUSH1 0x20 DUP1 DUP3 MSTORE DUP2 ADD PUSH2 0x6F3 DUP2 PUSH2 0x1B03 JUMP JUMPDEST PUSH1 0x20 DUP1 DUP3 MSTORE DUP2 ADD PUSH2 0x6F3 DUP2 PUSH2 0x1B54 JUMP JUMPDEST PUSH1 0x20 DUP1 DUP3 MSTORE DUP2 ADD PUSH2 0x6F3 DUP2 PUSH2 0x1B97 JUMP JUMPDEST PUSH1 0x20 DUP1 DUP3 MSTORE DUP2 ADD PUSH2 0x6F3 DUP2 PUSH2 0x1BEA JUMP JUMPDEST PUSH1 0x20 DUP2 ADD PUSH2 0x6F3 DUP3 DUP5 PUSH2 0x1C38 JUMP JUMPDEST PUSH1 0x40 MLOAD DUP2 DUP2 ADD PUSH8 0xFFFFFFFFFFFFFFFF DUP2 GT DUP3 DUP3 LT OR ISZERO PUSH2 0x1E08 JUMPI PUSH1 0x0 DUP1 REVERT JUMPDEST PUSH1 0x40 MSTORE SWAP2 SWAP1 POP JUMP JUMPDEST PUSH1 0x0 PUSH8 0xFFFFFFFFFFFFFFFF DUP3 GT ISZERO PUSH2 0x1E27 JUMPI PUSH1 0x0 DUP1 REVERT JUMPDEST POP PUSH1 0x20 PUSH1 0x1F SWAP2 SWAP1 SWAP2 ADD PUSH1 0x1F NOT AND ADD SWAP1 JUMP JUMPDEST PUSH1 0x20 ADD SWAP1 JUMP JUMPDEST MLOAD SWAP1 JUMP JUMPDEST SWAP1 DUP2 MSTORE PUSH1 0x20 ADD SWAP1 JUMP JUMPDEST SWAP2 SWAP1 POP JUMP JUMPDEST PUSH1 0x0 PUSH2 0x6F3 DUP3 PUSH2 0x1E6D JUMP JUMPDEST ISZERO ISZERO SWAP1 JUMP JUMPDEST PUSH1 0x1 PUSH1 0x1 PUSH1 0xE0 SHL SUB NOT AND SWAP1 JUMP JUMPDEST PUSH1 0x1 PUSH1 0x1 PUSH1 0xA0 SHL SUB AND SWAP1 JUMP JUMPDEST DUP3 DUP2 DUP4 CALLDATACOPY POP PUSH1 0x0 SWAP2 ADD MSTORE JUMP JUMPDEST PUSH1 0x0 JUMPDEST DUP4 DUP2 LT ISZERO PUSH2 0x1EA0 JUMPI DUP2 DUP2 ADD MLOAD DUP4 DUP3 ADD MSTORE PUSH1 0x20 ADD PUSH2 0x1E88 JUMP JUMPDEST DUP4 DUP2 GT ISZERO PUSH2 0xA2A JUMPI POP POP PUSH1 0x0 SWAP2 ADD MSTORE JUMP JUMPDEST PUSH1 0x1F ADD PUSH1 0x1F NOT AND SWAP1 JUMP JUMPDEST PUSH2 0x1EC4 DUP2 PUSH2 0x1E50 JUMP JUMPDEST DUP2 EQ PUSH2 0x1330 JUMPI PUSH1 0x0 DUP1 REVERT JUMPDEST PUSH2 0x1EC4 DUP2 PUSH2 0x1E5B JUMP JUMPDEST PUSH2 0x1EC4 DUP2 PUSH2 0x1E60 JUMP JUMPDEST PUSH2 0x1EC4 DUP2 PUSH2 0x658 JUMP INVALID LOG3 PUSH6 0x627A7A723158 KECCAK256 DUP3 CALL 0xD7 DELEGATECALL 0xD1 0xE5 PUSH24 0x6388DEEB55DDDDD6F94EA072CD4E9A33DEEBAE73E2963954 0xD PUSH13 0x6578706572696D656E74616CF5 PUSH5 0x736F6C6343 STOP SDIV GT STOP BLOCKHASH "
		},
		"gasEstimates": {
			"creation": {
				"codeDepositCost": "1596200",
				"executionCost": "infinite",
				"totalCost": "infinite"
			},
			"external": {
				"approve(address,uint256)": "infinite",
				"balanceOf(address)": "infinite",
				"contractURI()": "infinite",
				"creators(uint256)": "infinite",
				"fees(uint256,uint256)": "infinite",
				"getApproved(uint256)": "infinite",
				"getFeeBps(uint256)": "infinite",
				"getFeeRecipients(uint256)": "infinite",
				"getTokensPerCreator(address)": "infinite",
				"isApprovedForAll(address,address)": "infinite",
				"name()": "infinite",
				"ownerOf(uint256)": "infinite",
				"royalities(uint256)": "infinite",
				"safeTransferFrom(address,address,uint256)": "infinite",
				"safeTransferFrom(address,address,uint256,bytes)": "infinite",
				"setApprovalForAll(address,bool)": "infinite",
				"supportsInterface(bytes4)": "infinite",
				"symbol()": "infinite",
				"tokenByIndex(uint256)": "infinite",
				"tokenOfOwnerByIndex(address,uint256)": "infinite",
				"tokenURI(uint256)": "infinite",
				"tokenURIPrefix()": "infinite",
				"tokensPerCreator(address,uint256)": "infinite",
				"totalSupply()": "infinite",
				"transferFrom(address,address,uint256)": "infinite"
			},
			"internal": {
				"_burn(address,uint256)": "infinite",
				"_mint(address,uint256,uint256)": "infinite",
				"_setTokenURI(uint256,string memory)": "infinite"
			}
		},
		"methodIdentifiers": {
			"approve(address,uint256)": "095ea7b3",
			"balanceOf(address)": "70a08231",
			"contractURI()": "e8a3d485",
			"creators(uint256)": "cd53d08e",
			"fees(uint256,uint256)": "6308f1cd",
			"getApproved(uint256)": "081812fc",
			"getFeeBps(uint256)": "0ebd4c7f",
			"getFeeRecipients(uint256)": "b9c4d9fb",
			"getTokensPerCreator(address)": "8ee11204",
			"isApprovedForAll(address,address)": "e985e9c5",
			"name()": "06fdde03",
			"ownerOf(uint256)": "6352211e",
			"royalities(uint256)": "b5004f01",
			"safeTransferFrom(address,address,uint256)": "42842e0e",
			"safeTransferFrom(address,address,uint256,bytes)": "b88d4fde",
			"setApprovalForAll(address,bool)": "a22cb465",
			"supportsInterface(bytes4)": "01ffc9a7",
			"symbol()": "95d89b41",
			"tokenByIndex(uint256)": "4f6ccce7",
			"tokenOfOwnerByIndex(address,uint256)": "2f745c59",
			"tokenURI(uint256)": "c87b56dd",
			"tokenURIPrefix()": "c0ac9983",
			"tokensPerCreator(address,uint256)": "737c7600",
			"totalSupply()": "18160ddd",
			"transferFrom(address,address,uint256)": "23b872dd"
		}
	},
	"abi": [
		{
			"inputs": [
				{
					"internalType": "string",
					"name": "_name",
					"type": "string"
				},
				{
					"internalType": "string",
					"name": "_symbol",
					"type": "string"
				},
				{
					"internalType": "string",
					"name": "contractURI",
					"type": "string"
				},
				{
					"internalType": "string",
					"name": "_tokenURIPrefix",
					"type": "string"
				}
			],
			"payable": false,
			"stateMutability": "nonpayable",
			"type": "constructor"
		},
		{
			"anonymous": false,
			"inputs": [
				{
					"indexed": true,
					"internalType": "address",
					"name": "owner",
					"type": "address"
				},
				{
					"indexed": true,
					"internalType": "address",
					"name": "approved",
					"type": "address"
				},
				{
					"indexed": true,
					"internalType": "uint256",
					"name": "tokenId",
					"type": "uint256"
				}
			],
			"name": "Approval",
			"type": "event"
		},
		{
			"anonymous": false,
			"inputs": [
				{
					"indexed": true,
					"internalType": "address",
					"name": "owner",
					"type": "address"
				},
				{
					"indexed": true,
					"internalType": "address",
					"name": "operator",
					"type": "address"
				},
				{
					"indexed": false,
					"internalType": "bool",
					"name": "approved",
					"type": "bool"
				}
			],
			"name": "ApprovalForAll",
			"type": "event"
		},
		{
			"anonymous": false,
			"inputs": [
				{
					"indexed": false,
					"internalType": "uint256",
					"name": "tokenId",
					"type": "uint256"
				},
				{
					"indexed": false,
					"internalType": "address[]",
					"name": "recipients",
					"type": "address[]"
				},
				{
					"indexed": false,
					"internalType": "uint256[]",
					"name": "bps",
					"type": "uint256[]"
				}
			],
			"name": "SecondarySaleFees",
			"type": "event"
		},
		{
			"anonymous": false,
			"inputs": [
				{
					"indexed": true,
					"internalType": "address",
					"name": "from",
					"type": "address"
				},
				{
					"indexed": true,
					"internalType": "address",
					"name": "to",
					"type": "address"
				},
				{
					"indexed": true,
					"internalType": "uint256",
					"name": "tokenId",
					"type": "uint256"
				}
			],
			"name": "Transfer",
			"type": "event"
		},
		{
			"constant": false,
			"inputs": [
				{
					"internalType": "address",
					"name": "to",
					"type": "address"
				},
				{
					"internalType": "uint256",
					"name": "tokenId",
					"type": "uint256"
				}
			],
			"name": "approve",
			"outputs": [],
			"payable": false,
			"stateMutability": "nonpayable",
			"type": "function"
		},
		{
			"constant": true,
			"inputs": [
				{
					"internalType": "address",
					"name": "owner",
					"type": "address"
				}
			],
			"name": "balanceOf",
			"outputs": [
				{
					"internalType": "uint256",
					"name": "",
					"type": "uint256"
				}
			],
			"payable": false,
			"stateMutability": "view",
			"type": "function"
		},
		{
			"constant": true,
			"inputs": [],
			"name": "contractURI",
			"outputs": [
				{
					"internalType": "string",
					"name": "",
					"type": "string"
				}
			],
			"payable": false,
			"stateMutability": "view",
			"type": "function"
		},
		{
			"constant": true,
			"inputs": [
				{
					"internalType": "uint256",
					"name": "",
					"type": "uint256"
				}
			],
			"name": "creators",
			"outputs": [
				{
					"internalType": "address payable",
					"name": "",
					"type": "address"
				}
			],
			"payable": false,
			"stateMutability": "view",
			"type": "function"
		},
		{
			"constant": true,
			"inputs": [
				{
					"internalType": "uint256",
					"name": "",
					"type": "uint256"
				},
				{
					"internalType": "uint256",
					"name": "",
					"type": "uint256"
				}
			],
			"name": "fees",
			"outputs": [
				{
					"internalType": "address payable",
					"name": "recipient",
					"type": "address"
				},
				{
					"internalType": "uint256",
					"name": "value",
					"type": "uint256"
				}
			],
			"payable": false,
			"stateMutability": "view",
			"type": "function"
		},
		{
			"constant": true,
			"inputs": [
				{
					"internalType": "uint256",
					"name": "tokenId",
					"type": "uint256"
				}
			],
			"name": "getApproved",
			"outputs": [
				{
					"internalType": "address",
					"name": "",
					"type": "address"
				}
			],
			"payable": false,
			"stateMutability": "view",
			"type": "function"
		},
		{
			"constant": true,
			"inputs": [
				{
					"internalType": "uint256",
					"name": "id",
					"type": "uint256"
				}
			],
			"name": "getFeeBps",
			"outputs": [
				{
					"internalType": "uint256[]",
					"name": "",
					"type": "uint256[]"
				}
			],
			"payable": false,
			"stateMutability": "view",
			"type": "function"
		},
		{
			"constant": true,
			"inputs": [
				{
					"internalType": "uint256",
					"name": "id",
					"type": "uint256"
				}
			],
			"name": "getFeeRecipients",
			"outputs": [
				{
					"internalType": "address payable[]",
					"name": "",
					"type": "address[]"
				}
			],
			"payable": false,
			"stateMutability": "view",
			"type": "function"
		},
		{
			"constant": true,
			"inputs": [
				{
					"internalType": "address",
					"name": "creator",
					"type": "address"
				}
			],
			"name": "getTokensPerCreator",
			"outputs": [
				{
					"internalType": "uint256[]",
					"name": "",
					"type": "uint256[]"
				}
			],
			"payable": false,
			"stateMutability": "view",
			"type": "function"
		},
		{
			"constant": true,
			"inputs": [
				{
					"internalType": "address",
					"name": "owner",
					"type": "address"
				},
				{
					"internalType": "address",
					"name": "operator",
					"type": "address"
				}
			],
			"name": "isApprovedForAll",
			"outputs": [
				{
					"internalType": "bool",
					"name": "",
					"type": "bool"
				}
			],
			"payable": false,
			"stateMutability": "view",
			"type": "function"
		},
		{
			"constant": true,
			"inputs": [],
			"name": "name",
			"outputs": [
				{
					"internalType": "string",
					"name": "",
					"type": "string"
				}
			],
			"payable": false,
			"stateMutability": "view",
			"type": "function"
		},
		{
			"constant": true,
			"inputs": [
				{
					"internalType": "uint256",
					"name": "tokenId",
					"type": "uint256"
				}
			],
			"name": "ownerOf",
			"outputs": [
				{
					"internalType": "address",
					"name": "",
					"type": "address"
				}
			],
			"payable": false,
			"stateMutability": "view",
			"type": "function"
		},
		{
			"constant": true,
			"inputs": [
				{
					"internalType": "uint256",
					"name": "",
					"type": "uint256"
				}
			],
			"name": "royalities",
			"outputs": [
				{
					"internalType": "uint256",
					"name": "",
					"type": "uint256"
				}
			],
			"payable": false,
			"stateMutability": "view",
			"type": "function"
		},
		{
			"constant": false,
			"inputs": [
				{
					"internalType": "address",
					"name": "from",
					"type": "address"
				},
				{
					"internalType": "address",
					"name": "to",
					"type": "address"
				},
				{
					"internalType": "uint256",
					"name": "tokenId",
					"type": "uint256"
				}
			],
			"name": "safeTransferFrom",
			"outputs": [],
			"payable": false,
			"stateMutability": "nonpayable",
			"type": "function"
		},
		{
			"constant": false,
			"inputs": [
				{
					"internalType": "address",
					"name": "from",
					"type": "address"
				},
				{
					"internalType": "address",
					"name": "to",
					"type": "address"
				},
				{
					"internalType": "uint256",
					"name": "tokenId",
					"type": "uint256"
				},
				{
					"internalType": "bytes",
					"name": "_data",
					"type": "bytes"
				}
			],
			"name": "safeTransferFrom",
			"outputs": [],
			"payable": false,
			"stateMutability": "nonpayable",
			"type": "function"
		},
		{
			"constant": false,
			"inputs": [
				{
					"internalType": "address",
					"name": "to",
					"type": "address"
				},
				{
					"internalType": "bool",
					"name": "approved",
					"type": "bool"
				}
			],
			"name": "setApprovalForAll",
			"outputs": [],
			"payable": false,
			"stateMutability": "nonpayable",
			"type": "function"
		},
		{
			"constant": true,
			"inputs": [
				{
					"internalType": "bytes4",
					"name": "interfaceId",
					"type": "bytes4"
				}
			],
			"name": "supportsInterface",
			"outputs": [
				{
					"internalType": "bool",
					"name": "",
					"type": "bool"
				}
			],
			"payable": false,
			"stateMutability": "view",
			"type": "function"
		},
		{
			"constant": true,
			"inputs": [],
			"name": "symbol",
			"outputs": [
				{
					"internalType": "string",
					"name": "",
					"type": "string"
				}
			],
			"payable": false,
			"stateMutability": "view",
			"type": "function"
		},
		{
			"constant": true,
			"inputs": [
				{
					"internalType": "uint256",
					"name": "index",
					"type": "uint256"
				}
			],
			"name": "tokenByIndex",
			"outputs": [
				{
					"internalType": "uint256",
					"name": "",
					"type": "uint256"
				}
			],
			"payable": false,
			"stateMutability": "view",
			"type": "function"
		},
		{
			"constant": true,
			"inputs": [
				{
					"internalType": "address",
					"name": "owner",
					"type": "address"
				},
				{
					"internalType": "uint256",
					"name": "index",
					"type": "uint256"
				}
			],
			"name": "tokenOfOwnerByIndex",
			"outputs": [
				{
					"internalType": "uint256",
					"name": "",
					"type": "uint256"
				}
			],
			"payable": false,
			"stateMutability": "view",
			"type": "function"
		},
		{
			"constant": true,
			"inputs": [
				{
					"internalType": "uint256",
					"name": "tokenId",
					"type": "uint256"
				}
			],
			"name": "tokenURI",
			"outputs": [
				{
					"internalType": "string",
					"name": "",
					"type": "string"
				}
			],
			"payable": false,
			"stateMutability": "view",
			"type": "function"
		},
		{
			"constant": true,
			"inputs": [],
			"name": "tokenURIPrefix",
			"outputs": [
				{
					"internalType": "string",
					"name": "",
					"type": "string"
				}
			],
			"payable": false,
			"stateMutability": "view",
			"type": "function"
		},
		{
			"constant": true,
			"inputs": [
				{
					"internalType": "address",
					"name": "",
					"type": "address"
				},
				{
					"internalType": "uint256",
					"name": "",
					"type": "uint256"
				}
			],
			"name": "tokensPerCreator",
			"outputs": [
				{
					"internalType": "uint256",
					"name": "",
					"type": "uint256"
				}
			],
			"payable": false,
			"stateMutability": "view",
			"type": "function"
		},
		{
			"constant": true,
			"inputs": [],
			"name": "totalSupply",
			"outputs": [
				{
					"internalType": "uint256",
					"name": "",
					"type": "uint256"
				}
			],
			"payable": false,
			"stateMutability": "view",
			"type": "function"
		},
		{
			"constant": false,
			"inputs": [
				{
					"internalType": "address",
					"name": "from",
					"type": "address"
				},
				{
					"internalType": "address",
					"name": "to",
					"type": "address"
				},
				{
					"internalType": "uint256",
					"name": "tokenId",
					"type": "uint256"
				}
			],
			"name": "transferFrom",
			"outputs": [],
			"payable": false,
			"stateMutability": "nonpayable",
			"type": "function"
		}
	]
}