{
	"data": {
		"bytecode": {
			"linkReferences": {},
			"object": "608060405261001d6301ffc9a760e01b6001600160e01b0361003b16565b6100366380ac58cd60e01b6001600160e01b0361003b16565b6100eb565b6001600160e01b0319808216141561006e5760405162461bcd60e51b8152600401610065906100cc565b60405180910390fd5b6001600160e01b0319166000908152602081905260409020805460ff19166001179055565b60006100a0601c836100e2565b7f4552433136353a20696e76616c696420696e7465726661636520696400000000815260200192915050565b602080825281016100dc81610093565b92915050565b90815260200190565b6113a180620000fb6000396000f3fe608060405234801561001057600080fd5b50600436106100a95760003560e01c806342966c681161007157806342966c68146101325780636352211e1461014557806370a0823114610158578063a22cb46514610178578063b88d4fde1461018b578063e985e9c51461019e576100a9565b806301ffc9a7146100ae578063081812fc146100d7578063095ea7b3146100f757806323b872dd1461010c57806342842e0e1461011f575b600080fd5b6100c16100bc366004610c44565b6101b1565b6040516100ce9190611163565b60405180910390f35b6100ea6100e5366004610c80565b6101d0565b6040516100ce9190611111565b61010a610105366004610c14565b61021c565b005b61010a61011a366004610b1e565b610301565b61010a61012d366004610b1e565b61033e565b61010a610140366004610c80565b610359565b6100ea610153366004610c80565b61038c565b61016b610166366004610ac6565b6103c7565b6040516100ce9190611252565b61010a610186366004610be4565b610410565b61010a610199366004610b6b565b6104de565b6100c16101ac366004610ae4565b61051d565b6001600160e01b03191660009081526020819052604090205460ff1690565b60006101db8261054b565b6102005760405162461bcd60e51b81526004016101f7906111f2565b60405180910390fd5b506000908152600260205260409020546001600160a01b031690565b60006102278261038c565b9050806001600160a01b0316836001600160a01b0316141561025b5760405162461bcd60e51b81526004016101f790611212565b806001600160a01b031661026d610568565b6001600160a01b031614806102895750610289816101ac610568565b6102a55760405162461bcd60e51b81526004016101f7906111c2565b60008281526002602052604080822080546001600160a01b0319166001600160a01b0387811691821790925591518593918516917f8c5be1e5ebec7d5bd14f71427d1e84f3dd0314c0f7b2291e5b200ac8c7c3b92591a4505050565b61031261030c610568565b8261056c565b61032e5760405162461bcd60e51b81526004016101f790611222565b6103398383836105f1565b505050565b610339838383604051806020016040528060008152506104de565b61036461030c610568565b6103805760405162461bcd60e51b81526004016101f790611242565b610389816106f7565b50565b6000818152600160205260408120546001600160a01b0316806103c15760405162461bcd60e51b81526004016101f7906111e2565b92915050565b60006001600160a01b0382166103ef5760405162461bcd60e51b81526004016101f7906111d2565b6001600160a01b03821660009081526003602052604090206103c190610709565b610418610568565b6001600160a01b0316826001600160a01b031614156104495760405162461bcd60e51b81526004016101f7906111a2565b8060046000610456610568565b6001600160a01b03908116825260208083019390935260409182016000908120918716808252919093529120805460ff19169215159290921790915561049a610568565b6001600160a01b03167f17307eab39ab6107e8899845ad3d59bd9653f200f220920489ca2b5937696c31836040516104d29190611163565b60405180910390a35050565b6104ef6104e9610568565b8361056c565b61050b5760405162461bcd60e51b81526004016101f790611222565b6105178484848461070d565b50505050565b6001600160a01b03918216600090815260046020908152604080832093909416825291909152205460ff1690565b6000908152600160205260409020546001600160a01b0316151590565b3390565b60006105778261054b565b6105935760405162461bcd60e51b81526004016101f7906111b2565b600061059e8361038c565b9050806001600160a01b0316846001600160a01b031614806105d95750836001600160a01b03166105ce846101d0565b6001600160a01b0316145b806105e957506105e9818561051d565b949350505050565b826001600160a01b03166106048261038c565b6001600160a01b03161461062a5760405162461bcd60e51b81526004016101f790611202565b6001600160a01b0382166106505760405162461bcd60e51b81526004016101f790611192565b61065981610740565b6001600160a01b038316600090815260036020526040902061067a9061077b565b6001600160a01b038216600090815260036020526040902061069b90610792565b60008181526001602052604080822080546001600160a01b0319166001600160a01b0386811691821790925591518493918716917fddf252ad1be2c89b69c2b068fc378daa952ba7f163c4a11628f55a4df523b3ef91a4505050565b6103896107038261038c565b8261079b565b5490565b6107188484846105f1565b61072484848484610853565b6105175760405162461bcd60e51b81526004016101f790611182565b6000818152600260205260409020546001600160a01b03161561038957600090815260026020526040902080546001600160a01b0319169055565b805461078e90600163ffffffff61098d16565b9055565b80546001019055565b816001600160a01b03166107ae8261038c565b6001600160a01b0316146107d45760405162461bcd60e51b81526004016101f790611232565b6107dd81610740565b6001600160a01b03821660009081526003602052604090206107fe9061077b565b60008181526001602052604080822080546001600160a01b0319169055518291906001600160a01b038516907fddf252ad1be2c89b69c2b068fc378daa952ba7f163c4a11628f55a4df523b3ef908390a45050565b6000610867846001600160a01b03166109d6565b610873575060016105e9565b600060606001600160a01b038616630a85bd0160e11b610891610568565b8988886040516024016108a7949392919061111f565b60408051601f198184030181529181526020820180516001600160e01b03166001600160e01b03199094169390931790925290516108e59190611105565b6000604051808303816000865af19150503d8060008114610922576040519150601f19603f3d011682016040523d82523d6000602084013e610927565b606091505b509150915081610959578051156109415780518082602001fd5b60405162461bcd60e51b81526004016101f790611182565b60008180602001905161096f9190810190610c62565b6001600160e01b031916630a85bd0160e11b1493506105e992505050565b60006109cf83836040518060400160405280601e81526020017f536166654d6174683a207375627472616374696f6e206f766572666c6f770000815250610a0f565b9392505050565b6000813f7fc5d2460186f7233c927e7db2dcc703c0e500b653ca82273b7bfad8045d85a4708181148015906105e9575050151592915050565b60008184841115610a335760405162461bcd60e51b81526004016101f79190611171565b505050900390565b80356103c18161132f565b80356103c181611343565b80356103c18161134c565b80516103c18161134c565b600082601f830112610a7857600080fd5b8135610a8b610a8682611287565b611260565b91508082526020830160208301858383011115610aa757600080fd5b610ab28382846112ed565b50505092915050565b80356103c181611355565b600060208284031215610ad857600080fd5b60006105e98484610a3b565b60008060408385031215610af757600080fd5b6000610b038585610a3b565b9250506020610b1485828601610a3b565b9150509250929050565b600080600060608486031215610b3357600080fd5b6000610b3f8686610a3b565b9350506020610b5086828701610a3b565b9250506040610b6186828701610abb565b9150509250925092565b60008060008060808587031215610b8157600080fd5b6000610b8d8787610a3b565b9450506020610b9e87828801610a3b565b9350506040610baf87828801610abb565b925050606085013567ffffffffffffffff811115610bcc57600080fd5b610bd887828801610a67565b91505092959194509250565b60008060408385031215610bf757600080fd5b6000610c038585610a3b565b9250506020610b1485828601610a46565b60008060408385031215610c2757600080fd5b6000610c338585610a3b565b9250506020610b1485828601610abb565b600060208284031215610c5657600080fd5b60006105e98484610a51565b600060208284031215610c7457600080fd5b60006105e98484610a5c565b600060208284031215610c9257600080fd5b60006105e98484610abb565b610ca7816112c1565b82525050565b610ca7816112cc565b6000610cc1826112af565b610ccb81856112b3565b9350610cdb8185602086016112f9565b610ce481611325565b9093019392505050565b6000610cf9826112af565b610d0381856112bc565b9350610d138185602086016112f9565b9290920192915050565b6000610d2a6032836112b3565b7f4552433732313a207472616e7366657220746f206e6f6e20455243373231526581527131b2b4bb32b91034b6b83632b6b2b73a32b960711b602082015260400192915050565b6000610d7e6024836112b3565b7f4552433732313a207472616e7366657220746f20746865207a65726f206164648152637265737360e01b602082015260400192915050565b6000610dc46019836112b3565b7f4552433732313a20617070726f766520746f2063616c6c657200000000000000815260200192915050565b6000610dfd602c836112b3565b7f4552433732313a206f70657261746f7220717565727920666f72206e6f6e657881526b34b9ba32b73a103a37b5b2b760a11b602082015260400192915050565b6000610e4b6038836112b3565b7f4552433732313a20617070726f76652063616c6c6572206973206e6f74206f7781527f6e6572206e6f7220617070726f76656420666f7220616c6c0000000000000000602082015260400192915050565b6000610eaa602a836112b3565b7f4552433732313a2062616c616e636520717565727920666f7220746865207a65815269726f206164647265737360b01b602082015260400192915050565b6000610ef66029836112b3565b7f4552433732313a206f776e657220717565727920666f72206e6f6e657869737481526832b73a103a37b5b2b760b91b602082015260400192915050565b6000610f41602c836112b3565b7f4552433732313a20617070726f76656420717565727920666f72206e6f6e657881526b34b9ba32b73a103a37b5b2b760a11b602082015260400192915050565b6000610f8f6029836112b3565b7f4552433732313a207472616e73666572206f6620746f6b656e2074686174206981526839903737ba1037bbb760b91b602082015260400192915050565b6000610fda6021836112b3565b7f4552433732313a20617070726f76616c20746f2063757272656e74206f776e658152603960f91b602082015260400192915050565b600061101d6031836112b3565b7f4552433732313a207472616e736665722063616c6c6572206973206e6f74206f8152701ddb995c881b9bdc88185c1c1c9bdd9959607a1b602082015260400192915050565b60006110706025836112b3565b7f4552433732313a206275726e206f6620746f6b656e2074686174206973206e6f8152643a1037bbb760d91b602082015260400192915050565b60006110b76030836112b3565b7f4552433732314275726e61626c653a2063616c6c6572206973206e6f74206f7781526f1b995c881b9bdc88185c1c1c9bdd995960821b602082015260400192915050565b610ca7816112ea565b60006109cf8284610cee565b602081016103c18284610c9e565b6080810161112d8287610c9e565b61113a6020830186610c9e565b61114760408301856110fc565b81810360608301526111598184610cb6565b9695505050505050565b602081016103c18284610cad565b602080825281016109cf8184610cb6565b602080825281016103c181610d1d565b602080825281016103c181610d71565b602080825281016103c181610db7565b602080825281016103c181610df0565b602080825281016103c181610e3e565b602080825281016103c181610e9d565b602080825281016103c181610ee9565b602080825281016103c181610f34565b602080825281016103c181610f82565b602080825281016103c181610fcd565b602080825281016103c181611010565b602080825281016103c181611063565b602080825281016103c1816110aa565b602081016103c182846110fc565b60405181810167ffffffffffffffff8111828210171561127f57600080fd5b604052919050565b600067ffffffffffffffff82111561129e57600080fd5b506020601f91909101601f19160190565b5190565b90815260200190565b919050565b60006103c1826112de565b151590565b6001600160e01b03191690565b6001600160a01b031690565b90565b82818337506000910152565b60005b838110156113145781810151838201526020016112fc565b838111156105175750506000910152565b601f01601f191690565b611338816112c1565b811461038957600080fd5b611338816112cc565b611338816112d1565b611338816112ea56fea365627a7a7231582015b1f594ff8521bcf0a8ec79b805521bb138d7718d557e32c5b5fc0228a129276c6578706572696d656e74616cf564736f6c63430005110040",
			"opcodes": "PUSH1 0x80 PUSH1 0x40 MSTORE PUSH2 0x1D PUSH4 0x1FFC9A7 PUSH1 0xE0 SHL PUSH1 0x1 PUSH1 0x1 PUSH1 0xE0 SHL SUB PUSH2 0x3B AND JUMP JUMPDEST PUSH2 0x36 PUSH4 0x80AC58CD PUSH1 0xE0 SHL PUSH1 0x1 PUSH1 0x1 PUSH1 0xE0 SHL SUB PUSH2 0x3B AND JUMP JUMPDEST PUSH2 0xEB JUMP JUMPDEST PUSH1 0x1 PUSH1 0x1 PUSH1 0xE0 SHL SUB NOT DUP1 DUP3 AND EQ ISZERO PUSH2 0x6E JUMPI PUSH1 0x40 MLOAD PUSH3 0x461BCD PUSH1 0xE5 SHL DUP2 MSTORE PUSH1 0x4 ADD PUSH2 0x65 SWAP1 PUSH2 0xCC JUMP JUMPDEST PUSH1 0x40 MLOAD DUP1 SWAP2 SUB SWAP1 REVERT JUMPDEST PUSH1 0x1 PUSH1 0x1 PUSH1 0xE0 SHL SUB NOT AND PUSH1 0x0 SWAP1 DUP2 MSTORE PUSH1 0x20 DUP2 SWAP1 MSTORE PUSH1 0x40 SWAP1 KECCAK256 DUP1 SLOAD PUSH1 0xFF NOT AND PUSH1 0x1 OR SWAP1 SSTORE JUMP JUMPDEST PUSH1 0x0 PUSH2 0xA0 PUSH1 0x1C DUP4 PUSH2 0xE2 JUMP JUMPDEST PUSH32 0x4552433136353A20696E76616C696420696E7465726661636520696400000000 DUP2 MSTORE PUSH1 0x20 ADD SWAP3 SWAP2 POP POP JUMP JUMPDEST PUSH1 0x20 DUP1 DUP3 MSTORE DUP2 ADD PUSH2 0xDC DUP2 PUSH2 0x93 JUMP JUMPDEST SWAP3 SWAP2 POP POP JUMP JUMPDEST SWAP1 DUP2 MSTORE PUSH1 0x20 ADD SWAP1 JUMP JUMPDEST PUSH2 0x13A1 DUP1 PUSH3 0xFB PUSH1 0x0 CODECOPY PUSH1 0x0 RETURN INVALID PUSH1 0x80 PUSH1 0x40 MSTORE CALLVALUE DUP1 ISZERO PUSH2 0x10 JUMPI PUSH1 0x0 DUP1 REVERT JUMPDEST POP PUSH1 0x4 CALLDATASIZE LT PUSH2 0xA9 JUMPI PUSH1 0x0 CALLDATALOAD PUSH1 0xE0 SHR DUP1 PUSH4 0x42966C68 GT PUSH2 0x71 JUMPI DUP1 PUSH4 0x42966C68 EQ PUSH2 0x132 JUMPI DUP1 PUSH4 0x6352211E EQ PUSH2 0x145 JUMPI DUP1 PUSH4 0x70A08231 EQ PUSH2 0x158 JUMPI DUP1 PUSH4 0xA22CB465 EQ PUSH2 0x178 JUMPI DUP1 PUSH4 0xB88D4FDE EQ PUSH2 0x18B JUMPI DUP1 PUSH4 0xE985E9C5 EQ PUSH2 0x19E JUMPI PUSH2 0xA9 JUMP JUMPDEST DUP1 PUSH4 0x1FFC9A7 EQ PUSH2 0xAE JUMPI DUP1 PUSH4 0x81812FC EQ PUSH2 0xD7 JUMPI DUP1 PUSH4 0x95EA7B3 EQ PUSH2 0xF7 JUMPI DUP1 PUSH4 0x23B872DD EQ PUSH2 0x10C JUMPI DUP1 PUSH4 0x42842E0E EQ PUSH2 0x11F JUMPI JUMPDEST PUSH1 0x0 DUP1 REVERT JUMPDEST PUSH2 0xC1 PUSH2 0xBC CALLDATASIZE PUSH1 0x4 PUSH2 0xC44 JUMP JUMPDEST PUSH2 0x1B1 JUMP JUMPDEST PUSH1 0x40 MLOAD PUSH2 0xCE SWAP2 SWAP1 PUSH2 0x1163 JUMP JUMPDEST PUSH1 0x40 MLOAD DUP1 SWAP2 SUB SWAP1 RETURN JUMPDEST PUSH2 0xEA PUSH2 0xE5 CALLDATASIZE PUSH1 0x4 PUSH2 0xC80 JUMP JUMPDEST PUSH2 0x1D0 JUMP JUMPDEST PUSH1 0x40 MLOAD PUSH2 0xCE SWAP2 SWAP1 PUSH2 0x1111 JUMP JUMPDEST PUSH2 0x10A PUSH2 0x105 CALLDATASIZE PUSH1 0x4 PUSH2 0xC14 JUMP JUMPDEST PUSH2 0x21C JUMP JUMPDEST STOP JUMPDEST PUSH2 0x10A PUSH2 0x11A CALLDATASIZE PUSH1 0x4 PUSH2 0xB1E JUMP JUMPDEST PUSH2 0x301 JUMP JUMPDEST PUSH2 0x10A PUSH2 0x12D CALLDATASIZE PUSH1 0x4 PUSH2 0xB1E JUMP JUMPDEST PUSH2 0x33E JUMP JUMPDEST PUSH2 0x10A PUSH2 0x140 CALLDATASIZE PUSH1 0x4 PUSH2 0xC80 JUMP JUMPDEST PUSH2 0x359 JUMP JUMPDEST PUSH2 0xEA PUSH2 0x153 CALLDATASIZE PUSH1 0x4 PUSH2 0xC80 JUMP JUMPDEST PUSH2 0x38C JUMP JUMPDEST PUSH2 0x16B PUSH2 0x166 CALLDATASIZE PUSH1 0x4 PUSH2 0xAC6 JUMP JUMPDEST PUSH2 0x3C7 JUMP JUMPDEST PUSH1 0x40 MLOAD PUSH2 0xCE SWAP2 SWAP1 PUSH2 0x1252 JUMP JUMPDEST PUSH2 0x10A PUSH2 0x186 CALLDATASIZE PUSH1 0x4 PUSH2 0xBE4 JUMP JUMPDEST PUSH2 0x410 JUMP JUMPDEST PUSH2 0x10A PUSH2 0x199 CALLDATASIZE PUSH1 0x4 PUSH2 0xB6B JUMP JUMPDEST PUSH2 0x4DE JUMP JUMPDEST PUSH2 0xC1 PUSH2 0x1AC CALLDATASIZE PUSH1 0x4 PUSH2 0xAE4 JUMP JUMPDEST PUSH2 0x51D JUMP JUMPDEST PUSH1 0x1 PUSH1 0x1 PUSH1 0xE0 SHL SUB NOT AND PUSH1 0x0 SWAP1 DUP2 MSTORE PUSH1 0x20 DUP2 SWAP1 MSTORE PUSH1 0x40 SWAP1 KECCAK256 SLOAD PUSH1 0xFF AND SWAP1 JUMP JUMPDEST PUSH1 0x0 PUSH2 0x1DB DUP3 PUSH2 0x54B JUMP JUMPDEST PUSH2 0x200 JUMPI PUSH1 0x40 MLOAD PUSH3 0x461BCD PUSH1 0xE5 SHL DUP2 MSTORE PUSH1 0x4 ADD PUSH2 0x1F7 SWAP1 PUSH2 0x11F2 JUMP JUMPDEST PUSH1 0x40 MLOAD DUP1 SWAP2 SUB SWAP1 REVERT JUMPDEST POP PUSH1 0x0 SWAP1 DUP2 MSTORE PUSH1 0x2 PUSH1 0x20 MSTORE PUSH1 0x40 SWAP1 KECCAK256 SLOAD PUSH1 0x1 PUSH1 0x1 PUSH1 0xA0 SHL SUB AND SWAP1 JUMP JUMPDEST PUSH1 0x0 PUSH2 0x227 DUP3 PUSH2 0x38C JUMP JUMPDEST SWAP1 POP DUP1 PUSH1 0x1 PUSH1 0x1 PUSH1 0xA0 SHL SUB AND DUP4 PUSH1 0x1 PUSH1 0x1 PUSH1 0xA0 SHL SUB AND EQ ISZERO PUSH2 0x25B JUMPI PUSH1 0x40 MLOAD PUSH3 0x461BCD PUSH1 0xE5 SHL DUP2 MSTORE PUSH1 0x4 ADD PUSH2 0x1F7 SWAP1 PUSH2 0x1212 JUMP JUMPDEST DUP1 PUSH1 0x1 PUSH1 0x1 PUSH1 0xA0 SHL SUB AND PUSH2 0x26D PUSH2 0x568 JUMP JUMPDEST PUSH1 0x1 PUSH1 0x1 PUSH1 0xA0 SHL SUB AND EQ DUP1 PUSH2 0x289 JUMPI POP PUSH2 0x289 DUP2 PUSH2 0x1AC PUSH2 0x568 JUMP JUMPDEST PUSH2 0x2A5 JUMPI PUSH1 0x40 MLOAD PUSH3 0x461BCD PUSH1 0xE5 SHL DUP2 MSTORE PUSH1 0x4 ADD PUSH2 0x1F7 SWAP1 PUSH2 0x11C2 JUMP JUMPDEST PUSH1 0x0 DUP3 DUP2 MSTORE PUSH1 0x2 PUSH1 0x20 MSTORE PUSH1 0x40 DUP1 DUP3 KECCAK256 DUP1 SLOAD PUSH1 0x1 PUSH1 0x1 PUSH1 0xA0 SHL SUB NOT AND PUSH1 0x1 PUSH1 0x1 PUSH1 0xA0 SHL SUB DUP8 DUP2 AND SWAP2 DUP3 OR SWAP1 SWAP3 SSTORE SWAP2 MLOAD DUP6 SWAP4 SWAP2 DUP6 AND SWAP2 PUSH32 0x8C5BE1E5EBEC7D5BD14F71427D1E84F3DD0314C0F7B2291E5B200AC8C7C3B925 SWAP2 LOG4 POP POP POP JUMP JUMPDEST PUSH2 0x312 PUSH2 0x30C PUSH2 0x568 JUMP JUMPDEST DUP3 PUSH2 0x56C JUMP JUMPDEST PUSH2 0x32E JUMPI PUSH1 0x40 MLOAD PUSH3 0x461BCD PUSH1 0xE5 SHL DUP2 MSTORE PUSH1 0x4 ADD PUSH2 0x1F7 SWAP1 PUSH2 0x1222 JUMP JUMPDEST PUSH2 0x339 DUP4 DUP4 DUP4 PUSH2 0x5F1 JUMP JUMPDEST POP POP POP JUMP JUMPDEST PUSH2 0x339 DUP4 DUP4 DUP4 PUSH1 0x40 MLOAD DUP1 PUSH1 0x20 ADD PUSH1 0x40 MSTORE DUP1 PUSH1 0x0 DUP2 MSTORE POP PUSH2 0x4DE JUMP JUMPDEST PUSH2 0x364 PUSH2 0x30C PUSH2 0x568 JUMP JUMPDEST PUSH2 0x380 JUMPI PUSH1 0x40 MLOAD PUSH3 0x461BCD PUSH1 0xE5 SHL DUP2 MSTORE PUSH1 0x4 ADD PUSH2 0x1F7 SWAP1 PUSH2 0x1242 JUMP JUMPDEST PUSH2 0x389 DUP2 PUSH2 0x6F7 JUMP JUMPDEST POP JUMP JUMPDEST PUSH1 0x0 DUP2 DUP2 MSTORE PUSH1 0x1 PUSH1 0x20 MSTORE PUSH1 0x40 DUP2 KECCAK256 SLOAD PUSH1 0x1 PUSH1 0x1 PUSH1 0xA0 SHL SUB AND DUP1 PUSH2 0x3C1 JUMPI PUSH1 0x40 MLOAD PUSH3 0x461BCD PUSH1 0xE5 SHL DUP2 MSTORE PUSH1 0x4 ADD PUSH2 0x1F7 SWAP1 PUSH2 0x11E2 JUMP JUMPDEST SWAP3 SWAP2 POP POP JUMP JUMPDEST PUSH1 0x0 PUSH1 0x1 PUSH1 0x1 PUSH1 0xA0 SHL SUB DUP3 AND PUSH2 0x3EF JUMPI PUSH1 0x40 MLOAD PUSH3 0x461BCD PUSH1 0xE5 SHL DUP2 MSTORE PUSH1 0x4 ADD PUSH2 0x1F7 SWAP1 PUSH2 0x11D2 JUMP JUMPDEST PUSH1 0x1 PUSH1 0x1 PUSH1 0xA0 SHL SUB DUP3 AND PUSH1 0x0 SWAP1 DUP2 MSTORE PUSH1 0x3 PUSH1 0x20 MSTORE PUSH1 0x40 SWAP1 KECCAK256 PUSH2 0x3C1 SWAP1 PUSH2 0x709 JUMP JUMPDEST PUSH2 0x418 PUSH2 0x568 JUMP JUMPDEST PUSH1 0x1 PUSH1 0x1 PUSH1 0xA0 SHL SUB AND DUP3 PUSH1 0x1 PUSH1 0x1 PUSH1 0xA0 SHL SUB AND EQ ISZERO PUSH2 0x449 JUMPI PUSH1 0x40 MLOAD PUSH3 0x461BCD PUSH1 0xE5 SHL DUP2 MSTORE PUSH1 0x4 ADD PUSH2 0x1F7 SWAP1 PUSH2 0x11A2 JUMP JUMPDEST DUP1 PUSH1 0x4 PUSH1 0x0 PUSH2 0x456 PUSH2 0x568 JUMP JUMPDEST PUSH1 0x1 PUSH1 0x1 PUSH1 0xA0 SHL SUB SWAP1 DUP2 AND DUP3 MSTORE PUSH1 0x20 DUP1 DUP4 ADD SWAP4 SWAP1 SWAP4 MSTORE PUSH1 0x40 SWAP2 DUP3 ADD PUSH1 0x0 SWAP1 DUP2 KECCAK256 SWAP2 DUP8 AND DUP1 DUP3 MSTORE SWAP2 SWAP1 SWAP4 MSTORE SWAP2 KECCAK256 DUP1 SLOAD PUSH1 0xFF NOT AND SWAP3 ISZERO ISZERO SWAP3 SWAP1 SWAP3 OR SWAP1 SWAP2 SSTORE PUSH2 0x49A PUSH2 0x568 JUMP JUMPDEST PUSH1 0x1 PUSH1 0x1 PUSH1 0xA0 SHL SUB AND PUSH32 0x17307EAB39AB6107E8899845AD3D59BD9653F200F220920489CA2B5937696C31 DUP4 PUSH1 0x40 MLOAD PUSH2 0x4D2 SWAP2 SWAP1 PUSH2 0x1163 JUMP JUMPDEST PUSH1 0x40 MLOAD DUP1 SWAP2 SUB SWAP1 LOG3 POP POP JUMP JUMPDEST PUSH2 0x4EF PUSH2 0x4E9 PUSH2 0x568 JUMP JUMPDEST DUP4 PUSH2 0x56C JUMP JUMPDEST PUSH2 0x50B JUMPI PUSH1 0x40 MLOAD PUSH3 0x461BCD PUSH1 0xE5 SHL DUP2 MSTORE PUSH1 0x4 ADD PUSH2 0x1F7 SWAP1 PUSH2 0x1222 JUMP JUMPDEST PUSH2 0x517 DUP5 DUP5 DUP5 DUP5 PUSH2 0x70D JUMP JUMPDEST POP POP POP POP JUMP JUMPDEST PUSH1 0x1 PUSH1 0x1 PUSH1 0xA0 SHL SUB SWAP2 DUP3 AND PUSH1 0x0 SWAP1 DUP2 MSTORE PUSH1 0x4 PUSH1 0x20 SWAP1 DUP2 MSTORE PUSH1 0x40 DUP1 DUP4 KECCAK256 SWAP4 SWAP1 SWAP5 AND DUP3 MSTORE SWAP2 SWAP1 SWAP2 MSTORE KECCAK256 SLOAD PUSH1 0xFF AND SWAP1 JUMP JUMPDEST PUSH1 0x0 SWAP1 DUP2 MSTORE PUSH1 0x1 PUSH1 0x20 MSTORE PUSH1 0x40 SWAP1 KECCAK256 SLOAD PUSH1 0x1 PUSH1 0x1 PUSH1 0xA0 SHL SUB AND ISZERO ISZERO SWAP1 JUMP JUMPDEST CALLER SWAP1 JUMP JUMPDEST PUSH1 0x0 PUSH2 0x577 DUP3 PUSH2 0x54B JUMP JUMPDEST PUSH2 0x593 JUMPI PUSH1 0x40 MLOAD PUSH3 0x461BCD PUSH1 0xE5 SHL DUP2 MSTORE PUSH1 0x4 ADD PUSH2 0x1F7 SWAP1 PUSH2 0x11B2 JUMP JUMPDEST PUSH1 0x0 PUSH2 0x59E DUP4 PUSH2 0x38C JUMP JUMPDEST SWAP1 POP DUP1 PUSH1 0x1 PUSH1 0x1 PUSH1 0xA0 SHL SUB AND DUP5 PUSH1 0x1 PUSH1 0x1 PUSH1 0xA0 SHL SUB AND EQ DUP1 PUSH2 0x5D9 JUMPI POP DUP4 PUSH1 0x1 PUSH1 0x1 PUSH1 0xA0 SHL SUB AND PUSH2 0x5CE DUP5 PUSH2 0x1D0 JUMP JUMPDEST PUSH1 0x1 PUSH1 0x1 PUSH1 0xA0 SHL SUB AND EQ JUMPDEST DUP1 PUSH2 0x5E9 JUMPI POP PUSH2 0x5E9 DUP2 DUP6 PUSH2 0x51D JUMP JUMPDEST SWAP5 SWAP4 POP POP POP POP JUMP JUMPDEST DUP3 PUSH1 0x1 PUSH1 0x1 PUSH1 0xA0 SHL SUB AND PUSH2 0x604 DUP3 PUSH2 0x38C JUMP JUMPDEST PUSH1 0x1 PUSH1 0x1 PUSH1 0xA0 SHL SUB AND EQ PUSH2 0x62A JUMPI PUSH1 0x40 MLOAD PUSH3 0x461BCD PUSH1 0xE5 SHL DUP2 MSTORE PUSH1 0x4 ADD PUSH2 0x1F7 SWAP1 PUSH2 0x1202 JUMP JUMPDEST PUSH1 0x1 PUSH1 0x1 PUSH1 0xA0 SHL SUB DUP3 AND PUSH2 0x650 JUMPI PUSH1 0x40 MLOAD PUSH3 0x461BCD PUSH1 0xE5 SHL DUP2 MSTORE PUSH1 0x4 ADD PUSH2 0x1F7 SWAP1 PUSH2 0x1192 JUMP JUMPDEST PUSH2 0x659 DUP2 PUSH2 0x740 JUMP JUMPDEST PUSH1 0x1 PUSH1 0x1 PUSH1 0xA0 SHL SUB DUP4 AND PUSH1 0x0 SWAP1 DUP2 MSTORE PUSH1 0x3 PUSH1 0x20 MSTORE PUSH1 0x40 SWAP1 KECCAK256 PUSH2 0x67A SWAP1 PUSH2 0x77B JUMP JUMPDEST PUSH1 0x1 PUSH1 0x1 PUSH1 0xA0 SHL SUB DUP3 AND PUSH1 0x0 SWAP1 DUP2 MSTORE PUSH1 0x3 PUSH1 0x20 MSTORE PUSH1 0x40 SWAP1 KECCAK256 PUSH2 0x69B SWAP1 PUSH2 0x792 JUMP JUMPDEST PUSH1 0x0 DUP2 DUP2 MSTORE PUSH1 0x1 PUSH1 0x20 MSTORE PUSH1 0x40 DUP1 DUP3 KECCAK256 DUP1 SLOAD PUSH1 0x1 PUSH1 0x1 PUSH1 0xA0 SHL SUB NOT AND PUSH1 0x1 PUSH1 0x1 PUSH1 0xA0 SHL SUB DUP7 DUP2 AND SWAP2 DUP3 OR SWAP1 SWAP3 SSTORE SWAP2 MLOAD DUP5 SWAP4 SWAP2 DUP8 AND SWAP2 PUSH32 0xDDF252AD1BE2C89B69C2B068FC378DAA952BA7F163C4A11628F55A4DF523B3EF SWAP2 LOG4 POP POP POP JUMP JUMPDEST PUSH2 0x389 PUSH2 0x703 DUP3 PUSH2 0x38C JUMP JUMPDEST DUP3 PUSH2 0x79B JUMP JUMPDEST SLOAD SWAP1 JUMP JUMPDEST PUSH2 0x718 DUP5 DUP5 DUP5 PUSH2 0x5F1 JUMP JUMPDEST PUSH2 0x724 DUP5 DUP5 DUP5 DUP5 PUSH2 0x853 JUMP JUMPDEST PUSH2 0x517 JUMPI PUSH1 0x40 MLOAD PUSH3 0x461BCD PUSH1 0xE5 SHL DUP2 MSTORE PUSH1 0x4 ADD PUSH2 0x1F7 SWAP1 PUSH2 0x1182 JUMP JUMPDEST PUSH1 0x0 DUP2 DUP2 MSTORE PUSH1 0x2 PUSH1 0x20 MSTORE PUSH1 0x40 SWAP1 KECCAK256 SLOAD PUSH1 0x1 PUSH1 0x1 PUSH1 0xA0 SHL SUB AND ISZERO PUSH2 0x389 JUMPI PUSH1 0x0 SWAP1 DUP2 MSTORE PUSH1 0x2 PUSH1 0x20 MSTORE PUSH1 0x40 SWAP1 KECCAK256 DUP1 SLOAD PUSH1 0x1 PUSH1 0x1 PUSH1 0xA0 SHL SUB NOT AND SWAP1 SSTORE JUMP JUMPDEST DUP1 SLOAD PUSH2 0x78E SWAP1 PUSH1 0x1 PUSH4 0xFFFFFFFF PUSH2 0x98D AND JUMP JUMPDEST SWAP1 SSTORE JUMP JUMPDEST DUP1 SLOAD PUSH1 0x1 ADD SWAP1 SSTORE JUMP JUMPDEST DUP2 PUSH1 0x1 PUSH1 0x1 PUSH1 0xA0 SHL SUB AND PUSH2 0x7AE DUP3 PUSH2 0x38C JUMP JUMPDEST PUSH1 0x1 PUSH1 0x1 PUSH1 0xA0 SHL SUB AND EQ PUSH2 0x7D4 JUMPI PUSH1 0x40 MLOAD PUSH3 0x461BCD PUSH1 0xE5 SHL DUP2 MSTORE PUSH1 0x4 ADD PUSH2 0x1F7 SWAP1 PUSH2 0x1232 JUMP JUMPDEST PUSH2 0x7DD DUP2 PUSH2 0x740 JUMP JUMPDEST PUSH1 0x1 PUSH1 0x1 PUSH1 0xA0 SHL SUB DUP3 AND PUSH1 0x0 SWAP1 DUP2 MSTORE PUSH1 0x3 PUSH1 0x20 MSTORE PUSH1 0x40 SWAP1 KECCAK256 PUSH2 0x7FE SWAP1 PUSH2 0x77B JUMP JUMPDEST PUSH1 0x0 DUP2 DUP2 MSTORE PUSH1 0x1 PUSH1 0x20 MSTORE PUSH1 0x40 DUP1 DUP3 KECCAK256 DUP1 SLOAD PUSH1 0x1 PUSH1 0x1 PUSH1 0xA0 SHL SUB NOT AND SWAP1 SSTORE MLOAD DUP3 SWAP2 SWAP1 PUSH1 0x1 PUSH1 0x1 PUSH1 0xA0 SHL SUB DUP6 AND SWAP1 PUSH32 0xDDF252AD1BE2C89B69C2B068FC378DAA952BA7F163C4A11628F55A4DF523B3EF SWAP1 DUP4 SWAP1 LOG4 POP POP JUMP JUMPDEST PUSH1 0x0 PUSH2 0x867 DUP5 PUSH1 0x1 PUSH1 0x1 PUSH1 0xA0 SHL SUB AND PUSH2 0x9D6 JUMP JUMPDEST PUSH2 0x873 JUMPI POP PUSH1 0x1 PUSH2 0x5E9 JUMP JUMPDEST PUSH1 0x0 PUSH1 0x60 PUSH1 0x1 PUSH1 0x1 PUSH1 0xA0 SHL SUB DUP7 AND PUSH4 0xA85BD01 PUSH1 0xE1 SHL PUSH2 0x891 PUSH2 0x568 JUMP JUMPDEST DUP10 DUP9 DUP9 PUSH1 0x40 MLOAD PUSH1 0x24 ADD PUSH2 0x8A7 SWAP5 SWAP4 SWAP3 SWAP2 SWAP1 PUSH2 0x111F JUMP JUMPDEST PUSH1 0x40 DUP1 MLOAD PUSH1 0x1F NOT DUP2 DUP5 SUB ADD DUP2 MSTORE SWAP2 DUP2 MSTORE PUSH1 0x20 DUP3 ADD DUP1 MLOAD PUSH1 0x1 PUSH1 0x1 PUSH1 0xE0 SHL SUB AND PUSH1 0x1 PUSH1 0x1 PUSH1 0xE0 SHL SUB NOT SWAP1 SWAP5 AND SWAP4 SWAP1 SWAP4 OR SWAP1 SWAP3 MSTORE SWAP1 MLOAD PUSH2 0x8E5 SWAP2 SWAP1 PUSH2 0x1105 JUMP JUMPDEST PUSH1 0x0 PUSH1 0x40 MLOAD DUP1 DUP4 SUB DUP2 PUSH1 0x0 DUP7 GAS CALL SWAP2 POP POP RETURNDATASIZE DUP1 PUSH1 0x0 DUP2 EQ PUSH2 0x922 JUMPI PUSH1 0x40 MLOAD SWAP2 POP PUSH1 0x1F NOT PUSH1 0x3F RETURNDATASIZE ADD AND DUP3 ADD PUSH1 0x40 MSTORE RETURNDATASIZE DUP3 MSTORE RETURNDATASIZE PUSH1 0x0 PUSH1 0x20 DUP5 ADD RETURNDATACOPY PUSH2 0x927 JUMP JUMPDEST PUSH1 0x60 SWAP2 POP JUMPDEST POP SWAP2 POP SWAP2 POP DUP2 PUSH2 0x959 JUMPI DUP1 MLOAD ISZERO PUSH2 0x941 JUMPI DUP1 MLOAD DUP1 DUP3 PUSH1 0x20 ADD REVERT JUMPDEST PUSH1 0x40 MLOAD PUSH3 0x461BCD PUSH1 0xE5 SHL DUP2 MSTORE PUSH1 0x4 ADD PUSH2 0x1F7 SWAP1 PUSH2 0x1182 JUMP JUMPDEST PUSH1 0x0 DUP2 DUP1 PUSH1 0x20 ADD SWAP1 MLOAD PUSH2 0x96F SWAP2 SWAP1 DUP2 ADD SWAP1 PUSH2 0xC62 JUMP JUMPDEST PUSH1 0x1 PUSH1 0x1 PUSH1 0xE0 SHL SUB NOT AND PUSH4 0xA85BD01 PUSH1 0xE1 SHL EQ SWAP4 POP PUSH2 0x5E9 SWAP3 POP POP POP JUMP JUMPDEST PUSH1 0x0 PUSH2 0x9CF DUP4 DUP4 PUSH1 0x40 MLOAD DUP1 PUSH1 0x40 ADD PUSH1 0x40 MSTORE DUP1 PUSH1 0x1E DUP2 MSTORE PUSH1 0x20 ADD PUSH32 0x536166654D6174683A207375627472616374696F6E206F766572666C6F770000 DUP2 MSTORE POP PUSH2 0xA0F JUMP JUMPDEST SWAP4 SWAP3 POP POP POP JUMP JUMPDEST PUSH1 0x0 DUP2 EXTCODEHASH PUSH32 0xC5D2460186F7233C927E7DB2DCC703C0E500B653CA82273B7BFAD8045D85A470 DUP2 DUP2 EQ DUP1 ISZERO SWAP1 PUSH2 0x5E9 JUMPI POP POP ISZERO ISZERO SWAP3 SWAP2 POP POP JUMP JUMPDEST PUSH1 0x0 DUP2 DUP5 DUP5 GT ISZERO PUSH2 0xA33 JUMPI PUSH1 0x40 MLOAD PUSH3 0x461BCD PUSH1 0xE5 SHL DUP2 MSTORE PUSH1 0x4 ADD PUSH2 0x1F7 SWAP2 SWAP1 PUSH2 0x1171 JUMP JUMPDEST POP POP POP SWAP1 SUB SWAP1 JUMP JUMPDEST DUP1 CALLDATALOAD PUSH2 0x3C1 DUP2 PUSH2 0x132F JUMP JUMPDEST DUP1 CALLDATALOAD PUSH2 0x3C1 DUP2 PUSH2 0x1343 JUMP JUMPDEST DUP1 CALLDATALOAD PUSH2 0x3C1 DUP2 PUSH2 0x134C JUMP JUMPDEST DUP1 MLOAD PUSH2 0x3C1 DUP2 PUSH2 0x134C JUMP JUMPDEST PUSH1 0x0 DUP3 PUSH1 0x1F DUP4 ADD SLT PUSH2 0xA78 JUMPI PUSH1 0x0 DUP1 REVERT JUMPDEST DUP2 CALLDATALOAD PUSH2 0xA8B PUSH2 0xA86 DUP3 PUSH2 0x1287 JUMP JUMPDEST PUSH2 0x1260 JUMP JUMPDEST SWAP2 POP DUP1 DUP3 MSTORE PUSH1 0x20 DUP4 ADD PUSH1 0x20 DUP4 ADD DUP6 DUP4 DUP4 ADD GT ISZERO PUSH2 0xAA7 JUMPI PUSH1 0x0 DUP1 REVERT JUMPDEST PUSH2 0xAB2 DUP4 DUP3 DUP5 PUSH2 0x12ED JUMP JUMPDEST POP POP POP SWAP3 SWAP2 POP POP JUMP JUMPDEST DUP1 CALLDATALOAD PUSH2 0x3C1 DUP2 PUSH2 0x1355 JUMP JUMPDEST PUSH1 0x0 PUSH1 0x20 DUP3 DUP5 SUB SLT ISZERO PUSH2 0xAD8 JUMPI PUSH1 0x0 DUP1 REVERT JUMPDEST PUSH1 0x0 PUSH2 0x5E9 DUP5 DUP5 PUSH2 0xA3B JUMP JUMPDEST PUSH1 0x0 DUP1 PUSH1 0x40 DUP4 DUP6 SUB SLT ISZERO PUSH2 0xAF7 JUMPI PUSH1 0x0 DUP1 REVERT JUMPDEST PUSH1 0x0 PUSH2 0xB03 DUP6 DUP6 PUSH2 0xA3B JUMP JUMPDEST SWAP3 POP POP PUSH1 0x20 PUSH2 0xB14 DUP6 DUP3 DUP7 ADD PUSH2 0xA3B JUMP JUMPDEST SWAP2 POP POP SWAP3 POP SWAP3 SWAP1 POP JUMP JUMPDEST PUSH1 0x0 DUP1 PUSH1 0x0 PUSH1 0x60 DUP5 DUP7 SUB SLT ISZERO PUSH2 0xB33 JUMPI PUSH1 0x0 DUP1 REVERT JUMPDEST PUSH1 0x0 PUSH2 0xB3F DUP7 DUP7 PUSH2 0xA3B JUMP JUMPDEST SWAP4 POP POP PUSH1 0x20 PUSH2 0xB50 DUP7 DUP3 DUP8 ADD PUSH2 0xA3B JUMP JUMPDEST SWAP3 POP POP PUSH1 0x40 PUSH2 0xB61 DUP7 DUP3 DUP8 ADD PUSH2 0xABB JUMP JUMPDEST SWAP2 POP POP SWAP3 POP SWAP3 POP SWAP3 JUMP JUMPDEST PUSH1 0x0 DUP1 PUSH1 0x0 DUP1 PUSH1 0x80 DUP6 DUP8 SUB SLT ISZERO PUSH2 0xB81 JUMPI PUSH1 0x0 DUP1 REVERT JUMPDEST PUSH1 0x0 PUSH2 0xB8D DUP8 DUP8 PUSH2 0xA3B JUMP JUMPDEST SWAP5 POP POP PUSH1 0x20 PUSH2 0xB9E DUP8 DUP3 DUP9 ADD PUSH2 0xA3B JUMP JUMPDEST SWAP4 POP POP PUSH1 0x40 PUSH2 0xBAF DUP8 DUP3 DUP9 ADD PUSH2 0xABB JUMP JUMPDEST SWAP3 POP POP PUSH1 0x60 DUP6 ADD CALLDATALOAD PUSH8 0xFFFFFFFFFFFFFFFF DUP2 GT ISZERO PUSH2 0xBCC JUMPI PUSH1 0x0 DUP1 REVERT JUMPDEST PUSH2 0xBD8 DUP8 DUP3 DUP9 ADD PUSH2 0xA67 JUMP JUMPDEST SWAP2 POP POP SWAP3 SWAP6 SWAP2 SWAP5 POP SWAP3 POP JUMP JUMPDEST PUSH1 0x0 DUP1 PUSH1 0x40 DUP4 DUP6 SUB SLT ISZERO PUSH2 0xBF7 JUMPI PUSH1 0x0 DUP1 REVERT JUMPDEST PUSH1 0x0 PUSH2 0xC03 DUP6 DUP6 PUSH2 0xA3B JUMP JUMPDEST SWAP3 POP POP PUSH1 0x20 PUSH2 0xB14 DUP6 DUP3 DUP7 ADD PUSH2 0xA46 JUMP JUMPDEST PUSH1 0x0 DUP1 PUSH1 0x40 DUP4 DUP6 SUB SLT ISZERO PUSH2 0xC27 JUMPI PUSH1 0x0 DUP1 REVERT JUMPDEST PUSH1 0x0 PUSH2 0xC33 DUP6 DUP6 PUSH2 0xA3B JUMP JUMPDEST SWAP3 POP POP PUSH1 0x20 PUSH2 0xB14 DUP6 DUP3 DUP7 ADD PUSH2 0xABB JUMP JUMPDEST PUSH1 0x0 PUSH1 0x20 DUP3 DUP5 SUB SLT ISZERO PUSH2 0xC56 JUMPI PUSH1 0x0 DUP1 REVERT JUMPDEST PUSH1 0x0 PUSH2 0x5E9 DUP5 DUP5 PUSH2 0xA51 JUMP JUMPDEST PUSH1 0x0 PUSH1 0x20 DUP3 DUP5 SUB SLT ISZERO PUSH2 0xC74 JUMPI PUSH1 0x0 DUP1 REVERT JUMPDEST PUSH1 0x0 PUSH2 0x5E9 DUP5 DUP5 PUSH2 0xA5C JUMP JUMPDEST PUSH1 0x0 PUSH1 0x20 DUP3 DUP5 SUB SLT ISZERO PUSH2 0xC92 JUMPI PUSH1 0x0 DUP1 REVERT JUMPDEST PUSH1 0x0 PUSH2 0x5E9 DUP5 DUP5 PUSH2 0xABB JUMP JUMPDEST PUSH2 0xCA7 DUP2 PUSH2 0x12C1 JUMP JUMPDEST DUP3 MSTORE POP POP JUMP JUMPDEST PUSH2 0xCA7 DUP2 PUSH2 0x12CC JUMP JUMPDEST PUSH1 0x0 PUSH2 0xCC1 DUP3 PUSH2 0x12AF JUMP JUMPDEST PUSH2 0xCCB DUP2 DUP6 PUSH2 0x12B3 JUMP JUMPDEST SWAP4 POP PUSH2 0xCDB DUP2 DUP6 PUSH1 0x20 DUP7 ADD PUSH2 0x12F9 JUMP JUMPDEST PUSH2 0xCE4 DUP2 PUSH2 0x1325 JUMP JUMPDEST SWAP1 SWAP4 ADD SWAP4 SWAP3 POP POP POP JUMP JUMPDEST PUSH1 0x0 PUSH2 0xCF9 DUP3 PUSH2 0x12AF JUMP JUMPDEST PUSH2 0xD03 DUP2 DUP6 PUSH2 0x12BC JUMP JUMPDEST SWAP4 POP PUSH2 0xD13 DUP2 DUP6 PUSH1 0x20 DUP7 ADD PUSH2 0x12F9 JUMP JUMPDEST SWAP3 SWAP1 SWAP3 ADD SWAP3 SWAP2 POP POP JUMP JUMPDEST PUSH1 0x0 PUSH2 0xD2A PUSH1 0x32 DUP4 PUSH2 0x12B3 JUMP JUMPDEST PUSH32 0x4552433732313A207472616E7366657220746F206E6F6E204552433732315265 DUP2 MSTORE PUSH18 0x31B2B4BB32B91034B6B83632B6B2B73A32B9 PUSH1 0x71 SHL PUSH1 0x20 DUP3 ADD MSTORE PUSH1 0x40 ADD SWAP3 SWAP2 POP POP JUMP JUMPDEST PUSH1 0x0 PUSH2 0xD7E PUSH1 0x24 DUP4 PUSH2 0x12B3 JUMP JUMPDEST PUSH32 0x4552433732313A207472616E7366657220746F20746865207A65726F20616464 DUP2 MSTORE PUSH4 0x72657373 PUSH1 0xE0 SHL PUSH1 0x20 DUP3 ADD MSTORE PUSH1 0x40 ADD SWAP3 SWAP2 POP POP JUMP JUMPDEST PUSH1 0x0 PUSH2 0xDC4 PUSH1 0x19 DUP4 PUSH2 0x12B3 JUMP JUMPDEST PUSH32 0x4552433732313A20617070726F766520746F2063616C6C657200000000000000 DUP2 MSTORE PUSH1 0x20 ADD SWAP3 SWAP2 POP POP JUMP JUMPDEST PUSH1 0x0 PUSH2 0xDFD PUSH1 0x2C DUP4 PUSH2 0x12B3 JUMP JUMPDEST PUSH32 0x4552433732313A206F70657261746F7220717565727920666F72206E6F6E6578 DUP2 MSTORE PUSH12 0x34B9BA32B73A103A37B5B2B7 PUSH1 0xA1 SHL PUSH1 0x20 DUP3 ADD MSTORE PUSH1 0x40 ADD SWAP3 SWAP2 POP POP JUMP JUMPDEST PUSH1 0x0 PUSH2 0xE4B PUSH1 0x38 DUP4 PUSH2 0x12B3 JUMP JUMPDEST PUSH32 0x4552433732313A20617070726F76652063616C6C6572206973206E6F74206F77 DUP2 MSTORE PUSH32 0x6E6572206E6F7220617070726F76656420666F7220616C6C0000000000000000 PUSH1 0x20 DUP3 ADD MSTORE PUSH1 0x40 ADD SWAP3 SWAP2 POP POP JUMP JUMPDEST PUSH1 0x0 PUSH2 0xEAA PUSH1 0x2A DUP4 PUSH2 0x12B3 JUMP JUMPDEST PUSH32 0x4552433732313A2062616C616E636520717565727920666F7220746865207A65 DUP2 MSTORE PUSH10 0x726F2061646472657373 PUSH1 0xB0 SHL PUSH1 0x20 DUP3 ADD MSTORE PUSH1 0x40 ADD SWAP3 SWAP2 POP POP JUMP JUMPDEST PUSH1 0x0 PUSH2 0xEF6 PUSH1 0x29 DUP4 PUSH2 0x12B3 JUMP JUMPDEST PUSH32 0x4552433732313A206F776E657220717565727920666F72206E6F6E6578697374 DUP2 MSTORE PUSH9 0x32B73A103A37B5B2B7 PUSH1 0xB9 SHL PUSH1 0x20 DUP3 ADD MSTORE PUSH1 0x40 ADD SWAP3 SWAP2 POP POP JUMP JUMPDEST PUSH1 0x0 PUSH2 0xF41 PUSH1 0x2C DUP4 PUSH2 0x12B3 JUMP JUMPDEST PUSH32 0x4552433732313A20617070726F76656420717565727920666F72206E6F6E6578 DUP2 MSTORE PUSH12 0x34B9BA32B73A103A37B5B2B7 PUSH1 0xA1 SHL PUSH1 0x20 DUP3 ADD MSTORE PUSH1 0x40 ADD SWAP3 SWAP2 POP POP JUMP JUMPDEST PUSH1 0x0 PUSH2 0xF8F PUSH1 0x29 DUP4 PUSH2 0x12B3 JUMP JUMPDEST PUSH32 0x4552433732313A207472616E73666572206F6620746F6B656E20746861742069 DUP2 MSTORE PUSH9 0x39903737BA1037BBB7 PUSH1 0xB9 SHL PUSH1 0x20 DUP3 ADD MSTORE PUSH1 0x40 ADD SWAP3 SWAP2 POP POP JUMP JUMPDEST PUSH1 0x0 PUSH2 0xFDA PUSH1 0x21 DUP4 PUSH2 0x12B3 JUMP JUMPDEST PUSH32 0x4552433732313A20617070726F76616C20746F2063757272656E74206F776E65 DUP2 MSTORE PUSH1 0x39 PUSH1 0xF9 SHL PUSH1 0x20 DUP3 ADD MSTORE PUSH1 0x40 ADD SWAP3 SWAP2 POP POP JUMP JUMPDEST PUSH1 0x0 PUSH2 0x101D PUSH1 0x31 DUP4 PUSH2 0x12B3 JUMP JUMPDEST PUSH32 0x4552433732313A207472616E736665722063616C6C6572206973206E6F74206F DUP2 MSTORE PUSH17 0x1DDB995C881B9BDC88185C1C1C9BDD9959 PUSH1 0x7A SHL PUSH1 0x20 DUP3 ADD MSTORE PUSH1 0x40 ADD SWAP3 SWAP2 POP POP JUMP JUMPDEST PUSH1 0x0 PUSH2 0x1070 PUSH1 0x25 DUP4 PUSH2 0x12B3 JUMP JUMPDEST PUSH32 0x4552433732313A206275726E206F6620746F6B656E2074686174206973206E6F DUP2 MSTORE PUSH5 0x3A1037BBB7 PUSH1 0xD9 SHL PUSH1 0x20 DUP3 ADD MSTORE PUSH1 0x40 ADD SWAP3 SWAP2 POP POP JUMP JUMPDEST PUSH1 0x0 PUSH2 0x10B7 PUSH1 0x30 DUP4 PUSH2 0x12B3 JUMP JUMPDEST PUSH32 0x4552433732314275726E61626C653A2063616C6C6572206973206E6F74206F77 DUP2 MSTORE PUSH16 0x1B995C881B9BDC88185C1C1C9BDD9959 PUSH1 0x82 SHL PUSH1 0x20 DUP3 ADD MSTORE PUSH1 0x40 ADD SWAP3 SWAP2 POP POP JUMP JUMPDEST PUSH2 0xCA7 DUP2 PUSH2 0x12EA JUMP JUMPDEST PUSH1 0x0 PUSH2 0x9CF DUP3 DUP5 PUSH2 0xCEE JUMP JUMPDEST PUSH1 0x20 DUP2 ADD PUSH2 0x3C1 DUP3 DUP5 PUSH2 0xC9E JUMP JUMPDEST PUSH1 0x80 DUP2 ADD PUSH2 0x112D DUP3 DUP8 PUSH2 0xC9E JUMP JUMPDEST PUSH2 0x113A PUSH1 0x20 DUP4 ADD DUP7 PUSH2 0xC9E JUMP JUMPDEST PUSH2 0x1147 PUSH1 0x40 DUP4 ADD DUP6 PUSH2 0x10FC JUMP JUMPDEST DUP2 DUP2 SUB PUSH1 0x60 DUP4 ADD MSTORE PUSH2 0x1159 DUP2 DUP5 PUSH2 0xCB6 JUMP JUMPDEST SWAP7 SWAP6 POP POP POP POP POP POP JUMP JUMPDEST PUSH1 0x20 DUP2 ADD PUSH2 0x3C1 DUP3 DUP5 PUSH2 0xCAD JUMP JUMPDEST PUSH1 0x20 DUP1 DUP3 MSTORE DUP2 ADD PUSH2 0x9CF DUP2 DUP5 PUSH2 0xCB6 JUMP JUMPDEST PUSH1 0x20 DUP1 DUP3 MSTORE DUP2 ADD PUSH2 0x3C1 DUP2 PUSH2 0xD1D JUMP JUMPDEST PUSH1 0x20 DUP1 DUP3 MSTORE DUP2 ADD PUSH2 0x3C1 DUP2 PUSH2 0xD71 JUMP JUMPDEST PUSH1 0x20 DUP1 DUP3 MSTORE DUP2 ADD PUSH2 0x3C1 DUP2 PUSH2 0xDB7 JUMP JUMPDEST PUSH1 0x20 DUP1 DUP3 MSTORE DUP2 ADD PUSH2 0x3C1 DUP2 PUSH2 0xDF0 JUMP JUMPDEST PUSH1 0x20 DUP1 DUP3 MSTORE DUP2 ADD PUSH2 0x3C1 DUP2 PUSH2 0xE3E JUMP JUMPDEST PUSH1 0x20 DUP1 DUP3 MSTORE DUP2 ADD PUSH2 0x3C1 DUP2 PUSH2 0xE9D JUMP JUMPDEST PUSH1 0x20 DUP1 DUP3 MSTORE DUP2 ADD PUSH2 0x3C1 DUP2 PUSH2 0xEE9 JUMP JUMPDEST PUSH1 0x20 DUP1 DUP3 MSTORE DUP2 ADD PUSH2 0x3C1 DUP2 PUSH2 0xF34 JUMP JUMPDEST PUSH1 0x20 DUP1 DUP3 MSTORE DUP2 ADD PUSH2 0x3C1 DUP2 PUSH2 0xF82 JUMP JUMPDEST PUSH1 0x20 DUP1 DUP3 MSTORE DUP2 ADD PUSH2 0x3C1 DUP2 PUSH2 0xFCD JUMP JUMPDEST PUSH1 0x20 DUP1 DUP3 MSTORE DUP2 ADD PUSH2 0x3C1 DUP2 PUSH2 0x1010 JUMP JUMPDEST PUSH1 0x20 DUP1 DUP3 MSTORE DUP2 ADD PUSH2 0x3C1 DUP2 PUSH2 0x1063 JUMP JUMPDEST PUSH1 0x20 DUP1 DUP3 MSTORE DUP2 ADD PUSH2 0x3C1 DUP2 PUSH2 0x10AA JUMP JUMPDEST PUSH1 0x20 DUP2 ADD PUSH2 0x3C1 DUP3 DUP5 PUSH2 0x10FC JUMP JUMPDEST PUSH1 0x40 MLOAD DUP2 DUP2 ADD PUSH8 0xFFFFFFFFFFFFFFFF DUP2 GT DUP3 DUP3 LT OR ISZERO PUSH2 0x127F JUMPI PUSH1 0x0 DUP1 REVERT JUMPDEST PUSH1 0x40 MSTORE SWAP2 SWAP1 POP JUMP JUMPDEST PUSH1 0x0 PUSH8 0xFFFFFFFFFFFFFFFF DUP3 GT ISZERO PUSH2 0x129E JUMPI PUSH1 0x0 DUP1 REVERT JUMPDEST POP PUSH1 0x20 PUSH1 0x1F SWAP2 SWAP1 SWAP2 ADD PUSH1 0x1F NOT AND ADD SWAP1 JUMP JUMPDEST MLOAD SWAP1 JUMP JUMPDEST SWAP1 DUP2 MSTORE PUSH1 0x20 ADD SWAP1 JUMP JUMPDEST SWAP2 SWAP1 POP JUMP JUMPDEST PUSH1 0x0 PUSH2 0x3C1 DUP3 PUSH2 0x12DE JUMP JUMPDEST ISZERO ISZERO SWAP1 JUMP JUMPDEST PUSH1 0x1 PUSH1 0x1 PUSH1 0xE0 SHL SUB NOT AND SWAP1 JUMP JUMPDEST PUSH1 0x1 PUSH1 0x1 PUSH1 0xA0 SHL SUB AND SWAP1 JUMP JUMPDEST SWAP1 JUMP JUMPDEST DUP3 DUP2 DUP4 CALLDATACOPY POP PUSH1 0x0 SWAP2 ADD MSTORE JUMP JUMPDEST PUSH1 0x0 JUMPDEST DUP4 DUP2 LT ISZERO PUSH2 0x1314 JUMPI DUP2 DUP2 ADD MLOAD DUP4 DUP3 ADD MSTORE PUSH1 0x20 ADD PUSH2 0x12FC JUMP JUMPDEST DUP4 DUP2 GT ISZERO PUSH2 0x517 JUMPI POP POP PUSH1 0x0 SWAP2 ADD MSTORE JUMP JUMPDEST PUSH1 0x1F ADD PUSH1 0x1F NOT AND SWAP1 JUMP JUMPDEST PUSH2 0x1338 DUP2 PUSH2 0x12C1 JUMP JUMPDEST DUP2 EQ PUSH2 0x389 JUMPI PUSH1 0x0 DUP1 REVERT JUMPDEST PUSH2 0x1338 DUP2 PUSH2 0x12CC JUMP JUMPDEST PUSH2 0x1338 DUP2 PUSH2 0x12D1 JUMP JUMPDEST PUSH2 0x1338 DUP2 PUSH2 0x12EA JUMP INVALID LOG3 PUSH6 0x627A7A723158 KECCAK256 ISZERO 0xB1 CREATE2 SWAP5 SELFDESTRUCT DUP6 0x21 0xBC CREATE 0xA8 0xEC PUSH26 0xB805521BB138D7718D557E32C5B5FC0228A129276C6578706572 PUSH10 0x6D656E74616CF564736F PUSH13 0x63430005110040000000000000 "
		},
		"gasEstimates": {
			"creation": {
				"codeDepositCost": "1005000",
				"executionCost": "infinite",
				"totalCost": "infinite"
			},
			"external": {
				"approve(address,uint256)": "infinite",
				"balanceOf(address)": "infinite",
				"burn(uint256)": "infinite",
				"getApproved(uint256)": "infinite",
				"isApprovedForAll(address,address)": "infinite",
				"ownerOf(uint256)": "infinite",
				"safeTransferFrom(address,address,uint256)": "infinite",
				"safeTransferFrom(address,address,uint256,bytes)": "infinite",
				"setApprovalForAll(address,bool)": "infinite",
				"supportsInterface(bytes4)": "infinite",
				"transferFrom(address,address,uint256)": "infinite"
			}
		},
		"methodIdentifiers": {
			"approve(address,uint256)": "095ea7b3",
			"balanceOf(address)": "70a08231",
			"burn(uint256)": "42966c68",
			"getApproved(uint256)": "081812fc",
			"isApprovedForAll(address,address)": "e985e9c5",
			"ownerOf(uint256)": "6352211e",
			"safeTransferFrom(address,address,uint256)": "42842e0e",
			"safeTransferFrom(address,address,uint256,bytes)": "b88d4fde",
			"setApprovalForAll(address,bool)": "a22cb465",
			"supportsInterface(bytes4)": "01ffc9a7",
			"transferFrom(address,address,uint256)": "23b872dd"
		}
	},
	"abi": [
		{
			"anonymous": false,
			"inputs": [
				{
					"indexed": true,
					"internalType": "address",
					"name": "owner",
					"type": "address"
				},
				{
					"indexed": true,
					"internalType": "address",
					"name": "approved",
					"type": "address"
				},
				{
					"indexed": true,
					"internalType": "uint256",
					"name": "tokenId",
					"type": "uint256"
				}
			],
			"name": "Approval",
			"type": "event"
		},
		{
			"anonymous": false,
			"inputs": [
				{
					"indexed": true,
					"internalType": "address",
					"name": "owner",
					"type": "address"
				},
				{
					"indexed": true,
					"internalType": "address",
					"name": "operator",
					"type": "address"
				},
				{
					"indexed": false,
					"internalType": "bool",
					"name": "approved",
					"type": "bool"
				}
			],
			"name": "ApprovalForAll",
			"type": "event"
		},
		{
			"anonymous": false,
			"inputs": [
				{
					"indexed": true,
					"internalType": "address",
					"name": "from",
					"type": "address"
				},
				{
					"indexed": true,
					"internalType": "address",
					"name": "to",
					"type": "address"
				},
				{
					"indexed": true,
					"internalType": "uint256",
					"name": "tokenId",
					"type": "uint256"
				}
			],
			"name": "Transfer",
			"type": "event"
		},
		{
			"constant": false,
			"inputs": [
				{
					"internalType": "address",
					"name": "to",
					"type": "address"
				},
				{
					"internalType": "uint256",
					"name": "tokenId",
					"type": "uint256"
				}
			],
			"name": "approve",
			"outputs": [],
			"payable": false,
			"stateMutability": "nonpayable",
			"type": "function"
		},
		{
			"constant": true,
			"inputs": [
				{
					"internalType": "address",
					"name": "owner",
					"type": "address"
				}
			],
			"name": "balanceOf",
			"outputs": [
				{
					"internalType": "uint256",
					"name": "",
					"type": "uint256"
				}
			],
			"payable": false,
			"stateMutability": "view",
			"type": "function"
		},
		{
			"constant": false,
			"inputs": [
				{
					"internalType": "uint256",
					"name": "tokenId",
					"type": "uint256"
				}
			],
			"name": "burn",
			"outputs": [],
			"payable": false,
			"stateMutability": "nonpayable",
			"type": "function"
		},
		{
			"constant": true,
			"inputs": [
				{
					"internalType": "uint256",
					"name": "tokenId",
					"type": "uint256"
				}
			],
			"name": "getApproved",
			"outputs": [
				{
					"internalType": "address",
					"name": "",
					"type": "address"
				}
			],
			"payable": false,
			"stateMutability": "view",
			"type": "function"
		},
		{
			"constant": true,
			"inputs": [
				{
					"internalType": "address",
					"name": "owner",
					"type": "address"
				},
				{
					"internalType": "address",
					"name": "operator",
					"type": "address"
				}
			],
			"name": "isApprovedForAll",
			"outputs": [
				{
					"internalType": "bool",
					"name": "",
					"type": "bool"
				}
			],
			"payable": false,
			"stateMutability": "view",
			"type": "function"
		},
		{
			"constant": true,
			"inputs": [
				{
					"internalType": "uint256",
					"name": "tokenId",
					"type": "uint256"
				}
			],
			"name": "ownerOf",
			"outputs": [
				{
					"internalType": "address",
					"name": "",
					"type": "address"
				}
			],
			"payable": false,
			"stateMutability": "view",
			"type": "function"
		},
		{
			"constant": false,
			"inputs": [
				{
					"internalType": "address",
					"name": "from",
					"type": "address"
				},
				{
					"internalType": "address",
					"name": "to",
					"type": "address"
				},
				{
					"internalType": "uint256",
					"name": "tokenId",
					"type": "uint256"
				}
			],
			"name": "safeTransferFrom",
			"outputs": [],
			"payable": false,
			"stateMutability": "nonpayable",
			"type": "function"
		},
		{
			"constant": false,
			"inputs": [
				{
					"internalType": "address",
					"name": "from",
					"type": "address"
				},
				{
					"internalType": "address",
					"name": "to",
					"type": "address"
				},
				{
					"internalType": "uint256",
					"name": "tokenId",
					"type": "uint256"
				},
				{
					"internalType": "bytes",
					"name": "_data",
					"type": "bytes"
				}
			],
			"name": "safeTransferFrom",
			"outputs": [],
			"payable": false,
			"stateMutability": "nonpayable",
			"type": "function"
		},
		{
			"constant": false,
			"inputs": [
				{
					"internalType": "address",
					"name": "to",
					"type": "address"
				},
				{
					"internalType": "bool",
					"name": "approved",
					"type": "bool"
				}
			],
			"name": "setApprovalForAll",
			"outputs": [],
			"payable": false,
			"stateMutability": "nonpayable",
			"type": "function"
		},
		{
			"constant": true,
			"inputs": [
				{
					"internalType": "bytes4",
					"name": "interfaceId",
					"type": "bytes4"
				}
			],
			"name": "supportsInterface",
			"outputs": [
				{
					"internalType": "bool",
					"name": "",
					"type": "bool"
				}
			],
			"payable": false,
			"stateMutability": "view",
			"type": "function"
		},
		{
			"constant": false,
			"inputs": [
				{
					"internalType": "address",
					"name": "from",
					"type": "address"
				},
				{
					"internalType": "address",
					"name": "to",
					"type": "address"
				},
				{
					"internalType": "uint256",
					"name": "tokenId",
					"type": "uint256"
				}
			],
			"name": "transferFrom",
			"outputs": [],
			"payable": false,
			"stateMutability": "nonpayable",
			"type": "function"
		}
	]
}