{
	"data": {
		"bytecode": {
			"linkReferences": {},
			"object": "608060405234801561001057600080fd5b5060405161055e38038061055e83398101604081905261002f916101c2565b6100486301ffc9a760e01b6001600160e01b0361007b16565b805161005b9060019060208401906100d3565b5061007563e8a3d48560e01b6001600160e01b0361007b16565b506102d3565b6001600160e01b031980821614156100ae5760405162461bcd60e51b81526004016100a590610237565b60405180910390fd5b6001600160e01b0319166000908152602081905260409020805460ff19166001179055565b828054600181600116156101000203166002900490600052602060002090601f016020900481019282601f1061011457805160ff1916838001178555610141565b82800160010185558215610141579182015b82811115610141578251825591602001919060010190610126565b5061014d929150610151565b5090565b61016b91905b8082111561014d5760008155600101610157565b90565b600082601f83011261017f57600080fd5b815161019261018d82610273565b61024d565b915080825260208301602083018583830111156101ae57600080fd5b6101b98382846102a3565b50505092915050565b6000602082840312156101d457600080fd5b81516001600160401b038111156101ea57600080fd5b6101f68482850161016e565b949350505050565b600061020b601c8361029a565b7f4552433136353a20696e76616c696420696e7465726661636520696400000000815260200192915050565b60208082528101610247816101fe565b92915050565b6040518181016001600160401b038111828210171561026b57600080fd5b604052919050565b60006001600160401b0382111561028957600080fd5b506020601f91909101601f19160190565b90815260200190565b60005b838110156102be5781810151838201526020016102a6565b838111156102cd576000848401525b50505050565b61027c806102e26000396000f3fe608060405234801561001057600080fd5b50600436106100365760003560e01c806301ffc9a71461003b578063e8a3d48514610064575b600080fd5b61004e610049366004610136565b610079565b60405161005b91906101a3565b60405180910390f35b61006c610098565b60405161005b91906101b1565b6001600160e01b03191660009081526020819052604090205460ff1690565b60018054604080516020600284861615610100026000190190941693909304601f8101849004840282018401909252818152929183018282801561011d5780601f106100f25761010080835404028352916020019161011d565b820191906000526020600020905b81548152906001019060200180831161010057829003601f168201915b505050505081565b803561013081610222565b92915050565b60006020828403121561014857600080fd5b60006101548484610125565b949350505050565b610165816101d6565b82525050565b6000610176826101c9565b61018081856101cd565b93506101908185602086016101e8565b61019981610218565b9093019392505050565b60208101610130828461015c565b602080825281016101c2818461016b565b9392505050565b5190565b90815260200190565b151590565b6001600160e01b03191690565b60005b838110156102035781810151838201526020016101eb565b83811115610212576000848401525b50505050565b601f01601f191690565b61022b816101db565b811461023657600080fd5b5056fea365627a7a7231582042a91ea2340c56aef179416346fde30051269eb5178e9aa8bd1960719a3f129f6c6578706572696d656e74616cf564736f6c63430005110040",
			"opcodes": "PUSH1 0x80 PUSH1 0x40 MSTORE CALLVALUE DUP1 ISZERO PUSH2 0x10 JUMPI PUSH1 0x0 DUP1 REVERT JUMPDEST POP PUSH1 0x40 MLOAD PUSH2 0x55E CODESIZE SUB DUP1 PUSH2 0x55E DUP4 CODECOPY DUP2 ADD PUSH1 0x40 DUP2 SWAP1 MSTORE PUSH2 0x2F SWAP2 PUSH2 0x1C2 JUMP JUMPDEST PUSH2 0x48 PUSH4 0x1FFC9A7 PUSH1 0xE0 SHL PUSH1 0x1 PUSH1 0x1 PUSH1 0xE0 SHL SUB PUSH2 0x7B AND JUMP JUMPDEST DUP1 MLOAD PUSH2 0x5B SWAP1 PUSH1 0x1 SWAP1 PUSH1 0x20 DUP5 ADD SWAP1 PUSH2 0xD3 JUMP JUMPDEST POP PUSH2 0x75 PUSH4 0xE8A3D485 PUSH1 0xE0 SHL PUSH1 0x1 PUSH1 0x1 PUSH1 0xE0 SHL SUB PUSH2 0x7B AND JUMP JUMPDEST POP PUSH2 0x2D3 JUMP JUMPDEST PUSH1 0x1 PUSH1 0x1 PUSH1 0xE0 SHL SUB NOT DUP1 DUP3 AND EQ ISZERO PUSH2 0xAE JUMPI PUSH1 0x40 MLOAD PUSH3 0x461BCD PUSH1 0xE5 SHL DUP2 MSTORE PUSH1 0x4 ADD PUSH2 0xA5 SWAP1 PUSH2 0x237 JUMP JUMPDEST PUSH1 0x40 MLOAD DUP1 SWAP2 SUB SWAP1 REVERT JUMPDEST PUSH1 0x1 PUSH1 0x1 PUSH1 0xE0 SHL SUB NOT AND PUSH1 0x0 SWAP1 DUP2 MSTORE PUSH1 0x20 DUP2 SWAP1 MSTORE PUSH1 0x40 SWAP1 KECCAK256 DUP1 SLOAD PUSH1 0xFF NOT AND PUSH1 0x1 OR SWAP1 SSTORE JUMP JUMPDEST DUP3 DUP1 SLOAD PUSH1 0x1 DUP2 PUSH1 0x1 AND ISZERO PUSH2 0x100 MUL SUB AND PUSH1 0x2 SWAP1 DIV SWAP1 PUSH1 0x0 MSTORE PUSH1 0x20 PUSH1 0x0 KECCAK256 SWAP1 PUSH1 0x1F ADD PUSH1 0x20 SWAP1 DIV DUP2 ADD SWAP3 DUP3 PUSH1 0x1F LT PUSH2 0x114 JUMPI DUP1 MLOAD PUSH1 0xFF NOT AND DUP4 DUP1 ADD OR DUP6 SSTORE PUSH2 0x141 JUMP JUMPDEST DUP3 DUP1 ADD PUSH1 0x1 ADD DUP6 SSTORE DUP3 ISZERO PUSH2 0x141 JUMPI SWAP2 DUP3 ADD JUMPDEST DUP3 DUP2 GT ISZERO PUSH2 0x141 JUMPI DUP3 MLOAD DUP3 SSTORE SWAP2 PUSH1 0x20 ADD SWAP2 SWAP1 PUSH1 0x1 ADD SWAP1 PUSH2 0x126 JUMP JUMPDEST POP PUSH2 0x14D SWAP3 SWAP2 POP PUSH2 0x151 JUMP JUMPDEST POP SWAP1 JUMP JUMPDEST PUSH2 0x16B SWAP2 SWAP1 JUMPDEST DUP1 DUP3 GT ISZERO PUSH2 0x14D JUMPI PUSH1 0x0 DUP2 SSTORE PUSH1 0x1 ADD PUSH2 0x157 JUMP JUMPDEST SWAP1 JUMP JUMPDEST PUSH1 0x0 DUP3 PUSH1 0x1F DUP4 ADD SLT PUSH2 0x17F JUMPI PUSH1 0x0 DUP1 REVERT JUMPDEST DUP2 MLOAD PUSH2 0x192 PUSH2 0x18D DUP3 PUSH2 0x273 JUMP JUMPDEST PUSH2 0x24D JUMP JUMPDEST SWAP2 POP DUP1 DUP3 MSTORE PUSH1 0x20 DUP4 ADD PUSH1 0x20 DUP4 ADD DUP6 DUP4 DUP4 ADD GT ISZERO PUSH2 0x1AE JUMPI PUSH1 0x0 DUP1 REVERT JUMPDEST PUSH2 0x1B9 DUP4 DUP3 DUP5 PUSH2 0x2A3 JUMP JUMPDEST POP POP POP SWAP3 SWAP2 POP POP JUMP JUMPDEST PUSH1 0x0 PUSH1 0x20 DUP3 DUP5 SUB SLT ISZERO PUSH2 0x1D4 JUMPI PUSH1 0x0 DUP1 REVERT JUMPDEST DUP2 MLOAD PUSH1 0x1 PUSH1 0x1 PUSH1 0x40 SHL SUB DUP2 GT ISZERO PUSH2 0x1EA JUMPI PUSH1 0x0 DUP1 REVERT JUMPDEST PUSH2 0x1F6 DUP5 DUP3 DUP6 ADD PUSH2 0x16E JUMP JUMPDEST SWAP5 SWAP4 POP POP POP POP JUMP JUMPDEST PUSH1 0x0 PUSH2 0x20B PUSH1 0x1C DUP4 PUSH2 0x29A JUMP JUMPDEST PUSH32 0x4552433136353A20696E76616C696420696E7465726661636520696400000000 DUP2 MSTORE PUSH1 0x20 ADD SWAP3 SWAP2 POP POP JUMP JUMPDEST PUSH1 0x20 DUP1 DUP3 MSTORE DUP2 ADD PUSH2 0x247 DUP2 PUSH2 0x1FE JUMP JUMPDEST SWAP3 SWAP2 POP POP JUMP JUMPDEST PUSH1 0x40 MLOAD DUP2 DUP2 ADD PUSH1 0x1 PUSH1 0x1 PUSH1 0x40 SHL SUB DUP2 GT DUP3 DUP3 LT OR ISZERO PUSH2 0x26B JUMPI PUSH1 0x0 DUP1 REVERT JUMPDEST PUSH1 0x40 MSTORE SWAP2 SWAP1 POP JUMP JUMPDEST PUSH1 0x0 PUSH1 0x1 PUSH1 0x1 PUSH1 0x40 SHL SUB DUP3 GT ISZERO PUSH2 0x289 JUMPI PUSH1 0x0 DUP1 REVERT JUMPDEST POP PUSH1 0x20 PUSH1 0x1F SWAP2 SWAP1 SWAP2 ADD PUSH1 0x1F NOT AND ADD SWAP1 JUMP JUMPDEST SWAP1 DUP2 MSTORE PUSH1 0x20 ADD SWAP1 JUMP JUMPDEST PUSH1 0x0 JUMPDEST DUP4 DUP2 LT ISZERO PUSH2 0x2BE JUMPI DUP2 DUP2 ADD MLOAD DUP4 DUP3 ADD MSTORE PUSH1 0x20 ADD PUSH2 0x2A6 JUMP JUMPDEST DUP4 DUP2 GT ISZERO PUSH2 0x2CD JUMPI PUSH1 0x0 DUP5 DUP5 ADD MSTORE JUMPDEST POP POP POP POP JUMP JUMPDEST PUSH2 0x27C DUP1 PUSH2 0x2E2 PUSH1 0x0 CODECOPY PUSH1 0x0 RETURN INVALID PUSH1 0x80 PUSH1 0x40 MSTORE CALLVALUE DUP1 ISZERO PUSH2 0x10 JUMPI PUSH1 0x0 DUP1 REVERT JUMPDEST POP PUSH1 0x4 CALLDATASIZE LT PUSH2 0x36 JUMPI PUSH1 0x0 CALLDATALOAD PUSH1 0xE0 SHR DUP1 PUSH4 0x1FFC9A7 EQ PUSH2 0x3B JUMPI DUP1 PUSH4 0xE8A3D485 EQ PUSH2 0x64 JUMPI JUMPDEST PUSH1 0x0 DUP1 REVERT JUMPDEST PUSH2 0x4E PUSH2 0x49 CALLDATASIZE PUSH1 0x4 PUSH2 0x136 JUMP JUMPDEST PUSH2 0x79 JUMP JUMPDEST PUSH1 0x40 MLOAD PUSH2 0x5B SWAP2 SWAP1 PUSH2 0x1A3 JUMP JUMPDEST PUSH1 0x40 MLOAD DUP1 SWAP2 SUB SWAP1 RETURN JUMPDEST PUSH2 0x6C PUSH2 0x98 JUMP JUMPDEST PUSH1 0x40 MLOAD PUSH2 0x5B SWAP2 SWAP1 PUSH2 0x1B1 JUMP JUMPDEST PUSH1 0x1 PUSH1 0x1 PUSH1 0xE0 SHL SUB NOT AND PUSH1 0x0 SWAP1 DUP2 MSTORE PUSH1 0x20 DUP2 SWAP1 MSTORE PUSH1 0x40 SWAP1 KECCAK256 SLOAD PUSH1 0xFF AND SWAP1 JUMP JUMPDEST PUSH1 0x1 DUP1 SLOAD PUSH1 0x40 DUP1 MLOAD PUSH1 0x20 PUSH1 0x2 DUP5 DUP7 AND ISZERO PUSH2 0x100 MUL PUSH1 0x0 NOT ADD SWAP1 SWAP5 AND SWAP4 SWAP1 SWAP4 DIV PUSH1 0x1F DUP2 ADD DUP5 SWAP1 DIV DUP5 MUL DUP3 ADD DUP5 ADD SWAP1 SWAP3 MSTORE DUP2 DUP2 MSTORE SWAP3 SWAP2 DUP4 ADD DUP3 DUP3 DUP1 ISZERO PUSH2 0x11D JUMPI DUP1 PUSH1 0x1F LT PUSH2 0xF2 JUMPI PUSH2 0x100 DUP1 DUP4 SLOAD DIV MUL DUP4 MSTORE SWAP2 PUSH1 0x20 ADD SWAP2 PUSH2 0x11D JUMP JUMPDEST DUP3 ADD SWAP2 SWAP1 PUSH1 0x0 MSTORE PUSH1 0x20 PUSH1 0x0 KECCAK256 SWAP1 JUMPDEST DUP2 SLOAD DUP2 MSTORE SWAP1 PUSH1 0x1 ADD SWAP1 PUSH1 0x20 ADD DUP1 DUP4 GT PUSH2 0x100 JUMPI DUP3 SWAP1 SUB PUSH1 0x1F AND DUP3 ADD SWAP2 JUMPDEST POP POP POP POP POP DUP2 JUMP JUMPDEST DUP1 CALLDATALOAD PUSH2 0x130 DUP2 PUSH2 0x222 JUMP JUMPDEST SWAP3 SWAP2 POP POP JUMP JUMPDEST PUSH1 0x0 PUSH1 0x20 DUP3 DUP5 SUB SLT ISZERO PUSH2 0x148 JUMPI PUSH1 0x0 DUP1 REVERT JUMPDEST PUSH1 0x0 PUSH2 0x154 DUP5 DUP5 PUSH2 0x125 JUMP JUMPDEST SWAP5 SWAP4 POP POP POP POP JUMP JUMPDEST PUSH2 0x165 DUP2 PUSH2 0x1D6 JUMP JUMPDEST DUP3 MSTORE POP POP JUMP JUMPDEST PUSH1 0x0 PUSH2 0x176 DUP3 PUSH2 0x1C9 JUMP JUMPDEST PUSH2 0x180 DUP2 DUP6 PUSH2 0x1CD JUMP JUMPDEST SWAP4 POP PUSH2 0x190 DUP2 DUP6 PUSH1 0x20 DUP7 ADD PUSH2 0x1E8 JUMP JUMPDEST PUSH2 0x199 DUP2 PUSH2 0x218 JUMP JUMPDEST SWAP1 SWAP4 ADD SWAP4 SWAP3 POP POP POP JUMP JUMPDEST PUSH1 0x20 DUP2 ADD PUSH2 0x130 DUP3 DUP5 PUSH2 0x15C JUMP JUMPDEST PUSH1 0x20 DUP1 DUP3 MSTORE DUP2 ADD PUSH2 0x1C2 DUP2 DUP5 PUSH2 0x16B JUMP JUMPDEST SWAP4 SWAP3 POP POP POP JUMP JUMPDEST MLOAD SWAP1 JUMP JUMPDEST SWAP1 DUP2 MSTORE PUSH1 0x20 ADD SWAP1 JUMP JUMPDEST ISZERO ISZERO SWAP1 JUMP JUMPDEST PUSH1 0x1 PUSH1 0x1 PUSH1 0xE0 SHL SUB NOT AND SWAP1 JUMP JUMPDEST PUSH1 0x0 JUMPDEST DUP4 DUP2 LT ISZERO PUSH2 0x203 JUMPI DUP2 DUP2 ADD MLOAD DUP4 DUP3 ADD MSTORE PUSH1 0x20 ADD PUSH2 0x1EB JUMP JUMPDEST DUP4 DUP2 GT ISZERO PUSH2 0x212 JUMPI PUSH1 0x0 DUP5 DUP5 ADD MSTORE JUMPDEST POP POP POP POP JUMP JUMPDEST PUSH1 0x1F ADD PUSH1 0x1F NOT AND SWAP1 JUMP JUMPDEST PUSH2 0x22B DUP2 PUSH2 0x1DB JUMP JUMPDEST DUP2 EQ PUSH2 0x236 JUMPI PUSH1 0x0 DUP1 REVERT JUMPDEST POP JUMP INVALID LOG3 PUSH6 0x627A7A723158 KECCAK256 TIMESTAMP 0xA9 0x1E LOG2 CALLVALUE 0xC JUMP 0xAE CALL PUSH26 0x416346FDE30051269EB5178E9AA8BD1960719A3F129F6C657870 PUSH6 0x72696D656E74 PUSH2 0x6CF5 PUSH5 0x736F6C6343 STOP SDIV GT STOP BLOCKHASH "
		},
		"gasEstimates": {
			"creation": {
				"codeDepositCost": "127200",
				"executionCost": "infinite",
				"totalCost": "infinite"
			},
			"external": {
				"contractURI()": "infinite",
				"supportsInterface(bytes4)": "infinite"
			},
			"internal": {
				"_setContractURI(string memory)": "infinite"
			}
		},
		"methodIdentifiers": {
			"contractURI()": "e8a3d485",
			"supportsInterface(bytes4)": "01ffc9a7"
		}
	},
	"abi": [
		{
			"inputs": [
				{
					"internalType": "string",
					"name": "_contractURI",
					"type": "string"
				}
			],
			"payable": false,
			"stateMutability": "nonpayable",
			"type": "constructor"
		},
		{
			"constant": true,
			"inputs": [],
			"name": "contractURI",
			"outputs": [
				{
					"internalType": "string",
					"name": "",
					"type": "string"
				}
			],
			"payable": false,
			"stateMutability": "view",
			"type": "function"
		},
		{
			"constant": true,
			"inputs": [
				{
					"internalType": "bytes4",
					"name": "interfaceId",
					"type": "bytes4"
				}
			],
			"name": "supportsInterface",
			"outputs": [
				{
					"internalType": "bool",
					"name": "",
					"type": "bool"
				}
			],
			"payable": false,
			"stateMutability": "view",
			"type": "function"
		}
	]
}