{
	"data": {
		"bytecode": {
			"linkReferences": {},
			"object": "608060405234801561001057600080fd5b506040516103b63803806103b683398101604081905261002f91610138565b8051610042906000906020840190610049565b50506101f1565b828054600181600116156101000203166002900490600052602060002090601f016020900481019282601f1061008a57805160ff19168380011785556100b7565b828001600101855582156100b7579182015b828111156100b757825182559160200191906001019061009c565b506100c39291506100c7565b5090565b6100e191905b808211156100c357600081556001016100cd565b90565b600082601f8301126100f557600080fd5b81516101086101038261019a565b610174565b9150808252602083016020830185838301111561012457600080fd5b61012f8382846101c1565b50505092915050565b60006020828403121561014a57600080fd5b81516001600160401b0381111561016057600080fd5b61016c848285016100e4565b949350505050565b6040518181016001600160401b038111828210171561019257600080fd5b604052919050565b60006001600160401b038211156101b057600080fd5b506020601f91909101601f19160190565b60005b838110156101dc5781810151838201526020016101c4565b838111156101eb576000848401525b50505050565b6101b6806102006000396000f3fe608060405234801561001057600080fd5b506004361061002b5760003560e01c8063c0ac998314610030575b600080fd5b61003861004e565b6040516100459190610114565b60405180910390f35b6000805460408051602060026001851615610100026000190190941693909304601f810184900484028201840190925281815292918301828280156100d45780601f106100a9576101008083540402835291602001916100d4565b820191906000526020600020905b8154815290600101906020018083116100b757829003601f168201915b505050505081565b60006100e78261012c565b6100f18185610130565b9350610101818560208601610139565b61010a81610169565b9093019392505050565b6020808252810161012581846100dc565b9392505050565b5190565b90815260200190565b60005b8381101561015457818101518382015260200161013c565b83811115610163576000848401525b50505050565b601f01601f19169056fea365627a7a72315820fb2866feb85b9f0c47cae7dbd2d1c3e3a5481844f7dd6423099bb16a10b828036c6578706572696d656e74616cf564736f6c63430005110040",
			"opcodes": "PUSH1 0x80 PUSH1 0x40 MSTORE CALLVALUE DUP1 ISZERO PUSH2 0x10 JUMPI PUSH1 0x0 DUP1 REVERT JUMPDEST POP PUSH1 0x40 MLOAD PUSH2 0x3B6 CODESIZE SUB DUP1 PUSH2 0x3B6 DUP4 CODECOPY DUP2 ADD PUSH1 0x40 DUP2 SWAP1 MSTORE PUSH2 0x2F SWAP2 PUSH2 0x138 JUMP JUMPDEST DUP1 MLOAD PUSH2 0x42 SWAP1 PUSH1 0x0 SWAP1 PUSH1 0x20 DUP5 ADD SWAP1 PUSH2 0x49 JUMP JUMPDEST POP POP PUSH2 0x1F1 JUMP JUMPDEST DUP3 DUP1 SLOAD PUSH1 0x1 DUP2 PUSH1 0x1 AND ISZERO PUSH2 0x100 MUL SUB AND PUSH1 0x2 SWAP1 DIV SWAP1 PUSH1 0x0 MSTORE PUSH1 0x20 PUSH1 0x0 KECCAK256 SWAP1 PUSH1 0x1F ADD PUSH1 0x20 SWAP1 DIV DUP2 ADD SWAP3 DUP3 PUSH1 0x1F LT PUSH2 0x8A JUMPI DUP1 MLOAD PUSH1 0xFF NOT AND DUP4 DUP1 ADD OR DUP6 SSTORE PUSH2 0xB7 JUMP JUMPDEST DUP3 DUP1 ADD PUSH1 0x1 ADD DUP6 SSTORE DUP3 ISZERO PUSH2 0xB7 JUMPI SWAP2 DUP3 ADD JUMPDEST DUP3 DUP2 GT ISZERO PUSH2 0xB7 JUMPI DUP3 MLOAD DUP3 SSTORE SWAP2 PUSH1 0x20 ADD SWAP2 SWAP1 PUSH1 0x1 ADD SWAP1 PUSH2 0x9C JUMP JUMPDEST POP PUSH2 0xC3 SWAP3 SWAP2 POP PUSH2 0xC7 JUMP JUMPDEST POP SWAP1 JUMP JUMPDEST PUSH2 0xE1 SWAP2 SWAP1 JUMPDEST DUP1 DUP3 GT ISZERO PUSH2 0xC3 JUMPI PUSH1 0x0 DUP2 SSTORE PUSH1 0x1 ADD PUSH2 0xCD JUMP JUMPDEST SWAP1 JUMP JUMPDEST PUSH1 0x0 DUP3 PUSH1 0x1F DUP4 ADD SLT PUSH2 0xF5 JUMPI PUSH1 0x0 DUP1 REVERT JUMPDEST DUP2 MLOAD PUSH2 0x108 PUSH2 0x103 DUP3 PUSH2 0x19A JUMP JUMPDEST PUSH2 0x174 JUMP JUMPDEST SWAP2 POP DUP1 DUP3 MSTORE PUSH1 0x20 DUP4 ADD PUSH1 0x20 DUP4 ADD DUP6 DUP4 DUP4 ADD GT ISZERO PUSH2 0x124 JUMPI PUSH1 0x0 DUP1 REVERT JUMPDEST PUSH2 0x12F DUP4 DUP3 DUP5 PUSH2 0x1C1 JUMP JUMPDEST POP POP POP SWAP3 SWAP2 POP POP JUMP JUMPDEST PUSH1 0x0 PUSH1 0x20 DUP3 DUP5 SUB SLT ISZERO PUSH2 0x14A JUMPI PUSH1 0x0 DUP1 REVERT JUMPDEST DUP2 MLOAD PUSH1 0x1 PUSH1 0x1 PUSH1 0x40 SHL SUB DUP2 GT ISZERO PUSH2 0x160 JUMPI PUSH1 0x0 DUP1 REVERT JUMPDEST PUSH2 0x16C DUP5 DUP3 DUP6 ADD PUSH2 0xE4 JUMP JUMPDEST SWAP5 SWAP4 POP POP POP POP JUMP JUMPDEST PUSH1 0x40 MLOAD DUP2 DUP2 ADD PUSH1 0x1 PUSH1 0x1 PUSH1 0x40 SHL SUB DUP2 GT DUP3 DUP3 LT OR ISZERO PUSH2 0x192 JUMPI PUSH1 0x0 DUP1 REVERT JUMPDEST PUSH1 0x40 MSTORE SWAP2 SWAP1 POP JUMP JUMPDEST PUSH1 0x0 PUSH1 0x1 PUSH1 0x1 PUSH1 0x40 SHL SUB DUP3 GT ISZERO PUSH2 0x1B0 JUMPI PUSH1 0x0 DUP1 REVERT JUMPDEST POP PUSH1 0x20 PUSH1 0x1F SWAP2 SWAP1 SWAP2 ADD PUSH1 0x1F NOT AND ADD SWAP1 JUMP JUMPDEST PUSH1 0x0 JUMPDEST DUP4 DUP2 LT ISZERO PUSH2 0x1DC JUMPI DUP2 DUP2 ADD MLOAD DUP4 DUP3 ADD MSTORE PUSH1 0x20 ADD PUSH2 0x1C4 JUMP JUMPDEST DUP4 DUP2 GT ISZERO PUSH2 0x1EB JUMPI PUSH1 0x0 DUP5 DUP5 ADD MSTORE JUMPDEST POP POP POP POP JUMP JUMPDEST PUSH2 0x1B6 DUP1 PUSH2 0x200 PUSH1 0x0 CODECOPY PUSH1 0x0 RETURN INVALID PUSH1 0x80 PUSH1 0x40 MSTORE CALLVALUE DUP1 ISZERO PUSH2 0x10 JUMPI PUSH1 0x0 DUP1 REVERT JUMPDEST POP PUSH1 0x4 CALLDATASIZE LT PUSH2 0x2B JUMPI PUSH1 0x0 CALLDATALOAD PUSH1 0xE0 SHR DUP1 PUSH4 0xC0AC9983 EQ PUSH2 0x30 JUMPI JUMPDEST PUSH1 0x0 DUP1 REVERT JUMPDEST PUSH2 0x38 PUSH2 0x4E JUMP JUMPDEST PUSH1 0x40 MLOAD PUSH2 0x45 SWAP2 SWAP1 PUSH2 0x114 JUMP JUMPDEST PUSH1 0x40 MLOAD DUP1 SWAP2 SUB SWAP1 RETURN JUMPDEST PUSH1 0x0 DUP1 SLOAD PUSH1 0x40 DUP1 MLOAD PUSH1 0x20 PUSH1 0x2 PUSH1 0x1 DUP6 AND ISZERO PUSH2 0x100 MUL PUSH1 0x0 NOT ADD SWAP1 SWAP5 AND SWAP4 SWAP1 SWAP4 DIV PUSH1 0x1F DUP2 ADD DUP5 SWAP1 DIV DUP5 MUL DUP3 ADD DUP5 ADD SWAP1 SWAP3 MSTORE DUP2 DUP2 MSTORE SWAP3 SWAP2 DUP4 ADD DUP3 DUP3 DUP1 ISZERO PUSH2 0xD4 JUMPI DUP1 PUSH1 0x1F LT PUSH2 0xA9 JUMPI PUSH2 0x100 DUP1 DUP4 SLOAD DIV MUL DUP4 MSTORE SWAP2 PUSH1 0x20 ADD SWAP2 PUSH2 0xD4 JUMP JUMPDEST DUP3 ADD SWAP2 SWAP1 PUSH1 0x0 MSTORE PUSH1 0x20 PUSH1 0x0 KECCAK256 SWAP1 JUMPDEST DUP2 SLOAD DUP2 MSTORE SWAP1 PUSH1 0x1 ADD SWAP1 PUSH1 0x20 ADD DUP1 DUP4 GT PUSH2 0xB7 JUMPI DUP3 SWAP1 SUB PUSH1 0x1F AND DUP3 ADD SWAP2 JUMPDEST POP POP POP POP POP DUP2 JUMP JUMPDEST PUSH1 0x0 PUSH2 0xE7 DUP3 PUSH2 0x12C JUMP JUMPDEST PUSH2 0xF1 DUP2 DUP6 PUSH2 0x130 JUMP JUMPDEST SWAP4 POP PUSH2 0x101 DUP2 DUP6 PUSH1 0x20 DUP7 ADD PUSH2 0x139 JUMP JUMPDEST PUSH2 0x10A DUP2 PUSH2 0x169 JUMP JUMPDEST SWAP1 SWAP4 ADD SWAP4 SWAP3 POP POP POP JUMP JUMPDEST PUSH1 0x20 DUP1 DUP3 MSTORE DUP2 ADD PUSH2 0x125 DUP2 DUP5 PUSH2 0xDC JUMP JUMPDEST SWAP4 SWAP3 POP POP POP JUMP JUMPDEST MLOAD SWAP1 JUMP JUMPDEST SWAP1 DUP2 MSTORE PUSH1 0x20 ADD SWAP1 JUMP JUMPDEST PUSH1 0x0 JUMPDEST DUP4 DUP2 LT ISZERO PUSH2 0x154 JUMPI DUP2 DUP2 ADD MLOAD DUP4 DUP3 ADD MSTORE PUSH1 0x20 ADD PUSH2 0x13C JUMP JUMPDEST DUP4 DUP2 GT ISZERO PUSH2 0x163 JUMPI PUSH1 0x0 DUP5 DUP5 ADD MSTORE JUMPDEST POP POP POP POP JUMP JUMPDEST PUSH1 0x1F ADD PUSH1 0x1F NOT AND SWAP1 JUMP INVALID LOG3 PUSH6 0x627A7A723158 KECCAK256 0xFB 0x28 PUSH7 0xFEB85B9F0C47CA 0xE7 0xDB 0xD2 0xD1 0xC3 0xE3 0xA5 0x48 XOR DIFFICULTY 0xF7 0xDD PUSH5 0x23099BB16A LT 0xB8 0x28 SUB PUSH13 0x6578706572696D656E74616CF5 PUSH5 0x736F6C6343 STOP SDIV GT STOP BLOCKHASH "
		},
		"gasEstimates": {
			"creation": {
				"codeDepositCost": "87600",
				"executionCost": "infinite",
				"totalCost": "infinite"
			},
			"external": {
				"tokenURIPrefix()": "infinite"
			},
			"internal": {
				"_clearTokenURI(uint256)": "infinite",
				"_setTokenURI(uint256,string memory)": "infinite",
				"_setTokenURIPrefix(string memory)": "infinite",
				"_tokenURI(uint256)": "infinite"
			}
		},
		"methodIdentifiers": {
			"tokenURIPrefix()": "c0ac9983"
		}
	},
	"abi": [
		{
			"inputs": [
				{
					"internalType": "string",
					"name": "_tokenURIPrefix",
					"type": "string"
				}
			],
			"payable": false,
			"stateMutability": "nonpayable",
			"type": "constructor"
		},
		{
			"constant": true,
			"inputs": [],
			"name": "tokenURIPrefix",
			"outputs": [
				{
					"internalType": "string",
					"name": "",
					"type": "string"
				}
			],
			"payable": false,
			"stateMutability": "view",
			"type": "function"
		}
	]
}