{
	"data": {
		"bytecode": {
			"linkReferences": {},
			"object": "608060405234801561001057600080fd5b506136ca806100206000396000f3fe608060405234801561001057600080fd5b506004361061021c5760003560e01c8063a54c83f611610125578063ccd34cd5116100ad578063e72728661161007c578063e7272866146105c6578063e76ba191146105d9578063e7c928b1146105ec578063f2fde38b146105ff578063f8ce1f311461061257600080fd5b8063ccd34cd514610533578063cf5badc614610542578063d6d6817714610555578063e179b5c3146105be57600080fd5b8063b0203a80116100f4578063b0203a801461049c578063b187bd26146104a4578063ba41795f146104c1578063c3d2c3c1146104d4578063c4b91c4d146104f757600080fd5b8063a54c83f61461041d578063a638f2e214610430578063ac4afa3814610443578063ad5c46481461048957600080fd5b8063750142e6116101a8578063911ef50811610177578063911ef5081461031657806394f649dd1461031f5780639aaab9541461033f578063a2234080146103df578063a32a66a7146103f257600080fd5b8063750142e6146102e157806382a14459146102e957806388f67d77146102f25780638da5cb5b1461030557600080fd5b806324a723d4116101ef57806324a723d4146102a35780632c86714c146102b657806333cfcd3b146102be578063715018a6146102d157806373f64499146102d957600080fd5b8063081e3eda146102215780630c75699714610238578063110d458e1461024d5780631ee7f3c414610278575b600080fd5b60a1545b6040519081526020015b60405180910390f35b61024b610246366004612fda565b610625565b005b609954610260906001600160a01b031681565b6040516001600160a01b03909116815260200161022f565b610225610286366004613021565b6000918252609c6020908152604080842092845291905290205490565b6102256102b1366004613058565b610703565b61024b6108cd565b61024b6102cc366004613092565b610a41565b61024b610ff5565b61024b61102b565b6102256110ac565b61022560a65481565b61024b6103003660046130cb565b61112f565b6065546001600160a01b0316610260565b61022560a55481565b61033261032d36600461312d565b6113c7565b60405161022f919061314a565b61039b61034d3660046131e2565b60a06020528060005260406000206000915090508060000154908060010154908060020154908060030154908060040154908060050154908060060154908060070154908060080154905089565b60408051998a5260208a0198909852968801959095526060870193909352608086019190915260a085015260c084015260e08301526101008201526101200161022f565b61024b6103ed36600461312d565b6115a0565b610225610400366004613021565b609c60209081526000928352604080842090915290825290205481565b61024b61042b366004613021565b6115ec565b61022561043e3660046131fb565b6117c0565b6104566104513660046131e2565b611f84565b604080516001600160a01b039687168152959094166020860152928401919091526060830152608082015260a00161022f565b609a54610260906001600160a01b031681565b610225611fd1565b60a4546104b19060ff1681565b604051901515815260200161022f565b6102256104cf366004613227565b612043565b6104b16104e236600461312d565b609d6020526000908152604090205460ff1681565b61051e6105053660046131e2565b60a2602052600090815260409020805460019091015482565b6040805192835260208301919091520161022f565b610225670de0b6b3a764000081565b6104b16105503660046131e2565b6120ea565b61039b610563366004613058565b609e602052816000526040600020602052806000526040600020600091509150508060000154908060010154908060020154908060030154908060040154908060050154908060060154908060070154908060080154905089565b61024b612122565b61024b6105d436600461325e565b6121a4565b6102256105e7366004613058565b61226b565b61024b6105fa3660046131e2565b61229c565b61024b61060d36600461312d565b61253a565b61024b610620366004613021565b6125d5565b6065546001600160a01b031633146106585760405162461bcd60e51b815260040161064f90613304565b60405180910390fd5b60a1548290811061067b5760405162461bcd60e51b815260040161064f90613339565b60005b82518110156106fd5782818151811061069957610699613370565b602002602001015160200151609c600086815260200190815260200160002060008584815181106106cc576106cc613370565b60200260200101516000015181526020019081526020016000208190555080806106f59061339c565b91505061067e565b50505050565b6001600160a01b0382166000908152609e602090815260408083208484528252808320815161012081018352815481526001820154818501526002820154928101929092526003810154606083015260048101546080830152600581015460a0830152600681015460c0830152600781015460e0830181905260089091015461010083015280845260a2909252906000816000036107f4576001601e6018603c8060a26000888152602001908152602001600020600101546107c591906133b5565b6107cf91906133b5565b6107d991906133b5565b6107e391906133b5565b6107ed91906133b5565b9050610848565b81601e6018603c8060a260008881526020019081526020016000206001015461081d91906133b5565b61082791906133b5565b61083191906133b5565b61083b91906133b5565b61084591906133b5565b90505b6000818460a001514261085b91906133d7565b61086591906133ee565b905060008160a2600086815260200190815260200160002060000154670de0b6b3a7640000876020015161089991906133ee565b6108a391906133b5565b6108ad91906133ee565b90506108c1670de0b6b3a7640000826133b5565b98975050505050505050565b6065546001600160a01b031633146108f75760405162461bcd60e51b815260040161064f90613304565b6002600154036109195760405162461bcd60e51b815260040161064f9061340d565b6002600155609a546040516370a0823160e01b81523060048201526000916001600160a01b0316906370a0823190602401602060405180830381865afa158015610967573d6000803e3d6000fd5b505050506040513d601f19601f8201168201806040525081019061098b9190613444565b609a546040516323b872dd60e01b81529192506001600160a01b0316906323b872dd906109c09030903390869060040161345d565b6020604051808303816000875af11580156109df573d6000803e3d6000fd5b505050506040513d601f19601f82011682018060405250810190610a039190613481565b5060405181815233907f34042597700906fd41b7ead5497c3bf88ef36150597ddd9193327a09f0604f66906020015b60405180910390a25060018055565b600260015403610a635760405162461bcd60e51b815260040161064f9061340d565b600260015560a45460ff1615610aae5760405162461bcd60e51b815260206004820152601060248201526f636f6e7472616374207061757365642160801b604482015260640161064f565b60a15483908110610ad15760405162461bcd60e51b815260040161064f90613339565b336000908152609e602090815260408083208684528252808320815161012081018352815481526001820154938101939093526002810154918301919091526003810154606083015260048101546080830152600581015460a0830152600681015460c0830152600781015460e0830152600801546101008201529083610b5e5781608001514211610b61565b60015b90506000826020015111610bb75760405162461bcd60e51b815260206004820152601860248201527f436c61696d203a204e6f7468696e6720746f20636c61696d0000000000000000604482015260640161064f565b80610c1f5760405162461bcd60e51b815260206004820152603260248201527f436c61696d203a2063616e6e6f74207769746864726177206265666f72652076604482015271657374696e6720706572696f6420656e647360701b606482015260840161064f565b6000610c2c3387876127b5565b90506000818460400151610c40919061349e565b90506000846020015190508160a18660c0015181548110610c6357610c63613370565b90600052602060002090600502016003015411610ce05760405162461bcd60e51b815260206004820152603560248201527f5374616b696e673a20496e73756666696369656e742072657761726420616c6c60448201527437bbb0b731b290333937b6903a34329020b236b4b760591b606482015260840161064f565b600060a18660c0015181548110610cf957610cf9613370565b600091825260209091206005909102016001015460405163a9059cbb60e01b8152336004820152602481018590526001600160a01b039091169150819063a9059cbb906044016020604051808303816000875af1158015610d5e573d6000803e3d6000fd5b505050506040513d601f19601f82011682018060405250810190610d829190613481565b50600060a18760c0015181548110610d9c57610d9c613370565b60009182526020909120600590910201546101008801516040516323b872dd60e01b81526001600160a01b03909216925082916323b872dd91610de5913091339160040161345d565b600060405180830381600087803b158015610dff57600080fd5b505af1158015610e13573d6000803e3d6000fd5b5050505088158015610e3a575060e0870151600090815260a2602052604090206001015415155b15610e4957610e49338b61297d565b8360a18860c0015181548110610e6157610e61613370565b90600052602060002090600502016003016000828254610e8191906133d7565b925050819055508360a18860c0015181548110610ea057610ea0613370565b90600052602060002090600502016004016000828254610ec0919061349e565b92505081905550866020015160a18860c0015181548110610ee357610ee3613370565b90600052602060002090600502016002016000828254610f0391906133d7565b909155505060e0870151600090815260a2602052604081208054859290610f2b9084906133d7565b9091555050336000908152609e602090815260408083208d84529091528120600281018290556001015560a45460ff1615610f865760a554336000908152609e602090815260408083208e8452909152902060050155610fa8565b336000908152609e602090815260408083208d84529091529020426005909101555b604080518581524260208201528c9133917f812be816db82c66cd18ca8457005cd84689642d8ac4d38599cc6af444a2dc72a910160405180910390a3505060018055505050505050505050565b6065546001600160a01b0316331461101f5760405162461bcd60e51b815260040161064f90613304565b6110296000612bea565b565b6065546001600160a01b031633146110555760405162461bcd60e51b815260040161064f90613304565b60a45460ff16156110995760405162461bcd60e51b815260206004820152600e60248201526d105b1c9958591e4814185d5cd95960921b604482015260640161064f565b60a4805460ff191660011790554260a555565b60008060015b609754811161112957600081815260a060205260409020600101541561111757600081815260a060205260409020600201546110ee908361349e565b600082815260a0602052604081205491935061110a91816127b5565b611114908361349e565b91505b806111218161339c565b9150506110b2565b50919050565b6065546001600160a01b031633146111595760405162461bcd60e51b815260040161064f90613304565b6001600160a01b0383166000908152609d6020526040902054839060ff16156111c45760405162461bcd60e51b815260206004820152601e60248201527f416464203a20746f6b656e20706f6f6c20616c72656164792065786974730000604482015260640161064f565b6001600160a01b0384166000908152609d60205260408120805460ff1916600117905560a1546111f65760a154611205565b60a154611205906001906133d7565b905060005b83518110156112895783818151811061122557611225613370565b602002602001015160200151609c6000848152602001908152602001600020600086848151811061125857611258613370565b60200260200101516000015181526020019081526020016000208190555080806112819061339c565b91505061120a565b5050609b80546001600160a01b039586166001600160a01b031991821681179092556040805160a081018252928352948616602083019081526000958301868152606084018781526080850188815260a180546001810182559952945160059098027faadc37b8ba5645e62f4546802db221593a94729ccbfc5a97d01365a88f64987881018054998b169986169990991790985591517faadc37b8ba5645e62f4546802db221593a94729ccbfc5a97d01365a88f6498798801805491909916931692909217909655517faadc37b8ba5645e62f4546802db221593a94729ccbfc5a97d01365a88f64987a85015593517faadc37b8ba5645e62f4546802db221593a94729ccbfc5a97d01365a88f64987b840155505090517faadc37b8ba5645e62f4546802db221593a94729ccbfc5a97d01365a88f64987c90910155565b6001600160a01b0381166000908152609f60205260408120546060919067ffffffffffffffff8111156113fc576113fc612eb7565b60405190808252806020026020018201604052801561147c57816020015b6114696040518061012001604052806000815260200160008152602001600081526020016000815260200160008152602001600081526020016000815260200160008152602001600081525090565b81526020019060019003908161141a5790505b50905060005b6001600160a01b0384166000908152609f6020526040902054811015611599576001600160a01b0384166000908152609e60209081526040808320609f90925282208054839190859081106114d9576114d9613370565b906000526020600020015481526020019081526020016000206040518061012001604052908160008201548152602001600182015481526020016002820154815260200160038201548152602001600482015481526020016005820154815260200160068201548152602001600782015481526020016008820154815250509050600081602001511115611586578083838151811061157a5761157a613370565b60200260200101819052505b50806115918161339c565b915050611482565b5092915050565b6065546001600160a01b031633146115ca5760405162461bcd60e51b815260040161064f90613304565b609980546001600160a01b0319166001600160a01b0392909216919091179055565b6065546001600160a01b031633146116165760405162461bcd60e51b815260040161064f90613304565b60a154829081106116395760405162461bcd60e51b815260040161064f90613339565b600060a1848154811061164e5761164e613370565b906000526020600020906005020160010160009054906101000a90046001600160a01b031690508260a1858154811061168957611689613370565b906000526020600020906005020160030154101561170f5760405162461bcd60e51b815260206004820152603f60248201527f5374616b696e673a20616d6f756e74204d757374206265206c6573732074686160448201527f6e206f7220657175616c20746f20617661696c61626c65207265776172647300606482015260840161064f565b60405163a9059cbb60e01b8152336004820152602481018490526001600160a01b0382169063a9059cbb906044016020604051808303816000875af115801561175c573d6000803e3d6000fd5b505050506040513d601f19601f820116820180604052508101906117809190613481565b508260a1858154811061179557611795613370565b906000526020600020906005020160030160008282546117b591906133d7565b909155505050505050565b60006002600154036117e45760405162461bcd60e51b815260040161064f9061340d565b600260015560a45460ff161561182f5760405162461bcd60e51b815260206004820152601060248201526f636f6e7472616374207061757365642160801b604482015260640161064f565b60a154849081106118525760405162461bcd60e51b815260040161064f90613339565b60a45460ff16156118995760405162461bcd60e51b815260206004820152601160248201527014dd185ada5b99c81a5cc81c185d5cd959607a1b604482015260640161064f565b6000858152609c602090815260408083208684529091529020546000036118fb5760405162461bcd60e51b8152602060048201526016602482015275125b9d985b1a59081cdd185ada5b99c81c195c9a5bd960521b604482015260640161064f565b609b5460405163133f757160e31b815260048101869052600091829182916001600160a01b0316906399fbab889060240161018060405180830381865afa15801561194a573d6000803e3d6000fd5b505050506040513d601f19601f8201168201806040525081019061196e91906134fd565b505050509750505050945094505050826001600160a01b0316609a60009054906101000a90046001600160a01b03166001600160a01b03161480156119ea5750816001600160a01b031660a189815481106119cb576119cb613370565b60009182526020909120600160059092020101546001600160a01b0316145b611a285760405162461bcd60e51b815260206004820152600f60248201526e125b9d985b1a59081314081c1bdbdb608a1b604482015260640161064f565b600060a18981548110611a3d57611a3d613370565b600091825260209091206005909102015460405163e985e9c560e01b81523360048201523060248201526001600160a01b039091169150819063e985e9c590604401602060405180830381865afa158015611a9c573d6000803e3d6000fd5b505050506040513d601f19601f82011682018060405250810190611ac09190613481565b80611b3c575060405163020604bf60e21b81526004810189905230906001600160a01b0383169063081812fc90602401602060405180830381865afa158015611b0d573d6000803e3d6000fd5b505050506040513d601f19601f82011682018060405250810190611b3191906135de565b6001600160a01b0316145b611b805760405162461bcd60e51b815260206004820152601560248201527414dd185ada5b99ce88139bdd08185c1c1c9bdd9959605a1b604482015260640161064f565b6040516323b872dd60e01b81526001600160a01b038216906323b872dd90611bb090339030908d9060040161345d565b600060405180830381600087803b158015611bca57600080fd5b505af1158015611bde573d6000803e3d6000fd5b50505050611bf0609780546001019055565b6000611bfb60975490565b90506000611c0b338360016127b5565b336000908152609e60209081526040808320868452909152812084815560010180549293506001600160801b03871692909190611c4990849061349e565b9091555050336000908152609e6020908152604080832085845290915281206002018054839290611c7b90849061349e565b9091555050336000908152609e602090815260408083208584528083528184204260058201558f8552609c84528285208e86528452918420549386905290915260030155611ccc8962278d006133ee565b611cd6904261349e565b609e6000336001600160a01b03166001600160a01b031681526020019081526020016000206000848152602001908152602001600020600401819055508a609e6000336001600160a01b03166001600160a01b0316815260200190815260200160002060008481526020019081526020016000206006018190555088609e6000336001600160a01b03166001600160a01b0316815260200190815260200160002060008481526020019081526020016000206007018190555089609e6000336001600160a01b03166001600160a01b03168152602001908152602001600020600084815260200190815260200160002060080181905550609f6000336001600160a01b03166001600160a01b03168152602001908152602001600020829080600181540180825580915050600190039060005260206000200160009091909190915055609e6000336001600160a01b03166001600160a01b03168152602001908152602001600020600083815260200190815260200160002060a06000848152602001908152602001600020600082015481600001556001820154816001015560028201548160020155600382015481600301556004820154816004015560058201548160050155600682015481600601556007820154816007015560088201548160080155905050836001600160801b031660a18c81548110611edc57611edc613370565b90600052602060002090600502016002016000828254611efc919061349e565b9091555050600089815260a26020526040812080546001600160801b0387169290611f2890849061349e565b9091555050604080516001600160801b03861681524260208201528c9133917fb4caaf29adda3eefee3ad552a8e85058589bf834c7466cae4ee58787f70589ed910160405180910390a350600180559998505050505050505050565b60a18181548110611f9457600080fd5b6000918252602090912060059091020180546001820154600283015460038401546004909401546001600160a01b03938416955091909216929085565b609a546040516370a0823160e01b81523060048201526000916001600160a01b0316906370a0823190602401602060405180830381865afa15801561201a573d6000803e3d6000fd5b505050506040513d601f19601f8201168201806040525081019061203e9190613444565b905090565b6001600160a01b0383166000908152609e602090815260408083208584528252808320815161012081018352815481526001820154938101939093526002810154918301919091526003810154606083015260048101546080830152600581015460a0830152600681015460c0830152600781015460e0830152600801546101008201526120d28585856127b5565b81604001516120e1919061349e565b95945050505050565b60006120f46110ac565b60a1838154811061210757612107613370565b90600052602060002090600502016003015410159050919050565b6065546001600160a01b0316331461214c5760405162461bcd60e51b815260040161064f90613304565b60a45460ff166121945760405162461bcd60e51b8152602060048201526013602482015272105b1c9958591e4813dc195c985d1a5bdb985b606a1b604482015260640161064f565b60a4805460ff191690554260a555565b60006121b06001612c3c565b905080156121c8576000805461ff0019166101001790555b6121d0612cc9565b6121d8612cf0565b6121e0612d1f565b81516121f39060a3906020850190612e57565b50609a80546001600160a01b0319166001600160a01b0385161790556301e1338060985561222082612d4e565b8015612266576000805461ff0019169055604051600181527f7f26b83ff96e1f2b6a682f133852f6798a09c465da95921460cefb38474024989060200160405180910390a15b505050565b609f602052816000526040600020818154811061228757600080fd5b90600052602060002001600091509150505481565b6099546001600160a01b0316336001600160a01b0316146122f05760405162461bcd60e51b815260206004820152600e60248201526d696e76616c69642061636365737360901b604482015260640161064f565b6002600154036123125760405162461bcd60e51b815260040161064f9061340d565b6002600155806123645760405162461bcd60e51b815260206004820152601f60248201527f436f6c6c656374204665653a20416d6f756e74206d757374206265203e203000604482015260640161064f565b609a546001600160a01b03166323b872dd3330846040518463ffffffff1660e01b81526004016123969392919061345d565b6020604051808303816000875af11580156123b5573d6000803e3d6000fd5b505050506040513d601f19601f820116820180604052508101906123d99190613481565b5060005b60a3548110156125075760a381815481106123fa576123fa613370565b906000526020600020015460001461246d57670de0b6b3a76400008260a654670de0b6b3a764000060a3858154811061243557612435613370565b906000526020600020015461244a91906133ee565b61245491906133b5565b61245e91906133ee565b61246891906133b5565b6124ad565b670de0b6b3a76400008260a654670de0b6b3a7640000600161248f91906133ee565b61249991906133b5565b6124a391906133ee565b6124ad91906133b5565b60a2600060a384815481106124c4576124c4613370565b9060005260206000200154815260200190815260200160002060010160008282546124ef919061349e565b909155508190506124ff8161339c565b9150506123dd565b5060405181815233907f386d896e9bd972181cfb744681a2de8d2daab22884986fdc60c3947be36ca01b90602001610a32565b6065546001600160a01b031633146125645760405162461bcd60e51b815260040161064f90613304565b6001600160a01b0381166125c95760405162461bcd60e51b815260206004820152602660248201527f4f776e61626c653a206e6577206f776e657220697320746865207a65726f206160448201526564647265737360d01b606482015260840161064f565b6125d281612bea565b50565b6065546001600160a01b031633146125ff5760405162461bcd60e51b815260040161064f90613304565b60a154829081106126225760405162461bcd60e51b815260040161064f90613339565b600060a1848154811061263757612637613370565b6000918252602090912060059091020160010154604051636eb1769f60e11b81523360048201523060248201526001600160a01b0390911691508390829063dd62ed3e90604401602060405180830381865afa15801561269b573d6000803e3d6000fd5b505050506040513d601f19601f820116820180604052508101906126bf9190613444565b101561270d5760405162461bcd60e51b815260206004820152601c60248201527f5374616b696e673a204d75737420616c6c6f77205370656e64696e6700000000604482015260640161064f565b6040516323b872dd60e01b81526001600160a01b038216906323b872dd9061273d9033903090889060040161345d565b6020604051808303816000875af115801561275c573d6000803e3d6000fd5b505050506040513d601f19601f820116820180604052508101906127809190613481565b508260a1858154811061279557612795613370565b906000526020600020906005020160030160008282546117b5919061349e565b6000806001600160a01b0385166127d957600084815260a0602052604090206127fd565b6001600160a01b0385166000908152609e6020908152604080832087845290915290205b6040805161012081018252825481526001830154602082018190526002840154928201929092526003830154606082015260048301546080820152600583015460a0820152600683015460c0820152600783015460e0820152600890920154610100830152909150156129705760a45460ff16156128ed5760a5548160a00151111561288c5760009150612975565b6128e66128b16103e86128ab6064609854612dcf90919063ffffffff16565b90612dcf565b6128e06128cd8460a0015160a554612de290919063ffffffff16565b606085015160208601516128ab91612dcf565b90612dee565b9150612975565b6000836128fe57816060015161291e565b60c08201516000908152609c602090815260408083208380529091529020545b905061296861293f6103e86128ab6064609854612dcf90919063ffffffff16565b6128e06129598560a0015142612de290919063ffffffff16565b60208601516128ab9086612dcf565b925050612975565b600091505b509392505050565b6001600160a01b0382166000908152609e602090815260408083208484528252918290208251610120810184528154815260018201549281018390526002820154938101939093526003810154606084015260048101546080840152600581015460a0840152600681015460c0840152600781015460e084015260080154610100830152612a455760405162461bcd60e51b81526020600482015260156024820152742430b93b32b9ba1d102737ba10309039ba30b5b2b960591b604482015260640161064f565b6000612a518484610703565b9050801580612a74575060e0820151600090815260a26020526040902060010154155b15612a7f5750505050565b609a546040516370a0823160e01b81523060048201526000916001600160a01b0316906370a0823190602401602060405180830381865afa158015612ac8573d6000803e3d6000fd5b505050506040513d601f19601f82011682018060405250810190612aec9190613444565b905080600003612afd575050505050565b60e0830151600090815260a2602052604081206001018054849290612b239084906133d7565b9091555050609a546040516323b872dd60e01b81526001600160a01b03909116906323b872dd90612b5c9030908990879060040161345d565b6020604051808303816000875af1158015612b7b573d6000803e3d6000fd5b505050506040513d601f19601f82011682018060405250810190612b9f9190613481565b50846001600160a01b03167fc9695243a805adb74c91f28311176c65b417e842d5699893cef56d18bfa48cba83604051612bdb91815260200190565b60405180910390a25050505050565b606580546001600160a01b038381166001600160a01b0319831681179093556040519116919082907f8be0079c531659141344cd1fd0a4f28419497f9722a3daafe3b4186f6b6457e090600090a35050565b60008054610100900460ff1615612c83578160ff166001148015612c5f5750303b155b612c7b5760405162461bcd60e51b815260040161064f906135fb565b506000919050565b60005460ff808416911610612caa5760405162461bcd60e51b815260040161064f906135fb565b506000805460ff191660ff92909216919091179055600190565b919050565b600054610100900460ff166110295760405162461bcd60e51b815260040161064f90613649565b600054610100900460ff16612d175760405162461bcd60e51b815260040161064f90613649565b611029612dfa565b600054610100900460ff16612d465760405162461bcd60e51b815260040161064f90613649565b611029612e2a565b600060a68190555b8151811015612dcb57818181518110612d7157612d71613370565b6020026020010151600014612d9f57818181518110612d9257612d92613370565b6020026020010151612da2565b60015b60a66000828254612db3919061349e565b90915550819050612dc38161339c565b915050612d56565b5050565b6000612ddb82846133ee565b9392505050565b6000612ddb82846133d7565b6000612ddb82846133b5565b600054610100900460ff16612e215760405162461bcd60e51b815260040161064f90613649565b61102933612bea565b600054610100900460ff16612e515760405162461bcd60e51b815260040161064f90613649565b60018055565b828054828255906000526020600020908101928215612e92579160200282015b82811115612e92578251825591602001919060010190612e77565b50612e9e929150612ea2565b5090565b5b80821115612e9e5760008155600101612ea3565b634e487b7160e01b600052604160045260246000fd5b6040805190810167ffffffffffffffff81118282101715612ef057612ef0612eb7565b60405290565b604051601f8201601f1916810167ffffffffffffffff81118282101715612f1f57612f1f612eb7565b604052919050565b600067ffffffffffffffff821115612f4157612f41612eb7565b5060051b60200190565b600082601f830112612f5c57600080fd5b81356020612f71612f6c83612f27565b612ef6565b82815260069290921b84018101918181019086841115612f9057600080fd5b8286015b84811015612fcf5760408189031215612fad5760008081fd5b612fb5612ecd565b813581528482013585820152835291830191604001612f94565b509695505050505050565b60008060408385031215612fed57600080fd5b82359150602083013567ffffffffffffffff81111561300b57600080fd5b61301785828601612f4b565b9150509250929050565b6000806040838503121561303457600080fd5b50508035926020909101359150565b6001600160a01b03811681146125d257600080fd5b6000806040838503121561306b57600080fd5b823561307681613043565b946020939093013593505050565b80151581146125d257600080fd5b6000806000606084860312156130a757600080fd5b833592506020840135915060408401356130c081613084565b809150509250925092565b6000806000606084860312156130e057600080fd5b83356130eb81613043565b925060208401356130fb81613043565b9150604084013567ffffffffffffffff81111561311757600080fd5b61312386828701612f4b565b9150509250925092565b60006020828403121561313f57600080fd5b8135612ddb81613043565b602080825282518282018190526000919060409081850190868401855b828110156131d55781518051855286810151878601528581015186860152606080820151908601526080808201519086015260a0808201519086015260c0808201519086015260e0808201519086015261010090810151908501526101209093019290850190600101613167565b5091979650505050505050565b6000602082840312156131f457600080fd5b5035919050565b60008060006060848603121561321057600080fd5b505081359360208301359350604090920135919050565b60008060006060848603121561323c57600080fd5b833561324781613043565b92506020840135915060408401356130c081613084565b6000806040838503121561327157600080fd5b823561327c81613043565b915060208381013567ffffffffffffffff81111561329957600080fd5b8401601f810186136132aa57600080fd5b80356132b8612f6c82612f27565b81815260059190911b820183019083810190888311156132d757600080fd5b928401925b828410156132f5578335825292840192908401906132dc565b80955050505050509250929050565b6020808252818101527f4f776e61626c653a2063616c6c6572206973206e6f7420746865206f776e6572604082015260600190565b6020808252601c908201527f5374616b696e673a20506f6f6c20646f65736e27742065786973747300000000604082015260600190565b634e487b7160e01b600052603260045260246000fd5b634e487b7160e01b600052601160045260246000fd5b6000600182016133ae576133ae613386565b5060010190565b6000826133d257634e487b7160e01b600052601260045260246000fd5b500490565b6000828210156133e9576133e9613386565b500390565b600081600019048311821515161561340857613408613386565b500290565b6020808252601f908201527f5265656e7472616e637947756172643a207265656e7472616e742063616c6c00604082015260600190565b60006020828403121561345657600080fd5b5051919050565b6001600160a01b039384168152919092166020820152604081019190915260600190565b60006020828403121561349357600080fd5b8151612ddb81613084565b600082198211156134b1576134b1613386565b500190565b8051612cc481613043565b805162ffffff81168114612cc457600080fd5b8051600281900b8114612cc457600080fd5b80516001600160801b0381168114612cc457600080fd5b6000806000806000806000806000806000806101808d8f03121561352057600080fd5b8c516bffffffffffffffffffffffff8116811461353c57600080fd5b9b5061354a60208e016134b6565b9a5061355860408e016134b6565b995061356660608e016134b6565b985061357460808e016134c1565b975061358260a08e016134d4565b965061359060c08e016134d4565b955061359e60e08e016134e6565b94506101008d015193506101208d015192506135bd6101408e016134e6565b91506135cc6101608e016134e6565b90509295989b509295989b509295989b565b6000602082840312156135f057600080fd5b8151612ddb81613043565b6020808252602e908201527f496e697469616c697a61626c653a20636f6e747261637420697320616c72656160408201526d191e481a5b9a5d1a585b1a5e995960921b606082015260800190565b6020808252602b908201527f496e697469616c697a61626c653a20636f6e7472616374206973206e6f74206960408201526a6e697469616c697a696e6760a81b60608201526080019056fea2646970667358221220cf18c2c42341a3019dee66749b9858bbe1dd1cdd44978a1c860723097bcb042864736f6c634300080d0033",
			"opcodes": "PUSH1 0x80 PUSH1 0x40 MSTORE CALLVALUE DUP1 ISZERO PUSH2 0x10 JUMPI PUSH1 0x0 DUP1 REVERT JUMPDEST POP PUSH2 0x36CA DUP1 PUSH2 0x20 PUSH1 0x0 CODECOPY PUSH1 0x0 RETURN INVALID PUSH1 0x80 PUSH1 0x40 MSTORE CALLVALUE DUP1 ISZERO PUSH2 0x10 JUMPI PUSH1 0x0 DUP1 REVERT JUMPDEST POP PUSH1 0x4 CALLDATASIZE LT PUSH2 0x21C JUMPI PUSH1 0x0 CALLDATALOAD PUSH1 0xE0 SHR DUP1 PUSH4 0xA54C83F6 GT PUSH2 0x125 JUMPI DUP1 PUSH4 0xCCD34CD5 GT PUSH2 0xAD JUMPI DUP1 PUSH4 0xE7272866 GT PUSH2 0x7C JUMPI DUP1 PUSH4 0xE7272866 EQ PUSH2 0x5C6 JUMPI DUP1 PUSH4 0xE76BA191 EQ PUSH2 0x5D9 JUMPI DUP1 PUSH4 0xE7C928B1 EQ PUSH2 0x5EC JUMPI DUP1 PUSH4 0xF2FDE38B EQ PUSH2 0x5FF JUMPI DUP1 PUSH4 0xF8CE1F31 EQ PUSH2 0x612 JUMPI PUSH1 0x0 DUP1 REVERT JUMPDEST DUP1 PUSH4 0xCCD34CD5 EQ PUSH2 0x533 JUMPI DUP1 PUSH4 0xCF5BADC6 EQ PUSH2 0x542 JUMPI DUP1 PUSH4 0xD6D68177 EQ PUSH2 0x555 JUMPI DUP1 PUSH4 0xE179B5C3 EQ PUSH2 0x5BE JUMPI PUSH1 0x0 DUP1 REVERT JUMPDEST DUP1 PUSH4 0xB0203A80 GT PUSH2 0xF4 JUMPI DUP1 PUSH4 0xB0203A80 EQ PUSH2 0x49C JUMPI DUP1 PUSH4 0xB187BD26 EQ PUSH2 0x4A4 JUMPI DUP1 PUSH4 0xBA41795F EQ PUSH2 0x4C1 JUMPI DUP1 PUSH4 0xC3D2C3C1 EQ PUSH2 0x4D4 JUMPI DUP1 PUSH4 0xC4B91C4D EQ PUSH2 0x4F7 JUMPI PUSH1 0x0 DUP1 REVERT JUMPDEST DUP1 PUSH4 0xA54C83F6 EQ PUSH2 0x41D JUMPI DUP1 PUSH4 0xA638F2E2 EQ PUSH2 0x430 JUMPI DUP1 PUSH4 0xAC4AFA38 EQ PUSH2 0x443 JUMPI DUP1 PUSH4 0xAD5C4648 EQ PUSH2 0x489 JUMPI PUSH1 0x0 DUP1 REVERT JUMPDEST DUP1 PUSH4 0x750142E6 GT PUSH2 0x1A8 JUMPI DUP1 PUSH4 0x911EF508 GT PUSH2 0x177 JUMPI DUP1 PUSH4 0x911EF508 EQ PUSH2 0x316 JUMPI DUP1 PUSH4 0x94F649DD EQ PUSH2 0x31F JUMPI DUP1 PUSH4 0x9AAAB954 EQ PUSH2 0x33F JUMPI DUP1 PUSH4 0xA2234080 EQ PUSH2 0x3DF JUMPI DUP1 PUSH4 0xA32A66A7 EQ PUSH2 0x3F2 JUMPI PUSH1 0x0 DUP1 REVERT JUMPDEST DUP1 PUSH4 0x750142E6 EQ PUSH2 0x2E1 JUMPI DUP1 PUSH4 0x82A14459 EQ PUSH2 0x2E9 JUMPI DUP1 PUSH4 0x88F67D77 EQ PUSH2 0x2F2 JUMPI DUP1 PUSH4 0x8DA5CB5B EQ PUSH2 0x305 JUMPI PUSH1 0x0 DUP1 REVERT JUMPDEST DUP1 PUSH4 0x24A723D4 GT PUSH2 0x1EF JUMPI DUP1 PUSH4 0x24A723D4 EQ PUSH2 0x2A3 JUMPI DUP1 PUSH4 0x2C86714C EQ PUSH2 0x2B6 JUMPI DUP1 PUSH4 0x33CFCD3B EQ PUSH2 0x2BE JUMPI DUP1 PUSH4 0x715018A6 EQ PUSH2 0x2D1 JUMPI DUP1 PUSH4 0x73F64499 EQ PUSH2 0x2D9 JUMPI PUSH1 0x0 DUP1 REVERT JUMPDEST DUP1 PUSH4 0x81E3EDA EQ PUSH2 0x221 JUMPI DUP1 PUSH4 0xC756997 EQ PUSH2 0x238 JUMPI DUP1 PUSH4 0x110D458E EQ PUSH2 0x24D JUMPI DUP1 PUSH4 0x1EE7F3C4 EQ PUSH2 0x278 JUMPI JUMPDEST PUSH1 0x0 DUP1 REVERT JUMPDEST PUSH1 0xA1 SLOAD JUMPDEST PUSH1 0x40 MLOAD SWAP1 DUP2 MSTORE PUSH1 0x20 ADD JUMPDEST PUSH1 0x40 MLOAD DUP1 SWAP2 SUB SWAP1 RETURN JUMPDEST PUSH2 0x24B PUSH2 0x246 CALLDATASIZE PUSH1 0x4 PUSH2 0x2FDA JUMP JUMPDEST PUSH2 0x625 JUMP JUMPDEST STOP JUMPDEST PUSH1 0x99 SLOAD PUSH2 0x260 SWAP1 PUSH1 0x1 PUSH1 0x1 PUSH1 0xA0 SHL SUB AND DUP2 JUMP JUMPDEST PUSH1 0x40 MLOAD PUSH1 0x1 PUSH1 0x1 PUSH1 0xA0 SHL SUB SWAP1 SWAP2 AND DUP2 MSTORE PUSH1 0x20 ADD PUSH2 0x22F JUMP JUMPDEST PUSH2 0x225 PUSH2 0x286 CALLDATASIZE PUSH1 0x4 PUSH2 0x3021 JUMP JUMPDEST PUSH1 0x0 SWAP2 DUP3 MSTORE PUSH1 0x9C PUSH1 0x20 SWAP1 DUP2 MSTORE PUSH1 0x40 DUP1 DUP5 KECCAK256 SWAP3 DUP5 MSTORE SWAP2 SWAP1 MSTORE SWAP1 KECCAK256 SLOAD SWAP1 JUMP JUMPDEST PUSH2 0x225 PUSH2 0x2B1 CALLDATASIZE PUSH1 0x4 PUSH2 0x3058 JUMP JUMPDEST PUSH2 0x703 JUMP JUMPDEST PUSH2 0x24B PUSH2 0x8CD JUMP JUMPDEST PUSH2 0x24B PUSH2 0x2CC CALLDATASIZE PUSH1 0x4 PUSH2 0x3092 JUMP JUMPDEST PUSH2 0xA41 JUMP JUMPDEST PUSH2 0x24B PUSH2 0xFF5 JUMP JUMPDEST PUSH2 0x24B PUSH2 0x102B JUMP JUMPDEST PUSH2 0x225 PUSH2 0x10AC JUMP JUMPDEST PUSH2 0x225 PUSH1 0xA6 SLOAD DUP2 JUMP JUMPDEST PUSH2 0x24B PUSH2 0x300 CALLDATASIZE PUSH1 0x4 PUSH2 0x30CB JUMP JUMPDEST PUSH2 0x112F JUMP JUMPDEST PUSH1 0x65 SLOAD PUSH1 0x1 PUSH1 0x1 PUSH1 0xA0 SHL SUB AND PUSH2 0x260 JUMP JUMPDEST PUSH2 0x225 PUSH1 0xA5 SLOAD DUP2 JUMP JUMPDEST PUSH2 0x332 PUSH2 0x32D CALLDATASIZE PUSH1 0x4 PUSH2 0x312D JUMP JUMPDEST PUSH2 0x13C7 JUMP JUMPDEST PUSH1 0x40 MLOAD PUSH2 0x22F SWAP2 SWAP1 PUSH2 0x314A JUMP JUMPDEST PUSH2 0x39B PUSH2 0x34D CALLDATASIZE PUSH1 0x4 PUSH2 0x31E2 JUMP JUMPDEST PUSH1 0xA0 PUSH1 0x20 MSTORE DUP1 PUSH1 0x0 MSTORE PUSH1 0x40 PUSH1 0x0 KECCAK256 PUSH1 0x0 SWAP2 POP SWAP1 POP DUP1 PUSH1 0x0 ADD SLOAD SWAP1 DUP1 PUSH1 0x1 ADD SLOAD SWAP1 DUP1 PUSH1 0x2 ADD SLOAD SWAP1 DUP1 PUSH1 0x3 ADD SLOAD SWAP1 DUP1 PUSH1 0x4 ADD SLOAD SWAP1 DUP1 PUSH1 0x5 ADD SLOAD SWAP1 DUP1 PUSH1 0x6 ADD SLOAD SWAP1 DUP1 PUSH1 0x7 ADD SLOAD SWAP1 DUP1 PUSH1 0x8 ADD SLOAD SWAP1 POP DUP10 JUMP JUMPDEST PUSH1 0x40 DUP1 MLOAD SWAP10 DUP11 MSTORE PUSH1 0x20 DUP11 ADD SWAP9 SWAP1 SWAP9 MSTORE SWAP7 DUP9 ADD SWAP6 SWAP1 SWAP6 MSTORE PUSH1 0x60 DUP8 ADD SWAP4 SWAP1 SWAP4 MSTORE PUSH1 0x80 DUP7 ADD SWAP2 SWAP1 SWAP2 MSTORE PUSH1 0xA0 DUP6 ADD MSTORE PUSH1 0xC0 DUP5 ADD MSTORE PUSH1 0xE0 DUP4 ADD MSTORE PUSH2 0x100 DUP3 ADD MSTORE PUSH2 0x120 ADD PUSH2 0x22F JUMP JUMPDEST PUSH2 0x24B PUSH2 0x3ED CALLDATASIZE PUSH1 0x4 PUSH2 0x312D JUMP JUMPDEST PUSH2 0x15A0 JUMP JUMPDEST PUSH2 0x225 PUSH2 0x400 CALLDATASIZE PUSH1 0x4 PUSH2 0x3021 JUMP JUMPDEST PUSH1 0x9C PUSH1 0x20 SWAP1 DUP2 MSTORE PUSH1 0x0 SWAP3 DUP4 MSTORE PUSH1 0x40 DUP1 DUP5 KECCAK256 SWAP1 SWAP2 MSTORE SWAP1 DUP3 MSTORE SWAP1 KECCAK256 SLOAD DUP2 JUMP JUMPDEST PUSH2 0x24B PUSH2 0x42B CALLDATASIZE PUSH1 0x4 PUSH2 0x3021 JUMP JUMPDEST PUSH2 0x15EC JUMP JUMPDEST PUSH2 0x225 PUSH2 0x43E CALLDATASIZE PUSH1 0x4 PUSH2 0x31FB JUMP JUMPDEST PUSH2 0x17C0 JUMP JUMPDEST PUSH2 0x456 PUSH2 0x451 CALLDATASIZE PUSH1 0x4 PUSH2 0x31E2 JUMP JUMPDEST PUSH2 0x1F84 JUMP JUMPDEST PUSH1 0x40 DUP1 MLOAD PUSH1 0x1 PUSH1 0x1 PUSH1 0xA0 SHL SUB SWAP7 DUP8 AND DUP2 MSTORE SWAP6 SWAP1 SWAP5 AND PUSH1 0x20 DUP7 ADD MSTORE SWAP3 DUP5 ADD SWAP2 SWAP1 SWAP2 MSTORE PUSH1 0x60 DUP4 ADD MSTORE PUSH1 0x80 DUP3 ADD MSTORE PUSH1 0xA0 ADD PUSH2 0x22F JUMP JUMPDEST PUSH1 0x9A SLOAD PUSH2 0x260 SWAP1 PUSH1 0x1 PUSH1 0x1 PUSH1 0xA0 SHL SUB AND DUP2 JUMP JUMPDEST PUSH2 0x225 PUSH2 0x1FD1 JUMP JUMPDEST PUSH1 0xA4 SLOAD PUSH2 0x4B1 SWAP1 PUSH1 0xFF AND DUP2 JUMP JUMPDEST PUSH1 0x40 MLOAD SWAP1 ISZERO ISZERO DUP2 MSTORE PUSH1 0x20 ADD PUSH2 0x22F JUMP JUMPDEST PUSH2 0x225 PUSH2 0x4CF CALLDATASIZE PUSH1 0x4 PUSH2 0x3227 JUMP JUMPDEST PUSH2 0x2043 JUMP JUMPDEST PUSH2 0x4B1 PUSH2 0x4E2 CALLDATASIZE PUSH1 0x4 PUSH2 0x312D JUMP JUMPDEST PUSH1 0x9D PUSH1 0x20 MSTORE PUSH1 0x0 SWAP1 DUP2 MSTORE PUSH1 0x40 SWAP1 KECCAK256 SLOAD PUSH1 0xFF AND DUP2 JUMP JUMPDEST PUSH2 0x51E PUSH2 0x505 CALLDATASIZE PUSH1 0x4 PUSH2 0x31E2 JUMP JUMPDEST PUSH1 0xA2 PUSH1 0x20 MSTORE PUSH1 0x0 SWAP1 DUP2 MSTORE PUSH1 0x40 SWAP1 KECCAK256 DUP1 SLOAD PUSH1 0x1 SWAP1 SWAP2 ADD SLOAD DUP3 JUMP JUMPDEST PUSH1 0x40 DUP1 MLOAD SWAP3 DUP4 MSTORE PUSH1 0x20 DUP4 ADD SWAP2 SWAP1 SWAP2 MSTORE ADD PUSH2 0x22F JUMP JUMPDEST PUSH2 0x225 PUSH8 0xDE0B6B3A7640000 DUP2 JUMP JUMPDEST PUSH2 0x4B1 PUSH2 0x550 CALLDATASIZE PUSH1 0x4 PUSH2 0x31E2 JUMP JUMPDEST PUSH2 0x20EA JUMP JUMPDEST PUSH2 0x39B PUSH2 0x563 CALLDATASIZE PUSH1 0x4 PUSH2 0x3058 JUMP JUMPDEST PUSH1 0x9E PUSH1 0x20 MSTORE DUP2 PUSH1 0x0 MSTORE PUSH1 0x40 PUSH1 0x0 KECCAK256 PUSH1 0x20 MSTORE DUP1 PUSH1 0x0 MSTORE PUSH1 0x40 PUSH1 0x0 KECCAK256 PUSH1 0x0 SWAP2 POP SWAP2 POP POP DUP1 PUSH1 0x0 ADD SLOAD SWAP1 DUP1 PUSH1 0x1 ADD SLOAD SWAP1 DUP1 PUSH1 0x2 ADD SLOAD SWAP1 DUP1 PUSH1 0x3 ADD SLOAD SWAP1 DUP1 PUSH1 0x4 ADD SLOAD SWAP1 DUP1 PUSH1 0x5 ADD SLOAD SWAP1 DUP1 PUSH1 0x6 ADD SLOAD SWAP1 DUP1 PUSH1 0x7 ADD SLOAD SWAP1 DUP1 PUSH1 0x8 ADD SLOAD SWAP1 POP DUP10 JUMP JUMPDEST PUSH2 0x24B PUSH2 0x2122 JUMP JUMPDEST PUSH2 0x24B PUSH2 0x5D4 CALLDATASIZE PUSH1 0x4 PUSH2 0x325E JUMP JUMPDEST PUSH2 0x21A4 JUMP JUMPDEST PUSH2 0x225 PUSH2 0x5E7 CALLDATASIZE PUSH1 0x4 PUSH2 0x3058 JUMP JUMPDEST PUSH2 0x226B JUMP JUMPDEST PUSH2 0x24B PUSH2 0x5FA CALLDATASIZE PUSH1 0x4 PUSH2 0x31E2 JUMP JUMPDEST PUSH2 0x229C JUMP JUMPDEST PUSH2 0x24B PUSH2 0x60D CALLDATASIZE PUSH1 0x4 PUSH2 0x312D JUMP JUMPDEST PUSH2 0x253A JUMP JUMPDEST PUSH2 0x24B PUSH2 0x620 CALLDATASIZE PUSH1 0x4 PUSH2 0x3021 JUMP JUMPDEST PUSH2 0x25D5 JUMP JUMPDEST PUSH1 0x65 SLOAD PUSH1 0x1 PUSH1 0x1 PUSH1 0xA0 SHL SUB AND CALLER EQ PUSH2 0x658 JUMPI PUSH1 0x40 MLOAD PUSH3 0x461BCD PUSH1 0xE5 SHL DUP2 MSTORE PUSH1 0x4 ADD PUSH2 0x64F SWAP1 PUSH2 0x3304 JUMP JUMPDEST PUSH1 0x40 MLOAD DUP1 SWAP2 SUB SWAP1 REVERT JUMPDEST PUSH1 0xA1 SLOAD DUP3 SWAP1 DUP2 LT PUSH2 0x67B JUMPI PUSH1 0x40 MLOAD PUSH3 0x461BCD PUSH1 0xE5 SHL DUP2 MSTORE PUSH1 0x4 ADD PUSH2 0x64F SWAP1 PUSH2 0x3339 JUMP JUMPDEST PUSH1 0x0 JUMPDEST DUP3 MLOAD DUP2 LT ISZERO PUSH2 0x6FD JUMPI DUP3 DUP2 DUP2 MLOAD DUP2 LT PUSH2 0x699 JUMPI PUSH2 0x699 PUSH2 0x3370 JUMP JUMPDEST PUSH1 0x20 MUL PUSH1 0x20 ADD ADD MLOAD PUSH1 0x20 ADD MLOAD PUSH1 0x9C PUSH1 0x0 DUP7 DUP2 MSTORE PUSH1 0x20 ADD SWAP1 DUP2 MSTORE PUSH1 0x20 ADD PUSH1 0x0 KECCAK256 PUSH1 0x0 DUP6 DUP5 DUP2 MLOAD DUP2 LT PUSH2 0x6CC JUMPI PUSH2 0x6CC PUSH2 0x3370 JUMP JUMPDEST PUSH1 0x20 MUL PUSH1 0x20 ADD ADD MLOAD PUSH1 0x0 ADD MLOAD DUP2 MSTORE PUSH1 0x20 ADD SWAP1 DUP2 MSTORE PUSH1 0x20 ADD PUSH1 0x0 KECCAK256 DUP2 SWAP1 SSTORE POP DUP1 DUP1 PUSH2 0x6F5 SWAP1 PUSH2 0x339C JUMP JUMPDEST SWAP2 POP POP PUSH2 0x67E JUMP JUMPDEST POP POP POP POP JUMP JUMPDEST PUSH1 0x1 PUSH1 0x1 PUSH1 0xA0 SHL SUB DUP3 AND PUSH1 0x0 SWAP1 DUP2 MSTORE PUSH1 0x9E PUSH1 0x20 SWAP1 DUP2 MSTORE PUSH1 0x40 DUP1 DUP4 KECCAK256 DUP5 DUP5 MSTORE DUP3 MSTORE DUP1 DUP4 KECCAK256 DUP2 MLOAD PUSH2 0x120 DUP2 ADD DUP4 MSTORE DUP2 SLOAD DUP2 MSTORE PUSH1 0x1 DUP3 ADD SLOAD DUP2 DUP6 ADD MSTORE PUSH1 0x2 DUP3 ADD SLOAD SWAP3 DUP2 ADD SWAP3 SWAP1 SWAP3 MSTORE PUSH1 0x3 DUP2 ADD SLOAD PUSH1 0x60 DUP4 ADD MSTORE PUSH1 0x4 DUP2 ADD SLOAD PUSH1 0x80 DUP4 ADD MSTORE PUSH1 0x5 DUP2 ADD SLOAD PUSH1 0xA0 DUP4 ADD MSTORE PUSH1 0x6 DUP2 ADD SLOAD PUSH1 0xC0 DUP4 ADD MSTORE PUSH1 0x7 DUP2 ADD SLOAD PUSH1 0xE0 DUP4 ADD DUP2 SWAP1 MSTORE PUSH1 0x8 SWAP1 SWAP2 ADD SLOAD PUSH2 0x100 DUP4 ADD MSTORE DUP1 DUP5 MSTORE PUSH1 0xA2 SWAP1 SWAP3 MSTORE SWAP1 PUSH1 0x0 DUP2 PUSH1 0x0 SUB PUSH2 0x7F4 JUMPI PUSH1 0x1 PUSH1 0x1E PUSH1 0x18 PUSH1 0x3C DUP1 PUSH1 0xA2 PUSH1 0x0 DUP9 DUP2 MSTORE PUSH1 0x20 ADD SWAP1 DUP2 MSTORE PUSH1 0x20 ADD PUSH1 0x0 KECCAK256 PUSH1 0x1 ADD SLOAD PUSH2 0x7C5 SWAP2 SWAP1 PUSH2 0x33B5 JUMP JUMPDEST PUSH2 0x7CF SWAP2 SWAP1 PUSH2 0x33B5 JUMP JUMPDEST PUSH2 0x7D9 SWAP2 SWAP1 PUSH2 0x33B5 JUMP JUMPDEST PUSH2 0x7E3 SWAP2 SWAP1 PUSH2 0x33B5 JUMP JUMPDEST PUSH2 0x7ED SWAP2 SWAP1 PUSH2 0x33B5 JUMP JUMPDEST SWAP1 POP PUSH2 0x848 JUMP JUMPDEST DUP2 PUSH1 0x1E PUSH1 0x18 PUSH1 0x3C DUP1 PUSH1 0xA2 PUSH1 0x0 DUP9 DUP2 MSTORE PUSH1 0x20 ADD SWAP1 DUP2 MSTORE PUSH1 0x20 ADD PUSH1 0x0 KECCAK256 PUSH1 0x1 ADD SLOAD PUSH2 0x81D SWAP2 SWAP1 PUSH2 0x33B5 JUMP JUMPDEST PUSH2 0x827 SWAP2 SWAP1 PUSH2 0x33B5 JUMP JUMPDEST PUSH2 0x831 SWAP2 SWAP1 PUSH2 0x33B5 JUMP JUMPDEST PUSH2 0x83B SWAP2 SWAP1 PUSH2 0x33B5 JUMP JUMPDEST PUSH2 0x845 SWAP2 SWAP1 PUSH2 0x33B5 JUMP JUMPDEST SWAP1 POP JUMPDEST PUSH1 0x0 DUP2 DUP5 PUSH1 0xA0 ADD MLOAD TIMESTAMP PUSH2 0x85B SWAP2 SWAP1 PUSH2 0x33D7 JUMP JUMPDEST PUSH2 0x865 SWAP2 SWAP1 PUSH2 0x33EE JUMP JUMPDEST SWAP1 POP PUSH1 0x0 DUP2 PUSH1 0xA2 PUSH1 0x0 DUP7 DUP2 MSTORE PUSH1 0x20 ADD SWAP1 DUP2 MSTORE PUSH1 0x20 ADD PUSH1 0x0 KECCAK256 PUSH1 0x0 ADD SLOAD PUSH8 0xDE0B6B3A7640000 DUP8 PUSH1 0x20 ADD MLOAD PUSH2 0x899 SWAP2 SWAP1 PUSH2 0x33EE JUMP JUMPDEST PUSH2 0x8A3 SWAP2 SWAP1 PUSH2 0x33B5 JUMP JUMPDEST PUSH2 0x8AD SWAP2 SWAP1 PUSH2 0x33EE JUMP JUMPDEST SWAP1 POP PUSH2 0x8C1 PUSH8 0xDE0B6B3A7640000 DUP3 PUSH2 0x33B5 JUMP JUMPDEST SWAP9 SWAP8 POP POP POP POP POP POP POP POP JUMP JUMPDEST PUSH1 0x65 SLOAD PUSH1 0x1 PUSH1 0x1 PUSH1 0xA0 SHL SUB AND CALLER EQ PUSH2 0x8F7 JUMPI PUSH1 0x40 MLOAD PUSH3 0x461BCD PUSH1 0xE5 SHL DUP2 MSTORE PUSH1 0x4 ADD PUSH2 0x64F SWAP1 PUSH2 0x3304 JUMP JUMPDEST PUSH1 0x2 PUSH1 0x1 SLOAD SUB PUSH2 0x919 JUMPI PUSH1 0x40 MLOAD PUSH3 0x461BCD PUSH1 0xE5 SHL DUP2 MSTORE PUSH1 0x4 ADD PUSH2 0x64F SWAP1 PUSH2 0x340D JUMP JUMPDEST PUSH1 0x2 PUSH1 0x1 SSTORE PUSH1 0x9A SLOAD PUSH1 0x40 MLOAD PUSH4 0x70A08231 PUSH1 0xE0 SHL DUP2 MSTORE ADDRESS PUSH1 0x4 DUP3 ADD MSTORE PUSH1 0x0 SWAP2 PUSH1 0x1 PUSH1 0x1 PUSH1 0xA0 SHL SUB AND SWAP1 PUSH4 0x70A08231 SWAP1 PUSH1 0x24 ADD PUSH1 0x20 PUSH1 0x40 MLOAD DUP1 DUP4 SUB DUP2 DUP7 GAS STATICCALL ISZERO DUP1 ISZERO PUSH2 0x967 JUMPI RETURNDATASIZE PUSH1 0x0 DUP1 RETURNDATACOPY RETURNDATASIZE PUSH1 0x0 REVERT JUMPDEST POP POP POP POP PUSH1 0x40 MLOAD RETURNDATASIZE PUSH1 0x1F NOT PUSH1 0x1F DUP3 ADD AND DUP3 ADD DUP1 PUSH1 0x40 MSTORE POP DUP2 ADD SWAP1 PUSH2 0x98B SWAP2 SWAP1 PUSH2 0x3444 JUMP JUMPDEST PUSH1 0x9A SLOAD PUSH1 0x40 MLOAD PUSH4 0x23B872DD PUSH1 0xE0 SHL DUP2 MSTORE SWAP2 SWAP3 POP PUSH1 0x1 PUSH1 0x1 PUSH1 0xA0 SHL SUB AND SWAP1 PUSH4 0x23B872DD SWAP1 PUSH2 0x9C0 SWAP1 ADDRESS SWAP1 CALLER SWAP1 DUP7 SWAP1 PUSH1 0x4 ADD PUSH2 0x345D JUMP JUMPDEST PUSH1 0x20 PUSH1 0x40 MLOAD DUP1 DUP4 SUB DUP2 PUSH1 0x0 DUP8 GAS CALL ISZERO DUP1 ISZERO PUSH2 0x9DF JUMPI RETURNDATASIZE PUSH1 0x0 DUP1 RETURNDATACOPY RETURNDATASIZE PUSH1 0x0 REVERT JUMPDEST POP POP POP POP PUSH1 0x40 MLOAD RETURNDATASIZE PUSH1 0x1F NOT PUSH1 0x1F DUP3 ADD AND DUP3 ADD DUP1 PUSH1 0x40 MSTORE POP DUP2 ADD SWAP1 PUSH2 0xA03 SWAP2 SWAP1 PUSH2 0x3481 JUMP JUMPDEST POP PUSH1 0x40 MLOAD DUP2 DUP2 MSTORE CALLER SWAP1 PUSH32 0x34042597700906FD41B7EAD5497C3BF88EF36150597DDD9193327A09F0604F66 SWAP1 PUSH1 0x20 ADD JUMPDEST PUSH1 0x40 MLOAD DUP1 SWAP2 SUB SWAP1 LOG2 POP PUSH1 0x1 DUP1 SSTORE JUMP JUMPDEST PUSH1 0x2 PUSH1 0x1 SLOAD SUB PUSH2 0xA63 JUMPI PUSH1 0x40 MLOAD PUSH3 0x461BCD PUSH1 0xE5 SHL DUP2 MSTORE PUSH1 0x4 ADD PUSH2 0x64F SWAP1 PUSH2 0x340D JUMP JUMPDEST PUSH1 0x2 PUSH1 0x1 SSTORE PUSH1 0xA4 SLOAD PUSH1 0xFF AND ISZERO PUSH2 0xAAE JUMPI PUSH1 0x40 MLOAD PUSH3 0x461BCD PUSH1 0xE5 SHL DUP2 MSTORE PUSH1 0x20 PUSH1 0x4 DUP3 ADD MSTORE PUSH1 0x10 PUSH1 0x24 DUP3 ADD MSTORE PUSH16 0x636F6E74726163742070617573656421 PUSH1 0x80 SHL PUSH1 0x44 DUP3 ADD MSTORE PUSH1 0x64 ADD PUSH2 0x64F JUMP JUMPDEST PUSH1 0xA1 SLOAD DUP4 SWAP1 DUP2 LT PUSH2 0xAD1 JUMPI PUSH1 0x40 MLOAD PUSH3 0x461BCD PUSH1 0xE5 SHL DUP2 MSTORE PUSH1 0x4 ADD PUSH2 0x64F SWAP1 PUSH2 0x3339 JUMP JUMPDEST CALLER PUSH1 0x0 SWAP1 DUP2 MSTORE PUSH1 0x9E PUSH1 0x20 SWAP1 DUP2 MSTORE PUSH1 0x40 DUP1 DUP4 KECCAK256 DUP7 DUP5 MSTORE DUP3 MSTORE DUP1 DUP4 KECCAK256 DUP2 MLOAD PUSH2 0x120 DUP2 ADD DUP4 MSTORE DUP2 SLOAD DUP2 MSTORE PUSH1 0x1 DUP3 ADD SLOAD SWAP4 DUP2 ADD SWAP4 SWAP1 SWAP4 MSTORE PUSH1 0x2 DUP2 ADD SLOAD SWAP2 DUP4 ADD SWAP2 SWAP1 SWAP2 MSTORE PUSH1 0x3 DUP2 ADD SLOAD PUSH1 0x60 DUP4 ADD MSTORE PUSH1 0x4 DUP2 ADD SLOAD PUSH1 0x80 DUP4 ADD MSTORE PUSH1 0x5 DUP2 ADD SLOAD PUSH1 0xA0 DUP4 ADD MSTORE PUSH1 0x6 DUP2 ADD SLOAD PUSH1 0xC0 DUP4 ADD MSTORE PUSH1 0x7 DUP2 ADD SLOAD PUSH1 0xE0 DUP4 ADD MSTORE PUSH1 0x8 ADD SLOAD PUSH2 0x100 DUP3 ADD MSTORE SWAP1 DUP4 PUSH2 0xB5E JUMPI DUP2 PUSH1 0x80 ADD MLOAD TIMESTAMP GT PUSH2 0xB61 JUMP JUMPDEST PUSH1 0x1 JUMPDEST SWAP1 POP PUSH1 0x0 DUP3 PUSH1 0x20 ADD MLOAD GT PUSH2 0xBB7 JUMPI PUSH1 0x40 MLOAD PUSH3 0x461BCD PUSH1 0xE5 SHL DUP2 MSTORE PUSH1 0x20 PUSH1 0x4 DUP3 ADD MSTORE PUSH1 0x18 PUSH1 0x24 DUP3 ADD MSTORE PUSH32 0x436C61696D203A204E6F7468696E6720746F20636C61696D0000000000000000 PUSH1 0x44 DUP3 ADD MSTORE PUSH1 0x64 ADD PUSH2 0x64F JUMP JUMPDEST DUP1 PUSH2 0xC1F JUMPI PUSH1 0x40 MLOAD PUSH3 0x461BCD PUSH1 0xE5 SHL DUP2 MSTORE PUSH1 0x20 PUSH1 0x4 DUP3 ADD MSTORE PUSH1 0x32 PUSH1 0x24 DUP3 ADD MSTORE PUSH32 0x436C61696D203A2063616E6E6F74207769746864726177206265666F72652076 PUSH1 0x44 DUP3 ADD MSTORE PUSH18 0x657374696E6720706572696F6420656E6473 PUSH1 0x70 SHL PUSH1 0x64 DUP3 ADD MSTORE PUSH1 0x84 ADD PUSH2 0x64F JUMP JUMPDEST PUSH1 0x0 PUSH2 0xC2C CALLER DUP8 DUP8 PUSH2 0x27B5 JUMP JUMPDEST SWAP1 POP PUSH1 0x0 DUP2 DUP5 PUSH1 0x40 ADD MLOAD PUSH2 0xC40 SWAP2 SWAP1 PUSH2 0x349E JUMP JUMPDEST SWAP1 POP PUSH1 0x0 DUP5 PUSH1 0x20 ADD MLOAD SWAP1 POP DUP2 PUSH1 0xA1 DUP7 PUSH1 0xC0 ADD MLOAD DUP2 SLOAD DUP2 LT PUSH2 0xC63 JUMPI PUSH2 0xC63 PUSH2 0x3370 JUMP JUMPDEST SWAP1 PUSH1 0x0 MSTORE PUSH1 0x20 PUSH1 0x0 KECCAK256 SWAP1 PUSH1 0x5 MUL ADD PUSH1 0x3 ADD SLOAD GT PUSH2 0xCE0 JUMPI PUSH1 0x40 MLOAD PUSH3 0x461BCD PUSH1 0xE5 SHL DUP2 MSTORE PUSH1 0x20 PUSH1 0x4 DUP3 ADD MSTORE PUSH1 0x35 PUSH1 0x24 DUP3 ADD MSTORE PUSH32 0x5374616B696E673A20496E73756666696369656E742072657761726420616C6C PUSH1 0x44 DUP3 ADD MSTORE PUSH21 0x37BBB0B731B290333937B6903A34329020B236B4B7 PUSH1 0x59 SHL PUSH1 0x64 DUP3 ADD MSTORE PUSH1 0x84 ADD PUSH2 0x64F JUMP JUMPDEST PUSH1 0x0 PUSH1 0xA1 DUP7 PUSH1 0xC0 ADD MLOAD DUP2 SLOAD DUP2 LT PUSH2 0xCF9 JUMPI PUSH2 0xCF9 PUSH2 0x3370 JUMP JUMPDEST PUSH1 0x0 SWAP2 DUP3 MSTORE PUSH1 0x20 SWAP1 SWAP2 KECCAK256 PUSH1 0x5 SWAP1 SWAP2 MUL ADD PUSH1 0x1 ADD SLOAD PUSH1 0x40 MLOAD PUSH4 0xA9059CBB PUSH1 0xE0 SHL DUP2 MSTORE CALLER PUSH1 0x4 DUP3 ADD MSTORE PUSH1 0x24 DUP2 ADD DUP6 SWAP1 MSTORE PUSH1 0x1 PUSH1 0x1 PUSH1 0xA0 SHL SUB SWAP1 SWAP2 AND SWAP2 POP DUP2 SWAP1 PUSH4 0xA9059CBB SWAP1 PUSH1 0x44 ADD PUSH1 0x20 PUSH1 0x40 MLOAD DUP1 DUP4 SUB DUP2 PUSH1 0x0 DUP8 GAS CALL ISZERO DUP1 ISZERO PUSH2 0xD5E JUMPI RETURNDATASIZE PUSH1 0x0 DUP1 RETURNDATACOPY RETURNDATASIZE PUSH1 0x0 REVERT JUMPDEST POP POP POP POP PUSH1 0x40 MLOAD RETURNDATASIZE PUSH1 0x1F NOT PUSH1 0x1F DUP3 ADD AND DUP3 ADD DUP1 PUSH1 0x40 MSTORE POP DUP2 ADD SWAP1 PUSH2 0xD82 SWAP2 SWAP1 PUSH2 0x3481 JUMP JUMPDEST POP PUSH1 0x0 PUSH1 0xA1 DUP8 PUSH1 0xC0 ADD MLOAD DUP2 SLOAD DUP2 LT PUSH2 0xD9C JUMPI PUSH2 0xD9C PUSH2 0x3370 JUMP JUMPDEST PUSH1 0x0 SWAP2 DUP3 MSTORE PUSH1 0x20 SWAP1 SWAP2 KECCAK256 PUSH1 0x5 SWAP1 SWAP2 MUL ADD SLOAD PUSH2 0x100 DUP9 ADD MLOAD PUSH1 0x40 MLOAD PUSH4 0x23B872DD PUSH1 0xE0 SHL DUP2 MSTORE PUSH1 0x1 PUSH1 0x1 PUSH1 0xA0 SHL SUB SWAP1 SWAP3 AND SWAP3 POP DUP3 SWAP2 PUSH4 0x23B872DD SWAP2 PUSH2 0xDE5 SWAP2 ADDRESS SWAP2 CALLER SWAP2 PUSH1 0x4 ADD PUSH2 0x345D JUMP JUMPDEST PUSH1 0x0 PUSH1 0x40 MLOAD DUP1 DUP4 SUB DUP2 PUSH1 0x0 DUP8 DUP1 EXTCODESIZE ISZERO DUP1 ISZERO PUSH2 0xDFF JUMPI PUSH1 0x0 DUP1 REVERT JUMPDEST POP GAS CALL ISZERO DUP1 ISZERO PUSH2 0xE13 JUMPI RETURNDATASIZE PUSH1 0x0 DUP1 RETURNDATACOPY RETURNDATASIZE PUSH1 0x0 REVERT JUMPDEST POP POP POP POP DUP9 ISZERO DUP1 ISZERO PUSH2 0xE3A JUMPI POP PUSH1 0xE0 DUP8 ADD MLOAD PUSH1 0x0 SWAP1 DUP2 MSTORE PUSH1 0xA2 PUSH1 0x20 MSTORE PUSH1 0x40 SWAP1 KECCAK256 PUSH1 0x1 ADD SLOAD ISZERO ISZERO JUMPDEST ISZERO PUSH2 0xE49 JUMPI PUSH2 0xE49 CALLER DUP12 PUSH2 0x297D JUMP JUMPDEST DUP4 PUSH1 0xA1 DUP9 PUSH1 0xC0 ADD MLOAD DUP2 SLOAD DUP2 LT PUSH2 0xE61 JUMPI PUSH2 0xE61 PUSH2 0x3370 JUMP JUMPDEST SWAP1 PUSH1 0x0 MSTORE PUSH1 0x20 PUSH1 0x0 KECCAK256 SWAP1 PUSH1 0x5 MUL ADD PUSH1 0x3 ADD PUSH1 0x0 DUP3 DUP3 SLOAD PUSH2 0xE81 SWAP2 SWAP1 PUSH2 0x33D7 JUMP JUMPDEST SWAP3 POP POP DUP2 SWAP1 SSTORE POP DUP4 PUSH1 0xA1 DUP9 PUSH1 0xC0 ADD MLOAD DUP2 SLOAD DUP2 LT PUSH2 0xEA0 JUMPI PUSH2 0xEA0 PUSH2 0x3370 JUMP JUMPDEST SWAP1 PUSH1 0x0 MSTORE PUSH1 0x20 PUSH1 0x0 KECCAK256 SWAP1 PUSH1 0x5 MUL ADD PUSH1 0x4 ADD PUSH1 0x0 DUP3 DUP3 SLOAD PUSH2 0xEC0 SWAP2 SWAP1 PUSH2 0x349E JUMP JUMPDEST SWAP3 POP POP DUP2 SWAP1 SSTORE POP DUP7 PUSH1 0x20 ADD MLOAD PUSH1 0xA1 DUP9 PUSH1 0xC0 ADD MLOAD DUP2 SLOAD DUP2 LT PUSH2 0xEE3 JUMPI PUSH2 0xEE3 PUSH2 0x3370 JUMP JUMPDEST SWAP1 PUSH1 0x0 MSTORE PUSH1 0x20 PUSH1 0x0 KECCAK256 SWAP1 PUSH1 0x5 MUL ADD PUSH1 0x2 ADD PUSH1 0x0 DUP3 DUP3 SLOAD PUSH2 0xF03 SWAP2 SWAP1 PUSH2 0x33D7 JUMP JUMPDEST SWAP1 SWAP2 SSTORE POP POP PUSH1 0xE0 DUP8 ADD MLOAD PUSH1 0x0 SWAP1 DUP2 MSTORE PUSH1 0xA2 PUSH1 0x20 MSTORE PUSH1 0x40 DUP2 KECCAK256 DUP1 SLOAD DUP6 SWAP3 SWAP1 PUSH2 0xF2B SWAP1 DUP5 SWAP1 PUSH2 0x33D7 JUMP JUMPDEST SWAP1 SWAP2 SSTORE POP POP CALLER PUSH1 0x0 SWAP1 DUP2 MSTORE PUSH1 0x9E PUSH1 0x20 SWAP1 DUP2 MSTORE PUSH1 0x40 DUP1 DUP4 KECCAK256 DUP14 DUP5 MSTORE SWAP1 SWAP2 MSTORE DUP2 KECCAK256 PUSH1 0x2 DUP2 ADD DUP3 SWAP1 SSTORE PUSH1 0x1 ADD SSTORE PUSH1 0xA4 SLOAD PUSH1 0xFF AND ISZERO PUSH2 0xF86 JUMPI PUSH1 0xA5 SLOAD CALLER PUSH1 0x0 SWAP1 DUP2 MSTORE PUSH1 0x9E PUSH1 0x20 SWAP1 DUP2 MSTORE PUSH1 0x40 DUP1 DUP4 KECCAK256 DUP15 DUP5 MSTORE SWAP1 SWAP2 MSTORE SWAP1 KECCAK256 PUSH1 0x5 ADD SSTORE PUSH2 0xFA8 JUMP JUMPDEST CALLER PUSH1 0x0 SWAP1 DUP2 MSTORE PUSH1 0x9E PUSH1 0x20 SWAP1 DUP2 MSTORE PUSH1 0x40 DUP1 DUP4 KECCAK256 DUP14 DUP5 MSTORE SWAP1 SWAP2 MSTORE SWAP1 KECCAK256 TIMESTAMP PUSH1 0x5 SWAP1 SWAP2 ADD SSTORE JUMPDEST PUSH1 0x40 DUP1 MLOAD DUP6 DUP2 MSTORE TIMESTAMP PUSH1 0x20 DUP3 ADD MSTORE DUP13 SWAP2 CALLER SWAP2 PUSH32 0x812BE816DB82C66CD18CA8457005CD84689642D8AC4D38599CC6AF444A2DC72A SWAP2 ADD PUSH1 0x40 MLOAD DUP1 SWAP2 SUB SWAP1 LOG3 POP POP PUSH1 0x1 DUP1 SSTORE POP POP POP POP POP POP POP POP POP JUMP JUMPDEST PUSH1 0x65 SLOAD PUSH1 0x1 PUSH1 0x1 PUSH1 0xA0 SHL SUB AND CALLER EQ PUSH2 0x101F JUMPI PUSH1 0x40 MLOAD PUSH3 0x461BCD PUSH1 0xE5 SHL DUP2 MSTORE PUSH1 0x4 ADD PUSH2 0x64F SWAP1 PUSH2 0x3304 JUMP JUMPDEST PUSH2 0x1029 PUSH1 0x0 PUSH2 0x2BEA JUMP JUMPDEST JUMP JUMPDEST PUSH1 0x65 SLOAD PUSH1 0x1 PUSH1 0x1 PUSH1 0xA0 SHL SUB AND CALLER EQ PUSH2 0x1055 JUMPI PUSH1 0x40 MLOAD PUSH3 0x461BCD PUSH1 0xE5 SHL DUP2 MSTORE PUSH1 0x4 ADD PUSH2 0x64F SWAP1 PUSH2 0x3304 JUMP JUMPDEST PUSH1 0xA4 SLOAD PUSH1 0xFF AND ISZERO PUSH2 0x1099 JUMPI PUSH1 0x40 MLOAD PUSH3 0x461BCD PUSH1 0xE5 SHL DUP2 MSTORE PUSH1 0x20 PUSH1 0x4 DUP3 ADD MSTORE PUSH1 0xE PUSH1 0x24 DUP3 ADD MSTORE PUSH14 0x105B1C9958591E4814185D5CD959 PUSH1 0x92 SHL PUSH1 0x44 DUP3 ADD MSTORE PUSH1 0x64 ADD PUSH2 0x64F JUMP JUMPDEST PUSH1 0xA4 DUP1 SLOAD PUSH1 0xFF NOT AND PUSH1 0x1 OR SWAP1 SSTORE TIMESTAMP PUSH1 0xA5 SSTORE JUMP JUMPDEST PUSH1 0x0 DUP1 PUSH1 0x1 JUMPDEST PUSH1 0x97 SLOAD DUP2 GT PUSH2 0x1129 JUMPI PUSH1 0x0 DUP2 DUP2 MSTORE PUSH1 0xA0 PUSH1 0x20 MSTORE PUSH1 0x40 SWAP1 KECCAK256 PUSH1 0x1 ADD SLOAD ISZERO PUSH2 0x1117 JUMPI PUSH1 0x0 DUP2 DUP2 MSTORE PUSH1 0xA0 PUSH1 0x20 MSTORE PUSH1 0x40 SWAP1 KECCAK256 PUSH1 0x2 ADD SLOAD PUSH2 0x10EE SWAP1 DUP4 PUSH2 0x349E JUMP JUMPDEST PUSH1 0x0 DUP3 DUP2 MSTORE PUSH1 0xA0 PUSH1 0x20 MSTORE PUSH1 0x40 DUP2 KECCAK256 SLOAD SWAP2 SWAP4 POP PUSH2 0x110A SWAP2 DUP2 PUSH2 0x27B5 JUMP JUMPDEST PUSH2 0x1114 SWAP1 DUP4 PUSH2 0x349E JUMP JUMPDEST SWAP2 POP JUMPDEST DUP1 PUSH2 0x1121 DUP2 PUSH2 0x339C JUMP JUMPDEST SWAP2 POP POP PUSH2 0x10B2 JUMP JUMPDEST POP SWAP2 SWAP1 POP JUMP JUMPDEST PUSH1 0x65 SLOAD PUSH1 0x1 PUSH1 0x1 PUSH1 0xA0 SHL SUB AND CALLER EQ PUSH2 0x1159 JUMPI PUSH1 0x40 MLOAD PUSH3 0x461BCD PUSH1 0xE5 SHL DUP2 MSTORE PUSH1 0x4 ADD PUSH2 0x64F SWAP1 PUSH2 0x3304 JUMP JUMPDEST PUSH1 0x1 PUSH1 0x1 PUSH1 0xA0 SHL SUB DUP4 AND PUSH1 0x0 SWAP1 DUP2 MSTORE PUSH1 0x9D PUSH1 0x20 MSTORE PUSH1 0x40 SWAP1 KECCAK256 SLOAD DUP4 SWAP1 PUSH1 0xFF AND ISZERO PUSH2 0x11C4 JUMPI PUSH1 0x40 MLOAD PUSH3 0x461BCD PUSH1 0xE5 SHL DUP2 MSTORE PUSH1 0x20 PUSH1 0x4 DUP3 ADD MSTORE PUSH1 0x1E PUSH1 0x24 DUP3 ADD MSTORE PUSH32 0x416464203A20746F6B656E20706F6F6C20616C72656164792065786974730000 PUSH1 0x44 DUP3 ADD MSTORE PUSH1 0x64 ADD PUSH2 0x64F JUMP JUMPDEST PUSH1 0x1 PUSH1 0x1 PUSH1 0xA0 SHL SUB DUP5 AND PUSH1 0x0 SWAP1 DUP2 MSTORE PUSH1 0x9D PUSH1 0x20 MSTORE PUSH1 0x40 DUP2 KECCAK256 DUP1 SLOAD PUSH1 0xFF NOT AND PUSH1 0x1 OR SWAP1 SSTORE PUSH1 0xA1 SLOAD PUSH2 0x11F6 JUMPI PUSH1 0xA1 SLOAD PUSH2 0x1205 JUMP JUMPDEST PUSH1 0xA1 SLOAD PUSH2 0x1205 SWAP1 PUSH1 0x1 SWAP1 PUSH2 0x33D7 JUMP JUMPDEST SWAP1 POP PUSH1 0x0 JUMPDEST DUP4 MLOAD DUP2 LT ISZERO PUSH2 0x1289 JUMPI DUP4 DUP2 DUP2 MLOAD DUP2 LT PUSH2 0x1225 JUMPI PUSH2 0x1225 PUSH2 0x3370 JUMP JUMPDEST PUSH1 0x20 MUL PUSH1 0x20 ADD ADD MLOAD PUSH1 0x20 ADD MLOAD PUSH1 0x9C PUSH1 0x0 DUP5 DUP2 MSTORE PUSH1 0x20 ADD SWAP1 DUP2 MSTORE PUSH1 0x20 ADD PUSH1 0x0 KECCAK256 PUSH1 0x0 DUP7 DUP5 DUP2 MLOAD DUP2 LT PUSH2 0x1258 JUMPI PUSH2 0x1258 PUSH2 0x3370 JUMP JUMPDEST PUSH1 0x20 MUL PUSH1 0x20 ADD ADD MLOAD PUSH1 0x0 ADD MLOAD DUP2 MSTORE PUSH1 0x20 ADD SWAP1 DUP2 MSTORE PUSH1 0x20 ADD PUSH1 0x0 KECCAK256 DUP2 SWAP1 SSTORE POP DUP1 DUP1 PUSH2 0x1281 SWAP1 PUSH2 0x339C JUMP JUMPDEST SWAP2 POP POP PUSH2 0x120A JUMP JUMPDEST POP POP PUSH1 0x9B DUP1 SLOAD PUSH1 0x1 PUSH1 0x1 PUSH1 0xA0 SHL SUB SWAP6 DUP7 AND PUSH1 0x1 PUSH1 0x1 PUSH1 0xA0 SHL SUB NOT SWAP2 DUP3 AND DUP2 OR SWAP1 SWAP3 SSTORE PUSH1 0x40 DUP1 MLOAD PUSH1 0xA0 DUP2 ADD DUP3 MSTORE SWAP3 DUP4 MSTORE SWAP5 DUP7 AND PUSH1 0x20 DUP4 ADD SWAP1 DUP2 MSTORE PUSH1 0x0 SWAP6 DUP4 ADD DUP7 DUP2 MSTORE PUSH1 0x60 DUP5 ADD DUP8 DUP2 MSTORE PUSH1 0x80 DUP6 ADD DUP9 DUP2 MSTORE PUSH1 0xA1 DUP1 SLOAD PUSH1 0x1 DUP2 ADD DUP3 SSTORE SWAP10 MSTORE SWAP5 MLOAD PUSH1 0x5 SWAP1 SWAP9 MUL PUSH32 0xAADC37B8BA5645E62F4546802DB221593A94729CCBFC5A97D01365A88F649878 DUP2 ADD DUP1 SLOAD SWAP10 DUP12 AND SWAP10 DUP7 AND SWAP10 SWAP1 SWAP10 OR SWAP1 SWAP9 SSTORE SWAP2 MLOAD PUSH32 0xAADC37B8BA5645E62F4546802DB221593A94729CCBFC5A97D01365A88F649879 DUP9 ADD DUP1 SLOAD SWAP2 SWAP1 SWAP10 AND SWAP4 AND SWAP3 SWAP1 SWAP3 OR SWAP1 SWAP7 SSTORE MLOAD PUSH32 0xAADC37B8BA5645E62F4546802DB221593A94729CCBFC5A97D01365A88F64987A DUP6 ADD SSTORE SWAP4 MLOAD PUSH32 0xAADC37B8BA5645E62F4546802DB221593A94729CCBFC5A97D01365A88F64987B DUP5 ADD SSTORE POP POP SWAP1 MLOAD PUSH32 0xAADC37B8BA5645E62F4546802DB221593A94729CCBFC5A97D01365A88F64987C SWAP1 SWAP2 ADD SSTORE JUMP JUMPDEST PUSH1 0x1 PUSH1 0x1 PUSH1 0xA0 SHL SUB DUP2 AND PUSH1 0x0 SWAP1 DUP2 MSTORE PUSH1 0x9F PUSH1 0x20 MSTORE PUSH1 0x40 DUP2 KECCAK256 SLOAD PUSH1 0x60 SWAP2 SWAP1 PUSH8 0xFFFFFFFFFFFFFFFF DUP2 GT ISZERO PUSH2 0x13FC JUMPI PUSH2 0x13FC PUSH2 0x2EB7 JUMP JUMPDEST PUSH1 0x40 MLOAD SWAP1 DUP1 DUP3 MSTORE DUP1 PUSH1 0x20 MUL PUSH1 0x20 ADD DUP3 ADD PUSH1 0x40 MSTORE DUP1 ISZERO PUSH2 0x147C JUMPI DUP2 PUSH1 0x20 ADD JUMPDEST PUSH2 0x1469 PUSH1 0x40 MLOAD DUP1 PUSH2 0x120 ADD PUSH1 0x40 MSTORE DUP1 PUSH1 0x0 DUP2 MSTORE PUSH1 0x20 ADD PUSH1 0x0 DUP2 MSTORE PUSH1 0x20 ADD PUSH1 0x0 DUP2 MSTORE PUSH1 0x20 ADD PUSH1 0x0 DUP2 MSTORE PUSH1 0x20 ADD PUSH1 0x0 DUP2 MSTORE PUSH1 0x20 ADD PUSH1 0x0 DUP2 MSTORE PUSH1 0x20 ADD PUSH1 0x0 DUP2 MSTORE PUSH1 0x20 ADD PUSH1 0x0 DUP2 MSTORE PUSH1 0x20 ADD PUSH1 0x0 DUP2 MSTORE POP SWAP1 JUMP JUMPDEST DUP2 MSTORE PUSH1 0x20 ADD SWAP1 PUSH1 0x1 SWAP1 SUB SWAP1 DUP2 PUSH2 0x141A JUMPI SWAP1 POP JUMPDEST POP SWAP1 POP PUSH1 0x0 JUMPDEST PUSH1 0x1 PUSH1 0x1 PUSH1 0xA0 SHL SUB DUP5 AND PUSH1 0x0 SWAP1 DUP2 MSTORE PUSH1 0x9F PUSH1 0x20 MSTORE PUSH1 0x40 SWAP1 KECCAK256 SLOAD DUP2 LT ISZERO PUSH2 0x1599 JUMPI PUSH1 0x1 PUSH1 0x1 PUSH1 0xA0 SHL SUB DUP5 AND PUSH1 0x0 SWAP1 DUP2 MSTORE PUSH1 0x9E PUSH1 0x20 SWAP1 DUP2 MSTORE PUSH1 0x40 DUP1 DUP4 KECCAK256 PUSH1 0x9F SWAP1 SWAP3 MSTORE DUP3 KECCAK256 DUP1 SLOAD DUP4 SWAP2 SWAP1 DUP6 SWAP1 DUP2 LT PUSH2 0x14D9 JUMPI PUSH2 0x14D9 PUSH2 0x3370 JUMP JUMPDEST SWAP1 PUSH1 0x0 MSTORE PUSH1 0x20 PUSH1 0x0 KECCAK256 ADD SLOAD DUP2 MSTORE PUSH1 0x20 ADD SWAP1 DUP2 MSTORE PUSH1 0x20 ADD PUSH1 0x0 KECCAK256 PUSH1 0x40 MLOAD DUP1 PUSH2 0x120 ADD PUSH1 0x40 MSTORE SWAP1 DUP2 PUSH1 0x0 DUP3 ADD SLOAD DUP2 MSTORE PUSH1 0x20 ADD PUSH1 0x1 DUP3 ADD SLOAD DUP2 MSTORE PUSH1 0x20 ADD PUSH1 0x2 DUP3 ADD SLOAD DUP2 MSTORE PUSH1 0x20 ADD PUSH1 0x3 DUP3 ADD SLOAD DUP2 MSTORE PUSH1 0x20 ADD PUSH1 0x4 DUP3 ADD SLOAD DUP2 MSTORE PUSH1 0x20 ADD PUSH1 0x5 DUP3 ADD SLOAD DUP2 MSTORE PUSH1 0x20 ADD PUSH1 0x6 DUP3 ADD SLOAD DUP2 MSTORE PUSH1 0x20 ADD PUSH1 0x7 DUP3 ADD SLOAD DUP2 MSTORE PUSH1 0x20 ADD PUSH1 0x8 DUP3 ADD SLOAD DUP2 MSTORE POP POP SWAP1 POP PUSH1 0x0 DUP2 PUSH1 0x20 ADD MLOAD GT ISZERO PUSH2 0x1586 JUMPI DUP1 DUP4 DUP4 DUP2 MLOAD DUP2 LT PUSH2 0x157A JUMPI PUSH2 0x157A PUSH2 0x3370 JUMP JUMPDEST PUSH1 0x20 MUL PUSH1 0x20 ADD ADD DUP2 SWAP1 MSTORE POP JUMPDEST POP DUP1 PUSH2 0x1591 DUP2 PUSH2 0x339C JUMP JUMPDEST SWAP2 POP POP PUSH2 0x1482 JUMP JUMPDEST POP SWAP3 SWAP2 POP POP JUMP JUMPDEST PUSH1 0x65 SLOAD PUSH1 0x1 PUSH1 0x1 PUSH1 0xA0 SHL SUB AND CALLER EQ PUSH2 0x15CA JUMPI PUSH1 0x40 MLOAD PUSH3 0x461BCD PUSH1 0xE5 SHL DUP2 MSTORE PUSH1 0x4 ADD PUSH2 0x64F SWAP1 PUSH2 0x3304 JUMP JUMPDEST PUSH1 0x99 DUP1 SLOAD PUSH1 0x1 PUSH1 0x1 PUSH1 0xA0 SHL SUB NOT AND PUSH1 0x1 PUSH1 0x1 PUSH1 0xA0 SHL SUB SWAP3 SWAP1 SWAP3 AND SWAP2 SWAP1 SWAP2 OR SWAP1 SSTORE JUMP JUMPDEST PUSH1 0x65 SLOAD PUSH1 0x1 PUSH1 0x1 PUSH1 0xA0 SHL SUB AND CALLER EQ PUSH2 0x1616 JUMPI PUSH1 0x40 MLOAD PUSH3 0x461BCD PUSH1 0xE5 SHL DUP2 MSTORE PUSH1 0x4 ADD PUSH2 0x64F SWAP1 PUSH2 0x3304 JUMP JUMPDEST PUSH1 0xA1 SLOAD DUP3 SWAP1 DUP2 LT PUSH2 0x1639 JUMPI PUSH1 0x40 MLOAD PUSH3 0x461BCD PUSH1 0xE5 SHL DUP2 MSTORE PUSH1 0x4 ADD PUSH2 0x64F SWAP1 PUSH2 0x3339 JUMP JUMPDEST PUSH1 0x0 PUSH1 0xA1 DUP5 DUP2 SLOAD DUP2 LT PUSH2 0x164E JUMPI PUSH2 0x164E PUSH2 0x3370 JUMP JUMPDEST SWAP1 PUSH1 0x0 MSTORE PUSH1 0x20 PUSH1 0x0 KECCAK256 SWAP1 PUSH1 0x5 MUL ADD PUSH1 0x1 ADD PUSH1 0x0 SWAP1 SLOAD SWAP1 PUSH2 0x100 EXP SWAP1 DIV PUSH1 0x1 PUSH1 0x1 PUSH1 0xA0 SHL SUB AND SWAP1 POP DUP3 PUSH1 0xA1 DUP6 DUP2 SLOAD DUP2 LT PUSH2 0x1689 JUMPI PUSH2 0x1689 PUSH2 0x3370 JUMP JUMPDEST SWAP1 PUSH1 0x0 MSTORE PUSH1 0x20 PUSH1 0x0 KECCAK256 SWAP1 PUSH1 0x5 MUL ADD PUSH1 0x3 ADD SLOAD LT ISZERO PUSH2 0x170F JUMPI PUSH1 0x40 MLOAD PUSH3 0x461BCD PUSH1 0xE5 SHL DUP2 MSTORE PUSH1 0x20 PUSH1 0x4 DUP3 ADD MSTORE PUSH1 0x3F PUSH1 0x24 DUP3 ADD MSTORE PUSH32 0x5374616B696E673A20616D6F756E74204D757374206265206C65737320746861 PUSH1 0x44 DUP3 ADD MSTORE PUSH32 0x6E206F7220657175616C20746F20617661696C61626C65207265776172647300 PUSH1 0x64 DUP3 ADD MSTORE PUSH1 0x84 ADD PUSH2 0x64F JUMP JUMPDEST PUSH1 0x40 MLOAD PUSH4 0xA9059CBB PUSH1 0xE0 SHL DUP2 MSTORE CALLER PUSH1 0x4 DUP3 ADD MSTORE PUSH1 0x24 DUP2 ADD DUP5 SWAP1 MSTORE PUSH1 0x1 PUSH1 0x1 PUSH1 0xA0 SHL SUB DUP3 AND SWAP1 PUSH4 0xA9059CBB SWAP1 PUSH1 0x44 ADD PUSH1 0x20 PUSH1 0x40 MLOAD DUP1 DUP4 SUB DUP2 PUSH1 0x0 DUP8 GAS CALL ISZERO DUP1 ISZERO PUSH2 0x175C JUMPI RETURNDATASIZE PUSH1 0x0 DUP1 RETURNDATACOPY RETURNDATASIZE PUSH1 0x0 REVERT JUMPDEST POP POP POP POP PUSH1 0x40 MLOAD RETURNDATASIZE PUSH1 0x1F NOT PUSH1 0x1F DUP3 ADD AND DUP3 ADD DUP1 PUSH1 0x40 MSTORE POP DUP2 ADD SWAP1 PUSH2 0x1780 SWAP2 SWAP1 PUSH2 0x3481 JUMP JUMPDEST POP DUP3 PUSH1 0xA1 DUP6 DUP2 SLOAD DUP2 LT PUSH2 0x1795 JUMPI PUSH2 0x1795 PUSH2 0x3370 JUMP JUMPDEST SWAP1 PUSH1 0x0 MSTORE PUSH1 0x20 PUSH1 0x0 KECCAK256 SWAP1 PUSH1 0x5 MUL ADD PUSH1 0x3 ADD PUSH1 0x0 DUP3 DUP3 SLOAD PUSH2 0x17B5 SWAP2 SWAP1 PUSH2 0x33D7 JUMP JUMPDEST SWAP1 SWAP2 SSTORE POP POP POP POP POP POP JUMP JUMPDEST PUSH1 0x0 PUSH1 0x2 PUSH1 0x1 SLOAD SUB PUSH2 0x17E4 JUMPI PUSH1 0x40 MLOAD PUSH3 0x461BCD PUSH1 0xE5 SHL DUP2 MSTORE PUSH1 0x4 ADD PUSH2 0x64F SWAP1 PUSH2 0x340D JUMP JUMPDEST PUSH1 0x2 PUSH1 0x1 SSTORE PUSH1 0xA4 SLOAD PUSH1 0xFF AND ISZERO PUSH2 0x182F JUMPI PUSH1 0x40 MLOAD PUSH3 0x461BCD PUSH1 0xE5 SHL DUP2 MSTORE PUSH1 0x20 PUSH1 0x4 DUP3 ADD MSTORE PUSH1 0x10 PUSH1 0x24 DUP3 ADD MSTORE PUSH16 0x636F6E74726163742070617573656421 PUSH1 0x80 SHL PUSH1 0x44 DUP3 ADD MSTORE PUSH1 0x64 ADD PUSH2 0x64F JUMP JUMPDEST PUSH1 0xA1 SLOAD DUP5 SWAP1 DUP2 LT PUSH2 0x1852 JUMPI PUSH1 0x40 MLOAD PUSH3 0x461BCD PUSH1 0xE5 SHL DUP2 MSTORE PUSH1 0x4 ADD PUSH2 0x64F SWAP1 PUSH2 0x3339 JUMP JUMPDEST PUSH1 0xA4 SLOAD PUSH1 0xFF AND ISZERO PUSH2 0x1899 JUMPI PUSH1 0x40 MLOAD PUSH3 0x461BCD PUSH1 0xE5 SHL DUP2 MSTORE PUSH1 0x20 PUSH1 0x4 DUP3 ADD MSTORE PUSH1 0x11 PUSH1 0x24 DUP3 ADD MSTORE PUSH17 0x14DD185ADA5B99C81A5CC81C185D5CD959 PUSH1 0x7A SHL PUSH1 0x44 DUP3 ADD MSTORE PUSH1 0x64 ADD PUSH2 0x64F JUMP JUMPDEST PUSH1 0x0 DUP6 DUP2 MSTORE PUSH1 0x9C PUSH1 0x20 SWAP1 DUP2 MSTORE PUSH1 0x40 DUP1 DUP4 KECCAK256 DUP7 DUP5 MSTORE SWAP1 SWAP2 MSTORE SWAP1 KECCAK256 SLOAD PUSH1 0x0 SUB PUSH2 0x18FB JUMPI PUSH1 0x40 MLOAD PUSH3 0x461BCD PUSH1 0xE5 SHL DUP2 MSTORE PUSH1 0x20 PUSH1 0x4 DUP3 ADD MSTORE PUSH1 0x16 PUSH1 0x24 DUP3 ADD MSTORE PUSH22 0x125B9D985B1A59081CDD185ADA5B99C81C195C9A5BD9 PUSH1 0x52 SHL PUSH1 0x44 DUP3 ADD MSTORE PUSH1 0x64 ADD PUSH2 0x64F JUMP JUMPDEST PUSH1 0x9B SLOAD PUSH1 0x40 MLOAD PUSH4 0x133F7571 PUSH1 0xE3 SHL DUP2 MSTORE PUSH1 0x4 DUP2 ADD DUP7 SWAP1 MSTORE PUSH1 0x0 SWAP2 DUP3 SWAP2 DUP3 SWAP2 PUSH1 0x1 PUSH1 0x1 PUSH1 0xA0 SHL SUB AND SWAP1 PUSH4 0x99FBAB88 SWAP1 PUSH1 0x24 ADD PUSH2 0x180 PUSH1 0x40 MLOAD DUP1 DUP4 SUB DUP2 DUP7 GAS STATICCALL ISZERO DUP1 ISZERO PUSH2 0x194A JUMPI RETURNDATASIZE PUSH1 0x0 DUP1 RETURNDATACOPY RETURNDATASIZE PUSH1 0x0 REVERT JUMPDEST POP POP POP POP PUSH1 0x40 MLOAD RETURNDATASIZE PUSH1 0x1F NOT PUSH1 0x1F DUP3 ADD AND DUP3 ADD DUP1 PUSH1 0x40 MSTORE POP DUP2 ADD SWAP1 PUSH2 0x196E SWAP2 SWAP1 PUSH2 0x34FD JUMP JUMPDEST POP POP POP POP SWAP8 POP POP POP POP SWAP5 POP SWAP5 POP POP POP DUP3 PUSH1 0x1 PUSH1 0x1 PUSH1 0xA0 SHL SUB AND PUSH1 0x9A PUSH1 0x0 SWAP1 SLOAD SWAP1 PUSH2 0x100 EXP SWAP1 DIV PUSH1 0x1 PUSH1 0x1 PUSH1 0xA0 SHL SUB AND PUSH1 0x1 PUSH1 0x1 PUSH1 0xA0 SHL SUB AND EQ DUP1 ISZERO PUSH2 0x19EA JUMPI POP DUP2 PUSH1 0x1 PUSH1 0x1 PUSH1 0xA0 SHL SUB AND PUSH1 0xA1 DUP10 DUP2 SLOAD DUP2 LT PUSH2 0x19CB JUMPI PUSH2 0x19CB PUSH2 0x3370 JUMP JUMPDEST PUSH1 0x0 SWAP2 DUP3 MSTORE PUSH1 0x20 SWAP1 SWAP2 KECCAK256 PUSH1 0x1 PUSH1 0x5 SWAP1 SWAP3 MUL ADD ADD SLOAD PUSH1 0x1 PUSH1 0x1 PUSH1 0xA0 SHL SUB AND EQ JUMPDEST PUSH2 0x1A28 JUMPI PUSH1 0x40 MLOAD PUSH3 0x461BCD PUSH1 0xE5 SHL DUP2 MSTORE PUSH1 0x20 PUSH1 0x4 DUP3 ADD MSTORE PUSH1 0xF PUSH1 0x24 DUP3 ADD MSTORE PUSH15 0x125B9D985B1A59081314081C1BDBDB PUSH1 0x8A SHL PUSH1 0x44 DUP3 ADD MSTORE PUSH1 0x64 ADD PUSH2 0x64F JUMP JUMPDEST PUSH1 0x0 PUSH1 0xA1 DUP10 DUP2 SLOAD DUP2 LT PUSH2 0x1A3D JUMPI PUSH2 0x1A3D PUSH2 0x3370 JUMP JUMPDEST PUSH1 0x0 SWAP2 DUP3 MSTORE PUSH1 0x20 SWAP1 SWAP2 KECCAK256 PUSH1 0x5 SWAP1 SWAP2 MUL ADD SLOAD PUSH1 0x40 MLOAD PUSH4 0xE985E9C5 PUSH1 0xE0 SHL DUP2 MSTORE CALLER PUSH1 0x4 DUP3 ADD MSTORE ADDRESS PUSH1 0x24 DUP3 ADD MSTORE PUSH1 0x1 PUSH1 0x1 PUSH1 0xA0 SHL SUB SWAP1 SWAP2 AND SWAP2 POP DUP2 SWAP1 PUSH4 0xE985E9C5 SWAP1 PUSH1 0x44 ADD PUSH1 0x20 PUSH1 0x40 MLOAD DUP1 DUP4 SUB DUP2 DUP7 GAS STATICCALL ISZERO DUP1 ISZERO PUSH2 0x1A9C JUMPI RETURNDATASIZE PUSH1 0x0 DUP1 RETURNDATACOPY RETURNDATASIZE PUSH1 0x0 REVERT JUMPDEST POP POP POP POP PUSH1 0x40 MLOAD RETURNDATASIZE PUSH1 0x1F NOT PUSH1 0x1F DUP3 ADD AND DUP3 ADD DUP1 PUSH1 0x40 MSTORE POP DUP2 ADD SWAP1 PUSH2 0x1AC0 SWAP2 SWAP1 PUSH2 0x3481 JUMP JUMPDEST DUP1 PUSH2 0x1B3C JUMPI POP PUSH1 0x40 MLOAD PUSH4 0x20604BF PUSH1 0xE2 SHL DUP2 MSTORE PUSH1 0x4 DUP2 ADD DUP10 SWAP1 MSTORE ADDRESS SWAP1 PUSH1 0x1 PUSH1 0x1 PUSH1 0xA0 SHL SUB DUP4 AND SWAP1 PUSH4 0x81812FC SWAP1 PUSH1 0x24 ADD PUSH1 0x20 PUSH1 0x40 MLOAD DUP1 DUP4 SUB DUP2 DUP7 GAS STATICCALL ISZERO DUP1 ISZERO PUSH2 0x1B0D JUMPI RETURNDATASIZE PUSH1 0x0 DUP1 RETURNDATACOPY RETURNDATASIZE PUSH1 0x0 REVERT JUMPDEST POP POP POP POP PUSH1 0x40 MLOAD RETURNDATASIZE PUSH1 0x1F NOT PUSH1 0x1F DUP3 ADD AND DUP3 ADD DUP1 PUSH1 0x40 MSTORE POP DUP2 ADD SWAP1 PUSH2 0x1B31 SWAP2 SWAP1 PUSH2 0x35DE JUMP JUMPDEST PUSH1 0x1 PUSH1 0x1 PUSH1 0xA0 SHL SUB AND EQ JUMPDEST PUSH2 0x1B80 JUMPI PUSH1 0x40 MLOAD PUSH3 0x461BCD PUSH1 0xE5 SHL DUP2 MSTORE PUSH1 0x20 PUSH1 0x4 DUP3 ADD MSTORE PUSH1 0x15 PUSH1 0x24 DUP3 ADD MSTORE PUSH21 0x14DD185ADA5B99CE88139BDD08185C1C1C9BDD9959 PUSH1 0x5A SHL PUSH1 0x44 DUP3 ADD MSTORE PUSH1 0x64 ADD PUSH2 0x64F JUMP JUMPDEST PUSH1 0x40 MLOAD PUSH4 0x23B872DD PUSH1 0xE0 SHL DUP2 MSTORE PUSH1 0x1 PUSH1 0x1 PUSH1 0xA0 SHL SUB DUP3 AND SWAP1 PUSH4 0x23B872DD SWAP1 PUSH2 0x1BB0 SWAP1 CALLER SWAP1 ADDRESS SWAP1 DUP14 SWAP1 PUSH1 0x4 ADD PUSH2 0x345D JUMP JUMPDEST PUSH1 0x0 PUSH1 0x40 MLOAD DUP1 DUP4 SUB DUP2 PUSH1 0x0 DUP8 DUP1 EXTCODESIZE ISZERO DUP1 ISZERO PUSH2 0x1BCA JUMPI PUSH1 0x0 DUP1 REVERT JUMPDEST POP GAS CALL ISZERO DUP1 ISZERO PUSH2 0x1BDE JUMPI RETURNDATASIZE PUSH1 0x0 DUP1 RETURNDATACOPY RETURNDATASIZE PUSH1 0x0 REVERT JUMPDEST POP POP POP POP PUSH2 0x1BF0 PUSH1 0x97 DUP1 SLOAD PUSH1 0x1 ADD SWAP1 SSTORE JUMP JUMPDEST PUSH1 0x0 PUSH2 0x1BFB PUSH1 0x97 SLOAD SWAP1 JUMP JUMPDEST SWAP1 POP PUSH1 0x0 PUSH2 0x1C0B CALLER DUP4 PUSH1 0x1 PUSH2 0x27B5 JUMP JUMPDEST CALLER PUSH1 0x0 SWAP1 DUP2 MSTORE PUSH1 0x9E PUSH1 0x20 SWAP1 DUP2 MSTORE PUSH1 0x40 DUP1 DUP4 KECCAK256 DUP7 DUP5 MSTORE SWAP1 SWAP2 MSTORE DUP2 KECCAK256 DUP5 DUP2 SSTORE PUSH1 0x1 ADD DUP1 SLOAD SWAP3 SWAP4 POP PUSH1 0x1 PUSH1 0x1 PUSH1 0x80 SHL SUB DUP8 AND SWAP3 SWAP1 SWAP2 SWAP1 PUSH2 0x1C49 SWAP1 DUP5 SWAP1 PUSH2 0x349E JUMP JUMPDEST SWAP1 SWAP2 SSTORE POP POP CALLER PUSH1 0x0 SWAP1 DUP2 MSTORE PUSH1 0x9E PUSH1 0x20 SWAP1 DUP2 MSTORE PUSH1 0x40 DUP1 DUP4 KECCAK256 DUP6 DUP5 MSTORE SWAP1 SWAP2 MSTORE DUP2 KECCAK256 PUSH1 0x2 ADD DUP1 SLOAD DUP4 SWAP3 SWAP1 PUSH2 0x1C7B SWAP1 DUP5 SWAP1 PUSH2 0x349E JUMP JUMPDEST SWAP1 SWAP2 SSTORE POP POP CALLER PUSH1 0x0 SWAP1 DUP2 MSTORE PUSH1 0x9E PUSH1 0x20 SWAP1 DUP2 MSTORE PUSH1 0x40 DUP1 DUP4 KECCAK256 DUP6 DUP5 MSTORE DUP1 DUP4 MSTORE DUP2 DUP5 KECCAK256 TIMESTAMP PUSH1 0x5 DUP3 ADD SSTORE DUP16 DUP6 MSTORE PUSH1 0x9C DUP5 MSTORE DUP3 DUP6 KECCAK256 DUP15 DUP7 MSTORE DUP5 MSTORE SWAP2 DUP5 KECCAK256 SLOAD SWAP4 DUP7 SWAP1 MSTORE SWAP1 SWAP2 MSTORE PUSH1 0x3 ADD SSTORE PUSH2 0x1CCC DUP10 PUSH3 0x278D00 PUSH2 0x33EE JUMP JUMPDEST PUSH2 0x1CD6 SWAP1 TIMESTAMP PUSH2 0x349E JUMP JUMPDEST PUSH1 0x9E PUSH1 0x0 CALLER PUSH1 0x1 PUSH1 0x1 PUSH1 0xA0 SHL SUB AND PUSH1 0x1 PUSH1 0x1 PUSH1 0xA0 SHL SUB AND DUP2 MSTORE PUSH1 0x20 ADD SWAP1 DUP2 MSTORE PUSH1 0x20 ADD PUSH1 0x0 KECCAK256 PUSH1 0x0 DUP5 DUP2 MSTORE PUSH1 0x20 ADD SWAP1 DUP2 MSTORE PUSH1 0x20 ADD PUSH1 0x0 KECCAK256 PUSH1 0x4 ADD DUP2 SWAP1 SSTORE POP DUP11 PUSH1 0x9E PUSH1 0x0 CALLER PUSH1 0x1 PUSH1 0x1 PUSH1 0xA0 SHL SUB AND PUSH1 0x1 PUSH1 0x1 PUSH1 0xA0 SHL SUB AND DUP2 MSTORE PUSH1 0x20 ADD SWAP1 DUP2 MSTORE PUSH1 0x20 ADD PUSH1 0x0 KECCAK256 PUSH1 0x0 DUP5 DUP2 MSTORE PUSH1 0x20 ADD SWAP1 DUP2 MSTORE PUSH1 0x20 ADD PUSH1 0x0 KECCAK256 PUSH1 0x6 ADD DUP2 SWAP1 SSTORE POP DUP9 PUSH1 0x9E PUSH1 0x0 CALLER PUSH1 0x1 PUSH1 0x1 PUSH1 0xA0 SHL SUB AND PUSH1 0x1 PUSH1 0x1 PUSH1 0xA0 SHL SUB AND DUP2 MSTORE PUSH1 0x20 ADD SWAP1 DUP2 MSTORE PUSH1 0x20 ADD PUSH1 0x0 KECCAK256 PUSH1 0x0 DUP5 DUP2 MSTORE PUSH1 0x20 ADD SWAP1 DUP2 MSTORE PUSH1 0x20 ADD PUSH1 0x0 KECCAK256 PUSH1 0x7 ADD DUP2 SWAP1 SSTORE POP DUP10 PUSH1 0x9E PUSH1 0x0 CALLER PUSH1 0x1 PUSH1 0x1 PUSH1 0xA0 SHL SUB AND PUSH1 0x1 PUSH1 0x1 PUSH1 0xA0 SHL SUB AND DUP2 MSTORE PUSH1 0x20 ADD SWAP1 DUP2 MSTORE PUSH1 0x20 ADD PUSH1 0x0 KECCAK256 PUSH1 0x0 DUP5 DUP2 MSTORE PUSH1 0x20 ADD SWAP1 DUP2 MSTORE PUSH1 0x20 ADD PUSH1 0x0 KECCAK256 PUSH1 0x8 ADD DUP2 SWAP1 SSTORE POP PUSH1 0x9F PUSH1 0x0 CALLER PUSH1 0x1 PUSH1 0x1 PUSH1 0xA0 SHL SUB AND PUSH1 0x1 PUSH1 0x1 PUSH1 0xA0 SHL SUB AND DUP2 MSTORE PUSH1 0x20 ADD SWAP1 DUP2 MSTORE PUSH1 0x20 ADD PUSH1 0x0 KECCAK256 DUP3 SWAP1 DUP1 PUSH1 0x1 DUP2 SLOAD ADD DUP1 DUP3 SSTORE DUP1 SWAP2 POP POP PUSH1 0x1 SWAP1 SUB SWAP1 PUSH1 0x0 MSTORE PUSH1 0x20 PUSH1 0x0 KECCAK256 ADD PUSH1 0x0 SWAP1 SWAP2 SWAP1 SWAP2 SWAP1 SWAP2 POP SSTORE PUSH1 0x9E PUSH1 0x0 CALLER PUSH1 0x1 PUSH1 0x1 PUSH1 0xA0 SHL SUB AND PUSH1 0x1 PUSH1 0x1 PUSH1 0xA0 SHL SUB AND DUP2 MSTORE PUSH1 0x20 ADD SWAP1 DUP2 MSTORE PUSH1 0x20 ADD PUSH1 0x0 KECCAK256 PUSH1 0x0 DUP4 DUP2 MSTORE PUSH1 0x20 ADD SWAP1 DUP2 MSTORE PUSH1 0x20 ADD PUSH1 0x0 KECCAK256 PUSH1 0xA0 PUSH1 0x0 DUP5 DUP2 MSTORE PUSH1 0x20 ADD SWAP1 DUP2 MSTORE PUSH1 0x20 ADD PUSH1 0x0 KECCAK256 PUSH1 0x0 DUP3 ADD SLOAD DUP2 PUSH1 0x0 ADD SSTORE PUSH1 0x1 DUP3 ADD SLOAD DUP2 PUSH1 0x1 ADD SSTORE PUSH1 0x2 DUP3 ADD SLOAD DUP2 PUSH1 0x2 ADD SSTORE PUSH1 0x3 DUP3 ADD SLOAD DUP2 PUSH1 0x3 ADD SSTORE PUSH1 0x4 DUP3 ADD SLOAD DUP2 PUSH1 0x4 ADD SSTORE PUSH1 0x5 DUP3 ADD SLOAD DUP2 PUSH1 0x5 ADD SSTORE PUSH1 0x6 DUP3 ADD SLOAD DUP2 PUSH1 0x6 ADD SSTORE PUSH1 0x7 DUP3 ADD SLOAD DUP2 PUSH1 0x7 ADD SSTORE PUSH1 0x8 DUP3 ADD SLOAD DUP2 PUSH1 0x8 ADD SSTORE SWAP1 POP POP DUP4 PUSH1 0x1 PUSH1 0x1 PUSH1 0x80 SHL SUB AND PUSH1 0xA1 DUP13 DUP2 SLOAD DUP2 LT PUSH2 0x1EDC JUMPI PUSH2 0x1EDC PUSH2 0x3370 JUMP JUMPDEST SWAP1 PUSH1 0x0 MSTORE PUSH1 0x20 PUSH1 0x0 KECCAK256 SWAP1 PUSH1 0x5 MUL ADD PUSH1 0x2 ADD PUSH1 0x0 DUP3 DUP3 SLOAD PUSH2 0x1EFC SWAP2 SWAP1 PUSH2 0x349E JUMP JUMPDEST SWAP1 SWAP2 SSTORE POP POP PUSH1 0x0 DUP10 DUP2 MSTORE PUSH1 0xA2 PUSH1 0x20 MSTORE PUSH1 0x40 DUP2 KECCAK256 DUP1 SLOAD PUSH1 0x1 PUSH1 0x1 PUSH1 0x80 SHL SUB DUP8 AND SWAP3 SWAP1 PUSH2 0x1F28 SWAP1 DUP5 SWAP1 PUSH2 0x349E JUMP JUMPDEST SWAP1 SWAP2 SSTORE POP POP PUSH1 0x40 DUP1 MLOAD PUSH1 0x1 PUSH1 0x1 PUSH1 0x80 SHL SUB DUP7 AND DUP2 MSTORE TIMESTAMP PUSH1 0x20 DUP3 ADD MSTORE DUP13 SWAP2 CALLER SWAP2 PUSH32 0xB4CAAF29ADDA3EEFEE3AD552A8E85058589BF834C7466CAE4EE58787F70589ED SWAP2 ADD PUSH1 0x40 MLOAD DUP1 SWAP2 SUB SWAP1 LOG3 POP PUSH1 0x1 DUP1 SSTORE SWAP10 SWAP9 POP POP POP POP POP POP POP POP POP JUMP JUMPDEST PUSH1 0xA1 DUP2 DUP2 SLOAD DUP2 LT PUSH2 0x1F94 JUMPI PUSH1 0x0 DUP1 REVERT JUMPDEST PUSH1 0x0 SWAP2 DUP3 MSTORE PUSH1 0x20 SWAP1 SWAP2 KECCAK256 PUSH1 0x5 SWAP1 SWAP2 MUL ADD DUP1 SLOAD PUSH1 0x1 DUP3 ADD SLOAD PUSH1 0x2 DUP4 ADD SLOAD PUSH1 0x3 DUP5 ADD SLOAD PUSH1 0x4 SWAP1 SWAP5 ADD SLOAD PUSH1 0x1 PUSH1 0x1 PUSH1 0xA0 SHL SUB SWAP4 DUP5 AND SWAP6 POP SWAP2 SWAP1 SWAP3 AND SWAP3 SWAP1 DUP6 JUMP JUMPDEST PUSH1 0x9A SLOAD PUSH1 0x40 MLOAD PUSH4 0x70A08231 PUSH1 0xE0 SHL DUP2 MSTORE ADDRESS PUSH1 0x4 DUP3 ADD MSTORE PUSH1 0x0 SWAP2 PUSH1 0x1 PUSH1 0x1 PUSH1 0xA0 SHL SUB AND SWAP1 PUSH4 0x70A08231 SWAP1 PUSH1 0x24 ADD PUSH1 0x20 PUSH1 0x40 MLOAD DUP1 DUP4 SUB DUP2 DUP7 GAS STATICCALL ISZERO DUP1 ISZERO PUSH2 0x201A JUMPI RETURNDATASIZE PUSH1 0x0 DUP1 RETURNDATACOPY RETURNDATASIZE PUSH1 0x0 REVERT JUMPDEST POP POP POP POP PUSH1 0x40 MLOAD RETURNDATASIZE PUSH1 0x1F NOT PUSH1 0x1F DUP3 ADD AND DUP3 ADD DUP1 PUSH1 0x40 MSTORE POP DUP2 ADD SWAP1 PUSH2 0x203E SWAP2 SWAP1 PUSH2 0x3444 JUMP JUMPDEST SWAP1 POP SWAP1 JUMP JUMPDEST PUSH1 0x1 PUSH1 0x1 PUSH1 0xA0 SHL SUB DUP4 AND PUSH1 0x0 SWAP1 DUP2 MSTORE PUSH1 0x9E PUSH1 0x20 SWAP1 DUP2 MSTORE PUSH1 0x40 DUP1 DUP4 KECCAK256 DUP6 DUP5 MSTORE DUP3 MSTORE DUP1 DUP4 KECCAK256 DUP2 MLOAD PUSH2 0x120 DUP2 ADD DUP4 MSTORE DUP2 SLOAD DUP2 MSTORE PUSH1 0x1 DUP3 ADD SLOAD SWAP4 DUP2 ADD SWAP4 SWAP1 SWAP4 MSTORE PUSH1 0x2 DUP2 ADD SLOAD SWAP2 DUP4 ADD SWAP2 SWAP1 SWAP2 MSTORE PUSH1 0x3 DUP2 ADD SLOAD PUSH1 0x60 DUP4 ADD MSTORE PUSH1 0x4 DUP2 ADD SLOAD PUSH1 0x80 DUP4 ADD MSTORE PUSH1 0x5 DUP2 ADD SLOAD PUSH1 0xA0 DUP4 ADD MSTORE PUSH1 0x6 DUP2 ADD SLOAD PUSH1 0xC0 DUP4 ADD MSTORE PUSH1 0x7 DUP2 ADD SLOAD PUSH1 0xE0 DUP4 ADD MSTORE PUSH1 0x8 ADD SLOAD PUSH2 0x100 DUP3 ADD MSTORE PUSH2 0x20D2 DUP6 DUP6 DUP6 PUSH2 0x27B5 JUMP JUMPDEST DUP2 PUSH1 0x40 ADD MLOAD PUSH2 0x20E1 SWAP2 SWAP1 PUSH2 0x349E JUMP JUMPDEST SWAP6 SWAP5 POP POP POP POP POP JUMP JUMPDEST PUSH1 0x0 PUSH2 0x20F4 PUSH2 0x10AC JUMP JUMPDEST PUSH1 0xA1 DUP4 DUP2 SLOAD DUP2 LT PUSH2 0x2107 JUMPI PUSH2 0x2107 PUSH2 0x3370 JUMP JUMPDEST SWAP1 PUSH1 0x0 MSTORE PUSH1 0x20 PUSH1 0x0 KECCAK256 SWAP1 PUSH1 0x5 MUL ADD PUSH1 0x3 ADD SLOAD LT ISZERO SWAP1 POP SWAP2 SWAP1 POP JUMP JUMPDEST PUSH1 0x65 SLOAD PUSH1 0x1 PUSH1 0x1 PUSH1 0xA0 SHL SUB AND CALLER EQ PUSH2 0x214C JUMPI PUSH1 0x40 MLOAD PUSH3 0x461BCD PUSH1 0xE5 SHL DUP2 MSTORE PUSH1 0x4 ADD PUSH2 0x64F SWAP1 PUSH2 0x3304 JUMP JUMPDEST PUSH1 0xA4 SLOAD PUSH1 0xFF AND PUSH2 0x2194 JUMPI PUSH1 0x40 MLOAD PUSH3 0x461BCD PUSH1 0xE5 SHL DUP2 MSTORE PUSH1 0x20 PUSH1 0x4 DUP3 ADD MSTORE PUSH1 0x13 PUSH1 0x24 DUP3 ADD MSTORE PUSH19 0x105B1C9958591E4813DC195C985D1A5BDB985B PUSH1 0x6A SHL PUSH1 0x44 DUP3 ADD MSTORE PUSH1 0x64 ADD PUSH2 0x64F JUMP JUMPDEST PUSH1 0xA4 DUP1 SLOAD PUSH1 0xFF NOT AND SWAP1 SSTORE TIMESTAMP PUSH1 0xA5 SSTORE JUMP JUMPDEST PUSH1 0x0 PUSH2 0x21B0 PUSH1 0x1 PUSH2 0x2C3C JUMP JUMPDEST SWAP1 POP DUP1 ISZERO PUSH2 0x21C8 JUMPI PUSH1 0x0 DUP1 SLOAD PUSH2 0xFF00 NOT AND PUSH2 0x100 OR SWAP1 SSTORE JUMPDEST PUSH2 0x21D0 PUSH2 0x2CC9 JUMP JUMPDEST PUSH2 0x21D8 PUSH2 0x2CF0 JUMP JUMPDEST PUSH2 0x21E0 PUSH2 0x2D1F JUMP JUMPDEST DUP2 MLOAD PUSH2 0x21F3 SWAP1 PUSH1 0xA3 SWAP1 PUSH1 0x20 DUP6 ADD SWAP1 PUSH2 0x2E57 JUMP JUMPDEST POP PUSH1 0x9A DUP1 SLOAD PUSH1 0x1 PUSH1 0x1 PUSH1 0xA0 SHL SUB NOT AND PUSH1 0x1 PUSH1 0x1 PUSH1 0xA0 SHL SUB DUP6 AND OR SWAP1 SSTORE PUSH4 0x1E13380 PUSH1 0x98 SSTORE PUSH2 0x2220 DUP3 PUSH2 0x2D4E JUMP JUMPDEST DUP1 ISZERO PUSH2 0x2266 JUMPI PUSH1 0x0 DUP1 SLOAD PUSH2 0xFF00 NOT AND SWAP1 SSTORE PUSH1 0x40 MLOAD PUSH1 0x1 DUP2 MSTORE PUSH32 0x7F26B83FF96E1F2B6A682F133852F6798A09C465DA95921460CEFB3847402498 SWAP1 PUSH1 0x20 ADD PUSH1 0x40 MLOAD DUP1 SWAP2 SUB SWAP1 LOG1 JUMPDEST POP POP POP JUMP JUMPDEST PUSH1 0x9F PUSH1 0x20 MSTORE DUP2 PUSH1 0x0 MSTORE PUSH1 0x40 PUSH1 0x0 KECCAK256 DUP2 DUP2 SLOAD DUP2 LT PUSH2 0x2287 JUMPI PUSH1 0x0 DUP1 REVERT JUMPDEST SWAP1 PUSH1 0x0 MSTORE PUSH1 0x20 PUSH1 0x0 KECCAK256 ADD PUSH1 0x0 SWAP2 POP SWAP2 POP POP SLOAD DUP2 JUMP JUMPDEST PUSH1 0x99 SLOAD PUSH1 0x1 PUSH1 0x1 PUSH1 0xA0 SHL SUB AND CALLER PUSH1 0x1 PUSH1 0x1 PUSH1 0xA0 SHL SUB AND EQ PUSH2 0x22F0 JUMPI PUSH1 0x40 MLOAD PUSH3 0x461BCD PUSH1 0xE5 SHL DUP2 MSTORE PUSH1 0x20 PUSH1 0x4 DUP3 ADD MSTORE PUSH1 0xE PUSH1 0x24 DUP3 ADD MSTORE PUSH14 0x696E76616C696420616363657373 PUSH1 0x90 SHL PUSH1 0x44 DUP3 ADD MSTORE PUSH1 0x64 ADD PUSH2 0x64F JUMP JUMPDEST PUSH1 0x2 PUSH1 0x1 SLOAD SUB PUSH2 0x2312 JUMPI PUSH1 0x40 MLOAD PUSH3 0x461BCD PUSH1 0xE5 SHL DUP2 MSTORE PUSH1 0x4 ADD PUSH2 0x64F SWAP1 PUSH2 0x340D JUMP JUMPDEST PUSH1 0x2 PUSH1 0x1 SSTORE DUP1 PUSH2 0x2364 JUMPI PUSH1 0x40 MLOAD PUSH3 0x461BCD PUSH1 0xE5 SHL DUP2 MSTORE PUSH1 0x20 PUSH1 0x4 DUP3 ADD MSTORE PUSH1 0x1F PUSH1 0x24 DUP3 ADD MSTORE PUSH32 0x436F6C6C656374204665653A20416D6F756E74206D757374206265203E203000 PUSH1 0x44 DUP3 ADD MSTORE PUSH1 0x64 ADD PUSH2 0x64F JUMP JUMPDEST PUSH1 0x9A SLOAD PUSH1 0x1 PUSH1 0x1 PUSH1 0xA0 SHL SUB AND PUSH4 0x23B872DD CALLER ADDRESS DUP5 PUSH1 0x40 MLOAD DUP5 PUSH4 0xFFFFFFFF AND PUSH1 0xE0 SHL DUP2 MSTORE PUSH1 0x4 ADD PUSH2 0x2396 SWAP4 SWAP3 SWAP2 SWAP1 PUSH2 0x345D JUMP JUMPDEST PUSH1 0x20 PUSH1 0x40 MLOAD DUP1 DUP4 SUB DUP2 PUSH1 0x0 DUP8 GAS CALL ISZERO DUP1 ISZERO PUSH2 0x23B5 JUMPI RETURNDATASIZE PUSH1 0x0 DUP1 RETURNDATACOPY RETURNDATASIZE PUSH1 0x0 REVERT JUMPDEST POP POP POP POP PUSH1 0x40 MLOAD RETURNDATASIZE PUSH1 0x1F NOT PUSH1 0x1F DUP3 ADD AND DUP3 ADD DUP1 PUSH1 0x40 MSTORE POP DUP2 ADD SWAP1 PUSH2 0x23D9 SWAP2 SWAP1 PUSH2 0x3481 JUMP JUMPDEST POP PUSH1 0x0 JUMPDEST PUSH1 0xA3 SLOAD DUP2 LT ISZERO PUSH2 0x2507 JUMPI PUSH1 0xA3 DUP2 DUP2 SLOAD DUP2 LT PUSH2 0x23FA JUMPI PUSH2 0x23FA PUSH2 0x3370 JUMP JUMPDEST SWAP1 PUSH1 0x0 MSTORE PUSH1 0x20 PUSH1 0x0 KECCAK256 ADD SLOAD PUSH1 0x0 EQ PUSH2 0x246D JUMPI PUSH8 0xDE0B6B3A7640000 DUP3 PUSH1 0xA6 SLOAD PUSH8 0xDE0B6B3A7640000 PUSH1 0xA3 DUP6 DUP2 SLOAD DUP2 LT PUSH2 0x2435 JUMPI PUSH2 0x2435 PUSH2 0x3370 JUMP JUMPDEST SWAP1 PUSH1 0x0 MSTORE PUSH1 0x20 PUSH1 0x0 KECCAK256 ADD SLOAD PUSH2 0x244A SWAP2 SWAP1 PUSH2 0x33EE JUMP JUMPDEST PUSH2 0x2454 SWAP2 SWAP1 PUSH2 0x33B5 JUMP JUMPDEST PUSH2 0x245E SWAP2 SWAP1 PUSH2 0x33EE JUMP JUMPDEST PUSH2 0x2468 SWAP2 SWAP1 PUSH2 0x33B5 JUMP JUMPDEST PUSH2 0x24AD JUMP JUMPDEST PUSH8 0xDE0B6B3A7640000 DUP3 PUSH1 0xA6 SLOAD PUSH8 0xDE0B6B3A7640000 PUSH1 0x1 PUSH2 0x248F SWAP2 SWAP1 PUSH2 0x33EE JUMP JUMPDEST PUSH2 0x2499 SWAP2 SWAP1 PUSH2 0x33B5 JUMP JUMPDEST PUSH2 0x24A3 SWAP2 SWAP1 PUSH2 0x33EE JUMP JUMPDEST PUSH2 0x24AD SWAP2 SWAP1 PUSH2 0x33B5 JUMP JUMPDEST PUSH1 0xA2 PUSH1 0x0 PUSH1 0xA3 DUP5 DUP2 SLOAD DUP2 LT PUSH2 0x24C4 JUMPI PUSH2 0x24C4 PUSH2 0x3370 JUMP JUMPDEST SWAP1 PUSH1 0x0 MSTORE PUSH1 0x20 PUSH1 0x0 KECCAK256 ADD SLOAD DUP2 MSTORE PUSH1 0x20 ADD SWAP1 DUP2 MSTORE PUSH1 0x20 ADD PUSH1 0x0 KECCAK256 PUSH1 0x1 ADD PUSH1 0x0 DUP3 DUP3 SLOAD PUSH2 0x24EF SWAP2 SWAP1 PUSH2 0x349E JUMP JUMPDEST SWAP1 SWAP2 SSTORE POP DUP2 SWAP1 POP PUSH2 0x24FF DUP2 PUSH2 0x339C JUMP JUMPDEST SWAP2 POP POP PUSH2 0x23DD JUMP JUMPDEST POP PUSH1 0x40 MLOAD DUP2 DUP2 MSTORE CALLER SWAP1 PUSH32 0x386D896E9BD972181CFB744681A2DE8D2DAAB22884986FDC60C3947BE36CA01B SWAP1 PUSH1 0x20 ADD PUSH2 0xA32 JUMP JUMPDEST PUSH1 0x65 SLOAD PUSH1 0x1 PUSH1 0x1 PUSH1 0xA0 SHL SUB AND CALLER EQ PUSH2 0x2564 JUMPI PUSH1 0x40 MLOAD PUSH3 0x461BCD PUSH1 0xE5 SHL DUP2 MSTORE PUSH1 0x4 ADD PUSH2 0x64F SWAP1 PUSH2 0x3304 JUMP JUMPDEST PUSH1 0x1 PUSH1 0x1 PUSH1 0xA0 SHL SUB DUP2 AND PUSH2 0x25C9 JUMPI PUSH1 0x40 MLOAD PUSH3 0x461BCD PUSH1 0xE5 SHL DUP2 MSTORE PUSH1 0x20 PUSH1 0x4 DUP3 ADD MSTORE PUSH1 0x26 PUSH1 0x24 DUP3 ADD MSTORE PUSH32 0x4F776E61626C653A206E6577206F776E657220697320746865207A65726F2061 PUSH1 0x44 DUP3 ADD MSTORE PUSH6 0x646472657373 PUSH1 0xD0 SHL PUSH1 0x64 DUP3 ADD MSTORE PUSH1 0x84 ADD PUSH2 0x64F JUMP JUMPDEST PUSH2 0x25D2 DUP2 PUSH2 0x2BEA JUMP JUMPDEST POP JUMP JUMPDEST PUSH1 0x65 SLOAD PUSH1 0x1 PUSH1 0x1 PUSH1 0xA0 SHL SUB AND CALLER EQ PUSH2 0x25FF JUMPI PUSH1 0x40 MLOAD PUSH3 0x461BCD PUSH1 0xE5 SHL DUP2 MSTORE PUSH1 0x4 ADD PUSH2 0x64F SWAP1 PUSH2 0x3304 JUMP JUMPDEST PUSH1 0xA1 SLOAD DUP3 SWAP1 DUP2 LT PUSH2 0x2622 JUMPI PUSH1 0x40 MLOAD PUSH3 0x461BCD PUSH1 0xE5 SHL DUP2 MSTORE PUSH1 0x4 ADD PUSH2 0x64F SWAP1 PUSH2 0x3339 JUMP JUMPDEST PUSH1 0x0 PUSH1 0xA1 DUP5 DUP2 SLOAD DUP2 LT PUSH2 0x2637 JUMPI PUSH2 0x2637 PUSH2 0x3370 JUMP JUMPDEST PUSH1 0x0 SWAP2 DUP3 MSTORE PUSH1 0x20 SWAP1 SWAP2 KECCAK256 PUSH1 0x5 SWAP1 SWAP2 MUL ADD PUSH1 0x1 ADD SLOAD PUSH1 0x40 MLOAD PUSH4 0x6EB1769F PUSH1 0xE1 SHL DUP2 MSTORE CALLER PUSH1 0x4 DUP3 ADD MSTORE ADDRESS PUSH1 0x24 DUP3 ADD MSTORE PUSH1 0x1 PUSH1 0x1 PUSH1 0xA0 SHL SUB SWAP1 SWAP2 AND SWAP2 POP DUP4 SWAP1 DUP3 SWAP1 PUSH4 0xDD62ED3E SWAP1 PUSH1 0x44 ADD PUSH1 0x20 PUSH1 0x40 MLOAD DUP1 DUP4 SUB DUP2 DUP7 GAS STATICCALL ISZERO DUP1 ISZERO PUSH2 0x269B JUMPI RETURNDATASIZE PUSH1 0x0 DUP1 RETURNDATACOPY RETURNDATASIZE PUSH1 0x0 REVERT JUMPDEST POP POP POP POP PUSH1 0x40 MLOAD RETURNDATASIZE PUSH1 0x1F NOT PUSH1 0x1F DUP3 ADD AND DUP3 ADD DUP1 PUSH1 0x40 MSTORE POP DUP2 ADD SWAP1 PUSH2 0x26BF SWAP2 SWAP1 PUSH2 0x3444 JUMP JUMPDEST LT ISZERO PUSH2 0x270D JUMPI PUSH1 0x40 MLOAD PUSH3 0x461BCD PUSH1 0xE5 SHL DUP2 MSTORE PUSH1 0x20 PUSH1 0x4 DUP3 ADD MSTORE PUSH1 0x1C PUSH1 0x24 DUP3 ADD MSTORE PUSH32 0x5374616B696E673A204D75737420616C6C6F77205370656E64696E6700000000 PUSH1 0x44 DUP3 ADD MSTORE PUSH1 0x64 ADD PUSH2 0x64F JUMP JUMPDEST PUSH1 0x40 MLOAD PUSH4 0x23B872DD PUSH1 0xE0 SHL DUP2 MSTORE PUSH1 0x1 PUSH1 0x1 PUSH1 0xA0 SHL SUB DUP3 AND SWAP1 PUSH4 0x23B872DD SWAP1 PUSH2 0x273D SWAP1 CALLER SWAP1 ADDRESS SWAP1 DUP9 SWAP1 PUSH1 0x4 ADD PUSH2 0x345D JUMP JUMPDEST PUSH1 0x20 PUSH1 0x40 MLOAD DUP1 DUP4 SUB DUP2 PUSH1 0x0 DUP8 GAS CALL ISZERO DUP1 ISZERO PUSH2 0x275C JUMPI RETURNDATASIZE PUSH1 0x0 DUP1 RETURNDATACOPY RETURNDATASIZE PUSH1 0x0 REVERT JUMPDEST POP POP POP POP PUSH1 0x40 MLOAD RETURNDATASIZE PUSH1 0x1F NOT PUSH1 0x1F DUP3 ADD AND DUP3 ADD DUP1 PUSH1 0x40 MSTORE POP DUP2 ADD SWAP1 PUSH2 0x2780 SWAP2 SWAP1 PUSH2 0x3481 JUMP JUMPDEST POP DUP3 PUSH1 0xA1 DUP6 DUP2 SLOAD DUP2 LT PUSH2 0x2795 JUMPI PUSH2 0x2795 PUSH2 0x3370 JUMP JUMPDEST SWAP1 PUSH1 0x0 MSTORE PUSH1 0x20 PUSH1 0x0 KECCAK256 SWAP1 PUSH1 0x5 MUL ADD PUSH1 0x3 ADD PUSH1 0x0 DUP3 DUP3 SLOAD PUSH2 0x17B5 SWAP2 SWAP1 PUSH2 0x349E JUMP JUMPDEST PUSH1 0x0 DUP1 PUSH1 0x1 PUSH1 0x1 PUSH1 0xA0 SHL SUB DUP6 AND PUSH2 0x27D9 JUMPI PUSH1 0x0 DUP5 DUP2 MSTORE PUSH1 0xA0 PUSH1 0x20 MSTORE PUSH1 0x40 SWAP1 KECCAK256 PUSH2 0x27FD JUMP JUMPDEST PUSH1 0x1 PUSH1 0x1 PUSH1 0xA0 SHL SUB DUP6 AND PUSH1 0x0 SWAP1 DUP2 MSTORE PUSH1 0x9E PUSH1 0x20 SWAP1 DUP2 MSTORE PUSH1 0x40 DUP1 DUP4 KECCAK256 DUP8 DUP5 MSTORE SWAP1 SWAP2 MSTORE SWAP1 KECCAK256 JUMPDEST PUSH1 0x40 DUP1 MLOAD PUSH2 0x120 DUP2 ADD DUP3 MSTORE DUP3 SLOAD DUP2 MSTORE PUSH1 0x1 DUP4 ADD SLOAD PUSH1 0x20 DUP3 ADD DUP2 SWAP1 MSTORE PUSH1 0x2 DUP5 ADD SLOAD SWAP3 DUP3 ADD SWAP3 SWAP1 SWAP3 MSTORE PUSH1 0x3 DUP4 ADD SLOAD PUSH1 0x60 DUP3 ADD MSTORE PUSH1 0x4 DUP4 ADD SLOAD PUSH1 0x80 DUP3 ADD MSTORE PUSH1 0x5 DUP4 ADD SLOAD PUSH1 0xA0 DUP3 ADD MSTORE PUSH1 0x6 DUP4 ADD SLOAD PUSH1 0xC0 DUP3 ADD MSTORE PUSH1 0x7 DUP4 ADD SLOAD PUSH1 0xE0 DUP3 ADD MSTORE PUSH1 0x8 SWAP1 SWAP3 ADD SLOAD PUSH2 0x100 DUP4 ADD MSTORE SWAP1 SWAP2 POP ISZERO PUSH2 0x2970 JUMPI PUSH1 0xA4 SLOAD PUSH1 0xFF AND ISZERO PUSH2 0x28ED JUMPI PUSH1 0xA5 SLOAD DUP2 PUSH1 0xA0 ADD MLOAD GT ISZERO PUSH2 0x288C JUMPI PUSH1 0x0 SWAP2 POP PUSH2 0x2975 JUMP JUMPDEST PUSH2 0x28E6 PUSH2 0x28B1 PUSH2 0x3E8 PUSH2 0x28AB PUSH1 0x64 PUSH1 0x98 SLOAD PUSH2 0x2DCF SWAP1 SWAP2 SWAP1 PUSH4 0xFFFFFFFF AND JUMP JUMPDEST SWAP1 PUSH2 0x2DCF JUMP JUMPDEST PUSH2 0x28E0 PUSH2 0x28CD DUP5 PUSH1 0xA0 ADD MLOAD PUSH1 0xA5 SLOAD PUSH2 0x2DE2 SWAP1 SWAP2 SWAP1 PUSH4 0xFFFFFFFF AND JUMP JUMPDEST PUSH1 0x60 DUP6 ADD MLOAD PUSH1 0x20 DUP7 ADD MLOAD PUSH2 0x28AB SWAP2 PUSH2 0x2DCF JUMP JUMPDEST SWAP1 PUSH2 0x2DEE JUMP JUMPDEST SWAP2 POP PUSH2 0x2975 JUMP JUMPDEST PUSH1 0x0 DUP4 PUSH2 0x28FE JUMPI DUP2 PUSH1 0x60 ADD MLOAD PUSH2 0x291E JUMP JUMPDEST PUSH1 0xC0 DUP3 ADD MLOAD PUSH1 0x0 SWAP1 DUP2 MSTORE PUSH1 0x9C PUSH1 0x20 SWAP1 DUP2 MSTORE PUSH1 0x40 DUP1 DUP4 KECCAK256 DUP4 DUP1 MSTORE SWAP1 SWAP2 MSTORE SWAP1 KECCAK256 SLOAD JUMPDEST SWAP1 POP PUSH2 0x2968 PUSH2 0x293F PUSH2 0x3E8 PUSH2 0x28AB PUSH1 0x64 PUSH1 0x98 SLOAD PUSH2 0x2DCF SWAP1 SWAP2 SWAP1 PUSH4 0xFFFFFFFF AND JUMP JUMPDEST PUSH2 0x28E0 PUSH2 0x2959 DUP6 PUSH1 0xA0 ADD MLOAD TIMESTAMP PUSH2 0x2DE2 SWAP1 SWAP2 SWAP1 PUSH4 0xFFFFFFFF AND JUMP JUMPDEST PUSH1 0x20 DUP7 ADD MLOAD PUSH2 0x28AB SWAP1 DUP7 PUSH2 0x2DCF JUMP JUMPDEST SWAP3 POP POP PUSH2 0x2975 JUMP JUMPDEST PUSH1 0x0 SWAP2 POP JUMPDEST POP SWAP4 SWAP3 POP POP POP JUMP JUMPDEST PUSH1 0x1 PUSH1 0x1 PUSH1 0xA0 SHL SUB DUP3 AND PUSH1 0x0 SWAP1 DUP2 MSTORE PUSH1 0x9E PUSH1 0x20 SWAP1 DUP2 MSTORE PUSH1 0x40 DUP1 DUP4 KECCAK256 DUP5 DUP5 MSTORE DUP3 MSTORE SWAP2 DUP3 SWAP1 KECCAK256 DUP3 MLOAD PUSH2 0x120 DUP2 ADD DUP5 MSTORE DUP2 SLOAD DUP2 MSTORE PUSH1 0x1 DUP3 ADD SLOAD SWAP3 DUP2 ADD DUP4 SWAP1 MSTORE PUSH1 0x2 DUP3 ADD SLOAD SWAP4 DUP2 ADD SWAP4 SWAP1 SWAP4 MSTORE PUSH1 0x3 DUP2 ADD SLOAD PUSH1 0x60 DUP5 ADD MSTORE PUSH1 0x4 DUP2 ADD SLOAD PUSH1 0x80 DUP5 ADD MSTORE PUSH1 0x5 DUP2 ADD SLOAD PUSH1 0xA0 DUP5 ADD MSTORE PUSH1 0x6 DUP2 ADD SLOAD PUSH1 0xC0 DUP5 ADD MSTORE PUSH1 0x7 DUP2 ADD SLOAD PUSH1 0xE0 DUP5 ADD MSTORE PUSH1 0x8 ADD SLOAD PUSH2 0x100 DUP4 ADD MSTORE PUSH2 0x2A45 JUMPI PUSH1 0x40 MLOAD PUSH3 0x461BCD PUSH1 0xE5 SHL DUP2 MSTORE PUSH1 0x20 PUSH1 0x4 DUP3 ADD MSTORE PUSH1 0x15 PUSH1 0x24 DUP3 ADD MSTORE PUSH21 0x2430B93B32B9BA1D102737BA10309039BA30B5B2B9 PUSH1 0x59 SHL PUSH1 0x44 DUP3 ADD MSTORE PUSH1 0x64 ADD PUSH2 0x64F JUMP JUMPDEST PUSH1 0x0 PUSH2 0x2A51 DUP5 DUP5 PUSH2 0x703 JUMP JUMPDEST SWAP1 POP DUP1 ISZERO DUP1 PUSH2 0x2A74 JUMPI POP PUSH1 0xE0 DUP3 ADD MLOAD PUSH1 0x0 SWAP1 DUP2 MSTORE PUSH1 0xA2 PUSH1 0x20 MSTORE PUSH1 0x40 SWAP1 KECCAK256 PUSH1 0x1 ADD SLOAD ISZERO JUMPDEST ISZERO PUSH2 0x2A7F JUMPI POP POP POP POP JUMP JUMPDEST PUSH1 0x9A SLOAD PUSH1 0x40 MLOAD PUSH4 0x70A08231 PUSH1 0xE0 SHL DUP2 MSTORE ADDRESS PUSH1 0x4 DUP3 ADD MSTORE PUSH1 0x0 SWAP2 PUSH1 0x1 PUSH1 0x1 PUSH1 0xA0 SHL SUB AND SWAP1 PUSH4 0x70A08231 SWAP1 PUSH1 0x24 ADD PUSH1 0x20 PUSH1 0x40 MLOAD DUP1 DUP4 SUB DUP2 DUP7 GAS STATICCALL ISZERO DUP1 ISZERO PUSH2 0x2AC8 JUMPI RETURNDATASIZE PUSH1 0x0 DUP1 RETURNDATACOPY RETURNDATASIZE PUSH1 0x0 REVERT JUMPDEST POP POP POP POP PUSH1 0x40 MLOAD RETURNDATASIZE PUSH1 0x1F NOT PUSH1 0x1F DUP3 ADD AND DUP3 ADD DUP1 PUSH1 0x40 MSTORE POP DUP2 ADD SWAP1 PUSH2 0x2AEC SWAP2 SWAP1 PUSH2 0x3444 JUMP JUMPDEST SWAP1 POP DUP1 PUSH1 0x0 SUB PUSH2 0x2AFD JUMPI POP POP POP POP POP JUMP JUMPDEST PUSH1 0xE0 DUP4 ADD MLOAD PUSH1 0x0 SWAP1 DUP2 MSTORE PUSH1 0xA2 PUSH1 0x20 MSTORE PUSH1 0x40 DUP2 KECCAK256 PUSH1 0x1 ADD DUP1 SLOAD DUP5 SWAP3 SWAP1 PUSH2 0x2B23 SWAP1 DUP5 SWAP1 PUSH2 0x33D7 JUMP JUMPDEST SWAP1 SWAP2 SSTORE POP POP PUSH1 0x9A SLOAD PUSH1 0x40 MLOAD PUSH4 0x23B872DD PUSH1 0xE0 SHL DUP2 MSTORE PUSH1 0x1 PUSH1 0x1 PUSH1 0xA0 SHL SUB SWAP1 SWAP2 AND SWAP1 PUSH4 0x23B872DD SWAP1 PUSH2 0x2B5C SWAP1 ADDRESS SWAP1 DUP10 SWAP1 DUP8 SWAP1 PUSH1 0x4 ADD PUSH2 0x345D JUMP JUMPDEST PUSH1 0x20 PUSH1 0x40 MLOAD DUP1 DUP4 SUB DUP2 PUSH1 0x0 DUP8 GAS CALL ISZERO DUP1 ISZERO PUSH2 0x2B7B JUMPI RETURNDATASIZE PUSH1 0x0 DUP1 RETURNDATACOPY RETURNDATASIZE PUSH1 0x0 REVERT JUMPDEST POP POP POP POP PUSH1 0x40 MLOAD RETURNDATASIZE PUSH1 0x1F NOT PUSH1 0x1F DUP3 ADD AND DUP3 ADD DUP1 PUSH1 0x40 MSTORE POP DUP2 ADD SWAP1 PUSH2 0x2B9F SWAP2 SWAP1 PUSH2 0x3481 JUMP JUMPDEST POP DUP5 PUSH1 0x1 PUSH1 0x1 PUSH1 0xA0 SHL SUB AND PUSH32 0xC9695243A805ADB74C91F28311176C65B417E842D5699893CEF56D18BFA48CBA DUP4 PUSH1 0x40 MLOAD PUSH2 0x2BDB SWAP2 DUP2 MSTORE PUSH1 0x20 ADD SWAP1 JUMP JUMPDEST PUSH1 0x40 MLOAD DUP1 SWAP2 SUB SWAP1 LOG2 POP POP POP POP POP JUMP JUMPDEST PUSH1 0x65 DUP1 SLOAD PUSH1 0x1 PUSH1 0x1 PUSH1 0xA0 SHL SUB DUP4 DUP2 AND PUSH1 0x1 PUSH1 0x1 PUSH1 0xA0 SHL SUB NOT DUP4 AND DUP2 OR SWAP1 SWAP4 SSTORE PUSH1 0x40 MLOAD SWAP2 AND SWAP2 SWAP1 DUP3 SWAP1 PUSH32 0x8BE0079C531659141344CD1FD0A4F28419497F9722A3DAAFE3B4186F6B6457E0 SWAP1 PUSH1 0x0 SWAP1 LOG3 POP POP JUMP JUMPDEST PUSH1 0x0 DUP1 SLOAD PUSH2 0x100 SWAP1 DIV PUSH1 0xFF AND ISZERO PUSH2 0x2C83 JUMPI DUP2 PUSH1 0xFF AND PUSH1 0x1 EQ DUP1 ISZERO PUSH2 0x2C5F JUMPI POP ADDRESS EXTCODESIZE ISZERO JUMPDEST PUSH2 0x2C7B JUMPI PUSH1 0x40 MLOAD PUSH3 0x461BCD PUSH1 0xE5 SHL DUP2 MSTORE PUSH1 0x4 ADD PUSH2 0x64F SWAP1 PUSH2 0x35FB JUMP JUMPDEST POP PUSH1 0x0 SWAP2 SWAP1 POP JUMP JUMPDEST PUSH1 0x0 SLOAD PUSH1 0xFF DUP1 DUP5 AND SWAP2 AND LT PUSH2 0x2CAA JUMPI PUSH1 0x40 MLOAD PUSH3 0x461BCD PUSH1 0xE5 SHL DUP2 MSTORE PUSH1 0x4 ADD PUSH2 0x64F SWAP1 PUSH2 0x35FB JUMP JUMPDEST POP PUSH1 0x0 DUP1 SLOAD PUSH1 0xFF NOT AND PUSH1 0xFF SWAP3 SWAP1 SWAP3 AND SWAP2 SWAP1 SWAP2 OR SWAP1 SSTORE PUSH1 0x1 SWAP1 JUMP JUMPDEST SWAP2 SWAP1 POP JUMP JUMPDEST PUSH1 0x0 SLOAD PUSH2 0x100 SWAP1 DIV PUSH1 0xFF AND PUSH2 0x1029 JUMPI PUSH1 0x40 MLOAD PUSH3 0x461BCD PUSH1 0xE5 SHL DUP2 MSTORE PUSH1 0x4 ADD PUSH2 0x64F SWAP1 PUSH2 0x3649 JUMP JUMPDEST PUSH1 0x0 SLOAD PUSH2 0x100 SWAP1 DIV PUSH1 0xFF AND PUSH2 0x2D17 JUMPI PUSH1 0x40 MLOAD PUSH3 0x461BCD PUSH1 0xE5 SHL DUP2 MSTORE PUSH1 0x4 ADD PUSH2 0x64F SWAP1 PUSH2 0x3649 JUMP JUMPDEST PUSH2 0x1029 PUSH2 0x2DFA JUMP JUMPDEST PUSH1 0x0 SLOAD PUSH2 0x100 SWAP1 DIV PUSH1 0xFF AND PUSH2 0x2D46 JUMPI PUSH1 0x40 MLOAD PUSH3 0x461BCD PUSH1 0xE5 SHL DUP2 MSTORE PUSH1 0x4 ADD PUSH2 0x64F SWAP1 PUSH2 0x3649 JUMP JUMPDEST PUSH2 0x1029 PUSH2 0x2E2A JUMP JUMPDEST PUSH1 0x0 PUSH1 0xA6 DUP2 SWAP1 SSTORE JUMPDEST DUP2 MLOAD DUP2 LT ISZERO PUSH2 0x2DCB JUMPI DUP2 DUP2 DUP2 MLOAD DUP2 LT PUSH2 0x2D71 JUMPI PUSH2 0x2D71 PUSH2 0x3370 JUMP JUMPDEST PUSH1 0x20 MUL PUSH1 0x20 ADD ADD MLOAD PUSH1 0x0 EQ PUSH2 0x2D9F JUMPI DUP2 DUP2 DUP2 MLOAD DUP2 LT PUSH2 0x2D92 JUMPI PUSH2 0x2D92 PUSH2 0x3370 JUMP JUMPDEST PUSH1 0x20 MUL PUSH1 0x20 ADD ADD MLOAD PUSH2 0x2DA2 JUMP JUMPDEST PUSH1 0x1 JUMPDEST PUSH1 0xA6 PUSH1 0x0 DUP3 DUP3 SLOAD PUSH2 0x2DB3 SWAP2 SWAP1 PUSH2 0x349E JUMP JUMPDEST SWAP1 SWAP2 SSTORE POP DUP2 SWAP1 POP PUSH2 0x2DC3 DUP2 PUSH2 0x339C JUMP JUMPDEST SWAP2 POP POP PUSH2 0x2D56 JUMP JUMPDEST POP POP JUMP JUMPDEST PUSH1 0x0 PUSH2 0x2DDB DUP3 DUP5 PUSH2 0x33EE JUMP JUMPDEST SWAP4 SWAP3 POP POP POP JUMP JUMPDEST PUSH1 0x0 PUSH2 0x2DDB DUP3 DUP5 PUSH2 0x33D7 JUMP JUMPDEST PUSH1 0x0 PUSH2 0x2DDB DUP3 DUP5 PUSH2 0x33B5 JUMP JUMPDEST PUSH1 0x0 SLOAD PUSH2 0x100 SWAP1 DIV PUSH1 0xFF AND PUSH2 0x2E21 JUMPI PUSH1 0x40 MLOAD PUSH3 0x461BCD PUSH1 0xE5 SHL DUP2 MSTORE PUSH1 0x4 ADD PUSH2 0x64F SWAP1 PUSH2 0x3649 JUMP JUMPDEST PUSH2 0x1029 CALLER PUSH2 0x2BEA JUMP JUMPDEST PUSH1 0x0 SLOAD PUSH2 0x100 SWAP1 DIV PUSH1 0xFF AND PUSH2 0x2E51 JUMPI PUSH1 0x40 MLOAD PUSH3 0x461BCD PUSH1 0xE5 SHL DUP2 MSTORE PUSH1 0x4 ADD PUSH2 0x64F SWAP1 PUSH2 0x3649 JUMP JUMPDEST PUSH1 0x1 DUP1 SSTORE JUMP JUMPDEST DUP3 DUP1 SLOAD DUP3 DUP3 SSTORE SWAP1 PUSH1 0x0 MSTORE PUSH1 0x20 PUSH1 0x0 KECCAK256 SWAP1 DUP2 ADD SWAP3 DUP3 ISZERO PUSH2 0x2E92 JUMPI SWAP2 PUSH1 0x20 MUL DUP3 ADD JUMPDEST DUP3 DUP2 GT ISZERO PUSH2 0x2E92 JUMPI DUP3 MLOAD DUP3 SSTORE SWAP2 PUSH1 0x20 ADD SWAP2 SWAP1 PUSH1 0x1 ADD SWAP1 PUSH2 0x2E77 JUMP JUMPDEST POP PUSH2 0x2E9E SWAP3 SWAP2 POP PUSH2 0x2EA2 JUMP JUMPDEST POP SWAP1 JUMP JUMPDEST JUMPDEST DUP1 DUP3 GT ISZERO PUSH2 0x2E9E JUMPI PUSH1 0x0 DUP2 SSTORE PUSH1 0x1 ADD PUSH2 0x2EA3 JUMP JUMPDEST PUSH4 0x4E487B71 PUSH1 0xE0 SHL PUSH1 0x0 MSTORE PUSH1 0x41 PUSH1 0x4 MSTORE PUSH1 0x24 PUSH1 0x0 REVERT JUMPDEST PUSH1 0x40 DUP1 MLOAD SWAP1 DUP2 ADD PUSH8 0xFFFFFFFFFFFFFFFF DUP2 GT DUP3 DUP3 LT OR ISZERO PUSH2 0x2EF0 JUMPI PUSH2 0x2EF0 PUSH2 0x2EB7 JUMP JUMPDEST PUSH1 0x40 MSTORE SWAP1 JUMP JUMPDEST PUSH1 0x40 MLOAD PUSH1 0x1F DUP3 ADD PUSH1 0x1F NOT AND DUP2 ADD PUSH8 0xFFFFFFFFFFFFFFFF DUP2 GT DUP3 DUP3 LT OR ISZERO PUSH2 0x2F1F JUMPI PUSH2 0x2F1F PUSH2 0x2EB7 JUMP JUMPDEST PUSH1 0x40 MSTORE SWAP2 SWAP1 POP JUMP JUMPDEST PUSH1 0x0 PUSH8 0xFFFFFFFFFFFFFFFF DUP3 GT ISZERO PUSH2 0x2F41 JUMPI PUSH2 0x2F41 PUSH2 0x2EB7 JUMP JUMPDEST POP PUSH1 0x5 SHL PUSH1 0x20 ADD SWAP1 JUMP JUMPDEST PUSH1 0x0 DUP3 PUSH1 0x1F DUP4 ADD SLT PUSH2 0x2F5C JUMPI PUSH1 0x0 DUP1 REVERT JUMPDEST DUP2 CALLDATALOAD PUSH1 0x20 PUSH2 0x2F71 PUSH2 0x2F6C DUP4 PUSH2 0x2F27 JUMP JUMPDEST PUSH2 0x2EF6 JUMP JUMPDEST DUP3 DUP2 MSTORE PUSH1 0x6 SWAP3 SWAP1 SWAP3 SHL DUP5 ADD DUP2 ADD SWAP2 DUP2 DUP2 ADD SWAP1 DUP7 DUP5 GT ISZERO PUSH2 0x2F90 JUMPI PUSH1 0x0 DUP1 REVERT JUMPDEST DUP3 DUP7 ADD JUMPDEST DUP5 DUP2 LT ISZERO PUSH2 0x2FCF JUMPI PUSH1 0x40 DUP2 DUP10 SUB SLT ISZERO PUSH2 0x2FAD JUMPI PUSH1 0x0 DUP1 DUP2 REVERT JUMPDEST PUSH2 0x2FB5 PUSH2 0x2ECD JUMP JUMPDEST DUP2 CALLDATALOAD DUP2 MSTORE DUP5 DUP3 ADD CALLDATALOAD DUP6 DUP3 ADD MSTORE DUP4 MSTORE SWAP2 DUP4 ADD SWAP2 PUSH1 0x40 ADD PUSH2 0x2F94 JUMP JUMPDEST POP SWAP7 SWAP6 POP POP POP POP POP POP JUMP JUMPDEST PUSH1 0x0 DUP1 PUSH1 0x40 DUP4 DUP6 SUB SLT ISZERO PUSH2 0x2FED JUMPI PUSH1 0x0 DUP1 REVERT JUMPDEST DUP3 CALLDATALOAD SWAP2 POP PUSH1 0x20 DUP4 ADD CALLDATALOAD PUSH8 0xFFFFFFFFFFFFFFFF DUP2 GT ISZERO PUSH2 0x300B JUMPI PUSH1 0x0 DUP1 REVERT JUMPDEST PUSH2 0x3017 DUP6 DUP3 DUP7 ADD PUSH2 0x2F4B JUMP JUMPDEST SWAP2 POP POP SWAP3 POP SWAP3 SWAP1 POP JUMP JUMPDEST PUSH1 0x0 DUP1 PUSH1 0x40 DUP4 DUP6 SUB SLT ISZERO PUSH2 0x3034 JUMPI PUSH1 0x0 DUP1 REVERT JUMPDEST POP POP DUP1 CALLDATALOAD SWAP3 PUSH1 0x20 SWAP1 SWAP2 ADD CALLDATALOAD SWAP2 POP JUMP JUMPDEST PUSH1 0x1 PUSH1 0x1 PUSH1 0xA0 SHL SUB DUP2 AND DUP2 EQ PUSH2 0x25D2 JUMPI PUSH1 0x0 DUP1 REVERT JUMPDEST PUSH1 0x0 DUP1 PUSH1 0x40 DUP4 DUP6 SUB SLT ISZERO PUSH2 0x306B JUMPI PUSH1 0x0 DUP1 REVERT JUMPDEST DUP3 CALLDATALOAD PUSH2 0x3076 DUP2 PUSH2 0x3043 JUMP JUMPDEST SWAP5 PUSH1 0x20 SWAP4 SWAP1 SWAP4 ADD CALLDATALOAD SWAP4 POP POP POP JUMP JUMPDEST DUP1 ISZERO ISZERO DUP2 EQ PUSH2 0x25D2 JUMPI PUSH1 0x0 DUP1 REVERT JUMPDEST PUSH1 0x0 DUP1 PUSH1 0x0 PUSH1 0x60 DUP5 DUP7 SUB SLT ISZERO PUSH2 0x30A7 JUMPI PUSH1 0x0 DUP1 REVERT JUMPDEST DUP4 CALLDATALOAD SWAP3 POP PUSH1 0x20 DUP5 ADD CALLDATALOAD SWAP2 POP PUSH1 0x40 DUP5 ADD CALLDATALOAD PUSH2 0x30C0 DUP2 PUSH2 0x3084 JUMP JUMPDEST DUP1 SWAP2 POP POP SWAP3 POP SWAP3 POP SWAP3 JUMP JUMPDEST PUSH1 0x0 DUP1 PUSH1 0x0 PUSH1 0x60 DUP5 DUP7 SUB SLT ISZERO PUSH2 0x30E0 JUMPI PUSH1 0x0 DUP1 REVERT JUMPDEST DUP4 CALLDATALOAD PUSH2 0x30EB DUP2 PUSH2 0x3043 JUMP JUMPDEST SWAP3 POP PUSH1 0x20 DUP5 ADD CALLDATALOAD PUSH2 0x30FB DUP2 PUSH2 0x3043 JUMP JUMPDEST SWAP2 POP PUSH1 0x40 DUP5 ADD CALLDATALOAD PUSH8 0xFFFFFFFFFFFFFFFF DUP2 GT ISZERO PUSH2 0x3117 JUMPI PUSH1 0x0 DUP1 REVERT JUMPDEST PUSH2 0x3123 DUP7 DUP3 DUP8 ADD PUSH2 0x2F4B JUMP JUMPDEST SWAP2 POP POP SWAP3 POP SWAP3 POP SWAP3 JUMP JUMPDEST PUSH1 0x0 PUSH1 0x20 DUP3 DUP5 SUB SLT ISZERO PUSH2 0x313F JUMPI PUSH1 0x0 DUP1 REVERT JUMPDEST DUP2 CALLDATALOAD PUSH2 0x2DDB DUP2 PUSH2 0x3043 JUMP JUMPDEST PUSH1 0x20 DUP1 DUP3 MSTORE DUP3 MLOAD DUP3 DUP3 ADD DUP2 SWAP1 MSTORE PUSH1 0x0 SWAP2 SWAP1 PUSH1 0x40 SWAP1 DUP2 DUP6 ADD SWAP1 DUP7 DUP5 ADD DUP6 JUMPDEST DUP3 DUP2 LT ISZERO PUSH2 0x31D5 JUMPI DUP2 MLOAD DUP1 MLOAD DUP6 MSTORE DUP7 DUP2 ADD MLOAD DUP8 DUP7 ADD MSTORE DUP6 DUP2 ADD MLOAD DUP7 DUP7 ADD MSTORE PUSH1 0x60 DUP1 DUP3 ADD MLOAD SWAP1 DUP7 ADD MSTORE PUSH1 0x80 DUP1 DUP3 ADD MLOAD SWAP1 DUP7 ADD MSTORE PUSH1 0xA0 DUP1 DUP3 ADD MLOAD SWAP1 DUP7 ADD MSTORE PUSH1 0xC0 DUP1 DUP3 ADD MLOAD SWAP1 DUP7 ADD MSTORE PUSH1 0xE0 DUP1 DUP3 ADD MLOAD SWAP1 DUP7 ADD MSTORE PUSH2 0x100 SWAP1 DUP2 ADD MLOAD SWAP1 DUP6 ADD MSTORE PUSH2 0x120 SWAP1 SWAP4 ADD SWAP3 SWAP1 DUP6 ADD SWAP1 PUSH1 0x1 ADD PUSH2 0x3167 JUMP JUMPDEST POP SWAP2 SWAP8 SWAP7 POP POP POP POP POP POP POP JUMP JUMPDEST PUSH1 0x0 PUSH1 0x20 DUP3 DUP5 SUB SLT ISZERO PUSH2 0x31F4 JUMPI PUSH1 0x0 DUP1 REVERT JUMPDEST POP CALLDATALOAD SWAP2 SWAP1 POP JUMP JUMPDEST PUSH1 0x0 DUP1 PUSH1 0x0 PUSH1 0x60 DUP5 DUP7 SUB SLT ISZERO PUSH2 0x3210 JUMPI PUSH1 0x0 DUP1 REVERT JUMPDEST POP POP DUP2 CALLDATALOAD SWAP4 PUSH1 0x20 DUP4 ADD CALLDATALOAD SWAP4 POP PUSH1 0x40 SWAP1 SWAP3 ADD CALLDATALOAD SWAP2 SWAP1 POP JUMP JUMPDEST PUSH1 0x0 DUP1 PUSH1 0x0 PUSH1 0x60 DUP5 DUP7 SUB SLT ISZERO PUSH2 0x323C JUMPI PUSH1 0x0 DUP1 REVERT JUMPDEST DUP4 CALLDATALOAD PUSH2 0x3247 DUP2 PUSH2 0x3043 JUMP JUMPDEST SWAP3 POP PUSH1 0x20 DUP5 ADD CALLDATALOAD SWAP2 POP PUSH1 0x40 DUP5 ADD CALLDATALOAD PUSH2 0x30C0 DUP2 PUSH2 0x3084 JUMP JUMPDEST PUSH1 0x0 DUP1 PUSH1 0x40 DUP4 DUP6 SUB SLT ISZERO PUSH2 0x3271 JUMPI PUSH1 0x0 DUP1 REVERT JUMPDEST DUP3 CALLDATALOAD PUSH2 0x327C DUP2 PUSH2 0x3043 JUMP JUMPDEST SWAP2 POP PUSH1 0x20 DUP4 DUP2 ADD CALLDATALOAD PUSH8 0xFFFFFFFFFFFFFFFF DUP2 GT ISZERO PUSH2 0x3299 JUMPI PUSH1 0x0 DUP1 REVERT JUMPDEST DUP5 ADD PUSH1 0x1F DUP2 ADD DUP7 SGT PUSH2 0x32AA JUMPI PUSH1 0x0 DUP1 REVERT JUMPDEST DUP1 CALLDATALOAD PUSH2 0x32B8 PUSH2 0x2F6C DUP3 PUSH2 0x2F27 JUMP JUMPDEST DUP2 DUP2 MSTORE PUSH1 0x5 SWAP2 SWAP1 SWAP2 SHL DUP3 ADD DUP4 ADD SWAP1 DUP4 DUP2 ADD SWAP1 DUP9 DUP4 GT ISZERO PUSH2 0x32D7 JUMPI PUSH1 0x0 DUP1 REVERT JUMPDEST SWAP3 DUP5 ADD SWAP3 JUMPDEST DUP3 DUP5 LT ISZERO PUSH2 0x32F5 JUMPI DUP4 CALLDATALOAD DUP3 MSTORE SWAP3 DUP5 ADD SWAP3 SWAP1 DUP5 ADD SWAP1 PUSH2 0x32DC JUMP JUMPDEST DUP1 SWAP6 POP POP POP POP POP POP SWAP3 POP SWAP3 SWAP1 POP JUMP JUMPDEST PUSH1 0x20 DUP1 DUP3 MSTORE DUP2 DUP2 ADD MSTORE PUSH32 0x4F776E61626C653A2063616C6C6572206973206E6F7420746865206F776E6572 PUSH1 0x40 DUP3 ADD MSTORE PUSH1 0x60 ADD SWAP1 JUMP JUMPDEST PUSH1 0x20 DUP1 DUP3 MSTORE PUSH1 0x1C SWAP1 DUP3 ADD MSTORE PUSH32 0x5374616B696E673A20506F6F6C20646F65736E27742065786973747300000000 PUSH1 0x40 DUP3 ADD MSTORE PUSH1 0x60 ADD SWAP1 JUMP JUMPDEST PUSH4 0x4E487B71 PUSH1 0xE0 SHL PUSH1 0x0 MSTORE PUSH1 0x32 PUSH1 0x4 MSTORE PUSH1 0x24 PUSH1 0x0 REVERT JUMPDEST PUSH4 0x4E487B71 PUSH1 0xE0 SHL PUSH1 0x0 MSTORE PUSH1 0x11 PUSH1 0x4 MSTORE PUSH1 0x24 PUSH1 0x0 REVERT JUMPDEST PUSH1 0x0 PUSH1 0x1 DUP3 ADD PUSH2 0x33AE JUMPI PUSH2 0x33AE PUSH2 0x3386 JUMP JUMPDEST POP PUSH1 0x1 ADD SWAP1 JUMP JUMPDEST PUSH1 0x0 DUP3 PUSH2 0x33D2 JUMPI PUSH4 0x4E487B71 PUSH1 0xE0 SHL PUSH1 0x0 MSTORE PUSH1 0x12 PUSH1 0x4 MSTORE PUSH1 0x24 PUSH1 0x0 REVERT JUMPDEST POP DIV SWAP1 JUMP JUMPDEST PUSH1 0x0 DUP3 DUP3 LT ISZERO PUSH2 0x33E9 JUMPI PUSH2 0x33E9 PUSH2 0x3386 JUMP JUMPDEST POP SUB SWAP1 JUMP JUMPDEST PUSH1 0x0 DUP2 PUSH1 0x0 NOT DIV DUP4 GT DUP3 ISZERO ISZERO AND ISZERO PUSH2 0x3408 JUMPI PUSH2 0x3408 PUSH2 0x3386 JUMP JUMPDEST POP MUL SWAP1 JUMP JUMPDEST PUSH1 0x20 DUP1 DUP3 MSTORE PUSH1 0x1F SWAP1 DUP3 ADD MSTORE PUSH32 0x5265656E7472616E637947756172643A207265656E7472616E742063616C6C00 PUSH1 0x40 DUP3 ADD MSTORE PUSH1 0x60 ADD SWAP1 JUMP JUMPDEST PUSH1 0x0 PUSH1 0x20 DUP3 DUP5 SUB SLT ISZERO PUSH2 0x3456 JUMPI PUSH1 0x0 DUP1 REVERT JUMPDEST POP MLOAD SWAP2 SWAP1 POP JUMP JUMPDEST PUSH1 0x1 PUSH1 0x1 PUSH1 0xA0 SHL SUB SWAP4 DUP5 AND DUP2 MSTORE SWAP2 SWAP1 SWAP3 AND PUSH1 0x20 DUP3 ADD MSTORE PUSH1 0x40 DUP2 ADD SWAP2 SWAP1 SWAP2 MSTORE PUSH1 0x60 ADD SWAP1 JUMP JUMPDEST PUSH1 0x0 PUSH1 0x20 DUP3 DUP5 SUB SLT ISZERO PUSH2 0x3493 JUMPI PUSH1 0x0 DUP1 REVERT JUMPDEST DUP2 MLOAD PUSH2 0x2DDB DUP2 PUSH2 0x3084 JUMP JUMPDEST PUSH1 0x0 DUP3 NOT DUP3 GT ISZERO PUSH2 0x34B1 JUMPI PUSH2 0x34B1 PUSH2 0x3386 JUMP JUMPDEST POP ADD SWAP1 JUMP JUMPDEST DUP1 MLOAD PUSH2 0x2CC4 DUP2 PUSH2 0x3043 JUMP JUMPDEST DUP1 MLOAD PUSH3 0xFFFFFF DUP2 AND DUP2 EQ PUSH2 0x2CC4 JUMPI PUSH1 0x0 DUP1 REVERT JUMPDEST DUP1 MLOAD PUSH1 0x2 DUP2 SWAP1 SIGNEXTEND DUP2 EQ PUSH2 0x2CC4 JUMPI PUSH1 0x0 DUP1 REVERT JUMPDEST DUP1 MLOAD PUSH1 0x1 PUSH1 0x1 PUSH1 0x80 SHL SUB DUP2 AND DUP2 EQ PUSH2 0x2CC4 JUMPI PUSH1 0x0 DUP1 REVERT JUMPDEST PUSH1 0x0 DUP1 PUSH1 0x0 DUP1 PUSH1 0x0 DUP1 PUSH1 0x0 DUP1 PUSH1 0x0 DUP1 PUSH1 0x0 DUP1 PUSH2 0x180 DUP14 DUP16 SUB SLT ISZERO PUSH2 0x3520 JUMPI PUSH1 0x0 DUP1 REVERT JUMPDEST DUP13 MLOAD PUSH12 0xFFFFFFFFFFFFFFFFFFFFFFFF DUP2 AND DUP2 EQ PUSH2 0x353C JUMPI PUSH1 0x0 DUP1 REVERT JUMPDEST SWAP12 POP PUSH2 0x354A PUSH1 0x20 DUP15 ADD PUSH2 0x34B6 JUMP JUMPDEST SWAP11 POP PUSH2 0x3558 PUSH1 0x40 DUP15 ADD PUSH2 0x34B6 JUMP JUMPDEST SWAP10 POP PUSH2 0x3566 PUSH1 0x60 DUP15 ADD PUSH2 0x34B6 JUMP JUMPDEST SWAP9 POP PUSH2 0x3574 PUSH1 0x80 DUP15 ADD PUSH2 0x34C1 JUMP JUMPDEST SWAP8 POP PUSH2 0x3582 PUSH1 0xA0 DUP15 ADD PUSH2 0x34D4 JUMP JUMPDEST SWAP7 POP PUSH2 0x3590 PUSH1 0xC0 DUP15 ADD PUSH2 0x34D4 JUMP JUMPDEST SWAP6 POP PUSH2 0x359E PUSH1 0xE0 DUP15 ADD PUSH2 0x34E6 JUMP JUMPDEST SWAP5 POP PUSH2 0x100 DUP14 ADD MLOAD SWAP4 POP PUSH2 0x120 DUP14 ADD MLOAD SWAP3 POP PUSH2 0x35BD PUSH2 0x140 DUP15 ADD PUSH2 0x34E6 JUMP JUMPDEST SWAP2 POP PUSH2 0x35CC PUSH2 0x160 DUP15 ADD PUSH2 0x34E6 JUMP JUMPDEST SWAP1 POP SWAP3 SWAP6 SWAP9 SWAP12 POP SWAP3 SWAP6 SWAP9 SWAP12 POP SWAP3 SWAP6 SWAP9 SWAP12 JUMP JUMPDEST PUSH1 0x0 PUSH1 0x20 DUP3 DUP5 SUB SLT ISZERO PUSH2 0x35F0 JUMPI PUSH1 0x0 DUP1 REVERT JUMPDEST DUP2 MLOAD PUSH2 0x2DDB DUP2 PUSH2 0x3043 JUMP JUMPDEST PUSH1 0x20 DUP1 DUP3 MSTORE PUSH1 0x2E SWAP1 DUP3 ADD MSTORE PUSH32 0x496E697469616C697A61626C653A20636F6E747261637420697320616C726561 PUSH1 0x40 DUP3 ADD MSTORE PUSH14 0x191E481A5B9A5D1A585B1A5E9959 PUSH1 0x92 SHL PUSH1 0x60 DUP3 ADD MSTORE PUSH1 0x80 ADD SWAP1 JUMP JUMPDEST PUSH1 0x20 DUP1 DUP3 MSTORE PUSH1 0x2B SWAP1 DUP3 ADD MSTORE PUSH32 0x496E697469616C697A61626C653A20636F6E7472616374206973206E6F742069 PUSH1 0x40 DUP3 ADD MSTORE PUSH11 0x6E697469616C697A696E67 PUSH1 0xA8 SHL PUSH1 0x60 DUP3 ADD MSTORE PUSH1 0x80 ADD SWAP1 JUMP INVALID LOG2 PUSH5 0x6970667358 0x22 SLT KECCAK256 0xCF XOR 0xC2 0xC4 0x23 COINBASE LOG3 ADD SWAP14 0xEE PUSH7 0x749B9858BBE1DD SHR 0xDD DIFFICULTY SWAP8 DUP11 SHR DUP7 SMOD 0x23 MULMOD PUSH28 0xCB042864736F6C634300080D00330000000000000000000000000000 "
		},
		"gasEstimates": {
			"creation": {
				"codeDepositCost": "2805200",
				"executionCost": "3061",
				"totalCost": "2808261"
			},
			"external": {
				"AdminWETHWithdraw()": "infinite",
				"PRECISION_FACTOR()": "229",
				"PauseStaking()": "50873",
				"ResumeStaking()": "50841",
				"WETH()": "2449",
				"addPool(address,address,(uint256,uint256)[])": "infinite",
				"addRewardToPool(uint256,uint256)": "infinite",
				"calculateReward(address,uint256,bool)": "infinite",
				"depositDetails(uint256)": "19606",
				"deposits(address,uint256)": "19767",
				"getAPR(uint256,uint256)": "2635",
				"getAccMarketFee()": "infinite",
				"getDeposits(address)": "infinite",
				"getHavestAmount(address,uint256)": "infinite",
				"haveSuffecientFundsForReward(uint256)": "infinite",
				"initialize(address,uint256[])": "infinite",
				"isPaused()": "2377",
				"onlyaddress()": "2428",
				"owner()": "2443",
				"pausedTimestamp()": "2329",
				"periodPoolMap(uint256)": "4710",
				"periodSum()": "2352",
				"poolLength()": "2317",
				"pools(uint256)": "13268",
				"receiveWETHFee(uint256)": "infinite",
				"renounceOwnership()": "28229",
				"setOnlyAddress(address)": "26816",
				"stake(uint256,uint256,uint256)": "infinite",
				"tokenPools(address)": "2636",
				"totalReward()": "infinite",
				"transferOwnership(address)": "infinite",
				"updateAPR(uint256,(uint256,uint256)[])": "infinite",
				"userDepositMap(address,uint256)": "4793",
				"vestingAPRPerPool(uint256,uint256)": "2655",
				"withdraw(uint256,uint256,bool)": "infinite",
				"withdrawRewardfromPool(uint256,uint256)": "infinite"
			},
			"internal": {
				"_calculateReward(address,uint256,bool)": "infinite",
				"harvestFee(address,uint256)": "infinite",
				"setPeriodSum(uint256[] memory)": "infinite"
			}
		},
		"methodIdentifiers": {
			"AdminWETHWithdraw()": "2c86714c",
			"PRECISION_FACTOR()": "ccd34cd5",
			"PauseStaking()": "73f64499",
			"ResumeStaking()": "e179b5c3",
			"WETH()": "ad5c4648",
			"addPool(address,address,(uint256,uint256)[])": "88f67d77",
			"addRewardToPool(uint256,uint256)": "f8ce1f31",
			"calculateReward(address,uint256,bool)": "ba41795f",
			"depositDetails(uint256)": "9aaab954",
			"deposits(address,uint256)": "d6d68177",
			"getAPR(uint256,uint256)": "1ee7f3c4",
			"getAccMarketFee()": "b0203a80",
			"getDeposits(address)": "94f649dd",
			"getHavestAmount(address,uint256)": "24a723d4",
			"haveSuffecientFundsForReward(uint256)": "cf5badc6",
			"initialize(address,uint256[])": "e7272866",
			"isPaused()": "b187bd26",
			"onlyaddress()": "110d458e",
			"owner()": "8da5cb5b",
			"pausedTimestamp()": "911ef508",
			"periodPoolMap(uint256)": "c4b91c4d",
			"periodSum()": "82a14459",
			"poolLength()": "081e3eda",
			"pools(uint256)": "ac4afa38",
			"receiveWETHFee(uint256)": "e7c928b1",
			"renounceOwnership()": "715018a6",
			"setOnlyAddress(address)": "a2234080",
			"stake(uint256,uint256,uint256)": "a638f2e2",
			"tokenPools(address)": "c3d2c3c1",
			"totalReward()": "750142e6",
			"transferOwnership(address)": "f2fde38b",
			"updateAPR(uint256,(uint256,uint256)[])": "0c756997",
			"userDepositMap(address,uint256)": "e76ba191",
			"vestingAPRPerPool(uint256,uint256)": "a32a66a7",
			"withdraw(uint256,uint256,bool)": "33cfcd3b",
			"withdrawRewardfromPool(uint256,uint256)": "a54c83f6"
		}
	},
	"abi": [
		{
			"anonymous": false,
			"inputs": [
				{
					"indexed": true,
					"internalType": "address",
					"name": "user",
					"type": "address"
				},
				{
					"indexed": false,
					"internalType": "uint256",
					"name": "feeReward",
					"type": "uint256"
				}
			],
			"name": "Harvest",
			"type": "event"
		},
		{
			"anonymous": false,
			"inputs": [
				{
					"indexed": false,
					"internalType": "uint8",
					"name": "version",
					"type": "uint8"
				}
			],
			"name": "Initialized",
			"type": "event"
		},
		{
			"anonymous": false,
			"inputs": [
				{
					"indexed": true,
					"internalType": "address",
					"name": "previousOwner",
					"type": "address"
				},
				{
					"indexed": true,
					"internalType": "address",
					"name": "newOwner",
					"type": "address"
				}
			],
			"name": "OwnershipTransferred",
			"type": "event"
		},
		{
			"anonymous": false,
			"inputs": [
				{
					"indexed": true,
					"internalType": "address",
					"name": "staker",
					"type": "address"
				},
				{
					"indexed": false,
					"internalType": "uint256",
					"name": "amount",
					"type": "uint256"
				},
				{
					"indexed": true,
					"internalType": "uint256",
					"name": "_poolId",
					"type": "uint256"
				},
				{
					"indexed": false,
					"internalType": "uint256",
					"name": "timestamp",
					"type": "uint256"
				}
			],
			"name": "RewardClaimed",
			"type": "event"
		},
		{
			"anonymous": false,
			"inputs": [
				{
					"indexed": true,
					"internalType": "address",
					"name": "staker",
					"type": "address"
				},
				{
					"indexed": false,
					"internalType": "uint256",
					"name": "amount",
					"type": "uint256"
				},
				{
					"indexed": true,
					"internalType": "uint256",
					"name": "_poolId",
					"type": "uint256"
				},
				{
					"indexed": false,
					"internalType": "uint256",
					"name": "timestamp",
					"type": "uint256"
				}
			],
			"name": "Staked",
			"type": "event"
		},
		{
			"anonymous": false,
			"inputs": [
				{
					"indexed": true,
					"internalType": "address",
					"name": "staker",
					"type": "address"
				},
				{
					"indexed": false,
					"internalType": "uint256",
					"name": "amount",
					"type": "uint256"
				},
				{
					"indexed": true,
					"internalType": "uint256",
					"name": "_poolId",
					"type": "uint256"
				},
				{
					"indexed": false,
					"internalType": "uint256",
					"name": "timestamp",
					"type": "uint256"
				}
			],
			"name": "Unstaked",
			"type": "event"
		},
		{
			"anonymous": false,
			"inputs": [
				{
					"indexed": true,
					"internalType": "address",
					"name": "user",
					"type": "address"
				},
				{
					"indexed": false,
					"internalType": "uint256",
					"name": "amount",
					"type": "uint256"
				}
			],
			"name": "WETHDeposit",
			"type": "event"
		},
		{
			"anonymous": false,
			"inputs": [
				{
					"indexed": true,
					"internalType": "address",
					"name": "user",
					"type": "address"
				},
				{
					"indexed": false,
					"internalType": "uint256",
					"name": "amount",
					"type": "uint256"
				}
			],
			"name": "WETHWithdraw",
			"type": "event"
		},
		{
			"inputs": [],
			"name": "AdminWETHWithdraw",
			"outputs": [],
			"stateMutability": "nonpayable",
			"type": "function"
		},
		{
			"inputs": [],
			"name": "PRECISION_FACTOR",
			"outputs": [
				{
					"internalType": "uint256",
					"name": "",
					"type": "uint256"
				}
			],
			"stateMutability": "view",
			"type": "function"
		},
		{
			"inputs": [],
			"name": "PauseStaking",
			"outputs": [],
			"stateMutability": "nonpayable",
			"type": "function"
		},
		{
			"inputs": [],
			"name": "ResumeStaking",
			"outputs": [],
			"stateMutability": "nonpayable",
			"type": "function"
		},
		{
			"inputs": [],
			"name": "WETH",
			"outputs": [
				{
					"internalType": "contract IERC20Upgradeable",
					"name": "",
					"type": "address"
				}
			],
			"stateMutability": "view",
			"type": "function"
		},
		{
			"inputs": [
				{
					"internalType": "address",
					"name": "_token",
					"type": "address"
				},
				{
					"internalType": "address",
					"name": "_reward",
					"type": "address"
				},
				{
					"components": [
						{
							"internalType": "uint256",
							"name": "period",
							"type": "uint256"
						},
						{
							"internalType": "uint256",
							"name": "APR",
							"type": "uint256"
						}
					],
					"internalType": "struct LPStakingV3.interestRate[]",
					"name": "_periodRates",
					"type": "tuple[]"
				}
			],
			"name": "addPool",
			"outputs": [],
			"stateMutability": "nonpayable",
			"type": "function"
		},
		{
			"inputs": [
				{
					"internalType": "uint256",
					"name": "_poolId",
					"type": "uint256"
				},
				{
					"internalType": "uint256",
					"name": "amount",
					"type": "uint256"
				}
			],
			"name": "addRewardToPool",
			"outputs": [],
			"stateMutability": "nonpayable",
			"type": "function"
		},
		{
			"inputs": [
				{
					"internalType": "address",
					"name": "_stakeHolder",
					"type": "address"
				},
				{
					"internalType": "uint256",
					"name": "_dId",
					"type": "uint256"
				},
				{
					"internalType": "bool",
					"name": "isProrata",
					"type": "bool"
				}
			],
			"name": "calculateReward",
			"outputs": [
				{
					"internalType": "uint256",
					"name": "reward",
					"type": "uint256"
				}
			],
			"stateMutability": "view",
			"type": "function"
		},
		{
			"inputs": [
				{
					"internalType": "uint256",
					"name": "",
					"type": "uint256"
				}
			],
			"name": "depositDetails",
			"outputs": [
				{
					"internalType": "uint256",
					"name": "depositId",
					"type": "uint256"
				},
				{
					"internalType": "uint256",
					"name": "stake",
					"type": "uint256"
				},
				{
					"internalType": "uint256",
					"name": "reward",
					"type": "uint256"
				},
				{
					"internalType": "uint256",
					"name": "APR",
					"type": "uint256"
				},
				{
					"internalType": "uint256",
					"name": "period",
					"type": "uint256"
				},
				{
					"internalType": "uint256",
					"name": "lastRewardCalculated",
					"type": "uint256"
				},
				{
					"internalType": "uint256",
					"name": "poolId",
					"type": "uint256"
				},
				{
					"internalType": "uint256",
					"name": "vestedFor",
					"type": "uint256"
				},
				{
					"internalType": "uint256",
					"name": "NFTId",
					"type": "uint256"
				}
			],
			"stateMutability": "view",
			"type": "function"
		},
		{
			"inputs": [
				{
					"internalType": "address",
					"name": "",
					"type": "address"
				},
				{
					"internalType": "uint256",
					"name": "",
					"type": "uint256"
				}
			],
			"name": "deposits",
			"outputs": [
				{
					"internalType": "uint256",
					"name": "depositId",
					"type": "uint256"
				},
				{
					"internalType": "uint256",
					"name": "stake",
					"type": "uint256"
				},
				{
					"internalType": "uint256",
					"name": "reward",
					"type": "uint256"
				},
				{
					"internalType": "uint256",
					"name": "APR",
					"type": "uint256"
				},
				{
					"internalType": "uint256",
					"name": "period",
					"type": "uint256"
				},
				{
					"internalType": "uint256",
					"name": "lastRewardCalculated",
					"type": "uint256"
				},
				{
					"internalType": "uint256",
					"name": "poolId",
					"type": "uint256"
				},
				{
					"internalType": "uint256",
					"name": "vestedFor",
					"type": "uint256"
				},
				{
					"internalType": "uint256",
					"name": "NFTId",
					"type": "uint256"
				}
			],
			"stateMutability": "view",
			"type": "function"
		},
		{
			"inputs": [
				{
					"internalType": "uint256",
					"name": "_poolId",
					"type": "uint256"
				},
				{
					"internalType": "uint256",
					"name": "_period",
					"type": "uint256"
				}
			],
			"name": "getAPR",
			"outputs": [
				{
					"internalType": "uint256",
					"name": "",
					"type": "uint256"
				}
			],
			"stateMutability": "view",
			"type": "function"
		},
		{
			"inputs": [],
			"name": "getAccMarketFee",
			"outputs": [
				{
					"internalType": "uint256",
					"name": "",
					"type": "uint256"
				}
			],
			"stateMutability": "view",
			"type": "function"
		},
		{
			"inputs": [
				{
					"internalType": "address",
					"name": "_user",
					"type": "address"
				}
			],
			"name": "getDeposits",
			"outputs": [
				{
					"components": [
						{
							"internalType": "uint256",
							"name": "depositId",
							"type": "uint256"
						},
						{
							"internalType": "uint256",
							"name": "stake",
							"type": "uint256"
						},
						{
							"internalType": "uint256",
							"name": "reward",
							"type": "uint256"
						},
						{
							"internalType": "uint256",
							"name": "APR",
							"type": "uint256"
						},
						{
							"internalType": "uint256",
							"name": "period",
							"type": "uint256"
						},
						{
							"internalType": "uint256",
							"name": "lastRewardCalculated",
							"type": "uint256"
						},
						{
							"internalType": "uint256",
							"name": "poolId",
							"type": "uint256"
						},
						{
							"internalType": "uint256",
							"name": "vestedFor",
							"type": "uint256"
						},
						{
							"internalType": "uint256",
							"name": "NFTId",
							"type": "uint256"
						}
					],
					"internalType": "struct LPStakingV3.stakeDetails[]",
					"name": "",
					"type": "tuple[]"
				}
			],
			"stateMutability": "view",
			"type": "function"
		},
		{
			"inputs": [
				{
					"internalType": "address",
					"name": "_user",
					"type": "address"
				},
				{
					"internalType": "uint256",
					"name": "_dId",
					"type": "uint256"
				}
			],
			"name": "getHavestAmount",
			"outputs": [
				{
					"internalType": "uint256",
					"name": "",
					"type": "uint256"
				}
			],
			"stateMutability": "view",
			"type": "function"
		},
		{
			"inputs": [
				{
					"internalType": "uint256",
					"name": "_poolId",
					"type": "uint256"
				}
			],
			"name": "haveSuffecientFundsForReward",
			"outputs": [
				{
					"internalType": "bool",
					"name": "",
					"type": "bool"
				}
			],
			"stateMutability": "view",
			"type": "function"
		},
		{
			"inputs": [
				{
					"internalType": "address",
					"name": "_feeToken",
					"type": "address"
				},
				{
					"internalType": "uint256[]",
					"name": "_periods",
					"type": "uint256[]"
				}
			],
			"name": "initialize",
			"outputs": [],
			"stateMutability": "nonpayable",
			"type": "function"
		},
		{
			"inputs": [],
			"name": "isPaused",
			"outputs": [
				{
					"internalType": "bool",
					"name": "",
					"type": "bool"
				}
			],
			"stateMutability": "view",
			"type": "function"
		},
		{
			"inputs": [],
			"name": "onlyaddress",
			"outputs": [
				{
					"internalType": "address",
					"name": "",
					"type": "address"
				}
			],
			"stateMutability": "view",
			"type": "function"
		},
		{
			"inputs": [],
			"name": "owner",
			"outputs": [
				{
					"internalType": "address",
					"name": "",
					"type": "address"
				}
			],
			"stateMutability": "view",
			"type": "function"
		},
		{
			"inputs": [],
			"name": "pausedTimestamp",
			"outputs": [
				{
					"internalType": "uint256",
					"name": "",
					"type": "uint256"
				}
			],
			"stateMutability": "view",
			"type": "function"
		},
		{
			"inputs": [
				{
					"internalType": "uint256",
					"name": "",
					"type": "uint256"
				}
			],
			"name": "periodPoolMap",
			"outputs": [
				{
					"internalType": "uint256",
					"name": "tvl",
					"type": "uint256"
				},
				{
					"internalType": "uint256",
					"name": "totalAllotedFeeReward",
					"type": "uint256"
				}
			],
			"stateMutability": "view",
			"type": "function"
		},
		{
			"inputs": [],
			"name": "periodSum",
			"outputs": [
				{
					"internalType": "uint256",
					"name": "",
					"type": "uint256"
				}
			],
			"stateMutability": "view",
			"type": "function"
		},
		{
			"inputs": [],
			"name": "poolLength",
			"outputs": [
				{
					"internalType": "uint256",
					"name": "",
					"type": "uint256"
				}
			],
			"stateMutability": "view",
			"type": "function"
		},
		{
			"inputs": [
				{
					"internalType": "uint256",
					"name": "",
					"type": "uint256"
				}
			],
			"name": "pools",
			"outputs": [
				{
					"internalType": "address",
					"name": "token",
					"type": "address"
				},
				{
					"internalType": "address",
					"name": "reward",
					"type": "address"
				},
				{
					"internalType": "uint256",
					"name": "tvl",
					"type": "uint256"
				},
				{
					"internalType": "uint256",
					"name": "totalAllotedReward",
					"type": "uint256"
				},
				{
					"internalType": "uint256",
					"name": "totalClaimedReward",
					"type": "uint256"
				}
			],
			"stateMutability": "view",
			"type": "function"
		},
		{
			"inputs": [
				{
					"internalType": "uint256",
					"name": "amount",
					"type": "uint256"
				}
			],
			"name": "receiveWETHFee",
			"outputs": [],
			"stateMutability": "nonpayable",
			"type": "function"
		},
		{
			"inputs": [],
			"name": "renounceOwnership",
			"outputs": [],
			"stateMutability": "nonpayable",
			"type": "function"
		},
		{
			"inputs": [
				{
					"internalType": "address",
					"name": "_only",
					"type": "address"
				}
			],
			"name": "setOnlyAddress",
			"outputs": [],
			"stateMutability": "nonpayable",
			"type": "function"
		},
		{
			"inputs": [
				{
					"internalType": "uint256",
					"name": "_poolId",
					"type": "uint256"
				},
				{
					"internalType": "uint256",
					"name": "tokenId",
					"type": "uint256"
				},
				{
					"internalType": "uint256",
					"name": "_period",
					"type": "uint256"
				}
			],
			"name": "stake",
			"outputs": [
				{
					"internalType": "uint256",
					"name": "",
					"type": "uint256"
				}
			],
			"stateMutability": "nonpayable",
			"type": "function"
		},
		{
			"inputs": [
				{
					"internalType": "address",
					"name": "",
					"type": "address"
				}
			],
			"name": "tokenPools",
			"outputs": [
				{
					"internalType": "bool",
					"name": "",
					"type": "bool"
				}
			],
			"stateMutability": "view",
			"type": "function"
		},
		{
			"inputs": [],
			"name": "totalReward",
			"outputs": [
				{
					"internalType": "uint256",
					"name": "_totalReward",
					"type": "uint256"
				}
			],
			"stateMutability": "view",
			"type": "function"
		},
		{
			"inputs": [
				{
					"internalType": "address",
					"name": "newOwner",
					"type": "address"
				}
			],
			"name": "transferOwnership",
			"outputs": [],
			"stateMutability": "nonpayable",
			"type": "function"
		},
		{
			"inputs": [
				{
					"internalType": "uint256",
					"name": "_poolId",
					"type": "uint256"
				},
				{
					"components": [
						{
							"internalType": "uint256",
							"name": "period",
							"type": "uint256"
						},
						{
							"internalType": "uint256",
							"name": "APR",
							"type": "uint256"
						}
					],
					"internalType": "struct LPStakingV3.interestRate[]",
					"name": "_periodRates",
					"type": "tuple[]"
				}
			],
			"name": "updateAPR",
			"outputs": [],
			"stateMutability": "nonpayable",
			"type": "function"
		},
		{
			"inputs": [
				{
					"internalType": "address",
					"name": "",
					"type": "address"
				},
				{
					"internalType": "uint256",
					"name": "",
					"type": "uint256"
				}
			],
			"name": "userDepositMap",
			"outputs": [
				{
					"internalType": "uint256",
					"name": "",
					"type": "uint256"
				}
			],
			"stateMutability": "view",
			"type": "function"
		},
		{
			"inputs": [
				{
					"internalType": "uint256",
					"name": "",
					"type": "uint256"
				},
				{
					"internalType": "uint256",
					"name": "",
					"type": "uint256"
				}
			],
			"name": "vestingAPRPerPool",
			"outputs": [
				{
					"internalType": "uint256",
					"name": "",
					"type": "uint256"
				}
			],
			"stateMutability": "view",
			"type": "function"
		},
		{
			"inputs": [
				{
					"internalType": "uint256",
					"name": "_poolId",
					"type": "uint256"
				},
				{
					"internalType": "uint256",
					"name": "_dId",
					"type": "uint256"
				},
				{
					"internalType": "bool",
					"name": "isForceWithdraw",
					"type": "bool"
				}
			],
			"name": "withdraw",
			"outputs": [],
			"stateMutability": "nonpayable",
			"type": "function"
		},
		{
			"inputs": [
				{
					"internalType": "uint256",
					"name": "_poolId",
					"type": "uint256"
				},
				{
					"internalType": "uint256",
					"name": "amount",
					"type": "uint256"
				}
			],
			"name": "withdrawRewardfromPool",
			"outputs": [],
			"stateMutability": "nonpayable",
			"type": "function"
		}
	]
}